{
  "contractName": "CerbySwapV1_VaultImplementation",
  "abi": [
    {
      "inputs": [],
      "stateMutability": "nonpayable",
      "type": "constructor"
    },
    {
      "inputs": [],
      "name": "CerbySwapV1_Vault_AlreadyInitialized",
      "type": "error"
    },
    {
      "inputs": [],
      "name": "CerbySwapV1_Vault_CallerIsNotOwner",
      "type": "error"
    },
    {
      "inputs": [],
      "name": "CerbySwapV1_Vault_SafeTransferNativeFailed",
      "type": "error"
    },
    {
      "stateMutability": "payable",
      "type": "receive"
    },
    {
      "inputs": [
        {
          "internalType": "address",
          "name": "_token",
          "type": "address"
        },
        {
          "internalType": "address",
          "name": "_cerUsdToken",
          "type": "address"
        },
        {
          "internalType": "bool",
          "name": "_isNativeToken",
          "type": "bool"
        }
      ],
      "name": "initialize",
      "outputs": [],
      "stateMutability": "nonpayable",
      "type": "function"
    },
    {
      "inputs": [],
      "name": "token0",
      "outputs": [
        {
          "internalType": "address",
          "name": "",
          "type": "address"
        }
      ],
      "stateMutability": "view",
      "type": "function"
    },
    {
      "inputs": [],
      "name": "token1",
      "outputs": [
        {
          "internalType": "address",
          "name": "",
          "type": "address"
        }
      ],
      "stateMutability": "view",
      "type": "function"
    },
    {
      "inputs": [
        {
          "internalType": "address",
          "name": "_to",
          "type": "address"
        },
        {
          "internalType": "uint256",
          "name": "_value",
          "type": "uint256"
        }
      ],
      "name": "withdrawEth",
      "outputs": [],
      "stateMutability": "nonpayable",
      "type": "function"
    }
  ],
  "bytecode": "0x608060405234801561001057600080fd5b5061042b806100206000396000f3fe6080604052600436106100435760003560e01c80630dfe16811461004f5780631b9a91a414610085578063d21220a7146100a7578063e4bbb5a8146100c557600080fd5b3661004a57005b600080fd5b34801561005b57600080fd5b506000546001600160a01b03165b6040516001600160a01b03909116815260200160405180910390f35b34801561009157600080fd5b506100a56100a0366004610314565b6100e5565b005b3480156100b357600080fd5b506001546001600160a01b0316610069565b3480156100d157600080fd5b506100a56100e036600461034f565b6101a3565b6002546001600160a01b031633146101105760405163ab243e4960e01b815260040160405180910390fd5b604080516000808252602082019092526001600160a01b03841690839060405161013a9190610396565b60006040518083038185875af1925050503d8060008114610177576040519150601f19603f3d011682016040523d82523d6000602084013e61017c565b606091505b505090508061019e57604051635aeccf6b60e01b815260040160405180910390fd5b505050565b6002546001600160a01b0316156101cd57604051635df00fd960e11b815260040160405180910390fd5b806102465760405163095ea7b360e01b815233600482015260001960248201526001600160a01b0384169063095ea7b3906044016020604051808303816000875af1158015610220573d6000803e3d6000fd5b505050506040513d601f19601f8201168201806040525081019061024491906103d1565b505b60405163095ea7b360e01b815233600482015260001960248201526001600160a01b0383169063095ea7b3906044016020604051808303816000875af1158015610294573d6000803e3d6000fd5b505050506040513d601f19601f820116820180604052508101906102b891906103d1565b5050600080546001600160a01b039384166001600160a01b0319918216179091556001805492909316918116919091179091556002805490911633179055565b80356001600160a01b038116811461030f57600080fd5b919050565b6000806040838503121561032757600080fd5b610330836102f8565b946020939093013593505050565b801515811461034c57600080fd5b50565b60008060006060848603121561036457600080fd5b61036d846102f8565b925061037b602085016102f8565b9150604084013561038b8161033e565b809150509250925092565b6000825160005b818110156103b7576020818601810151858301520161039d565b818111156103c6576000828501525b509190910192915050565b6000602082840312156103e357600080fd5b81516103ee8161033e565b939250505056fea2646970667358221220de8bca7e708c07456887e37c07722d9705870d2beb946413f36490eb1e31aebe64736f6c634300080b0033",
  "immutableReferences": {},
  "source": "// SPDX-License-Identifier: BUSL-1.1\n\npragma solidity ^0.8.11;\n\nimport \"./interfaces/IERC20.sol\";\n\ncontract CerbySwapV1_VaultImplementation {\n\n    address token;\n    address cerUsdToken;\n    address owner; // Q: would this mean owner is always the same?\n\n    error CerbySwapV1_Vault_SafeTransferNativeFailed();\n    error CerbySwapV1_Vault_CallerIsNotOwner();\n    error CerbySwapV1_Vault_AlreadyInitialized();\n\n    constructor() {} // Q: why?\n\n    function initialize(\n        address _token,\n        address _cerUsdToken, // TODO: remove cerUsd update from here on production\n        bool _isNativeToken\n    )\n        external\n    {\n        if (owner != address(0)) {\n            revert CerbySwapV1_Vault_AlreadyInitialized();\n        }\n\n        if (_isNativeToken == false) {\n            IERC20(_token).approve( // re-entrancy problem\n                msg.sender,\n                type(uint256).max\n            );\n        }\n\n        IERC20(_cerUsdToken).approve(\n            msg.sender,\n            type(uint256).max\n        );\n\n        token = _token;\n        cerUsdToken = _cerUsdToken;\n        owner = msg.sender; // Q: this address is main contract then?\n    }\n\n    receive() external payable {}\n\n    function token0()\n        external\n        view\n        returns (address)\n    {\n        return token;\n    }\n\n    function token1()\n        external\n        view\n        returns (address)\n    {\n        return cerUsdToken;\n    }\n\n    function withdrawEth(\n        address _to,\n        uint256 _value\n    )\n        external\n    {\n        if (msg.sender != owner) { // Q: who will be calling?\n            revert CerbySwapV1_Vault_CallerIsNotOwner();\n        }\n\n        // refer to https://github.com/Uniswap/solidity-lib/blob/master/contracts/libraries/TransferHelper.sol\n        (bool success, ) = _to.call{value: _value}(new bytes(0));\n\n        // we allow only successfull calls\n        if (!success) {\n            revert CerbySwapV1_Vault_SafeTransferNativeFailed();\n        }\n    }\n}\n",
  "sourcePath": "/Users/vm06007/Development/sol-cerby-swap-v1/CerbySwapV1_Tests/contracts/CerbySwapV1_VaultImplementation.sol",
  "compiler": {
    "name": "solc",
    "version": "0.8.11+commit.d7f03943.Emscripten.clang"
  },
  "schemaVersion": "3.4.4",
  "updatedAt": "2022-02-04T07:54:21.096Z",
  "devdoc": {
    "kind": "dev",
    "methods": {},
    "version": 1
  },
  "userdoc": {
    "kind": "user",
    "methods": {},
    "version": 1
  }
}