{
    "contractName": "CerbySwapV1",
    "abi": [
        {
            "inputs": [],
            "stateMutability": "nonpayable",
            "type": "constructor"
        },
        {
            "inputs": [],
            "name": "CerbyCronJobsExecution_TransactionsAreTemporarilyDisabled",
            "type": "error"
        },
        {
            "inputs": [],
            "name": "CerbySwapLP1155V1_CallerIsNotOwnerNorApproved",
            "type": "error"
        },
        {
            "inputs": [],
            "name": "CerbySwapLP1155V1_TransactionsAreTemporarilyDisabled",
            "type": "error"
        },
        {
            "inputs": [],
            "name": "CerbySwapV1_AmountOfCerUsdMustBeLargerThanOne",
            "type": "error"
        },
        {
            "inputs": [],
            "name": "CerbySwapV1_AmountOfCerUsdOrTokensInMustBeLargerThanOne",
            "type": "error"
        },
        {
            "inputs": [],
            "name": "CerbySwapV1_AmountOfTokensMustBeLargerThanOne",
            "type": "error"
        },
        {
            "inputs": [],
            "name": "CerbySwapV1_CreditCerUsdIsOverflown",
            "type": "error"
        },
        {
            "inputs": [],
            "name": "CerbySwapV1_CreditCerUsdMustNotBeBelowZero",
            "type": "error"
        },
        {
            "inputs": [],
            "name": "CerbySwapV1_FeeIsWrong",
            "type": "error"
        },
        {
            "inputs": [],
            "name": "CerbySwapV1_FeeOnTransferTokensArentSupported",
            "type": "error"
        },
        {
            "inputs": [],
            "name": "CerbySwapV1_InputCerUsdAmountIsLargerThanMaximumSpecified",
            "type": "error"
        },
        {
            "inputs": [],
            "name": "CerbySwapV1_InputTokensAmountIsLargerThanMaximumSpecified",
            "type": "error"
        },
        {
            "inputs": [],
            "name": "CerbySwapV1_InvariantKValueMustBeSameOrIncreasedOnAnySwaps",
            "type": "error"
        },
        {
            "inputs": [],
            "name": "CerbySwapV1_MintFeeMultiplierMustNotBeLargerThan50Percent",
            "type": "error"
        },
        {
            "inputs": [],
            "name": "CerbySwapV1_MsgValueProvidedMustBeLargerThanAmountTokensIn",
            "type": "error"
        },
        {
            "inputs": [],
            "name": "CerbySwapV1_MsgValueProvidedMustBeZero",
            "type": "error"
        },
        {
            "inputs": [],
            "name": "CerbySwapV1_OutputCerUsdAmountIsLowerThanMinimumSpecified",
            "type": "error"
        },
        {
            "inputs": [],
            "name": "CerbySwapV1_OutputTokensAmountIsLowerThanMinimumSpecified",
            "type": "error"
        },
        {
            "inputs": [],
            "name": "CerbySwapV1_SafeTransferFromFailed",
            "type": "error"
        },
        {
            "inputs": [],
            "name": "CerbySwapV1_SafeTransferNativeFailed",
            "type": "error"
        },
        {
            "inputs": [],
            "name": "CerbySwapV1_SafeTransferTokensFailed",
            "type": "error"
        },
        {
            "inputs": [],
            "name": "CerbySwapV1_SwappingTokenToSameTokenIsForbidden",
            "type": "error"
        },
        {
            "inputs": [],
            "name": "CerbySwapV1_TokenAlreadyExists",
            "type": "error"
        },
        {
            "inputs": [],
            "name": "CerbySwapV1_TokenDoesNotExist",
            "type": "error"
        },
        {
            "inputs": [],
            "name": "CerbySwapV1_TransactionIsExpired",
            "type": "error"
        },
        {
            "inputs": [],
            "name": "CerbySwapV1_TvlMultiplierIsWrong",
            "type": "error"
        },
        {
            "inputs": [],
            "name": "ERC1155_AddressMustNotBeZeroAddress",
            "type": "error"
        },
        {
            "inputs": [],
            "name": "ERC1155_BurnAmountExceedsBalance",
            "type": "error"
        },
        {
            "inputs": [],
            "name": "ERC1155_CallerIsNotOwnerNorApproved",
            "type": "error"
        },
        {
            "inputs": [],
            "name": "ERC1155_ERC1155ReceiverRejectsTokens",
            "type": "error"
        },
        {
            "inputs": [],
            "name": "ERC1155_IdsLengthMismatch",
            "type": "error"
        },
        {
            "inputs": [],
            "name": "ERC1155_InsufficientBalanceForTransfer",
            "type": "error"
        },
        {
            "inputs": [],
            "name": "ERC1155_SettingApprovalStatusForSelf",
            "type": "error"
        },
        {
            "inputs": [],
            "name": "ERC1155_TransferToNonERC1155ReceiverImplementer",
            "type": "error"
        },
        {
            "inputs": [],
            "name": "Ownable_CallerIsNotOwner",
            "type": "error"
        },
        {
            "inputs": [],
            "name": "Ownable_NewOwnerIsNotTheZeroAddress",
            "type": "error"
        },
        {
            "anonymous": false,
            "inputs": [
                {
                    "indexed": true,
                    "internalType": "address",
                    "name": "account",
                    "type": "address"
                },
                {
                    "indexed": true,
                    "internalType": "address",
                    "name": "operator",
                    "type": "address"
                },
                {
                    "indexed": false,
                    "internalType": "bool",
                    "name": "approved",
                    "type": "bool"
                }
            ],
            "name": "ApprovalForAll",
            "type": "event"
        },
        {
            "anonymous": false,
            "inputs": [
                {
                    "indexed": false,
                    "internalType": "address",
                    "name": "_token",
                    "type": "address"
                },
                {
                    "indexed": false,
                    "internalType": "uint256",
                    "name": "_amountTokensIn",
                    "type": "uint256"
                },
                {
                    "indexed": false,
                    "internalType": "uint256",
                    "name": "_amountCerUsdToMint",
                    "type": "uint256"
                },
                {
                    "indexed": false,
                    "internalType": "uint256",
                    "name": "_lpAmount",
                    "type": "uint256"
                }
            ],
            "name": "LiquidityAdded",
            "type": "event"
        },
        {
            "anonymous": false,
            "inputs": [
                {
                    "indexed": false,
                    "internalType": "address",
                    "name": "_token",
                    "type": "address"
                },
                {
                    "indexed": false,
                    "internalType": "uint256",
                    "name": "_amountTokensOut",
                    "type": "uint256"
                },
                {
                    "indexed": false,
                    "internalType": "uint256",
                    "name": "_amountCerUsdToBurn",
                    "type": "uint256"
                },
                {
                    "indexed": false,
                    "internalType": "uint256",
                    "name": "_amountLpTokensBalanceToBurn",
                    "type": "uint256"
                }
            ],
            "name": "LiquidityRemoved",
            "type": "event"
        },
        {
            "anonymous": false,
            "inputs": [
                {
                    "indexed": true,
                    "internalType": "address",
                    "name": "previousOwner",
                    "type": "address"
                },
                {
                    "indexed": true,
                    "internalType": "address",
                    "name": "newOwner",
                    "type": "address"
                }
            ],
            "name": "OwnershipTransferred",
            "type": "event"
        },
        {
            "anonymous": false,
            "inputs": [
                {
                    "indexed": false,
                    "internalType": "address",
                    "name": "_token",
                    "type": "address"
                },
                {
                    "indexed": false,
                    "internalType": "address",
                    "name": "_vaultAddress",
                    "type": "address"
                },
                {
                    "indexed": false,
                    "internalType": "uint256",
                    "name": "_poolId",
                    "type": "uint256"
                }
            ],
            "name": "PoolCreated",
            "type": "event"
        },
        {
            "anonymous": false,
            "inputs": [
                {
                    "indexed": false,
                    "internalType": "address",
                    "name": "_token",
                    "type": "address"
                },
                {
                    "indexed": false,
                    "internalType": "address",
                    "name": "_sender",
                    "type": "address"
                },
                {
                    "indexed": false,
                    "internalType": "uint256",
                    "name": "_amountTokensIn",
                    "type": "uint256"
                },
                {
                    "indexed": false,
                    "internalType": "uint256",
                    "name": "_amountCerUsdIn",
                    "type": "uint256"
                },
                {
                    "indexed": false,
                    "internalType": "uint256",
                    "name": "__amountTokensOut",
                    "type": "uint256"
                },
                {
                    "indexed": false,
                    "internalType": "uint256",
                    "name": "amountCerUsdOut",
                    "type": "uint256"
                },
                {
                    "indexed": false,
                    "internalType": "uint256",
                    "name": "_currentFee",
                    "type": "uint256"
                },
                {
                    "indexed": false,
                    "internalType": "address",
                    "name": "_transferTo",
                    "type": "address"
                }
            ],
            "name": "Swap",
            "type": "event"
        },
        {
            "anonymous": false,
            "inputs": [
                {
                    "indexed": false,
                    "internalType": "address",
                    "name": "_token",
                    "type": "address"
                },
                {
                    "indexed": false,
                    "internalType": "uint256",
                    "name": "_newBalanceToken",
                    "type": "uint256"
                },
                {
                    "indexed": false,
                    "internalType": "uint256",
                    "name": "_newBalanceCerUsd",
                    "type": "uint256"
                },
                {
                    "indexed": false,
                    "internalType": "uint256",
                    "name": "_newCreditCerUsd",
                    "type": "uint256"
                }
            ],
            "name": "Sync",
            "type": "event"
        },
        {
            "anonymous": false,
            "inputs": [
                {
                    "indexed": true,
                    "internalType": "address",
                    "name": "operator",
                    "type": "address"
                },
                {
                    "indexed": true,
                    "internalType": "address",
                    "name": "from",
                    "type": "address"
                },
                {
                    "indexed": true,
                    "internalType": "address",
                    "name": "to",
                    "type": "address"
                },
                {
                    "indexed": false,
                    "internalType": "uint256[]",
                    "name": "ids",
                    "type": "uint256[]"
                },
                {
                    "indexed": false,
                    "internalType": "uint256[]",
                    "name": "values",
                    "type": "uint256[]"
                }
            ],
            "name": "TransferBatch",
            "type": "event"
        },
        {
            "anonymous": false,
            "inputs": [
                {
                    "indexed": true,
                    "internalType": "address",
                    "name": "operator",
                    "type": "address"
                },
                {
                    "indexed": true,
                    "internalType": "address",
                    "name": "from",
                    "type": "address"
                },
                {
                    "indexed": true,
                    "internalType": "address",
                    "name": "to",
                    "type": "address"
                },
                {
                    "indexed": false,
                    "internalType": "uint256",
                    "name": "id",
                    "type": "uint256"
                },
                {
                    "indexed": false,
                    "internalType": "uint256",
                    "name": "value",
                    "type": "uint256"
                }
            ],
            "name": "TransferSingle",
            "type": "event"
        },
        {
            "anonymous": false,
            "inputs": [
                {
                    "indexed": false,
                    "internalType": "string",
                    "name": "value",
                    "type": "string"
                },
                {
                    "indexed": true,
                    "internalType": "uint256",
                    "name": "id",
                    "type": "uint256"
                }
            ],
            "name": "URI",
            "type": "event"
        },
        {
            "inputs": [
                {
                    "internalType": "address",
                    "name": "_token",
                    "type": "address"
                },
                {
                    "internalType": "uint256",
                    "name": "_amountTokensIn",
                    "type": "uint256"
                },
                {
                    "internalType": "uint256",
                    "name": "_expireTimestamp",
                    "type": "uint256"
                },
                {
                    "internalType": "address",
                    "name": "_transferTo",
                    "type": "address"
                }
            ],
            "name": "addTokenLiquidity",
            "outputs": [
                {
                    "internalType": "uint256",
                    "name": "",
                    "type": "uint256"
                }
            ],
            "stateMutability": "payable",
            "type": "function"
        },
        {
            "inputs": [
                {
                    "internalType": "address",
                    "name": "_token",
                    "type": "address"
                },
                {
                    "internalType": "uint256",
                    "name": "_amountCerUsdCredit",
                    "type": "uint256"
                }
            ],
            "name": "adminChangeCerUsdCreditInPool",
            "outputs": [],
            "stateMutability": "nonpayable",
            "type": "function"
        },
        {
            "inputs": [
                {
                    "internalType": "address",
                    "name": "_token",
                    "type": "address"
                },
                {
                    "internalType": "uint256",
                    "name": "_amountTokensIn",
                    "type": "uint256"
                },
                {
                    "internalType": "uint256",
                    "name": "_amountCerUsdToMint",
                    "type": "uint256"
                },
                {
                    "internalType": "address",
                    "name": "_transferTo",
                    "type": "address"
                }
            ],
            "name": "adminCreatePool",
            "outputs": [],
            "stateMutability": "payable",
            "type": "function"
        },
        {
            "inputs": [],
            "name": "adminInitialize",
            "outputs": [],
            "stateMutability": "payable",
            "type": "function"
        },
        {
            "inputs": [
                {
                    "internalType": "string",
                    "name": "_newUrlPrefix",
                    "type": "string"
                }
            ],
            "name": "adminSetURI",
            "outputs": [],
            "stateMutability": "nonpayable",
            "type": "function"
        },
        {
            "inputs": [
                {
                    "components": [
                        {
                            "internalType": "address",
                            "name": "mintFeeBeneficiary",
                            "type": "address"
                        },
                        {
                            "internalType": "uint32",
                            "name": "mintFeeMultiplier",
                            "type": "uint32"
                        },
                        {
                            "internalType": "uint16",
                            "name": "feeMinimum",
                            "type": "uint16"
                        },
                        {
                            "internalType": "uint16",
                            "name": "feeMaximum",
                            "type": "uint16"
                        },
                        {
                            "internalType": "uint64",
                            "name": "tvlMultiplierMinimum",
                            "type": "uint64"
                        },
                        {
                            "internalType": "uint64",
                            "name": "tvlMultiplierMaximum",
                            "type": "uint64"
                        }
                    ],
                    "internalType": "struct CerbySwapV1_Declarations.Settings",
                    "name": "_settings",
                    "type": "tuple"
                }
            ],
            "name": "adminUpdateFeesAndTvlMultipliers",
            "outputs": [],
            "stateMutability": "nonpayable",
            "type": "function"
        },
        {
            "inputs": [
                {
                    "internalType": "string",
                    "name": "_newContractName",
                    "type": "string"
                },
                {
                    "internalType": "string",
                    "name": "_newContractSymbol",
                    "type": "string"
                }
            ],
            "name": "adminUpdateNameAndSymbol",
            "outputs": [],
            "stateMutability": "nonpayable",
            "type": "function"
        },
        {
            "inputs": [
                {
                    "internalType": "address",
                    "name": "_account",
                    "type": "address"
                },
                {
                    "internalType": "uint256",
                    "name": "_id",
                    "type": "uint256"
                }
            ],
            "name": "balanceOf",
            "outputs": [
                {
                    "internalType": "uint256",
                    "name": "",
                    "type": "uint256"
                }
            ],
            "stateMutability": "view",
            "type": "function"
        },
        {
            "inputs": [
                {
                    "internalType": "address[]",
                    "name": "_accounts",
                    "type": "address[]"
                },
                {
                    "internalType": "uint256[]",
                    "name": "_ids",
                    "type": "uint256[]"
                }
            ],
            "name": "balanceOfBatch",
            "outputs": [
                {
                    "internalType": "uint256[]",
                    "name": "",
                    "type": "uint256[]"
                }
            ],
            "stateMutability": "view",
            "type": "function"
        },
        {
            "inputs": [
                {
                    "internalType": "address",
                    "name": "_token",
                    "type": "address"
                },
                {
                    "internalType": "uint256",
                    "name": "_amountTokensIn",
                    "type": "uint256"
                },
                {
                    "internalType": "uint256",
                    "name": "_amountCerUsdToMint",
                    "type": "uint256"
                },
                {
                    "internalType": "address",
                    "name": "_transferTo",
                    "type": "address"
                }
            ],
            "name": "createPool",
            "outputs": [],
            "stateMutability": "payable",
            "type": "function"
        },
        {
            "inputs": [],
            "name": "decimals",
            "outputs": [
                {
                    "internalType": "uint256",
                    "name": "",
                    "type": "uint256"
                }
            ],
            "stateMutability": "pure",
            "type": "function"
        },
        {
            "inputs": [
                {
                    "internalType": "uint256",
                    "name": "_id",
                    "type": "uint256"
                }
            ],
            "name": "exists",
            "outputs": [
                {
                    "internalType": "bool",
                    "name": "",
                    "type": "bool"
                }
            ],
            "stateMutability": "view",
            "type": "function"
        },
        {
            "inputs": [
                {
                    "internalType": "address",
                    "name": "_token",
                    "type": "address"
                }
            ],
            "name": "getCurrentOneMinusFeeBasedOnTrades",
            "outputs": [
                {
                    "internalType": "uint256",
                    "name": "fee",
                    "type": "uint256"
                }
            ],
            "stateMutability": "view",
            "type": "function"
        },
        {
            "inputs": [
                {
                    "internalType": "address",
                    "name": "_tokenIn",
                    "type": "address"
                },
                {
                    "internalType": "address",
                    "name": "_tokenOut",
                    "type": "address"
                },
                {
                    "internalType": "uint256",
                    "name": "_amountTokensOut",
                    "type": "uint256"
                }
            ],
            "name": "getInputTokensForExactTokens",
            "outputs": [
                {
                    "internalType": "uint256",
                    "name": "",
                    "type": "uint256"
                }
            ],
            "stateMutability": "view",
            "type": "function"
        },
        {
            "inputs": [
                {
                    "internalType": "address",
                    "name": "_tokenIn",
                    "type": "address"
                },
                {
                    "internalType": "address",
                    "name": "_tokenOut",
                    "type": "address"
                },
                {
                    "internalType": "uint256",
                    "name": "_amountTokensIn",
                    "type": "uint256"
                }
            ],
            "name": "getOutputExactTokensForTokens",
            "outputs": [
                {
                    "internalType": "uint256",
                    "name": "",
                    "type": "uint256"
                }
            ],
            "stateMutability": "view",
            "type": "function"
        },
        {
            "inputs": [
                {
                    "internalType": "address[]",
                    "name": "_tokens",
                    "type": "address[]"
                }
            ],
            "name": "getPoolsByTokens",
            "outputs": [
                {
                    "components": [
                        {
                            "internalType": "uint256",
                            "name": "balanceToken",
                            "type": "uint256"
                        },
                        {
                            "internalType": "uint256",
                            "name": "balanceCerUsd",
                            "type": "uint256"
                        }
                    ],
                    "internalType": "struct CerbySwapV1_Declarations.PoolBalances[]",
                    "name": "",
                    "type": "tuple[]"
                }
            ],
            "stateMutability": "view",
            "type": "function"
        },
        {
            "inputs": [],
            "name": "getSettings",
            "outputs": [
                {
                    "components": [
                        {
                            "internalType": "address",
                            "name": "mintFeeBeneficiary",
                            "type": "address"
                        },
                        {
                            "internalType": "uint32",
                            "name": "mintFeeMultiplier",
                            "type": "uint32"
                        },
                        {
                            "internalType": "uint16",
                            "name": "feeMinimum",
                            "type": "uint16"
                        },
                        {
                            "internalType": "uint16",
                            "name": "feeMaximum",
                            "type": "uint16"
                        },
                        {
                            "internalType": "uint64",
                            "name": "tvlMultiplierMinimum",
                            "type": "uint64"
                        },
                        {
                            "internalType": "uint64",
                            "name": "tvlMultiplierMaximum",
                            "type": "uint64"
                        }
                    ],
                    "internalType": "struct CerbySwapV1_Declarations.Settings",
                    "name": "",
                    "type": "tuple"
                }
            ],
            "stateMutability": "view",
            "type": "function"
        },
        {
            "inputs": [
                {
                    "internalType": "address",
                    "name": "_token",
                    "type": "address"
                }
            ],
            "name": "getTokenToPoolId",
            "outputs": [
                {
                    "internalType": "uint256",
                    "name": "",
                    "type": "uint256"
                }
            ],
            "stateMutability": "view",
            "type": "function"
        },
        {
            "inputs": [
                {
                    "internalType": "uint256",
                    "name": "_pos",
                    "type": "uint256"
                }
            ],
            "name": "getUtilsContractAtPos",
            "outputs": [
                {
                    "internalType": "address",
                    "name": "",
                    "type": "address"
                }
            ],
            "stateMutability": "view",
            "type": "function"
        },
        {
            "inputs": [
                {
                    "internalType": "address",
                    "name": "_token",
                    "type": "address"
                },
                {
                    "internalType": "uint256",
                    "name": "_amountCerUsdCredit",
                    "type": "uint256"
                }
            ],
            "name": "increaseCerUsdCreditInPool",
            "outputs": [],
            "stateMutability": "nonpayable",
            "type": "function"
        },
        {
            "inputs": [
                {
                    "internalType": "address",
                    "name": "_account",
                    "type": "address"
                },
                {
                    "internalType": "address",
                    "name": "_operator",
                    "type": "address"
                }
            ],
            "name": "isApprovedForAll",
            "outputs": [
                {
                    "internalType": "bool",
                    "name": "",
                    "type": "bool"
                }
            ],
            "stateMutability": "view",
            "type": "function"
        },
        {
            "inputs": [],
            "name": "name",
            "outputs": [
                {
                    "internalType": "string",
                    "name": "",
                    "type": "string"
                }
            ],
            "stateMutability": "view",
            "type": "function"
        },
        {
            "inputs": [],
            "name": "owner",
            "outputs": [
                {
                    "internalType": "address",
                    "name": "",
                    "type": "address"
                }
            ],
            "stateMutability": "view",
            "type": "function"
        },
        {
            "inputs": [
                {
                    "internalType": "address",
                    "name": "_token",
                    "type": "address"
                },
                {
                    "internalType": "uint256",
                    "name": "_amountLpTokensBalanceToBurn",
                    "type": "uint256"
                },
                {
                    "internalType": "uint256",
                    "name": "_expireTimestamp",
                    "type": "uint256"
                },
                {
                    "internalType": "address",
                    "name": "_transferTo",
                    "type": "address"
                }
            ],
            "name": "removeTokenLiquidity",
            "outputs": [
                {
                    "internalType": "uint256",
                    "name": "",
                    "type": "uint256"
                }
            ],
            "stateMutability": "nonpayable",
            "type": "function"
        },
        {
            "inputs": [],
            "name": "renounceOwnership",
            "outputs": [],
            "stateMutability": "nonpayable",
            "type": "function"
        },
        {
            "inputs": [
                {
                    "internalType": "address",
                    "name": "_from",
                    "type": "address"
                },
                {
                    "internalType": "address",
                    "name": "_to",
                    "type": "address"
                },
                {
                    "internalType": "uint256",
                    "name": "_id",
                    "type": "uint256"
                },
                {
                    "internalType": "uint256",
                    "name": "_amount",
                    "type": "uint256"
                },
                {
                    "internalType": "bytes",
                    "name": "_data",
                    "type": "bytes"
                }
            ],
            "name": "safeTransferFrom",
            "outputs": [],
            "stateMutability": "nonpayable",
            "type": "function"
        },
        {
            "inputs": [
                {
                    "internalType": "address",
                    "name": "_operator",
                    "type": "address"
                },
                {
                    "internalType": "bool",
                    "name": "_approved",
                    "type": "bool"
                }
            ],
            "name": "setApprovalForAll",
            "outputs": [],
            "stateMutability": "nonpayable",
            "type": "function"
        },
        {
            "inputs": [
                {
                    "internalType": "bytes4",
                    "name": "interfaceId",
                    "type": "bytes4"
                }
            ],
            "name": "supportsInterface",
            "outputs": [
                {
                    "internalType": "bool",
                    "name": "",
                    "type": "bool"
                }
            ],
            "stateMutability": "view",
            "type": "function"
        },
        {
            "inputs": [
                {
                    "internalType": "address",
                    "name": "_tokenIn",
                    "type": "address"
                },
                {
                    "internalType": "address",
                    "name": "_tokenOut",
                    "type": "address"
                },
                {
                    "internalType": "uint256",
                    "name": "_amountTokensIn",
                    "type": "uint256"
                },
                {
                    "internalType": "uint256",
                    "name": "_minAmountTokensOut",
                    "type": "uint256"
                },
                {
                    "internalType": "uint256",
                    "name": "_expireTimestamp",
                    "type": "uint256"
                },
                {
                    "internalType": "address",
                    "name": "_transferTo",
                    "type": "address"
                }
            ],
            "name": "swapExactTokensForTokens",
            "outputs": [
                {
                    "internalType": "uint256[]",
                    "name": "",
                    "type": "uint256[]"
                }
            ],
            "stateMutability": "payable",
            "type": "function"
        },
        {
            "inputs": [
                {
                    "internalType": "address",
                    "name": "_tokenIn",
                    "type": "address"
                },
                {
                    "internalType": "address",
                    "name": "_tokenOut",
                    "type": "address"
                },
                {
                    "internalType": "uint256",
                    "name": "_amountTokensOut",
                    "type": "uint256"
                },
                {
                    "internalType": "uint256",
                    "name": "_maxAmountTokensIn",
                    "type": "uint256"
                },
                {
                    "internalType": "uint256",
                    "name": "_expireTimestamp",
                    "type": "uint256"
                },
                {
                    "internalType": "address",
                    "name": "_transferTo",
                    "type": "address"
                }
            ],
            "name": "swapTokensForExactTokens",
            "outputs": [
                {
                    "internalType": "uint256[]",
                    "name": "",
                    "type": "uint256[]"
                }
            ],
            "stateMutability": "payable",
            "type": "function"
        },
        {
            "inputs": [],
            "name": "symbol",
            "outputs": [
                {
                    "internalType": "string",
                    "name": "",
                    "type": "string"
                }
            ],
            "stateMutability": "view",
            "type": "function"
        },
        {
            "inputs": [],
            "name": "testInit",
            "outputs": [],
            "stateMutability": "nonpayable",
            "type": "function"
        },
        {
            "inputs": [
                {
                    "internalType": "address",
                    "name": "",
                    "type": "address"
                },
                {
                    "internalType": "address",
                    "name": "_testCerbyToken",
                    "type": "address"
                },
                {
                    "internalType": "address",
                    "name": "_cerUsdToken",
                    "type": "address"
                },
                {
                    "internalType": "address",
                    "name": "_testUsdcToken",
                    "type": "address"
                },
                {
                    "internalType": "address",
                    "name": "",
                    "type": "address"
                }
            ],
            "name": "testSetupTokens",
            "outputs": [],
            "stateMutability": "nonpayable",
            "type": "function"
        },
        {
            "inputs": [],
            "name": "totalSupply",
            "outputs": [
                {
                    "internalType": "uint256",
                    "name": "",
                    "type": "uint256"
                }
            ],
            "stateMutability": "view",
            "type": "function"
        },
        {
            "inputs": [
                {
                    "internalType": "uint256",
                    "name": "_id",
                    "type": "uint256"
                }
            ],
            "name": "totalSupply",
            "outputs": [
                {
                    "internalType": "uint256",
                    "name": "",
                    "type": "uint256"
                }
            ],
            "stateMutability": "view",
            "type": "function"
        },
        {
            "inputs": [
                {
                    "internalType": "address",
                    "name": "_newOwner",
                    "type": "address"
                }
            ],
            "name": "transferOwnership",
            "outputs": [],
            "stateMutability": "nonpayable",
            "type": "function"
        },
        {
            "inputs": [
                {
                    "internalType": "uint256",
                    "name": "_id",
                    "type": "uint256"
                }
            ],
            "name": "uri",
            "outputs": [
                {
                    "internalType": "string",
                    "name": "",
                    "type": "string"
                }
            ],
            "stateMutability": "view",
            "type": "function"
        },
        {
            "stateMutability": "payable",
            "type": "receive"
        }
    ],
    "bytecode": "600380546001600160a01b031990811673527ea24a5917c452dbf402edc9da4190239bccf11790915560048054821673947ef3df5b7d5ec37214dd06c4042c8e7b0cebd71790556005805482167346e8e0af862f636199af69acd082b9963066ed9c179055600680549091167314769f96e57b80c66837701de0b43686fb4632de17905560c0604052600b60808190526a436572627953776170563160a81b60a0908152620000b291600d91906200055d565b506040805180820190915260038082526243533160e81b6020909201918252620000df91600e916200055d565b506040518060600160405280602381526020016200557f6023913980516200011091600f916020909101906200055d565b503480156200011e57600080fd5b50600f6040516020016200013391906200070d565b60408051601f198184030181529190526200014e81620004f2565b506200015a336200050b565b73def78a28c78a461598d948bc0c689ce88f812ad860006064620001826127106014620007cb565b6200018e9190620007f9565b90506351a67366600160c882600083620001a98484620007cb565b620001b59190620007f9565b6040805160c0810182526001600160a01b038a1680825263ffffffff8a166020830181905261ffff8981169484018590528816606084018190526001600160401b038881166080860181905290871660a0909501859052600780546001600160c01b031916909417600160a01b9093029290921763ffffffff60c01b1916600160c01b90950261ffff60d01b191694909417600160d01b909402939093179055600880546001600160801b03191690921768010000000000000000909102179055905062000282620005ec565b6040805160a08101825282815260006020820181905291810182905260608101829052608081018290528154600181018355918052805190916003027f290decd9548b62a8d60345a988386fc84ba6bc95484008f6362f93160ef3e5630190620002f090829060066200060a565b506020820151600182810180546040860151606087015161ffff90951662ffffff19909216919091176201000060ff90921691909102176301000000600160901b03191663010000006001600160781b0394851602179055608090930151600290920180546001600160781b031916929091169190911790554614156200039d57600680546001600160a01b03191673c02aaa39b223fe8d0a0e5c4f27ead9083c756cc217905562000471565b4660381415620003d357600680546001600160a01b03191673bb4cdb9cbd36b01bd1cbaebf2de08d9173bc095c17905562000471565b46608914156200040957600680546001600160a01b031916730d500b1d8e8ef31e21c99d1db9a6444d3adf127017905562000471565b4661a86a14156200044057600680546001600160a01b03191673b31f66aa3c1e785363f0875a1b74e27b85fd66c717905562000471565b4660fa14156200047157600680546001600160a01b0319167321be370d5312f44cb42ce377bc9b8a0cef1a4c831790555b600680546001600160a01b0319167314769f96e57b80c66837701de0b43686fb4632de179055604051620004a590620006ab565b604051809103906000f080158015620004c2573d6000803e3d6000fd5b50600280546001600160a01b0319166001600160a01b0392909216919091179055506200081c9650505050505050565b80516200050790600b9060208401906200055d565b5050565b601080546001600160a01b038381166001600160a01b0319831681179093556040519116919082907f8be0079c531659141344cd1fd0a4f28419497f9722a3daafe3b4186f6b6457e090600090a35050565b8280546200056b90620006d0565b90600052602060002090601f0160209004810192826200058f5760008555620005da565b82601f10620005aa57805160ff1916838001178555620005da565b82800160010185558215620005da579182015b82811115620005da578251825591602001919060010190620005bd565b50620005e8929150620006b9565b5090565b6040518060c001604052806006906020820280368337509192915050565b600183019183908215620005da5791602002820160005b838211156200066957835183826101000a81548164ffffffffff021916908364ffffffffff160217905550926020019260050160208160040104928301926001030262000621565b80156200069c5782816101000a81549064ffffffffff021916905560050160208160040104928301926001030262000669565b5050620005e8929150620006b9565b610442806200513d83390190565b5b80821115620005e85760008155600101620006ba565b600181811c90821680620006e557607f821691505b602082108114156200070757634e487b7160e01b600052602260045260246000fd5b50919050565b600080835481600182811c9150808316806200072a57607f831692505b60208084108214156200074b57634e487b7160e01b86526022600452602486fd5b8180156200076257600181146200077457620007a3565b60ff19861689528489019650620007a3565b60008a81526020902060005b868110156200079b5781548b82015290850190830162000780565b505084890196505b505050505050620007c381683db4b23e973539b7b760b91b815260090190565b949350505050565b6000816000190483118215151615620007f457634e487b7160e01b600052601160045260246000fd5b500290565b6000826200081757634e487b7160e01b600052601260045260246000fd5b500490565b614911806200082c6000396000f3fe60806040526004361061021d5760003560e01c806374fcf07111610123578063bd85b039116100ab578063e985e9c51161006f578063e985e9c514610744578063eca010931461078d578063f242432a146107ad578063f2fde38b146107cd578063f6524724146107ed57600080fd5b8063bd85b039146106bc578063c09c923b146106e9578063c790985a146106f1578063cab4ba8214610711578063d5d607371461073157600080fd5b806395d89b41116100f257806395d89b411461063f578063a22cb46514610654578063a60c6e5514610674578063a7fd40bf14610687578063b5d11e99146106a757600080fd5b806374fcf071146104c9578063842980f4146104e957806385b4bb53146104fc5780638da5cb5b1461062157600080fd5b80634301bae1116101a65780634e1273f4116101755780634e1273f4146104025780634f558e791461042f578063614175161461045e578063715018a61461049457806371858049146104a957600080fd5b80634301bae11461038f57806343fefad4146103af57806348b08d62146103c25780634c3c0eb2146103e257600080fd5b80630e89341c116101ed5780630e89341c146102f757806318160ddd14610317578063313ce5671461032c57806334e150ab146103405780633935ac111461036d57600080fd5b8062fdd58e1461022957806301ffc9a71461025c57806306fb1a071461029d57806306fdde03146102d557600080fd5b3661022457005b600080fd5b34801561023557600080fd5b50610249610244366004613cc4565b610800565b6040519081526020015b60405180910390f35b34801561026857600080fd5b5061028d610277366004613d06565b6001600160e01b0319166301ffc9a760e01b1490565b6040519015158152602001610253565b3480156102a957600080fd5b506102bd6102b8366004613d23565b610853565b6040516001600160a01b039091168152602001610253565b3480156102e157600080fd5b506102ea6108d0565b6040516102539190613d94565b34801561030357600080fd5b506102ea610312366004613d23565b610962565b34801561032357600080fd5b5061024961098e565b34801561033857600080fd5b506012610249565b34801561034c57600080fd5b5061036061035b366004613df2565b6109da565b6040516102539190613e33565b34801561037957600080fd5b5061038d610388366004613f24565b610ab6565b005b34801561039b57600080fd5b5061038d6103aa366004613f87565b610b1c565b6102496103bd366004613f99565b610c78565b3480156103ce57600080fd5b506102496103dd366004613fe3565b610fae565b3480156103ee57600080fd5b506102496103fd366004614024565b611044565b34801561040e57600080fd5b5061042261041d366004614041565b6110a0565b60405161025391906140ac565b34801561043b57600080fd5b5061028d61044a366004613d23565b6000908152600c6020526040902054151590565b34801561046a57600080fd5b50610249610479366004614024565b6001600160a01b031660009081526001602052604090205490565b3480156104a057600080fd5b5061038d611196565b3480156104b557600080fd5b5061038d6104c4366004613cc4565b6111dc565b3480156104d557600080fd5b506102496104e4366004613f99565b61132a565b61038d6104f7366004613f99565b6113b2565b34801561050857600080fd5b506105b06040805160c081018252600080825260208201819052918101829052606081018290526080810182905260a0810191909152506040805160c0810182526007546001600160a01b038116825263ffffffff600160a01b820416602083015261ffff600160c01b8204811693830193909352600160d01b900490911660608201526008546001600160401b038082166080840152600160401b9091041660a082015290565b604051610253919081516001600160a01b0316815260208083015163ffffffff169082015260408083015161ffff90811691830191909152606080840151909116908201526080808301516001600160401b039081169183019190915260a092830151169181019190915260c00190565b34801561062d57600080fd5b506010546001600160a01b03166102bd565b34801561064b57600080fd5b506102ea6113c6565b34801561066057600080fd5b5061038d61066f3660046140fe565b6113d5565b610422610682366004614137565b611441565b34801561069357600080fd5b5061038d6106a23660046141df565b611806565b3480156106b357600080fd5b5061038d611876565b3480156106c857600080fd5b506102496106d7366004613d23565b6000908152600c602052604090205490565b61038d6118d4565b3480156106fd57600080fd5b5061024961070c366004613fe3565b61193f565b34801561071d57600080fd5b5061038d61072c366004613cc4565b6119c0565b61038d61073f366004613f99565b611af6565b34801561075057600080fd5b5061028d61075f366004614214565b6001600160a01b039182166000908152600a6020908152604080832093909416825291909152205460ff1690565b34801561079957600080fd5b5061038d6107a8366004614242565b611b44565b3480156107b957600080fd5b5061038d6107c83660046142b3565b611b90565b3480156107d957600080fd5b5061038d6107e8366004614024565b611c63565b6104226107fb366004614137565b611cd0565b6000826001600160a01b03811661082a57604051630b9f42b360e31b815260040160405180910390fd5b505060009081526009602090815260408083206001600160a01b03949094168352929052205490565b6040516306fb1a0760e01b81526004810182905260009073def1fac7bf08f173d286bbbdcbeeade695129840906306fb1a0790602401602060405180830381865afa1580156108a6573d6000803e3d6000fd5b505050506040513d601f19601f820116820180604052508101906108ca919061432e565b92915050565b6060600d80546108df9061434b565b80601f016020809104026020016040519081016040528092919081815260200182805461090b9061434b565b80156109585780601f1061092d57610100808354040283529160200191610958565b820191906000526020600020905b81548152906001019060200180831161093b57829003601f168201915b5050505050905090565b6060600f82604051602001610978929190614380565b6040516020818303038152906040529050919050565b60008060005b6000600c816109a28561444d565b94508481526020019081526020016000205411156108ca576000828152600c60205260409020546109d39082614468565b9050610994565b60606000826001600160401b038111156109f6576109f6613e82565b604051908082528060200260200182016040528015610a3b57816020015b6040805180820190915260008082526020820152815260200190600190039081610a145790505b50905060005b83811015610aae576000858583818110610a5d57610a5d614480565b9050602002016020810190610a729190614024565b9050610a7d816120fe565b838381518110610a8f57610a8f614480565b6020026020010181905250508080610aa69061444d565b915050610a41565b509392505050565b33610ac96010546001600160a01b031690565b6001600160a01b031614610af05760405163ebf9845960e01b815260040160405180910390fd5b8151610b0390600d906020850190613aee565b508051610b1790600e906020840190613aee565b505050565b33610b2f6010546001600160a01b031690565b6001600160a01b031614610b565760405163ebf9845960e01b815260040160405180910390fd5b610b6660608201604083016144a6565b61ffff161580610b9b5750610b8160808201606083016144a6565b61ffff16610b9560608301604084016144a6565b61ffff16115b80610bba57506101f4610bb460808301606084016144a6565b61ffff16115b15610bd857604051637420258d60e11b815260040160405180910390fd5b610be860c0820160a083016144d8565b6001600160401b0316610c0160a08301608084016144d8565b6001600160401b03161115610c29576040516375e1700b60e11b815260040160405180910390fd5b612710610c3c6040830160208401614507565b610c47906002614524565b63ffffffff1610610c6b57604051631457c3c360e11b815260040160405180910390fd5b806007610b17828261456a565b6001600160a01b03841660009081526001602052604081205485901580610cac57506005546001600160a01b038281169116145b15610cd25760405162461bcd60e51b8152600401610cc990614694565b60405180910390fd5b8380421115610cf35760405162461bcd60e51b8152600401610cc9906146af565b6001600160a01b0387166000908152600160205260408120548154909190819083908110610d2357610d23614480565b906000526020600020906003020190506000610d3e8a61215b565b90506000610d4b8b6120fe565b9050610d598b33848d612200565b6000610d648c6120fe565b82518151919250610d74916146ca565b9a5060018b11610d965760405162461bcd60e51b8152600401610cc9906146e1565b600184015460208301518351600092610de19263010000009091046001600160781b031691610dcd91610dc8916146fc565b612322565b6000898152600c6020526040902054612392565b600754909150610dfb906001600160a01b0316878361242a565b82516000878152600c6020526040812054909190610e19908f6146fc565b610e239190614731565b9050610e308b888361242a565b6000846000015185602001518f610e4791906146fc565b610e519190614731565b905060018111610e7357604051621037cb60e91b815260040160405180910390fd5b600554604051630bb9ff5d60e01b81526001600160a01b0388811660048301526024820184905290911690630bb9ff5d90604401600060405180830381600087803b158015610ec157600080fd5b505af1158015610ed5573d6000803e3d6000fd5b5050505060208401518451610eed91610dc8916146fc565b8760010160036101000a8154816001600160781b0302191690836001600160781b031602179055507f64b83944e79c3ce8d4c297411de637c3e102d064677aac0c163976ebdcd6f50e8f8f8385604051610f4a9493929190614745565b60405180910390a16000805160206148bc8339815191528f856000015186602001518a60020160009054906101000a90046001600160781b0316604051610f94949392919061476b565b60405180910390a1509d9c50505050505050505050505050565b60055460009081906001600160a01b0385811691161415610fe557610fdc610fd5866120fe565b8685612507565b915061103d9050565b6005546001600160a01b038681169116141561100e57610fdc611007856120fe565b858561256a565b600061102361101c876120fe565b8786612507565b9050611038611031866120fe565b868361256a565b925050505b9392505050565b6001600160a01b038116600090815260016020526040812054815482918291811061107157611071614480565b90600052602060002090600302019050600061108c846120fe565b90506110988282612582565b949350505050565b606081848082146110c457604051632ce5f24f60e01b815260040160405180910390fd5b6000866001600160401b038111156110de576110de613e82565b604051908082528060200260200182016040528015611107578160200160208202803683370190505b50905060005b8581101561118a5761115d89898381811061112a5761112a614480565b905060200201602081019061113f9190614024565b88888481811061115157611151614480565b90506020020135610800565b82828151811061116f5761116f614480565b60209081029190910101526111838161444d565b905061110d565b50979650505050505050565b336111a96010546001600160a01b031690565b6001600160a01b0316146111d05760405163ebf9845960e01b815260040160405180910390fd5b6111da600061274b565b565b6001600160a01b0382166000908152600160205260408120548154829190811061120857611208614480565b906000526020600020906003020190506000611223846120fe565b60028301549091506001600160781b0390811610156112e45760028201805484919060009061125c9084906001600160781b031661479a565b82546001600160781b039182166101009390930a9283029190920219909116179055506005546040516318a8ad8760e01b8152336004820152602481018590526001600160a01b03909116906318a8ad8790604401600060405180830381600087803b1580156112cb57600080fd5b505af11580156112df573d6000803e3d6000fd5b505050505b8051602082015160028401546040516000805160206148bc8339815191529361131c938993919290916001600160781b03169061476b565b60405180910390a150505050565b6001600160a01b0384166000908152600160205260408120548590158061135e57506005546001600160a01b038281169116145b1561137b5760405162461bcd60e51b8152600401610cc990614694565b838042111561139c5760405162461bcd60e51b8152600401610cc9906146af565b6113a787878661279d565b979650505050505050565b6113c0848484600085612a1d565b50505050565b6060600e80546108df9061434b565b60006113e16003610853565b9050806001600160a01b031663eef84ba16040518163ffffffff1660e01b8152600401600060405180830381600087803b15801561141e57600080fd5b505af1158015611432573d6000803e3d6000fd5b50505050610b17338484612e06565b606082804211156114645760405162461bcd60e51b8152600401610cc9906146af565b866001600160a01b0316886001600160a01b031614156114aa5760405162461bcd60e51b81526020600482015260016024820152601360fa1b6044820152606401610cc9565b600186116114ca5760405162461bcd60e51b8152600401610cc9906146e1565b60006114d58961215b565b6040805160028082526060820183529293506000929091602083019080368337019050509050878160008151811061150f5761150f614480565b602002602001018181525050611538604051806040016040528060008152602001600081525090565b6005546001600160a01b038b81169116141561160f576115578b6120fe565b9050611564818c8b612507565b8260018151811061157757611577614480565b602002602001018181525050878260018151811061159757611597614480565b602002602001015110156115d15760405162461bcd60e51b81526020600482015260016024820152600960fb1b6044820152606401610cc9565b6115dd8b33858c612200565b6116058b826000856001815181106115f7576115f7614480565b60200260200101518a612ea6565b5092506117fb9050565b600061161a8b61215b565b9050611639604051806040016040528060008152602001600081525090565b6005546001600160a01b038e811691161415611713576116588c6120fe565b9050611665818d8d61256a565b8460018151811061167857611678614480565b602002602001018181525050898460018151811061169857611698614480565b602002602001015110156116d25760405162461bcd60e51b81526020600482015260016024820152606960f81b6044820152606401610cc9565b6116de8d33848e612200565b6117068c82866001815181106116f6576116f6614480565b602002602001015160008c612ea6565b83965050505050506117fb565b61171c8d6120fe565b9250600061172b848f8e612507565b90506117368d6120fe565b9150611743828e8361256a565b8560018151811061175657611756614480565b6020026020010181815250508a8560018151811061177657611776614480565b602002602001015110156117b05760405162461bcd60e51b81526020600482015260016024820152606960f81b6044820152606401610cc9565b6117bc8e33888f612200565b6117ca8e8560008487612ea6565b6117f28d83876001815181106117e2576117e2614480565b602002602001015160008d612ea6565b50929550505050505b509695505050505050565b336118196010546001600160a01b031690565b6001600160a01b0316146118405760405163ebf9845960e01b815260040160405180910390fd5b61186a82826040516020016118569291906147c5565b6040516020818303038152906040526133ed565b610b17600f8383613b72565b6003546118aa906001600160a01b031669d3c21bcecceda10000006969e10de76676d08000006001600160781b0333612a1d565b6004546111da906001600160a01b031669943b1377290cbd800000806001600160781b0333612a1d565b336118e76010546001600160a01b031690565b6001600160a01b03161461190e5760405163ebf9845960e01b815260040160405180910390fd5b6006546111da906001600160a01b031666038d7ea4c6800069d3c21bcecceda10000006001600160781b0333612a1d565b60055460009081906001600160a01b038581169116141561196d57610fdc611966866120fe565b8685613404565b6005546001600160a01b038681169116141561199657610fdc61198f856120fe565b858561345e565b60006119ab6119a4876120fe565b868661345e565b90506110386119b9866120fe565b8783613404565b336119d36010546001600160a01b031690565b6001600160a01b0316146119fa5760405163ebf9845960e01b815260040160405180910390fd5b6001600160a01b03821660009081526001602052604090205482901580611a2e57506005546001600160a01b038281169116145b15611a4b5760405162461bcd60e51b8152600401610cc990614694565b6000611a56846120fe565b6001600160a01b038516600090815260016020526040812054815492935090918291908110611a8757611a87614480565b6000918252602091829020600260039092020190810180546001600160781b0319166dffffffffffffffffffffffffffff88161790558351918401516040519193506000805160206148bc83398151915292611ae7928992908990614745565b60405180910390a15050505050565b33611b096010546001600160a01b031690565b6001600160a01b031614611b305760405163ebf9845960e01b815260040160405180910390fd5b6113c08484846001600160781b0385612a1d565b600380546001600160a01b038087166001600160a01b031992831617909255600580548684169083161790556004805492851692909116919091179055611b89611876565b5050505050565b856001600160a01b03811633148015611bcc57506001600160a01b0381166000908152600a6020908152604080832033845290915290205460ff165b15611bea57604051631fc3afe760e01b815260040160405180910390fd5b6000611bf66003610853565b9050806001600160a01b031663eef84ba16040518163ffffffff1660e01b8152600401600060405180830381600087803b158015611c3357600080fd5b505af1158015611c47573d6000803e3d6000fd5b50505050611c59888888888888613476565b5050505050505050565b33611c766010546001600160a01b031690565b6001600160a01b031614611c9d5760405163ebf9845960e01b815260040160405180910390fd5b6001600160a01b038116611cc457604051635868b79d60e01b815260040160405180910390fd5b611ccd8161274b565b50565b60608280421115611cf35760405162461bcd60e51b8152600401610cc9906146af565b866001600160a01b0316886001600160a01b03161415611d395760405162461bcd60e51b81526020600482015260016024820152601360fa1b6044820152606401610cc9565b6000611d448961215b565b60408051600280825260608201835292935060009290916020830190803683370190505090508781600181518110611d7e57611d7e614480565b602002602001018181525050611da7604051806040016040528060008152602001600081525090565b6005546001600160a01b038b811691161415611eae57611dc68b6120fe565b9050611dd3818c8b613404565b82600081518110611de657611de6614480565b6020026020010181815250508782600081518110611e0657611e06614480565b60200260200101511115611e405760405162461bcd60e51b81526020600482015260016024820152604b60f81b6044820152606401610cc9565b600182600081518110611e5557611e55614480565b602002602001015111611e7a5760405162461bcd60e51b8152600401610cc9906146e1565b611ea08b338585600081518110611e9357611e93614480565b6020026020010151612200565b6116058b8260008c8a612ea6565b6000611eb98b61215b565b9050611ed8604051806040016040528060008152602001600081525090565b6005546001600160a01b038e811691161415611fd257611ef78c6120fe565b9050611f04818d8d61345e565b84600081518110611f1757611f17614480565b6020026020010181815250508984600081518110611f3757611f37614480565b60200260200101511115611f715760405162461bcd60e51b81526020600482015260016024820152602560f91b6044820152606401610cc9565b600184600081518110611f8657611f86614480565b602002602001015111611fab5760405162461bcd60e51b8152600401610cc9906147e3565b611fc48d338487600081518110611e9357611e93614480565b6117068c828d60008c612ea6565b611fdb8c6120fe565b90506000611fea828e8e61345e565b90506001811161200c5760405162461bcd60e51b8152600401610cc9906147e3565b6120158e6120fe565b9350612022848f83613404565b8560008151811061203557612035614480565b60200260200101818152505060018560008151811061205657612056614480565b60200260200101511161207b5760405162461bcd60e51b8152600401610cc9906147e3565b8a8560008151811061208f5761208f614480565b602002602001015111156120c95760405162461bcd60e51b81526020600482015260016024820152604b60f81b6044820152606401610cc9565b6120e28e338888600081518110611e9357611e93614480565b6120f08e8560008487612ea6565b6117f28d838e60008d612ea6565b6040805180820190915260008082526020820152600061211d8361215b565b9050604051806040016040528061213485846135d9565b8152600554602090910190612152906001600160a01b0316846135d9565b90529392505050565b6040516001600160601b0319606083901b166020820152600090819060340160408051601f19818403018152908290528051602090910120600254733d602d80600a3d3981f3363d3d373d3d3d363d7360601b83526001600160601b0319606091821b1660148401526f5af43d82803e903d91602b57fd5bf3ff60801b602884015230901b6038830152604c8201526037808220606c83015260559101209392505050565b6001811115806122215750816001600160a01b0316836001600160a01b0316145b1561222b576113c0565b6006546001600160a01b038581169116146122515761224c84848484613670565b6113c0565b6001600160a01b0383163314156122c45747818110156122995760405162461bcd60e51b8152602060048201526003602482015262185cd960ea1b6044820152606401610cc9565b818111156122b4576122b4336122af84846146ca565b613765565b6122be8383613765565b506113c0565b6040516306e6a46960e21b81526001600160a01b03838116600483015260248201839052841690631b9a91a490604401600060405180830381600087803b15801561230e57600080fd5b505af1158015611c59573d6000803e3d6000fd5b60006003821115612383575080600061233c600283614731565b612347906001614468565b90505b8181101561237d579050806002816123628186614731565b61236c9190614468565b6123769190614731565b905061234a565b50919050565b811561238d575060015b919050565b600754600090600160a01b900463ffffffff1684841180156123b45750600085115b80156123c05750600081115b1561241f576123cf81866146fc565b6123db826127106146ca565b6123e590866146fc565b6123ef9190614468565b6123f986866146ca565b61240383866146fc565b61240d91906146fc565b6124179190614731565b91505061103d565b506000949350505050565b826001600160a01b03811661245257604051630b9f42b360e31b815260040160405180910390fd5b8161245c576113c0565b6000838152600c602052604081208054339285929161247c908490614468565b909155505060008481526009602090815260408083206001600160a01b038981168086529184528285208054890190558251898152938401889052909392908516917fc3d58168c5ae7397731d063d5bbf3d657854427343f4c083240f7aacaa2d0f62910160405180910390a4611b89816000878787604051806020016040528060008152506137f3565b6001600160a01b038216600090815260016020526040812054815482918291811061253457612534614480565b90600052602060002090600302019050612561838660000151876020015161255c858a612582565b6138c0565b95945050505050565b600061109882856020015186600001516127106138c0565b60008061258d6138fc565b90506000805b60068110156125f757828114156125a9576125e5565b8581600681106125bb576125bb614480565b6006808204909201546125e29264ffffffffff600591909306026101000a90041683614468565b91505b806125ef8161444d565b915050612593565b50670de0b6b3a764000061260d600160066146ca565b61261790836146ca565b61262191906146fc565b60085460208601519192506000916402540be4009161264b916001600160401b03909116906146fc565b6126559190614731565b60085460208701519192506000916402540be4009161268591600160401b9091046001600160401b0316906146fc565b61268f9190614731565b90508183116126bd576007546126b290600160d01b900461ffff166127106146ca565b9450505050506108ca565b8083106126de576007546126b290600160c01b900461ffff166127106146ca565b6126e882826146ca565b6007546127099061ffff600160c01b8204811691600160d01b9004166146ca565b61271384866146ca565b61271d91906146fc565b6127279190614731565b60075461274190600160d01b900461ffff166127106146ca565b6113a79190614468565b601080546001600160a01b038381166001600160a01b0319831681179093556040519116919082907f8be0079c531659141344cd1fd0a4f28419497f9722a3daafe3b4186f6b6457e090600090a35050565b6001600160a01b038316600090815260016020526040812054815482908190839081106127cc576127cc614480565b9060005260206000209060030201905060006127e7876120fe565b6000848152600c60205260408120548251929350918290612809908a906146fc565b6128139190614731565b905060008289856020015161282891906146fc565b6128329190614731565b60018601546020860151865192935060009261286d92630100000090046001600160781b03169161286791610dc891906146fc565b86612392565b600754909150612887906001600160a01b0316888361242a565b600060405180604001604052808588600001516128a491906146ca565b81526020018488602001516128b991906146ca565b9052602081015181519192506128d391610dc891906146fc565b8760010160036101000a8154816001600160781b0302191690836001600160781b0316021790555061290633898d61391b565b60006129118d61215b565b6005546040516318a8ad8760e01b81526001600160a01b038084166004830152602482018890529293509116906318a8ad8790604401600060405180830381600087803b15801561296157600080fd5b505af1158015612975573d6000803e3d6000fd5b505050506129858d828d88612200565b7f1dc8bb69df2b8e91fbdcbfcf93d951b3f0000f085a95fe3f7946d6161439245d8d86868f6040516129ba9493929190614745565b60405180910390a16000805160206148bc8339815191528d836000015184602001518b60020160009054906101000a90046001600160781b0316604051612a04949392919061476b565b60405180910390a150929b9a5050505050505050505050565b6001600160a01b038516600090815260016020526040902054859015612a565760405163402670df60e01b815260040160405180910390fd5b6000612a6187613a08565b600554600654604051631c9776b560e31b81526001600160a01b038b811660048301819052938116602483015291821690921460448301529192509082169063e4bbb5a890606401600060405180830381600087803b158015612ac357600080fd5b505af1158015612ad7573d6000803e3d6000fd5b50505050612ae787338389612200565b600554604051630bb9ff5d60e01b81526001600160a01b0383811660048301526024820188905290911690630bb9ff5d90604401600060405180830381600087803b158015612b3557600080fd5b505af1158015612b49573d6000803e3d6000fd5b50505050612b5787826135d9565b955060018611612b795760405162461bcd60e51b8152600401610cc9906146e1565b612b81613be6565b60005b6006811015612bc4576001828260068110612ba157612ba1614480565b64ffffffffff909216602092909202015280612bbc8161444d565b915050612b84565b506000612bd4610dc8888a6146fc565b6040805160a081019091528381526007549192506000916020820190612c0790600160d01b900461ffff166127106146ca565b61ffff168152602001612c186138fc565b60ff1681526001600160781b0380851660208301528916604090910152600080546001810182559080528151919250908290600383027f290decd9548b62a8d60345a988386fc84ba6bc95484008f6362f93160ef3e5630190612c7e9082906006613c04565b5060208281015160018381018054604080880151606089015161ffff90961662ffffff19909316929092176201000060ff909316929092029190911771ffffffffffffffffffffffffffffff000000191663010000006001600160781b039586160217909155608090950151600290940180546001600160781b031916949092169390931790556001600160a01b038e16600090815291905220819055612d2a61dead826103e861242a565b6000612d386103e8856146ca565b9050612d4588838361242a565b604080516001600160a01b03808f168252881660208201529081018390527ff8a0462f666b427ea753848be7e91f9ce413975906f6f39950be296ca9a4d5249060600160405180910390a17f64b83944e79c3ce8d4c297411de637c3e102d064677aac0c163976ebdcd6f50e8c8c8c84604051612dc59493929190614745565b60405180910390a16000805160206148bc8339815191528c8c8c8c604051612df09493929190614745565b60405180910390a1505050505050505050505050565b816001600160a01b0316836001600160a01b03161415612e395760405163180a65b960e31b815260040160405180910390fd5b6001600160a01b038381166000818152600a6020908152604080832094871680845294825291829020805460ff191686151590811790915591519182527f17307eab39ab6107e8899845ad3d59bd9653f200f220920489ca2b5937696c31910160405180910390a3505050565b6001600160a01b03851660009081526001602052604090205485901580612eda57506005546001600160a01b038281169116145b15612ef75760405162461bcd60e51b8152600401610cc990614694565b6000612f02876120fe565b9050600086602001518260200151612f1a91906146ca565b87518351919250600091612f2e91906146ca565b90506001612f3c8383614468565b11612f6d5760405162461bcd60e51b81526020600482015260016024820152601960f91b6044820152606401610cc9565b6001600160a01b03891660009081526001602052604081205481548291908110612f9957612f99614480565b6000918252602090912060039091020160028101549091506001600160781b03908116108015612fe1575060028101548790612fdf9085906001600160781b0316614468565b105b156130125760405162461bcd60e51b81526020600482015260016024820152602d60f91b6044820152606401610cc9565b600061301c6138fc565b9050612710600185118015613032575060018411155b1561311157600183015462010000900460ff16828114158061305257503a155b156131055760008184106130665783613071565b613071600685614468565b90505b8061307e8361444d565b925082116130d4576001856130946006856147fe565b600681106130a4576130a4614480565b600691828204019190066005026101000a81548164ffffffffff021916908364ffffffffff160217905550613074565b6130de858e612582565b60018601805461ffff9290921662ffffff19909216919091176201000060ff871602179055505b5050600182015461ffff165b600061311f612710806146fc565b60208d01518d5161313091906146fc565b61313a91906146fc565b9050600061314a836127106146ca565b61315490876146fc565b885161316390612710906146fc565b61316d91906146ca565b613179846127106146ca565b61318390896146fc565b6127108a6020015161319591906146fc565b61319f91906146ca565b6131a991906146fc565b9050818110156131df5760405162461bcd60e51b81526020600482015260016024820152603160f81b6044820152606401610cc9565b60028501546001600160781b03908116101561323d5760028501548b906132109089906001600160781b0316614468565b61321a91906146ca565b6002860180546001600160781b0319166001600160781b03929092169190911790555b670de0b6b3a76400008b11156132f8576000613261670de0b6b3a76400008d614731565b86866006811061327357613273614480565b60068082049092015461329a939264ffffffffff600591909306026101000a900416614468565b905063ffffffff81106132b15763ffffffff6132b3565b805b63ffffffff168686600681106132cb576132cb614480565b600691828204019190066005026101000a81548164ffffffffff021916908364ffffffffff160217905550505b505060055461331a906001600160a01b03166133138e61215b565b8a8c612200565b61332e8c6133278e61215b565b8a8d612200565b7f4ab7f3f4678bf8f6cbe4d85e4007b7c64df8e1d5d97de1628f4a6416f9d1db038c3386888e8e613361886127106146ca565b604080516001600160a01b03988916815296881660208801528601949094526060850192909252608084015260a083015260c0820152908a1660e08201526101000160405180910390a16000805160206148bc8339815191528c876000015188602001518660020160009054906101000a90046001600160781b0316604051612df0949392919061476b565b805161340090600b906020840190613aee565b5050565b6001600160a01b038216600090815260016020526040812054815482918291811061343157613431614480565b906000526020600020906003020190506125618386600001518760200151613459858a612582565b613aa0565b60006110988285602001518660000151612710613aa0565b846001600160a01b03811661349e57604051630b9f42b360e31b815260040160405180910390fd5b60008581526009602090815260408083206001600160a01b038b1684529091529020543390858110156134e457604051632d688f6160e11b815260040160405180910390fd5b60008781526009602090815260408083206001600160a01b038d8116855292528083208985039055908a16825281208054889290613523908490614468565b90915550506000878152600c602090815260409182902080548901905581518981529081018890526001600160a01b038a8116928c821692918616917fc3d58168c5ae7397731d063d5bbf3d657854427343f4c083240f7aacaa2d0f62910160405180910390a46135ce828a8a8a8a8a8a8080601f0160208091040260200160405190810160405280939291908181526020018383808284376000920191909152506137f392505050565b505050505050505050565b6006546000906001600160a01b03848116911614613660576040516370a0823160e01b81526001600160a01b0383811660048301528416906370a0823190602401602060405180830381865afa158015613637573d6000803e3d6000fd5b505050506040513d601f19601f8201168201806040525081019061365b9190614812565b61103d565b506001600160a01b031631919050565b604080516001600160a01b0385811660248301528481166044830152606480830185905283518084039091018152608490920183526020820180516001600160e01b03166323b872dd60e01b17905291516000928392908816916136d4919061482b565b6000604051808303816000865af19150503d8060008114613711576040519150601f19603f3d011682016040523d82523d6000602084013e613716565b606091505b50915091508180156137405750805115806137405750808060200190518101906137409190614847565b61375d57604051636050fe2960e01b815260040160405180910390fd5b505050505050565b604080516000808252602082019092526001600160a01b03841690839060405161378f919061482b565b60006040518083038185875af1925050503d80600081146137cc576040519150601f19603f3d011682016040523d82523d6000602084013e6137d1565b606091505b5050905080610b17576040516330667aab60e01b815260040160405180910390fd5b833b1561375d5760405163f23a6e6160e01b81526001600160a01b0385169063f23a6e619061382e9089908990889088908890600401614864565b6020604051808303816000875af1925050508015613869575060408051601f3d908101601f191682019092526138669181019061489e565b60015b613886576040516322ea035960e11b815260040160405180910390fd5b6001600160e01b0319811663f23a6e6160e01b146138b7576040516315d5293760e11b815260040160405180910390fd5b50505050505050565b6000806138cd83876146fc565b90506000816138de612710886146fc565b6138e89190614468565b6138f283876146fc565b6113a79190614731565b6000600661390c61438042614731565b61391691906147fe565b905090565b826001600160a01b03811661394357604051630b9f42b360e31b815260040160405180910390fd5b60008381526009602090815260408083206001600160a01b038816845290915290205433908381101561398957604051631cfb29e160e21b815260040160405180910390fd5b60008581526009602090815260408083206001600160a01b038a81168086529184528285208987039055898552600c845282852080548a9003905582518a81529384018990529092908616917fc3d58168c5ae7397731d063d5bbf3d657854427343f4c083240f7aacaa2d0f62910160405180910390a4505050505050565b6040516001600160601b0319606083901b166020820152600090819060340160408051808303601f19018152908290528051602090910120600254733d602d80600a3d3981f3363d3d373d3d3d363d7360601b835260601b6001600160601b031916601483018190526e5af43d82803e903d91602b57fd5bf360881b6028840152909250906000908360378284f59695505050505050565b600080613aad86856146ca565b83612710613abb89896146fc565b613ac591906146fc565b613acf9190614731565b613ad99190614731565b613ae4906001614468565b9695505050505050565b828054613afa9061434b565b90600052602060002090601f016020900481019282613b1c5760008555613b62565b82601f10613b3557805160ff1916838001178555613b62565b82800160010185558215613b62579182015b82811115613b62578251825591602001919060010190613b47565b50613b6e929150613c9a565b5090565b828054613b7e9061434b565b90600052602060002090601f016020900481019282613ba05760008555613b62565b82601f10613bb95782800160ff19823516178555613b62565b82800160010185558215613b62579182015b82811115613b62578235825591602001919060010190613bcb565b6040518060c001604052806006906020820280368337509192915050565b600183019183908215613b625791602002820160005b83821115613c6057835183826101000a81548164ffffffffff021916908364ffffffffff1602179055509260200192600501602081600401049283019260010302613c1a565b8015613c915782816101000a81549064ffffffffff0219169055600501602081600401049283019260010302613c60565b5050613b6e9291505b5b80821115613b6e5760008155600101613c9b565b6001600160a01b0381168114611ccd57600080fd5b60008060408385031215613cd757600080fd5b8235613ce281613caf565b946020939093013593505050565b6001600160e01b031981168114611ccd57600080fd5b600060208284031215613d1857600080fd5b813561103d81613cf0565b600060208284031215613d3557600080fd5b5035919050565b60005b83811015613d57578181015183820152602001613d3f565b838111156113c05750506000910152565b60008151808452613d80816020860160208601613d3c565b601f01601f19169290920160200192915050565b60208152600061103d6020830184613d68565b60008083601f840112613db957600080fd5b5081356001600160401b03811115613dd057600080fd5b6020830191508360208260051b8501011115613deb57600080fd5b9250929050565b60008060208385031215613e0557600080fd5b82356001600160401b03811115613e1b57600080fd5b613e2785828601613da7565b90969095509350505050565b602080825282518282018190526000919060409081850190868401855b82811015613e7557815180518552860151868501529284019290850190600101613e50565b5091979650505050505050565b634e487b7160e01b600052604160045260246000fd5b600082601f830112613ea957600080fd5b81356001600160401b0380821115613ec357613ec3613e82565b604051601f8301601f19908116603f01168101908282118183101715613eeb57613eeb613e82565b81604052838152866020858801011115613f0457600080fd5b836020870160208301376000602085830101528094505050505092915050565b60008060408385031215613f3757600080fd5b82356001600160401b0380821115613f4e57600080fd5b613f5a86838701613e98565b93506020850135915080821115613f7057600080fd5b50613f7d85828601613e98565b9150509250929050565b600060c0828403121561237d57600080fd5b60008060008060808587031215613faf57600080fd5b8435613fba81613caf565b935060208501359250604085013591506060850135613fd881613caf565b939692955090935050565b600080600060608486031215613ff857600080fd5b833561400381613caf565b9250602084013561401381613caf565b929592945050506040919091013590565b60006020828403121561403657600080fd5b813561103d81613caf565b6000806000806040858703121561405757600080fd5b84356001600160401b038082111561406e57600080fd5b61407a88838901613da7565b9096509450602087013591508082111561409357600080fd5b506140a087828801613da7565b95989497509550505050565b6020808252825182820181905260009190848201906040850190845b818110156140e4578351835292840192918401916001016140c8565b50909695505050505050565b8015158114611ccd57600080fd5b6000806040838503121561411157600080fd5b823561411c81613caf565b9150602083013561412c816140f0565b809150509250929050565b60008060008060008060c0878903121561415057600080fd5b863561415b81613caf565b9550602087013561416b81613caf565b945060408701359350606087013592506080870135915060a087013561419081613caf565b809150509295509295509295565b60008083601f8401126141b057600080fd5b5081356001600160401b038111156141c757600080fd5b602083019150836020828501011115613deb57600080fd5b600080602083850312156141f257600080fd5b82356001600160401b0381111561420857600080fd5b613e278582860161419e565b6000806040838503121561422757600080fd5b823561423281613caf565b9150602083013561412c81613caf565b600080600080600060a0868803121561425a57600080fd5b853561426581613caf565b9450602086013561427581613caf565b9350604086013561428581613caf565b9250606086013561429581613caf565b915060808601356142a581613caf565b809150509295509295909350565b60008060008060008060a087890312156142cc57600080fd5b86356142d781613caf565b955060208701356142e781613caf565b9450604087013593506060870135925060808701356001600160401b0381111561431057600080fd5b61431c89828a0161419e565b979a9699509497509295939492505050565b60006020828403121561434057600080fd5b815161103d81613caf565b600181811c9082168061435f57607f821691505b6020821081141561237d57634e487b7160e01b600052602260045260246000fd5b600080845481600182811c91508083168061439c57607f831692505b60208084108214156143bc57634e487b7160e01b86526022600452602486fd5b8180156143d057600181146143e15761440e565b60ff1986168952848901965061440e565b60008b81526020902060005b868110156144065781548b8201529085019083016143ed565b505084890196505b5088865261442981870164173539b7b760d91b815260050190565b9a9950505050505050505050565b634e487b7160e01b600052601160045260246000fd5b600060001982141561446157614461614437565b5060010190565b6000821982111561447b5761447b614437565b500190565b634e487b7160e01b600052603260045260246000fd5b61ffff81168114611ccd57600080fd5b6000602082840312156144b857600080fd5b813561103d81614496565b6001600160401b0381168114611ccd57600080fd5b6000602082840312156144ea57600080fd5b813561103d816144c3565b63ffffffff81168114611ccd57600080fd5b60006020828403121561451957600080fd5b813561103d816144f5565b600063ffffffff8083168185168183048111821515161561454757614547614437565b02949350505050565b600081356108ca81614496565b600081356108ca816144c3565b813561457581613caf565b81546001600160a01b031981166001600160a01b0392909216918217835560208401356145a1816144f5565b63ffffffff60a01b60a09190911b166001600160c01b0319821683178117845560408501356145cf81614496565b6001600160d01b0319929092169092179190911760c09190911b61ffff60c01b1617815561462261460260608401614550565b82805461ffff60d01b191660d09290921b61ffff60d01b16919091179055565b600181016146536146356080850161455d565b825467ffffffffffffffff19166001600160401b0391909116178255565b610b1761466260a0850161455d565b82546fffffffffffffffff0000000000000000191660409190911b6fffffffffffffffff000000000000000016178255565b6020808252600190820152604360f81b604082015260600190565b6020808252600190820152601160fa1b604082015260600190565b6000828210156146dc576146dc614437565b500390565b6020808252600190820152602360f91b604082015260600190565b600081600019048311821515161561471657614716614437565b500290565b634e487b7160e01b600052601260045260246000fd5b6000826147405761474061471b565b500490565b6001600160a01b0394909416845260208401929092526040830152606082015260800190565b6001600160a01b03949094168452602084019290925260408301526001600160781b0316606082015260800190565b60006001600160781b038083168185168083038211156147bc576147bc614437565b01949350505050565b81838237683db4b23e973539b7b760b91b9101908152600901919050565b6020808252600190820152605560f81b604082015260600190565b60008261480d5761480d61471b565b500690565b60006020828403121561482457600080fd5b5051919050565b6000825161483d818460208701613d3c565b9190910192915050565b60006020828403121561485957600080fd5b815161103d816140f0565b6001600160a01b03868116825285166020820152604081018490526060810183905260a0608082018190526000906113a790830184613d68565b6000602082840312156148b057600080fd5b815161103d81613cf056fe51ab1232a73b82b6b0acb0fa91b834cf6e258a1858c4e23c72ce97241c71aa0da264697066735822122098bce38d3aea4b9dc42ae2e6e710340893709d26e4ea86f069924410fdeb6c4464736f6c634300080b0033608060405234801561001057600080fd5b50610422806100206000396000f3fe6080604052600436106100435760003560e01c80630dfe16811461004f5780631b9a91a414610085578063d21220a7146100a7578063e4bbb5a8146100c557600080fd5b3661004a57005b600080fd5b34801561005b57600080fd5b506000546001600160a01b03165b6040516001600160a01b03909116815260200160405180910390f35b34801561009157600080fd5b506100a56100a036600461030b565b6100e5565b005b3480156100b357600080fd5b506001546001600160a01b0316610069565b3480156100d157600080fd5b506100a56100e0366004610346565b6101a3565b6002546001600160a01b031633146101105760405163ab243e4960e01b815260040160405180910390fd5b604080516000808252602082019092526001600160a01b03841690839060405161013a919061038d565b60006040518083038185875af1925050503d8060008114610177576040519150601f19603f3d011682016040523d82523d6000602084013e61017c565b606091505b505090508061019e57604051635aeccf6b60e01b815260040160405180910390fd5b505050565b6002546001600160a01b0316156101cd57604051635df00fd960e11b815260040160405180910390fd5b600080546001600160a01b03199081166001600160a01b03868116919091179092556001805482169285169283179055600280543392168217905560405163095ea7b360e01b81526004810191909152600019602482015263095ea7b3906044016020604051808303816000875af115801561024d573d6000803e3d6000fd5b505050506040513d601f19601f8201168201806040525081019061027191906103c8565b508061019e5760405163095ea7b360e01b815233600482015260001960248201526001600160a01b0384169063095ea7b3906044016020604051808303816000875af11580156102c5573d6000803e3d6000fd5b505050506040513d601f19601f820116820180604052508101906102e991906103c8565b50505050565b80356001600160a01b038116811461030657600080fd5b919050565b6000806040838503121561031e57600080fd5b610327836102ef565b946020939093013593505050565b801515811461034357600080fd5b50565b60008060006060848603121561035b57600080fd5b610364846102ef565b9250610372602085016102ef565b9150604084013561038281610335565b809150509250925092565b6000825160005b818110156103ae5760208186018101518583015201610394565b818111156103bd576000828501525b509190910192915050565b6000602082840312156103da57600080fd5b81516103e581610335565b939250505056fea26469706673582212209fcbeac7373157eeb0ebd7f6978b88c8c1739d5e6be4ccb01380760ebe1b413064736f6c634300080b003368747470733a2f2f646174612e63657262792e66692f4365726279537761702f76312f",
    "sourcePath": "/Users/numwan/Documents/Remix/bitbucket/sol-cerby-swap-v1/CerbySwapV1_Tests/contracts/CerbySwapV1.sol",
    "compiler": {
        "name": "solc",
        "version": "0.8.11+commit.d7f03943"
    },
    "functionHashes": {
        "addTokenLiquidity(address,uint256,uint256,address)": "43fefad4",
        "adminChangeCerUsdCreditInPool(address,uint256)": "cab4ba82",
        "adminCreatePool(address,uint256,uint256,address)": "d5d60737",
        "adminInitialize()": "c09c923b",
        "adminSetURI(string)": "a7fd40bf",
        "adminUpdateFeesAndTvlMultipliers((address,uint32,uint16,uint16,uint64,uint64))": "4301bae1",
        "adminUpdateNameAndSymbol(string,string)": "3935ac11",
        "balanceOf(address,uint256)": "00fdd58e",
        "balanceOfBatch(address[],uint256[])": "4e1273f4",
        "createPool(address,uint256,uint256,address)": "842980f4",
        "decimals()": "313ce567",
        "exists(uint256)": "4f558e79",
        "getCurrentOneMinusFeeBasedOnTrades(address)": "4c3c0eb2",
        "getInputTokensForExactTokens(address,address,uint256)": "c790985a",
        "getOutputExactTokensForTokens(address,address,uint256)": "48b08d62",
        "getPoolsByTokens(address[])": "34e150ab",
        "getSettings()": "85b4bb53",
        "getTokenToPoolId(address)": "61417516",
        "getUtilsContractAtPos(uint256)": "06fb1a07",
        "increaseCerUsdCreditInPool(address,uint256)": "71858049",
        "isApprovedForAll(address,address)": "e985e9c5",
        "name()": "06fdde03",
        "owner()": "8da5cb5b",
        "removeTokenLiquidity(address,uint256,uint256,address)": "74fcf071",
        "renounceOwnership()": "715018a6",
        "safeTransferFrom(address,address,uint256,uint256,bytes)": "f242432a",
        "setApprovalForAll(address,bool)": "a22cb465",
        "supportsInterface(bytes4)": "01ffc9a7",
        "swapExactTokensForTokens(address,address,uint256,uint256,uint256,address)": "a60c6e55",
        "swapTokensForExactTokens(address,address,uint256,uint256,uint256,address)": "f6524724",
        "symbol()": "95d89b41",
        "testInit()": "b5d11e99",
        "testSetupTokens(address,address,address,address,address)": "eca01093",
        "totalSupply()": "18160ddd",
        "totalSupply(uint256)": "bd85b039",
        "transferOwnership(address)": "f2fde38b",
        "uri(uint256)": "0e89341c"
    },
    "gasEstimates": {
        "creation": {
            "codeDepositCost": "3741000",
            "executionCost": "infinite",
            "totalCost": "infinite"
        },
        "external": {
            "addTokenLiquidity(address,uint256,uint256,address)": "infinite",
            "adminChangeCerUsdCreditInPool(address,uint256)": "infinite",
            "adminCreatePool(address,uint256,uint256,address)": "infinite",
            "adminInitialize()": "infinite",
            "adminSetURI(string)": "infinite",
            "adminUpdateFeesAndTvlMultipliers((address,uint32,uint16,uint16,uint64,uint64))": "infinite",
            "adminUpdateNameAndSymbol(string,string)": "infinite",
            "balanceOf(address,uint256)": "2720",
            "balanceOfBatch(address[],uint256[])": "infinite",
            "createPool(address,uint256,uint256,address)": "infinite",
            "decimals()": "271",
            "exists(uint256)": "2517",
            "getCurrentOneMinusFeeBasedOnTrades(address)": "infinite",
            "getInputTokensForExactTokens(address,address,uint256)": "infinite",
            "getOutputExactTokensForTokens(address,address,uint256)": "infinite",
            "getPoolsByTokens(address[])": "infinite",
            "getSettings()": "5158",
            "getTokenToPoolId(address)": "2609",
            "getUtilsContractAtPos(uint256)": "infinite",
            "increaseCerUsdCreditInPool(address,uint256)": "infinite",
            "isApprovedForAll(address,address)": "infinite",
            "name()": "infinite",
            "owner()": "2443",
            "removeTokenLiquidity(address,uint256,uint256,address)": "infinite",
            "renounceOwnership()": "28261",
            "safeTransferFrom(address,address,uint256,uint256,bytes)": "infinite",
            "setApprovalForAll(address,bool)": "infinite",
            "supportsInterface(bytes4)": "455",
            "swapExactTokensForTokens(address,address,uint256,uint256,uint256,address)": "infinite",
            "swapTokensForExactTokens(address,address,uint256,uint256,uint256,address)": "infinite",
            "symbol()": "infinite",
            "testInit()": "infinite",
            "testSetupTokens(address,address,address,address,address)": "infinite",
            "totalSupply()": "infinite",
            "totalSupply(uint256)": "2472",
            "transferOwnership(address)": "infinite",
            "uri(uint256)": "infinite"
        }
    }
}