{
  "contractName": "CerbySwapV1_Vault",
  "abi": [
    {
      "inputs": [],
      "name": "CerbySwapV1_Vault_AlreadyInitialized",
      "type": "error"
    },
    {
      "inputs": [],
      "name": "CerbySwapV1_Vault_CallerIsNotFactory",
      "type": "error"
    },
    {
      "inputs": [],
      "name": "CerbySwapV1_Vault_SafeTransferFailed",
      "type": "error"
    },
    {
      "inputs": [],
      "name": "CerbySwapV1_Vault_SafeTransferNativeFailed",
      "type": "error"
    },
    {
      "stateMutability": "payable",
      "type": "receive"
    },
    {
      "inputs": [
        {
          "internalType": "address",
          "name": "_token",
          "type": "address"
        }
      ],
      "name": "initialize",
      "outputs": [],
      "stateMutability": "nonpayable",
      "type": "function"
    },
    {
      "inputs": [],
      "name": "token0",
      "outputs": [
        {
          "internalType": "address",
          "name": "",
          "type": "address"
        }
      ],
      "stateMutability": "view",
      "type": "function"
    },
    {
      "inputs": [],
      "name": "token1",
      "outputs": [
        {
          "internalType": "address",
          "name": "",
          "type": "address"
        }
      ],
      "stateMutability": "pure",
      "type": "function"
    },
    {
      "inputs": [
        {
          "internalType": "address",
          "name": "_to",
          "type": "address"
        },
        {
          "internalType": "uint256",
          "name": "_value",
          "type": "uint256"
        }
      ],
      "name": "withdrawEth",
      "outputs": [],
      "stateMutability": "nonpayable",
      "type": "function"
    },
    {
      "inputs": [
        {
          "internalType": "address",
          "name": "_to",
          "type": "address"
        },
        {
          "internalType": "uint256",
          "name": "_value",
          "type": "uint256"
        }
      ],
      "name": "withdrawTokens",
      "outputs": [],
      "stateMutability": "nonpayable",
      "type": "function"
    }
  ],
  "bytecode": "0x608060405234801561001057600080fd5b5061043f806100206000396000f3fe60806040526004361061004e5760003560e01c806306b091f91461005a5780630dfe16811461007c5780631b9a91a4146100b2578063c4d66de8146100d2578063d21220a7146100f257600080fd5b3661005557005b600080fd5b34801561006657600080fd5b5061007a610075366004610360565b610119565b005b34801561008857600080fd5b506000546001600160a01b03165b6040516001600160a01b03909116815260200160405180910390f35b3480156100be57600080fd5b5061007a6100cd366004610360565b610231565b3480156100de57600080fd5b5061007a6100ed36600461038a565b6102ef565b3480156100fe57600080fd5b507379c382879e8c996c1bda2c6508e69640ac712d48610096565b6001546001600160a01b0316331461014457604051630e26049760e41b815260040160405180910390fd5b60008054604080516001600160a01b038681166024830152604480830187905283518084039091018152606490920183526020820180516001600160e01b031663a9059cbb60e01b1790529151849392909216916101a291906103ac565b6000604051808303816000865af19150503d80600081146101df576040519150601f19603f3d011682016040523d82523d6000602084013e6101e4565b606091505b509150915081801561020e57508051158061020e57508080602001905181019061020e91906103e7565b61022b57604051638d79522d60e01b815260040160405180910390fd5b50505050565b6001546001600160a01b0316331461025c57604051630e26049760e41b815260040160405180910390fd5b604080516000808252602082019092526001600160a01b03841690839060405161028691906103ac565b60006040518083038185875af1925050503d80600081146102c3576040519150601f19603f3d011682016040523d82523d6000602084013e6102c8565b606091505b50509050806102ea57604051635aeccf6b60e01b815260040160405180910390fd5b505050565b6001546001600160a01b03161561031957604051635df00fd960e11b815260040160405180910390fd5b600080546001600160a01b039092166001600160a01b03199283161790556001805490911633179055565b80356001600160a01b038116811461035b57600080fd5b919050565b6000806040838503121561037357600080fd5b61037c83610344565b946020939093013593505050565b60006020828403121561039c57600080fd5b6103a582610344565b9392505050565b6000825160005b818110156103cd57602081860181015185830152016103b3565b818111156103dc576000828501525b509190910192915050565b6000602082840312156103f957600080fd5b815180151581146103a557600080fdfea2646970667358221220c8de490c5e73015671da0042dcdcd426b46b55cc790b6be043f83568aef408b964736f6c634300080b0033",
  "immutableReferences": {},
  "source": "// SPDX-License-Identifier: BUSL-1.1\n\npragma solidity ^0.8.11;\n\nimport \"./interfaces/IBasicERC20.sol\";\n\ncontract CerbySwapV1_Vault {\n\n    address token;\n    address constant CER_USD_TOKEN = 0x79c382879e8C996C1Bda2c6508E69640Ac712d48; // TODO: update on each cerUSD redeploy in tests\n    address factory; // TODO: make constant on production\n\n    error CerbySwapV1_Vault_SafeTransferNativeFailed();\n    error CerbySwapV1_Vault_CallerIsNotFactory();\n    error CerbySwapV1_Vault_AlreadyInitialized();\n    error CerbySwapV1_Vault_SafeTransferFailed();\n\n    function initialize(\n        address _token\n    )\n        external\n    {\n        // initialize contract only once\n        if (factory != address(0)) { // TODO: remove on production // C: concern\n            revert CerbySwapV1_Vault_AlreadyInitialized();\n        }\n\n        token = _token;\n        factory = msg.sender; // TODO: remove on production\n    }\n\n    receive() external payable {}\n\n    modifier onlyFactory {\n        if (factory != msg.sender) {\n            revert CerbySwapV1_Vault_CallerIsNotFactory();\n        }\n        _;\n    }\n\n    function token0()\n        external\n        view\n        returns (address)\n    {\n        return token;\n    }\n\n    function token1()\n        external\n        pure\n        returns (address)\n    {\n        return CER_USD_TOKEN;\n    }\n\n    function withdrawEth(\n        address _to,\n        uint256 _value\n    )\n        external\n        onlyFactory\n    {\n        // refer to https://github.com/Uniswap/solidity-lib/blob/master/contracts/libraries/TransferHelper.sol\n        (bool success, ) = _to.call{value: _value}(new bytes(0));\n\n        // we allow only successfull calls\n        if (!success) {\n            revert CerbySwapV1_Vault_SafeTransferNativeFailed();\n        }\n    }\n\n    function withdrawTokens(\n        address _to,\n        uint256 _value\n    )\n        external\n        onlyFactory\n    {\n        // refer to https://github.com/Uniswap/solidity-lib/blob/master/contracts/libraries/TransferHelper.sol\n        (bool success, bytes memory data) = token.call(abi.encodeWithSelector(0xa9059cbb, _to, _value));\n        \n        // we allow successfull calls with (true) or without return data\n        if (!(success && (data.length == 0 || abi.decode(data, (bool))))) {\n            revert CerbySwapV1_Vault_SafeTransferFailed();\n        }\n    }\n}\n",
  "sourcePath": "/Users/numwan/Documents/Remix/bitbucket/sol-cerby-swap-v1/contracts/CerbySwapV1_Vault.sol",
  "compiler": {
    "name": "solc",
    "version": "0.8.11+commit.d7f03943.Emscripten.clang"
  },
  "schemaVersion": "3.4.4",
  "updatedAt": "2022-02-16T13:18:53.087Z",
  "devdoc": {
    "kind": "dev",
    "methods": {},
    "version": 1
  },
  "userdoc": {
    "kind": "user",
    "methods": {},
    "version": 1
  }
}