{
  "contractName": "CerbySwapV1_VaultImplementation",
  "abi": [
    {
      "inputs": [],
      "name": "CerbySwapV1_Vault_AlreadyInitialized",
      "type": "error"
    },
    {
      "inputs": [],
      "name": "CerbySwapV1_Vault_CallerIsNotOwner",
      "type": "error"
    },
    {
      "inputs": [],
      "name": "CerbySwapV1_Vault_SafeTransferNativeFailed",
      "type": "error"
    },
    {
      "stateMutability": "payable",
      "type": "receive"
    },
    {
      "inputs": [
        {
          "internalType": "address",
          "name": "_token",
          "type": "address"
        },
        {
          "internalType": "address",
          "name": "_cerUsdToken",
          "type": "address"
        },
        {
          "internalType": "bool",
          "name": "_isNativeToken",
          "type": "bool"
        }
      ],
      "name": "initialize",
      "outputs": [],
      "stateMutability": "nonpayable",
      "type": "function"
    },
    {
      "inputs": [],
      "name": "token0",
      "outputs": [
        {
          "internalType": "address",
          "name": "",
          "type": "address"
        }
      ],
      "stateMutability": "view",
      "type": "function"
    },
    {
      "inputs": [],
      "name": "token1",
      "outputs": [
        {
          "internalType": "address",
          "name": "",
          "type": "address"
        }
      ],
      "stateMutability": "view",
      "type": "function"
    },
    {
      "inputs": [
        {
          "internalType": "address",
          "name": "_to",
          "type": "address"
        },
        {
          "internalType": "uint256",
          "name": "_value",
          "type": "uint256"
        }
      ],
      "name": "withdrawEth",
      "outputs": [],
      "stateMutability": "nonpayable",
      "type": "function"
    }
  ],
  "bytecode": "0x608060405234801561001057600080fd5b50610422806100206000396000f3fe6080604052600436106100435760003560e01c80630dfe16811461004f5780631b9a91a414610085578063d21220a7146100a7578063e4bbb5a8146100c557600080fd5b3661004a57005b600080fd5b34801561005b57600080fd5b506000546001600160a01b03165b6040516001600160a01b03909116815260200160405180910390f35b34801561009157600080fd5b506100a56100a036600461030b565b6100e5565b005b3480156100b357600080fd5b506001546001600160a01b0316610069565b3480156100d157600080fd5b506100a56100e0366004610346565b6101a3565b6002546001600160a01b031633146101105760405163ab243e4960e01b815260040160405180910390fd5b604080516000808252602082019092526001600160a01b03841690839060405161013a919061038d565b60006040518083038185875af1925050503d8060008114610177576040519150601f19603f3d011682016040523d82523d6000602084013e61017c565b606091505b505090508061019e57604051635aeccf6b60e01b815260040160405180910390fd5b505050565b6002546001600160a01b0316156101cd57604051635df00fd960e11b815260040160405180910390fd5b600080546001600160a01b03199081166001600160a01b03868116919091179092556001805482169285169283179055600280543392168217905560405163095ea7b360e01b81526004810191909152600019602482015263095ea7b3906044016020604051808303816000875af115801561024d573d6000803e3d6000fd5b505050506040513d601f19601f8201168201806040525081019061027191906103c8565b508061019e5760405163095ea7b360e01b815233600482015260001960248201526001600160a01b0384169063095ea7b3906044016020604051808303816000875af11580156102c5573d6000803e3d6000fd5b505050506040513d601f19601f820116820180604052508101906102e991906103c8565b50505050565b80356001600160a01b038116811461030657600080fd5b919050565b6000806040838503121561031e57600080fd5b610327836102ef565b946020939093013593505050565b801515811461034357600080fd5b50565b60008060006060848603121561035b57600080fd5b610364846102ef565b9250610372602085016102ef565b9150604084013561038281610335565b809150509250925092565b6000825160005b818110156103ae5760208186018101518583015201610394565b818111156103bd576000828501525b509190910192915050565b6000602082840312156103da57600080fd5b81516103e581610335565b939250505056fea264697066735822122072dfb109e2fac52432509090c8910e4b5295724ab0121f8fa50fc42fbf7a84cd64736f6c634300080b0033",
  "immutableReferences": {},
  "source": "// SPDX-License-Identifier: BUSL-1.1\n\npragma solidity ^0.8.11;\n\nimport \"./interfaces/IBasicERC20.sol\";\n\ncontract CerbySwapV1_VaultImplementation {\n\n    address token;\n    address cerUsdToken; // TODO: make constant on production\n    address owner; // TODO: make constant on production\n\n    error CerbySwapV1_Vault_SafeTransferNativeFailed();\n    error CerbySwapV1_Vault_CallerIsNotOwner();\n    error CerbySwapV1_Vault_AlreadyInitialized(); // TODO: remove on production\n\n    function initialize(\n        address _token,\n        address _cerUsdToken, // TODO: remove on production\n        bool _isNativeToken\n    )\n        external\n        //onlyOwner // TODO: make onlyOwner here because owner will be predefined in the constant on production\n    {\n        // initialize contract only once\n        if (owner != address(0)) { // TODO: remove on production\n            revert CerbySwapV1_Vault_AlreadyInitialized();\n        }\n\n        token = _token;\n        cerUsdToken = _cerUsdToken; // TODO: remove on production\n        owner = msg.sender; // TODO: remove on production\n\n        IBasicERC20(_cerUsdToken).approve(\n            msg.sender,\n            type(uint256).max\n        );\n\n        if (!_isNativeToken) {\n            IBasicERC20(_token).approve(\n                msg.sender,\n                type(uint256).max\n            );\n        }\n    }\n\n    receive() external payable {}\n\n    function token0()\n        external\n        view\n        returns (address)\n    {\n        return token;\n    }\n\n    function token1()\n        external\n        view\n        returns (address)\n    {\n        return cerUsdToken;\n    }\n\n    function withdrawEth(\n        address _to,\n        uint256 _value\n    )\n        external\n    {\n        if (owner != msg.sender) {\n            revert CerbySwapV1_Vault_CallerIsNotOwner();\n        }\n\n        // refer to https://github.com/Uniswap/solidity-lib/blob/master/contracts/libraries/TransferHelper.sol\n        (bool success, ) = _to.call{value: _value}(new bytes(0));\n\n        // we allow only successfull calls\n        if (!success) {\n            revert CerbySwapV1_Vault_SafeTransferNativeFailed();\n        }\n    }\n}\n",
  "sourcePath": "/Users/numwan/Documents/Remix/bitbucket/sol-cerby-swap-v1/contracts/CerbySwapV1_VaultImplementation.sol",
  "compiler": {
    "name": "solc",
    "version": "0.8.11+commit.d7f03943.Emscripten.clang"
  },
  "schemaVersion": "3.3.4",
  "updatedAt": "2022-02-05T13:41:41.177Z",
  "devdoc": {
    "kind": "dev",
    "methods": {},
    "version": 1
  },
  "userdoc": {
    "kind": "user",
    "methods": {},
    "version": 1
  }
}