{
  "contractName": "CerbySwapV1",
  "abi": [
    {
      "inputs": [],
      "stateMutability": "nonpayable",
      "type": "constructor"
    },
    {
      "inputs": [],
      "name": "CerbyCronJobsExecution_TransactionsAreTemporarilyDisabled",
      "type": "error"
    },
    {
      "inputs": [],
      "name": "CerbySwapV1_AmountOfCerUsdMustBeLargerThanOne",
      "type": "error"
    },
    {
      "inputs": [],
      "name": "CerbySwapV1_AmountOfCerUsdOrTokensInMustBeLargerThanOne",
      "type": "error"
    },
    {
      "inputs": [],
      "name": "CerbySwapV1_AmountOfTokensMustBeLargerThanOne",
      "type": "error"
    },
    {
      "inputs": [],
      "name": "CerbySwapV1_CreditCerUsdIsAlreadyMaximum",
      "type": "error"
    },
    {
      "inputs": [],
      "name": "CerbySwapV1_CreditCerUsdMustNotBeBelowZero",
      "type": "error"
    },
    {
      "inputs": [],
      "name": "CerbySwapV1_FeeIsWrong",
      "type": "error"
    },
    {
      "inputs": [],
      "name": "CerbySwapV1_InputCerUsdAmountIsLargerThanMaximumSpecified",
      "type": "error"
    },
    {
      "inputs": [],
      "name": "CerbySwapV1_InputTokensAmountIsLargerThanMaximumSpecified",
      "type": "error"
    },
    {
      "inputs": [],
      "name": "CerbySwapV1_InvariantKValueMustBeSameOrIncreasedOnAnySwaps",
      "type": "error"
    },
    {
      "inputs": [],
      "name": "CerbySwapV1_MintFeeMultiplierMustNotBeLargerThan50Percent",
      "type": "error"
    },
    {
      "inputs": [],
      "name": "CerbySwapV1_MsgValueProvidedMustBeLargerThanAmountTokensIn",
      "type": "error"
    },
    {
      "inputs": [],
      "name": "CerbySwapV1_OutputCerUsdAmountIsLowerThanMinimumSpecified",
      "type": "error"
    },
    {
      "inputs": [],
      "name": "CerbySwapV1_OutputTokensAmountIsLowerThanMinimumSpecified",
      "type": "error"
    },
    {
      "inputs": [],
      "name": "CerbySwapV1_SafeTransferFromFailed",
      "type": "error"
    },
    {
      "inputs": [],
      "name": "CerbySwapV1_SafeTransferNativeFailed",
      "type": "error"
    },
    {
      "inputs": [],
      "name": "CerbySwapV1_SafeTransferTokensFailed",
      "type": "error"
    },
    {
      "inputs": [],
      "name": "CerbySwapV1_SwappingTokenToSameTokenIsForbidden",
      "type": "error"
    },
    {
      "inputs": [],
      "name": "CerbySwapV1_TokenAlreadyExists",
      "type": "error"
    },
    {
      "inputs": [],
      "name": "CerbySwapV1_TokenDoesNotExist",
      "type": "error"
    },
    {
      "inputs": [],
      "name": "CerbySwapV1_TransactionIsExpired",
      "type": "error"
    },
    {
      "inputs": [],
      "name": "CerbySwapV1_TvlMultiplierIsWrong",
      "type": "error"
    },
    {
      "inputs": [],
      "name": "ERC1155_AddressMustNotBeZeroAddress",
      "type": "error"
    },
    {
      "inputs": [],
      "name": "ERC1155_BurnAmountExceedsBalance",
      "type": "error"
    },
    {
      "inputs": [],
      "name": "ERC1155_CallerIsNotOwnerNorApproved",
      "type": "error"
    },
    {
      "inputs": [],
      "name": "ERC1155_ERC1155ReceiverRejectsTokens",
      "type": "error"
    },
    {
      "inputs": [],
      "name": "ERC1155_IdsLengthMismatch",
      "type": "error"
    },
    {
      "inputs": [],
      "name": "ERC1155_InsufficientBalanceForTransfer",
      "type": "error"
    },
    {
      "inputs": [],
      "name": "ERC1155_SettingApprovalStatusForSelf",
      "type": "error"
    },
    {
      "inputs": [],
      "name": "ERC1155_TransferToNonERC1155ReceiverImplementer",
      "type": "error"
    },
    {
      "inputs": [],
      "name": "Ownable_CallerIsNotOwner",
      "type": "error"
    },
    {
      "inputs": [],
      "name": "Ownable_NewOwnerIsNotTheZeroAddress",
      "type": "error"
    },
    {
      "anonymous": false,
      "inputs": [
        {
          "indexed": true,
          "internalType": "address",
          "name": "account",
          "type": "address"
        },
        {
          "indexed": true,
          "internalType": "address",
          "name": "operator",
          "type": "address"
        },
        {
          "indexed": false,
          "internalType": "bool",
          "name": "approved",
          "type": "bool"
        }
      ],
      "name": "ApprovalForAll",
      "type": "event"
    },
    {
      "anonymous": false,
      "inputs": [
        {
          "indexed": false,
          "internalType": "address",
          "name": "_token",
          "type": "address"
        },
        {
          "indexed": false,
          "internalType": "uint256",
          "name": "_amountTokensIn",
          "type": "uint256"
        },
        {
          "indexed": false,
          "internalType": "uint256",
          "name": "_amountCerUsdToMint",
          "type": "uint256"
        },
        {
          "indexed": false,
          "internalType": "uint256",
          "name": "_lpAmount",
          "type": "uint256"
        }
      ],
      "name": "LiquidityAdded",
      "type": "event"
    },
    {
      "anonymous": false,
      "inputs": [
        {
          "indexed": false,
          "internalType": "address",
          "name": "_token",
          "type": "address"
        },
        {
          "indexed": false,
          "internalType": "uint256",
          "name": "_amountTokensOut",
          "type": "uint256"
        },
        {
          "indexed": false,
          "internalType": "uint256",
          "name": "_amountCerUsdToBurn",
          "type": "uint256"
        },
        {
          "indexed": false,
          "internalType": "uint256",
          "name": "_amountLpTokensBalanceToBurn",
          "type": "uint256"
        }
      ],
      "name": "LiquidityRemoved",
      "type": "event"
    },
    {
      "anonymous": false,
      "inputs": [
        {
          "indexed": true,
          "internalType": "address",
          "name": "previousOwner",
          "type": "address"
        },
        {
          "indexed": true,
          "internalType": "address",
          "name": "newOwner",
          "type": "address"
        }
      ],
      "name": "OwnershipTransferred",
      "type": "event"
    },
    {
      "anonymous": false,
      "inputs": [
        {
          "indexed": false,
          "internalType": "address",
          "name": "_token",
          "type": "address"
        },
        {
          "indexed": false,
          "internalType": "address",
          "name": "_vaultAddress",
          "type": "address"
        },
        {
          "indexed": false,
          "internalType": "uint256",
          "name": "_poolId",
          "type": "uint256"
        }
      ],
      "name": "PoolCreated",
      "type": "event"
    },
    {
      "anonymous": false,
      "inputs": [
        {
          "indexed": false,
          "internalType": "address",
          "name": "_token",
          "type": "address"
        },
        {
          "indexed": false,
          "internalType": "address",
          "name": "_sender",
          "type": "address"
        },
        {
          "indexed": false,
          "internalType": "uint256",
          "name": "_amountTokensIn",
          "type": "uint256"
        },
        {
          "indexed": false,
          "internalType": "uint256",
          "name": "_amountCerUsdIn",
          "type": "uint256"
        },
        {
          "indexed": false,
          "internalType": "uint256",
          "name": "_amountTokensOut",
          "type": "uint256"
        },
        {
          "indexed": false,
          "internalType": "uint256",
          "name": "_amountCerUsdOut",
          "type": "uint256"
        },
        {
          "indexed": false,
          "internalType": "uint256",
          "name": "_currentFee",
          "type": "uint256"
        },
        {
          "indexed": false,
          "internalType": "address",
          "name": "_transferTo",
          "type": "address"
        }
      ],
      "name": "Swap",
      "type": "event"
    },
    {
      "anonymous": false,
      "inputs": [
        {
          "indexed": false,
          "internalType": "address",
          "name": "_token",
          "type": "address"
        },
        {
          "indexed": false,
          "internalType": "uint256",
          "name": "_newBalanceToken",
          "type": "uint256"
        },
        {
          "indexed": false,
          "internalType": "uint256",
          "name": "_newBalanceCerUsd",
          "type": "uint256"
        },
        {
          "indexed": false,
          "internalType": "uint256",
          "name": "_newCreditCerUsd",
          "type": "uint256"
        }
      ],
      "name": "Sync",
      "type": "event"
    },
    {
      "anonymous": false,
      "inputs": [
        {
          "indexed": true,
          "internalType": "address",
          "name": "operator",
          "type": "address"
        },
        {
          "indexed": true,
          "internalType": "address",
          "name": "from",
          "type": "address"
        },
        {
          "indexed": true,
          "internalType": "address",
          "name": "to",
          "type": "address"
        },
        {
          "indexed": false,
          "internalType": "uint256[]",
          "name": "ids",
          "type": "uint256[]"
        },
        {
          "indexed": false,
          "internalType": "uint256[]",
          "name": "values",
          "type": "uint256[]"
        }
      ],
      "name": "TransferBatch",
      "type": "event"
    },
    {
      "anonymous": false,
      "inputs": [
        {
          "indexed": true,
          "internalType": "address",
          "name": "operator",
          "type": "address"
        },
        {
          "indexed": true,
          "internalType": "address",
          "name": "from",
          "type": "address"
        },
        {
          "indexed": true,
          "internalType": "address",
          "name": "to",
          "type": "address"
        },
        {
          "indexed": false,
          "internalType": "uint256",
          "name": "id",
          "type": "uint256"
        },
        {
          "indexed": false,
          "internalType": "uint256",
          "name": "value",
          "type": "uint256"
        }
      ],
      "name": "TransferSingle",
      "type": "event"
    },
    {
      "inputs": [
        {
          "internalType": "address",
          "name": "_token",
          "type": "address"
        },
        {
          "internalType": "uint256",
          "name": "_amountTokensIn",
          "type": "uint256"
        },
        {
          "internalType": "uint256",
          "name": "_expireTimestamp",
          "type": "uint256"
        },
        {
          "internalType": "address",
          "name": "_transferTo",
          "type": "address"
        }
      ],
      "name": "addTokenLiquidity",
      "outputs": [
        {
          "internalType": "uint256",
          "name": "",
          "type": "uint256"
        }
      ],
      "stateMutability": "payable",
      "type": "function"
    },
    {
      "inputs": [
        {
          "internalType": "address",
          "name": "_token",
          "type": "address"
        },
        {
          "internalType": "uint256",
          "name": "_amountCerUsdCredit",
          "type": "uint256"
        }
      ],
      "name": "adminChangeCerUsdCreditInPool",
      "outputs": [],
      "stateMutability": "nonpayable",
      "type": "function"
    },
    {
      "inputs": [
        {
          "internalType": "address",
          "name": "_token",
          "type": "address"
        },
        {
          "internalType": "uint256",
          "name": "_amountTokensIn",
          "type": "uint256"
        },
        {
          "internalType": "uint256",
          "name": "_amountCerUsdToMint",
          "type": "uint256"
        },
        {
          "internalType": "address",
          "name": "_transferTo",
          "type": "address"
        }
      ],
      "name": "adminCreatePool",
      "outputs": [],
      "stateMutability": "payable",
      "type": "function"
    },
    {
      "inputs": [
        {
          "internalType": "string",
          "name": "_newUrlPrefix",
          "type": "string"
        }
      ],
      "name": "adminSetUrlPrefix",
      "outputs": [],
      "stateMutability": "nonpayable",
      "type": "function"
    },
    {
      "inputs": [
        {
          "internalType": "string",
          "name": "_newContractName",
          "type": "string"
        },
        {
          "internalType": "string",
          "name": "_newContractSymbol",
          "type": "string"
        }
      ],
      "name": "adminUpdateNameAndSymbol",
      "outputs": [],
      "stateMutability": "nonpayable",
      "type": "function"
    },
    {
      "inputs": [
        {
          "components": [
            {
              "internalType": "address",
              "name": "mintFeeBeneficiary",
              "type": "address"
            },
            {
              "internalType": "uint32",
              "name": "mintFeeMultiplier",
              "type": "uint32"
            },
            {
              "internalType": "uint16",
              "name": "feeMinimum",
              "type": "uint16"
            },
            {
              "internalType": "uint16",
              "name": "feeMaximum",
              "type": "uint16"
            },
            {
              "internalType": "uint64",
              "name": "tvlMultiplierMinimum",
              "type": "uint64"
            },
            {
              "internalType": "uint64",
              "name": "tvlMultiplierMaximum",
              "type": "uint64"
            }
          ],
          "internalType": "struct CerbySwapV1_Declarations.Settings",
          "name": "_settings",
          "type": "tuple"
        }
      ],
      "name": "adminUpdateSettings",
      "outputs": [],
      "stateMutability": "nonpayable",
      "type": "function"
    },
    {
      "inputs": [
        {
          "internalType": "address",
          "name": "_account",
          "type": "address"
        },
        {
          "internalType": "uint256",
          "name": "_id",
          "type": "uint256"
        }
      ],
      "name": "balanceOf",
      "outputs": [
        {
          "internalType": "uint256",
          "name": "",
          "type": "uint256"
        }
      ],
      "stateMutability": "view",
      "type": "function"
    },
    {
      "inputs": [
        {
          "internalType": "address[]",
          "name": "_accounts",
          "type": "address[]"
        },
        {
          "internalType": "uint256[]",
          "name": "_ids",
          "type": "uint256[]"
        }
      ],
      "name": "balanceOfBatch",
      "outputs": [
        {
          "internalType": "uint256[]",
          "name": "",
          "type": "uint256[]"
        }
      ],
      "stateMutability": "view",
      "type": "function"
    },
    {
      "inputs": [
        {
          "internalType": "address",
          "name": "_token",
          "type": "address"
        },
        {
          "internalType": "uint256",
          "name": "_amountTokensIn",
          "type": "uint256"
        },
        {
          "internalType": "uint256",
          "name": "_amountCerUsdToMint",
          "type": "uint256"
        },
        {
          "internalType": "address",
          "name": "_transferTo",
          "type": "address"
        }
      ],
      "name": "createPool",
      "outputs": [],
      "stateMutability": "payable",
      "type": "function"
    },
    {
      "inputs": [],
      "name": "decimals",
      "outputs": [
        {
          "internalType": "uint256",
          "name": "",
          "type": "uint256"
        }
      ],
      "stateMutability": "pure",
      "type": "function"
    },
    {
      "inputs": [
        {
          "internalType": "uint256",
          "name": "_id",
          "type": "uint256"
        }
      ],
      "name": "exists",
      "outputs": [
        {
          "internalType": "bool",
          "name": "",
          "type": "bool"
        }
      ],
      "stateMutability": "view",
      "type": "function"
    },
    {
      "inputs": [
        {
          "internalType": "address",
          "name": "_token",
          "type": "address"
        }
      ],
      "name": "getCurrentOneMinusFeeBasedOnTrades",
      "outputs": [
        {
          "internalType": "uint256",
          "name": "fee",
          "type": "uint256"
        }
      ],
      "stateMutability": "view",
      "type": "function"
    },
    {
      "inputs": [
        {
          "internalType": "address",
          "name": "_tokenIn",
          "type": "address"
        },
        {
          "internalType": "address",
          "name": "_tokenOut",
          "type": "address"
        },
        {
          "internalType": "uint256",
          "name": "_amountTokensOut",
          "type": "uint256"
        }
      ],
      "name": "getInputTokensForExactTokens",
      "outputs": [
        {
          "internalType": "uint256",
          "name": "",
          "type": "uint256"
        }
      ],
      "stateMutability": "view",
      "type": "function"
    },
    {
      "inputs": [
        {
          "internalType": "address",
          "name": "_tokenIn",
          "type": "address"
        },
        {
          "internalType": "address",
          "name": "_tokenOut",
          "type": "address"
        },
        {
          "internalType": "uint256",
          "name": "_amountTokensIn",
          "type": "uint256"
        }
      ],
      "name": "getOutputExactTokensForTokens",
      "outputs": [
        {
          "internalType": "uint256",
          "name": "",
          "type": "uint256"
        }
      ],
      "stateMutability": "view",
      "type": "function"
    },
    {
      "inputs": [
        {
          "internalType": "address[]",
          "name": "_tokens",
          "type": "address[]"
        }
      ],
      "name": "getPoolsBalancesByTokens",
      "outputs": [
        {
          "components": [
            {
              "internalType": "uint256",
              "name": "balanceToken",
              "type": "uint256"
            },
            {
              "internalType": "uint256",
              "name": "balanceCerUsd",
              "type": "uint256"
            }
          ],
          "internalType": "struct CerbySwapV1_Declarations.PoolBalances[]",
          "name": "",
          "type": "tuple[]"
        }
      ],
      "stateMutability": "view",
      "type": "function"
    },
    {
      "inputs": [
        {
          "internalType": "address[]",
          "name": "_tokens",
          "type": "address[]"
        }
      ],
      "name": "getPoolsByTokens",
      "outputs": [
        {
          "components": [
            {
              "internalType": "uint40[6]",
              "name": "tradeVolumePerPeriodInCerUsd",
              "type": "uint40[6]"
            },
            {
              "internalType": "uint16",
              "name": "lastCachedOneMinusFee",
              "type": "uint16"
            },
            {
              "internalType": "uint8",
              "name": "lastCachedTradePeriod",
              "type": "uint8"
            },
            {
              "internalType": "uint120",
              "name": "lastSqrtKValue",
              "type": "uint120"
            },
            {
              "internalType": "uint120",
              "name": "creditCerUsd",
              "type": "uint120"
            }
          ],
          "internalType": "struct CerbySwapV1_Declarations.Pool[]",
          "name": "",
          "type": "tuple[]"
        }
      ],
      "stateMutability": "view",
      "type": "function"
    },
    {
      "inputs": [],
      "name": "getSettings",
      "outputs": [
        {
          "components": [
            {
              "internalType": "address",
              "name": "mintFeeBeneficiary",
              "type": "address"
            },
            {
              "internalType": "uint32",
              "name": "mintFeeMultiplier",
              "type": "uint32"
            },
            {
              "internalType": "uint16",
              "name": "feeMinimum",
              "type": "uint16"
            },
            {
              "internalType": "uint16",
              "name": "feeMaximum",
              "type": "uint16"
            },
            {
              "internalType": "uint64",
              "name": "tvlMultiplierMinimum",
              "type": "uint64"
            },
            {
              "internalType": "uint64",
              "name": "tvlMultiplierMaximum",
              "type": "uint64"
            }
          ],
          "internalType": "struct CerbySwapV1_Declarations.Settings",
          "name": "",
          "type": "tuple"
        }
      ],
      "stateMutability": "view",
      "type": "function"
    },
    {
      "inputs": [
        {
          "internalType": "address",
          "name": "_token",
          "type": "address"
        }
      ],
      "name": "getTokenToPoolId",
      "outputs": [
        {
          "internalType": "uint256",
          "name": "",
          "type": "uint256"
        }
      ],
      "stateMutability": "view",
      "type": "function"
    },
    {
      "inputs": [
        {
          "internalType": "uint256",
          "name": "_pos",
          "type": "uint256"
        }
      ],
      "name": "getUtilsContractAtPos",
      "outputs": [
        {
          "internalType": "address",
          "name": "",
          "type": "address"
        }
      ],
      "stateMutability": "view",
      "type": "function"
    },
    {
      "inputs": [
        {
          "internalType": "address",
          "name": "_token",
          "type": "address"
        },
        {
          "internalType": "uint256",
          "name": "_amountCerUsdCredit",
          "type": "uint256"
        }
      ],
      "name": "increaseCerUsdCreditInPool",
      "outputs": [],
      "stateMutability": "nonpayable",
      "type": "function"
    },
    {
      "inputs": [
        {
          "internalType": "address",
          "name": "_account",
          "type": "address"
        },
        {
          "internalType": "address",
          "name": "_operator",
          "type": "address"
        }
      ],
      "name": "isApprovedForAll",
      "outputs": [
        {
          "internalType": "bool",
          "name": "",
          "type": "bool"
        }
      ],
      "stateMutability": "view",
      "type": "function"
    },
    {
      "inputs": [],
      "name": "name",
      "outputs": [
        {
          "internalType": "string",
          "name": "",
          "type": "string"
        }
      ],
      "stateMutability": "view",
      "type": "function"
    },
    {
      "inputs": [],
      "name": "owner",
      "outputs": [
        {
          "internalType": "address",
          "name": "",
          "type": "address"
        }
      ],
      "stateMutability": "view",
      "type": "function"
    },
    {
      "inputs": [
        {
          "internalType": "address",
          "name": "_token",
          "type": "address"
        },
        {
          "internalType": "uint256",
          "name": "_amountLpTokensBalanceToBurn",
          "type": "uint256"
        },
        {
          "internalType": "uint256",
          "name": "_expireTimestamp",
          "type": "uint256"
        },
        {
          "internalType": "address",
          "name": "_transferTo",
          "type": "address"
        }
      ],
      "name": "removeTokenLiquidity",
      "outputs": [
        {
          "internalType": "uint256",
          "name": "",
          "type": "uint256"
        }
      ],
      "stateMutability": "nonpayable",
      "type": "function"
    },
    {
      "inputs": [],
      "name": "renounceOwnership",
      "outputs": [],
      "stateMutability": "nonpayable",
      "type": "function"
    },
    {
      "inputs": [
        {
          "internalType": "address",
          "name": "_from",
          "type": "address"
        },
        {
          "internalType": "address",
          "name": "_to",
          "type": "address"
        },
        {
          "internalType": "uint256",
          "name": "_id",
          "type": "uint256"
        },
        {
          "internalType": "uint256",
          "name": "_amount",
          "type": "uint256"
        },
        {
          "internalType": "bytes",
          "name": "_data",
          "type": "bytes"
        }
      ],
      "name": "safeTransferFrom",
      "outputs": [],
      "stateMutability": "nonpayable",
      "type": "function"
    },
    {
      "inputs": [
        {
          "internalType": "address",
          "name": "_operator",
          "type": "address"
        },
        {
          "internalType": "bool",
          "name": "_approved",
          "type": "bool"
        }
      ],
      "name": "setApprovalForAll",
      "outputs": [],
      "stateMutability": "nonpayable",
      "type": "function"
    },
    {
      "inputs": [
        {
          "internalType": "address",
          "name": "_tokenIn",
          "type": "address"
        },
        {
          "internalType": "address",
          "name": "_tokenOut",
          "type": "address"
        },
        {
          "internalType": "uint256",
          "name": "_amountTokensIn",
          "type": "uint256"
        },
        {
          "internalType": "uint256",
          "name": "_minAmountTokensOut",
          "type": "uint256"
        },
        {
          "internalType": "uint256",
          "name": "_expireTimestamp",
          "type": "uint256"
        },
        {
          "internalType": "address",
          "name": "_transferTo",
          "type": "address"
        }
      ],
      "name": "swapExactTokensForTokens",
      "outputs": [
        {
          "internalType": "uint256[]",
          "name": "",
          "type": "uint256[]"
        }
      ],
      "stateMutability": "payable",
      "type": "function"
    },
    {
      "inputs": [
        {
          "internalType": "address",
          "name": "_tokenIn",
          "type": "address"
        },
        {
          "internalType": "address",
          "name": "_tokenOut",
          "type": "address"
        },
        {
          "internalType": "uint256",
          "name": "_amountTokensOut",
          "type": "uint256"
        },
        {
          "internalType": "uint256",
          "name": "_maxAmountTokensIn",
          "type": "uint256"
        },
        {
          "internalType": "uint256",
          "name": "_expireTimestamp",
          "type": "uint256"
        },
        {
          "internalType": "address",
          "name": "_transferTo",
          "type": "address"
        }
      ],
      "name": "swapTokensForExactTokens",
      "outputs": [
        {
          "internalType": "uint256[]",
          "name": "",
          "type": "uint256[]"
        }
      ],
      "stateMutability": "payable",
      "type": "function"
    },
    {
      "inputs": [],
      "name": "symbol",
      "outputs": [
        {
          "internalType": "string",
          "name": "",
          "type": "string"
        }
      ],
      "stateMutability": "view",
      "type": "function"
    },
    {
      "inputs": [],
      "name": "totalSupply",
      "outputs": [
        {
          "internalType": "uint256",
          "name": "",
          "type": "uint256"
        }
      ],
      "stateMutability": "view",
      "type": "function"
    },
    {
      "inputs": [
        {
          "internalType": "uint256",
          "name": "_id",
          "type": "uint256"
        }
      ],
      "name": "totalSupply",
      "outputs": [
        {
          "internalType": "uint256",
          "name": "",
          "type": "uint256"
        }
      ],
      "stateMutability": "view",
      "type": "function"
    },
    {
      "inputs": [
        {
          "internalType": "address",
          "name": "_newOwner",
          "type": "address"
        }
      ],
      "name": "transferOwnership",
      "outputs": [],
      "stateMutability": "nonpayable",
      "type": "function"
    },
    {
      "inputs": [
        {
          "internalType": "uint256",
          "name": "_id",
          "type": "uint256"
        }
      ],
      "name": "uri",
      "outputs": [
        {
          "internalType": "string",
          "name": "",
          "type": "string"
        }
      ],
      "stateMutability": "view",
      "type": "function"
    },
    {
      "stateMutability": "payable",
      "type": "receive"
    }
  ],
  "bytecode": "0x60c0604052600b60808190526a436572627953776170563160a81b60a09081526200002e916007919062000312565b506040805180820190915260038082526243533160e81b60209092019182526200005b9160089162000312565b5060405180606001604052806023815260200162004f616023913980516200008c9160099160209091019062000312565b503480156200009a57600080fd5b50620000a633620002c0565b73def78a28c78a461598d948bc0c689ce88f812ad860006064620000ce612710601462000472565b620000da9190620004a0565b90506351a67366600160c882600083620000f5848462000472565b620001019190620004a0565b6040805160c0810182526001600160a01b038a1680825263ffffffff8a166020830181905261ffff8981169484018590528816606084018190526001600160401b038881166080860181905290871660a0909501859052600280546001600160c01b031916909417600160a01b9093029290921763ffffffff60c01b1916600160c01b90950261ffff60d01b191694909417600160d01b909402939093179055600380546001600160801b031916909217680100000000000000009091021790559050620001ce620003a1565b6040805160a08101825282815260006020820181905291810182905260608101829052608081018290528154600181018355918052805190916003027f290decd9548b62a8d60345a988386fc84ba6bc95484008f6362f93160ef3e56301906200023c9082906006620003bf565b5060208201516001820180546040850151606086015161ffff90941662ffffff19909216919091176201000060ff90921691909102176301000000600160901b03191663010000006001600160781b0393841602179055608090920151600290910180546001600160781b0319169190921617905550620005009650505050505050565b600a80546001600160a01b038381166001600160a01b0319831681179093556040519116919082907f8be0079c531659141344cd1fd0a4f28419497f9722a3daafe3b4186f6b6457e090600090a35050565b8280546200032090620004c3565b90600052602060002090601f0160209004810192826200034457600085556200038f565b82601f106200035f57805160ff19168380011785556200038f565b828001600101855582156200038f579182015b828111156200038f57825182559160200191906001019062000372565b506200039d9291506200045b565b5090565b6040518060c001604052806006906020820280368337509192915050565b6001830191839082156200038f5791602002820160005b838211156200041e57835183826101000a81548164ffffffffff021916908364ffffffffff1602179055509260200192600501602081600401049283019260010302620003d6565b8015620004515782816101000a81549064ffffffffff02191690556005016020816004010492830192600103026200041e565b50506200039d9291505b5b808211156200039d57600081556001016200045c565b60008160001904831182151516156200049b57634e487b7160e01b600052601160045260246000fd5b500290565b600082620004be57634e487b7160e01b600052601260045260246000fd5b500490565b600181811c90821680620004d857607f821691505b60208210811415620004fa57634e487b7160e01b600052602260045260246000fd5b50919050565b614a5180620005106000396000f3fe6080604052600436106101fc5760003560e01c8063842980f41161010d578063bd85b039116100a0578063e985e9c51161006f578063e985e9c5146106d5578063f242432a1461071e578063f2fde38b1461073e578063f5dedd461461075e578063f65247241461078b57600080fd5b8063bd85b03914610655578063c790985a14610682578063cab4ba82146106a2578063d5d60737146106c257600080fd5b806395d89b41116100dc57806395d89b41146105ed5780639dff76c714610602578063a22cb46514610622578063a60c6e551461064257600080fd5b8063842980f41461047757806385b4bb531461048a5780638928abe7146105af5780638da5cb5b146105cf57600080fd5b806343fefad4116101905780634f558e791161015f5780634f558e79146103ad57806361417516146103ec578063715018a614610422578063718580491461043757806374fcf0711461045757600080fd5b806343fefad41461032d57806348b08d62146103405780634c3c0eb2146103605780634e1273f41461038057600080fd5b806318160ddd116101cc57806318160ddd146102b5578063313ce567146102ca57806334e150ab146102de5780633935ac111461030b57600080fd5b8062fdd58e1461020857806306fb1a071461023b57806306fdde03146102735780630e89341c1461029557600080fd5b3661020357005b600080fd5b34801561021457600080fd5b50610228610223366004613dfa565b61079e565b6040519081526020015b60405180910390f35b34801561024757600080fd5b5061025b610256366004613e26565b6107f1565b6040516001600160a01b039091168152602001610232565b34801561027f57600080fd5b5061028861086e565b6040516102329190613e97565b3480156102a157600080fd5b506102886102b0366004613e26565b610900565b3480156102c157600080fd5b50610228610934565b3480156102d657600080fd5b506012610228565b3480156102ea57600080fd5b506102fe6102f9366004613ef5565b610980565b6040516102329190613f36565b34801561031757600080fd5b5061032b610326366004614089565b610b2d565b005b61022861033b3660046140ec565b610b8c565b34801561034c57600080fd5b5061022861035b366004614136565b610ede565b34801561036c57600080fd5b5061022861037b366004614177565b610f7e565b34801561038c57600080fd5b506103a061039b366004614194565b610fda565b60405161023291906141ff565b3480156103b957600080fd5b506103dc6103c8366004613e26565b600090815260066020526040902054151590565b6040519015158152602001610232565b3480156103f857600080fd5b50610228610407366004614177565b6001600160a01b031660009081526001602052604090205490565b34801561042e57600080fd5b5061032b6110d0565b34801561044357600080fd5b5061032b610452366004613dfa565b611106565b34801561046357600080fd5b506102286104723660046140ec565b611272565b61032b6104853660046140ec565b611303565b34801561049657600080fd5b5061053e6040805160c081018252600080825260208201819052918101829052606081018290526080810182905260a0810191909152506040805160c0810182526002546001600160a01b038116825263ffffffff600160a01b820416602083015261ffff600160c01b8204811693830193909352600160d01b900490911660608201526003546001600160401b038082166080840152600160401b9091041660a082015290565b604051610232919081516001600160a01b0316815260208083015163ffffffff169082015260408083015161ffff90811691830191909152606080840151909116908201526080808301516001600160401b039081169183019190915260a092830151169181019190915260c00190565b3480156105bb57600080fd5b5061032b6105ca366004614243565b611317565b3480156105db57600080fd5b50600a546001600160a01b031661025b565b3480156105f957600080fd5b5061028861149e565b34801561060e57600080fd5b5061032b61061d366004614296565b6114ad565b34801561062e57600080fd5b5061032b61063d3660046142d9565b6114e3565b6103a0610650366004614312565b61154f565b34801561066157600080fd5b50610228610670366004613e26565b60009081526006602052604090205490565b34801561068e57600080fd5b5061022861069d366004614136565b611904565b3480156106ae57600080fd5b5061032b6106bd366004613dfa565b611992565b61032b6106d03660046140ec565b611aba565b3480156106e157600080fd5b506103dc6106f0366004614379565b6001600160a01b03918216600090815260056020908152604080832093909416825291909152205460ff1690565b34801561072a57600080fd5b5061032b6107393660046143a7565b611af8565b34801561074a57600080fd5b5061032b610759366004614177565b611bcb565b34801561076a57600080fd5b5061077e610779366004613ef5565b611c28565b6040516102329190614422565b6103a0610799366004614312565b611cfc565b6000826001600160a01b0381166107c857604051630b9f42b360e31b815260040160405180910390fd5b505060009081526004602090815260408083206001600160a01b03949094168352929052205490565b6040516306fb1a0760e01b81526004810182905260009073def1fac7bf08f173d286bbbdcbeeade695129840906306fb1a0790602401602060405180830381865afa158015610844573d6000803e3d6000fd5b505050506040513d601f19601f820116820180604052508101906108689190614471565b92915050565b60606007805461087d9061448e565b80601f01602080910402602001604051908101604052809291908181526020018280546108a99061448e565b80156108f65780601f106108cb576101008083540402835291602001916108f6565b820191906000526020600020905b8154815290600101906020018083116108d957829003601f168201915b5050505050905090565b6060600961090d836120a0565b60405160200161091e9291906144df565b6040516020818303038152906040529050919050565b60008060005b6000600681610948856145a7565b94508481526020019081526020016000205411156108685760008281526006602052604090205461097990826145c2565b905061093a565b60606000826001600160401b0381111561099c5761099c613fe7565b6040519080825280602002602001820160405280156109d557816020015b6109c2613bef565b8152602001906001900390816109ba5790505b50905060005b83811015610b255760008585838181106109f7576109f76145da565b9050602002016020810190610a0c9190614177565b6001600160a01b038116600090815260016020526040812054815492935090918110610a3a57610a3a6145da565b6000918252602090912060408051610160810190915291600302018160a081018260068282826020028201916000905b82829054906101000a900464ffffffffff1664ffffffffff1681526020019060050190602082600401049283019260010382029150808411610a6a57505050928452505050600182015461ffff8116602083015262010000810460ff166040830152630100000090046001600160781b0390811660608301526002909201549091166080909101528351849084908110610b0657610b066145da565b6020026020010181905250508080610b1d906145a7565b9150506109db565b509392505050565b600a546001600160a01b03163314610b605760405162461bcd60e51b8152600401610b57906145f0565b60405180910390fd5b8151610b73906007906020850190613c24565b508051610b87906008906020840190613c24565b505050565b6001600160a01b03841660009081526001602052604081205485901580610bc957506001600160a01b0381166000805160206149fc833981519152145b15610be65760405162461bcd60e51b8152600401610b5790614612565b8380421115610c075760405162461bcd60e51b8152600401610b579061462d565b6001600160a01b0387166000908152600160205260408120548154909190819083908110610c3757610c376145da565b906000526020600020906003020190506000610c528a6121a8565b90506000610c5f8b612259565b9050610c6d8b33848d6122b5565b6000610c788c612259565b82518151919250610c8891614648565b9a5060018b11610cbe5760405162461bcd60e51b81526020600482015260016024820152602360f91b6044820152606401610b57565b600184015460208301518351600092610d099263010000009091046001600160781b031691610cf591610cf09161465f565b612410565b600089815260066020526040902054612480565b600254909150610d23906001600160a01b03168783612517565b8251600087815260066020526040812054909190610d41908f61465f565b610d4b9190614694565b9050610d588b8883612517565b6000846000015185602001518f610d6f919061465f565b610d799190614694565b905060018111610d9b57604051621037cb60e91b815260040160405180910390fd5b604051630bb9ff5d60e01b81526001600160a01b0387166004820152602481018290526000805160206149fc83398151915290630bb9ff5d90604401600060405180830381600087803b158015610df157600080fd5b505af1158015610e05573d6000803e3d6000fd5b5050505060208401518451610e1d91610cf09161465f565b8760010160036101000a8154816001600160781b0302191690836001600160781b031602179055507f64b83944e79c3ce8d4c297411de637c3e102d064677aac0c163976ebdcd6f50e8f8f8385604051610e7a94939291906146a8565b60405180910390a16000805160206149dc8339815191528f856000015186602001518a60020160009054906101000a90046001600160781b0316604051610ec494939291906146ce565b60405180910390a1509d9c50505050505050505050505050565b60006001600160a01b0383166000805160206149fc8339815191521415610f1957610f12610f0b85612259565b85846125fb565b9050610f77565b6001600160a01b0384166000805160206149fc8339815191521415610f4a57610f12610f4484612259565b83612655565b6000610f5f610f5886612259565b86856125fb565b9050610f73610f6d85612259565b82612655565b9150505b9392505050565b6001600160a01b0381166000908152600160205260408120548154829182918110610fab57610fab6145da565b906000526020600020906003020190506000610fc684612259565b9050610fd2828261266d565b949350505050565b60608184808214610ffe57604051632ce5f24f60e01b815260040160405180910390fd5b6000866001600160401b0381111561101857611018613fe7565b604051908082528060200260200182016040528015611041578160200160208202803683370190505b50905060005b858110156110c457611097898983818110611064576110646145da565b90506020020160208101906110799190614177565b88888481811061108b5761108b6145da565b9050602002013561079e565b8282815181106110a9576110a96145da565b60209081029190910101526110bd816145a7565b9050611047565b50979650505050505050565b600a546001600160a01b031633146110fa5760405162461bcd60e51b8152600401610b57906145f0565b6111046000612837565b565b6001600160a01b03821660009081526001602052604081205481548291908110611132576111326145da565b6000918252602090912060039091020160028101549091506001600160781b039081161415611174576040516362b6d35760e01b815260040160405180910390fd5b6002810180548391906000906111949084906001600160781b03166146fd565b82546001600160781b039182166101009390930a9283029190920219909116179055506040516318a8ad8760e01b8152336004820152602481018390526000805160206149fc833981519152906318a8ad8790604401600060405180830381600087803b15801561120457600080fd5b505af1158015611218573d6000803e3d6000fd5b50505050600061122784612259565b8051602082015160028501546040519394506000805160206149dc83398151915293611264938993909290916001600160781b03909116906146ce565b60405180910390a150505050565b6001600160a01b038416600090815260016020526040812054859015806112af57506001600160a01b0381166000805160206149fc833981519152145b156112cc5760405162461bcd60e51b8152600401610b5790614612565b83804211156112ed5760405162461bcd60e51b8152600401610b579061462d565b6112f8878786612889565b979650505050505050565b611311848484600085612b12565b50505050565b600a546001600160a01b031633146113415760405162461bcd60e51b8152600401610b57906145f0565b6113516060820160408301614738565b61ffff161580611386575061136c6080820160608301614738565b61ffff166113806060830160408401614738565b61ffff16115b806113a557506101f461139f6080830160608401614738565b61ffff16115b156113d75760405162461bcd60e51b8152602060048201526002602482015261613160f01b6044820152606401610b57565b6113e760c0820160a0830161476a565b6001600160401b031661140060a083016080840161476a565b6001600160401b0316111561143c5760405162461bcd60e51b8152602060048201526002602482015261309960f11b6044820152606401610b57565b6114496002612710614694565b6114596040830160208401614799565b63ffffffff16106114915760405162461bcd60e51b8152602060048201526002602482015261613360f01b6044820152606401610b57565b806002610b8782826147d0565b60606008805461087d9061448e565b600a546001600160a01b031633146114d75760405162461bcd60e51b8152600401610b57906145f0565b610b8760098383613ca8565b60006114ef60036107f1565b9050806001600160a01b031663eef84ba16040518163ffffffff1660e01b8152600401600060405180830381600087803b15801561152c57600080fd5b505af1158015611540573d6000803e3d6000fd5b50505050610b87338484612f2a565b606082804211156115725760405162461bcd60e51b8152600401610b579061462d565b866001600160a01b0316886001600160a01b031614156115b85760405162461bcd60e51b81526020600482015260016024820152601360fa1b6044820152606401610b57565b60006115c3896121a8565b604080516002808252606082018352929350600092909160208301908036833701905050905087816000815181106115fd576115fd6145da565b602002602001018181525050611626604051806040016040528060008152602001600081525090565b6001600160a01b038a166000805160206149fc83398151915214156117065761164e8b612259565b905061165b818c8b6125fb565b8260018151811061166e5761166e6145da565b602002602001018181525050878260018151811061168e5761168e6145da565b602002602001015110156116c85760405162461bcd60e51b81526020600482015260016024820152600960fb1b6044820152606401610b57565b6116d48b33858c6122b5565b6116fc8b826000856001815181106116ee576116ee6145da565b60200260200101518a612fca565b5092506118f99050565b60006117118b6121a8565b9050611730604051806040016040528060008152602001600081525090565b6001600160a01b038d166000805160206149fc8339815191521415611812576117588c612259565b9050611764818c612655565b84600181518110611777576117776145da565b6020026020010181815250508984600181518110611797576117976145da565b602002602001015110156117d15760405162461bcd60e51b81526020600482015260016024820152606960f81b6044820152606401610b57565b6117dd8d33848e6122b5565b6118058c82866001815181106117f5576117f56145da565b602002602001015160008c612fca565b83965050505050506118f9565b61181b8d612259565b9250600061182a848f8e6125fb565b90506118358d612259565b91506118418282612655565b85600181518110611854576118546145da565b6020026020010181815250508a85600181518110611874576118746145da565b602002602001015110156118ae5760405162461bcd60e51b81526020600482015260016024820152606960f81b6044820152606401610b57565b6118ba8e33888f6122b5565b6118c88e8560008487612fca565b6118f08d83876001815181106118e0576118e06145da565b602002602001015160008d612fca565b50929550505050505b509695505050505050565b60006001600160a01b0383166000805160206149fc833981519152141561193857610f1261193185612259565b85846134c8565b6001600160a01b0384166000805160206149fc833981519152141561196957610f1261196384612259565b83613522565b600061197d61197785612259565b84613522565b9050610f7361198b86612259565b86836134c8565b600a546001600160a01b031633146119bc5760405162461bcd60e51b8152600401610b57906145f0565b6001600160a01b038216600090815260016020526040902054829015806119f957506001600160a01b0381166000805160206149fc833981519152145b15611a165760405162461bcd60e51b8152600401610b5790614612565b6000611a2184612259565b6001600160a01b038516600090815260016020526040812054815492935090918291908110611a5257611a526145da565b6000918252602091829020600391909102016002810180546001600160781b0319166001600160781b0388161790558351918401516040519193506000805160206149dc83398151915292611aab9289929089906146a8565b60405180910390a15050505050565b600a546001600160a01b03163314611ae45760405162461bcd60e51b8152600401610b57906145f0565b6113118484846001600160781b0385612b12565b856001600160a01b03811633148015611b3457506001600160a01b038116600090815260056020908152604080832033845290915290205460ff165b15611b5257604051631fc3afe760e01b815260040160405180910390fd5b6000611b5e60036107f1565b9050806001600160a01b031663eef84ba16040518163ffffffff1660e01b8152600401600060405180830381600087803b158015611b9b57600080fd5b505af1158015611baf573d6000803e3d6000fd5b50505050611bc188888888888861353a565b5050505050505050565b600a546001600160a01b03163314611bf55760405162461bcd60e51b8152600401610b57906145f0565b6001600160a01b038116611c1c57604051635868b79d60e01b815260040160405180910390fd5b611c2581612837565b50565b60606000826001600160401b03811115611c4457611c44613fe7565b604051908082528060200260200182016040528015611c8957816020015b6040805180820190915260008082526020820152815260200190600190039081611c625790505b50905060005b83811015610b25576000858583818110611cab57611cab6145da565b9050602002016020810190611cc09190614177565b9050611ccb81612259565b838381518110611cdd57611cdd6145da565b6020026020010181905250508080611cf4906145a7565b915050611c8f565b60608280421115611d1f5760405162461bcd60e51b8152600401610b579061462d565b866001600160a01b0316886001600160a01b03161415611d655760405162461bcd60e51b81526020600482015260016024820152601360fa1b6044820152606401610b57565b6000611d70896121a8565b60408051600280825260608201835292935060009290916020830190803683370190505090508781600181518110611daa57611daa6145da565b602002602001018181525050611dd3604051806040016040528060008152602001600081525090565b6001600160a01b038a166000805160206149fc8339815191521415611ea957611dfb8b612259565b9050611e08818c8b6134c8565b82600081518110611e1b57611e1b6145da565b6020026020010181815250508782600081518110611e3b57611e3b6145da565b60200260200101511115611e755760405162461bcd60e51b81526020600482015260016024820152604b60f81b6044820152606401610b57565b611e9b8b338585600081518110611e8e57611e8e6145da565b60200260200101516122b5565b6116fc8b8260008c8a612fca565b6000611eb48b6121a8565b9050611ed3604051806040016040528060008152602001600081525090565b6001600160a01b038d166000805160206149fc8339815191521415611f9b57611efb8c612259565b9050611f07818c613522565b84600081518110611f1a57611f1a6145da565b6020026020010181815250508984600081518110611f3a57611f3a6145da565b60200260200101511115611f745760405162461bcd60e51b81526020600482015260016024820152602560f91b6044820152606401610b57565b611f8d8d338487600081518110611e8e57611e8e6145da565b6118058c828d60008c612fca565b611fa48c612259565b90506000611fb2828d613522565b905060018111611fe85760405162461bcd60e51b81526020600482015260016024820152605560f81b6044820152606401610b57565b611ff18e612259565b9350611ffe848f836134c8565b85600081518110612011576120116145da565b6020026020010181815250508a85600081518110612031576120316145da565b6020026020010151111561206b5760405162461bcd60e51b81526020600482015260016024820152604b60f81b6044820152606401610b57565b6120848e338888600081518110611e8e57611e8e6145da565b6120928e8560008487612fca565b6118f08d838e60008d612fca565b6060816120c45750506040805180820190915260018152600360fc1b602082015290565b8160005b81156120ee57806120d8816145a7565b91506120e79050600a83614694565b91506120c8565b6000816001600160401b0381111561210857612108613fe7565b6040519080825280601f01601f191660200182016040528015612132576020820181803683370190505b508593509050815b831561219f5761214b600a856148fa565b6121569060306145c2565b60f81b826121638361490e565b92508281518110612176576121766145da565b60200101906001600160f81b031916908160001a905350612198600a85614694565b935061213a565b50949350505050565b6040516bffffffffffffffffffffffff19606083901b166020820152600090819060340160408051601f19818403018152908290528051602090910120733d602d80600a3d3981f3363d3d373d3d3d363d7360601b8252738631addbdec5bc143807fc9d7a21b94fb9601a9560601b60148301526f5af43d82803e903d91602b57fd5bf3ff60801b60288301523060601b6038830152604c8201526037808220606c83015260559101209392505050565b60408051808201909152600080825260208201526000612278836121a8565b9050604051806040016040528061228f8584613690565b81526020016122ac6000805160206149fc83398151915284613690565b90529392505050565b6001600160a01b038316331415612327576001600160a01b0384167314769f96e57b80c66837701de0b43686fb4632de146122fb576122f684848484613735565b611311565b478181111561231757612317336123128484614648565b61383e565b612321838361383e565b50611311565b6001600160a01b0384167314769f96e57b80c66837701de0b43686fb4632de146123b2576040516306b091f960e01b81526001600160a01b038381166004830152602482018390528416906306b091f990604401600060405180830381600087803b15801561239557600080fd5b505af11580156123a9573d6000803e3d6000fd5b50505050611311565b6040516306e6a46960e21b81526001600160a01b03838116600483015260248201839052841690631b9a91a490604401600060405180830381600087803b1580156123fc57600080fd5b505af1158015611bc1573d6000803e3d6000fd5b60006003821115612471575080600061242a600283614694565b6124359060016145c2565b90505b8181101561246b579050806002816124508186614694565b61245a91906145c2565b6124649190614694565b9050612438565b50919050565b811561247b575060015b919050565b600254600090600160a01b900463ffffffff1680158015906124a25750600085115b80156124ad57508385105b1561250c576124bc818661465f565b6124c882612710614648565b6124d2908661465f565b6124dc91906145c2565b6124e68686614648565b6124f0838661465f565b6124fa919061465f565b6125049190614694565b915050610f77565b506000949350505050565b826001600160a01b03811661253f57604051630b9f42b360e31b815260040160405180910390fd5b8161254957611311565b6000838152600660205260408120805433928592916125699084906145c2565b909155505060008481526004602090815260408083206001600160a01b038981168086529184528285208054890190558251898152938401889052909392908516917fc3d58168c5ae7397731d063d5bbf3d657854427343f4c083240f7aacaa2d0f62910160405180910390a46125f4816000878787604051806020016040528060008152506138e0565b5050505050565b6001600160a01b0382166000908152600160205260408120548154829182918110612628576126286145da565b90600052602060002090600302019050610f738386600001518760200151612650858a61266d565b6139ad565b6000610f7782846020015185600001516127106139ad565b6000806126786139f1565b90506000805b60068110156126e25782811415612694576126d0565b8581600681106126a6576126a66145da565b6006808204909201546126cd9264ffffffffff600591909306026101000a900416836145c2565b91505b806126da816145a7565b91505061267e565b50670de0b6b3a76400006126f860016006614648565b6127029083614648565b61270c919061465f565b60035460208601519192506000916402540be40091612736916001600160401b039091169061465f565b6127409190614694565b60035460208701519192506000916402540be4009161277091600160401b9091046001600160401b03169061465f565b61277a9190614694565b90508183116127a85760025461279d90600160d01b900461ffff16612710614648565b945050505050610868565b8083106127c95760025461279d90600160c01b900461ffff16612710614648565b600254600160d01b900461ffff166127106127e48484614648565b6127ee8587614648565b60025461280f9061ffff600160c01b8204811691600160d01b900416614648565b612819919061465f565b6128239190614694565b61282d91906145c2565b6112f89190614648565b600a80546001600160a01b038381166001600160a01b0319831681179093556040519116919082907f8be0079c531659141344cd1fd0a4f28419497f9722a3daafe3b4186f6b6457e090600090a35050565b6001600160a01b038316600090815260016020526040812054815482908190839081106128b8576128b86145da565b9060005260206000209060030201905060006128d387612259565b60008481526006602052604081205482519293509182906128f5908a9061465f565b6128ff9190614694565b9050600082898560200151612914919061465f565b61291e9190614694565b60018601546020860151865192935060009261295992630100000090046001600160781b03169161295391610cf0919061465f565b86612480565b600254909150612973906001600160a01b03168883612517565b600060405180604001604052808588600001516129909190614648565b81526020018488602001516129a59190614648565b9052602081015181519192506129bf91610cf0919061465f565b8760010160036101000a8154816001600160781b0302191690836001600160781b031602179055506129f233898d613a10565b60006129fd8d6121a8565b6040516318a8ad8760e01b81526001600160a01b0382166004820152602481018690529091506000805160206149fc833981519152906318a8ad8790604401600060405180830381600087803b158015612a5657600080fd5b505af1158015612a6a573d6000803e3d6000fd5b50505050612a7a8d828d886122b5565b7f1dc8bb69df2b8e91fbdcbfcf93d951b3f0000f085a95fe3f7946d6161439245d8d86868f604051612aaf94939291906146a8565b60405180910390a16000805160206149dc8339815191528d836000015184602001518b60020160009054906101000a90046001600160781b0316604051612af994939291906146ce565b60405180910390a150929b9a5050505050505050505050565b6001600160a01b03851660009081526001602052604090205415612b495760405163402670df60e01b815260040160405180910390fd5b6000612b5486613afd565b604051631c9776b560e31b81526001600160a01b03888116600483018190526000805160206149fc83398151915260248401527314769f96e57b80c66837701de0b43686fb4632de1460448301529192509082169063e4bbb5a890606401600060405180830381600087803b158015612bcc57600080fd5b505af1158015612be0573d6000803e3d6000fd5b50505050612bf0863383886122b5565b604051630bb9ff5d60e01b81526001600160a01b0382166004820152602481018590526000805160206149fc83398151915290630bb9ff5d90604401600060405180830381600087803b158015612c4657600080fd5b505af1158015612c5a573d6000803e3d6000fd5b50505050612c688682613690565b945060018511612c9e5760405162461bcd60e51b81526020600482015260016024820152602360f91b6044820152606401610b57565b612ca6613d1c565b60005b6006811015612ce9576001828260068110612cc657612cc66145da565b64ffffffffff909216602092909202015280612ce1816145a7565b915050612ca9565b506000612cf9610cf0878961465f565b6040805160a081019091528381526002549192506000916020820190612d2c90600160d01b900461ffff16612710614648565b61ffff168152602001612d3d6139f1565b60ff1681526001600160781b0380851660208301528816604090910152600080546001810182559080528151919250908290600383027f290decd9548b62a8d60345a988386fc84ba6bc95484008f6362f93160ef3e5630190612da39082906006613d3a565b5060208281015160018381018054604080880151606089015161ffff90961662ffffff19909316929092176201000060ff909316929092029190911771ffffffffffffffffffffffffffffff000000191663010000006001600160781b039586160217909155608090950151600290940180546001600160781b031916949092169390931790556001600160a01b038d16600090815291905220819055612e4f61dead826103e8612517565b6000612e5d6103e885614648565b9050612e6a878383612517565b604080516001600160a01b03808e168252881660208201529081018390527ff8a0462f666b427ea753848be7e91f9ce413975906f6f39950be296ca9a4d5249060600160405180910390a17f64b83944e79c3ce8d4c297411de637c3e102d064677aac0c163976ebdcd6f50e8b8b8b84604051612eea94939291906146a8565b60405180910390a16000805160206149dc8339815191528b8b8b8b604051612f1594939291906146a8565b60405180910390a15050505050505050505050565b816001600160a01b0316836001600160a01b03161415612f5d5760405163180a65b960e31b815260040160405180910390fd5b6001600160a01b03838116600081815260056020908152604080832094871680845294825291829020805460ff191686151590811790915591519182527f17307eab39ab6107e8899845ad3d59bd9653f200f220920489ca2b5937696c31910160405180910390a3505050565b6000612fd586612259565b9050600085602001518260200151612fed9190614648565b865183519192506000916130019190614648565b9050600161300f83836145c2565b116130405760405162461bcd60e51b81526020600482015260016024820152601960f91b6044820152606401610b57565b6001600160a01b0388166000908152600160205260408120548154829190811061306c5761306c6145da565b6000918252602090912060039091020160028101549091506001600160781b039081161080156130b45750600281015486906130b29085906001600160781b03166145c2565b105b156130e55760405162461bcd60e51b81526020600482015260016024820152602d60f91b6044820152606401610b57565b60006130ef6139f1565b9050612710600185118015906131055750600184115b156131d957600183015462010000900460ff168281146131cd57600081841061312e5783613139565b6131396006856145c2565b90505b80613146836145a7565b9250821161319c5760018561315c6006856148fa565b6006811061316c5761316c6145da565b600691828204019190066005026101000a81548164ffffffffff021916908364ffffffffff16021790555061313c565b6131a6858d61266d565b60018601805461ffff9290921662ffffff19909216919091176201000060ff871602179055505b5050600182015461ffff165b60006131e76127108061465f565b60208c01518c516131f8919061465f565b613202919061465f565b9050600061321283612710614648565b90506000613220828861465f565b895161322f906127109061465f565b6132399190614648565b613243838a61465f565b6127108b60200151613255919061465f565b61325f9190614648565b613269919061465f565b90508281101561329f5760405162461bcd60e51b81526020600482015260016024820152603160f81b6044820152606401610b57565b60028601546001600160781b0390811610156132fd5760028601548b906132d0908a906001600160781b03166145c2565b6132da9190614648565b6002870180546001600160781b0319166001600160781b03929092169190911790555b670de0b6b3a76400008b11156133bd576000868660068110613321576133216145da565b600691828204019190066005029054906101000a900464ffffffffff1664ffffffffff16670de0b6b3a76400008d6133599190614694565b61336391906145c2565b905064ffffffffff811061337c5764ffffffffff61337e565b805b878760068110613390576133906145da565b600691828204019190066005026101000a81548164ffffffffff021916908364ffffffffff160217905550505b50505060006133cb8c6121a8565b90506133e76000805160206149fc833981519152828a8c6122b5565b6133f38c828a8d6122b5565b7f4ab7f3f4678bf8f6cbe4d85e4007b7c64df8e1d5d97de1628f4a6416f9d1db038c3387898e8e61342689612710614648565b604080516001600160a01b03988916815296881660208801528601949094526060850192909252608084015260a083015260c0820152908a1660e08201526101000160405180910390a16000805160206149dc8339815191528c886000015189602001518760020160009054906101000a90046001600160781b03166040516134b294939291906146ce565b60405180910390a1505050505050505050505050565b6001600160a01b03821660009081526001602052604081205481548291829181106134f5576134f56145da565b90600052602060002090600302019050610f73838660000151876020015161351d858a61266d565b613ba3565b6000610f778284602001518560000151612710613ba3565b846001600160a01b03811661356257604051630b9f42b360e31b815260040160405180910390fd5b60008581526004602090815260408083206001600160a01b038b1684529091529020543390858110156135a857604051632d688f6160e11b815260040160405180910390fd5b600087815260066020526040812080548892906135c69084906145c2565b909155505060008781526004602090815260408083206001600160a01b038d81168086529184528285208b870390558c81168086529483902080548c01905582518c81529384018b90529092908616917fc3d58168c5ae7397731d063d5bbf3d657854427343f4c083240f7aacaa2d0f62910160405180910390a4613685828a8a8a8a8a8a8080601f0160208091040260200160405190810160405280939291908181526020018383808284376000920191909152506138e092505050565b505050505050505050565b60006001600160a01b0383167314769f96e57b80c66837701de0b43686fb4632de14613725576040516370a0823160e01b81526001600160a01b0383811660048301528416906370a0823190602401602060405180830381865afa1580156136fc573d6000803e3d6000fd5b505050506040513d601f19601f820116820180604052508101906137209190614925565b610f77565b506001600160a01b031631919050565b604080516001600160a01b0385811660248301528481166044830152606480830185905283518084039091018152608490920183526020820180516001600160e01b03166323b872dd60e01b1790529151600092839290881691613799919061493e565b6000604051808303816000865af19150503d80600081146137d6576040519150601f19603f3d011682016040523d82523d6000602084013e6137db565b606091505b5091509150818015613805575080511580613805575080806020019051810190613805919061495a565b6138365760405162461bcd60e51b8152602060048201526002602482015261783160f01b6044820152606401610b57565b505050505050565b604080516000808252602082019092526001600160a01b038416908390604051613868919061493e565b60006040518083038185875af1925050503d80600081146138a5576040519150601f19603f3d011682016040523d82523d6000602084013e6138aa565b606091505b5050905080610b875760405162461bcd60e51b81526020600482015260026024820152613c1960f11b6044820152606401610b57565b833b156138365760405163f23a6e6160e01b81526001600160a01b0385169063f23a6e619061391b9089908990889088908890600401614977565b6020604051808303816000875af1925050508015613956575060408051601f3d908101601f19168201909252613953918101906149b1565b60015b613973576040516322ea035960e11b815260040160405180910390fd5b6001600160e01b0319811663f23a6e6160e01b146139a4576040516315d5293760e11b815260040160405180910390fd5b50505050505050565b6000806139ba838761465f565b9050806139c96127108761465f565b6139d391906145c2565b6139dd858361465f565b6139e79190614694565b9695505050505050565b60006006613a0161438042614694565b613a0b91906148fa565b905090565b826001600160a01b038116613a3857604051630b9f42b360e31b815260040160405180910390fd5b60008381526004602090815260408083206001600160a01b0388168452909152902054339083811015613a7e57604051631cfb29e160e21b815260040160405180910390fd5b60008581526004602090815260408083206001600160a01b038a811680865291845282852089870390558985526006845282852080548a9003905582518a81529384018990529092908616917fc3d58168c5ae7397731d063d5bbf3d657854427343f4c083240f7aacaa2d0f62910160405180910390a4505050505050565b6040516bffffffffffffffffffffffff19606083901b16602082015260009081906034016040516020818303038152906040528051906020012090506000738631addbdec5bc143807fc9d7a21b94fb9601a9560601b90506000604051733d602d80600a3d3981f3363d3d373d3d3d363d7360601b81528260148201526e5af43d82803e903d91602b57fd5bf360881b6028820152836037826000f59695505050505050565b6000613baf8584614648565b82612710613bbd888861465f565b613bc7919061465f565b613bd19190614694565b613bdb9190614694565b613be69060016145c2565b95945050505050565b6040518060a00160405280613c02613d1c565b8152600060208201819052604082018190526060820181905260809091015290565b828054613c309061448e565b90600052602060002090601f016020900481019282613c525760008555613c98565b82601f10613c6b57805160ff1916838001178555613c98565b82800160010185558215613c98579182015b82811115613c98578251825591602001919060010190613c7d565b50613ca4929150613dd0565b5090565b828054613cb49061448e565b90600052602060002090601f016020900481019282613cd65760008555613c98565b82601f10613cef5782800160ff19823516178555613c98565b82800160010185558215613c98579182015b82811115613c98578235825591602001919060010190613d01565b6040518060c001604052806006906020820280368337509192915050565b600183019183908215613c985791602002820160005b83821115613d9657835183826101000a81548164ffffffffff021916908364ffffffffff1602179055509260200192600501602081600401049283019260010302613d50565b8015613dc75782816101000a81549064ffffffffff0219169055600501602081600401049283019260010302613d96565b5050613ca49291505b5b80821115613ca45760008155600101613dd1565b6001600160a01b0381168114611c2557600080fd5b60008060408385031215613e0d57600080fd5b8235613e1881613de5565b946020939093013593505050565b600060208284031215613e3857600080fd5b5035919050565b60005b83811015613e5a578181015183820152602001613e42565b838111156113115750506000910152565b60008151808452613e83816020860160208601613e3f565b601f01601f19169290920160200192915050565b602081526000610f776020830184613e6b565b60008083601f840112613ebc57600080fd5b5081356001600160401b03811115613ed357600080fd5b6020830191508360208260051b8501011115613eee57600080fd5b9250929050565b60008060208385031215613f0857600080fd5b82356001600160401b03811115613f1e57600080fd5b613f2a85828601613eaa565b90969095509350505050565b60208082528251828201819052600091906040908185019086840185805b83811015613fd9578251805186845b6006811015613f8757825164ffffffffff168252918a0191908a0190600101613f63565b5050508781015161ffff1660c08701528681015160ff1660e087015260608101516001600160781b03908116610100880152608090910151166101208601526101409094019391860191600101613f54565b509298975050505050505050565b634e487b7160e01b600052604160045260246000fd5b600082601f83011261400e57600080fd5b81356001600160401b038082111561402857614028613fe7565b604051601f8301601f19908116603f0116810190828211818310171561405057614050613fe7565b8160405283815286602085880101111561406957600080fd5b836020870160208301376000602085830101528094505050505092915050565b6000806040838503121561409c57600080fd5b82356001600160401b03808211156140b357600080fd5b6140bf86838701613ffd565b935060208501359150808211156140d557600080fd5b506140e285828601613ffd565b9150509250929050565b6000806000806080858703121561410257600080fd5b843561410d81613de5565b93506020850135925060408501359150606085013561412b81613de5565b939692955090935050565b60008060006060848603121561414b57600080fd5b833561415681613de5565b9250602084013561416681613de5565b929592945050506040919091013590565b60006020828403121561418957600080fd5b8135610f7781613de5565b600080600080604085870312156141aa57600080fd5b84356001600160401b03808211156141c157600080fd5b6141cd88838901613eaa565b909650945060208701359150808211156141e657600080fd5b506141f387828801613eaa565b95989497509550505050565b6020808252825182820181905260009190848201906040850190845b818110156142375783518352928401929184019160010161421b565b50909695505050505050565b600060c0828403121561246b57600080fd5b60008083601f84011261426757600080fd5b5081356001600160401b0381111561427e57600080fd5b602083019150836020828501011115613eee57600080fd5b600080602083850312156142a957600080fd5b82356001600160401b038111156142bf57600080fd5b613f2a85828601614255565b8015158114611c2557600080fd5b600080604083850312156142ec57600080fd5b82356142f781613de5565b91506020830135614307816142cb565b809150509250929050565b60008060008060008060c0878903121561432b57600080fd5b863561433681613de5565b9550602087013561434681613de5565b945060408701359350606087013592506080870135915060a087013561436b81613de5565b809150509295509295509295565b6000806040838503121561438c57600080fd5b823561439781613de5565b9150602083013561430781613de5565b60008060008060008060a087890312156143c057600080fd5b86356143cb81613de5565b955060208701356143db81613de5565b9450604087013593506060870135925060808701356001600160401b0381111561440457600080fd5b61441089828a01614255565b979a9699509497509295939492505050565b602080825282518282018190526000919060409081850190868401855b828110156144645781518051855286015186850152928401929085019060010161443f565b5091979650505050505050565b60006020828403121561448357600080fd5b8151610f7781613de5565b600181811c908216806144a257607f821691505b6020821081141561246b57634e487b7160e01b600052602260045260246000fd5b600081516144d5818560208601613e3f565b9290920192915050565b600080845481600182811c9150808316806144fb57607f831692505b602080841082141561451b57634e487b7160e01b86526022600452602486fd5b81801561452f57600181146145405761456d565b60ff1986168952848901965061456d565b60008b81526020902060005b868110156145655781548b82015290850190830161454c565b505084890196505b505050505050610f7361458082866144c3565b64173539b7b760d91b815260050190565b634e487b7160e01b600052601160045260246000fd5b60006000198214156145bb576145bb614591565b5060010190565b600082198211156145d5576145d5614591565b500190565b634e487b7160e01b600052603260045260246000fd5b602080825260089082015267616473647361736160c01b604082015260600190565b6020808252600190820152604360f81b604082015260600190565b6020808252600190820152601160fa1b604082015260600190565b60008282101561465a5761465a614591565b500390565b600081600019048311821515161561467957614679614591565b500290565b634e487b7160e01b600052601260045260246000fd5b6000826146a3576146a361467e565b500490565b6001600160a01b0394909416845260208401929092526040830152606082015260800190565b6001600160a01b03949094168452602084019290925260408301526001600160781b0316606082015260800190565b60006001600160781b0380831681851680830382111561471f5761471f614591565b01949350505050565b61ffff81168114611c2557600080fd5b60006020828403121561474a57600080fd5b8135610f7781614728565b6001600160401b0381168114611c2557600080fd5b60006020828403121561477c57600080fd5b8135610f7781614755565b63ffffffff81168114611c2557600080fd5b6000602082840312156147ab57600080fd5b8135610f7781614787565b6000813561086881614728565b6000813561086881614755565b81356147db81613de5565b81546001600160a01b031981166001600160a01b03929092169182178355602084013561480781614787565b63ffffffff60a01b60a09190911b166001600160c01b03198216831781178455604085013561483581614728565b6001600160d01b0319929092169092179190911760c09190911b61ffff60c01b16178155614888614868606084016147b6565b82805461ffff60d01b191660d09290921b61ffff60d01b16919091179055565b600181016148b961489b608085016147c3565b825467ffffffffffffffff19166001600160401b0391909116178255565b610b876148c860a085016147c3565b82546fffffffffffffffff0000000000000000191660409190911b6fffffffffffffffff000000000000000016178255565b6000826149095761490961467e565b500690565b60008161491d5761491d614591565b506000190190565b60006020828403121561493757600080fd5b5051919050565b60008251614950818460208701613e3f565b9190910192915050565b60006020828403121561496c57600080fd5b8151610f77816142cb565b6001600160a01b03868116825285166020820152604081018490526060810183905260a0608082018190526000906112f890830184613e6b565b6000602082840312156149c357600080fd5b81516001600160e01b031981168114610f7757600080fdfe51ab1232a73b82b6b0acb0fa91b834cf6e258a1858c4e23c72ce97241c71aa0d00000000000000000000000079c382879e8c996c1bda2c6508e69640ac712d48a26469706673582212201627a9d1966d723818aeb97e5d085488ff75ff5ecd0381fd7565d2419d98b4aa64736f6c634300080b003368747470733a2f2f646174612e63657262792e66692f4365726279537761702f76312f",
  "immutableReferences": {},
  "source": "// SPDX-License-Identifier: BUSL-1.1\n\npragma solidity ^0.8.11;\n\nimport \"./CerbySwapV1_AdminFunctions.sol\";\nimport \"./CerbySwapV1_SwapFunctions.sol\";\n\ncontract CerbySwapV1 is CerbySwapV1_AdminFunctions {\n\n    constructor() {\n\n        _transferOwnership(\n            msg.sender\n        );\n\n        address mintFeeBeneficiary = 0xdEF78a28c78A461598d948bc0c689ce88f812AD8; // CerbyBridge fees wallet\n        uint256 mintFeeMultiplier = MINT_FEE_DENORM * 20 / 100; // means 20% of fees goes to buyback & burn Cerby\n        uint256 tvlMultiplier = 1369863014; // 0.1369863014\n\n        uint256 feeMinimum = 1; // 0.01%\n        uint256 feeMaximum = 200; // 2.00%\n\n        uint256 tvlMultiplierMinimum = tvlMultiplier; // TVL * 0.1369863014\n        uint256 tvlMultiplierMaximum = tvlMultiplier\n            * feeMaximum\n            / feeMinimum; // TVL * 27.397260274\n\n        settings = Settings({\n            mintFeeBeneficiary: mintFeeBeneficiary,\n            mintFeeMultiplier: uint32(mintFeeMultiplier),\n            feeMinimum: uint16(feeMinimum),\n            feeMaximum: uint16(feeMaximum),\n            tvlMultiplierMinimum: uint64(tvlMultiplierMinimum),\n            tvlMultiplierMaximum: uint64(tvlMultiplierMaximum)\n        });\n\n        // Filling with empty pool 0th id\n        uint40[NUMBER_OF_TRADE_PERIODS] memory tradeVolumePerPeriodInCerUsd;\n\n        pools.push(\n            Pool({\n                tradeVolumePerPeriodInCerUsd: tradeVolumePerPeriodInCerUsd,\n                lastCachedTradePeriod: 0,\n                lastCachedOneMinusFee: 0,\n                lastSqrtKValue: 0,\n                creditCerUsd: 0\n            })\n        );\n    }\n\n    receive() external payable {}\n}\n",
  "sourcePath": "/Users/numwan/Documents/Remix/bitbucket/sol-cerby-swap-v1/contracts/CerbySwapV1.sol",
  "compiler": {
    "name": "solc",
    "version": "0.8.11+commit.d7f03943.Emscripten.clang"
  },
  "schemaVersion": "3.4.4",
  "updatedAt": "2022-02-16T13:18:54.285Z",
  "networkType": "ethereum",
  "devdoc": {
    "kind": "dev",
    "methods": {
      "owner()": {
        "details": "Returns the address of the current owner."
      },
      "renounceOwnership()": {
        "details": "Leaves the contract without owner. It will not be possible to call `onlyOwner` functions anymore. Can only be called by the current owner. NOTE: Renouncing ownership will leave the contract without an owner, thereby removing any functionality that is only available to the owner."
      },
      "transferOwnership(address)": {
        "details": "Transfers ownership of the contract to a new account (`newOwner`). Can only be called by the current owner."
      }
    },
    "version": 1
  },
  "userdoc": {
    "kind": "user",
    "methods": {},
    "version": 1
  }
}