{
  "contractName": "CerbySwapV1_Vault",
  "abi": [
    {
      "inputs": [],
      "name": "CerbySwapV1_Vault_AlreadyInitialized",
      "type": "error"
    },
    {
      "inputs": [],
      "name": "CerbySwapV1_Vault_CallerIsNotFactory",
      "type": "error"
    },
    {
      "inputs": [],
      "name": "CerbySwapV1_Vault_SafeTransferFailed",
      "type": "error"
    },
    {
      "inputs": [],
      "name": "CerbySwapV1_Vault_SafeTransferNativeFailed",
      "type": "error"
    },
    {
      "stateMutability": "payable",
      "type": "receive"
    },
    {
      "inputs": [
        {
          "internalType": "contract ICerbyERC20",
          "name": "_token",
          "type": "address"
        }
      ],
      "name": "initialize",
      "outputs": [],
      "stateMutability": "nonpayable",
      "type": "function"
    },
    {
      "inputs": [
        {
          "internalType": "address",
          "name": "_to",
          "type": "address"
        },
        {
          "internalType": "uint256",
          "name": "_value",
          "type": "uint256"
        }
      ],
      "name": "withdrawEth",
      "outputs": [],
      "stateMutability": "nonpayable",
      "type": "function"
    },
    {
      "inputs": [
        {
          "internalType": "contract ICerbyERC20",
          "name": "_token",
          "type": "address"
        },
        {
          "internalType": "address",
          "name": "_to",
          "type": "address"
        },
        {
          "internalType": "uint256",
          "name": "_value",
          "type": "uint256"
        }
      ],
      "name": "withdrawTokens",
      "outputs": [],
      "stateMutability": "nonpayable",
      "type": "function"
    },
    {
      "inputs": [],
      "name": "token0",
      "outputs": [
        {
          "internalType": "contract ICerbyERC20",
          "name": "",
          "type": "address"
        }
      ],
      "stateMutability": "view",
      "type": "function"
    },
    {
      "inputs": [],
      "name": "token1",
      "outputs": [
        {
          "internalType": "contract ICerbyERC20",
          "name": "",
          "type": "address"
        }
      ],
      "stateMutability": "pure",
      "type": "function"
    }
  ],
  "bytecode": "0x608060405234801561001057600080fd5b50610488806100206000396000f3fe60806040526004361061004e5760003560e01c80630dfe16811461005a5780631b9a91a4146100905780635e35359e146100b2578063c4d66de8146100d2578063d21220a7146100f257600080fd5b3661005557005b600080fd5b34801561006657600080fd5b506000546001600160a01b03165b6040516001600160a01b03909116815260200160405180910390f35b34801561009c57600080fd5b506100b06100ab366004610364565b610119565b005b3480156100be57600080fd5b506100b06100cd366004610390565b6101e0565b3480156100de57600080fd5b506100b06100ed3660046103d1565b610300565b3480156100fe57600080fd5b50733b69b8c5c6a4c8c2a90dc93f3b0238bf70cc9640610074565b3373faf360f184788b00623828165405d7f52820d7891461014d57604051630e26049760e41b815260040160405180910390fd5b604080516000808252602082019092526001600160a01b03841690839060405161017791906103f5565b60006040518083038185875af1925050503d80600081146101b4576040519150601f19603f3d011682016040523d82523d6000602084013e6101b9565b606091505b50509050806101db57604051635aeccf6b60e01b815260040160405180910390fd5b505050565b3373faf360f184788b00623828165405d7f52820d7891461021457604051630e26049760e41b815260040160405180910390fd5b604080516001600160a01b038481166024830152604480830185905283518084039091018152606490920183526020820180516001600160e01b031663a9059cbb60e01b179052915160009283929087169161027091906103f5565b6000604051808303816000865af19150503d80600081146102ad576040519150601f19603f3d011682016040523d82523d6000602084013e6102b2565b606091505b50915091508180156102dc5750805115806102dc5750808060200190518101906102dc9190610430565b6102f957604051638d79522d60e01b815260040160405180910390fd5b5050505050565b6000546001600160a01b03161561032a57604051635df00fd960e11b815260040160405180910390fd5b600080546001600160a01b0319166001600160a01b0392909216919091179055565b6001600160a01b038116811461036157600080fd5b50565b6000806040838503121561037757600080fd5b82356103828161034c565b946020939093013593505050565b6000806000606084860312156103a557600080fd5b83356103b08161034c565b925060208401356103c08161034c565b929592945050506040919091013590565b6000602082840312156103e357600080fd5b81356103ee8161034c565b9392505050565b6000825160005b8181101561041657602081860181015185830152016103fc565b81811115610425576000828501525b509190910192915050565b60006020828403121561044257600080fd5b815180151581146103ee57600080fdfea2646970667358221220b9d3bd3af93bbf346144e79283cc87d6e268f779d5e936591026625169ce283b64736f6c634300080e0033",
  "immutableReferences": {},
  "source": "// SPDX-License-Identifier: BUSL-1.1\n\npragma solidity ^0.8.14;\n\nimport \"./interfaces/ICerbyERC20.sol\";\n\ncontract CerbySwapV1_Vault {\n\n    ICerbyERC20 token;\n    ICerbyERC20 constant CERBY_TOKEN = ICerbyERC20(0x3B69b8C5c6a4c8c2a90dc93F3B0238BF70cC9640);\n    address constant factory = 0xfAf360f184788b00623828165405D7F52820D789;\n\n    error CerbySwapV1_Vault_SafeTransferNativeFailed();\n    error CerbySwapV1_Vault_CallerIsNotFactory();\n    error CerbySwapV1_Vault_AlreadyInitialized();\n    error CerbySwapV1_Vault_SafeTransferFailed();\n\n    receive() external payable {}\n\n    modifier onlyFactory {\n        if (msg.sender != factory) {\n            revert CerbySwapV1_Vault_CallerIsNotFactory();\n        }\n        _;\n    }\n\n    function initialize(\n        ICerbyERC20 _token\n    )\n        external\n    {\n        // initialize contract only once\n        if (address(token) != address(0)) {\n            revert CerbySwapV1_Vault_AlreadyInitialized();\n        }\n\n        token = _token;\n    }\n\n    function withdrawEth(\n        address _to,\n        uint256 _value\n    )\n        external\n        onlyFactory\n    {\n        // refer to https://github.com/Uniswap/solidity-lib/blob/c01640b0f0f1d8a85cba8de378cc48469fcfd9a6/contracts/libraries/TransferHelper.sol#L47-L50\n        (bool success, ) = _to.call{value: _value}(new bytes(0));\n\n        // we allow only successfull calls\n        if (!success) {\n            revert CerbySwapV1_Vault_SafeTransferNativeFailed();\n        }\n    }\n\n    function withdrawTokens(\n        ICerbyERC20 _token,\n        address _to,\n        uint256 _value\n    )\n        external\n        onlyFactory\n    {\n        // refer to https://github.com/Uniswap/solidity-lib/blob/c01640b0f0f1d8a85cba8de378cc48469fcfd9a6/contracts/libraries/TransferHelper.sol#L20-L31\n        (bool success, bytes memory data) = address(_token).call(abi.encodeWithSelector(0xa9059cbb, _to, _value));\n        \n        // we allow successfull calls with (true) or without return data\n        if (!(success && (data.length == 0 || abi.decode(data, (bool))))) {\n            revert CerbySwapV1_Vault_SafeTransferFailed();\n        }\n    }\n\n    function token0()\n        external\n        view\n        returns (ICerbyERC20)\n    {\n        return token;\n    }\n\n    function token1()\n        external\n        pure\n        returns (ICerbyERC20)\n    {\n        return CERBY_TOKEN;\n    }\n}\n",
  "sourcePath": "/Users/numwan/Documents/Remix/bitbucket/sol-cerby-swap-v1/contracts/CerbySwapV1_Vault.sol",
  "compiler": {
    "name": "solc",
    "version": "0.8.14+commit.80d49f37.Emscripten.clang"
  },
  "schemaVersion": "3.4.7",
  "updatedAt": "2022-05-20T07:31:48.912Z",
  "devdoc": {
    "kind": "dev",
    "methods": {},
    "version": 1
  },
  "userdoc": {
    "kind": "user",
    "methods": {},
    "version": 1
  }
}