{
  "contractName": "CerbySwapV1",
  "abi": [
    {
      "inputs": [],
      "stateMutability": "nonpayable",
      "type": "constructor"
    },
    {
      "inputs": [],
      "name": "CerbyCronJobsExecution_TransactionsAreTemporarilyDisabled",
      "type": "error"
    },
    {
      "inputs": [],
      "name": "CerbySwapV1_AmountOfCerbyMustBeLargerThanOne",
      "type": "error"
    },
    {
      "inputs": [],
      "name": "CerbySwapV1_AmountOfCerbyOrTokensInMustBeLargerThanOne",
      "type": "error"
    },
    {
      "inputs": [],
      "name": "CerbySwapV1_AmountOfTokensMustBeLargerThanOne",
      "type": "error"
    },
    {
      "inputs": [],
      "name": "CerbySwapV1_CreditCerbyIsAlreadyMaximum",
      "type": "error"
    },
    {
      "inputs": [],
      "name": "CerbySwapV1_CreditCerbyMustNotBeBelowZero",
      "type": "error"
    },
    {
      "inputs": [],
      "name": "CerbySwapV1_FeeIsWrong",
      "type": "error"
    },
    {
      "inputs": [],
      "name": "CerbySwapV1_FeeOnTransferTokensAreForbidden",
      "type": "error"
    },
    {
      "inputs": [],
      "name": "CerbySwapV1_InputCerbyAmountIsLargerThanMaximumSpecified",
      "type": "error"
    },
    {
      "inputs": [],
      "name": "CerbySwapV1_InputTokensAmountIsLargerThanMaximumSpecified",
      "type": "error"
    },
    {
      "inputs": [],
      "name": "CerbySwapV1_InvariantKValueMustBeSameOrIncreasedOnAnySwaps",
      "type": "error"
    },
    {
      "inputs": [],
      "name": "CerbySwapV1_MintFeeMultiplierMustNotBeLargerThan50Percent",
      "type": "error"
    },
    {
      "inputs": [],
      "name": "CerbySwapV1_OutputCerbyAmountIsLowerThanMinimumSpecified",
      "type": "error"
    },
    {
      "inputs": [],
      "name": "CerbySwapV1_OutputTokensAmountIsLowerThanMinimumSpecified",
      "type": "error"
    },
    {
      "inputs": [],
      "name": "CerbySwapV1_SafeTransferFromFailed",
      "type": "error"
    },
    {
      "inputs": [],
      "name": "CerbySwapV1_SafeTransferNativeFailed",
      "type": "error"
    },
    {
      "inputs": [],
      "name": "CerbySwapV1_SwappingTokenToSameTokenIsForbidden",
      "type": "error"
    },
    {
      "inputs": [],
      "name": "CerbySwapV1_TokenAlreadyExists",
      "type": "error"
    },
    {
      "inputs": [],
      "name": "CerbySwapV1_TokenDoesNotExist",
      "type": "error"
    },
    {
      "inputs": [],
      "name": "CerbySwapV1_TransactionIsExpired",
      "type": "error"
    },
    {
      "inputs": [],
      "name": "CerbySwapV1_TvlMultiplierIsWrong",
      "type": "error"
    },
    {
      "inputs": [],
      "name": "ERC1155_BurnAmountExceedsBalance",
      "type": "error"
    },
    {
      "inputs": [],
      "name": "ERC1155_CallerIsNotOwnerNorApproved",
      "type": "error"
    },
    {
      "inputs": [],
      "name": "ERC1155_ERC1155ReceiverRejectsTokens",
      "type": "error"
    },
    {
      "inputs": [],
      "name": "ERC1155_IdsLengthMismatch",
      "type": "error"
    },
    {
      "inputs": [],
      "name": "ERC1155_InsufficientBalanceForTransfer",
      "type": "error"
    },
    {
      "inputs": [],
      "name": "ERC1155_TransferToNonERC1155ReceiverImplementer",
      "type": "error"
    },
    {
      "inputs": [],
      "name": "Ownable_CallerIsNotOwner",
      "type": "error"
    },
    {
      "inputs": [],
      "name": "Ownable_NewOwnerIsNotTheZeroAddress",
      "type": "error"
    },
    {
      "anonymous": false,
      "inputs": [
        {
          "indexed": true,
          "internalType": "address",
          "name": "_account",
          "type": "address"
        },
        {
          "indexed": true,
          "internalType": "address",
          "name": "_operator",
          "type": "address"
        },
        {
          "indexed": false,
          "internalType": "bool",
          "name": "_approved",
          "type": "bool"
        }
      ],
      "name": "ApprovalForAll",
      "type": "event"
    },
    {
      "anonymous": false,
      "inputs": [
        {
          "indexed": true,
          "internalType": "contract ICerbyERC20",
          "name": "_token",
          "type": "address"
        },
        {
          "indexed": false,
          "internalType": "uint256",
          "name": "_amountTokensIn",
          "type": "uint256"
        },
        {
          "indexed": false,
          "internalType": "uint256",
          "name": "_amountCerbyToMint",
          "type": "uint256"
        },
        {
          "indexed": false,
          "internalType": "uint256",
          "name": "_lpAmount",
          "type": "uint256"
        }
      ],
      "name": "LiquidityAdded",
      "type": "event"
    },
    {
      "anonymous": false,
      "inputs": [
        {
          "indexed": true,
          "internalType": "contract ICerbyERC20",
          "name": "_token",
          "type": "address"
        },
        {
          "indexed": false,
          "internalType": "uint256",
          "name": "_amountTokensOut",
          "type": "uint256"
        },
        {
          "indexed": false,
          "internalType": "uint256",
          "name": "_amountCerbyToBurn",
          "type": "uint256"
        },
        {
          "indexed": false,
          "internalType": "uint256",
          "name": "_amountLpTokensBalanceToBurn",
          "type": "uint256"
        }
      ],
      "name": "LiquidityRemoved",
      "type": "event"
    },
    {
      "anonymous": false,
      "inputs": [
        {
          "indexed": true,
          "internalType": "address",
          "name": "previousOwner",
          "type": "address"
        },
        {
          "indexed": true,
          "internalType": "address",
          "name": "newOwner",
          "type": "address"
        }
      ],
      "name": "OwnershipTransferred",
      "type": "event"
    },
    {
      "anonymous": false,
      "inputs": [
        {
          "indexed": true,
          "internalType": "contract ICerbyERC20",
          "name": "_token",
          "type": "address"
        },
        {
          "indexed": false,
          "internalType": "contract ICerbySwapV1_Vault",
          "name": "_vaultAddress",
          "type": "address"
        },
        {
          "indexed": false,
          "internalType": "uint256",
          "name": "_poolId",
          "type": "uint256"
        }
      ],
      "name": "PoolCreated",
      "type": "event"
    },
    {
      "anonymous": false,
      "inputs": [
        {
          "indexed": true,
          "internalType": "contract ICerbyERC20",
          "name": "_token",
          "type": "address"
        },
        {
          "indexed": false,
          "internalType": "address",
          "name": "_sender",
          "type": "address"
        },
        {
          "indexed": false,
          "internalType": "uint256",
          "name": "_amountTokensIn",
          "type": "uint256"
        },
        {
          "indexed": false,
          "internalType": "uint256",
          "name": "_amountCerbyIn",
          "type": "uint256"
        },
        {
          "indexed": false,
          "internalType": "uint256",
          "name": "_amountTokensOut",
          "type": "uint256"
        },
        {
          "indexed": false,
          "internalType": "uint256",
          "name": "_amountCerbyOut",
          "type": "uint256"
        },
        {
          "indexed": false,
          "internalType": "uint256",
          "name": "_currentFee",
          "type": "uint256"
        },
        {
          "indexed": false,
          "internalType": "address",
          "name": "_transferTo",
          "type": "address"
        }
      ],
      "name": "Swap",
      "type": "event"
    },
    {
      "anonymous": false,
      "inputs": [
        {
          "indexed": true,
          "internalType": "contract ICerbyERC20",
          "name": "_token",
          "type": "address"
        },
        {
          "indexed": false,
          "internalType": "uint256",
          "name": "_newBalanceToken",
          "type": "uint256"
        },
        {
          "indexed": false,
          "internalType": "uint256",
          "name": "_newBalanceCerby",
          "type": "uint256"
        },
        {
          "indexed": false,
          "internalType": "uint256",
          "name": "_newCreditCerby",
          "type": "uint256"
        }
      ],
      "name": "Sync",
      "type": "event"
    },
    {
      "anonymous": false,
      "inputs": [
        {
          "indexed": true,
          "internalType": "address",
          "name": "_operator",
          "type": "address"
        },
        {
          "indexed": true,
          "internalType": "address",
          "name": "_from",
          "type": "address"
        },
        {
          "indexed": true,
          "internalType": "address",
          "name": "_to",
          "type": "address"
        },
        {
          "indexed": false,
          "internalType": "uint256[]",
          "name": "_ids",
          "type": "uint256[]"
        },
        {
          "indexed": false,
          "internalType": "uint256[]",
          "name": "_values",
          "type": "uint256[]"
        }
      ],
      "name": "TransferBatch",
      "type": "event"
    },
    {
      "anonymous": false,
      "inputs": [
        {
          "indexed": true,
          "internalType": "address",
          "name": "_operator",
          "type": "address"
        },
        {
          "indexed": true,
          "internalType": "address",
          "name": "_from",
          "type": "address"
        },
        {
          "indexed": true,
          "internalType": "address",
          "name": "_to",
          "type": "address"
        },
        {
          "indexed": false,
          "internalType": "uint256",
          "name": "_id",
          "type": "uint256"
        },
        {
          "indexed": false,
          "internalType": "uint256",
          "name": "_value",
          "type": "uint256"
        }
      ],
      "name": "TransferSingle",
      "type": "event"
    },
    {
      "inputs": [
        {
          "internalType": "contract ICerbyERC20",
          "name": "_token",
          "type": "address"
        },
        {
          "internalType": "uint256",
          "name": "_amountTokensIn",
          "type": "uint256"
        },
        {
          "internalType": "uint256",
          "name": "_expireTimestamp",
          "type": "uint256"
        },
        {
          "internalType": "address",
          "name": "_transferTo",
          "type": "address"
        }
      ],
      "name": "addTokenLiquidity",
      "outputs": [
        {
          "internalType": "uint256",
          "name": "",
          "type": "uint256"
        }
      ],
      "stateMutability": "payable",
      "type": "function"
    },
    {
      "inputs": [
        {
          "internalType": "contract ICerbyERC20",
          "name": "_token",
          "type": "address"
        },
        {
          "internalType": "uint256",
          "name": "_amountCerbyCredit",
          "type": "uint256"
        }
      ],
      "name": "adminChangeCerbyCreditInPool",
      "outputs": [],
      "stateMutability": "nonpayable",
      "type": "function"
    },
    {
      "inputs": [
        {
          "internalType": "contract ICerbyERC20",
          "name": "_token",
          "type": "address"
        },
        {
          "internalType": "uint256",
          "name": "_amountTokensIn",
          "type": "uint256"
        },
        {
          "internalType": "uint256",
          "name": "_amountCerbyToMint",
          "type": "uint256"
        },
        {
          "internalType": "address",
          "name": "_transferTo",
          "type": "address"
        }
      ],
      "name": "adminCreatePool",
      "outputs": [],
      "stateMutability": "payable",
      "type": "function"
    },
    {
      "inputs": [
        {
          "internalType": "string",
          "name": "_newUrlPrefix",
          "type": "string"
        }
      ],
      "name": "adminSetUrlPrefix",
      "outputs": [],
      "stateMutability": "nonpayable",
      "type": "function"
    },
    {
      "inputs": [
        {
          "internalType": "string",
          "name": "_newContractName",
          "type": "string"
        },
        {
          "internalType": "string",
          "name": "_newContractSymbol",
          "type": "string"
        }
      ],
      "name": "adminUpdateNameAndSymbol",
      "outputs": [],
      "stateMutability": "nonpayable",
      "type": "function"
    },
    {
      "inputs": [
        {
          "components": [
            {
              "internalType": "uint32",
              "name": "onePeriodInSeconds",
              "type": "uint32"
            },
            {
              "internalType": "address",
              "name": "mintFeeBeneficiary",
              "type": "address"
            },
            {
              "internalType": "uint32",
              "name": "mintFeeMultiplier",
              "type": "uint32"
            },
            {
              "internalType": "uint8",
              "name": "feeMinimum",
              "type": "uint8"
            },
            {
              "internalType": "uint8",
              "name": "feeMaximum",
              "type": "uint8"
            },
            {
              "internalType": "uint64",
              "name": "tvlMultiplierMinimum",
              "type": "uint64"
            },
            {
              "internalType": "uint64",
              "name": "tvlMultiplierMaximum",
              "type": "uint64"
            }
          ],
          "internalType": "struct CerbySwapV1_Declarations.Settings",
          "name": "_settings",
          "type": "tuple"
        }
      ],
      "name": "adminUpdateSettings",
      "outputs": [],
      "stateMutability": "nonpayable",
      "type": "function"
    },
    {
      "inputs": [
        {
          "internalType": "address",
          "name": "_account",
          "type": "address"
        },
        {
          "internalType": "uint256",
          "name": "_id",
          "type": "uint256"
        }
      ],
      "name": "balanceOf",
      "outputs": [
        {
          "internalType": "uint256",
          "name": "",
          "type": "uint256"
        }
      ],
      "stateMutability": "view",
      "type": "function"
    },
    {
      "inputs": [
        {
          "internalType": "address[]",
          "name": "_accounts",
          "type": "address[]"
        },
        {
          "internalType": "uint256[]",
          "name": "_ids",
          "type": "uint256[]"
        }
      ],
      "name": "balanceOfBatch",
      "outputs": [
        {
          "internalType": "uint256[]",
          "name": "",
          "type": "uint256[]"
        }
      ],
      "stateMutability": "view",
      "type": "function"
    },
    {
      "inputs": [
        {
          "internalType": "contract ICerbyERC20",
          "name": "_token",
          "type": "address"
        },
        {
          "internalType": "uint256",
          "name": "_amountTokensIn",
          "type": "uint256"
        },
        {
          "internalType": "uint256",
          "name": "_amountCerbyToMint",
          "type": "uint256"
        },
        {
          "internalType": "address",
          "name": "_transferTo",
          "type": "address"
        }
      ],
      "name": "createPool",
      "outputs": [],
      "stateMutability": "payable",
      "type": "function"
    },
    {
      "inputs": [],
      "name": "decimals",
      "outputs": [
        {
          "internalType": "uint256",
          "name": "",
          "type": "uint256"
        }
      ],
      "stateMutability": "pure",
      "type": "function"
    },
    {
      "inputs": [
        {
          "internalType": "uint256",
          "name": "_id",
          "type": "uint256"
        }
      ],
      "name": "exists",
      "outputs": [
        {
          "internalType": "bool",
          "name": "",
          "type": "bool"
        }
      ],
      "stateMutability": "view",
      "type": "function"
    },
    {
      "inputs": [
        {
          "internalType": "contract ICerbyERC20",
          "name": "_token",
          "type": "address"
        }
      ],
      "name": "getCurrentFeeBasedOnTrades",
      "outputs": [
        {
          "internalType": "uint256",
          "name": "fee",
          "type": "uint256"
        }
      ],
      "stateMutability": "view",
      "type": "function"
    },
    {
      "inputs": [
        {
          "internalType": "contract ICerbyERC20",
          "name": "_tokenIn",
          "type": "address"
        },
        {
          "internalType": "contract ICerbyERC20",
          "name": "_tokenOut",
          "type": "address"
        },
        {
          "internalType": "uint256",
          "name": "_amountTokensOut",
          "type": "uint256"
        }
      ],
      "name": "getInputTokensForExactTokens",
      "outputs": [
        {
          "internalType": "uint256",
          "name": "",
          "type": "uint256"
        }
      ],
      "stateMutability": "view",
      "type": "function"
    },
    {
      "inputs": [
        {
          "internalType": "contract ICerbyERC20",
          "name": "_tokenIn",
          "type": "address"
        },
        {
          "internalType": "contract ICerbyERC20",
          "name": "_tokenOut",
          "type": "address"
        },
        {
          "internalType": "uint256",
          "name": "_amountTokensIn",
          "type": "uint256"
        }
      ],
      "name": "getOutputExactTokensForTokens",
      "outputs": [
        {
          "internalType": "uint256",
          "name": "",
          "type": "uint256"
        }
      ],
      "stateMutability": "view",
      "type": "function"
    },
    {
      "inputs": [
        {
          "internalType": "contract ICerbyERC20",
          "name": "_token",
          "type": "address"
        }
      ],
      "name": "getPoolBalancesByToken",
      "outputs": [
        {
          "components": [
            {
              "internalType": "uint256",
              "name": "balanceToken",
              "type": "uint256"
            },
            {
              "internalType": "uint256",
              "name": "balanceCerby",
              "type": "uint256"
            }
          ],
          "internalType": "struct CerbySwapV1_Declarations.PoolBalances",
          "name": "",
          "type": "tuple"
        }
      ],
      "stateMutability": "view",
      "type": "function"
    },
    {
      "inputs": [
        {
          "internalType": "contract ICerbyERC20[]",
          "name": "_tokens",
          "type": "address[]"
        }
      ],
      "name": "getPoolsBalancesByTokens",
      "outputs": [
        {
          "components": [
            {
              "internalType": "uint256",
              "name": "balanceToken",
              "type": "uint256"
            },
            {
              "internalType": "uint256",
              "name": "balanceCerby",
              "type": "uint256"
            }
          ],
          "internalType": "struct CerbySwapV1_Declarations.PoolBalances[]",
          "name": "",
          "type": "tuple[]"
        }
      ],
      "stateMutability": "view",
      "type": "function"
    },
    {
      "inputs": [
        {
          "internalType": "contract ICerbyERC20[]",
          "name": "_tokens",
          "type": "address[]"
        }
      ],
      "name": "getPoolsByTokens",
      "outputs": [
        {
          "components": [
            {
              "internalType": "uint216",
              "name": "sellVolumeThisPeriodInCerby",
              "type": "uint216"
            },
            {
              "internalType": "uint8",
              "name": "lastCachedFee",
              "type": "uint8"
            },
            {
              "internalType": "uint32",
              "name": "nextUpdateWillBeAt",
              "type": "uint32"
            },
            {
              "internalType": "uint128",
              "name": "lastSqrtKValue",
              "type": "uint128"
            },
            {
              "internalType": "uint128",
              "name": "creditCerby",
              "type": "uint128"
            }
          ],
          "internalType": "struct CerbySwapV1_Declarations.Pool[]",
          "name": "",
          "type": "tuple[]"
        }
      ],
      "stateMutability": "view",
      "type": "function"
    },
    {
      "inputs": [],
      "name": "getSettings",
      "outputs": [
        {
          "components": [
            {
              "internalType": "uint32",
              "name": "onePeriodInSeconds",
              "type": "uint32"
            },
            {
              "internalType": "address",
              "name": "mintFeeBeneficiary",
              "type": "address"
            },
            {
              "internalType": "uint32",
              "name": "mintFeeMultiplier",
              "type": "uint32"
            },
            {
              "internalType": "uint8",
              "name": "feeMinimum",
              "type": "uint8"
            },
            {
              "internalType": "uint8",
              "name": "feeMaximum",
              "type": "uint8"
            },
            {
              "internalType": "uint64",
              "name": "tvlMultiplierMinimum",
              "type": "uint64"
            },
            {
              "internalType": "uint64",
              "name": "tvlMultiplierMaximum",
              "type": "uint64"
            }
          ],
          "internalType": "struct CerbySwapV1_Declarations.Settings",
          "name": "",
          "type": "tuple"
        }
      ],
      "stateMutability": "view",
      "type": "function"
    },
    {
      "inputs": [
        {
          "internalType": "contract ICerbyERC20",
          "name": "_token",
          "type": "address"
        }
      ],
      "name": "getTokenToPoolId",
      "outputs": [
        {
          "internalType": "uint256",
          "name": "",
          "type": "uint256"
        }
      ],
      "stateMutability": "view",
      "type": "function"
    },
    {
      "inputs": [
        {
          "internalType": "uint256",
          "name": "_pos",
          "type": "uint256"
        }
      ],
      "name": "getUtilsContractAtPos",
      "outputs": [
        {
          "internalType": "address",
          "name": "",
          "type": "address"
        }
      ],
      "stateMutability": "view",
      "type": "function"
    },
    {
      "inputs": [
        {
          "internalType": "contract ICerbyERC20",
          "name": "_token",
          "type": "address"
        },
        {
          "internalType": "uint256",
          "name": "_amountCerbyCredit",
          "type": "uint256"
        }
      ],
      "name": "increaseCerbyCreditInPool",
      "outputs": [],
      "stateMutability": "nonpayable",
      "type": "function"
    },
    {
      "inputs": [
        {
          "internalType": "address",
          "name": "_account",
          "type": "address"
        },
        {
          "internalType": "address",
          "name": "_operator",
          "type": "address"
        }
      ],
      "name": "isApprovedForAll",
      "outputs": [
        {
          "internalType": "bool",
          "name": "",
          "type": "bool"
        }
      ],
      "stateMutability": "view",
      "type": "function"
    },
    {
      "inputs": [],
      "name": "name",
      "outputs": [
        {
          "internalType": "string",
          "name": "",
          "type": "string"
        }
      ],
      "stateMutability": "view",
      "type": "function"
    },
    {
      "inputs": [],
      "name": "owner",
      "outputs": [
        {
          "internalType": "address",
          "name": "",
          "type": "address"
        }
      ],
      "stateMutability": "view",
      "type": "function"
    },
    {
      "inputs": [
        {
          "internalType": "contract ICerbyERC20",
          "name": "_token",
          "type": "address"
        },
        {
          "internalType": "uint256",
          "name": "_amountLpTokensBalanceToBurn",
          "type": "uint256"
        },
        {
          "internalType": "uint256",
          "name": "_expireTimestamp",
          "type": "uint256"
        },
        {
          "internalType": "address",
          "name": "_transferTo",
          "type": "address"
        }
      ],
      "name": "removeTokenLiquidity",
      "outputs": [
        {
          "internalType": "uint256",
          "name": "",
          "type": "uint256"
        }
      ],
      "stateMutability": "nonpayable",
      "type": "function"
    },
    {
      "inputs": [],
      "name": "renounceOwnership",
      "outputs": [],
      "stateMutability": "nonpayable",
      "type": "function"
    },
    {
      "inputs": [
        {
          "internalType": "address",
          "name": "_from",
          "type": "address"
        },
        {
          "internalType": "address",
          "name": "_to",
          "type": "address"
        },
        {
          "internalType": "uint256",
          "name": "_id",
          "type": "uint256"
        },
        {
          "internalType": "uint256",
          "name": "_amount",
          "type": "uint256"
        },
        {
          "internalType": "bytes",
          "name": "",
          "type": "bytes"
        }
      ],
      "name": "safeTransferFrom",
      "outputs": [],
      "stateMutability": "nonpayable",
      "type": "function"
    },
    {
      "inputs": [
        {
          "internalType": "address",
          "name": "_operator",
          "type": "address"
        },
        {
          "internalType": "bool",
          "name": "_approved",
          "type": "bool"
        }
      ],
      "name": "setApprovalForAll",
      "outputs": [],
      "stateMutability": "nonpayable",
      "type": "function"
    },
    {
      "inputs": [
        {
          "internalType": "contract ICerbyERC20",
          "name": "_tokenIn",
          "type": "address"
        },
        {
          "internalType": "contract ICerbyERC20",
          "name": "_tokenOut",
          "type": "address"
        },
        {
          "internalType": "uint256",
          "name": "_amountTokensIn",
          "type": "uint256"
        },
        {
          "internalType": "uint256",
          "name": "_minAmountTokensOut",
          "type": "uint256"
        },
        {
          "internalType": "uint256",
          "name": "_expireTimestamp",
          "type": "uint256"
        },
        {
          "internalType": "address",
          "name": "_transferTo",
          "type": "address"
        }
      ],
      "name": "swapExactTokensForTokens",
      "outputs": [
        {
          "internalType": "uint256[]",
          "name": "",
          "type": "uint256[]"
        }
      ],
      "stateMutability": "payable",
      "type": "function"
    },
    {
      "inputs": [
        {
          "internalType": "contract ICerbyERC20",
          "name": "_tokenIn",
          "type": "address"
        },
        {
          "internalType": "contract ICerbyERC20",
          "name": "_tokenOut",
          "type": "address"
        },
        {
          "internalType": "uint256",
          "name": "_amountTokensOut",
          "type": "uint256"
        },
        {
          "internalType": "uint256",
          "name": "_maxAmountTokensIn",
          "type": "uint256"
        },
        {
          "internalType": "uint256",
          "name": "_expireTimestamp",
          "type": "uint256"
        },
        {
          "internalType": "address",
          "name": "_transferTo",
          "type": "address"
        }
      ],
      "name": "swapTokensForExactTokens",
      "outputs": [
        {
          "internalType": "uint256[]",
          "name": "",
          "type": "uint256[]"
        }
      ],
      "stateMutability": "payable",
      "type": "function"
    },
    {
      "inputs": [],
      "name": "symbol",
      "outputs": [
        {
          "internalType": "string",
          "name": "",
          "type": "string"
        }
      ],
      "stateMutability": "view",
      "type": "function"
    },
    {
      "inputs": [],
      "name": "totalSupply",
      "outputs": [
        {
          "internalType": "uint256",
          "name": "",
          "type": "uint256"
        }
      ],
      "stateMutability": "view",
      "type": "function"
    },
    {
      "inputs": [
        {
          "internalType": "uint256",
          "name": "_id",
          "type": "uint256"
        }
      ],
      "name": "totalSupply",
      "outputs": [
        {
          "internalType": "uint256",
          "name": "",
          "type": "uint256"
        }
      ],
      "stateMutability": "view",
      "type": "function"
    },
    {
      "inputs": [
        {
          "internalType": "address",
          "name": "_newOwner",
          "type": "address"
        }
      ],
      "name": "transferOwnership",
      "outputs": [],
      "stateMutability": "nonpayable",
      "type": "function"
    },
    {
      "inputs": [
        {
          "internalType": "uint256",
          "name": "_id",
          "type": "uint256"
        }
      ],
      "name": "uri",
      "outputs": [
        {
          "internalType": "string",
          "name": "",
          "type": "string"
        }
      ],
      "stateMutability": "view",
      "type": "function"
    },
    {
      "stateMutability": "payable",
      "type": "receive"
    }
  ],
  "bytecode": "0x60c0604052600b60808190526a436572627953776170563160a81b60a09081526200002e91600891906200042c565b506040805180820190915260038082526243533160e81b60209092019182526200005b916009916200042c565b5060405180606001604052806023815260200162004f8c6023913980516200008c91600a916020909101906200042c565b503480156200009a57600080fd5b50620000a633620003da565b73def78a28c78a461598d948bc0c689ce88f812ad860006064620000ce6127106014620004d2565b620000da919062000500565b90506351a67366600160c882600083620000f58484620004d2565b62000101919062000500565b90506040518060e0016040528061a8c063ffffffff168152602001886001600160a01b031681526020018763ffffffff1681526020018560ff1681526020018460ff168152602001836001600160401b03168152602001826001600160401b0316815250600260008201518160000160006101000a81548163ffffffff021916908363ffffffff16021790555060208201518160000160046101000a8154816001600160a01b0302191690836001600160a01b0316021790555060408201518160000160186101000a81548163ffffffff021916908363ffffffff160217905550606082015181600001601c6101000a81548160ff021916908360ff160217905550608082015181600001601d6101000a81548160ff021916908360ff16021790555060a08201518160010160006101000a8154816001600160401b0302191690836001600160401b0316021790555060c08201518160010160086101000a8154816001600160401b0302191690836001600160401b0316021790555090505060006040518060a0016040528060006001600160d81b03168152602001600060ff168152602001600063ffffffff16815260200160006001600160801b0316815260200160006001600160801b0316815250908060018154018082558091505060019003906000526020600020906002020160009091909190915060008201518160000160006101000a8154816001600160d81b0302191690836001600160d81b03160217905550602082015181600001601b6101000a81548160ff021916908360ff160217905550604082015181600001601c6101000a81548163ffffffff021916908363ffffffff16021790555060608201518160010160006101000a8154816001600160801b0302191690836001600160801b0316021790555060808201518160010160106101000a8154816001600160801b0302191690836001600160801b031602179055505050505050505050506200055f565b600b80546001600160a01b038381166001600160a01b0319831681179093556040519116919082907f8be0079c531659141344cd1fd0a4f28419497f9722a3daafe3b4186f6b6457e090600090a35050565b8280546200043a9062000523565b90600052602060002090601f0160209004810192826200045e5760008555620004a9565b82601f106200047957805160ff1916838001178555620004a9565b82800160010185558215620004a9579182015b82811115620004a95782518255916020019190600101906200048c565b50620004b7929150620004bb565b5090565b5b80821115620004b75760008155600101620004bc565b6000816000190483118215151615620004fb57634e487b7160e01b600052601160045260246000fd5b500290565b6000826200051e57634e487b7160e01b600052601260045260246000fd5b500490565b600181811c908216806200053857607f821691505b6020821081036200055957634e487b7160e01b600052602260045260246000fd5b50919050565b614a1d806200056f6000396000f3fe6080604052600436106102075760003560e01c8063715018a611610118578063a60c6e55116100a0578063e985e9c51161006f578063e985e9c51461073f578063f242432a14610788578063f2fde38b146107a8578063f5dedd46146107c8578063f6524724146107f557600080fd5b8063a60c6e55146106cc578063bd85b039146106df578063c790985a1461070c578063d5d607371461072c57600080fd5b80638da5cb5b116100e75780638da5cb5b146106395780639162ebf01461065757806395d89b41146106775780639dff76c71461068c578063a22cb465146106ac57600080fd5b8063715018a6146104aa57806374fcf071146104bf578063842980f4146104df57806385b4bb53146104f257600080fd5b806334e150ab1161019b57806348b08d621161016a57806348b08d62146103b85780634e1273f4146103d85780634f558e791461040557806361417516146104445780636e00df6f1461048a57600080fd5b806334e150ab146103385780633935ac11146103655780633d07ffdc1461038557806343fefad4146103a557600080fd5b8063085544b2116101d7578063085544b2146102cd5780630e89341c146102ef57806318160ddd1461030f578063313ce5671461032457600080fd5b8062fdd58e146102135780630272c7941461024657806306fb1a071461027357806306fdde03146102ab57600080fd5b3661020e57005b600080fd5b34801561021f57600080fd5b5061023361022e366004613e5c565b610808565b6040519081526020015b60405180910390f35b34801561025257600080fd5b50610266610261366004613e88565b610832565b60405161023d9190613ea5565b34801561027f57600080fd5b5061029361028e366004613ebc565b61084f565b6040516001600160a01b03909116815260200161023d565b3480156102b757600080fd5b506102c06108c6565b60405161023d9190613f2d565b3480156102d957600080fd5b506102ed6102e8366004613e5c565b610958565b005b3480156102fb57600080fd5b506102c061030a366004613ebc565b610b0a565b34801561031b57600080fd5b50610233610b3e565b34801561033057600080fd5b506012610233565b34801561034457600080fd5b50610358610353366004613f8b565b610b8a565b60405161023d9190613fcc565b34801561037157600080fd5b506102ed61038036600461409c565b610d1b565b34801561039157600080fd5b506102ed6103a0366004614107565b610d6e565b6102336103b3366004614119565b610ed8565b3480156103c457600080fd5b506102336103d3366004614163565b6112bb565b3480156103e457600080fd5b506103f86103f33660046141a4565b611367565b60405161023d9190614203565b34801561041157600080fd5b50610434610420366004613ebc565b600090815260066020526040902054151590565b604051901515815260200161023d565b34801561045057600080fd5b5061023361045f366004613e88565b6001600160a01b0316600090815260016020526040902054600160a01b90046001600160601b031690565b34801561049657600080fd5b506102ed6104a5366004613e5c565b611458565b3480156104b657600080fd5b506102ed6115b3565b3480156104cb57600080fd5b506102336104da366004614119565b6115e9565b6102ed6104ed366004614119565b611690565b3480156104fe57600080fd5b506105bc6040805160e081018252600080825260208201819052918101829052606081018290526080810182905260a0810182905260c0810191909152506040805160e08101825260025463ffffffff80821683526001600160a01b036401000000008304166020840152600160c01b8204169282019290925260ff600160e01b830481166060830152600160e81b90920490911660808201526003546001600160401b0380821660a0840152600160401b9091041660c082015290565b60405161023d9190600060e08201905063ffffffff80845116835260018060a01b0360208501511660208401528060408501511660408401525060ff606084015116606083015260ff608084015116608083015260a08301516001600160401b0380821660a08501528060c08601511660c0850152505092915050565b34801561064557600080fd5b50600b546001600160a01b0316610293565b34801561066357600080fd5b50610233610672366004613e88565b6116a4565b34801561068357600080fd5b506102c061171e565b34801561069857600080fd5b506102ed6106a7366004614247565b61172d565b3480156106b857600080fd5b506102ed6106c736600461428a565b611763565b6103f86106da3660046142c3565b6117cf565b3480156106eb57600080fd5b506102336106fa366004613ebc565b60009081526006602052604090205490565b34801561071857600080fd5b50610233610727366004614163565b61180b565b6102ed61073a366004614119565b6118a5565b34801561074b57600080fd5b5061043461075a36600461432a565b6001600160a01b03918216600090815260056020908152604080832093909416825291909152205460ff1690565b34801561079457600080fd5b506102ed6107a3366004614358565b6118e3565b3480156107b457600080fd5b506102ed6107c3366004613e88565b6119b4565b3480156107d457600080fd5b506107e86107e3366004613f8b565b611a11565b60405161023d91906143d3565b6103f86108033660046142c3565b611ad5565b60008181526004602090815260408083206001600160a01b03861684529091529020545b92915050565b604080518082019091526000808252602082015261082c82611b05565b6040516306fb1a0760e01b81526004810182905260009073def1fac7bf08f173d286bbbdcbeeade695129840906306fb1a0790602401602060405180830381865afa1580156108a2573d6000803e3d6000fd5b505050506040513d601f19601f8201168201806040525081019061082c919061441d565b6060600880546108d59061443a565b80601f01602080910402602001604051908101604052809291908181526020018280546109019061443a565b801561094e5780601f106109235761010080835404028352916020019161094e565b820191906000526020600020905b81548152906001019060200180831161093157829003601f168201915b5050505050905090565b6001600160a01b03821660009081526001602052604081205481548291600160a01b90046001600160601b03169081106109945761099461446e565b6000918252602090912060029091020160018101549091506001600160801b03600160801b909104166ffffffffffffffffffffffffffffffffe19016109ed5760405163e737c76760e01b815260040160405180910390fd5b818160010160108282829054906101000a90046001600160801b0316610a13919061449a565b82546001600160801b039182166101009390930a9283029190920219909116179055506040516318a8ad8760e01b815233600482015260248101839052733b69b8c5c6a4c8c2a90dc93f3b0238bf70cc9640906318a8ad8790604401600060405180830381600087803b158015610a8957600080fd5b505af1158015610a9d573d6000803e3d6000fd5b505050506000610aac84611b05565b805160208083015160018601546040805194855292840191909152600160801b90046001600160801b0316908201529091506001600160a01b038516906000805160206149c88339815191529060600160405180910390a250505050565b6060600a610b1783611ba7565b604051602001610b289291906144e1565b6040516020818303038152906040529050919050565b60008060005b6000600681610b5285614592565b945084815260200190815260200160002054111561082c57600082815260066020526040902054610b8390826145ab565b9050610b44565b60606000826001600160401b03811115610ba657610ba66145c3565b604051908082528060200260200182016040528015610bff57816020015b6040805160a081018252600080825260208083018290529282018190526060820181905260808201528252600019909201910181610bc45790505b5090508260005b81811015610d1157600060016000888885818110610c2657610c2661446e565b9050602002016020810190610c3b9190613e88565b6001600160a01b031681526020810191909152604001600020548154600160a01b9091046001600160601b0316908110610c7757610c7761446e565b60009182526020918290206040805160a08101825260029390930290910180546001600160d81b0381168452600160d81b810460ff1694840194909452600160e01b90930463ffffffff16908201526001909101546001600160801b038082166060840152600160801b9091041660808201528351849083908110610cfe57610cfe61446e565b6020908102919091010152600101610c06565b5090949350505050565b600b546001600160a01b03163314610d4e5760405162461bcd60e51b8152600401610d45906145d9565b60405180910390fd5b610d5a60088585613dae565b50610d6760098383613dae565b5050505050565b600b546001600160a01b03163314610d985760405162461bcd60e51b8152600401610d45906145d9565b610da8608082016060830161460d565b60ff161580610dda5750610dc260a082016080830161460d565b60ff16610dd5608083016060840161460d565b60ff16115b15610e0c5760405162461bcd60e51b8152602060048201526002602482015261613160f01b6044820152606401610d45565b610e1c60e0820160c0830161463f565b6001600160401b0316610e3560c0830160a0840161463f565b6001600160401b03161115610e715760405162461bcd60e51b8152602060048201526002602482015261309960f11b6044820152606401610d45565b610e7e6002612710614672565b610e8e6060830160408401614698565b63ffffffff1610610ec65760405162461bcd60e51b8152602060048201526002602482015261613360f01b6044820152606401610d45565b806002610ed382826146cf565b505050565b6001600160a01b0384166000908152600160205260408120548590600160a01b90046001600160601b03161580610f2b57506001600160a01b038116733b69b8c5c6a4c8c2a90dc93f3b0238bf70cc9640145b15610f485760405162461bcd60e51b8152600401610d4590614823565b8380421115610f695760405162461bcd60e51b8152600401610d459061483e565b60018611610f9d5760405162461bcd60e51b81526020600482015260016024820152602360f91b6044820152606401610d45565b6001600160a01b0387166000908152600160205260408120548154600160a01b9091046001600160601b03169190819083908110610fdd57610fdd61446e565b600091825260208083206001600160a01b03808e16855260019092526040842054600290930201935016906110118b611b05565b905061101f8b33848d611caf565b600183015460208201518251600092611064926001600160801b03909116916110509161104b91614859565b611e17565b600088815260066020526040902054611e87565b6002549091506110869064010000000090046001600160a01b03168683611f08565b815160208301516000919061109b908e614859565b6110a59190614672565b9050600181116110c85760405163515ab85f60e01b815260040160405180910390fd5b600060405180604001604052808e86600001516110e591906145ab565b81526020018386602001516110fa91906145ab565b9052602081015181519192506111149161104b9190614859565b6001870180546001600160801b0319166001600160801b0392909216919091179055604051630bb9ff5d60e01b81526001600160a01b038616600482015260248101839052733b69b8c5c6a4c8c2a90dc93f3b0238bf70cc964090630bb9ff5d90604401600060405180830381600087803b15801561119257600080fd5b505af11580156111a6573d6000803e3d6000fd5b5050505060008460000151600660008a8152602001908152602001600020548f6111d09190614859565b6111da9190614672565b90506111e78c8983611f08565b8e6001600160a01b03167f64b83944e79c3ce8d4c297411de637c3e102d064677aac0c163976ebdcd6f50e8f8584604051611235939291909283526020830191909152604082015260600190565b60405180910390a28e6001600160a01b03166000805160206149c8833981519152836000015184602001518a60010160109054906101000a90046001600160801b03166040516112a19392919092835260208301919091526001600160801b0316604082015260600190565b60405180910390a29e9d5050505050505050505050505050565b6000733b69b8c5c6a4c8c2a90dc93f3b0238bf70cc963f196001600160a01b038416016112fb576112f46112ee85611b05565b83611fc0565b9050611360565b733b69b8c5c6a4c8c2a90dc93f3b0238bf70cc963f196001600160a01b03851601611333576112f461132c84611b05565b8484611fd7565b600061134761134186611b05565b84611fc0565b905061135c61135585611b05565b8583611fd7565b9150505b9392505050565b6060818480821461138b57604051632ce5f24f60e01b815260040160405180910390fd5b6000866001600160401b038111156113a5576113a56145c3565b6040519080825280602002602001820160405280156113ce578160200160208202803683370190505b5090508460005b8181101561144a576114258a8a838181106113f2576113f261446e565b90506020020160208101906114079190613e88565b8989848181106114195761141961446e565b90506020020135610808565b8382815181106114375761143761446e565b60209081029190910101526001016113d5565b509098975050505050505050565b600b546001600160a01b031633146114825760405162461bcd60e51b8152600401610d45906145d9565b6001600160a01b0382166000908152600160205260409020548290600160a01b90046001600160601b031615806114d557506001600160a01b038116733b69b8c5c6a4c8c2a90dc93f3b0238bf70cc9640145b156114f25760405162461bcd60e51b8152600401610d4590614823565b60006114fd84611b05565b6001600160a01b038516600090815260016020526040812054815492935090918291600160a01b90046001600160601b031690811061153e5761153e61446e565b600091825260209182902060016002929092020190810180546001600160801b03888116600160801b029116179055835184830151604080519283529382015291820186905291506001600160a01b038616906000805160206149c88339815191529060600160405180910390a25050505050565b600b546001600160a01b031633146115dd5760405162461bcd60e51b8152600401610d45906145d9565b6115e7600061204e565b565b6001600160a01b0384166000908152600160205260408120548590600160a01b90046001600160601b0316158061163c57506001600160a01b038116733b69b8c5c6a4c8c2a90dc93f3b0238bf70cc9640145b156116595760405162461bcd60e51b8152600401610d4590614823565b838042111561167a5760405162461bcd60e51b8152600401610d459061483e565b6116858787866120a0565b979650505050505050565b61169e84848460008561237a565b50505050565b6001600160a01b038116600090815260016020526040812054815482918291600160a01b9091046001600160601b03169081106116e3576116e361446e565b9060005260206000209060020201905060006116fe84611b05565b8254909150611716906001600160d81b03168261281d565b949350505050565b6060600980546108d59061443a565b600b546001600160a01b031633146117575760405162461bcd60e51b8152600401610d45906145d9565b610ed3600a8383613dae565b600061176f600361084f565b9050806001600160a01b031663eef84ba16040518163ffffffff1660e01b8152600401600060405180830381600087803b1580156117ac57600080fd5b505af11580156117c0573d6000803e3d6000fd5b50505050610ed333848461292a565b606082804211156117f25760405162461bcd60e51b8152600401610d459061483e565b6117ff8888888887612997565b98975050505050505050565b6000733b69b8c5c6a4c8c2a90dc93f3b0238bf70cc963f196001600160a01b03841601611844576112f461183e85611b05565b83612d4a565b733b69b8c5c6a4c8c2a90dc93f3b0238bf70cc963f196001600160a01b0385160161187c576112f461187584611b05565b8484612d61565b600061189161188a85611b05565b8585612d61565b905061135c61189f86611b05565b82612d4a565b600b546001600160a01b031633146118cf5760405162461bcd60e51b8152600401610d45906145d9565b61169e8484846001600160801b038561237a565b856001600160a01b0381163314801561191f57506001600160a01b038116600090815260056020908152604080832033845290915290205460ff165b1561193d57604051631fc3afe760e01b815260040160405180910390fd5b6000611949600361084f565b9050806001600160a01b031663eef84ba16040518163ffffffff1660e01b8152600401600060405180830381600087803b15801561198657600080fd5b505af115801561199a573d6000803e3d6000fd5b505050506119aa88888888612dd8565b5050505050505050565b600b546001600160a01b031633146119de5760405162461bcd60e51b8152600401610d45906145d9565b6001600160a01b038116611a0557604051635868b79d60e01b815260040160405180910390fd5b611a0e8161204e565b50565b60606000826001600160401b03811115611a2d57611a2d6145c3565b604051908082528060200260200182016040528015611a7257816020015b6040805180820190915260008082526020820152815260200190600190039081611a4b5790505b5090508260005b81811015610d1157611ab0868683818110611a9657611a9661446e565b9050602002016020810190611aab9190613e88565b611b05565b838281518110611ac257611ac261446e565b6020908102919091010152600101611a79565b60608280421115611af85760405162461bcd60e51b8152600401610d459061483e565b6117ff8888888887612eb9565b60408051808201909152600080825260208201526001600160a01b0382811660009081526001602052604081205490911615611b5b576001600160a01b0380841660009081526001602052604090205416611b64565b611b64836132ad565b90506040518060400160405280611b7b8584613333565b8152602001611b9e733b69b8c5c6a4c8c2a90dc93f3b0238bf70cc964084613333565b90529392505050565b606081600003611bce5750506040805180820190915260018152600360fc1b602082015290565b8160005b8115611bf557611be181614592565b9050611bee600a83614672565b9150611bd2565b6000816001600160401b03811115611c0f57611c0f6145c3565b6040519080825280601f01601f191660200182016040528015611c39576020820181803683370190505b508593509050815b8315611ca657611c52600a85614878565b611c5d9060306145ab565b60f81b82611c6a8361488c565b92508281518110611c7d57611c7d61446e565b60200101906001600160f81b031916908160001a905350611c9f600a85614672565b9350611c41565b50949350505050565b801561169e57336001600160a01b03841603611d26576001600160a01b0384167314769f96e57b80c66837701de0b43686fb4632de14611cfa57611cf5848484846133d8565b61169e565b4781811115611d1657611d1633611d1184846148a3565b6134d9565b611d2083836134d9565b5061169e565b6001600160a01b0384167314769f96e57b80c66837701de0b43686fb4632de14611db957604051632f1a9acf60e11b81526001600160a01b038581166004830152838116602483015260448201839052841690635e35359e90606401600060405180830381600087803b158015611d9c57600080fd5b505af1158015611db0573d6000803e3d6000fd5b5050505061169e565b6040516306e6a46960e21b81526001600160a01b03838116600483015260248201839052841690631b9a91a490604401600060405180830381600087803b158015611e0357600080fd5b505af11580156119aa573d6000803e3d6000fd5b60006003821115611e785750806000611e31600283614672565b611e3c9060016145ab565b90505b81811015611e7257905080600281611e578186614672565b611e6191906145ab565b611e6b9190614672565b9050611e3f565b50919050565b8115611e82575060015b919050565b600254600090600160c01b900463ffffffff16801580611ea75750848411155b15611eb6576000915050611360565b611ec08186614859565b611ecc826127106148a3565b611ed69086614859565b611ee091906145ab565b611eea86866148a3565b611ef48386614859565b611efe9190614859565b61135c9190614672565b80600003611f1557505050565b600082815260066020526040812080543392849291611f359084906145ab565b909155505060008381526004602090815260408083206001600160a01b038881168086529184528285208054880190558251888152938401879052909392908516917fc3d58168c5ae7397731d063d5bbf3d657854427343f4c083240f7aacaa2d0f62910160405180910390a461169e8160008686866040518060200160405280600081525061357b565b6000611360828460000151856020015160006136ef565b6001600160a01b038216600090815260016020526040812054815482918291600160a01b9091046001600160601b03169081106120165761201661446e565b9060005260206000209060020201905061135c838660200151876000015184600001601b9054906101000a900460ff1660ff166136ef565b600b80546001600160a01b038381166001600160a01b0319831681179093556040519116919082907f8be0079c531659141344cd1fd0a4f28419497f9722a3daafe3b4186f6b6457e090600090a35050565b6001600160a01b0383166000908152600160205260408120548154600160a01b9091046001600160601b03169082908190839081106120e1576120e161446e565b9060005260206000209060020201905060006120fc87611b05565b60018301546020820151825192935060009261213e926001600160801b03169161212a9161104b9190614859565b600087815260066020526040902054611e87565b6002549091506121609064010000000090046001600160a01b03168583611f08565b600084815260066020526040812054835161217c908a90614859565b6121869190614672565b9050600060066000878152602001908152602001600020548985602001516121ae9190614859565b6121b89190614672565b9050600060405180604001604052808487600001516121d791906148a3565b81526020018387602001516121ec91906148a3565b9052602081015181519192506122069161104b9190614859565b6001870180546001600160801b0319166001600160801b039290921691909117905561223333888c61373f565b6001600160a01b038b8116600090815260016020526040908190205490516318a8ad8760e01b81529116600482018190526024820184905290733b69b8c5c6a4c8c2a90dc93f3b0238bf70cc9640906318a8ad8790604401600060405180830381600087803b1580156122a557600080fd5b505af11580156122b9573d6000803e3d6000fd5b505050506122c98c828c87611caf565b60408051858152602081018590529081018c90526001600160a01b038d16907f1dc8bb69df2b8e91fbdcbfcf93d951b3f0000f085a95fe3f7946d6161439245d9060600160405180910390a2815160208084015160018a01546040805194855292840191909152600160801b90046001600160801b0316908201526001600160a01b038d16906000805160206149c88339815191529060600160405180910390a250919a9950505050505050505050565b6001600160a01b038516600090815260016020526040902054600160a01b90046001600160601b0316156123e25760405162461bcd60e51b815260206004820152600f60248201526e1cd859191cd85cd8591cd918585cd9608a1b6044820152606401610d45565b600184116124165760405162461bcd60e51b81526020600482015260016024820152602360f91b6044820152606401610d45565b600061242186613803565b60405163189acdbd60e31b81526001600160a01b0388811660048301529192509082169063c4d66de890602401600060405180830381600087803b15801561246857600080fd5b505af115801561247c573d6000803e3d6000fd5b50505050600061248c8783613333565b905061249a87338489611caf565b60006124a68884613333565b90506124b287836145ab565b81146124d1576040516323f4864d60e01b815260040160405180910390fd5b6124db82886145ab565b604051630bb9ff5d60e01b81526001600160a01b038516600482015260248101889052909750733b69b8c5c6a4c8c2a90dc93f3b0238bf70cc964090630bb9ff5d90604401600060405180830381600087803b15801561253a57600080fd5b505af115801561254e573d6000803e3d6000fd5b505050506000612563878961104b9190614859565b6040805160a081018252600080825260025460ff600160e81b820416602084015293945092909182019061259d9063ffffffff16426148ba565b63ffffffff168152602001836001600160801b03168152602001886001600160801b03168152509050600080805490509050600082908060018154018082558091505060019003906000526020600020906002020160009091909190915060008201518160000160006101000a8154816001600160d81b0302191690836001600160d81b03160217905550602082015181600001601b6101000a81548160ff021916908360ff160217905550604082015181600001601c6101000a81548163ffffffff021916908363ffffffff16021790555060608201518160010160006101000a8154816001600160801b0302191690836001600160801b0316021790555060808201518160010160106101000a8154816001600160801b0302191690836001600160801b03160217905550505080600160008d6001600160a01b03166001600160a01b0316815260200190815260200160002060000160146101000a8154816001600160601b0302191690836001600160601b0316021790555061272861dead826103e8611f08565b60006127366103e8856148a3565b9050612743888383611f08565b604080516001600160a01b038981168252602082018590528e16917ff8a0462f666b427ea753848be7e91f9ce413975906f6f39950be296ca9a4d524910160405180910390a2604080518c8152602081018c90529081018290526001600160a01b038d16907f64b83944e79c3ce8d4c297411de637c3e102d064677aac0c163976ebdcd6f50e9060600160405180910390a2604080518c8152602081018c90529081018a90526001600160a01b038d16906000805160206149c88339815191529060600160405180910390a2505050505050505050505050565b600354602082015160009182916402540be40091612846916001600160401b0390911690614859565b6128509190614672565b905080841161286d575050600254600160e81b900460ff1661082c565b60035460208401516000916402540be4009161289991600160401b90046001600160401b031690614859565b6128a39190614672565b90508085106128c2575050600254600160e01b900460ff16905061082c565b6128cc82826148a3565b6128d683876148a3565b6002546128f69060ff600160e01b8204811691600160e81b9004166148a3565b6129009190614859565b61290a9190614672565b6002546129219190600160e81b900460ff166148a3565b95945050505050565b6001600160a01b03838116600081815260056020908152604080832094871680845294825291829020805460ff191686151590811790915591519182527f17307eab39ab6107e8899845ad3d59bd9653f200f220920489ca2b5937696c31910160405180910390a3505050565b6060846001600160a01b0316866001600160a01b0316036129de5760405162461bcd60e51b81526020600482015260016024820152601360fa1b6044820152606401610d45565b6001600160a01b03868116600090815260016020526040808220548151600280825260608201909352931692908160200160208202803683370190505090508581600081518110612a3157612a3161446e565b602002602001018181525050612a5a604051806040016040528060008152602001600081525090565b733b69b8c5c6a4c8c2a90dc93f3b0238bf70cc963f196001600160a01b03891601612b4157612a8889611b05565b9050612a948188611fc0565b82600181518110612aa757612aa761446e565b6020026020010181815250508582600181518110612ac757612ac761446e565b60200260200101511015612b015760405162461bcd60e51b81526020600482015260016024820152600960fb1b6044820152606401610d45565b612b0d8933858a611caf565b612b3789828960008087600181518110612b2957612b2961446e565b60200260200101518b6138a8565b5091506129219050565b6001600160a01b038881166000908152600160209081526040808320548151808301909252838252918101929092528216918b16733b69b8c5c6a4c8c2a90dc93f3b0238bf70cc963f1901612c5757612b998a611b05565b9050612ba6818b8b611fd7565b84600181518110612bb957612bb961446e565b6020026020010181815250508784600181518110612bd957612bd961446e565b60200260200101511015612c135760405162461bcd60e51b81526020600482015260016024820152606960f81b6044820152606401610d45565b612c1f8b33848c611caf565b612c4a8a8260008c88600181518110612c3a57612c3a61446e565b602002602001015160008d6138a8565b8395505050505050612921565b612c608b611b05565b92506000612c6e848b611fc0565b9050612c798b611b05565b9150612c86828c83611fd7565b85600181518110612c9957612c9961446e565b6020026020010181815250508885600181518110612cb957612cb961446e565b60200260200101511015612cf35760405162461bcd60e51b81526020600482015260016024820152606960f81b6044820152606401610d45565b612cff8c33888d611caf565b612d0f8c858c60008086896138a8565b612d3a8b8360008489600181518110612d2a57612d2a61446e565b602002602001015160008e6138a8565b50929a9950505050505050505050565b600061136082846000015185602001516000613d17565b6001600160a01b038216600090815260016020526040812054815482918291600160a01b9091046001600160601b0316908110612da057612da061446e565b9060005260206000209060020201905061135c838660200151876000015184600001601b9054906101000a900460ff1660ff16613d17565b60008281526004602090815260408083206001600160a01b0388168452909152902054339082811015612e1e57604051632d688f6160e11b815260040160405180910390fd5b60008481526004602090815260408083206001600160a01b038a811680865291845282852088870390558981168086529483902080548901905582518981529384018890529092908616917fc3d58168c5ae7397731d063d5bbf3d657854427343f4c083240f7aacaa2d0f62910160405180910390a4612eb182878787876040518060200160405280600081525061357b565b505050505050565b6060846001600160a01b0316866001600160a01b031603612f005760405162461bcd60e51b81526020600482015260016024820152601360fa1b6044820152606401610d45565b6001600160a01b03868116600090815260016020526040808220548151600280825260608201909352931692908160200160208202803683370190505090508581600181518110612f5357612f5361446e565b602002602001018181525050612f7c604051806040016040528060008152602001600081525090565b733b69b8c5c6a4c8c2a90dc93f3b0238bf70cc963f196001600160a01b0389160161307357612faa89611b05565b9050612fb68188612d4a565b82600081518110612fc957612fc961446e565b6020026020010181815250508582600081518110612fe957612fe961446e565b602002602001015111156130235760405162461bcd60e51b81526020600482015260016024820152604b60f81b6044820152606401610d45565b6130498933858560008151811061303c5761303c61446e565b6020026020010151611caf565b612b378982846000815181106130615761306161446e565b60200260200101516000808c8b6138a8565b6001600160a01b038881166000908152600160209081526040808320548151808301909252838252918101929092528216918b16733b69b8c5c6a4c8c2a90dc93f3b0238bf70cc963f1901613189576130cb8a611b05565b90506130d8818b8b612d61565b846000815181106130eb576130eb61446e565b602002602001018181525050878460008151811061310b5761310b61446e565b602002602001015111156131455760405162461bcd60e51b81526020600482015260016024820152602560f91b6044820152606401610d45565b61315e8b33848760008151811061303c5761303c61446e565b612c4a8a826000876000815181106131785761317861446e565b60200260200101518d60008d6138a8565b6131928a611b05565b905060006131a1828c8c612d61565b9050600181116131d75760405162461bcd60e51b81526020600482015260016024820152605560f81b6044820152606401610d45565b6131e08c611b05565b93506131ec8482612d4a565b856000815181106131ff576131ff61446e565b602002602001018181525050888560008151811061321f5761321f61446e565b602002602001015111156132595760405162461bcd60e51b81526020600482015260016024820152604b60f81b6044820152606401610d45565b6132728c33888860008151811061303c5761303c61446e565b61329c8c858760008151811061328a5761328a61446e565b602002602001015160008086896138a8565b612d3a8b836000848e60008e6138a8565b6000806132b983613d65565b604051733d602d80600a3d3981f3363d3d373d3d3d363d7360601b815273029581a9121998fcbb096ceafa92e3e10057878f60601b60148201526f5af43d82803e903d91602b57fd5bf3ff60801b60288201523060601b6038820152604c8101919091526037808220606c83015260559101209392505050565b60006001600160a01b0383167314769f96e57b80c66837701de0b43686fb4632de146133c8576040516370a0823160e01b81526001600160a01b0383811660048301528416906370a0823190602401602060405180830381865afa15801561339f573d6000803e3d6000fd5b505050506040513d601f19601f820116820180604052508101906133c391906148d9565b611360565b506001600160a01b031631919050565b604080516001600160a01b0385811660248301528481166044830152606480830185905283518084039091018152608490920183526020820180516001600160e01b03166323b872dd60e01b179052915160009283929088169161343c91906148f2565b6000604051808303816000865af19150503d8060008114613479576040519150601f19603f3d011682016040523d82523d6000602084013e61347e565b606091505b50915091508180156134a85750805115806134a85750808060200190518101906134a8919061490e565b612eb15760405162461bcd60e51b8152602060048201526002602482015261783160f01b6044820152606401610d45565b604080516000808252602082019092526001600160a01b03841690839060405161350391906148f2565b60006040518083038185875af1925050503d8060008114613540576040519150601f19603f3d011682016040523d82523d6000602084013e613545565b606091505b5050905080610ed35760405162461bcd60e51b81526020600482015260026024820152613c1960f11b6044820152606401610d45565b6001600160a01b03841660009081526007602052604081205460ff1660028111156135a8576135a861492b565b036135f557833b6135ba5760026135bd565b60015b6001600160a01b0385166000908152600760205260409020805460ff191660018360028111156135ef576135ef61492b565b02179055505b60016001600160a01b03851660009081526007602052604090205460ff1660028111156136245761362461492b565b03612eb15760405163f23a6e6160e01b81526001600160a01b0385169063f23a6e619061365d9089908990889088908890600401614941565b6020604051808303816000875af1925050508015613698575060408051601f3d908101601f191682019092526136959181019061497b565b60015b6136b5576040516322ea035960e11b815260040160405180910390fd5b6001600160e01b0319811663f23a6e6160e01b146136e6576040516315d5293760e11b815260040160405180910390fd5b50505050505050565b6000806136fe836127106148a3565b6137089087614859565b90508061371761271087614859565b61372191906145ab565b61372b8583614859565b6137359190614672565b9695505050505050565b60008281526004602090815260408083206001600160a01b038716845290915290205433908281101561378557604051631cfb29e160e21b815260040160405180910390fd5b60008481526004602090815260408083206001600160a01b038981168086529184528285208887039055888552600684528285208054899003905582518981529384018890529092908616917fc3d58168c5ae7397731d063d5bbf3d657854427343f4c083240f7aacaa2d0f62910160405180910390a45050505050565b60008061380f83613d65565b604051733d602d80600a3d3981f3363d3d373d3d3d363d7360601b815273029581a9121998fcbb096ceafa92e3e10057878f60601b601482018190526e5af43d82803e903d91602b57fd5bf360881b60288301529192506000908360378284f56001600160a01b03968716600090815260016020526040902080546001600160a01b031916978216979097179096555093949350505050565b60016138b485876145ab565b116138e55760405162461bcd60e51b81526020600482015260016024820152601960f91b6044820152606401610d45565b6001600160a01b03871660009081526001602052604081205481548291600160a01b90046001600160601b03169081106139215761392161446e565b6000918252602090912060029091020160018101549091506001600160801b03600160801b909104811614801590613978575060018101548390613976908790600160801b90046001600160801b03166145ab565b105b156139a95760405162461bcd60e51b81526020600482015260016024820152602d60f91b6044820152606401610d45565b6000604051806040016040528086898b600001516139c791906145ab565b6139d191906148a3565b815260200185888b602001516139e791906145ab565b6139f191906148a3565b905290506000600187118015613a08575060018811155b15613ae5578254600160e01b900463ffffffff16421115613a95578254613a38906001600160d81b03168a61281d565b83546001600160e01b031916600160d81b60ff8316026001600160d81b031916178455600254909150613a719063ffffffff16426148ba565b835463ffffffff91909116600160e01b026001600160e01b03909116178355613aa3565b508154600160d81b900460ff165b825487908490600090613ac09084906001600160d81b03166149a5565b92506101000a8154816001600160d81b0302191690836001600160d81b031602179055505b6000613af361271080614859565b60208b01518b51613b049190614859565b613b0e9190614859565b90506000613b1c838b614859565b8451613b2b9061271090614859565b613b3591906148a3565b613b3f848b614859565b6127108660200151613b519190614859565b613b5b91906148a3565b613b659190614859565b905081811015613b9b5760405162461bcd60e51b81526020600482015260016024820152603160f81b6044820152606401610d45565b6001850154600160801b90046001600160801b0390811614613c035760018501548790613bd9908b90600160801b90046001600160801b03166145ab565b613be391906148a3565b6001860180546001600160801b03928316600160801b0292169190911790555b6001600160a01b03808d1660009081526001602052604090205416613c3e733b69b8c5c6a4c8c2a90dc93f3b0238bf70cc964082898b611caf565b613c4a8d82898c611caf565b60408051338152602081018d90529081018b9052606081018a90526080810189905260a081018590526001600160a01b0388811660c08301528e16907f4ab7f3f4678bf8f6cbe4d85e4007b7c64df8e1d5d97de1628f4a6416f9d1db039060e00160405180910390a2845160208087015160018901546040805194855292840191909152600160801b90046001600160801b0316908201526001600160a01b038e16906000805160206149c88339815191529060600160405180910390a250505050505050505050505050565b6000613d2385846148a3565b613d2f836127106148a3565b613d399190614859565b612710613d468787614859565b613d509190614859565b613d5a9190614672565b6129219060016145ab565b6040516bffffffffffffffffffffffff19606083811b8216602084015230901b166034820152600090604801604051602081830303815290604052805190602001209050919050565b828054613dba9061443a565b90600052602060002090601f016020900481019282613ddc5760008555613e22565b82601f10613df55782800160ff19823516178555613e22565b82800160010185558215613e22579182015b82811115613e22578235825591602001919060010190613e07565b50613e2e929150613e32565b5090565b5b80821115613e2e5760008155600101613e33565b6001600160a01b0381168114611a0e57600080fd5b60008060408385031215613e6f57600080fd5b8235613e7a81613e47565b946020939093013593505050565b600060208284031215613e9a57600080fd5b813561136081613e47565b81518152602080830151908201526040810161082c565b600060208284031215613ece57600080fd5b5035919050565b60005b83811015613ef0578181015183820152602001613ed8565b8381111561169e5750506000910152565b60008151808452613f19816020860160208601613ed5565b601f01601f19169290920160200192915050565b6020815260006113606020830184613f01565b60008083601f840112613f5257600080fd5b5081356001600160401b03811115613f6957600080fd5b6020830191508360208260051b8501011115613f8457600080fd5b9250929050565b60008060208385031215613f9e57600080fd5b82356001600160401b03811115613fb457600080fd5b613fc085828601613f40565b90969095509350505050565b602080825282518282018190526000919060409081850190868401855b8281101561404e57815180516001600160d81b031685528681015160ff16878601528581015163ffffffff16868601526060808201516001600160801b0390811691870191909152608091820151169085015260a09093019290850190600101613fe9565b5091979650505050505050565b60008083601f84011261406d57600080fd5b5081356001600160401b0381111561408457600080fd5b602083019150836020828501011115613f8457600080fd5b600080600080604085870312156140b257600080fd5b84356001600160401b03808211156140c957600080fd5b6140d58883890161405b565b909650945060208701359150808211156140ee57600080fd5b506140fb8782880161405b565b95989497509550505050565b600060e08284031215611e7257600080fd5b6000806000806080858703121561412f57600080fd5b843561413a81613e47565b93506020850135925060408501359150606085013561415881613e47565b939692955090935050565b60008060006060848603121561417857600080fd5b833561418381613e47565b9250602084013561419381613e47565b929592945050506040919091013590565b600080600080604085870312156141ba57600080fd5b84356001600160401b03808211156141d157600080fd5b6141dd88838901613f40565b909650945060208701359150808211156141f657600080fd5b506140fb87828801613f40565b6020808252825182820181905260009190848201906040850190845b8181101561423b5783518352928401929184019160010161421f565b50909695505050505050565b6000806020838503121561425a57600080fd5b82356001600160401b0381111561427057600080fd5b613fc08582860161405b565b8015158114611a0e57600080fd5b6000806040838503121561429d57600080fd5b82356142a881613e47565b915060208301356142b88161427c565b809150509250929050565b60008060008060008060c087890312156142dc57600080fd5b86356142e781613e47565b955060208701356142f781613e47565b945060408701359350606087013592506080870135915060a087013561431c81613e47565b809150509295509295509295565b6000806040838503121561433d57600080fd5b823561434881613e47565b915060208301356142b881613e47565b60008060008060008060a0878903121561437157600080fd5b863561437c81613e47565b9550602087013561438c81613e47565b9450604087013593506060870135925060808701356001600160401b038111156143b557600080fd5b6143c189828a0161405b565b979a9699509497509295939492505050565b602080825282518282018190526000919060409081850190868401855b8281101561404e5761440d84835180518252602090810151910152565b92840192908501906001016143f0565b60006020828403121561442f57600080fd5b815161136081613e47565b600181811c9082168061444e57607f821691505b602082108103611e7257634e487b7160e01b600052602260045260246000fd5b634e487b7160e01b600052603260045260246000fd5b634e487b7160e01b600052601160045260246000fd5b60006001600160801b038083168185168083038211156144bc576144bc614484565b01949350505050565b600081516144d7818560208601613ed5565b9290920192915050565b600080845481600182811c9150808316806144fd57607f831692505b6020808410820361451c57634e487b7160e01b86526022600452602486fd5b81801561453057600181146145415761456e565b60ff1986168952848901965061456e565b60008b81526020902060005b868110156145665781548b82015290850190830161454d565b505084890196505b50505050505061135c61458182866144c5565b64173539b7b760d91b815260050190565b6000600182016145a4576145a4614484565b5060010190565b600082198211156145be576145be614484565b500190565b634e487b7160e01b600052604160045260246000fd5b6020808252600b908201526a185cd91cd918591cd85cd960aa1b604082015260600190565b60ff81168114611a0e57600080fd5b60006020828403121561461f57600080fd5b8135611360816145fe565b6001600160401b0381168114611a0e57600080fd5b60006020828403121561465157600080fd5b81356113608161462a565b634e487b7160e01b600052601260045260246000fd5b6000826146815761468161465c565b500490565b63ffffffff81168114611a0e57600080fd5b6000602082840312156146aa57600080fd5b813561136081614686565b6000813561082c816145fe565b6000813561082c8161462a565b81356146da81614686565b63ffffffff8116905081548163ffffffff19821617835560208401356146ff81613e47565b640100000000600160c01b0360209190911b166001600160c01b03198216831781178455604085013561473181614686565b6001600160e01b0319929092169092179190911760c09190911b63ffffffff60c01b16178155614784614766606084016146b5565b82805460ff60e01b191660e09290921b60ff60e01b16919091179055565b6147b1614793608084016146b5565b82805460ff60e81b191660e89290921b60ff60e81b16919091179055565b600181016147e26147c460a085016146c2565b825467ffffffffffffffff19166001600160401b0391909116178255565b610ed36147f160c085016146c2565b82546fffffffffffffffff0000000000000000191660409190911b6fffffffffffffffff000000000000000016178255565b6020808252600190820152604360f81b604082015260600190565b6020808252600190820152601160fa1b604082015260600190565b600081600019048311821515161561487357614873614484565b500290565b6000826148875761488761465c565b500690565b60008161489b5761489b614484565b506000190190565b6000828210156148b5576148b5614484565b500390565b600063ffffffff8083168185168083038211156144bc576144bc614484565b6000602082840312156148eb57600080fd5b5051919050565b60008251614904818460208701613ed5565b9190910192915050565b60006020828403121561492057600080fd5b81516113608161427c565b634e487b7160e01b600052602160045260246000fd5b6001600160a01b03868116825285166020820152604081018490526060810183905260a06080820181905260009061168590830184613f01565b60006020828403121561498d57600080fd5b81516001600160e01b03198116811461136057600080fd5b60006001600160d81b038281168482168083038211156144bc576144bc61448456fe51ab1232a73b82b6b0acb0fa91b834cf6e258a1858c4e23c72ce97241c71aa0da2646970667358221220453ff4ce1e7c754a6f279325259fc29c26568cc1c392d5de255191d9b4d3c5d864736f6c634300080e003368747470733a2f2f646174612e63657262792e66692f4365726279537761702f76312f",
  "immutableReferences": {},
  "source": "// SPDX-License-Identifier: BUSL-1.1\n\npragma solidity ^0.8.14;\n\nimport \"./CerbySwapV1_AdminFunctions.sol\";\nimport \"./CerbySwapV1_SwapFunctions.sol\";\n\ncontract CerbySwapV1 is CerbySwapV1_AdminFunctions {\n\n    constructor() {\n\n        _transferOwnership(\n            msg.sender\n        );\n\n        address mintFeeBeneficiary = 0xdEF78a28c78A461598d948bc0c689ce88f812AD8; // CerbyBridge fees wallet\n        uint256 mintFeeMultiplier = MINT_FEE_DENORM * 20 / 100; // means 20% of fees goes to buyback & burn Cerby\n        uint256 tvlMultiplier = 1_369_863_014; // 0.1369863014\n\n        uint256 feeMinimum = 1; // 0.01%\n        uint256 feeMaximum = 200; // 2.00%\n\n        uint256 tvlMultiplierMinimum = tvlMultiplier; // TVL * 0.1369863014\n        uint256 tvlMultiplierMaximum = tvlMultiplier * feeMaximum / feeMinimum; // TVL * 27.397260274\n\n        settings = Settings({\n            onePeriodInSeconds: 12 hours,\n            mintFeeBeneficiary: mintFeeBeneficiary,\n            mintFeeMultiplier: uint32(mintFeeMultiplier),\n            feeMinimum: uint8(feeMinimum),\n            feeMaximum: uint8(feeMaximum),\n            tvlMultiplierMinimum: uint64(tvlMultiplierMinimum),\n            tvlMultiplierMaximum: uint64(tvlMultiplierMaximum)\n        });\n\n        pools.push(\n            Pool({\n                sellVolumeThisPeriodInCerby: 0,\n                lastCachedFee: 0,\n                nextUpdateWillBeAt: 0,\n                lastSqrtKValue: 0,\n                creditCerby: 0\n            })\n        );\n    }\n\n    receive() external payable {}\n}\n",
  "sourcePath": "/Users/numwan/Documents/Remix/bitbucket/sol-cerby-swap-v1/contracts/CerbySwapV1.sol",
  "compiler": {
    "name": "solc",
    "version": "0.8.14+commit.80d49f37.Emscripten.clang"
  },
  "schemaVersion": "3.4.7",
  "updatedAt": "2022-05-20T07:31:48.862Z",
  "devdoc": {
    "kind": "dev",
    "methods": {
      "owner()": {
        "details": "Returns the address of the current owner."
      },
      "renounceOwnership()": {
        "details": "Leaves the contract without owner. It will not be possible to call `onlyOwner` functions anymore. Can only be called by the current owner. NOTE: Renouncing ownership will leave the contract without an owner, thereby removing any functionality that is only available to the owner."
      },
      "transferOwnership(address)": {
        "details": "Transfers ownership of the contract to a new account (`newOwner`). Can only be called by the current owner."
      }
    },
    "version": 1
  },
  "userdoc": {
    "kind": "user",
    "methods": {},
    "version": 1
  }
}