{
  "contractName": "TestCerbyToken",
  "abi": [
    {
      "inputs": [],
      "stateMutability": "nonpayable",
      "type": "constructor"
    },
    {
      "anonymous": false,
      "inputs": [
        {
          "indexed": true,
          "internalType": "address",
          "name": "owner",
          "type": "address"
        },
        {
          "indexed": true,
          "internalType": "address",
          "name": "spender",
          "type": "address"
        },
        {
          "indexed": false,
          "internalType": "uint256",
          "name": "value",
          "type": "uint256"
        }
      ],
      "name": "Approval",
      "type": "event"
    },
    {
      "anonymous": false,
      "inputs": [
        {
          "indexed": true,
          "internalType": "address",
          "name": "from",
          "type": "address"
        },
        {
          "indexed": true,
          "internalType": "address",
          "name": "to",
          "type": "address"
        },
        {
          "indexed": false,
          "internalType": "uint256",
          "name": "value",
          "type": "uint256"
        }
      ],
      "name": "Transfer",
      "type": "event"
    },
    {
      "inputs": [
        {
          "internalType": "address",
          "name": "_owner",
          "type": "address"
        },
        {
          "internalType": "address",
          "name": "_spender",
          "type": "address"
        }
      ],
      "name": "allowance",
      "outputs": [
        {
          "internalType": "uint256",
          "name": "",
          "type": "uint256"
        }
      ],
      "stateMutability": "view",
      "type": "function"
    },
    {
      "inputs": [
        {
          "internalType": "address",
          "name": "_spender",
          "type": "address"
        },
        {
          "internalType": "uint256",
          "name": "_amount",
          "type": "uint256"
        }
      ],
      "name": "approve",
      "outputs": [
        {
          "internalType": "bool",
          "name": "",
          "type": "bool"
        }
      ],
      "stateMutability": "nonpayable",
      "type": "function"
    },
    {
      "inputs": [
        {
          "internalType": "address",
          "name": "_account",
          "type": "address"
        }
      ],
      "name": "balanceOf",
      "outputs": [
        {
          "internalType": "uint256",
          "name": "",
          "type": "uint256"
        }
      ],
      "stateMutability": "view",
      "type": "function"
    },
    {
      "inputs": [],
      "name": "decimals",
      "outputs": [
        {
          "internalType": "uint8",
          "name": "",
          "type": "uint8"
        }
      ],
      "stateMutability": "view",
      "type": "function"
    },
    {
      "inputs": [
        {
          "internalType": "address",
          "name": "_spender",
          "type": "address"
        },
        {
          "internalType": "uint256",
          "name": "_subtractedValue",
          "type": "uint256"
        }
      ],
      "name": "decreaseAllowance",
      "outputs": [
        {
          "internalType": "bool",
          "name": "",
          "type": "bool"
        }
      ],
      "stateMutability": "nonpayable",
      "type": "function"
    },
    {
      "inputs": [
        {
          "internalType": "address",
          "name": "_spender",
          "type": "address"
        },
        {
          "internalType": "uint256",
          "name": "_addedValue",
          "type": "uint256"
        }
      ],
      "name": "increaseAllowance",
      "outputs": [
        {
          "internalType": "bool",
          "name": "",
          "type": "bool"
        }
      ],
      "stateMutability": "nonpayable",
      "type": "function"
    },
    {
      "inputs": [],
      "name": "name",
      "outputs": [
        {
          "internalType": "string",
          "name": "",
          "type": "string"
        }
      ],
      "stateMutability": "view",
      "type": "function"
    },
    {
      "inputs": [],
      "name": "symbol",
      "outputs": [
        {
          "internalType": "string",
          "name": "",
          "type": "string"
        }
      ],
      "stateMutability": "view",
      "type": "function"
    },
    {
      "inputs": [],
      "name": "totalSupply",
      "outputs": [
        {
          "internalType": "uint256",
          "name": "",
          "type": "uint256"
        }
      ],
      "stateMutability": "view",
      "type": "function"
    },
    {
      "inputs": [
        {
          "internalType": "address",
          "name": "_recipient",
          "type": "address"
        },
        {
          "internalType": "uint256",
          "name": "_amount",
          "type": "uint256"
        }
      ],
      "name": "transfer",
      "outputs": [
        {
          "internalType": "bool",
          "name": "",
          "type": "bool"
        }
      ],
      "stateMutability": "nonpayable",
      "type": "function"
    },
    {
      "inputs": [
        {
          "internalType": "address",
          "name": "_sender",
          "type": "address"
        },
        {
          "internalType": "address",
          "name": "_recipient",
          "type": "address"
        },
        {
          "internalType": "uint256",
          "name": "_amount",
          "type": "uint256"
        }
      ],
      "name": "transferFrom",
      "outputs": [
        {
          "internalType": "bool",
          "name": "",
          "type": "bool"
        }
      ],
      "stateMutability": "nonpayable",
      "type": "function"
    },
    {
      "inputs": [
        {
          "internalType": "address",
          "name": "to",
          "type": "address"
        },
        {
          "internalType": "uint256",
          "name": "amount",
          "type": "uint256"
        }
      ],
      "name": "mintByBridge",
      "outputs": [],
      "stateMutability": "nonpayable",
      "type": "function"
    },
    {
      "inputs": [
        {
          "internalType": "address",
          "name": "from",
          "type": "address"
        },
        {
          "internalType": "uint256",
          "name": "amount",
          "type": "uint256"
        }
      ],
      "name": "burnByBridge",
      "outputs": [],
      "stateMutability": "nonpayable",
      "type": "function"
    },
    {
      "inputs": [
        {
          "internalType": "address",
          "name": "to",
          "type": "address"
        },
        {
          "internalType": "uint256",
          "name": "amount",
          "type": "uint256"
        }
      ],
      "name": "mintHumanAddress",
      "outputs": [],
      "stateMutability": "nonpayable",
      "type": "function"
    },
    {
      "inputs": [
        {
          "internalType": "address",
          "name": "from",
          "type": "address"
        },
        {
          "internalType": "uint256",
          "name": "amount",
          "type": "uint256"
        }
      ],
      "name": "burnHumanAddress",
      "outputs": [],
      "stateMutability": "nonpayable",
      "type": "function"
    },
    {
      "inputs": [
        {
          "internalType": "address",
          "name": "sender",
          "type": "address"
        },
        {
          "internalType": "address",
          "name": "recipient",
          "type": "address"
        },
        {
          "internalType": "uint256",
          "name": "amount",
          "type": "uint256"
        }
      ],
      "name": "transferCustom",
      "outputs": [],
      "stateMutability": "nonpayable",
      "type": "function"
    }
  ],
  "bytecode": "0x608060405234801561001057600080fd5b50604080518082018252600b81526a21b2b9313c902a37b5b2b760a91b602080830191825283518085019094526005845264434552425960d81b90840152815191929161005f91600391610160565b508051610073906004906020840190610160565b5050600580546001600160a01b03191633179055506100b273dc15ca882f975c33d8f20ab3669d27195b8d87a66b033b2e3c9fd0803ce80000006100f7565b6100dc73539faa851d86781009ec30df437d794bcd090c8f6b033b2e3c9fd0803ce80000006100f7565b6100f2336b033b2e3c9fd0803ce80000006100f7565b610259565b806002600082825461010991906101f9565b90915550506001600160a01b038216600081815260208181526040808320805486019055518481527fddf252ad1be2c89b69c2b068fc378daa952ba7f163c4a11628f55a4df523b3ef910160405180910390a35050565b82805461016c9061021f565b90600052602060002090601f01602090048101928261018e57600085556101d4565b82601f106101a757805160ff19168380011785556101d4565b828001600101855582156101d4579182015b828111156101d45782518255916020019190600101906101b9565b506101e09291506101e4565b5090565b5b808211156101e057600081556001016101e5565b6000821982111561021a57634e487b7160e01b600052601160045260246000fd5b500190565b600181811c9082168061023357607f821691505b60208210810361025357634e487b7160e01b600052602260045260246000fd5b50919050565b6107d2806102686000396000f3fe608060405234801561001057600080fd5b50600436106101005760003560e01c806339509351116100975780639cff2eba116100665780639cff2eba146101e6578063a457c2d7146101f9578063a9059cbb1461020c578063dd62ed3e1461021f57600080fd5b806339509351146101a257806366830b211461016d57806370a08231146101b557806395d89b41146101de57600080fd5b806318a8ad87116100d357806318a8ad871461016d5780631f2eba241461014657806323b872dd14610180578063313ce5671461019357600080fd5b806306fdde0314610105578063095ea7b3146101235780630bb9ff5d1461014657806318160ddd1461015b575b600080fd5b61010d610258565b60405161011a91906105f1565b60405180910390f35b610136610131366004610662565b6102ea565b604051901515815260200161011a565b610159610154366004610662565b610300565b005b6002545b60405190815260200161011a565b61015961017b366004610662565b61030e565b61013661018e36600461068c565b610318565b6040516012815260200161011a565b6101366101b0366004610662565b610392565b61015f6101c33660046106c8565b6001600160a01b031660009081526020819052604090205490565b61010d6103ce565b6101596101f436600461068c565b6103dd565b610136610207366004610662565b6103ed565b61013661021a366004610662565b610424565b61015f61022d3660046106ea565b6001600160a01b03918216600090815260016020908152604080832093909416825291909152205490565b6060600380546102679061071d565b80601f01602080910402602001604051908101604052809291908181526020018280546102939061071d565b80156102e05780601f106102b5576101008083540402835291602001916102e0565b820191906000526020600020905b8154815290600101906020018083116102c357829003601f168201915b5050505050905090565b60006102f7338484610431565b50600192915050565b61030a8282610493565b5050565b61030a82826104fd565b6001600160a01b03831660009081526001602090815260408083203384529091528120546000191461037d576001600160a01b03841660009081526001602090815260408083203384529091528120805484929061037790849061076d565b90915550505b610388848484610571565b5060019392505050565b3360008181526001602090815260408083206001600160a01b038716845290915281205490916102f79185906103c9908690610784565b610431565b6060600480546102679061071d565b6103e8838383610571565b505050565b3360008181526001602090815260408083206001600160a01b038716845290915281205490916102f79185906103c990869061076d565b60006102f7338484610571565b6001600160a01b0383811660008181526001602090815260408083209487168084529482529182902085905590518481527f8c5be1e5ebec7d5bd14f71427d1e84f3dd0314c0f7b2291e5b200ac8c7c3b92591015b60405180910390a3505050565b80600260008282546104a59190610784565b90915550506001600160a01b038216600081815260208181526040808320805486019055518481527fddf252ad1be2c89b69c2b068fc378daa952ba7f163c4a11628f55a4df523b3ef91015b60405180910390a35050565b6001600160a01b0382166000908152602081905260408120805483929061052590849061076d565b90915550506002805482900390556040518181526000906001600160a01b038416907fddf252ad1be2c89b69c2b068fc378daa952ba7f163c4a11628f55a4df523b3ef906020016104f1565b6001600160a01b0383166000908152602081905260408120805483929061059990849061076d565b90915550506001600160a01b0382811660008181526020818152604091829020805486019055905184815291928616917fddf252ad1be2c89b69c2b068fc378daa952ba7f163c4a11628f55a4df523b3ef9101610486565b600060208083528351808285015260005b8181101561061e57858101830151858201604001528201610602565b81811115610630576000604083870101525b50601f01601f1916929092016040019392505050565b80356001600160a01b038116811461065d57600080fd5b919050565b6000806040838503121561067557600080fd5b61067e83610646565b946020939093013593505050565b6000806000606084860312156106a157600080fd5b6106aa84610646565b92506106b860208501610646565b9150604084013590509250925092565b6000602082840312156106da57600080fd5b6106e382610646565b9392505050565b600080604083850312156106fd57600080fd5b61070683610646565b915061071460208401610646565b90509250929050565b600181811c9082168061073157607f821691505b60208210810361075157634e487b7160e01b600052602260045260246000fd5b50919050565b634e487b7160e01b600052601160045260246000fd5b60008282101561077f5761077f610757565b500390565b6000821982111561079757610797610757565b50019056fea26469706673582212206c11a2a7dac9da826a906a0d9e7c56c692b348dffd7c4579e8a55be47f0be61164736f6c634300080e0033",
  "immutableReferences": {},
  "source": "// SPDX-License-Identifier: MIT\npragma solidity ^0.8.10;\n\nimport \"../openzeppelin/token/ERC20/ERC20.sol\";\n\ncontract TestCerbyToken is ERC20 {\n    address owner;\n\n    constructor()\n        ERC20(\"Cerby Token\", \"CERBY\")\n    //ERC20(\"Cerby USD Token\", \"cerUSD\")\n    //ERC20(\"USD Coin\", \"USDC\")\n    {\n        owner = msg.sender;\n        _mint(0xDc15Ca882F975c33D8f20AB3669D27195B8D87a6, 1e18 * 1e9);\n        _mint(0x539FaA851D86781009EC30dF437D794bCd090c8F, 1e18 * 1e9);\n        _mint(msg.sender, 1e18 * 1e9);\n    }\n\n\n    function mintByBridge(address to, uint256 amount) public {\n        _mint(to, amount);\n    }\n\n    function burnByBridge(address from, uint256 amount) public {\n        _burn(from, amount);\n    }\n\n    function mintHumanAddress(address to, uint256 amount) public {\n        //require(msg.sender == owner);\n        _mint(to, amount);\n    }\n\n    function burnHumanAddress(address from, uint256 amount) public {\n        //require(msg.sender == owner);\n        _burn(from, amount);\n    }\n\n    function transferCustom(\n        address sender,\n        address recipient,\n        uint256 amount\n    ) external {\n        _transfer(sender, recipient, amount);\n    }\n}\n",
  "sourcePath": "/Users/numwan/Documents/Remix/bitbucket/sol-cerby-swap-v1/contracts/TestCerbyToken.sol",
  "compiler": {
    "name": "solc",
    "version": "0.8.14+commit.80d49f37.Emscripten.clang"
  },
  "schemaVersion": "3.4.7",
  "updatedAt": "2022-05-20T07:31:48.918Z",
  "devdoc": {
    "kind": "dev",
    "methods": {
      "allowance(address,address)": {
        "details": "See {IERC20-allowance}."
      },
      "approve(address,uint256)": {
        "details": "See {IERC20-approve}. Requirements: - `spender` cannot be the zero address."
      },
      "balanceOf(address)": {
        "details": "See {IERC20-balanceOf}."
      },
      "decimals()": {
        "details": "Returns the number of decimals used to get its user representation. For example, if `decimals` equals `2`, a balance of `505` tokens should be displayed to a user as `5.05` (`505 / 10 ** 2`). Tokens usually opt for a value of 18, imitating the relationship between Ether and Wei. This is the value {ERC20} uses, unless this function is overridden; NOTE: This information is only used for _display_ purposes: it in no way affects any of the arithmetic of the contract, including {IERC20-balanceOf} and {IERC20-transfer}."
      },
      "decreaseAllowance(address,uint256)": {
        "details": "Atomically decreases the allowance granted to `spender` by the caller. This is an alternative to {approve} that can be used as a mitigation for problems described in {IERC20-approve}. Emits an {Approval} event indicating the updated allowance. Requirements: - `spender` cannot be the zero address. - `spender` must have allowance for the caller of at least `subtractedValue`."
      },
      "increaseAllowance(address,uint256)": {
        "details": "Atomically increases the allowance granted to `spender` by the caller. This is an alternative to {approve} that can be used as a mitigation for problems described in {IERC20-approve}. Emits an {Approval} event indicating the updated allowance. Requirements: - `spender` cannot be the zero address."
      },
      "name()": {
        "details": "Returns the name of the token."
      },
      "symbol()": {
        "details": "Returns the symbol of the token, usually a shorter version of the name."
      },
      "totalSupply()": {
        "details": "See {IERC20-totalSupply}."
      },
      "transfer(address,uint256)": {
        "details": "See {IERC20-transfer}. Requirements: - `recipient` cannot be the zero address. - the caller must have a balance of at least `amount`."
      },
      "transferFrom(address,address,uint256)": {
        "details": "See {IERC20-transferFrom}. Emits an {Approval} event indicating the updated allowance. This is not required by the EIP. See the note at the beginning of {ERC20}. Requirements: - `sender` and `recipient` cannot be the zero address. - `sender` must have a balance of at least `amount`. - the caller must have allowance for ``sender``'s tokens of at least `amount`."
      }
    },
    "version": 1
  },
  "userdoc": {
    "kind": "user",
    "methods": {},
    "version": 1
  }
}