{
	"data": {
		"bytecode": {
			"linkReferences": {},
			"object": "600080546001600160a01b03199081167346e8e0af862f636199af69acd082b9963066ed9c1790915560058054821673527ea24a5917c452dbf402edc9da4190239bccf117905560068054821673947ef3df5b7d5ec37214dd06c4042c8e7b0cebd7179055600780549091167314769f96e57b80c66837701de0b43686fb4632de17905560c0604052600b60808190526a436572627953776170563160a81b60a0908152620000b291601391906200047b565b506040805180820190915260038082526243533160e81b6020909201918252620000df916014916200047b565b5060405180606001604052806023815260200162005d9f60239139805162000110916015916020909101906200047b565b503480156200011e57600080fd5b5060156040516020016200013391906200055e565b60408051601f198184030181529190526200014e8162000410565b506200015a3362000429565b73def78a28c78a461598d948bc0c689ce88f812ad860006064620001808160146200061c565b6200018c91906200064a565b90506351a67366600160c882600083620001a784846200061c565b620001b391906200064a565b6040805160e0810182526001600160a01b03808b1680835260208084018c90528385018a905260608085018a90526080850189905260a08501879052601860c0909501859052600880546001600160a01b0319908116909417905560098d9055600a8b9055600b8a9055600c899055600d879055600e8590558551908101865260008082529181018281529581018281526001805480820182559381905291516002939093027fb10e2d527612073b26eecdfd717e6a320cf44b4afac2b0732d9fcbe2b7fa0cf681018054949096169390941692909217909355935193516001600160801b03908116600160801b029416939093177fb10e2d527612073b26eecdfd717e6a320cf44b4afac2b0732d9fcbe2b7fa0cf7909301929092559192504614156200030757600780546001600160a01b03191673c02aaa39b223fe8d0a0e5c4f27ead9083c756cc2179055620003db565b46603814156200033d57600780546001600160a01b03191673bb4cdb9cbd36b01bd1cbaebf2de08d9173bc095c179055620003db565b46608914156200037357600780546001600160a01b031916730d500b1d8e8ef31e21c99d1db9a6444d3adf1270179055620003db565b4661a86a1415620003aa57600780546001600160a01b03191673b31f66aa3c1e785363f0875a1b74e27b85fd66c7179055620003db565b4660fa1415620003db57600780546001600160a01b0319167321be370d5312f44cb42ce377bc9b8a0cef1a4c831790555b5050600780546001600160a01b0319167314769f96e57b80c66837701de0b43686fb4632de179055506200066d945050505050565b8051620004259060119060208401906200047b565b5050565b601680546001600160a01b038381166001600160a01b0319831681179093556040519116919082907f8be0079c531659141344cd1fd0a4f28419497f9722a3daafe3b4186f6b6457e090600090a35050565b828054620004899062000521565b90600052602060002090601f016020900481019282620004ad5760008555620004f8565b82601f10620004c857805160ff1916838001178555620004f8565b82800160010185558215620004f8579182015b82811115620004f8578251825591602001919060010190620004db565b50620005069291506200050a565b5090565b5b808211156200050657600081556001016200050b565b600181811c908216806200053657607f821691505b602082108114156200055857634e487b7160e01b600052602260045260246000fd5b50919050565b600080835481600182811c9150808316806200057b57607f831692505b60208084108214156200059c57634e487b7160e01b86526022600452602486fd5b818015620005b35760018114620005c557620005f4565b60ff19861689528489019650620005f4565b60008a81526020902060005b86811015620005ec5781548b820152908501908301620005d1565b505084890196505b5050505050506200061481683db4b23e973539b7b760b91b815260090190565b949350505050565b60008160001904831182151516156200064557634e487b7160e01b600052601160045260246000fd5b500290565b6000826200066857634e487b7160e01b600052601260045260246000fd5b500490565b615722806200067d6000396000f3fe608060405260043610620002795760003560e01c806374fcf0711162000153578063c09c923b11620000c5578063eca010931162000084578063eca0109314620007fd578063ed54e06c1462000822578063f242432a146200085e578063f2fde38b1462000883578063f36b3fc314620008a8578063f652472414620008cd57600080fd5b8063c09c923b146200076d578063c790985a1462000777578063cab4ba82146200079c578063d5d6073714620007c1578063e985e9c514620007d857600080fd5b8063a22cb4651162000112578063a22cb46514620006c3578063a60c6e5514620006e8578063a7fd40bf14620006ff578063b5d11e991462000724578063bd85b039146200073c57600080fd5b806374fcf07114620005dc578063842980f4146200060157806385b4bb5314620006185780638da5cb5b146200068b57806395d89b4114620006ab57600080fd5b806334e150ab11620001ed5780634e1273f411620001ac5780634e1273f414620004fe5780634f558e791462000532578063614175161462000565578063715018a6146200059f5780637185804914620005b757600080fd5b806334e150ab14620004445780633935ac11146200047857806343fefad4146200049d57806348b08d6214620004b45780634c3c0eb214620004d957600080fd5b80630e89341c116200023a5780630e89341c146200039057806318160ddd14620003b5578063224b4fed14620003cd5780632eb2c2d61462000409578063313ce567146200042e57600080fd5b80623374b51462000286578062fdd58e14620002ad57806301ffc9a714620002e557806306fb1a07146200032b57806306fdde03146200036957600080fd5b366200028157005b600080fd5b3480156200029357600080fd5b50620002ab620002a5366004620045e8565b620008e4565b005b348015620002ba57600080fd5b50620002d2620002cc36600462004611565b620009d9565b6040519081526020015b60405180910390f35b348015620002f257600080fd5b506200031a6200030436600462004657565b6001600160e01b0319166301ffc9a760e01b1490565b6040519015158152602001620002dc565b3480156200033857600080fd5b50620003506200034a36600462004677565b62000a2e565b6040516001600160a01b039091168152602001620002dc565b3480156200037657600080fd5b506200038162000aa8565b604051620002dc9190620046ee565b3480156200039d57600080fd5b5062000381620003af36600462004677565b62000b42565b348015620003c257600080fd5b50620002d262000b70565b348015620003da57600080fd5b50620002d2620003ec36600462004611565b600360209081526000928352604080842090915290825290205481565b3480156200041657600080fd5b50620002ab6200042836600462004797565b62000bc2565b3480156200043b57600080fd5b506012620002d2565b3480156200045157600080fd5b50620004696200046336600462004864565b62000c86565b604051620002dc9190620048aa565b3480156200048557600080fd5b50620002ab62000497366004620049a6565b62000dc8565b620002d2620004ae36600462004a11565b62000e2f565b348015620004c157600080fd5b50620002d2620004d336600462004a60565b620011d8565b348015620004e657600080fd5b50620002d2620004f836600462004aa6565b62001345565b3480156200050b57600080fd5b50620005236200051d36600462004ac6565b620013b6565b604051620002dc919062004b39565b3480156200053f57600080fd5b506200031a6200055136600462004677565b600090815260126020526040902054151590565b3480156200057257600080fd5b50620002d26200058436600462004aa6565b6001600160a01b031660009081526002602052604090205490565b348015620005ac57600080fd5b50620002ab620014c1565b348015620005c457600080fd5b50620002ab620005d636600462004611565b6200150b565b348015620005e957600080fd5b50620002d2620005fb36600462004a11565b62001689565b620002ab6200061236600462004a11565b6200171a565b3480156200062557600080fd5b506200063062001730565b604051620002dc919081516001600160a01b031681526020808301519082015260408083015190820152606080830151908201526080808301519082015260a0828101519082015260c0918201519181019190915260e00190565b3480156200069857600080fd5b506016546001600160a01b031662000350565b348015620006b857600080fd5b5062000381620017c8565b348015620006d057600080fd5b50620002ab620006e236600462004b8e565b620017d9565b62000523620006f936600462004bcc565b6200184b565b3480156200070c57600080fd5b50620002ab6200071e36600462004c3a565b62001cfc565b3480156200073157600080fd5b50620002ab62001d74565b3480156200074957600080fd5b50620002d26200075b36600462004677565b60009081526012602052604090205490565b620002ab62001dd6565b3480156200078457600080fd5b50620002d26200079636600462004a60565b62001e45565b348015620007a957600080fd5b50620002ab620007bb36600462004611565b62001f98565b620002ab620007d236600462004a11565b620020de565b348015620007e557600080fd5b506200031a620007f736600462004c74565b62002130565b3480156200080a57600080fd5b50620002ab6200081c36600462004ca7565b6200215e565b3480156200082f57600080fd5b50620002d26200084136600462004611565b600460209081526000928352604080842090915290825290205481565b3480156200086b57600080fd5b50620002ab6200087d36600462004d23565b620021ac565b3480156200089057600080fd5b50620002ab620008a236600462004aa6565b6200226c565b348015620008b557600080fd5b50620002ab620008c736600462004da7565b620022de565b62000523620008de36600462004bcc565b62002358565b33620008f86016546001600160a01b031690565b6001600160a01b031614620009205760405163ebf9845960e01b815260040160405180910390fd5b6040810135158062000939575080606001358160400135115b806200094a57506101f48160600135115b156200096957604051637420258d60e11b815260040160405180910390fd5b8060a001358160800135111562000993576040516375e1700b60e11b815260040160405180910390fd5b6064620009a66020830135600262004dde565b10620009c557604051631457c3c360e11b815260040160405180910390fd5b806008620009d4828262004e00565b505050565b60006001600160a01b03831662000a0357604051636e3b454760e11b815260040160405180910390fd5b506000818152600f602090815260408083206001600160a01b03861684529091529020545b92915050565b6040516306fb1a0760e01b81526004810182905260009073def1fac7bf08f173d286bbbdcbeeade695129840906306fb1a0790602401602060405180830381865afa15801562000a82573d6000803e3d6000fd5b505050506040513d601f19601f8201168201806040525081019062000a28919062004e68565b60606013805462000ab99062004e88565b80601f016020809104026020016040519081016040528092919081815260200182805462000ae79062004e88565b801562000b385780601f1062000b0c5761010080835404028352916020019162000b38565b820191906000526020600020905b81548152906001019060200180831162000b1a57829003601f168201915b5050505050905090565b606060158260405160200162000b5a92919062004ebf565b6040516020818303038152906040529050919050565b60008060005b600060128162000b868562004f7f565b945084815260200190815260200160002054111562000a285760008281526012602052604090205462000bba908262004f9d565b905062000b76565b600062000bd0600362000a2e565b9050806001600160a01b031663eef84ba16040518163ffffffff1660e01b8152600401600060405180830381600087803b15801562000c0e57600080fd5b505af115801562000c23573d6000803e3d6000fd5b505050506001600160a01b038916331480159062000c4a575062000c48893362002130565b155b1562000c6957604051630de6955560e31b815260040160405180910390fd5b62000c7b898989898989898962002865565b505050505050505050565b606060008267ffffffffffffffff81111562000ca65762000ca6620048fb565b60405190808252806020026020018201604052801562000ced57816020015b604080518082019091526000808252602082015281526020019060019003908162000cc55790505b50905060005b8381101562000dc057600085858381811062000d135762000d1362004fb8565b905060200201602081019062000d2a919062004aa6565b6001600160a01b038116600090815260026020526040812054600180549394509192811062000d5d5762000d5d62004fb8565b60009182526020909120600290910201805490915062000d889083906001600160a01b031662002b19565b84848151811062000d9d5762000d9d62004fb8565b60200260200101819052505050808062000db79062004f7f565b91505062000cf3565b509392505050565b3362000ddc6016546001600160a01b031690565b6001600160a01b03161462000e045760405163ebf9845960e01b815260040160405180910390fd5b815162000e19906013906020850190620044b7565b508051620009d4906014906020840190620044b7565b6001600160a01b0384166000908152600260205260408120548590158062000e6457506000546001600160a01b038281169116145b1562000e8d5760405162461bcd60e51b815260040162000e849062004fce565b60405180910390fd5b838042111562000eb15760405162461bcd60e51b815260040162000e849062004fe9565b6001600160a01b038716600090815260026020526040812054600180549192918390811062000ee45762000ee462004fb8565b600091825260208220600290910201805490925062000f0e908b906001600160a01b031662002b19565b825490915062000f2c908b9033906001600160a01b03168c62002b6d565b815460009062000f47908c906001600160a01b031662002b19565b8251815191925062000f599162005004565b995060018a1162000f7e5760405162461bcd60e51b815260040162000e84906200501e565b600062000fa08360200151846000015162000f9a919062004dde565b62002cd8565b60018501546000878152601260205260408120549293509162000fcf916001600160801b031690849062002d56565b60085460408051602081019091526000815291925062000fff916001600160a01b03909116908890849062002dee565b83516000878152601260205260408120549091906200101f908f62004dde565b6200102b919062005039565b90506200104a8b88836040518060200160405280600081525062002dee565b6000856000015186602001518f62001063919062004dde565b6200106f919062005039565b9050600181116200109257604051621037cb60e91b815260040160405180910390fd5b6000548754604051630bb9ff5d60e01b81526001600160a01b03918216600482015260248101849052911690630bb9ff5d90604401600060405180830381600087803b158015620010e257600080fd5b505af1158015620010f7573d6000803e3d6000fd5b5050505060208501518551620011129162000f9a9162004dde565b8760010160006101000a8154816001600160801b0302191690836001600160801b031602179055507f64b83944e79c3ce8d4c297411de637c3e102d064677aac0c163976ebdcd6f50e8f8f83856040516200117194939291906200505c565b60405180910390a1600080516020620056cd8339815191528f866000015187602001518a60010160109054906101000a90046001600160801b0316604051620011be949392919062005082565b60405180910390a1509d9c50505050505050505050505050565b6001600160a01b03831660009081526002602052604081205460018054839283929181106200120b576200120b62004fb8565b60009182526020808320600292830201546001600160a01b03898116855292909152604083205460018054939092169450909181106200124f576200124f62004fb8565b6000918252602082206002909102015490546001600160a01b0391821692508882169116148015906200128f57506000546001600160a01b038781169116145b15620012b957620012ad620012a5888462002b19565b888762002ec2565b93506200133e92505050565b6000546001600160a01b038881169116148015620012e557506000546001600160a01b03878116911614155b156200130357620012ad620012fb878362002b19565b878762002f41565b60006200131d62001315898562002b19565b898862002ec2565b9050620013376200132f888462002b19565b888362002f41565b9450505050505b9392505050565b6001600160a01b03811660009081526002602052604081205460018054839290811062001376576200137662004fb8565b6000918252602082206002909102018054909250620013a09085906001600160a01b031662002b19565b9050620013ae848262002fae565b949350505050565b606081848114620013da576040516380dadc2760e01b815260040160405180910390fd5b60008567ffffffffffffffff811115620013f857620013f8620048fb565b60405190808252806020026020018201604052801562001422578160200160208202803683370190505b50905060005b82811015620014b657620014838888838181106200144a576200144a62004fb8565b905060200201602081019062001461919062004aa6565b87878481811062001476576200147662004fb8565b90506020020135620009d9565b82828151811062001498576200149862004fb8565b6020908102919091010152620014ae8162004f7f565b905062001428565b509695505050505050565b33620014d56016546001600160a01b031690565b6001600160a01b031614620014fd5760405163ebf9845960e01b815260040160405180910390fd5b6200150960006200311e565b565b6001600160a01b0382166000908152600260205260408120546001805490919081106200153c576200153c62004fb8565b6000918252602082206002909102018054909250620015669085906001600160a01b031662002b19565b60018301549091506001600160801b03600160801b909104811610156200163957828260010160108282829054906101000a90046001600160801b0316620015af9190620050b1565b82546001600160801b039182166101009390930a9283029190920219909116179055506000546040516318a8ad8760e01b8152336004820152602481018590526001600160a01b03909116906318a8ad8790604401600060405180830381600087803b1580156200161f57600080fd5b505af115801562001634573d6000803e3d6000fd5b505050505b805160208201516001840154604051600080516020620056cd833981519152936200167b93899391929091600160801b90046001600160801b03169062005082565b60405180910390a150505050565b6001600160a01b03841660009081526002602052604081205485901580620016be57506000546001600160a01b038281169116145b15620016de5760405162461bcd60e51b815260040162000e849062004fce565b8380421115620017025760405162461bcd60e51b815260040162000e849062004fe9565b6200170f87878662003170565b979650505050505050565b6200172a8484846000856200343a565b50505050565b6200177a6040518060e0016040528060006001600160a01b031681526020016000815260200160008152602001600081526020016000815260200160008152602001600081525090565b506040805160e0810182526008546001600160a01b031681526009546020820152600a5491810191909152600b546060820152600c546080820152600d5460a0820152600e5460c082015290565b60606014805462000ab99062004e88565b6000620017e7600362000a2e565b9050806001600160a01b031663eef84ba16040518163ffffffff1660e01b8152600401600060405180830381600087803b1580156200182557600080fd5b505af11580156200183a573d6000803e3d6000fd5b50505050620009d433848462003773565b60608280421115620018715760405162461bcd60e51b815260040162000e849062004fe9565b60018611620018945760405162461bcd60e51b815260040162000e84906200501e565b6001600160a01b038816600090815260026020526040812054600180549091908110620018c557620018c562004fb8565b60009182526020808320600292830201546001600160a01b038c81168552929091526040832054600180549390921694509091811062001909576200190962004fb8565b6000918252602080832060029283020154604080518481526060810182526001600160a01b0390921695509092918301908036833701905050905088816000815181106200195b576200195b62004fb8565b60209081029190910101526000546001600160a01b038c81169116148015906200199257506000546001600160a01b038b81169116145b1562001a71576000620019a68c8562002b19565b9050620019b5818d8c62002ec2565b82600181518110620019cb57620019cb62004fb8565b6020026020010181815250508882600181518110620019ee57620019ee62004fb8565b6020026020010151101562001a2a5760405162461bcd60e51b81526020600482015260016024820152600960fb1b604482015260640162000e84565b62001a388c33868d62002b6d565b62001a658c8260008560018151811062001a565762001a5662004fb8565b60200260200101518b62003814565b509350620014b6915050565b6000546001600160a01b038c8116911614801562001a9d57506000546001600160a01b038b8116911614155b1562001b7057600062001ab18b8462002b19565b905062001ac0818c8c62002f41565b8260018151811062001ad65762001ad662004fb8565b602002602001018181525050888260018151811062001af95762001af962004fb8565b6020026020010151101562001b355760405162461bcd60e51b81526020600482015260016024820152606960f81b604482015260640162000e84565b62001b438c33858d62002b6d565b62001a658b828460018151811062001b5f5762001b5f62004fb8565b602002602001015160008b62003814565b6000546001600160a01b038c811691161480159062001b9d57506000546001600160a01b038b8116911614155b801562001bbc5750896001600160a01b03168b6001600160a01b031614155b1562001ccf57600062001bd08c8562002b19565b9050600062001be1828e8d62002ec2565b9050600062001bf18d8662002b19565b905062001c00818e8462002f41565b8460018151811062001c165762001c1662004fb8565b6020026020010181815250508a8460018151811062001c395762001c3962004fb8565b6020026020010151101562001c755760405162461bcd60e51b81526020600482015260016024820152606960f81b604482015260640162000e84565b62001c838e33888f62002b6d565b62001c938e846000858962003814565b62001cc08d828660018151811062001caf5762001caf62004fb8565b602002602001015160008d62003814565b839750505050505050620014b6565b60405162461bcd60e51b81526020600482015260016024820152601360fa1b604482015260640162000e84565b3362001d106016546001600160a01b031690565b6001600160a01b03161462001d385760405163ebf9845960e01b815260040160405180910390fd5b62001d66828260405160200162001d51929190620050df565b60405160208183030381529060405262003cf2565b620009d46015838362004546565b60055462001daa906001600160a01b031669d3c21bcecceda10000006969e10de76676d08000006001600160801b03336200343a565b60065462001509906001600160a01b031669943b1377290cbd800000806001600160801b03336200343a565b3362001dea6016546001600160a01b031690565b6001600160a01b03161462001e125760405163ebf9845960e01b815260040160405180910390fd5b60075462001509906001600160a01b031666038d7ea4c6800069d3c21bcecceda10000006001600160801b03336200343a565b6001600160a01b038316600090815260026020526040812054600180548392839291811062001e785762001e7862004fb8565b60009182526020808320600292830201546001600160a01b038981168552929091526040832054600180549390921694509091811062001ebc5762001ebc62004fb8565b6000918252602082206002909102015490546001600160a01b03918216925088821691161480159062001efc57506000546001600160a01b038781169116145b1562001f1a57620012ad62001f12888462002b19565b888762003d0b565b6000546001600160a01b03888116911614801562001f4657506000546001600160a01b03878116911614155b1562001f6457620012ad62001f5c878362002b19565b878762003d81565b600062001f7e62001f76888462002b19565b888862003d81565b90506200133762001f90898562002b19565b898362003d0b565b3362001fac6016546001600160a01b031690565b6001600160a01b03161462001fd45760405163ebf9845960e01b815260040160405180910390fd5b6001600160a01b038216600090815260026020526040902054829015806200200957506000546001600160a01b038281169116145b15620020295760405162461bcd60e51b815260040162000e849062004fce565b6001600160a01b0383166000908152600260205260408120546001805490919081106200205a576200205a62004fb8565b6000918252602082206002909102018054909250620020849086906001600160a01b031662002b19565b6001830180546001600160801b03808816600160801b02911617905580516020820151604051929350600080516020620056cd83398151915292620020cf928992909189906200505c565b60405180910390a15050505050565b33620020f26016546001600160a01b031690565b6001600160a01b0316146200211a5760405163ebf9845960e01b815260040160405180910390fd5b6200172a8484846001600160801b03856200343a565b6001600160a01b03918216600090815260106020908152604080832093909416825291909152205460ff1690565b600580546001600160a01b038087166001600160a01b031992831617909255600080548684169083161790556006805492851692909116919091179055620021a562001d74565b5050505050565b6000620021ba600362000a2e565b9050806001600160a01b031663eef84ba16040518163ffffffff1660e01b8152600401600060405180830381600087803b158015620021f857600080fd5b505af11580156200220d573d6000803e3d6000fd5b505050506001600160a01b038716331480159062002234575062002232873362002130565b155b156200225357604051630de6955560e31b815260040160405180910390fd5b6200226387878787878762003dee565b50505050505050565b33620022806016546001600160a01b031690565b6001600160a01b031614620022a85760405163ebf9845960e01b815260040160405180910390fd5b6001600160a01b038116620022d057604051635868b79d60e01b815260040160405180910390fd5b620022db816200311e565b50565b6001600160a01b0381166000908152600260205260408120546001805490919081106200230f576200230f62004fb8565b6000918252602082206002909102018054909250620023399084906001600160a01b031662002b19565b905083156200172a57600062002350848362002fae565b505050505050565b606082804211156200237e5760405162461bcd60e51b815260040162000e849062004fe9565b6001600160a01b038816600090815260026020526040812054600180549091908110620023af57620023af62004fb8565b60009182526020808320600292830201546001600160a01b038c811685529290915260408320546001805493909216945090918110620023f357620023f362004fb8565b6000918252602080832060029283020154604080518481526060810182526001600160a01b03909216955090929183019080368337019050509050888160018151811062002445576200244562004fb8565b60209081029190910101526000546001600160a01b038c81169116148015906200247c57506000546001600160a01b038b81169116145b156200258f576000620024908c8562002b19565b90506200249f818d8c62003d0b565b82600081518110620024b557620024b562004fb8565b6020026020010181815250508882600081518110620024d857620024d862004fb8565b60200260200101511115620025145760405162461bcd60e51b81526020600482015260016024820152604b60f81b604482015260640162000e84565b6001826000815181106200252c576200252c62004fb8565b602002602001015111620025545760405162461bcd60e51b815260040162000e84906200501e565b6200257f8c33868560008151811062002571576200257162004fb8565b602002602001015162002b6d565b62001a658c8260008d8b62003814565b6000546001600160a01b038c81169116148015620025bb57506000546001600160a01b038b8116911614155b15620026c0576000620025cf8b8462002b19565b9050620025de818c8c62003d81565b82600081518110620025f457620025f462004fb8565b602002602001018181525050888260008151811062002617576200261762004fb8565b60200260200101511115620026535760405162461bcd60e51b81526020600482015260016024820152602560f91b604482015260640162000e84565b6001826000815181106200266b576200266b62004fb8565b602002602001015111620026935760405162461bcd60e51b815260040162000e8490620050fd565b620026b08c33858560008151811062002571576200257162004fb8565b62001a658b828c60008b62003814565b6000546001600160a01b038c8116911614801590620026ed57506000546001600160a01b038b8116911614155b80156200270c5750896001600160a01b03168b6001600160a01b031614155b1562001ccf576000620027208b8462002b19565b9050600062002731828d8d62003d81565b905060018111620027565760405162461bcd60e51b815260040162000e8490620050fd565b6000620027648e8762002b19565b905062002773818f8462003d0b565b8460008151811062002789576200278962004fb8565b602002602001018181525050600184600081518110620027ad57620027ad62004fb8565b602002602001015111620027d55760405162461bcd60e51b815260040162000e8490620050fd565b8a84600081518110620027ec57620027ec62004fb8565b60200260200101511115620028285760405162461bcd60e51b81526020600482015260016024820152604b60f81b604482015260640162000e84565b620028458e33888760008151811062002571576200257162004fb8565b620028558e826000858962003814565b62001cc08d848e60008d62003814565b84838114620028875760405163a98a885960e01b815260040160405180910390fd5b6001600160a01b038816620028af576040516307cc786960e31b815260040160405180910390fd5b3360005b8281101562002a67576000878783818110620028d357620028d362004fb8565b9050602002013590506000600f60008c8c86818110620028f757620028f762004fb8565b90506020020135815260200190815260200160002060008e6001600160a01b03166001600160a01b03168152602001908152602001600020549050818110156200295457604051632d688f6160e11b815260040160405180910390fd5b818103600f60008d8d8781811062002970576200297062004fb8565b90506020020135815260200190815260200160002060008f6001600160a01b03166001600160a01b031681526020019081526020016000208190555081600f60008d8d87818110620029c657620029c662004fb8565b90506020020135815260200190815260200160002060008e6001600160a01b03166001600160a01b03168152602001908152602001600020600082825462002a0f919062004f9d565b90915550829050601260008d8d8781811062002a2f5762002a2f62004fb8565b9050602002013581526020019081526020016000206000828254019250508190555050508062002a5f9062004f7f565b9050620028b3565b50886001600160a01b03168a6001600160a01b0316826001600160a01b03167f4a39dc06d4c0dbc64b70af90fd698a233a518aa5d07e595d983b8c0526c8f7fb8b8b8b8b60405162002abd94939291906200514f565b60405180910390a462002b0d818b8b8b8b8b8b8b8b8080601f01602080910402602001604051908101604052809392919081815260200183838082843760009201919091525062003f5592505050565b50505050505050505050565b6040805180820190915260008082526020820152604051806040016040528062002b44858562004025565b815260005460209091019062002b64906001600160a01b03168562004025565b90529392505050565b60018111158062002b8f5750816001600160a01b0316836001600160a01b0316145b1562002b9b576200172a565b6007546001600160a01b03858116911614801562002bc157506001600160a01b03831633145b1562002c3357478181101562002c005760405162461bcd60e51b8152602060048201526003602482015262185cd960ea1b604482015260640162000e84565b8181111562002c205762002c203362002c1a848462005004565b620040c1565b62002c2c8383620040c1565b506200172a565b6007546001600160a01b03858116911614801562002c5a57506001600160a01b0383163314155b1562002cca576040516306e6a46960e21b81526001600160a01b03838116600483015260248201839052841690631b9a91a490604401600060405180830381600087803b15801562002cab57600080fd5b505af115801562002cc0573d6000803e3d6000fd5b505050506200172a565b6200172a8484848462004154565b6000600382111562002d46575080600062002cf560028362005039565b62002d0290600162004f9d565b90505b8181101562002d405790508060028162002d20818662005039565b62002d2c919062004f9d565b62002d38919062005039565b905062002d05565b50919050565b811562002d51575060015b919050565b6009546000908190858511801562002d6e5750600086115b801562002d7b5750600081115b1562002de55762002d8d818762004dde565b62002d9a82606462005004565b62002da6908762004dde565b62002db2919062004f9d565b62002dbe878762005004565b62002dca838762004dde565b62002dd6919062004dde565b62002de2919062005039565b91505b50949350505050565b6001600160a01b03841662002e1657604051633e11866b60e21b815260040160405180910390fd5b8162002e22576200172a565b60008381526012602052604081208054339285929162002e4490849062004f9d565b90915550506000848152600f602090815260408083206001600160a01b038981168086529184528285208054890190558251898152938401889052909392908516917fc3d58168c5ae7397731d063d5bbf3d657854427343f4c083240f7aacaa2d0f62910160405180910390a4620021a5816000878787876200424a565b6001600160a01b0382166000908152600260205260408120548390158062002ef757506000546001600160a01b038281169116145b1562002f175760405162461bcd60e51b815260040162000e849062004fce565b62002f38838660000151876020015162002f32888a62002fae565b62004316565b95945050505050565b6001600160a01b0382166000908152600260205260408120548390158062002f7657506000546001600160a01b038281169116145b1562002f965760405162461bcd60e51b815260040162000e849062004fce565b62002f38838660200151876000015161271062004316565b60008062002fbb6200435c565b90506000806008600601548362002fd3919062005004565b90505b8281101562003026576001600160a01b03861660009081526003602090815260408083208484529091529020546200300f908362004f9d565b9150806200301d8162004f7f565b91505062002fd6565b5060006402540be400600860040154866020015162003046919062004dde565b62003052919062005039565b905060006402540be400600860050154876020015162003073919062004dde565b6200307f919062005039565b9050818311620030a657600b546200309a9061271062005004565b94505050505062000a28565b808310620030bf57600a546200309a9061271062005004565b620030cb828262005004565b600a54600b54620030dd919062005004565b620030e9848662005004565b620030f5919062004dde565b62003101919062005039565b600b54620031129061271062005004565b6200170f919062004f9d565b601680546001600160a01b038381166001600160a01b0319831681179093556040519116919082907f8be0079c531659141344cd1fd0a4f28419497f9722a3daafe3b4186f6b6457e090600090a35050565b6001600160a01b0383166000908152600260205260408120546001805483919083908110620031a357620031a362004fb8565b6000918252602082206002909102018054909250620031cd9088906001600160a01b031662002b19565b6000848152601260205260408120548251929350918290620031f1908a9062004dde565b620031fd919062005039565b905060008289856020015162003214919062004dde565b62003220919062005039565b905060006200323e8560200151866000015162000f9a919062004dde565b60018701549091506000906200325f906001600160801b0316838762002d56565b6008546040805160208101909152600081529192506200328f916001600160a01b03909116908a90849062002dee565b60006040518060400160405280868960000151620032ae919062005004565b8152602001858960200151620032c5919062005004565b905260208101518151919250620032e29162000f9a919062004dde565b6001890180546fffffffffffffffffffffffffffffffff19166001600160801b03929092169190911790556200331a338a8e62004371565b60005488546040516318a8ad8760e01b81526001600160a01b039182166004820152602481018790529116906318a8ad8790604401600060405180830381600087803b1580156200336a57600080fd5b505af11580156200337f573d6000803e3d6000fd5b505089546200339d92508f91506001600160a01b03168d8862002b6d565b7f1dc8bb69df2b8e91fbdcbfcf93d951b3f0000f085a95fe3f7946d6161439245d8d86868f604051620033d494939291906200505c565b60405180910390a1600080516020620056cd8339815191528d826000015183602001518b60010160109054906101000a90046001600160801b031660405162003421949392919062005082565b60405180910390a150929b9a5050505050505050505050565b6001600160a01b038516600090815260026020526040902054859015620034745760405163402670df60e01b815260040160405180910390fd5b6000805460075460405189926001600160a01b0390811692818516911614906200349e90620045c3565b6001600160a01b03938416815292909116602083015215156040820152606001604051809103906000f080158015620034db573d6000803e3d6000fd5b509050620034ec8733838962002b6d565b600054604051630bb9ff5d60e01b81526001600160a01b0383811660048301526024820188905290911690630bb9ff5d90604401600060405180830381600087803b1580156200353b57600080fd5b505af115801562003550573d6000803e3d6000fd5b5050505062003560878262004025565b955060018611620035855760405162461bcd60e51b815260040162000e84906200501e565b60006200359762000f9a878962004dde565b604080516060810182526001600160a01b0380861682526001600160801b0380851660208085019182528b83168587019081526001805480820182556000918252875160028083027fb10e2d527612073b26eecdfd717e6a320cf44b4afac2b0732d9fcbe2b7fa0cf681018054938b166001600160a01b031990941693909317909255955193518716600160801b0293909616929092177fb10e2d527612073b26eecdfd717e6a320cf44b4afac2b0732d9fcbe2b7fa0cf790950194909455938f168352908152848220839055845190810190945283529293509190620036889061dead9083906103e89062002dee565b6000620036986103e88562005004565b9050620036b78783836040518060200160405280600081525062002dee565b604080516001600160a01b038d168152602081018490527f641e49906554552c8c33d7e09e02d1270590f405bc1da0c7b99a9c2808abdd05910160405180910390a17f64b83944e79c3ce8d4c297411de637c3e102d064677aac0c163976ebdcd6f50e8b8b8b846040516200373094939291906200505c565b60405180910390a1600080516020620056cd8339815191528b8b8b8b6040516200375e94939291906200505c565b60405180910390a15050505050505050505050565b816001600160a01b0316836001600160a01b03161415620037a75760405163180a65b960e31b815260040160405180910390fd5b6001600160a01b03838116600081815260106020908152604080832094871680845294825291829020805460ff191686151590811790915591519182527f17307eab39ab6107e8899845ad3d59bd9653f200f220920489ca2b5937696c31910160405180910390a3505050565b6001600160a01b038516600090815260026020526040902054859015806200384957506000546001600160a01b038281169116145b15620038695760405162461bcd60e51b815260040162000e849062004fce565b6001600160a01b0386166000908152600260205260408120546001805490919081106200389a576200389a62004fb8565b6000918252602082206002909102018054909250620038c49089906001600160a01b031662002b19565b9050600087602001518260200151620038de919062005004565b88518351919250600091620038f4919062005004565b9050600162003904838362004f9d565b11620039375760405162461bcd60e51b81526020600482015260016024820152601960f91b604482015260640162000e84565b60018401546001600160801b03600160801b90910481161080156200397d5750600184015487906200397b908490600160801b90046001600160801b031662004f9d565b105b15620039b05760405162461bcd60e51b81526020600482015260016024820152602d60f91b604482015260640162000e84565b6000620039bc6200435c565b9050612710881562003a48576001600160a01b038c16600090815260046020908152604080832085845290915290205462003a2257620039fd8c8c62002fae565b6001600160a01b038d1660009081526004602090815260408083208684529091529020555b506001600160a01b038b1660009081526004602090815260408083208484529091529020545b600062003a588261271062005004565b62003a64908562004dde565b865162003a75906127109062004dde565b62003a81919062005004565b62003a8f8361271062005004565b62003a9b908762004dde565b612710886020015162003aaf919062004dde565b62003abb919062005004565b62003ac7919062004dde565b905062003ad76127108062004dde565b60208d01518d5162003aea919062004dde565b62003af6919062004dde565b81101562003b2b5760405162461bcd60e51b81526020600482015260016024820152603160f81b604482015260640162000e84565b60018701546001600160801b03600160801b9091048116101562003b995760018701548a9062003b6d908790600160801b90046001600160801b031662004f9d565b62003b79919062005004565b6001880180546001600160801b03928316600160801b0292169190911790555b60018a111562003bde576001600160a01b038d166000908152600360209081526040808320868452909152812080548c929062003bd890849062004f9d565b90915550505b50855462003bf9908d906001600160a01b03168a8d62002b6d565b600054865462003c18916001600160a01b0390811691168a8c62002b6d565b7f4ab7f3f4678bf8f6cbe4d85e4007b7c64df8e1d5d97de1628f4a6416f9d1db038c3385878e8e62003c4d8861271062005004565b604080516001600160a01b03988916815296881660208801528601949094526060850192909252608084015260a083015260c0820152908a1660e08201526101000160405180910390a1600080516020620056cd8339815191528c866000015187602001518960010160109054906101000a90046001600160801b031660405162003cdc949392919062005082565b60405180910390a1505050505050505050505050565b805162003d07906011906020840190620044b7565b5050565b6001600160a01b0382166000908152600260205260408120548390158062003d4057506000546001600160a01b038281169116145b1562003d605760405162461bcd60e51b815260040162000e849062004fce565b62002f38838660000151876020015162003d7b888a62002fae565b6200445e565b6001600160a01b0382166000908152600260205260408120548390158062003db657506000546001600160a01b038281169116145b1562003dd65760405162461bcd60e51b815260040162000e849062004fce565b62002f3883866020015187600001516127106200445e565b6001600160a01b03851662003e16576040516307cc786960e31b815260040160405180910390fd5b6000848152600f602090815260408083206001600160a01b038a16845290915290205433908481101562003e5d57604051632d688f6160e11b815260040160405180910390fd5b6000868152600f602090815260408083206001600160a01b038c811685529252808320888503905590891682528120805487929062003e9e90849062004f9d565b909155505060008681526012602090815260409182902080548801905581518881529081018790526001600160a01b03898116928b821692918616917fc3d58168c5ae7397731d063d5bbf3d657854427343f4c083240f7aacaa2d0f62910160405180910390a462003f4b828989898989898080601f0160208091040260200160405190810160405280939291908181526020018383808284376000920191909152506200424a92505050565b5050505050505050565b853b1562003f4b5760405163bc197c8160e01b81526001600160a01b0387169063bc197c819062003f97908b908b908a908a908a908a908a906004016200517a565b6020604051808303816000875af192505050801562003fd5575060408051601f3d908101601f1916820190925262003fd291810190620051d4565b60015b62003ff3576040516322ea035960e11b815260040160405180910390fd5b6001600160e01b0319811663bc197c8160e01b1462000c7b576040516315d5293760e11b815260040160405180910390fd5b60075460009081906001600160a01b0385811691161415620040545750506001600160a01b0381163162000a28565b6040516370a0823160e01b81526001600160a01b0384811660048301528516906370a0823190602401602060405180830381865afa1580156200409b573d6000803e3d6000fd5b505050506040513d601f19601f82011682018060405250810190620013ae9190620051f4565b604080516000808252602082019092526001600160a01b038416908390604051620040ed91906200520e565b60006040518083038185875af1925050503d80600081146200412c576040519150601f19603f3d011682016040523d82523d6000602084013e62004131565b606091505b5050905080620009d4576040516330667aab60e01b815260040160405180910390fd5b604080516001600160a01b0385811660248301528481166044830152606480830185905283518084039091018152608490920183526020820180516001600160e01b03166323b872dd60e01b1790529151600092839290881691620041ba91906200520e565b6000604051808303816000865af19150503d8060008114620041f9576040519150601f19603f3d011682016040523d82523d6000602084013e620041fe565b606091505b50915091508180156200422c5750805115806200422c5750808060200190518101906200422c91906200522c565b6200235057604051636050fe2960e01b815260040160405180910390fd5b833b15620023505760405163f23a6e6160e01b81526001600160a01b0385169063f23a6e61906200428890899089908890889088906004016200524c565b6020604051808303816000875af1925050508015620042c6575060408051601f3d908101601f19168201909252620042c391810190620051d4565b60015b620042e4576040516322ea035960e11b815260040160405180910390fd5b6001600160e01b0319811663f23a6e6160e01b1462002263576040516315d5293760e11b815260040160405180910390fd5b60008062004325838762004dde565b9050600081620043386127108862004dde565b62004344919062004f9d565b62004350838762004dde565b6200170f919062005039565b60006200436c610e104262005039565b905090565b6001600160a01b038316620043995760405163edba591d60e01b815260040160405180910390fd5b6000828152600f602090815260408083206001600160a01b0387168452909152902054339082811015620043e057604051631cfb29e160e21b815260040160405180910390fd5b6000848152600f602090815260408083206001600160a01b038981168086529184528285208887039055888552601284528285208054899003905582518981529384018890529092908616917fc3d58168c5ae7397731d063d5bbf3d657854427343f4c083240f7aacaa2d0f62910160405180910390a45050505050565b6000806200446d868562005004565b62004479908462004dde565b61271062004488888862004dde565b62004494919062004dde565b620044a0919062005039565b620044ad90600162004f9d565b9695505050505050565b828054620044c59062004e88565b90600052602060002090601f016020900481019282620044e9576000855562004534565b82601f106200450457805160ff191683800117855562004534565b8280016001018555821562004534579182015b828111156200453457825182559160200191906001019062004517565b5062004542929150620045d1565b5090565b828054620045549062004e88565b90600052602060002090601f01602090048101928262004578576000855562004534565b82601f10620045935782800160ff1982351617855562004534565b8280016001018555821562004534579182015b8281111562004534578235825591602001919060010190620045a6565b610444806200528983390190565b5b80821115620045425760008155600101620045d2565b600060e0828403121562002d4057600080fd5b6001600160a01b0381168114620022db57600080fd5b600080604083850312156200462557600080fd5b82356200463281620045fb565b946020939093013593505050565b6001600160e01b031981168114620022db57600080fd5b6000602082840312156200466a57600080fd5b81356200133e8162004640565b6000602082840312156200468a57600080fd5b5035919050565b60005b83811015620046ae57818101518382015260200162004694565b838111156200172a5750506000910152565b60008151808452620046da81602086016020860162004691565b601f01601f19169290920160200192915050565b6020815260006200133e6020830184620046c0565b60008083601f8401126200471657600080fd5b50813567ffffffffffffffff8111156200472f57600080fd5b6020830191508360208260051b85010111156200474b57600080fd5b9250929050565b60008083601f8401126200476557600080fd5b50813567ffffffffffffffff8111156200477e57600080fd5b6020830191508360208285010111156200474b57600080fd5b60008060008060008060008060a0898b031215620047b457600080fd5b8835620047c181620045fb565b97506020890135620047d381620045fb565b9650604089013567ffffffffffffffff80821115620047f157600080fd5b620047ff8c838d0162004703565b909850965060608b01359150808211156200481957600080fd5b620048278c838d0162004703565b909650945060808b01359150808211156200484157600080fd5b50620048508b828c0162004752565b999c989b5096995094979396929594505050565b600080602083850312156200487857600080fd5b823567ffffffffffffffff8111156200489057600080fd5b6200489e8582860162004703565b90969095509350505050565b602080825282518282018190526000919060409081850190868401855b82811015620048ee57815180518552860151868501529284019290850190600101620048c7565b5091979650505050505050565b634e487b7160e01b600052604160045260246000fd5b600082601f8301126200492357600080fd5b813567ffffffffffffffff80821115620049415762004941620048fb565b604051601f8301601f19908116603f011681019082821181831017156200496c576200496c620048fb565b816040528381528660208588010111156200498657600080fd5b836020870160208301376000602085830101528094505050505092915050565b60008060408385031215620049ba57600080fd5b823567ffffffffffffffff80821115620049d357600080fd5b620049e18683870162004911565b93506020850135915080821115620049f857600080fd5b5062004a078582860162004911565b9150509250929050565b6000806000806080858703121562004a2857600080fd5b843562004a3581620045fb565b93506020850135925060408501359150606085013562004a5581620045fb565b939692955090935050565b60008060006060848603121562004a7657600080fd5b833562004a8381620045fb565b9250602084013562004a9581620045fb565b929592945050506040919091013590565b60006020828403121562004ab957600080fd5b81356200133e81620045fb565b6000806000806040858703121562004add57600080fd5b843567ffffffffffffffff8082111562004af657600080fd5b62004b048883890162004703565b9096509450602087013591508082111562004b1e57600080fd5b5062004b2d8782880162004703565b95989497509550505050565b6020808252825182820181905260009190848201906040850190845b8181101562004b735783518352928401929184019160010162004b55565b50909695505050505050565b8015158114620022db57600080fd5b6000806040838503121562004ba257600080fd5b823562004baf81620045fb565b9150602083013562004bc18162004b7f565b809150509250929050565b60008060008060008060c0878903121562004be657600080fd5b863562004bf381620045fb565b9550602087013562004c0581620045fb565b945060408701359350606087013592506080870135915060a087013562004c2c81620045fb565b809150509295509295509295565b6000806020838503121562004c4e57600080fd5b823567ffffffffffffffff81111562004c6657600080fd5b6200489e8582860162004752565b6000806040838503121562004c8857600080fd5b823562004c9581620045fb565b9150602083013562004bc181620045fb565b600080600080600060a0868803121562004cc057600080fd5b853562004ccd81620045fb565b9450602086013562004cdf81620045fb565b9350604086013562004cf181620045fb565b9250606086013562004d0381620045fb565b9150608086013562004d1581620045fb565b809150509295509295909350565b60008060008060008060a0878903121562004d3d57600080fd5b863562004d4a81620045fb565b9550602087013562004d5c81620045fb565b94506040870135935060608701359250608087013567ffffffffffffffff81111562004d8757600080fd5b62004d9589828a0162004752565b979a9699509497509295939492505050565b6000806040838503121562004dbb57600080fd5b823562004c958162004b7f565b634e487b7160e01b600052601160045260246000fd5b600081600019048311821515161562004dfb5762004dfb62004dc8565b500290565b813562004e0d81620045fb565b81546001600160a01b0319166001600160a01b03919091161781556020820135600182015560408201356002820155606082013560038201556080820135600482015560a0820135600582015560c090910135600690910155565b60006020828403121562004e7b57600080fd5b81516200133e81620045fb565b600181811c9082168062004e9d57607f821691505b6020821081141562002d4057634e487b7160e01b600052602260045260246000fd5b600080845481600182811c91508083168062004edc57607f831692505b602080841082141562004efd57634e487b7160e01b86526022600452602486fd5b81801562004f14576001811462004f265762004f55565b60ff1986168952848901965062004f55565b60008b81526020902060005b8681101562004f4d5781548b82015290850190830162004f32565b505084890196505b5088865262004f7181870164173539b7b760d91b815260050190565b9a9950505050505050505050565b600060001982141562004f965762004f9662004dc8565b5060010190565b6000821982111562004fb35762004fb362004dc8565b500190565b634e487b7160e01b600052603260045260246000fd5b6020808252600190820152604360f81b604082015260600190565b6020808252600190820152601160fa1b604082015260600190565b60008282101562005019576200501962004dc8565b500390565b6020808252600190820152602360f91b604082015260600190565b6000826200505757634e487b7160e01b600052601260045260246000fd5b500490565b6001600160a01b0394909416845260208401929092526040830152606082015260800190565b6001600160a01b03949094168452602084019290925260408301526001600160801b0316606082015260800190565b60006001600160801b03808316818516808303821115620050d657620050d662004dc8565b01949350505050565b81838237683db4b23e973539b7b760b91b9101908152600901919050565b6020808252600190820152605560f81b604082015260600190565b81835260006001600160fb1b038311156200513257600080fd5b8260051b8083602087013760009401602001938452509192915050565b6040815260006200516560408301868862005118565b82810360208401526200170f81858762005118565b6001600160a01b0388811682528716602082015260a060408201819052600090620051a9908301878962005118565b8281036060840152620051be81868862005118565b9050828103608084015262004f718185620046c0565b600060208284031215620051e757600080fd5b81516200133e8162004640565b6000602082840312156200520757600080fd5b5051919050565b600082516200522281846020870162004691565b9190910192915050565b6000602082840312156200523f57600080fd5b81516200133e8162004b7f565b6001600160a01b03868116825285166020820152604081018490526060810183905260a0608082018190526000906200170f90830184620046c056fe6080604052600080546001600160a01b0319167346e8e0af862f636199af69acd082b9963066ed9c17905534801561003657600080fd5b50604051610444380380610444833981016040819052610055916101af565b806100ce5760405163095ea7b360e01b815233600482015260001960248201526001600160a01b0384169063095ea7b3906044016020604051808303816000875af11580156100a8573d6000803e3d6000fd5b505050506040513d601f19601f820116820180604052508101906100cc91906101f2565b505b60405163095ea7b360e01b815233600482015260001960248201526001600160a01b0383169063095ea7b3906044016020604051808303816000875af115801561011c573d6000803e3d6000fd5b505050506040513d601f19601f8201168201806040525081019061014091906101f2565b5050600180546001600160a01b039384166001600160a01b0319918216179091556000805492909316918116919091179091556002805490911633179055610214565b80516001600160a01b038116811461019a57600080fd5b919050565b8051801515811461019a57600080fd5b6000806000606084860312156101c457600080fd5b6101cd84610183565b92506101db60208501610183565b91506101e96040850161019f565b90509250925092565b60006020828403121561020457600080fd5b61020d8261019f565b9392505050565b610221806102236000396000f3fe6080604052600436106100385760003560e01c80630dfe1681146100445780631b9a91a41461007a578063d21220a71461009c57600080fd5b3661003f57005b600080fd5b34801561005057600080fd5b506001546001600160a01b03165b6040516001600160a01b03909116815260200160405180910390f35b34801561008657600080fd5b5061009a610095366004610178565b6100ba565b005b3480156100a857600080fd5b506000546001600160a01b031661005e565b6002546001600160a01b031633146100e55760405163ab243e4960e01b815260040160405180910390fd5b604080516000808252602082019092526001600160a01b03841690839060405161010f91906101b0565b60006040518083038185875af1925050503d806000811461014c576040519150601f19603f3d011682016040523d82523d6000602084013e610151565b606091505b505090508061017357604051635aeccf6b60e01b815260040160405180910390fd5b505050565b6000806040838503121561018b57600080fd5b82356001600160a01b03811681146101a257600080fd5b946020939093013593505050565b6000825160005b818110156101d157602081860181015185830152016101b7565b818111156101e0576000828501525b50919091019291505056fea26469706673582212205aeb7e5de3be1388a355f225f2b9e3caa9dfa8f8f9ed01a5d3ffd1fa9be35ebb64736f6c634300080b003351ab1232a73b82b6b0acb0fa91b834cf6e258a1858c4e23c72ce97241c71aa0da264697066735822122091f644af47e7add9f04bf54a09277e08d77de5a960e0e8cf68109e732ed3f50f64736f6c634300080b003368747470733a2f2f646174612e63657262792e66692f4365726279537761702f76312f",
			"opcodes": "PUSH1 0x0 DUP1 SLOAD PUSH1 0x1 PUSH1 0x1 PUSH1 0xA0 SHL SUB NOT SWAP1 DUP2 AND PUSH20 0x46E8E0AF862F636199AF69ACD082B9963066ED9C OR SWAP1 SWAP2 SSTORE PUSH1 0x5 DUP1 SLOAD DUP3 AND PUSH20 0x527EA24A5917C452DBF402EDC9DA4190239BCCF1 OR SWAP1 SSTORE PUSH1 0x6 DUP1 SLOAD DUP3 AND PUSH20 0x947EF3DF5B7D5EC37214DD06C4042C8E7B0CEBD7 OR SWAP1 SSTORE PUSH1 0x7 DUP1 SLOAD SWAP1 SWAP2 AND PUSH20 0x14769F96E57B80C66837701DE0B43686FB4632DE OR SWAP1 SSTORE PUSH1 0xC0 PUSH1 0x40 MSTORE PUSH1 0xB PUSH1 0x80 DUP2 SWAP1 MSTORE PUSH11 0x4365726279537761705631 PUSH1 0xA8 SHL PUSH1 0xA0 SWAP1 DUP2 MSTORE PUSH3 0xB2 SWAP2 PUSH1 0x13 SWAP2 SWAP1 PUSH3 0x47B JUMP JUMPDEST POP PUSH1 0x40 DUP1 MLOAD DUP1 DUP3 ADD SWAP1 SWAP2 MSTORE PUSH1 0x3 DUP1 DUP3 MSTORE PUSH3 0x435331 PUSH1 0xE8 SHL PUSH1 0x20 SWAP1 SWAP3 ADD SWAP2 DUP3 MSTORE PUSH3 0xDF SWAP2 PUSH1 0x14 SWAP2 PUSH3 0x47B JUMP JUMPDEST POP PUSH1 0x40 MLOAD DUP1 PUSH1 0x60 ADD PUSH1 0x40 MSTORE DUP1 PUSH1 0x23 DUP2 MSTORE PUSH1 0x20 ADD PUSH3 0x5D9F PUSH1 0x23 SWAP2 CODECOPY DUP1 MLOAD PUSH3 0x110 SWAP2 PUSH1 0x15 SWAP2 PUSH1 0x20 SWAP1 SWAP2 ADD SWAP1 PUSH3 0x47B JUMP JUMPDEST POP CALLVALUE DUP1 ISZERO PUSH3 0x11E JUMPI PUSH1 0x0 DUP1 REVERT JUMPDEST POP PUSH1 0x15 PUSH1 0x40 MLOAD PUSH1 0x20 ADD PUSH3 0x133 SWAP2 SWAP1 PUSH3 0x55E JUMP JUMPDEST PUSH1 0x40 DUP1 MLOAD PUSH1 0x1F NOT DUP2 DUP5 SUB ADD DUP2 MSTORE SWAP2 SWAP1 MSTORE PUSH3 0x14E DUP2 PUSH3 0x410 JUMP JUMPDEST POP PUSH3 0x15A CALLER PUSH3 0x429 JUMP JUMPDEST PUSH20 0xDEF78A28C78A461598D948BC0C689CE88F812AD8 PUSH1 0x0 PUSH1 0x64 PUSH3 0x180 DUP2 PUSH1 0x14 PUSH3 0x61C JUMP JUMPDEST PUSH3 0x18C SWAP2 SWAP1 PUSH3 0x64A JUMP JUMPDEST SWAP1 POP PUSH4 0x51A67366 PUSH1 0x1 PUSH1 0xC8 DUP3 PUSH1 0x0 DUP4 PUSH3 0x1A7 DUP5 DUP5 PUSH3 0x61C JUMP JUMPDEST PUSH3 0x1B3 SWAP2 SWAP1 PUSH3 0x64A JUMP JUMPDEST PUSH1 0x40 DUP1 MLOAD PUSH1 0xE0 DUP2 ADD DUP3 MSTORE PUSH1 0x1 PUSH1 0x1 PUSH1 0xA0 SHL SUB DUP1 DUP12 AND DUP1 DUP4 MSTORE PUSH1 0x20 DUP1 DUP5 ADD DUP13 SWAP1 MSTORE DUP4 DUP6 ADD DUP11 SWAP1 MSTORE PUSH1 0x60 DUP1 DUP6 ADD DUP11 SWAP1 MSTORE PUSH1 0x80 DUP6 ADD DUP10 SWAP1 MSTORE PUSH1 0xA0 DUP6 ADD DUP8 SWAP1 MSTORE PUSH1 0x18 PUSH1 0xC0 SWAP1 SWAP6 ADD DUP6 SWAP1 MSTORE PUSH1 0x8 DUP1 SLOAD PUSH1 0x1 PUSH1 0x1 PUSH1 0xA0 SHL SUB NOT SWAP1 DUP2 AND SWAP1 SWAP5 OR SWAP1 SSTORE PUSH1 0x9 DUP14 SWAP1 SSTORE PUSH1 0xA DUP12 SWAP1 SSTORE PUSH1 0xB DUP11 SWAP1 SSTORE PUSH1 0xC DUP10 SWAP1 SSTORE PUSH1 0xD DUP8 SWAP1 SSTORE PUSH1 0xE DUP6 SWAP1 SSTORE DUP6 MLOAD SWAP1 DUP2 ADD DUP7 MSTORE PUSH1 0x0 DUP1 DUP3 MSTORE SWAP2 DUP2 ADD DUP3 DUP2 MSTORE SWAP6 DUP2 ADD DUP3 DUP2 MSTORE PUSH1 0x1 DUP1 SLOAD DUP1 DUP3 ADD DUP3 SSTORE SWAP4 DUP2 SWAP1 MSTORE SWAP2 MLOAD PUSH1 0x2 SWAP4 SWAP1 SWAP4 MUL PUSH32 0xB10E2D527612073B26EECDFD717E6A320CF44B4AFAC2B0732D9FCBE2B7FA0CF6 DUP2 ADD DUP1 SLOAD SWAP5 SWAP1 SWAP7 AND SWAP4 SWAP1 SWAP5 AND SWAP3 SWAP1 SWAP3 OR SWAP1 SWAP4 SSTORE SWAP4 MLOAD SWAP4 MLOAD PUSH1 0x1 PUSH1 0x1 PUSH1 0x80 SHL SUB SWAP1 DUP2 AND PUSH1 0x1 PUSH1 0x80 SHL MUL SWAP5 AND SWAP4 SWAP1 SWAP4 OR PUSH32 0xB10E2D527612073B26EECDFD717E6A320CF44B4AFAC2B0732D9FCBE2B7FA0CF7 SWAP1 SWAP4 ADD SWAP3 SWAP1 SWAP3 SSTORE SWAP2 SWAP3 POP CHAINID EQ ISZERO PUSH3 0x307 JUMPI PUSH1 0x7 DUP1 SLOAD PUSH1 0x1 PUSH1 0x1 PUSH1 0xA0 SHL SUB NOT AND PUSH20 0xC02AAA39B223FE8D0A0E5C4F27EAD9083C756CC2 OR SWAP1 SSTORE PUSH3 0x3DB JUMP JUMPDEST CHAINID PUSH1 0x38 EQ ISZERO PUSH3 0x33D JUMPI PUSH1 0x7 DUP1 SLOAD PUSH1 0x1 PUSH1 0x1 PUSH1 0xA0 SHL SUB NOT AND PUSH20 0xBB4CDB9CBD36B01BD1CBAEBF2DE08D9173BC095C OR SWAP1 SSTORE PUSH3 0x3DB JUMP JUMPDEST CHAINID PUSH1 0x89 EQ ISZERO PUSH3 0x373 JUMPI PUSH1 0x7 DUP1 SLOAD PUSH1 0x1 PUSH1 0x1 PUSH1 0xA0 SHL SUB NOT AND PUSH20 0xD500B1D8E8EF31E21C99D1DB9A6444D3ADF1270 OR SWAP1 SSTORE PUSH3 0x3DB JUMP JUMPDEST CHAINID PUSH2 0xA86A EQ ISZERO PUSH3 0x3AA JUMPI PUSH1 0x7 DUP1 SLOAD PUSH1 0x1 PUSH1 0x1 PUSH1 0xA0 SHL SUB NOT AND PUSH20 0xB31F66AA3C1E785363F0875A1B74E27B85FD66C7 OR SWAP1 SSTORE PUSH3 0x3DB JUMP JUMPDEST CHAINID PUSH1 0xFA EQ ISZERO PUSH3 0x3DB JUMPI PUSH1 0x7 DUP1 SLOAD PUSH1 0x1 PUSH1 0x1 PUSH1 0xA0 SHL SUB NOT AND PUSH20 0x21BE370D5312F44CB42CE377BC9B8A0CEF1A4C83 OR SWAP1 SSTORE JUMPDEST POP POP PUSH1 0x7 DUP1 SLOAD PUSH1 0x1 PUSH1 0x1 PUSH1 0xA0 SHL SUB NOT AND PUSH20 0x14769F96E57B80C66837701DE0B43686FB4632DE OR SWAP1 SSTORE POP PUSH3 0x66D SWAP5 POP POP POP POP POP JUMP JUMPDEST DUP1 MLOAD PUSH3 0x425 SWAP1 PUSH1 0x11 SWAP1 PUSH1 0x20 DUP5 ADD SWAP1 PUSH3 0x47B JUMP JUMPDEST POP POP JUMP JUMPDEST PUSH1 0x16 DUP1 SLOAD PUSH1 0x1 PUSH1 0x1 PUSH1 0xA0 SHL SUB DUP4 DUP2 AND PUSH1 0x1 PUSH1 0x1 PUSH1 0xA0 SHL SUB NOT DUP4 AND DUP2 OR SWAP1 SWAP4 SSTORE PUSH1 0x40 MLOAD SWAP2 AND SWAP2 SWAP1 DUP3 SWAP1 PUSH32 0x8BE0079C531659141344CD1FD0A4F28419497F9722A3DAAFE3B4186F6B6457E0 SWAP1 PUSH1 0x0 SWAP1 LOG3 POP POP JUMP JUMPDEST DUP3 DUP1 SLOAD PUSH3 0x489 SWAP1 PUSH3 0x521 JUMP JUMPDEST SWAP1 PUSH1 0x0 MSTORE PUSH1 0x20 PUSH1 0x0 KECCAK256 SWAP1 PUSH1 0x1F ADD PUSH1 0x20 SWAP1 DIV DUP2 ADD SWAP3 DUP3 PUSH3 0x4AD JUMPI PUSH1 0x0 DUP6 SSTORE PUSH3 0x4F8 JUMP JUMPDEST DUP3 PUSH1 0x1F LT PUSH3 0x4C8 JUMPI DUP1 MLOAD PUSH1 0xFF NOT AND DUP4 DUP1 ADD OR DUP6 SSTORE PUSH3 0x4F8 JUMP JUMPDEST DUP3 DUP1 ADD PUSH1 0x1 ADD DUP6 SSTORE DUP3 ISZERO PUSH3 0x4F8 JUMPI SWAP2 DUP3 ADD JUMPDEST DUP3 DUP2 GT ISZERO PUSH3 0x4F8 JUMPI DUP3 MLOAD DUP3 SSTORE SWAP2 PUSH1 0x20 ADD SWAP2 SWAP1 PUSH1 0x1 ADD SWAP1 PUSH3 0x4DB JUMP JUMPDEST POP PUSH3 0x506 SWAP3 SWAP2 POP PUSH3 0x50A JUMP JUMPDEST POP SWAP1 JUMP JUMPDEST JUMPDEST DUP1 DUP3 GT ISZERO PUSH3 0x506 JUMPI PUSH1 0x0 DUP2 SSTORE PUSH1 0x1 ADD PUSH3 0x50B JUMP JUMPDEST PUSH1 0x1 DUP2 DUP2 SHR SWAP1 DUP3 AND DUP1 PUSH3 0x536 JUMPI PUSH1 0x7F DUP3 AND SWAP2 POP JUMPDEST PUSH1 0x20 DUP3 LT DUP2 EQ ISZERO PUSH3 0x558 JUMPI PUSH4 0x4E487B71 PUSH1 0xE0 SHL PUSH1 0x0 MSTORE PUSH1 0x22 PUSH1 0x4 MSTORE PUSH1 0x24 PUSH1 0x0 REVERT JUMPDEST POP SWAP2 SWAP1 POP JUMP JUMPDEST PUSH1 0x0 DUP1 DUP4 SLOAD DUP2 PUSH1 0x1 DUP3 DUP2 SHR SWAP2 POP DUP1 DUP4 AND DUP1 PUSH3 0x57B JUMPI PUSH1 0x7F DUP4 AND SWAP3 POP JUMPDEST PUSH1 0x20 DUP1 DUP5 LT DUP3 EQ ISZERO PUSH3 0x59C JUMPI PUSH4 0x4E487B71 PUSH1 0xE0 SHL DUP7 MSTORE PUSH1 0x22 PUSH1 0x4 MSTORE PUSH1 0x24 DUP7 REVERT JUMPDEST DUP2 DUP1 ISZERO PUSH3 0x5B3 JUMPI PUSH1 0x1 DUP2 EQ PUSH3 0x5C5 JUMPI PUSH3 0x5F4 JUMP JUMPDEST PUSH1 0xFF NOT DUP7 AND DUP10 MSTORE DUP5 DUP10 ADD SWAP7 POP PUSH3 0x5F4 JUMP JUMPDEST PUSH1 0x0 DUP11 DUP2 MSTORE PUSH1 0x20 SWAP1 KECCAK256 PUSH1 0x0 JUMPDEST DUP7 DUP2 LT ISZERO PUSH3 0x5EC JUMPI DUP2 SLOAD DUP12 DUP3 ADD MSTORE SWAP1 DUP6 ADD SWAP1 DUP4 ADD PUSH3 0x5D1 JUMP JUMPDEST POP POP DUP5 DUP10 ADD SWAP7 POP JUMPDEST POP POP POP POP POP POP PUSH3 0x614 DUP2 PUSH9 0x3DB4B23E973539B7B7 PUSH1 0xB9 SHL DUP2 MSTORE PUSH1 0x9 ADD SWAP1 JUMP JUMPDEST SWAP5 SWAP4 POP POP POP POP JUMP JUMPDEST PUSH1 0x0 DUP2 PUSH1 0x0 NOT DIV DUP4 GT DUP3 ISZERO ISZERO AND ISZERO PUSH3 0x645 JUMPI PUSH4 0x4E487B71 PUSH1 0xE0 SHL PUSH1 0x0 MSTORE PUSH1 0x11 PUSH1 0x4 MSTORE PUSH1 0x24 PUSH1 0x0 REVERT JUMPDEST POP MUL SWAP1 JUMP JUMPDEST PUSH1 0x0 DUP3 PUSH3 0x668 JUMPI PUSH4 0x4E487B71 PUSH1 0xE0 SHL PUSH1 0x0 MSTORE PUSH1 0x12 PUSH1 0x4 MSTORE PUSH1 0x24 PUSH1 0x0 REVERT JUMPDEST POP DIV SWAP1 JUMP JUMPDEST PUSH2 0x5722 DUP1 PUSH3 0x67D PUSH1 0x0 CODECOPY PUSH1 0x0 RETURN INVALID PUSH1 0x80 PUSH1 0x40 MSTORE PUSH1 0x4 CALLDATASIZE LT PUSH3 0x279 JUMPI PUSH1 0x0 CALLDATALOAD PUSH1 0xE0 SHR DUP1 PUSH4 0x74FCF071 GT PUSH3 0x153 JUMPI DUP1 PUSH4 0xC09C923B GT PUSH3 0xC5 JUMPI DUP1 PUSH4 0xECA01093 GT PUSH3 0x84 JUMPI DUP1 PUSH4 0xECA01093 EQ PUSH3 0x7FD JUMPI DUP1 PUSH4 0xED54E06C EQ PUSH3 0x822 JUMPI DUP1 PUSH4 0xF242432A EQ PUSH3 0x85E JUMPI DUP1 PUSH4 0xF2FDE38B EQ PUSH3 0x883 JUMPI DUP1 PUSH4 0xF36B3FC3 EQ PUSH3 0x8A8 JUMPI DUP1 PUSH4 0xF6524724 EQ PUSH3 0x8CD JUMPI PUSH1 0x0 DUP1 REVERT JUMPDEST DUP1 PUSH4 0xC09C923B EQ PUSH3 0x76D JUMPI DUP1 PUSH4 0xC790985A EQ PUSH3 0x777 JUMPI DUP1 PUSH4 0xCAB4BA82 EQ PUSH3 0x79C JUMPI DUP1 PUSH4 0xD5D60737 EQ PUSH3 0x7C1 JUMPI DUP1 PUSH4 0xE985E9C5 EQ PUSH3 0x7D8 JUMPI PUSH1 0x0 DUP1 REVERT JUMPDEST DUP1 PUSH4 0xA22CB465 GT PUSH3 0x112 JUMPI DUP1 PUSH4 0xA22CB465 EQ PUSH3 0x6C3 JUMPI DUP1 PUSH4 0xA60C6E55 EQ PUSH3 0x6E8 JUMPI DUP1 PUSH4 0xA7FD40BF EQ PUSH3 0x6FF JUMPI DUP1 PUSH4 0xB5D11E99 EQ PUSH3 0x724 JUMPI DUP1 PUSH4 0xBD85B039 EQ PUSH3 0x73C JUMPI PUSH1 0x0 DUP1 REVERT JUMPDEST DUP1 PUSH4 0x74FCF071 EQ PUSH3 0x5DC JUMPI DUP1 PUSH4 0x842980F4 EQ PUSH3 0x601 JUMPI DUP1 PUSH4 0x85B4BB53 EQ PUSH3 0x618 JUMPI DUP1 PUSH4 0x8DA5CB5B EQ PUSH3 0x68B JUMPI DUP1 PUSH4 0x95D89B41 EQ PUSH3 0x6AB JUMPI PUSH1 0x0 DUP1 REVERT JUMPDEST DUP1 PUSH4 0x34E150AB GT PUSH3 0x1ED JUMPI DUP1 PUSH4 0x4E1273F4 GT PUSH3 0x1AC JUMPI DUP1 PUSH4 0x4E1273F4 EQ PUSH3 0x4FE JUMPI DUP1 PUSH4 0x4F558E79 EQ PUSH3 0x532 JUMPI DUP1 PUSH4 0x61417516 EQ PUSH3 0x565 JUMPI DUP1 PUSH4 0x715018A6 EQ PUSH3 0x59F JUMPI DUP1 PUSH4 0x71858049 EQ PUSH3 0x5B7 JUMPI PUSH1 0x0 DUP1 REVERT JUMPDEST DUP1 PUSH4 0x34E150AB EQ PUSH3 0x444 JUMPI DUP1 PUSH4 0x3935AC11 EQ PUSH3 0x478 JUMPI DUP1 PUSH4 0x43FEFAD4 EQ PUSH3 0x49D JUMPI DUP1 PUSH4 0x48B08D62 EQ PUSH3 0x4B4 JUMPI DUP1 PUSH4 0x4C3C0EB2 EQ PUSH3 0x4D9 JUMPI PUSH1 0x0 DUP1 REVERT JUMPDEST DUP1 PUSH4 0xE89341C GT PUSH3 0x23A JUMPI DUP1 PUSH4 0xE89341C EQ PUSH3 0x390 JUMPI DUP1 PUSH4 0x18160DDD EQ PUSH3 0x3B5 JUMPI DUP1 PUSH4 0x224B4FED EQ PUSH3 0x3CD JUMPI DUP1 PUSH4 0x2EB2C2D6 EQ PUSH3 0x409 JUMPI DUP1 PUSH4 0x313CE567 EQ PUSH3 0x42E JUMPI PUSH1 0x0 DUP1 REVERT JUMPDEST DUP1 PUSH3 0x3374B5 EQ PUSH3 0x286 JUMPI DUP1 PUSH3 0xFDD58E EQ PUSH3 0x2AD JUMPI DUP1 PUSH4 0x1FFC9A7 EQ PUSH3 0x2E5 JUMPI DUP1 PUSH4 0x6FB1A07 EQ PUSH3 0x32B JUMPI DUP1 PUSH4 0x6FDDE03 EQ PUSH3 0x369 JUMPI PUSH1 0x0 DUP1 REVERT JUMPDEST CALLDATASIZE PUSH3 0x281 JUMPI STOP JUMPDEST PUSH1 0x0 DUP1 REVERT JUMPDEST CALLVALUE DUP1 ISZERO PUSH3 0x293 JUMPI PUSH1 0x0 DUP1 REVERT JUMPDEST POP PUSH3 0x2AB PUSH3 0x2A5 CALLDATASIZE PUSH1 0x4 PUSH3 0x45E8 JUMP JUMPDEST PUSH3 0x8E4 JUMP JUMPDEST STOP JUMPDEST CALLVALUE DUP1 ISZERO PUSH3 0x2BA JUMPI PUSH1 0x0 DUP1 REVERT JUMPDEST POP PUSH3 0x2D2 PUSH3 0x2CC CALLDATASIZE PUSH1 0x4 PUSH3 0x4611 JUMP JUMPDEST PUSH3 0x9D9 JUMP JUMPDEST PUSH1 0x40 MLOAD SWAP1 DUP2 MSTORE PUSH1 0x20 ADD JUMPDEST PUSH1 0x40 MLOAD DUP1 SWAP2 SUB SWAP1 RETURN JUMPDEST CALLVALUE DUP1 ISZERO PUSH3 0x2F2 JUMPI PUSH1 0x0 DUP1 REVERT JUMPDEST POP PUSH3 0x31A PUSH3 0x304 CALLDATASIZE PUSH1 0x4 PUSH3 0x4657 JUMP JUMPDEST PUSH1 0x1 PUSH1 0x1 PUSH1 0xE0 SHL SUB NOT AND PUSH4 0x1FFC9A7 PUSH1 0xE0 SHL EQ SWAP1 JUMP JUMPDEST PUSH1 0x40 MLOAD SWAP1 ISZERO ISZERO DUP2 MSTORE PUSH1 0x20 ADD PUSH3 0x2DC JUMP JUMPDEST CALLVALUE DUP1 ISZERO PUSH3 0x338 JUMPI PUSH1 0x0 DUP1 REVERT JUMPDEST POP PUSH3 0x350 PUSH3 0x34A CALLDATASIZE PUSH1 0x4 PUSH3 0x4677 JUMP JUMPDEST PUSH3 0xA2E JUMP JUMPDEST PUSH1 0x40 MLOAD PUSH1 0x1 PUSH1 0x1 PUSH1 0xA0 SHL SUB SWAP1 SWAP2 AND DUP2 MSTORE PUSH1 0x20 ADD PUSH3 0x2DC JUMP JUMPDEST CALLVALUE DUP1 ISZERO PUSH3 0x376 JUMPI PUSH1 0x0 DUP1 REVERT JUMPDEST POP PUSH3 0x381 PUSH3 0xAA8 JUMP JUMPDEST PUSH1 0x40 MLOAD PUSH3 0x2DC SWAP2 SWAP1 PUSH3 0x46EE JUMP JUMPDEST CALLVALUE DUP1 ISZERO PUSH3 0x39D JUMPI PUSH1 0x0 DUP1 REVERT JUMPDEST POP PUSH3 0x381 PUSH3 0x3AF CALLDATASIZE PUSH1 0x4 PUSH3 0x4677 JUMP JUMPDEST PUSH3 0xB42 JUMP JUMPDEST CALLVALUE DUP1 ISZERO PUSH3 0x3C2 JUMPI PUSH1 0x0 DUP1 REVERT JUMPDEST POP PUSH3 0x2D2 PUSH3 0xB70 JUMP JUMPDEST CALLVALUE DUP1 ISZERO PUSH3 0x3DA JUMPI PUSH1 0x0 DUP1 REVERT JUMPDEST POP PUSH3 0x2D2 PUSH3 0x3EC CALLDATASIZE PUSH1 0x4 PUSH3 0x4611 JUMP JUMPDEST PUSH1 0x3 PUSH1 0x20 SWAP1 DUP2 MSTORE PUSH1 0x0 SWAP3 DUP4 MSTORE PUSH1 0x40 DUP1 DUP5 KECCAK256 SWAP1 SWAP2 MSTORE SWAP1 DUP3 MSTORE SWAP1 KECCAK256 SLOAD DUP2 JUMP JUMPDEST CALLVALUE DUP1 ISZERO PUSH3 0x416 JUMPI PUSH1 0x0 DUP1 REVERT JUMPDEST POP PUSH3 0x2AB PUSH3 0x428 CALLDATASIZE PUSH1 0x4 PUSH3 0x4797 JUMP JUMPDEST PUSH3 0xBC2 JUMP JUMPDEST CALLVALUE DUP1 ISZERO PUSH3 0x43B JUMPI PUSH1 0x0 DUP1 REVERT JUMPDEST POP PUSH1 0x12 PUSH3 0x2D2 JUMP JUMPDEST CALLVALUE DUP1 ISZERO PUSH3 0x451 JUMPI PUSH1 0x0 DUP1 REVERT JUMPDEST POP PUSH3 0x469 PUSH3 0x463 CALLDATASIZE PUSH1 0x4 PUSH3 0x4864 JUMP JUMPDEST PUSH3 0xC86 JUMP JUMPDEST PUSH1 0x40 MLOAD PUSH3 0x2DC SWAP2 SWAP1 PUSH3 0x48AA JUMP JUMPDEST CALLVALUE DUP1 ISZERO PUSH3 0x485 JUMPI PUSH1 0x0 DUP1 REVERT JUMPDEST POP PUSH3 0x2AB PUSH3 0x497 CALLDATASIZE PUSH1 0x4 PUSH3 0x49A6 JUMP JUMPDEST PUSH3 0xDC8 JUMP JUMPDEST PUSH3 0x2D2 PUSH3 0x4AE CALLDATASIZE PUSH1 0x4 PUSH3 0x4A11 JUMP JUMPDEST PUSH3 0xE2F JUMP JUMPDEST CALLVALUE DUP1 ISZERO PUSH3 0x4C1 JUMPI PUSH1 0x0 DUP1 REVERT JUMPDEST POP PUSH3 0x2D2 PUSH3 0x4D3 CALLDATASIZE PUSH1 0x4 PUSH3 0x4A60 JUMP JUMPDEST PUSH3 0x11D8 JUMP JUMPDEST CALLVALUE DUP1 ISZERO PUSH3 0x4E6 JUMPI PUSH1 0x0 DUP1 REVERT JUMPDEST POP PUSH3 0x2D2 PUSH3 0x4F8 CALLDATASIZE PUSH1 0x4 PUSH3 0x4AA6 JUMP JUMPDEST PUSH3 0x1345 JUMP JUMPDEST CALLVALUE DUP1 ISZERO PUSH3 0x50B JUMPI PUSH1 0x0 DUP1 REVERT JUMPDEST POP PUSH3 0x523 PUSH3 0x51D CALLDATASIZE PUSH1 0x4 PUSH3 0x4AC6 JUMP JUMPDEST PUSH3 0x13B6 JUMP JUMPDEST PUSH1 0x40 MLOAD PUSH3 0x2DC SWAP2 SWAP1 PUSH3 0x4B39 JUMP JUMPDEST CALLVALUE DUP1 ISZERO PUSH3 0x53F JUMPI PUSH1 0x0 DUP1 REVERT JUMPDEST POP PUSH3 0x31A PUSH3 0x551 CALLDATASIZE PUSH1 0x4 PUSH3 0x4677 JUMP JUMPDEST PUSH1 0x0 SWAP1 DUP2 MSTORE PUSH1 0x12 PUSH1 0x20 MSTORE PUSH1 0x40 SWAP1 KECCAK256 SLOAD ISZERO ISZERO SWAP1 JUMP JUMPDEST CALLVALUE DUP1 ISZERO PUSH3 0x572 JUMPI PUSH1 0x0 DUP1 REVERT JUMPDEST POP PUSH3 0x2D2 PUSH3 0x584 CALLDATASIZE PUSH1 0x4 PUSH3 0x4AA6 JUMP JUMPDEST PUSH1 0x1 PUSH1 0x1 PUSH1 0xA0 SHL SUB AND PUSH1 0x0 SWAP1 DUP2 MSTORE PUSH1 0x2 PUSH1 0x20 MSTORE PUSH1 0x40 SWAP1 KECCAK256 SLOAD SWAP1 JUMP JUMPDEST CALLVALUE DUP1 ISZERO PUSH3 0x5AC JUMPI PUSH1 0x0 DUP1 REVERT JUMPDEST POP PUSH3 0x2AB PUSH3 0x14C1 JUMP JUMPDEST CALLVALUE DUP1 ISZERO PUSH3 0x5C4 JUMPI PUSH1 0x0 DUP1 REVERT JUMPDEST POP PUSH3 0x2AB PUSH3 0x5D6 CALLDATASIZE PUSH1 0x4 PUSH3 0x4611 JUMP JUMPDEST PUSH3 0x150B JUMP JUMPDEST CALLVALUE DUP1 ISZERO PUSH3 0x5E9 JUMPI PUSH1 0x0 DUP1 REVERT JUMPDEST POP PUSH3 0x2D2 PUSH3 0x5FB CALLDATASIZE PUSH1 0x4 PUSH3 0x4A11 JUMP JUMPDEST PUSH3 0x1689 JUMP JUMPDEST PUSH3 0x2AB PUSH3 0x612 CALLDATASIZE PUSH1 0x4 PUSH3 0x4A11 JUMP JUMPDEST PUSH3 0x171A JUMP JUMPDEST CALLVALUE DUP1 ISZERO PUSH3 0x625 JUMPI PUSH1 0x0 DUP1 REVERT JUMPDEST POP PUSH3 0x630 PUSH3 0x1730 JUMP JUMPDEST PUSH1 0x40 MLOAD PUSH3 0x2DC SWAP2 SWAP1 DUP2 MLOAD PUSH1 0x1 PUSH1 0x1 PUSH1 0xA0 SHL SUB AND DUP2 MSTORE PUSH1 0x20 DUP1 DUP4 ADD MLOAD SWAP1 DUP3 ADD MSTORE PUSH1 0x40 DUP1 DUP4 ADD MLOAD SWAP1 DUP3 ADD MSTORE PUSH1 0x60 DUP1 DUP4 ADD MLOAD SWAP1 DUP3 ADD MSTORE PUSH1 0x80 DUP1 DUP4 ADD MLOAD SWAP1 DUP3 ADD MSTORE PUSH1 0xA0 DUP3 DUP2 ADD MLOAD SWAP1 DUP3 ADD MSTORE PUSH1 0xC0 SWAP2 DUP3 ADD MLOAD SWAP2 DUP2 ADD SWAP2 SWAP1 SWAP2 MSTORE PUSH1 0xE0 ADD SWAP1 JUMP JUMPDEST CALLVALUE DUP1 ISZERO PUSH3 0x698 JUMPI PUSH1 0x0 DUP1 REVERT JUMPDEST POP PUSH1 0x16 SLOAD PUSH1 0x1 PUSH1 0x1 PUSH1 0xA0 SHL SUB AND PUSH3 0x350 JUMP JUMPDEST CALLVALUE DUP1 ISZERO PUSH3 0x6B8 JUMPI PUSH1 0x0 DUP1 REVERT JUMPDEST POP PUSH3 0x381 PUSH3 0x17C8 JUMP JUMPDEST CALLVALUE DUP1 ISZERO PUSH3 0x6D0 JUMPI PUSH1 0x0 DUP1 REVERT JUMPDEST POP PUSH3 0x2AB PUSH3 0x6E2 CALLDATASIZE PUSH1 0x4 PUSH3 0x4B8E JUMP JUMPDEST PUSH3 0x17D9 JUMP JUMPDEST PUSH3 0x523 PUSH3 0x6F9 CALLDATASIZE PUSH1 0x4 PUSH3 0x4BCC JUMP JUMPDEST PUSH3 0x184B JUMP JUMPDEST CALLVALUE DUP1 ISZERO PUSH3 0x70C JUMPI PUSH1 0x0 DUP1 REVERT JUMPDEST POP PUSH3 0x2AB PUSH3 0x71E CALLDATASIZE PUSH1 0x4 PUSH3 0x4C3A JUMP JUMPDEST PUSH3 0x1CFC JUMP JUMPDEST CALLVALUE DUP1 ISZERO PUSH3 0x731 JUMPI PUSH1 0x0 DUP1 REVERT JUMPDEST POP PUSH3 0x2AB PUSH3 0x1D74 JUMP JUMPDEST CALLVALUE DUP1 ISZERO PUSH3 0x749 JUMPI PUSH1 0x0 DUP1 REVERT JUMPDEST POP PUSH3 0x2D2 PUSH3 0x75B CALLDATASIZE PUSH1 0x4 PUSH3 0x4677 JUMP JUMPDEST PUSH1 0x0 SWAP1 DUP2 MSTORE PUSH1 0x12 PUSH1 0x20 MSTORE PUSH1 0x40 SWAP1 KECCAK256 SLOAD SWAP1 JUMP JUMPDEST PUSH3 0x2AB PUSH3 0x1DD6 JUMP JUMPDEST CALLVALUE DUP1 ISZERO PUSH3 0x784 JUMPI PUSH1 0x0 DUP1 REVERT JUMPDEST POP PUSH3 0x2D2 PUSH3 0x796 CALLDATASIZE PUSH1 0x4 PUSH3 0x4A60 JUMP JUMPDEST PUSH3 0x1E45 JUMP JUMPDEST CALLVALUE DUP1 ISZERO PUSH3 0x7A9 JUMPI PUSH1 0x0 DUP1 REVERT JUMPDEST POP PUSH3 0x2AB PUSH3 0x7BB CALLDATASIZE PUSH1 0x4 PUSH3 0x4611 JUMP JUMPDEST PUSH3 0x1F98 JUMP JUMPDEST PUSH3 0x2AB PUSH3 0x7D2 CALLDATASIZE PUSH1 0x4 PUSH3 0x4A11 JUMP JUMPDEST PUSH3 0x20DE JUMP JUMPDEST CALLVALUE DUP1 ISZERO PUSH3 0x7E5 JUMPI PUSH1 0x0 DUP1 REVERT JUMPDEST POP PUSH3 0x31A PUSH3 0x7F7 CALLDATASIZE PUSH1 0x4 PUSH3 0x4C74 JUMP JUMPDEST PUSH3 0x2130 JUMP JUMPDEST CALLVALUE DUP1 ISZERO PUSH3 0x80A JUMPI PUSH1 0x0 DUP1 REVERT JUMPDEST POP PUSH3 0x2AB PUSH3 0x81C CALLDATASIZE PUSH1 0x4 PUSH3 0x4CA7 JUMP JUMPDEST PUSH3 0x215E JUMP JUMPDEST CALLVALUE DUP1 ISZERO PUSH3 0x82F JUMPI PUSH1 0x0 DUP1 REVERT JUMPDEST POP PUSH3 0x2D2 PUSH3 0x841 CALLDATASIZE PUSH1 0x4 PUSH3 0x4611 JUMP JUMPDEST PUSH1 0x4 PUSH1 0x20 SWAP1 DUP2 MSTORE PUSH1 0x0 SWAP3 DUP4 MSTORE PUSH1 0x40 DUP1 DUP5 KECCAK256 SWAP1 SWAP2 MSTORE SWAP1 DUP3 MSTORE SWAP1 KECCAK256 SLOAD DUP2 JUMP JUMPDEST CALLVALUE DUP1 ISZERO PUSH3 0x86B JUMPI PUSH1 0x0 DUP1 REVERT JUMPDEST POP PUSH3 0x2AB PUSH3 0x87D CALLDATASIZE PUSH1 0x4 PUSH3 0x4D23 JUMP JUMPDEST PUSH3 0x21AC JUMP JUMPDEST CALLVALUE DUP1 ISZERO PUSH3 0x890 JUMPI PUSH1 0x0 DUP1 REVERT JUMPDEST POP PUSH3 0x2AB PUSH3 0x8A2 CALLDATASIZE PUSH1 0x4 PUSH3 0x4AA6 JUMP JUMPDEST PUSH3 0x226C JUMP JUMPDEST CALLVALUE DUP1 ISZERO PUSH3 0x8B5 JUMPI PUSH1 0x0 DUP1 REVERT JUMPDEST POP PUSH3 0x2AB PUSH3 0x8C7 CALLDATASIZE PUSH1 0x4 PUSH3 0x4DA7 JUMP JUMPDEST PUSH3 0x22DE JUMP JUMPDEST PUSH3 0x523 PUSH3 0x8DE CALLDATASIZE PUSH1 0x4 PUSH3 0x4BCC JUMP JUMPDEST PUSH3 0x2358 JUMP JUMPDEST CALLER PUSH3 0x8F8 PUSH1 0x16 SLOAD PUSH1 0x1 PUSH1 0x1 PUSH1 0xA0 SHL SUB AND SWAP1 JUMP JUMPDEST PUSH1 0x1 PUSH1 0x1 PUSH1 0xA0 SHL SUB AND EQ PUSH3 0x920 JUMPI PUSH1 0x40 MLOAD PUSH4 0xEBF98459 PUSH1 0xE0 SHL DUP2 MSTORE PUSH1 0x4 ADD PUSH1 0x40 MLOAD DUP1 SWAP2 SUB SWAP1 REVERT JUMPDEST PUSH1 0x40 DUP2 ADD CALLDATALOAD ISZERO DUP1 PUSH3 0x939 JUMPI POP DUP1 PUSH1 0x60 ADD CALLDATALOAD DUP2 PUSH1 0x40 ADD CALLDATALOAD GT JUMPDEST DUP1 PUSH3 0x94A JUMPI POP PUSH2 0x1F4 DUP2 PUSH1 0x60 ADD CALLDATALOAD GT JUMPDEST ISZERO PUSH3 0x969 JUMPI PUSH1 0x40 MLOAD PUSH4 0x7420258D PUSH1 0xE1 SHL DUP2 MSTORE PUSH1 0x4 ADD PUSH1 0x40 MLOAD DUP1 SWAP2 SUB SWAP1 REVERT JUMPDEST DUP1 PUSH1 0xA0 ADD CALLDATALOAD DUP2 PUSH1 0x80 ADD CALLDATALOAD GT ISZERO PUSH3 0x993 JUMPI PUSH1 0x40 MLOAD PUSH4 0x75E1700B PUSH1 0xE1 SHL DUP2 MSTORE PUSH1 0x4 ADD PUSH1 0x40 MLOAD DUP1 SWAP2 SUB SWAP1 REVERT JUMPDEST PUSH1 0x64 PUSH3 0x9A6 PUSH1 0x20 DUP4 ADD CALLDATALOAD PUSH1 0x2 PUSH3 0x4DDE JUMP JUMPDEST LT PUSH3 0x9C5 JUMPI PUSH1 0x40 MLOAD PUSH4 0x1457C3C3 PUSH1 0xE1 SHL DUP2 MSTORE PUSH1 0x4 ADD PUSH1 0x40 MLOAD DUP1 SWAP2 SUB SWAP1 REVERT JUMPDEST DUP1 PUSH1 0x8 PUSH3 0x9D4 DUP3 DUP3 PUSH3 0x4E00 JUMP JUMPDEST POP POP POP JUMP JUMPDEST PUSH1 0x0 PUSH1 0x1 PUSH1 0x1 PUSH1 0xA0 SHL SUB DUP4 AND PUSH3 0xA03 JUMPI PUSH1 0x40 MLOAD PUSH4 0x6E3B4547 PUSH1 0xE1 SHL DUP2 MSTORE PUSH1 0x4 ADD PUSH1 0x40 MLOAD DUP1 SWAP2 SUB SWAP1 REVERT JUMPDEST POP PUSH1 0x0 DUP2 DUP2 MSTORE PUSH1 0xF PUSH1 0x20 SWAP1 DUP2 MSTORE PUSH1 0x40 DUP1 DUP4 KECCAK256 PUSH1 0x1 PUSH1 0x1 PUSH1 0xA0 SHL SUB DUP7 AND DUP5 MSTORE SWAP1 SWAP2 MSTORE SWAP1 KECCAK256 SLOAD JUMPDEST SWAP3 SWAP2 POP POP JUMP JUMPDEST PUSH1 0x40 MLOAD PUSH4 0x6FB1A07 PUSH1 0xE0 SHL DUP2 MSTORE PUSH1 0x4 DUP2 ADD DUP3 SWAP1 MSTORE PUSH1 0x0 SWAP1 PUSH20 0xDEF1FAC7BF08F173D286BBBDCBEEADE695129840 SWAP1 PUSH4 0x6FB1A07 SWAP1 PUSH1 0x24 ADD PUSH1 0x20 PUSH1 0x40 MLOAD DUP1 DUP4 SUB DUP2 DUP7 GAS STATICCALL ISZERO DUP1 ISZERO PUSH3 0xA82 JUMPI RETURNDATASIZE PUSH1 0x0 DUP1 RETURNDATACOPY RETURNDATASIZE PUSH1 0x0 REVERT JUMPDEST POP POP POP POP PUSH1 0x40 MLOAD RETURNDATASIZE PUSH1 0x1F NOT PUSH1 0x1F DUP3 ADD AND DUP3 ADD DUP1 PUSH1 0x40 MSTORE POP DUP2 ADD SWAP1 PUSH3 0xA28 SWAP2 SWAP1 PUSH3 0x4E68 JUMP JUMPDEST PUSH1 0x60 PUSH1 0x13 DUP1 SLOAD PUSH3 0xAB9 SWAP1 PUSH3 0x4E88 JUMP JUMPDEST DUP1 PUSH1 0x1F ADD PUSH1 0x20 DUP1 SWAP2 DIV MUL PUSH1 0x20 ADD PUSH1 0x40 MLOAD SWAP1 DUP2 ADD PUSH1 0x40 MSTORE DUP1 SWAP3 SWAP2 SWAP1 DUP2 DUP2 MSTORE PUSH1 0x20 ADD DUP3 DUP1 SLOAD PUSH3 0xAE7 SWAP1 PUSH3 0x4E88 JUMP JUMPDEST DUP1 ISZERO PUSH3 0xB38 JUMPI DUP1 PUSH1 0x1F LT PUSH3 0xB0C JUMPI PUSH2 0x100 DUP1 DUP4 SLOAD DIV MUL DUP4 MSTORE SWAP2 PUSH1 0x20 ADD SWAP2 PUSH3 0xB38 JUMP JUMPDEST DUP3 ADD SWAP2 SWAP1 PUSH1 0x0 MSTORE PUSH1 0x20 PUSH1 0x0 KECCAK256 SWAP1 JUMPDEST DUP2 SLOAD DUP2 MSTORE SWAP1 PUSH1 0x1 ADD SWAP1 PUSH1 0x20 ADD DUP1 DUP4 GT PUSH3 0xB1A JUMPI DUP3 SWAP1 SUB PUSH1 0x1F AND DUP3 ADD SWAP2 JUMPDEST POP POP POP POP POP SWAP1 POP SWAP1 JUMP JUMPDEST PUSH1 0x60 PUSH1 0x15 DUP3 PUSH1 0x40 MLOAD PUSH1 0x20 ADD PUSH3 0xB5A SWAP3 SWAP2 SWAP1 PUSH3 0x4EBF JUMP JUMPDEST PUSH1 0x40 MLOAD PUSH1 0x20 DUP2 DUP4 SUB SUB DUP2 MSTORE SWAP1 PUSH1 0x40 MSTORE SWAP1 POP SWAP2 SWAP1 POP JUMP JUMPDEST PUSH1 0x0 DUP1 PUSH1 0x0 JUMPDEST PUSH1 0x0 PUSH1 0x12 DUP2 PUSH3 0xB86 DUP6 PUSH3 0x4F7F JUMP JUMPDEST SWAP5 POP DUP5 DUP2 MSTORE PUSH1 0x20 ADD SWAP1 DUP2 MSTORE PUSH1 0x20 ADD PUSH1 0x0 KECCAK256 SLOAD GT ISZERO PUSH3 0xA28 JUMPI PUSH1 0x0 DUP3 DUP2 MSTORE PUSH1 0x12 PUSH1 0x20 MSTORE PUSH1 0x40 SWAP1 KECCAK256 SLOAD PUSH3 0xBBA SWAP1 DUP3 PUSH3 0x4F9D JUMP JUMPDEST SWAP1 POP PUSH3 0xB76 JUMP JUMPDEST PUSH1 0x0 PUSH3 0xBD0 PUSH1 0x3 PUSH3 0xA2E JUMP JUMPDEST SWAP1 POP DUP1 PUSH1 0x1 PUSH1 0x1 PUSH1 0xA0 SHL SUB AND PUSH4 0xEEF84BA1 PUSH1 0x40 MLOAD DUP2 PUSH4 0xFFFFFFFF AND PUSH1 0xE0 SHL DUP2 MSTORE PUSH1 0x4 ADD PUSH1 0x0 PUSH1 0x40 MLOAD DUP1 DUP4 SUB DUP2 PUSH1 0x0 DUP8 DUP1 EXTCODESIZE ISZERO DUP1 ISZERO PUSH3 0xC0E JUMPI PUSH1 0x0 DUP1 REVERT JUMPDEST POP GAS CALL ISZERO DUP1 ISZERO PUSH3 0xC23 JUMPI RETURNDATASIZE PUSH1 0x0 DUP1 RETURNDATACOPY RETURNDATASIZE PUSH1 0x0 REVERT JUMPDEST POP POP POP POP PUSH1 0x1 PUSH1 0x1 PUSH1 0xA0 SHL SUB DUP10 AND CALLER EQ DUP1 ISZERO SWAP1 PUSH3 0xC4A JUMPI POP PUSH3 0xC48 DUP10 CALLER PUSH3 0x2130 JUMP JUMPDEST ISZERO JUMPDEST ISZERO PUSH3 0xC69 JUMPI PUSH1 0x40 MLOAD PUSH4 0xDE69555 PUSH1 0xE3 SHL DUP2 MSTORE PUSH1 0x4 ADD PUSH1 0x40 MLOAD DUP1 SWAP2 SUB SWAP1 REVERT JUMPDEST PUSH3 0xC7B DUP10 DUP10 DUP10 DUP10 DUP10 DUP10 DUP10 DUP10 PUSH3 0x2865 JUMP JUMPDEST POP POP POP POP POP POP POP POP POP JUMP JUMPDEST PUSH1 0x60 PUSH1 0x0 DUP3 PUSH8 0xFFFFFFFFFFFFFFFF DUP2 GT ISZERO PUSH3 0xCA6 JUMPI PUSH3 0xCA6 PUSH3 0x48FB JUMP JUMPDEST PUSH1 0x40 MLOAD SWAP1 DUP1 DUP3 MSTORE DUP1 PUSH1 0x20 MUL PUSH1 0x20 ADD DUP3 ADD PUSH1 0x40 MSTORE DUP1 ISZERO PUSH3 0xCED JUMPI DUP2 PUSH1 0x20 ADD JUMPDEST PUSH1 0x40 DUP1 MLOAD DUP1 DUP3 ADD SWAP1 SWAP2 MSTORE PUSH1 0x0 DUP1 DUP3 MSTORE PUSH1 0x20 DUP3 ADD MSTORE DUP2 MSTORE PUSH1 0x20 ADD SWAP1 PUSH1 0x1 SWAP1 SUB SWAP1 DUP2 PUSH3 0xCC5 JUMPI SWAP1 POP JUMPDEST POP SWAP1 POP PUSH1 0x0 JUMPDEST DUP4 DUP2 LT ISZERO PUSH3 0xDC0 JUMPI PUSH1 0x0 DUP6 DUP6 DUP4 DUP2 DUP2 LT PUSH3 0xD13 JUMPI PUSH3 0xD13 PUSH3 0x4FB8 JUMP JUMPDEST SWAP1 POP PUSH1 0x20 MUL ADD PUSH1 0x20 DUP2 ADD SWAP1 PUSH3 0xD2A SWAP2 SWAP1 PUSH3 0x4AA6 JUMP JUMPDEST PUSH1 0x1 PUSH1 0x1 PUSH1 0xA0 SHL SUB DUP2 AND PUSH1 0x0 SWAP1 DUP2 MSTORE PUSH1 0x2 PUSH1 0x20 MSTORE PUSH1 0x40 DUP2 KECCAK256 SLOAD PUSH1 0x1 DUP1 SLOAD SWAP4 SWAP5 POP SWAP2 SWAP3 DUP2 LT PUSH3 0xD5D JUMPI PUSH3 0xD5D PUSH3 0x4FB8 JUMP JUMPDEST PUSH1 0x0 SWAP2 DUP3 MSTORE PUSH1 0x20 SWAP1 SWAP2 KECCAK256 PUSH1 0x2 SWAP1 SWAP2 MUL ADD DUP1 SLOAD SWAP1 SWAP2 POP PUSH3 0xD88 SWAP1 DUP4 SWAP1 PUSH1 0x1 PUSH1 0x1 PUSH1 0xA0 SHL SUB AND PUSH3 0x2B19 JUMP JUMPDEST DUP5 DUP5 DUP2 MLOAD DUP2 LT PUSH3 0xD9D JUMPI PUSH3 0xD9D PUSH3 0x4FB8 JUMP JUMPDEST PUSH1 0x20 MUL PUSH1 0x20 ADD ADD DUP2 SWAP1 MSTORE POP POP POP DUP1 DUP1 PUSH3 0xDB7 SWAP1 PUSH3 0x4F7F JUMP JUMPDEST SWAP2 POP POP PUSH3 0xCF3 JUMP JUMPDEST POP SWAP4 SWAP3 POP POP POP JUMP JUMPDEST CALLER PUSH3 0xDDC PUSH1 0x16 SLOAD PUSH1 0x1 PUSH1 0x1 PUSH1 0xA0 SHL SUB AND SWAP1 JUMP JUMPDEST PUSH1 0x1 PUSH1 0x1 PUSH1 0xA0 SHL SUB AND EQ PUSH3 0xE04 JUMPI PUSH1 0x40 MLOAD PUSH4 0xEBF98459 PUSH1 0xE0 SHL DUP2 MSTORE PUSH1 0x4 ADD PUSH1 0x40 MLOAD DUP1 SWAP2 SUB SWAP1 REVERT JUMPDEST DUP2 MLOAD PUSH3 0xE19 SWAP1 PUSH1 0x13 SWAP1 PUSH1 0x20 DUP6 ADD SWAP1 PUSH3 0x44B7 JUMP JUMPDEST POP DUP1 MLOAD PUSH3 0x9D4 SWAP1 PUSH1 0x14 SWAP1 PUSH1 0x20 DUP5 ADD SWAP1 PUSH3 0x44B7 JUMP JUMPDEST PUSH1 0x1 PUSH1 0x1 PUSH1 0xA0 SHL SUB DUP5 AND PUSH1 0x0 SWAP1 DUP2 MSTORE PUSH1 0x2 PUSH1 0x20 MSTORE PUSH1 0x40 DUP2 KECCAK256 SLOAD DUP6 SWAP1 ISZERO DUP1 PUSH3 0xE64 JUMPI POP PUSH1 0x0 SLOAD PUSH1 0x1 PUSH1 0x1 PUSH1 0xA0 SHL SUB DUP3 DUP2 AND SWAP2 AND EQ JUMPDEST ISZERO PUSH3 0xE8D JUMPI PUSH1 0x40 MLOAD PUSH3 0x461BCD PUSH1 0xE5 SHL DUP2 MSTORE PUSH1 0x4 ADD PUSH3 0xE84 SWAP1 PUSH3 0x4FCE JUMP JUMPDEST PUSH1 0x40 MLOAD DUP1 SWAP2 SUB SWAP1 REVERT JUMPDEST DUP4 DUP1 TIMESTAMP GT ISZERO PUSH3 0xEB1 JUMPI PUSH1 0x40 MLOAD PUSH3 0x461BCD PUSH1 0xE5 SHL DUP2 MSTORE PUSH1 0x4 ADD PUSH3 0xE84 SWAP1 PUSH3 0x4FE9 JUMP JUMPDEST PUSH1 0x1 PUSH1 0x1 PUSH1 0xA0 SHL SUB DUP8 AND PUSH1 0x0 SWAP1 DUP2 MSTORE PUSH1 0x2 PUSH1 0x20 MSTORE PUSH1 0x40 DUP2 KECCAK256 SLOAD PUSH1 0x1 DUP1 SLOAD SWAP2 SWAP3 SWAP2 DUP4 SWAP1 DUP2 LT PUSH3 0xEE4 JUMPI PUSH3 0xEE4 PUSH3 0x4FB8 JUMP JUMPDEST PUSH1 0x0 SWAP2 DUP3 MSTORE PUSH1 0x20 DUP3 KECCAK256 PUSH1 0x2 SWAP1 SWAP2 MUL ADD DUP1 SLOAD SWAP1 SWAP3 POP PUSH3 0xF0E SWAP1 DUP12 SWAP1 PUSH1 0x1 PUSH1 0x1 PUSH1 0xA0 SHL SUB AND PUSH3 0x2B19 JUMP JUMPDEST DUP3 SLOAD SWAP1 SWAP2 POP PUSH3 0xF2C SWAP1 DUP12 SWAP1 CALLER SWAP1 PUSH1 0x1 PUSH1 0x1 PUSH1 0xA0 SHL SUB AND DUP13 PUSH3 0x2B6D JUMP JUMPDEST DUP2 SLOAD PUSH1 0x0 SWAP1 PUSH3 0xF47 SWAP1 DUP13 SWAP1 PUSH1 0x1 PUSH1 0x1 PUSH1 0xA0 SHL SUB AND PUSH3 0x2B19 JUMP JUMPDEST DUP3 MLOAD DUP2 MLOAD SWAP2 SWAP3 POP PUSH3 0xF59 SWAP2 PUSH3 0x5004 JUMP JUMPDEST SWAP10 POP PUSH1 0x1 DUP11 GT PUSH3 0xF7E JUMPI PUSH1 0x40 MLOAD PUSH3 0x461BCD PUSH1 0xE5 SHL DUP2 MSTORE PUSH1 0x4 ADD PUSH3 0xE84 SWAP1 PUSH3 0x501E JUMP JUMPDEST PUSH1 0x0 PUSH3 0xFA0 DUP4 PUSH1 0x20 ADD MLOAD DUP5 PUSH1 0x0 ADD MLOAD PUSH3 0xF9A SWAP2 SWAP1 PUSH3 0x4DDE JUMP JUMPDEST PUSH3 0x2CD8 JUMP JUMPDEST PUSH1 0x1 DUP6 ADD SLOAD PUSH1 0x0 DUP8 DUP2 MSTORE PUSH1 0x12 PUSH1 0x20 MSTORE PUSH1 0x40 DUP2 KECCAK256 SLOAD SWAP3 SWAP4 POP SWAP2 PUSH3 0xFCF SWAP2 PUSH1 0x1 PUSH1 0x1 PUSH1 0x80 SHL SUB AND SWAP1 DUP5 SWAP1 PUSH3 0x2D56 JUMP JUMPDEST PUSH1 0x8 SLOAD PUSH1 0x40 DUP1 MLOAD PUSH1 0x20 DUP2 ADD SWAP1 SWAP2 MSTORE PUSH1 0x0 DUP2 MSTORE SWAP2 SWAP3 POP PUSH3 0xFFF SWAP2 PUSH1 0x1 PUSH1 0x1 PUSH1 0xA0 SHL SUB SWAP1 SWAP2 AND SWAP1 DUP9 SWAP1 DUP5 SWAP1 PUSH3 0x2DEE JUMP JUMPDEST DUP4 MLOAD PUSH1 0x0 DUP8 DUP2 MSTORE PUSH1 0x12 PUSH1 0x20 MSTORE PUSH1 0x40 DUP2 KECCAK256 SLOAD SWAP1 SWAP2 SWAP1 PUSH3 0x101F SWAP1 DUP16 PUSH3 0x4DDE JUMP JUMPDEST PUSH3 0x102B SWAP2 SWAP1 PUSH3 0x5039 JUMP JUMPDEST SWAP1 POP PUSH3 0x104A DUP12 DUP9 DUP4 PUSH1 0x40 MLOAD DUP1 PUSH1 0x20 ADD PUSH1 0x40 MSTORE DUP1 PUSH1 0x0 DUP2 MSTORE POP PUSH3 0x2DEE JUMP JUMPDEST PUSH1 0x0 DUP6 PUSH1 0x0 ADD MLOAD DUP7 PUSH1 0x20 ADD MLOAD DUP16 PUSH3 0x1063 SWAP2 SWAP1 PUSH3 0x4DDE JUMP JUMPDEST PUSH3 0x106F SWAP2 SWAP1 PUSH3 0x5039 JUMP JUMPDEST SWAP1 POP PUSH1 0x1 DUP2 GT PUSH3 0x1092 JUMPI PUSH1 0x40 MLOAD PUSH3 0x1037CB PUSH1 0xE9 SHL DUP2 MSTORE PUSH1 0x4 ADD PUSH1 0x40 MLOAD DUP1 SWAP2 SUB SWAP1 REVERT JUMPDEST PUSH1 0x0 SLOAD DUP8 SLOAD PUSH1 0x40 MLOAD PUSH4 0xBB9FF5D PUSH1 0xE0 SHL DUP2 MSTORE PUSH1 0x1 PUSH1 0x1 PUSH1 0xA0 SHL SUB SWAP2 DUP3 AND PUSH1 0x4 DUP3 ADD MSTORE PUSH1 0x24 DUP2 ADD DUP5 SWAP1 MSTORE SWAP2 AND SWAP1 PUSH4 0xBB9FF5D SWAP1 PUSH1 0x44 ADD PUSH1 0x0 PUSH1 0x40 MLOAD DUP1 DUP4 SUB DUP2 PUSH1 0x0 DUP8 DUP1 EXTCODESIZE ISZERO DUP1 ISZERO PUSH3 0x10E2 JUMPI PUSH1 0x0 DUP1 REVERT JUMPDEST POP GAS CALL ISZERO DUP1 ISZERO PUSH3 0x10F7 JUMPI RETURNDATASIZE PUSH1 0x0 DUP1 RETURNDATACOPY RETURNDATASIZE PUSH1 0x0 REVERT JUMPDEST POP POP POP POP PUSH1 0x20 DUP6 ADD MLOAD DUP6 MLOAD PUSH3 0x1112 SWAP2 PUSH3 0xF9A SWAP2 PUSH3 0x4DDE JUMP JUMPDEST DUP8 PUSH1 0x1 ADD PUSH1 0x0 PUSH2 0x100 EXP DUP2 SLOAD DUP2 PUSH1 0x1 PUSH1 0x1 PUSH1 0x80 SHL SUB MUL NOT AND SWAP1 DUP4 PUSH1 0x1 PUSH1 0x1 PUSH1 0x80 SHL SUB AND MUL OR SWAP1 SSTORE POP PUSH32 0x64B83944E79C3CE8D4C297411DE637C3E102D064677AAC0C163976EBDCD6F50E DUP16 DUP16 DUP4 DUP6 PUSH1 0x40 MLOAD PUSH3 0x1171 SWAP5 SWAP4 SWAP3 SWAP2 SWAP1 PUSH3 0x505C JUMP JUMPDEST PUSH1 0x40 MLOAD DUP1 SWAP2 SUB SWAP1 LOG1 PUSH1 0x0 DUP1 MLOAD PUSH1 0x20 PUSH3 0x56CD DUP4 CODECOPY DUP2 MLOAD SWAP2 MSTORE DUP16 DUP7 PUSH1 0x0 ADD MLOAD DUP8 PUSH1 0x20 ADD MLOAD DUP11 PUSH1 0x1 ADD PUSH1 0x10 SWAP1 SLOAD SWAP1 PUSH2 0x100 EXP SWAP1 DIV PUSH1 0x1 PUSH1 0x1 PUSH1 0x80 SHL SUB AND PUSH1 0x40 MLOAD PUSH3 0x11BE SWAP5 SWAP4 SWAP3 SWAP2 SWAP1 PUSH3 0x5082 JUMP JUMPDEST PUSH1 0x40 MLOAD DUP1 SWAP2 SUB SWAP1 LOG1 POP SWAP14 SWAP13 POP POP POP POP POP POP POP POP POP POP POP POP POP JUMP JUMPDEST PUSH1 0x1 PUSH1 0x1 PUSH1 0xA0 SHL SUB DUP4 AND PUSH1 0x0 SWAP1 DUP2 MSTORE PUSH1 0x2 PUSH1 0x20 MSTORE PUSH1 0x40 DUP2 KECCAK256 SLOAD PUSH1 0x1 DUP1 SLOAD DUP4 SWAP3 DUP4 SWAP3 SWAP2 DUP2 LT PUSH3 0x120B JUMPI PUSH3 0x120B PUSH3 0x4FB8 JUMP JUMPDEST PUSH1 0x0 SWAP2 DUP3 MSTORE PUSH1 0x20 DUP1 DUP4 KECCAK256 PUSH1 0x2 SWAP3 DUP4 MUL ADD SLOAD PUSH1 0x1 PUSH1 0x1 PUSH1 0xA0 SHL SUB DUP10 DUP2 AND DUP6 MSTORE SWAP3 SWAP1 SWAP2 MSTORE PUSH1 0x40 DUP4 KECCAK256 SLOAD PUSH1 0x1 DUP1 SLOAD SWAP4 SWAP1 SWAP3 AND SWAP5 POP SWAP1 SWAP2 DUP2 LT PUSH3 0x124F JUMPI PUSH3 0x124F PUSH3 0x4FB8 JUMP JUMPDEST PUSH1 0x0 SWAP2 DUP3 MSTORE PUSH1 0x20 DUP3 KECCAK256 PUSH1 0x2 SWAP1 SWAP2 MUL ADD SLOAD SWAP1 SLOAD PUSH1 0x1 PUSH1 0x1 PUSH1 0xA0 SHL SUB SWAP2 DUP3 AND SWAP3 POP DUP9 DUP3 AND SWAP2 AND EQ DUP1 ISZERO SWAP1 PUSH3 0x128F JUMPI POP PUSH1 0x0 SLOAD PUSH1 0x1 PUSH1 0x1 PUSH1 0xA0 SHL SUB DUP8 DUP2 AND SWAP2 AND EQ JUMPDEST ISZERO PUSH3 0x12B9 JUMPI PUSH3 0x12AD PUSH3 0x12A5 DUP9 DUP5 PUSH3 0x2B19 JUMP JUMPDEST DUP9 DUP8 PUSH3 0x2EC2 JUMP JUMPDEST SWAP4 POP PUSH3 0x133E SWAP3 POP POP POP JUMP JUMPDEST PUSH1 0x0 SLOAD PUSH1 0x1 PUSH1 0x1 PUSH1 0xA0 SHL SUB DUP9 DUP2 AND SWAP2 AND EQ DUP1 ISZERO PUSH3 0x12E5 JUMPI POP PUSH1 0x0 SLOAD PUSH1 0x1 PUSH1 0x1 PUSH1 0xA0 SHL SUB DUP8 DUP2 AND SWAP2 AND EQ ISZERO JUMPDEST ISZERO PUSH3 0x1303 JUMPI PUSH3 0x12AD PUSH3 0x12FB DUP8 DUP4 PUSH3 0x2B19 JUMP JUMPDEST DUP8 DUP8 PUSH3 0x2F41 JUMP JUMPDEST PUSH1 0x0 PUSH3 0x131D PUSH3 0x1315 DUP10 DUP6 PUSH3 0x2B19 JUMP JUMPDEST DUP10 DUP9 PUSH3 0x2EC2 JUMP JUMPDEST SWAP1 POP PUSH3 0x1337 PUSH3 0x132F DUP9 DUP5 PUSH3 0x2B19 JUMP JUMPDEST DUP9 DUP4 PUSH3 0x2F41 JUMP JUMPDEST SWAP5 POP POP POP POP POP JUMPDEST SWAP4 SWAP3 POP POP POP JUMP JUMPDEST PUSH1 0x1 PUSH1 0x1 PUSH1 0xA0 SHL SUB DUP2 AND PUSH1 0x0 SWAP1 DUP2 MSTORE PUSH1 0x2 PUSH1 0x20 MSTORE PUSH1 0x40 DUP2 KECCAK256 SLOAD PUSH1 0x1 DUP1 SLOAD DUP4 SWAP3 SWAP1 DUP2 LT PUSH3 0x1376 JUMPI PUSH3 0x1376 PUSH3 0x4FB8 JUMP JUMPDEST PUSH1 0x0 SWAP2 DUP3 MSTORE PUSH1 0x20 DUP3 KECCAK256 PUSH1 0x2 SWAP1 SWAP2 MUL ADD DUP1 SLOAD SWAP1 SWAP3 POP PUSH3 0x13A0 SWAP1 DUP6 SWAP1 PUSH1 0x1 PUSH1 0x1 PUSH1 0xA0 SHL SUB AND PUSH3 0x2B19 JUMP JUMPDEST SWAP1 POP PUSH3 0x13AE DUP5 DUP3 PUSH3 0x2FAE JUMP JUMPDEST SWAP5 SWAP4 POP POP POP POP JUMP JUMPDEST PUSH1 0x60 DUP2 DUP5 DUP2 EQ PUSH3 0x13DA JUMPI PUSH1 0x40 MLOAD PUSH4 0x80DADC27 PUSH1 0xE0 SHL DUP2 MSTORE PUSH1 0x4 ADD PUSH1 0x40 MLOAD DUP1 SWAP2 SUB SWAP1 REVERT JUMPDEST PUSH1 0x0 DUP6 PUSH8 0xFFFFFFFFFFFFFFFF DUP2 GT ISZERO PUSH3 0x13F8 JUMPI PUSH3 0x13F8 PUSH3 0x48FB JUMP JUMPDEST PUSH1 0x40 MLOAD SWAP1 DUP1 DUP3 MSTORE DUP1 PUSH1 0x20 MUL PUSH1 0x20 ADD DUP3 ADD PUSH1 0x40 MSTORE DUP1 ISZERO PUSH3 0x1422 JUMPI DUP2 PUSH1 0x20 ADD PUSH1 0x20 DUP3 MUL DUP1 CALLDATASIZE DUP4 CALLDATACOPY ADD SWAP1 POP JUMPDEST POP SWAP1 POP PUSH1 0x0 JUMPDEST DUP3 DUP2 LT ISZERO PUSH3 0x14B6 JUMPI PUSH3 0x1483 DUP9 DUP9 DUP4 DUP2 DUP2 LT PUSH3 0x144A JUMPI PUSH3 0x144A PUSH3 0x4FB8 JUMP JUMPDEST SWAP1 POP PUSH1 0x20 MUL ADD PUSH1 0x20 DUP2 ADD SWAP1 PUSH3 0x1461 SWAP2 SWAP1 PUSH3 0x4AA6 JUMP JUMPDEST DUP8 DUP8 DUP5 DUP2 DUP2 LT PUSH3 0x1476 JUMPI PUSH3 0x1476 PUSH3 0x4FB8 JUMP JUMPDEST SWAP1 POP PUSH1 0x20 MUL ADD CALLDATALOAD PUSH3 0x9D9 JUMP JUMPDEST DUP3 DUP3 DUP2 MLOAD DUP2 LT PUSH3 0x1498 JUMPI PUSH3 0x1498 PUSH3 0x4FB8 JUMP JUMPDEST PUSH1 0x20 SWAP1 DUP2 MUL SWAP2 SWAP1 SWAP2 ADD ADD MSTORE PUSH3 0x14AE DUP2 PUSH3 0x4F7F JUMP JUMPDEST SWAP1 POP PUSH3 0x1428 JUMP JUMPDEST POP SWAP7 SWAP6 POP POP POP POP POP POP JUMP JUMPDEST CALLER PUSH3 0x14D5 PUSH1 0x16 SLOAD PUSH1 0x1 PUSH1 0x1 PUSH1 0xA0 SHL SUB AND SWAP1 JUMP JUMPDEST PUSH1 0x1 PUSH1 0x1 PUSH1 0xA0 SHL SUB AND EQ PUSH3 0x14FD JUMPI PUSH1 0x40 MLOAD PUSH4 0xEBF98459 PUSH1 0xE0 SHL DUP2 MSTORE PUSH1 0x4 ADD PUSH1 0x40 MLOAD DUP1 SWAP2 SUB SWAP1 REVERT JUMPDEST PUSH3 0x1509 PUSH1 0x0 PUSH3 0x311E JUMP JUMPDEST JUMP JUMPDEST PUSH1 0x1 PUSH1 0x1 PUSH1 0xA0 SHL SUB DUP3 AND PUSH1 0x0 SWAP1 DUP2 MSTORE PUSH1 0x2 PUSH1 0x20 MSTORE PUSH1 0x40 DUP2 KECCAK256 SLOAD PUSH1 0x1 DUP1 SLOAD SWAP1 SWAP2 SWAP1 DUP2 LT PUSH3 0x153C JUMPI PUSH3 0x153C PUSH3 0x4FB8 JUMP JUMPDEST PUSH1 0x0 SWAP2 DUP3 MSTORE PUSH1 0x20 DUP3 KECCAK256 PUSH1 0x2 SWAP1 SWAP2 MUL ADD DUP1 SLOAD SWAP1 SWAP3 POP PUSH3 0x1566 SWAP1 DUP6 SWAP1 PUSH1 0x1 PUSH1 0x1 PUSH1 0xA0 SHL SUB AND PUSH3 0x2B19 JUMP JUMPDEST PUSH1 0x1 DUP4 ADD SLOAD SWAP1 SWAP2 POP PUSH1 0x1 PUSH1 0x1 PUSH1 0x80 SHL SUB PUSH1 0x1 PUSH1 0x80 SHL SWAP1 SWAP2 DIV DUP2 AND LT ISZERO PUSH3 0x1639 JUMPI DUP3 DUP3 PUSH1 0x1 ADD PUSH1 0x10 DUP3 DUP3 DUP3 SWAP1 SLOAD SWAP1 PUSH2 0x100 EXP SWAP1 DIV PUSH1 0x1 PUSH1 0x1 PUSH1 0x80 SHL SUB AND PUSH3 0x15AF SWAP2 SWAP1 PUSH3 0x50B1 JUMP JUMPDEST DUP3 SLOAD PUSH1 0x1 PUSH1 0x1 PUSH1 0x80 SHL SUB SWAP2 DUP3 AND PUSH2 0x100 SWAP4 SWAP1 SWAP4 EXP SWAP3 DUP4 MUL SWAP2 SWAP1 SWAP3 MUL NOT SWAP1 SWAP2 AND OR SWAP1 SSTORE POP PUSH1 0x0 SLOAD PUSH1 0x40 MLOAD PUSH4 0x18A8AD87 PUSH1 0xE0 SHL DUP2 MSTORE CALLER PUSH1 0x4 DUP3 ADD MSTORE PUSH1 0x24 DUP2 ADD DUP6 SWAP1 MSTORE PUSH1 0x1 PUSH1 0x1 PUSH1 0xA0 SHL SUB SWAP1 SWAP2 AND SWAP1 PUSH4 0x18A8AD87 SWAP1 PUSH1 0x44 ADD PUSH1 0x0 PUSH1 0x40 MLOAD DUP1 DUP4 SUB DUP2 PUSH1 0x0 DUP8 DUP1 EXTCODESIZE ISZERO DUP1 ISZERO PUSH3 0x161F JUMPI PUSH1 0x0 DUP1 REVERT JUMPDEST POP GAS CALL ISZERO DUP1 ISZERO PUSH3 0x1634 JUMPI RETURNDATASIZE PUSH1 0x0 DUP1 RETURNDATACOPY RETURNDATASIZE PUSH1 0x0 REVERT JUMPDEST POP POP POP POP JUMPDEST DUP1 MLOAD PUSH1 0x20 DUP3 ADD MLOAD PUSH1 0x1 DUP5 ADD SLOAD PUSH1 0x40 MLOAD PUSH1 0x0 DUP1 MLOAD PUSH1 0x20 PUSH3 0x56CD DUP4 CODECOPY DUP2 MLOAD SWAP2 MSTORE SWAP4 PUSH3 0x167B SWAP4 DUP10 SWAP4 SWAP2 SWAP3 SWAP1 SWAP2 PUSH1 0x1 PUSH1 0x80 SHL SWAP1 DIV PUSH1 0x1 PUSH1 0x1 PUSH1 0x80 SHL SUB AND SWAP1 PUSH3 0x5082 JUMP JUMPDEST PUSH1 0x40 MLOAD DUP1 SWAP2 SUB SWAP1 LOG1 POP POP POP POP JUMP JUMPDEST PUSH1 0x1 PUSH1 0x1 PUSH1 0xA0 SHL SUB DUP5 AND PUSH1 0x0 SWAP1 DUP2 MSTORE PUSH1 0x2 PUSH1 0x20 MSTORE PUSH1 0x40 DUP2 KECCAK256 SLOAD DUP6 SWAP1 ISZERO DUP1 PUSH3 0x16BE JUMPI POP PUSH1 0x0 SLOAD PUSH1 0x1 PUSH1 0x1 PUSH1 0xA0 SHL SUB DUP3 DUP2 AND SWAP2 AND EQ JUMPDEST ISZERO PUSH3 0x16DE JUMPI PUSH1 0x40 MLOAD PUSH3 0x461BCD PUSH1 0xE5 SHL DUP2 MSTORE PUSH1 0x4 ADD PUSH3 0xE84 SWAP1 PUSH3 0x4FCE JUMP JUMPDEST DUP4 DUP1 TIMESTAMP GT ISZERO PUSH3 0x1702 JUMPI PUSH1 0x40 MLOAD PUSH3 0x461BCD PUSH1 0xE5 SHL DUP2 MSTORE PUSH1 0x4 ADD PUSH3 0xE84 SWAP1 PUSH3 0x4FE9 JUMP JUMPDEST PUSH3 0x170F DUP8 DUP8 DUP7 PUSH3 0x3170 JUMP JUMPDEST SWAP8 SWAP7 POP POP POP POP POP POP POP JUMP JUMPDEST PUSH3 0x172A DUP5 DUP5 DUP5 PUSH1 0x0 DUP6 PUSH3 0x343A JUMP JUMPDEST POP POP POP POP JUMP JUMPDEST PUSH3 0x177A PUSH1 0x40 MLOAD DUP1 PUSH1 0xE0 ADD PUSH1 0x40 MSTORE DUP1 PUSH1 0x0 PUSH1 0x1 PUSH1 0x1 PUSH1 0xA0 SHL SUB AND DUP2 MSTORE PUSH1 0x20 ADD PUSH1 0x0 DUP2 MSTORE PUSH1 0x20 ADD PUSH1 0x0 DUP2 MSTORE PUSH1 0x20 ADD PUSH1 0x0 DUP2 MSTORE PUSH1 0x20 ADD PUSH1 0x0 DUP2 MSTORE PUSH1 0x20 ADD PUSH1 0x0 DUP2 MSTORE PUSH1 0x20 ADD PUSH1 0x0 DUP2 MSTORE POP SWAP1 JUMP JUMPDEST POP PUSH1 0x40 DUP1 MLOAD PUSH1 0xE0 DUP2 ADD DUP3 MSTORE PUSH1 0x8 SLOAD PUSH1 0x1 PUSH1 0x1 PUSH1 0xA0 SHL SUB AND DUP2 MSTORE PUSH1 0x9 SLOAD PUSH1 0x20 DUP3 ADD MSTORE PUSH1 0xA SLOAD SWAP2 DUP2 ADD SWAP2 SWAP1 SWAP2 MSTORE PUSH1 0xB SLOAD PUSH1 0x60 DUP3 ADD MSTORE PUSH1 0xC SLOAD PUSH1 0x80 DUP3 ADD MSTORE PUSH1 0xD SLOAD PUSH1 0xA0 DUP3 ADD MSTORE PUSH1 0xE SLOAD PUSH1 0xC0 DUP3 ADD MSTORE SWAP1 JUMP JUMPDEST PUSH1 0x60 PUSH1 0x14 DUP1 SLOAD PUSH3 0xAB9 SWAP1 PUSH3 0x4E88 JUMP JUMPDEST PUSH1 0x0 PUSH3 0x17E7 PUSH1 0x3 PUSH3 0xA2E JUMP JUMPDEST SWAP1 POP DUP1 PUSH1 0x1 PUSH1 0x1 PUSH1 0xA0 SHL SUB AND PUSH4 0xEEF84BA1 PUSH1 0x40 MLOAD DUP2 PUSH4 0xFFFFFFFF AND PUSH1 0xE0 SHL DUP2 MSTORE PUSH1 0x4 ADD PUSH1 0x0 PUSH1 0x40 MLOAD DUP1 DUP4 SUB DUP2 PUSH1 0x0 DUP8 DUP1 EXTCODESIZE ISZERO DUP1 ISZERO PUSH3 0x1825 JUMPI PUSH1 0x0 DUP1 REVERT JUMPDEST POP GAS CALL ISZERO DUP1 ISZERO PUSH3 0x183A JUMPI RETURNDATASIZE PUSH1 0x0 DUP1 RETURNDATACOPY RETURNDATASIZE PUSH1 0x0 REVERT JUMPDEST POP POP POP POP PUSH3 0x9D4 CALLER DUP5 DUP5 PUSH3 0x3773 JUMP JUMPDEST PUSH1 0x60 DUP3 DUP1 TIMESTAMP GT ISZERO PUSH3 0x1871 JUMPI PUSH1 0x40 MLOAD PUSH3 0x461BCD PUSH1 0xE5 SHL DUP2 MSTORE PUSH1 0x4 ADD PUSH3 0xE84 SWAP1 PUSH3 0x4FE9 JUMP JUMPDEST PUSH1 0x1 DUP7 GT PUSH3 0x1894 JUMPI PUSH1 0x40 MLOAD PUSH3 0x461BCD PUSH1 0xE5 SHL DUP2 MSTORE PUSH1 0x4 ADD PUSH3 0xE84 SWAP1 PUSH3 0x501E JUMP JUMPDEST PUSH1 0x1 PUSH1 0x1 PUSH1 0xA0 SHL SUB DUP9 AND PUSH1 0x0 SWAP1 DUP2 MSTORE PUSH1 0x2 PUSH1 0x20 MSTORE PUSH1 0x40 DUP2 KECCAK256 SLOAD PUSH1 0x1 DUP1 SLOAD SWAP1 SWAP2 SWAP1 DUP2 LT PUSH3 0x18C5 JUMPI PUSH3 0x18C5 PUSH3 0x4FB8 JUMP JUMPDEST PUSH1 0x0 SWAP2 DUP3 MSTORE PUSH1 0x20 DUP1 DUP4 KECCAK256 PUSH1 0x2 SWAP3 DUP4 MUL ADD SLOAD PUSH1 0x1 PUSH1 0x1 PUSH1 0xA0 SHL SUB DUP13 DUP2 AND DUP6 MSTORE SWAP3 SWAP1 SWAP2 MSTORE PUSH1 0x40 DUP4 KECCAK256 SLOAD PUSH1 0x1 DUP1 SLOAD SWAP4 SWAP1 SWAP3 AND SWAP5 POP SWAP1 SWAP2 DUP2 LT PUSH3 0x1909 JUMPI PUSH3 0x1909 PUSH3 0x4FB8 JUMP JUMPDEST PUSH1 0x0 SWAP2 DUP3 MSTORE PUSH1 0x20 DUP1 DUP4 KECCAK256 PUSH1 0x2 SWAP3 DUP4 MUL ADD SLOAD PUSH1 0x40 DUP1 MLOAD DUP5 DUP2 MSTORE PUSH1 0x60 DUP2 ADD DUP3 MSTORE PUSH1 0x1 PUSH1 0x1 PUSH1 0xA0 SHL SUB SWAP1 SWAP3 AND SWAP6 POP SWAP1 SWAP3 SWAP2 DUP4 ADD SWAP1 DUP1 CALLDATASIZE DUP4 CALLDATACOPY ADD SWAP1 POP POP SWAP1 POP DUP9 DUP2 PUSH1 0x0 DUP2 MLOAD DUP2 LT PUSH3 0x195B JUMPI PUSH3 0x195B PUSH3 0x4FB8 JUMP JUMPDEST PUSH1 0x20 SWAP1 DUP2 MUL SWAP2 SWAP1 SWAP2 ADD ADD MSTORE PUSH1 0x0 SLOAD PUSH1 0x1 PUSH1 0x1 PUSH1 0xA0 SHL SUB DUP13 DUP2 AND SWAP2 AND EQ DUP1 ISZERO SWAP1 PUSH3 0x1992 JUMPI POP PUSH1 0x0 SLOAD PUSH1 0x1 PUSH1 0x1 PUSH1 0xA0 SHL SUB DUP12 DUP2 AND SWAP2 AND EQ JUMPDEST ISZERO PUSH3 0x1A71 JUMPI PUSH1 0x0 PUSH3 0x19A6 DUP13 DUP6 PUSH3 0x2B19 JUMP JUMPDEST SWAP1 POP PUSH3 0x19B5 DUP2 DUP14 DUP13 PUSH3 0x2EC2 JUMP JUMPDEST DUP3 PUSH1 0x1 DUP2 MLOAD DUP2 LT PUSH3 0x19CB JUMPI PUSH3 0x19CB PUSH3 0x4FB8 JUMP JUMPDEST PUSH1 0x20 MUL PUSH1 0x20 ADD ADD DUP2 DUP2 MSTORE POP POP DUP9 DUP3 PUSH1 0x1 DUP2 MLOAD DUP2 LT PUSH3 0x19EE JUMPI PUSH3 0x19EE PUSH3 0x4FB8 JUMP JUMPDEST PUSH1 0x20 MUL PUSH1 0x20 ADD ADD MLOAD LT ISZERO PUSH3 0x1A2A JUMPI PUSH1 0x40 MLOAD PUSH3 0x461BCD PUSH1 0xE5 SHL DUP2 MSTORE PUSH1 0x20 PUSH1 0x4 DUP3 ADD MSTORE PUSH1 0x1 PUSH1 0x24 DUP3 ADD MSTORE PUSH1 0x9 PUSH1 0xFB SHL PUSH1 0x44 DUP3 ADD MSTORE PUSH1 0x64 ADD PUSH3 0xE84 JUMP JUMPDEST PUSH3 0x1A38 DUP13 CALLER DUP7 DUP14 PUSH3 0x2B6D JUMP JUMPDEST PUSH3 0x1A65 DUP13 DUP3 PUSH1 0x0 DUP6 PUSH1 0x1 DUP2 MLOAD DUP2 LT PUSH3 0x1A56 JUMPI PUSH3 0x1A56 PUSH3 0x4FB8 JUMP JUMPDEST PUSH1 0x20 MUL PUSH1 0x20 ADD ADD MLOAD DUP12 PUSH3 0x3814 JUMP JUMPDEST POP SWAP4 POP PUSH3 0x14B6 SWAP2 POP POP JUMP JUMPDEST PUSH1 0x0 SLOAD PUSH1 0x1 PUSH1 0x1 PUSH1 0xA0 SHL SUB DUP13 DUP2 AND SWAP2 AND EQ DUP1 ISZERO PUSH3 0x1A9D JUMPI POP PUSH1 0x0 SLOAD PUSH1 0x1 PUSH1 0x1 PUSH1 0xA0 SHL SUB DUP12 DUP2 AND SWAP2 AND EQ ISZERO JUMPDEST ISZERO PUSH3 0x1B70 JUMPI PUSH1 0x0 PUSH3 0x1AB1 DUP12 DUP5 PUSH3 0x2B19 JUMP JUMPDEST SWAP1 POP PUSH3 0x1AC0 DUP2 DUP13 DUP13 PUSH3 0x2F41 JUMP JUMPDEST DUP3 PUSH1 0x1 DUP2 MLOAD DUP2 LT PUSH3 0x1AD6 JUMPI PUSH3 0x1AD6 PUSH3 0x4FB8 JUMP JUMPDEST PUSH1 0x20 MUL PUSH1 0x20 ADD ADD DUP2 DUP2 MSTORE POP POP DUP9 DUP3 PUSH1 0x1 DUP2 MLOAD DUP2 LT PUSH3 0x1AF9 JUMPI PUSH3 0x1AF9 PUSH3 0x4FB8 JUMP JUMPDEST PUSH1 0x20 MUL PUSH1 0x20 ADD ADD MLOAD LT ISZERO PUSH3 0x1B35 JUMPI PUSH1 0x40 MLOAD PUSH3 0x461BCD PUSH1 0xE5 SHL DUP2 MSTORE PUSH1 0x20 PUSH1 0x4 DUP3 ADD MSTORE PUSH1 0x1 PUSH1 0x24 DUP3 ADD MSTORE PUSH1 0x69 PUSH1 0xF8 SHL PUSH1 0x44 DUP3 ADD MSTORE PUSH1 0x64 ADD PUSH3 0xE84 JUMP JUMPDEST PUSH3 0x1B43 DUP13 CALLER DUP6 DUP14 PUSH3 0x2B6D JUMP JUMPDEST PUSH3 0x1A65 DUP12 DUP3 DUP5 PUSH1 0x1 DUP2 MLOAD DUP2 LT PUSH3 0x1B5F JUMPI PUSH3 0x1B5F PUSH3 0x4FB8 JUMP JUMPDEST PUSH1 0x20 MUL PUSH1 0x20 ADD ADD MLOAD PUSH1 0x0 DUP12 PUSH3 0x3814 JUMP JUMPDEST PUSH1 0x0 SLOAD PUSH1 0x1 PUSH1 0x1 PUSH1 0xA0 SHL SUB DUP13 DUP2 AND SWAP2 AND EQ DUP1 ISZERO SWAP1 PUSH3 0x1B9D JUMPI POP PUSH1 0x0 SLOAD PUSH1 0x1 PUSH1 0x1 PUSH1 0xA0 SHL SUB DUP12 DUP2 AND SWAP2 AND EQ ISZERO JUMPDEST DUP1 ISZERO PUSH3 0x1BBC JUMPI POP DUP10 PUSH1 0x1 PUSH1 0x1 PUSH1 0xA0 SHL SUB AND DUP12 PUSH1 0x1 PUSH1 0x1 PUSH1 0xA0 SHL SUB AND EQ ISZERO JUMPDEST ISZERO PUSH3 0x1CCF JUMPI PUSH1 0x0 PUSH3 0x1BD0 DUP13 DUP6 PUSH3 0x2B19 JUMP JUMPDEST SWAP1 POP PUSH1 0x0 PUSH3 0x1BE1 DUP3 DUP15 DUP14 PUSH3 0x2EC2 JUMP JUMPDEST SWAP1 POP PUSH1 0x0 PUSH3 0x1BF1 DUP14 DUP7 PUSH3 0x2B19 JUMP JUMPDEST SWAP1 POP PUSH3 0x1C00 DUP2 DUP15 DUP5 PUSH3 0x2F41 JUMP JUMPDEST DUP5 PUSH1 0x1 DUP2 MLOAD DUP2 LT PUSH3 0x1C16 JUMPI PUSH3 0x1C16 PUSH3 0x4FB8 JUMP JUMPDEST PUSH1 0x20 MUL PUSH1 0x20 ADD ADD DUP2 DUP2 MSTORE POP POP DUP11 DUP5 PUSH1 0x1 DUP2 MLOAD DUP2 LT PUSH3 0x1C39 JUMPI PUSH3 0x1C39 PUSH3 0x4FB8 JUMP JUMPDEST PUSH1 0x20 MUL PUSH1 0x20 ADD ADD MLOAD LT ISZERO PUSH3 0x1C75 JUMPI PUSH1 0x40 MLOAD PUSH3 0x461BCD PUSH1 0xE5 SHL DUP2 MSTORE PUSH1 0x20 PUSH1 0x4 DUP3 ADD MSTORE PUSH1 0x1 PUSH1 0x24 DUP3 ADD MSTORE PUSH1 0x69 PUSH1 0xF8 SHL PUSH1 0x44 DUP3 ADD MSTORE PUSH1 0x64 ADD PUSH3 0xE84 JUMP JUMPDEST PUSH3 0x1C83 DUP15 CALLER DUP9 DUP16 PUSH3 0x2B6D JUMP JUMPDEST PUSH3 0x1C93 DUP15 DUP5 PUSH1 0x0 DUP6 DUP10 PUSH3 0x3814 JUMP JUMPDEST PUSH3 0x1CC0 DUP14 DUP3 DUP7 PUSH1 0x1 DUP2 MLOAD DUP2 LT PUSH3 0x1CAF JUMPI PUSH3 0x1CAF PUSH3 0x4FB8 JUMP JUMPDEST PUSH1 0x20 MUL PUSH1 0x20 ADD ADD MLOAD PUSH1 0x0 DUP14 PUSH3 0x3814 JUMP JUMPDEST DUP4 SWAP8 POP POP POP POP POP POP POP PUSH3 0x14B6 JUMP JUMPDEST PUSH1 0x40 MLOAD PUSH3 0x461BCD PUSH1 0xE5 SHL DUP2 MSTORE PUSH1 0x20 PUSH1 0x4 DUP3 ADD MSTORE PUSH1 0x1 PUSH1 0x24 DUP3 ADD MSTORE PUSH1 0x13 PUSH1 0xFA SHL PUSH1 0x44 DUP3 ADD MSTORE PUSH1 0x64 ADD PUSH3 0xE84 JUMP JUMPDEST CALLER PUSH3 0x1D10 PUSH1 0x16 SLOAD PUSH1 0x1 PUSH1 0x1 PUSH1 0xA0 SHL SUB AND SWAP1 JUMP JUMPDEST PUSH1 0x1 PUSH1 0x1 PUSH1 0xA0 SHL SUB AND EQ PUSH3 0x1D38 JUMPI PUSH1 0x40 MLOAD PUSH4 0xEBF98459 PUSH1 0xE0 SHL DUP2 MSTORE PUSH1 0x4 ADD PUSH1 0x40 MLOAD DUP1 SWAP2 SUB SWAP1 REVERT JUMPDEST PUSH3 0x1D66 DUP3 DUP3 PUSH1 0x40 MLOAD PUSH1 0x20 ADD PUSH3 0x1D51 SWAP3 SWAP2 SWAP1 PUSH3 0x50DF JUMP JUMPDEST PUSH1 0x40 MLOAD PUSH1 0x20 DUP2 DUP4 SUB SUB DUP2 MSTORE SWAP1 PUSH1 0x40 MSTORE PUSH3 0x3CF2 JUMP JUMPDEST PUSH3 0x9D4 PUSH1 0x15 DUP4 DUP4 PUSH3 0x4546 JUMP JUMPDEST PUSH1 0x5 SLOAD PUSH3 0x1DAA SWAP1 PUSH1 0x1 PUSH1 0x1 PUSH1 0xA0 SHL SUB AND PUSH10 0xD3C21BCECCEDA1000000 PUSH10 0x69E10DE76676D0800000 PUSH1 0x1 PUSH1 0x1 PUSH1 0x80 SHL SUB CALLER PUSH3 0x343A JUMP JUMPDEST PUSH1 0x6 SLOAD PUSH3 0x1509 SWAP1 PUSH1 0x1 PUSH1 0x1 PUSH1 0xA0 SHL SUB AND PUSH10 0x943B1377290CBD800000 DUP1 PUSH1 0x1 PUSH1 0x1 PUSH1 0x80 SHL SUB CALLER PUSH3 0x343A JUMP JUMPDEST CALLER PUSH3 0x1DEA PUSH1 0x16 SLOAD PUSH1 0x1 PUSH1 0x1 PUSH1 0xA0 SHL SUB AND SWAP1 JUMP JUMPDEST PUSH1 0x1 PUSH1 0x1 PUSH1 0xA0 SHL SUB AND EQ PUSH3 0x1E12 JUMPI PUSH1 0x40 MLOAD PUSH4 0xEBF98459 PUSH1 0xE0 SHL DUP2 MSTORE PUSH1 0x4 ADD PUSH1 0x40 MLOAD DUP1 SWAP2 SUB SWAP1 REVERT JUMPDEST PUSH1 0x7 SLOAD PUSH3 0x1509 SWAP1 PUSH1 0x1 PUSH1 0x1 PUSH1 0xA0 SHL SUB AND PUSH7 0x38D7EA4C68000 PUSH10 0xD3C21BCECCEDA1000000 PUSH1 0x1 PUSH1 0x1 PUSH1 0x80 SHL SUB CALLER PUSH3 0x343A JUMP JUMPDEST PUSH1 0x1 PUSH1 0x1 PUSH1 0xA0 SHL SUB DUP4 AND PUSH1 0x0 SWAP1 DUP2 MSTORE PUSH1 0x2 PUSH1 0x20 MSTORE PUSH1 0x40 DUP2 KECCAK256 SLOAD PUSH1 0x1 DUP1 SLOAD DUP4 SWAP3 DUP4 SWAP3 SWAP2 DUP2 LT PUSH3 0x1E78 JUMPI PUSH3 0x1E78 PUSH3 0x4FB8 JUMP JUMPDEST PUSH1 0x0 SWAP2 DUP3 MSTORE PUSH1 0x20 DUP1 DUP4 KECCAK256 PUSH1 0x2 SWAP3 DUP4 MUL ADD SLOAD PUSH1 0x1 PUSH1 0x1 PUSH1 0xA0 SHL SUB DUP10 DUP2 AND DUP6 MSTORE SWAP3 SWAP1 SWAP2 MSTORE PUSH1 0x40 DUP4 KECCAK256 SLOAD PUSH1 0x1 DUP1 SLOAD SWAP4 SWAP1 SWAP3 AND SWAP5 POP SWAP1 SWAP2 DUP2 LT PUSH3 0x1EBC JUMPI PUSH3 0x1EBC PUSH3 0x4FB8 JUMP JUMPDEST PUSH1 0x0 SWAP2 DUP3 MSTORE PUSH1 0x20 DUP3 KECCAK256 PUSH1 0x2 SWAP1 SWAP2 MUL ADD SLOAD SWAP1 SLOAD PUSH1 0x1 PUSH1 0x1 PUSH1 0xA0 SHL SUB SWAP2 DUP3 AND SWAP3 POP DUP9 DUP3 AND SWAP2 AND EQ DUP1 ISZERO SWAP1 PUSH3 0x1EFC JUMPI POP PUSH1 0x0 SLOAD PUSH1 0x1 PUSH1 0x1 PUSH1 0xA0 SHL SUB DUP8 DUP2 AND SWAP2 AND EQ JUMPDEST ISZERO PUSH3 0x1F1A JUMPI PUSH3 0x12AD PUSH3 0x1F12 DUP9 DUP5 PUSH3 0x2B19 JUMP JUMPDEST DUP9 DUP8 PUSH3 0x3D0B JUMP JUMPDEST PUSH1 0x0 SLOAD PUSH1 0x1 PUSH1 0x1 PUSH1 0xA0 SHL SUB DUP9 DUP2 AND SWAP2 AND EQ DUP1 ISZERO PUSH3 0x1F46 JUMPI POP PUSH1 0x0 SLOAD PUSH1 0x1 PUSH1 0x1 PUSH1 0xA0 SHL SUB DUP8 DUP2 AND SWAP2 AND EQ ISZERO JUMPDEST ISZERO PUSH3 0x1F64 JUMPI PUSH3 0x12AD PUSH3 0x1F5C DUP8 DUP4 PUSH3 0x2B19 JUMP JUMPDEST DUP8 DUP8 PUSH3 0x3D81 JUMP JUMPDEST PUSH1 0x0 PUSH3 0x1F7E PUSH3 0x1F76 DUP9 DUP5 PUSH3 0x2B19 JUMP JUMPDEST DUP9 DUP9 PUSH3 0x3D81 JUMP JUMPDEST SWAP1 POP PUSH3 0x1337 PUSH3 0x1F90 DUP10 DUP6 PUSH3 0x2B19 JUMP JUMPDEST DUP10 DUP4 PUSH3 0x3D0B JUMP JUMPDEST CALLER PUSH3 0x1FAC PUSH1 0x16 SLOAD PUSH1 0x1 PUSH1 0x1 PUSH1 0xA0 SHL SUB AND SWAP1 JUMP JUMPDEST PUSH1 0x1 PUSH1 0x1 PUSH1 0xA0 SHL SUB AND EQ PUSH3 0x1FD4 JUMPI PUSH1 0x40 MLOAD PUSH4 0xEBF98459 PUSH1 0xE0 SHL DUP2 MSTORE PUSH1 0x4 ADD PUSH1 0x40 MLOAD DUP1 SWAP2 SUB SWAP1 REVERT JUMPDEST PUSH1 0x1 PUSH1 0x1 PUSH1 0xA0 SHL SUB DUP3 AND PUSH1 0x0 SWAP1 DUP2 MSTORE PUSH1 0x2 PUSH1 0x20 MSTORE PUSH1 0x40 SWAP1 KECCAK256 SLOAD DUP3 SWAP1 ISZERO DUP1 PUSH3 0x2009 JUMPI POP PUSH1 0x0 SLOAD PUSH1 0x1 PUSH1 0x1 PUSH1 0xA0 SHL SUB DUP3 DUP2 AND SWAP2 AND EQ JUMPDEST ISZERO PUSH3 0x2029 JUMPI PUSH1 0x40 MLOAD PUSH3 0x461BCD PUSH1 0xE5 SHL DUP2 MSTORE PUSH1 0x4 ADD PUSH3 0xE84 SWAP1 PUSH3 0x4FCE JUMP JUMPDEST PUSH1 0x1 PUSH1 0x1 PUSH1 0xA0 SHL SUB DUP4 AND PUSH1 0x0 SWAP1 DUP2 MSTORE PUSH1 0x2 PUSH1 0x20 MSTORE PUSH1 0x40 DUP2 KECCAK256 SLOAD PUSH1 0x1 DUP1 SLOAD SWAP1 SWAP2 SWAP1 DUP2 LT PUSH3 0x205A JUMPI PUSH3 0x205A PUSH3 0x4FB8 JUMP JUMPDEST PUSH1 0x0 SWAP2 DUP3 MSTORE PUSH1 0x20 DUP3 KECCAK256 PUSH1 0x2 SWAP1 SWAP2 MUL ADD DUP1 SLOAD SWAP1 SWAP3 POP PUSH3 0x2084 SWAP1 DUP7 SWAP1 PUSH1 0x1 PUSH1 0x1 PUSH1 0xA0 SHL SUB AND PUSH3 0x2B19 JUMP JUMPDEST PUSH1 0x1 DUP4 ADD DUP1 SLOAD PUSH1 0x1 PUSH1 0x1 PUSH1 0x80 SHL SUB DUP1 DUP9 AND PUSH1 0x1 PUSH1 0x80 SHL MUL SWAP2 AND OR SWAP1 SSTORE DUP1 MLOAD PUSH1 0x20 DUP3 ADD MLOAD PUSH1 0x40 MLOAD SWAP3 SWAP4 POP PUSH1 0x0 DUP1 MLOAD PUSH1 0x20 PUSH3 0x56CD DUP4 CODECOPY DUP2 MLOAD SWAP2 MSTORE SWAP3 PUSH3 0x20CF SWAP3 DUP10 SWAP3 SWAP1 SWAP2 DUP10 SWAP1 PUSH3 0x505C JUMP JUMPDEST PUSH1 0x40 MLOAD DUP1 SWAP2 SUB SWAP1 LOG1 POP POP POP POP POP JUMP JUMPDEST CALLER PUSH3 0x20F2 PUSH1 0x16 SLOAD PUSH1 0x1 PUSH1 0x1 PUSH1 0xA0 SHL SUB AND SWAP1 JUMP JUMPDEST PUSH1 0x1 PUSH1 0x1 PUSH1 0xA0 SHL SUB AND EQ PUSH3 0x211A JUMPI PUSH1 0x40 MLOAD PUSH4 0xEBF98459 PUSH1 0xE0 SHL DUP2 MSTORE PUSH1 0x4 ADD PUSH1 0x40 MLOAD DUP1 SWAP2 SUB SWAP1 REVERT JUMPDEST PUSH3 0x172A DUP5 DUP5 DUP5 PUSH1 0x1 PUSH1 0x1 PUSH1 0x80 SHL SUB DUP6 PUSH3 0x343A JUMP JUMPDEST PUSH1 0x1 PUSH1 0x1 PUSH1 0xA0 SHL SUB SWAP2 DUP3 AND PUSH1 0x0 SWAP1 DUP2 MSTORE PUSH1 0x10 PUSH1 0x20 SWAP1 DUP2 MSTORE PUSH1 0x40 DUP1 DUP4 KECCAK256 SWAP4 SWAP1 SWAP5 AND DUP3 MSTORE SWAP2 SWAP1 SWAP2 MSTORE KECCAK256 SLOAD PUSH1 0xFF AND SWAP1 JUMP JUMPDEST PUSH1 0x5 DUP1 SLOAD PUSH1 0x1 PUSH1 0x1 PUSH1 0xA0 SHL SUB DUP1 DUP8 AND PUSH1 0x1 PUSH1 0x1 PUSH1 0xA0 SHL SUB NOT SWAP3 DUP4 AND OR SWAP1 SWAP3 SSTORE PUSH1 0x0 DUP1 SLOAD DUP7 DUP5 AND SWAP1 DUP4 AND OR SWAP1 SSTORE PUSH1 0x6 DUP1 SLOAD SWAP3 DUP6 AND SWAP3 SWAP1 SWAP2 AND SWAP2 SWAP1 SWAP2 OR SWAP1 SSTORE PUSH3 0x21A5 PUSH3 0x1D74 JUMP JUMPDEST POP POP POP POP POP JUMP JUMPDEST PUSH1 0x0 PUSH3 0x21BA PUSH1 0x3 PUSH3 0xA2E JUMP JUMPDEST SWAP1 POP DUP1 PUSH1 0x1 PUSH1 0x1 PUSH1 0xA0 SHL SUB AND PUSH4 0xEEF84BA1 PUSH1 0x40 MLOAD DUP2 PUSH4 0xFFFFFFFF AND PUSH1 0xE0 SHL DUP2 MSTORE PUSH1 0x4 ADD PUSH1 0x0 PUSH1 0x40 MLOAD DUP1 DUP4 SUB DUP2 PUSH1 0x0 DUP8 DUP1 EXTCODESIZE ISZERO DUP1 ISZERO PUSH3 0x21F8 JUMPI PUSH1 0x0 DUP1 REVERT JUMPDEST POP GAS CALL ISZERO DUP1 ISZERO PUSH3 0x220D JUMPI RETURNDATASIZE PUSH1 0x0 DUP1 RETURNDATACOPY RETURNDATASIZE PUSH1 0x0 REVERT JUMPDEST POP POP POP POP PUSH1 0x1 PUSH1 0x1 PUSH1 0xA0 SHL SUB DUP8 AND CALLER EQ DUP1 ISZERO SWAP1 PUSH3 0x2234 JUMPI POP PUSH3 0x2232 DUP8 CALLER PUSH3 0x2130 JUMP JUMPDEST ISZERO JUMPDEST ISZERO PUSH3 0x2253 JUMPI PUSH1 0x40 MLOAD PUSH4 0xDE69555 PUSH1 0xE3 SHL DUP2 MSTORE PUSH1 0x4 ADD PUSH1 0x40 MLOAD DUP1 SWAP2 SUB SWAP1 REVERT JUMPDEST PUSH3 0x2263 DUP8 DUP8 DUP8 DUP8 DUP8 DUP8 PUSH3 0x3DEE JUMP JUMPDEST POP POP POP POP POP POP POP JUMP JUMPDEST CALLER PUSH3 0x2280 PUSH1 0x16 SLOAD PUSH1 0x1 PUSH1 0x1 PUSH1 0xA0 SHL SUB AND SWAP1 JUMP JUMPDEST PUSH1 0x1 PUSH1 0x1 PUSH1 0xA0 SHL SUB AND EQ PUSH3 0x22A8 JUMPI PUSH1 0x40 MLOAD PUSH4 0xEBF98459 PUSH1 0xE0 SHL DUP2 MSTORE PUSH1 0x4 ADD PUSH1 0x40 MLOAD DUP1 SWAP2 SUB SWAP1 REVERT JUMPDEST PUSH1 0x1 PUSH1 0x1 PUSH1 0xA0 SHL SUB DUP2 AND PUSH3 0x22D0 JUMPI PUSH1 0x40 MLOAD PUSH4 0x5868B79D PUSH1 0xE0 SHL DUP2 MSTORE PUSH1 0x4 ADD PUSH1 0x40 MLOAD DUP1 SWAP2 SUB SWAP1 REVERT JUMPDEST PUSH3 0x22DB DUP2 PUSH3 0x311E JUMP JUMPDEST POP JUMP JUMPDEST PUSH1 0x1 PUSH1 0x1 PUSH1 0xA0 SHL SUB DUP2 AND PUSH1 0x0 SWAP1 DUP2 MSTORE PUSH1 0x2 PUSH1 0x20 MSTORE PUSH1 0x40 DUP2 KECCAK256 SLOAD PUSH1 0x1 DUP1 SLOAD SWAP1 SWAP2 SWAP1 DUP2 LT PUSH3 0x230F JUMPI PUSH3 0x230F PUSH3 0x4FB8 JUMP JUMPDEST PUSH1 0x0 SWAP2 DUP3 MSTORE PUSH1 0x20 DUP3 KECCAK256 PUSH1 0x2 SWAP1 SWAP2 MUL ADD DUP1 SLOAD SWAP1 SWAP3 POP PUSH3 0x2339 SWAP1 DUP5 SWAP1 PUSH1 0x1 PUSH1 0x1 PUSH1 0xA0 SHL SUB AND PUSH3 0x2B19 JUMP JUMPDEST SWAP1 POP DUP4 ISZERO PUSH3 0x172A JUMPI PUSH1 0x0 PUSH3 0x2350 DUP5 DUP4 PUSH3 0x2FAE JUMP JUMPDEST POP POP POP POP POP POP JUMP JUMPDEST PUSH1 0x60 DUP3 DUP1 TIMESTAMP GT ISZERO PUSH3 0x237E JUMPI PUSH1 0x40 MLOAD PUSH3 0x461BCD PUSH1 0xE5 SHL DUP2 MSTORE PUSH1 0x4 ADD PUSH3 0xE84 SWAP1 PUSH3 0x4FE9 JUMP JUMPDEST PUSH1 0x1 PUSH1 0x1 PUSH1 0xA0 SHL SUB DUP9 AND PUSH1 0x0 SWAP1 DUP2 MSTORE PUSH1 0x2 PUSH1 0x20 MSTORE PUSH1 0x40 DUP2 KECCAK256 SLOAD PUSH1 0x1 DUP1 SLOAD SWAP1 SWAP2 SWAP1 DUP2 LT PUSH3 0x23AF JUMPI PUSH3 0x23AF PUSH3 0x4FB8 JUMP JUMPDEST PUSH1 0x0 SWAP2 DUP3 MSTORE PUSH1 0x20 DUP1 DUP4 KECCAK256 PUSH1 0x2 SWAP3 DUP4 MUL ADD SLOAD PUSH1 0x1 PUSH1 0x1 PUSH1 0xA0 SHL SUB DUP13 DUP2 AND DUP6 MSTORE SWAP3 SWAP1 SWAP2 MSTORE PUSH1 0x40 DUP4 KECCAK256 SLOAD PUSH1 0x1 DUP1 SLOAD SWAP4 SWAP1 SWAP3 AND SWAP5 POP SWAP1 SWAP2 DUP2 LT PUSH3 0x23F3 JUMPI PUSH3 0x23F3 PUSH3 0x4FB8 JUMP JUMPDEST PUSH1 0x0 SWAP2 DUP3 MSTORE PUSH1 0x20 DUP1 DUP4 KECCAK256 PUSH1 0x2 SWAP3 DUP4 MUL ADD SLOAD PUSH1 0x40 DUP1 MLOAD DUP5 DUP2 MSTORE PUSH1 0x60 DUP2 ADD DUP3 MSTORE PUSH1 0x1 PUSH1 0x1 PUSH1 0xA0 SHL SUB SWAP1 SWAP3 AND SWAP6 POP SWAP1 SWAP3 SWAP2 DUP4 ADD SWAP1 DUP1 CALLDATASIZE DUP4 CALLDATACOPY ADD SWAP1 POP POP SWAP1 POP DUP9 DUP2 PUSH1 0x1 DUP2 MLOAD DUP2 LT PUSH3 0x2445 JUMPI PUSH3 0x2445 PUSH3 0x4FB8 JUMP JUMPDEST PUSH1 0x20 SWAP1 DUP2 MUL SWAP2 SWAP1 SWAP2 ADD ADD MSTORE PUSH1 0x0 SLOAD PUSH1 0x1 PUSH1 0x1 PUSH1 0xA0 SHL SUB DUP13 DUP2 AND SWAP2 AND EQ DUP1 ISZERO SWAP1 PUSH3 0x247C JUMPI POP PUSH1 0x0 SLOAD PUSH1 0x1 PUSH1 0x1 PUSH1 0xA0 SHL SUB DUP12 DUP2 AND SWAP2 AND EQ JUMPDEST ISZERO PUSH3 0x258F JUMPI PUSH1 0x0 PUSH3 0x2490 DUP13 DUP6 PUSH3 0x2B19 JUMP JUMPDEST SWAP1 POP PUSH3 0x249F DUP2 DUP14 DUP13 PUSH3 0x3D0B JUMP JUMPDEST DUP3 PUSH1 0x0 DUP2 MLOAD DUP2 LT PUSH3 0x24B5 JUMPI PUSH3 0x24B5 PUSH3 0x4FB8 JUMP JUMPDEST PUSH1 0x20 MUL PUSH1 0x20 ADD ADD DUP2 DUP2 MSTORE POP POP DUP9 DUP3 PUSH1 0x0 DUP2 MLOAD DUP2 LT PUSH3 0x24D8 JUMPI PUSH3 0x24D8 PUSH3 0x4FB8 JUMP JUMPDEST PUSH1 0x20 MUL PUSH1 0x20 ADD ADD MLOAD GT ISZERO PUSH3 0x2514 JUMPI PUSH1 0x40 MLOAD PUSH3 0x461BCD PUSH1 0xE5 SHL DUP2 MSTORE PUSH1 0x20 PUSH1 0x4 DUP3 ADD MSTORE PUSH1 0x1 PUSH1 0x24 DUP3 ADD MSTORE PUSH1 0x4B PUSH1 0xF8 SHL PUSH1 0x44 DUP3 ADD MSTORE PUSH1 0x64 ADD PUSH3 0xE84 JUMP JUMPDEST PUSH1 0x1 DUP3 PUSH1 0x0 DUP2 MLOAD DUP2 LT PUSH3 0x252C JUMPI PUSH3 0x252C PUSH3 0x4FB8 JUMP JUMPDEST PUSH1 0x20 MUL PUSH1 0x20 ADD ADD MLOAD GT PUSH3 0x2554 JUMPI PUSH1 0x40 MLOAD PUSH3 0x461BCD PUSH1 0xE5 SHL DUP2 MSTORE PUSH1 0x4 ADD PUSH3 0xE84 SWAP1 PUSH3 0x501E JUMP JUMPDEST PUSH3 0x257F DUP13 CALLER DUP7 DUP6 PUSH1 0x0 DUP2 MLOAD DUP2 LT PUSH3 0x2571 JUMPI PUSH3 0x2571 PUSH3 0x4FB8 JUMP JUMPDEST PUSH1 0x20 MUL PUSH1 0x20 ADD ADD MLOAD PUSH3 0x2B6D JUMP JUMPDEST PUSH3 0x1A65 DUP13 DUP3 PUSH1 0x0 DUP14 DUP12 PUSH3 0x3814 JUMP JUMPDEST PUSH1 0x0 SLOAD PUSH1 0x1 PUSH1 0x1 PUSH1 0xA0 SHL SUB DUP13 DUP2 AND SWAP2 AND EQ DUP1 ISZERO PUSH3 0x25BB JUMPI POP PUSH1 0x0 SLOAD PUSH1 0x1 PUSH1 0x1 PUSH1 0xA0 SHL SUB DUP12 DUP2 AND SWAP2 AND EQ ISZERO JUMPDEST ISZERO PUSH3 0x26C0 JUMPI PUSH1 0x0 PUSH3 0x25CF DUP12 DUP5 PUSH3 0x2B19 JUMP JUMPDEST SWAP1 POP PUSH3 0x25DE DUP2 DUP13 DUP13 PUSH3 0x3D81 JUMP JUMPDEST DUP3 PUSH1 0x0 DUP2 MLOAD DUP2 LT PUSH3 0x25F4 JUMPI PUSH3 0x25F4 PUSH3 0x4FB8 JUMP JUMPDEST PUSH1 0x20 MUL PUSH1 0x20 ADD ADD DUP2 DUP2 MSTORE POP POP DUP9 DUP3 PUSH1 0x0 DUP2 MLOAD DUP2 LT PUSH3 0x2617 JUMPI PUSH3 0x2617 PUSH3 0x4FB8 JUMP JUMPDEST PUSH1 0x20 MUL PUSH1 0x20 ADD ADD MLOAD GT ISZERO PUSH3 0x2653 JUMPI PUSH1 0x40 MLOAD PUSH3 0x461BCD PUSH1 0xE5 SHL DUP2 MSTORE PUSH1 0x20 PUSH1 0x4 DUP3 ADD MSTORE PUSH1 0x1 PUSH1 0x24 DUP3 ADD MSTORE PUSH1 0x25 PUSH1 0xF9 SHL PUSH1 0x44 DUP3 ADD MSTORE PUSH1 0x64 ADD PUSH3 0xE84 JUMP JUMPDEST PUSH1 0x1 DUP3 PUSH1 0x0 DUP2 MLOAD DUP2 LT PUSH3 0x266B JUMPI PUSH3 0x266B PUSH3 0x4FB8 JUMP JUMPDEST PUSH1 0x20 MUL PUSH1 0x20 ADD ADD MLOAD GT PUSH3 0x2693 JUMPI PUSH1 0x40 MLOAD PUSH3 0x461BCD PUSH1 0xE5 SHL DUP2 MSTORE PUSH1 0x4 ADD PUSH3 0xE84 SWAP1 PUSH3 0x50FD JUMP JUMPDEST PUSH3 0x26B0 DUP13 CALLER DUP6 DUP6 PUSH1 0x0 DUP2 MLOAD DUP2 LT PUSH3 0x2571 JUMPI PUSH3 0x2571 PUSH3 0x4FB8 JUMP JUMPDEST PUSH3 0x1A65 DUP12 DUP3 DUP13 PUSH1 0x0 DUP12 PUSH3 0x3814 JUMP JUMPDEST PUSH1 0x0 SLOAD PUSH1 0x1 PUSH1 0x1 PUSH1 0xA0 SHL SUB DUP13 DUP2 AND SWAP2 AND EQ DUP1 ISZERO SWAP1 PUSH3 0x26ED JUMPI POP PUSH1 0x0 SLOAD PUSH1 0x1 PUSH1 0x1 PUSH1 0xA0 SHL SUB DUP12 DUP2 AND SWAP2 AND EQ ISZERO JUMPDEST DUP1 ISZERO PUSH3 0x270C JUMPI POP DUP10 PUSH1 0x1 PUSH1 0x1 PUSH1 0xA0 SHL SUB AND DUP12 PUSH1 0x1 PUSH1 0x1 PUSH1 0xA0 SHL SUB AND EQ ISZERO JUMPDEST ISZERO PUSH3 0x1CCF JUMPI PUSH1 0x0 PUSH3 0x2720 DUP12 DUP5 PUSH3 0x2B19 JUMP JUMPDEST SWAP1 POP PUSH1 0x0 PUSH3 0x2731 DUP3 DUP14 DUP14 PUSH3 0x3D81 JUMP JUMPDEST SWAP1 POP PUSH1 0x1 DUP2 GT PUSH3 0x2756 JUMPI PUSH1 0x40 MLOAD PUSH3 0x461BCD PUSH1 0xE5 SHL DUP2 MSTORE PUSH1 0x4 ADD PUSH3 0xE84 SWAP1 PUSH3 0x50FD JUMP JUMPDEST PUSH1 0x0 PUSH3 0x2764 DUP15 DUP8 PUSH3 0x2B19 JUMP JUMPDEST SWAP1 POP PUSH3 0x2773 DUP2 DUP16 DUP5 PUSH3 0x3D0B JUMP JUMPDEST DUP5 PUSH1 0x0 DUP2 MLOAD DUP2 LT PUSH3 0x2789 JUMPI PUSH3 0x2789 PUSH3 0x4FB8 JUMP JUMPDEST PUSH1 0x20 MUL PUSH1 0x20 ADD ADD DUP2 DUP2 MSTORE POP POP PUSH1 0x1 DUP5 PUSH1 0x0 DUP2 MLOAD DUP2 LT PUSH3 0x27AD JUMPI PUSH3 0x27AD PUSH3 0x4FB8 JUMP JUMPDEST PUSH1 0x20 MUL PUSH1 0x20 ADD ADD MLOAD GT PUSH3 0x27D5 JUMPI PUSH1 0x40 MLOAD PUSH3 0x461BCD PUSH1 0xE5 SHL DUP2 MSTORE PUSH1 0x4 ADD PUSH3 0xE84 SWAP1 PUSH3 0x50FD JUMP JUMPDEST DUP11 DUP5 PUSH1 0x0 DUP2 MLOAD DUP2 LT PUSH3 0x27EC JUMPI PUSH3 0x27EC PUSH3 0x4FB8 JUMP JUMPDEST PUSH1 0x20 MUL PUSH1 0x20 ADD ADD MLOAD GT ISZERO PUSH3 0x2828 JUMPI PUSH1 0x40 MLOAD PUSH3 0x461BCD PUSH1 0xE5 SHL DUP2 MSTORE PUSH1 0x20 PUSH1 0x4 DUP3 ADD MSTORE PUSH1 0x1 PUSH1 0x24 DUP3 ADD MSTORE PUSH1 0x4B PUSH1 0xF8 SHL PUSH1 0x44 DUP3 ADD MSTORE PUSH1 0x64 ADD PUSH3 0xE84 JUMP JUMPDEST PUSH3 0x2845 DUP15 CALLER DUP9 DUP8 PUSH1 0x0 DUP2 MLOAD DUP2 LT PUSH3 0x2571 JUMPI PUSH3 0x2571 PUSH3 0x4FB8 JUMP JUMPDEST PUSH3 0x2855 DUP15 DUP3 PUSH1 0x0 DUP6 DUP10 PUSH3 0x3814 JUMP JUMPDEST PUSH3 0x1CC0 DUP14 DUP5 DUP15 PUSH1 0x0 DUP14 PUSH3 0x3814 JUMP JUMPDEST DUP5 DUP4 DUP2 EQ PUSH3 0x2887 JUMPI PUSH1 0x40 MLOAD PUSH4 0xA98A8859 PUSH1 0xE0 SHL DUP2 MSTORE PUSH1 0x4 ADD PUSH1 0x40 MLOAD DUP1 SWAP2 SUB SWAP1 REVERT JUMPDEST PUSH1 0x1 PUSH1 0x1 PUSH1 0xA0 SHL SUB DUP9 AND PUSH3 0x28AF JUMPI PUSH1 0x40 MLOAD PUSH4 0x7CC7869 PUSH1 0xE3 SHL DUP2 MSTORE PUSH1 0x4 ADD PUSH1 0x40 MLOAD DUP1 SWAP2 SUB SWAP1 REVERT JUMPDEST CALLER PUSH1 0x0 JUMPDEST DUP3 DUP2 LT ISZERO PUSH3 0x2A67 JUMPI PUSH1 0x0 DUP8 DUP8 DUP4 DUP2 DUP2 LT PUSH3 0x28D3 JUMPI PUSH3 0x28D3 PUSH3 0x4FB8 JUMP JUMPDEST SWAP1 POP PUSH1 0x20 MUL ADD CALLDATALOAD SWAP1 POP PUSH1 0x0 PUSH1 0xF PUSH1 0x0 DUP13 DUP13 DUP7 DUP2 DUP2 LT PUSH3 0x28F7 JUMPI PUSH3 0x28F7 PUSH3 0x4FB8 JUMP JUMPDEST SWAP1 POP PUSH1 0x20 MUL ADD CALLDATALOAD DUP2 MSTORE PUSH1 0x20 ADD SWAP1 DUP2 MSTORE PUSH1 0x20 ADD PUSH1 0x0 KECCAK256 PUSH1 0x0 DUP15 PUSH1 0x1 PUSH1 0x1 PUSH1 0xA0 SHL SUB AND PUSH1 0x1 PUSH1 0x1 PUSH1 0xA0 SHL SUB AND DUP2 MSTORE PUSH1 0x20 ADD SWAP1 DUP2 MSTORE PUSH1 0x20 ADD PUSH1 0x0 KECCAK256 SLOAD SWAP1 POP DUP2 DUP2 LT ISZERO PUSH3 0x2954 JUMPI PUSH1 0x40 MLOAD PUSH4 0x2D688F61 PUSH1 0xE1 SHL DUP2 MSTORE PUSH1 0x4 ADD PUSH1 0x40 MLOAD DUP1 SWAP2 SUB SWAP1 REVERT JUMPDEST DUP2 DUP2 SUB PUSH1 0xF PUSH1 0x0 DUP14 DUP14 DUP8 DUP2 DUP2 LT PUSH3 0x2970 JUMPI PUSH3 0x2970 PUSH3 0x4FB8 JUMP JUMPDEST SWAP1 POP PUSH1 0x20 MUL ADD CALLDATALOAD DUP2 MSTORE PUSH1 0x20 ADD SWAP1 DUP2 MSTORE PUSH1 0x20 ADD PUSH1 0x0 KECCAK256 PUSH1 0x0 DUP16 PUSH1 0x1 PUSH1 0x1 PUSH1 0xA0 SHL SUB AND PUSH1 0x1 PUSH1 0x1 PUSH1 0xA0 SHL SUB AND DUP2 MSTORE PUSH1 0x20 ADD SWAP1 DUP2 MSTORE PUSH1 0x20 ADD PUSH1 0x0 KECCAK256 DUP2 SWAP1 SSTORE POP DUP2 PUSH1 0xF PUSH1 0x0 DUP14 DUP14 DUP8 DUP2 DUP2 LT PUSH3 0x29C6 JUMPI PUSH3 0x29C6 PUSH3 0x4FB8 JUMP JUMPDEST SWAP1 POP PUSH1 0x20 MUL ADD CALLDATALOAD DUP2 MSTORE PUSH1 0x20 ADD SWAP1 DUP2 MSTORE PUSH1 0x20 ADD PUSH1 0x0 KECCAK256 PUSH1 0x0 DUP15 PUSH1 0x1 PUSH1 0x1 PUSH1 0xA0 SHL SUB AND PUSH1 0x1 PUSH1 0x1 PUSH1 0xA0 SHL SUB AND DUP2 MSTORE PUSH1 0x20 ADD SWAP1 DUP2 MSTORE PUSH1 0x20 ADD PUSH1 0x0 KECCAK256 PUSH1 0x0 DUP3 DUP3 SLOAD PUSH3 0x2A0F SWAP2 SWAP1 PUSH3 0x4F9D JUMP JUMPDEST SWAP1 SWAP2 SSTORE POP DUP3 SWAP1 POP PUSH1 0x12 PUSH1 0x0 DUP14 DUP14 DUP8 DUP2 DUP2 LT PUSH3 0x2A2F JUMPI PUSH3 0x2A2F PUSH3 0x4FB8 JUMP JUMPDEST SWAP1 POP PUSH1 0x20 MUL ADD CALLDATALOAD DUP2 MSTORE PUSH1 0x20 ADD SWAP1 DUP2 MSTORE PUSH1 0x20 ADD PUSH1 0x0 KECCAK256 PUSH1 0x0 DUP3 DUP3 SLOAD ADD SWAP3 POP POP DUP2 SWAP1 SSTORE POP POP POP DUP1 PUSH3 0x2A5F SWAP1 PUSH3 0x4F7F JUMP JUMPDEST SWAP1 POP PUSH3 0x28B3 JUMP JUMPDEST POP DUP9 PUSH1 0x1 PUSH1 0x1 PUSH1 0xA0 SHL SUB AND DUP11 PUSH1 0x1 PUSH1 0x1 PUSH1 0xA0 SHL SUB AND DUP3 PUSH1 0x1 PUSH1 0x1 PUSH1 0xA0 SHL SUB AND PUSH32 0x4A39DC06D4C0DBC64B70AF90FD698A233A518AA5D07E595D983B8C0526C8F7FB DUP12 DUP12 DUP12 DUP12 PUSH1 0x40 MLOAD PUSH3 0x2ABD SWAP5 SWAP4 SWAP3 SWAP2 SWAP1 PUSH3 0x514F JUMP JUMPDEST PUSH1 0x40 MLOAD DUP1 SWAP2 SUB SWAP1 LOG4 PUSH3 0x2B0D DUP2 DUP12 DUP12 DUP12 DUP12 DUP12 DUP12 DUP12 DUP12 DUP1 DUP1 PUSH1 0x1F ADD PUSH1 0x20 DUP1 SWAP2 DIV MUL PUSH1 0x20 ADD PUSH1 0x40 MLOAD SWAP1 DUP2 ADD PUSH1 0x40 MSTORE DUP1 SWAP4 SWAP3 SWAP2 SWAP1 DUP2 DUP2 MSTORE PUSH1 0x20 ADD DUP4 DUP4 DUP1 DUP3 DUP5 CALLDATACOPY PUSH1 0x0 SWAP3 ADD SWAP2 SWAP1 SWAP2 MSTORE POP PUSH3 0x3F55 SWAP3 POP POP POP JUMP JUMPDEST POP POP POP POP POP POP POP POP POP POP JUMP JUMPDEST PUSH1 0x40 DUP1 MLOAD DUP1 DUP3 ADD SWAP1 SWAP2 MSTORE PUSH1 0x0 DUP1 DUP3 MSTORE PUSH1 0x20 DUP3 ADD MSTORE PUSH1 0x40 MLOAD DUP1 PUSH1 0x40 ADD PUSH1 0x40 MSTORE DUP1 PUSH3 0x2B44 DUP6 DUP6 PUSH3 0x4025 JUMP JUMPDEST DUP2 MSTORE PUSH1 0x0 SLOAD PUSH1 0x20 SWAP1 SWAP2 ADD SWAP1 PUSH3 0x2B64 SWAP1 PUSH1 0x1 PUSH1 0x1 PUSH1 0xA0 SHL SUB AND DUP6 PUSH3 0x4025 JUMP JUMPDEST SWAP1 MSTORE SWAP4 SWAP3 POP POP POP JUMP JUMPDEST PUSH1 0x1 DUP2 GT ISZERO DUP1 PUSH3 0x2B8F JUMPI POP DUP2 PUSH1 0x1 PUSH1 0x1 PUSH1 0xA0 SHL SUB AND DUP4 PUSH1 0x1 PUSH1 0x1 PUSH1 0xA0 SHL SUB AND EQ JUMPDEST ISZERO PUSH3 0x2B9B JUMPI PUSH3 0x172A JUMP JUMPDEST PUSH1 0x7 SLOAD PUSH1 0x1 PUSH1 0x1 PUSH1 0xA0 SHL SUB DUP6 DUP2 AND SWAP2 AND EQ DUP1 ISZERO PUSH3 0x2BC1 JUMPI POP PUSH1 0x1 PUSH1 0x1 PUSH1 0xA0 SHL SUB DUP4 AND CALLER EQ JUMPDEST ISZERO PUSH3 0x2C33 JUMPI SELFBALANCE DUP2 DUP2 LT ISZERO PUSH3 0x2C00 JUMPI PUSH1 0x40 MLOAD PUSH3 0x461BCD PUSH1 0xE5 SHL DUP2 MSTORE PUSH1 0x20 PUSH1 0x4 DUP3 ADD MSTORE PUSH1 0x3 PUSH1 0x24 DUP3 ADD MSTORE PUSH3 0x185CD9 PUSH1 0xEA SHL PUSH1 0x44 DUP3 ADD MSTORE PUSH1 0x64 ADD PUSH3 0xE84 JUMP JUMPDEST DUP2 DUP2 GT ISZERO PUSH3 0x2C20 JUMPI PUSH3 0x2C20 CALLER PUSH3 0x2C1A DUP5 DUP5 PUSH3 0x5004 JUMP JUMPDEST PUSH3 0x40C1 JUMP JUMPDEST PUSH3 0x2C2C DUP4 DUP4 PUSH3 0x40C1 JUMP JUMPDEST POP PUSH3 0x172A JUMP JUMPDEST PUSH1 0x7 SLOAD PUSH1 0x1 PUSH1 0x1 PUSH1 0xA0 SHL SUB DUP6 DUP2 AND SWAP2 AND EQ DUP1 ISZERO PUSH3 0x2C5A JUMPI POP PUSH1 0x1 PUSH1 0x1 PUSH1 0xA0 SHL SUB DUP4 AND CALLER EQ ISZERO JUMPDEST ISZERO PUSH3 0x2CCA JUMPI PUSH1 0x40 MLOAD PUSH4 0x6E6A469 PUSH1 0xE2 SHL DUP2 MSTORE PUSH1 0x1 PUSH1 0x1 PUSH1 0xA0 SHL SUB DUP4 DUP2 AND PUSH1 0x4 DUP4 ADD MSTORE PUSH1 0x24 DUP3 ADD DUP4 SWAP1 MSTORE DUP5 AND SWAP1 PUSH4 0x1B9A91A4 SWAP1 PUSH1 0x44 ADD PUSH1 0x0 PUSH1 0x40 MLOAD DUP1 DUP4 SUB DUP2 PUSH1 0x0 DUP8 DUP1 EXTCODESIZE ISZERO DUP1 ISZERO PUSH3 0x2CAB JUMPI PUSH1 0x0 DUP1 REVERT JUMPDEST POP GAS CALL ISZERO DUP1 ISZERO PUSH3 0x2CC0 JUMPI RETURNDATASIZE PUSH1 0x0 DUP1 RETURNDATACOPY RETURNDATASIZE PUSH1 0x0 REVERT JUMPDEST POP POP POP POP PUSH3 0x172A JUMP JUMPDEST PUSH3 0x172A DUP5 DUP5 DUP5 DUP5 PUSH3 0x4154 JUMP JUMPDEST PUSH1 0x0 PUSH1 0x3 DUP3 GT ISZERO PUSH3 0x2D46 JUMPI POP DUP1 PUSH1 0x0 PUSH3 0x2CF5 PUSH1 0x2 DUP4 PUSH3 0x5039 JUMP JUMPDEST PUSH3 0x2D02 SWAP1 PUSH1 0x1 PUSH3 0x4F9D JUMP JUMPDEST SWAP1 POP JUMPDEST DUP2 DUP2 LT ISZERO PUSH3 0x2D40 JUMPI SWAP1 POP DUP1 PUSH1 0x2 DUP2 PUSH3 0x2D20 DUP2 DUP7 PUSH3 0x5039 JUMP JUMPDEST PUSH3 0x2D2C SWAP2 SWAP1 PUSH3 0x4F9D JUMP JUMPDEST PUSH3 0x2D38 SWAP2 SWAP1 PUSH3 0x5039 JUMP JUMPDEST SWAP1 POP PUSH3 0x2D05 JUMP JUMPDEST POP SWAP2 SWAP1 POP JUMP JUMPDEST DUP2 ISZERO PUSH3 0x2D51 JUMPI POP PUSH1 0x1 JUMPDEST SWAP2 SWAP1 POP JUMP JUMPDEST PUSH1 0x9 SLOAD PUSH1 0x0 SWAP1 DUP2 SWAP1 DUP6 DUP6 GT DUP1 ISZERO PUSH3 0x2D6E JUMPI POP PUSH1 0x0 DUP7 GT JUMPDEST DUP1 ISZERO PUSH3 0x2D7B JUMPI POP PUSH1 0x0 DUP2 GT JUMPDEST ISZERO PUSH3 0x2DE5 JUMPI PUSH3 0x2D8D DUP2 DUP8 PUSH3 0x4DDE JUMP JUMPDEST PUSH3 0x2D9A DUP3 PUSH1 0x64 PUSH3 0x5004 JUMP JUMPDEST PUSH3 0x2DA6 SWAP1 DUP8 PUSH3 0x4DDE JUMP JUMPDEST PUSH3 0x2DB2 SWAP2 SWAP1 PUSH3 0x4F9D JUMP JUMPDEST PUSH3 0x2DBE DUP8 DUP8 PUSH3 0x5004 JUMP JUMPDEST PUSH3 0x2DCA DUP4 DUP8 PUSH3 0x4DDE JUMP JUMPDEST PUSH3 0x2DD6 SWAP2 SWAP1 PUSH3 0x4DDE JUMP JUMPDEST PUSH3 0x2DE2 SWAP2 SWAP1 PUSH3 0x5039 JUMP JUMPDEST SWAP2 POP JUMPDEST POP SWAP5 SWAP4 POP POP POP POP JUMP JUMPDEST PUSH1 0x1 PUSH1 0x1 PUSH1 0xA0 SHL SUB DUP5 AND PUSH3 0x2E16 JUMPI PUSH1 0x40 MLOAD PUSH4 0x3E11866B PUSH1 0xE2 SHL DUP2 MSTORE PUSH1 0x4 ADD PUSH1 0x40 MLOAD DUP1 SWAP2 SUB SWAP1 REVERT JUMPDEST DUP2 PUSH3 0x2E22 JUMPI PUSH3 0x172A JUMP JUMPDEST PUSH1 0x0 DUP4 DUP2 MSTORE PUSH1 0x12 PUSH1 0x20 MSTORE PUSH1 0x40 DUP2 KECCAK256 DUP1 SLOAD CALLER SWAP3 DUP6 SWAP3 SWAP2 PUSH3 0x2E44 SWAP1 DUP5 SWAP1 PUSH3 0x4F9D JUMP JUMPDEST SWAP1 SWAP2 SSTORE POP POP PUSH1 0x0 DUP5 DUP2 MSTORE PUSH1 0xF PUSH1 0x20 SWAP1 DUP2 MSTORE PUSH1 0x40 DUP1 DUP4 KECCAK256 PUSH1 0x1 PUSH1 0x1 PUSH1 0xA0 SHL SUB DUP10 DUP2 AND DUP1 DUP7 MSTORE SWAP2 DUP5 MSTORE DUP3 DUP6 KECCAK256 DUP1 SLOAD DUP10 ADD SWAP1 SSTORE DUP3 MLOAD DUP10 DUP2 MSTORE SWAP4 DUP5 ADD DUP9 SWAP1 MSTORE SWAP1 SWAP4 SWAP3 SWAP1 DUP6 AND SWAP2 PUSH32 0xC3D58168C5AE7397731D063D5BBF3D657854427343F4C083240F7AACAA2D0F62 SWAP2 ADD PUSH1 0x40 MLOAD DUP1 SWAP2 SUB SWAP1 LOG4 PUSH3 0x21A5 DUP2 PUSH1 0x0 DUP8 DUP8 DUP8 DUP8 PUSH3 0x424A JUMP JUMPDEST PUSH1 0x1 PUSH1 0x1 PUSH1 0xA0 SHL SUB DUP3 AND PUSH1 0x0 SWAP1 DUP2 MSTORE PUSH1 0x2 PUSH1 0x20 MSTORE PUSH1 0x40 DUP2 KECCAK256 SLOAD DUP4 SWAP1 ISZERO DUP1 PUSH3 0x2EF7 JUMPI POP PUSH1 0x0 SLOAD PUSH1 0x1 PUSH1 0x1 PUSH1 0xA0 SHL SUB DUP3 DUP2 AND SWAP2 AND EQ JUMPDEST ISZERO PUSH3 0x2F17 JUMPI PUSH1 0x40 MLOAD PUSH3 0x461BCD PUSH1 0xE5 SHL DUP2 MSTORE PUSH1 0x4 ADD PUSH3 0xE84 SWAP1 PUSH3 0x4FCE JUMP JUMPDEST PUSH3 0x2F38 DUP4 DUP7 PUSH1 0x0 ADD MLOAD DUP8 PUSH1 0x20 ADD MLOAD PUSH3 0x2F32 DUP9 DUP11 PUSH3 0x2FAE JUMP JUMPDEST PUSH3 0x4316 JUMP JUMPDEST SWAP6 SWAP5 POP POP POP POP POP JUMP JUMPDEST PUSH1 0x1 PUSH1 0x1 PUSH1 0xA0 SHL SUB DUP3 AND PUSH1 0x0 SWAP1 DUP2 MSTORE PUSH1 0x2 PUSH1 0x20 MSTORE PUSH1 0x40 DUP2 KECCAK256 SLOAD DUP4 SWAP1 ISZERO DUP1 PUSH3 0x2F76 JUMPI POP PUSH1 0x0 SLOAD PUSH1 0x1 PUSH1 0x1 PUSH1 0xA0 SHL SUB DUP3 DUP2 AND SWAP2 AND EQ JUMPDEST ISZERO PUSH3 0x2F96 JUMPI PUSH1 0x40 MLOAD PUSH3 0x461BCD PUSH1 0xE5 SHL DUP2 MSTORE PUSH1 0x4 ADD PUSH3 0xE84 SWAP1 PUSH3 0x4FCE JUMP JUMPDEST PUSH3 0x2F38 DUP4 DUP7 PUSH1 0x20 ADD MLOAD DUP8 PUSH1 0x0 ADD MLOAD PUSH2 0x2710 PUSH3 0x4316 JUMP JUMPDEST PUSH1 0x0 DUP1 PUSH3 0x2FBB PUSH3 0x435C JUMP JUMPDEST SWAP1 POP PUSH1 0x0 DUP1 PUSH1 0x8 PUSH1 0x6 ADD SLOAD DUP4 PUSH3 0x2FD3 SWAP2 SWAP1 PUSH3 0x5004 JUMP JUMPDEST SWAP1 POP JUMPDEST DUP3 DUP2 LT ISZERO PUSH3 0x3026 JUMPI PUSH1 0x1 PUSH1 0x1 PUSH1 0xA0 SHL SUB DUP7 AND PUSH1 0x0 SWAP1 DUP2 MSTORE PUSH1 0x3 PUSH1 0x20 SWAP1 DUP2 MSTORE PUSH1 0x40 DUP1 DUP4 KECCAK256 DUP5 DUP5 MSTORE SWAP1 SWAP2 MSTORE SWAP1 KECCAK256 SLOAD PUSH3 0x300F SWAP1 DUP4 PUSH3 0x4F9D JUMP JUMPDEST SWAP2 POP DUP1 PUSH3 0x301D DUP2 PUSH3 0x4F7F JUMP JUMPDEST SWAP2 POP POP PUSH3 0x2FD6 JUMP JUMPDEST POP PUSH1 0x0 PUSH5 0x2540BE400 PUSH1 0x8 PUSH1 0x4 ADD SLOAD DUP7 PUSH1 0x20 ADD MLOAD PUSH3 0x3046 SWAP2 SWAP1 PUSH3 0x4DDE JUMP JUMPDEST PUSH3 0x3052 SWAP2 SWAP1 PUSH3 0x5039 JUMP JUMPDEST SWAP1 POP PUSH1 0x0 PUSH5 0x2540BE400 PUSH1 0x8 PUSH1 0x5 ADD SLOAD DUP8 PUSH1 0x20 ADD MLOAD PUSH3 0x3073 SWAP2 SWAP1 PUSH3 0x4DDE JUMP JUMPDEST PUSH3 0x307F SWAP2 SWAP1 PUSH3 0x5039 JUMP JUMPDEST SWAP1 POP DUP2 DUP4 GT PUSH3 0x30A6 JUMPI PUSH1 0xB SLOAD PUSH3 0x309A SWAP1 PUSH2 0x2710 PUSH3 0x5004 JUMP JUMPDEST SWAP5 POP POP POP POP POP PUSH3 0xA28 JUMP JUMPDEST DUP1 DUP4 LT PUSH3 0x30BF JUMPI PUSH1 0xA SLOAD PUSH3 0x309A SWAP1 PUSH2 0x2710 PUSH3 0x5004 JUMP JUMPDEST PUSH3 0x30CB DUP3 DUP3 PUSH3 0x5004 JUMP JUMPDEST PUSH1 0xA SLOAD PUSH1 0xB SLOAD PUSH3 0x30DD SWAP2 SWAP1 PUSH3 0x5004 JUMP JUMPDEST PUSH3 0x30E9 DUP5 DUP7 PUSH3 0x5004 JUMP JUMPDEST PUSH3 0x30F5 SWAP2 SWAP1 PUSH3 0x4DDE JUMP JUMPDEST PUSH3 0x3101 SWAP2 SWAP1 PUSH3 0x5039 JUMP JUMPDEST PUSH1 0xB SLOAD PUSH3 0x3112 SWAP1 PUSH2 0x2710 PUSH3 0x5004 JUMP JUMPDEST PUSH3 0x170F SWAP2 SWAP1 PUSH3 0x4F9D JUMP JUMPDEST PUSH1 0x16 DUP1 SLOAD PUSH1 0x1 PUSH1 0x1 PUSH1 0xA0 SHL SUB DUP4 DUP2 AND PUSH1 0x1 PUSH1 0x1 PUSH1 0xA0 SHL SUB NOT DUP4 AND DUP2 OR SWAP1 SWAP4 SSTORE PUSH1 0x40 MLOAD SWAP2 AND SWAP2 SWAP1 DUP3 SWAP1 PUSH32 0x8BE0079C531659141344CD1FD0A4F28419497F9722A3DAAFE3B4186F6B6457E0 SWAP1 PUSH1 0x0 SWAP1 LOG3 POP POP JUMP JUMPDEST PUSH1 0x1 PUSH1 0x1 PUSH1 0xA0 SHL SUB DUP4 AND PUSH1 0x0 SWAP1 DUP2 MSTORE PUSH1 0x2 PUSH1 0x20 MSTORE PUSH1 0x40 DUP2 KECCAK256 SLOAD PUSH1 0x1 DUP1 SLOAD DUP4 SWAP2 SWAP1 DUP4 SWAP1 DUP2 LT PUSH3 0x31A3 JUMPI PUSH3 0x31A3 PUSH3 0x4FB8 JUMP JUMPDEST PUSH1 0x0 SWAP2 DUP3 MSTORE PUSH1 0x20 DUP3 KECCAK256 PUSH1 0x2 SWAP1 SWAP2 MUL ADD DUP1 SLOAD SWAP1 SWAP3 POP PUSH3 0x31CD SWAP1 DUP9 SWAP1 PUSH1 0x1 PUSH1 0x1 PUSH1 0xA0 SHL SUB AND PUSH3 0x2B19 JUMP JUMPDEST PUSH1 0x0 DUP5 DUP2 MSTORE PUSH1 0x12 PUSH1 0x20 MSTORE PUSH1 0x40 DUP2 KECCAK256 SLOAD DUP3 MLOAD SWAP3 SWAP4 POP SWAP2 DUP3 SWAP1 PUSH3 0x31F1 SWAP1 DUP11 SWAP1 PUSH3 0x4DDE JUMP JUMPDEST PUSH3 0x31FD SWAP2 SWAP1 PUSH3 0x5039 JUMP JUMPDEST SWAP1 POP PUSH1 0x0 DUP3 DUP10 DUP6 PUSH1 0x20 ADD MLOAD PUSH3 0x3214 SWAP2 SWAP1 PUSH3 0x4DDE JUMP JUMPDEST PUSH3 0x3220 SWAP2 SWAP1 PUSH3 0x5039 JUMP JUMPDEST SWAP1 POP PUSH1 0x0 PUSH3 0x323E DUP6 PUSH1 0x20 ADD MLOAD DUP7 PUSH1 0x0 ADD MLOAD PUSH3 0xF9A SWAP2 SWAP1 PUSH3 0x4DDE JUMP JUMPDEST PUSH1 0x1 DUP8 ADD SLOAD SWAP1 SWAP2 POP PUSH1 0x0 SWAP1 PUSH3 0x325F SWAP1 PUSH1 0x1 PUSH1 0x1 PUSH1 0x80 SHL SUB AND DUP4 DUP8 PUSH3 0x2D56 JUMP JUMPDEST PUSH1 0x8 SLOAD PUSH1 0x40 DUP1 MLOAD PUSH1 0x20 DUP2 ADD SWAP1 SWAP2 MSTORE PUSH1 0x0 DUP2 MSTORE SWAP2 SWAP3 POP PUSH3 0x328F SWAP2 PUSH1 0x1 PUSH1 0x1 PUSH1 0xA0 SHL SUB SWAP1 SWAP2 AND SWAP1 DUP11 SWAP1 DUP5 SWAP1 PUSH3 0x2DEE JUMP JUMPDEST PUSH1 0x0 PUSH1 0x40 MLOAD DUP1 PUSH1 0x40 ADD PUSH1 0x40 MSTORE DUP1 DUP7 DUP10 PUSH1 0x0 ADD MLOAD PUSH3 0x32AE SWAP2 SWAP1 PUSH3 0x5004 JUMP JUMPDEST DUP2 MSTORE PUSH1 0x20 ADD DUP6 DUP10 PUSH1 0x20 ADD MLOAD PUSH3 0x32C5 SWAP2 SWAP1 PUSH3 0x5004 JUMP JUMPDEST SWAP1 MSTORE PUSH1 0x20 DUP2 ADD MLOAD DUP2 MLOAD SWAP2 SWAP3 POP PUSH3 0x32E2 SWAP2 PUSH3 0xF9A SWAP2 SWAP1 PUSH3 0x4DDE JUMP JUMPDEST PUSH1 0x1 DUP10 ADD DUP1 SLOAD PUSH16 0xFFFFFFFFFFFFFFFFFFFFFFFFFFFFFFFF NOT AND PUSH1 0x1 PUSH1 0x1 PUSH1 0x80 SHL SUB SWAP3 SWAP1 SWAP3 AND SWAP2 SWAP1 SWAP2 OR SWAP1 SSTORE PUSH3 0x331A CALLER DUP11 DUP15 PUSH3 0x4371 JUMP JUMPDEST PUSH1 0x0 SLOAD DUP9 SLOAD PUSH1 0x40 MLOAD PUSH4 0x18A8AD87 PUSH1 0xE0 SHL DUP2 MSTORE PUSH1 0x1 PUSH1 0x1 PUSH1 0xA0 SHL SUB SWAP2 DUP3 AND PUSH1 0x4 DUP3 ADD MSTORE PUSH1 0x24 DUP2 ADD DUP8 SWAP1 MSTORE SWAP2 AND SWAP1 PUSH4 0x18A8AD87 SWAP1 PUSH1 0x44 ADD PUSH1 0x0 PUSH1 0x40 MLOAD DUP1 DUP4 SUB DUP2 PUSH1 0x0 DUP8 DUP1 EXTCODESIZE ISZERO DUP1 ISZERO PUSH3 0x336A JUMPI PUSH1 0x0 DUP1 REVERT JUMPDEST POP GAS CALL ISZERO DUP1 ISZERO PUSH3 0x337F JUMPI RETURNDATASIZE PUSH1 0x0 DUP1 RETURNDATACOPY RETURNDATASIZE PUSH1 0x0 REVERT JUMPDEST POP POP DUP10 SLOAD PUSH3 0x339D SWAP3 POP DUP16 SWAP2 POP PUSH1 0x1 PUSH1 0x1 PUSH1 0xA0 SHL SUB AND DUP14 DUP9 PUSH3 0x2B6D JUMP JUMPDEST PUSH32 0x1DC8BB69DF2B8E91FBDCBFCF93D951B3F0000F085A95FE3F7946D6161439245D DUP14 DUP7 DUP7 DUP16 PUSH1 0x40 MLOAD PUSH3 0x33D4 SWAP5 SWAP4 SWAP3 SWAP2 SWAP1 PUSH3 0x505C JUMP JUMPDEST PUSH1 0x40 MLOAD DUP1 SWAP2 SUB SWAP1 LOG1 PUSH1 0x0 DUP1 MLOAD PUSH1 0x20 PUSH3 0x56CD DUP4 CODECOPY DUP2 MLOAD SWAP2 MSTORE DUP14 DUP3 PUSH1 0x0 ADD MLOAD DUP4 PUSH1 0x20 ADD MLOAD DUP12 PUSH1 0x1 ADD PUSH1 0x10 SWAP1 SLOAD SWAP1 PUSH2 0x100 EXP SWAP1 DIV PUSH1 0x1 PUSH1 0x1 PUSH1 0x80 SHL SUB AND PUSH1 0x40 MLOAD PUSH3 0x3421 SWAP5 SWAP4 SWAP3 SWAP2 SWAP1 PUSH3 0x5082 JUMP JUMPDEST PUSH1 0x40 MLOAD DUP1 SWAP2 SUB SWAP1 LOG1 POP SWAP3 SWAP12 SWAP11 POP POP POP POP POP POP POP POP POP POP POP JUMP JUMPDEST PUSH1 0x1 PUSH1 0x1 PUSH1 0xA0 SHL SUB DUP6 AND PUSH1 0x0 SWAP1 DUP2 MSTORE PUSH1 0x2 PUSH1 0x20 MSTORE PUSH1 0x40 SWAP1 KECCAK256 SLOAD DUP6 SWAP1 ISZERO PUSH3 0x3474 JUMPI PUSH1 0x40 MLOAD PUSH4 0x402670DF PUSH1 0xE0 SHL DUP2 MSTORE PUSH1 0x4 ADD PUSH1 0x40 MLOAD DUP1 SWAP2 SUB SWAP1 REVERT JUMPDEST PUSH1 0x0 DUP1 SLOAD PUSH1 0x7 SLOAD PUSH1 0x40 MLOAD DUP10 SWAP3 PUSH1 0x1 PUSH1 0x1 PUSH1 0xA0 SHL SUB SWAP1 DUP2 AND SWAP3 DUP2 DUP6 AND SWAP2 AND EQ SWAP1 PUSH3 0x349E SWAP1 PUSH3 0x45C3 JUMP JUMPDEST PUSH1 0x1 PUSH1 0x1 PUSH1 0xA0 SHL SUB SWAP4 DUP5 AND DUP2 MSTORE SWAP3 SWAP1 SWAP2 AND PUSH1 0x20 DUP4 ADD MSTORE ISZERO ISZERO PUSH1 0x40 DUP3 ADD MSTORE PUSH1 0x60 ADD PUSH1 0x40 MLOAD DUP1 SWAP2 SUB SWAP1 PUSH1 0x0 CREATE DUP1 ISZERO DUP1 ISZERO PUSH3 0x34DB JUMPI RETURNDATASIZE PUSH1 0x0 DUP1 RETURNDATACOPY RETURNDATASIZE PUSH1 0x0 REVERT JUMPDEST POP SWAP1 POP PUSH3 0x34EC DUP8 CALLER DUP4 DUP10 PUSH3 0x2B6D JUMP JUMPDEST PUSH1 0x0 SLOAD PUSH1 0x40 MLOAD PUSH4 0xBB9FF5D PUSH1 0xE0 SHL DUP2 MSTORE PUSH1 0x1 PUSH1 0x1 PUSH1 0xA0 SHL SUB DUP4 DUP2 AND PUSH1 0x4 DUP4 ADD MSTORE PUSH1 0x24 DUP3 ADD DUP9 SWAP1 MSTORE SWAP1 SWAP2 AND SWAP1 PUSH4 0xBB9FF5D SWAP1 PUSH1 0x44 ADD PUSH1 0x0 PUSH1 0x40 MLOAD DUP1 DUP4 SUB DUP2 PUSH1 0x0 DUP8 DUP1 EXTCODESIZE ISZERO DUP1 ISZERO PUSH3 0x353B JUMPI PUSH1 0x0 DUP1 REVERT JUMPDEST POP GAS CALL ISZERO DUP1 ISZERO PUSH3 0x3550 JUMPI RETURNDATASIZE PUSH1 0x0 DUP1 RETURNDATACOPY RETURNDATASIZE PUSH1 0x0 REVERT JUMPDEST POP POP POP POP PUSH3 0x3560 DUP8 DUP3 PUSH3 0x4025 JUMP JUMPDEST SWAP6 POP PUSH1 0x1 DUP7 GT PUSH3 0x3585 JUMPI PUSH1 0x40 MLOAD PUSH3 0x461BCD PUSH1 0xE5 SHL DUP2 MSTORE PUSH1 0x4 ADD PUSH3 0xE84 SWAP1 PUSH3 0x501E JUMP JUMPDEST PUSH1 0x0 PUSH3 0x3597 PUSH3 0xF9A DUP8 DUP10 PUSH3 0x4DDE JUMP JUMPDEST PUSH1 0x40 DUP1 MLOAD PUSH1 0x60 DUP2 ADD DUP3 MSTORE PUSH1 0x1 PUSH1 0x1 PUSH1 0xA0 SHL SUB DUP1 DUP7 AND DUP3 MSTORE PUSH1 0x1 PUSH1 0x1 PUSH1 0x80 SHL SUB DUP1 DUP6 AND PUSH1 0x20 DUP1 DUP6 ADD SWAP2 DUP3 MSTORE DUP12 DUP4 AND DUP6 DUP8 ADD SWAP1 DUP2 MSTORE PUSH1 0x1 DUP1 SLOAD DUP1 DUP3 ADD DUP3 SSTORE PUSH1 0x0 SWAP2 DUP3 MSTORE DUP8 MLOAD PUSH1 0x2 DUP1 DUP4 MUL PUSH32 0xB10E2D527612073B26EECDFD717E6A320CF44B4AFAC2B0732D9FCBE2B7FA0CF6 DUP2 ADD DUP1 SLOAD SWAP4 DUP12 AND PUSH1 0x1 PUSH1 0x1 PUSH1 0xA0 SHL SUB NOT SWAP1 SWAP5 AND SWAP4 SWAP1 SWAP4 OR SWAP1 SWAP3 SSTORE SWAP6 MLOAD SWAP4 MLOAD DUP8 AND PUSH1 0x1 PUSH1 0x80 SHL MUL SWAP4 SWAP1 SWAP7 AND SWAP3 SWAP1 SWAP3 OR PUSH32 0xB10E2D527612073B26EECDFD717E6A320CF44B4AFAC2B0732D9FCBE2B7FA0CF7 SWAP1 SWAP6 ADD SWAP5 SWAP1 SWAP5 SSTORE SWAP4 DUP16 AND DUP4 MSTORE SWAP1 DUP2 MSTORE DUP5 DUP3 KECCAK256 DUP4 SWAP1 SSTORE DUP5 MLOAD SWAP1 DUP2 ADD SWAP1 SWAP5 MSTORE DUP4 MSTORE SWAP3 SWAP4 POP SWAP2 SWAP1 PUSH3 0x3688 SWAP1 PUSH2 0xDEAD SWAP1 DUP4 SWAP1 PUSH2 0x3E8 SWAP1 PUSH3 0x2DEE JUMP JUMPDEST PUSH1 0x0 PUSH3 0x3698 PUSH2 0x3E8 DUP6 PUSH3 0x5004 JUMP JUMPDEST SWAP1 POP PUSH3 0x36B7 DUP8 DUP4 DUP4 PUSH1 0x40 MLOAD DUP1 PUSH1 0x20 ADD PUSH1 0x40 MSTORE DUP1 PUSH1 0x0 DUP2 MSTORE POP PUSH3 0x2DEE JUMP JUMPDEST PUSH1 0x40 DUP1 MLOAD PUSH1 0x1 PUSH1 0x1 PUSH1 0xA0 SHL SUB DUP14 AND DUP2 MSTORE PUSH1 0x20 DUP2 ADD DUP5 SWAP1 MSTORE PUSH32 0x641E49906554552C8C33D7E09E02D1270590F405BC1DA0C7B99A9C2808ABDD05 SWAP2 ADD PUSH1 0x40 MLOAD DUP1 SWAP2 SUB SWAP1 LOG1 PUSH32 0x64B83944E79C3CE8D4C297411DE637C3E102D064677AAC0C163976EBDCD6F50E DUP12 DUP12 DUP12 DUP5 PUSH1 0x40 MLOAD PUSH3 0x3730 SWAP5 SWAP4 SWAP3 SWAP2 SWAP1 PUSH3 0x505C JUMP JUMPDEST PUSH1 0x40 MLOAD DUP1 SWAP2 SUB SWAP1 LOG1 PUSH1 0x0 DUP1 MLOAD PUSH1 0x20 PUSH3 0x56CD DUP4 CODECOPY DUP2 MLOAD SWAP2 MSTORE DUP12 DUP12 DUP12 DUP12 PUSH1 0x40 MLOAD PUSH3 0x375E SWAP5 SWAP4 SWAP3 SWAP2 SWAP1 PUSH3 0x505C JUMP JUMPDEST PUSH1 0x40 MLOAD DUP1 SWAP2 SUB SWAP1 LOG1 POP POP POP POP POP POP POP POP POP POP POP JUMP JUMPDEST DUP2 PUSH1 0x1 PUSH1 0x1 PUSH1 0xA0 SHL SUB AND DUP4 PUSH1 0x1 PUSH1 0x1 PUSH1 0xA0 SHL SUB AND EQ ISZERO PUSH3 0x37A7 JUMPI PUSH1 0x40 MLOAD PUSH4 0x180A65B9 PUSH1 0xE3 SHL DUP2 MSTORE PUSH1 0x4 ADD PUSH1 0x40 MLOAD DUP1 SWAP2 SUB SWAP1 REVERT JUMPDEST PUSH1 0x1 PUSH1 0x1 PUSH1 0xA0 SHL SUB DUP4 DUP2 AND PUSH1 0x0 DUP2 DUP2 MSTORE PUSH1 0x10 PUSH1 0x20 SWAP1 DUP2 MSTORE PUSH1 0x40 DUP1 DUP4 KECCAK256 SWAP5 DUP8 AND DUP1 DUP5 MSTORE SWAP5 DUP3 MSTORE SWAP2 DUP3 SWAP1 KECCAK256 DUP1 SLOAD PUSH1 0xFF NOT AND DUP7 ISZERO ISZERO SWAP1 DUP2 OR SWAP1 SWAP2 SSTORE SWAP2 MLOAD SWAP2 DUP3 MSTORE PUSH32 0x17307EAB39AB6107E8899845AD3D59BD9653F200F220920489CA2B5937696C31 SWAP2 ADD PUSH1 0x40 MLOAD DUP1 SWAP2 SUB SWAP1 LOG3 POP POP POP JUMP JUMPDEST PUSH1 0x1 PUSH1 0x1 PUSH1 0xA0 SHL SUB DUP6 AND PUSH1 0x0 SWAP1 DUP2 MSTORE PUSH1 0x2 PUSH1 0x20 MSTORE PUSH1 0x40 SWAP1 KECCAK256 SLOAD DUP6 SWAP1 ISZERO DUP1 PUSH3 0x3849 JUMPI POP PUSH1 0x0 SLOAD PUSH1 0x1 PUSH1 0x1 PUSH1 0xA0 SHL SUB DUP3 DUP2 AND SWAP2 AND EQ JUMPDEST ISZERO PUSH3 0x3869 JUMPI PUSH1 0x40 MLOAD PUSH3 0x461BCD PUSH1 0xE5 SHL DUP2 MSTORE PUSH1 0x4 ADD PUSH3 0xE84 SWAP1 PUSH3 0x4FCE JUMP JUMPDEST PUSH1 0x1 PUSH1 0x1 PUSH1 0xA0 SHL SUB DUP7 AND PUSH1 0x0 SWAP1 DUP2 MSTORE PUSH1 0x2 PUSH1 0x20 MSTORE PUSH1 0x40 DUP2 KECCAK256 SLOAD PUSH1 0x1 DUP1 SLOAD SWAP1 SWAP2 SWAP1 DUP2 LT PUSH3 0x389A JUMPI PUSH3 0x389A PUSH3 0x4FB8 JUMP JUMPDEST PUSH1 0x0 SWAP2 DUP3 MSTORE PUSH1 0x20 DUP3 KECCAK256 PUSH1 0x2 SWAP1 SWAP2 MUL ADD DUP1 SLOAD SWAP1 SWAP3 POP PUSH3 0x38C4 SWAP1 DUP10 SWAP1 PUSH1 0x1 PUSH1 0x1 PUSH1 0xA0 SHL SUB AND PUSH3 0x2B19 JUMP JUMPDEST SWAP1 POP PUSH1 0x0 DUP8 PUSH1 0x20 ADD MLOAD DUP3 PUSH1 0x20 ADD MLOAD PUSH3 0x38DE SWAP2 SWAP1 PUSH3 0x5004 JUMP JUMPDEST DUP9 MLOAD DUP4 MLOAD SWAP2 SWAP3 POP PUSH1 0x0 SWAP2 PUSH3 0x38F4 SWAP2 SWAP1 PUSH3 0x5004 JUMP JUMPDEST SWAP1 POP PUSH1 0x1 PUSH3 0x3904 DUP4 DUP4 PUSH3 0x4F9D JUMP JUMPDEST GT PUSH3 0x3937 JUMPI PUSH1 0x40 MLOAD PUSH3 0x461BCD PUSH1 0xE5 SHL DUP2 MSTORE PUSH1 0x20 PUSH1 0x4 DUP3 ADD MSTORE PUSH1 0x1 PUSH1 0x24 DUP3 ADD MSTORE PUSH1 0x19 PUSH1 0xF9 SHL PUSH1 0x44 DUP3 ADD MSTORE PUSH1 0x64 ADD PUSH3 0xE84 JUMP JUMPDEST PUSH1 0x1 DUP5 ADD SLOAD PUSH1 0x1 PUSH1 0x1 PUSH1 0x80 SHL SUB PUSH1 0x1 PUSH1 0x80 SHL SWAP1 SWAP2 DIV DUP2 AND LT DUP1 ISZERO PUSH3 0x397D JUMPI POP PUSH1 0x1 DUP5 ADD SLOAD DUP8 SWAP1 PUSH3 0x397B SWAP1 DUP5 SWAP1 PUSH1 0x1 PUSH1 0x80 SHL SWAP1 DIV PUSH1 0x1 PUSH1 0x1 PUSH1 0x80 SHL SUB AND PUSH3 0x4F9D JUMP JUMPDEST LT JUMPDEST ISZERO PUSH3 0x39B0 JUMPI PUSH1 0x40 MLOAD PUSH3 0x461BCD PUSH1 0xE5 SHL DUP2 MSTORE PUSH1 0x20 PUSH1 0x4 DUP3 ADD MSTORE PUSH1 0x1 PUSH1 0x24 DUP3 ADD MSTORE PUSH1 0x2D PUSH1 0xF9 SHL PUSH1 0x44 DUP3 ADD MSTORE PUSH1 0x64 ADD PUSH3 0xE84 JUMP JUMPDEST PUSH1 0x0 PUSH3 0x39BC PUSH3 0x435C JUMP JUMPDEST SWAP1 POP PUSH2 0x2710 DUP9 ISZERO PUSH3 0x3A48 JUMPI PUSH1 0x1 PUSH1 0x1 PUSH1 0xA0 SHL SUB DUP13 AND PUSH1 0x0 SWAP1 DUP2 MSTORE PUSH1 0x4 PUSH1 0x20 SWAP1 DUP2 MSTORE PUSH1 0x40 DUP1 DUP4 KECCAK256 DUP6 DUP5 MSTORE SWAP1 SWAP2 MSTORE SWAP1 KECCAK256 SLOAD PUSH3 0x3A22 JUMPI PUSH3 0x39FD DUP13 DUP13 PUSH3 0x2FAE JUMP JUMPDEST PUSH1 0x1 PUSH1 0x1 PUSH1 0xA0 SHL SUB DUP14 AND PUSH1 0x0 SWAP1 DUP2 MSTORE PUSH1 0x4 PUSH1 0x20 SWAP1 DUP2 MSTORE PUSH1 0x40 DUP1 DUP4 KECCAK256 DUP7 DUP5 MSTORE SWAP1 SWAP2 MSTORE SWAP1 KECCAK256 SSTORE JUMPDEST POP PUSH1 0x1 PUSH1 0x1 PUSH1 0xA0 SHL SUB DUP12 AND PUSH1 0x0 SWAP1 DUP2 MSTORE PUSH1 0x4 PUSH1 0x20 SWAP1 DUP2 MSTORE PUSH1 0x40 DUP1 DUP4 KECCAK256 DUP5 DUP5 MSTORE SWAP1 SWAP2 MSTORE SWAP1 KECCAK256 SLOAD JUMPDEST PUSH1 0x0 PUSH3 0x3A58 DUP3 PUSH2 0x2710 PUSH3 0x5004 JUMP JUMPDEST PUSH3 0x3A64 SWAP1 DUP6 PUSH3 0x4DDE JUMP JUMPDEST DUP7 MLOAD PUSH3 0x3A75 SWAP1 PUSH2 0x2710 SWAP1 PUSH3 0x4DDE JUMP JUMPDEST PUSH3 0x3A81 SWAP2 SWAP1 PUSH3 0x5004 JUMP JUMPDEST PUSH3 0x3A8F DUP4 PUSH2 0x2710 PUSH3 0x5004 JUMP JUMPDEST PUSH3 0x3A9B SWAP1 DUP8 PUSH3 0x4DDE JUMP JUMPDEST PUSH2 0x2710 DUP9 PUSH1 0x20 ADD MLOAD PUSH3 0x3AAF SWAP2 SWAP1 PUSH3 0x4DDE JUMP JUMPDEST PUSH3 0x3ABB SWAP2 SWAP1 PUSH3 0x5004 JUMP JUMPDEST PUSH3 0x3AC7 SWAP2 SWAP1 PUSH3 0x4DDE JUMP JUMPDEST SWAP1 POP PUSH3 0x3AD7 PUSH2 0x2710 DUP1 PUSH3 0x4DDE JUMP JUMPDEST PUSH1 0x20 DUP14 ADD MLOAD DUP14 MLOAD PUSH3 0x3AEA SWAP2 SWAP1 PUSH3 0x4DDE JUMP JUMPDEST PUSH3 0x3AF6 SWAP2 SWAP1 PUSH3 0x4DDE JUMP JUMPDEST DUP2 LT ISZERO PUSH3 0x3B2B JUMPI PUSH1 0x40 MLOAD PUSH3 0x461BCD PUSH1 0xE5 SHL DUP2 MSTORE PUSH1 0x20 PUSH1 0x4 DUP3 ADD MSTORE PUSH1 0x1 PUSH1 0x24 DUP3 ADD MSTORE PUSH1 0x31 PUSH1 0xF8 SHL PUSH1 0x44 DUP3 ADD MSTORE PUSH1 0x64 ADD PUSH3 0xE84 JUMP JUMPDEST PUSH1 0x1 DUP8 ADD SLOAD PUSH1 0x1 PUSH1 0x1 PUSH1 0x80 SHL SUB PUSH1 0x1 PUSH1 0x80 SHL SWAP1 SWAP2 DIV DUP2 AND LT ISZERO PUSH3 0x3B99 JUMPI PUSH1 0x1 DUP8 ADD SLOAD DUP11 SWAP1 PUSH3 0x3B6D SWAP1 DUP8 SWAP1 PUSH1 0x1 PUSH1 0x80 SHL SWAP1 DIV PUSH1 0x1 PUSH1 0x1 PUSH1 0x80 SHL SUB AND PUSH3 0x4F9D JUMP JUMPDEST PUSH3 0x3B79 SWAP2 SWAP1 PUSH3 0x5004 JUMP JUMPDEST PUSH1 0x1 DUP9 ADD DUP1 SLOAD PUSH1 0x1 PUSH1 0x1 PUSH1 0x80 SHL SUB SWAP3 DUP4 AND PUSH1 0x1 PUSH1 0x80 SHL MUL SWAP3 AND SWAP2 SWAP1 SWAP2 OR SWAP1 SSTORE JUMPDEST PUSH1 0x1 DUP11 GT ISZERO PUSH3 0x3BDE JUMPI PUSH1 0x1 PUSH1 0x1 PUSH1 0xA0 SHL SUB DUP14 AND PUSH1 0x0 SWAP1 DUP2 MSTORE PUSH1 0x3 PUSH1 0x20 SWAP1 DUP2 MSTORE PUSH1 0x40 DUP1 DUP4 KECCAK256 DUP7 DUP5 MSTORE SWAP1 SWAP2 MSTORE DUP2 KECCAK256 DUP1 SLOAD DUP13 SWAP3 SWAP1 PUSH3 0x3BD8 SWAP1 DUP5 SWAP1 PUSH3 0x4F9D JUMP JUMPDEST SWAP1 SWAP2 SSTORE POP POP JUMPDEST POP DUP6 SLOAD PUSH3 0x3BF9 SWAP1 DUP14 SWAP1 PUSH1 0x1 PUSH1 0x1 PUSH1 0xA0 SHL SUB AND DUP11 DUP14 PUSH3 0x2B6D JUMP JUMPDEST PUSH1 0x0 SLOAD DUP7 SLOAD PUSH3 0x3C18 SWAP2 PUSH1 0x1 PUSH1 0x1 PUSH1 0xA0 SHL SUB SWAP1 DUP2 AND SWAP2 AND DUP11 DUP13 PUSH3 0x2B6D JUMP JUMPDEST PUSH32 0x4AB7F3F4678BF8F6CBE4D85E4007B7C64DF8E1D5D97DE1628F4A6416F9D1DB03 DUP13 CALLER DUP6 DUP8 DUP15 DUP15 PUSH3 0x3C4D DUP9 PUSH2 0x2710 PUSH3 0x5004 JUMP JUMPDEST PUSH1 0x40 DUP1 MLOAD PUSH1 0x1 PUSH1 0x1 PUSH1 0xA0 SHL SUB SWAP9 DUP10 AND DUP2 MSTORE SWAP7 DUP9 AND PUSH1 0x20 DUP9 ADD MSTORE DUP7 ADD SWAP5 SWAP1 SWAP5 MSTORE PUSH1 0x60 DUP6 ADD SWAP3 SWAP1 SWAP3 MSTORE PUSH1 0x80 DUP5 ADD MSTORE PUSH1 0xA0 DUP4 ADD MSTORE PUSH1 0xC0 DUP3 ADD MSTORE SWAP1 DUP11 AND PUSH1 0xE0 DUP3 ADD MSTORE PUSH2 0x100 ADD PUSH1 0x40 MLOAD DUP1 SWAP2 SUB SWAP1 LOG1 PUSH1 0x0 DUP1 MLOAD PUSH1 0x20 PUSH3 0x56CD DUP4 CODECOPY DUP2 MLOAD SWAP2 MSTORE DUP13 DUP7 PUSH1 0x0 ADD MLOAD DUP8 PUSH1 0x20 ADD MLOAD DUP10 PUSH1 0x1 ADD PUSH1 0x10 SWAP1 SLOAD SWAP1 PUSH2 0x100 EXP SWAP1 DIV PUSH1 0x1 PUSH1 0x1 PUSH1 0x80 SHL SUB AND PUSH1 0x40 MLOAD PUSH3 0x3CDC SWAP5 SWAP4 SWAP3 SWAP2 SWAP1 PUSH3 0x5082 JUMP JUMPDEST PUSH1 0x40 MLOAD DUP1 SWAP2 SUB SWAP1 LOG1 POP POP POP POP POP POP POP POP POP POP POP POP JUMP JUMPDEST DUP1 MLOAD PUSH3 0x3D07 SWAP1 PUSH1 0x11 SWAP1 PUSH1 0x20 DUP5 ADD SWAP1 PUSH3 0x44B7 JUMP JUMPDEST POP POP JUMP JUMPDEST PUSH1 0x1 PUSH1 0x1 PUSH1 0xA0 SHL SUB DUP3 AND PUSH1 0x0 SWAP1 DUP2 MSTORE PUSH1 0x2 PUSH1 0x20 MSTORE PUSH1 0x40 DUP2 KECCAK256 SLOAD DUP4 SWAP1 ISZERO DUP1 PUSH3 0x3D40 JUMPI POP PUSH1 0x0 SLOAD PUSH1 0x1 PUSH1 0x1 PUSH1 0xA0 SHL SUB DUP3 DUP2 AND SWAP2 AND EQ JUMPDEST ISZERO PUSH3 0x3D60 JUMPI PUSH1 0x40 MLOAD PUSH3 0x461BCD PUSH1 0xE5 SHL DUP2 MSTORE PUSH1 0x4 ADD PUSH3 0xE84 SWAP1 PUSH3 0x4FCE JUMP JUMPDEST PUSH3 0x2F38 DUP4 DUP7 PUSH1 0x0 ADD MLOAD DUP8 PUSH1 0x20 ADD MLOAD PUSH3 0x3D7B DUP9 DUP11 PUSH3 0x2FAE JUMP JUMPDEST PUSH3 0x445E JUMP JUMPDEST PUSH1 0x1 PUSH1 0x1 PUSH1 0xA0 SHL SUB DUP3 AND PUSH1 0x0 SWAP1 DUP2 MSTORE PUSH1 0x2 PUSH1 0x20 MSTORE PUSH1 0x40 DUP2 KECCAK256 SLOAD DUP4 SWAP1 ISZERO DUP1 PUSH3 0x3DB6 JUMPI POP PUSH1 0x0 SLOAD PUSH1 0x1 PUSH1 0x1 PUSH1 0xA0 SHL SUB DUP3 DUP2 AND SWAP2 AND EQ JUMPDEST ISZERO PUSH3 0x3DD6 JUMPI PUSH1 0x40 MLOAD PUSH3 0x461BCD PUSH1 0xE5 SHL DUP2 MSTORE PUSH1 0x4 ADD PUSH3 0xE84 SWAP1 PUSH3 0x4FCE JUMP JUMPDEST PUSH3 0x2F38 DUP4 DUP7 PUSH1 0x20 ADD MLOAD DUP8 PUSH1 0x0 ADD MLOAD PUSH2 0x2710 PUSH3 0x445E JUMP JUMPDEST PUSH1 0x1 PUSH1 0x1 PUSH1 0xA0 SHL SUB DUP6 AND PUSH3 0x3E16 JUMPI PUSH1 0x40 MLOAD PUSH4 0x7CC7869 PUSH1 0xE3 SHL DUP2 MSTORE PUSH1 0x4 ADD PUSH1 0x40 MLOAD DUP1 SWAP2 SUB SWAP1 REVERT JUMPDEST PUSH1 0x0 DUP5 DUP2 MSTORE PUSH1 0xF PUSH1 0x20 SWAP1 DUP2 MSTORE PUSH1 0x40 DUP1 DUP4 KECCAK256 PUSH1 0x1 PUSH1 0x1 PUSH1 0xA0 SHL SUB DUP11 AND DUP5 MSTORE SWAP1 SWAP2 MSTORE SWAP1 KECCAK256 SLOAD CALLER SWAP1 DUP5 DUP2 LT ISZERO PUSH3 0x3E5D JUMPI PUSH1 0x40 MLOAD PUSH4 0x2D688F61 PUSH1 0xE1 SHL DUP2 MSTORE PUSH1 0x4 ADD PUSH1 0x40 MLOAD DUP1 SWAP2 SUB SWAP1 REVERT JUMPDEST PUSH1 0x0 DUP7 DUP2 MSTORE PUSH1 0xF PUSH1 0x20 SWAP1 DUP2 MSTORE PUSH1 0x40 DUP1 DUP4 KECCAK256 PUSH1 0x1 PUSH1 0x1 PUSH1 0xA0 SHL SUB DUP13 DUP2 AND DUP6 MSTORE SWAP3 MSTORE DUP1 DUP4 KECCAK256 DUP9 DUP6 SUB SWAP1 SSTORE SWAP1 DUP10 AND DUP3 MSTORE DUP2 KECCAK256 DUP1 SLOAD DUP8 SWAP3 SWAP1 PUSH3 0x3E9E SWAP1 DUP5 SWAP1 PUSH3 0x4F9D JUMP JUMPDEST SWAP1 SWAP2 SSTORE POP POP PUSH1 0x0 DUP7 DUP2 MSTORE PUSH1 0x12 PUSH1 0x20 SWAP1 DUP2 MSTORE PUSH1 0x40 SWAP2 DUP3 SWAP1 KECCAK256 DUP1 SLOAD DUP9 ADD SWAP1 SSTORE DUP2 MLOAD DUP9 DUP2 MSTORE SWAP1 DUP2 ADD DUP8 SWAP1 MSTORE PUSH1 0x1 PUSH1 0x1 PUSH1 0xA0 SHL SUB DUP10 DUP2 AND SWAP3 DUP12 DUP3 AND SWAP3 SWAP2 DUP7 AND SWAP2 PUSH32 0xC3D58168C5AE7397731D063D5BBF3D657854427343F4C083240F7AACAA2D0F62 SWAP2 ADD PUSH1 0x40 MLOAD DUP1 SWAP2 SUB SWAP1 LOG4 PUSH3 0x3F4B DUP3 DUP10 DUP10 DUP10 DUP10 DUP10 DUP10 DUP1 DUP1 PUSH1 0x1F ADD PUSH1 0x20 DUP1 SWAP2 DIV MUL PUSH1 0x20 ADD PUSH1 0x40 MLOAD SWAP1 DUP2 ADD PUSH1 0x40 MSTORE DUP1 SWAP4 SWAP3 SWAP2 SWAP1 DUP2 DUP2 MSTORE PUSH1 0x20 ADD DUP4 DUP4 DUP1 DUP3 DUP5 CALLDATACOPY PUSH1 0x0 SWAP3 ADD SWAP2 SWAP1 SWAP2 MSTORE POP PUSH3 0x424A SWAP3 POP POP POP JUMP JUMPDEST POP POP POP POP POP POP POP POP JUMP JUMPDEST DUP6 EXTCODESIZE ISZERO PUSH3 0x3F4B JUMPI PUSH1 0x40 MLOAD PUSH4 0xBC197C81 PUSH1 0xE0 SHL DUP2 MSTORE PUSH1 0x1 PUSH1 0x1 PUSH1 0xA0 SHL SUB DUP8 AND SWAP1 PUSH4 0xBC197C81 SWAP1 PUSH3 0x3F97 SWAP1 DUP12 SWAP1 DUP12 SWAP1 DUP11 SWAP1 DUP11 SWAP1 DUP11 SWAP1 DUP11 SWAP1 DUP11 SWAP1 PUSH1 0x4 ADD PUSH3 0x517A JUMP JUMPDEST PUSH1 0x20 PUSH1 0x40 MLOAD DUP1 DUP4 SUB DUP2 PUSH1 0x0 DUP8 GAS CALL SWAP3 POP POP POP DUP1 ISZERO PUSH3 0x3FD5 JUMPI POP PUSH1 0x40 DUP1 MLOAD PUSH1 0x1F RETURNDATASIZE SWAP1 DUP2 ADD PUSH1 0x1F NOT AND DUP3 ADD SWAP1 SWAP3 MSTORE PUSH3 0x3FD2 SWAP2 DUP2 ADD SWAP1 PUSH3 0x51D4 JUMP JUMPDEST PUSH1 0x1 JUMPDEST PUSH3 0x3FF3 JUMPI PUSH1 0x40 MLOAD PUSH4 0x22EA0359 PUSH1 0xE1 SHL DUP2 MSTORE PUSH1 0x4 ADD PUSH1 0x40 MLOAD DUP1 SWAP2 SUB SWAP1 REVERT JUMPDEST PUSH1 0x1 PUSH1 0x1 PUSH1 0xE0 SHL SUB NOT DUP2 AND PUSH4 0xBC197C81 PUSH1 0xE0 SHL EQ PUSH3 0xC7B JUMPI PUSH1 0x40 MLOAD PUSH4 0x15D52937 PUSH1 0xE1 SHL DUP2 MSTORE PUSH1 0x4 ADD PUSH1 0x40 MLOAD DUP1 SWAP2 SUB SWAP1 REVERT JUMPDEST PUSH1 0x7 SLOAD PUSH1 0x0 SWAP1 DUP2 SWAP1 PUSH1 0x1 PUSH1 0x1 PUSH1 0xA0 SHL SUB DUP6 DUP2 AND SWAP2 AND EQ ISZERO PUSH3 0x4054 JUMPI POP POP PUSH1 0x1 PUSH1 0x1 PUSH1 0xA0 SHL SUB DUP2 AND BALANCE PUSH3 0xA28 JUMP JUMPDEST PUSH1 0x40 MLOAD PUSH4 0x70A08231 PUSH1 0xE0 SHL DUP2 MSTORE PUSH1 0x1 PUSH1 0x1 PUSH1 0xA0 SHL SUB DUP5 DUP2 AND PUSH1 0x4 DUP4 ADD MSTORE DUP6 AND SWAP1 PUSH4 0x70A08231 SWAP1 PUSH1 0x24 ADD PUSH1 0x20 PUSH1 0x40 MLOAD DUP1 DUP4 SUB DUP2 DUP7 GAS STATICCALL ISZERO DUP1 ISZERO PUSH3 0x409B JUMPI RETURNDATASIZE PUSH1 0x0 DUP1 RETURNDATACOPY RETURNDATASIZE PUSH1 0x0 REVERT JUMPDEST POP POP POP POP PUSH1 0x40 MLOAD RETURNDATASIZE PUSH1 0x1F NOT PUSH1 0x1F DUP3 ADD AND DUP3 ADD DUP1 PUSH1 0x40 MSTORE POP DUP2 ADD SWAP1 PUSH3 0x13AE SWAP2 SWAP1 PUSH3 0x51F4 JUMP JUMPDEST PUSH1 0x40 DUP1 MLOAD PUSH1 0x0 DUP1 DUP3 MSTORE PUSH1 0x20 DUP3 ADD SWAP1 SWAP3 MSTORE PUSH1 0x1 PUSH1 0x1 PUSH1 0xA0 SHL SUB DUP5 AND SWAP1 DUP4 SWAP1 PUSH1 0x40 MLOAD PUSH3 0x40ED SWAP2 SWAP1 PUSH3 0x520E JUMP JUMPDEST PUSH1 0x0 PUSH1 0x40 MLOAD DUP1 DUP4 SUB DUP2 DUP6 DUP8 GAS CALL SWAP3 POP POP POP RETURNDATASIZE DUP1 PUSH1 0x0 DUP2 EQ PUSH3 0x412C JUMPI PUSH1 0x40 MLOAD SWAP2 POP PUSH1 0x1F NOT PUSH1 0x3F RETURNDATASIZE ADD AND DUP3 ADD PUSH1 0x40 MSTORE RETURNDATASIZE DUP3 MSTORE RETURNDATASIZE PUSH1 0x0 PUSH1 0x20 DUP5 ADD RETURNDATACOPY PUSH3 0x4131 JUMP JUMPDEST PUSH1 0x60 SWAP2 POP JUMPDEST POP POP SWAP1 POP DUP1 PUSH3 0x9D4 JUMPI PUSH1 0x40 MLOAD PUSH4 0x30667AAB PUSH1 0xE0 SHL DUP2 MSTORE PUSH1 0x4 ADD PUSH1 0x40 MLOAD DUP1 SWAP2 SUB SWAP1 REVERT JUMPDEST PUSH1 0x40 DUP1 MLOAD PUSH1 0x1 PUSH1 0x1 PUSH1 0xA0 SHL SUB DUP6 DUP2 AND PUSH1 0x24 DUP4 ADD MSTORE DUP5 DUP2 AND PUSH1 0x44 DUP4 ADD MSTORE PUSH1 0x64 DUP1 DUP4 ADD DUP6 SWAP1 MSTORE DUP4 MLOAD DUP1 DUP5 SUB SWAP1 SWAP2 ADD DUP2 MSTORE PUSH1 0x84 SWAP1 SWAP3 ADD DUP4 MSTORE PUSH1 0x20 DUP3 ADD DUP1 MLOAD PUSH1 0x1 PUSH1 0x1 PUSH1 0xE0 SHL SUB AND PUSH4 0x23B872DD PUSH1 0xE0 SHL OR SWAP1 MSTORE SWAP2 MLOAD PUSH1 0x0 SWAP3 DUP4 SWAP3 SWAP1 DUP9 AND SWAP2 PUSH3 0x41BA SWAP2 SWAP1 PUSH3 0x520E JUMP JUMPDEST PUSH1 0x0 PUSH1 0x40 MLOAD DUP1 DUP4 SUB DUP2 PUSH1 0x0 DUP7 GAS CALL SWAP2 POP POP RETURNDATASIZE DUP1 PUSH1 0x0 DUP2 EQ PUSH3 0x41F9 JUMPI PUSH1 0x40 MLOAD SWAP2 POP PUSH1 0x1F NOT PUSH1 0x3F RETURNDATASIZE ADD AND DUP3 ADD PUSH1 0x40 MSTORE RETURNDATASIZE DUP3 MSTORE RETURNDATASIZE PUSH1 0x0 PUSH1 0x20 DUP5 ADD RETURNDATACOPY PUSH3 0x41FE JUMP JUMPDEST PUSH1 0x60 SWAP2 POP JUMPDEST POP SWAP2 POP SWAP2 POP DUP2 DUP1 ISZERO PUSH3 0x422C JUMPI POP DUP1 MLOAD ISZERO DUP1 PUSH3 0x422C JUMPI POP DUP1 DUP1 PUSH1 0x20 ADD SWAP1 MLOAD DUP2 ADD SWAP1 PUSH3 0x422C SWAP2 SWAP1 PUSH3 0x522C JUMP JUMPDEST PUSH3 0x2350 JUMPI PUSH1 0x40 MLOAD PUSH4 0x6050FE29 PUSH1 0xE0 SHL DUP2 MSTORE PUSH1 0x4 ADD PUSH1 0x40 MLOAD DUP1 SWAP2 SUB SWAP1 REVERT JUMPDEST DUP4 EXTCODESIZE ISZERO PUSH3 0x2350 JUMPI PUSH1 0x40 MLOAD PUSH4 0xF23A6E61 PUSH1 0xE0 SHL DUP2 MSTORE PUSH1 0x1 PUSH1 0x1 PUSH1 0xA0 SHL SUB DUP6 AND SWAP1 PUSH4 0xF23A6E61 SWAP1 PUSH3 0x4288 SWAP1 DUP10 SWAP1 DUP10 SWAP1 DUP9 SWAP1 DUP9 SWAP1 DUP9 SWAP1 PUSH1 0x4 ADD PUSH3 0x524C JUMP JUMPDEST PUSH1 0x20 PUSH1 0x40 MLOAD DUP1 DUP4 SUB DUP2 PUSH1 0x0 DUP8 GAS CALL SWAP3 POP POP POP DUP1 ISZERO PUSH3 0x42C6 JUMPI POP PUSH1 0x40 DUP1 MLOAD PUSH1 0x1F RETURNDATASIZE SWAP1 DUP2 ADD PUSH1 0x1F NOT AND DUP3 ADD SWAP1 SWAP3 MSTORE PUSH3 0x42C3 SWAP2 DUP2 ADD SWAP1 PUSH3 0x51D4 JUMP JUMPDEST PUSH1 0x1 JUMPDEST PUSH3 0x42E4 JUMPI PUSH1 0x40 MLOAD PUSH4 0x22EA0359 PUSH1 0xE1 SHL DUP2 MSTORE PUSH1 0x4 ADD PUSH1 0x40 MLOAD DUP1 SWAP2 SUB SWAP1 REVERT JUMPDEST PUSH1 0x1 PUSH1 0x1 PUSH1 0xE0 SHL SUB NOT DUP2 AND PUSH4 0xF23A6E61 PUSH1 0xE0 SHL EQ PUSH3 0x2263 JUMPI PUSH1 0x40 MLOAD PUSH4 0x15D52937 PUSH1 0xE1 SHL DUP2 MSTORE PUSH1 0x4 ADD PUSH1 0x40 MLOAD DUP1 SWAP2 SUB SWAP1 REVERT JUMPDEST PUSH1 0x0 DUP1 PUSH3 0x4325 DUP4 DUP8 PUSH3 0x4DDE JUMP JUMPDEST SWAP1 POP PUSH1 0x0 DUP2 PUSH3 0x4338 PUSH2 0x2710 DUP9 PUSH3 0x4DDE JUMP JUMPDEST PUSH3 0x4344 SWAP2 SWAP1 PUSH3 0x4F9D JUMP JUMPDEST PUSH3 0x4350 DUP4 DUP8 PUSH3 0x4DDE JUMP JUMPDEST PUSH3 0x170F SWAP2 SWAP1 PUSH3 0x5039 JUMP JUMPDEST PUSH1 0x0 PUSH3 0x436C PUSH2 0xE10 TIMESTAMP PUSH3 0x5039 JUMP JUMPDEST SWAP1 POP SWAP1 JUMP JUMPDEST PUSH1 0x1 PUSH1 0x1 PUSH1 0xA0 SHL SUB DUP4 AND PUSH3 0x4399 JUMPI PUSH1 0x40 MLOAD PUSH4 0xEDBA591D PUSH1 0xE0 SHL DUP2 MSTORE PUSH1 0x4 ADD PUSH1 0x40 MLOAD DUP1 SWAP2 SUB SWAP1 REVERT JUMPDEST PUSH1 0x0 DUP3 DUP2 MSTORE PUSH1 0xF PUSH1 0x20 SWAP1 DUP2 MSTORE PUSH1 0x40 DUP1 DUP4 KECCAK256 PUSH1 0x1 PUSH1 0x1 PUSH1 0xA0 SHL SUB DUP8 AND DUP5 MSTORE SWAP1 SWAP2 MSTORE SWAP1 KECCAK256 SLOAD CALLER SWAP1 DUP3 DUP2 LT ISZERO PUSH3 0x43E0 JUMPI PUSH1 0x40 MLOAD PUSH4 0x1CFB29E1 PUSH1 0xE2 SHL DUP2 MSTORE PUSH1 0x4 ADD PUSH1 0x40 MLOAD DUP1 SWAP2 SUB SWAP1 REVERT JUMPDEST PUSH1 0x0 DUP5 DUP2 MSTORE PUSH1 0xF PUSH1 0x20 SWAP1 DUP2 MSTORE PUSH1 0x40 DUP1 DUP4 KECCAK256 PUSH1 0x1 PUSH1 0x1 PUSH1 0xA0 SHL SUB DUP10 DUP2 AND DUP1 DUP7 MSTORE SWAP2 DUP5 MSTORE DUP3 DUP6 KECCAK256 DUP9 DUP8 SUB SWAP1 SSTORE DUP9 DUP6 MSTORE PUSH1 0x12 DUP5 MSTORE DUP3 DUP6 KECCAK256 DUP1 SLOAD DUP10 SWAP1 SUB SWAP1 SSTORE DUP3 MLOAD DUP10 DUP2 MSTORE SWAP4 DUP5 ADD DUP9 SWAP1 MSTORE SWAP1 SWAP3 SWAP1 DUP7 AND SWAP2 PUSH32 0xC3D58168C5AE7397731D063D5BBF3D657854427343F4C083240F7AACAA2D0F62 SWAP2 ADD PUSH1 0x40 MLOAD DUP1 SWAP2 SUB SWAP1 LOG4 POP POP POP POP POP JUMP JUMPDEST PUSH1 0x0 DUP1 PUSH3 0x446D DUP7 DUP6 PUSH3 0x5004 JUMP JUMPDEST PUSH3 0x4479 SWAP1 DUP5 PUSH3 0x4DDE JUMP JUMPDEST PUSH2 0x2710 PUSH3 0x4488 DUP9 DUP9 PUSH3 0x4DDE JUMP JUMPDEST PUSH3 0x4494 SWAP2 SWAP1 PUSH3 0x4DDE JUMP JUMPDEST PUSH3 0x44A0 SWAP2 SWAP1 PUSH3 0x5039 JUMP JUMPDEST PUSH3 0x44AD SWAP1 PUSH1 0x1 PUSH3 0x4F9D JUMP JUMPDEST SWAP7 SWAP6 POP POP POP POP POP POP JUMP JUMPDEST DUP3 DUP1 SLOAD PUSH3 0x44C5 SWAP1 PUSH3 0x4E88 JUMP JUMPDEST SWAP1 PUSH1 0x0 MSTORE PUSH1 0x20 PUSH1 0x0 KECCAK256 SWAP1 PUSH1 0x1F ADD PUSH1 0x20 SWAP1 DIV DUP2 ADD SWAP3 DUP3 PUSH3 0x44E9 JUMPI PUSH1 0x0 DUP6 SSTORE PUSH3 0x4534 JUMP JUMPDEST DUP3 PUSH1 0x1F LT PUSH3 0x4504 JUMPI DUP1 MLOAD PUSH1 0xFF NOT AND DUP4 DUP1 ADD OR DUP6 SSTORE PUSH3 0x4534 JUMP JUMPDEST DUP3 DUP1 ADD PUSH1 0x1 ADD DUP6 SSTORE DUP3 ISZERO PUSH3 0x4534 JUMPI SWAP2 DUP3 ADD JUMPDEST DUP3 DUP2 GT ISZERO PUSH3 0x4534 JUMPI DUP3 MLOAD DUP3 SSTORE SWAP2 PUSH1 0x20 ADD SWAP2 SWAP1 PUSH1 0x1 ADD SWAP1 PUSH3 0x4517 JUMP JUMPDEST POP PUSH3 0x4542 SWAP3 SWAP2 POP PUSH3 0x45D1 JUMP JUMPDEST POP SWAP1 JUMP JUMPDEST DUP3 DUP1 SLOAD PUSH3 0x4554 SWAP1 PUSH3 0x4E88 JUMP JUMPDEST SWAP1 PUSH1 0x0 MSTORE PUSH1 0x20 PUSH1 0x0 KECCAK256 SWAP1 PUSH1 0x1F ADD PUSH1 0x20 SWAP1 DIV DUP2 ADD SWAP3 DUP3 PUSH3 0x4578 JUMPI PUSH1 0x0 DUP6 SSTORE PUSH3 0x4534 JUMP JUMPDEST DUP3 PUSH1 0x1F LT PUSH3 0x4593 JUMPI DUP3 DUP1 ADD PUSH1 0xFF NOT DUP3 CALLDATALOAD AND OR DUP6 SSTORE PUSH3 0x4534 JUMP JUMPDEST DUP3 DUP1 ADD PUSH1 0x1 ADD DUP6 SSTORE DUP3 ISZERO PUSH3 0x4534 JUMPI SWAP2 DUP3 ADD JUMPDEST DUP3 DUP2 GT ISZERO PUSH3 0x4534 JUMPI DUP3 CALLDATALOAD DUP3 SSTORE SWAP2 PUSH1 0x20 ADD SWAP2 SWAP1 PUSH1 0x1 ADD SWAP1 PUSH3 0x45A6 JUMP JUMPDEST PUSH2 0x444 DUP1 PUSH3 0x5289 DUP4 CODECOPY ADD SWAP1 JUMP JUMPDEST JUMPDEST DUP1 DUP3 GT ISZERO PUSH3 0x4542 JUMPI PUSH1 0x0 DUP2 SSTORE PUSH1 0x1 ADD PUSH3 0x45D2 JUMP JUMPDEST PUSH1 0x0 PUSH1 0xE0 DUP3 DUP5 SUB SLT ISZERO PUSH3 0x2D40 JUMPI PUSH1 0x0 DUP1 REVERT JUMPDEST PUSH1 0x1 PUSH1 0x1 PUSH1 0xA0 SHL SUB DUP2 AND DUP2 EQ PUSH3 0x22DB JUMPI PUSH1 0x0 DUP1 REVERT JUMPDEST PUSH1 0x0 DUP1 PUSH1 0x40 DUP4 DUP6 SUB SLT ISZERO PUSH3 0x4625 JUMPI PUSH1 0x0 DUP1 REVERT JUMPDEST DUP3 CALLDATALOAD PUSH3 0x4632 DUP2 PUSH3 0x45FB JUMP JUMPDEST SWAP5 PUSH1 0x20 SWAP4 SWAP1 SWAP4 ADD CALLDATALOAD SWAP4 POP POP POP JUMP JUMPDEST PUSH1 0x1 PUSH1 0x1 PUSH1 0xE0 SHL SUB NOT DUP2 AND DUP2 EQ PUSH3 0x22DB JUMPI PUSH1 0x0 DUP1 REVERT JUMPDEST PUSH1 0x0 PUSH1 0x20 DUP3 DUP5 SUB SLT ISZERO PUSH3 0x466A JUMPI PUSH1 0x0 DUP1 REVERT JUMPDEST DUP2 CALLDATALOAD PUSH3 0x133E DUP2 PUSH3 0x4640 JUMP JUMPDEST PUSH1 0x0 PUSH1 0x20 DUP3 DUP5 SUB SLT ISZERO PUSH3 0x468A JUMPI PUSH1 0x0 DUP1 REVERT JUMPDEST POP CALLDATALOAD SWAP2 SWAP1 POP JUMP JUMPDEST PUSH1 0x0 JUMPDEST DUP4 DUP2 LT ISZERO PUSH3 0x46AE JUMPI DUP2 DUP2 ADD MLOAD DUP4 DUP3 ADD MSTORE PUSH1 0x20 ADD PUSH3 0x4694 JUMP JUMPDEST DUP4 DUP2 GT ISZERO PUSH3 0x172A JUMPI POP POP PUSH1 0x0 SWAP2 ADD MSTORE JUMP JUMPDEST PUSH1 0x0 DUP2 MLOAD DUP1 DUP5 MSTORE PUSH3 0x46DA DUP2 PUSH1 0x20 DUP7 ADD PUSH1 0x20 DUP7 ADD PUSH3 0x4691 JUMP JUMPDEST PUSH1 0x1F ADD PUSH1 0x1F NOT AND SWAP3 SWAP1 SWAP3 ADD PUSH1 0x20 ADD SWAP3 SWAP2 POP POP JUMP JUMPDEST PUSH1 0x20 DUP2 MSTORE PUSH1 0x0 PUSH3 0x133E PUSH1 0x20 DUP4 ADD DUP5 PUSH3 0x46C0 JUMP JUMPDEST PUSH1 0x0 DUP1 DUP4 PUSH1 0x1F DUP5 ADD SLT PUSH3 0x4716 JUMPI PUSH1 0x0 DUP1 REVERT JUMPDEST POP DUP2 CALLDATALOAD PUSH8 0xFFFFFFFFFFFFFFFF DUP2 GT ISZERO PUSH3 0x472F JUMPI PUSH1 0x0 DUP1 REVERT JUMPDEST PUSH1 0x20 DUP4 ADD SWAP2 POP DUP4 PUSH1 0x20 DUP3 PUSH1 0x5 SHL DUP6 ADD ADD GT ISZERO PUSH3 0x474B JUMPI PUSH1 0x0 DUP1 REVERT JUMPDEST SWAP3 POP SWAP3 SWAP1 POP JUMP JUMPDEST PUSH1 0x0 DUP1 DUP4 PUSH1 0x1F DUP5 ADD SLT PUSH3 0x4765 JUMPI PUSH1 0x0 DUP1 REVERT JUMPDEST POP DUP2 CALLDATALOAD PUSH8 0xFFFFFFFFFFFFFFFF DUP2 GT ISZERO PUSH3 0x477E JUMPI PUSH1 0x0 DUP1 REVERT JUMPDEST PUSH1 0x20 DUP4 ADD SWAP2 POP DUP4 PUSH1 0x20 DUP3 DUP6 ADD ADD GT ISZERO PUSH3 0x474B JUMPI PUSH1 0x0 DUP1 REVERT JUMPDEST PUSH1 0x0 DUP1 PUSH1 0x0 DUP1 PUSH1 0x0 DUP1 PUSH1 0x0 DUP1 PUSH1 0xA0 DUP10 DUP12 SUB SLT ISZERO PUSH3 0x47B4 JUMPI PUSH1 0x0 DUP1 REVERT JUMPDEST DUP9 CALLDATALOAD PUSH3 0x47C1 DUP2 PUSH3 0x45FB JUMP JUMPDEST SWAP8 POP PUSH1 0x20 DUP10 ADD CALLDATALOAD PUSH3 0x47D3 DUP2 PUSH3 0x45FB JUMP JUMPDEST SWAP7 POP PUSH1 0x40 DUP10 ADD CALLDATALOAD PUSH8 0xFFFFFFFFFFFFFFFF DUP1 DUP3 GT ISZERO PUSH3 0x47F1 JUMPI PUSH1 0x0 DUP1 REVERT JUMPDEST PUSH3 0x47FF DUP13 DUP4 DUP14 ADD PUSH3 0x4703 JUMP JUMPDEST SWAP1 SWAP9 POP SWAP7 POP PUSH1 0x60 DUP12 ADD CALLDATALOAD SWAP2 POP DUP1 DUP3 GT ISZERO PUSH3 0x4819 JUMPI PUSH1 0x0 DUP1 REVERT JUMPDEST PUSH3 0x4827 DUP13 DUP4 DUP14 ADD PUSH3 0x4703 JUMP JUMPDEST SWAP1 SWAP7 POP SWAP5 POP PUSH1 0x80 DUP12 ADD CALLDATALOAD SWAP2 POP DUP1 DUP3 GT ISZERO PUSH3 0x4841 JUMPI PUSH1 0x0 DUP1 REVERT JUMPDEST POP PUSH3 0x4850 DUP12 DUP3 DUP13 ADD PUSH3 0x4752 JUMP JUMPDEST SWAP10 SWAP13 SWAP9 SWAP12 POP SWAP7 SWAP10 POP SWAP5 SWAP8 SWAP4 SWAP7 SWAP3 SWAP6 SWAP5 POP POP POP JUMP JUMPDEST PUSH1 0x0 DUP1 PUSH1 0x20 DUP4 DUP6 SUB SLT ISZERO PUSH3 0x4878 JUMPI PUSH1 0x0 DUP1 REVERT JUMPDEST DUP3 CALLDATALOAD PUSH8 0xFFFFFFFFFFFFFFFF DUP2 GT ISZERO PUSH3 0x4890 JUMPI PUSH1 0x0 DUP1 REVERT JUMPDEST PUSH3 0x489E DUP6 DUP3 DUP7 ADD PUSH3 0x4703 JUMP JUMPDEST SWAP1 SWAP7 SWAP1 SWAP6 POP SWAP4 POP POP POP POP JUMP JUMPDEST PUSH1 0x20 DUP1 DUP3 MSTORE DUP3 MLOAD DUP3 DUP3 ADD DUP2 SWAP1 MSTORE PUSH1 0x0 SWAP2 SWAP1 PUSH1 0x40 SWAP1 DUP2 DUP6 ADD SWAP1 DUP7 DUP5 ADD DUP6 JUMPDEST DUP3 DUP2 LT ISZERO PUSH3 0x48EE JUMPI DUP2 MLOAD DUP1 MLOAD DUP6 MSTORE DUP7 ADD MLOAD DUP7 DUP6 ADD MSTORE SWAP3 DUP5 ADD SWAP3 SWAP1 DUP6 ADD SWAP1 PUSH1 0x1 ADD PUSH3 0x48C7 JUMP JUMPDEST POP SWAP2 SWAP8 SWAP7 POP POP POP POP POP POP POP JUMP JUMPDEST PUSH4 0x4E487B71 PUSH1 0xE0 SHL PUSH1 0x0 MSTORE PUSH1 0x41 PUSH1 0x4 MSTORE PUSH1 0x24 PUSH1 0x0 REVERT JUMPDEST PUSH1 0x0 DUP3 PUSH1 0x1F DUP4 ADD SLT PUSH3 0x4923 JUMPI PUSH1 0x0 DUP1 REVERT JUMPDEST DUP2 CALLDATALOAD PUSH8 0xFFFFFFFFFFFFFFFF DUP1 DUP3 GT ISZERO PUSH3 0x4941 JUMPI PUSH3 0x4941 PUSH3 0x48FB JUMP JUMPDEST PUSH1 0x40 MLOAD PUSH1 0x1F DUP4 ADD PUSH1 0x1F NOT SWAP1 DUP2 AND PUSH1 0x3F ADD AND DUP2 ADD SWAP1 DUP3 DUP3 GT DUP2 DUP4 LT OR ISZERO PUSH3 0x496C JUMPI PUSH3 0x496C PUSH3 0x48FB JUMP JUMPDEST DUP2 PUSH1 0x40 MSTORE DUP4 DUP2 MSTORE DUP7 PUSH1 0x20 DUP6 DUP9 ADD ADD GT ISZERO PUSH3 0x4986 JUMPI PUSH1 0x0 DUP1 REVERT JUMPDEST DUP4 PUSH1 0x20 DUP8 ADD PUSH1 0x20 DUP4 ADD CALLDATACOPY PUSH1 0x0 PUSH1 0x20 DUP6 DUP4 ADD ADD MSTORE DUP1 SWAP5 POP POP POP POP POP SWAP3 SWAP2 POP POP JUMP JUMPDEST PUSH1 0x0 DUP1 PUSH1 0x40 DUP4 DUP6 SUB SLT ISZERO PUSH3 0x49BA JUMPI PUSH1 0x0 DUP1 REVERT JUMPDEST DUP3 CALLDATALOAD PUSH8 0xFFFFFFFFFFFFFFFF DUP1 DUP3 GT ISZERO PUSH3 0x49D3 JUMPI PUSH1 0x0 DUP1 REVERT JUMPDEST PUSH3 0x49E1 DUP7 DUP4 DUP8 ADD PUSH3 0x4911 JUMP JUMPDEST SWAP4 POP PUSH1 0x20 DUP6 ADD CALLDATALOAD SWAP2 POP DUP1 DUP3 GT ISZERO PUSH3 0x49F8 JUMPI PUSH1 0x0 DUP1 REVERT JUMPDEST POP PUSH3 0x4A07 DUP6 DUP3 DUP7 ADD PUSH3 0x4911 JUMP JUMPDEST SWAP2 POP POP SWAP3 POP SWAP3 SWAP1 POP JUMP JUMPDEST PUSH1 0x0 DUP1 PUSH1 0x0 DUP1 PUSH1 0x80 DUP6 DUP8 SUB SLT ISZERO PUSH3 0x4A28 JUMPI PUSH1 0x0 DUP1 REVERT JUMPDEST DUP5 CALLDATALOAD PUSH3 0x4A35 DUP2 PUSH3 0x45FB JUMP JUMPDEST SWAP4 POP PUSH1 0x20 DUP6 ADD CALLDATALOAD SWAP3 POP PUSH1 0x40 DUP6 ADD CALLDATALOAD SWAP2 POP PUSH1 0x60 DUP6 ADD CALLDATALOAD PUSH3 0x4A55 DUP2 PUSH3 0x45FB JUMP JUMPDEST SWAP4 SWAP7 SWAP3 SWAP6 POP SWAP1 SWAP4 POP POP JUMP JUMPDEST PUSH1 0x0 DUP1 PUSH1 0x0 PUSH1 0x60 DUP5 DUP7 SUB SLT ISZERO PUSH3 0x4A76 JUMPI PUSH1 0x0 DUP1 REVERT JUMPDEST DUP4 CALLDATALOAD PUSH3 0x4A83 DUP2 PUSH3 0x45FB JUMP JUMPDEST SWAP3 POP PUSH1 0x20 DUP5 ADD CALLDATALOAD PUSH3 0x4A95 DUP2 PUSH3 0x45FB JUMP JUMPDEST SWAP3 SWAP6 SWAP3 SWAP5 POP POP POP PUSH1 0x40 SWAP2 SWAP1 SWAP2 ADD CALLDATALOAD SWAP1 JUMP JUMPDEST PUSH1 0x0 PUSH1 0x20 DUP3 DUP5 SUB SLT ISZERO PUSH3 0x4AB9 JUMPI PUSH1 0x0 DUP1 REVERT JUMPDEST DUP2 CALLDATALOAD PUSH3 0x133E DUP2 PUSH3 0x45FB JUMP JUMPDEST PUSH1 0x0 DUP1 PUSH1 0x0 DUP1 PUSH1 0x40 DUP6 DUP8 SUB SLT ISZERO PUSH3 0x4ADD JUMPI PUSH1 0x0 DUP1 REVERT JUMPDEST DUP5 CALLDATALOAD PUSH8 0xFFFFFFFFFFFFFFFF DUP1 DUP3 GT ISZERO PUSH3 0x4AF6 JUMPI PUSH1 0x0 DUP1 REVERT JUMPDEST PUSH3 0x4B04 DUP9 DUP4 DUP10 ADD PUSH3 0x4703 JUMP JUMPDEST SWAP1 SWAP7 POP SWAP5 POP PUSH1 0x20 DUP8 ADD CALLDATALOAD SWAP2 POP DUP1 DUP3 GT ISZERO PUSH3 0x4B1E JUMPI PUSH1 0x0 DUP1 REVERT JUMPDEST POP PUSH3 0x4B2D DUP8 DUP3 DUP9 ADD PUSH3 0x4703 JUMP JUMPDEST SWAP6 SWAP9 SWAP5 SWAP8 POP SWAP6 POP POP POP POP JUMP JUMPDEST PUSH1 0x20 DUP1 DUP3 MSTORE DUP3 MLOAD DUP3 DUP3 ADD DUP2 SWAP1 MSTORE PUSH1 0x0 SWAP2 SWAP1 DUP5 DUP3 ADD SWAP1 PUSH1 0x40 DUP6 ADD SWAP1 DUP5 JUMPDEST DUP2 DUP2 LT ISZERO PUSH3 0x4B73 JUMPI DUP4 MLOAD DUP4 MSTORE SWAP3 DUP5 ADD SWAP3 SWAP2 DUP5 ADD SWAP2 PUSH1 0x1 ADD PUSH3 0x4B55 JUMP JUMPDEST POP SWAP1 SWAP7 SWAP6 POP POP POP POP POP POP JUMP JUMPDEST DUP1 ISZERO ISZERO DUP2 EQ PUSH3 0x22DB JUMPI PUSH1 0x0 DUP1 REVERT JUMPDEST PUSH1 0x0 DUP1 PUSH1 0x40 DUP4 DUP6 SUB SLT ISZERO PUSH3 0x4BA2 JUMPI PUSH1 0x0 DUP1 REVERT JUMPDEST DUP3 CALLDATALOAD PUSH3 0x4BAF DUP2 PUSH3 0x45FB JUMP JUMPDEST SWAP2 POP PUSH1 0x20 DUP4 ADD CALLDATALOAD PUSH3 0x4BC1 DUP2 PUSH3 0x4B7F JUMP JUMPDEST DUP1 SWAP2 POP POP SWAP3 POP SWAP3 SWAP1 POP JUMP JUMPDEST PUSH1 0x0 DUP1 PUSH1 0x0 DUP1 PUSH1 0x0 DUP1 PUSH1 0xC0 DUP8 DUP10 SUB SLT ISZERO PUSH3 0x4BE6 JUMPI PUSH1 0x0 DUP1 REVERT JUMPDEST DUP7 CALLDATALOAD PUSH3 0x4BF3 DUP2 PUSH3 0x45FB JUMP JUMPDEST SWAP6 POP PUSH1 0x20 DUP8 ADD CALLDATALOAD PUSH3 0x4C05 DUP2 PUSH3 0x45FB JUMP JUMPDEST SWAP5 POP PUSH1 0x40 DUP8 ADD CALLDATALOAD SWAP4 POP PUSH1 0x60 DUP8 ADD CALLDATALOAD SWAP3 POP PUSH1 0x80 DUP8 ADD CALLDATALOAD SWAP2 POP PUSH1 0xA0 DUP8 ADD CALLDATALOAD PUSH3 0x4C2C DUP2 PUSH3 0x45FB JUMP JUMPDEST DUP1 SWAP2 POP POP SWAP3 SWAP6 POP SWAP3 SWAP6 POP SWAP3 SWAP6 JUMP JUMPDEST PUSH1 0x0 DUP1 PUSH1 0x20 DUP4 DUP6 SUB SLT ISZERO PUSH3 0x4C4E JUMPI PUSH1 0x0 DUP1 REVERT JUMPDEST DUP3 CALLDATALOAD PUSH8 0xFFFFFFFFFFFFFFFF DUP2 GT ISZERO PUSH3 0x4C66 JUMPI PUSH1 0x0 DUP1 REVERT JUMPDEST PUSH3 0x489E DUP6 DUP3 DUP7 ADD PUSH3 0x4752 JUMP JUMPDEST PUSH1 0x0 DUP1 PUSH1 0x40 DUP4 DUP6 SUB SLT ISZERO PUSH3 0x4C88 JUMPI PUSH1 0x0 DUP1 REVERT JUMPDEST DUP3 CALLDATALOAD PUSH3 0x4C95 DUP2 PUSH3 0x45FB JUMP JUMPDEST SWAP2 POP PUSH1 0x20 DUP4 ADD CALLDATALOAD PUSH3 0x4BC1 DUP2 PUSH3 0x45FB JUMP JUMPDEST PUSH1 0x0 DUP1 PUSH1 0x0 DUP1 PUSH1 0x0 PUSH1 0xA0 DUP7 DUP9 SUB SLT ISZERO PUSH3 0x4CC0 JUMPI PUSH1 0x0 DUP1 REVERT JUMPDEST DUP6 CALLDATALOAD PUSH3 0x4CCD DUP2 PUSH3 0x45FB JUMP JUMPDEST SWAP5 POP PUSH1 0x20 DUP7 ADD CALLDATALOAD PUSH3 0x4CDF DUP2 PUSH3 0x45FB JUMP JUMPDEST SWAP4 POP PUSH1 0x40 DUP7 ADD CALLDATALOAD PUSH3 0x4CF1 DUP2 PUSH3 0x45FB JUMP JUMPDEST SWAP3 POP PUSH1 0x60 DUP7 ADD CALLDATALOAD PUSH3 0x4D03 DUP2 PUSH3 0x45FB JUMP JUMPDEST SWAP2 POP PUSH1 0x80 DUP7 ADD CALLDATALOAD PUSH3 0x4D15 DUP2 PUSH3 0x45FB JUMP JUMPDEST DUP1 SWAP2 POP POP SWAP3 SWAP6 POP SWAP3 SWAP6 SWAP1 SWAP4 POP JUMP JUMPDEST PUSH1 0x0 DUP1 PUSH1 0x0 DUP1 PUSH1 0x0 DUP1 PUSH1 0xA0 DUP8 DUP10 SUB SLT ISZERO PUSH3 0x4D3D JUMPI PUSH1 0x0 DUP1 REVERT JUMPDEST DUP7 CALLDATALOAD PUSH3 0x4D4A DUP2 PUSH3 0x45FB JUMP JUMPDEST SWAP6 POP PUSH1 0x20 DUP8 ADD CALLDATALOAD PUSH3 0x4D5C DUP2 PUSH3 0x45FB JUMP JUMPDEST SWAP5 POP PUSH1 0x40 DUP8 ADD CALLDATALOAD SWAP4 POP PUSH1 0x60 DUP8 ADD CALLDATALOAD SWAP3 POP PUSH1 0x80 DUP8 ADD CALLDATALOAD PUSH8 0xFFFFFFFFFFFFFFFF DUP2 GT ISZERO PUSH3 0x4D87 JUMPI PUSH1 0x0 DUP1 REVERT JUMPDEST PUSH3 0x4D95 DUP10 DUP3 DUP11 ADD PUSH3 0x4752 JUMP JUMPDEST SWAP8 SWAP11 SWAP7 SWAP10 POP SWAP5 SWAP8 POP SWAP3 SWAP6 SWAP4 SWAP5 SWAP3 POP POP POP JUMP JUMPDEST PUSH1 0x0 DUP1 PUSH1 0x40 DUP4 DUP6 SUB SLT ISZERO PUSH3 0x4DBB JUMPI PUSH1 0x0 DUP1 REVERT JUMPDEST DUP3 CALLDATALOAD PUSH3 0x4C95 DUP2 PUSH3 0x4B7F JUMP JUMPDEST PUSH4 0x4E487B71 PUSH1 0xE0 SHL PUSH1 0x0 MSTORE PUSH1 0x11 PUSH1 0x4 MSTORE PUSH1 0x24 PUSH1 0x0 REVERT JUMPDEST PUSH1 0x0 DUP2 PUSH1 0x0 NOT DIV DUP4 GT DUP3 ISZERO ISZERO AND ISZERO PUSH3 0x4DFB JUMPI PUSH3 0x4DFB PUSH3 0x4DC8 JUMP JUMPDEST POP MUL SWAP1 JUMP JUMPDEST DUP2 CALLDATALOAD PUSH3 0x4E0D DUP2 PUSH3 0x45FB JUMP JUMPDEST DUP2 SLOAD PUSH1 0x1 PUSH1 0x1 PUSH1 0xA0 SHL SUB NOT AND PUSH1 0x1 PUSH1 0x1 PUSH1 0xA0 SHL SUB SWAP2 SWAP1 SWAP2 AND OR DUP2 SSTORE PUSH1 0x20 DUP3 ADD CALLDATALOAD PUSH1 0x1 DUP3 ADD SSTORE PUSH1 0x40 DUP3 ADD CALLDATALOAD PUSH1 0x2 DUP3 ADD SSTORE PUSH1 0x60 DUP3 ADD CALLDATALOAD PUSH1 0x3 DUP3 ADD SSTORE PUSH1 0x80 DUP3 ADD CALLDATALOAD PUSH1 0x4 DUP3 ADD SSTORE PUSH1 0xA0 DUP3 ADD CALLDATALOAD PUSH1 0x5 DUP3 ADD SSTORE PUSH1 0xC0 SWAP1 SWAP2 ADD CALLDATALOAD PUSH1 0x6 SWAP1 SWAP2 ADD SSTORE JUMP JUMPDEST PUSH1 0x0 PUSH1 0x20 DUP3 DUP5 SUB SLT ISZERO PUSH3 0x4E7B JUMPI PUSH1 0x0 DUP1 REVERT JUMPDEST DUP2 MLOAD PUSH3 0x133E DUP2 PUSH3 0x45FB JUMP JUMPDEST PUSH1 0x1 DUP2 DUP2 SHR SWAP1 DUP3 AND DUP1 PUSH3 0x4E9D JUMPI PUSH1 0x7F DUP3 AND SWAP2 POP JUMPDEST PUSH1 0x20 DUP3 LT DUP2 EQ ISZERO PUSH3 0x2D40 JUMPI PUSH4 0x4E487B71 PUSH1 0xE0 SHL PUSH1 0x0 MSTORE PUSH1 0x22 PUSH1 0x4 MSTORE PUSH1 0x24 PUSH1 0x0 REVERT JUMPDEST PUSH1 0x0 DUP1 DUP5 SLOAD DUP2 PUSH1 0x1 DUP3 DUP2 SHR SWAP2 POP DUP1 DUP4 AND DUP1 PUSH3 0x4EDC JUMPI PUSH1 0x7F DUP4 AND SWAP3 POP JUMPDEST PUSH1 0x20 DUP1 DUP5 LT DUP3 EQ ISZERO PUSH3 0x4EFD JUMPI PUSH4 0x4E487B71 PUSH1 0xE0 SHL DUP7 MSTORE PUSH1 0x22 PUSH1 0x4 MSTORE PUSH1 0x24 DUP7 REVERT JUMPDEST DUP2 DUP1 ISZERO PUSH3 0x4F14 JUMPI PUSH1 0x1 DUP2 EQ PUSH3 0x4F26 JUMPI PUSH3 0x4F55 JUMP JUMPDEST PUSH1 0xFF NOT DUP7 AND DUP10 MSTORE DUP5 DUP10 ADD SWAP7 POP PUSH3 0x4F55 JUMP JUMPDEST PUSH1 0x0 DUP12 DUP2 MSTORE PUSH1 0x20 SWAP1 KECCAK256 PUSH1 0x0 JUMPDEST DUP7 DUP2 LT ISZERO PUSH3 0x4F4D JUMPI DUP2 SLOAD DUP12 DUP3 ADD MSTORE SWAP1 DUP6 ADD SWAP1 DUP4 ADD PUSH3 0x4F32 JUMP JUMPDEST POP POP DUP5 DUP10 ADD SWAP7 POP JUMPDEST POP DUP9 DUP7 MSTORE PUSH3 0x4F71 DUP2 DUP8 ADD PUSH5 0x173539B7B7 PUSH1 0xD9 SHL DUP2 MSTORE PUSH1 0x5 ADD SWAP1 JUMP JUMPDEST SWAP11 SWAP10 POP POP POP POP POP POP POP POP POP POP JUMP JUMPDEST PUSH1 0x0 PUSH1 0x0 NOT DUP3 EQ ISZERO PUSH3 0x4F96 JUMPI PUSH3 0x4F96 PUSH3 0x4DC8 JUMP JUMPDEST POP PUSH1 0x1 ADD SWAP1 JUMP JUMPDEST PUSH1 0x0 DUP3 NOT DUP3 GT ISZERO PUSH3 0x4FB3 JUMPI PUSH3 0x4FB3 PUSH3 0x4DC8 JUMP JUMPDEST POP ADD SWAP1 JUMP JUMPDEST PUSH4 0x4E487B71 PUSH1 0xE0 SHL PUSH1 0x0 MSTORE PUSH1 0x32 PUSH1 0x4 MSTORE PUSH1 0x24 PUSH1 0x0 REVERT JUMPDEST PUSH1 0x20 DUP1 DUP3 MSTORE PUSH1 0x1 SWAP1 DUP3 ADD MSTORE PUSH1 0x43 PUSH1 0xF8 SHL PUSH1 0x40 DUP3 ADD MSTORE PUSH1 0x60 ADD SWAP1 JUMP JUMPDEST PUSH1 0x20 DUP1 DUP3 MSTORE PUSH1 0x1 SWAP1 DUP3 ADD MSTORE PUSH1 0x11 PUSH1 0xFA SHL PUSH1 0x40 DUP3 ADD MSTORE PUSH1 0x60 ADD SWAP1 JUMP JUMPDEST PUSH1 0x0 DUP3 DUP3 LT ISZERO PUSH3 0x5019 JUMPI PUSH3 0x5019 PUSH3 0x4DC8 JUMP JUMPDEST POP SUB SWAP1 JUMP JUMPDEST PUSH1 0x20 DUP1 DUP3 MSTORE PUSH1 0x1 SWAP1 DUP3 ADD MSTORE PUSH1 0x23 PUSH1 0xF9 SHL PUSH1 0x40 DUP3 ADD MSTORE PUSH1 0x60 ADD SWAP1 JUMP JUMPDEST PUSH1 0x0 DUP3 PUSH3 0x5057 JUMPI PUSH4 0x4E487B71 PUSH1 0xE0 SHL PUSH1 0x0 MSTORE PUSH1 0x12 PUSH1 0x4 MSTORE PUSH1 0x24 PUSH1 0x0 REVERT JUMPDEST POP DIV SWAP1 JUMP JUMPDEST PUSH1 0x1 PUSH1 0x1 PUSH1 0xA0 SHL SUB SWAP5 SWAP1 SWAP5 AND DUP5 MSTORE PUSH1 0x20 DUP5 ADD SWAP3 SWAP1 SWAP3 MSTORE PUSH1 0x40 DUP4 ADD MSTORE PUSH1 0x60 DUP3 ADD MSTORE PUSH1 0x80 ADD SWAP1 JUMP JUMPDEST PUSH1 0x1 PUSH1 0x1 PUSH1 0xA0 SHL SUB SWAP5 SWAP1 SWAP5 AND DUP5 MSTORE PUSH1 0x20 DUP5 ADD SWAP3 SWAP1 SWAP3 MSTORE PUSH1 0x40 DUP4 ADD MSTORE PUSH1 0x1 PUSH1 0x1 PUSH1 0x80 SHL SUB AND PUSH1 0x60 DUP3 ADD MSTORE PUSH1 0x80 ADD SWAP1 JUMP JUMPDEST PUSH1 0x0 PUSH1 0x1 PUSH1 0x1 PUSH1 0x80 SHL SUB DUP1 DUP4 AND DUP2 DUP6 AND DUP1 DUP4 SUB DUP3 GT ISZERO PUSH3 0x50D6 JUMPI PUSH3 0x50D6 PUSH3 0x4DC8 JUMP JUMPDEST ADD SWAP5 SWAP4 POP POP POP POP JUMP JUMPDEST DUP2 DUP4 DUP3 CALLDATACOPY PUSH9 0x3DB4B23E973539B7B7 PUSH1 0xB9 SHL SWAP2 ADD SWAP1 DUP2 MSTORE PUSH1 0x9 ADD SWAP2 SWAP1 POP JUMP JUMPDEST PUSH1 0x20 DUP1 DUP3 MSTORE PUSH1 0x1 SWAP1 DUP3 ADD MSTORE PUSH1 0x55 PUSH1 0xF8 SHL PUSH1 0x40 DUP3 ADD MSTORE PUSH1 0x60 ADD SWAP1 JUMP JUMPDEST DUP2 DUP4 MSTORE PUSH1 0x0 PUSH1 0x1 PUSH1 0x1 PUSH1 0xFB SHL SUB DUP4 GT ISZERO PUSH3 0x5132 JUMPI PUSH1 0x0 DUP1 REVERT JUMPDEST DUP3 PUSH1 0x5 SHL DUP1 DUP4 PUSH1 0x20 DUP8 ADD CALLDATACOPY PUSH1 0x0 SWAP5 ADD PUSH1 0x20 ADD SWAP4 DUP5 MSTORE POP SWAP2 SWAP3 SWAP2 POP POP JUMP JUMPDEST PUSH1 0x40 DUP2 MSTORE PUSH1 0x0 PUSH3 0x5165 PUSH1 0x40 DUP4 ADD DUP7 DUP9 PUSH3 0x5118 JUMP JUMPDEST DUP3 DUP2 SUB PUSH1 0x20 DUP5 ADD MSTORE PUSH3 0x170F DUP2 DUP6 DUP8 PUSH3 0x5118 JUMP JUMPDEST PUSH1 0x1 PUSH1 0x1 PUSH1 0xA0 SHL SUB DUP9 DUP2 AND DUP3 MSTORE DUP8 AND PUSH1 0x20 DUP3 ADD MSTORE PUSH1 0xA0 PUSH1 0x40 DUP3 ADD DUP2 SWAP1 MSTORE PUSH1 0x0 SWAP1 PUSH3 0x51A9 SWAP1 DUP4 ADD DUP8 DUP10 PUSH3 0x5118 JUMP JUMPDEST DUP3 DUP2 SUB PUSH1 0x60 DUP5 ADD MSTORE PUSH3 0x51BE DUP2 DUP7 DUP9 PUSH3 0x5118 JUMP JUMPDEST SWAP1 POP DUP3 DUP2 SUB PUSH1 0x80 DUP5 ADD MSTORE PUSH3 0x4F71 DUP2 DUP6 PUSH3 0x46C0 JUMP JUMPDEST PUSH1 0x0 PUSH1 0x20 DUP3 DUP5 SUB SLT ISZERO PUSH3 0x51E7 JUMPI PUSH1 0x0 DUP1 REVERT JUMPDEST DUP2 MLOAD PUSH3 0x133E DUP2 PUSH3 0x4640 JUMP JUMPDEST PUSH1 0x0 PUSH1 0x20 DUP3 DUP5 SUB SLT ISZERO PUSH3 0x5207 JUMPI PUSH1 0x0 DUP1 REVERT JUMPDEST POP MLOAD SWAP2 SWAP1 POP JUMP JUMPDEST PUSH1 0x0 DUP3 MLOAD PUSH3 0x5222 DUP2 DUP5 PUSH1 0x20 DUP8 ADD PUSH3 0x4691 JUMP JUMPDEST SWAP2 SWAP1 SWAP2 ADD SWAP3 SWAP2 POP POP JUMP JUMPDEST PUSH1 0x0 PUSH1 0x20 DUP3 DUP5 SUB SLT ISZERO PUSH3 0x523F JUMPI PUSH1 0x0 DUP1 REVERT JUMPDEST DUP2 MLOAD PUSH3 0x133E DUP2 PUSH3 0x4B7F JUMP JUMPDEST PUSH1 0x1 PUSH1 0x1 PUSH1 0xA0 SHL SUB DUP7 DUP2 AND DUP3 MSTORE DUP6 AND PUSH1 0x20 DUP3 ADD MSTORE PUSH1 0x40 DUP2 ADD DUP5 SWAP1 MSTORE PUSH1 0x60 DUP2 ADD DUP4 SWAP1 MSTORE PUSH1 0xA0 PUSH1 0x80 DUP3 ADD DUP2 SWAP1 MSTORE PUSH1 0x0 SWAP1 PUSH3 0x170F SWAP1 DUP4 ADD DUP5 PUSH3 0x46C0 JUMP INVALID PUSH1 0x80 PUSH1 0x40 MSTORE PUSH1 0x0 DUP1 SLOAD PUSH1 0x1 PUSH1 0x1 PUSH1 0xA0 SHL SUB NOT AND PUSH20 0x46E8E0AF862F636199AF69ACD082B9963066ED9C OR SWAP1 SSTORE CALLVALUE DUP1 ISZERO PUSH2 0x36 JUMPI PUSH1 0x0 DUP1 REVERT JUMPDEST POP PUSH1 0x40 MLOAD PUSH2 0x444 CODESIZE SUB DUP1 PUSH2 0x444 DUP4 CODECOPY DUP2 ADD PUSH1 0x40 DUP2 SWAP1 MSTORE PUSH2 0x55 SWAP2 PUSH2 0x1AF JUMP JUMPDEST DUP1 PUSH2 0xCE JUMPI PUSH1 0x40 MLOAD PUSH4 0x95EA7B3 PUSH1 0xE0 SHL DUP2 MSTORE CALLER PUSH1 0x4 DUP3 ADD MSTORE PUSH1 0x0 NOT PUSH1 0x24 DUP3 ADD MSTORE PUSH1 0x1 PUSH1 0x1 PUSH1 0xA0 SHL SUB DUP5 AND SWAP1 PUSH4 0x95EA7B3 SWAP1 PUSH1 0x44 ADD PUSH1 0x20 PUSH1 0x40 MLOAD DUP1 DUP4 SUB DUP2 PUSH1 0x0 DUP8 GAS CALL ISZERO DUP1 ISZERO PUSH2 0xA8 JUMPI RETURNDATASIZE PUSH1 0x0 DUP1 RETURNDATACOPY RETURNDATASIZE PUSH1 0x0 REVERT JUMPDEST POP POP POP POP PUSH1 0x40 MLOAD RETURNDATASIZE PUSH1 0x1F NOT PUSH1 0x1F DUP3 ADD AND DUP3 ADD DUP1 PUSH1 0x40 MSTORE POP DUP2 ADD SWAP1 PUSH2 0xCC SWAP2 SWAP1 PUSH2 0x1F2 JUMP JUMPDEST POP JUMPDEST PUSH1 0x40 MLOAD PUSH4 0x95EA7B3 PUSH1 0xE0 SHL DUP2 MSTORE CALLER PUSH1 0x4 DUP3 ADD MSTORE PUSH1 0x0 NOT PUSH1 0x24 DUP3 ADD MSTORE PUSH1 0x1 PUSH1 0x1 PUSH1 0xA0 SHL SUB DUP4 AND SWAP1 PUSH4 0x95EA7B3 SWAP1 PUSH1 0x44 ADD PUSH1 0x20 PUSH1 0x40 MLOAD DUP1 DUP4 SUB DUP2 PUSH1 0x0 DUP8 GAS CALL ISZERO DUP1 ISZERO PUSH2 0x11C JUMPI RETURNDATASIZE PUSH1 0x0 DUP1 RETURNDATACOPY RETURNDATASIZE PUSH1 0x0 REVERT JUMPDEST POP POP POP POP PUSH1 0x40 MLOAD RETURNDATASIZE PUSH1 0x1F NOT PUSH1 0x1F DUP3 ADD AND DUP3 ADD DUP1 PUSH1 0x40 MSTORE POP DUP2 ADD SWAP1 PUSH2 0x140 SWAP2 SWAP1 PUSH2 0x1F2 JUMP JUMPDEST POP POP PUSH1 0x1 DUP1 SLOAD PUSH1 0x1 PUSH1 0x1 PUSH1 0xA0 SHL SUB SWAP4 DUP5 AND PUSH1 0x1 PUSH1 0x1 PUSH1 0xA0 SHL SUB NOT SWAP2 DUP3 AND OR SWAP1 SWAP2 SSTORE PUSH1 0x0 DUP1 SLOAD SWAP3 SWAP1 SWAP4 AND SWAP2 DUP2 AND SWAP2 SWAP1 SWAP2 OR SWAP1 SWAP2 SSTORE PUSH1 0x2 DUP1 SLOAD SWAP1 SWAP2 AND CALLER OR SWAP1 SSTORE PUSH2 0x214 JUMP JUMPDEST DUP1 MLOAD PUSH1 0x1 PUSH1 0x1 PUSH1 0xA0 SHL SUB DUP2 AND DUP2 EQ PUSH2 0x19A JUMPI PUSH1 0x0 DUP1 REVERT JUMPDEST SWAP2 SWAP1 POP JUMP JUMPDEST DUP1 MLOAD DUP1 ISZERO ISZERO DUP2 EQ PUSH2 0x19A JUMPI PUSH1 0x0 DUP1 REVERT JUMPDEST PUSH1 0x0 DUP1 PUSH1 0x0 PUSH1 0x60 DUP5 DUP7 SUB SLT ISZERO PUSH2 0x1C4 JUMPI PUSH1 0x0 DUP1 REVERT JUMPDEST PUSH2 0x1CD DUP5 PUSH2 0x183 JUMP JUMPDEST SWAP3 POP PUSH2 0x1DB PUSH1 0x20 DUP6 ADD PUSH2 0x183 JUMP JUMPDEST SWAP2 POP PUSH2 0x1E9 PUSH1 0x40 DUP6 ADD PUSH2 0x19F JUMP JUMPDEST SWAP1 POP SWAP3 POP SWAP3 POP SWAP3 JUMP JUMPDEST PUSH1 0x0 PUSH1 0x20 DUP3 DUP5 SUB SLT ISZERO PUSH2 0x204 JUMPI PUSH1 0x0 DUP1 REVERT JUMPDEST PUSH2 0x20D DUP3 PUSH2 0x19F JUMP JUMPDEST SWAP4 SWAP3 POP POP POP JUMP JUMPDEST PUSH2 0x221 DUP1 PUSH2 0x223 PUSH1 0x0 CODECOPY PUSH1 0x0 RETURN INVALID PUSH1 0x80 PUSH1 0x40 MSTORE PUSH1 0x4 CALLDATASIZE LT PUSH2 0x38 JUMPI PUSH1 0x0 CALLDATALOAD PUSH1 0xE0 SHR DUP1 PUSH4 0xDFE1681 EQ PUSH2 0x44 JUMPI DUP1 PUSH4 0x1B9A91A4 EQ PUSH2 0x7A JUMPI DUP1 PUSH4 0xD21220A7 EQ PUSH2 0x9C JUMPI PUSH1 0x0 DUP1 REVERT JUMPDEST CALLDATASIZE PUSH2 0x3F JUMPI STOP JUMPDEST PUSH1 0x0 DUP1 REVERT JUMPDEST CALLVALUE DUP1 ISZERO PUSH2 0x50 JUMPI PUSH1 0x0 DUP1 REVERT JUMPDEST POP PUSH1 0x1 SLOAD PUSH1 0x1 PUSH1 0x1 PUSH1 0xA0 SHL SUB AND JUMPDEST PUSH1 0x40 MLOAD PUSH1 0x1 PUSH1 0x1 PUSH1 0xA0 SHL SUB SWAP1 SWAP2 AND DUP2 MSTORE PUSH1 0x20 ADD PUSH1 0x40 MLOAD DUP1 SWAP2 SUB SWAP1 RETURN JUMPDEST CALLVALUE DUP1 ISZERO PUSH2 0x86 JUMPI PUSH1 0x0 DUP1 REVERT JUMPDEST POP PUSH2 0x9A PUSH2 0x95 CALLDATASIZE PUSH1 0x4 PUSH2 0x178 JUMP JUMPDEST PUSH2 0xBA JUMP JUMPDEST STOP JUMPDEST CALLVALUE DUP1 ISZERO PUSH2 0xA8 JUMPI PUSH1 0x0 DUP1 REVERT JUMPDEST POP PUSH1 0x0 SLOAD PUSH1 0x1 PUSH1 0x1 PUSH1 0xA0 SHL SUB AND PUSH2 0x5E JUMP JUMPDEST PUSH1 0x2 SLOAD PUSH1 0x1 PUSH1 0x1 PUSH1 0xA0 SHL SUB AND CALLER EQ PUSH2 0xE5 JUMPI PUSH1 0x40 MLOAD PUSH4 0xAB243E49 PUSH1 0xE0 SHL DUP2 MSTORE PUSH1 0x4 ADD PUSH1 0x40 MLOAD DUP1 SWAP2 SUB SWAP1 REVERT JUMPDEST PUSH1 0x40 DUP1 MLOAD PUSH1 0x0 DUP1 DUP3 MSTORE PUSH1 0x20 DUP3 ADD SWAP1 SWAP3 MSTORE PUSH1 0x1 PUSH1 0x1 PUSH1 0xA0 SHL SUB DUP5 AND SWAP1 DUP4 SWAP1 PUSH1 0x40 MLOAD PUSH2 0x10F SWAP2 SWAP1 PUSH2 0x1B0 JUMP JUMPDEST PUSH1 0x0 PUSH1 0x40 MLOAD DUP1 DUP4 SUB DUP2 DUP6 DUP8 GAS CALL SWAP3 POP POP POP RETURNDATASIZE DUP1 PUSH1 0x0 DUP2 EQ PUSH2 0x14C JUMPI PUSH1 0x40 MLOAD SWAP2 POP PUSH1 0x1F NOT PUSH1 0x3F RETURNDATASIZE ADD AND DUP3 ADD PUSH1 0x40 MSTORE RETURNDATASIZE DUP3 MSTORE RETURNDATASIZE PUSH1 0x0 PUSH1 0x20 DUP5 ADD RETURNDATACOPY PUSH2 0x151 JUMP JUMPDEST PUSH1 0x60 SWAP2 POP JUMPDEST POP POP SWAP1 POP DUP1 PUSH2 0x173 JUMPI PUSH1 0x40 MLOAD PUSH4 0x5AECCF6B PUSH1 0xE0 SHL DUP2 MSTORE PUSH1 0x4 ADD PUSH1 0x40 MLOAD DUP1 SWAP2 SUB SWAP1 REVERT JUMPDEST POP POP POP JUMP JUMPDEST PUSH1 0x0 DUP1 PUSH1 0x40 DUP4 DUP6 SUB SLT ISZERO PUSH2 0x18B JUMPI PUSH1 0x0 DUP1 REVERT JUMPDEST DUP3 CALLDATALOAD PUSH1 0x1 PUSH1 0x1 PUSH1 0xA0 SHL SUB DUP2 AND DUP2 EQ PUSH2 0x1A2 JUMPI PUSH1 0x0 DUP1 REVERT JUMPDEST SWAP5 PUSH1 0x20 SWAP4 SWAP1 SWAP4 ADD CALLDATALOAD SWAP4 POP POP POP JUMP JUMPDEST PUSH1 0x0 DUP3 MLOAD PUSH1 0x0 JUMPDEST DUP2 DUP2 LT ISZERO PUSH2 0x1D1 JUMPI PUSH1 0x20 DUP2 DUP7 ADD DUP2 ADD MLOAD DUP6 DUP4 ADD MSTORE ADD PUSH2 0x1B7 JUMP JUMPDEST DUP2 DUP2 GT ISZERO PUSH2 0x1E0 JUMPI PUSH1 0x0 DUP3 DUP6 ADD MSTORE JUMPDEST POP SWAP2 SWAP1 SWAP2 ADD SWAP3 SWAP2 POP POP JUMP INVALID LOG2 PUSH5 0x6970667358 0x22 SLT KECCAK256 GAS 0xEB PUSH31 0x5DE3BE1388A355F225F2B9E3CAA9DFA8F8F9ED01A5D3FFD1FA9BE35EBB6473 PUSH16 0x6C634300080B003351AB1232A73B82B6 0xB0 0xAC 0xB0 STATICCALL SWAP2 0xB8 CALLVALUE 0xCF PUSH15 0x258A1858C4E23C72CE97241C71AA0D LOG2 PUSH5 0x6970667358 0x22 SLT KECCAK256 SWAP2 0xF6 DIFFICULTY 0xAF SELFBALANCE 0xE7 0xAD 0xD9 CREATE 0x4B CREATE2 0x4A MULMOD 0x27 PUSH31 0x8D77DE5A960E0E8CF68109E732ED3F50F64736F6C634300080B0033687474 PUSH17 0x733A2F2F646174612E63657262792E6669 0x2F NUMBER PUSH6 0x726279537761 PUSH17 0x2F76312F00000000000000000000000000 "
		},
		"gasEstimates": {
			"creation": {
				"codeDepositCost": "4461200",
				"executionCost": "infinite",
				"totalCost": "infinite"
			},
			"external": {
				"addTokenLiquidity(address,uint256,uint256,address)": "infinite",
				"adminChangeCerUsdCreditInPool(address,uint256)": "infinite",
				"adminCreatePool(address,uint256,uint256,address)": "infinite",
				"adminInitialize()": "infinite",
				"adminSetURI(string)": "infinite",
				"adminUpdateFeesAndTvlMultipliers((address,uint256,uint256,uint256,uint256,uint256,uint256))": "159825",
				"adminUpdateNameAndSymbol(string,string)": "infinite",
				"balanceOf(address,uint256)": "2742",
				"balanceOfBatch(address[],uint256[])": "infinite",
				"createPool(address,uint256,uint256,address)": "infinite",
				"decimals()": "315",
				"exists(uint256)": "2517",
				"getCurrentOneMinusFeeBasedOnTrades(address)": "infinite",
				"getInputTokensForExactTokens(address,address,uint256)": "infinite",
				"getOutputExactTokensForTokens(address,address,uint256)": "infinite",
				"getPoolsByTokens(address[])": "infinite",
				"getSettings()": "15566",
				"getTokenToPoolId(address)": "2609",
				"getUtilsContractAtPos(uint256)": "infinite",
				"hourlyTradeVolumeInCerUsd(address,uint256)": "2685",
				"increaseCerUsdCreditInPool(address,uint256)": "infinite",
				"isApprovedForAll(address,address)": "infinite",
				"name()": "infinite",
				"oneMinusFeeCached(address,uint256)": "2661",
				"owner()": "2443",
				"removeTokenLiquidity(address,uint256,uint256,address)": "infinite",
				"renounceOwnership()": "28261",
				"safeBatchTransferFrom(address,address,uint256[],uint256[],bytes)": "infinite",
				"safeTransferFrom(address,address,uint256,uint256,bytes)": "infinite",
				"setApprovalForAll(address,bool)": "infinite",
				"supportsInterface(bytes4)": "477",
				"swapExactTokensForTokens(address,address,uint256,uint256,uint256,address)": "infinite",
				"swapTokensForExactTokens(address,address,uint256,uint256,uint256,address)": "infinite",
				"symbol()": "infinite",
				"testCheck(bool,address)": "infinite",
				"testInit()": "infinite",
				"testSetupTokens(address,address,address,address,address)": "infinite",
				"totalSupply()": "infinite",
				"totalSupply(uint256)": "2560",
				"transferOwnership(address)": "infinite",
				"uri(uint256)": "infinite"
			}
		},
		"methodIdentifiers": {
			"addTokenLiquidity(address,uint256,uint256,address)": "43fefad4",
			"adminChangeCerUsdCreditInPool(address,uint256)": "cab4ba82",
			"adminCreatePool(address,uint256,uint256,address)": "d5d60737",
			"adminInitialize()": "c09c923b",
			"adminSetURI(string)": "a7fd40bf",
			"adminUpdateFeesAndTvlMultipliers((address,uint256,uint256,uint256,uint256,uint256,uint256))": "003374b5",
			"adminUpdateNameAndSymbol(string,string)": "3935ac11",
			"balanceOf(address,uint256)": "00fdd58e",
			"balanceOfBatch(address[],uint256[])": "4e1273f4",
			"createPool(address,uint256,uint256,address)": "842980f4",
			"decimals()": "313ce567",
			"exists(uint256)": "4f558e79",
			"getCurrentOneMinusFeeBasedOnTrades(address)": "4c3c0eb2",
			"getInputTokensForExactTokens(address,address,uint256)": "c790985a",
			"getOutputExactTokensForTokens(address,address,uint256)": "48b08d62",
			"getPoolsByTokens(address[])": "34e150ab",
			"getSettings()": "85b4bb53",
			"getTokenToPoolId(address)": "61417516",
			"getUtilsContractAtPos(uint256)": "06fb1a07",
			"hourlyTradeVolumeInCerUsd(address,uint256)": "224b4fed",
			"increaseCerUsdCreditInPool(address,uint256)": "71858049",
			"isApprovedForAll(address,address)": "e985e9c5",
			"name()": "06fdde03",
			"oneMinusFeeCached(address,uint256)": "ed54e06c",
			"owner()": "8da5cb5b",
			"removeTokenLiquidity(address,uint256,uint256,address)": "74fcf071",
			"renounceOwnership()": "715018a6",
			"safeBatchTransferFrom(address,address,uint256[],uint256[],bytes)": "2eb2c2d6",
			"safeTransferFrom(address,address,uint256,uint256,bytes)": "f242432a",
			"setApprovalForAll(address,bool)": "a22cb465",
			"supportsInterface(bytes4)": "01ffc9a7",
			"swapExactTokensForTokens(address,address,uint256,uint256,uint256,address)": "a60c6e55",
			"swapTokensForExactTokens(address,address,uint256,uint256,uint256,address)": "f6524724",
			"symbol()": "95d89b41",
			"testCheck(bool,address)": "f36b3fc3",
			"testInit()": "b5d11e99",
			"testSetupTokens(address,address,address,address,address)": "eca01093",
			"totalSupply()": "18160ddd",
			"totalSupply(uint256)": "bd85b039",
			"transferOwnership(address)": "f2fde38b",
			"uri(uint256)": "0e89341c"
		}
	},
	"abi": [
		{
			"inputs": [],
			"stateMutability": "nonpayable",
			"type": "constructor"
		},
		{
			"inputs": [],
			"name": "CerbyCronJobsExecution_TransactionsAreTemporarilyDisabled",
			"type": "error"
		},
		{
			"inputs": [],
			"name": "CerbySwapLP1155V1_CallerIsNotOwnerNorApproved",
			"type": "error"
		},
		{
			"inputs": [],
			"name": "CerbySwapLP1155V1_TransactionsAreTemporarilyDisabled",
			"type": "error"
		},
		{
			"inputs": [],
			"name": "CerbySwapV1_AmountOfCerUsdMustBeLargerThanOne",
			"type": "error"
		},
		{
			"inputs": [],
			"name": "CerbySwapV1_AmountOfCerUsdOrTokensInMustBeLargerThanOne",
			"type": "error"
		},
		{
			"inputs": [],
			"name": "CerbySwapV1_AmountOfTokensMustBeLargerThanOne",
			"type": "error"
		},
		{
			"inputs": [],
			"name": "CerbySwapV1_CreditCerUsdIsOverflown",
			"type": "error"
		},
		{
			"inputs": [],
			"name": "CerbySwapV1_CreditCerUsdMustNotBeBelowZero",
			"type": "error"
		},
		{
			"inputs": [],
			"name": "CerbySwapV1_FeeIsWrong",
			"type": "error"
		},
		{
			"inputs": [],
			"name": "CerbySwapV1_FeeOnTransferTokensArentSupported",
			"type": "error"
		},
		{
			"inputs": [],
			"name": "CerbySwapV1_InputCerUsdAmountIsLargerThanMaximumSpecified",
			"type": "error"
		},
		{
			"inputs": [],
			"name": "CerbySwapV1_InputTokensAmountIsLargerThanMaximumSpecified",
			"type": "error"
		},
		{
			"inputs": [],
			"name": "CerbySwapV1_InvariantKValueMustBeSameOrIncreasedOnAnySwaps",
			"type": "error"
		},
		{
			"inputs": [],
			"name": "CerbySwapV1_MintFeeMultiplierMustNotBeLargerThan50Percent",
			"type": "error"
		},
		{
			"inputs": [],
			"name": "CerbySwapV1_MsgValueProvidedMustBeLargerThanAmountTokensIn",
			"type": "error"
		},
		{
			"inputs": [],
			"name": "CerbySwapV1_MsgValueProvidedMustBeZero",
			"type": "error"
		},
		{
			"inputs": [],
			"name": "CerbySwapV1_OutputCerUsdAmountIsLowerThanMinimumSpecified",
			"type": "error"
		},
		{
			"inputs": [],
			"name": "CerbySwapV1_OutputTokensAmountIsLowerThanMinimumSpecified",
			"type": "error"
		},
		{
			"inputs": [],
			"name": "CerbySwapV1_SafeTransferFromFailed",
			"type": "error"
		},
		{
			"inputs": [],
			"name": "CerbySwapV1_SafeTransferNativeFailed",
			"type": "error"
		},
		{
			"inputs": [],
			"name": "CerbySwapV1_SafeTransferTokensFailed",
			"type": "error"
		},
		{
			"inputs": [],
			"name": "CerbySwapV1_SwappingTokenToSameTokenIsForbidden",
			"type": "error"
		},
		{
			"inputs": [],
			"name": "CerbySwapV1_TokenAlreadyExists",
			"type": "error"
		},
		{
			"inputs": [],
			"name": "CerbySwapV1_TokenDoesNotExist",
			"type": "error"
		},
		{
			"inputs": [],
			"name": "CerbySwapV1_TransactionIsExpired",
			"type": "error"
		},
		{
			"inputs": [],
			"name": "CerbySwapV1_TvlMultiplierIsWrong",
			"type": "error"
		},
		{
			"inputs": [],
			"name": "ERC1155_AccountsAndIdsLengthMismatch",
			"type": "error"
		},
		{
			"inputs": [],
			"name": "ERC1155_BalanceQueryForTheZeroAddress",
			"type": "error"
		},
		{
			"inputs": [],
			"name": "ERC1155_BurnAmountExceedsBalance",
			"type": "error"
		},
		{
			"inputs": [],
			"name": "ERC1155_BurnFromZeroAddress",
			"type": "error"
		},
		{
			"inputs": [],
			"name": "ERC1155_ERC1155ReceiverRejectsTokens",
			"type": "error"
		},
		{
			"inputs": [],
			"name": "ERC1155_IdsAndAmountsLengthMismatch",
			"type": "error"
		},
		{
			"inputs": [],
			"name": "ERC1155_InsufficientBalanceForTransfer",
			"type": "error"
		},
		{
			"inputs": [],
			"name": "ERC1155_MintToZeroAddress",
			"type": "error"
		},
		{
			"inputs": [],
			"name": "ERC1155_SettingApprovalStatusForSelf",
			"type": "error"
		},
		{
			"inputs": [],
			"name": "ERC1155_TransferToNonERC1155ReceiverImplementer",
			"type": "error"
		},
		{
			"inputs": [],
			"name": "ERC1155_TransferToZeroAddress",
			"type": "error"
		},
		{
			"inputs": [],
			"name": "Ownable_CallerIsNotOwner",
			"type": "error"
		},
		{
			"inputs": [],
			"name": "Ownable_NewOwnerIsNotTheZeroAddress",
			"type": "error"
		},
		{
			"anonymous": false,
			"inputs": [
				{
					"indexed": true,
					"internalType": "address",
					"name": "account",
					"type": "address"
				},
				{
					"indexed": true,
					"internalType": "address",
					"name": "operator",
					"type": "address"
				},
				{
					"indexed": false,
					"internalType": "bool",
					"name": "approved",
					"type": "bool"
				}
			],
			"name": "ApprovalForAll",
			"type": "event"
		},
		{
			"anonymous": false,
			"inputs": [
				{
					"indexed": false,
					"internalType": "address",
					"name": "_token",
					"type": "address"
				},
				{
					"indexed": false,
					"internalType": "uint256",
					"name": "_amountTokensIn",
					"type": "uint256"
				},
				{
					"indexed": false,
					"internalType": "uint256",
					"name": "_amountCerUsdToMint",
					"type": "uint256"
				},
				{
					"indexed": false,
					"internalType": "uint256",
					"name": "_lpAmount",
					"type": "uint256"
				}
			],
			"name": "LiquidityAdded",
			"type": "event"
		},
		{
			"anonymous": false,
			"inputs": [
				{
					"indexed": false,
					"internalType": "address",
					"name": "_token",
					"type": "address"
				},
				{
					"indexed": false,
					"internalType": "uint256",
					"name": "_amountTokensOut",
					"type": "uint256"
				},
				{
					"indexed": false,
					"internalType": "uint256",
					"name": "_amountCerUsdToBurn",
					"type": "uint256"
				},
				{
					"indexed": false,
					"internalType": "uint256",
					"name": "_amountLpTokensBalanceToBurn",
					"type": "uint256"
				}
			],
			"name": "LiquidityRemoved",
			"type": "event"
		},
		{
			"anonymous": false,
			"inputs": [
				{
					"indexed": true,
					"internalType": "address",
					"name": "previousOwner",
					"type": "address"
				},
				{
					"indexed": true,
					"internalType": "address",
					"name": "newOwner",
					"type": "address"
				}
			],
			"name": "OwnershipTransferred",
			"type": "event"
		},
		{
			"anonymous": false,
			"inputs": [
				{
					"indexed": false,
					"internalType": "address",
					"name": "_token",
					"type": "address"
				},
				{
					"indexed": false,
					"internalType": "uint256",
					"name": "_poolId",
					"type": "uint256"
				}
			],
			"name": "PoolCreated",
			"type": "event"
		},
		{
			"anonymous": false,
			"inputs": [
				{
					"indexed": false,
					"internalType": "address",
					"name": "_token",
					"type": "address"
				},
				{
					"indexed": false,
					"internalType": "address",
					"name": "_sender",
					"type": "address"
				},
				{
					"indexed": false,
					"internalType": "uint256",
					"name": "_amountTokensIn",
					"type": "uint256"
				},
				{
					"indexed": false,
					"internalType": "uint256",
					"name": "_amountCerUsdIn",
					"type": "uint256"
				},
				{
					"indexed": false,
					"internalType": "uint256",
					"name": "__amountTokensOut",
					"type": "uint256"
				},
				{
					"indexed": false,
					"internalType": "uint256",
					"name": "amountCerUsdOut",
					"type": "uint256"
				},
				{
					"indexed": false,
					"internalType": "uint256",
					"name": "_currentFee",
					"type": "uint256"
				},
				{
					"indexed": false,
					"internalType": "address",
					"name": "_transferTo",
					"type": "address"
				}
			],
			"name": "Swap",
			"type": "event"
		},
		{
			"anonymous": false,
			"inputs": [
				{
					"indexed": false,
					"internalType": "address",
					"name": "_token",
					"type": "address"
				},
				{
					"indexed": false,
					"internalType": "uint256",
					"name": "_newBalanceToken",
					"type": "uint256"
				},
				{
					"indexed": false,
					"internalType": "uint256",
					"name": "_newBalanceCerUsd",
					"type": "uint256"
				},
				{
					"indexed": false,
					"internalType": "uint256",
					"name": "_newCreditCerUsd",
					"type": "uint256"
				}
			],
			"name": "Sync",
			"type": "event"
		},
		{
			"anonymous": false,
			"inputs": [
				{
					"indexed": true,
					"internalType": "address",
					"name": "operator",
					"type": "address"
				},
				{
					"indexed": true,
					"internalType": "address",
					"name": "from",
					"type": "address"
				},
				{
					"indexed": true,
					"internalType": "address",
					"name": "to",
					"type": "address"
				},
				{
					"indexed": false,
					"internalType": "uint256[]",
					"name": "ids",
					"type": "uint256[]"
				},
				{
					"indexed": false,
					"internalType": "uint256[]",
					"name": "values",
					"type": "uint256[]"
				}
			],
			"name": "TransferBatch",
			"type": "event"
		},
		{
			"anonymous": false,
			"inputs": [
				{
					"indexed": true,
					"internalType": "address",
					"name": "operator",
					"type": "address"
				},
				{
					"indexed": true,
					"internalType": "address",
					"name": "from",
					"type": "address"
				},
				{
					"indexed": true,
					"internalType": "address",
					"name": "to",
					"type": "address"
				},
				{
					"indexed": false,
					"internalType": "uint256",
					"name": "id",
					"type": "uint256"
				},
				{
					"indexed": false,
					"internalType": "uint256",
					"name": "value",
					"type": "uint256"
				}
			],
			"name": "TransferSingle",
			"type": "event"
		},
		{
			"anonymous": false,
			"inputs": [
				{
					"indexed": false,
					"internalType": "string",
					"name": "value",
					"type": "string"
				},
				{
					"indexed": true,
					"internalType": "uint256",
					"name": "id",
					"type": "uint256"
				}
			],
			"name": "URI",
			"type": "event"
		},
		{
			"inputs": [
				{
					"internalType": "address",
					"name": "_token",
					"type": "address"
				},
				{
					"internalType": "uint256",
					"name": "_amountTokensIn",
					"type": "uint256"
				},
				{
					"internalType": "uint256",
					"name": "_expireTimestamp",
					"type": "uint256"
				},
				{
					"internalType": "address",
					"name": "_transferTo",
					"type": "address"
				}
			],
			"name": "addTokenLiquidity",
			"outputs": [
				{
					"internalType": "uint256",
					"name": "",
					"type": "uint256"
				}
			],
			"stateMutability": "payable",
			"type": "function"
		},
		{
			"inputs": [
				{
					"internalType": "address",
					"name": "_token",
					"type": "address"
				},
				{
					"internalType": "uint256",
					"name": "_amountCerUsdCredit",
					"type": "uint256"
				}
			],
			"name": "adminChangeCerUsdCreditInPool",
			"outputs": [],
			"stateMutability": "nonpayable",
			"type": "function"
		},
		{
			"inputs": [
				{
					"internalType": "address",
					"name": "_token",
					"type": "address"
				},
				{
					"internalType": "uint256",
					"name": "_amountTokensIn",
					"type": "uint256"
				},
				{
					"internalType": "uint256",
					"name": "_amountCerUsdToMint",
					"type": "uint256"
				},
				{
					"internalType": "address",
					"name": "_transferTo",
					"type": "address"
				}
			],
			"name": "adminCreatePool",
			"outputs": [],
			"stateMutability": "payable",
			"type": "function"
		},
		{
			"inputs": [],
			"name": "adminInitialize",
			"outputs": [],
			"stateMutability": "payable",
			"type": "function"
		},
		{
			"inputs": [
				{
					"internalType": "string",
					"name": "_newUrlPrefix",
					"type": "string"
				}
			],
			"name": "adminSetURI",
			"outputs": [],
			"stateMutability": "nonpayable",
			"type": "function"
		},
		{
			"inputs": [
				{
					"components": [
						{
							"internalType": "address",
							"name": "mintFeeBeneficiary",
							"type": "address"
						},
						{
							"internalType": "uint256",
							"name": "mintFeeMultiplier",
							"type": "uint256"
						},
						{
							"internalType": "uint256",
							"name": "feeMinimum",
							"type": "uint256"
						},
						{
							"internalType": "uint256",
							"name": "feeMaximum",
							"type": "uint256"
						},
						{
							"internalType": "uint256",
							"name": "tvlMultiplierMinimum",
							"type": "uint256"
						},
						{
							"internalType": "uint256",
							"name": "tvlMultiplierMaximum",
							"type": "uint256"
						},
						{
							"internalType": "uint256",
							"name": "sincePeriodAgoToTrackTradeVolume",
							"type": "uint256"
						}
					],
					"internalType": "struct CerbySwapV1_Declarations.Settings",
					"name": "_settings",
					"type": "tuple"
				}
			],
			"name": "adminUpdateFeesAndTvlMultipliers",
			"outputs": [],
			"stateMutability": "nonpayable",
			"type": "function"
		},
		{
			"inputs": [
				{
					"internalType": "string",
					"name": "_newContractName",
					"type": "string"
				},
				{
					"internalType": "string",
					"name": "_newContractSymbol",
					"type": "string"
				}
			],
			"name": "adminUpdateNameAndSymbol",
			"outputs": [],
			"stateMutability": "nonpayable",
			"type": "function"
		},
		{
			"inputs": [
				{
					"internalType": "address",
					"name": "_account",
					"type": "address"
				},
				{
					"internalType": "uint256",
					"name": "_id",
					"type": "uint256"
				}
			],
			"name": "balanceOf",
			"outputs": [
				{
					"internalType": "uint256",
					"name": "",
					"type": "uint256"
				}
			],
			"stateMutability": "view",
			"type": "function"
		},
		{
			"inputs": [
				{
					"internalType": "address[]",
					"name": "_accounts",
					"type": "address[]"
				},
				{
					"internalType": "uint256[]",
					"name": "_ids",
					"type": "uint256[]"
				}
			],
			"name": "balanceOfBatch",
			"outputs": [
				{
					"internalType": "uint256[]",
					"name": "",
					"type": "uint256[]"
				}
			],
			"stateMutability": "view",
			"type": "function"
		},
		{
			"inputs": [
				{
					"internalType": "address",
					"name": "_token",
					"type": "address"
				},
				{
					"internalType": "uint256",
					"name": "_amountTokensIn",
					"type": "uint256"
				},
				{
					"internalType": "uint256",
					"name": "_amountCerUsdToMint",
					"type": "uint256"
				},
				{
					"internalType": "address",
					"name": "_transferTo",
					"type": "address"
				}
			],
			"name": "createPool",
			"outputs": [],
			"stateMutability": "payable",
			"type": "function"
		},
		{
			"inputs": [],
			"name": "decimals",
			"outputs": [
				{
					"internalType": "uint256",
					"name": "",
					"type": "uint256"
				}
			],
			"stateMutability": "pure",
			"type": "function"
		},
		{
			"inputs": [
				{
					"internalType": "uint256",
					"name": "_id",
					"type": "uint256"
				}
			],
			"name": "exists",
			"outputs": [
				{
					"internalType": "bool",
					"name": "",
					"type": "bool"
				}
			],
			"stateMutability": "view",
			"type": "function"
		},
		{
			"inputs": [
				{
					"internalType": "address",
					"name": "_token",
					"type": "address"
				}
			],
			"name": "getCurrentOneMinusFeeBasedOnTrades",
			"outputs": [
				{
					"internalType": "uint256",
					"name": "fee",
					"type": "uint256"
				}
			],
			"stateMutability": "view",
			"type": "function"
		},
		{
			"inputs": [
				{
					"internalType": "address",
					"name": "_tokenIn",
					"type": "address"
				},
				{
					"internalType": "address",
					"name": "_tokenOut",
					"type": "address"
				},
				{
					"internalType": "uint256",
					"name": "_amountTokensOut",
					"type": "uint256"
				}
			],
			"name": "getInputTokensForExactTokens",
			"outputs": [
				{
					"internalType": "uint256",
					"name": "",
					"type": "uint256"
				}
			],
			"stateMutability": "view",
			"type": "function"
		},
		{
			"inputs": [
				{
					"internalType": "address",
					"name": "_tokenIn",
					"type": "address"
				},
				{
					"internalType": "address",
					"name": "_tokenOut",
					"type": "address"
				},
				{
					"internalType": "uint256",
					"name": "_amountTokensIn",
					"type": "uint256"
				}
			],
			"name": "getOutputExactTokensForTokens",
			"outputs": [
				{
					"internalType": "uint256",
					"name": "",
					"type": "uint256"
				}
			],
			"stateMutability": "view",
			"type": "function"
		},
		{
			"inputs": [
				{
					"internalType": "address[]",
					"name": "_tokens",
					"type": "address[]"
				}
			],
			"name": "getPoolsByTokens",
			"outputs": [
				{
					"components": [
						{
							"internalType": "uint256",
							"name": "balanceToken",
							"type": "uint256"
						},
						{
							"internalType": "uint256",
							"name": "balanceCerUsd",
							"type": "uint256"
						}
					],
					"internalType": "struct CerbySwapV1_Declarations.PoolBalances[]",
					"name": "",
					"type": "tuple[]"
				}
			],
			"stateMutability": "view",
			"type": "function"
		},
		{
			"inputs": [],
			"name": "getSettings",
			"outputs": [
				{
					"components": [
						{
							"internalType": "address",
							"name": "mintFeeBeneficiary",
							"type": "address"
						},
						{
							"internalType": "uint256",
							"name": "mintFeeMultiplier",
							"type": "uint256"
						},
						{
							"internalType": "uint256",
							"name": "feeMinimum",
							"type": "uint256"
						},
						{
							"internalType": "uint256",
							"name": "feeMaximum",
							"type": "uint256"
						},
						{
							"internalType": "uint256",
							"name": "tvlMultiplierMinimum",
							"type": "uint256"
						},
						{
							"internalType": "uint256",
							"name": "tvlMultiplierMaximum",
							"type": "uint256"
						},
						{
							"internalType": "uint256",
							"name": "sincePeriodAgoToTrackTradeVolume",
							"type": "uint256"
						}
					],
					"internalType": "struct CerbySwapV1_Declarations.Settings",
					"name": "",
					"type": "tuple"
				}
			],
			"stateMutability": "view",
			"type": "function"
		},
		{
			"inputs": [
				{
					"internalType": "address",
					"name": "_token",
					"type": "address"
				}
			],
			"name": "getTokenToPoolId",
			"outputs": [
				{
					"internalType": "uint256",
					"name": "",
					"type": "uint256"
				}
			],
			"stateMutability": "view",
			"type": "function"
		},
		{
			"inputs": [
				{
					"internalType": "uint256",
					"name": "_pos",
					"type": "uint256"
				}
			],
			"name": "getUtilsContractAtPos",
			"outputs": [
				{
					"internalType": "address",
					"name": "",
					"type": "address"
				}
			],
			"stateMutability": "view",
			"type": "function"
		},
		{
			"inputs": [
				{
					"internalType": "address",
					"name": "",
					"type": "address"
				},
				{
					"internalType": "uint256",
					"name": "",
					"type": "uint256"
				}
			],
			"name": "hourlyTradeVolumeInCerUsd",
			"outputs": [
				{
					"internalType": "uint256",
					"name": "",
					"type": "uint256"
				}
			],
			"stateMutability": "view",
			"type": "function"
		},
		{
			"inputs": [
				{
					"internalType": "address",
					"name": "_token",
					"type": "address"
				},
				{
					"internalType": "uint256",
					"name": "_amountCerUsdCredit",
					"type": "uint256"
				}
			],
			"name": "increaseCerUsdCreditInPool",
			"outputs": [],
			"stateMutability": "nonpayable",
			"type": "function"
		},
		{
			"inputs": [
				{
					"internalType": "address",
					"name": "_account",
					"type": "address"
				},
				{
					"internalType": "address",
					"name": "_operator",
					"type": "address"
				}
			],
			"name": "isApprovedForAll",
			"outputs": [
				{
					"internalType": "bool",
					"name": "",
					"type": "bool"
				}
			],
			"stateMutability": "view",
			"type": "function"
		},
		{
			"inputs": [],
			"name": "name",
			"outputs": [
				{
					"internalType": "string",
					"name": "",
					"type": "string"
				}
			],
			"stateMutability": "view",
			"type": "function"
		},
		{
			"inputs": [
				{
					"internalType": "address",
					"name": "",
					"type": "address"
				},
				{
					"internalType": "uint256",
					"name": "",
					"type": "uint256"
				}
			],
			"name": "oneMinusFeeCached",
			"outputs": [
				{
					"internalType": "uint256",
					"name": "",
					"type": "uint256"
				}
			],
			"stateMutability": "view",
			"type": "function"
		},
		{
			"inputs": [],
			"name": "owner",
			"outputs": [
				{
					"internalType": "address",
					"name": "",
					"type": "address"
				}
			],
			"stateMutability": "view",
			"type": "function"
		},
		{
			"inputs": [
				{
					"internalType": "address",
					"name": "_token",
					"type": "address"
				},
				{
					"internalType": "uint256",
					"name": "_amountLpTokensBalanceToBurn",
					"type": "uint256"
				},
				{
					"internalType": "uint256",
					"name": "_expireTimestamp",
					"type": "uint256"
				},
				{
					"internalType": "address",
					"name": "_transferTo",
					"type": "address"
				}
			],
			"name": "removeTokenLiquidity",
			"outputs": [
				{
					"internalType": "uint256",
					"name": "",
					"type": "uint256"
				}
			],
			"stateMutability": "nonpayable",
			"type": "function"
		},
		{
			"inputs": [],
			"name": "renounceOwnership",
			"outputs": [],
			"stateMutability": "nonpayable",
			"type": "function"
		},
		{
			"inputs": [
				{
					"internalType": "address",
					"name": "_from",
					"type": "address"
				},
				{
					"internalType": "address",
					"name": "_to",
					"type": "address"
				},
				{
					"internalType": "uint256[]",
					"name": "_ids",
					"type": "uint256[]"
				},
				{
					"internalType": "uint256[]",
					"name": "_amounts",
					"type": "uint256[]"
				},
				{
					"internalType": "bytes",
					"name": "_data",
					"type": "bytes"
				}
			],
			"name": "safeBatchTransferFrom",
			"outputs": [],
			"stateMutability": "nonpayable",
			"type": "function"
		},
		{
			"inputs": [
				{
					"internalType": "address",
					"name": "_from",
					"type": "address"
				},
				{
					"internalType": "address",
					"name": "_to",
					"type": "address"
				},
				{
					"internalType": "uint256",
					"name": "_id",
					"type": "uint256"
				},
				{
					"internalType": "uint256",
					"name": "_amount",
					"type": "uint256"
				},
				{
					"internalType": "bytes",
					"name": "_data",
					"type": "bytes"
				}
			],
			"name": "safeTransferFrom",
			"outputs": [],
			"stateMutability": "nonpayable",
			"type": "function"
		},
		{
			"inputs": [
				{
					"internalType": "address",
					"name": "_operator",
					"type": "address"
				},
				{
					"internalType": "bool",
					"name": "_approved",
					"type": "bool"
				}
			],
			"name": "setApprovalForAll",
			"outputs": [],
			"stateMutability": "nonpayable",
			"type": "function"
		},
		{
			"inputs": [
				{
					"internalType": "bytes4",
					"name": "interfaceId",
					"type": "bytes4"
				}
			],
			"name": "supportsInterface",
			"outputs": [
				{
					"internalType": "bool",
					"name": "",
					"type": "bool"
				}
			],
			"stateMutability": "view",
			"type": "function"
		},
		{
			"inputs": [
				{
					"internalType": "address",
					"name": "_tokenIn",
					"type": "address"
				},
				{
					"internalType": "address",
					"name": "_tokenOut",
					"type": "address"
				},
				{
					"internalType": "uint256",
					"name": "_amountTokensIn",
					"type": "uint256"
				},
				{
					"internalType": "uint256",
					"name": "_minAmountTokensOut",
					"type": "uint256"
				},
				{
					"internalType": "uint256",
					"name": "_expireTimestamp",
					"type": "uint256"
				},
				{
					"internalType": "address",
					"name": "_transferTo",
					"type": "address"
				}
			],
			"name": "swapExactTokensForTokens",
			"outputs": [
				{
					"internalType": "uint256[]",
					"name": "",
					"type": "uint256[]"
				}
			],
			"stateMutability": "payable",
			"type": "function"
		},
		{
			"inputs": [
				{
					"internalType": "address",
					"name": "_tokenIn",
					"type": "address"
				},
				{
					"internalType": "address",
					"name": "_tokenOut",
					"type": "address"
				},
				{
					"internalType": "uint256",
					"name": "_amountTokensOut",
					"type": "uint256"
				},
				{
					"internalType": "uint256",
					"name": "_maxAmountTokensIn",
					"type": "uint256"
				},
				{
					"internalType": "uint256",
					"name": "_expireTimestamp",
					"type": "uint256"
				},
				{
					"internalType": "address",
					"name": "_transferTo",
					"type": "address"
				}
			],
			"name": "swapTokensForExactTokens",
			"outputs": [
				{
					"internalType": "uint256[]",
					"name": "",
					"type": "uint256[]"
				}
			],
			"stateMutability": "payable",
			"type": "function"
		},
		{
			"inputs": [],
			"name": "symbol",
			"outputs": [
				{
					"internalType": "string",
					"name": "",
					"type": "string"
				}
			],
			"stateMutability": "view",
			"type": "function"
		},
		{
			"inputs": [
				{
					"internalType": "bool",
					"name": "_calcFee",
					"type": "bool"
				},
				{
					"internalType": "address",
					"name": "_token",
					"type": "address"
				}
			],
			"name": "testCheck",
			"outputs": [],
			"stateMutability": "nonpayable",
			"type": "function"
		},
		{
			"inputs": [],
			"name": "testInit",
			"outputs": [],
			"stateMutability": "nonpayable",
			"type": "function"
		},
		{
			"inputs": [
				{
					"internalType": "address",
					"name": "",
					"type": "address"
				},
				{
					"internalType": "address",
					"name": "_testCerbyToken",
					"type": "address"
				},
				{
					"internalType": "address",
					"name": "_cerUsdToken",
					"type": "address"
				},
				{
					"internalType": "address",
					"name": "_testUsdcToken",
					"type": "address"
				},
				{
					"internalType": "address",
					"name": "",
					"type": "address"
				}
			],
			"name": "testSetupTokens",
			"outputs": [],
			"stateMutability": "nonpayable",
			"type": "function"
		},
		{
			"inputs": [],
			"name": "totalSupply",
			"outputs": [
				{
					"internalType": "uint256",
					"name": "",
					"type": "uint256"
				}
			],
			"stateMutability": "view",
			"type": "function"
		},
		{
			"inputs": [
				{
					"internalType": "uint256",
					"name": "_id",
					"type": "uint256"
				}
			],
			"name": "totalSupply",
			"outputs": [
				{
					"internalType": "uint256",
					"name": "",
					"type": "uint256"
				}
			],
			"stateMutability": "view",
			"type": "function"
		},
		{
			"inputs": [
				{
					"internalType": "address",
					"name": "_newOwner",
					"type": "address"
				}
			],
			"name": "transferOwnership",
			"outputs": [],
			"stateMutability": "nonpayable",
			"type": "function"
		},
		{
			"inputs": [
				{
					"internalType": "uint256",
					"name": "_id",
					"type": "uint256"
				}
			],
			"name": "uri",
			"outputs": [
				{
					"internalType": "string",
					"name": "",
					"type": "string"
				}
			],
			"stateMutability": "view",
			"type": "function"
		},
		{
			"stateMutability": "payable",
			"type": "receive"
		}
	]
}