{
	"data": {
		"bytecode": {
			"linkReferences": {},
			"object": "600380546001600160a01b031990811673e7126c0fb4b1f5f79e5bbec3948139dcf348b49c17909155600480548216730fc5025c764ce34df352757e82f7b5c4df39a836179055600580548216737412f2cd820d1e63bd130b0ffebe44c4e5a47d71179055600680549091167314769f96e57b80c66837701de0b43686fb4632de17905560c0604052600d60808190526c4365726279205377617020563160981b60a0908152620000b491601191906200049a565b5060408051808201909152600d8082526c43455242595f535741505f563160981b6020909201918252620000eb916012916200049a565b506040518060600160405280602381526020016200642a6023913980516200011c916013916020909101906200049a565b503480156200012a57600080fd5b5060136040516020016200013f919062000635565b60408051601f198184030181529190526200015a816200042f565b50620001663362000448565b73def78a28c78a461598d948bc0c689ce88f812ad8600060646200018c816014620006f3565b62000198919062000721565b90506351a67366600160c882600083620001b38484620006f3565b620001bf919062000721565b6040805160c0810182526001600160a01b038a16808252602082018a9052918101879052606081018690526080810185905260a001829052600780546001600160a01b031916909117905560088790556009859055600a849055600b839055600c81905590506200022f62000529565b6040805160a08101825282815260006020820181905291810182905260608101829052608081018290528154600181018355918052805190916004027f290decd9548b62a8d60345a988386fc84ba6bc95484008f6362f93160ef3e56301906200029d908290600862000548565b50602082015160408301516001600160801b03918216600160801b918316919091021760018381019190915560608401516002840180546001600160801b03191691909316179091556080909201516003909101554614156200032657600680546001600160a01b03191673c02aaa39b223fe8d0a0e5c4f27ead9083c756cc2179055620003fa565b46603814156200035c57600680546001600160a01b03191673bb4cdb9cbd36b01bd1cbaebf2de08d9173bc095c179055620003fa565b46608914156200039257600680546001600160a01b031916730d500b1d8e8ef31e21c99d1db9a6444d3adf1270179055620003fa565b4661a86a1415620003c957600680546001600160a01b03191673b31f66aa3c1e785363f0875a1b74e27b85fd66c7179055620003fa565b4660fa1415620003fa57600680546001600160a01b0319167321be370d5312f44cb42ce377bc9b8a0cef1a4c831790555b5050600680546001600160a01b0319167314769f96e57b80c66837701de0b43686fb4632de1790555062000744945050505050565b80516200044490600f9060208401906200049a565b5050565b601480546001600160a01b038381166001600160a01b0319831681179093556040519116919082907f8be0079c531659141344cd1fd0a4f28419497f9722a3daafe3b4186f6b6457e090600090a35050565b828054620004a890620005f8565b90600052602060002090601f016020900481019282620004cc576000855562000517565b82601f10620004e757805160ff191683800117855562000517565b8280016001018555821562000517579182015b8281111562000517578251825591602001919060010190620004fa565b5062000525929150620005e1565b5090565b6040518061010001604052806008906020820280368337509192915050565b600183019183908215620005175791602002820160005b83821115620005a557835183826101000a81548163ffffffff021916908363ffffffff16021790555092602001926004016020816003010492830192600103026200055f565b8015620005d75782816101000a81549063ffffffff0219169055600401602081600301049283019260010302620005a5565b5050620005259291505b5b80821115620005255760008155600101620005e2565b600181811c908216806200060d57607f821691505b602082108114156200062f57634e487b7160e01b600052602260045260246000fd5b50919050565b600080835481600182811c9150808316806200065257607f831692505b60208084108214156200067357634e487b7160e01b86526022600452602486fd5b8180156200068a57600181146200069c57620006cb565b60ff19861689528489019650620006cb565b60008a81526020902060005b86811015620006c35781548b820152908501908301620006a8565b505084890196505b505050505050620006eb81683db4b23e973539b7b760b91b815260090190565b949350505050565b60008160001904831182151516156200071c57634e487b7160e01b600052601160045260246000fd5b500290565b6000826200073f57634e487b7160e01b600052601260045260246000fd5b500490565b615cd680620007546000396000f3fe6080604052600436106102545760003560e01c806374fcf07111610139578063b5d11e99116100b6578063d5d607371161007a578063d5d6073714610750578063e985e9c514610763578063eca01093146107ac578063f242432a146107cc578063f2fde38b146107ec578063f65247241461080c57600080fd5b8063b5d11e99146106c6578063bd85b039146106db578063c09c923b14610708578063c790985a14610710578063cab4ba821461073057600080fd5b80639bc731fc116100fd5780639bc731fc1461061e578063a22cb4651461063e578063a60c6e551461065e578063a6d8ad3914610686578063a7fd40bf146106a657600080fd5b806374fcf07114610553578063842980f41461057357806385b4bb53146105865780638da5cb5b146105eb57806395d89b411461060957600080fd5b806334e150ab116101d25780634e1273f4116101965780634e1273f4146104795780634f558e79146104a65780635c41dbe0146104d557806361417516146104e8578063715018a61461051e578063718580491461053357600080fd5b806334e150ab146103d95780633935ac111461040657806343fefad41461042657806348b08d62146104395780634c3c0eb21461045957600080fd5b80630c2e075b116102195780630c2e075b146103505780630e89341c1461037057806318160ddd146103905780632eb2c2d6146103a5578063313ce567146103c557600080fd5b8062fdd58e1461026057806301ffc9a71461029357806303d604bd146102d457806306fb1a07146102f657806306fdde031461032e57600080fd5b3661025b57005b600080fd5b34801561026c57600080fd5b5061028061027b366004614fe3565b61081f565b6040519081526020015b60405180910390f35b34801561029f57600080fd5b506102c46102ae366004615025565b6001600160e01b0319166301ffc9a760e01b1490565b604051901515815260200161028a565b3480156102e057600080fd5b506102f46102ef366004615042565b610870565b005b34801561030257600080fd5b5061031661031136600461505f565b6109c6565b6040516001600160a01b03909116815260200161028a565b34801561033a57600080fd5b50610343610a43565b60405161028a91906150d0565b34801561035c57600080fd5b506102f461036b3660046150e3565b610ad5565b34801561037c57600080fd5b5061034361038b36600461505f565b610bb0565b34801561039c57600080fd5b50610280610bdc565b3480156103b157600080fd5b506102f46103c0366004615238565b610c28565b3480156103d157600080fd5b506012610280565b3480156103e557600080fd5b506103f96103f4366004615330565b610ceb565b60405161028a9190615371565b34801561041257600080fd5b506102f461042136600461541c565b610e94565b61028061043436600461547f565b610ee6565b34801561044557600080fd5b506102806104543660046154c9565b61156b565b34801561046557600080fd5b50610280610474366004615042565b61163d565b34801561048557600080fd5b5061049961049436600461550a565b61165f565b60405161028a91906155fc565b3480156104b257600080fd5b506102c46104c136600461505f565b600090815260106020526040902054151590565b6102f46104e336600461547f565b61173f565b3480156104f457600080fd5b50610280610503366004615042565b6001600160a01b031660009081526001602052604090205490565b34801561052a57600080fd5b506102f4611751565b34801561053f57600080fd5b506102f461054e366004614fe3565b611788565b34801561055f57600080fd5b5061028061056e36600461547f565b61195e565b6102f461058136600461547f565b6119e6565b34801561059257600080fd5b5061059b6119f4565b60405161028a919081516001600160a01b031681526020808301519082015260408083015190820152606080830151908201526080808301519082015260a0918201519181019190915260c00190565b3480156105f757600080fd5b506014546001600160a01b0316610316565b34801561061557600080fd5b50610343611a7c565b34801561062a57600080fd5b506102f4610639366004615042565b611a8b565b34801561064a57600080fd5b506102f461065936600461561d565b611d18565b61067161066c366004615656565b611d8a565b6040805192835260208301919091520161028a565b34801561069257600080fd5b506103f96106a1366004615330565b611fcf565b3480156106b257600080fd5b506102f46106c13660046156bd565b61213d565b3480156106d257600080fd5b506102f46121a7565b3480156106e757600080fd5b506102806106f636600461505f565b60009081526010602052604090205490565b6102f46121f5565b34801561071c57600080fd5b5061028061072b3660046154c9565b612249565b34801561073c57600080fd5b506102f461074b366004614fe3565b612309565b6102f461075e36600461547f565b612456565b34801561076f57600080fd5b506102c461077e3660046156f9565b6001600160a01b039182166000908152600e6020908152604080832093909416825291909152205460ff1690565b3480156107b857600080fd5b506102f46107c7366004615727565b612490565b3480156107d857600080fd5b506102f46107e7366004615798565b6124dc565b3480156107f857600080fd5b506102f4610807366004615042565b612597565b61067161081a366004615656565b6125f5565b60006001600160a01b03831661084857604051636e3b454760e11b815260040160405180910390fd5b506000908152600d602090815260408083206001600160a01b03949094168352929052205490565b6001600160a01b038116600090815260016020526040902054819015806108a457506004546001600160a01b038281169116145b156108ca5760405162461bcd60e51b81526004016108c190615800565b60405180910390fd5b6001600160a01b038216600090815260016020526040812054906108ed84612891565b600454909150600090610908906001600160a01b0316612891565b9050600080848154811061091e5761091e61581b565b6000918252602090912060016004909202010154610945906001600160801b031684615847565b9050801561095a5761095a863383600061291e565b600080858154811061096e5761096e61581b565b600091825260209091206004909102016001015461099c90600160801b90046001600160801b031684615847565b905080156109bd576004546109bd906001600160a01b03163383600061291e565b50505050505050565b6040516306fb1a0760e01b81526004810182905260009073def1fac7bf08f173d286bbbdcbeeade695129840906306fb1a0790602401602060405180830381865afa158015610a19573d6000803e3d6000fd5b505050506040513d601f19601f82011682018060405250810190610a3d919061585e565b92915050565b606060118054610a529061587b565b80601f0160208091040260200160405190810160405280929190818152602001828054610a7e9061587b565b8015610acb5780601f10610aa057610100808354040283529160200191610acb565b820191906000526020600020905b815481529060010190602001808311610aae57829003601f168201915b5050505050905090565b6014546001600160a01b03163314610b005760405163ebf9845960e01b815260040160405180910390fd5b60408101351580610b18575080606001358160400135115b80610b2857506101f48160600135115b15610b4657604051637420258d60e11b815260040160405180910390fd5b8060a0013581608001351115610b6f576040516375e1700b60e11b815260040160405180910390fd5b6064610b80602083013560026158b0565b10610b9e57604051631457c3c360e11b815260040160405180910390fd5b806007610bab82826158cf565b505050565b6060601382604051602001610bc692919061592c565b6040516020818303038152906040529050919050565b60008060005b6000601081610bf0856159e3565b9450848152602001908152602001600020541115610a3d57600082815260106020526040902054610c2190826159fe565b9050610be2565b6000610c3460036109c6565b9050806001600160a01b031663eef84ba16040518163ffffffff1660e01b8152600401600060405180830381600087803b158015610c7157600080fd5b505af1158015610c85573d6000803e3d6000fd5b50505050610c903390565b6001600160a01b0316866001600160a01b031614158015610cb85750610cb6863361077e565b155b15610cd657604051630de6955560e31b815260040160405180910390fd5b610ce3868686868661295e565b505050505050565b60606000826001600160401b03811115610d0757610d076150f5565b604051908082528060200260200182016040528015610d4057816020015b610d2d614e4e565b815260200190600190039081610d255790505b50905060005b83811015610e8c57600060016000878785818110610d6657610d6661581b565b9050602002016020810190610d7b9190615042565b6001600160a01b03166001600160a01b031681526020019081526020016000205481548110610dac57610dac61581b565b60009182526020909120604080516101a0810190915291600402018160a081018260088282826020028201916000905b82829054906101000a900463ffffffff1663ffffffff1681526020019060040190602082600301049283019260010382029150808411610ddc5750505092845250505060018201546001600160801b038082166020840152600160801b9091048116604083015260028301541660608201526003909101546080909101528251839083908110610e6e57610e6e61581b565b60200260200101819052508080610e84906159e3565b915050610d46565b509392505050565b6014546001600160a01b03163314610ebf5760405163ebf9845960e01b815260040160405180910390fd5b8151610ed2906011906020850190614e83565b508051610bab906012906020840190614e83565b6001600160a01b03841660009081526001602052604081205485901580610f1a57506004546001600160a01b038281169116145b15610f375760405162461bcd60e51b81526004016108c190615800565b8380421115610f585760405162461bcd60e51b81526004016108c190615a16565b6001600160a01b038716600090815260016020526040902054610f7c883389612b06565b6000610f8789612891565b905060008281548110610f9c57610f9c61581b565b6000918252602090912060016004909202010154610fc3906001600160801b031682615847565b975060018811610fe55760405162461bcd60e51b81526004016108c190615a31565b600454600090610ffd906001600160a01b0316612891565b905060006002548261100f9190615847565b90506000611096600086815481106110295761102961581b565b906000526020600020906004020160010160109054906101000a90046001600160801b03166001600160801b03166000878154811061106a5761106a61581b565b600091825260209091206001600490920201015461109191906001600160801b03166158b0565b612bca565b905060006110e8600087815481106110b0576110b061581b565b600091825260208083206002600490930201919091015489835260109091526040909120546001600160801b03909116908490612c39565b9050801561111957600754604080516020810190915260008152611119916001600160a01b03169088908490612cbe565b5050600080858154811061112f5761112f61581b565b600091825260208083206001600490930201919091015487835260109091526040909120546001600160801b039091169061116a908d6158b0565b6111749190615a62565b905061119189868360405180602001604052806000815250612cbe565b60008086815481106111a5576111a561581b565b6000918252602082206001600490920201015481546001600160801b039091169190889081106111d7576111d761581b565b600091825260209091206004909102016001015461120590600160801b90046001600160801b03168e6158b0565b61120f9190615a62565b90506001811161123157604051621037cb60e91b815260040160405180910390fd5b60048054604051630bb9ff5d60e01b81523092810192909252602482018390526001600160a01b031690630bb9ff5d90604401600060405180830381600087803b15801561127e57600080fd5b505af1158015611292573d6000803e3d6000fd5b5050505080836002546112a591906159fe565b6112af91906159fe565b6002819055508b600087815481106112c9576112c961581b565b60009182526020909120600160049092020101546112f091906001600160801b0316615a76565b600087815481106113035761130361581b565b6000918252602090912060049091020160010180546001600160801b0319166001600160801b039290921691909117905561133e81846159fe565b600087815481106113515761135161581b565b906000526020600020906004020160010160109054906101000a90046001600160801b03166113809190615a76565b600087815481106113935761139361581b565b906000526020600020906004020160010160106101000a8154816001600160801b0302191690836001600160801b0316021790555061141f600087815481106113de576113de61581b565b906000526020600020906004020160010160109054906101000a90046001600160801b03166001600160801b03166000888154811061106a5761106a61581b565b600087815481106114325761143261581b565b906000526020600020906004020160020160006101000a8154816001600160801b0302191690836001600160801b031602179055507f64b83944e79c3ce8d4c297411de637c3e102d064677aac0c163976ebdcd6f50e8d8d838560405161149c9493929190615aa1565b60405180910390a1600080516020615c818339815191528d600088815481106114c7576114c761581b565b6000918252602082206001600490920201015481546001600160801b0390911691908a9081106114f9576114f961581b565b906000526020600020906004020160010160109054906101000a90046001600160801b031660008a815481106115315761153161581b565b9060005260206000209060040201600301546040516115539493929190615ac7565b60405180910390a1509b9a5050505050505050505050565b6004546000906001600160a01b0385811691161480159061159957506004546001600160a01b038481169116145b156115af576115a88483612d97565b9050611636565b6004546001600160a01b0385811691161480156115da57506004546001600160a01b03848116911614155b156115e9576115a88383612e89565b6004546001600160a01b0385811691161480159061161557506004546001600160a01b03858116911614155b156116365760006116268584612d97565b90506116328482612e89565b9150505b9392505050565b6001600160a01b038116600090815260016020526040812054610a3d90612f74565b60608151835114611683576040516380dadc2760e01b815260040160405180910390fd5b600083516001600160401b0381111561169e5761169e6150f5565b6040519080825280602002602001820160405280156116c7578160200160208202803683370190505b50905060005b8451811015610e8c576117128582815181106116eb576116eb61581b565b60200260200101518583815181106117055761170561581b565b602002602001015161081f565b8282815181106117245761172461581b565b6020908102919091010152611738816159e3565b90506116cd565b61174b84848484613198565b50505050565b6014546001600160a01b0316331461177c5760405163ebf9845960e01b815260040160405180910390fd5b6117866000613a36565b565b6001600160a01b0382166000908152600160205260409020546117ad82600019615847565b600082815481106117c0576117c061581b565b90600052602060002090600402016003015411156118045760405162461bcd60e51b81526020600482015260016024820152600b60fb1b60448201526064016108c1565b81600082815481106118185761181861581b565b9060005260206000209060040201600301600082825461183891906159fe565b9091555050600480546040516318a8ad8760e01b81523392810192909252602482018490526001600160a01b0316906318a8ad8790604401600060405180830381600087803b15801561188a57600080fd5b505af115801561189e573d6000803e3d6000fd5b50505050600080516020615c8183398151915283600083815481106118c5576118c561581b565b6000918252602082206001600490920201015481546001600160801b039091169190859081106118f7576118f761581b565b906000526020600020906004020160010160109054906101000a90046001600160801b03166000858154811061192f5761192f61581b565b9060005260206000209060040201600301546040516119519493929190615ac7565b60405180910390a1505050565b6001600160a01b0384166000908152600160205260408120548590158061199257506004546001600160a01b038281169116145b156119af5760405162461bcd60e51b81526004016108c190615800565b83804211156119d05760405162461bcd60e51b81526004016108c190615a16565b6119db878786613a88565b979650505050505050565b61174b848484600085614022565b611a366040518060c0016040528060006001600160a01b0316815260200160008152602001600081526020016000815260200160008152602001600081525090565b506040805160c0810182526007546001600160a01b03168152600854602082015260095491810191909152600a546060820152600b546080820152600c5460a082015290565b606060128054610a529061587b565b6001600160a01b03811660009081526001602052604090205481901580611abf57506004546001600160a01b038281169116145b15611adc5760405162461bcd60e51b81526004016108c190615800565b6001600160a01b038216600090815260016020526040902054611afe83612891565b60008281548110611b1157611b1161581b565b60009182526020822060049182020160010180546001600160801b0319166001600160801b0394909416939093179092559054611b56906001600160a01b0316612891565b90506002548160008481548110611b6f57611b6f61581b565b6000918252602090912060049091020160010154611b9d9190600160801b90046001600160801b03166159fe565b611ba79190615847565b60008381548110611bba57611bba61581b565b906000526020600020906004020160010160106101000a8154816001600160801b0302191690836001600160801b031602179055506002548160008481548110611c0657611c0661581b565b906000526020600020906004020160030154611c2291906159fe565b611c2c9190615847565b60008381548110611c3f57611c3f61581b565b90600052602060002090600402016003018190555080600281905550600080516020615c818339815191528460008481548110611c7e57611c7e61581b565b6000918252602082206001600490920201015481546001600160801b03909116919086908110611cb057611cb061581b565b906000526020600020906004020160010160109054906101000a90046001600160801b031660008681548110611ce857611ce861581b565b906000526020600020906004020160030154604051611d0a9493929190615ac7565b60405180910390a150505050565b6000611d2460036109c6565b9050806001600160a01b031663eef84ba16040518163ffffffff1660e01b8152600401600060405180830381600087803b158015611d6157600080fd5b505af1158015611d75573d6000803e3d6000fd5b50505050610bab611d833390565b84846143bf565b6000808380421115611dae5760405162461bcd60e51b81526004016108c190615a16565b60018711611dce5760405162461bcd60e51b81526004016108c190615a31565b60045433906000906001600160a01b038c8116911614801590611dfe57506004546001600160a01b038b81169116145b15611e6057611e0d8b8a612d97565b905087811015611e435760405162461bcd60e51b81526020600482015260016024820152600960fb1b60448201526064016108c1565b611e4e8b838b612b06565b611e5b8b60008389613198565b611fbe565b6004546001600160a01b038c81169116148015611e8b57506004546001600160a01b038b8116911614155b15611ee857611e9a8a8a612e89565b905087811015611ed05760405162461bcd60e51b81526020600482015260016024820152606960f81b60448201526064016108c1565b611edb8b838b612b06565b611e5b8a82600089613198565b6004546001600160a01b038c8116911614801590611f1457506004546001600160a01b038c8116911614155b15611f92576000611f258c8b612d97565b9050611f318b82612e89565b915088821015611f675760405162461bcd60e51b81526020600482015260016024820152606960f81b60448201526064016108c1565b611f728c848c612b06565b611f7f8c60008330613198565b611f8c8b8360008a613198565b50611fbe565b60405162461bcd60e51b81526020600482015260016024820152601360fa1b60448201526064016108c1565b979a97995096975050505050505050565b60606000826001600160401b03811115611feb57611feb6150f5565b60405190808252806020026020018201604052801561202457816020015b612011614e4e565b8152602001906001900390816120095790505b50905060005b83811015610e8c5760008585838181106120465761204661581b565b905060200201358154811061205d5761205d61581b565b60009182526020909120604080516101a0810190915291600402018160a081018260088282826020028201916000905b82829054906101000a900463ffffffff1663ffffffff168152602001906004019060208260030104928301926001038202915080841161208d5750505092845250505060018201546001600160801b038082166020840152600160801b909104811660408301526002830154166060820152600390910154608090910152825183908390811061211f5761211f61581b565b60200260200101819052508080612135906159e3565b91505061202a565b6014546001600160a01b031633146121685760405163ebf9845960e01b815260040160405180910390fd5b6121908160405160200161217c9190615af7565b60405160208183030381529060405261445f565b80516121a3906013906020840190614e83565b5050565b6003546121d3906001600160a01b031669d3c21bcecceda10000006969e10de76676d080000033612456565b600554611786906001600160a01b031669943b1377290cbd8000008033612456565b6014546001600160a01b031633146122205760405163ebf9845960e01b815260040160405180910390fd5b600654611786906001600160a01b031666038d7ea4c6800069d3c21bcecceda100000033612456565b6004546000906001600160a01b0385811691161480159061227757506004546001600160a01b038481169116145b15612286576115a88483614472565b6004546001600160a01b0385811691161480156122b157506004546001600160a01b03848116911614155b156122c0576115a8838361455b565b6004546001600160a01b038581169116148015906122ec57506004546001600160a01b03848116911614155b156116365760006122fd848461455b565b90506116328582614472565b6014546001600160a01b031633146123345760405163ebf9845960e01b815260040160405180910390fd5b6001600160a01b0382166000908152600160205260409020548290158061236857506004546001600160a01b038281169116145b156123855760405162461bcd60e51b81526004016108c190615800565b6001600160a01b038316600090815260016020526040812054815490918491839081106123b4576123b461581b565b906000526020600020906004020160030181905550600080516020615c8183398151915284600083815481106123ec576123ec61581b565b6000918252602082206001600490920201015481546001600160801b0390911691908590811061241e5761241e61581b565b906000526020600020906004020160010160109054906101000a90046001600160801b031660008581548110611ce857611ce861581b565b6014546001600160a01b031633146124815760405163ebf9845960e01b815260040160405180910390fd5b61174b84848460001985614022565b600380546001600160a01b038087166001600160a01b0319928316179092556004805486841690831617905560058054928516929091169190911790556124d56121a7565b5050505050565b60006124e860036109c6565b9050806001600160a01b031663eef84ba16040518163ffffffff1660e01b8152600401600060405180830381600087803b15801561252557600080fd5b505af1158015612539573d6000803e3d6000fd5b505050506125443390565b6001600160a01b0316866001600160a01b03161415801561256c575061256a863361077e565b155b1561258a57604051630de6955560e31b815260040160405180910390fd5b610ce38686868686614646565b6014546001600160a01b031633146125c25760405163ebf9845960e01b815260040160405180910390fd5b6001600160a01b0381166125e957604051635868b79d60e01b815260040160405180910390fd5b6125f281613a36565b50565b60008083804211156126195760405162461bcd60e51b81526004016108c190615a16565b60045433906000906001600160a01b038c811691161480159061264957506004546001600160a01b038b81169116145b156126cb576126588b8a614472565b90508781111561268e5760405162461bcd60e51b81526020600482015260016024820152604b60f81b60448201526064016108c1565b600181116126ae5760405162461bcd60e51b81526004016108c190615a31565b6126b98b8383612b06565b6126c68b60008b89613198565b612881565b6004546001600160a01b038c811691161480156126f657506004546001600160a01b038b8116911614155b15612787576127058a8a61455b565b90508781111561273b5760405162461bcd60e51b81526020600482015260016024820152602560f91b60448201526064016108c1565b6001811161276f5760405162461bcd60e51b81526020600482015260016024820152605560f81b60448201526064016108c1565b61277a8b8383612b06565b6126c68a8a600089613198565b6004546001600160a01b038c81169116148015906127b357506004546001600160a01b038b8116911614155b15611f925760006127c48b8b61455b565b9050600181116127fa5760405162461bcd60e51b81526020600482015260016024820152605560f81b60448201526064016108c1565b6128048c82614472565b91508882111561283a5760405162461bcd60e51b81526020600482015260016024820152604b60f81b60448201526064016108c1565b6001821161285a5760405162461bcd60e51b81526004016108c190615a31565b6128658c8484612b06565b6128728c60008330613198565b61287f8b8b60008a613198565b505b9a97995096975050505050505050565b6006546000906001600160a01b03838116911614156128b1575047919050565b6040516370a0823160e01b81523060048201526001600160a01b038316906370a0823190602401602060405180830381865afa1580156128f5573d6000803e3d6000fd5b505050506040513d601f19601f82011682018060405250810190610a3d9190615b24565b919050565b6001600160a01b038316301461174b576006546001600160a01b03858116911614156129535761294e8383614760565b61174b565b61174b8484846147ee565b81518351146129805760405163a98a885960e01b815260040160405180910390fd5b6001600160a01b0384166129a7576040516307cc786960e31b815260040160405180910390fd5b336129b68187878787876148d3565b60005b8451811015612aa05760008582815181106129d6576129d661581b565b6020026020010151905060008583815181106129f4576129f461581b565b6020908102919091018101516000848152600d835260408082206001600160a01b038e168352909352919091205490915081811015612a4657604051632d688f6160e11b815260040160405180910390fd5b6000838152600d602090815260408083206001600160a01b038e8116855292528083208585039055908b16825281208054849290612a859084906159fe565b9250508190555050505080612a99906159e3565b90506129b9565b50846001600160a01b0316866001600160a01b0316826001600160a01b03167f4a39dc06d4c0dbc64b70af90fd698a233a518aa5d07e595d983b8c0526c8f7fb8787604051612af0929190615b3d565b60405180910390a4610ce38187878787876149df565b6006546001600160a01b03848116911614612b69573415612b4d5760405162461bcd60e51b81526020600482015260016024820152604760f81b60448201526064016108c1565b6001600160a01b0382163014610bab57610bab83833084614aa3565b6006546001600160a01b0384811691161415610bab5780341015612ba05760405163ac50b70d60e01b815260040160405180910390fd5b80341115610bab57600654610bab906001600160a01b031633612bc38434615847565b600061291e565b60006003821115612c2b5750806000612be4600283615a62565b612bef9060016159fe565b90505b81811015612c2557905080600281612c0a8186615a62565b612c1491906159fe565b612c1e9190615a62565b9050612bf2565b50919050565b811561291957506001919050565b60085460009081908585118015612c505750600086115b8015612c5c5750600081115b15612cb557612c6b81876158b0565b612c76826064615847565b612c8090876158b0565b612c8a91906159fe565b612c948787615847565b612c9e83876158b0565b612ca891906158b0565b612cb29190615a62565b91505b50949350505050565b6001600160a01b038416612ce557604051633e11866b60e21b815260040160405180910390fd5b33612d0581600087612cf688614b90565b612cff88614b90565b876148d3565b6000848152600d602090815260408083206001600160a01b038916845290915281208054859290612d379084906159fe565b909155505060408051858152602081018590526001600160a01b0380881692600092918516917fc3d58168c5ae7397731d063d5bbf3d657854427343f4c083240f7aacaa2d0f62910160405180910390a46124d581600087878787614bdb565b6001600160a01b03821660009081526001602052604081205483901580612dcb57506004546001600160a01b038281169116145b15612de85760405162461bcd60e51b81526004016108c190615800565b6001600160a01b03841660009081526001602052604081205481549091612e809186919084908110612e1c57612e1c61581b565b6000918252602082206001600490920201015481546001600160801b03909116919085908110612e4e57612e4e61581b565b6000918252602090912060049091020160010154600160801b90046001600160801b0316612e7b85612f74565b614c9f565b95945050505050565b6001600160a01b03821660009081526001602052604081205483901580612ebd57506004546001600160a01b038281169116145b15612eda5760405162461bcd60e51b81526004016108c190615800565b6001600160a01b03841660009081526001602052604081205481549091612e809186919084908110612f0e57612f0e61581b565b906000526020600020906004020160010160109054906101000a90046001600160801b03166001600160801b031660008481548110612f4f57612f4f61581b565b60009182526020909120600160049092020101546001600160801b0316612710614c9f565b600080612f7f614cdb565b905060006008612f908360016159fe565b612f9a9190615b62565b90506000805b60088110156130375783811480612fb657508281145b15612fc057613025565b60008681548110612fd357612fd361581b565b90600052602060002090600402016000018160088110612ff557612ff561581b565b600891828204019190066004029054906101000a900463ffffffff1663ffffffff168261302291906159fe565b91505b8061302f816159e3565b915050612fa0565b5061304a678ac7230489e80000826158b0565b905060006402540be4006007600401546000888154811061306d5761306d61581b565b600091825260209091206004909102016001015461309b9190600160801b90046001600160801b03166158b0565b6130a59190615a62565b905060006402540be400600760050154600089815481106130c8576130c861581b565b60009182526020909120600490910201600101546130f69190600160801b90046001600160801b03166158b0565b6131009190615a62565b905060008284116131145750600a54613180565b838310801561312257508184105b15613173576131318383615847565b600954600a546131419190615847565b61314b8587615847565b61315591906158b0565b61315f9190615a62565b600a5461316c9190615847565b9050613180565b8184111561318057506009545b61318c81612710615847565b98975050505050505050565b6001600160a01b038416600090815260016020526040902054849015806131cc57506004546001600160a01b038281169116145b156131e95760405162461bcd60e51b81526004016108c190615800565b6001600160a01b03808616600090815260016020526040812054600254600454919390916132179116612891565b6132219190615847565b905060008083815481106132375761323761581b565b60009182526020909120600160049092020101546001600160801b031661325d89612891565b6132679190615847565b9050600161327583836159fe565b116132a65760405162461bcd60e51b81526020600482015260016024820152601960f91b60448201526064016108c1565b60006001831180156132b9575060018211155b6132cb576132c684612f74565b6132cf565b6127105b9050600019600085815481106132e7576132e761581b565b90600052602060002090600402016003015410801561333457508683600086815481106133165761331661581b565b90600052602060002090600402016003015461333291906159fe565b105b156133655760405162461bcd60e51b81526020600482015260016024820152602d60f91b60448201526064016108c1565b60006127106000868154811061337d5761337d61581b565b6000918252602082206001600490920201015481546001600160801b039091169161271091899081106133b2576133b261581b565b60009182526020909120600490910201600101546133e09190600160801b90046001600160801b03166158b0565b6133ea91906158b0565b6133f491906158b0565b90506000888560025461340791906159fe565b6134119190615847565b9050600089866000898154811061342a5761342a61581b565b60009182526020909120600490910201600101546134589190600160801b90046001600160801b03166159fe565b6134629190615847565b905060008b8660008a8154811061347b5761347b61581b565b60009182526020909120600160049092020101546134a291906001600160801b03166159fe565b6134ac9190615847565b905060006134bc86612710615847565b6134c690886158b0565b6134d2612710846158b0565b6134dc9190615847565b6134e887612710615847565b6134f2908a6158b0565b6134fe612710866158b0565b6135089190615847565b61351291906158b0565b9050848110156135485760405162461bcd60e51b81526020600482015260016024820152603160f81b60448201526064016108c1565b836002819055508260008a815481106135635761356361581b565b906000526020600020906004020160010160106101000a8154816001600160801b0302191690836001600160801b031602179055508160008a815481106135ac576135ac61581b565b906000526020600020906004020160010160006101000a8154816001600160801b0302191690836001600160801b0316021790555060001960008a815481106135f7576135f761581b565b9060005260206000209060040201600301541015613673578b8860008b815481106136245761362461581b565b90600052602060002090600402016003015461364091906159fe565b61364a9190615847565b60008a8154811061365d5761365d61581b565b9060005260206000209060040201600301819055505b50505050506000613682614cdb565b905060006008613690614cdb565b61369b9060016159fe565b6136a59190615b62565b9050678ac7230489e800008911156137a55760006136cb678ac7230489e800008b615a62565b600088815481106136de576136de61581b565b906000526020600020906004020160000184600881106137005761370061581b565b600891828204019190066004029054906101000a900463ffffffff1663ffffffff1661372c91906159fe565b905063ffffffff81106137435763ffffffff613745565b805b600088815481106137585761375861581b565b9060005260206000209060040201600001846008811061377a5761377a61581b565b600891828204019190066004026101000a81548163ffffffff021916908363ffffffff160217905550505b6001600087815481106137ba576137ba61581b565b906000526020600020906004020160000182600881106137dc576137dc61581b565b600891828204019190066004029054906101000a900463ffffffff1663ffffffff161115613865576001600087815481106138195761381961581b565b9060005260206000209060040201600001826008811061383b5761383b61581b565b600891828204019190066004026101000a81548163ffffffff021916908363ffffffff1602179055505b89156138d6576138788b898c600161291e565b60006138838c612891565b9050600087815481106138985761389861581b565b60009182526020909120600160049092020101546001600160801b031681146138d45760405163a8b538d360e01b815260040160405180910390fd5b505b88156138f5576004546138f5906001600160a01b0316898b600161291e565b7f4ab7f3f4678bf8f6cbe4d85e4007b7c64df8e1d5d97de1628f4a6416f9d1db038b3386888e8e6139288a612710615847565b604080516001600160a01b03988916815296881660208801528601949094526060850192909252608084015260a083015260c0820152908a1660e08201526101000160405180910390a1600080516020615c818339815191528b600088815481106139955761399561581b565b6000918252602082206001600490920201015481546001600160801b0390911691908a9081106139c7576139c761581b565b906000526020600020906004020160010160109054906101000a90046001600160801b031660008a815481106139ff576139ff61581b565b906000526020600020906004020160030154604051613a219493929190615ac7565b60405180910390a15050505050505050505050565b601480546001600160a01b038381166001600160a01b0319831681179093556040519116919082907f8be0079c531659141344cd1fd0a4f28419497f9722a3daafe3b4186f6b6457e090600090a35050565b6001600160a01b03831660009081526001602052604081205481613aab86612891565b90506000808381548110613ac157613ac161581b565b6000918252602090912060016004909202010154613ae8906001600160801b031683615847565b600254600454919250600091613b06906001600160a01b0316612891565b613b109190615847565b60008581526010602052604081205481549293509182908a90839089908110613b3b57613b3b61581b565b6000918252602090912060016004909202010154613b6291906001600160801b03166158b0565b613b6c9190615a62565b90506000828a60008981548110613b8557613b8561581b565b6000918252602090912060049091020160010154613bb39190600160801b90046001600160801b03166158b0565b613bbd9190615a62565b90506000613c1860008981548110613bd757613bd761581b565b906000526020600020906004020160010160109054906101000a90046001600160801b03166001600160801b031660008a8154811061106a5761106a61581b565b90506000613c5660008a81548110613c3257613c3261581b565b60009182526020909120600260049092020101546001600160801b03168387612c39565b90508015613c8757600754604080516020810190915260008152613c87916001600160a01b0316908b908490612cbe565b8286600254613c9691906159fe565b613ca09190615847565b600281905550838760008b81548110613cbb57613cbb61581b565b6000918252602090912060016004909202010154613ce291906001600160801b0316615a76565b613cec9190615b76565b60008a81548110613cff57613cff61581b565b906000526020600020906004020160010160006101000a8154816001600160801b0302191690836001600160801b03160217905550828660008b81548110613d4957613d4961581b565b906000526020600020906004020160010160109054906101000a90046001600160801b0316613d789190615a76565b613d829190615b76565b60008a81548110613d9557613d9561581b565b906000526020600020906004020160010160106101000a8154816001600160801b0302191690836001600160801b03160217905550613e2160008a81548110613de057613de061581b565b906000526020600020906004020160010160109054906101000a90046001600160801b03166001600160801b031660008b8154811061106a5761106a61581b565b60008a81548110613e3457613e3461581b565b906000526020600020906004020160020160006101000a8154816001600160801b0302191690836001600160801b03160217905550613e74338a8e614cfa565b600480546040516318a8ad8760e01b81523092810192909252602482018590526001600160a01b0316906318a8ad8790604401600060405180830381600087803b158015613ec157600080fd5b505af1158015613ed5573d6000803e3d6000fd5b505050505050613ee88b8a84600161291e565b6000613ef38c612891565b905086613f0084836159fe565b14613f1e5760405163a8b538d360e01b815260040160405180910390fd5b7f1dc8bb69df2b8e91fbdcbfcf93d951b3f0000f085a95fe3f7946d6161439245d8c84848e604051613f539493929190615aa1565b60405180910390a1600080516020615c818339815191528c60008a81548110613f7e57613f7e61581b565b6000918252602082206001600490920201015481546001600160801b0390911691908c908110613fb057613fb061581b565b906000526020600020906004020160010160109054906101000a90046001600160801b031660008c81548110613fe857613fe861581b565b90600052602060002090600402016003015460405161400a9493929190615ac7565b60405180910390a150909a9950505050505050505050565b6001600160a01b03851660009081526001602052604090205485901561405b5760405163402670df60e01b815260040160405180910390fd5b614066863387612b06565b60048054604051630bb9ff5d60e01b81523092810192909252602482018690526001600160a01b031690630bb9ff5d90604401600060405180830381600087803b1580156140b357600080fd5b505af11580156140c7573d6000803e3d6000fd5b505050506140d486612891565b9450600185116140f65760405162461bcd60e51b81526004016108c190615a31565b600061410561109186886158b0565b905061410f614f07565b60005b600881101561415157600182826008811061412f5761412f61581b565b63ffffffff909216602092909202015280614149816159e3565b915050614112565b506040805160a0810182528281526001600160801b03808a166020830152888116928201929092529083166060820152608081018690526000805460018101825590805281518290600483027f290decd9548b62a8d60345a988386fc84ba6bc95484008f6362f93160ef3e56301906141cd9082906008614f26565b506020828101516040808501516001600160801b03928316600160801b91841691909102176001858101919091556060860151600280870180546001600160801b03191692909516919091179093556080909501516003909401939093556001600160a01b038e1660009081529390915290822083905580548a92906142549084906159fe565b9250508190555061427a61dead826103e860405180602001604052806000815250612cbe565b60006103e861428c6110918b8d6158b0565b6142969190615847565b90506142b387838360405180602001604052806000815250612cbe565b604080516001600160a01b038d168152602081018490527f17aa8d0e85db1d0531a8181b5bb84e1d4ed744db1cadd8814acd3d181ff30137910160405180910390a17f64b83944e79c3ce8d4c297411de637c3e102d064677aac0c163976ebdcd6f50e8b8b8b8460405161432a9493929190615aa1565b60405180910390a1600080516020615c818339815191528b600084815481106143555761435561581b565b6000918252602082206001600490920201015481546001600160801b039091169190869081106143875761438761581b565b906000526020600020906004020160010160109054906101000a90046001600160801b0316600086815481106139ff576139ff61581b565b816001600160a01b0316836001600160a01b031614156143f25760405163180a65b960e31b815260040160405180910390fd5b6001600160a01b038381166000818152600e6020908152604080832094871680845294825291829020805460ff191686151590811790915591519182527f17307eab39ab6107e8899845ad3d59bd9653f200f220920489ca2b5937696c31910160405180910390a3505050565b80516121a390600f906020840190614e83565b6001600160a01b038216600090815260016020526040812054839015806144a657506004546001600160a01b038281169116145b156144c35760405162461bcd60e51b81526004016108c190615800565b6001600160a01b03841660009081526001602052604081205481549091612e8091869190849081106144f7576144f761581b565b6000918252602082206001600490920201015481546001600160801b039091169190859081106145295761452961581b565b6000918252602090912060049091020160010154600160801b90046001600160801b031661455685612f74565b614e01565b6001600160a01b0382166000908152600160205260408120548390158061458f57506004546001600160a01b038281169116145b156145ac5760405162461bcd60e51b81526004016108c190615800565b6001600160a01b03841660009081526001602052604081205481549091612e8091869190849081106145e0576145e061581b565b906000526020600020906004020160010160109054906101000a90046001600160801b03166001600160801b0316600084815481106146215761462161581b565b60009182526020909120600160049092020101546001600160801b0316612710614e01565b6001600160a01b03841661466d576040516307cc786960e31b815260040160405180910390fd5b3361467d818787612cf688614b90565b6000848152600d602090815260408083206001600160a01b038a168452909152902054838110156146c157604051632d688f6160e11b815260040160405180910390fd5b6000858152600d602090815260408083206001600160a01b038b81168552925280832087850390559088168252812080548692906147009084906159fe565b909155505060408051868152602081018690526001600160a01b03808916928a821692918616917fc3d58168c5ae7397731d063d5bbf3d657854427343f4c083240f7aacaa2d0f62910160405180910390a46109bd828888888888614bdb565b604080516000808252602082019092526001600160a01b03841690839060405161478a9190615b9e565b60006040518083038185875af1925050503d80600081146147c7576040519150601f19603f3d011682016040523d82523d6000602084013e6147cc565b606091505b5050905080610bab576040516330667aab60e01b815260040160405180910390fd5b604080516001600160a01b038481166024830152604480830185905283518084039091018152606490920183526020820180516001600160e01b031663a9059cbb60e01b179052915160009283929087169161484a9190615b9e565b6000604051808303816000865af19150503d8060008114614887576040519150601f19603f3d011682016040523d82523d6000602084013e61488c565b606091505b50915091508180156148b65750805115806148b65750808060200190518101906148b69190615bba565b6124d557604051637805da5360e01b815260040160405180910390fd5b6001600160a01b03851661495a5760005b8351811015614958578281815181106148ff576148ff61581b565b60200260200101516010600086848151811061491d5761491d61581b565b60200260200101518152602001908152602001600020600082825461494291906159fe565b909155506149519050816159e3565b90506148e4565b505b6001600160a01b038416610ce35760005b83518110156109bd578281815181106149865761498661581b565b6020026020010151601060008684815181106149a4576149a461581b565b6020026020010151815260200190815260200160002060008282546149c99190615847565b909155506149d89050816159e3565b905061496b565b833b15610ce35760405163bc197c8160e01b81526001600160a01b0385169063bc197c8190614a1a9089908990889088908890600401615bd7565b6020604051808303816000875af1925050508015614a55575060408051601f3d908101601f19168201909252614a5291810190615c29565b60015b614a72576040516322ea035960e11b815260040160405180910390fd5b6001600160e01b0319811663bc197c8160e01b146109bd576040516315d5293760e11b815260040160405180910390fd5b604080516001600160a01b0385811660248301528481166044830152606480830185905283518084039091018152608490920183526020820180516001600160e01b03166323b872dd60e01b1790529151600092839290881691614b079190615b9e565b6000604051808303816000865af19150503d8060008114614b44576040519150601f19603f3d011682016040523d82523d6000602084013e614b49565b606091505b5091509150818015614b73575080511580614b73575080806020019051810190614b739190615bba565b610ce357604051636050fe2960e01b815260040160405180910390fd5b60408051600180825281830190925260609160009190602080830190803683370190505090508281600081518110614bca57614bca61581b565b602090810291909101015292915050565b833b15610ce35760405163f23a6e6160e01b81526001600160a01b0385169063f23a6e6190614c169089908990889088908890600401615c46565b6020604051808303816000875af1925050508015614c51575060408051601f3d908101601f19168201909252614c4e91810190615c29565b60015b614c6e576040516322ea035960e11b815260040160405180910390fd5b6001600160e01b0319811663f23a6e6160e01b146109bd576040516315d5293760e11b815260040160405180910390fd5b600080614cac83876158b0565b9050600081614cbd612710886158b0565b614cc791906159fe565b614cd183876158b0565b6119db9190615a62565b60006008614ceb61384042615a62565b614cf59190615b62565b905090565b6001600160a01b038316614d215760405163edba591d60e01b815260040160405180910390fd5b33614d5081856000614d3287614b90565b614d3b87614b90565b604051806020016040528060008152506148d3565b6000838152600d602090815260408083206001600160a01b038816845290915290205482811015614d9457604051631cfb29e160e21b815260040160405180910390fd5b6000848152600d602090815260408083206001600160a01b03898116808652918452828520888703905582518981529384018890529092908616917fc3d58168c5ae7397731d063d5bbf3d657854427343f4c083240f7aacaa2d0f62910160405180910390a45050505050565b600080614e0e8685615847565b614e1890846158b0565b612710614e2588886158b0565b614e2f91906158b0565b614e399190615a62565b614e449060016159fe565b9695505050505050565b6040518060a00160405280614e61614f07565b8152600060208201819052604082018190526060820181905260809091015290565b828054614e8f9061587b565b90600052602060002090601f016020900481019282614eb15760008555614ef7565b82601f10614eca57805160ff1916838001178555614ef7565b82800160010185558215614ef7579182015b82811115614ef7578251825591602001919060010190614edc565b50614f03929150614fb9565b5090565b6040518061010001604052806008906020820280368337509192915050565b600183019183908215614ef75791602002820160005b83821115614f8057835183826101000a81548163ffffffff021916908363ffffffff1602179055509260200192600401602081600301049283019260010302614f3c565b8015614fb05782816101000a81549063ffffffff0219169055600401602081600301049283019260010302614f80565b5050614f039291505b5b80821115614f035760008155600101614fba565b6001600160a01b03811681146125f257600080fd5b60008060408385031215614ff657600080fd5b823561500181614fce565b946020939093013593505050565b6001600160e01b0319811681146125f257600080fd5b60006020828403121561503757600080fd5b81356116368161500f565b60006020828403121561505457600080fd5b813561163681614fce565b60006020828403121561507157600080fd5b5035919050565b60005b8381101561509357818101518382015260200161507b565b8381111561174b5750506000910152565b600081518084526150bc816020860160208601615078565b601f01601f19169290920160200192915050565b60208152600061163660208301846150a4565b600060c08284031215612c2557600080fd5b634e487b7160e01b600052604160045260246000fd5b604051601f8201601f191681016001600160401b0381118282101715615133576151336150f5565b604052919050565b60006001600160401b03821115615154576151546150f5565b5060051b60200190565b600082601f83011261516f57600080fd5b8135602061518461517f8361513b565b61510b565b82815260059290921b840181019181810190868411156151a357600080fd5b8286015b848110156151be57803583529183019183016151a7565b509695505050505050565b600082601f8301126151da57600080fd5b81356001600160401b038111156151f3576151f36150f5565b615206601f8201601f191660200161510b565b81815284602083860101111561521b57600080fd5b816020850160208301376000918101602001919091529392505050565b600080600080600060a0868803121561525057600080fd5b853561525b81614fce565b9450602086013561526b81614fce565b935060408601356001600160401b038082111561528757600080fd5b61529389838a0161515e565b945060608801359150808211156152a957600080fd5b6152b589838a0161515e565b935060808801359150808211156152cb57600080fd5b506152d8888289016151c9565b9150509295509295909350565b60008083601f8401126152f757600080fd5b5081356001600160401b0381111561530e57600080fd5b6020830191508360208260051b850101111561532957600080fd5b9250929050565b6000806020838503121561534357600080fd5b82356001600160401b0381111561535957600080fd5b615365858286016152e5565b90969095509350505050565b60208082528251828201819052600091906040908185019086840185805b8381101561540e578251805186845b60088110156153c157825163ffffffff168252918a0191908a019060010161539e565b505050878101516001600160801b0390811661010088015287820151811661012088015260608201511661014087015260800151610160860152610180909401939186019160010161538f565b509298975050505050505050565b6000806040838503121561542f57600080fd5b82356001600160401b038082111561544657600080fd5b615452868387016151c9565b9350602085013591508082111561546857600080fd5b50615475858286016151c9565b9150509250929050565b6000806000806080858703121561549557600080fd5b84356154a081614fce565b9350602085013592506040850135915060608501356154be81614fce565b939692955090935050565b6000806000606084860312156154de57600080fd5b83356154e981614fce565b925060208401356154f981614fce565b929592945050506040919091013590565b6000806040838503121561551d57600080fd5b82356001600160401b038082111561553457600080fd5b818501915085601f83011261554857600080fd5b8135602061555861517f8361513b565b82815260059290921b8401810191818101908984111561557757600080fd5b948201945b8386101561559e57853561558f81614fce565b8252948201949082019061557c565b965050860135925050808211156155b457600080fd5b506154758582860161515e565b600081518084526020808501945080840160005b838110156155f1578151875295820195908201906001016155d5565b509495945050505050565b60208152600061163660208301846155c1565b80151581146125f257600080fd5b6000806040838503121561563057600080fd5b823561563b81614fce565b9150602083013561564b8161560f565b809150509250929050565b60008060008060008060c0878903121561566f57600080fd5b863561567a81614fce565b9550602087013561568a81614fce565b945060408701359350606087013592506080870135915060a08701356156af81614fce565b809150509295509295509295565b6000602082840312156156cf57600080fd5b81356001600160401b038111156156e557600080fd5b6156f1848285016151c9565b949350505050565b6000806040838503121561570c57600080fd5b823561571781614fce565b9150602083013561564b81614fce565b600080600080600060a0868803121561573f57600080fd5b853561574a81614fce565b9450602086013561575a81614fce565b9350604086013561576a81614fce565b9250606086013561577a81614fce565b9150608086013561578a81614fce565b809150509295509295909350565b600080600080600060a086880312156157b057600080fd5b85356157bb81614fce565b945060208601356157cb81614fce565b9350604086013592506060860135915060808601356001600160401b038111156157f457600080fd5b6152d8888289016151c9565b6020808252600190820152604360f81b604082015260600190565b634e487b7160e01b600052603260045260246000fd5b634e487b7160e01b600052601160045260246000fd5b60008282101561585957615859615831565b500390565b60006020828403121561587057600080fd5b815161163681614fce565b600181811c9082168061588f57607f821691505b60208210811415612c2557634e487b7160e01b600052602260045260246000fd5b60008160001904831182151516156158ca576158ca615831565b500290565b81356158da81614fce565b81546001600160a01b0319166001600160a01b03919091161781556020820135600182015560408201356002820155606082013560038201556080820135600482015560a09190910135600590910155565b600080845481600182811c91508083168061594857607f831692505b602080841082141561596857634e487b7160e01b86526022600452602486fd5b81801561597c576001811461598d576159ba565b60ff198616895284890196506159ba565b60008b81526020902060005b868110156159b25781548b820152908501908301615999565b505084890196505b508886526159d581870164173539b7b760d91b815260050190565b9a9950505050505050505050565b60006000198214156159f7576159f7615831565b5060010190565b60008219821115615a1157615a11615831565b500190565b6020808252600190820152601160fa1b604082015260600190565b6020808252600190820152602360f91b604082015260600190565b634e487b7160e01b600052601260045260246000fd5b600082615a7157615a71615a4c565b500490565b60006001600160801b03808316818516808303821115615a9857615a98615831565b01949350505050565b6001600160a01b0394909416845260208401929092526040830152606082015260800190565b6001600160a01b039490941684526001600160801b03928316602085015291166040830152606082015260800190565b60008251615b09818460208701615078565b683db4b23e973539b7b760b91b920191825250600901919050565b600060208284031215615b3657600080fd5b5051919050565b604081526000615b5060408301856155c1565b828103602084015261163281856155c1565b600082615b7157615b71615a4c565b500690565b60006001600160801b0383811690831681811015615b9657615b96615831565b039392505050565b60008251615bb0818460208701615078565b9190910192915050565b600060208284031215615bcc57600080fd5b81516116368161560f565b6001600160a01b0386811682528516602082015260a060408201819052600090615c03908301866155c1565b8281036060840152615c1581866155c1565b9050828103608084015261318c81856150a4565b600060208284031215615c3b57600080fd5b81516116368161500f565b6001600160a01b03868116825285166020820152604081018490526060810183905260a0608082018190526000906119db908301846150a456fe51ab1232a73b82b6b0acb0fa91b834cf6e258a1858c4e23c72ce97241c71aa0da2646970667358221220347cf687ec5f8840f5459151e6d69dd38d8aeaec3b83d8230abca3acc4e0fc3864736f6c634300080b003368747470733a2f2f646174612e63657262792e66692f4365726279537761702f76312f",
			"opcodes": "PUSH1 0x3 DUP1 SLOAD PUSH1 0x1 PUSH1 0x1 PUSH1 0xA0 SHL SUB NOT SWAP1 DUP2 AND PUSH20 0xE7126C0FB4B1F5F79E5BBEC3948139DCF348B49C OR SWAP1 SWAP2 SSTORE PUSH1 0x4 DUP1 SLOAD DUP3 AND PUSH20 0xFC5025C764CE34DF352757E82F7B5C4DF39A836 OR SWAP1 SSTORE PUSH1 0x5 DUP1 SLOAD DUP3 AND PUSH20 0x7412F2CD820D1E63BD130B0FFEBE44C4E5A47D71 OR SWAP1 SSTORE PUSH1 0x6 DUP1 SLOAD SWAP1 SWAP2 AND PUSH20 0x14769F96E57B80C66837701DE0B43686FB4632DE OR SWAP1 SSTORE PUSH1 0xC0 PUSH1 0x40 MSTORE PUSH1 0xD PUSH1 0x80 DUP2 SWAP1 MSTORE PUSH13 0x43657262792053776170205631 PUSH1 0x98 SHL PUSH1 0xA0 SWAP1 DUP2 MSTORE PUSH3 0xB4 SWAP2 PUSH1 0x11 SWAP2 SWAP1 PUSH3 0x49A JUMP JUMPDEST POP PUSH1 0x40 DUP1 MLOAD DUP1 DUP3 ADD SWAP1 SWAP2 MSTORE PUSH1 0xD DUP1 DUP3 MSTORE PUSH13 0x43455242595F535741505F5631 PUSH1 0x98 SHL PUSH1 0x20 SWAP1 SWAP3 ADD SWAP2 DUP3 MSTORE PUSH3 0xEB SWAP2 PUSH1 0x12 SWAP2 PUSH3 0x49A JUMP JUMPDEST POP PUSH1 0x40 MLOAD DUP1 PUSH1 0x60 ADD PUSH1 0x40 MSTORE DUP1 PUSH1 0x23 DUP2 MSTORE PUSH1 0x20 ADD PUSH3 0x642A PUSH1 0x23 SWAP2 CODECOPY DUP1 MLOAD PUSH3 0x11C SWAP2 PUSH1 0x13 SWAP2 PUSH1 0x20 SWAP1 SWAP2 ADD SWAP1 PUSH3 0x49A JUMP JUMPDEST POP CALLVALUE DUP1 ISZERO PUSH3 0x12A JUMPI PUSH1 0x0 DUP1 REVERT JUMPDEST POP PUSH1 0x13 PUSH1 0x40 MLOAD PUSH1 0x20 ADD PUSH3 0x13F SWAP2 SWAP1 PUSH3 0x635 JUMP JUMPDEST PUSH1 0x40 DUP1 MLOAD PUSH1 0x1F NOT DUP2 DUP5 SUB ADD DUP2 MSTORE SWAP2 SWAP1 MSTORE PUSH3 0x15A DUP2 PUSH3 0x42F JUMP JUMPDEST POP PUSH3 0x166 CALLER PUSH3 0x448 JUMP JUMPDEST PUSH20 0xDEF78A28C78A461598D948BC0C689CE88F812AD8 PUSH1 0x0 PUSH1 0x64 PUSH3 0x18C DUP2 PUSH1 0x14 PUSH3 0x6F3 JUMP JUMPDEST PUSH3 0x198 SWAP2 SWAP1 PUSH3 0x721 JUMP JUMPDEST SWAP1 POP PUSH4 0x51A67366 PUSH1 0x1 PUSH1 0xC8 DUP3 PUSH1 0x0 DUP4 PUSH3 0x1B3 DUP5 DUP5 PUSH3 0x6F3 JUMP JUMPDEST PUSH3 0x1BF SWAP2 SWAP1 PUSH3 0x721 JUMP JUMPDEST PUSH1 0x40 DUP1 MLOAD PUSH1 0xC0 DUP2 ADD DUP3 MSTORE PUSH1 0x1 PUSH1 0x1 PUSH1 0xA0 SHL SUB DUP11 AND DUP1 DUP3 MSTORE PUSH1 0x20 DUP3 ADD DUP11 SWAP1 MSTORE SWAP2 DUP2 ADD DUP8 SWAP1 MSTORE PUSH1 0x60 DUP2 ADD DUP7 SWAP1 MSTORE PUSH1 0x80 DUP2 ADD DUP6 SWAP1 MSTORE PUSH1 0xA0 ADD DUP3 SWAP1 MSTORE PUSH1 0x7 DUP1 SLOAD PUSH1 0x1 PUSH1 0x1 PUSH1 0xA0 SHL SUB NOT AND SWAP1 SWAP2 OR SWAP1 SSTORE PUSH1 0x8 DUP8 SWAP1 SSTORE PUSH1 0x9 DUP6 SWAP1 SSTORE PUSH1 0xA DUP5 SWAP1 SSTORE PUSH1 0xB DUP4 SWAP1 SSTORE PUSH1 0xC DUP2 SWAP1 SSTORE SWAP1 POP PUSH3 0x22F PUSH3 0x529 JUMP JUMPDEST PUSH1 0x40 DUP1 MLOAD PUSH1 0xA0 DUP2 ADD DUP3 MSTORE DUP3 DUP2 MSTORE PUSH1 0x0 PUSH1 0x20 DUP3 ADD DUP2 SWAP1 MSTORE SWAP2 DUP2 ADD DUP3 SWAP1 MSTORE PUSH1 0x60 DUP2 ADD DUP3 SWAP1 MSTORE PUSH1 0x80 DUP2 ADD DUP3 SWAP1 MSTORE DUP2 SLOAD PUSH1 0x1 DUP2 ADD DUP4 SSTORE SWAP2 DUP1 MSTORE DUP1 MLOAD SWAP1 SWAP2 PUSH1 0x4 MUL PUSH32 0x290DECD9548B62A8D60345A988386FC84BA6BC95484008F6362F93160EF3E563 ADD SWAP1 PUSH3 0x29D SWAP1 DUP3 SWAP1 PUSH1 0x8 PUSH3 0x548 JUMP JUMPDEST POP PUSH1 0x20 DUP3 ADD MLOAD PUSH1 0x40 DUP4 ADD MLOAD PUSH1 0x1 PUSH1 0x1 PUSH1 0x80 SHL SUB SWAP2 DUP3 AND PUSH1 0x1 PUSH1 0x80 SHL SWAP2 DUP4 AND SWAP2 SWAP1 SWAP2 MUL OR PUSH1 0x1 DUP4 DUP2 ADD SWAP2 SWAP1 SWAP2 SSTORE PUSH1 0x60 DUP5 ADD MLOAD PUSH1 0x2 DUP5 ADD DUP1 SLOAD PUSH1 0x1 PUSH1 0x1 PUSH1 0x80 SHL SUB NOT AND SWAP2 SWAP1 SWAP4 AND OR SWAP1 SWAP2 SSTORE PUSH1 0x80 SWAP1 SWAP3 ADD MLOAD PUSH1 0x3 SWAP1 SWAP2 ADD SSTORE CHAINID EQ ISZERO PUSH3 0x326 JUMPI PUSH1 0x6 DUP1 SLOAD PUSH1 0x1 PUSH1 0x1 PUSH1 0xA0 SHL SUB NOT AND PUSH20 0xC02AAA39B223FE8D0A0E5C4F27EAD9083C756CC2 OR SWAP1 SSTORE PUSH3 0x3FA JUMP JUMPDEST CHAINID PUSH1 0x38 EQ ISZERO PUSH3 0x35C JUMPI PUSH1 0x6 DUP1 SLOAD PUSH1 0x1 PUSH1 0x1 PUSH1 0xA0 SHL SUB NOT AND PUSH20 0xBB4CDB9CBD36B01BD1CBAEBF2DE08D9173BC095C OR SWAP1 SSTORE PUSH3 0x3FA JUMP JUMPDEST CHAINID PUSH1 0x89 EQ ISZERO PUSH3 0x392 JUMPI PUSH1 0x6 DUP1 SLOAD PUSH1 0x1 PUSH1 0x1 PUSH1 0xA0 SHL SUB NOT AND PUSH20 0xD500B1D8E8EF31E21C99D1DB9A6444D3ADF1270 OR SWAP1 SSTORE PUSH3 0x3FA JUMP JUMPDEST CHAINID PUSH2 0xA86A EQ ISZERO PUSH3 0x3C9 JUMPI PUSH1 0x6 DUP1 SLOAD PUSH1 0x1 PUSH1 0x1 PUSH1 0xA0 SHL SUB NOT AND PUSH20 0xB31F66AA3C1E785363F0875A1B74E27B85FD66C7 OR SWAP1 SSTORE PUSH3 0x3FA JUMP JUMPDEST CHAINID PUSH1 0xFA EQ ISZERO PUSH3 0x3FA JUMPI PUSH1 0x6 DUP1 SLOAD PUSH1 0x1 PUSH1 0x1 PUSH1 0xA0 SHL SUB NOT AND PUSH20 0x21BE370D5312F44CB42CE377BC9B8A0CEF1A4C83 OR SWAP1 SSTORE JUMPDEST POP POP PUSH1 0x6 DUP1 SLOAD PUSH1 0x1 PUSH1 0x1 PUSH1 0xA0 SHL SUB NOT AND PUSH20 0x14769F96E57B80C66837701DE0B43686FB4632DE OR SWAP1 SSTORE POP PUSH3 0x744 SWAP5 POP POP POP POP POP JUMP JUMPDEST DUP1 MLOAD PUSH3 0x444 SWAP1 PUSH1 0xF SWAP1 PUSH1 0x20 DUP5 ADD SWAP1 PUSH3 0x49A JUMP JUMPDEST POP POP JUMP JUMPDEST PUSH1 0x14 DUP1 SLOAD PUSH1 0x1 PUSH1 0x1 PUSH1 0xA0 SHL SUB DUP4 DUP2 AND PUSH1 0x1 PUSH1 0x1 PUSH1 0xA0 SHL SUB NOT DUP4 AND DUP2 OR SWAP1 SWAP4 SSTORE PUSH1 0x40 MLOAD SWAP2 AND SWAP2 SWAP1 DUP3 SWAP1 PUSH32 0x8BE0079C531659141344CD1FD0A4F28419497F9722A3DAAFE3B4186F6B6457E0 SWAP1 PUSH1 0x0 SWAP1 LOG3 POP POP JUMP JUMPDEST DUP3 DUP1 SLOAD PUSH3 0x4A8 SWAP1 PUSH3 0x5F8 JUMP JUMPDEST SWAP1 PUSH1 0x0 MSTORE PUSH1 0x20 PUSH1 0x0 KECCAK256 SWAP1 PUSH1 0x1F ADD PUSH1 0x20 SWAP1 DIV DUP2 ADD SWAP3 DUP3 PUSH3 0x4CC JUMPI PUSH1 0x0 DUP6 SSTORE PUSH3 0x517 JUMP JUMPDEST DUP3 PUSH1 0x1F LT PUSH3 0x4E7 JUMPI DUP1 MLOAD PUSH1 0xFF NOT AND DUP4 DUP1 ADD OR DUP6 SSTORE PUSH3 0x517 JUMP JUMPDEST DUP3 DUP1 ADD PUSH1 0x1 ADD DUP6 SSTORE DUP3 ISZERO PUSH3 0x517 JUMPI SWAP2 DUP3 ADD JUMPDEST DUP3 DUP2 GT ISZERO PUSH3 0x517 JUMPI DUP3 MLOAD DUP3 SSTORE SWAP2 PUSH1 0x20 ADD SWAP2 SWAP1 PUSH1 0x1 ADD SWAP1 PUSH3 0x4FA JUMP JUMPDEST POP PUSH3 0x525 SWAP3 SWAP2 POP PUSH3 0x5E1 JUMP JUMPDEST POP SWAP1 JUMP JUMPDEST PUSH1 0x40 MLOAD DUP1 PUSH2 0x100 ADD PUSH1 0x40 MSTORE DUP1 PUSH1 0x8 SWAP1 PUSH1 0x20 DUP3 MUL DUP1 CALLDATASIZE DUP4 CALLDATACOPY POP SWAP2 SWAP3 SWAP2 POP POP JUMP JUMPDEST PUSH1 0x1 DUP4 ADD SWAP2 DUP4 SWAP1 DUP3 ISZERO PUSH3 0x517 JUMPI SWAP2 PUSH1 0x20 MUL DUP3 ADD PUSH1 0x0 JUMPDEST DUP4 DUP3 GT ISZERO PUSH3 0x5A5 JUMPI DUP4 MLOAD DUP4 DUP3 PUSH2 0x100 EXP DUP2 SLOAD DUP2 PUSH4 0xFFFFFFFF MUL NOT AND SWAP1 DUP4 PUSH4 0xFFFFFFFF AND MUL OR SWAP1 SSTORE POP SWAP3 PUSH1 0x20 ADD SWAP3 PUSH1 0x4 ADD PUSH1 0x20 DUP2 PUSH1 0x3 ADD DIV SWAP3 DUP4 ADD SWAP3 PUSH1 0x1 SUB MUL PUSH3 0x55F JUMP JUMPDEST DUP1 ISZERO PUSH3 0x5D7 JUMPI DUP3 DUP2 PUSH2 0x100 EXP DUP2 SLOAD SWAP1 PUSH4 0xFFFFFFFF MUL NOT AND SWAP1 SSTORE PUSH1 0x4 ADD PUSH1 0x20 DUP2 PUSH1 0x3 ADD DIV SWAP3 DUP4 ADD SWAP3 PUSH1 0x1 SUB MUL PUSH3 0x5A5 JUMP JUMPDEST POP POP PUSH3 0x525 SWAP3 SWAP2 POP JUMPDEST JUMPDEST DUP1 DUP3 GT ISZERO PUSH3 0x525 JUMPI PUSH1 0x0 DUP2 SSTORE PUSH1 0x1 ADD PUSH3 0x5E2 JUMP JUMPDEST PUSH1 0x1 DUP2 DUP2 SHR SWAP1 DUP3 AND DUP1 PUSH3 0x60D JUMPI PUSH1 0x7F DUP3 AND SWAP2 POP JUMPDEST PUSH1 0x20 DUP3 LT DUP2 EQ ISZERO PUSH3 0x62F JUMPI PUSH4 0x4E487B71 PUSH1 0xE0 SHL PUSH1 0x0 MSTORE PUSH1 0x22 PUSH1 0x4 MSTORE PUSH1 0x24 PUSH1 0x0 REVERT JUMPDEST POP SWAP2 SWAP1 POP JUMP JUMPDEST PUSH1 0x0 DUP1 DUP4 SLOAD DUP2 PUSH1 0x1 DUP3 DUP2 SHR SWAP2 POP DUP1 DUP4 AND DUP1 PUSH3 0x652 JUMPI PUSH1 0x7F DUP4 AND SWAP3 POP JUMPDEST PUSH1 0x20 DUP1 DUP5 LT DUP3 EQ ISZERO PUSH3 0x673 JUMPI PUSH4 0x4E487B71 PUSH1 0xE0 SHL DUP7 MSTORE PUSH1 0x22 PUSH1 0x4 MSTORE PUSH1 0x24 DUP7 REVERT JUMPDEST DUP2 DUP1 ISZERO PUSH3 0x68A JUMPI PUSH1 0x1 DUP2 EQ PUSH3 0x69C JUMPI PUSH3 0x6CB JUMP JUMPDEST PUSH1 0xFF NOT DUP7 AND DUP10 MSTORE DUP5 DUP10 ADD SWAP7 POP PUSH3 0x6CB JUMP JUMPDEST PUSH1 0x0 DUP11 DUP2 MSTORE PUSH1 0x20 SWAP1 KECCAK256 PUSH1 0x0 JUMPDEST DUP7 DUP2 LT ISZERO PUSH3 0x6C3 JUMPI DUP2 SLOAD DUP12 DUP3 ADD MSTORE SWAP1 DUP6 ADD SWAP1 DUP4 ADD PUSH3 0x6A8 JUMP JUMPDEST POP POP DUP5 DUP10 ADD SWAP7 POP JUMPDEST POP POP POP POP POP POP PUSH3 0x6EB DUP2 PUSH9 0x3DB4B23E973539B7B7 PUSH1 0xB9 SHL DUP2 MSTORE PUSH1 0x9 ADD SWAP1 JUMP JUMPDEST SWAP5 SWAP4 POP POP POP POP JUMP JUMPDEST PUSH1 0x0 DUP2 PUSH1 0x0 NOT DIV DUP4 GT DUP3 ISZERO ISZERO AND ISZERO PUSH3 0x71C JUMPI PUSH4 0x4E487B71 PUSH1 0xE0 SHL PUSH1 0x0 MSTORE PUSH1 0x11 PUSH1 0x4 MSTORE PUSH1 0x24 PUSH1 0x0 REVERT JUMPDEST POP MUL SWAP1 JUMP JUMPDEST PUSH1 0x0 DUP3 PUSH3 0x73F JUMPI PUSH4 0x4E487B71 PUSH1 0xE0 SHL PUSH1 0x0 MSTORE PUSH1 0x12 PUSH1 0x4 MSTORE PUSH1 0x24 PUSH1 0x0 REVERT JUMPDEST POP DIV SWAP1 JUMP JUMPDEST PUSH2 0x5CD6 DUP1 PUSH3 0x754 PUSH1 0x0 CODECOPY PUSH1 0x0 RETURN INVALID PUSH1 0x80 PUSH1 0x40 MSTORE PUSH1 0x4 CALLDATASIZE LT PUSH2 0x254 JUMPI PUSH1 0x0 CALLDATALOAD PUSH1 0xE0 SHR DUP1 PUSH4 0x74FCF071 GT PUSH2 0x139 JUMPI DUP1 PUSH4 0xB5D11E99 GT PUSH2 0xB6 JUMPI DUP1 PUSH4 0xD5D60737 GT PUSH2 0x7A JUMPI DUP1 PUSH4 0xD5D60737 EQ PUSH2 0x750 JUMPI DUP1 PUSH4 0xE985E9C5 EQ PUSH2 0x763 JUMPI DUP1 PUSH4 0xECA01093 EQ PUSH2 0x7AC JUMPI DUP1 PUSH4 0xF242432A EQ PUSH2 0x7CC JUMPI DUP1 PUSH4 0xF2FDE38B EQ PUSH2 0x7EC JUMPI DUP1 PUSH4 0xF6524724 EQ PUSH2 0x80C JUMPI PUSH1 0x0 DUP1 REVERT JUMPDEST DUP1 PUSH4 0xB5D11E99 EQ PUSH2 0x6C6 JUMPI DUP1 PUSH4 0xBD85B039 EQ PUSH2 0x6DB JUMPI DUP1 PUSH4 0xC09C923B EQ PUSH2 0x708 JUMPI DUP1 PUSH4 0xC790985A EQ PUSH2 0x710 JUMPI DUP1 PUSH4 0xCAB4BA82 EQ PUSH2 0x730 JUMPI PUSH1 0x0 DUP1 REVERT JUMPDEST DUP1 PUSH4 0x9BC731FC GT PUSH2 0xFD JUMPI DUP1 PUSH4 0x9BC731FC EQ PUSH2 0x61E JUMPI DUP1 PUSH4 0xA22CB465 EQ PUSH2 0x63E JUMPI DUP1 PUSH4 0xA60C6E55 EQ PUSH2 0x65E JUMPI DUP1 PUSH4 0xA6D8AD39 EQ PUSH2 0x686 JUMPI DUP1 PUSH4 0xA7FD40BF EQ PUSH2 0x6A6 JUMPI PUSH1 0x0 DUP1 REVERT JUMPDEST DUP1 PUSH4 0x74FCF071 EQ PUSH2 0x553 JUMPI DUP1 PUSH4 0x842980F4 EQ PUSH2 0x573 JUMPI DUP1 PUSH4 0x85B4BB53 EQ PUSH2 0x586 JUMPI DUP1 PUSH4 0x8DA5CB5B EQ PUSH2 0x5EB JUMPI DUP1 PUSH4 0x95D89B41 EQ PUSH2 0x609 JUMPI PUSH1 0x0 DUP1 REVERT JUMPDEST DUP1 PUSH4 0x34E150AB GT PUSH2 0x1D2 JUMPI DUP1 PUSH4 0x4E1273F4 GT PUSH2 0x196 JUMPI DUP1 PUSH4 0x4E1273F4 EQ PUSH2 0x479 JUMPI DUP1 PUSH4 0x4F558E79 EQ PUSH2 0x4A6 JUMPI DUP1 PUSH4 0x5C41DBE0 EQ PUSH2 0x4D5 JUMPI DUP1 PUSH4 0x61417516 EQ PUSH2 0x4E8 JUMPI DUP1 PUSH4 0x715018A6 EQ PUSH2 0x51E JUMPI DUP1 PUSH4 0x71858049 EQ PUSH2 0x533 JUMPI PUSH1 0x0 DUP1 REVERT JUMPDEST DUP1 PUSH4 0x34E150AB EQ PUSH2 0x3D9 JUMPI DUP1 PUSH4 0x3935AC11 EQ PUSH2 0x406 JUMPI DUP1 PUSH4 0x43FEFAD4 EQ PUSH2 0x426 JUMPI DUP1 PUSH4 0x48B08D62 EQ PUSH2 0x439 JUMPI DUP1 PUSH4 0x4C3C0EB2 EQ PUSH2 0x459 JUMPI PUSH1 0x0 DUP1 REVERT JUMPDEST DUP1 PUSH4 0xC2E075B GT PUSH2 0x219 JUMPI DUP1 PUSH4 0xC2E075B EQ PUSH2 0x350 JUMPI DUP1 PUSH4 0xE89341C EQ PUSH2 0x370 JUMPI DUP1 PUSH4 0x18160DDD EQ PUSH2 0x390 JUMPI DUP1 PUSH4 0x2EB2C2D6 EQ PUSH2 0x3A5 JUMPI DUP1 PUSH4 0x313CE567 EQ PUSH2 0x3C5 JUMPI PUSH1 0x0 DUP1 REVERT JUMPDEST DUP1 PUSH3 0xFDD58E EQ PUSH2 0x260 JUMPI DUP1 PUSH4 0x1FFC9A7 EQ PUSH2 0x293 JUMPI DUP1 PUSH4 0x3D604BD EQ PUSH2 0x2D4 JUMPI DUP1 PUSH4 0x6FB1A07 EQ PUSH2 0x2F6 JUMPI DUP1 PUSH4 0x6FDDE03 EQ PUSH2 0x32E JUMPI PUSH1 0x0 DUP1 REVERT JUMPDEST CALLDATASIZE PUSH2 0x25B JUMPI STOP JUMPDEST PUSH1 0x0 DUP1 REVERT JUMPDEST CALLVALUE DUP1 ISZERO PUSH2 0x26C JUMPI PUSH1 0x0 DUP1 REVERT JUMPDEST POP PUSH2 0x280 PUSH2 0x27B CALLDATASIZE PUSH1 0x4 PUSH2 0x4FE3 JUMP JUMPDEST PUSH2 0x81F JUMP JUMPDEST PUSH1 0x40 MLOAD SWAP1 DUP2 MSTORE PUSH1 0x20 ADD JUMPDEST PUSH1 0x40 MLOAD DUP1 SWAP2 SUB SWAP1 RETURN JUMPDEST CALLVALUE DUP1 ISZERO PUSH2 0x29F JUMPI PUSH1 0x0 DUP1 REVERT JUMPDEST POP PUSH2 0x2C4 PUSH2 0x2AE CALLDATASIZE PUSH1 0x4 PUSH2 0x5025 JUMP JUMPDEST PUSH1 0x1 PUSH1 0x1 PUSH1 0xE0 SHL SUB NOT AND PUSH4 0x1FFC9A7 PUSH1 0xE0 SHL EQ SWAP1 JUMP JUMPDEST PUSH1 0x40 MLOAD SWAP1 ISZERO ISZERO DUP2 MSTORE PUSH1 0x20 ADD PUSH2 0x28A JUMP JUMPDEST CALLVALUE DUP1 ISZERO PUSH2 0x2E0 JUMPI PUSH1 0x0 DUP1 REVERT JUMPDEST POP PUSH2 0x2F4 PUSH2 0x2EF CALLDATASIZE PUSH1 0x4 PUSH2 0x5042 JUMP JUMPDEST PUSH2 0x870 JUMP JUMPDEST STOP JUMPDEST CALLVALUE DUP1 ISZERO PUSH2 0x302 JUMPI PUSH1 0x0 DUP1 REVERT JUMPDEST POP PUSH2 0x316 PUSH2 0x311 CALLDATASIZE PUSH1 0x4 PUSH2 0x505F JUMP JUMPDEST PUSH2 0x9C6 JUMP JUMPDEST PUSH1 0x40 MLOAD PUSH1 0x1 PUSH1 0x1 PUSH1 0xA0 SHL SUB SWAP1 SWAP2 AND DUP2 MSTORE PUSH1 0x20 ADD PUSH2 0x28A JUMP JUMPDEST CALLVALUE DUP1 ISZERO PUSH2 0x33A JUMPI PUSH1 0x0 DUP1 REVERT JUMPDEST POP PUSH2 0x343 PUSH2 0xA43 JUMP JUMPDEST PUSH1 0x40 MLOAD PUSH2 0x28A SWAP2 SWAP1 PUSH2 0x50D0 JUMP JUMPDEST CALLVALUE DUP1 ISZERO PUSH2 0x35C JUMPI PUSH1 0x0 DUP1 REVERT JUMPDEST POP PUSH2 0x2F4 PUSH2 0x36B CALLDATASIZE PUSH1 0x4 PUSH2 0x50E3 JUMP JUMPDEST PUSH2 0xAD5 JUMP JUMPDEST CALLVALUE DUP1 ISZERO PUSH2 0x37C JUMPI PUSH1 0x0 DUP1 REVERT JUMPDEST POP PUSH2 0x343 PUSH2 0x38B CALLDATASIZE PUSH1 0x4 PUSH2 0x505F JUMP JUMPDEST PUSH2 0xBB0 JUMP JUMPDEST CALLVALUE DUP1 ISZERO PUSH2 0x39C JUMPI PUSH1 0x0 DUP1 REVERT JUMPDEST POP PUSH2 0x280 PUSH2 0xBDC JUMP JUMPDEST CALLVALUE DUP1 ISZERO PUSH2 0x3B1 JUMPI PUSH1 0x0 DUP1 REVERT JUMPDEST POP PUSH2 0x2F4 PUSH2 0x3C0 CALLDATASIZE PUSH1 0x4 PUSH2 0x5238 JUMP JUMPDEST PUSH2 0xC28 JUMP JUMPDEST CALLVALUE DUP1 ISZERO PUSH2 0x3D1 JUMPI PUSH1 0x0 DUP1 REVERT JUMPDEST POP PUSH1 0x12 PUSH2 0x280 JUMP JUMPDEST CALLVALUE DUP1 ISZERO PUSH2 0x3E5 JUMPI PUSH1 0x0 DUP1 REVERT JUMPDEST POP PUSH2 0x3F9 PUSH2 0x3F4 CALLDATASIZE PUSH1 0x4 PUSH2 0x5330 JUMP JUMPDEST PUSH2 0xCEB JUMP JUMPDEST PUSH1 0x40 MLOAD PUSH2 0x28A SWAP2 SWAP1 PUSH2 0x5371 JUMP JUMPDEST CALLVALUE DUP1 ISZERO PUSH2 0x412 JUMPI PUSH1 0x0 DUP1 REVERT JUMPDEST POP PUSH2 0x2F4 PUSH2 0x421 CALLDATASIZE PUSH1 0x4 PUSH2 0x541C JUMP JUMPDEST PUSH2 0xE94 JUMP JUMPDEST PUSH2 0x280 PUSH2 0x434 CALLDATASIZE PUSH1 0x4 PUSH2 0x547F JUMP JUMPDEST PUSH2 0xEE6 JUMP JUMPDEST CALLVALUE DUP1 ISZERO PUSH2 0x445 JUMPI PUSH1 0x0 DUP1 REVERT JUMPDEST POP PUSH2 0x280 PUSH2 0x454 CALLDATASIZE PUSH1 0x4 PUSH2 0x54C9 JUMP JUMPDEST PUSH2 0x156B JUMP JUMPDEST CALLVALUE DUP1 ISZERO PUSH2 0x465 JUMPI PUSH1 0x0 DUP1 REVERT JUMPDEST POP PUSH2 0x280 PUSH2 0x474 CALLDATASIZE PUSH1 0x4 PUSH2 0x5042 JUMP JUMPDEST PUSH2 0x163D JUMP JUMPDEST CALLVALUE DUP1 ISZERO PUSH2 0x485 JUMPI PUSH1 0x0 DUP1 REVERT JUMPDEST POP PUSH2 0x499 PUSH2 0x494 CALLDATASIZE PUSH1 0x4 PUSH2 0x550A JUMP JUMPDEST PUSH2 0x165F JUMP JUMPDEST PUSH1 0x40 MLOAD PUSH2 0x28A SWAP2 SWAP1 PUSH2 0x55FC JUMP JUMPDEST CALLVALUE DUP1 ISZERO PUSH2 0x4B2 JUMPI PUSH1 0x0 DUP1 REVERT JUMPDEST POP PUSH2 0x2C4 PUSH2 0x4C1 CALLDATASIZE PUSH1 0x4 PUSH2 0x505F JUMP JUMPDEST PUSH1 0x0 SWAP1 DUP2 MSTORE PUSH1 0x10 PUSH1 0x20 MSTORE PUSH1 0x40 SWAP1 KECCAK256 SLOAD ISZERO ISZERO SWAP1 JUMP JUMPDEST PUSH2 0x2F4 PUSH2 0x4E3 CALLDATASIZE PUSH1 0x4 PUSH2 0x547F JUMP JUMPDEST PUSH2 0x173F JUMP JUMPDEST CALLVALUE DUP1 ISZERO PUSH2 0x4F4 JUMPI PUSH1 0x0 DUP1 REVERT JUMPDEST POP PUSH2 0x280 PUSH2 0x503 CALLDATASIZE PUSH1 0x4 PUSH2 0x5042 JUMP JUMPDEST PUSH1 0x1 PUSH1 0x1 PUSH1 0xA0 SHL SUB AND PUSH1 0x0 SWAP1 DUP2 MSTORE PUSH1 0x1 PUSH1 0x20 MSTORE PUSH1 0x40 SWAP1 KECCAK256 SLOAD SWAP1 JUMP JUMPDEST CALLVALUE DUP1 ISZERO PUSH2 0x52A JUMPI PUSH1 0x0 DUP1 REVERT JUMPDEST POP PUSH2 0x2F4 PUSH2 0x1751 JUMP JUMPDEST CALLVALUE DUP1 ISZERO PUSH2 0x53F JUMPI PUSH1 0x0 DUP1 REVERT JUMPDEST POP PUSH2 0x2F4 PUSH2 0x54E CALLDATASIZE PUSH1 0x4 PUSH2 0x4FE3 JUMP JUMPDEST PUSH2 0x1788 JUMP JUMPDEST CALLVALUE DUP1 ISZERO PUSH2 0x55F JUMPI PUSH1 0x0 DUP1 REVERT JUMPDEST POP PUSH2 0x280 PUSH2 0x56E CALLDATASIZE PUSH1 0x4 PUSH2 0x547F JUMP JUMPDEST PUSH2 0x195E JUMP JUMPDEST PUSH2 0x2F4 PUSH2 0x581 CALLDATASIZE PUSH1 0x4 PUSH2 0x547F JUMP JUMPDEST PUSH2 0x19E6 JUMP JUMPDEST CALLVALUE DUP1 ISZERO PUSH2 0x592 JUMPI PUSH1 0x0 DUP1 REVERT JUMPDEST POP PUSH2 0x59B PUSH2 0x19F4 JUMP JUMPDEST PUSH1 0x40 MLOAD PUSH2 0x28A SWAP2 SWAP1 DUP2 MLOAD PUSH1 0x1 PUSH1 0x1 PUSH1 0xA0 SHL SUB AND DUP2 MSTORE PUSH1 0x20 DUP1 DUP4 ADD MLOAD SWAP1 DUP3 ADD MSTORE PUSH1 0x40 DUP1 DUP4 ADD MLOAD SWAP1 DUP3 ADD MSTORE PUSH1 0x60 DUP1 DUP4 ADD MLOAD SWAP1 DUP3 ADD MSTORE PUSH1 0x80 DUP1 DUP4 ADD MLOAD SWAP1 DUP3 ADD MSTORE PUSH1 0xA0 SWAP2 DUP3 ADD MLOAD SWAP2 DUP2 ADD SWAP2 SWAP1 SWAP2 MSTORE PUSH1 0xC0 ADD SWAP1 JUMP JUMPDEST CALLVALUE DUP1 ISZERO PUSH2 0x5F7 JUMPI PUSH1 0x0 DUP1 REVERT JUMPDEST POP PUSH1 0x14 SLOAD PUSH1 0x1 PUSH1 0x1 PUSH1 0xA0 SHL SUB AND PUSH2 0x316 JUMP JUMPDEST CALLVALUE DUP1 ISZERO PUSH2 0x615 JUMPI PUSH1 0x0 DUP1 REVERT JUMPDEST POP PUSH2 0x343 PUSH2 0x1A7C JUMP JUMPDEST CALLVALUE DUP1 ISZERO PUSH2 0x62A JUMPI PUSH1 0x0 DUP1 REVERT JUMPDEST POP PUSH2 0x2F4 PUSH2 0x639 CALLDATASIZE PUSH1 0x4 PUSH2 0x5042 JUMP JUMPDEST PUSH2 0x1A8B JUMP JUMPDEST CALLVALUE DUP1 ISZERO PUSH2 0x64A JUMPI PUSH1 0x0 DUP1 REVERT JUMPDEST POP PUSH2 0x2F4 PUSH2 0x659 CALLDATASIZE PUSH1 0x4 PUSH2 0x561D JUMP JUMPDEST PUSH2 0x1D18 JUMP JUMPDEST PUSH2 0x671 PUSH2 0x66C CALLDATASIZE PUSH1 0x4 PUSH2 0x5656 JUMP JUMPDEST PUSH2 0x1D8A JUMP JUMPDEST PUSH1 0x40 DUP1 MLOAD SWAP3 DUP4 MSTORE PUSH1 0x20 DUP4 ADD SWAP2 SWAP1 SWAP2 MSTORE ADD PUSH2 0x28A JUMP JUMPDEST CALLVALUE DUP1 ISZERO PUSH2 0x692 JUMPI PUSH1 0x0 DUP1 REVERT JUMPDEST POP PUSH2 0x3F9 PUSH2 0x6A1 CALLDATASIZE PUSH1 0x4 PUSH2 0x5330 JUMP JUMPDEST PUSH2 0x1FCF JUMP JUMPDEST CALLVALUE DUP1 ISZERO PUSH2 0x6B2 JUMPI PUSH1 0x0 DUP1 REVERT JUMPDEST POP PUSH2 0x2F4 PUSH2 0x6C1 CALLDATASIZE PUSH1 0x4 PUSH2 0x56BD JUMP JUMPDEST PUSH2 0x213D JUMP JUMPDEST CALLVALUE DUP1 ISZERO PUSH2 0x6D2 JUMPI PUSH1 0x0 DUP1 REVERT JUMPDEST POP PUSH2 0x2F4 PUSH2 0x21A7 JUMP JUMPDEST CALLVALUE DUP1 ISZERO PUSH2 0x6E7 JUMPI PUSH1 0x0 DUP1 REVERT JUMPDEST POP PUSH2 0x280 PUSH2 0x6F6 CALLDATASIZE PUSH1 0x4 PUSH2 0x505F JUMP JUMPDEST PUSH1 0x0 SWAP1 DUP2 MSTORE PUSH1 0x10 PUSH1 0x20 MSTORE PUSH1 0x40 SWAP1 KECCAK256 SLOAD SWAP1 JUMP JUMPDEST PUSH2 0x2F4 PUSH2 0x21F5 JUMP JUMPDEST CALLVALUE DUP1 ISZERO PUSH2 0x71C JUMPI PUSH1 0x0 DUP1 REVERT JUMPDEST POP PUSH2 0x280 PUSH2 0x72B CALLDATASIZE PUSH1 0x4 PUSH2 0x54C9 JUMP JUMPDEST PUSH2 0x2249 JUMP JUMPDEST CALLVALUE DUP1 ISZERO PUSH2 0x73C JUMPI PUSH1 0x0 DUP1 REVERT JUMPDEST POP PUSH2 0x2F4 PUSH2 0x74B CALLDATASIZE PUSH1 0x4 PUSH2 0x4FE3 JUMP JUMPDEST PUSH2 0x2309 JUMP JUMPDEST PUSH2 0x2F4 PUSH2 0x75E CALLDATASIZE PUSH1 0x4 PUSH2 0x547F JUMP JUMPDEST PUSH2 0x2456 JUMP JUMPDEST CALLVALUE DUP1 ISZERO PUSH2 0x76F JUMPI PUSH1 0x0 DUP1 REVERT JUMPDEST POP PUSH2 0x2C4 PUSH2 0x77E CALLDATASIZE PUSH1 0x4 PUSH2 0x56F9 JUMP JUMPDEST PUSH1 0x1 PUSH1 0x1 PUSH1 0xA0 SHL SUB SWAP2 DUP3 AND PUSH1 0x0 SWAP1 DUP2 MSTORE PUSH1 0xE PUSH1 0x20 SWAP1 DUP2 MSTORE PUSH1 0x40 DUP1 DUP4 KECCAK256 SWAP4 SWAP1 SWAP5 AND DUP3 MSTORE SWAP2 SWAP1 SWAP2 MSTORE KECCAK256 SLOAD PUSH1 0xFF AND SWAP1 JUMP JUMPDEST CALLVALUE DUP1 ISZERO PUSH2 0x7B8 JUMPI PUSH1 0x0 DUP1 REVERT JUMPDEST POP PUSH2 0x2F4 PUSH2 0x7C7 CALLDATASIZE PUSH1 0x4 PUSH2 0x5727 JUMP JUMPDEST PUSH2 0x2490 JUMP JUMPDEST CALLVALUE DUP1 ISZERO PUSH2 0x7D8 JUMPI PUSH1 0x0 DUP1 REVERT JUMPDEST POP PUSH2 0x2F4 PUSH2 0x7E7 CALLDATASIZE PUSH1 0x4 PUSH2 0x5798 JUMP JUMPDEST PUSH2 0x24DC JUMP JUMPDEST CALLVALUE DUP1 ISZERO PUSH2 0x7F8 JUMPI PUSH1 0x0 DUP1 REVERT JUMPDEST POP PUSH2 0x2F4 PUSH2 0x807 CALLDATASIZE PUSH1 0x4 PUSH2 0x5042 JUMP JUMPDEST PUSH2 0x2597 JUMP JUMPDEST PUSH2 0x671 PUSH2 0x81A CALLDATASIZE PUSH1 0x4 PUSH2 0x5656 JUMP JUMPDEST PUSH2 0x25F5 JUMP JUMPDEST PUSH1 0x0 PUSH1 0x1 PUSH1 0x1 PUSH1 0xA0 SHL SUB DUP4 AND PUSH2 0x848 JUMPI PUSH1 0x40 MLOAD PUSH4 0x6E3B4547 PUSH1 0xE1 SHL DUP2 MSTORE PUSH1 0x4 ADD PUSH1 0x40 MLOAD DUP1 SWAP2 SUB SWAP1 REVERT JUMPDEST POP PUSH1 0x0 SWAP1 DUP2 MSTORE PUSH1 0xD PUSH1 0x20 SWAP1 DUP2 MSTORE PUSH1 0x40 DUP1 DUP4 KECCAK256 PUSH1 0x1 PUSH1 0x1 PUSH1 0xA0 SHL SUB SWAP5 SWAP1 SWAP5 AND DUP4 MSTORE SWAP3 SWAP1 MSTORE KECCAK256 SLOAD SWAP1 JUMP JUMPDEST PUSH1 0x1 PUSH1 0x1 PUSH1 0xA0 SHL SUB DUP2 AND PUSH1 0x0 SWAP1 DUP2 MSTORE PUSH1 0x1 PUSH1 0x20 MSTORE PUSH1 0x40 SWAP1 KECCAK256 SLOAD DUP2 SWAP1 ISZERO DUP1 PUSH2 0x8A4 JUMPI POP PUSH1 0x4 SLOAD PUSH1 0x1 PUSH1 0x1 PUSH1 0xA0 SHL SUB DUP3 DUP2 AND SWAP2 AND EQ JUMPDEST ISZERO PUSH2 0x8CA JUMPI PUSH1 0x40 MLOAD PUSH3 0x461BCD PUSH1 0xE5 SHL DUP2 MSTORE PUSH1 0x4 ADD PUSH2 0x8C1 SWAP1 PUSH2 0x5800 JUMP JUMPDEST PUSH1 0x40 MLOAD DUP1 SWAP2 SUB SWAP1 REVERT JUMPDEST PUSH1 0x1 PUSH1 0x1 PUSH1 0xA0 SHL SUB DUP3 AND PUSH1 0x0 SWAP1 DUP2 MSTORE PUSH1 0x1 PUSH1 0x20 MSTORE PUSH1 0x40 DUP2 KECCAK256 SLOAD SWAP1 PUSH2 0x8ED DUP5 PUSH2 0x2891 JUMP JUMPDEST PUSH1 0x4 SLOAD SWAP1 SWAP2 POP PUSH1 0x0 SWAP1 PUSH2 0x908 SWAP1 PUSH1 0x1 PUSH1 0x1 PUSH1 0xA0 SHL SUB AND PUSH2 0x2891 JUMP JUMPDEST SWAP1 POP PUSH1 0x0 DUP1 DUP5 DUP2 SLOAD DUP2 LT PUSH2 0x91E JUMPI PUSH2 0x91E PUSH2 0x581B JUMP JUMPDEST PUSH1 0x0 SWAP2 DUP3 MSTORE PUSH1 0x20 SWAP1 SWAP2 KECCAK256 PUSH1 0x1 PUSH1 0x4 SWAP1 SWAP3 MUL ADD ADD SLOAD PUSH2 0x945 SWAP1 PUSH1 0x1 PUSH1 0x1 PUSH1 0x80 SHL SUB AND DUP5 PUSH2 0x5847 JUMP JUMPDEST SWAP1 POP DUP1 ISZERO PUSH2 0x95A JUMPI PUSH2 0x95A DUP7 CALLER DUP4 PUSH1 0x0 PUSH2 0x291E JUMP JUMPDEST PUSH1 0x0 DUP1 DUP6 DUP2 SLOAD DUP2 LT PUSH2 0x96E JUMPI PUSH2 0x96E PUSH2 0x581B JUMP JUMPDEST PUSH1 0x0 SWAP2 DUP3 MSTORE PUSH1 0x20 SWAP1 SWAP2 KECCAK256 PUSH1 0x4 SWAP1 SWAP2 MUL ADD PUSH1 0x1 ADD SLOAD PUSH2 0x99C SWAP1 PUSH1 0x1 PUSH1 0x80 SHL SWAP1 DIV PUSH1 0x1 PUSH1 0x1 PUSH1 0x80 SHL SUB AND DUP5 PUSH2 0x5847 JUMP JUMPDEST SWAP1 POP DUP1 ISZERO PUSH2 0x9BD JUMPI PUSH1 0x4 SLOAD PUSH2 0x9BD SWAP1 PUSH1 0x1 PUSH1 0x1 PUSH1 0xA0 SHL SUB AND CALLER DUP4 PUSH1 0x0 PUSH2 0x291E JUMP JUMPDEST POP POP POP POP POP POP POP JUMP JUMPDEST PUSH1 0x40 MLOAD PUSH4 0x6FB1A07 PUSH1 0xE0 SHL DUP2 MSTORE PUSH1 0x4 DUP2 ADD DUP3 SWAP1 MSTORE PUSH1 0x0 SWAP1 PUSH20 0xDEF1FAC7BF08F173D286BBBDCBEEADE695129840 SWAP1 PUSH4 0x6FB1A07 SWAP1 PUSH1 0x24 ADD PUSH1 0x20 PUSH1 0x40 MLOAD DUP1 DUP4 SUB DUP2 DUP7 GAS STATICCALL ISZERO DUP1 ISZERO PUSH2 0xA19 JUMPI RETURNDATASIZE PUSH1 0x0 DUP1 RETURNDATACOPY RETURNDATASIZE PUSH1 0x0 REVERT JUMPDEST POP POP POP POP PUSH1 0x40 MLOAD RETURNDATASIZE PUSH1 0x1F NOT PUSH1 0x1F DUP3 ADD AND DUP3 ADD DUP1 PUSH1 0x40 MSTORE POP DUP2 ADD SWAP1 PUSH2 0xA3D SWAP2 SWAP1 PUSH2 0x585E JUMP JUMPDEST SWAP3 SWAP2 POP POP JUMP JUMPDEST PUSH1 0x60 PUSH1 0x11 DUP1 SLOAD PUSH2 0xA52 SWAP1 PUSH2 0x587B JUMP JUMPDEST DUP1 PUSH1 0x1F ADD PUSH1 0x20 DUP1 SWAP2 DIV MUL PUSH1 0x20 ADD PUSH1 0x40 MLOAD SWAP1 DUP2 ADD PUSH1 0x40 MSTORE DUP1 SWAP3 SWAP2 SWAP1 DUP2 DUP2 MSTORE PUSH1 0x20 ADD DUP3 DUP1 SLOAD PUSH2 0xA7E SWAP1 PUSH2 0x587B JUMP JUMPDEST DUP1 ISZERO PUSH2 0xACB JUMPI DUP1 PUSH1 0x1F LT PUSH2 0xAA0 JUMPI PUSH2 0x100 DUP1 DUP4 SLOAD DIV MUL DUP4 MSTORE SWAP2 PUSH1 0x20 ADD SWAP2 PUSH2 0xACB JUMP JUMPDEST DUP3 ADD SWAP2 SWAP1 PUSH1 0x0 MSTORE PUSH1 0x20 PUSH1 0x0 KECCAK256 SWAP1 JUMPDEST DUP2 SLOAD DUP2 MSTORE SWAP1 PUSH1 0x1 ADD SWAP1 PUSH1 0x20 ADD DUP1 DUP4 GT PUSH2 0xAAE JUMPI DUP3 SWAP1 SUB PUSH1 0x1F AND DUP3 ADD SWAP2 JUMPDEST POP POP POP POP POP SWAP1 POP SWAP1 JUMP JUMPDEST PUSH1 0x14 SLOAD PUSH1 0x1 PUSH1 0x1 PUSH1 0xA0 SHL SUB AND CALLER EQ PUSH2 0xB00 JUMPI PUSH1 0x40 MLOAD PUSH4 0xEBF98459 PUSH1 0xE0 SHL DUP2 MSTORE PUSH1 0x4 ADD PUSH1 0x40 MLOAD DUP1 SWAP2 SUB SWAP1 REVERT JUMPDEST PUSH1 0x40 DUP2 ADD CALLDATALOAD ISZERO DUP1 PUSH2 0xB18 JUMPI POP DUP1 PUSH1 0x60 ADD CALLDATALOAD DUP2 PUSH1 0x40 ADD CALLDATALOAD GT JUMPDEST DUP1 PUSH2 0xB28 JUMPI POP PUSH2 0x1F4 DUP2 PUSH1 0x60 ADD CALLDATALOAD GT JUMPDEST ISZERO PUSH2 0xB46 JUMPI PUSH1 0x40 MLOAD PUSH4 0x7420258D PUSH1 0xE1 SHL DUP2 MSTORE PUSH1 0x4 ADD PUSH1 0x40 MLOAD DUP1 SWAP2 SUB SWAP1 REVERT JUMPDEST DUP1 PUSH1 0xA0 ADD CALLDATALOAD DUP2 PUSH1 0x80 ADD CALLDATALOAD GT ISZERO PUSH2 0xB6F JUMPI PUSH1 0x40 MLOAD PUSH4 0x75E1700B PUSH1 0xE1 SHL DUP2 MSTORE PUSH1 0x4 ADD PUSH1 0x40 MLOAD DUP1 SWAP2 SUB SWAP1 REVERT JUMPDEST PUSH1 0x64 PUSH2 0xB80 PUSH1 0x20 DUP4 ADD CALLDATALOAD PUSH1 0x2 PUSH2 0x58B0 JUMP JUMPDEST LT PUSH2 0xB9E JUMPI PUSH1 0x40 MLOAD PUSH4 0x1457C3C3 PUSH1 0xE1 SHL DUP2 MSTORE PUSH1 0x4 ADD PUSH1 0x40 MLOAD DUP1 SWAP2 SUB SWAP1 REVERT JUMPDEST DUP1 PUSH1 0x7 PUSH2 0xBAB DUP3 DUP3 PUSH2 0x58CF JUMP JUMPDEST POP POP POP JUMP JUMPDEST PUSH1 0x60 PUSH1 0x13 DUP3 PUSH1 0x40 MLOAD PUSH1 0x20 ADD PUSH2 0xBC6 SWAP3 SWAP2 SWAP1 PUSH2 0x592C JUMP JUMPDEST PUSH1 0x40 MLOAD PUSH1 0x20 DUP2 DUP4 SUB SUB DUP2 MSTORE SWAP1 PUSH1 0x40 MSTORE SWAP1 POP SWAP2 SWAP1 POP JUMP JUMPDEST PUSH1 0x0 DUP1 PUSH1 0x0 JUMPDEST PUSH1 0x0 PUSH1 0x10 DUP2 PUSH2 0xBF0 DUP6 PUSH2 0x59E3 JUMP JUMPDEST SWAP5 POP DUP5 DUP2 MSTORE PUSH1 0x20 ADD SWAP1 DUP2 MSTORE PUSH1 0x20 ADD PUSH1 0x0 KECCAK256 SLOAD GT ISZERO PUSH2 0xA3D JUMPI PUSH1 0x0 DUP3 DUP2 MSTORE PUSH1 0x10 PUSH1 0x20 MSTORE PUSH1 0x40 SWAP1 KECCAK256 SLOAD PUSH2 0xC21 SWAP1 DUP3 PUSH2 0x59FE JUMP JUMPDEST SWAP1 POP PUSH2 0xBE2 JUMP JUMPDEST PUSH1 0x0 PUSH2 0xC34 PUSH1 0x3 PUSH2 0x9C6 JUMP JUMPDEST SWAP1 POP DUP1 PUSH1 0x1 PUSH1 0x1 PUSH1 0xA0 SHL SUB AND PUSH4 0xEEF84BA1 PUSH1 0x40 MLOAD DUP2 PUSH4 0xFFFFFFFF AND PUSH1 0xE0 SHL DUP2 MSTORE PUSH1 0x4 ADD PUSH1 0x0 PUSH1 0x40 MLOAD DUP1 DUP4 SUB DUP2 PUSH1 0x0 DUP8 DUP1 EXTCODESIZE ISZERO DUP1 ISZERO PUSH2 0xC71 JUMPI PUSH1 0x0 DUP1 REVERT JUMPDEST POP GAS CALL ISZERO DUP1 ISZERO PUSH2 0xC85 JUMPI RETURNDATASIZE PUSH1 0x0 DUP1 RETURNDATACOPY RETURNDATASIZE PUSH1 0x0 REVERT JUMPDEST POP POP POP POP PUSH2 0xC90 CALLER SWAP1 JUMP JUMPDEST PUSH1 0x1 PUSH1 0x1 PUSH1 0xA0 SHL SUB AND DUP7 PUSH1 0x1 PUSH1 0x1 PUSH1 0xA0 SHL SUB AND EQ ISZERO DUP1 ISZERO PUSH2 0xCB8 JUMPI POP PUSH2 0xCB6 DUP7 CALLER PUSH2 0x77E JUMP JUMPDEST ISZERO JUMPDEST ISZERO PUSH2 0xCD6 JUMPI PUSH1 0x40 MLOAD PUSH4 0xDE69555 PUSH1 0xE3 SHL DUP2 MSTORE PUSH1 0x4 ADD PUSH1 0x40 MLOAD DUP1 SWAP2 SUB SWAP1 REVERT JUMPDEST PUSH2 0xCE3 DUP7 DUP7 DUP7 DUP7 DUP7 PUSH2 0x295E JUMP JUMPDEST POP POP POP POP POP POP JUMP JUMPDEST PUSH1 0x60 PUSH1 0x0 DUP3 PUSH1 0x1 PUSH1 0x1 PUSH1 0x40 SHL SUB DUP2 GT ISZERO PUSH2 0xD07 JUMPI PUSH2 0xD07 PUSH2 0x50F5 JUMP JUMPDEST PUSH1 0x40 MLOAD SWAP1 DUP1 DUP3 MSTORE DUP1 PUSH1 0x20 MUL PUSH1 0x20 ADD DUP3 ADD PUSH1 0x40 MSTORE DUP1 ISZERO PUSH2 0xD40 JUMPI DUP2 PUSH1 0x20 ADD JUMPDEST PUSH2 0xD2D PUSH2 0x4E4E JUMP JUMPDEST DUP2 MSTORE PUSH1 0x20 ADD SWAP1 PUSH1 0x1 SWAP1 SUB SWAP1 DUP2 PUSH2 0xD25 JUMPI SWAP1 POP JUMPDEST POP SWAP1 POP PUSH1 0x0 JUMPDEST DUP4 DUP2 LT ISZERO PUSH2 0xE8C JUMPI PUSH1 0x0 PUSH1 0x1 PUSH1 0x0 DUP8 DUP8 DUP6 DUP2 DUP2 LT PUSH2 0xD66 JUMPI PUSH2 0xD66 PUSH2 0x581B JUMP JUMPDEST SWAP1 POP PUSH1 0x20 MUL ADD PUSH1 0x20 DUP2 ADD SWAP1 PUSH2 0xD7B SWAP2 SWAP1 PUSH2 0x5042 JUMP JUMPDEST PUSH1 0x1 PUSH1 0x1 PUSH1 0xA0 SHL SUB AND PUSH1 0x1 PUSH1 0x1 PUSH1 0xA0 SHL SUB AND DUP2 MSTORE PUSH1 0x20 ADD SWAP1 DUP2 MSTORE PUSH1 0x20 ADD PUSH1 0x0 KECCAK256 SLOAD DUP2 SLOAD DUP2 LT PUSH2 0xDAC JUMPI PUSH2 0xDAC PUSH2 0x581B JUMP JUMPDEST PUSH1 0x0 SWAP2 DUP3 MSTORE PUSH1 0x20 SWAP1 SWAP2 KECCAK256 PUSH1 0x40 DUP1 MLOAD PUSH2 0x1A0 DUP2 ADD SWAP1 SWAP2 MSTORE SWAP2 PUSH1 0x4 MUL ADD DUP2 PUSH1 0xA0 DUP2 ADD DUP3 PUSH1 0x8 DUP3 DUP3 DUP3 PUSH1 0x20 MUL DUP3 ADD SWAP2 PUSH1 0x0 SWAP1 JUMPDEST DUP3 DUP3 SWAP1 SLOAD SWAP1 PUSH2 0x100 EXP SWAP1 DIV PUSH4 0xFFFFFFFF AND PUSH4 0xFFFFFFFF AND DUP2 MSTORE PUSH1 0x20 ADD SWAP1 PUSH1 0x4 ADD SWAP1 PUSH1 0x20 DUP3 PUSH1 0x3 ADD DIV SWAP3 DUP4 ADD SWAP3 PUSH1 0x1 SUB DUP3 MUL SWAP2 POP DUP1 DUP5 GT PUSH2 0xDDC JUMPI POP POP POP SWAP3 DUP5 MSTORE POP POP POP PUSH1 0x1 DUP3 ADD SLOAD PUSH1 0x1 PUSH1 0x1 PUSH1 0x80 SHL SUB DUP1 DUP3 AND PUSH1 0x20 DUP5 ADD MSTORE PUSH1 0x1 PUSH1 0x80 SHL SWAP1 SWAP2 DIV DUP2 AND PUSH1 0x40 DUP4 ADD MSTORE PUSH1 0x2 DUP4 ADD SLOAD AND PUSH1 0x60 DUP3 ADD MSTORE PUSH1 0x3 SWAP1 SWAP2 ADD SLOAD PUSH1 0x80 SWAP1 SWAP2 ADD MSTORE DUP3 MLOAD DUP4 SWAP1 DUP4 SWAP1 DUP2 LT PUSH2 0xE6E JUMPI PUSH2 0xE6E PUSH2 0x581B JUMP JUMPDEST PUSH1 0x20 MUL PUSH1 0x20 ADD ADD DUP2 SWAP1 MSTORE POP DUP1 DUP1 PUSH2 0xE84 SWAP1 PUSH2 0x59E3 JUMP JUMPDEST SWAP2 POP POP PUSH2 0xD46 JUMP JUMPDEST POP SWAP4 SWAP3 POP POP POP JUMP JUMPDEST PUSH1 0x14 SLOAD PUSH1 0x1 PUSH1 0x1 PUSH1 0xA0 SHL SUB AND CALLER EQ PUSH2 0xEBF JUMPI PUSH1 0x40 MLOAD PUSH4 0xEBF98459 PUSH1 0xE0 SHL DUP2 MSTORE PUSH1 0x4 ADD PUSH1 0x40 MLOAD DUP1 SWAP2 SUB SWAP1 REVERT JUMPDEST DUP2 MLOAD PUSH2 0xED2 SWAP1 PUSH1 0x11 SWAP1 PUSH1 0x20 DUP6 ADD SWAP1 PUSH2 0x4E83 JUMP JUMPDEST POP DUP1 MLOAD PUSH2 0xBAB SWAP1 PUSH1 0x12 SWAP1 PUSH1 0x20 DUP5 ADD SWAP1 PUSH2 0x4E83 JUMP JUMPDEST PUSH1 0x1 PUSH1 0x1 PUSH1 0xA0 SHL SUB DUP5 AND PUSH1 0x0 SWAP1 DUP2 MSTORE PUSH1 0x1 PUSH1 0x20 MSTORE PUSH1 0x40 DUP2 KECCAK256 SLOAD DUP6 SWAP1 ISZERO DUP1 PUSH2 0xF1A JUMPI POP PUSH1 0x4 SLOAD PUSH1 0x1 PUSH1 0x1 PUSH1 0xA0 SHL SUB DUP3 DUP2 AND SWAP2 AND EQ JUMPDEST ISZERO PUSH2 0xF37 JUMPI PUSH1 0x40 MLOAD PUSH3 0x461BCD PUSH1 0xE5 SHL DUP2 MSTORE PUSH1 0x4 ADD PUSH2 0x8C1 SWAP1 PUSH2 0x5800 JUMP JUMPDEST DUP4 DUP1 TIMESTAMP GT ISZERO PUSH2 0xF58 JUMPI PUSH1 0x40 MLOAD PUSH3 0x461BCD PUSH1 0xE5 SHL DUP2 MSTORE PUSH1 0x4 ADD PUSH2 0x8C1 SWAP1 PUSH2 0x5A16 JUMP JUMPDEST PUSH1 0x1 PUSH1 0x1 PUSH1 0xA0 SHL SUB DUP8 AND PUSH1 0x0 SWAP1 DUP2 MSTORE PUSH1 0x1 PUSH1 0x20 MSTORE PUSH1 0x40 SWAP1 KECCAK256 SLOAD PUSH2 0xF7C DUP9 CALLER DUP10 PUSH2 0x2B06 JUMP JUMPDEST PUSH1 0x0 PUSH2 0xF87 DUP10 PUSH2 0x2891 JUMP JUMPDEST SWAP1 POP PUSH1 0x0 DUP3 DUP2 SLOAD DUP2 LT PUSH2 0xF9C JUMPI PUSH2 0xF9C PUSH2 0x581B JUMP JUMPDEST PUSH1 0x0 SWAP2 DUP3 MSTORE PUSH1 0x20 SWAP1 SWAP2 KECCAK256 PUSH1 0x1 PUSH1 0x4 SWAP1 SWAP3 MUL ADD ADD SLOAD PUSH2 0xFC3 SWAP1 PUSH1 0x1 PUSH1 0x1 PUSH1 0x80 SHL SUB AND DUP3 PUSH2 0x5847 JUMP JUMPDEST SWAP8 POP PUSH1 0x1 DUP9 GT PUSH2 0xFE5 JUMPI PUSH1 0x40 MLOAD PUSH3 0x461BCD PUSH1 0xE5 SHL DUP2 MSTORE PUSH1 0x4 ADD PUSH2 0x8C1 SWAP1 PUSH2 0x5A31 JUMP JUMPDEST PUSH1 0x4 SLOAD PUSH1 0x0 SWAP1 PUSH2 0xFFD SWAP1 PUSH1 0x1 PUSH1 0x1 PUSH1 0xA0 SHL SUB AND PUSH2 0x2891 JUMP JUMPDEST SWAP1 POP PUSH1 0x0 PUSH1 0x2 SLOAD DUP3 PUSH2 0x100F SWAP2 SWAP1 PUSH2 0x5847 JUMP JUMPDEST SWAP1 POP PUSH1 0x0 PUSH2 0x1096 PUSH1 0x0 DUP7 DUP2 SLOAD DUP2 LT PUSH2 0x1029 JUMPI PUSH2 0x1029 PUSH2 0x581B JUMP JUMPDEST SWAP1 PUSH1 0x0 MSTORE PUSH1 0x20 PUSH1 0x0 KECCAK256 SWAP1 PUSH1 0x4 MUL ADD PUSH1 0x1 ADD PUSH1 0x10 SWAP1 SLOAD SWAP1 PUSH2 0x100 EXP SWAP1 DIV PUSH1 0x1 PUSH1 0x1 PUSH1 0x80 SHL SUB AND PUSH1 0x1 PUSH1 0x1 PUSH1 0x80 SHL SUB AND PUSH1 0x0 DUP8 DUP2 SLOAD DUP2 LT PUSH2 0x106A JUMPI PUSH2 0x106A PUSH2 0x581B JUMP JUMPDEST PUSH1 0x0 SWAP2 DUP3 MSTORE PUSH1 0x20 SWAP1 SWAP2 KECCAK256 PUSH1 0x1 PUSH1 0x4 SWAP1 SWAP3 MUL ADD ADD SLOAD PUSH2 0x1091 SWAP2 SWAP1 PUSH1 0x1 PUSH1 0x1 PUSH1 0x80 SHL SUB AND PUSH2 0x58B0 JUMP JUMPDEST PUSH2 0x2BCA JUMP JUMPDEST SWAP1 POP PUSH1 0x0 PUSH2 0x10E8 PUSH1 0x0 DUP8 DUP2 SLOAD DUP2 LT PUSH2 0x10B0 JUMPI PUSH2 0x10B0 PUSH2 0x581B JUMP JUMPDEST PUSH1 0x0 SWAP2 DUP3 MSTORE PUSH1 0x20 DUP1 DUP4 KECCAK256 PUSH1 0x2 PUSH1 0x4 SWAP1 SWAP4 MUL ADD SWAP2 SWAP1 SWAP2 ADD SLOAD DUP10 DUP4 MSTORE PUSH1 0x10 SWAP1 SWAP2 MSTORE PUSH1 0x40 SWAP1 SWAP2 KECCAK256 SLOAD PUSH1 0x1 PUSH1 0x1 PUSH1 0x80 SHL SUB SWAP1 SWAP2 AND SWAP1 DUP5 SWAP1 PUSH2 0x2C39 JUMP JUMPDEST SWAP1 POP DUP1 ISZERO PUSH2 0x1119 JUMPI PUSH1 0x7 SLOAD PUSH1 0x40 DUP1 MLOAD PUSH1 0x20 DUP2 ADD SWAP1 SWAP2 MSTORE PUSH1 0x0 DUP2 MSTORE PUSH2 0x1119 SWAP2 PUSH1 0x1 PUSH1 0x1 PUSH1 0xA0 SHL SUB AND SWAP1 DUP9 SWAP1 DUP5 SWAP1 PUSH2 0x2CBE JUMP JUMPDEST POP POP PUSH1 0x0 DUP1 DUP6 DUP2 SLOAD DUP2 LT PUSH2 0x112F JUMPI PUSH2 0x112F PUSH2 0x581B JUMP JUMPDEST PUSH1 0x0 SWAP2 DUP3 MSTORE PUSH1 0x20 DUP1 DUP4 KECCAK256 PUSH1 0x1 PUSH1 0x4 SWAP1 SWAP4 MUL ADD SWAP2 SWAP1 SWAP2 ADD SLOAD DUP8 DUP4 MSTORE PUSH1 0x10 SWAP1 SWAP2 MSTORE PUSH1 0x40 SWAP1 SWAP2 KECCAK256 SLOAD PUSH1 0x1 PUSH1 0x1 PUSH1 0x80 SHL SUB SWAP1 SWAP2 AND SWAP1 PUSH2 0x116A SWAP1 DUP14 PUSH2 0x58B0 JUMP JUMPDEST PUSH2 0x1174 SWAP2 SWAP1 PUSH2 0x5A62 JUMP JUMPDEST SWAP1 POP PUSH2 0x1191 DUP10 DUP7 DUP4 PUSH1 0x40 MLOAD DUP1 PUSH1 0x20 ADD PUSH1 0x40 MSTORE DUP1 PUSH1 0x0 DUP2 MSTORE POP PUSH2 0x2CBE JUMP JUMPDEST PUSH1 0x0 DUP1 DUP7 DUP2 SLOAD DUP2 LT PUSH2 0x11A5 JUMPI PUSH2 0x11A5 PUSH2 0x581B JUMP JUMPDEST PUSH1 0x0 SWAP2 DUP3 MSTORE PUSH1 0x20 DUP3 KECCAK256 PUSH1 0x1 PUSH1 0x4 SWAP1 SWAP3 MUL ADD ADD SLOAD DUP2 SLOAD PUSH1 0x1 PUSH1 0x1 PUSH1 0x80 SHL SUB SWAP1 SWAP2 AND SWAP2 SWAP1 DUP9 SWAP1 DUP2 LT PUSH2 0x11D7 JUMPI PUSH2 0x11D7 PUSH2 0x581B JUMP JUMPDEST PUSH1 0x0 SWAP2 DUP3 MSTORE PUSH1 0x20 SWAP1 SWAP2 KECCAK256 PUSH1 0x4 SWAP1 SWAP2 MUL ADD PUSH1 0x1 ADD SLOAD PUSH2 0x1205 SWAP1 PUSH1 0x1 PUSH1 0x80 SHL SWAP1 DIV PUSH1 0x1 PUSH1 0x1 PUSH1 0x80 SHL SUB AND DUP15 PUSH2 0x58B0 JUMP JUMPDEST PUSH2 0x120F SWAP2 SWAP1 PUSH2 0x5A62 JUMP JUMPDEST SWAP1 POP PUSH1 0x1 DUP2 GT PUSH2 0x1231 JUMPI PUSH1 0x40 MLOAD PUSH3 0x1037CB PUSH1 0xE9 SHL DUP2 MSTORE PUSH1 0x4 ADD PUSH1 0x40 MLOAD DUP1 SWAP2 SUB SWAP1 REVERT JUMPDEST PUSH1 0x4 DUP1 SLOAD PUSH1 0x40 MLOAD PUSH4 0xBB9FF5D PUSH1 0xE0 SHL DUP2 MSTORE ADDRESS SWAP3 DUP2 ADD SWAP3 SWAP1 SWAP3 MSTORE PUSH1 0x24 DUP3 ADD DUP4 SWAP1 MSTORE PUSH1 0x1 PUSH1 0x1 PUSH1 0xA0 SHL SUB AND SWAP1 PUSH4 0xBB9FF5D SWAP1 PUSH1 0x44 ADD PUSH1 0x0 PUSH1 0x40 MLOAD DUP1 DUP4 SUB DUP2 PUSH1 0x0 DUP8 DUP1 EXTCODESIZE ISZERO DUP1 ISZERO PUSH2 0x127E JUMPI PUSH1 0x0 DUP1 REVERT JUMPDEST POP GAS CALL ISZERO DUP1 ISZERO PUSH2 0x1292 JUMPI RETURNDATASIZE PUSH1 0x0 DUP1 RETURNDATACOPY RETURNDATASIZE PUSH1 0x0 REVERT JUMPDEST POP POP POP POP DUP1 DUP4 PUSH1 0x2 SLOAD PUSH2 0x12A5 SWAP2 SWAP1 PUSH2 0x59FE JUMP JUMPDEST PUSH2 0x12AF SWAP2 SWAP1 PUSH2 0x59FE JUMP JUMPDEST PUSH1 0x2 DUP2 SWAP1 SSTORE POP DUP12 PUSH1 0x0 DUP8 DUP2 SLOAD DUP2 LT PUSH2 0x12C9 JUMPI PUSH2 0x12C9 PUSH2 0x581B JUMP JUMPDEST PUSH1 0x0 SWAP2 DUP3 MSTORE PUSH1 0x20 SWAP1 SWAP2 KECCAK256 PUSH1 0x1 PUSH1 0x4 SWAP1 SWAP3 MUL ADD ADD SLOAD PUSH2 0x12F0 SWAP2 SWAP1 PUSH1 0x1 PUSH1 0x1 PUSH1 0x80 SHL SUB AND PUSH2 0x5A76 JUMP JUMPDEST PUSH1 0x0 DUP8 DUP2 SLOAD DUP2 LT PUSH2 0x1303 JUMPI PUSH2 0x1303 PUSH2 0x581B JUMP JUMPDEST PUSH1 0x0 SWAP2 DUP3 MSTORE PUSH1 0x20 SWAP1 SWAP2 KECCAK256 PUSH1 0x4 SWAP1 SWAP2 MUL ADD PUSH1 0x1 ADD DUP1 SLOAD PUSH1 0x1 PUSH1 0x1 PUSH1 0x80 SHL SUB NOT AND PUSH1 0x1 PUSH1 0x1 PUSH1 0x80 SHL SUB SWAP3 SWAP1 SWAP3 AND SWAP2 SWAP1 SWAP2 OR SWAP1 SSTORE PUSH2 0x133E DUP2 DUP5 PUSH2 0x59FE JUMP JUMPDEST PUSH1 0x0 DUP8 DUP2 SLOAD DUP2 LT PUSH2 0x1351 JUMPI PUSH2 0x1351 PUSH2 0x581B JUMP JUMPDEST SWAP1 PUSH1 0x0 MSTORE PUSH1 0x20 PUSH1 0x0 KECCAK256 SWAP1 PUSH1 0x4 MUL ADD PUSH1 0x1 ADD PUSH1 0x10 SWAP1 SLOAD SWAP1 PUSH2 0x100 EXP SWAP1 DIV PUSH1 0x1 PUSH1 0x1 PUSH1 0x80 SHL SUB AND PUSH2 0x1380 SWAP2 SWAP1 PUSH2 0x5A76 JUMP JUMPDEST PUSH1 0x0 DUP8 DUP2 SLOAD DUP2 LT PUSH2 0x1393 JUMPI PUSH2 0x1393 PUSH2 0x581B JUMP JUMPDEST SWAP1 PUSH1 0x0 MSTORE PUSH1 0x20 PUSH1 0x0 KECCAK256 SWAP1 PUSH1 0x4 MUL ADD PUSH1 0x1 ADD PUSH1 0x10 PUSH2 0x100 EXP DUP2 SLOAD DUP2 PUSH1 0x1 PUSH1 0x1 PUSH1 0x80 SHL SUB MUL NOT AND SWAP1 DUP4 PUSH1 0x1 PUSH1 0x1 PUSH1 0x80 SHL SUB AND MUL OR SWAP1 SSTORE POP PUSH2 0x141F PUSH1 0x0 DUP8 DUP2 SLOAD DUP2 LT PUSH2 0x13DE JUMPI PUSH2 0x13DE PUSH2 0x581B JUMP JUMPDEST SWAP1 PUSH1 0x0 MSTORE PUSH1 0x20 PUSH1 0x0 KECCAK256 SWAP1 PUSH1 0x4 MUL ADD PUSH1 0x1 ADD PUSH1 0x10 SWAP1 SLOAD SWAP1 PUSH2 0x100 EXP SWAP1 DIV PUSH1 0x1 PUSH1 0x1 PUSH1 0x80 SHL SUB AND PUSH1 0x1 PUSH1 0x1 PUSH1 0x80 SHL SUB AND PUSH1 0x0 DUP9 DUP2 SLOAD DUP2 LT PUSH2 0x106A JUMPI PUSH2 0x106A PUSH2 0x581B JUMP JUMPDEST PUSH1 0x0 DUP8 DUP2 SLOAD DUP2 LT PUSH2 0x1432 JUMPI PUSH2 0x1432 PUSH2 0x581B JUMP JUMPDEST SWAP1 PUSH1 0x0 MSTORE PUSH1 0x20 PUSH1 0x0 KECCAK256 SWAP1 PUSH1 0x4 MUL ADD PUSH1 0x2 ADD PUSH1 0x0 PUSH2 0x100 EXP DUP2 SLOAD DUP2 PUSH1 0x1 PUSH1 0x1 PUSH1 0x80 SHL SUB MUL NOT AND SWAP1 DUP4 PUSH1 0x1 PUSH1 0x1 PUSH1 0x80 SHL SUB AND MUL OR SWAP1 SSTORE POP PUSH32 0x64B83944E79C3CE8D4C297411DE637C3E102D064677AAC0C163976EBDCD6F50E DUP14 DUP14 DUP4 DUP6 PUSH1 0x40 MLOAD PUSH2 0x149C SWAP5 SWAP4 SWAP3 SWAP2 SWAP1 PUSH2 0x5AA1 JUMP JUMPDEST PUSH1 0x40 MLOAD DUP1 SWAP2 SUB SWAP1 LOG1 PUSH1 0x0 DUP1 MLOAD PUSH1 0x20 PUSH2 0x5C81 DUP4 CODECOPY DUP2 MLOAD SWAP2 MSTORE DUP14 PUSH1 0x0 DUP9 DUP2 SLOAD DUP2 LT PUSH2 0x14C7 JUMPI PUSH2 0x14C7 PUSH2 0x581B JUMP JUMPDEST PUSH1 0x0 SWAP2 DUP3 MSTORE PUSH1 0x20 DUP3 KECCAK256 PUSH1 0x1 PUSH1 0x4 SWAP1 SWAP3 MUL ADD ADD SLOAD DUP2 SLOAD PUSH1 0x1 PUSH1 0x1 PUSH1 0x80 SHL SUB SWAP1 SWAP2 AND SWAP2 SWAP1 DUP11 SWAP1 DUP2 LT PUSH2 0x14F9 JUMPI PUSH2 0x14F9 PUSH2 0x581B JUMP JUMPDEST SWAP1 PUSH1 0x0 MSTORE PUSH1 0x20 PUSH1 0x0 KECCAK256 SWAP1 PUSH1 0x4 MUL ADD PUSH1 0x1 ADD PUSH1 0x10 SWAP1 SLOAD SWAP1 PUSH2 0x100 EXP SWAP1 DIV PUSH1 0x1 PUSH1 0x1 PUSH1 0x80 SHL SUB AND PUSH1 0x0 DUP11 DUP2 SLOAD DUP2 LT PUSH2 0x1531 JUMPI PUSH2 0x1531 PUSH2 0x581B JUMP JUMPDEST SWAP1 PUSH1 0x0 MSTORE PUSH1 0x20 PUSH1 0x0 KECCAK256 SWAP1 PUSH1 0x4 MUL ADD PUSH1 0x3 ADD SLOAD PUSH1 0x40 MLOAD PUSH2 0x1553 SWAP5 SWAP4 SWAP3 SWAP2 SWAP1 PUSH2 0x5AC7 JUMP JUMPDEST PUSH1 0x40 MLOAD DUP1 SWAP2 SUB SWAP1 LOG1 POP SWAP12 SWAP11 POP POP POP POP POP POP POP POP POP POP POP JUMP JUMPDEST PUSH1 0x4 SLOAD PUSH1 0x0 SWAP1 PUSH1 0x1 PUSH1 0x1 PUSH1 0xA0 SHL SUB DUP6 DUP2 AND SWAP2 AND EQ DUP1 ISZERO SWAP1 PUSH2 0x1599 JUMPI POP PUSH1 0x4 SLOAD PUSH1 0x1 PUSH1 0x1 PUSH1 0xA0 SHL SUB DUP5 DUP2 AND SWAP2 AND EQ JUMPDEST ISZERO PUSH2 0x15AF JUMPI PUSH2 0x15A8 DUP5 DUP4 PUSH2 0x2D97 JUMP JUMPDEST SWAP1 POP PUSH2 0x1636 JUMP JUMPDEST PUSH1 0x4 SLOAD PUSH1 0x1 PUSH1 0x1 PUSH1 0xA0 SHL SUB DUP6 DUP2 AND SWAP2 AND EQ DUP1 ISZERO PUSH2 0x15DA JUMPI POP PUSH1 0x4 SLOAD PUSH1 0x1 PUSH1 0x1 PUSH1 0xA0 SHL SUB DUP5 DUP2 AND SWAP2 AND EQ ISZERO JUMPDEST ISZERO PUSH2 0x15E9 JUMPI PUSH2 0x15A8 DUP4 DUP4 PUSH2 0x2E89 JUMP JUMPDEST PUSH1 0x4 SLOAD PUSH1 0x1 PUSH1 0x1 PUSH1 0xA0 SHL SUB DUP6 DUP2 AND SWAP2 AND EQ DUP1 ISZERO SWAP1 PUSH2 0x1615 JUMPI POP PUSH1 0x4 SLOAD PUSH1 0x1 PUSH1 0x1 PUSH1 0xA0 SHL SUB DUP6 DUP2 AND SWAP2 AND EQ ISZERO JUMPDEST ISZERO PUSH2 0x1636 JUMPI PUSH1 0x0 PUSH2 0x1626 DUP6 DUP5 PUSH2 0x2D97 JUMP JUMPDEST SWAP1 POP PUSH2 0x1632 DUP5 DUP3 PUSH2 0x2E89 JUMP JUMPDEST SWAP2 POP POP JUMPDEST SWAP4 SWAP3 POP POP POP JUMP JUMPDEST PUSH1 0x1 PUSH1 0x1 PUSH1 0xA0 SHL SUB DUP2 AND PUSH1 0x0 SWAP1 DUP2 MSTORE PUSH1 0x1 PUSH1 0x20 MSTORE PUSH1 0x40 DUP2 KECCAK256 SLOAD PUSH2 0xA3D SWAP1 PUSH2 0x2F74 JUMP JUMPDEST PUSH1 0x60 DUP2 MLOAD DUP4 MLOAD EQ PUSH2 0x1683 JUMPI PUSH1 0x40 MLOAD PUSH4 0x80DADC27 PUSH1 0xE0 SHL DUP2 MSTORE PUSH1 0x4 ADD PUSH1 0x40 MLOAD DUP1 SWAP2 SUB SWAP1 REVERT JUMPDEST PUSH1 0x0 DUP4 MLOAD PUSH1 0x1 PUSH1 0x1 PUSH1 0x40 SHL SUB DUP2 GT ISZERO PUSH2 0x169E JUMPI PUSH2 0x169E PUSH2 0x50F5 JUMP JUMPDEST PUSH1 0x40 MLOAD SWAP1 DUP1 DUP3 MSTORE DUP1 PUSH1 0x20 MUL PUSH1 0x20 ADD DUP3 ADD PUSH1 0x40 MSTORE DUP1 ISZERO PUSH2 0x16C7 JUMPI DUP2 PUSH1 0x20 ADD PUSH1 0x20 DUP3 MUL DUP1 CALLDATASIZE DUP4 CALLDATACOPY ADD SWAP1 POP JUMPDEST POP SWAP1 POP PUSH1 0x0 JUMPDEST DUP5 MLOAD DUP2 LT ISZERO PUSH2 0xE8C JUMPI PUSH2 0x1712 DUP6 DUP3 DUP2 MLOAD DUP2 LT PUSH2 0x16EB JUMPI PUSH2 0x16EB PUSH2 0x581B JUMP JUMPDEST PUSH1 0x20 MUL PUSH1 0x20 ADD ADD MLOAD DUP6 DUP4 DUP2 MLOAD DUP2 LT PUSH2 0x1705 JUMPI PUSH2 0x1705 PUSH2 0x581B JUMP JUMPDEST PUSH1 0x20 MUL PUSH1 0x20 ADD ADD MLOAD PUSH2 0x81F JUMP JUMPDEST DUP3 DUP3 DUP2 MLOAD DUP2 LT PUSH2 0x1724 JUMPI PUSH2 0x1724 PUSH2 0x581B JUMP JUMPDEST PUSH1 0x20 SWAP1 DUP2 MUL SWAP2 SWAP1 SWAP2 ADD ADD MSTORE PUSH2 0x1738 DUP2 PUSH2 0x59E3 JUMP JUMPDEST SWAP1 POP PUSH2 0x16CD JUMP JUMPDEST PUSH2 0x174B DUP5 DUP5 DUP5 DUP5 PUSH2 0x3198 JUMP JUMPDEST POP POP POP POP JUMP JUMPDEST PUSH1 0x14 SLOAD PUSH1 0x1 PUSH1 0x1 PUSH1 0xA0 SHL SUB AND CALLER EQ PUSH2 0x177C JUMPI PUSH1 0x40 MLOAD PUSH4 0xEBF98459 PUSH1 0xE0 SHL DUP2 MSTORE PUSH1 0x4 ADD PUSH1 0x40 MLOAD DUP1 SWAP2 SUB SWAP1 REVERT JUMPDEST PUSH2 0x1786 PUSH1 0x0 PUSH2 0x3A36 JUMP JUMPDEST JUMP JUMPDEST PUSH1 0x1 PUSH1 0x1 PUSH1 0xA0 SHL SUB DUP3 AND PUSH1 0x0 SWAP1 DUP2 MSTORE PUSH1 0x1 PUSH1 0x20 MSTORE PUSH1 0x40 SWAP1 KECCAK256 SLOAD PUSH2 0x17AD DUP3 PUSH1 0x0 NOT PUSH2 0x5847 JUMP JUMPDEST PUSH1 0x0 DUP3 DUP2 SLOAD DUP2 LT PUSH2 0x17C0 JUMPI PUSH2 0x17C0 PUSH2 0x581B JUMP JUMPDEST SWAP1 PUSH1 0x0 MSTORE PUSH1 0x20 PUSH1 0x0 KECCAK256 SWAP1 PUSH1 0x4 MUL ADD PUSH1 0x3 ADD SLOAD GT ISZERO PUSH2 0x1804 JUMPI PUSH1 0x40 MLOAD PUSH3 0x461BCD PUSH1 0xE5 SHL DUP2 MSTORE PUSH1 0x20 PUSH1 0x4 DUP3 ADD MSTORE PUSH1 0x1 PUSH1 0x24 DUP3 ADD MSTORE PUSH1 0xB PUSH1 0xFB SHL PUSH1 0x44 DUP3 ADD MSTORE PUSH1 0x64 ADD PUSH2 0x8C1 JUMP JUMPDEST DUP2 PUSH1 0x0 DUP3 DUP2 SLOAD DUP2 LT PUSH2 0x1818 JUMPI PUSH2 0x1818 PUSH2 0x581B JUMP JUMPDEST SWAP1 PUSH1 0x0 MSTORE PUSH1 0x20 PUSH1 0x0 KECCAK256 SWAP1 PUSH1 0x4 MUL ADD PUSH1 0x3 ADD PUSH1 0x0 DUP3 DUP3 SLOAD PUSH2 0x1838 SWAP2 SWAP1 PUSH2 0x59FE JUMP JUMPDEST SWAP1 SWAP2 SSTORE POP POP PUSH1 0x4 DUP1 SLOAD PUSH1 0x40 MLOAD PUSH4 0x18A8AD87 PUSH1 0xE0 SHL DUP2 MSTORE CALLER SWAP3 DUP2 ADD SWAP3 SWAP1 SWAP3 MSTORE PUSH1 0x24 DUP3 ADD DUP5 SWAP1 MSTORE PUSH1 0x1 PUSH1 0x1 PUSH1 0xA0 SHL SUB AND SWAP1 PUSH4 0x18A8AD87 SWAP1 PUSH1 0x44 ADD PUSH1 0x0 PUSH1 0x40 MLOAD DUP1 DUP4 SUB DUP2 PUSH1 0x0 DUP8 DUP1 EXTCODESIZE ISZERO DUP1 ISZERO PUSH2 0x188A JUMPI PUSH1 0x0 DUP1 REVERT JUMPDEST POP GAS CALL ISZERO DUP1 ISZERO PUSH2 0x189E JUMPI RETURNDATASIZE PUSH1 0x0 DUP1 RETURNDATACOPY RETURNDATASIZE PUSH1 0x0 REVERT JUMPDEST POP POP POP POP PUSH1 0x0 DUP1 MLOAD PUSH1 0x20 PUSH2 0x5C81 DUP4 CODECOPY DUP2 MLOAD SWAP2 MSTORE DUP4 PUSH1 0x0 DUP4 DUP2 SLOAD DUP2 LT PUSH2 0x18C5 JUMPI PUSH2 0x18C5 PUSH2 0x581B JUMP JUMPDEST PUSH1 0x0 SWAP2 DUP3 MSTORE PUSH1 0x20 DUP3 KECCAK256 PUSH1 0x1 PUSH1 0x4 SWAP1 SWAP3 MUL ADD ADD SLOAD DUP2 SLOAD PUSH1 0x1 PUSH1 0x1 PUSH1 0x80 SHL SUB SWAP1 SWAP2 AND SWAP2 SWAP1 DUP6 SWAP1 DUP2 LT PUSH2 0x18F7 JUMPI PUSH2 0x18F7 PUSH2 0x581B JUMP JUMPDEST SWAP1 PUSH1 0x0 MSTORE PUSH1 0x20 PUSH1 0x0 KECCAK256 SWAP1 PUSH1 0x4 MUL ADD PUSH1 0x1 ADD PUSH1 0x10 SWAP1 SLOAD SWAP1 PUSH2 0x100 EXP SWAP1 DIV PUSH1 0x1 PUSH1 0x1 PUSH1 0x80 SHL SUB AND PUSH1 0x0 DUP6 DUP2 SLOAD DUP2 LT PUSH2 0x192F JUMPI PUSH2 0x192F PUSH2 0x581B JUMP JUMPDEST SWAP1 PUSH1 0x0 MSTORE PUSH1 0x20 PUSH1 0x0 KECCAK256 SWAP1 PUSH1 0x4 MUL ADD PUSH1 0x3 ADD SLOAD PUSH1 0x40 MLOAD PUSH2 0x1951 SWAP5 SWAP4 SWAP3 SWAP2 SWAP1 PUSH2 0x5AC7 JUMP JUMPDEST PUSH1 0x40 MLOAD DUP1 SWAP2 SUB SWAP1 LOG1 POP POP POP JUMP JUMPDEST PUSH1 0x1 PUSH1 0x1 PUSH1 0xA0 SHL SUB DUP5 AND PUSH1 0x0 SWAP1 DUP2 MSTORE PUSH1 0x1 PUSH1 0x20 MSTORE PUSH1 0x40 DUP2 KECCAK256 SLOAD DUP6 SWAP1 ISZERO DUP1 PUSH2 0x1992 JUMPI POP PUSH1 0x4 SLOAD PUSH1 0x1 PUSH1 0x1 PUSH1 0xA0 SHL SUB DUP3 DUP2 AND SWAP2 AND EQ JUMPDEST ISZERO PUSH2 0x19AF JUMPI PUSH1 0x40 MLOAD PUSH3 0x461BCD PUSH1 0xE5 SHL DUP2 MSTORE PUSH1 0x4 ADD PUSH2 0x8C1 SWAP1 PUSH2 0x5800 JUMP JUMPDEST DUP4 DUP1 TIMESTAMP GT ISZERO PUSH2 0x19D0 JUMPI PUSH1 0x40 MLOAD PUSH3 0x461BCD PUSH1 0xE5 SHL DUP2 MSTORE PUSH1 0x4 ADD PUSH2 0x8C1 SWAP1 PUSH2 0x5A16 JUMP JUMPDEST PUSH2 0x19DB DUP8 DUP8 DUP7 PUSH2 0x3A88 JUMP JUMPDEST SWAP8 SWAP7 POP POP POP POP POP POP POP JUMP JUMPDEST PUSH2 0x174B DUP5 DUP5 DUP5 PUSH1 0x0 DUP6 PUSH2 0x4022 JUMP JUMPDEST PUSH2 0x1A36 PUSH1 0x40 MLOAD DUP1 PUSH1 0xC0 ADD PUSH1 0x40 MSTORE DUP1 PUSH1 0x0 PUSH1 0x1 PUSH1 0x1 PUSH1 0xA0 SHL SUB AND DUP2 MSTORE PUSH1 0x20 ADD PUSH1 0x0 DUP2 MSTORE PUSH1 0x20 ADD PUSH1 0x0 DUP2 MSTORE PUSH1 0x20 ADD PUSH1 0x0 DUP2 MSTORE PUSH1 0x20 ADD PUSH1 0x0 DUP2 MSTORE PUSH1 0x20 ADD PUSH1 0x0 DUP2 MSTORE POP SWAP1 JUMP JUMPDEST POP PUSH1 0x40 DUP1 MLOAD PUSH1 0xC0 DUP2 ADD DUP3 MSTORE PUSH1 0x7 SLOAD PUSH1 0x1 PUSH1 0x1 PUSH1 0xA0 SHL SUB AND DUP2 MSTORE PUSH1 0x8 SLOAD PUSH1 0x20 DUP3 ADD MSTORE PUSH1 0x9 SLOAD SWAP2 DUP2 ADD SWAP2 SWAP1 SWAP2 MSTORE PUSH1 0xA SLOAD PUSH1 0x60 DUP3 ADD MSTORE PUSH1 0xB SLOAD PUSH1 0x80 DUP3 ADD MSTORE PUSH1 0xC SLOAD PUSH1 0xA0 DUP3 ADD MSTORE SWAP1 JUMP JUMPDEST PUSH1 0x60 PUSH1 0x12 DUP1 SLOAD PUSH2 0xA52 SWAP1 PUSH2 0x587B JUMP JUMPDEST PUSH1 0x1 PUSH1 0x1 PUSH1 0xA0 SHL SUB DUP2 AND PUSH1 0x0 SWAP1 DUP2 MSTORE PUSH1 0x1 PUSH1 0x20 MSTORE PUSH1 0x40 SWAP1 KECCAK256 SLOAD DUP2 SWAP1 ISZERO DUP1 PUSH2 0x1ABF JUMPI POP PUSH1 0x4 SLOAD PUSH1 0x1 PUSH1 0x1 PUSH1 0xA0 SHL SUB DUP3 DUP2 AND SWAP2 AND EQ JUMPDEST ISZERO PUSH2 0x1ADC JUMPI PUSH1 0x40 MLOAD PUSH3 0x461BCD PUSH1 0xE5 SHL DUP2 MSTORE PUSH1 0x4 ADD PUSH2 0x8C1 SWAP1 PUSH2 0x5800 JUMP JUMPDEST PUSH1 0x1 PUSH1 0x1 PUSH1 0xA0 SHL SUB DUP3 AND PUSH1 0x0 SWAP1 DUP2 MSTORE PUSH1 0x1 PUSH1 0x20 MSTORE PUSH1 0x40 SWAP1 KECCAK256 SLOAD PUSH2 0x1AFE DUP4 PUSH2 0x2891 JUMP JUMPDEST PUSH1 0x0 DUP3 DUP2 SLOAD DUP2 LT PUSH2 0x1B11 JUMPI PUSH2 0x1B11 PUSH2 0x581B JUMP JUMPDEST PUSH1 0x0 SWAP2 DUP3 MSTORE PUSH1 0x20 DUP3 KECCAK256 PUSH1 0x4 SWAP2 DUP3 MUL ADD PUSH1 0x1 ADD DUP1 SLOAD PUSH1 0x1 PUSH1 0x1 PUSH1 0x80 SHL SUB NOT AND PUSH1 0x1 PUSH1 0x1 PUSH1 0x80 SHL SUB SWAP5 SWAP1 SWAP5 AND SWAP4 SWAP1 SWAP4 OR SWAP1 SWAP3 SSTORE SWAP1 SLOAD PUSH2 0x1B56 SWAP1 PUSH1 0x1 PUSH1 0x1 PUSH1 0xA0 SHL SUB AND PUSH2 0x2891 JUMP JUMPDEST SWAP1 POP PUSH1 0x2 SLOAD DUP2 PUSH1 0x0 DUP5 DUP2 SLOAD DUP2 LT PUSH2 0x1B6F JUMPI PUSH2 0x1B6F PUSH2 0x581B JUMP JUMPDEST PUSH1 0x0 SWAP2 DUP3 MSTORE PUSH1 0x20 SWAP1 SWAP2 KECCAK256 PUSH1 0x4 SWAP1 SWAP2 MUL ADD PUSH1 0x1 ADD SLOAD PUSH2 0x1B9D SWAP2 SWAP1 PUSH1 0x1 PUSH1 0x80 SHL SWAP1 DIV PUSH1 0x1 PUSH1 0x1 PUSH1 0x80 SHL SUB AND PUSH2 0x59FE JUMP JUMPDEST PUSH2 0x1BA7 SWAP2 SWAP1 PUSH2 0x5847 JUMP JUMPDEST PUSH1 0x0 DUP4 DUP2 SLOAD DUP2 LT PUSH2 0x1BBA JUMPI PUSH2 0x1BBA PUSH2 0x581B JUMP JUMPDEST SWAP1 PUSH1 0x0 MSTORE PUSH1 0x20 PUSH1 0x0 KECCAK256 SWAP1 PUSH1 0x4 MUL ADD PUSH1 0x1 ADD PUSH1 0x10 PUSH2 0x100 EXP DUP2 SLOAD DUP2 PUSH1 0x1 PUSH1 0x1 PUSH1 0x80 SHL SUB MUL NOT AND SWAP1 DUP4 PUSH1 0x1 PUSH1 0x1 PUSH1 0x80 SHL SUB AND MUL OR SWAP1 SSTORE POP PUSH1 0x2 SLOAD DUP2 PUSH1 0x0 DUP5 DUP2 SLOAD DUP2 LT PUSH2 0x1C06 JUMPI PUSH2 0x1C06 PUSH2 0x581B JUMP JUMPDEST SWAP1 PUSH1 0x0 MSTORE PUSH1 0x20 PUSH1 0x0 KECCAK256 SWAP1 PUSH1 0x4 MUL ADD PUSH1 0x3 ADD SLOAD PUSH2 0x1C22 SWAP2 SWAP1 PUSH2 0x59FE JUMP JUMPDEST PUSH2 0x1C2C SWAP2 SWAP1 PUSH2 0x5847 JUMP JUMPDEST PUSH1 0x0 DUP4 DUP2 SLOAD DUP2 LT PUSH2 0x1C3F JUMPI PUSH2 0x1C3F PUSH2 0x581B JUMP JUMPDEST SWAP1 PUSH1 0x0 MSTORE PUSH1 0x20 PUSH1 0x0 KECCAK256 SWAP1 PUSH1 0x4 MUL ADD PUSH1 0x3 ADD DUP2 SWAP1 SSTORE POP DUP1 PUSH1 0x2 DUP2 SWAP1 SSTORE POP PUSH1 0x0 DUP1 MLOAD PUSH1 0x20 PUSH2 0x5C81 DUP4 CODECOPY DUP2 MLOAD SWAP2 MSTORE DUP5 PUSH1 0x0 DUP5 DUP2 SLOAD DUP2 LT PUSH2 0x1C7E JUMPI PUSH2 0x1C7E PUSH2 0x581B JUMP JUMPDEST PUSH1 0x0 SWAP2 DUP3 MSTORE PUSH1 0x20 DUP3 KECCAK256 PUSH1 0x1 PUSH1 0x4 SWAP1 SWAP3 MUL ADD ADD SLOAD DUP2 SLOAD PUSH1 0x1 PUSH1 0x1 PUSH1 0x80 SHL SUB SWAP1 SWAP2 AND SWAP2 SWAP1 DUP7 SWAP1 DUP2 LT PUSH2 0x1CB0 JUMPI PUSH2 0x1CB0 PUSH2 0x581B JUMP JUMPDEST SWAP1 PUSH1 0x0 MSTORE PUSH1 0x20 PUSH1 0x0 KECCAK256 SWAP1 PUSH1 0x4 MUL ADD PUSH1 0x1 ADD PUSH1 0x10 SWAP1 SLOAD SWAP1 PUSH2 0x100 EXP SWAP1 DIV PUSH1 0x1 PUSH1 0x1 PUSH1 0x80 SHL SUB AND PUSH1 0x0 DUP7 DUP2 SLOAD DUP2 LT PUSH2 0x1CE8 JUMPI PUSH2 0x1CE8 PUSH2 0x581B JUMP JUMPDEST SWAP1 PUSH1 0x0 MSTORE PUSH1 0x20 PUSH1 0x0 KECCAK256 SWAP1 PUSH1 0x4 MUL ADD PUSH1 0x3 ADD SLOAD PUSH1 0x40 MLOAD PUSH2 0x1D0A SWAP5 SWAP4 SWAP3 SWAP2 SWAP1 PUSH2 0x5AC7 JUMP JUMPDEST PUSH1 0x40 MLOAD DUP1 SWAP2 SUB SWAP1 LOG1 POP POP POP POP JUMP JUMPDEST PUSH1 0x0 PUSH2 0x1D24 PUSH1 0x3 PUSH2 0x9C6 JUMP JUMPDEST SWAP1 POP DUP1 PUSH1 0x1 PUSH1 0x1 PUSH1 0xA0 SHL SUB AND PUSH4 0xEEF84BA1 PUSH1 0x40 MLOAD DUP2 PUSH4 0xFFFFFFFF AND PUSH1 0xE0 SHL DUP2 MSTORE PUSH1 0x4 ADD PUSH1 0x0 PUSH1 0x40 MLOAD DUP1 DUP4 SUB DUP2 PUSH1 0x0 DUP8 DUP1 EXTCODESIZE ISZERO DUP1 ISZERO PUSH2 0x1D61 JUMPI PUSH1 0x0 DUP1 REVERT JUMPDEST POP GAS CALL ISZERO DUP1 ISZERO PUSH2 0x1D75 JUMPI RETURNDATASIZE PUSH1 0x0 DUP1 RETURNDATACOPY RETURNDATASIZE PUSH1 0x0 REVERT JUMPDEST POP POP POP POP PUSH2 0xBAB PUSH2 0x1D83 CALLER SWAP1 JUMP JUMPDEST DUP5 DUP5 PUSH2 0x43BF JUMP JUMPDEST PUSH1 0x0 DUP1 DUP4 DUP1 TIMESTAMP GT ISZERO PUSH2 0x1DAE JUMPI PUSH1 0x40 MLOAD PUSH3 0x461BCD PUSH1 0xE5 SHL DUP2 MSTORE PUSH1 0x4 ADD PUSH2 0x8C1 SWAP1 PUSH2 0x5A16 JUMP JUMPDEST PUSH1 0x1 DUP8 GT PUSH2 0x1DCE JUMPI PUSH1 0x40 MLOAD PUSH3 0x461BCD PUSH1 0xE5 SHL DUP2 MSTORE PUSH1 0x4 ADD PUSH2 0x8C1 SWAP1 PUSH2 0x5A31 JUMP JUMPDEST PUSH1 0x4 SLOAD CALLER SWAP1 PUSH1 0x0 SWAP1 PUSH1 0x1 PUSH1 0x1 PUSH1 0xA0 SHL SUB DUP13 DUP2 AND SWAP2 AND EQ DUP1 ISZERO SWAP1 PUSH2 0x1DFE JUMPI POP PUSH1 0x4 SLOAD PUSH1 0x1 PUSH1 0x1 PUSH1 0xA0 SHL SUB DUP12 DUP2 AND SWAP2 AND EQ JUMPDEST ISZERO PUSH2 0x1E60 JUMPI PUSH2 0x1E0D DUP12 DUP11 PUSH2 0x2D97 JUMP JUMPDEST SWAP1 POP DUP8 DUP2 LT ISZERO PUSH2 0x1E43 JUMPI PUSH1 0x40 MLOAD PUSH3 0x461BCD PUSH1 0xE5 SHL DUP2 MSTORE PUSH1 0x20 PUSH1 0x4 DUP3 ADD MSTORE PUSH1 0x1 PUSH1 0x24 DUP3 ADD MSTORE PUSH1 0x9 PUSH1 0xFB SHL PUSH1 0x44 DUP3 ADD MSTORE PUSH1 0x64 ADD PUSH2 0x8C1 JUMP JUMPDEST PUSH2 0x1E4E DUP12 DUP4 DUP12 PUSH2 0x2B06 JUMP JUMPDEST PUSH2 0x1E5B DUP12 PUSH1 0x0 DUP4 DUP10 PUSH2 0x3198 JUMP JUMPDEST PUSH2 0x1FBE JUMP JUMPDEST PUSH1 0x4 SLOAD PUSH1 0x1 PUSH1 0x1 PUSH1 0xA0 SHL SUB DUP13 DUP2 AND SWAP2 AND EQ DUP1 ISZERO PUSH2 0x1E8B JUMPI POP PUSH1 0x4 SLOAD PUSH1 0x1 PUSH1 0x1 PUSH1 0xA0 SHL SUB DUP12 DUP2 AND SWAP2 AND EQ ISZERO JUMPDEST ISZERO PUSH2 0x1EE8 JUMPI PUSH2 0x1E9A DUP11 DUP11 PUSH2 0x2E89 JUMP JUMPDEST SWAP1 POP DUP8 DUP2 LT ISZERO PUSH2 0x1ED0 JUMPI PUSH1 0x40 MLOAD PUSH3 0x461BCD PUSH1 0xE5 SHL DUP2 MSTORE PUSH1 0x20 PUSH1 0x4 DUP3 ADD MSTORE PUSH1 0x1 PUSH1 0x24 DUP3 ADD MSTORE PUSH1 0x69 PUSH1 0xF8 SHL PUSH1 0x44 DUP3 ADD MSTORE PUSH1 0x64 ADD PUSH2 0x8C1 JUMP JUMPDEST PUSH2 0x1EDB DUP12 DUP4 DUP12 PUSH2 0x2B06 JUMP JUMPDEST PUSH2 0x1E5B DUP11 DUP3 PUSH1 0x0 DUP10 PUSH2 0x3198 JUMP JUMPDEST PUSH1 0x4 SLOAD PUSH1 0x1 PUSH1 0x1 PUSH1 0xA0 SHL SUB DUP13 DUP2 AND SWAP2 AND EQ DUP1 ISZERO SWAP1 PUSH2 0x1F14 JUMPI POP PUSH1 0x4 SLOAD PUSH1 0x1 PUSH1 0x1 PUSH1 0xA0 SHL SUB DUP13 DUP2 AND SWAP2 AND EQ ISZERO JUMPDEST ISZERO PUSH2 0x1F92 JUMPI PUSH1 0x0 PUSH2 0x1F25 DUP13 DUP12 PUSH2 0x2D97 JUMP JUMPDEST SWAP1 POP PUSH2 0x1F31 DUP12 DUP3 PUSH2 0x2E89 JUMP JUMPDEST SWAP2 POP DUP9 DUP3 LT ISZERO PUSH2 0x1F67 JUMPI PUSH1 0x40 MLOAD PUSH3 0x461BCD PUSH1 0xE5 SHL DUP2 MSTORE PUSH1 0x20 PUSH1 0x4 DUP3 ADD MSTORE PUSH1 0x1 PUSH1 0x24 DUP3 ADD MSTORE PUSH1 0x69 PUSH1 0xF8 SHL PUSH1 0x44 DUP3 ADD MSTORE PUSH1 0x64 ADD PUSH2 0x8C1 JUMP JUMPDEST PUSH2 0x1F72 DUP13 DUP5 DUP13 PUSH2 0x2B06 JUMP JUMPDEST PUSH2 0x1F7F DUP13 PUSH1 0x0 DUP4 ADDRESS PUSH2 0x3198 JUMP JUMPDEST PUSH2 0x1F8C DUP12 DUP4 PUSH1 0x0 DUP11 PUSH2 0x3198 JUMP JUMPDEST POP PUSH2 0x1FBE JUMP JUMPDEST PUSH1 0x40 MLOAD PUSH3 0x461BCD PUSH1 0xE5 SHL DUP2 MSTORE PUSH1 0x20 PUSH1 0x4 DUP3 ADD MSTORE PUSH1 0x1 PUSH1 0x24 DUP3 ADD MSTORE PUSH1 0x13 PUSH1 0xFA SHL PUSH1 0x44 DUP3 ADD MSTORE PUSH1 0x64 ADD PUSH2 0x8C1 JUMP JUMPDEST SWAP8 SWAP11 SWAP8 SWAP10 POP SWAP7 SWAP8 POP POP POP POP POP POP POP POP JUMP JUMPDEST PUSH1 0x60 PUSH1 0x0 DUP3 PUSH1 0x1 PUSH1 0x1 PUSH1 0x40 SHL SUB DUP2 GT ISZERO PUSH2 0x1FEB JUMPI PUSH2 0x1FEB PUSH2 0x50F5 JUMP JUMPDEST PUSH1 0x40 MLOAD SWAP1 DUP1 DUP3 MSTORE DUP1 PUSH1 0x20 MUL PUSH1 0x20 ADD DUP3 ADD PUSH1 0x40 MSTORE DUP1 ISZERO PUSH2 0x2024 JUMPI DUP2 PUSH1 0x20 ADD JUMPDEST PUSH2 0x2011 PUSH2 0x4E4E JUMP JUMPDEST DUP2 MSTORE PUSH1 0x20 ADD SWAP1 PUSH1 0x1 SWAP1 SUB SWAP1 DUP2 PUSH2 0x2009 JUMPI SWAP1 POP JUMPDEST POP SWAP1 POP PUSH1 0x0 JUMPDEST DUP4 DUP2 LT ISZERO PUSH2 0xE8C JUMPI PUSH1 0x0 DUP6 DUP6 DUP4 DUP2 DUP2 LT PUSH2 0x2046 JUMPI PUSH2 0x2046 PUSH2 0x581B JUMP JUMPDEST SWAP1 POP PUSH1 0x20 MUL ADD CALLDATALOAD DUP2 SLOAD DUP2 LT PUSH2 0x205D JUMPI PUSH2 0x205D PUSH2 0x581B JUMP JUMPDEST PUSH1 0x0 SWAP2 DUP3 MSTORE PUSH1 0x20 SWAP1 SWAP2 KECCAK256 PUSH1 0x40 DUP1 MLOAD PUSH2 0x1A0 DUP2 ADD SWAP1 SWAP2 MSTORE SWAP2 PUSH1 0x4 MUL ADD DUP2 PUSH1 0xA0 DUP2 ADD DUP3 PUSH1 0x8 DUP3 DUP3 DUP3 PUSH1 0x20 MUL DUP3 ADD SWAP2 PUSH1 0x0 SWAP1 JUMPDEST DUP3 DUP3 SWAP1 SLOAD SWAP1 PUSH2 0x100 EXP SWAP1 DIV PUSH4 0xFFFFFFFF AND PUSH4 0xFFFFFFFF AND DUP2 MSTORE PUSH1 0x20 ADD SWAP1 PUSH1 0x4 ADD SWAP1 PUSH1 0x20 DUP3 PUSH1 0x3 ADD DIV SWAP3 DUP4 ADD SWAP3 PUSH1 0x1 SUB DUP3 MUL SWAP2 POP DUP1 DUP5 GT PUSH2 0x208D JUMPI POP POP POP SWAP3 DUP5 MSTORE POP POP POP PUSH1 0x1 DUP3 ADD SLOAD PUSH1 0x1 PUSH1 0x1 PUSH1 0x80 SHL SUB DUP1 DUP3 AND PUSH1 0x20 DUP5 ADD MSTORE PUSH1 0x1 PUSH1 0x80 SHL SWAP1 SWAP2 DIV DUP2 AND PUSH1 0x40 DUP4 ADD MSTORE PUSH1 0x2 DUP4 ADD SLOAD AND PUSH1 0x60 DUP3 ADD MSTORE PUSH1 0x3 SWAP1 SWAP2 ADD SLOAD PUSH1 0x80 SWAP1 SWAP2 ADD MSTORE DUP3 MLOAD DUP4 SWAP1 DUP4 SWAP1 DUP2 LT PUSH2 0x211F JUMPI PUSH2 0x211F PUSH2 0x581B JUMP JUMPDEST PUSH1 0x20 MUL PUSH1 0x20 ADD ADD DUP2 SWAP1 MSTORE POP DUP1 DUP1 PUSH2 0x2135 SWAP1 PUSH2 0x59E3 JUMP JUMPDEST SWAP2 POP POP PUSH2 0x202A JUMP JUMPDEST PUSH1 0x14 SLOAD PUSH1 0x1 PUSH1 0x1 PUSH1 0xA0 SHL SUB AND CALLER EQ PUSH2 0x2168 JUMPI PUSH1 0x40 MLOAD PUSH4 0xEBF98459 PUSH1 0xE0 SHL DUP2 MSTORE PUSH1 0x4 ADD PUSH1 0x40 MLOAD DUP1 SWAP2 SUB SWAP1 REVERT JUMPDEST PUSH2 0x2190 DUP2 PUSH1 0x40 MLOAD PUSH1 0x20 ADD PUSH2 0x217C SWAP2 SWAP1 PUSH2 0x5AF7 JUMP JUMPDEST PUSH1 0x40 MLOAD PUSH1 0x20 DUP2 DUP4 SUB SUB DUP2 MSTORE SWAP1 PUSH1 0x40 MSTORE PUSH2 0x445F JUMP JUMPDEST DUP1 MLOAD PUSH2 0x21A3 SWAP1 PUSH1 0x13 SWAP1 PUSH1 0x20 DUP5 ADD SWAP1 PUSH2 0x4E83 JUMP JUMPDEST POP POP JUMP JUMPDEST PUSH1 0x3 SLOAD PUSH2 0x21D3 SWAP1 PUSH1 0x1 PUSH1 0x1 PUSH1 0xA0 SHL SUB AND PUSH10 0xD3C21BCECCEDA1000000 PUSH10 0x69E10DE76676D0800000 CALLER PUSH2 0x2456 JUMP JUMPDEST PUSH1 0x5 SLOAD PUSH2 0x1786 SWAP1 PUSH1 0x1 PUSH1 0x1 PUSH1 0xA0 SHL SUB AND PUSH10 0x943B1377290CBD800000 DUP1 CALLER PUSH2 0x2456 JUMP JUMPDEST PUSH1 0x14 SLOAD PUSH1 0x1 PUSH1 0x1 PUSH1 0xA0 SHL SUB AND CALLER EQ PUSH2 0x2220 JUMPI PUSH1 0x40 MLOAD PUSH4 0xEBF98459 PUSH1 0xE0 SHL DUP2 MSTORE PUSH1 0x4 ADD PUSH1 0x40 MLOAD DUP1 SWAP2 SUB SWAP1 REVERT JUMPDEST PUSH1 0x6 SLOAD PUSH2 0x1786 SWAP1 PUSH1 0x1 PUSH1 0x1 PUSH1 0xA0 SHL SUB AND PUSH7 0x38D7EA4C68000 PUSH10 0xD3C21BCECCEDA1000000 CALLER PUSH2 0x2456 JUMP JUMPDEST PUSH1 0x4 SLOAD PUSH1 0x0 SWAP1 PUSH1 0x1 PUSH1 0x1 PUSH1 0xA0 SHL SUB DUP6 DUP2 AND SWAP2 AND EQ DUP1 ISZERO SWAP1 PUSH2 0x2277 JUMPI POP PUSH1 0x4 SLOAD PUSH1 0x1 PUSH1 0x1 PUSH1 0xA0 SHL SUB DUP5 DUP2 AND SWAP2 AND EQ JUMPDEST ISZERO PUSH2 0x2286 JUMPI PUSH2 0x15A8 DUP5 DUP4 PUSH2 0x4472 JUMP JUMPDEST PUSH1 0x4 SLOAD PUSH1 0x1 PUSH1 0x1 PUSH1 0xA0 SHL SUB DUP6 DUP2 AND SWAP2 AND EQ DUP1 ISZERO PUSH2 0x22B1 JUMPI POP PUSH1 0x4 SLOAD PUSH1 0x1 PUSH1 0x1 PUSH1 0xA0 SHL SUB DUP5 DUP2 AND SWAP2 AND EQ ISZERO JUMPDEST ISZERO PUSH2 0x22C0 JUMPI PUSH2 0x15A8 DUP4 DUP4 PUSH2 0x455B JUMP JUMPDEST PUSH1 0x4 SLOAD PUSH1 0x1 PUSH1 0x1 PUSH1 0xA0 SHL SUB DUP6 DUP2 AND SWAP2 AND EQ DUP1 ISZERO SWAP1 PUSH2 0x22EC JUMPI POP PUSH1 0x4 SLOAD PUSH1 0x1 PUSH1 0x1 PUSH1 0xA0 SHL SUB DUP5 DUP2 AND SWAP2 AND EQ ISZERO JUMPDEST ISZERO PUSH2 0x1636 JUMPI PUSH1 0x0 PUSH2 0x22FD DUP5 DUP5 PUSH2 0x455B JUMP JUMPDEST SWAP1 POP PUSH2 0x1632 DUP6 DUP3 PUSH2 0x4472 JUMP JUMPDEST PUSH1 0x14 SLOAD PUSH1 0x1 PUSH1 0x1 PUSH1 0xA0 SHL SUB AND CALLER EQ PUSH2 0x2334 JUMPI PUSH1 0x40 MLOAD PUSH4 0xEBF98459 PUSH1 0xE0 SHL DUP2 MSTORE PUSH1 0x4 ADD PUSH1 0x40 MLOAD DUP1 SWAP2 SUB SWAP1 REVERT JUMPDEST PUSH1 0x1 PUSH1 0x1 PUSH1 0xA0 SHL SUB DUP3 AND PUSH1 0x0 SWAP1 DUP2 MSTORE PUSH1 0x1 PUSH1 0x20 MSTORE PUSH1 0x40 SWAP1 KECCAK256 SLOAD DUP3 SWAP1 ISZERO DUP1 PUSH2 0x2368 JUMPI POP PUSH1 0x4 SLOAD PUSH1 0x1 PUSH1 0x1 PUSH1 0xA0 SHL SUB DUP3 DUP2 AND SWAP2 AND EQ JUMPDEST ISZERO PUSH2 0x2385 JUMPI PUSH1 0x40 MLOAD PUSH3 0x461BCD PUSH1 0xE5 SHL DUP2 MSTORE PUSH1 0x4 ADD PUSH2 0x8C1 SWAP1 PUSH2 0x5800 JUMP JUMPDEST PUSH1 0x1 PUSH1 0x1 PUSH1 0xA0 SHL SUB DUP4 AND PUSH1 0x0 SWAP1 DUP2 MSTORE PUSH1 0x1 PUSH1 0x20 MSTORE PUSH1 0x40 DUP2 KECCAK256 SLOAD DUP2 SLOAD SWAP1 SWAP2 DUP5 SWAP2 DUP4 SWAP1 DUP2 LT PUSH2 0x23B4 JUMPI PUSH2 0x23B4 PUSH2 0x581B JUMP JUMPDEST SWAP1 PUSH1 0x0 MSTORE PUSH1 0x20 PUSH1 0x0 KECCAK256 SWAP1 PUSH1 0x4 MUL ADD PUSH1 0x3 ADD DUP2 SWAP1 SSTORE POP PUSH1 0x0 DUP1 MLOAD PUSH1 0x20 PUSH2 0x5C81 DUP4 CODECOPY DUP2 MLOAD SWAP2 MSTORE DUP5 PUSH1 0x0 DUP4 DUP2 SLOAD DUP2 LT PUSH2 0x23EC JUMPI PUSH2 0x23EC PUSH2 0x581B JUMP JUMPDEST PUSH1 0x0 SWAP2 DUP3 MSTORE PUSH1 0x20 DUP3 KECCAK256 PUSH1 0x1 PUSH1 0x4 SWAP1 SWAP3 MUL ADD ADD SLOAD DUP2 SLOAD PUSH1 0x1 PUSH1 0x1 PUSH1 0x80 SHL SUB SWAP1 SWAP2 AND SWAP2 SWAP1 DUP6 SWAP1 DUP2 LT PUSH2 0x241E JUMPI PUSH2 0x241E PUSH2 0x581B JUMP JUMPDEST SWAP1 PUSH1 0x0 MSTORE PUSH1 0x20 PUSH1 0x0 KECCAK256 SWAP1 PUSH1 0x4 MUL ADD PUSH1 0x1 ADD PUSH1 0x10 SWAP1 SLOAD SWAP1 PUSH2 0x100 EXP SWAP1 DIV PUSH1 0x1 PUSH1 0x1 PUSH1 0x80 SHL SUB AND PUSH1 0x0 DUP6 DUP2 SLOAD DUP2 LT PUSH2 0x1CE8 JUMPI PUSH2 0x1CE8 PUSH2 0x581B JUMP JUMPDEST PUSH1 0x14 SLOAD PUSH1 0x1 PUSH1 0x1 PUSH1 0xA0 SHL SUB AND CALLER EQ PUSH2 0x2481 JUMPI PUSH1 0x40 MLOAD PUSH4 0xEBF98459 PUSH1 0xE0 SHL DUP2 MSTORE PUSH1 0x4 ADD PUSH1 0x40 MLOAD DUP1 SWAP2 SUB SWAP1 REVERT JUMPDEST PUSH2 0x174B DUP5 DUP5 DUP5 PUSH1 0x0 NOT DUP6 PUSH2 0x4022 JUMP JUMPDEST PUSH1 0x3 DUP1 SLOAD PUSH1 0x1 PUSH1 0x1 PUSH1 0xA0 SHL SUB DUP1 DUP8 AND PUSH1 0x1 PUSH1 0x1 PUSH1 0xA0 SHL SUB NOT SWAP3 DUP4 AND OR SWAP1 SWAP3 SSTORE PUSH1 0x4 DUP1 SLOAD DUP7 DUP5 AND SWAP1 DUP4 AND OR SWAP1 SSTORE PUSH1 0x5 DUP1 SLOAD SWAP3 DUP6 AND SWAP3 SWAP1 SWAP2 AND SWAP2 SWAP1 SWAP2 OR SWAP1 SSTORE PUSH2 0x24D5 PUSH2 0x21A7 JUMP JUMPDEST POP POP POP POP POP JUMP JUMPDEST PUSH1 0x0 PUSH2 0x24E8 PUSH1 0x3 PUSH2 0x9C6 JUMP JUMPDEST SWAP1 POP DUP1 PUSH1 0x1 PUSH1 0x1 PUSH1 0xA0 SHL SUB AND PUSH4 0xEEF84BA1 PUSH1 0x40 MLOAD DUP2 PUSH4 0xFFFFFFFF AND PUSH1 0xE0 SHL DUP2 MSTORE PUSH1 0x4 ADD PUSH1 0x0 PUSH1 0x40 MLOAD DUP1 DUP4 SUB DUP2 PUSH1 0x0 DUP8 DUP1 EXTCODESIZE ISZERO DUP1 ISZERO PUSH2 0x2525 JUMPI PUSH1 0x0 DUP1 REVERT JUMPDEST POP GAS CALL ISZERO DUP1 ISZERO PUSH2 0x2539 JUMPI RETURNDATASIZE PUSH1 0x0 DUP1 RETURNDATACOPY RETURNDATASIZE PUSH1 0x0 REVERT JUMPDEST POP POP POP POP PUSH2 0x2544 CALLER SWAP1 JUMP JUMPDEST PUSH1 0x1 PUSH1 0x1 PUSH1 0xA0 SHL SUB AND DUP7 PUSH1 0x1 PUSH1 0x1 PUSH1 0xA0 SHL SUB AND EQ ISZERO DUP1 ISZERO PUSH2 0x256C JUMPI POP PUSH2 0x256A DUP7 CALLER PUSH2 0x77E JUMP JUMPDEST ISZERO JUMPDEST ISZERO PUSH2 0x258A JUMPI PUSH1 0x40 MLOAD PUSH4 0xDE69555 PUSH1 0xE3 SHL DUP2 MSTORE PUSH1 0x4 ADD PUSH1 0x40 MLOAD DUP1 SWAP2 SUB SWAP1 REVERT JUMPDEST PUSH2 0xCE3 DUP7 DUP7 DUP7 DUP7 DUP7 PUSH2 0x4646 JUMP JUMPDEST PUSH1 0x14 SLOAD PUSH1 0x1 PUSH1 0x1 PUSH1 0xA0 SHL SUB AND CALLER EQ PUSH2 0x25C2 JUMPI PUSH1 0x40 MLOAD PUSH4 0xEBF98459 PUSH1 0xE0 SHL DUP2 MSTORE PUSH1 0x4 ADD PUSH1 0x40 MLOAD DUP1 SWAP2 SUB SWAP1 REVERT JUMPDEST PUSH1 0x1 PUSH1 0x1 PUSH1 0xA0 SHL SUB DUP2 AND PUSH2 0x25E9 JUMPI PUSH1 0x40 MLOAD PUSH4 0x5868B79D PUSH1 0xE0 SHL DUP2 MSTORE PUSH1 0x4 ADD PUSH1 0x40 MLOAD DUP1 SWAP2 SUB SWAP1 REVERT JUMPDEST PUSH2 0x25F2 DUP2 PUSH2 0x3A36 JUMP JUMPDEST POP JUMP JUMPDEST PUSH1 0x0 DUP1 DUP4 DUP1 TIMESTAMP GT ISZERO PUSH2 0x2619 JUMPI PUSH1 0x40 MLOAD PUSH3 0x461BCD PUSH1 0xE5 SHL DUP2 MSTORE PUSH1 0x4 ADD PUSH2 0x8C1 SWAP1 PUSH2 0x5A16 JUMP JUMPDEST PUSH1 0x4 SLOAD CALLER SWAP1 PUSH1 0x0 SWAP1 PUSH1 0x1 PUSH1 0x1 PUSH1 0xA0 SHL SUB DUP13 DUP2 AND SWAP2 AND EQ DUP1 ISZERO SWAP1 PUSH2 0x2649 JUMPI POP PUSH1 0x4 SLOAD PUSH1 0x1 PUSH1 0x1 PUSH1 0xA0 SHL SUB DUP12 DUP2 AND SWAP2 AND EQ JUMPDEST ISZERO PUSH2 0x26CB JUMPI PUSH2 0x2658 DUP12 DUP11 PUSH2 0x4472 JUMP JUMPDEST SWAP1 POP DUP8 DUP2 GT ISZERO PUSH2 0x268E JUMPI PUSH1 0x40 MLOAD PUSH3 0x461BCD PUSH1 0xE5 SHL DUP2 MSTORE PUSH1 0x20 PUSH1 0x4 DUP3 ADD MSTORE PUSH1 0x1 PUSH1 0x24 DUP3 ADD MSTORE PUSH1 0x4B PUSH1 0xF8 SHL PUSH1 0x44 DUP3 ADD MSTORE PUSH1 0x64 ADD PUSH2 0x8C1 JUMP JUMPDEST PUSH1 0x1 DUP2 GT PUSH2 0x26AE JUMPI PUSH1 0x40 MLOAD PUSH3 0x461BCD PUSH1 0xE5 SHL DUP2 MSTORE PUSH1 0x4 ADD PUSH2 0x8C1 SWAP1 PUSH2 0x5A31 JUMP JUMPDEST PUSH2 0x26B9 DUP12 DUP4 DUP4 PUSH2 0x2B06 JUMP JUMPDEST PUSH2 0x26C6 DUP12 PUSH1 0x0 DUP12 DUP10 PUSH2 0x3198 JUMP JUMPDEST PUSH2 0x2881 JUMP JUMPDEST PUSH1 0x4 SLOAD PUSH1 0x1 PUSH1 0x1 PUSH1 0xA0 SHL SUB DUP13 DUP2 AND SWAP2 AND EQ DUP1 ISZERO PUSH2 0x26F6 JUMPI POP PUSH1 0x4 SLOAD PUSH1 0x1 PUSH1 0x1 PUSH1 0xA0 SHL SUB DUP12 DUP2 AND SWAP2 AND EQ ISZERO JUMPDEST ISZERO PUSH2 0x2787 JUMPI PUSH2 0x2705 DUP11 DUP11 PUSH2 0x455B JUMP JUMPDEST SWAP1 POP DUP8 DUP2 GT ISZERO PUSH2 0x273B JUMPI PUSH1 0x40 MLOAD PUSH3 0x461BCD PUSH1 0xE5 SHL DUP2 MSTORE PUSH1 0x20 PUSH1 0x4 DUP3 ADD MSTORE PUSH1 0x1 PUSH1 0x24 DUP3 ADD MSTORE PUSH1 0x25 PUSH1 0xF9 SHL PUSH1 0x44 DUP3 ADD MSTORE PUSH1 0x64 ADD PUSH2 0x8C1 JUMP JUMPDEST PUSH1 0x1 DUP2 GT PUSH2 0x276F JUMPI PUSH1 0x40 MLOAD PUSH3 0x461BCD PUSH1 0xE5 SHL DUP2 MSTORE PUSH1 0x20 PUSH1 0x4 DUP3 ADD MSTORE PUSH1 0x1 PUSH1 0x24 DUP3 ADD MSTORE PUSH1 0x55 PUSH1 0xF8 SHL PUSH1 0x44 DUP3 ADD MSTORE PUSH1 0x64 ADD PUSH2 0x8C1 JUMP JUMPDEST PUSH2 0x277A DUP12 DUP4 DUP4 PUSH2 0x2B06 JUMP JUMPDEST PUSH2 0x26C6 DUP11 DUP11 PUSH1 0x0 DUP10 PUSH2 0x3198 JUMP JUMPDEST PUSH1 0x4 SLOAD PUSH1 0x1 PUSH1 0x1 PUSH1 0xA0 SHL SUB DUP13 DUP2 AND SWAP2 AND EQ DUP1 ISZERO SWAP1 PUSH2 0x27B3 JUMPI POP PUSH1 0x4 SLOAD PUSH1 0x1 PUSH1 0x1 PUSH1 0xA0 SHL SUB DUP12 DUP2 AND SWAP2 AND EQ ISZERO JUMPDEST ISZERO PUSH2 0x1F92 JUMPI PUSH1 0x0 PUSH2 0x27C4 DUP12 DUP12 PUSH2 0x455B JUMP JUMPDEST SWAP1 POP PUSH1 0x1 DUP2 GT PUSH2 0x27FA JUMPI PUSH1 0x40 MLOAD PUSH3 0x461BCD PUSH1 0xE5 SHL DUP2 MSTORE PUSH1 0x20 PUSH1 0x4 DUP3 ADD MSTORE PUSH1 0x1 PUSH1 0x24 DUP3 ADD MSTORE PUSH1 0x55 PUSH1 0xF8 SHL PUSH1 0x44 DUP3 ADD MSTORE PUSH1 0x64 ADD PUSH2 0x8C1 JUMP JUMPDEST PUSH2 0x2804 DUP13 DUP3 PUSH2 0x4472 JUMP JUMPDEST SWAP2 POP DUP9 DUP3 GT ISZERO PUSH2 0x283A JUMPI PUSH1 0x40 MLOAD PUSH3 0x461BCD PUSH1 0xE5 SHL DUP2 MSTORE PUSH1 0x20 PUSH1 0x4 DUP3 ADD MSTORE PUSH1 0x1 PUSH1 0x24 DUP3 ADD MSTORE PUSH1 0x4B PUSH1 0xF8 SHL PUSH1 0x44 DUP3 ADD MSTORE PUSH1 0x64 ADD PUSH2 0x8C1 JUMP JUMPDEST PUSH1 0x1 DUP3 GT PUSH2 0x285A JUMPI PUSH1 0x40 MLOAD PUSH3 0x461BCD PUSH1 0xE5 SHL DUP2 MSTORE PUSH1 0x4 ADD PUSH2 0x8C1 SWAP1 PUSH2 0x5A31 JUMP JUMPDEST PUSH2 0x2865 DUP13 DUP5 DUP5 PUSH2 0x2B06 JUMP JUMPDEST PUSH2 0x2872 DUP13 PUSH1 0x0 DUP4 ADDRESS PUSH2 0x3198 JUMP JUMPDEST PUSH2 0x287F DUP12 DUP12 PUSH1 0x0 DUP11 PUSH2 0x3198 JUMP JUMPDEST POP JUMPDEST SWAP11 SWAP8 SWAP10 POP SWAP7 SWAP8 POP POP POP POP POP POP POP POP JUMP JUMPDEST PUSH1 0x6 SLOAD PUSH1 0x0 SWAP1 PUSH1 0x1 PUSH1 0x1 PUSH1 0xA0 SHL SUB DUP4 DUP2 AND SWAP2 AND EQ ISZERO PUSH2 0x28B1 JUMPI POP SELFBALANCE SWAP2 SWAP1 POP JUMP JUMPDEST PUSH1 0x40 MLOAD PUSH4 0x70A08231 PUSH1 0xE0 SHL DUP2 MSTORE ADDRESS PUSH1 0x4 DUP3 ADD MSTORE PUSH1 0x1 PUSH1 0x1 PUSH1 0xA0 SHL SUB DUP4 AND SWAP1 PUSH4 0x70A08231 SWAP1 PUSH1 0x24 ADD PUSH1 0x20 PUSH1 0x40 MLOAD DUP1 DUP4 SUB DUP2 DUP7 GAS STATICCALL ISZERO DUP1 ISZERO PUSH2 0x28F5 JUMPI RETURNDATASIZE PUSH1 0x0 DUP1 RETURNDATACOPY RETURNDATASIZE PUSH1 0x0 REVERT JUMPDEST POP POP POP POP PUSH1 0x40 MLOAD RETURNDATASIZE PUSH1 0x1F NOT PUSH1 0x1F DUP3 ADD AND DUP3 ADD DUP1 PUSH1 0x40 MSTORE POP DUP2 ADD SWAP1 PUSH2 0xA3D SWAP2 SWAP1 PUSH2 0x5B24 JUMP JUMPDEST SWAP2 SWAP1 POP JUMP JUMPDEST PUSH1 0x1 PUSH1 0x1 PUSH1 0xA0 SHL SUB DUP4 AND ADDRESS EQ PUSH2 0x174B JUMPI PUSH1 0x6 SLOAD PUSH1 0x1 PUSH1 0x1 PUSH1 0xA0 SHL SUB DUP6 DUP2 AND SWAP2 AND EQ ISZERO PUSH2 0x2953 JUMPI PUSH2 0x294E DUP4 DUP4 PUSH2 0x4760 JUMP JUMPDEST PUSH2 0x174B JUMP JUMPDEST PUSH2 0x174B DUP5 DUP5 DUP5 PUSH2 0x47EE JUMP JUMPDEST DUP2 MLOAD DUP4 MLOAD EQ PUSH2 0x2980 JUMPI PUSH1 0x40 MLOAD PUSH4 0xA98A8859 PUSH1 0xE0 SHL DUP2 MSTORE PUSH1 0x4 ADD PUSH1 0x40 MLOAD DUP1 SWAP2 SUB SWAP1 REVERT JUMPDEST PUSH1 0x1 PUSH1 0x1 PUSH1 0xA0 SHL SUB DUP5 AND PUSH2 0x29A7 JUMPI PUSH1 0x40 MLOAD PUSH4 0x7CC7869 PUSH1 0xE3 SHL DUP2 MSTORE PUSH1 0x4 ADD PUSH1 0x40 MLOAD DUP1 SWAP2 SUB SWAP1 REVERT JUMPDEST CALLER PUSH2 0x29B6 DUP2 DUP8 DUP8 DUP8 DUP8 DUP8 PUSH2 0x48D3 JUMP JUMPDEST PUSH1 0x0 JUMPDEST DUP5 MLOAD DUP2 LT ISZERO PUSH2 0x2AA0 JUMPI PUSH1 0x0 DUP6 DUP3 DUP2 MLOAD DUP2 LT PUSH2 0x29D6 JUMPI PUSH2 0x29D6 PUSH2 0x581B JUMP JUMPDEST PUSH1 0x20 MUL PUSH1 0x20 ADD ADD MLOAD SWAP1 POP PUSH1 0x0 DUP6 DUP4 DUP2 MLOAD DUP2 LT PUSH2 0x29F4 JUMPI PUSH2 0x29F4 PUSH2 0x581B JUMP JUMPDEST PUSH1 0x20 SWAP1 DUP2 MUL SWAP2 SWAP1 SWAP2 ADD DUP2 ADD MLOAD PUSH1 0x0 DUP5 DUP2 MSTORE PUSH1 0xD DUP4 MSTORE PUSH1 0x40 DUP1 DUP3 KECCAK256 PUSH1 0x1 PUSH1 0x1 PUSH1 0xA0 SHL SUB DUP15 AND DUP4 MSTORE SWAP1 SWAP4 MSTORE SWAP2 SWAP1 SWAP2 KECCAK256 SLOAD SWAP1 SWAP2 POP DUP2 DUP2 LT ISZERO PUSH2 0x2A46 JUMPI PUSH1 0x40 MLOAD PUSH4 0x2D688F61 PUSH1 0xE1 SHL DUP2 MSTORE PUSH1 0x4 ADD PUSH1 0x40 MLOAD DUP1 SWAP2 SUB SWAP1 REVERT JUMPDEST PUSH1 0x0 DUP4 DUP2 MSTORE PUSH1 0xD PUSH1 0x20 SWAP1 DUP2 MSTORE PUSH1 0x40 DUP1 DUP4 KECCAK256 PUSH1 0x1 PUSH1 0x1 PUSH1 0xA0 SHL SUB DUP15 DUP2 AND DUP6 MSTORE SWAP3 MSTORE DUP1 DUP4 KECCAK256 DUP6 DUP6 SUB SWAP1 SSTORE SWAP1 DUP12 AND DUP3 MSTORE DUP2 KECCAK256 DUP1 SLOAD DUP5 SWAP3 SWAP1 PUSH2 0x2A85 SWAP1 DUP5 SWAP1 PUSH2 0x59FE JUMP JUMPDEST SWAP3 POP POP DUP2 SWAP1 SSTORE POP POP POP POP DUP1 PUSH2 0x2A99 SWAP1 PUSH2 0x59E3 JUMP JUMPDEST SWAP1 POP PUSH2 0x29B9 JUMP JUMPDEST POP DUP5 PUSH1 0x1 PUSH1 0x1 PUSH1 0xA0 SHL SUB AND DUP7 PUSH1 0x1 PUSH1 0x1 PUSH1 0xA0 SHL SUB AND DUP3 PUSH1 0x1 PUSH1 0x1 PUSH1 0xA0 SHL SUB AND PUSH32 0x4A39DC06D4C0DBC64B70AF90FD698A233A518AA5D07E595D983B8C0526C8F7FB DUP8 DUP8 PUSH1 0x40 MLOAD PUSH2 0x2AF0 SWAP3 SWAP2 SWAP1 PUSH2 0x5B3D JUMP JUMPDEST PUSH1 0x40 MLOAD DUP1 SWAP2 SUB SWAP1 LOG4 PUSH2 0xCE3 DUP2 DUP8 DUP8 DUP8 DUP8 DUP8 PUSH2 0x49DF JUMP JUMPDEST PUSH1 0x6 SLOAD PUSH1 0x1 PUSH1 0x1 PUSH1 0xA0 SHL SUB DUP5 DUP2 AND SWAP2 AND EQ PUSH2 0x2B69 JUMPI CALLVALUE ISZERO PUSH2 0x2B4D JUMPI PUSH1 0x40 MLOAD PUSH3 0x461BCD PUSH1 0xE5 SHL DUP2 MSTORE PUSH1 0x20 PUSH1 0x4 DUP3 ADD MSTORE PUSH1 0x1 PUSH1 0x24 DUP3 ADD MSTORE PUSH1 0x47 PUSH1 0xF8 SHL PUSH1 0x44 DUP3 ADD MSTORE PUSH1 0x64 ADD PUSH2 0x8C1 JUMP JUMPDEST PUSH1 0x1 PUSH1 0x1 PUSH1 0xA0 SHL SUB DUP3 AND ADDRESS EQ PUSH2 0xBAB JUMPI PUSH2 0xBAB DUP4 DUP4 ADDRESS DUP5 PUSH2 0x4AA3 JUMP JUMPDEST PUSH1 0x6 SLOAD PUSH1 0x1 PUSH1 0x1 PUSH1 0xA0 SHL SUB DUP5 DUP2 AND SWAP2 AND EQ ISZERO PUSH2 0xBAB JUMPI DUP1 CALLVALUE LT ISZERO PUSH2 0x2BA0 JUMPI PUSH1 0x40 MLOAD PUSH4 0xAC50B70D PUSH1 0xE0 SHL DUP2 MSTORE PUSH1 0x4 ADD PUSH1 0x40 MLOAD DUP1 SWAP2 SUB SWAP1 REVERT JUMPDEST DUP1 CALLVALUE GT ISZERO PUSH2 0xBAB JUMPI PUSH1 0x6 SLOAD PUSH2 0xBAB SWAP1 PUSH1 0x1 PUSH1 0x1 PUSH1 0xA0 SHL SUB AND CALLER PUSH2 0x2BC3 DUP5 CALLVALUE PUSH2 0x5847 JUMP JUMPDEST PUSH1 0x0 PUSH2 0x291E JUMP JUMPDEST PUSH1 0x0 PUSH1 0x3 DUP3 GT ISZERO PUSH2 0x2C2B JUMPI POP DUP1 PUSH1 0x0 PUSH2 0x2BE4 PUSH1 0x2 DUP4 PUSH2 0x5A62 JUMP JUMPDEST PUSH2 0x2BEF SWAP1 PUSH1 0x1 PUSH2 0x59FE JUMP JUMPDEST SWAP1 POP JUMPDEST DUP2 DUP2 LT ISZERO PUSH2 0x2C25 JUMPI SWAP1 POP DUP1 PUSH1 0x2 DUP2 PUSH2 0x2C0A DUP2 DUP7 PUSH2 0x5A62 JUMP JUMPDEST PUSH2 0x2C14 SWAP2 SWAP1 PUSH2 0x59FE JUMP JUMPDEST PUSH2 0x2C1E SWAP2 SWAP1 PUSH2 0x5A62 JUMP JUMPDEST SWAP1 POP PUSH2 0x2BF2 JUMP JUMPDEST POP SWAP2 SWAP1 POP JUMP JUMPDEST DUP2 ISZERO PUSH2 0x2919 JUMPI POP PUSH1 0x1 SWAP2 SWAP1 POP JUMP JUMPDEST PUSH1 0x8 SLOAD PUSH1 0x0 SWAP1 DUP2 SWAP1 DUP6 DUP6 GT DUP1 ISZERO PUSH2 0x2C50 JUMPI POP PUSH1 0x0 DUP7 GT JUMPDEST DUP1 ISZERO PUSH2 0x2C5C JUMPI POP PUSH1 0x0 DUP2 GT JUMPDEST ISZERO PUSH2 0x2CB5 JUMPI PUSH2 0x2C6B DUP2 DUP8 PUSH2 0x58B0 JUMP JUMPDEST PUSH2 0x2C76 DUP3 PUSH1 0x64 PUSH2 0x5847 JUMP JUMPDEST PUSH2 0x2C80 SWAP1 DUP8 PUSH2 0x58B0 JUMP JUMPDEST PUSH2 0x2C8A SWAP2 SWAP1 PUSH2 0x59FE JUMP JUMPDEST PUSH2 0x2C94 DUP8 DUP8 PUSH2 0x5847 JUMP JUMPDEST PUSH2 0x2C9E DUP4 DUP8 PUSH2 0x58B0 JUMP JUMPDEST PUSH2 0x2CA8 SWAP2 SWAP1 PUSH2 0x58B0 JUMP JUMPDEST PUSH2 0x2CB2 SWAP2 SWAP1 PUSH2 0x5A62 JUMP JUMPDEST SWAP2 POP JUMPDEST POP SWAP5 SWAP4 POP POP POP POP JUMP JUMPDEST PUSH1 0x1 PUSH1 0x1 PUSH1 0xA0 SHL SUB DUP5 AND PUSH2 0x2CE5 JUMPI PUSH1 0x40 MLOAD PUSH4 0x3E11866B PUSH1 0xE2 SHL DUP2 MSTORE PUSH1 0x4 ADD PUSH1 0x40 MLOAD DUP1 SWAP2 SUB SWAP1 REVERT JUMPDEST CALLER PUSH2 0x2D05 DUP2 PUSH1 0x0 DUP8 PUSH2 0x2CF6 DUP9 PUSH2 0x4B90 JUMP JUMPDEST PUSH2 0x2CFF DUP9 PUSH2 0x4B90 JUMP JUMPDEST DUP8 PUSH2 0x48D3 JUMP JUMPDEST PUSH1 0x0 DUP5 DUP2 MSTORE PUSH1 0xD PUSH1 0x20 SWAP1 DUP2 MSTORE PUSH1 0x40 DUP1 DUP4 KECCAK256 PUSH1 0x1 PUSH1 0x1 PUSH1 0xA0 SHL SUB DUP10 AND DUP5 MSTORE SWAP1 SWAP2 MSTORE DUP2 KECCAK256 DUP1 SLOAD DUP6 SWAP3 SWAP1 PUSH2 0x2D37 SWAP1 DUP5 SWAP1 PUSH2 0x59FE JUMP JUMPDEST SWAP1 SWAP2 SSTORE POP POP PUSH1 0x40 DUP1 MLOAD DUP6 DUP2 MSTORE PUSH1 0x20 DUP2 ADD DUP6 SWAP1 MSTORE PUSH1 0x1 PUSH1 0x1 PUSH1 0xA0 SHL SUB DUP1 DUP9 AND SWAP3 PUSH1 0x0 SWAP3 SWAP2 DUP6 AND SWAP2 PUSH32 0xC3D58168C5AE7397731D063D5BBF3D657854427343F4C083240F7AACAA2D0F62 SWAP2 ADD PUSH1 0x40 MLOAD DUP1 SWAP2 SUB SWAP1 LOG4 PUSH2 0x24D5 DUP2 PUSH1 0x0 DUP8 DUP8 DUP8 DUP8 PUSH2 0x4BDB JUMP JUMPDEST PUSH1 0x1 PUSH1 0x1 PUSH1 0xA0 SHL SUB DUP3 AND PUSH1 0x0 SWAP1 DUP2 MSTORE PUSH1 0x1 PUSH1 0x20 MSTORE PUSH1 0x40 DUP2 KECCAK256 SLOAD DUP4 SWAP1 ISZERO DUP1 PUSH2 0x2DCB JUMPI POP PUSH1 0x4 SLOAD PUSH1 0x1 PUSH1 0x1 PUSH1 0xA0 SHL SUB DUP3 DUP2 AND SWAP2 AND EQ JUMPDEST ISZERO PUSH2 0x2DE8 JUMPI PUSH1 0x40 MLOAD PUSH3 0x461BCD PUSH1 0xE5 SHL DUP2 MSTORE PUSH1 0x4 ADD PUSH2 0x8C1 SWAP1 PUSH2 0x5800 JUMP JUMPDEST PUSH1 0x1 PUSH1 0x1 PUSH1 0xA0 SHL SUB DUP5 AND PUSH1 0x0 SWAP1 DUP2 MSTORE PUSH1 0x1 PUSH1 0x20 MSTORE PUSH1 0x40 DUP2 KECCAK256 SLOAD DUP2 SLOAD SWAP1 SWAP2 PUSH2 0x2E80 SWAP2 DUP7 SWAP2 SWAP1 DUP5 SWAP1 DUP2 LT PUSH2 0x2E1C JUMPI PUSH2 0x2E1C PUSH2 0x581B JUMP JUMPDEST PUSH1 0x0 SWAP2 DUP3 MSTORE PUSH1 0x20 DUP3 KECCAK256 PUSH1 0x1 PUSH1 0x4 SWAP1 SWAP3 MUL ADD ADD SLOAD DUP2 SLOAD PUSH1 0x1 PUSH1 0x1 PUSH1 0x80 SHL SUB SWAP1 SWAP2 AND SWAP2 SWAP1 DUP6 SWAP1 DUP2 LT PUSH2 0x2E4E JUMPI PUSH2 0x2E4E PUSH2 0x581B JUMP JUMPDEST PUSH1 0x0 SWAP2 DUP3 MSTORE PUSH1 0x20 SWAP1 SWAP2 KECCAK256 PUSH1 0x4 SWAP1 SWAP2 MUL ADD PUSH1 0x1 ADD SLOAD PUSH1 0x1 PUSH1 0x80 SHL SWAP1 DIV PUSH1 0x1 PUSH1 0x1 PUSH1 0x80 SHL SUB AND PUSH2 0x2E7B DUP6 PUSH2 0x2F74 JUMP JUMPDEST PUSH2 0x4C9F JUMP JUMPDEST SWAP6 SWAP5 POP POP POP POP POP JUMP JUMPDEST PUSH1 0x1 PUSH1 0x1 PUSH1 0xA0 SHL SUB DUP3 AND PUSH1 0x0 SWAP1 DUP2 MSTORE PUSH1 0x1 PUSH1 0x20 MSTORE PUSH1 0x40 DUP2 KECCAK256 SLOAD DUP4 SWAP1 ISZERO DUP1 PUSH2 0x2EBD JUMPI POP PUSH1 0x4 SLOAD PUSH1 0x1 PUSH1 0x1 PUSH1 0xA0 SHL SUB DUP3 DUP2 AND SWAP2 AND EQ JUMPDEST ISZERO PUSH2 0x2EDA JUMPI PUSH1 0x40 MLOAD PUSH3 0x461BCD PUSH1 0xE5 SHL DUP2 MSTORE PUSH1 0x4 ADD PUSH2 0x8C1 SWAP1 PUSH2 0x5800 JUMP JUMPDEST PUSH1 0x1 PUSH1 0x1 PUSH1 0xA0 SHL SUB DUP5 AND PUSH1 0x0 SWAP1 DUP2 MSTORE PUSH1 0x1 PUSH1 0x20 MSTORE PUSH1 0x40 DUP2 KECCAK256 SLOAD DUP2 SLOAD SWAP1 SWAP2 PUSH2 0x2E80 SWAP2 DUP7 SWAP2 SWAP1 DUP5 SWAP1 DUP2 LT PUSH2 0x2F0E JUMPI PUSH2 0x2F0E PUSH2 0x581B JUMP JUMPDEST SWAP1 PUSH1 0x0 MSTORE PUSH1 0x20 PUSH1 0x0 KECCAK256 SWAP1 PUSH1 0x4 MUL ADD PUSH1 0x1 ADD PUSH1 0x10 SWAP1 SLOAD SWAP1 PUSH2 0x100 EXP SWAP1 DIV PUSH1 0x1 PUSH1 0x1 PUSH1 0x80 SHL SUB AND PUSH1 0x1 PUSH1 0x1 PUSH1 0x80 SHL SUB AND PUSH1 0x0 DUP5 DUP2 SLOAD DUP2 LT PUSH2 0x2F4F JUMPI PUSH2 0x2F4F PUSH2 0x581B JUMP JUMPDEST PUSH1 0x0 SWAP2 DUP3 MSTORE PUSH1 0x20 SWAP1 SWAP2 KECCAK256 PUSH1 0x1 PUSH1 0x4 SWAP1 SWAP3 MUL ADD ADD SLOAD PUSH1 0x1 PUSH1 0x1 PUSH1 0x80 SHL SUB AND PUSH2 0x2710 PUSH2 0x4C9F JUMP JUMPDEST PUSH1 0x0 DUP1 PUSH2 0x2F7F PUSH2 0x4CDB JUMP JUMPDEST SWAP1 POP PUSH1 0x0 PUSH1 0x8 PUSH2 0x2F90 DUP4 PUSH1 0x1 PUSH2 0x59FE JUMP JUMPDEST PUSH2 0x2F9A SWAP2 SWAP1 PUSH2 0x5B62 JUMP JUMPDEST SWAP1 POP PUSH1 0x0 DUP1 JUMPDEST PUSH1 0x8 DUP2 LT ISZERO PUSH2 0x3037 JUMPI DUP4 DUP2 EQ DUP1 PUSH2 0x2FB6 JUMPI POP DUP3 DUP2 EQ JUMPDEST ISZERO PUSH2 0x2FC0 JUMPI PUSH2 0x3025 JUMP JUMPDEST PUSH1 0x0 DUP7 DUP2 SLOAD DUP2 LT PUSH2 0x2FD3 JUMPI PUSH2 0x2FD3 PUSH2 0x581B JUMP JUMPDEST SWAP1 PUSH1 0x0 MSTORE PUSH1 0x20 PUSH1 0x0 KECCAK256 SWAP1 PUSH1 0x4 MUL ADD PUSH1 0x0 ADD DUP2 PUSH1 0x8 DUP2 LT PUSH2 0x2FF5 JUMPI PUSH2 0x2FF5 PUSH2 0x581B JUMP JUMPDEST PUSH1 0x8 SWAP2 DUP3 DUP3 DIV ADD SWAP2 SWAP1 MOD PUSH1 0x4 MUL SWAP1 SLOAD SWAP1 PUSH2 0x100 EXP SWAP1 DIV PUSH4 0xFFFFFFFF AND PUSH4 0xFFFFFFFF AND DUP3 PUSH2 0x3022 SWAP2 SWAP1 PUSH2 0x59FE JUMP JUMPDEST SWAP2 POP JUMPDEST DUP1 PUSH2 0x302F DUP2 PUSH2 0x59E3 JUMP JUMPDEST SWAP2 POP POP PUSH2 0x2FA0 JUMP JUMPDEST POP PUSH2 0x304A PUSH8 0x8AC7230489E80000 DUP3 PUSH2 0x58B0 JUMP JUMPDEST SWAP1 POP PUSH1 0x0 PUSH5 0x2540BE400 PUSH1 0x7 PUSH1 0x4 ADD SLOAD PUSH1 0x0 DUP9 DUP2 SLOAD DUP2 LT PUSH2 0x306D JUMPI PUSH2 0x306D PUSH2 0x581B JUMP JUMPDEST PUSH1 0x0 SWAP2 DUP3 MSTORE PUSH1 0x20 SWAP1 SWAP2 KECCAK256 PUSH1 0x4 SWAP1 SWAP2 MUL ADD PUSH1 0x1 ADD SLOAD PUSH2 0x309B SWAP2 SWAP1 PUSH1 0x1 PUSH1 0x80 SHL SWAP1 DIV PUSH1 0x1 PUSH1 0x1 PUSH1 0x80 SHL SUB AND PUSH2 0x58B0 JUMP JUMPDEST PUSH2 0x30A5 SWAP2 SWAP1 PUSH2 0x5A62 JUMP JUMPDEST SWAP1 POP PUSH1 0x0 PUSH5 0x2540BE400 PUSH1 0x7 PUSH1 0x5 ADD SLOAD PUSH1 0x0 DUP10 DUP2 SLOAD DUP2 LT PUSH2 0x30C8 JUMPI PUSH2 0x30C8 PUSH2 0x581B JUMP JUMPDEST PUSH1 0x0 SWAP2 DUP3 MSTORE PUSH1 0x20 SWAP1 SWAP2 KECCAK256 PUSH1 0x4 SWAP1 SWAP2 MUL ADD PUSH1 0x1 ADD SLOAD PUSH2 0x30F6 SWAP2 SWAP1 PUSH1 0x1 PUSH1 0x80 SHL SWAP1 DIV PUSH1 0x1 PUSH1 0x1 PUSH1 0x80 SHL SUB AND PUSH2 0x58B0 JUMP JUMPDEST PUSH2 0x3100 SWAP2 SWAP1 PUSH2 0x5A62 JUMP JUMPDEST SWAP1 POP PUSH1 0x0 DUP3 DUP5 GT PUSH2 0x3114 JUMPI POP PUSH1 0xA SLOAD PUSH2 0x3180 JUMP JUMPDEST DUP4 DUP4 LT DUP1 ISZERO PUSH2 0x3122 JUMPI POP DUP2 DUP5 LT JUMPDEST ISZERO PUSH2 0x3173 JUMPI PUSH2 0x3131 DUP4 DUP4 PUSH2 0x5847 JUMP JUMPDEST PUSH1 0x9 SLOAD PUSH1 0xA SLOAD PUSH2 0x3141 SWAP2 SWAP1 PUSH2 0x5847 JUMP JUMPDEST PUSH2 0x314B DUP6 DUP8 PUSH2 0x5847 JUMP JUMPDEST PUSH2 0x3155 SWAP2 SWAP1 PUSH2 0x58B0 JUMP JUMPDEST PUSH2 0x315F SWAP2 SWAP1 PUSH2 0x5A62 JUMP JUMPDEST PUSH1 0xA SLOAD PUSH2 0x316C SWAP2 SWAP1 PUSH2 0x5847 JUMP JUMPDEST SWAP1 POP PUSH2 0x3180 JUMP JUMPDEST DUP2 DUP5 GT ISZERO PUSH2 0x3180 JUMPI POP PUSH1 0x9 SLOAD JUMPDEST PUSH2 0x318C DUP2 PUSH2 0x2710 PUSH2 0x5847 JUMP JUMPDEST SWAP9 SWAP8 POP POP POP POP POP POP POP POP JUMP JUMPDEST PUSH1 0x1 PUSH1 0x1 PUSH1 0xA0 SHL SUB DUP5 AND PUSH1 0x0 SWAP1 DUP2 MSTORE PUSH1 0x1 PUSH1 0x20 MSTORE PUSH1 0x40 SWAP1 KECCAK256 SLOAD DUP5 SWAP1 ISZERO DUP1 PUSH2 0x31CC JUMPI POP PUSH1 0x4 SLOAD PUSH1 0x1 PUSH1 0x1 PUSH1 0xA0 SHL SUB DUP3 DUP2 AND SWAP2 AND EQ JUMPDEST ISZERO PUSH2 0x31E9 JUMPI PUSH1 0x40 MLOAD PUSH3 0x461BCD PUSH1 0xE5 SHL DUP2 MSTORE PUSH1 0x4 ADD PUSH2 0x8C1 SWAP1 PUSH2 0x5800 JUMP JUMPDEST PUSH1 0x1 PUSH1 0x1 PUSH1 0xA0 SHL SUB DUP1 DUP7 AND PUSH1 0x0 SWAP1 DUP2 MSTORE PUSH1 0x1 PUSH1 0x20 MSTORE PUSH1 0x40 DUP2 KECCAK256 SLOAD PUSH1 0x2 SLOAD PUSH1 0x4 SLOAD SWAP2 SWAP4 SWAP1 SWAP2 PUSH2 0x3217 SWAP2 AND PUSH2 0x2891 JUMP JUMPDEST PUSH2 0x3221 SWAP2 SWAP1 PUSH2 0x5847 JUMP JUMPDEST SWAP1 POP PUSH1 0x0 DUP1 DUP4 DUP2 SLOAD DUP2 LT PUSH2 0x3237 JUMPI PUSH2 0x3237 PUSH2 0x581B JUMP JUMPDEST PUSH1 0x0 SWAP2 DUP3 MSTORE PUSH1 0x20 SWAP1 SWAP2 KECCAK256 PUSH1 0x1 PUSH1 0x4 SWAP1 SWAP3 MUL ADD ADD SLOAD PUSH1 0x1 PUSH1 0x1 PUSH1 0x80 SHL SUB AND PUSH2 0x325D DUP10 PUSH2 0x2891 JUMP JUMPDEST PUSH2 0x3267 SWAP2 SWAP1 PUSH2 0x5847 JUMP JUMPDEST SWAP1 POP PUSH1 0x1 PUSH2 0x3275 DUP4 DUP4 PUSH2 0x59FE JUMP JUMPDEST GT PUSH2 0x32A6 JUMPI PUSH1 0x40 MLOAD PUSH3 0x461BCD PUSH1 0xE5 SHL DUP2 MSTORE PUSH1 0x20 PUSH1 0x4 DUP3 ADD MSTORE PUSH1 0x1 PUSH1 0x24 DUP3 ADD MSTORE PUSH1 0x19 PUSH1 0xF9 SHL PUSH1 0x44 DUP3 ADD MSTORE PUSH1 0x64 ADD PUSH2 0x8C1 JUMP JUMPDEST PUSH1 0x0 PUSH1 0x1 DUP4 GT DUP1 ISZERO PUSH2 0x32B9 JUMPI POP PUSH1 0x1 DUP3 GT ISZERO JUMPDEST PUSH2 0x32CB JUMPI PUSH2 0x32C6 DUP5 PUSH2 0x2F74 JUMP JUMPDEST PUSH2 0x32CF JUMP JUMPDEST PUSH2 0x2710 JUMPDEST SWAP1 POP PUSH1 0x0 NOT PUSH1 0x0 DUP6 DUP2 SLOAD DUP2 LT PUSH2 0x32E7 JUMPI PUSH2 0x32E7 PUSH2 0x581B JUMP JUMPDEST SWAP1 PUSH1 0x0 MSTORE PUSH1 0x20 PUSH1 0x0 KECCAK256 SWAP1 PUSH1 0x4 MUL ADD PUSH1 0x3 ADD SLOAD LT DUP1 ISZERO PUSH2 0x3334 JUMPI POP DUP7 DUP4 PUSH1 0x0 DUP7 DUP2 SLOAD DUP2 LT PUSH2 0x3316 JUMPI PUSH2 0x3316 PUSH2 0x581B JUMP JUMPDEST SWAP1 PUSH1 0x0 MSTORE PUSH1 0x20 PUSH1 0x0 KECCAK256 SWAP1 PUSH1 0x4 MUL ADD PUSH1 0x3 ADD SLOAD PUSH2 0x3332 SWAP2 SWAP1 PUSH2 0x59FE JUMP JUMPDEST LT JUMPDEST ISZERO PUSH2 0x3365 JUMPI PUSH1 0x40 MLOAD PUSH3 0x461BCD PUSH1 0xE5 SHL DUP2 MSTORE PUSH1 0x20 PUSH1 0x4 DUP3 ADD MSTORE PUSH1 0x1 PUSH1 0x24 DUP3 ADD MSTORE PUSH1 0x2D PUSH1 0xF9 SHL PUSH1 0x44 DUP3 ADD MSTORE PUSH1 0x64 ADD PUSH2 0x8C1 JUMP JUMPDEST PUSH1 0x0 PUSH2 0x2710 PUSH1 0x0 DUP7 DUP2 SLOAD DUP2 LT PUSH2 0x337D JUMPI PUSH2 0x337D PUSH2 0x581B JUMP JUMPDEST PUSH1 0x0 SWAP2 DUP3 MSTORE PUSH1 0x20 DUP3 KECCAK256 PUSH1 0x1 PUSH1 0x4 SWAP1 SWAP3 MUL ADD ADD SLOAD DUP2 SLOAD PUSH1 0x1 PUSH1 0x1 PUSH1 0x80 SHL SUB SWAP1 SWAP2 AND SWAP2 PUSH2 0x2710 SWAP2 DUP10 SWAP1 DUP2 LT PUSH2 0x33B2 JUMPI PUSH2 0x33B2 PUSH2 0x581B JUMP JUMPDEST PUSH1 0x0 SWAP2 DUP3 MSTORE PUSH1 0x20 SWAP1 SWAP2 KECCAK256 PUSH1 0x4 SWAP1 SWAP2 MUL ADD PUSH1 0x1 ADD SLOAD PUSH2 0x33E0 SWAP2 SWAP1 PUSH1 0x1 PUSH1 0x80 SHL SWAP1 DIV PUSH1 0x1 PUSH1 0x1 PUSH1 0x80 SHL SUB AND PUSH2 0x58B0 JUMP JUMPDEST PUSH2 0x33EA SWAP2 SWAP1 PUSH2 0x58B0 JUMP JUMPDEST PUSH2 0x33F4 SWAP2 SWAP1 PUSH2 0x58B0 JUMP JUMPDEST SWAP1 POP PUSH1 0x0 DUP9 DUP6 PUSH1 0x2 SLOAD PUSH2 0x3407 SWAP2 SWAP1 PUSH2 0x59FE JUMP JUMPDEST PUSH2 0x3411 SWAP2 SWAP1 PUSH2 0x5847 JUMP JUMPDEST SWAP1 POP PUSH1 0x0 DUP10 DUP7 PUSH1 0x0 DUP10 DUP2 SLOAD DUP2 LT PUSH2 0x342A JUMPI PUSH2 0x342A PUSH2 0x581B JUMP JUMPDEST PUSH1 0x0 SWAP2 DUP3 MSTORE PUSH1 0x20 SWAP1 SWAP2 KECCAK256 PUSH1 0x4 SWAP1 SWAP2 MUL ADD PUSH1 0x1 ADD SLOAD PUSH2 0x3458 SWAP2 SWAP1 PUSH1 0x1 PUSH1 0x80 SHL SWAP1 DIV PUSH1 0x1 PUSH1 0x1 PUSH1 0x80 SHL SUB AND PUSH2 0x59FE JUMP JUMPDEST PUSH2 0x3462 SWAP2 SWAP1 PUSH2 0x5847 JUMP JUMPDEST SWAP1 POP PUSH1 0x0 DUP12 DUP7 PUSH1 0x0 DUP11 DUP2 SLOAD DUP2 LT PUSH2 0x347B JUMPI PUSH2 0x347B PUSH2 0x581B JUMP JUMPDEST PUSH1 0x0 SWAP2 DUP3 MSTORE PUSH1 0x20 SWAP1 SWAP2 KECCAK256 PUSH1 0x1 PUSH1 0x4 SWAP1 SWAP3 MUL ADD ADD SLOAD PUSH2 0x34A2 SWAP2 SWAP1 PUSH1 0x1 PUSH1 0x1 PUSH1 0x80 SHL SUB AND PUSH2 0x59FE JUMP JUMPDEST PUSH2 0x34AC SWAP2 SWAP1 PUSH2 0x5847 JUMP JUMPDEST SWAP1 POP PUSH1 0x0 PUSH2 0x34BC DUP7 PUSH2 0x2710 PUSH2 0x5847 JUMP JUMPDEST PUSH2 0x34C6 SWAP1 DUP9 PUSH2 0x58B0 JUMP JUMPDEST PUSH2 0x34D2 PUSH2 0x2710 DUP5 PUSH2 0x58B0 JUMP JUMPDEST PUSH2 0x34DC SWAP2 SWAP1 PUSH2 0x5847 JUMP JUMPDEST PUSH2 0x34E8 DUP8 PUSH2 0x2710 PUSH2 0x5847 JUMP JUMPDEST PUSH2 0x34F2 SWAP1 DUP11 PUSH2 0x58B0 JUMP JUMPDEST PUSH2 0x34FE PUSH2 0x2710 DUP7 PUSH2 0x58B0 JUMP JUMPDEST PUSH2 0x3508 SWAP2 SWAP1 PUSH2 0x5847 JUMP JUMPDEST PUSH2 0x3512 SWAP2 SWAP1 PUSH2 0x58B0 JUMP JUMPDEST SWAP1 POP DUP5 DUP2 LT ISZERO PUSH2 0x3548 JUMPI PUSH1 0x40 MLOAD PUSH3 0x461BCD PUSH1 0xE5 SHL DUP2 MSTORE PUSH1 0x20 PUSH1 0x4 DUP3 ADD MSTORE PUSH1 0x1 PUSH1 0x24 DUP3 ADD MSTORE PUSH1 0x31 PUSH1 0xF8 SHL PUSH1 0x44 DUP3 ADD MSTORE PUSH1 0x64 ADD PUSH2 0x8C1 JUMP JUMPDEST DUP4 PUSH1 0x2 DUP2 SWAP1 SSTORE POP DUP3 PUSH1 0x0 DUP11 DUP2 SLOAD DUP2 LT PUSH2 0x3563 JUMPI PUSH2 0x3563 PUSH2 0x581B JUMP JUMPDEST SWAP1 PUSH1 0x0 MSTORE PUSH1 0x20 PUSH1 0x0 KECCAK256 SWAP1 PUSH1 0x4 MUL ADD PUSH1 0x1 ADD PUSH1 0x10 PUSH2 0x100 EXP DUP2 SLOAD DUP2 PUSH1 0x1 PUSH1 0x1 PUSH1 0x80 SHL SUB MUL NOT AND SWAP1 DUP4 PUSH1 0x1 PUSH1 0x1 PUSH1 0x80 SHL SUB AND MUL OR SWAP1 SSTORE POP DUP2 PUSH1 0x0 DUP11 DUP2 SLOAD DUP2 LT PUSH2 0x35AC JUMPI PUSH2 0x35AC PUSH2 0x581B JUMP JUMPDEST SWAP1 PUSH1 0x0 MSTORE PUSH1 0x20 PUSH1 0x0 KECCAK256 SWAP1 PUSH1 0x4 MUL ADD PUSH1 0x1 ADD PUSH1 0x0 PUSH2 0x100 EXP DUP2 SLOAD DUP2 PUSH1 0x1 PUSH1 0x1 PUSH1 0x80 SHL SUB MUL NOT AND SWAP1 DUP4 PUSH1 0x1 PUSH1 0x1 PUSH1 0x80 SHL SUB AND MUL OR SWAP1 SSTORE POP PUSH1 0x0 NOT PUSH1 0x0 DUP11 DUP2 SLOAD DUP2 LT PUSH2 0x35F7 JUMPI PUSH2 0x35F7 PUSH2 0x581B JUMP JUMPDEST SWAP1 PUSH1 0x0 MSTORE PUSH1 0x20 PUSH1 0x0 KECCAK256 SWAP1 PUSH1 0x4 MUL ADD PUSH1 0x3 ADD SLOAD LT ISZERO PUSH2 0x3673 JUMPI DUP12 DUP9 PUSH1 0x0 DUP12 DUP2 SLOAD DUP2 LT PUSH2 0x3624 JUMPI PUSH2 0x3624 PUSH2 0x581B JUMP JUMPDEST SWAP1 PUSH1 0x0 MSTORE PUSH1 0x20 PUSH1 0x0 KECCAK256 SWAP1 PUSH1 0x4 MUL ADD PUSH1 0x3 ADD SLOAD PUSH2 0x3640 SWAP2 SWAP1 PUSH2 0x59FE JUMP JUMPDEST PUSH2 0x364A SWAP2 SWAP1 PUSH2 0x5847 JUMP JUMPDEST PUSH1 0x0 DUP11 DUP2 SLOAD DUP2 LT PUSH2 0x365D JUMPI PUSH2 0x365D PUSH2 0x581B JUMP JUMPDEST SWAP1 PUSH1 0x0 MSTORE PUSH1 0x20 PUSH1 0x0 KECCAK256 SWAP1 PUSH1 0x4 MUL ADD PUSH1 0x3 ADD DUP2 SWAP1 SSTORE POP JUMPDEST POP POP POP POP POP PUSH1 0x0 PUSH2 0x3682 PUSH2 0x4CDB JUMP JUMPDEST SWAP1 POP PUSH1 0x0 PUSH1 0x8 PUSH2 0x3690 PUSH2 0x4CDB JUMP JUMPDEST PUSH2 0x369B SWAP1 PUSH1 0x1 PUSH2 0x59FE JUMP JUMPDEST PUSH2 0x36A5 SWAP2 SWAP1 PUSH2 0x5B62 JUMP JUMPDEST SWAP1 POP PUSH8 0x8AC7230489E80000 DUP10 GT ISZERO PUSH2 0x37A5 JUMPI PUSH1 0x0 PUSH2 0x36CB PUSH8 0x8AC7230489E80000 DUP12 PUSH2 0x5A62 JUMP JUMPDEST PUSH1 0x0 DUP9 DUP2 SLOAD DUP2 LT PUSH2 0x36DE JUMPI PUSH2 0x36DE PUSH2 0x581B JUMP JUMPDEST SWAP1 PUSH1 0x0 MSTORE PUSH1 0x20 PUSH1 0x0 KECCAK256 SWAP1 PUSH1 0x4 MUL ADD PUSH1 0x0 ADD DUP5 PUSH1 0x8 DUP2 LT PUSH2 0x3700 JUMPI PUSH2 0x3700 PUSH2 0x581B JUMP JUMPDEST PUSH1 0x8 SWAP2 DUP3 DUP3 DIV ADD SWAP2 SWAP1 MOD PUSH1 0x4 MUL SWAP1 SLOAD SWAP1 PUSH2 0x100 EXP SWAP1 DIV PUSH4 0xFFFFFFFF AND PUSH4 0xFFFFFFFF AND PUSH2 0x372C SWAP2 SWAP1 PUSH2 0x59FE JUMP JUMPDEST SWAP1 POP PUSH4 0xFFFFFFFF DUP2 LT PUSH2 0x3743 JUMPI PUSH4 0xFFFFFFFF PUSH2 0x3745 JUMP JUMPDEST DUP1 JUMPDEST PUSH1 0x0 DUP9 DUP2 SLOAD DUP2 LT PUSH2 0x3758 JUMPI PUSH2 0x3758 PUSH2 0x581B JUMP JUMPDEST SWAP1 PUSH1 0x0 MSTORE PUSH1 0x20 PUSH1 0x0 KECCAK256 SWAP1 PUSH1 0x4 MUL ADD PUSH1 0x0 ADD DUP5 PUSH1 0x8 DUP2 LT PUSH2 0x377A JUMPI PUSH2 0x377A PUSH2 0x581B JUMP JUMPDEST PUSH1 0x8 SWAP2 DUP3 DUP3 DIV ADD SWAP2 SWAP1 MOD PUSH1 0x4 MUL PUSH2 0x100 EXP DUP2 SLOAD DUP2 PUSH4 0xFFFFFFFF MUL NOT AND SWAP1 DUP4 PUSH4 0xFFFFFFFF AND MUL OR SWAP1 SSTORE POP POP JUMPDEST PUSH1 0x1 PUSH1 0x0 DUP8 DUP2 SLOAD DUP2 LT PUSH2 0x37BA JUMPI PUSH2 0x37BA PUSH2 0x581B JUMP JUMPDEST SWAP1 PUSH1 0x0 MSTORE PUSH1 0x20 PUSH1 0x0 KECCAK256 SWAP1 PUSH1 0x4 MUL ADD PUSH1 0x0 ADD DUP3 PUSH1 0x8 DUP2 LT PUSH2 0x37DC JUMPI PUSH2 0x37DC PUSH2 0x581B JUMP JUMPDEST PUSH1 0x8 SWAP2 DUP3 DUP3 DIV ADD SWAP2 SWAP1 MOD PUSH1 0x4 MUL SWAP1 SLOAD SWAP1 PUSH2 0x100 EXP SWAP1 DIV PUSH4 0xFFFFFFFF AND PUSH4 0xFFFFFFFF AND GT ISZERO PUSH2 0x3865 JUMPI PUSH1 0x1 PUSH1 0x0 DUP8 DUP2 SLOAD DUP2 LT PUSH2 0x3819 JUMPI PUSH2 0x3819 PUSH2 0x581B JUMP JUMPDEST SWAP1 PUSH1 0x0 MSTORE PUSH1 0x20 PUSH1 0x0 KECCAK256 SWAP1 PUSH1 0x4 MUL ADD PUSH1 0x0 ADD DUP3 PUSH1 0x8 DUP2 LT PUSH2 0x383B JUMPI PUSH2 0x383B PUSH2 0x581B JUMP JUMPDEST PUSH1 0x8 SWAP2 DUP3 DUP3 DIV ADD SWAP2 SWAP1 MOD PUSH1 0x4 MUL PUSH2 0x100 EXP DUP2 SLOAD DUP2 PUSH4 0xFFFFFFFF MUL NOT AND SWAP1 DUP4 PUSH4 0xFFFFFFFF AND MUL OR SWAP1 SSTORE POP JUMPDEST DUP10 ISZERO PUSH2 0x38D6 JUMPI PUSH2 0x3878 DUP12 DUP10 DUP13 PUSH1 0x1 PUSH2 0x291E JUMP JUMPDEST PUSH1 0x0 PUSH2 0x3883 DUP13 PUSH2 0x2891 JUMP JUMPDEST SWAP1 POP PUSH1 0x0 DUP8 DUP2 SLOAD DUP2 LT PUSH2 0x3898 JUMPI PUSH2 0x3898 PUSH2 0x581B JUMP JUMPDEST PUSH1 0x0 SWAP2 DUP3 MSTORE PUSH1 0x20 SWAP1 SWAP2 KECCAK256 PUSH1 0x1 PUSH1 0x4 SWAP1 SWAP3 MUL ADD ADD SLOAD PUSH1 0x1 PUSH1 0x1 PUSH1 0x80 SHL SUB AND DUP2 EQ PUSH2 0x38D4 JUMPI PUSH1 0x40 MLOAD PUSH4 0xA8B538D3 PUSH1 0xE0 SHL DUP2 MSTORE PUSH1 0x4 ADD PUSH1 0x40 MLOAD DUP1 SWAP2 SUB SWAP1 REVERT JUMPDEST POP JUMPDEST DUP9 ISZERO PUSH2 0x38F5 JUMPI PUSH1 0x4 SLOAD PUSH2 0x38F5 SWAP1 PUSH1 0x1 PUSH1 0x1 PUSH1 0xA0 SHL SUB AND DUP10 DUP12 PUSH1 0x1 PUSH2 0x291E JUMP JUMPDEST PUSH32 0x4AB7F3F4678BF8F6CBE4D85E4007B7C64DF8E1D5D97DE1628F4A6416F9D1DB03 DUP12 CALLER DUP7 DUP9 DUP15 DUP15 PUSH2 0x3928 DUP11 PUSH2 0x2710 PUSH2 0x5847 JUMP JUMPDEST PUSH1 0x40 DUP1 MLOAD PUSH1 0x1 PUSH1 0x1 PUSH1 0xA0 SHL SUB SWAP9 DUP10 AND DUP2 MSTORE SWAP7 DUP9 AND PUSH1 0x20 DUP9 ADD MSTORE DUP7 ADD SWAP5 SWAP1 SWAP5 MSTORE PUSH1 0x60 DUP6 ADD SWAP3 SWAP1 SWAP3 MSTORE PUSH1 0x80 DUP5 ADD MSTORE PUSH1 0xA0 DUP4 ADD MSTORE PUSH1 0xC0 DUP3 ADD MSTORE SWAP1 DUP11 AND PUSH1 0xE0 DUP3 ADD MSTORE PUSH2 0x100 ADD PUSH1 0x40 MLOAD DUP1 SWAP2 SUB SWAP1 LOG1 PUSH1 0x0 DUP1 MLOAD PUSH1 0x20 PUSH2 0x5C81 DUP4 CODECOPY DUP2 MLOAD SWAP2 MSTORE DUP12 PUSH1 0x0 DUP9 DUP2 SLOAD DUP2 LT PUSH2 0x3995 JUMPI PUSH2 0x3995 PUSH2 0x581B JUMP JUMPDEST PUSH1 0x0 SWAP2 DUP3 MSTORE PUSH1 0x20 DUP3 KECCAK256 PUSH1 0x1 PUSH1 0x4 SWAP1 SWAP3 MUL ADD ADD SLOAD DUP2 SLOAD PUSH1 0x1 PUSH1 0x1 PUSH1 0x80 SHL SUB SWAP1 SWAP2 AND SWAP2 SWAP1 DUP11 SWAP1 DUP2 LT PUSH2 0x39C7 JUMPI PUSH2 0x39C7 PUSH2 0x581B JUMP JUMPDEST SWAP1 PUSH1 0x0 MSTORE PUSH1 0x20 PUSH1 0x0 KECCAK256 SWAP1 PUSH1 0x4 MUL ADD PUSH1 0x1 ADD PUSH1 0x10 SWAP1 SLOAD SWAP1 PUSH2 0x100 EXP SWAP1 DIV PUSH1 0x1 PUSH1 0x1 PUSH1 0x80 SHL SUB AND PUSH1 0x0 DUP11 DUP2 SLOAD DUP2 LT PUSH2 0x39FF JUMPI PUSH2 0x39FF PUSH2 0x581B JUMP JUMPDEST SWAP1 PUSH1 0x0 MSTORE PUSH1 0x20 PUSH1 0x0 KECCAK256 SWAP1 PUSH1 0x4 MUL ADD PUSH1 0x3 ADD SLOAD PUSH1 0x40 MLOAD PUSH2 0x3A21 SWAP5 SWAP4 SWAP3 SWAP2 SWAP1 PUSH2 0x5AC7 JUMP JUMPDEST PUSH1 0x40 MLOAD DUP1 SWAP2 SUB SWAP1 LOG1 POP POP POP POP POP POP POP POP POP POP POP JUMP JUMPDEST PUSH1 0x14 DUP1 SLOAD PUSH1 0x1 PUSH1 0x1 PUSH1 0xA0 SHL SUB DUP4 DUP2 AND PUSH1 0x1 PUSH1 0x1 PUSH1 0xA0 SHL SUB NOT DUP4 AND DUP2 OR SWAP1 SWAP4 SSTORE PUSH1 0x40 MLOAD SWAP2 AND SWAP2 SWAP1 DUP3 SWAP1 PUSH32 0x8BE0079C531659141344CD1FD0A4F28419497F9722A3DAAFE3B4186F6B6457E0 SWAP1 PUSH1 0x0 SWAP1 LOG3 POP POP JUMP JUMPDEST PUSH1 0x1 PUSH1 0x1 PUSH1 0xA0 SHL SUB DUP4 AND PUSH1 0x0 SWAP1 DUP2 MSTORE PUSH1 0x1 PUSH1 0x20 MSTORE PUSH1 0x40 DUP2 KECCAK256 SLOAD DUP2 PUSH2 0x3AAB DUP7 PUSH2 0x2891 JUMP JUMPDEST SWAP1 POP PUSH1 0x0 DUP1 DUP4 DUP2 SLOAD DUP2 LT PUSH2 0x3AC1 JUMPI PUSH2 0x3AC1 PUSH2 0x581B JUMP JUMPDEST PUSH1 0x0 SWAP2 DUP3 MSTORE PUSH1 0x20 SWAP1 SWAP2 KECCAK256 PUSH1 0x1 PUSH1 0x4 SWAP1 SWAP3 MUL ADD ADD SLOAD PUSH2 0x3AE8 SWAP1 PUSH1 0x1 PUSH1 0x1 PUSH1 0x80 SHL SUB AND DUP4 PUSH2 0x5847 JUMP JUMPDEST PUSH1 0x2 SLOAD PUSH1 0x4 SLOAD SWAP2 SWAP3 POP PUSH1 0x0 SWAP2 PUSH2 0x3B06 SWAP1 PUSH1 0x1 PUSH1 0x1 PUSH1 0xA0 SHL SUB AND PUSH2 0x2891 JUMP JUMPDEST PUSH2 0x3B10 SWAP2 SWAP1 PUSH2 0x5847 JUMP JUMPDEST PUSH1 0x0 DUP6 DUP2 MSTORE PUSH1 0x10 PUSH1 0x20 MSTORE PUSH1 0x40 DUP2 KECCAK256 SLOAD DUP2 SLOAD SWAP3 SWAP4 POP SWAP2 DUP3 SWAP1 DUP11 SWAP1 DUP4 SWAP1 DUP10 SWAP1 DUP2 LT PUSH2 0x3B3B JUMPI PUSH2 0x3B3B PUSH2 0x581B JUMP JUMPDEST PUSH1 0x0 SWAP2 DUP3 MSTORE PUSH1 0x20 SWAP1 SWAP2 KECCAK256 PUSH1 0x1 PUSH1 0x4 SWAP1 SWAP3 MUL ADD ADD SLOAD PUSH2 0x3B62 SWAP2 SWAP1 PUSH1 0x1 PUSH1 0x1 PUSH1 0x80 SHL SUB AND PUSH2 0x58B0 JUMP JUMPDEST PUSH2 0x3B6C SWAP2 SWAP1 PUSH2 0x5A62 JUMP JUMPDEST SWAP1 POP PUSH1 0x0 DUP3 DUP11 PUSH1 0x0 DUP10 DUP2 SLOAD DUP2 LT PUSH2 0x3B85 JUMPI PUSH2 0x3B85 PUSH2 0x581B JUMP JUMPDEST PUSH1 0x0 SWAP2 DUP3 MSTORE PUSH1 0x20 SWAP1 SWAP2 KECCAK256 PUSH1 0x4 SWAP1 SWAP2 MUL ADD PUSH1 0x1 ADD SLOAD PUSH2 0x3BB3 SWAP2 SWAP1 PUSH1 0x1 PUSH1 0x80 SHL SWAP1 DIV PUSH1 0x1 PUSH1 0x1 PUSH1 0x80 SHL SUB AND PUSH2 0x58B0 JUMP JUMPDEST PUSH2 0x3BBD SWAP2 SWAP1 PUSH2 0x5A62 JUMP JUMPDEST SWAP1 POP PUSH1 0x0 PUSH2 0x3C18 PUSH1 0x0 DUP10 DUP2 SLOAD DUP2 LT PUSH2 0x3BD7 JUMPI PUSH2 0x3BD7 PUSH2 0x581B JUMP JUMPDEST SWAP1 PUSH1 0x0 MSTORE PUSH1 0x20 PUSH1 0x0 KECCAK256 SWAP1 PUSH1 0x4 MUL ADD PUSH1 0x1 ADD PUSH1 0x10 SWAP1 SLOAD SWAP1 PUSH2 0x100 EXP SWAP1 DIV PUSH1 0x1 PUSH1 0x1 PUSH1 0x80 SHL SUB AND PUSH1 0x1 PUSH1 0x1 PUSH1 0x80 SHL SUB AND PUSH1 0x0 DUP11 DUP2 SLOAD DUP2 LT PUSH2 0x106A JUMPI PUSH2 0x106A PUSH2 0x581B JUMP JUMPDEST SWAP1 POP PUSH1 0x0 PUSH2 0x3C56 PUSH1 0x0 DUP11 DUP2 SLOAD DUP2 LT PUSH2 0x3C32 JUMPI PUSH2 0x3C32 PUSH2 0x581B JUMP JUMPDEST PUSH1 0x0 SWAP2 DUP3 MSTORE PUSH1 0x20 SWAP1 SWAP2 KECCAK256 PUSH1 0x2 PUSH1 0x4 SWAP1 SWAP3 MUL ADD ADD SLOAD PUSH1 0x1 PUSH1 0x1 PUSH1 0x80 SHL SUB AND DUP4 DUP8 PUSH2 0x2C39 JUMP JUMPDEST SWAP1 POP DUP1 ISZERO PUSH2 0x3C87 JUMPI PUSH1 0x7 SLOAD PUSH1 0x40 DUP1 MLOAD PUSH1 0x20 DUP2 ADD SWAP1 SWAP2 MSTORE PUSH1 0x0 DUP2 MSTORE PUSH2 0x3C87 SWAP2 PUSH1 0x1 PUSH1 0x1 PUSH1 0xA0 SHL SUB AND SWAP1 DUP12 SWAP1 DUP5 SWAP1 PUSH2 0x2CBE JUMP JUMPDEST DUP3 DUP7 PUSH1 0x2 SLOAD PUSH2 0x3C96 SWAP2 SWAP1 PUSH2 0x59FE JUMP JUMPDEST PUSH2 0x3CA0 SWAP2 SWAP1 PUSH2 0x5847 JUMP JUMPDEST PUSH1 0x2 DUP2 SWAP1 SSTORE POP DUP4 DUP8 PUSH1 0x0 DUP12 DUP2 SLOAD DUP2 LT PUSH2 0x3CBB JUMPI PUSH2 0x3CBB PUSH2 0x581B JUMP JUMPDEST PUSH1 0x0 SWAP2 DUP3 MSTORE PUSH1 0x20 SWAP1 SWAP2 KECCAK256 PUSH1 0x1 PUSH1 0x4 SWAP1 SWAP3 MUL ADD ADD SLOAD PUSH2 0x3CE2 SWAP2 SWAP1 PUSH1 0x1 PUSH1 0x1 PUSH1 0x80 SHL SUB AND PUSH2 0x5A76 JUMP JUMPDEST PUSH2 0x3CEC SWAP2 SWAP1 PUSH2 0x5B76 JUMP JUMPDEST PUSH1 0x0 DUP11 DUP2 SLOAD DUP2 LT PUSH2 0x3CFF JUMPI PUSH2 0x3CFF PUSH2 0x581B JUMP JUMPDEST SWAP1 PUSH1 0x0 MSTORE PUSH1 0x20 PUSH1 0x0 KECCAK256 SWAP1 PUSH1 0x4 MUL ADD PUSH1 0x1 ADD PUSH1 0x0 PUSH2 0x100 EXP DUP2 SLOAD DUP2 PUSH1 0x1 PUSH1 0x1 PUSH1 0x80 SHL SUB MUL NOT AND SWAP1 DUP4 PUSH1 0x1 PUSH1 0x1 PUSH1 0x80 SHL SUB AND MUL OR SWAP1 SSTORE POP DUP3 DUP7 PUSH1 0x0 DUP12 DUP2 SLOAD DUP2 LT PUSH2 0x3D49 JUMPI PUSH2 0x3D49 PUSH2 0x581B JUMP JUMPDEST SWAP1 PUSH1 0x0 MSTORE PUSH1 0x20 PUSH1 0x0 KECCAK256 SWAP1 PUSH1 0x4 MUL ADD PUSH1 0x1 ADD PUSH1 0x10 SWAP1 SLOAD SWAP1 PUSH2 0x100 EXP SWAP1 DIV PUSH1 0x1 PUSH1 0x1 PUSH1 0x80 SHL SUB AND PUSH2 0x3D78 SWAP2 SWAP1 PUSH2 0x5A76 JUMP JUMPDEST PUSH2 0x3D82 SWAP2 SWAP1 PUSH2 0x5B76 JUMP JUMPDEST PUSH1 0x0 DUP11 DUP2 SLOAD DUP2 LT PUSH2 0x3D95 JUMPI PUSH2 0x3D95 PUSH2 0x581B JUMP JUMPDEST SWAP1 PUSH1 0x0 MSTORE PUSH1 0x20 PUSH1 0x0 KECCAK256 SWAP1 PUSH1 0x4 MUL ADD PUSH1 0x1 ADD PUSH1 0x10 PUSH2 0x100 EXP DUP2 SLOAD DUP2 PUSH1 0x1 PUSH1 0x1 PUSH1 0x80 SHL SUB MUL NOT AND SWAP1 DUP4 PUSH1 0x1 PUSH1 0x1 PUSH1 0x80 SHL SUB AND MUL OR SWAP1 SSTORE POP PUSH2 0x3E21 PUSH1 0x0 DUP11 DUP2 SLOAD DUP2 LT PUSH2 0x3DE0 JUMPI PUSH2 0x3DE0 PUSH2 0x581B JUMP JUMPDEST SWAP1 PUSH1 0x0 MSTORE PUSH1 0x20 PUSH1 0x0 KECCAK256 SWAP1 PUSH1 0x4 MUL ADD PUSH1 0x1 ADD PUSH1 0x10 SWAP1 SLOAD SWAP1 PUSH2 0x100 EXP SWAP1 DIV PUSH1 0x1 PUSH1 0x1 PUSH1 0x80 SHL SUB AND PUSH1 0x1 PUSH1 0x1 PUSH1 0x80 SHL SUB AND PUSH1 0x0 DUP12 DUP2 SLOAD DUP2 LT PUSH2 0x106A JUMPI PUSH2 0x106A PUSH2 0x581B JUMP JUMPDEST PUSH1 0x0 DUP11 DUP2 SLOAD DUP2 LT PUSH2 0x3E34 JUMPI PUSH2 0x3E34 PUSH2 0x581B JUMP JUMPDEST SWAP1 PUSH1 0x0 MSTORE PUSH1 0x20 PUSH1 0x0 KECCAK256 SWAP1 PUSH1 0x4 MUL ADD PUSH1 0x2 ADD PUSH1 0x0 PUSH2 0x100 EXP DUP2 SLOAD DUP2 PUSH1 0x1 PUSH1 0x1 PUSH1 0x80 SHL SUB MUL NOT AND SWAP1 DUP4 PUSH1 0x1 PUSH1 0x1 PUSH1 0x80 SHL SUB AND MUL OR SWAP1 SSTORE POP PUSH2 0x3E74 CALLER DUP11 DUP15 PUSH2 0x4CFA JUMP JUMPDEST PUSH1 0x4 DUP1 SLOAD PUSH1 0x40 MLOAD PUSH4 0x18A8AD87 PUSH1 0xE0 SHL DUP2 MSTORE ADDRESS SWAP3 DUP2 ADD SWAP3 SWAP1 SWAP3 MSTORE PUSH1 0x24 DUP3 ADD DUP6 SWAP1 MSTORE PUSH1 0x1 PUSH1 0x1 PUSH1 0xA0 SHL SUB AND SWAP1 PUSH4 0x18A8AD87 SWAP1 PUSH1 0x44 ADD PUSH1 0x0 PUSH1 0x40 MLOAD DUP1 DUP4 SUB DUP2 PUSH1 0x0 DUP8 DUP1 EXTCODESIZE ISZERO DUP1 ISZERO PUSH2 0x3EC1 JUMPI PUSH1 0x0 DUP1 REVERT JUMPDEST POP GAS CALL ISZERO DUP1 ISZERO PUSH2 0x3ED5 JUMPI RETURNDATASIZE PUSH1 0x0 DUP1 RETURNDATACOPY RETURNDATASIZE PUSH1 0x0 REVERT JUMPDEST POP POP POP POP POP POP PUSH2 0x3EE8 DUP12 DUP11 DUP5 PUSH1 0x1 PUSH2 0x291E JUMP JUMPDEST PUSH1 0x0 PUSH2 0x3EF3 DUP13 PUSH2 0x2891 JUMP JUMPDEST SWAP1 POP DUP7 PUSH2 0x3F00 DUP5 DUP4 PUSH2 0x59FE JUMP JUMPDEST EQ PUSH2 0x3F1E JUMPI PUSH1 0x40 MLOAD PUSH4 0xA8B538D3 PUSH1 0xE0 SHL DUP2 MSTORE PUSH1 0x4 ADD PUSH1 0x40 MLOAD DUP1 SWAP2 SUB SWAP1 REVERT JUMPDEST PUSH32 0x1DC8BB69DF2B8E91FBDCBFCF93D951B3F0000F085A95FE3F7946D6161439245D DUP13 DUP5 DUP5 DUP15 PUSH1 0x40 MLOAD PUSH2 0x3F53 SWAP5 SWAP4 SWAP3 SWAP2 SWAP1 PUSH2 0x5AA1 JUMP JUMPDEST PUSH1 0x40 MLOAD DUP1 SWAP2 SUB SWAP1 LOG1 PUSH1 0x0 DUP1 MLOAD PUSH1 0x20 PUSH2 0x5C81 DUP4 CODECOPY DUP2 MLOAD SWAP2 MSTORE DUP13 PUSH1 0x0 DUP11 DUP2 SLOAD DUP2 LT PUSH2 0x3F7E JUMPI PUSH2 0x3F7E PUSH2 0x581B JUMP JUMPDEST PUSH1 0x0 SWAP2 DUP3 MSTORE PUSH1 0x20 DUP3 KECCAK256 PUSH1 0x1 PUSH1 0x4 SWAP1 SWAP3 MUL ADD ADD SLOAD DUP2 SLOAD PUSH1 0x1 PUSH1 0x1 PUSH1 0x80 SHL SUB SWAP1 SWAP2 AND SWAP2 SWAP1 DUP13 SWAP1 DUP2 LT PUSH2 0x3FB0 JUMPI PUSH2 0x3FB0 PUSH2 0x581B JUMP JUMPDEST SWAP1 PUSH1 0x0 MSTORE PUSH1 0x20 PUSH1 0x0 KECCAK256 SWAP1 PUSH1 0x4 MUL ADD PUSH1 0x1 ADD PUSH1 0x10 SWAP1 SLOAD SWAP1 PUSH2 0x100 EXP SWAP1 DIV PUSH1 0x1 PUSH1 0x1 PUSH1 0x80 SHL SUB AND PUSH1 0x0 DUP13 DUP2 SLOAD DUP2 LT PUSH2 0x3FE8 JUMPI PUSH2 0x3FE8 PUSH2 0x581B JUMP JUMPDEST SWAP1 PUSH1 0x0 MSTORE PUSH1 0x20 PUSH1 0x0 KECCAK256 SWAP1 PUSH1 0x4 MUL ADD PUSH1 0x3 ADD SLOAD PUSH1 0x40 MLOAD PUSH2 0x400A SWAP5 SWAP4 SWAP3 SWAP2 SWAP1 PUSH2 0x5AC7 JUMP JUMPDEST PUSH1 0x40 MLOAD DUP1 SWAP2 SUB SWAP1 LOG1 POP SWAP1 SWAP11 SWAP10 POP POP POP POP POP POP POP POP POP POP JUMP JUMPDEST PUSH1 0x1 PUSH1 0x1 PUSH1 0xA0 SHL SUB DUP6 AND PUSH1 0x0 SWAP1 DUP2 MSTORE PUSH1 0x1 PUSH1 0x20 MSTORE PUSH1 0x40 SWAP1 KECCAK256 SLOAD DUP6 SWAP1 ISZERO PUSH2 0x405B JUMPI PUSH1 0x40 MLOAD PUSH4 0x402670DF PUSH1 0xE0 SHL DUP2 MSTORE PUSH1 0x4 ADD PUSH1 0x40 MLOAD DUP1 SWAP2 SUB SWAP1 REVERT JUMPDEST PUSH2 0x4066 DUP7 CALLER DUP8 PUSH2 0x2B06 JUMP JUMPDEST PUSH1 0x4 DUP1 SLOAD PUSH1 0x40 MLOAD PUSH4 0xBB9FF5D PUSH1 0xE0 SHL DUP2 MSTORE ADDRESS SWAP3 DUP2 ADD SWAP3 SWAP1 SWAP3 MSTORE PUSH1 0x24 DUP3 ADD DUP7 SWAP1 MSTORE PUSH1 0x1 PUSH1 0x1 PUSH1 0xA0 SHL SUB AND SWAP1 PUSH4 0xBB9FF5D SWAP1 PUSH1 0x44 ADD PUSH1 0x0 PUSH1 0x40 MLOAD DUP1 DUP4 SUB DUP2 PUSH1 0x0 DUP8 DUP1 EXTCODESIZE ISZERO DUP1 ISZERO PUSH2 0x40B3 JUMPI PUSH1 0x0 DUP1 REVERT JUMPDEST POP GAS CALL ISZERO DUP1 ISZERO PUSH2 0x40C7 JUMPI RETURNDATASIZE PUSH1 0x0 DUP1 RETURNDATACOPY RETURNDATASIZE PUSH1 0x0 REVERT JUMPDEST POP POP POP POP PUSH2 0x40D4 DUP7 PUSH2 0x2891 JUMP JUMPDEST SWAP5 POP PUSH1 0x1 DUP6 GT PUSH2 0x40F6 JUMPI PUSH1 0x40 MLOAD PUSH3 0x461BCD PUSH1 0xE5 SHL DUP2 MSTORE PUSH1 0x4 ADD PUSH2 0x8C1 SWAP1 PUSH2 0x5A31 JUMP JUMPDEST PUSH1 0x0 PUSH2 0x4105 PUSH2 0x1091 DUP7 DUP9 PUSH2 0x58B0 JUMP JUMPDEST SWAP1 POP PUSH2 0x410F PUSH2 0x4F07 JUMP JUMPDEST PUSH1 0x0 JUMPDEST PUSH1 0x8 DUP2 LT ISZERO PUSH2 0x4151 JUMPI PUSH1 0x1 DUP3 DUP3 PUSH1 0x8 DUP2 LT PUSH2 0x412F JUMPI PUSH2 0x412F PUSH2 0x581B JUMP JUMPDEST PUSH4 0xFFFFFFFF SWAP1 SWAP3 AND PUSH1 0x20 SWAP3 SWAP1 SWAP3 MUL ADD MSTORE DUP1 PUSH2 0x4149 DUP2 PUSH2 0x59E3 JUMP JUMPDEST SWAP2 POP POP PUSH2 0x4112 JUMP JUMPDEST POP PUSH1 0x40 DUP1 MLOAD PUSH1 0xA0 DUP2 ADD DUP3 MSTORE DUP3 DUP2 MSTORE PUSH1 0x1 PUSH1 0x1 PUSH1 0x80 SHL SUB DUP1 DUP11 AND PUSH1 0x20 DUP4 ADD MSTORE DUP9 DUP2 AND SWAP3 DUP3 ADD SWAP3 SWAP1 SWAP3 MSTORE SWAP1 DUP4 AND PUSH1 0x60 DUP3 ADD MSTORE PUSH1 0x80 DUP2 ADD DUP7 SWAP1 MSTORE PUSH1 0x0 DUP1 SLOAD PUSH1 0x1 DUP2 ADD DUP3 SSTORE SWAP1 DUP1 MSTORE DUP2 MLOAD DUP3 SWAP1 PUSH1 0x4 DUP4 MUL PUSH32 0x290DECD9548B62A8D60345A988386FC84BA6BC95484008F6362F93160EF3E563 ADD SWAP1 PUSH2 0x41CD SWAP1 DUP3 SWAP1 PUSH1 0x8 PUSH2 0x4F26 JUMP JUMPDEST POP PUSH1 0x20 DUP3 DUP2 ADD MLOAD PUSH1 0x40 DUP1 DUP6 ADD MLOAD PUSH1 0x1 PUSH1 0x1 PUSH1 0x80 SHL SUB SWAP3 DUP4 AND PUSH1 0x1 PUSH1 0x80 SHL SWAP2 DUP5 AND SWAP2 SWAP1 SWAP2 MUL OR PUSH1 0x1 DUP6 DUP2 ADD SWAP2 SWAP1 SWAP2 SSTORE PUSH1 0x60 DUP7 ADD MLOAD PUSH1 0x2 DUP1 DUP8 ADD DUP1 SLOAD PUSH1 0x1 PUSH1 0x1 PUSH1 0x80 SHL SUB NOT AND SWAP3 SWAP1 SWAP6 AND SWAP2 SWAP1 SWAP2 OR SWAP1 SWAP4 SSTORE PUSH1 0x80 SWAP1 SWAP6 ADD MLOAD PUSH1 0x3 SWAP1 SWAP5 ADD SWAP4 SWAP1 SWAP4 SSTORE PUSH1 0x1 PUSH1 0x1 PUSH1 0xA0 SHL SUB DUP15 AND PUSH1 0x0 SWAP1 DUP2 MSTORE SWAP4 SWAP1 SWAP2 MSTORE SWAP1 DUP3 KECCAK256 DUP4 SWAP1 SSTORE DUP1 SLOAD DUP11 SWAP3 SWAP1 PUSH2 0x4254 SWAP1 DUP5 SWAP1 PUSH2 0x59FE JUMP JUMPDEST SWAP3 POP POP DUP2 SWAP1 SSTORE POP PUSH2 0x427A PUSH2 0xDEAD DUP3 PUSH2 0x3E8 PUSH1 0x40 MLOAD DUP1 PUSH1 0x20 ADD PUSH1 0x40 MSTORE DUP1 PUSH1 0x0 DUP2 MSTORE POP PUSH2 0x2CBE JUMP JUMPDEST PUSH1 0x0 PUSH2 0x3E8 PUSH2 0x428C PUSH2 0x1091 DUP12 DUP14 PUSH2 0x58B0 JUMP JUMPDEST PUSH2 0x4296 SWAP2 SWAP1 PUSH2 0x5847 JUMP JUMPDEST SWAP1 POP PUSH2 0x42B3 DUP8 DUP4 DUP4 PUSH1 0x40 MLOAD DUP1 PUSH1 0x20 ADD PUSH1 0x40 MSTORE DUP1 PUSH1 0x0 DUP2 MSTORE POP PUSH2 0x2CBE JUMP JUMPDEST PUSH1 0x40 DUP1 MLOAD PUSH1 0x1 PUSH1 0x1 PUSH1 0xA0 SHL SUB DUP14 AND DUP2 MSTORE PUSH1 0x20 DUP2 ADD DUP5 SWAP1 MSTORE PUSH32 0x17AA8D0E85DB1D0531A8181B5BB84E1D4ED744DB1CADD8814ACD3D181FF30137 SWAP2 ADD PUSH1 0x40 MLOAD DUP1 SWAP2 SUB SWAP1 LOG1 PUSH32 0x64B83944E79C3CE8D4C297411DE637C3E102D064677AAC0C163976EBDCD6F50E DUP12 DUP12 DUP12 DUP5 PUSH1 0x40 MLOAD PUSH2 0x432A SWAP5 SWAP4 SWAP3 SWAP2 SWAP1 PUSH2 0x5AA1 JUMP JUMPDEST PUSH1 0x40 MLOAD DUP1 SWAP2 SUB SWAP1 LOG1 PUSH1 0x0 DUP1 MLOAD PUSH1 0x20 PUSH2 0x5C81 DUP4 CODECOPY DUP2 MLOAD SWAP2 MSTORE DUP12 PUSH1 0x0 DUP5 DUP2 SLOAD DUP2 LT PUSH2 0x4355 JUMPI PUSH2 0x4355 PUSH2 0x581B JUMP JUMPDEST PUSH1 0x0 SWAP2 DUP3 MSTORE PUSH1 0x20 DUP3 KECCAK256 PUSH1 0x1 PUSH1 0x4 SWAP1 SWAP3 MUL ADD ADD SLOAD DUP2 SLOAD PUSH1 0x1 PUSH1 0x1 PUSH1 0x80 SHL SUB SWAP1 SWAP2 AND SWAP2 SWAP1 DUP7 SWAP1 DUP2 LT PUSH2 0x4387 JUMPI PUSH2 0x4387 PUSH2 0x581B JUMP JUMPDEST SWAP1 PUSH1 0x0 MSTORE PUSH1 0x20 PUSH1 0x0 KECCAK256 SWAP1 PUSH1 0x4 MUL ADD PUSH1 0x1 ADD PUSH1 0x10 SWAP1 SLOAD SWAP1 PUSH2 0x100 EXP SWAP1 DIV PUSH1 0x1 PUSH1 0x1 PUSH1 0x80 SHL SUB AND PUSH1 0x0 DUP7 DUP2 SLOAD DUP2 LT PUSH2 0x39FF JUMPI PUSH2 0x39FF PUSH2 0x581B JUMP JUMPDEST DUP2 PUSH1 0x1 PUSH1 0x1 PUSH1 0xA0 SHL SUB AND DUP4 PUSH1 0x1 PUSH1 0x1 PUSH1 0xA0 SHL SUB AND EQ ISZERO PUSH2 0x43F2 JUMPI PUSH1 0x40 MLOAD PUSH4 0x180A65B9 PUSH1 0xE3 SHL DUP2 MSTORE PUSH1 0x4 ADD PUSH1 0x40 MLOAD DUP1 SWAP2 SUB SWAP1 REVERT JUMPDEST PUSH1 0x1 PUSH1 0x1 PUSH1 0xA0 SHL SUB DUP4 DUP2 AND PUSH1 0x0 DUP2 DUP2 MSTORE PUSH1 0xE PUSH1 0x20 SWAP1 DUP2 MSTORE PUSH1 0x40 DUP1 DUP4 KECCAK256 SWAP5 DUP8 AND DUP1 DUP5 MSTORE SWAP5 DUP3 MSTORE SWAP2 DUP3 SWAP1 KECCAK256 DUP1 SLOAD PUSH1 0xFF NOT AND DUP7 ISZERO ISZERO SWAP1 DUP2 OR SWAP1 SWAP2 SSTORE SWAP2 MLOAD SWAP2 DUP3 MSTORE PUSH32 0x17307EAB39AB6107E8899845AD3D59BD9653F200F220920489CA2B5937696C31 SWAP2 ADD PUSH1 0x40 MLOAD DUP1 SWAP2 SUB SWAP1 LOG3 POP POP POP JUMP JUMPDEST DUP1 MLOAD PUSH2 0x21A3 SWAP1 PUSH1 0xF SWAP1 PUSH1 0x20 DUP5 ADD SWAP1 PUSH2 0x4E83 JUMP JUMPDEST PUSH1 0x1 PUSH1 0x1 PUSH1 0xA0 SHL SUB DUP3 AND PUSH1 0x0 SWAP1 DUP2 MSTORE PUSH1 0x1 PUSH1 0x20 MSTORE PUSH1 0x40 DUP2 KECCAK256 SLOAD DUP4 SWAP1 ISZERO DUP1 PUSH2 0x44A6 JUMPI POP PUSH1 0x4 SLOAD PUSH1 0x1 PUSH1 0x1 PUSH1 0xA0 SHL SUB DUP3 DUP2 AND SWAP2 AND EQ JUMPDEST ISZERO PUSH2 0x44C3 JUMPI PUSH1 0x40 MLOAD PUSH3 0x461BCD PUSH1 0xE5 SHL DUP2 MSTORE PUSH1 0x4 ADD PUSH2 0x8C1 SWAP1 PUSH2 0x5800 JUMP JUMPDEST PUSH1 0x1 PUSH1 0x1 PUSH1 0xA0 SHL SUB DUP5 AND PUSH1 0x0 SWAP1 DUP2 MSTORE PUSH1 0x1 PUSH1 0x20 MSTORE PUSH1 0x40 DUP2 KECCAK256 SLOAD DUP2 SLOAD SWAP1 SWAP2 PUSH2 0x2E80 SWAP2 DUP7 SWAP2 SWAP1 DUP5 SWAP1 DUP2 LT PUSH2 0x44F7 JUMPI PUSH2 0x44F7 PUSH2 0x581B JUMP JUMPDEST PUSH1 0x0 SWAP2 DUP3 MSTORE PUSH1 0x20 DUP3 KECCAK256 PUSH1 0x1 PUSH1 0x4 SWAP1 SWAP3 MUL ADD ADD SLOAD DUP2 SLOAD PUSH1 0x1 PUSH1 0x1 PUSH1 0x80 SHL SUB SWAP1 SWAP2 AND SWAP2 SWAP1 DUP6 SWAP1 DUP2 LT PUSH2 0x4529 JUMPI PUSH2 0x4529 PUSH2 0x581B JUMP JUMPDEST PUSH1 0x0 SWAP2 DUP3 MSTORE PUSH1 0x20 SWAP1 SWAP2 KECCAK256 PUSH1 0x4 SWAP1 SWAP2 MUL ADD PUSH1 0x1 ADD SLOAD PUSH1 0x1 PUSH1 0x80 SHL SWAP1 DIV PUSH1 0x1 PUSH1 0x1 PUSH1 0x80 SHL SUB AND PUSH2 0x4556 DUP6 PUSH2 0x2F74 JUMP JUMPDEST PUSH2 0x4E01 JUMP JUMPDEST PUSH1 0x1 PUSH1 0x1 PUSH1 0xA0 SHL SUB DUP3 AND PUSH1 0x0 SWAP1 DUP2 MSTORE PUSH1 0x1 PUSH1 0x20 MSTORE PUSH1 0x40 DUP2 KECCAK256 SLOAD DUP4 SWAP1 ISZERO DUP1 PUSH2 0x458F JUMPI POP PUSH1 0x4 SLOAD PUSH1 0x1 PUSH1 0x1 PUSH1 0xA0 SHL SUB DUP3 DUP2 AND SWAP2 AND EQ JUMPDEST ISZERO PUSH2 0x45AC JUMPI PUSH1 0x40 MLOAD PUSH3 0x461BCD PUSH1 0xE5 SHL DUP2 MSTORE PUSH1 0x4 ADD PUSH2 0x8C1 SWAP1 PUSH2 0x5800 JUMP JUMPDEST PUSH1 0x1 PUSH1 0x1 PUSH1 0xA0 SHL SUB DUP5 AND PUSH1 0x0 SWAP1 DUP2 MSTORE PUSH1 0x1 PUSH1 0x20 MSTORE PUSH1 0x40 DUP2 KECCAK256 SLOAD DUP2 SLOAD SWAP1 SWAP2 PUSH2 0x2E80 SWAP2 DUP7 SWAP2 SWAP1 DUP5 SWAP1 DUP2 LT PUSH2 0x45E0 JUMPI PUSH2 0x45E0 PUSH2 0x581B JUMP JUMPDEST SWAP1 PUSH1 0x0 MSTORE PUSH1 0x20 PUSH1 0x0 KECCAK256 SWAP1 PUSH1 0x4 MUL ADD PUSH1 0x1 ADD PUSH1 0x10 SWAP1 SLOAD SWAP1 PUSH2 0x100 EXP SWAP1 DIV PUSH1 0x1 PUSH1 0x1 PUSH1 0x80 SHL SUB AND PUSH1 0x1 PUSH1 0x1 PUSH1 0x80 SHL SUB AND PUSH1 0x0 DUP5 DUP2 SLOAD DUP2 LT PUSH2 0x4621 JUMPI PUSH2 0x4621 PUSH2 0x581B JUMP JUMPDEST PUSH1 0x0 SWAP2 DUP3 MSTORE PUSH1 0x20 SWAP1 SWAP2 KECCAK256 PUSH1 0x1 PUSH1 0x4 SWAP1 SWAP3 MUL ADD ADD SLOAD PUSH1 0x1 PUSH1 0x1 PUSH1 0x80 SHL SUB AND PUSH2 0x2710 PUSH2 0x4E01 JUMP JUMPDEST PUSH1 0x1 PUSH1 0x1 PUSH1 0xA0 SHL SUB DUP5 AND PUSH2 0x466D JUMPI PUSH1 0x40 MLOAD PUSH4 0x7CC7869 PUSH1 0xE3 SHL DUP2 MSTORE PUSH1 0x4 ADD PUSH1 0x40 MLOAD DUP1 SWAP2 SUB SWAP1 REVERT JUMPDEST CALLER PUSH2 0x467D DUP2 DUP8 DUP8 PUSH2 0x2CF6 DUP9 PUSH2 0x4B90 JUMP JUMPDEST PUSH1 0x0 DUP5 DUP2 MSTORE PUSH1 0xD PUSH1 0x20 SWAP1 DUP2 MSTORE PUSH1 0x40 DUP1 DUP4 KECCAK256 PUSH1 0x1 PUSH1 0x1 PUSH1 0xA0 SHL SUB DUP11 AND DUP5 MSTORE SWAP1 SWAP2 MSTORE SWAP1 KECCAK256 SLOAD DUP4 DUP2 LT ISZERO PUSH2 0x46C1 JUMPI PUSH1 0x40 MLOAD PUSH4 0x2D688F61 PUSH1 0xE1 SHL DUP2 MSTORE PUSH1 0x4 ADD PUSH1 0x40 MLOAD DUP1 SWAP2 SUB SWAP1 REVERT JUMPDEST PUSH1 0x0 DUP6 DUP2 MSTORE PUSH1 0xD PUSH1 0x20 SWAP1 DUP2 MSTORE PUSH1 0x40 DUP1 DUP4 KECCAK256 PUSH1 0x1 PUSH1 0x1 PUSH1 0xA0 SHL SUB DUP12 DUP2 AND DUP6 MSTORE SWAP3 MSTORE DUP1 DUP4 KECCAK256 DUP8 DUP6 SUB SWAP1 SSTORE SWAP1 DUP9 AND DUP3 MSTORE DUP2 KECCAK256 DUP1 SLOAD DUP7 SWAP3 SWAP1 PUSH2 0x4700 SWAP1 DUP5 SWAP1 PUSH2 0x59FE JUMP JUMPDEST SWAP1 SWAP2 SSTORE POP POP PUSH1 0x40 DUP1 MLOAD DUP7 DUP2 MSTORE PUSH1 0x20 DUP2 ADD DUP7 SWAP1 MSTORE PUSH1 0x1 PUSH1 0x1 PUSH1 0xA0 SHL SUB DUP1 DUP10 AND SWAP3 DUP11 DUP3 AND SWAP3 SWAP2 DUP7 AND SWAP2 PUSH32 0xC3D58168C5AE7397731D063D5BBF3D657854427343F4C083240F7AACAA2D0F62 SWAP2 ADD PUSH1 0x40 MLOAD DUP1 SWAP2 SUB SWAP1 LOG4 PUSH2 0x9BD DUP3 DUP9 DUP9 DUP9 DUP9 DUP9 PUSH2 0x4BDB JUMP JUMPDEST PUSH1 0x40 DUP1 MLOAD PUSH1 0x0 DUP1 DUP3 MSTORE PUSH1 0x20 DUP3 ADD SWAP1 SWAP3 MSTORE PUSH1 0x1 PUSH1 0x1 PUSH1 0xA0 SHL SUB DUP5 AND SWAP1 DUP4 SWAP1 PUSH1 0x40 MLOAD PUSH2 0x478A SWAP2 SWAP1 PUSH2 0x5B9E JUMP JUMPDEST PUSH1 0x0 PUSH1 0x40 MLOAD DUP1 DUP4 SUB DUP2 DUP6 DUP8 GAS CALL SWAP3 POP POP POP RETURNDATASIZE DUP1 PUSH1 0x0 DUP2 EQ PUSH2 0x47C7 JUMPI PUSH1 0x40 MLOAD SWAP2 POP PUSH1 0x1F NOT PUSH1 0x3F RETURNDATASIZE ADD AND DUP3 ADD PUSH1 0x40 MSTORE RETURNDATASIZE DUP3 MSTORE RETURNDATASIZE PUSH1 0x0 PUSH1 0x20 DUP5 ADD RETURNDATACOPY PUSH2 0x47CC JUMP JUMPDEST PUSH1 0x60 SWAP2 POP JUMPDEST POP POP SWAP1 POP DUP1 PUSH2 0xBAB JUMPI PUSH1 0x40 MLOAD PUSH4 0x30667AAB PUSH1 0xE0 SHL DUP2 MSTORE PUSH1 0x4 ADD PUSH1 0x40 MLOAD DUP1 SWAP2 SUB SWAP1 REVERT JUMPDEST PUSH1 0x40 DUP1 MLOAD PUSH1 0x1 PUSH1 0x1 PUSH1 0xA0 SHL SUB DUP5 DUP2 AND PUSH1 0x24 DUP4 ADD MSTORE PUSH1 0x44 DUP1 DUP4 ADD DUP6 SWAP1 MSTORE DUP4 MLOAD DUP1 DUP5 SUB SWAP1 SWAP2 ADD DUP2 MSTORE PUSH1 0x64 SWAP1 SWAP3 ADD DUP4 MSTORE PUSH1 0x20 DUP3 ADD DUP1 MLOAD PUSH1 0x1 PUSH1 0x1 PUSH1 0xE0 SHL SUB AND PUSH4 0xA9059CBB PUSH1 0xE0 SHL OR SWAP1 MSTORE SWAP2 MLOAD PUSH1 0x0 SWAP3 DUP4 SWAP3 SWAP1 DUP8 AND SWAP2 PUSH2 0x484A SWAP2 SWAP1 PUSH2 0x5B9E JUMP JUMPDEST PUSH1 0x0 PUSH1 0x40 MLOAD DUP1 DUP4 SUB DUP2 PUSH1 0x0 DUP7 GAS CALL SWAP2 POP POP RETURNDATASIZE DUP1 PUSH1 0x0 DUP2 EQ PUSH2 0x4887 JUMPI PUSH1 0x40 MLOAD SWAP2 POP PUSH1 0x1F NOT PUSH1 0x3F RETURNDATASIZE ADD AND DUP3 ADD PUSH1 0x40 MSTORE RETURNDATASIZE DUP3 MSTORE RETURNDATASIZE PUSH1 0x0 PUSH1 0x20 DUP5 ADD RETURNDATACOPY PUSH2 0x488C JUMP JUMPDEST PUSH1 0x60 SWAP2 POP JUMPDEST POP SWAP2 POP SWAP2 POP DUP2 DUP1 ISZERO PUSH2 0x48B6 JUMPI POP DUP1 MLOAD ISZERO DUP1 PUSH2 0x48B6 JUMPI POP DUP1 DUP1 PUSH1 0x20 ADD SWAP1 MLOAD DUP2 ADD SWAP1 PUSH2 0x48B6 SWAP2 SWAP1 PUSH2 0x5BBA JUMP JUMPDEST PUSH2 0x24D5 JUMPI PUSH1 0x40 MLOAD PUSH4 0x7805DA53 PUSH1 0xE0 SHL DUP2 MSTORE PUSH1 0x4 ADD PUSH1 0x40 MLOAD DUP1 SWAP2 SUB SWAP1 REVERT JUMPDEST PUSH1 0x1 PUSH1 0x1 PUSH1 0xA0 SHL SUB DUP6 AND PUSH2 0x495A JUMPI PUSH1 0x0 JUMPDEST DUP4 MLOAD DUP2 LT ISZERO PUSH2 0x4958 JUMPI DUP3 DUP2 DUP2 MLOAD DUP2 LT PUSH2 0x48FF JUMPI PUSH2 0x48FF PUSH2 0x581B JUMP JUMPDEST PUSH1 0x20 MUL PUSH1 0x20 ADD ADD MLOAD PUSH1 0x10 PUSH1 0x0 DUP7 DUP5 DUP2 MLOAD DUP2 LT PUSH2 0x491D JUMPI PUSH2 0x491D PUSH2 0x581B JUMP JUMPDEST PUSH1 0x20 MUL PUSH1 0x20 ADD ADD MLOAD DUP2 MSTORE PUSH1 0x20 ADD SWAP1 DUP2 MSTORE PUSH1 0x20 ADD PUSH1 0x0 KECCAK256 PUSH1 0x0 DUP3 DUP3 SLOAD PUSH2 0x4942 SWAP2 SWAP1 PUSH2 0x59FE JUMP JUMPDEST SWAP1 SWAP2 SSTORE POP PUSH2 0x4951 SWAP1 POP DUP2 PUSH2 0x59E3 JUMP JUMPDEST SWAP1 POP PUSH2 0x48E4 JUMP JUMPDEST POP JUMPDEST PUSH1 0x1 PUSH1 0x1 PUSH1 0xA0 SHL SUB DUP5 AND PUSH2 0xCE3 JUMPI PUSH1 0x0 JUMPDEST DUP4 MLOAD DUP2 LT ISZERO PUSH2 0x9BD JUMPI DUP3 DUP2 DUP2 MLOAD DUP2 LT PUSH2 0x4986 JUMPI PUSH2 0x4986 PUSH2 0x581B JUMP JUMPDEST PUSH1 0x20 MUL PUSH1 0x20 ADD ADD MLOAD PUSH1 0x10 PUSH1 0x0 DUP7 DUP5 DUP2 MLOAD DUP2 LT PUSH2 0x49A4 JUMPI PUSH2 0x49A4 PUSH2 0x581B JUMP JUMPDEST PUSH1 0x20 MUL PUSH1 0x20 ADD ADD MLOAD DUP2 MSTORE PUSH1 0x20 ADD SWAP1 DUP2 MSTORE PUSH1 0x20 ADD PUSH1 0x0 KECCAK256 PUSH1 0x0 DUP3 DUP3 SLOAD PUSH2 0x49C9 SWAP2 SWAP1 PUSH2 0x5847 JUMP JUMPDEST SWAP1 SWAP2 SSTORE POP PUSH2 0x49D8 SWAP1 POP DUP2 PUSH2 0x59E3 JUMP JUMPDEST SWAP1 POP PUSH2 0x496B JUMP JUMPDEST DUP4 EXTCODESIZE ISZERO PUSH2 0xCE3 JUMPI PUSH1 0x40 MLOAD PUSH4 0xBC197C81 PUSH1 0xE0 SHL DUP2 MSTORE PUSH1 0x1 PUSH1 0x1 PUSH1 0xA0 SHL SUB DUP6 AND SWAP1 PUSH4 0xBC197C81 SWAP1 PUSH2 0x4A1A SWAP1 DUP10 SWAP1 DUP10 SWAP1 DUP9 SWAP1 DUP9 SWAP1 DUP9 SWAP1 PUSH1 0x4 ADD PUSH2 0x5BD7 JUMP JUMPDEST PUSH1 0x20 PUSH1 0x40 MLOAD DUP1 DUP4 SUB DUP2 PUSH1 0x0 DUP8 GAS CALL SWAP3 POP POP POP DUP1 ISZERO PUSH2 0x4A55 JUMPI POP PUSH1 0x40 DUP1 MLOAD PUSH1 0x1F RETURNDATASIZE SWAP1 DUP2 ADD PUSH1 0x1F NOT AND DUP3 ADD SWAP1 SWAP3 MSTORE PUSH2 0x4A52 SWAP2 DUP2 ADD SWAP1 PUSH2 0x5C29 JUMP JUMPDEST PUSH1 0x1 JUMPDEST PUSH2 0x4A72 JUMPI PUSH1 0x40 MLOAD PUSH4 0x22EA0359 PUSH1 0xE1 SHL DUP2 MSTORE PUSH1 0x4 ADD PUSH1 0x40 MLOAD DUP1 SWAP2 SUB SWAP1 REVERT JUMPDEST PUSH1 0x1 PUSH1 0x1 PUSH1 0xE0 SHL SUB NOT DUP2 AND PUSH4 0xBC197C81 PUSH1 0xE0 SHL EQ PUSH2 0x9BD JUMPI PUSH1 0x40 MLOAD PUSH4 0x15D52937 PUSH1 0xE1 SHL DUP2 MSTORE PUSH1 0x4 ADD PUSH1 0x40 MLOAD DUP1 SWAP2 SUB SWAP1 REVERT JUMPDEST PUSH1 0x40 DUP1 MLOAD PUSH1 0x1 PUSH1 0x1 PUSH1 0xA0 SHL SUB DUP6 DUP2 AND PUSH1 0x24 DUP4 ADD MSTORE DUP5 DUP2 AND PUSH1 0x44 DUP4 ADD MSTORE PUSH1 0x64 DUP1 DUP4 ADD DUP6 SWAP1 MSTORE DUP4 MLOAD DUP1 DUP5 SUB SWAP1 SWAP2 ADD DUP2 MSTORE PUSH1 0x84 SWAP1 SWAP3 ADD DUP4 MSTORE PUSH1 0x20 DUP3 ADD DUP1 MLOAD PUSH1 0x1 PUSH1 0x1 PUSH1 0xE0 SHL SUB AND PUSH4 0x23B872DD PUSH1 0xE0 SHL OR SWAP1 MSTORE SWAP2 MLOAD PUSH1 0x0 SWAP3 DUP4 SWAP3 SWAP1 DUP9 AND SWAP2 PUSH2 0x4B07 SWAP2 SWAP1 PUSH2 0x5B9E JUMP JUMPDEST PUSH1 0x0 PUSH1 0x40 MLOAD DUP1 DUP4 SUB DUP2 PUSH1 0x0 DUP7 GAS CALL SWAP2 POP POP RETURNDATASIZE DUP1 PUSH1 0x0 DUP2 EQ PUSH2 0x4B44 JUMPI PUSH1 0x40 MLOAD SWAP2 POP PUSH1 0x1F NOT PUSH1 0x3F RETURNDATASIZE ADD AND DUP3 ADD PUSH1 0x40 MSTORE RETURNDATASIZE DUP3 MSTORE RETURNDATASIZE PUSH1 0x0 PUSH1 0x20 DUP5 ADD RETURNDATACOPY PUSH2 0x4B49 JUMP JUMPDEST PUSH1 0x60 SWAP2 POP JUMPDEST POP SWAP2 POP SWAP2 POP DUP2 DUP1 ISZERO PUSH2 0x4B73 JUMPI POP DUP1 MLOAD ISZERO DUP1 PUSH2 0x4B73 JUMPI POP DUP1 DUP1 PUSH1 0x20 ADD SWAP1 MLOAD DUP2 ADD SWAP1 PUSH2 0x4B73 SWAP2 SWAP1 PUSH2 0x5BBA JUMP JUMPDEST PUSH2 0xCE3 JUMPI PUSH1 0x40 MLOAD PUSH4 0x6050FE29 PUSH1 0xE0 SHL DUP2 MSTORE PUSH1 0x4 ADD PUSH1 0x40 MLOAD DUP1 SWAP2 SUB SWAP1 REVERT JUMPDEST PUSH1 0x40 DUP1 MLOAD PUSH1 0x1 DUP1 DUP3 MSTORE DUP2 DUP4 ADD SWAP1 SWAP3 MSTORE PUSH1 0x60 SWAP2 PUSH1 0x0 SWAP2 SWAP1 PUSH1 0x20 DUP1 DUP4 ADD SWAP1 DUP1 CALLDATASIZE DUP4 CALLDATACOPY ADD SWAP1 POP POP SWAP1 POP DUP3 DUP2 PUSH1 0x0 DUP2 MLOAD DUP2 LT PUSH2 0x4BCA JUMPI PUSH2 0x4BCA PUSH2 0x581B JUMP JUMPDEST PUSH1 0x20 SWAP1 DUP2 MUL SWAP2 SWAP1 SWAP2 ADD ADD MSTORE SWAP3 SWAP2 POP POP JUMP JUMPDEST DUP4 EXTCODESIZE ISZERO PUSH2 0xCE3 JUMPI PUSH1 0x40 MLOAD PUSH4 0xF23A6E61 PUSH1 0xE0 SHL DUP2 MSTORE PUSH1 0x1 PUSH1 0x1 PUSH1 0xA0 SHL SUB DUP6 AND SWAP1 PUSH4 0xF23A6E61 SWAP1 PUSH2 0x4C16 SWAP1 DUP10 SWAP1 DUP10 SWAP1 DUP9 SWAP1 DUP9 SWAP1 DUP9 SWAP1 PUSH1 0x4 ADD PUSH2 0x5C46 JUMP JUMPDEST PUSH1 0x20 PUSH1 0x40 MLOAD DUP1 DUP4 SUB DUP2 PUSH1 0x0 DUP8 GAS CALL SWAP3 POP POP POP DUP1 ISZERO PUSH2 0x4C51 JUMPI POP PUSH1 0x40 DUP1 MLOAD PUSH1 0x1F RETURNDATASIZE SWAP1 DUP2 ADD PUSH1 0x1F NOT AND DUP3 ADD SWAP1 SWAP3 MSTORE PUSH2 0x4C4E SWAP2 DUP2 ADD SWAP1 PUSH2 0x5C29 JUMP JUMPDEST PUSH1 0x1 JUMPDEST PUSH2 0x4C6E JUMPI PUSH1 0x40 MLOAD PUSH4 0x22EA0359 PUSH1 0xE1 SHL DUP2 MSTORE PUSH1 0x4 ADD PUSH1 0x40 MLOAD DUP1 SWAP2 SUB SWAP1 REVERT JUMPDEST PUSH1 0x1 PUSH1 0x1 PUSH1 0xE0 SHL SUB NOT DUP2 AND PUSH4 0xF23A6E61 PUSH1 0xE0 SHL EQ PUSH2 0x9BD JUMPI PUSH1 0x40 MLOAD PUSH4 0x15D52937 PUSH1 0xE1 SHL DUP2 MSTORE PUSH1 0x4 ADD PUSH1 0x40 MLOAD DUP1 SWAP2 SUB SWAP1 REVERT JUMPDEST PUSH1 0x0 DUP1 PUSH2 0x4CAC DUP4 DUP8 PUSH2 0x58B0 JUMP JUMPDEST SWAP1 POP PUSH1 0x0 DUP2 PUSH2 0x4CBD PUSH2 0x2710 DUP9 PUSH2 0x58B0 JUMP JUMPDEST PUSH2 0x4CC7 SWAP2 SWAP1 PUSH2 0x59FE JUMP JUMPDEST PUSH2 0x4CD1 DUP4 DUP8 PUSH2 0x58B0 JUMP JUMPDEST PUSH2 0x19DB SWAP2 SWAP1 PUSH2 0x5A62 JUMP JUMPDEST PUSH1 0x0 PUSH1 0x8 PUSH2 0x4CEB PUSH2 0x3840 TIMESTAMP PUSH2 0x5A62 JUMP JUMPDEST PUSH2 0x4CF5 SWAP2 SWAP1 PUSH2 0x5B62 JUMP JUMPDEST SWAP1 POP SWAP1 JUMP JUMPDEST PUSH1 0x1 PUSH1 0x1 PUSH1 0xA0 SHL SUB DUP4 AND PUSH2 0x4D21 JUMPI PUSH1 0x40 MLOAD PUSH4 0xEDBA591D PUSH1 0xE0 SHL DUP2 MSTORE PUSH1 0x4 ADD PUSH1 0x40 MLOAD DUP1 SWAP2 SUB SWAP1 REVERT JUMPDEST CALLER PUSH2 0x4D50 DUP2 DUP6 PUSH1 0x0 PUSH2 0x4D32 DUP8 PUSH2 0x4B90 JUMP JUMPDEST PUSH2 0x4D3B DUP8 PUSH2 0x4B90 JUMP JUMPDEST PUSH1 0x40 MLOAD DUP1 PUSH1 0x20 ADD PUSH1 0x40 MSTORE DUP1 PUSH1 0x0 DUP2 MSTORE POP PUSH2 0x48D3 JUMP JUMPDEST PUSH1 0x0 DUP4 DUP2 MSTORE PUSH1 0xD PUSH1 0x20 SWAP1 DUP2 MSTORE PUSH1 0x40 DUP1 DUP4 KECCAK256 PUSH1 0x1 PUSH1 0x1 PUSH1 0xA0 SHL SUB DUP9 AND DUP5 MSTORE SWAP1 SWAP2 MSTORE SWAP1 KECCAK256 SLOAD DUP3 DUP2 LT ISZERO PUSH2 0x4D94 JUMPI PUSH1 0x40 MLOAD PUSH4 0x1CFB29E1 PUSH1 0xE2 SHL DUP2 MSTORE PUSH1 0x4 ADD PUSH1 0x40 MLOAD DUP1 SWAP2 SUB SWAP1 REVERT JUMPDEST PUSH1 0x0 DUP5 DUP2 MSTORE PUSH1 0xD PUSH1 0x20 SWAP1 DUP2 MSTORE PUSH1 0x40 DUP1 DUP4 KECCAK256 PUSH1 0x1 PUSH1 0x1 PUSH1 0xA0 SHL SUB DUP10 DUP2 AND DUP1 DUP7 MSTORE SWAP2 DUP5 MSTORE DUP3 DUP6 KECCAK256 DUP9 DUP8 SUB SWAP1 SSTORE DUP3 MLOAD DUP10 DUP2 MSTORE SWAP4 DUP5 ADD DUP9 SWAP1 MSTORE SWAP1 SWAP3 SWAP1 DUP7 AND SWAP2 PUSH32 0xC3D58168C5AE7397731D063D5BBF3D657854427343F4C083240F7AACAA2D0F62 SWAP2 ADD PUSH1 0x40 MLOAD DUP1 SWAP2 SUB SWAP1 LOG4 POP POP POP POP POP JUMP JUMPDEST PUSH1 0x0 DUP1 PUSH2 0x4E0E DUP7 DUP6 PUSH2 0x5847 JUMP JUMPDEST PUSH2 0x4E18 SWAP1 DUP5 PUSH2 0x58B0 JUMP JUMPDEST PUSH2 0x2710 PUSH2 0x4E25 DUP9 DUP9 PUSH2 0x58B0 JUMP JUMPDEST PUSH2 0x4E2F SWAP2 SWAP1 PUSH2 0x58B0 JUMP JUMPDEST PUSH2 0x4E39 SWAP2 SWAP1 PUSH2 0x5A62 JUMP JUMPDEST PUSH2 0x4E44 SWAP1 PUSH1 0x1 PUSH2 0x59FE JUMP JUMPDEST SWAP7 SWAP6 POP POP POP POP POP POP JUMP JUMPDEST PUSH1 0x40 MLOAD DUP1 PUSH1 0xA0 ADD PUSH1 0x40 MSTORE DUP1 PUSH2 0x4E61 PUSH2 0x4F07 JUMP JUMPDEST DUP2 MSTORE PUSH1 0x0 PUSH1 0x20 DUP3 ADD DUP2 SWAP1 MSTORE PUSH1 0x40 DUP3 ADD DUP2 SWAP1 MSTORE PUSH1 0x60 DUP3 ADD DUP2 SWAP1 MSTORE PUSH1 0x80 SWAP1 SWAP2 ADD MSTORE SWAP1 JUMP JUMPDEST DUP3 DUP1 SLOAD PUSH2 0x4E8F SWAP1 PUSH2 0x587B JUMP JUMPDEST SWAP1 PUSH1 0x0 MSTORE PUSH1 0x20 PUSH1 0x0 KECCAK256 SWAP1 PUSH1 0x1F ADD PUSH1 0x20 SWAP1 DIV DUP2 ADD SWAP3 DUP3 PUSH2 0x4EB1 JUMPI PUSH1 0x0 DUP6 SSTORE PUSH2 0x4EF7 JUMP JUMPDEST DUP3 PUSH1 0x1F LT PUSH2 0x4ECA JUMPI DUP1 MLOAD PUSH1 0xFF NOT AND DUP4 DUP1 ADD OR DUP6 SSTORE PUSH2 0x4EF7 JUMP JUMPDEST DUP3 DUP1 ADD PUSH1 0x1 ADD DUP6 SSTORE DUP3 ISZERO PUSH2 0x4EF7 JUMPI SWAP2 DUP3 ADD JUMPDEST DUP3 DUP2 GT ISZERO PUSH2 0x4EF7 JUMPI DUP3 MLOAD DUP3 SSTORE SWAP2 PUSH1 0x20 ADD SWAP2 SWAP1 PUSH1 0x1 ADD SWAP1 PUSH2 0x4EDC JUMP JUMPDEST POP PUSH2 0x4F03 SWAP3 SWAP2 POP PUSH2 0x4FB9 JUMP JUMPDEST POP SWAP1 JUMP JUMPDEST PUSH1 0x40 MLOAD DUP1 PUSH2 0x100 ADD PUSH1 0x40 MSTORE DUP1 PUSH1 0x8 SWAP1 PUSH1 0x20 DUP3 MUL DUP1 CALLDATASIZE DUP4 CALLDATACOPY POP SWAP2 SWAP3 SWAP2 POP POP JUMP JUMPDEST PUSH1 0x1 DUP4 ADD SWAP2 DUP4 SWAP1 DUP3 ISZERO PUSH2 0x4EF7 JUMPI SWAP2 PUSH1 0x20 MUL DUP3 ADD PUSH1 0x0 JUMPDEST DUP4 DUP3 GT ISZERO PUSH2 0x4F80 JUMPI DUP4 MLOAD DUP4 DUP3 PUSH2 0x100 EXP DUP2 SLOAD DUP2 PUSH4 0xFFFFFFFF MUL NOT AND SWAP1 DUP4 PUSH4 0xFFFFFFFF AND MUL OR SWAP1 SSTORE POP SWAP3 PUSH1 0x20 ADD SWAP3 PUSH1 0x4 ADD PUSH1 0x20 DUP2 PUSH1 0x3 ADD DIV SWAP3 DUP4 ADD SWAP3 PUSH1 0x1 SUB MUL PUSH2 0x4F3C JUMP JUMPDEST DUP1 ISZERO PUSH2 0x4FB0 JUMPI DUP3 DUP2 PUSH2 0x100 EXP DUP2 SLOAD SWAP1 PUSH4 0xFFFFFFFF MUL NOT AND SWAP1 SSTORE PUSH1 0x4 ADD PUSH1 0x20 DUP2 PUSH1 0x3 ADD DIV SWAP3 DUP4 ADD SWAP3 PUSH1 0x1 SUB MUL PUSH2 0x4F80 JUMP JUMPDEST POP POP PUSH2 0x4F03 SWAP3 SWAP2 POP JUMPDEST JUMPDEST DUP1 DUP3 GT ISZERO PUSH2 0x4F03 JUMPI PUSH1 0x0 DUP2 SSTORE PUSH1 0x1 ADD PUSH2 0x4FBA JUMP JUMPDEST PUSH1 0x1 PUSH1 0x1 PUSH1 0xA0 SHL SUB DUP2 AND DUP2 EQ PUSH2 0x25F2 JUMPI PUSH1 0x0 DUP1 REVERT JUMPDEST PUSH1 0x0 DUP1 PUSH1 0x40 DUP4 DUP6 SUB SLT ISZERO PUSH2 0x4FF6 JUMPI PUSH1 0x0 DUP1 REVERT JUMPDEST DUP3 CALLDATALOAD PUSH2 0x5001 DUP2 PUSH2 0x4FCE JUMP JUMPDEST SWAP5 PUSH1 0x20 SWAP4 SWAP1 SWAP4 ADD CALLDATALOAD SWAP4 POP POP POP JUMP JUMPDEST PUSH1 0x1 PUSH1 0x1 PUSH1 0xE0 SHL SUB NOT DUP2 AND DUP2 EQ PUSH2 0x25F2 JUMPI PUSH1 0x0 DUP1 REVERT JUMPDEST PUSH1 0x0 PUSH1 0x20 DUP3 DUP5 SUB SLT ISZERO PUSH2 0x5037 JUMPI PUSH1 0x0 DUP1 REVERT JUMPDEST DUP2 CALLDATALOAD PUSH2 0x1636 DUP2 PUSH2 0x500F JUMP JUMPDEST PUSH1 0x0 PUSH1 0x20 DUP3 DUP5 SUB SLT ISZERO PUSH2 0x5054 JUMPI PUSH1 0x0 DUP1 REVERT JUMPDEST DUP2 CALLDATALOAD PUSH2 0x1636 DUP2 PUSH2 0x4FCE JUMP JUMPDEST PUSH1 0x0 PUSH1 0x20 DUP3 DUP5 SUB SLT ISZERO PUSH2 0x5071 JUMPI PUSH1 0x0 DUP1 REVERT JUMPDEST POP CALLDATALOAD SWAP2 SWAP1 POP JUMP JUMPDEST PUSH1 0x0 JUMPDEST DUP4 DUP2 LT ISZERO PUSH2 0x5093 JUMPI DUP2 DUP2 ADD MLOAD DUP4 DUP3 ADD MSTORE PUSH1 0x20 ADD PUSH2 0x507B JUMP JUMPDEST DUP4 DUP2 GT ISZERO PUSH2 0x174B JUMPI POP POP PUSH1 0x0 SWAP2 ADD MSTORE JUMP JUMPDEST PUSH1 0x0 DUP2 MLOAD DUP1 DUP5 MSTORE PUSH2 0x50BC DUP2 PUSH1 0x20 DUP7 ADD PUSH1 0x20 DUP7 ADD PUSH2 0x5078 JUMP JUMPDEST PUSH1 0x1F ADD PUSH1 0x1F NOT AND SWAP3 SWAP1 SWAP3 ADD PUSH1 0x20 ADD SWAP3 SWAP2 POP POP JUMP JUMPDEST PUSH1 0x20 DUP2 MSTORE PUSH1 0x0 PUSH2 0x1636 PUSH1 0x20 DUP4 ADD DUP5 PUSH2 0x50A4 JUMP JUMPDEST PUSH1 0x0 PUSH1 0xC0 DUP3 DUP5 SUB SLT ISZERO PUSH2 0x2C25 JUMPI PUSH1 0x0 DUP1 REVERT JUMPDEST PUSH4 0x4E487B71 PUSH1 0xE0 SHL PUSH1 0x0 MSTORE PUSH1 0x41 PUSH1 0x4 MSTORE PUSH1 0x24 PUSH1 0x0 REVERT JUMPDEST PUSH1 0x40 MLOAD PUSH1 0x1F DUP3 ADD PUSH1 0x1F NOT AND DUP2 ADD PUSH1 0x1 PUSH1 0x1 PUSH1 0x40 SHL SUB DUP2 GT DUP3 DUP3 LT OR ISZERO PUSH2 0x5133 JUMPI PUSH2 0x5133 PUSH2 0x50F5 JUMP JUMPDEST PUSH1 0x40 MSTORE SWAP2 SWAP1 POP JUMP JUMPDEST PUSH1 0x0 PUSH1 0x1 PUSH1 0x1 PUSH1 0x40 SHL SUB DUP3 GT ISZERO PUSH2 0x5154 JUMPI PUSH2 0x5154 PUSH2 0x50F5 JUMP JUMPDEST POP PUSH1 0x5 SHL PUSH1 0x20 ADD SWAP1 JUMP JUMPDEST PUSH1 0x0 DUP3 PUSH1 0x1F DUP4 ADD SLT PUSH2 0x516F JUMPI PUSH1 0x0 DUP1 REVERT JUMPDEST DUP2 CALLDATALOAD PUSH1 0x20 PUSH2 0x5184 PUSH2 0x517F DUP4 PUSH2 0x513B JUMP JUMPDEST PUSH2 0x510B JUMP JUMPDEST DUP3 DUP2 MSTORE PUSH1 0x5 SWAP3 SWAP1 SWAP3 SHL DUP5 ADD DUP2 ADD SWAP2 DUP2 DUP2 ADD SWAP1 DUP7 DUP5 GT ISZERO PUSH2 0x51A3 JUMPI PUSH1 0x0 DUP1 REVERT JUMPDEST DUP3 DUP7 ADD JUMPDEST DUP5 DUP2 LT ISZERO PUSH2 0x51BE JUMPI DUP1 CALLDATALOAD DUP4 MSTORE SWAP2 DUP4 ADD SWAP2 DUP4 ADD PUSH2 0x51A7 JUMP JUMPDEST POP SWAP7 SWAP6 POP POP POP POP POP POP JUMP JUMPDEST PUSH1 0x0 DUP3 PUSH1 0x1F DUP4 ADD SLT PUSH2 0x51DA JUMPI PUSH1 0x0 DUP1 REVERT JUMPDEST DUP2 CALLDATALOAD PUSH1 0x1 PUSH1 0x1 PUSH1 0x40 SHL SUB DUP2 GT ISZERO PUSH2 0x51F3 JUMPI PUSH2 0x51F3 PUSH2 0x50F5 JUMP JUMPDEST PUSH2 0x5206 PUSH1 0x1F DUP3 ADD PUSH1 0x1F NOT AND PUSH1 0x20 ADD PUSH2 0x510B JUMP JUMPDEST DUP2 DUP2 MSTORE DUP5 PUSH1 0x20 DUP4 DUP7 ADD ADD GT ISZERO PUSH2 0x521B JUMPI PUSH1 0x0 DUP1 REVERT JUMPDEST DUP2 PUSH1 0x20 DUP6 ADD PUSH1 0x20 DUP4 ADD CALLDATACOPY PUSH1 0x0 SWAP2 DUP2 ADD PUSH1 0x20 ADD SWAP2 SWAP1 SWAP2 MSTORE SWAP4 SWAP3 POP POP POP JUMP JUMPDEST PUSH1 0x0 DUP1 PUSH1 0x0 DUP1 PUSH1 0x0 PUSH1 0xA0 DUP7 DUP9 SUB SLT ISZERO PUSH2 0x5250 JUMPI PUSH1 0x0 DUP1 REVERT JUMPDEST DUP6 CALLDATALOAD PUSH2 0x525B DUP2 PUSH2 0x4FCE JUMP JUMPDEST SWAP5 POP PUSH1 0x20 DUP7 ADD CALLDATALOAD PUSH2 0x526B DUP2 PUSH2 0x4FCE JUMP JUMPDEST SWAP4 POP PUSH1 0x40 DUP7 ADD CALLDATALOAD PUSH1 0x1 PUSH1 0x1 PUSH1 0x40 SHL SUB DUP1 DUP3 GT ISZERO PUSH2 0x5287 JUMPI PUSH1 0x0 DUP1 REVERT JUMPDEST PUSH2 0x5293 DUP10 DUP4 DUP11 ADD PUSH2 0x515E JUMP JUMPDEST SWAP5 POP PUSH1 0x60 DUP9 ADD CALLDATALOAD SWAP2 POP DUP1 DUP3 GT ISZERO PUSH2 0x52A9 JUMPI PUSH1 0x0 DUP1 REVERT JUMPDEST PUSH2 0x52B5 DUP10 DUP4 DUP11 ADD PUSH2 0x515E JUMP JUMPDEST SWAP4 POP PUSH1 0x80 DUP9 ADD CALLDATALOAD SWAP2 POP DUP1 DUP3 GT ISZERO PUSH2 0x52CB JUMPI PUSH1 0x0 DUP1 REVERT JUMPDEST POP PUSH2 0x52D8 DUP9 DUP3 DUP10 ADD PUSH2 0x51C9 JUMP JUMPDEST SWAP2 POP POP SWAP3 SWAP6 POP SWAP3 SWAP6 SWAP1 SWAP4 POP JUMP JUMPDEST PUSH1 0x0 DUP1 DUP4 PUSH1 0x1F DUP5 ADD SLT PUSH2 0x52F7 JUMPI PUSH1 0x0 DUP1 REVERT JUMPDEST POP DUP2 CALLDATALOAD PUSH1 0x1 PUSH1 0x1 PUSH1 0x40 SHL SUB DUP2 GT ISZERO PUSH2 0x530E JUMPI PUSH1 0x0 DUP1 REVERT JUMPDEST PUSH1 0x20 DUP4 ADD SWAP2 POP DUP4 PUSH1 0x20 DUP3 PUSH1 0x5 SHL DUP6 ADD ADD GT ISZERO PUSH2 0x5329 JUMPI PUSH1 0x0 DUP1 REVERT JUMPDEST SWAP3 POP SWAP3 SWAP1 POP JUMP JUMPDEST PUSH1 0x0 DUP1 PUSH1 0x20 DUP4 DUP6 SUB SLT ISZERO PUSH2 0x5343 JUMPI PUSH1 0x0 DUP1 REVERT JUMPDEST DUP3 CALLDATALOAD PUSH1 0x1 PUSH1 0x1 PUSH1 0x40 SHL SUB DUP2 GT ISZERO PUSH2 0x5359 JUMPI PUSH1 0x0 DUP1 REVERT JUMPDEST PUSH2 0x5365 DUP6 DUP3 DUP7 ADD PUSH2 0x52E5 JUMP JUMPDEST SWAP1 SWAP7 SWAP1 SWAP6 POP SWAP4 POP POP POP POP JUMP JUMPDEST PUSH1 0x20 DUP1 DUP3 MSTORE DUP3 MLOAD DUP3 DUP3 ADD DUP2 SWAP1 MSTORE PUSH1 0x0 SWAP2 SWAP1 PUSH1 0x40 SWAP1 DUP2 DUP6 ADD SWAP1 DUP7 DUP5 ADD DUP6 DUP1 JUMPDEST DUP4 DUP2 LT ISZERO PUSH2 0x540E JUMPI DUP3 MLOAD DUP1 MLOAD DUP7 DUP5 JUMPDEST PUSH1 0x8 DUP2 LT ISZERO PUSH2 0x53C1 JUMPI DUP3 MLOAD PUSH4 0xFFFFFFFF AND DUP3 MSTORE SWAP2 DUP11 ADD SWAP2 SWAP1 DUP11 ADD SWAP1 PUSH1 0x1 ADD PUSH2 0x539E JUMP JUMPDEST POP POP POP DUP8 DUP2 ADD MLOAD PUSH1 0x1 PUSH1 0x1 PUSH1 0x80 SHL SUB SWAP1 DUP2 AND PUSH2 0x100 DUP9 ADD MSTORE DUP8 DUP3 ADD MLOAD DUP2 AND PUSH2 0x120 DUP9 ADD MSTORE PUSH1 0x60 DUP3 ADD MLOAD AND PUSH2 0x140 DUP8 ADD MSTORE PUSH1 0x80 ADD MLOAD PUSH2 0x160 DUP7 ADD MSTORE PUSH2 0x180 SWAP1 SWAP5 ADD SWAP4 SWAP2 DUP7 ADD SWAP2 PUSH1 0x1 ADD PUSH2 0x538F JUMP JUMPDEST POP SWAP3 SWAP9 SWAP8 POP POP POP POP POP POP POP POP JUMP JUMPDEST PUSH1 0x0 DUP1 PUSH1 0x40 DUP4 DUP6 SUB SLT ISZERO PUSH2 0x542F JUMPI PUSH1 0x0 DUP1 REVERT JUMPDEST DUP3 CALLDATALOAD PUSH1 0x1 PUSH1 0x1 PUSH1 0x40 SHL SUB DUP1 DUP3 GT ISZERO PUSH2 0x5446 JUMPI PUSH1 0x0 DUP1 REVERT JUMPDEST PUSH2 0x5452 DUP7 DUP4 DUP8 ADD PUSH2 0x51C9 JUMP JUMPDEST SWAP4 POP PUSH1 0x20 DUP6 ADD CALLDATALOAD SWAP2 POP DUP1 DUP3 GT ISZERO PUSH2 0x5468 JUMPI PUSH1 0x0 DUP1 REVERT JUMPDEST POP PUSH2 0x5475 DUP6 DUP3 DUP7 ADD PUSH2 0x51C9 JUMP JUMPDEST SWAP2 POP POP SWAP3 POP SWAP3 SWAP1 POP JUMP JUMPDEST PUSH1 0x0 DUP1 PUSH1 0x0 DUP1 PUSH1 0x80 DUP6 DUP8 SUB SLT ISZERO PUSH2 0x5495 JUMPI PUSH1 0x0 DUP1 REVERT JUMPDEST DUP5 CALLDATALOAD PUSH2 0x54A0 DUP2 PUSH2 0x4FCE JUMP JUMPDEST SWAP4 POP PUSH1 0x20 DUP6 ADD CALLDATALOAD SWAP3 POP PUSH1 0x40 DUP6 ADD CALLDATALOAD SWAP2 POP PUSH1 0x60 DUP6 ADD CALLDATALOAD PUSH2 0x54BE DUP2 PUSH2 0x4FCE JUMP JUMPDEST SWAP4 SWAP7 SWAP3 SWAP6 POP SWAP1 SWAP4 POP POP JUMP JUMPDEST PUSH1 0x0 DUP1 PUSH1 0x0 PUSH1 0x60 DUP5 DUP7 SUB SLT ISZERO PUSH2 0x54DE JUMPI PUSH1 0x0 DUP1 REVERT JUMPDEST DUP4 CALLDATALOAD PUSH2 0x54E9 DUP2 PUSH2 0x4FCE JUMP JUMPDEST SWAP3 POP PUSH1 0x20 DUP5 ADD CALLDATALOAD PUSH2 0x54F9 DUP2 PUSH2 0x4FCE JUMP JUMPDEST SWAP3 SWAP6 SWAP3 SWAP5 POP POP POP PUSH1 0x40 SWAP2 SWAP1 SWAP2 ADD CALLDATALOAD SWAP1 JUMP JUMPDEST PUSH1 0x0 DUP1 PUSH1 0x40 DUP4 DUP6 SUB SLT ISZERO PUSH2 0x551D JUMPI PUSH1 0x0 DUP1 REVERT JUMPDEST DUP3 CALLDATALOAD PUSH1 0x1 PUSH1 0x1 PUSH1 0x40 SHL SUB DUP1 DUP3 GT ISZERO PUSH2 0x5534 JUMPI PUSH1 0x0 DUP1 REVERT JUMPDEST DUP2 DUP6 ADD SWAP2 POP DUP6 PUSH1 0x1F DUP4 ADD SLT PUSH2 0x5548 JUMPI PUSH1 0x0 DUP1 REVERT JUMPDEST DUP2 CALLDATALOAD PUSH1 0x20 PUSH2 0x5558 PUSH2 0x517F DUP4 PUSH2 0x513B JUMP JUMPDEST DUP3 DUP2 MSTORE PUSH1 0x5 SWAP3 SWAP1 SWAP3 SHL DUP5 ADD DUP2 ADD SWAP2 DUP2 DUP2 ADD SWAP1 DUP10 DUP5 GT ISZERO PUSH2 0x5577 JUMPI PUSH1 0x0 DUP1 REVERT JUMPDEST SWAP5 DUP3 ADD SWAP5 JUMPDEST DUP4 DUP7 LT ISZERO PUSH2 0x559E JUMPI DUP6 CALLDATALOAD PUSH2 0x558F DUP2 PUSH2 0x4FCE JUMP JUMPDEST DUP3 MSTORE SWAP5 DUP3 ADD SWAP5 SWAP1 DUP3 ADD SWAP1 PUSH2 0x557C JUMP JUMPDEST SWAP7 POP POP DUP7 ADD CALLDATALOAD SWAP3 POP POP DUP1 DUP3 GT ISZERO PUSH2 0x55B4 JUMPI PUSH1 0x0 DUP1 REVERT JUMPDEST POP PUSH2 0x5475 DUP6 DUP3 DUP7 ADD PUSH2 0x515E JUMP JUMPDEST PUSH1 0x0 DUP2 MLOAD DUP1 DUP5 MSTORE PUSH1 0x20 DUP1 DUP6 ADD SWAP5 POP DUP1 DUP5 ADD PUSH1 0x0 JUMPDEST DUP4 DUP2 LT ISZERO PUSH2 0x55F1 JUMPI DUP2 MLOAD DUP8 MSTORE SWAP6 DUP3 ADD SWAP6 SWAP1 DUP3 ADD SWAP1 PUSH1 0x1 ADD PUSH2 0x55D5 JUMP JUMPDEST POP SWAP5 SWAP6 SWAP5 POP POP POP POP POP JUMP JUMPDEST PUSH1 0x20 DUP2 MSTORE PUSH1 0x0 PUSH2 0x1636 PUSH1 0x20 DUP4 ADD DUP5 PUSH2 0x55C1 JUMP JUMPDEST DUP1 ISZERO ISZERO DUP2 EQ PUSH2 0x25F2 JUMPI PUSH1 0x0 DUP1 REVERT JUMPDEST PUSH1 0x0 DUP1 PUSH1 0x40 DUP4 DUP6 SUB SLT ISZERO PUSH2 0x5630 JUMPI PUSH1 0x0 DUP1 REVERT JUMPDEST DUP3 CALLDATALOAD PUSH2 0x563B DUP2 PUSH2 0x4FCE JUMP JUMPDEST SWAP2 POP PUSH1 0x20 DUP4 ADD CALLDATALOAD PUSH2 0x564B DUP2 PUSH2 0x560F JUMP JUMPDEST DUP1 SWAP2 POP POP SWAP3 POP SWAP3 SWAP1 POP JUMP JUMPDEST PUSH1 0x0 DUP1 PUSH1 0x0 DUP1 PUSH1 0x0 DUP1 PUSH1 0xC0 DUP8 DUP10 SUB SLT ISZERO PUSH2 0x566F JUMPI PUSH1 0x0 DUP1 REVERT JUMPDEST DUP7 CALLDATALOAD PUSH2 0x567A DUP2 PUSH2 0x4FCE JUMP JUMPDEST SWAP6 POP PUSH1 0x20 DUP8 ADD CALLDATALOAD PUSH2 0x568A DUP2 PUSH2 0x4FCE JUMP JUMPDEST SWAP5 POP PUSH1 0x40 DUP8 ADD CALLDATALOAD SWAP4 POP PUSH1 0x60 DUP8 ADD CALLDATALOAD SWAP3 POP PUSH1 0x80 DUP8 ADD CALLDATALOAD SWAP2 POP PUSH1 0xA0 DUP8 ADD CALLDATALOAD PUSH2 0x56AF DUP2 PUSH2 0x4FCE JUMP JUMPDEST DUP1 SWAP2 POP POP SWAP3 SWAP6 POP SWAP3 SWAP6 POP SWAP3 SWAP6 JUMP JUMPDEST PUSH1 0x0 PUSH1 0x20 DUP3 DUP5 SUB SLT ISZERO PUSH2 0x56CF JUMPI PUSH1 0x0 DUP1 REVERT JUMPDEST DUP2 CALLDATALOAD PUSH1 0x1 PUSH1 0x1 PUSH1 0x40 SHL SUB DUP2 GT ISZERO PUSH2 0x56E5 JUMPI PUSH1 0x0 DUP1 REVERT JUMPDEST PUSH2 0x56F1 DUP5 DUP3 DUP6 ADD PUSH2 0x51C9 JUMP JUMPDEST SWAP5 SWAP4 POP POP POP POP JUMP JUMPDEST PUSH1 0x0 DUP1 PUSH1 0x40 DUP4 DUP6 SUB SLT ISZERO PUSH2 0x570C JUMPI PUSH1 0x0 DUP1 REVERT JUMPDEST DUP3 CALLDATALOAD PUSH2 0x5717 DUP2 PUSH2 0x4FCE JUMP JUMPDEST SWAP2 POP PUSH1 0x20 DUP4 ADD CALLDATALOAD PUSH2 0x564B DUP2 PUSH2 0x4FCE JUMP JUMPDEST PUSH1 0x0 DUP1 PUSH1 0x0 DUP1 PUSH1 0x0 PUSH1 0xA0 DUP7 DUP9 SUB SLT ISZERO PUSH2 0x573F JUMPI PUSH1 0x0 DUP1 REVERT JUMPDEST DUP6 CALLDATALOAD PUSH2 0x574A DUP2 PUSH2 0x4FCE JUMP JUMPDEST SWAP5 POP PUSH1 0x20 DUP7 ADD CALLDATALOAD PUSH2 0x575A DUP2 PUSH2 0x4FCE JUMP JUMPDEST SWAP4 POP PUSH1 0x40 DUP7 ADD CALLDATALOAD PUSH2 0x576A DUP2 PUSH2 0x4FCE JUMP JUMPDEST SWAP3 POP PUSH1 0x60 DUP7 ADD CALLDATALOAD PUSH2 0x577A DUP2 PUSH2 0x4FCE JUMP JUMPDEST SWAP2 POP PUSH1 0x80 DUP7 ADD CALLDATALOAD PUSH2 0x578A DUP2 PUSH2 0x4FCE JUMP JUMPDEST DUP1 SWAP2 POP POP SWAP3 SWAP6 POP SWAP3 SWAP6 SWAP1 SWAP4 POP JUMP JUMPDEST PUSH1 0x0 DUP1 PUSH1 0x0 DUP1 PUSH1 0x0 PUSH1 0xA0 DUP7 DUP9 SUB SLT ISZERO PUSH2 0x57B0 JUMPI PUSH1 0x0 DUP1 REVERT JUMPDEST DUP6 CALLDATALOAD PUSH2 0x57BB DUP2 PUSH2 0x4FCE JUMP JUMPDEST SWAP5 POP PUSH1 0x20 DUP7 ADD CALLDATALOAD PUSH2 0x57CB DUP2 PUSH2 0x4FCE JUMP JUMPDEST SWAP4 POP PUSH1 0x40 DUP7 ADD CALLDATALOAD SWAP3 POP PUSH1 0x60 DUP7 ADD CALLDATALOAD SWAP2 POP PUSH1 0x80 DUP7 ADD CALLDATALOAD PUSH1 0x1 PUSH1 0x1 PUSH1 0x40 SHL SUB DUP2 GT ISZERO PUSH2 0x57F4 JUMPI PUSH1 0x0 DUP1 REVERT JUMPDEST PUSH2 0x52D8 DUP9 DUP3 DUP10 ADD PUSH2 0x51C9 JUMP JUMPDEST PUSH1 0x20 DUP1 DUP3 MSTORE PUSH1 0x1 SWAP1 DUP3 ADD MSTORE PUSH1 0x43 PUSH1 0xF8 SHL PUSH1 0x40 DUP3 ADD MSTORE PUSH1 0x60 ADD SWAP1 JUMP JUMPDEST PUSH4 0x4E487B71 PUSH1 0xE0 SHL PUSH1 0x0 MSTORE PUSH1 0x32 PUSH1 0x4 MSTORE PUSH1 0x24 PUSH1 0x0 REVERT JUMPDEST PUSH4 0x4E487B71 PUSH1 0xE0 SHL PUSH1 0x0 MSTORE PUSH1 0x11 PUSH1 0x4 MSTORE PUSH1 0x24 PUSH1 0x0 REVERT JUMPDEST PUSH1 0x0 DUP3 DUP3 LT ISZERO PUSH2 0x5859 JUMPI PUSH2 0x5859 PUSH2 0x5831 JUMP JUMPDEST POP SUB SWAP1 JUMP JUMPDEST PUSH1 0x0 PUSH1 0x20 DUP3 DUP5 SUB SLT ISZERO PUSH2 0x5870 JUMPI PUSH1 0x0 DUP1 REVERT JUMPDEST DUP2 MLOAD PUSH2 0x1636 DUP2 PUSH2 0x4FCE JUMP JUMPDEST PUSH1 0x1 DUP2 DUP2 SHR SWAP1 DUP3 AND DUP1 PUSH2 0x588F JUMPI PUSH1 0x7F DUP3 AND SWAP2 POP JUMPDEST PUSH1 0x20 DUP3 LT DUP2 EQ ISZERO PUSH2 0x2C25 JUMPI PUSH4 0x4E487B71 PUSH1 0xE0 SHL PUSH1 0x0 MSTORE PUSH1 0x22 PUSH1 0x4 MSTORE PUSH1 0x24 PUSH1 0x0 REVERT JUMPDEST PUSH1 0x0 DUP2 PUSH1 0x0 NOT DIV DUP4 GT DUP3 ISZERO ISZERO AND ISZERO PUSH2 0x58CA JUMPI PUSH2 0x58CA PUSH2 0x5831 JUMP JUMPDEST POP MUL SWAP1 JUMP JUMPDEST DUP2 CALLDATALOAD PUSH2 0x58DA DUP2 PUSH2 0x4FCE JUMP JUMPDEST DUP2 SLOAD PUSH1 0x1 PUSH1 0x1 PUSH1 0xA0 SHL SUB NOT AND PUSH1 0x1 PUSH1 0x1 PUSH1 0xA0 SHL SUB SWAP2 SWAP1 SWAP2 AND OR DUP2 SSTORE PUSH1 0x20 DUP3 ADD CALLDATALOAD PUSH1 0x1 DUP3 ADD SSTORE PUSH1 0x40 DUP3 ADD CALLDATALOAD PUSH1 0x2 DUP3 ADD SSTORE PUSH1 0x60 DUP3 ADD CALLDATALOAD PUSH1 0x3 DUP3 ADD SSTORE PUSH1 0x80 DUP3 ADD CALLDATALOAD PUSH1 0x4 DUP3 ADD SSTORE PUSH1 0xA0 SWAP2 SWAP1 SWAP2 ADD CALLDATALOAD PUSH1 0x5 SWAP1 SWAP2 ADD SSTORE JUMP JUMPDEST PUSH1 0x0 DUP1 DUP5 SLOAD DUP2 PUSH1 0x1 DUP3 DUP2 SHR SWAP2 POP DUP1 DUP4 AND DUP1 PUSH2 0x5948 JUMPI PUSH1 0x7F DUP4 AND SWAP3 POP JUMPDEST PUSH1 0x20 DUP1 DUP5 LT DUP3 EQ ISZERO PUSH2 0x5968 JUMPI PUSH4 0x4E487B71 PUSH1 0xE0 SHL DUP7 MSTORE PUSH1 0x22 PUSH1 0x4 MSTORE PUSH1 0x24 DUP7 REVERT JUMPDEST DUP2 DUP1 ISZERO PUSH2 0x597C JUMPI PUSH1 0x1 DUP2 EQ PUSH2 0x598D JUMPI PUSH2 0x59BA JUMP JUMPDEST PUSH1 0xFF NOT DUP7 AND DUP10 MSTORE DUP5 DUP10 ADD SWAP7 POP PUSH2 0x59BA JUMP JUMPDEST PUSH1 0x0 DUP12 DUP2 MSTORE PUSH1 0x20 SWAP1 KECCAK256 PUSH1 0x0 JUMPDEST DUP7 DUP2 LT ISZERO PUSH2 0x59B2 JUMPI DUP2 SLOAD DUP12 DUP3 ADD MSTORE SWAP1 DUP6 ADD SWAP1 DUP4 ADD PUSH2 0x5999 JUMP JUMPDEST POP POP DUP5 DUP10 ADD SWAP7 POP JUMPDEST POP DUP9 DUP7 MSTORE PUSH2 0x59D5 DUP2 DUP8 ADD PUSH5 0x173539B7B7 PUSH1 0xD9 SHL DUP2 MSTORE PUSH1 0x5 ADD SWAP1 JUMP JUMPDEST SWAP11 SWAP10 POP POP POP POP POP POP POP POP POP POP JUMP JUMPDEST PUSH1 0x0 PUSH1 0x0 NOT DUP3 EQ ISZERO PUSH2 0x59F7 JUMPI PUSH2 0x59F7 PUSH2 0x5831 JUMP JUMPDEST POP PUSH1 0x1 ADD SWAP1 JUMP JUMPDEST PUSH1 0x0 DUP3 NOT DUP3 GT ISZERO PUSH2 0x5A11 JUMPI PUSH2 0x5A11 PUSH2 0x5831 JUMP JUMPDEST POP ADD SWAP1 JUMP JUMPDEST PUSH1 0x20 DUP1 DUP3 MSTORE PUSH1 0x1 SWAP1 DUP3 ADD MSTORE PUSH1 0x11 PUSH1 0xFA SHL PUSH1 0x40 DUP3 ADD MSTORE PUSH1 0x60 ADD SWAP1 JUMP JUMPDEST PUSH1 0x20 DUP1 DUP3 MSTORE PUSH1 0x1 SWAP1 DUP3 ADD MSTORE PUSH1 0x23 PUSH1 0xF9 SHL PUSH1 0x40 DUP3 ADD MSTORE PUSH1 0x60 ADD SWAP1 JUMP JUMPDEST PUSH4 0x4E487B71 PUSH1 0xE0 SHL PUSH1 0x0 MSTORE PUSH1 0x12 PUSH1 0x4 MSTORE PUSH1 0x24 PUSH1 0x0 REVERT JUMPDEST PUSH1 0x0 DUP3 PUSH2 0x5A71 JUMPI PUSH2 0x5A71 PUSH2 0x5A4C JUMP JUMPDEST POP DIV SWAP1 JUMP JUMPDEST PUSH1 0x0 PUSH1 0x1 PUSH1 0x1 PUSH1 0x80 SHL SUB DUP1 DUP4 AND DUP2 DUP6 AND DUP1 DUP4 SUB DUP3 GT ISZERO PUSH2 0x5A98 JUMPI PUSH2 0x5A98 PUSH2 0x5831 JUMP JUMPDEST ADD SWAP5 SWAP4 POP POP POP POP JUMP JUMPDEST PUSH1 0x1 PUSH1 0x1 PUSH1 0xA0 SHL SUB SWAP5 SWAP1 SWAP5 AND DUP5 MSTORE PUSH1 0x20 DUP5 ADD SWAP3 SWAP1 SWAP3 MSTORE PUSH1 0x40 DUP4 ADD MSTORE PUSH1 0x60 DUP3 ADD MSTORE PUSH1 0x80 ADD SWAP1 JUMP JUMPDEST PUSH1 0x1 PUSH1 0x1 PUSH1 0xA0 SHL SUB SWAP5 SWAP1 SWAP5 AND DUP5 MSTORE PUSH1 0x1 PUSH1 0x1 PUSH1 0x80 SHL SUB SWAP3 DUP4 AND PUSH1 0x20 DUP6 ADD MSTORE SWAP2 AND PUSH1 0x40 DUP4 ADD MSTORE PUSH1 0x60 DUP3 ADD MSTORE PUSH1 0x80 ADD SWAP1 JUMP JUMPDEST PUSH1 0x0 DUP3 MLOAD PUSH2 0x5B09 DUP2 DUP5 PUSH1 0x20 DUP8 ADD PUSH2 0x5078 JUMP JUMPDEST PUSH9 0x3DB4B23E973539B7B7 PUSH1 0xB9 SHL SWAP3 ADD SWAP2 DUP3 MSTORE POP PUSH1 0x9 ADD SWAP2 SWAP1 POP JUMP JUMPDEST PUSH1 0x0 PUSH1 0x20 DUP3 DUP5 SUB SLT ISZERO PUSH2 0x5B36 JUMPI PUSH1 0x0 DUP1 REVERT JUMPDEST POP MLOAD SWAP2 SWAP1 POP JUMP JUMPDEST PUSH1 0x40 DUP2 MSTORE PUSH1 0x0 PUSH2 0x5B50 PUSH1 0x40 DUP4 ADD DUP6 PUSH2 0x55C1 JUMP JUMPDEST DUP3 DUP2 SUB PUSH1 0x20 DUP5 ADD MSTORE PUSH2 0x1632 DUP2 DUP6 PUSH2 0x55C1 JUMP JUMPDEST PUSH1 0x0 DUP3 PUSH2 0x5B71 JUMPI PUSH2 0x5B71 PUSH2 0x5A4C JUMP JUMPDEST POP MOD SWAP1 JUMP JUMPDEST PUSH1 0x0 PUSH1 0x1 PUSH1 0x1 PUSH1 0x80 SHL SUB DUP4 DUP2 AND SWAP1 DUP4 AND DUP2 DUP2 LT ISZERO PUSH2 0x5B96 JUMPI PUSH2 0x5B96 PUSH2 0x5831 JUMP JUMPDEST SUB SWAP4 SWAP3 POP POP POP JUMP JUMPDEST PUSH1 0x0 DUP3 MLOAD PUSH2 0x5BB0 DUP2 DUP5 PUSH1 0x20 DUP8 ADD PUSH2 0x5078 JUMP JUMPDEST SWAP2 SWAP1 SWAP2 ADD SWAP3 SWAP2 POP POP JUMP JUMPDEST PUSH1 0x0 PUSH1 0x20 DUP3 DUP5 SUB SLT ISZERO PUSH2 0x5BCC JUMPI PUSH1 0x0 DUP1 REVERT JUMPDEST DUP2 MLOAD PUSH2 0x1636 DUP2 PUSH2 0x560F JUMP JUMPDEST PUSH1 0x1 PUSH1 0x1 PUSH1 0xA0 SHL SUB DUP7 DUP2 AND DUP3 MSTORE DUP6 AND PUSH1 0x20 DUP3 ADD MSTORE PUSH1 0xA0 PUSH1 0x40 DUP3 ADD DUP2 SWAP1 MSTORE PUSH1 0x0 SWAP1 PUSH2 0x5C03 SWAP1 DUP4 ADD DUP7 PUSH2 0x55C1 JUMP JUMPDEST DUP3 DUP2 SUB PUSH1 0x60 DUP5 ADD MSTORE PUSH2 0x5C15 DUP2 DUP7 PUSH2 0x55C1 JUMP JUMPDEST SWAP1 POP DUP3 DUP2 SUB PUSH1 0x80 DUP5 ADD MSTORE PUSH2 0x318C DUP2 DUP6 PUSH2 0x50A4 JUMP JUMPDEST PUSH1 0x0 PUSH1 0x20 DUP3 DUP5 SUB SLT ISZERO PUSH2 0x5C3B JUMPI PUSH1 0x0 DUP1 REVERT JUMPDEST DUP2 MLOAD PUSH2 0x1636 DUP2 PUSH2 0x500F JUMP JUMPDEST PUSH1 0x1 PUSH1 0x1 PUSH1 0xA0 SHL SUB DUP7 DUP2 AND DUP3 MSTORE DUP6 AND PUSH1 0x20 DUP3 ADD MSTORE PUSH1 0x40 DUP2 ADD DUP5 SWAP1 MSTORE PUSH1 0x60 DUP2 ADD DUP4 SWAP1 MSTORE PUSH1 0xA0 PUSH1 0x80 DUP3 ADD DUP2 SWAP1 MSTORE PUSH1 0x0 SWAP1 PUSH2 0x19DB SWAP1 DUP4 ADD DUP5 PUSH2 0x50A4 JUMP INVALID MLOAD 0xAB SLT ORIGIN 0xA7 EXTCODESIZE DUP3 0xB6 0xB0 0xAC 0xB0 STATICCALL SWAP2 0xB8 CALLVALUE 0xCF PUSH15 0x258A1858C4E23C72CE97241C71AA0D LOG2 PUSH5 0x6970667358 0x22 SLT KECCAK256 CALLVALUE PUSH29 0xF687EC5F8840F5459151E6D69DD38D8AEAEC3B83D8230ABCA3ACC4E0FC CODESIZE PUSH5 0x736F6C6343 STOP ADDMOD SIGNEXTEND STOP CALLER PUSH9 0x747470733A2F2F6461 PUSH21 0x612E63657262792E66692F4365726279537761702F PUSH23 0x312F000000000000000000000000000000000000000000 "
		},
		"gasEstimates": {
			"creation": {
				"codeDepositCost": "4753200",
				"executionCost": "infinite",
				"totalCost": "infinite"
			},
			"external": {
				"addTokenLiquidity(address,uint256,uint256,address)": "infinite",
				"adminChangeCerUsdCreditInPool(address,uint256)": "infinite",
				"adminCreatePool(address,uint256,uint256,address)": "infinite",
				"adminInitialize()": "infinite",
				"adminSetURI(string)": "infinite",
				"adminUpdateFeesAndTvlMultipliers((address,uint256,uint256,uint256,uint256,uint256))": "137673",
				"adminUpdateNameAndSymbol(string,string)": "infinite",
				"balanceOf(address,uint256)": "2715",
				"balanceOfBatch(address[],uint256[])": "infinite",
				"createPool(address,uint256,uint256,address)": "infinite",
				"decimals()": "315",
				"exists(uint256)": "2517",
				"getCurrentOneMinusFeeBasedOnTrades(address)": "infinite",
				"getInputTokensForExactTokens(address,address,uint256)": "infinite",
				"getOutputExactTokensForTokens(address,address,uint256)": "infinite",
				"getPoolsByIds(uint256[])": "infinite",
				"getPoolsByTokens(address[])": "infinite",
				"getSettings()": "13399",
				"getTokenToPoolId(address)": "2631",
				"getUtilsContractAtPos(uint256)": "infinite",
				"increaseCerUsdCreditInPool(address,uint256)": "infinite",
				"isApprovedForAll(address,address)": "infinite",
				"lowLevelSwap(address,uint256,uint256,address)": "infinite",
				"name()": "infinite",
				"owner()": "2443",
				"removeTokenLiquidity(address,uint256,uint256,address)": "infinite",
				"renounceOwnership()": "28250",
				"safeBatchTransferFrom(address,address,uint256[],uint256[],bytes)": "infinite",
				"safeTransferFrom(address,address,uint256,uint256,bytes)": "infinite",
				"setApprovalForAll(address,bool)": "infinite",
				"skimPool(address)": "infinite",
				"supportsInterface(bytes4)": "455",
				"swapExactTokensForTokens(address,address,uint256,uint256,uint256,address)": "infinite",
				"swapTokensForExactTokens(address,address,uint256,uint256,uint256,address)": "infinite",
				"symbol()": "infinite",
				"syncTokenBalanceInPool(address)": "infinite",
				"testInit()": "infinite",
				"testSetupTokens(address,address,address,address,address)": "infinite",
				"totalSupply()": "infinite",
				"totalSupply(uint256)": "2494",
				"transferOwnership(address)": "infinite",
				"uri(uint256)": "infinite"
			}
		},
		"methodIdentifiers": {
			"addTokenLiquidity(address,uint256,uint256,address)": "43fefad4",
			"adminChangeCerUsdCreditInPool(address,uint256)": "cab4ba82",
			"adminCreatePool(address,uint256,uint256,address)": "d5d60737",
			"adminInitialize()": "c09c923b",
			"adminSetURI(string)": "a7fd40bf",
			"adminUpdateFeesAndTvlMultipliers((address,uint256,uint256,uint256,uint256,uint256))": "0c2e075b",
			"adminUpdateNameAndSymbol(string,string)": "3935ac11",
			"balanceOf(address,uint256)": "00fdd58e",
			"balanceOfBatch(address[],uint256[])": "4e1273f4",
			"createPool(address,uint256,uint256,address)": "842980f4",
			"decimals()": "313ce567",
			"exists(uint256)": "4f558e79",
			"getCurrentOneMinusFeeBasedOnTrades(address)": "4c3c0eb2",
			"getInputTokensForExactTokens(address,address,uint256)": "c790985a",
			"getOutputExactTokensForTokens(address,address,uint256)": "48b08d62",
			"getPoolsByIds(uint256[])": "a6d8ad39",
			"getPoolsByTokens(address[])": "34e150ab",
			"getSettings()": "85b4bb53",
			"getTokenToPoolId(address)": "61417516",
			"getUtilsContractAtPos(uint256)": "06fb1a07",
			"increaseCerUsdCreditInPool(address,uint256)": "71858049",
			"isApprovedForAll(address,address)": "e985e9c5",
			"lowLevelSwap(address,uint256,uint256,address)": "5c41dbe0",
			"name()": "06fdde03",
			"owner()": "8da5cb5b",
			"removeTokenLiquidity(address,uint256,uint256,address)": "74fcf071",
			"renounceOwnership()": "715018a6",
			"safeBatchTransferFrom(address,address,uint256[],uint256[],bytes)": "2eb2c2d6",
			"safeTransferFrom(address,address,uint256,uint256,bytes)": "f242432a",
			"setApprovalForAll(address,bool)": "a22cb465",
			"skimPool(address)": "03d604bd",
			"supportsInterface(bytes4)": "01ffc9a7",
			"swapExactTokensForTokens(address,address,uint256,uint256,uint256,address)": "a60c6e55",
			"swapTokensForExactTokens(address,address,uint256,uint256,uint256,address)": "f6524724",
			"symbol()": "95d89b41",
			"syncTokenBalanceInPool(address)": "9bc731fc",
			"testInit()": "b5d11e99",
			"testSetupTokens(address,address,address,address,address)": "eca01093",
			"totalSupply()": "18160ddd",
			"totalSupply(uint256)": "bd85b039",
			"transferOwnership(address)": "f2fde38b",
			"uri(uint256)": "0e89341c"
		}
	},
	"abi": [
		{
			"inputs": [],
			"stateMutability": "nonpayable",
			"type": "constructor"
		},
		{
			"inputs": [],
			"name": "CerbyCronJobsExecution_TransactionsAreTemporarilyDisabled",
			"type": "error"
		},
		{
			"inputs": [],
			"name": "CerbySwapLP1155V1_CallerIsNotOwnerNorApproved",
			"type": "error"
		},
		{
			"inputs": [],
			"name": "CerbySwapLP1155V1_TransactionsAreTemporarilyDisabled",
			"type": "error"
		},
		{
			"inputs": [],
			"name": "CerbySwapV1_AmountOfCerUsdMustBeLargerThanOne",
			"type": "error"
		},
		{
			"inputs": [],
			"name": "CerbySwapV1_AmountOfCerUsdOrTokensInMustBeLargerThanOne",
			"type": "error"
		},
		{
			"inputs": [],
			"name": "CerbySwapV1_AmountOfTokensMustBeLargerThanOne",
			"type": "error"
		},
		{
			"inputs": [],
			"name": "CerbySwapV1_CreditCerUsdIsOverflown",
			"type": "error"
		},
		{
			"inputs": [],
			"name": "CerbySwapV1_CreditCerUsdMustNotBeBelowZero",
			"type": "error"
		},
		{
			"inputs": [],
			"name": "CerbySwapV1_FeeIsWrong",
			"type": "error"
		},
		{
			"inputs": [],
			"name": "CerbySwapV1_FeeOnTransferTokensArentSupported",
			"type": "error"
		},
		{
			"inputs": [],
			"name": "CerbySwapV1_InputCerUsdAmountIsLargerThanMaximumSpecified",
			"type": "error"
		},
		{
			"inputs": [],
			"name": "CerbySwapV1_InputTokensAmountIsLargerThanMaximumSpecified",
			"type": "error"
		},
		{
			"inputs": [],
			"name": "CerbySwapV1_InvariantKValueMustBeSameOrIncreasedOnAnySwaps",
			"type": "error"
		},
		{
			"inputs": [],
			"name": "CerbySwapV1_MintFeeMultiplierMustNotBeLargerThan50Percent",
			"type": "error"
		},
		{
			"inputs": [],
			"name": "CerbySwapV1_MsgValueProvidedMustBeLargerThanAmountIn",
			"type": "error"
		},
		{
			"inputs": [],
			"name": "CerbySwapV1_MsgValueProvidedMustBeZero",
			"type": "error"
		},
		{
			"inputs": [],
			"name": "CerbySwapV1_OutputCerUsdAmountIsLowerThanMinimumSpecified",
			"type": "error"
		},
		{
			"inputs": [],
			"name": "CerbySwapV1_OutputTokensAmountIsLowerThanMinimumSpecified",
			"type": "error"
		},
		{
			"inputs": [],
			"name": "CerbySwapV1_SafeTransferFromFailed",
			"type": "error"
		},
		{
			"inputs": [],
			"name": "CerbySwapV1_SafeTransferNativeFailed",
			"type": "error"
		},
		{
			"inputs": [],
			"name": "CerbySwapV1_SafeTransferTokensFailed",
			"type": "error"
		},
		{
			"inputs": [],
			"name": "CerbySwapV1_SwappingTokenToSameTokenIsForbidden",
			"type": "error"
		},
		{
			"inputs": [],
			"name": "CerbySwapV1_TokenAlreadyExists",
			"type": "error"
		},
		{
			"inputs": [],
			"name": "CerbySwapV1_TokenDoesNotExist",
			"type": "error"
		},
		{
			"inputs": [],
			"name": "CerbySwapV1_TransactionIsExpired",
			"type": "error"
		},
		{
			"inputs": [],
			"name": "CerbySwapV1_TvlMultiplierIsWrong",
			"type": "error"
		},
		{
			"inputs": [],
			"name": "ERC1155_AccountsAndIdsLengthMismatch",
			"type": "error"
		},
		{
			"inputs": [],
			"name": "ERC1155_BalanceQueryForTheZeroAddress",
			"type": "error"
		},
		{
			"inputs": [],
			"name": "ERC1155_BurnAmountExceedsBalance",
			"type": "error"
		},
		{
			"inputs": [],
			"name": "ERC1155_BurnFromZeroAddress",
			"type": "error"
		},
		{
			"inputs": [],
			"name": "ERC1155_ERC1155ReceiverRejectsTokens",
			"type": "error"
		},
		{
			"inputs": [],
			"name": "ERC1155_IdsAndAmountsLengthMismatch",
			"type": "error"
		},
		{
			"inputs": [],
			"name": "ERC1155_InsufficientBalanceForTransfer",
			"type": "error"
		},
		{
			"inputs": [],
			"name": "ERC1155_MintToZeroAddress",
			"type": "error"
		},
		{
			"inputs": [],
			"name": "ERC1155_SettingApprovalStatusForSelf",
			"type": "error"
		},
		{
			"inputs": [],
			"name": "ERC1155_TransferToNonERC1155ReceiverImplementer",
			"type": "error"
		},
		{
			"inputs": [],
			"name": "ERC1155_TransferToZeroAddress",
			"type": "error"
		},
		{
			"inputs": [],
			"name": "Ownable_CallerIsNotOwner",
			"type": "error"
		},
		{
			"inputs": [],
			"name": "Ownable_NewOwnerIsNotTheZeroAddress",
			"type": "error"
		},
		{
			"anonymous": false,
			"inputs": [
				{
					"indexed": true,
					"internalType": "address",
					"name": "account",
					"type": "address"
				},
				{
					"indexed": true,
					"internalType": "address",
					"name": "operator",
					"type": "address"
				},
				{
					"indexed": false,
					"internalType": "bool",
					"name": "approved",
					"type": "bool"
				}
			],
			"name": "ApprovalForAll",
			"type": "event"
		},
		{
			"anonymous": false,
			"inputs": [
				{
					"indexed": false,
					"internalType": "address",
					"name": "token",
					"type": "address"
				},
				{
					"indexed": false,
					"internalType": "uint256",
					"name": "amountTokensIn",
					"type": "uint256"
				},
				{
					"indexed": false,
					"internalType": "uint256",
					"name": "amountCerUsdToMint",
					"type": "uint256"
				},
				{
					"indexed": false,
					"internalType": "uint256",
					"name": "lpAmount",
					"type": "uint256"
				}
			],
			"name": "LiquidityAdded",
			"type": "event"
		},
		{
			"anonymous": false,
			"inputs": [
				{
					"indexed": false,
					"internalType": "address",
					"name": "token",
					"type": "address"
				},
				{
					"indexed": false,
					"internalType": "uint256",
					"name": "amountTokensOut",
					"type": "uint256"
				},
				{
					"indexed": false,
					"internalType": "uint256",
					"name": "amountCerUsdToBurn",
					"type": "uint256"
				},
				{
					"indexed": false,
					"internalType": "uint256",
					"name": "amountLpTokensBalanceToBurn",
					"type": "uint256"
				}
			],
			"name": "LiquidityRemoved",
			"type": "event"
		},
		{
			"anonymous": false,
			"inputs": [
				{
					"indexed": true,
					"internalType": "address",
					"name": "previousOwner",
					"type": "address"
				},
				{
					"indexed": true,
					"internalType": "address",
					"name": "newOwner",
					"type": "address"
				}
			],
			"name": "OwnershipTransferred",
			"type": "event"
		},
		{
			"anonymous": false,
			"inputs": [
				{
					"indexed": false,
					"internalType": "address",
					"name": "token",
					"type": "address"
				},
				{
					"indexed": false,
					"internalType": "uint256",
					"name": "poolId",
					"type": "uint256"
				}
			],
			"name": "PairCreated",
			"type": "event"
		},
		{
			"anonymous": false,
			"inputs": [
				{
					"indexed": false,
					"internalType": "address",
					"name": "token",
					"type": "address"
				},
				{
					"indexed": false,
					"internalType": "address",
					"name": "sender",
					"type": "address"
				},
				{
					"indexed": false,
					"internalType": "uint256",
					"name": "amountTokensIn",
					"type": "uint256"
				},
				{
					"indexed": false,
					"internalType": "uint256",
					"name": "amountCerUsdIn",
					"type": "uint256"
				},
				{
					"indexed": false,
					"internalType": "uint256",
					"name": "amountTokensOut",
					"type": "uint256"
				},
				{
					"indexed": false,
					"internalType": "uint256",
					"name": "amountCerUsdOut",
					"type": "uint256"
				},
				{
					"indexed": false,
					"internalType": "uint256",
					"name": "currentFee",
					"type": "uint256"
				},
				{
					"indexed": false,
					"internalType": "address",
					"name": "transferTo",
					"type": "address"
				}
			],
			"name": "Swap",
			"type": "event"
		},
		{
			"anonymous": false,
			"inputs": [
				{
					"indexed": false,
					"internalType": "address",
					"name": "token",
					"type": "address"
				},
				{
					"indexed": false,
					"internalType": "uint256",
					"name": "newBalanceToken",
					"type": "uint256"
				},
				{
					"indexed": false,
					"internalType": "uint256",
					"name": "newBalanceCerUsd",
					"type": "uint256"
				},
				{
					"indexed": false,
					"internalType": "uint256",
					"name": "newCreditCerUsd",
					"type": "uint256"
				}
			],
			"name": "Sync",
			"type": "event"
		},
		{
			"anonymous": false,
			"inputs": [
				{
					"indexed": true,
					"internalType": "address",
					"name": "operator",
					"type": "address"
				},
				{
					"indexed": true,
					"internalType": "address",
					"name": "from",
					"type": "address"
				},
				{
					"indexed": true,
					"internalType": "address",
					"name": "to",
					"type": "address"
				},
				{
					"indexed": false,
					"internalType": "uint256[]",
					"name": "ids",
					"type": "uint256[]"
				},
				{
					"indexed": false,
					"internalType": "uint256[]",
					"name": "values",
					"type": "uint256[]"
				}
			],
			"name": "TransferBatch",
			"type": "event"
		},
		{
			"anonymous": false,
			"inputs": [
				{
					"indexed": true,
					"internalType": "address",
					"name": "operator",
					"type": "address"
				},
				{
					"indexed": true,
					"internalType": "address",
					"name": "from",
					"type": "address"
				},
				{
					"indexed": true,
					"internalType": "address",
					"name": "to",
					"type": "address"
				},
				{
					"indexed": false,
					"internalType": "uint256",
					"name": "id",
					"type": "uint256"
				},
				{
					"indexed": false,
					"internalType": "uint256",
					"name": "value",
					"type": "uint256"
				}
			],
			"name": "TransferSingle",
			"type": "event"
		},
		{
			"anonymous": false,
			"inputs": [
				{
					"indexed": false,
					"internalType": "string",
					"name": "value",
					"type": "string"
				},
				{
					"indexed": true,
					"internalType": "uint256",
					"name": "id",
					"type": "uint256"
				}
			],
			"name": "URI",
			"type": "event"
		},
		{
			"inputs": [
				{
					"internalType": "address",
					"name": "token",
					"type": "address"
				},
				{
					"internalType": "uint256",
					"name": "amountTokensIn",
					"type": "uint256"
				},
				{
					"internalType": "uint256",
					"name": "expireTimestamp",
					"type": "uint256"
				},
				{
					"internalType": "address",
					"name": "transferTo",
					"type": "address"
				}
			],
			"name": "addTokenLiquidity",
			"outputs": [
				{
					"internalType": "uint256",
					"name": "",
					"type": "uint256"
				}
			],
			"stateMutability": "payable",
			"type": "function"
		},
		{
			"inputs": [
				{
					"internalType": "address",
					"name": "token",
					"type": "address"
				},
				{
					"internalType": "uint256",
					"name": "amountCerUsdCredit",
					"type": "uint256"
				}
			],
			"name": "adminChangeCerUsdCreditInPool",
			"outputs": [],
			"stateMutability": "nonpayable",
			"type": "function"
		},
		{
			"inputs": [
				{
					"internalType": "address",
					"name": "token",
					"type": "address"
				},
				{
					"internalType": "uint256",
					"name": "amountTokensIn",
					"type": "uint256"
				},
				{
					"internalType": "uint256",
					"name": "amountCerUsdToMint",
					"type": "uint256"
				},
				{
					"internalType": "address",
					"name": "transferTo",
					"type": "address"
				}
			],
			"name": "adminCreatePool",
			"outputs": [],
			"stateMutability": "payable",
			"type": "function"
		},
		{
			"inputs": [],
			"name": "adminInitialize",
			"outputs": [],
			"stateMutability": "payable",
			"type": "function"
		},
		{
			"inputs": [
				{
					"internalType": "string",
					"name": "newUrlPrefix",
					"type": "string"
				}
			],
			"name": "adminSetURI",
			"outputs": [],
			"stateMutability": "nonpayable",
			"type": "function"
		},
		{
			"inputs": [
				{
					"components": [
						{
							"internalType": "address",
							"name": "mintFeeBeneficiary",
							"type": "address"
						},
						{
							"internalType": "uint256",
							"name": "mintFeeMultiplier",
							"type": "uint256"
						},
						{
							"internalType": "uint256",
							"name": "feeMinimum",
							"type": "uint256"
						},
						{
							"internalType": "uint256",
							"name": "feeMaximum",
							"type": "uint256"
						},
						{
							"internalType": "uint256",
							"name": "tvlMultiplierMinimum",
							"type": "uint256"
						},
						{
							"internalType": "uint256",
							"name": "tvlMultiplierMaximum",
							"type": "uint256"
						}
					],
					"internalType": "struct CerbySwapV1_Declarations.Settings",
					"name": "_settings",
					"type": "tuple"
				}
			],
			"name": "adminUpdateFeesAndTvlMultipliers",
			"outputs": [],
			"stateMutability": "nonpayable",
			"type": "function"
		},
		{
			"inputs": [
				{
					"internalType": "string",
					"name": "newName",
					"type": "string"
				},
				{
					"internalType": "string",
					"name": "newSymbol",
					"type": "string"
				}
			],
			"name": "adminUpdateNameAndSymbol",
			"outputs": [],
			"stateMutability": "nonpayable",
			"type": "function"
		},
		{
			"inputs": [
				{
					"internalType": "address",
					"name": "account",
					"type": "address"
				},
				{
					"internalType": "uint256",
					"name": "id",
					"type": "uint256"
				}
			],
			"name": "balanceOf",
			"outputs": [
				{
					"internalType": "uint256",
					"name": "",
					"type": "uint256"
				}
			],
			"stateMutability": "view",
			"type": "function"
		},
		{
			"inputs": [
				{
					"internalType": "address[]",
					"name": "accounts",
					"type": "address[]"
				},
				{
					"internalType": "uint256[]",
					"name": "ids",
					"type": "uint256[]"
				}
			],
			"name": "balanceOfBatch",
			"outputs": [
				{
					"internalType": "uint256[]",
					"name": "",
					"type": "uint256[]"
				}
			],
			"stateMutability": "view",
			"type": "function"
		},
		{
			"inputs": [
				{
					"internalType": "address",
					"name": "token",
					"type": "address"
				},
				{
					"internalType": "uint256",
					"name": "amountTokensIn",
					"type": "uint256"
				},
				{
					"internalType": "uint256",
					"name": "amountCerUsdToMint",
					"type": "uint256"
				},
				{
					"internalType": "address",
					"name": "transferTo",
					"type": "address"
				}
			],
			"name": "createPool",
			"outputs": [],
			"stateMutability": "payable",
			"type": "function"
		},
		{
			"inputs": [],
			"name": "decimals",
			"outputs": [
				{
					"internalType": "uint256",
					"name": "",
					"type": "uint256"
				}
			],
			"stateMutability": "pure",
			"type": "function"
		},
		{
			"inputs": [
				{
					"internalType": "uint256",
					"name": "id",
					"type": "uint256"
				}
			],
			"name": "exists",
			"outputs": [
				{
					"internalType": "bool",
					"name": "",
					"type": "bool"
				}
			],
			"stateMutability": "view",
			"type": "function"
		},
		{
			"inputs": [
				{
					"internalType": "address",
					"name": "token",
					"type": "address"
				}
			],
			"name": "getCurrentOneMinusFeeBasedOnTrades",
			"outputs": [
				{
					"internalType": "uint256",
					"name": "fee",
					"type": "uint256"
				}
			],
			"stateMutability": "view",
			"type": "function"
		},
		{
			"inputs": [
				{
					"internalType": "address",
					"name": "tokenIn",
					"type": "address"
				},
				{
					"internalType": "address",
					"name": "tokenOut",
					"type": "address"
				},
				{
					"internalType": "uint256",
					"name": "amountTokensOut",
					"type": "uint256"
				}
			],
			"name": "getInputTokensForExactTokens",
			"outputs": [
				{
					"internalType": "uint256",
					"name": "amountTokensIn",
					"type": "uint256"
				}
			],
			"stateMutability": "view",
			"type": "function"
		},
		{
			"inputs": [
				{
					"internalType": "address",
					"name": "tokenIn",
					"type": "address"
				},
				{
					"internalType": "address",
					"name": "tokenOut",
					"type": "address"
				},
				{
					"internalType": "uint256",
					"name": "amountTokensIn",
					"type": "uint256"
				}
			],
			"name": "getOutputExactTokensForTokens",
			"outputs": [
				{
					"internalType": "uint256",
					"name": "amountTokensOut",
					"type": "uint256"
				}
			],
			"stateMutability": "view",
			"type": "function"
		},
		{
			"inputs": [
				{
					"internalType": "uint256[]",
					"name": "ids",
					"type": "uint256[]"
				}
			],
			"name": "getPoolsByIds",
			"outputs": [
				{
					"components": [
						{
							"internalType": "uint32[8]",
							"name": "tradeVolumePerPeriodInCerUsd",
							"type": "uint32[8]"
						},
						{
							"internalType": "uint128",
							"name": "balanceToken",
							"type": "uint128"
						},
						{
							"internalType": "uint128",
							"name": "balanceCerUsd",
							"type": "uint128"
						},
						{
							"internalType": "uint128",
							"name": "lastSqrtKValue",
							"type": "uint128"
						},
						{
							"internalType": "uint256",
							"name": "creditCerUsd",
							"type": "uint256"
						}
					],
					"internalType": "struct CerbySwapV1_Declarations.Pool[]",
					"name": "",
					"type": "tuple[]"
				}
			],
			"stateMutability": "view",
			"type": "function"
		},
		{
			"inputs": [
				{
					"internalType": "address[]",
					"name": "tokens",
					"type": "address[]"
				}
			],
			"name": "getPoolsByTokens",
			"outputs": [
				{
					"components": [
						{
							"internalType": "uint32[8]",
							"name": "tradeVolumePerPeriodInCerUsd",
							"type": "uint32[8]"
						},
						{
							"internalType": "uint128",
							"name": "balanceToken",
							"type": "uint128"
						},
						{
							"internalType": "uint128",
							"name": "balanceCerUsd",
							"type": "uint128"
						},
						{
							"internalType": "uint128",
							"name": "lastSqrtKValue",
							"type": "uint128"
						},
						{
							"internalType": "uint256",
							"name": "creditCerUsd",
							"type": "uint256"
						}
					],
					"internalType": "struct CerbySwapV1_Declarations.Pool[]",
					"name": "",
					"type": "tuple[]"
				}
			],
			"stateMutability": "view",
			"type": "function"
		},
		{
			"inputs": [],
			"name": "getSettings",
			"outputs": [
				{
					"components": [
						{
							"internalType": "address",
							"name": "mintFeeBeneficiary",
							"type": "address"
						},
						{
							"internalType": "uint256",
							"name": "mintFeeMultiplier",
							"type": "uint256"
						},
						{
							"internalType": "uint256",
							"name": "feeMinimum",
							"type": "uint256"
						},
						{
							"internalType": "uint256",
							"name": "feeMaximum",
							"type": "uint256"
						},
						{
							"internalType": "uint256",
							"name": "tvlMultiplierMinimum",
							"type": "uint256"
						},
						{
							"internalType": "uint256",
							"name": "tvlMultiplierMaximum",
							"type": "uint256"
						}
					],
					"internalType": "struct CerbySwapV1_Declarations.Settings",
					"name": "",
					"type": "tuple"
				}
			],
			"stateMutability": "view",
			"type": "function"
		},
		{
			"inputs": [
				{
					"internalType": "address",
					"name": "token",
					"type": "address"
				}
			],
			"name": "getTokenToPoolId",
			"outputs": [
				{
					"internalType": "uint256",
					"name": "",
					"type": "uint256"
				}
			],
			"stateMutability": "view",
			"type": "function"
		},
		{
			"inputs": [
				{
					"internalType": "uint256",
					"name": "pos",
					"type": "uint256"
				}
			],
			"name": "getUtilsContractAtPos",
			"outputs": [
				{
					"internalType": "address",
					"name": "",
					"type": "address"
				}
			],
			"stateMutability": "view",
			"type": "function"
		},
		{
			"inputs": [
				{
					"internalType": "address",
					"name": "token",
					"type": "address"
				},
				{
					"internalType": "uint256",
					"name": "amountCerUsdCredit",
					"type": "uint256"
				}
			],
			"name": "increaseCerUsdCreditInPool",
			"outputs": [],
			"stateMutability": "nonpayable",
			"type": "function"
		},
		{
			"inputs": [
				{
					"internalType": "address",
					"name": "account",
					"type": "address"
				},
				{
					"internalType": "address",
					"name": "operator",
					"type": "address"
				}
			],
			"name": "isApprovedForAll",
			"outputs": [
				{
					"internalType": "bool",
					"name": "",
					"type": "bool"
				}
			],
			"stateMutability": "view",
			"type": "function"
		},
		{
			"inputs": [
				{
					"internalType": "address",
					"name": "token",
					"type": "address"
				},
				{
					"internalType": "uint256",
					"name": "amountTokensOut",
					"type": "uint256"
				},
				{
					"internalType": "uint256",
					"name": "amountCerUsdOut",
					"type": "uint256"
				},
				{
					"internalType": "address",
					"name": "transferTo",
					"type": "address"
				}
			],
			"name": "lowLevelSwap",
			"outputs": [],
			"stateMutability": "payable",
			"type": "function"
		},
		{
			"inputs": [],
			"name": "name",
			"outputs": [
				{
					"internalType": "string",
					"name": "",
					"type": "string"
				}
			],
			"stateMutability": "view",
			"type": "function"
		},
		{
			"inputs": [],
			"name": "owner",
			"outputs": [
				{
					"internalType": "address",
					"name": "",
					"type": "address"
				}
			],
			"stateMutability": "view",
			"type": "function"
		},
		{
			"inputs": [
				{
					"internalType": "address",
					"name": "token",
					"type": "address"
				},
				{
					"internalType": "uint256",
					"name": "amountLpTokensBalanceToBurn",
					"type": "uint256"
				},
				{
					"internalType": "uint256",
					"name": "expireTimestamp",
					"type": "uint256"
				},
				{
					"internalType": "address",
					"name": "transferTo",
					"type": "address"
				}
			],
			"name": "removeTokenLiquidity",
			"outputs": [
				{
					"internalType": "uint256",
					"name": "",
					"type": "uint256"
				}
			],
			"stateMutability": "nonpayable",
			"type": "function"
		},
		{
			"inputs": [],
			"name": "renounceOwnership",
			"outputs": [],
			"stateMutability": "nonpayable",
			"type": "function"
		},
		{
			"inputs": [
				{
					"internalType": "address",
					"name": "from",
					"type": "address"
				},
				{
					"internalType": "address",
					"name": "to",
					"type": "address"
				},
				{
					"internalType": "uint256[]",
					"name": "ids",
					"type": "uint256[]"
				},
				{
					"internalType": "uint256[]",
					"name": "amounts",
					"type": "uint256[]"
				},
				{
					"internalType": "bytes",
					"name": "data",
					"type": "bytes"
				}
			],
			"name": "safeBatchTransferFrom",
			"outputs": [],
			"stateMutability": "nonpayable",
			"type": "function"
		},
		{
			"inputs": [
				{
					"internalType": "address",
					"name": "from",
					"type": "address"
				},
				{
					"internalType": "address",
					"name": "to",
					"type": "address"
				},
				{
					"internalType": "uint256",
					"name": "id",
					"type": "uint256"
				},
				{
					"internalType": "uint256",
					"name": "amount",
					"type": "uint256"
				},
				{
					"internalType": "bytes",
					"name": "data",
					"type": "bytes"
				}
			],
			"name": "safeTransferFrom",
			"outputs": [],
			"stateMutability": "nonpayable",
			"type": "function"
		},
		{
			"inputs": [
				{
					"internalType": "address",
					"name": "operator",
					"type": "address"
				},
				{
					"internalType": "bool",
					"name": "approved",
					"type": "bool"
				}
			],
			"name": "setApprovalForAll",
			"outputs": [],
			"stateMutability": "nonpayable",
			"type": "function"
		},
		{
			"inputs": [
				{
					"internalType": "address",
					"name": "token",
					"type": "address"
				}
			],
			"name": "skimPool",
			"outputs": [],
			"stateMutability": "nonpayable",
			"type": "function"
		},
		{
			"inputs": [
				{
					"internalType": "bytes4",
					"name": "interfaceId",
					"type": "bytes4"
				}
			],
			"name": "supportsInterface",
			"outputs": [
				{
					"internalType": "bool",
					"name": "",
					"type": "bool"
				}
			],
			"stateMutability": "view",
			"type": "function"
		},
		{
			"inputs": [
				{
					"internalType": "address",
					"name": "tokenIn",
					"type": "address"
				},
				{
					"internalType": "address",
					"name": "tokenOut",
					"type": "address"
				},
				{
					"internalType": "uint256",
					"name": "amountTokensIn",
					"type": "uint256"
				},
				{
					"internalType": "uint256",
					"name": "minAmountTokensOut",
					"type": "uint256"
				},
				{
					"internalType": "uint256",
					"name": "expireTimestamp",
					"type": "uint256"
				},
				{
					"internalType": "address",
					"name": "transferTo",
					"type": "address"
				}
			],
			"name": "swapExactTokensForTokens",
			"outputs": [
				{
					"internalType": "uint256",
					"name": "",
					"type": "uint256"
				},
				{
					"internalType": "uint256",
					"name": "",
					"type": "uint256"
				}
			],
			"stateMutability": "payable",
			"type": "function"
		},
		{
			"inputs": [
				{
					"internalType": "address",
					"name": "tokenIn",
					"type": "address"
				},
				{
					"internalType": "address",
					"name": "tokenOut",
					"type": "address"
				},
				{
					"internalType": "uint256",
					"name": "amountTokensOut",
					"type": "uint256"
				},
				{
					"internalType": "uint256",
					"name": "maxAmountTokensIn",
					"type": "uint256"
				},
				{
					"internalType": "uint256",
					"name": "expireTimestamp",
					"type": "uint256"
				},
				{
					"internalType": "address",
					"name": "transferTo",
					"type": "address"
				}
			],
			"name": "swapTokensForExactTokens",
			"outputs": [
				{
					"internalType": "uint256",
					"name": "",
					"type": "uint256"
				},
				{
					"internalType": "uint256",
					"name": "",
					"type": "uint256"
				}
			],
			"stateMutability": "payable",
			"type": "function"
		},
		{
			"inputs": [],
			"name": "symbol",
			"outputs": [
				{
					"internalType": "string",
					"name": "",
					"type": "string"
				}
			],
			"stateMutability": "view",
			"type": "function"
		},
		{
			"inputs": [
				{
					"internalType": "address",
					"name": "token",
					"type": "address"
				}
			],
			"name": "syncTokenBalanceInPool",
			"outputs": [],
			"stateMutability": "nonpayable",
			"type": "function"
		},
		{
			"inputs": [],
			"name": "testInit",
			"outputs": [],
			"stateMutability": "nonpayable",
			"type": "function"
		},
		{
			"inputs": [
				{
					"internalType": "address",
					"name": "",
					"type": "address"
				},
				{
					"internalType": "address",
					"name": "_testCerbyToken",
					"type": "address"
				},
				{
					"internalType": "address",
					"name": "_cerUsdToken",
					"type": "address"
				},
				{
					"internalType": "address",
					"name": "_testUsdcToken",
					"type": "address"
				},
				{
					"internalType": "address",
					"name": "",
					"type": "address"
				}
			],
			"name": "testSetupTokens",
			"outputs": [],
			"stateMutability": "nonpayable",
			"type": "function"
		},
		{
			"inputs": [],
			"name": "totalSupply",
			"outputs": [
				{
					"internalType": "uint256",
					"name": "",
					"type": "uint256"
				}
			],
			"stateMutability": "view",
			"type": "function"
		},
		{
			"inputs": [
				{
					"internalType": "uint256",
					"name": "id",
					"type": "uint256"
				}
			],
			"name": "totalSupply",
			"outputs": [
				{
					"internalType": "uint256",
					"name": "",
					"type": "uint256"
				}
			],
			"stateMutability": "view",
			"type": "function"
		},
		{
			"inputs": [
				{
					"internalType": "address",
					"name": "newOwner",
					"type": "address"
				}
			],
			"name": "transferOwnership",
			"outputs": [],
			"stateMutability": "nonpayable",
			"type": "function"
		},
		{
			"inputs": [
				{
					"internalType": "uint256",
					"name": "id",
					"type": "uint256"
				}
			],
			"name": "uri",
			"outputs": [
				{
					"internalType": "string",
					"name": "",
					"type": "string"
				}
			],
			"stateMutability": "view",
			"type": "function"
		},
		{
			"stateMutability": "payable",
			"type": "receive"
		}
	]
}