{
	"data": {
		"bytecode": {
			"linkReferences": {},
			"object": "60c0604052600d60808190526c4365726279205377617020563160981b60a0908152620000309160069190620005aa565b5060408051808201909152600d8082526c43455242595f535741505f563160981b60209092019182526200006791600791620005aa565b50604051806060016040528060238152602001620067e76023913980516200009891600891602090910190620005aa565b50600c80546001600160a01b031990811673e7126c0fb4b1f5f79e5bbec3948139dcf348b49c17909155600d80548216730fc5025c764ce34df352757e82f7b5c4df39a836179055600e80548216737412f2cd820d1e63bd130b0ffebe44c4e5a47d71179055600f80549091167314769f96e57b80c66837701de0b43686fb4632de1790553480156200012a57600080fd5b5060086040516020016200013f919062000745565b60408051601f198184030181529190526200015a8162000432565b50620001686000336200044b565b73def78a28c78a461598d948bc0c689ce88f812ad8600060646200018e81601462000803565b6200019a919062000831565b90506351a67366600160c882600083620001b5848462000803565b620001c1919062000831565b6040805160c0810182526001600160a01b038a16808252602082018a9052918101879052606081018690526080810185905260a001829052601080546001600160a01b03191690911790556011879055601285905560138490556014839055601581905590506200023162000639565b6040805160a0810182528281526000602082018190529181018290526060810182905260808101829052600980546001810182559252805190916004027f6e1540171b6c0c960b71a7020d9f60077f6af931a8bbf590da0223dacf75c7af0190620002a0908290600862000658565b50602082015160408301516001600160801b03918216600160801b918316919091021760018381019190915560608401516002840180546001600160801b03191691909316179091556080909201516003909101554614156200032957600f80546001600160a01b03191673c02aaa39b223fe8d0a0e5c4f27ead9083c756cc2179055620003fd565b46603814156200035f57600f80546001600160a01b03191673bb4cdb9cbd36b01bd1cbaebf2de08d9173bc095c179055620003fd565b46608914156200039557600f80546001600160a01b031916730d500b1d8e8ef31e21c99d1db9a6444d3adf1270179055620003fd565b4661a86a1415620003cc57600f80546001600160a01b03191673b31f66aa3c1e785363f0875a1b74e27b85fd66c7179055620003fd565b4660fa1415620003fd57600f80546001600160a01b0319167321be370d5312f44cb42ce377bc9b8a0cef1a4c831790555b5050600f80546001600160a01b0319167314769f96e57b80c66837701de0b43686fb4632de1790555062000854945050505050565b805162000447906002906020840190620005aa565b5050565b6200044782826200046882826200049460201b620029401760201c565b60008281526005602090815260409091206200048f918390620029c662000538821b17901c565b505050565b60008281526004602090815260408083206001600160a01b038516845290915290205460ff16620004475760008281526004602090815260408083206001600160a01b03851684529091529020805460ff19166001179055620004f43390565b6001600160a01b0316816001600160a01b0316837f2f8788117e7eff1d82e926ec794901d17c78024a50270940304540a733656f0d60405160405180910390a45050565b60006200054f836001600160a01b03841662000558565b90505b92915050565b6000818152600183016020526040812054620005a15750815460018181018455600084815260208082209093018490558454848252828601909352604090209190915562000552565b50600062000552565b828054620005b89062000708565b90600052602060002090601f016020900481019282620005dc576000855562000627565b82601f10620005f757805160ff191683800117855562000627565b8280016001018555821562000627579182015b82811115620006275782518255916020019190600101906200060a565b5062000635929150620006f1565b5090565b6040518061010001604052806008906020820280368337509192915050565b600183019183908215620006275791602002820160005b83821115620006b557835183826101000a81548163ffffffff021916908363ffffffff16021790555092602001926004016020816003010492830192600103026200066f565b8015620006e75782816101000a81549063ffffffff0219169055600401602081600301049283019260010302620006b5565b5050620006359291505b5b80821115620006355760008155600101620006f2565b600181811c908216806200071d57607f821691505b602082108114156200073f57634e487b7160e01b600052602260045260246000fd5b50919050565b600080835481600182811c9150808316806200076257607f831692505b60208084108214156200078357634e487b7160e01b86526022600452602486fd5b8180156200079a5760018114620007ac57620007db565b60ff19861689528489019650620007db565b60008a81526020902060005b86811015620007d35781548b820152908501908301620007b8565b505084890196505b505050505050620007fb81683db4b23e973539b7b760b91b815260090190565b949350505050565b60008160001904831182151516156200082c57634e487b7160e01b600052601160045260246000fd5b500290565b6000826200084f57634e487b7160e01b600052601260045260246000fd5b500490565b615f8380620008646000396000f3fe6080604052600436106102b15760003560e01c806374fcf07111610175578063c09c923b116100dc578063d5d6073711610095578063eca010931161006f578063eca01093146108f2578063f242432a14610912578063f5298aca14610932578063f65247241461095257600080fd5b8063d5d607371461082b578063e06174e41461083e578063e985e9c5146108a957600080fd5b8063c09c923b1461078e578063c790985a14610796578063ca15c873146107b6578063cab4ba82146107d6578063d391014b146107f6578063d547741f1461080b57600080fd5b8063a22cb4651161012e578063a22cb465146106c4578063a60c6e55146106e4578063a6d8ad391461070c578063a7fd40bf1461072c578063b5d11e991461074c578063bd85b0391461076157600080fd5b806374fcf0711461061c578063842980f41461063c5780639010d07c1461064f57806391d148541461066f57806395d89b411461068f5780639bc731fc146106a457600080fd5b8063313ce567116102195780634c3c0eb2116101d25780634c3c0eb2146105375780634e1273f4146105575780634f558e79146105845780635c41dbe0146105b357806361417516146105c657806371858049146105fc57600080fd5b8063313ce5671461048357806334e150ab1461049757806336568abe146104c45780633935ac11146104e457806343fefad41461050457806348b08d621461051757600080fd5b80630c2e075b1161026b5780630c2e075b146103bc5780630e89341c146103dc57806318160ddd146103fc578063248a9ca3146104115780632eb2c2d6146104415780632f2ff15d1461046357600080fd5b8062fdd58e146102bd57806301ffc9a7146102f057806303d604bd1461032057806303ed957f1461034257806306fb1a071461036257806306fdde031461039a57600080fd5b366102b857005b600080fd5b3480156102c957600080fd5b506102dd6102d836600461520b565b610965565b6040519081526020015b60405180910390f35b3480156102fc57600080fd5b5061031061030b36600461524d565b6109b7565b60405190151581526020016102e7565b34801561032c57600080fd5b5061034061033b36600461526a565b6109f7565b005b34801561034e57600080fd5b5061034061035d366004615287565b610b4f565b34801561036e57600080fd5b5061038261037d3660046152fb565b610bcc565b6040516001600160a01b0390911681526020016102e7565b3480156103a657600080fd5b506103af610c43565b6040516102e7919061536c565b3480156103c857600080fd5b506103406103d736600461537f565b610cd5565b3480156103e857600080fd5b506103af6103f73660046152fb565b610d8c565b34801561040857600080fd5b506102dd610db8565b34801561041d57600080fd5b506102dd61042c3660046152fb565b60009081526004602052604090206001015490565b34801561044d57600080fd5b5061034061045c3660046154d4565b5050505050565b34801561046f57600080fd5b5061034061047e366004615581565b610e04565b34801561048f57600080fd5b5060126102dd565b3480156104a357600080fd5b506104b76104b23660046155fc565b610e2f565b6040516102e7919061563d565b3480156104d057600080fd5b506103406104df366004615581565b610fd8565b3480156104f057600080fd5b506103406104ff3660046156e8565b61100f565b6102dd61051236600461574b565b611042565b34801561052357600080fd5b506102dd610532366004615795565b611613565b34801561054357600080fd5b506102dd61055236600461526a565b6116e5565b34801561056357600080fd5b506105776105723660046157d6565b611707565b6040516102e7919061588d565b34801561059057600080fd5b5061031061059f3660046152fb565b600090815260036020526040902054151590565b6103406105c136600461574b565b6117e7565b3480156105d257600080fd5b506102dd6105e136600461526a565b6001600160a01b03166000908152600a602052604090205490565b34801561060857600080fd5b5061034061061736600461520b565b6117f3565b34801561062857600080fd5b506102dd61063736600461574b565b6119ce565b61034061064a36600461574b565b611a56565b34801561065b57600080fd5b5061038261066a3660046158d1565b611a64565b34801561067b57600080fd5b5061031061068a366004615581565b611a7c565b34801561069b57600080fd5b506103af611aa7565b3480156106b057600080fd5b506103406106bf36600461526a565b611ab6565b3480156106d057600080fd5b506103406106df366004615901565b611d4b565b6106f76106f236600461592f565b611ec0565b604080519283526020830191909152016102e7565b34801561071857600080fd5b506104b76107273660046155fc565b612105565b34801561073857600080fd5b50610340610747366004615996565b612273565b34801561075857600080fd5b506103406122ba565b34801561076d57600080fd5b506102dd61077c3660046152fb565b60009081526003602052604090205490565b61034061230a565b3480156107a257600080fd5b506102dd6107b1366004615795565b612342565b3480156107c257600080fd5b506102dd6107d13660046152fb565b612402565b3480156107e257600080fd5b506103406107f136600461520b565b612419565b34801561080257600080fd5b506102dd600081565b34801561081757600080fd5b50610340610826366004615581565b61257f565b61034061083936600461574b565b6125a5565b34801561084a57600080fd5b50601054601154601254601354601454601554610872956001600160a01b0316949392919086565b604080516001600160a01b0390971687526020870195909552938501929092526060840152608083015260a082015260c0016102e7565b3480156108b557600080fd5b506103106108c43660046159d2565b6001600160a01b03918216600090815260016020908152604080832093909416825291909152205460ff1690565b3480156108fe57600080fd5b5061034061090d366004615a00565b6125c0565b34801561091e57600080fd5b5061034061092d366004615a71565b612605565b34801561093e57600080fd5b5061034061094d366004615ad9565b61265b565b6106f761096036600461592f565b6126a4565b60006001600160a01b03831661098e57604051636e3b454760e11b815260040160405180910390fd5b506000818152602081815260408083206001600160a01b03861684529091529020545b92915050565b60006001600160e01b03198216636cdb3d1360e11b14806109e857506001600160e01b031982166303a24d0760e21b145b806109b157506109b1826129db565b6001600160a01b0381166000908152600a602052604090205481901580610a2b5750600d546001600160a01b038281169116145b15610a515760405162461bcd60e51b8152600401610a4890615b0e565b60405180910390fd5b6001600160a01b0382166000908152600a602052604081205490610a7484612a10565b600d54909150600090610a8f906001600160a01b0316612a10565b9050600060098481548110610aa657610aa6615b29565b6000918252602090912060016004909202010154610acd906001600160801b031684615b55565b90508015610ae257610ae28633836000612a9d565b600060098581548110610af757610af7615b29565b6000918252602090912060049091020160010154610b2590600160801b90046001600160801b031684615b55565b90508015610b4657600d54610b46906001600160a01b031633836000612a9d565b50505050505050565b6000610b5b8133612add565b60005b82811015610bc657610bb4848483818110610b7b57610b7b615b29565b90506040020160000135858584818110610b9757610b97615b29565b9050604002016020016020810190610baf919061526a565b612b16565b80610bbe81615b6c565b915050610b5e565b50505050565b6040516306fb1a0760e01b81526004810182905260009073def1fac7bf08f173d286bbbdcbeeade695129840906306fb1a0790602401602060405180830381865afa158015610c1f573d6000803e3d6000fd5b505050506040513d601f19601f820116820180604052508101906109b19190615b87565b606060068054610c5290615ba4565b80601f0160208091040260200160405190810160405280929190818152602001828054610c7e90615ba4565b8015610ccb5780601f10610ca057610100808354040283529160200191610ccb565b820191906000526020600020905b815481529060010190602001808311610cae57829003601f168201915b5050505050905090565b6000610ce18133612add565b60408201351580610cf9575081606001358260400135115b80610d0957506101f48260600135115b15610d2757604051637420258d60e11b815260040160405180910390fd5b8160a0013582608001351115610d50576040516375e1700b60e11b815260040160405180910390fd5b6064610d6160208401356002615bd9565b10610d7f57604051631457c3c360e11b815260040160405180910390fd5b816010610bc68282615bf8565b6060600882604051602001610da2929190615c55565b6040516020818303038152906040529050919050565b60008060005b6000600381610dcc85615b6c565b94508481526020019081526020016000205411156109b157600082815260036020526040902054610dfd9082615d0c565b9050610dbe565b600082815260046020526040902060010154610e208133612add565b610e2a8383612b1c565b505050565b60606000826001600160401b03811115610e4b57610e4b615391565b604051908082528060200260200182016040528015610e8457816020015b610e71615076565b815260200190600190039081610e695790505b50905060005b83811015610fd0576009600a6000878785818110610eaa57610eaa615b29565b9050602002016020810190610ebf919061526a565b6001600160a01b03166001600160a01b031681526020019081526020016000205481548110610ef057610ef0615b29565b60009182526020909120604080516101a0810190915291600402018160a081018260088282826020028201916000905b82829054906101000a900463ffffffff1663ffffffff1681526020019060040190602082600301049283019260010382029150808411610f205750505092845250505060018201546001600160801b038082166020840152600160801b9091048116604083015260028301541660608201526003909101546080909101528251839083908110610fb257610fb2615b29565b60200260200101819052508080610fc890615b6c565b915050610e8a565b509392505050565b6001600160a01b0381163314611001576040516319cd37b760e11b815260040160405180910390fd5b61100b8282612b3e565b5050565b600061101b8133612add565b825161102e9060069060208601906150ab565b508151610bc69060079060208501906150ab565b6001600160a01b0384166000908152600a6020526040812054859015806110765750600d546001600160a01b038281169116145b156110935760405162461bcd60e51b8152600401610a4890615b0e565b83804211156110b45760405162461bcd60e51b8152600401610a4890615d24565b6001600160a01b0387166000908152600a60205260409020546110d8883389612b60565b60006110e389612a10565b9050600982815481106110f8576110f8615b29565b600091825260209091206001600490920201015461111f906001600160801b031682615b55565b9750600188116111415760405162461bcd60e51b8152600401610a4890615d3f565b600d54600090611159906001600160a01b0316612a10565b90506000600b548261116b9190615b55565b905060006111f26009868154811061118557611185615b29565b906000526020600020906004020160010160109054906101000a90046001600160801b03166001600160801b0316600987815481106111c6576111c6615b29565b60009182526020909120600160049092020101546111ed91906001600160801b0316615bd9565b612c24565b905060006112446009878154811061120c5761120c615b29565b600091825260208083206002600490930201919091015489835260039091526040909120546001600160801b03909116908490612c93565b9050801561127557601054604080516020810190915260008152611275916001600160a01b03169088908490612d18565b505060006009858154811061128c5761128c615b29565b600091825260208083206001600490930201919091015487835260039091526040909120546001600160801b03909116906112c7908d615bd9565b6112d19190615d70565b90506112ee89868360405180602001604052806000815250612d18565b60006009868154811061130357611303615b29565b6000918252602090912060016004909202010154600980546001600160801b03909216918890811061133757611337615b29565b600091825260209091206004909102016001015461136590600160801b90046001600160801b03168e615bd9565b61136f9190615d70565b90506001811161139157604051621037cb60e91b815260040160405180910390fd5b600d54604051630bb9ff5d60e01b8152306004820152602481018390526001600160a01b0390911690630bb9ff5d90604401600060405180830381600087803b1580156113dd57600080fd5b505af11580156113f1573d6000803e3d6000fd5b505050508083600b546114049190615d0c565b61140e9190615d0c565b600b819055508b6009878154811061142857611428615b29565b600091825260209091206001600490920201015461144f91906001600160801b0316615d84565b6009878154811061146257611462615b29565b6000918252602090912060049091020160010180546001600160801b0319166001600160801b039290921691909117905561149d8184615d0c565b600987815481106114b0576114b0615b29565b906000526020600020906004020160010160109054906101000a90046001600160801b03166114df9190615d84565b600987815481106114f2576114f2615b29565b906000526020600020906004020160010160106101000a8154816001600160801b0302191690836001600160801b0316021790555061157e6009878154811061153d5761153d615b29565b906000526020600020906004020160010160109054906101000a90046001600160801b03166001600160801b0316600988815481106111c6576111c6615b29565b6009878154811061159157611591615b29565b906000526020600020906004020160020160006101000a8154816001600160801b0302191690836001600160801b031602179055507f64b83944e79c3ce8d4c297411de637c3e102d064677aac0c163976ebdcd6f50e8d8d83856040516115fb9493929190615daf565b60405180910390a1509b9a5050505050505050505050565b600d546000906001600160a01b038581169116148015906116415750600d546001600160a01b038481169116145b15611657576116508483612def565b90506116de565b600d546001600160a01b0385811691161480156116825750600d546001600160a01b03848116911614155b15611691576116508383612ee2565b600d546001600160a01b038581169116148015906116bd5750600d546001600160a01b03858116911614155b156116de5760006116ce8584612def565b90506116da8482612ee2565b9150505b9392505050565b6001600160a01b0381166000908152600a60205260408120546109b190612fcc565b6060815183511461172b576040516380dadc2760e01b815260040160405180910390fd5b600083516001600160401b0381111561174657611746615391565b60405190808252806020026020018201604052801561176f578160200160208202803683370190505b50905060005b8451811015610fd0576117ba85828151811061179357611793615b29565b60200260200101518583815181106117ad576117ad615b29565b6020026020010151610965565b8282815181106117cc576117cc615b29565b60209081029190910101526117e081615b6c565b9050611775565b610bc6848484846131f0565b6001600160a01b0382166000908152600a602052604090205461181882600019615b55565b6009828154811061182b5761182b615b29565b906000526020600020906004020160030154111561186f5760405162461bcd60e51b81526020600482015260016024820152600b60fb1b6044820152606401610a48565b816009828154811061188357611883615b29565b906000526020600020906004020160030160008282546118a39190615d0c565b9091555050600d546040516318a8ad8760e01b8152336004820152602481018490526001600160a01b03909116906318a8ad8790604401600060405180830381600087803b1580156118f457600080fd5b505af1158015611908573d6000803e3d6000fd5b50505050600080516020615f2e833981519152836009838154811061192f5761192f615b29565b906000526020600020906004020160010160009054906101000a90046001600160801b03166009848154811061196757611967615b29565b906000526020600020906004020160010160109054906101000a90046001600160801b03166009858154811061199f5761199f615b29565b9060005260206000209060040201600301546040516119c19493929190615dd5565b60405180910390a1505050565b6001600160a01b0384166000908152600a602052604081205485901580611a025750600d546001600160a01b038281169116145b15611a1f5760405162461bcd60e51b8152600401610a4890615b0e565b8380421115611a405760405162461bcd60e51b8152600401610a4890615d24565b611a4b878786613aa4565b979650505050505050565b610bc6848484600085613f88565b60008281526005602052604081206116de9083614328565b60009182526004602090815260408084206001600160a01b0393909316845291905290205460ff1690565b606060078054610c5290615ba4565b6001600160a01b0381166000908152600a602052604090205481901580611aea5750600d546001600160a01b038281169116145b15611b075760405162461bcd60e51b8152600401610a4890615b0e565b6001600160a01b0382166000908152600a6020526040902054611b2983612a10565b60098281548110611b3c57611b3c615b29565b6000918252602082206004919091020160010180546001600160801b0319166001600160801b039390931692909217909155600d54611b83906001600160a01b0316612a10565b9050600b548160098481548110611b9c57611b9c615b29565b6000918252602090912060049091020160010154611bca9190600160801b90046001600160801b0316615d0c565b611bd49190615b55565b60098381548110611be757611be7615b29565b906000526020600020906004020160010160106101000a8154816001600160801b0302191690836001600160801b03160217905550600b548160098481548110611c3357611c33615b29565b906000526020600020906004020160030154611c4f9190615d0c565b611c599190615b55565b60098381548110611c6c57611c6c615b29565b90600052602060002090600402016003018190555080600b81905550600080516020615f2e8339815191528460098481548110611cab57611cab615b29565b906000526020600020906004020160010160009054906101000a90046001600160801b031660098581548110611ce357611ce3615b29565b906000526020600020906004020160010160109054906101000a90046001600160801b031660098681548110611d1b57611d1b615b29565b906000526020600020906004020160030154604051611d3d9493929190615dd5565b60405180910390a150505050565b6040516306fb1a0760e01b8152600360048201523090339060009073def1fac7bf08f173d286bbbdcbeeade695129840906306fb1a0790602401602060405180830381865afa158015611da2573d6000803e3d6000fd5b505050506040513d601f19601f82011682018060405250810190611dc69190615b87565b604051630c8b57ef60e21b81526001600160a01b03858116600483015284811660248301529192509082169063322d5fbc906044016020604051808303816000875af1158015611e1a573d6000803e3d6000fd5b505050506040513d601f19601f82011682018060405250810190611e3e9190615e05565b15611e5c57604051630e30cf0f60e01b815260040160405180910390fd5b806001600160a01b031663eef84ba16040518163ffffffff1660e01b8152600401600060405180830381600087803b158015611e9757600080fd5b505af1158015611eab573d6000803e3d6000fd5b5050505061045c611eb93390565b8686614334565b6000808380421115611ee45760405162461bcd60e51b8152600401610a4890615d24565b60018711611f045760405162461bcd60e51b8152600401610a4890615d3f565b600d5433906000906001600160a01b038c8116911614801590611f345750600d546001600160a01b038b81169116145b15611f9657611f438b8a612def565b905087811015611f795760405162461bcd60e51b81526020600482015260016024820152600960fb1b6044820152606401610a48565b611f848b838b612b60565b611f918b600083896131f0565b6120f4565b600d546001600160a01b038c81169116148015611fc15750600d546001600160a01b038b8116911614155b1561201e57611fd08a8a612ee2565b9050878110156120065760405162461bcd60e51b81526020600482015260016024820152606960f81b6044820152606401610a48565b6120118b838b612b60565b611f918a826000896131f0565b600d546001600160a01b038c811691161480159061204a5750600d546001600160a01b038c8116911614155b156120c857600061205b8c8b612def565b90506120678b82612ee2565b91508882101561209d5760405162461bcd60e51b81526020600482015260016024820152606960f81b6044820152606401610a48565b6120a88c848c612b60565b6120b58c600083306131f0565b6120c28b8360008a6131f0565b506120f4565b60405162461bcd60e51b81526020600482015260016024820152601360fa1b6044820152606401610a48565b979a97995096975050505050505050565b60606000826001600160401b0381111561212157612121615391565b60405190808252806020026020018201604052801561215a57816020015b612147615076565b81526020019060019003908161213f5790505b50905060005b83811015610fd057600985858381811061217c5761217c615b29565b905060200201358154811061219357612193615b29565b60009182526020909120604080516101a0810190915291600402018160a081018260088282826020028201916000905b82829054906101000a900463ffffffff1663ffffffff16815260200190600401906020826003010492830192600103820291508084116121c35750505092845250505060018201546001600160801b038082166020840152600160801b909104811660408301526002830154166060820152600390910154608090910152825183908390811061225557612255615b29565b6020026020010181905250808061226b90615b6c565b915050612160565b600061227f8133612add565b6122a7826040516020016122939190615e22565b6040516020818303038152906040526143d4565b8151610e2a9060089060208501906150ab565b600c546122e6906001600160a01b031669d3c21bcecceda10000006969e10de76676d0800000336125a5565b600e54612308906001600160a01b031669943b1377290cbd80000080336125a5565b565b60006123168133612add565b600f5461233f906001600160a01b031666038d7ea4c6800069d3c21bcecceda1000000336125a5565b50565b600d546000906001600160a01b038581169116148015906123705750600d546001600160a01b038481169116145b1561237f5761165084836143e7565b600d546001600160a01b0385811691161480156123aa5750600d546001600160a01b03848116911614155b156123b95761165083836144d1565b600d546001600160a01b038581169116148015906123e55750600d546001600160a01b03848116911614155b156116de5760006123f684846144d1565b90506116da85826143e7565b60008181526005602052604081206109b1906145bb565b60006124258133612add565b6001600160a01b0383166000908152600a6020526040902054839015806124595750600d546001600160a01b038281169116145b156124765760405162461bcd60e51b8152600401610a4890615b0e565b6001600160a01b0384166000908152600a602052604090205460098054859190839081106124a6576124a6615b29565b906000526020600020906004020160030181905550600080516020615f2e83398151915285600983815481106124de576124de615b29565b906000526020600020906004020160010160009054906101000a90046001600160801b03166009848154811061251657612516615b29565b906000526020600020906004020160010160109054906101000a90046001600160801b03166009858154811061254e5761254e615b29565b9060005260206000209060040201600301546040516125709493929190615dd5565b60405180910390a15050505050565b60008281526004602052604090206001015461259b8133612add565b610e2a8383612b3e565b60006125b18133612add565b61045c85858560001986613f88565b600c80546001600160a01b038087166001600160a01b031992831617909255600d8054868416908316179055600e80549285169290911691909117905561045c6122ba565b6001600160a01b0385163314801590612625575061262385336108c4565b155b1561264357604051630de6955560e31b815260040160405180910390fd5b61264e3086866145c5565b61045c858585858561474a565b6001600160a01b038316331480159061267b575061267983336108c4565b155b1561269957604051630de6955560e31b815260040160405180910390fd5b610e2a838383614860565b60008083804211156126c85760405162461bcd60e51b8152600401610a4890615d24565b600d5433906000906001600160a01b038c81169116148015906126f85750600d546001600160a01b038b81169116145b1561277a576127078b8a6143e7565b90508781111561273d5760405162461bcd60e51b81526020600482015260016024820152604b60f81b6044820152606401610a48565b6001811161275d5760405162461bcd60e51b8152600401610a4890615d3f565b6127688b8383612b60565b6127758b60008b896131f0565b612930565b600d546001600160a01b038c811691161480156127a55750600d546001600160a01b038b8116911614155b15612836576127b48a8a6144d1565b9050878111156127ea5760405162461bcd60e51b81526020600482015260016024820152602560f91b6044820152606401610a48565b6001811161281e5760405162461bcd60e51b81526020600482015260016024820152605560f81b6044820152606401610a48565b6128298b8383612b60565b6127758a8a6000896131f0565b600d546001600160a01b038c81169116148015906128625750600d546001600160a01b038b8116911614155b156120c85760006128738b8b6144d1565b9050600181116128a95760405162461bcd60e51b81526020600482015260016024820152605560f81b6044820152606401610a48565b6128b38c826143e7565b9150888211156128e95760405162461bcd60e51b81526020600482015260016024820152604b60f81b6044820152606401610a48565b600182116129095760405162461bcd60e51b8152600401610a4890615d3f565b6129148c8484612b60565b6129218c600083306131f0565b61292e8b8b60008a6131f0565b505b9a97995096975050505050505050565b61294a8282611a7c565b61100b5760008281526004602090815260408083206001600160a01b03851684529091529020805460ff191660011790556129823390565b6001600160a01b0316816001600160a01b0316837f2f8788117e7eff1d82e926ec794901d17c78024a50270940304540a733656f0d60405160405180910390a45050565b60006116de836001600160a01b038416614963565b60006001600160e01b03198216635a05180f60e01b14806109b157506301ffc9a760e01b6001600160e01b03198316146109b1565b600f546000906001600160a01b0383811691161415612a30575047919050565b6040516370a0823160e01b81523060048201526001600160a01b038316906370a0823190602401602060405180830381865afa158015612a74573d6000803e3d6000fd5b505050506040513d601f19601f820116820180604052508101906109b19190615e4f565b919050565b6001600160a01b0383163014610bc657600f546001600160a01b0385811691161415612ad257612acd83836149b2565b610bc6565b610bc6848484614a40565b612ae78282611a7c565b61100b5760405163151bf58b60e21b81526001600160a01b038216600482015260248101839052604401610a48565b61100b82825b612b268282612940565b6000828152600560205260409020610e2a90826129c6565b612b488282614b25565b6000828152600560205260409020610e2a9082614b8c565b600f546001600160a01b03848116911614612bc3573415612ba75760405162461bcd60e51b81526020600482015260016024820152604760f81b6044820152606401610a48565b6001600160a01b0382163014610e2a57610e2a83833084614ba1565b600f546001600160a01b0384811691161415610e2a5780341015612bfa5760405163ac50b70d60e01b815260040160405180910390fd5b80341115610e2a57600f54610e2a906001600160a01b031633612c1d8434615b55565b6000612a9d565b60006003821115612c855750806000612c3e600283615d70565b612c49906001615d0c565b90505b81811015612c7f57905080600281612c648186615d70565b612c6e9190615d0c565b612c789190615d70565b9050612c4c565b50919050565b8115612a9857506001919050565b60115460009081908585118015612caa5750600086115b8015612cb65750600081115b15612d0f57612cc58187615bd9565b612cd0826064615b55565b612cda9087615bd9565b612ce49190615d0c565b612cee8787615b55565b612cf88387615bd9565b612d029190615bd9565b612d0c9190615d70565b91505b50949350505050565b6001600160a01b038416612d3f57604051633e11866b60e21b815260040160405180910390fd5b33612d5f81600087612d5088614c96565b612d5988614c96565b87614ce1565b6000848152602081815260408083206001600160a01b038916845290915281208054859290612d8f908490615d0c565b909155505060408051858152602081018590526001600160a01b0380881692600092918516917fc3d58168c5ae7397731d063d5bbf3d657854427343f4c083240f7aacaa2d0f62910160405180910390a461045c81600087878787614ded565b6001600160a01b0382166000908152600a602052604081205483901580612e235750600d546001600160a01b038281169116145b15612e405760405162461bcd60e51b8152600401610a4890615b0e565b6001600160a01b0384166000908152600a602052604090205460098054612ed991869184908110612e7357612e73615b29565b6000918252602090912060016004909202010154600980546001600160801b039092169185908110612ea757612ea7615b29565b6000918252602090912060049091020160010154600160801b90046001600160801b0316612ed485612fcc565b614eb1565b95945050505050565b6001600160a01b0382166000908152600a602052604081205483901580612f165750600d546001600160a01b038281169116145b15612f335760405162461bcd60e51b8152600401610a4890615b0e565b6001600160a01b0384166000908152600a602052604090205460098054612ed991869184908110612f6657612f66615b29565b906000526020600020906004020160010160109054906101000a90046001600160801b03166001600160801b031660098481548110612fa757612fa7615b29565b60009182526020909120600160049092020101546001600160801b0316612710614eb1565b600080612fd7614eed565b905060006008612fe8836001615d0c565b612ff29190615e68565b90506000805b600881101561308f578381148061300e57508281145b156130185761307d565b6009868154811061302b5761302b615b29565b9060005260206000209060040201600001816008811061304d5761304d615b29565b600891828204019190066004029054906101000a900463ffffffff1663ffffffff168261307a9190615d0c565b91505b8061308781615b6c565b915050612ff8565b506130a2678ac7230489e8000082615bd9565b905060006402540be400601060040154600988815481106130c5576130c5615b29565b60009182526020909120600490910201600101546130f39190600160801b90046001600160801b0316615bd9565b6130fd9190615d70565b905060006402540be4006010600501546009898154811061312057613120615b29565b600091825260209091206004909102016001015461314e9190600160801b90046001600160801b0316615bd9565b6131589190615d70565b9050600082841161316c57506013546131d8565b838310801561317a57508184105b156131cb576131898383615b55565b6012546013546131999190615b55565b6131a38587615b55565b6131ad9190615bd9565b6131b79190615d70565b6013546131c49190615b55565b90506131d8565b818411156131d857506012545b6131e481612710615b55565b98975050505050505050565b6001600160a01b0384166000908152600a6020526040902054849015806132245750600d546001600160a01b038281169116145b156132415760405162461bcd60e51b8152600401610a4890615b0e565b6001600160a01b038086166000908152600a6020526040812054600b54600d549193909161326f9116612a10565b6132799190615b55565b905060006009838154811061329057613290615b29565b60009182526020909120600160049092020101546001600160801b03166132b689612a10565b6132c09190615b55565b905060016132ce8383615d0c565b116132ff5760405162461bcd60e51b81526020600482015260016024820152601960f91b6044820152606401610a48565b6000600183118015613312575060018211155b6133245761331f84612fcc565b613328565b6127105b90506000196009858154811061334057613340615b29565b90600052602060002090600402016003015410801561338d575086836009868154811061336f5761336f615b29565b90600052602060002090600402016003015461338b9190615d0c565b105b156133be5760405162461bcd60e51b81526020600482015260016024820152602d60f91b6044820152606401610a48565b6000612710600986815481106133d6576133d6615b29565b906000526020600020906004020160010160009054906101000a90046001600160801b03166001600160801b03166127106009888154811061341a5761341a615b29565b60009182526020909120600490910201600101546134489190600160801b90046001600160801b0316615bd9565b6134529190615bd9565b61345c9190615bd9565b905060008885600b5461346f9190615d0c565b6134799190615b55565b9050600089866009898154811061349257613492615b29565b60009182526020909120600490910201600101546134c09190600160801b90046001600160801b0316615d0c565b6134ca9190615b55565b905060008b8660098a815481106134e3576134e3615b29565b600091825260209091206001600490920201015461350a91906001600160801b0316615d0c565b6135149190615b55565b9050600061352486612710615b55565b61352e9088615bd9565b61353a61271084615bd9565b6135449190615b55565b61355087612710615b55565b61355a908a615bd9565b61356661271086615bd9565b6135709190615b55565b61357a9190615bd9565b9050848110156135b05760405162461bcd60e51b81526020600482015260016024820152603160f81b6044820152606401610a48565b83600b819055508260098a815481106135cb576135cb615b29565b906000526020600020906004020160010160106101000a8154816001600160801b0302191690836001600160801b031602179055508160098a8154811061361457613614615b29565b906000526020600020906004020160010160006101000a8154816001600160801b0302191690836001600160801b0316021790555060001960098a8154811061365f5761365f615b29565b90600052602060002090600402016003015410156136db578b8860098b8154811061368c5761368c615b29565b9060005260206000209060040201600301546136a89190615d0c565b6136b29190615b55565b60098a815481106136c5576136c5615b29565b9060005260206000209060040201600301819055505b505050505060006136ea614eed565b9050600060086136f8614eed565b613703906001615d0c565b61370d9190615e68565b9050678ac7230489e8000089111561380d576000613733678ac7230489e800008b615d70565b6009888154811061374657613746615b29565b9060005260206000209060040201600001846008811061376857613768615b29565b600891828204019190066004029054906101000a900463ffffffff1663ffffffff166137949190615d0c565b905063ffffffff81106137ab5763ffffffff6137ad565b805b600988815481106137c0576137c0615b29565b906000526020600020906004020160000184600881106137e2576137e2615b29565b600891828204019190066004026101000a81548163ffffffff021916908363ffffffff160217905550505b60016009878154811061382257613822615b29565b9060005260206000209060040201600001826008811061384457613844615b29565b600891828204019190066004029054906101000a900463ffffffff1663ffffffff1611156138cd5760016009878154811061388157613881615b29565b906000526020600020906004020160000182600881106138a3576138a3615b29565b600891828204019190066004026101000a81548163ffffffff021916908363ffffffff1602179055505b891561393e576138e08b898c6001612a9d565b60006138eb8c612a10565b90506009878154811061390057613900615b29565b60009182526020909120600160049092020101546001600160801b0316811461393c5760405163a8b538d360e01b815260040160405180910390fd5b505b881561395d57600d5461395d906001600160a01b0316898b6001612a9d565b7f4ab7f3f4678bf8f6cbe4d85e4007b7c64df8e1d5d97de1628f4a6416f9d1db038b3386888e8e6139908a612710615b55565b604080516001600160a01b03988916815296881660208801528601949094526060850192909252608084015260a083015260c0820152908a1660e08201526101000160405180910390a1600080516020615f2e8339815191528b600988815481106139fd576139fd615b29565b906000526020600020906004020160010160009054906101000a90046001600160801b031660098981548110613a3557613a35615b29565b906000526020600020906004020160010160109054906101000a90046001600160801b031660098a81548110613a6d57613a6d615b29565b906000526020600020906004020160030154604051613a8f9493929190615dd5565b60405180910390a15050505050505050505050565b6001600160a01b0383166000908152600a602052604081205481613ac786612a10565b9050600060098381548110613ade57613ade615b29565b6000918252602090912060016004909202010154613b05906001600160801b031683615b55565b600b54600d54919250600091613b23906001600160a01b0316612a10565b613b2d9190615b55565b60008581526003602052604081205460098054939450909283918b9189908110613b5957613b59615b29565b6000918252602090912060016004909202010154613b8091906001600160801b0316615bd9565b613b8a9190615d70565b90506000828a60098981548110613ba357613ba3615b29565b6000918252602090912060049091020160010154613bd19190600160801b90046001600160801b0316615bd9565b613bdb9190615d70565b90506000613c3660098981548110613bf557613bf5615b29565b906000526020600020906004020160010160109054906101000a90046001600160801b03166001600160801b031660098a815481106111c6576111c6615b29565b90506000613c7460098a81548110613c5057613c50615b29565b60009182526020909120600260049092020101546001600160801b03168387612c93565b90508015613ca557601054604080516020810190915260008152613ca5916001600160a01b0316908b908490612d18565b8286600b54613cb49190615d0c565b613cbe9190615b55565b600b81905550838760098b81548110613cd957613cd9615b29565b6000918252602090912060016004909202010154613d0091906001600160801b0316615d84565b613d0a9190615e7c565b60098a81548110613d1d57613d1d615b29565b906000526020600020906004020160010160006101000a8154816001600160801b0302191690836001600160801b03160217905550828660098b81548110613d6757613d67615b29565b906000526020600020906004020160010160109054906101000a90046001600160801b0316613d969190615d84565b613da09190615e7c565b60098a81548110613db357613db3615b29565b906000526020600020906004020160010160106101000a8154816001600160801b0302191690836001600160801b03160217905550613e3f60098a81548110613dfe57613dfe615b29565b906000526020600020906004020160010160109054906101000a90046001600160801b03166001600160801b031660098b815481106111c6576111c6615b29565b60098a81548110613e5257613e52615b29565b906000526020600020906004020160020160006101000a8154816001600160801b0302191690836001600160801b03160217905550613e92338a8e614860565b600d546040516318a8ad8760e01b8152306004820152602481018590526001600160a01b03909116906318a8ad8790604401600060405180830381600087803b158015613ede57600080fd5b505af1158015613ef2573d6000803e3d6000fd5b505050505050613f058b8a846001612a9d565b6000613f108c612a10565b905086613f1d8483615d0c565b14613f3b5760405163a8b538d360e01b815260040160405180910390fd5b7f1dc8bb69df2b8e91fbdcbfcf93d951b3f0000f085a95fe3f7946d6161439245d8c84848e604051613f709493929190615daf565b60405180910390a150909a9950505050505050505050565b6001600160a01b0385166000908152600a6020526040902054859015613fc15760405163402670df60e01b815260040160405180910390fd5b613fcc863387612b60565b600d54604051630bb9ff5d60e01b8152306004820152602481018690526001600160a01b0390911690630bb9ff5d90604401600060405180830381600087803b15801561401857600080fd5b505af115801561402c573d6000803e3d6000fd5b5050505061403986612a10565b94506001851161405b5760405162461bcd60e51b8152600401610a4890615d3f565b600061406a6111ed8688615bd9565b905061407461512f565b60005b60088110156140b657600182826008811061409457614094615b29565b63ffffffff9092166020929092020152806140ae81615b6c565b915050614077565b506040805160a0810182528281526001600160801b03808a166020830152888116928201929092529083166060820152608081018690526009805460018101825560009190915281518290600483027f6e1540171b6c0c960b71a7020d9f60077f6af931a8bbf590da0223dacf75c7af0190614135908290600861514e565b506020828101516040808501516001600160801b03928316600160801b9184169190910217600185015560608501516002850180546001600160801b03191691909316179091556080909301516003909201919091556001600160a01b038c166000908152600a909152908120829055600b80548a92906141b7908490615d0c565b925050819055506141dd61dead826103e860405180602001604052806000815250612d18565b60006103e86141ef6111ed8b8d615bd9565b6141f99190615b55565b905061421687838360405180602001604052806000815250612d18565b604080516001600160a01b038d168152602081018490527f17aa8d0e85db1d0531a8181b5bb84e1d4ed744db1cadd8814acd3d181ff30137910160405180910390a17f64b83944e79c3ce8d4c297411de637c3e102d064677aac0c163976ebdcd6f50e8b8b8b8460405161428d9493929190615daf565b60405180910390a1600080516020615f2e8339815191528b600984815481106142b8576142b8615b29565b906000526020600020906004020160010160009054906101000a90046001600160801b0316600985815481106142f0576142f0615b29565b906000526020600020906004020160010160109054906101000a90046001600160801b031660098681548110613a6d57613a6d615b29565b60006116de8383614f0c565b816001600160a01b0316836001600160a01b031614156143675760405163180a65b960e31b815260040160405180910390fd5b6001600160a01b03838116600081815260016020908152604080832094871680845294825291829020805460ff191686151590811790915591519182527f17307eab39ab6107e8899845ad3d59bd9653f200f220920489ca2b5937696c31910160405180910390a3505050565b805161100b9060029060208401906150ab565b6001600160a01b0382166000908152600a60205260408120548390158061441b5750600d546001600160a01b038281169116145b156144385760405162461bcd60e51b8152600401610a4890615b0e565b6001600160a01b0384166000908152600a602052604090205460098054612ed99186918490811061446b5761446b615b29565b6000918252602090912060016004909202010154600980546001600160801b03909216918590811061449f5761449f615b29565b6000918252602090912060049091020160010154600160801b90046001600160801b03166144cc85612fcc565b614f36565b6001600160a01b0382166000908152600a6020526040812054839015806145055750600d546001600160a01b038281169116145b156145225760405162461bcd60e51b8152600401610a4890615b0e565b6001600160a01b0384166000908152600a602052604090205460098054612ed99186918490811061455557614555615b29565b906000526020600020906004020160010160109054906101000a90046001600160801b03166001600160801b03166009848154811061459657614596615b29565b60009182526020909120600160049092020101546001600160801b0316612710614f36565b60006109b1825490565b6040516306fb1a0760e01b81526003600482015260009073def1fac7bf08f173d286bbbdcbeeade695129840906306fb1a0790602401602060405180830381865afa158015614618573d6000803e3d6000fd5b505050506040513d601f19601f8201168201806040525081019061463c9190615b87565b604051630c8b57ef60e21b81526001600160a01b03868116600483015285811660248301529192509082169063322d5fbc906044016020604051808303816000875af1158015614690573d6000803e3d6000fd5b505050506040513d601f19601f820116820180604052508101906146b49190615e05565b6146d157604051630e30cf0f60e01b815260040160405180910390fd5b6001600160a01b0382163014610bc657604051633973256b60e11b81526001600160a01b03858116600483015283811660248301528216906372e64ad690604401600060405180830381600087803b15801561472c57600080fd5b505af1158015614740573d6000803e3d6000fd5b5050505050505050565b6001600160a01b038416614771576040516307cc786960e31b815260040160405180910390fd5b33614781818787612d5088614c96565b6000848152602081815260408083206001600160a01b038a168452909152902054838110156147c357604051632d688f6160e11b815260040160405180910390fd5b6000858152602081815260408083206001600160a01b038b8116855292528083208785039055908816825281208054869290614800908490615d0c565b909155505060408051868152602081018690526001600160a01b03808916928a821692918616917fc3d58168c5ae7397731d063d5bbf3d657854427343f4c083240f7aacaa2d0f62910160405180910390a4610b46828888888888614ded565b6001600160a01b0383166148875760405163edba591d60e01b815260040160405180910390fd5b336148b68185600061489887614c96565b6148a187614c96565b60405180602001604052806000815250614ce1565b6000838152602081815260408083206001600160a01b0388168452909152902054828110156148f857604051631cfb29e160e21b815260040160405180910390fd5b6000848152602081815260408083206001600160a01b03898116808652918452828520888703905582518981529384018890529092908616917fc3d58168c5ae7397731d063d5bbf3d657854427343f4c083240f7aacaa2d0f62910160405180910390a45050505050565b60008181526001830160205260408120546149aa575081546001818101845560008481526020808220909301849055845484825282860190935260409020919091556109b1565b5060006109b1565b604080516000808252602082019092526001600160a01b0384169083906040516149dc9190615ea4565b60006040518083038185875af1925050503d8060008114614a19576040519150601f19603f3d011682016040523d82523d6000602084013e614a1e565b606091505b5050905080610e2a576040516330667aab60e01b815260040160405180910390fd5b604080516001600160a01b038481166024830152604480830185905283518084039091018152606490920183526020820180516001600160e01b031663a9059cbb60e01b1790529151600092839290871691614a9c9190615ea4565b6000604051808303816000865af19150503d8060008114614ad9576040519150601f19603f3d011682016040523d82523d6000602084013e614ade565b606091505b5091509150818015614b08575080511580614b08575080806020019051810190614b089190615e05565b61045c57604051637805da5360e01b815260040160405180910390fd5b614b2f8282611a7c565b1561100b5760008281526004602090815260408083206001600160a01b0385168085529252808320805460ff1916905551339285917ff6391f5c32d9c69d2a47ea670b442974b53935d1edc7fd64eb21e047a839171b9190a45050565b60006116de836001600160a01b038416614f83565b604080516001600160a01b0385811660248301528481166044830152606480830185905283518084039091018152608490920183526020820180516001600160e01b03166323b872dd60e01b1790529151600092839290881691614c059190615ea4565b6000604051808303816000865af19150503d8060008114614c42576040519150601f19603f3d011682016040523d82523d6000602084013e614c47565b606091505b5091509150818015614c71575080511580614c71575080806020019051810190614c719190615e05565b614c8e57604051636050fe2960e01b815260040160405180910390fd5b505050505050565b60408051600180825281830190925260609160009190602080830190803683370190505090508281600081518110614cd057614cd0615b29565b602090810291909101015292915050565b6001600160a01b038516614d685760005b8351811015614d6657828181518110614d0d57614d0d615b29565b602002602001015160036000868481518110614d2b57614d2b615b29565b602002602001015181526020019081526020016000206000828254614d509190615d0c565b90915550614d5f905081615b6c565b9050614cf2565b505b6001600160a01b038416614c8e5760005b8351811015610b4657828181518110614d9457614d94615b29565b602002602001015160036000868481518110614db257614db2615b29565b602002602001015181526020019081526020016000206000828254614dd79190615b55565b90915550614de6905081615b6c565b9050614d79565b833b15614c8e5760405163f23a6e6160e01b81526001600160a01b0385169063f23a6e6190614e289089908990889088908890600401615ec0565b6020604051808303816000875af1925050508015614e63575060408051601f3d908101601f19168201909252614e6091810190615efa565b60015b614e80576040516322ea035960e11b815260040160405180910390fd5b6001600160e01b0319811663f23a6e6160e01b14610b46576040516315d5293760e11b815260040160405180910390fd5b600080614ebe8387615bd9565b9050600081614ecf61271088615bd9565b614ed99190615d0c565b614ee38387615bd9565b611a4b9190615d70565b60006008614efd61384042615d70565b614f079190615e68565b905090565b6000826000018281548110614f2357614f23615b29565b9060005260206000200154905092915050565b600080614f438685615b55565b614f4d9084615bd9565b612710614f5a8888615bd9565b614f649190615bd9565b614f6e9190615d70565b614f79906001615d0c565b9695505050505050565b6000818152600183016020526040812054801561506c576000614fa7600183615b55565b8554909150600090614fbb90600190615b55565b9050818114615020576000866000018281548110614fdb57614fdb615b29565b9060005260206000200154905080876000018481548110614ffe57614ffe615b29565b6000918252602080832090910192909255918252600188019052604090208390555b855486908061503157615031615f17565b6001900381819060005260206000200160009055905585600101600086815260200190815260200160002060009055600193505050506109b1565b60009150506109b1565b6040518060a0016040528061508961512f565b8152600060208201819052604082018190526060820181905260809091015290565b8280546150b790615ba4565b90600052602060002090601f0160209004810192826150d9576000855561511f565b82601f106150f257805160ff191683800117855561511f565b8280016001018555821561511f579182015b8281111561511f578251825591602001919060010190615104565b5061512b9291506151e1565b5090565b6040518061010001604052806008906020820280368337509192915050565b60018301918390821561511f5791602002820160005b838211156151a857835183826101000a81548163ffffffff021916908363ffffffff1602179055509260200192600401602081600301049283019260010302615164565b80156151d85782816101000a81549063ffffffff02191690556004016020816003010492830192600103026151a8565b505061512b9291505b5b8082111561512b57600081556001016151e2565b6001600160a01b038116811461233f57600080fd5b6000806040838503121561521e57600080fd5b8235615229816151f6565b946020939093013593505050565b6001600160e01b03198116811461233f57600080fd5b60006020828403121561525f57600080fd5b81356116de81615237565b60006020828403121561527c57600080fd5b81356116de816151f6565b6000806020838503121561529a57600080fd5b82356001600160401b03808211156152b157600080fd5b818501915085601f8301126152c557600080fd5b8135818111156152d457600080fd5b8660208260061b85010111156152e957600080fd5b60209290920196919550909350505050565b60006020828403121561530d57600080fd5b5035919050565b60005b8381101561532f578181015183820152602001615317565b83811115610bc65750506000910152565b60008151808452615358816020860160208601615314565b601f01601f19169290920160200192915050565b6020815260006116de6020830184615340565b600060c08284031215612c7f57600080fd5b634e487b7160e01b600052604160045260246000fd5b604051601f8201601f191681016001600160401b03811182821017156153cf576153cf615391565b604052919050565b60006001600160401b038211156153f0576153f0615391565b5060051b60200190565b600082601f83011261540b57600080fd5b8135602061542061541b836153d7565b6153a7565b82815260059290921b8401810191818101908684111561543f57600080fd5b8286015b8481101561545a5780358352918301918301615443565b509695505050505050565b600082601f83011261547657600080fd5b81356001600160401b0381111561548f5761548f615391565b6154a2601f8201601f19166020016153a7565b8181528460208386010111156154b757600080fd5b816020850160208301376000918101602001919091529392505050565b600080600080600060a086880312156154ec57600080fd5b85356154f7816151f6565b94506020860135615507816151f6565b935060408601356001600160401b038082111561552357600080fd5b61552f89838a016153fa565b9450606088013591508082111561554557600080fd5b61555189838a016153fa565b9350608088013591508082111561556757600080fd5b5061557488828901615465565b9150509295509295909350565b6000806040838503121561559457600080fd5b8235915060208301356155a6816151f6565b809150509250929050565b60008083601f8401126155c357600080fd5b5081356001600160401b038111156155da57600080fd5b6020830191508360208260051b85010111156155f557600080fd5b9250929050565b6000806020838503121561560f57600080fd5b82356001600160401b0381111561562557600080fd5b615631858286016155b1565b90969095509350505050565b60208082528251828201819052600091906040908185019086840185805b838110156156da578251805186845b600881101561568d57825163ffffffff168252918a0191908a019060010161566a565b505050878101516001600160801b0390811661010088015287820151811661012088015260608201511661014087015260800151610160860152610180909401939186019160010161565b565b509298975050505050505050565b600080604083850312156156fb57600080fd5b82356001600160401b038082111561571257600080fd5b61571e86838701615465565b9350602085013591508082111561573457600080fd5b5061574185828601615465565b9150509250929050565b6000806000806080858703121561576157600080fd5b843561576c816151f6565b93506020850135925060408501359150606085013561578a816151f6565b939692955090935050565b6000806000606084860312156157aa57600080fd5b83356157b5816151f6565b925060208401356157c5816151f6565b929592945050506040919091013590565b600080604083850312156157e957600080fd5b82356001600160401b038082111561580057600080fd5b818501915085601f83011261581457600080fd5b8135602061582461541b836153d7565b82815260059290921b8401810191818101908984111561584357600080fd5b948201945b8386101561586a57853561585b816151f6565b82529482019490820190615848565b9650508601359250508082111561588057600080fd5b50615741858286016153fa565b6020808252825182820181905260009190848201906040850190845b818110156158c5578351835292840192918401916001016158a9565b50909695505050505050565b600080604083850312156158e457600080fd5b50508035926020909101359150565b801515811461233f57600080fd5b6000806040838503121561591457600080fd5b823561591f816151f6565b915060208301356155a6816158f3565b60008060008060008060c0878903121561594857600080fd5b8635615953816151f6565b95506020870135615963816151f6565b945060408701359350606087013592506080870135915060a0870135615988816151f6565b809150509295509295509295565b6000602082840312156159a857600080fd5b81356001600160401b038111156159be57600080fd5b6159ca84828501615465565b949350505050565b600080604083850312156159e557600080fd5b82356159f0816151f6565b915060208301356155a6816151f6565b600080600080600060a08688031215615a1857600080fd5b8535615a23816151f6565b94506020860135615a33816151f6565b93506040860135615a43816151f6565b92506060860135615a53816151f6565b91506080860135615a63816151f6565b809150509295509295909350565b600080600080600060a08688031215615a8957600080fd5b8535615a94816151f6565b94506020860135615aa4816151f6565b9350604086013592506060860135915060808601356001600160401b03811115615acd57600080fd5b61557488828901615465565b600080600060608486031215615aee57600080fd5b8335615af9816151f6565b95602085013595506040909401359392505050565b6020808252600190820152604360f81b604082015260600190565b634e487b7160e01b600052603260045260246000fd5b634e487b7160e01b600052601160045260246000fd5b600082821015615b6757615b67615b3f565b500390565b6000600019821415615b8057615b80615b3f565b5060010190565b600060208284031215615b9957600080fd5b81516116de816151f6565b600181811c90821680615bb857607f821691505b60208210811415612c7f57634e487b7160e01b600052602260045260246000fd5b6000816000190483118215151615615bf357615bf3615b3f565b500290565b8135615c03816151f6565b81546001600160a01b0319166001600160a01b03919091161781556020820135600182015560408201356002820155606082013560038201556080820135600482015560a09190910135600590910155565b600080845481600182811c915080831680615c7157607f831692505b6020808410821415615c9157634e487b7160e01b86526022600452602486fd5b818015615ca55760018114615cb657615ce3565b60ff19861689528489019650615ce3565b60008b81526020902060005b86811015615cdb5781548b820152908501908301615cc2565b505084890196505b50888652615cfe81870164173539b7b760d91b815260050190565b9a9950505050505050505050565b60008219821115615d1f57615d1f615b3f565b500190565b6020808252600190820152601160fa1b604082015260600190565b6020808252600190820152602360f91b604082015260600190565b634e487b7160e01b600052601260045260246000fd5b600082615d7f57615d7f615d5a565b500490565b60006001600160801b03808316818516808303821115615da657615da6615b3f565b01949350505050565b6001600160a01b0394909416845260208401929092526040830152606082015260800190565b6001600160a01b039490941684526001600160801b03928316602085015291166040830152606082015260800190565b600060208284031215615e1757600080fd5b81516116de816158f3565b60008251615e34818460208701615314565b683db4b23e973539b7b760b91b920191825250600901919050565b600060208284031215615e6157600080fd5b5051919050565b600082615e7757615e77615d5a565b500690565b60006001600160801b0383811690831681811015615e9c57615e9c615b3f565b039392505050565b60008251615eb6818460208701615314565b9190910192915050565b6001600160a01b03868116825285166020820152604081018490526060810183905260a060808201819052600090611a4b90830184615340565b600060208284031215615f0c57600080fd5b81516116de81615237565b634e487b7160e01b600052603160045260246000fdfe51ab1232a73b82b6b0acb0fa91b834cf6e258a1858c4e23c72ce97241c71aa0da26469706673582212208bfd6154edf9ecacf363a4eb00833c29ef31af1a55611a5e4d42ed7fb81356bc64736f6c634300080b003368747470733a2f2f646174612e63657262792e66692f4365726279537761702f76312f",
			"opcodes": "PUSH1 0xC0 PUSH1 0x40 MSTORE PUSH1 0xD PUSH1 0x80 DUP2 SWAP1 MSTORE PUSH13 0x43657262792053776170205631 PUSH1 0x98 SHL PUSH1 0xA0 SWAP1 DUP2 MSTORE PUSH3 0x30 SWAP2 PUSH1 0x6 SWAP2 SWAP1 PUSH3 0x5AA JUMP JUMPDEST POP PUSH1 0x40 DUP1 MLOAD DUP1 DUP3 ADD SWAP1 SWAP2 MSTORE PUSH1 0xD DUP1 DUP3 MSTORE PUSH13 0x43455242595F535741505F5631 PUSH1 0x98 SHL PUSH1 0x20 SWAP1 SWAP3 ADD SWAP2 DUP3 MSTORE PUSH3 0x67 SWAP2 PUSH1 0x7 SWAP2 PUSH3 0x5AA JUMP JUMPDEST POP PUSH1 0x40 MLOAD DUP1 PUSH1 0x60 ADD PUSH1 0x40 MSTORE DUP1 PUSH1 0x23 DUP2 MSTORE PUSH1 0x20 ADD PUSH3 0x67E7 PUSH1 0x23 SWAP2 CODECOPY DUP1 MLOAD PUSH3 0x98 SWAP2 PUSH1 0x8 SWAP2 PUSH1 0x20 SWAP1 SWAP2 ADD SWAP1 PUSH3 0x5AA JUMP JUMPDEST POP PUSH1 0xC DUP1 SLOAD PUSH1 0x1 PUSH1 0x1 PUSH1 0xA0 SHL SUB NOT SWAP1 DUP2 AND PUSH20 0xE7126C0FB4B1F5F79E5BBEC3948139DCF348B49C OR SWAP1 SWAP2 SSTORE PUSH1 0xD DUP1 SLOAD DUP3 AND PUSH20 0xFC5025C764CE34DF352757E82F7B5C4DF39A836 OR SWAP1 SSTORE PUSH1 0xE DUP1 SLOAD DUP3 AND PUSH20 0x7412F2CD820D1E63BD130B0FFEBE44C4E5A47D71 OR SWAP1 SSTORE PUSH1 0xF DUP1 SLOAD SWAP1 SWAP2 AND PUSH20 0x14769F96E57B80C66837701DE0B43686FB4632DE OR SWAP1 SSTORE CALLVALUE DUP1 ISZERO PUSH3 0x12A JUMPI PUSH1 0x0 DUP1 REVERT JUMPDEST POP PUSH1 0x8 PUSH1 0x40 MLOAD PUSH1 0x20 ADD PUSH3 0x13F SWAP2 SWAP1 PUSH3 0x745 JUMP JUMPDEST PUSH1 0x40 DUP1 MLOAD PUSH1 0x1F NOT DUP2 DUP5 SUB ADD DUP2 MSTORE SWAP2 SWAP1 MSTORE PUSH3 0x15A DUP2 PUSH3 0x432 JUMP JUMPDEST POP PUSH3 0x168 PUSH1 0x0 CALLER PUSH3 0x44B JUMP JUMPDEST PUSH20 0xDEF78A28C78A461598D948BC0C689CE88F812AD8 PUSH1 0x0 PUSH1 0x64 PUSH3 0x18E DUP2 PUSH1 0x14 PUSH3 0x803 JUMP JUMPDEST PUSH3 0x19A SWAP2 SWAP1 PUSH3 0x831 JUMP JUMPDEST SWAP1 POP PUSH4 0x51A67366 PUSH1 0x1 PUSH1 0xC8 DUP3 PUSH1 0x0 DUP4 PUSH3 0x1B5 DUP5 DUP5 PUSH3 0x803 JUMP JUMPDEST PUSH3 0x1C1 SWAP2 SWAP1 PUSH3 0x831 JUMP JUMPDEST PUSH1 0x40 DUP1 MLOAD PUSH1 0xC0 DUP2 ADD DUP3 MSTORE PUSH1 0x1 PUSH1 0x1 PUSH1 0xA0 SHL SUB DUP11 AND DUP1 DUP3 MSTORE PUSH1 0x20 DUP3 ADD DUP11 SWAP1 MSTORE SWAP2 DUP2 ADD DUP8 SWAP1 MSTORE PUSH1 0x60 DUP2 ADD DUP7 SWAP1 MSTORE PUSH1 0x80 DUP2 ADD DUP6 SWAP1 MSTORE PUSH1 0xA0 ADD DUP3 SWAP1 MSTORE PUSH1 0x10 DUP1 SLOAD PUSH1 0x1 PUSH1 0x1 PUSH1 0xA0 SHL SUB NOT AND SWAP1 SWAP2 OR SWAP1 SSTORE PUSH1 0x11 DUP8 SWAP1 SSTORE PUSH1 0x12 DUP6 SWAP1 SSTORE PUSH1 0x13 DUP5 SWAP1 SSTORE PUSH1 0x14 DUP4 SWAP1 SSTORE PUSH1 0x15 DUP2 SWAP1 SSTORE SWAP1 POP PUSH3 0x231 PUSH3 0x639 JUMP JUMPDEST PUSH1 0x40 DUP1 MLOAD PUSH1 0xA0 DUP2 ADD DUP3 MSTORE DUP3 DUP2 MSTORE PUSH1 0x0 PUSH1 0x20 DUP3 ADD DUP2 SWAP1 MSTORE SWAP2 DUP2 ADD DUP3 SWAP1 MSTORE PUSH1 0x60 DUP2 ADD DUP3 SWAP1 MSTORE PUSH1 0x80 DUP2 ADD DUP3 SWAP1 MSTORE PUSH1 0x9 DUP1 SLOAD PUSH1 0x1 DUP2 ADD DUP3 SSTORE SWAP3 MSTORE DUP1 MLOAD SWAP1 SWAP2 PUSH1 0x4 MUL PUSH32 0x6E1540171B6C0C960B71A7020D9F60077F6AF931A8BBF590DA0223DACF75C7AF ADD SWAP1 PUSH3 0x2A0 SWAP1 DUP3 SWAP1 PUSH1 0x8 PUSH3 0x658 JUMP JUMPDEST POP PUSH1 0x20 DUP3 ADD MLOAD PUSH1 0x40 DUP4 ADD MLOAD PUSH1 0x1 PUSH1 0x1 PUSH1 0x80 SHL SUB SWAP2 DUP3 AND PUSH1 0x1 PUSH1 0x80 SHL SWAP2 DUP4 AND SWAP2 SWAP1 SWAP2 MUL OR PUSH1 0x1 DUP4 DUP2 ADD SWAP2 SWAP1 SWAP2 SSTORE PUSH1 0x60 DUP5 ADD MLOAD PUSH1 0x2 DUP5 ADD DUP1 SLOAD PUSH1 0x1 PUSH1 0x1 PUSH1 0x80 SHL SUB NOT AND SWAP2 SWAP1 SWAP4 AND OR SWAP1 SWAP2 SSTORE PUSH1 0x80 SWAP1 SWAP3 ADD MLOAD PUSH1 0x3 SWAP1 SWAP2 ADD SSTORE CHAINID EQ ISZERO PUSH3 0x329 JUMPI PUSH1 0xF DUP1 SLOAD PUSH1 0x1 PUSH1 0x1 PUSH1 0xA0 SHL SUB NOT AND PUSH20 0xC02AAA39B223FE8D0A0E5C4F27EAD9083C756CC2 OR SWAP1 SSTORE PUSH3 0x3FD JUMP JUMPDEST CHAINID PUSH1 0x38 EQ ISZERO PUSH3 0x35F JUMPI PUSH1 0xF DUP1 SLOAD PUSH1 0x1 PUSH1 0x1 PUSH1 0xA0 SHL SUB NOT AND PUSH20 0xBB4CDB9CBD36B01BD1CBAEBF2DE08D9173BC095C OR SWAP1 SSTORE PUSH3 0x3FD JUMP JUMPDEST CHAINID PUSH1 0x89 EQ ISZERO PUSH3 0x395 JUMPI PUSH1 0xF DUP1 SLOAD PUSH1 0x1 PUSH1 0x1 PUSH1 0xA0 SHL SUB NOT AND PUSH20 0xD500B1D8E8EF31E21C99D1DB9A6444D3ADF1270 OR SWAP1 SSTORE PUSH3 0x3FD JUMP JUMPDEST CHAINID PUSH2 0xA86A EQ ISZERO PUSH3 0x3CC JUMPI PUSH1 0xF DUP1 SLOAD PUSH1 0x1 PUSH1 0x1 PUSH1 0xA0 SHL SUB NOT AND PUSH20 0xB31F66AA3C1E785363F0875A1B74E27B85FD66C7 OR SWAP1 SSTORE PUSH3 0x3FD JUMP JUMPDEST CHAINID PUSH1 0xFA EQ ISZERO PUSH3 0x3FD JUMPI PUSH1 0xF DUP1 SLOAD PUSH1 0x1 PUSH1 0x1 PUSH1 0xA0 SHL SUB NOT AND PUSH20 0x21BE370D5312F44CB42CE377BC9B8A0CEF1A4C83 OR SWAP1 SSTORE JUMPDEST POP POP PUSH1 0xF DUP1 SLOAD PUSH1 0x1 PUSH1 0x1 PUSH1 0xA0 SHL SUB NOT AND PUSH20 0x14769F96E57B80C66837701DE0B43686FB4632DE OR SWAP1 SSTORE POP PUSH3 0x854 SWAP5 POP POP POP POP POP JUMP JUMPDEST DUP1 MLOAD PUSH3 0x447 SWAP1 PUSH1 0x2 SWAP1 PUSH1 0x20 DUP5 ADD SWAP1 PUSH3 0x5AA JUMP JUMPDEST POP POP JUMP JUMPDEST PUSH3 0x447 DUP3 DUP3 PUSH3 0x468 DUP3 DUP3 PUSH3 0x494 PUSH1 0x20 SHL PUSH3 0x2940 OR PUSH1 0x20 SHR JUMP JUMPDEST PUSH1 0x0 DUP3 DUP2 MSTORE PUSH1 0x5 PUSH1 0x20 SWAP1 DUP2 MSTORE PUSH1 0x40 SWAP1 SWAP2 KECCAK256 PUSH3 0x48F SWAP2 DUP4 SWAP1 PUSH3 0x29C6 PUSH3 0x538 DUP3 SHL OR SWAP1 SHR JUMP JUMPDEST POP POP POP JUMP JUMPDEST PUSH1 0x0 DUP3 DUP2 MSTORE PUSH1 0x4 PUSH1 0x20 SWAP1 DUP2 MSTORE PUSH1 0x40 DUP1 DUP4 KECCAK256 PUSH1 0x1 PUSH1 0x1 PUSH1 0xA0 SHL SUB DUP6 AND DUP5 MSTORE SWAP1 SWAP2 MSTORE SWAP1 KECCAK256 SLOAD PUSH1 0xFF AND PUSH3 0x447 JUMPI PUSH1 0x0 DUP3 DUP2 MSTORE PUSH1 0x4 PUSH1 0x20 SWAP1 DUP2 MSTORE PUSH1 0x40 DUP1 DUP4 KECCAK256 PUSH1 0x1 PUSH1 0x1 PUSH1 0xA0 SHL SUB DUP6 AND DUP5 MSTORE SWAP1 SWAP2 MSTORE SWAP1 KECCAK256 DUP1 SLOAD PUSH1 0xFF NOT AND PUSH1 0x1 OR SWAP1 SSTORE PUSH3 0x4F4 CALLER SWAP1 JUMP JUMPDEST PUSH1 0x1 PUSH1 0x1 PUSH1 0xA0 SHL SUB AND DUP2 PUSH1 0x1 PUSH1 0x1 PUSH1 0xA0 SHL SUB AND DUP4 PUSH32 0x2F8788117E7EFF1D82E926EC794901D17C78024A50270940304540A733656F0D PUSH1 0x40 MLOAD PUSH1 0x40 MLOAD DUP1 SWAP2 SUB SWAP1 LOG4 POP POP JUMP JUMPDEST PUSH1 0x0 PUSH3 0x54F DUP4 PUSH1 0x1 PUSH1 0x1 PUSH1 0xA0 SHL SUB DUP5 AND PUSH3 0x558 JUMP JUMPDEST SWAP1 POP JUMPDEST SWAP3 SWAP2 POP POP JUMP JUMPDEST PUSH1 0x0 DUP2 DUP2 MSTORE PUSH1 0x1 DUP4 ADD PUSH1 0x20 MSTORE PUSH1 0x40 DUP2 KECCAK256 SLOAD PUSH3 0x5A1 JUMPI POP DUP2 SLOAD PUSH1 0x1 DUP2 DUP2 ADD DUP5 SSTORE PUSH1 0x0 DUP5 DUP2 MSTORE PUSH1 0x20 DUP1 DUP3 KECCAK256 SWAP1 SWAP4 ADD DUP5 SWAP1 SSTORE DUP5 SLOAD DUP5 DUP3 MSTORE DUP3 DUP7 ADD SWAP1 SWAP4 MSTORE PUSH1 0x40 SWAP1 KECCAK256 SWAP2 SWAP1 SWAP2 SSTORE PUSH3 0x552 JUMP JUMPDEST POP PUSH1 0x0 PUSH3 0x552 JUMP JUMPDEST DUP3 DUP1 SLOAD PUSH3 0x5B8 SWAP1 PUSH3 0x708 JUMP JUMPDEST SWAP1 PUSH1 0x0 MSTORE PUSH1 0x20 PUSH1 0x0 KECCAK256 SWAP1 PUSH1 0x1F ADD PUSH1 0x20 SWAP1 DIV DUP2 ADD SWAP3 DUP3 PUSH3 0x5DC JUMPI PUSH1 0x0 DUP6 SSTORE PUSH3 0x627 JUMP JUMPDEST DUP3 PUSH1 0x1F LT PUSH3 0x5F7 JUMPI DUP1 MLOAD PUSH1 0xFF NOT AND DUP4 DUP1 ADD OR DUP6 SSTORE PUSH3 0x627 JUMP JUMPDEST DUP3 DUP1 ADD PUSH1 0x1 ADD DUP6 SSTORE DUP3 ISZERO PUSH3 0x627 JUMPI SWAP2 DUP3 ADD JUMPDEST DUP3 DUP2 GT ISZERO PUSH3 0x627 JUMPI DUP3 MLOAD DUP3 SSTORE SWAP2 PUSH1 0x20 ADD SWAP2 SWAP1 PUSH1 0x1 ADD SWAP1 PUSH3 0x60A JUMP JUMPDEST POP PUSH3 0x635 SWAP3 SWAP2 POP PUSH3 0x6F1 JUMP JUMPDEST POP SWAP1 JUMP JUMPDEST PUSH1 0x40 MLOAD DUP1 PUSH2 0x100 ADD PUSH1 0x40 MSTORE DUP1 PUSH1 0x8 SWAP1 PUSH1 0x20 DUP3 MUL DUP1 CALLDATASIZE DUP4 CALLDATACOPY POP SWAP2 SWAP3 SWAP2 POP POP JUMP JUMPDEST PUSH1 0x1 DUP4 ADD SWAP2 DUP4 SWAP1 DUP3 ISZERO PUSH3 0x627 JUMPI SWAP2 PUSH1 0x20 MUL DUP3 ADD PUSH1 0x0 JUMPDEST DUP4 DUP3 GT ISZERO PUSH3 0x6B5 JUMPI DUP4 MLOAD DUP4 DUP3 PUSH2 0x100 EXP DUP2 SLOAD DUP2 PUSH4 0xFFFFFFFF MUL NOT AND SWAP1 DUP4 PUSH4 0xFFFFFFFF AND MUL OR SWAP1 SSTORE POP SWAP3 PUSH1 0x20 ADD SWAP3 PUSH1 0x4 ADD PUSH1 0x20 DUP2 PUSH1 0x3 ADD DIV SWAP3 DUP4 ADD SWAP3 PUSH1 0x1 SUB MUL PUSH3 0x66F JUMP JUMPDEST DUP1 ISZERO PUSH3 0x6E7 JUMPI DUP3 DUP2 PUSH2 0x100 EXP DUP2 SLOAD SWAP1 PUSH4 0xFFFFFFFF MUL NOT AND SWAP1 SSTORE PUSH1 0x4 ADD PUSH1 0x20 DUP2 PUSH1 0x3 ADD DIV SWAP3 DUP4 ADD SWAP3 PUSH1 0x1 SUB MUL PUSH3 0x6B5 JUMP JUMPDEST POP POP PUSH3 0x635 SWAP3 SWAP2 POP JUMPDEST JUMPDEST DUP1 DUP3 GT ISZERO PUSH3 0x635 JUMPI PUSH1 0x0 DUP2 SSTORE PUSH1 0x1 ADD PUSH3 0x6F2 JUMP JUMPDEST PUSH1 0x1 DUP2 DUP2 SHR SWAP1 DUP3 AND DUP1 PUSH3 0x71D JUMPI PUSH1 0x7F DUP3 AND SWAP2 POP JUMPDEST PUSH1 0x20 DUP3 LT DUP2 EQ ISZERO PUSH3 0x73F JUMPI PUSH4 0x4E487B71 PUSH1 0xE0 SHL PUSH1 0x0 MSTORE PUSH1 0x22 PUSH1 0x4 MSTORE PUSH1 0x24 PUSH1 0x0 REVERT JUMPDEST POP SWAP2 SWAP1 POP JUMP JUMPDEST PUSH1 0x0 DUP1 DUP4 SLOAD DUP2 PUSH1 0x1 DUP3 DUP2 SHR SWAP2 POP DUP1 DUP4 AND DUP1 PUSH3 0x762 JUMPI PUSH1 0x7F DUP4 AND SWAP3 POP JUMPDEST PUSH1 0x20 DUP1 DUP5 LT DUP3 EQ ISZERO PUSH3 0x783 JUMPI PUSH4 0x4E487B71 PUSH1 0xE0 SHL DUP7 MSTORE PUSH1 0x22 PUSH1 0x4 MSTORE PUSH1 0x24 DUP7 REVERT JUMPDEST DUP2 DUP1 ISZERO PUSH3 0x79A JUMPI PUSH1 0x1 DUP2 EQ PUSH3 0x7AC JUMPI PUSH3 0x7DB JUMP JUMPDEST PUSH1 0xFF NOT DUP7 AND DUP10 MSTORE DUP5 DUP10 ADD SWAP7 POP PUSH3 0x7DB JUMP JUMPDEST PUSH1 0x0 DUP11 DUP2 MSTORE PUSH1 0x20 SWAP1 KECCAK256 PUSH1 0x0 JUMPDEST DUP7 DUP2 LT ISZERO PUSH3 0x7D3 JUMPI DUP2 SLOAD DUP12 DUP3 ADD MSTORE SWAP1 DUP6 ADD SWAP1 DUP4 ADD PUSH3 0x7B8 JUMP JUMPDEST POP POP DUP5 DUP10 ADD SWAP7 POP JUMPDEST POP POP POP POP POP POP PUSH3 0x7FB DUP2 PUSH9 0x3DB4B23E973539B7B7 PUSH1 0xB9 SHL DUP2 MSTORE PUSH1 0x9 ADD SWAP1 JUMP JUMPDEST SWAP5 SWAP4 POP POP POP POP JUMP JUMPDEST PUSH1 0x0 DUP2 PUSH1 0x0 NOT DIV DUP4 GT DUP3 ISZERO ISZERO AND ISZERO PUSH3 0x82C JUMPI PUSH4 0x4E487B71 PUSH1 0xE0 SHL PUSH1 0x0 MSTORE PUSH1 0x11 PUSH1 0x4 MSTORE PUSH1 0x24 PUSH1 0x0 REVERT JUMPDEST POP MUL SWAP1 JUMP JUMPDEST PUSH1 0x0 DUP3 PUSH3 0x84F JUMPI PUSH4 0x4E487B71 PUSH1 0xE0 SHL PUSH1 0x0 MSTORE PUSH1 0x12 PUSH1 0x4 MSTORE PUSH1 0x24 PUSH1 0x0 REVERT JUMPDEST POP DIV SWAP1 JUMP JUMPDEST PUSH2 0x5F83 DUP1 PUSH3 0x864 PUSH1 0x0 CODECOPY PUSH1 0x0 RETURN INVALID PUSH1 0x80 PUSH1 0x40 MSTORE PUSH1 0x4 CALLDATASIZE LT PUSH2 0x2B1 JUMPI PUSH1 0x0 CALLDATALOAD PUSH1 0xE0 SHR DUP1 PUSH4 0x74FCF071 GT PUSH2 0x175 JUMPI DUP1 PUSH4 0xC09C923B GT PUSH2 0xDC JUMPI DUP1 PUSH4 0xD5D60737 GT PUSH2 0x95 JUMPI DUP1 PUSH4 0xECA01093 GT PUSH2 0x6F JUMPI DUP1 PUSH4 0xECA01093 EQ PUSH2 0x8F2 JUMPI DUP1 PUSH4 0xF242432A EQ PUSH2 0x912 JUMPI DUP1 PUSH4 0xF5298ACA EQ PUSH2 0x932 JUMPI DUP1 PUSH4 0xF6524724 EQ PUSH2 0x952 JUMPI PUSH1 0x0 DUP1 REVERT JUMPDEST DUP1 PUSH4 0xD5D60737 EQ PUSH2 0x82B JUMPI DUP1 PUSH4 0xE06174E4 EQ PUSH2 0x83E JUMPI DUP1 PUSH4 0xE985E9C5 EQ PUSH2 0x8A9 JUMPI PUSH1 0x0 DUP1 REVERT JUMPDEST DUP1 PUSH4 0xC09C923B EQ PUSH2 0x78E JUMPI DUP1 PUSH4 0xC790985A EQ PUSH2 0x796 JUMPI DUP1 PUSH4 0xCA15C873 EQ PUSH2 0x7B6 JUMPI DUP1 PUSH4 0xCAB4BA82 EQ PUSH2 0x7D6 JUMPI DUP1 PUSH4 0xD391014B EQ PUSH2 0x7F6 JUMPI DUP1 PUSH4 0xD547741F EQ PUSH2 0x80B JUMPI PUSH1 0x0 DUP1 REVERT JUMPDEST DUP1 PUSH4 0xA22CB465 GT PUSH2 0x12E JUMPI DUP1 PUSH4 0xA22CB465 EQ PUSH2 0x6C4 JUMPI DUP1 PUSH4 0xA60C6E55 EQ PUSH2 0x6E4 JUMPI DUP1 PUSH4 0xA6D8AD39 EQ PUSH2 0x70C JUMPI DUP1 PUSH4 0xA7FD40BF EQ PUSH2 0x72C JUMPI DUP1 PUSH4 0xB5D11E99 EQ PUSH2 0x74C JUMPI DUP1 PUSH4 0xBD85B039 EQ PUSH2 0x761 JUMPI PUSH1 0x0 DUP1 REVERT JUMPDEST DUP1 PUSH4 0x74FCF071 EQ PUSH2 0x61C JUMPI DUP1 PUSH4 0x842980F4 EQ PUSH2 0x63C JUMPI DUP1 PUSH4 0x9010D07C EQ PUSH2 0x64F JUMPI DUP1 PUSH4 0x91D14854 EQ PUSH2 0x66F JUMPI DUP1 PUSH4 0x95D89B41 EQ PUSH2 0x68F JUMPI DUP1 PUSH4 0x9BC731FC EQ PUSH2 0x6A4 JUMPI PUSH1 0x0 DUP1 REVERT JUMPDEST DUP1 PUSH4 0x313CE567 GT PUSH2 0x219 JUMPI DUP1 PUSH4 0x4C3C0EB2 GT PUSH2 0x1D2 JUMPI DUP1 PUSH4 0x4C3C0EB2 EQ PUSH2 0x537 JUMPI DUP1 PUSH4 0x4E1273F4 EQ PUSH2 0x557 JUMPI DUP1 PUSH4 0x4F558E79 EQ PUSH2 0x584 JUMPI DUP1 PUSH4 0x5C41DBE0 EQ PUSH2 0x5B3 JUMPI DUP1 PUSH4 0x61417516 EQ PUSH2 0x5C6 JUMPI DUP1 PUSH4 0x71858049 EQ PUSH2 0x5FC JUMPI PUSH1 0x0 DUP1 REVERT JUMPDEST DUP1 PUSH4 0x313CE567 EQ PUSH2 0x483 JUMPI DUP1 PUSH4 0x34E150AB EQ PUSH2 0x497 JUMPI DUP1 PUSH4 0x36568ABE EQ PUSH2 0x4C4 JUMPI DUP1 PUSH4 0x3935AC11 EQ PUSH2 0x4E4 JUMPI DUP1 PUSH4 0x43FEFAD4 EQ PUSH2 0x504 JUMPI DUP1 PUSH4 0x48B08D62 EQ PUSH2 0x517 JUMPI PUSH1 0x0 DUP1 REVERT JUMPDEST DUP1 PUSH4 0xC2E075B GT PUSH2 0x26B JUMPI DUP1 PUSH4 0xC2E075B EQ PUSH2 0x3BC JUMPI DUP1 PUSH4 0xE89341C EQ PUSH2 0x3DC JUMPI DUP1 PUSH4 0x18160DDD EQ PUSH2 0x3FC JUMPI DUP1 PUSH4 0x248A9CA3 EQ PUSH2 0x411 JUMPI DUP1 PUSH4 0x2EB2C2D6 EQ PUSH2 0x441 JUMPI DUP1 PUSH4 0x2F2FF15D EQ PUSH2 0x463 JUMPI PUSH1 0x0 DUP1 REVERT JUMPDEST DUP1 PUSH3 0xFDD58E EQ PUSH2 0x2BD JUMPI DUP1 PUSH4 0x1FFC9A7 EQ PUSH2 0x2F0 JUMPI DUP1 PUSH4 0x3D604BD EQ PUSH2 0x320 JUMPI DUP1 PUSH4 0x3ED957F EQ PUSH2 0x342 JUMPI DUP1 PUSH4 0x6FB1A07 EQ PUSH2 0x362 JUMPI DUP1 PUSH4 0x6FDDE03 EQ PUSH2 0x39A JUMPI PUSH1 0x0 DUP1 REVERT JUMPDEST CALLDATASIZE PUSH2 0x2B8 JUMPI STOP JUMPDEST PUSH1 0x0 DUP1 REVERT JUMPDEST CALLVALUE DUP1 ISZERO PUSH2 0x2C9 JUMPI PUSH1 0x0 DUP1 REVERT JUMPDEST POP PUSH2 0x2DD PUSH2 0x2D8 CALLDATASIZE PUSH1 0x4 PUSH2 0x520B JUMP JUMPDEST PUSH2 0x965 JUMP JUMPDEST PUSH1 0x40 MLOAD SWAP1 DUP2 MSTORE PUSH1 0x20 ADD JUMPDEST PUSH1 0x40 MLOAD DUP1 SWAP2 SUB SWAP1 RETURN JUMPDEST CALLVALUE DUP1 ISZERO PUSH2 0x2FC JUMPI PUSH1 0x0 DUP1 REVERT JUMPDEST POP PUSH2 0x310 PUSH2 0x30B CALLDATASIZE PUSH1 0x4 PUSH2 0x524D JUMP JUMPDEST PUSH2 0x9B7 JUMP JUMPDEST PUSH1 0x40 MLOAD SWAP1 ISZERO ISZERO DUP2 MSTORE PUSH1 0x20 ADD PUSH2 0x2E7 JUMP JUMPDEST CALLVALUE DUP1 ISZERO PUSH2 0x32C JUMPI PUSH1 0x0 DUP1 REVERT JUMPDEST POP PUSH2 0x340 PUSH2 0x33B CALLDATASIZE PUSH1 0x4 PUSH2 0x526A JUMP JUMPDEST PUSH2 0x9F7 JUMP JUMPDEST STOP JUMPDEST CALLVALUE DUP1 ISZERO PUSH2 0x34E JUMPI PUSH1 0x0 DUP1 REVERT JUMPDEST POP PUSH2 0x340 PUSH2 0x35D CALLDATASIZE PUSH1 0x4 PUSH2 0x5287 JUMP JUMPDEST PUSH2 0xB4F JUMP JUMPDEST CALLVALUE DUP1 ISZERO PUSH2 0x36E JUMPI PUSH1 0x0 DUP1 REVERT JUMPDEST POP PUSH2 0x382 PUSH2 0x37D CALLDATASIZE PUSH1 0x4 PUSH2 0x52FB JUMP JUMPDEST PUSH2 0xBCC JUMP JUMPDEST PUSH1 0x40 MLOAD PUSH1 0x1 PUSH1 0x1 PUSH1 0xA0 SHL SUB SWAP1 SWAP2 AND DUP2 MSTORE PUSH1 0x20 ADD PUSH2 0x2E7 JUMP JUMPDEST CALLVALUE DUP1 ISZERO PUSH2 0x3A6 JUMPI PUSH1 0x0 DUP1 REVERT JUMPDEST POP PUSH2 0x3AF PUSH2 0xC43 JUMP JUMPDEST PUSH1 0x40 MLOAD PUSH2 0x2E7 SWAP2 SWAP1 PUSH2 0x536C JUMP JUMPDEST CALLVALUE DUP1 ISZERO PUSH2 0x3C8 JUMPI PUSH1 0x0 DUP1 REVERT JUMPDEST POP PUSH2 0x340 PUSH2 0x3D7 CALLDATASIZE PUSH1 0x4 PUSH2 0x537F JUMP JUMPDEST PUSH2 0xCD5 JUMP JUMPDEST CALLVALUE DUP1 ISZERO PUSH2 0x3E8 JUMPI PUSH1 0x0 DUP1 REVERT JUMPDEST POP PUSH2 0x3AF PUSH2 0x3F7 CALLDATASIZE PUSH1 0x4 PUSH2 0x52FB JUMP JUMPDEST PUSH2 0xD8C JUMP JUMPDEST CALLVALUE DUP1 ISZERO PUSH2 0x408 JUMPI PUSH1 0x0 DUP1 REVERT JUMPDEST POP PUSH2 0x2DD PUSH2 0xDB8 JUMP JUMPDEST CALLVALUE DUP1 ISZERO PUSH2 0x41D JUMPI PUSH1 0x0 DUP1 REVERT JUMPDEST POP PUSH2 0x2DD PUSH2 0x42C CALLDATASIZE PUSH1 0x4 PUSH2 0x52FB JUMP JUMPDEST PUSH1 0x0 SWAP1 DUP2 MSTORE PUSH1 0x4 PUSH1 0x20 MSTORE PUSH1 0x40 SWAP1 KECCAK256 PUSH1 0x1 ADD SLOAD SWAP1 JUMP JUMPDEST CALLVALUE DUP1 ISZERO PUSH2 0x44D JUMPI PUSH1 0x0 DUP1 REVERT JUMPDEST POP PUSH2 0x340 PUSH2 0x45C CALLDATASIZE PUSH1 0x4 PUSH2 0x54D4 JUMP JUMPDEST POP POP POP POP POP JUMP JUMPDEST CALLVALUE DUP1 ISZERO PUSH2 0x46F JUMPI PUSH1 0x0 DUP1 REVERT JUMPDEST POP PUSH2 0x340 PUSH2 0x47E CALLDATASIZE PUSH1 0x4 PUSH2 0x5581 JUMP JUMPDEST PUSH2 0xE04 JUMP JUMPDEST CALLVALUE DUP1 ISZERO PUSH2 0x48F JUMPI PUSH1 0x0 DUP1 REVERT JUMPDEST POP PUSH1 0x12 PUSH2 0x2DD JUMP JUMPDEST CALLVALUE DUP1 ISZERO PUSH2 0x4A3 JUMPI PUSH1 0x0 DUP1 REVERT JUMPDEST POP PUSH2 0x4B7 PUSH2 0x4B2 CALLDATASIZE PUSH1 0x4 PUSH2 0x55FC JUMP JUMPDEST PUSH2 0xE2F JUMP JUMPDEST PUSH1 0x40 MLOAD PUSH2 0x2E7 SWAP2 SWAP1 PUSH2 0x563D JUMP JUMPDEST CALLVALUE DUP1 ISZERO PUSH2 0x4D0 JUMPI PUSH1 0x0 DUP1 REVERT JUMPDEST POP PUSH2 0x340 PUSH2 0x4DF CALLDATASIZE PUSH1 0x4 PUSH2 0x5581 JUMP JUMPDEST PUSH2 0xFD8 JUMP JUMPDEST CALLVALUE DUP1 ISZERO PUSH2 0x4F0 JUMPI PUSH1 0x0 DUP1 REVERT JUMPDEST POP PUSH2 0x340 PUSH2 0x4FF CALLDATASIZE PUSH1 0x4 PUSH2 0x56E8 JUMP JUMPDEST PUSH2 0x100F JUMP JUMPDEST PUSH2 0x2DD PUSH2 0x512 CALLDATASIZE PUSH1 0x4 PUSH2 0x574B JUMP JUMPDEST PUSH2 0x1042 JUMP JUMPDEST CALLVALUE DUP1 ISZERO PUSH2 0x523 JUMPI PUSH1 0x0 DUP1 REVERT JUMPDEST POP PUSH2 0x2DD PUSH2 0x532 CALLDATASIZE PUSH1 0x4 PUSH2 0x5795 JUMP JUMPDEST PUSH2 0x1613 JUMP JUMPDEST CALLVALUE DUP1 ISZERO PUSH2 0x543 JUMPI PUSH1 0x0 DUP1 REVERT JUMPDEST POP PUSH2 0x2DD PUSH2 0x552 CALLDATASIZE PUSH1 0x4 PUSH2 0x526A JUMP JUMPDEST PUSH2 0x16E5 JUMP JUMPDEST CALLVALUE DUP1 ISZERO PUSH2 0x563 JUMPI PUSH1 0x0 DUP1 REVERT JUMPDEST POP PUSH2 0x577 PUSH2 0x572 CALLDATASIZE PUSH1 0x4 PUSH2 0x57D6 JUMP JUMPDEST PUSH2 0x1707 JUMP JUMPDEST PUSH1 0x40 MLOAD PUSH2 0x2E7 SWAP2 SWAP1 PUSH2 0x588D JUMP JUMPDEST CALLVALUE DUP1 ISZERO PUSH2 0x590 JUMPI PUSH1 0x0 DUP1 REVERT JUMPDEST POP PUSH2 0x310 PUSH2 0x59F CALLDATASIZE PUSH1 0x4 PUSH2 0x52FB JUMP JUMPDEST PUSH1 0x0 SWAP1 DUP2 MSTORE PUSH1 0x3 PUSH1 0x20 MSTORE PUSH1 0x40 SWAP1 KECCAK256 SLOAD ISZERO ISZERO SWAP1 JUMP JUMPDEST PUSH2 0x340 PUSH2 0x5C1 CALLDATASIZE PUSH1 0x4 PUSH2 0x574B JUMP JUMPDEST PUSH2 0x17E7 JUMP JUMPDEST CALLVALUE DUP1 ISZERO PUSH2 0x5D2 JUMPI PUSH1 0x0 DUP1 REVERT JUMPDEST POP PUSH2 0x2DD PUSH2 0x5E1 CALLDATASIZE PUSH1 0x4 PUSH2 0x526A JUMP JUMPDEST PUSH1 0x1 PUSH1 0x1 PUSH1 0xA0 SHL SUB AND PUSH1 0x0 SWAP1 DUP2 MSTORE PUSH1 0xA PUSH1 0x20 MSTORE PUSH1 0x40 SWAP1 KECCAK256 SLOAD SWAP1 JUMP JUMPDEST CALLVALUE DUP1 ISZERO PUSH2 0x608 JUMPI PUSH1 0x0 DUP1 REVERT JUMPDEST POP PUSH2 0x340 PUSH2 0x617 CALLDATASIZE PUSH1 0x4 PUSH2 0x520B JUMP JUMPDEST PUSH2 0x17F3 JUMP JUMPDEST CALLVALUE DUP1 ISZERO PUSH2 0x628 JUMPI PUSH1 0x0 DUP1 REVERT JUMPDEST POP PUSH2 0x2DD PUSH2 0x637 CALLDATASIZE PUSH1 0x4 PUSH2 0x574B JUMP JUMPDEST PUSH2 0x19CE JUMP JUMPDEST PUSH2 0x340 PUSH2 0x64A CALLDATASIZE PUSH1 0x4 PUSH2 0x574B JUMP JUMPDEST PUSH2 0x1A56 JUMP JUMPDEST CALLVALUE DUP1 ISZERO PUSH2 0x65B JUMPI PUSH1 0x0 DUP1 REVERT JUMPDEST POP PUSH2 0x382 PUSH2 0x66A CALLDATASIZE PUSH1 0x4 PUSH2 0x58D1 JUMP JUMPDEST PUSH2 0x1A64 JUMP JUMPDEST CALLVALUE DUP1 ISZERO PUSH2 0x67B JUMPI PUSH1 0x0 DUP1 REVERT JUMPDEST POP PUSH2 0x310 PUSH2 0x68A CALLDATASIZE PUSH1 0x4 PUSH2 0x5581 JUMP JUMPDEST PUSH2 0x1A7C JUMP JUMPDEST CALLVALUE DUP1 ISZERO PUSH2 0x69B JUMPI PUSH1 0x0 DUP1 REVERT JUMPDEST POP PUSH2 0x3AF PUSH2 0x1AA7 JUMP JUMPDEST CALLVALUE DUP1 ISZERO PUSH2 0x6B0 JUMPI PUSH1 0x0 DUP1 REVERT JUMPDEST POP PUSH2 0x340 PUSH2 0x6BF CALLDATASIZE PUSH1 0x4 PUSH2 0x526A JUMP JUMPDEST PUSH2 0x1AB6 JUMP JUMPDEST CALLVALUE DUP1 ISZERO PUSH2 0x6D0 JUMPI PUSH1 0x0 DUP1 REVERT JUMPDEST POP PUSH2 0x340 PUSH2 0x6DF CALLDATASIZE PUSH1 0x4 PUSH2 0x5901 JUMP JUMPDEST PUSH2 0x1D4B JUMP JUMPDEST PUSH2 0x6F7 PUSH2 0x6F2 CALLDATASIZE PUSH1 0x4 PUSH2 0x592F JUMP JUMPDEST PUSH2 0x1EC0 JUMP JUMPDEST PUSH1 0x40 DUP1 MLOAD SWAP3 DUP4 MSTORE PUSH1 0x20 DUP4 ADD SWAP2 SWAP1 SWAP2 MSTORE ADD PUSH2 0x2E7 JUMP JUMPDEST CALLVALUE DUP1 ISZERO PUSH2 0x718 JUMPI PUSH1 0x0 DUP1 REVERT JUMPDEST POP PUSH2 0x4B7 PUSH2 0x727 CALLDATASIZE PUSH1 0x4 PUSH2 0x55FC JUMP JUMPDEST PUSH2 0x2105 JUMP JUMPDEST CALLVALUE DUP1 ISZERO PUSH2 0x738 JUMPI PUSH1 0x0 DUP1 REVERT JUMPDEST POP PUSH2 0x340 PUSH2 0x747 CALLDATASIZE PUSH1 0x4 PUSH2 0x5996 JUMP JUMPDEST PUSH2 0x2273 JUMP JUMPDEST CALLVALUE DUP1 ISZERO PUSH2 0x758 JUMPI PUSH1 0x0 DUP1 REVERT JUMPDEST POP PUSH2 0x340 PUSH2 0x22BA JUMP JUMPDEST CALLVALUE DUP1 ISZERO PUSH2 0x76D JUMPI PUSH1 0x0 DUP1 REVERT JUMPDEST POP PUSH2 0x2DD PUSH2 0x77C CALLDATASIZE PUSH1 0x4 PUSH2 0x52FB JUMP JUMPDEST PUSH1 0x0 SWAP1 DUP2 MSTORE PUSH1 0x3 PUSH1 0x20 MSTORE PUSH1 0x40 SWAP1 KECCAK256 SLOAD SWAP1 JUMP JUMPDEST PUSH2 0x340 PUSH2 0x230A JUMP JUMPDEST CALLVALUE DUP1 ISZERO PUSH2 0x7A2 JUMPI PUSH1 0x0 DUP1 REVERT JUMPDEST POP PUSH2 0x2DD PUSH2 0x7B1 CALLDATASIZE PUSH1 0x4 PUSH2 0x5795 JUMP JUMPDEST PUSH2 0x2342 JUMP JUMPDEST CALLVALUE DUP1 ISZERO PUSH2 0x7C2 JUMPI PUSH1 0x0 DUP1 REVERT JUMPDEST POP PUSH2 0x2DD PUSH2 0x7D1 CALLDATASIZE PUSH1 0x4 PUSH2 0x52FB JUMP JUMPDEST PUSH2 0x2402 JUMP JUMPDEST CALLVALUE DUP1 ISZERO PUSH2 0x7E2 JUMPI PUSH1 0x0 DUP1 REVERT JUMPDEST POP PUSH2 0x340 PUSH2 0x7F1 CALLDATASIZE PUSH1 0x4 PUSH2 0x520B JUMP JUMPDEST PUSH2 0x2419 JUMP JUMPDEST CALLVALUE DUP1 ISZERO PUSH2 0x802 JUMPI PUSH1 0x0 DUP1 REVERT JUMPDEST POP PUSH2 0x2DD PUSH1 0x0 DUP2 JUMP JUMPDEST CALLVALUE DUP1 ISZERO PUSH2 0x817 JUMPI PUSH1 0x0 DUP1 REVERT JUMPDEST POP PUSH2 0x340 PUSH2 0x826 CALLDATASIZE PUSH1 0x4 PUSH2 0x5581 JUMP JUMPDEST PUSH2 0x257F JUMP JUMPDEST PUSH2 0x340 PUSH2 0x839 CALLDATASIZE PUSH1 0x4 PUSH2 0x574B JUMP JUMPDEST PUSH2 0x25A5 JUMP JUMPDEST CALLVALUE DUP1 ISZERO PUSH2 0x84A JUMPI PUSH1 0x0 DUP1 REVERT JUMPDEST POP PUSH1 0x10 SLOAD PUSH1 0x11 SLOAD PUSH1 0x12 SLOAD PUSH1 0x13 SLOAD PUSH1 0x14 SLOAD PUSH1 0x15 SLOAD PUSH2 0x872 SWAP6 PUSH1 0x1 PUSH1 0x1 PUSH1 0xA0 SHL SUB AND SWAP5 SWAP4 SWAP3 SWAP2 SWAP1 DUP7 JUMP JUMPDEST PUSH1 0x40 DUP1 MLOAD PUSH1 0x1 PUSH1 0x1 PUSH1 0xA0 SHL SUB SWAP1 SWAP8 AND DUP8 MSTORE PUSH1 0x20 DUP8 ADD SWAP6 SWAP1 SWAP6 MSTORE SWAP4 DUP6 ADD SWAP3 SWAP1 SWAP3 MSTORE PUSH1 0x60 DUP5 ADD MSTORE PUSH1 0x80 DUP4 ADD MSTORE PUSH1 0xA0 DUP3 ADD MSTORE PUSH1 0xC0 ADD PUSH2 0x2E7 JUMP JUMPDEST CALLVALUE DUP1 ISZERO PUSH2 0x8B5 JUMPI PUSH1 0x0 DUP1 REVERT JUMPDEST POP PUSH2 0x310 PUSH2 0x8C4 CALLDATASIZE PUSH1 0x4 PUSH2 0x59D2 JUMP JUMPDEST PUSH1 0x1 PUSH1 0x1 PUSH1 0xA0 SHL SUB SWAP2 DUP3 AND PUSH1 0x0 SWAP1 DUP2 MSTORE PUSH1 0x1 PUSH1 0x20 SWAP1 DUP2 MSTORE PUSH1 0x40 DUP1 DUP4 KECCAK256 SWAP4 SWAP1 SWAP5 AND DUP3 MSTORE SWAP2 SWAP1 SWAP2 MSTORE KECCAK256 SLOAD PUSH1 0xFF AND SWAP1 JUMP JUMPDEST CALLVALUE DUP1 ISZERO PUSH2 0x8FE JUMPI PUSH1 0x0 DUP1 REVERT JUMPDEST POP PUSH2 0x340 PUSH2 0x90D CALLDATASIZE PUSH1 0x4 PUSH2 0x5A00 JUMP JUMPDEST PUSH2 0x25C0 JUMP JUMPDEST CALLVALUE DUP1 ISZERO PUSH2 0x91E JUMPI PUSH1 0x0 DUP1 REVERT JUMPDEST POP PUSH2 0x340 PUSH2 0x92D CALLDATASIZE PUSH1 0x4 PUSH2 0x5A71 JUMP JUMPDEST PUSH2 0x2605 JUMP JUMPDEST CALLVALUE DUP1 ISZERO PUSH2 0x93E JUMPI PUSH1 0x0 DUP1 REVERT JUMPDEST POP PUSH2 0x340 PUSH2 0x94D CALLDATASIZE PUSH1 0x4 PUSH2 0x5AD9 JUMP JUMPDEST PUSH2 0x265B JUMP JUMPDEST PUSH2 0x6F7 PUSH2 0x960 CALLDATASIZE PUSH1 0x4 PUSH2 0x592F JUMP JUMPDEST PUSH2 0x26A4 JUMP JUMPDEST PUSH1 0x0 PUSH1 0x1 PUSH1 0x1 PUSH1 0xA0 SHL SUB DUP4 AND PUSH2 0x98E JUMPI PUSH1 0x40 MLOAD PUSH4 0x6E3B4547 PUSH1 0xE1 SHL DUP2 MSTORE PUSH1 0x4 ADD PUSH1 0x40 MLOAD DUP1 SWAP2 SUB SWAP1 REVERT JUMPDEST POP PUSH1 0x0 DUP2 DUP2 MSTORE PUSH1 0x20 DUP2 DUP2 MSTORE PUSH1 0x40 DUP1 DUP4 KECCAK256 PUSH1 0x1 PUSH1 0x1 PUSH1 0xA0 SHL SUB DUP7 AND DUP5 MSTORE SWAP1 SWAP2 MSTORE SWAP1 KECCAK256 SLOAD JUMPDEST SWAP3 SWAP2 POP POP JUMP JUMPDEST PUSH1 0x0 PUSH1 0x1 PUSH1 0x1 PUSH1 0xE0 SHL SUB NOT DUP3 AND PUSH4 0x6CDB3D13 PUSH1 0xE1 SHL EQ DUP1 PUSH2 0x9E8 JUMPI POP PUSH1 0x1 PUSH1 0x1 PUSH1 0xE0 SHL SUB NOT DUP3 AND PUSH4 0x3A24D07 PUSH1 0xE2 SHL EQ JUMPDEST DUP1 PUSH2 0x9B1 JUMPI POP PUSH2 0x9B1 DUP3 PUSH2 0x29DB JUMP JUMPDEST PUSH1 0x1 PUSH1 0x1 PUSH1 0xA0 SHL SUB DUP2 AND PUSH1 0x0 SWAP1 DUP2 MSTORE PUSH1 0xA PUSH1 0x20 MSTORE PUSH1 0x40 SWAP1 KECCAK256 SLOAD DUP2 SWAP1 ISZERO DUP1 PUSH2 0xA2B JUMPI POP PUSH1 0xD SLOAD PUSH1 0x1 PUSH1 0x1 PUSH1 0xA0 SHL SUB DUP3 DUP2 AND SWAP2 AND EQ JUMPDEST ISZERO PUSH2 0xA51 JUMPI PUSH1 0x40 MLOAD PUSH3 0x461BCD PUSH1 0xE5 SHL DUP2 MSTORE PUSH1 0x4 ADD PUSH2 0xA48 SWAP1 PUSH2 0x5B0E JUMP JUMPDEST PUSH1 0x40 MLOAD DUP1 SWAP2 SUB SWAP1 REVERT JUMPDEST PUSH1 0x1 PUSH1 0x1 PUSH1 0xA0 SHL SUB DUP3 AND PUSH1 0x0 SWAP1 DUP2 MSTORE PUSH1 0xA PUSH1 0x20 MSTORE PUSH1 0x40 DUP2 KECCAK256 SLOAD SWAP1 PUSH2 0xA74 DUP5 PUSH2 0x2A10 JUMP JUMPDEST PUSH1 0xD SLOAD SWAP1 SWAP2 POP PUSH1 0x0 SWAP1 PUSH2 0xA8F SWAP1 PUSH1 0x1 PUSH1 0x1 PUSH1 0xA0 SHL SUB AND PUSH2 0x2A10 JUMP JUMPDEST SWAP1 POP PUSH1 0x0 PUSH1 0x9 DUP5 DUP2 SLOAD DUP2 LT PUSH2 0xAA6 JUMPI PUSH2 0xAA6 PUSH2 0x5B29 JUMP JUMPDEST PUSH1 0x0 SWAP2 DUP3 MSTORE PUSH1 0x20 SWAP1 SWAP2 KECCAK256 PUSH1 0x1 PUSH1 0x4 SWAP1 SWAP3 MUL ADD ADD SLOAD PUSH2 0xACD SWAP1 PUSH1 0x1 PUSH1 0x1 PUSH1 0x80 SHL SUB AND DUP5 PUSH2 0x5B55 JUMP JUMPDEST SWAP1 POP DUP1 ISZERO PUSH2 0xAE2 JUMPI PUSH2 0xAE2 DUP7 CALLER DUP4 PUSH1 0x0 PUSH2 0x2A9D JUMP JUMPDEST PUSH1 0x0 PUSH1 0x9 DUP6 DUP2 SLOAD DUP2 LT PUSH2 0xAF7 JUMPI PUSH2 0xAF7 PUSH2 0x5B29 JUMP JUMPDEST PUSH1 0x0 SWAP2 DUP3 MSTORE PUSH1 0x20 SWAP1 SWAP2 KECCAK256 PUSH1 0x4 SWAP1 SWAP2 MUL ADD PUSH1 0x1 ADD SLOAD PUSH2 0xB25 SWAP1 PUSH1 0x1 PUSH1 0x80 SHL SWAP1 DIV PUSH1 0x1 PUSH1 0x1 PUSH1 0x80 SHL SUB AND DUP5 PUSH2 0x5B55 JUMP JUMPDEST SWAP1 POP DUP1 ISZERO PUSH2 0xB46 JUMPI PUSH1 0xD SLOAD PUSH2 0xB46 SWAP1 PUSH1 0x1 PUSH1 0x1 PUSH1 0xA0 SHL SUB AND CALLER DUP4 PUSH1 0x0 PUSH2 0x2A9D JUMP JUMPDEST POP POP POP POP POP POP POP JUMP JUMPDEST PUSH1 0x0 PUSH2 0xB5B DUP2 CALLER PUSH2 0x2ADD JUMP JUMPDEST PUSH1 0x0 JUMPDEST DUP3 DUP2 LT ISZERO PUSH2 0xBC6 JUMPI PUSH2 0xBB4 DUP5 DUP5 DUP4 DUP2 DUP2 LT PUSH2 0xB7B JUMPI PUSH2 0xB7B PUSH2 0x5B29 JUMP JUMPDEST SWAP1 POP PUSH1 0x40 MUL ADD PUSH1 0x0 ADD CALLDATALOAD DUP6 DUP6 DUP5 DUP2 DUP2 LT PUSH2 0xB97 JUMPI PUSH2 0xB97 PUSH2 0x5B29 JUMP JUMPDEST SWAP1 POP PUSH1 0x40 MUL ADD PUSH1 0x20 ADD PUSH1 0x20 DUP2 ADD SWAP1 PUSH2 0xBAF SWAP2 SWAP1 PUSH2 0x526A JUMP JUMPDEST PUSH2 0x2B16 JUMP JUMPDEST DUP1 PUSH2 0xBBE DUP2 PUSH2 0x5B6C JUMP JUMPDEST SWAP2 POP POP PUSH2 0xB5E JUMP JUMPDEST POP POP POP POP JUMP JUMPDEST PUSH1 0x40 MLOAD PUSH4 0x6FB1A07 PUSH1 0xE0 SHL DUP2 MSTORE PUSH1 0x4 DUP2 ADD DUP3 SWAP1 MSTORE PUSH1 0x0 SWAP1 PUSH20 0xDEF1FAC7BF08F173D286BBBDCBEEADE695129840 SWAP1 PUSH4 0x6FB1A07 SWAP1 PUSH1 0x24 ADD PUSH1 0x20 PUSH1 0x40 MLOAD DUP1 DUP4 SUB DUP2 DUP7 GAS STATICCALL ISZERO DUP1 ISZERO PUSH2 0xC1F JUMPI RETURNDATASIZE PUSH1 0x0 DUP1 RETURNDATACOPY RETURNDATASIZE PUSH1 0x0 REVERT JUMPDEST POP POP POP POP PUSH1 0x40 MLOAD RETURNDATASIZE PUSH1 0x1F NOT PUSH1 0x1F DUP3 ADD AND DUP3 ADD DUP1 PUSH1 0x40 MSTORE POP DUP2 ADD SWAP1 PUSH2 0x9B1 SWAP2 SWAP1 PUSH2 0x5B87 JUMP JUMPDEST PUSH1 0x60 PUSH1 0x6 DUP1 SLOAD PUSH2 0xC52 SWAP1 PUSH2 0x5BA4 JUMP JUMPDEST DUP1 PUSH1 0x1F ADD PUSH1 0x20 DUP1 SWAP2 DIV MUL PUSH1 0x20 ADD PUSH1 0x40 MLOAD SWAP1 DUP2 ADD PUSH1 0x40 MSTORE DUP1 SWAP3 SWAP2 SWAP1 DUP2 DUP2 MSTORE PUSH1 0x20 ADD DUP3 DUP1 SLOAD PUSH2 0xC7E SWAP1 PUSH2 0x5BA4 JUMP JUMPDEST DUP1 ISZERO PUSH2 0xCCB JUMPI DUP1 PUSH1 0x1F LT PUSH2 0xCA0 JUMPI PUSH2 0x100 DUP1 DUP4 SLOAD DIV MUL DUP4 MSTORE SWAP2 PUSH1 0x20 ADD SWAP2 PUSH2 0xCCB JUMP JUMPDEST DUP3 ADD SWAP2 SWAP1 PUSH1 0x0 MSTORE PUSH1 0x20 PUSH1 0x0 KECCAK256 SWAP1 JUMPDEST DUP2 SLOAD DUP2 MSTORE SWAP1 PUSH1 0x1 ADD SWAP1 PUSH1 0x20 ADD DUP1 DUP4 GT PUSH2 0xCAE JUMPI DUP3 SWAP1 SUB PUSH1 0x1F AND DUP3 ADD SWAP2 JUMPDEST POP POP POP POP POP SWAP1 POP SWAP1 JUMP JUMPDEST PUSH1 0x0 PUSH2 0xCE1 DUP2 CALLER PUSH2 0x2ADD JUMP JUMPDEST PUSH1 0x40 DUP3 ADD CALLDATALOAD ISZERO DUP1 PUSH2 0xCF9 JUMPI POP DUP2 PUSH1 0x60 ADD CALLDATALOAD DUP3 PUSH1 0x40 ADD CALLDATALOAD GT JUMPDEST DUP1 PUSH2 0xD09 JUMPI POP PUSH2 0x1F4 DUP3 PUSH1 0x60 ADD CALLDATALOAD GT JUMPDEST ISZERO PUSH2 0xD27 JUMPI PUSH1 0x40 MLOAD PUSH4 0x7420258D PUSH1 0xE1 SHL DUP2 MSTORE PUSH1 0x4 ADD PUSH1 0x40 MLOAD DUP1 SWAP2 SUB SWAP1 REVERT JUMPDEST DUP2 PUSH1 0xA0 ADD CALLDATALOAD DUP3 PUSH1 0x80 ADD CALLDATALOAD GT ISZERO PUSH2 0xD50 JUMPI PUSH1 0x40 MLOAD PUSH4 0x75E1700B PUSH1 0xE1 SHL DUP2 MSTORE PUSH1 0x4 ADD PUSH1 0x40 MLOAD DUP1 SWAP2 SUB SWAP1 REVERT JUMPDEST PUSH1 0x64 PUSH2 0xD61 PUSH1 0x20 DUP5 ADD CALLDATALOAD PUSH1 0x2 PUSH2 0x5BD9 JUMP JUMPDEST LT PUSH2 0xD7F JUMPI PUSH1 0x40 MLOAD PUSH4 0x1457C3C3 PUSH1 0xE1 SHL DUP2 MSTORE PUSH1 0x4 ADD PUSH1 0x40 MLOAD DUP1 SWAP2 SUB SWAP1 REVERT JUMPDEST DUP2 PUSH1 0x10 PUSH2 0xBC6 DUP3 DUP3 PUSH2 0x5BF8 JUMP JUMPDEST PUSH1 0x60 PUSH1 0x8 DUP3 PUSH1 0x40 MLOAD PUSH1 0x20 ADD PUSH2 0xDA2 SWAP3 SWAP2 SWAP1 PUSH2 0x5C55 JUMP JUMPDEST PUSH1 0x40 MLOAD PUSH1 0x20 DUP2 DUP4 SUB SUB DUP2 MSTORE SWAP1 PUSH1 0x40 MSTORE SWAP1 POP SWAP2 SWAP1 POP JUMP JUMPDEST PUSH1 0x0 DUP1 PUSH1 0x0 JUMPDEST PUSH1 0x0 PUSH1 0x3 DUP2 PUSH2 0xDCC DUP6 PUSH2 0x5B6C JUMP JUMPDEST SWAP5 POP DUP5 DUP2 MSTORE PUSH1 0x20 ADD SWAP1 DUP2 MSTORE PUSH1 0x20 ADD PUSH1 0x0 KECCAK256 SLOAD GT ISZERO PUSH2 0x9B1 JUMPI PUSH1 0x0 DUP3 DUP2 MSTORE PUSH1 0x3 PUSH1 0x20 MSTORE PUSH1 0x40 SWAP1 KECCAK256 SLOAD PUSH2 0xDFD SWAP1 DUP3 PUSH2 0x5D0C JUMP JUMPDEST SWAP1 POP PUSH2 0xDBE JUMP JUMPDEST PUSH1 0x0 DUP3 DUP2 MSTORE PUSH1 0x4 PUSH1 0x20 MSTORE PUSH1 0x40 SWAP1 KECCAK256 PUSH1 0x1 ADD SLOAD PUSH2 0xE20 DUP2 CALLER PUSH2 0x2ADD JUMP JUMPDEST PUSH2 0xE2A DUP4 DUP4 PUSH2 0x2B1C JUMP JUMPDEST POP POP POP JUMP JUMPDEST PUSH1 0x60 PUSH1 0x0 DUP3 PUSH1 0x1 PUSH1 0x1 PUSH1 0x40 SHL SUB DUP2 GT ISZERO PUSH2 0xE4B JUMPI PUSH2 0xE4B PUSH2 0x5391 JUMP JUMPDEST PUSH1 0x40 MLOAD SWAP1 DUP1 DUP3 MSTORE DUP1 PUSH1 0x20 MUL PUSH1 0x20 ADD DUP3 ADD PUSH1 0x40 MSTORE DUP1 ISZERO PUSH2 0xE84 JUMPI DUP2 PUSH1 0x20 ADD JUMPDEST PUSH2 0xE71 PUSH2 0x5076 JUMP JUMPDEST DUP2 MSTORE PUSH1 0x20 ADD SWAP1 PUSH1 0x1 SWAP1 SUB SWAP1 DUP2 PUSH2 0xE69 JUMPI SWAP1 POP JUMPDEST POP SWAP1 POP PUSH1 0x0 JUMPDEST DUP4 DUP2 LT ISZERO PUSH2 0xFD0 JUMPI PUSH1 0x9 PUSH1 0xA PUSH1 0x0 DUP8 DUP8 DUP6 DUP2 DUP2 LT PUSH2 0xEAA JUMPI PUSH2 0xEAA PUSH2 0x5B29 JUMP JUMPDEST SWAP1 POP PUSH1 0x20 MUL ADD PUSH1 0x20 DUP2 ADD SWAP1 PUSH2 0xEBF SWAP2 SWAP1 PUSH2 0x526A JUMP JUMPDEST PUSH1 0x1 PUSH1 0x1 PUSH1 0xA0 SHL SUB AND PUSH1 0x1 PUSH1 0x1 PUSH1 0xA0 SHL SUB AND DUP2 MSTORE PUSH1 0x20 ADD SWAP1 DUP2 MSTORE PUSH1 0x20 ADD PUSH1 0x0 KECCAK256 SLOAD DUP2 SLOAD DUP2 LT PUSH2 0xEF0 JUMPI PUSH2 0xEF0 PUSH2 0x5B29 JUMP JUMPDEST PUSH1 0x0 SWAP2 DUP3 MSTORE PUSH1 0x20 SWAP1 SWAP2 KECCAK256 PUSH1 0x40 DUP1 MLOAD PUSH2 0x1A0 DUP2 ADD SWAP1 SWAP2 MSTORE SWAP2 PUSH1 0x4 MUL ADD DUP2 PUSH1 0xA0 DUP2 ADD DUP3 PUSH1 0x8 DUP3 DUP3 DUP3 PUSH1 0x20 MUL DUP3 ADD SWAP2 PUSH1 0x0 SWAP1 JUMPDEST DUP3 DUP3 SWAP1 SLOAD SWAP1 PUSH2 0x100 EXP SWAP1 DIV PUSH4 0xFFFFFFFF AND PUSH4 0xFFFFFFFF AND DUP2 MSTORE PUSH1 0x20 ADD SWAP1 PUSH1 0x4 ADD SWAP1 PUSH1 0x20 DUP3 PUSH1 0x3 ADD DIV SWAP3 DUP4 ADD SWAP3 PUSH1 0x1 SUB DUP3 MUL SWAP2 POP DUP1 DUP5 GT PUSH2 0xF20 JUMPI POP POP POP SWAP3 DUP5 MSTORE POP POP POP PUSH1 0x1 DUP3 ADD SLOAD PUSH1 0x1 PUSH1 0x1 PUSH1 0x80 SHL SUB DUP1 DUP3 AND PUSH1 0x20 DUP5 ADD MSTORE PUSH1 0x1 PUSH1 0x80 SHL SWAP1 SWAP2 DIV DUP2 AND PUSH1 0x40 DUP4 ADD MSTORE PUSH1 0x2 DUP4 ADD SLOAD AND PUSH1 0x60 DUP3 ADD MSTORE PUSH1 0x3 SWAP1 SWAP2 ADD SLOAD PUSH1 0x80 SWAP1 SWAP2 ADD MSTORE DUP3 MLOAD DUP4 SWAP1 DUP4 SWAP1 DUP2 LT PUSH2 0xFB2 JUMPI PUSH2 0xFB2 PUSH2 0x5B29 JUMP JUMPDEST PUSH1 0x20 MUL PUSH1 0x20 ADD ADD DUP2 SWAP1 MSTORE POP DUP1 DUP1 PUSH2 0xFC8 SWAP1 PUSH2 0x5B6C JUMP JUMPDEST SWAP2 POP POP PUSH2 0xE8A JUMP JUMPDEST POP SWAP4 SWAP3 POP POP POP JUMP JUMPDEST PUSH1 0x1 PUSH1 0x1 PUSH1 0xA0 SHL SUB DUP2 AND CALLER EQ PUSH2 0x1001 JUMPI PUSH1 0x40 MLOAD PUSH4 0x19CD37B7 PUSH1 0xE1 SHL DUP2 MSTORE PUSH1 0x4 ADD PUSH1 0x40 MLOAD DUP1 SWAP2 SUB SWAP1 REVERT JUMPDEST PUSH2 0x100B DUP3 DUP3 PUSH2 0x2B3E JUMP JUMPDEST POP POP JUMP JUMPDEST PUSH1 0x0 PUSH2 0x101B DUP2 CALLER PUSH2 0x2ADD JUMP JUMPDEST DUP3 MLOAD PUSH2 0x102E SWAP1 PUSH1 0x6 SWAP1 PUSH1 0x20 DUP7 ADD SWAP1 PUSH2 0x50AB JUMP JUMPDEST POP DUP2 MLOAD PUSH2 0xBC6 SWAP1 PUSH1 0x7 SWAP1 PUSH1 0x20 DUP6 ADD SWAP1 PUSH2 0x50AB JUMP JUMPDEST PUSH1 0x1 PUSH1 0x1 PUSH1 0xA0 SHL SUB DUP5 AND PUSH1 0x0 SWAP1 DUP2 MSTORE PUSH1 0xA PUSH1 0x20 MSTORE PUSH1 0x40 DUP2 KECCAK256 SLOAD DUP6 SWAP1 ISZERO DUP1 PUSH2 0x1076 JUMPI POP PUSH1 0xD SLOAD PUSH1 0x1 PUSH1 0x1 PUSH1 0xA0 SHL SUB DUP3 DUP2 AND SWAP2 AND EQ JUMPDEST ISZERO PUSH2 0x1093 JUMPI PUSH1 0x40 MLOAD PUSH3 0x461BCD PUSH1 0xE5 SHL DUP2 MSTORE PUSH1 0x4 ADD PUSH2 0xA48 SWAP1 PUSH2 0x5B0E JUMP JUMPDEST DUP4 DUP1 TIMESTAMP GT ISZERO PUSH2 0x10B4 JUMPI PUSH1 0x40 MLOAD PUSH3 0x461BCD PUSH1 0xE5 SHL DUP2 MSTORE PUSH1 0x4 ADD PUSH2 0xA48 SWAP1 PUSH2 0x5D24 JUMP JUMPDEST PUSH1 0x1 PUSH1 0x1 PUSH1 0xA0 SHL SUB DUP8 AND PUSH1 0x0 SWAP1 DUP2 MSTORE PUSH1 0xA PUSH1 0x20 MSTORE PUSH1 0x40 SWAP1 KECCAK256 SLOAD PUSH2 0x10D8 DUP9 CALLER DUP10 PUSH2 0x2B60 JUMP JUMPDEST PUSH1 0x0 PUSH2 0x10E3 DUP10 PUSH2 0x2A10 JUMP JUMPDEST SWAP1 POP PUSH1 0x9 DUP3 DUP2 SLOAD DUP2 LT PUSH2 0x10F8 JUMPI PUSH2 0x10F8 PUSH2 0x5B29 JUMP JUMPDEST PUSH1 0x0 SWAP2 DUP3 MSTORE PUSH1 0x20 SWAP1 SWAP2 KECCAK256 PUSH1 0x1 PUSH1 0x4 SWAP1 SWAP3 MUL ADD ADD SLOAD PUSH2 0x111F SWAP1 PUSH1 0x1 PUSH1 0x1 PUSH1 0x80 SHL SUB AND DUP3 PUSH2 0x5B55 JUMP JUMPDEST SWAP8 POP PUSH1 0x1 DUP9 GT PUSH2 0x1141 JUMPI PUSH1 0x40 MLOAD PUSH3 0x461BCD PUSH1 0xE5 SHL DUP2 MSTORE PUSH1 0x4 ADD PUSH2 0xA48 SWAP1 PUSH2 0x5D3F JUMP JUMPDEST PUSH1 0xD SLOAD PUSH1 0x0 SWAP1 PUSH2 0x1159 SWAP1 PUSH1 0x1 PUSH1 0x1 PUSH1 0xA0 SHL SUB AND PUSH2 0x2A10 JUMP JUMPDEST SWAP1 POP PUSH1 0x0 PUSH1 0xB SLOAD DUP3 PUSH2 0x116B SWAP2 SWAP1 PUSH2 0x5B55 JUMP JUMPDEST SWAP1 POP PUSH1 0x0 PUSH2 0x11F2 PUSH1 0x9 DUP7 DUP2 SLOAD DUP2 LT PUSH2 0x1185 JUMPI PUSH2 0x1185 PUSH2 0x5B29 JUMP JUMPDEST SWAP1 PUSH1 0x0 MSTORE PUSH1 0x20 PUSH1 0x0 KECCAK256 SWAP1 PUSH1 0x4 MUL ADD PUSH1 0x1 ADD PUSH1 0x10 SWAP1 SLOAD SWAP1 PUSH2 0x100 EXP SWAP1 DIV PUSH1 0x1 PUSH1 0x1 PUSH1 0x80 SHL SUB AND PUSH1 0x1 PUSH1 0x1 PUSH1 0x80 SHL SUB AND PUSH1 0x9 DUP8 DUP2 SLOAD DUP2 LT PUSH2 0x11C6 JUMPI PUSH2 0x11C6 PUSH2 0x5B29 JUMP JUMPDEST PUSH1 0x0 SWAP2 DUP3 MSTORE PUSH1 0x20 SWAP1 SWAP2 KECCAK256 PUSH1 0x1 PUSH1 0x4 SWAP1 SWAP3 MUL ADD ADD SLOAD PUSH2 0x11ED SWAP2 SWAP1 PUSH1 0x1 PUSH1 0x1 PUSH1 0x80 SHL SUB AND PUSH2 0x5BD9 JUMP JUMPDEST PUSH2 0x2C24 JUMP JUMPDEST SWAP1 POP PUSH1 0x0 PUSH2 0x1244 PUSH1 0x9 DUP8 DUP2 SLOAD DUP2 LT PUSH2 0x120C JUMPI PUSH2 0x120C PUSH2 0x5B29 JUMP JUMPDEST PUSH1 0x0 SWAP2 DUP3 MSTORE PUSH1 0x20 DUP1 DUP4 KECCAK256 PUSH1 0x2 PUSH1 0x4 SWAP1 SWAP4 MUL ADD SWAP2 SWAP1 SWAP2 ADD SLOAD DUP10 DUP4 MSTORE PUSH1 0x3 SWAP1 SWAP2 MSTORE PUSH1 0x40 SWAP1 SWAP2 KECCAK256 SLOAD PUSH1 0x1 PUSH1 0x1 PUSH1 0x80 SHL SUB SWAP1 SWAP2 AND SWAP1 DUP5 SWAP1 PUSH2 0x2C93 JUMP JUMPDEST SWAP1 POP DUP1 ISZERO PUSH2 0x1275 JUMPI PUSH1 0x10 SLOAD PUSH1 0x40 DUP1 MLOAD PUSH1 0x20 DUP2 ADD SWAP1 SWAP2 MSTORE PUSH1 0x0 DUP2 MSTORE PUSH2 0x1275 SWAP2 PUSH1 0x1 PUSH1 0x1 PUSH1 0xA0 SHL SUB AND SWAP1 DUP9 SWAP1 DUP5 SWAP1 PUSH2 0x2D18 JUMP JUMPDEST POP POP PUSH1 0x0 PUSH1 0x9 DUP6 DUP2 SLOAD DUP2 LT PUSH2 0x128C JUMPI PUSH2 0x128C PUSH2 0x5B29 JUMP JUMPDEST PUSH1 0x0 SWAP2 DUP3 MSTORE PUSH1 0x20 DUP1 DUP4 KECCAK256 PUSH1 0x1 PUSH1 0x4 SWAP1 SWAP4 MUL ADD SWAP2 SWAP1 SWAP2 ADD SLOAD DUP8 DUP4 MSTORE PUSH1 0x3 SWAP1 SWAP2 MSTORE PUSH1 0x40 SWAP1 SWAP2 KECCAK256 SLOAD PUSH1 0x1 PUSH1 0x1 PUSH1 0x80 SHL SUB SWAP1 SWAP2 AND SWAP1 PUSH2 0x12C7 SWAP1 DUP14 PUSH2 0x5BD9 JUMP JUMPDEST PUSH2 0x12D1 SWAP2 SWAP1 PUSH2 0x5D70 JUMP JUMPDEST SWAP1 POP PUSH2 0x12EE DUP10 DUP7 DUP4 PUSH1 0x40 MLOAD DUP1 PUSH1 0x20 ADD PUSH1 0x40 MSTORE DUP1 PUSH1 0x0 DUP2 MSTORE POP PUSH2 0x2D18 JUMP JUMPDEST PUSH1 0x0 PUSH1 0x9 DUP7 DUP2 SLOAD DUP2 LT PUSH2 0x1303 JUMPI PUSH2 0x1303 PUSH2 0x5B29 JUMP JUMPDEST PUSH1 0x0 SWAP2 DUP3 MSTORE PUSH1 0x20 SWAP1 SWAP2 KECCAK256 PUSH1 0x1 PUSH1 0x4 SWAP1 SWAP3 MUL ADD ADD SLOAD PUSH1 0x9 DUP1 SLOAD PUSH1 0x1 PUSH1 0x1 PUSH1 0x80 SHL SUB SWAP1 SWAP3 AND SWAP2 DUP9 SWAP1 DUP2 LT PUSH2 0x1337 JUMPI PUSH2 0x1337 PUSH2 0x5B29 JUMP JUMPDEST PUSH1 0x0 SWAP2 DUP3 MSTORE PUSH1 0x20 SWAP1 SWAP2 KECCAK256 PUSH1 0x4 SWAP1 SWAP2 MUL ADD PUSH1 0x1 ADD SLOAD PUSH2 0x1365 SWAP1 PUSH1 0x1 PUSH1 0x80 SHL SWAP1 DIV PUSH1 0x1 PUSH1 0x1 PUSH1 0x80 SHL SUB AND DUP15 PUSH2 0x5BD9 JUMP JUMPDEST PUSH2 0x136F SWAP2 SWAP1 PUSH2 0x5D70 JUMP JUMPDEST SWAP1 POP PUSH1 0x1 DUP2 GT PUSH2 0x1391 JUMPI PUSH1 0x40 MLOAD PUSH3 0x1037CB PUSH1 0xE9 SHL DUP2 MSTORE PUSH1 0x4 ADD PUSH1 0x40 MLOAD DUP1 SWAP2 SUB SWAP1 REVERT JUMPDEST PUSH1 0xD SLOAD PUSH1 0x40 MLOAD PUSH4 0xBB9FF5D PUSH1 0xE0 SHL DUP2 MSTORE ADDRESS PUSH1 0x4 DUP3 ADD MSTORE PUSH1 0x24 DUP2 ADD DUP4 SWAP1 MSTORE PUSH1 0x1 PUSH1 0x1 PUSH1 0xA0 SHL SUB SWAP1 SWAP2 AND SWAP1 PUSH4 0xBB9FF5D SWAP1 PUSH1 0x44 ADD PUSH1 0x0 PUSH1 0x40 MLOAD DUP1 DUP4 SUB DUP2 PUSH1 0x0 DUP8 DUP1 EXTCODESIZE ISZERO DUP1 ISZERO PUSH2 0x13DD JUMPI PUSH1 0x0 DUP1 REVERT JUMPDEST POP GAS CALL ISZERO DUP1 ISZERO PUSH2 0x13F1 JUMPI RETURNDATASIZE PUSH1 0x0 DUP1 RETURNDATACOPY RETURNDATASIZE PUSH1 0x0 REVERT JUMPDEST POP POP POP POP DUP1 DUP4 PUSH1 0xB SLOAD PUSH2 0x1404 SWAP2 SWAP1 PUSH2 0x5D0C JUMP JUMPDEST PUSH2 0x140E SWAP2 SWAP1 PUSH2 0x5D0C JUMP JUMPDEST PUSH1 0xB DUP2 SWAP1 SSTORE POP DUP12 PUSH1 0x9 DUP8 DUP2 SLOAD DUP2 LT PUSH2 0x1428 JUMPI PUSH2 0x1428 PUSH2 0x5B29 JUMP JUMPDEST PUSH1 0x0 SWAP2 DUP3 MSTORE PUSH1 0x20 SWAP1 SWAP2 KECCAK256 PUSH1 0x1 PUSH1 0x4 SWAP1 SWAP3 MUL ADD ADD SLOAD PUSH2 0x144F SWAP2 SWAP1 PUSH1 0x1 PUSH1 0x1 PUSH1 0x80 SHL SUB AND PUSH2 0x5D84 JUMP JUMPDEST PUSH1 0x9 DUP8 DUP2 SLOAD DUP2 LT PUSH2 0x1462 JUMPI PUSH2 0x1462 PUSH2 0x5B29 JUMP JUMPDEST PUSH1 0x0 SWAP2 DUP3 MSTORE PUSH1 0x20 SWAP1 SWAP2 KECCAK256 PUSH1 0x4 SWAP1 SWAP2 MUL ADD PUSH1 0x1 ADD DUP1 SLOAD PUSH1 0x1 PUSH1 0x1 PUSH1 0x80 SHL SUB NOT AND PUSH1 0x1 PUSH1 0x1 PUSH1 0x80 SHL SUB SWAP3 SWAP1 SWAP3 AND SWAP2 SWAP1 SWAP2 OR SWAP1 SSTORE PUSH2 0x149D DUP2 DUP5 PUSH2 0x5D0C JUMP JUMPDEST PUSH1 0x9 DUP8 DUP2 SLOAD DUP2 LT PUSH2 0x14B0 JUMPI PUSH2 0x14B0 PUSH2 0x5B29 JUMP JUMPDEST SWAP1 PUSH1 0x0 MSTORE PUSH1 0x20 PUSH1 0x0 KECCAK256 SWAP1 PUSH1 0x4 MUL ADD PUSH1 0x1 ADD PUSH1 0x10 SWAP1 SLOAD SWAP1 PUSH2 0x100 EXP SWAP1 DIV PUSH1 0x1 PUSH1 0x1 PUSH1 0x80 SHL SUB AND PUSH2 0x14DF SWAP2 SWAP1 PUSH2 0x5D84 JUMP JUMPDEST PUSH1 0x9 DUP8 DUP2 SLOAD DUP2 LT PUSH2 0x14F2 JUMPI PUSH2 0x14F2 PUSH2 0x5B29 JUMP JUMPDEST SWAP1 PUSH1 0x0 MSTORE PUSH1 0x20 PUSH1 0x0 KECCAK256 SWAP1 PUSH1 0x4 MUL ADD PUSH1 0x1 ADD PUSH1 0x10 PUSH2 0x100 EXP DUP2 SLOAD DUP2 PUSH1 0x1 PUSH1 0x1 PUSH1 0x80 SHL SUB MUL NOT AND SWAP1 DUP4 PUSH1 0x1 PUSH1 0x1 PUSH1 0x80 SHL SUB AND MUL OR SWAP1 SSTORE POP PUSH2 0x157E PUSH1 0x9 DUP8 DUP2 SLOAD DUP2 LT PUSH2 0x153D JUMPI PUSH2 0x153D PUSH2 0x5B29 JUMP JUMPDEST SWAP1 PUSH1 0x0 MSTORE PUSH1 0x20 PUSH1 0x0 KECCAK256 SWAP1 PUSH1 0x4 MUL ADD PUSH1 0x1 ADD PUSH1 0x10 SWAP1 SLOAD SWAP1 PUSH2 0x100 EXP SWAP1 DIV PUSH1 0x1 PUSH1 0x1 PUSH1 0x80 SHL SUB AND PUSH1 0x1 PUSH1 0x1 PUSH1 0x80 SHL SUB AND PUSH1 0x9 DUP9 DUP2 SLOAD DUP2 LT PUSH2 0x11C6 JUMPI PUSH2 0x11C6 PUSH2 0x5B29 JUMP JUMPDEST PUSH1 0x9 DUP8 DUP2 SLOAD DUP2 LT PUSH2 0x1591 JUMPI PUSH2 0x1591 PUSH2 0x5B29 JUMP JUMPDEST SWAP1 PUSH1 0x0 MSTORE PUSH1 0x20 PUSH1 0x0 KECCAK256 SWAP1 PUSH1 0x4 MUL ADD PUSH1 0x2 ADD PUSH1 0x0 PUSH2 0x100 EXP DUP2 SLOAD DUP2 PUSH1 0x1 PUSH1 0x1 PUSH1 0x80 SHL SUB MUL NOT AND SWAP1 DUP4 PUSH1 0x1 PUSH1 0x1 PUSH1 0x80 SHL SUB AND MUL OR SWAP1 SSTORE POP PUSH32 0x64B83944E79C3CE8D4C297411DE637C3E102D064677AAC0C163976EBDCD6F50E DUP14 DUP14 DUP4 DUP6 PUSH1 0x40 MLOAD PUSH2 0x15FB SWAP5 SWAP4 SWAP3 SWAP2 SWAP1 PUSH2 0x5DAF JUMP JUMPDEST PUSH1 0x40 MLOAD DUP1 SWAP2 SUB SWAP1 LOG1 POP SWAP12 SWAP11 POP POP POP POP POP POP POP POP POP POP POP JUMP JUMPDEST PUSH1 0xD SLOAD PUSH1 0x0 SWAP1 PUSH1 0x1 PUSH1 0x1 PUSH1 0xA0 SHL SUB DUP6 DUP2 AND SWAP2 AND EQ DUP1 ISZERO SWAP1 PUSH2 0x1641 JUMPI POP PUSH1 0xD SLOAD PUSH1 0x1 PUSH1 0x1 PUSH1 0xA0 SHL SUB DUP5 DUP2 AND SWAP2 AND EQ JUMPDEST ISZERO PUSH2 0x1657 JUMPI PUSH2 0x1650 DUP5 DUP4 PUSH2 0x2DEF JUMP JUMPDEST SWAP1 POP PUSH2 0x16DE JUMP JUMPDEST PUSH1 0xD SLOAD PUSH1 0x1 PUSH1 0x1 PUSH1 0xA0 SHL SUB DUP6 DUP2 AND SWAP2 AND EQ DUP1 ISZERO PUSH2 0x1682 JUMPI POP PUSH1 0xD SLOAD PUSH1 0x1 PUSH1 0x1 PUSH1 0xA0 SHL SUB DUP5 DUP2 AND SWAP2 AND EQ ISZERO JUMPDEST ISZERO PUSH2 0x1691 JUMPI PUSH2 0x1650 DUP4 DUP4 PUSH2 0x2EE2 JUMP JUMPDEST PUSH1 0xD SLOAD PUSH1 0x1 PUSH1 0x1 PUSH1 0xA0 SHL SUB DUP6 DUP2 AND SWAP2 AND EQ DUP1 ISZERO SWAP1 PUSH2 0x16BD JUMPI POP PUSH1 0xD SLOAD PUSH1 0x1 PUSH1 0x1 PUSH1 0xA0 SHL SUB DUP6 DUP2 AND SWAP2 AND EQ ISZERO JUMPDEST ISZERO PUSH2 0x16DE JUMPI PUSH1 0x0 PUSH2 0x16CE DUP6 DUP5 PUSH2 0x2DEF JUMP JUMPDEST SWAP1 POP PUSH2 0x16DA DUP5 DUP3 PUSH2 0x2EE2 JUMP JUMPDEST SWAP2 POP POP JUMPDEST SWAP4 SWAP3 POP POP POP JUMP JUMPDEST PUSH1 0x1 PUSH1 0x1 PUSH1 0xA0 SHL SUB DUP2 AND PUSH1 0x0 SWAP1 DUP2 MSTORE PUSH1 0xA PUSH1 0x20 MSTORE PUSH1 0x40 DUP2 KECCAK256 SLOAD PUSH2 0x9B1 SWAP1 PUSH2 0x2FCC JUMP JUMPDEST PUSH1 0x60 DUP2 MLOAD DUP4 MLOAD EQ PUSH2 0x172B JUMPI PUSH1 0x40 MLOAD PUSH4 0x80DADC27 PUSH1 0xE0 SHL DUP2 MSTORE PUSH1 0x4 ADD PUSH1 0x40 MLOAD DUP1 SWAP2 SUB SWAP1 REVERT JUMPDEST PUSH1 0x0 DUP4 MLOAD PUSH1 0x1 PUSH1 0x1 PUSH1 0x40 SHL SUB DUP2 GT ISZERO PUSH2 0x1746 JUMPI PUSH2 0x1746 PUSH2 0x5391 JUMP JUMPDEST PUSH1 0x40 MLOAD SWAP1 DUP1 DUP3 MSTORE DUP1 PUSH1 0x20 MUL PUSH1 0x20 ADD DUP3 ADD PUSH1 0x40 MSTORE DUP1 ISZERO PUSH2 0x176F JUMPI DUP2 PUSH1 0x20 ADD PUSH1 0x20 DUP3 MUL DUP1 CALLDATASIZE DUP4 CALLDATACOPY ADD SWAP1 POP JUMPDEST POP SWAP1 POP PUSH1 0x0 JUMPDEST DUP5 MLOAD DUP2 LT ISZERO PUSH2 0xFD0 JUMPI PUSH2 0x17BA DUP6 DUP3 DUP2 MLOAD DUP2 LT PUSH2 0x1793 JUMPI PUSH2 0x1793 PUSH2 0x5B29 JUMP JUMPDEST PUSH1 0x20 MUL PUSH1 0x20 ADD ADD MLOAD DUP6 DUP4 DUP2 MLOAD DUP2 LT PUSH2 0x17AD JUMPI PUSH2 0x17AD PUSH2 0x5B29 JUMP JUMPDEST PUSH1 0x20 MUL PUSH1 0x20 ADD ADD MLOAD PUSH2 0x965 JUMP JUMPDEST DUP3 DUP3 DUP2 MLOAD DUP2 LT PUSH2 0x17CC JUMPI PUSH2 0x17CC PUSH2 0x5B29 JUMP JUMPDEST PUSH1 0x20 SWAP1 DUP2 MUL SWAP2 SWAP1 SWAP2 ADD ADD MSTORE PUSH2 0x17E0 DUP2 PUSH2 0x5B6C JUMP JUMPDEST SWAP1 POP PUSH2 0x1775 JUMP JUMPDEST PUSH2 0xBC6 DUP5 DUP5 DUP5 DUP5 PUSH2 0x31F0 JUMP JUMPDEST PUSH1 0x1 PUSH1 0x1 PUSH1 0xA0 SHL SUB DUP3 AND PUSH1 0x0 SWAP1 DUP2 MSTORE PUSH1 0xA PUSH1 0x20 MSTORE PUSH1 0x40 SWAP1 KECCAK256 SLOAD PUSH2 0x1818 DUP3 PUSH1 0x0 NOT PUSH2 0x5B55 JUMP JUMPDEST PUSH1 0x9 DUP3 DUP2 SLOAD DUP2 LT PUSH2 0x182B JUMPI PUSH2 0x182B PUSH2 0x5B29 JUMP JUMPDEST SWAP1 PUSH1 0x0 MSTORE PUSH1 0x20 PUSH1 0x0 KECCAK256 SWAP1 PUSH1 0x4 MUL ADD PUSH1 0x3 ADD SLOAD GT ISZERO PUSH2 0x186F JUMPI PUSH1 0x40 MLOAD PUSH3 0x461BCD PUSH1 0xE5 SHL DUP2 MSTORE PUSH1 0x20 PUSH1 0x4 DUP3 ADD MSTORE PUSH1 0x1 PUSH1 0x24 DUP3 ADD MSTORE PUSH1 0xB PUSH1 0xFB SHL PUSH1 0x44 DUP3 ADD MSTORE PUSH1 0x64 ADD PUSH2 0xA48 JUMP JUMPDEST DUP2 PUSH1 0x9 DUP3 DUP2 SLOAD DUP2 LT PUSH2 0x1883 JUMPI PUSH2 0x1883 PUSH2 0x5B29 JUMP JUMPDEST SWAP1 PUSH1 0x0 MSTORE PUSH1 0x20 PUSH1 0x0 KECCAK256 SWAP1 PUSH1 0x4 MUL ADD PUSH1 0x3 ADD PUSH1 0x0 DUP3 DUP3 SLOAD PUSH2 0x18A3 SWAP2 SWAP1 PUSH2 0x5D0C JUMP JUMPDEST SWAP1 SWAP2 SSTORE POP POP PUSH1 0xD SLOAD PUSH1 0x40 MLOAD PUSH4 0x18A8AD87 PUSH1 0xE0 SHL DUP2 MSTORE CALLER PUSH1 0x4 DUP3 ADD MSTORE PUSH1 0x24 DUP2 ADD DUP5 SWAP1 MSTORE PUSH1 0x1 PUSH1 0x1 PUSH1 0xA0 SHL SUB SWAP1 SWAP2 AND SWAP1 PUSH4 0x18A8AD87 SWAP1 PUSH1 0x44 ADD PUSH1 0x0 PUSH1 0x40 MLOAD DUP1 DUP4 SUB DUP2 PUSH1 0x0 DUP8 DUP1 EXTCODESIZE ISZERO DUP1 ISZERO PUSH2 0x18F4 JUMPI PUSH1 0x0 DUP1 REVERT JUMPDEST POP GAS CALL ISZERO DUP1 ISZERO PUSH2 0x1908 JUMPI RETURNDATASIZE PUSH1 0x0 DUP1 RETURNDATACOPY RETURNDATASIZE PUSH1 0x0 REVERT JUMPDEST POP POP POP POP PUSH1 0x0 DUP1 MLOAD PUSH1 0x20 PUSH2 0x5F2E DUP4 CODECOPY DUP2 MLOAD SWAP2 MSTORE DUP4 PUSH1 0x9 DUP4 DUP2 SLOAD DUP2 LT PUSH2 0x192F JUMPI PUSH2 0x192F PUSH2 0x5B29 JUMP JUMPDEST SWAP1 PUSH1 0x0 MSTORE PUSH1 0x20 PUSH1 0x0 KECCAK256 SWAP1 PUSH1 0x4 MUL ADD PUSH1 0x1 ADD PUSH1 0x0 SWAP1 SLOAD SWAP1 PUSH2 0x100 EXP SWAP1 DIV PUSH1 0x1 PUSH1 0x1 PUSH1 0x80 SHL SUB AND PUSH1 0x9 DUP5 DUP2 SLOAD DUP2 LT PUSH2 0x1967 JUMPI PUSH2 0x1967 PUSH2 0x5B29 JUMP JUMPDEST SWAP1 PUSH1 0x0 MSTORE PUSH1 0x20 PUSH1 0x0 KECCAK256 SWAP1 PUSH1 0x4 MUL ADD PUSH1 0x1 ADD PUSH1 0x10 SWAP1 SLOAD SWAP1 PUSH2 0x100 EXP SWAP1 DIV PUSH1 0x1 PUSH1 0x1 PUSH1 0x80 SHL SUB AND PUSH1 0x9 DUP6 DUP2 SLOAD DUP2 LT PUSH2 0x199F JUMPI PUSH2 0x199F PUSH2 0x5B29 JUMP JUMPDEST SWAP1 PUSH1 0x0 MSTORE PUSH1 0x20 PUSH1 0x0 KECCAK256 SWAP1 PUSH1 0x4 MUL ADD PUSH1 0x3 ADD SLOAD PUSH1 0x40 MLOAD PUSH2 0x19C1 SWAP5 SWAP4 SWAP3 SWAP2 SWAP1 PUSH2 0x5DD5 JUMP JUMPDEST PUSH1 0x40 MLOAD DUP1 SWAP2 SUB SWAP1 LOG1 POP POP POP JUMP JUMPDEST PUSH1 0x1 PUSH1 0x1 PUSH1 0xA0 SHL SUB DUP5 AND PUSH1 0x0 SWAP1 DUP2 MSTORE PUSH1 0xA PUSH1 0x20 MSTORE PUSH1 0x40 DUP2 KECCAK256 SLOAD DUP6 SWAP1 ISZERO DUP1 PUSH2 0x1A02 JUMPI POP PUSH1 0xD SLOAD PUSH1 0x1 PUSH1 0x1 PUSH1 0xA0 SHL SUB DUP3 DUP2 AND SWAP2 AND EQ JUMPDEST ISZERO PUSH2 0x1A1F JUMPI PUSH1 0x40 MLOAD PUSH3 0x461BCD PUSH1 0xE5 SHL DUP2 MSTORE PUSH1 0x4 ADD PUSH2 0xA48 SWAP1 PUSH2 0x5B0E JUMP JUMPDEST DUP4 DUP1 TIMESTAMP GT ISZERO PUSH2 0x1A40 JUMPI PUSH1 0x40 MLOAD PUSH3 0x461BCD PUSH1 0xE5 SHL DUP2 MSTORE PUSH1 0x4 ADD PUSH2 0xA48 SWAP1 PUSH2 0x5D24 JUMP JUMPDEST PUSH2 0x1A4B DUP8 DUP8 DUP7 PUSH2 0x3AA4 JUMP JUMPDEST SWAP8 SWAP7 POP POP POP POP POP POP POP JUMP JUMPDEST PUSH2 0xBC6 DUP5 DUP5 DUP5 PUSH1 0x0 DUP6 PUSH2 0x3F88 JUMP JUMPDEST PUSH1 0x0 DUP3 DUP2 MSTORE PUSH1 0x5 PUSH1 0x20 MSTORE PUSH1 0x40 DUP2 KECCAK256 PUSH2 0x16DE SWAP1 DUP4 PUSH2 0x4328 JUMP JUMPDEST PUSH1 0x0 SWAP2 DUP3 MSTORE PUSH1 0x4 PUSH1 0x20 SWAP1 DUP2 MSTORE PUSH1 0x40 DUP1 DUP5 KECCAK256 PUSH1 0x1 PUSH1 0x1 PUSH1 0xA0 SHL SUB SWAP4 SWAP1 SWAP4 AND DUP5 MSTORE SWAP2 SWAP1 MSTORE SWAP1 KECCAK256 SLOAD PUSH1 0xFF AND SWAP1 JUMP JUMPDEST PUSH1 0x60 PUSH1 0x7 DUP1 SLOAD PUSH2 0xC52 SWAP1 PUSH2 0x5BA4 JUMP JUMPDEST PUSH1 0x1 PUSH1 0x1 PUSH1 0xA0 SHL SUB DUP2 AND PUSH1 0x0 SWAP1 DUP2 MSTORE PUSH1 0xA PUSH1 0x20 MSTORE PUSH1 0x40 SWAP1 KECCAK256 SLOAD DUP2 SWAP1 ISZERO DUP1 PUSH2 0x1AEA JUMPI POP PUSH1 0xD SLOAD PUSH1 0x1 PUSH1 0x1 PUSH1 0xA0 SHL SUB DUP3 DUP2 AND SWAP2 AND EQ JUMPDEST ISZERO PUSH2 0x1B07 JUMPI PUSH1 0x40 MLOAD PUSH3 0x461BCD PUSH1 0xE5 SHL DUP2 MSTORE PUSH1 0x4 ADD PUSH2 0xA48 SWAP1 PUSH2 0x5B0E JUMP JUMPDEST PUSH1 0x1 PUSH1 0x1 PUSH1 0xA0 SHL SUB DUP3 AND PUSH1 0x0 SWAP1 DUP2 MSTORE PUSH1 0xA PUSH1 0x20 MSTORE PUSH1 0x40 SWAP1 KECCAK256 SLOAD PUSH2 0x1B29 DUP4 PUSH2 0x2A10 JUMP JUMPDEST PUSH1 0x9 DUP3 DUP2 SLOAD DUP2 LT PUSH2 0x1B3C JUMPI PUSH2 0x1B3C PUSH2 0x5B29 JUMP JUMPDEST PUSH1 0x0 SWAP2 DUP3 MSTORE PUSH1 0x20 DUP3 KECCAK256 PUSH1 0x4 SWAP2 SWAP1 SWAP2 MUL ADD PUSH1 0x1 ADD DUP1 SLOAD PUSH1 0x1 PUSH1 0x1 PUSH1 0x80 SHL SUB NOT AND PUSH1 0x1 PUSH1 0x1 PUSH1 0x80 SHL SUB SWAP4 SWAP1 SWAP4 AND SWAP3 SWAP1 SWAP3 OR SWAP1 SWAP2 SSTORE PUSH1 0xD SLOAD PUSH2 0x1B83 SWAP1 PUSH1 0x1 PUSH1 0x1 PUSH1 0xA0 SHL SUB AND PUSH2 0x2A10 JUMP JUMPDEST SWAP1 POP PUSH1 0xB SLOAD DUP2 PUSH1 0x9 DUP5 DUP2 SLOAD DUP2 LT PUSH2 0x1B9C JUMPI PUSH2 0x1B9C PUSH2 0x5B29 JUMP JUMPDEST PUSH1 0x0 SWAP2 DUP3 MSTORE PUSH1 0x20 SWAP1 SWAP2 KECCAK256 PUSH1 0x4 SWAP1 SWAP2 MUL ADD PUSH1 0x1 ADD SLOAD PUSH2 0x1BCA SWAP2 SWAP1 PUSH1 0x1 PUSH1 0x80 SHL SWAP1 DIV PUSH1 0x1 PUSH1 0x1 PUSH1 0x80 SHL SUB AND PUSH2 0x5D0C JUMP JUMPDEST PUSH2 0x1BD4 SWAP2 SWAP1 PUSH2 0x5B55 JUMP JUMPDEST PUSH1 0x9 DUP4 DUP2 SLOAD DUP2 LT PUSH2 0x1BE7 JUMPI PUSH2 0x1BE7 PUSH2 0x5B29 JUMP JUMPDEST SWAP1 PUSH1 0x0 MSTORE PUSH1 0x20 PUSH1 0x0 KECCAK256 SWAP1 PUSH1 0x4 MUL ADD PUSH1 0x1 ADD PUSH1 0x10 PUSH2 0x100 EXP DUP2 SLOAD DUP2 PUSH1 0x1 PUSH1 0x1 PUSH1 0x80 SHL SUB MUL NOT AND SWAP1 DUP4 PUSH1 0x1 PUSH1 0x1 PUSH1 0x80 SHL SUB AND MUL OR SWAP1 SSTORE POP PUSH1 0xB SLOAD DUP2 PUSH1 0x9 DUP5 DUP2 SLOAD DUP2 LT PUSH2 0x1C33 JUMPI PUSH2 0x1C33 PUSH2 0x5B29 JUMP JUMPDEST SWAP1 PUSH1 0x0 MSTORE PUSH1 0x20 PUSH1 0x0 KECCAK256 SWAP1 PUSH1 0x4 MUL ADD PUSH1 0x3 ADD SLOAD PUSH2 0x1C4F SWAP2 SWAP1 PUSH2 0x5D0C JUMP JUMPDEST PUSH2 0x1C59 SWAP2 SWAP1 PUSH2 0x5B55 JUMP JUMPDEST PUSH1 0x9 DUP4 DUP2 SLOAD DUP2 LT PUSH2 0x1C6C JUMPI PUSH2 0x1C6C PUSH2 0x5B29 JUMP JUMPDEST SWAP1 PUSH1 0x0 MSTORE PUSH1 0x20 PUSH1 0x0 KECCAK256 SWAP1 PUSH1 0x4 MUL ADD PUSH1 0x3 ADD DUP2 SWAP1 SSTORE POP DUP1 PUSH1 0xB DUP2 SWAP1 SSTORE POP PUSH1 0x0 DUP1 MLOAD PUSH1 0x20 PUSH2 0x5F2E DUP4 CODECOPY DUP2 MLOAD SWAP2 MSTORE DUP5 PUSH1 0x9 DUP5 DUP2 SLOAD DUP2 LT PUSH2 0x1CAB JUMPI PUSH2 0x1CAB PUSH2 0x5B29 JUMP JUMPDEST SWAP1 PUSH1 0x0 MSTORE PUSH1 0x20 PUSH1 0x0 KECCAK256 SWAP1 PUSH1 0x4 MUL ADD PUSH1 0x1 ADD PUSH1 0x0 SWAP1 SLOAD SWAP1 PUSH2 0x100 EXP SWAP1 DIV PUSH1 0x1 PUSH1 0x1 PUSH1 0x80 SHL SUB AND PUSH1 0x9 DUP6 DUP2 SLOAD DUP2 LT PUSH2 0x1CE3 JUMPI PUSH2 0x1CE3 PUSH2 0x5B29 JUMP JUMPDEST SWAP1 PUSH1 0x0 MSTORE PUSH1 0x20 PUSH1 0x0 KECCAK256 SWAP1 PUSH1 0x4 MUL ADD PUSH1 0x1 ADD PUSH1 0x10 SWAP1 SLOAD SWAP1 PUSH2 0x100 EXP SWAP1 DIV PUSH1 0x1 PUSH1 0x1 PUSH1 0x80 SHL SUB AND PUSH1 0x9 DUP7 DUP2 SLOAD DUP2 LT PUSH2 0x1D1B JUMPI PUSH2 0x1D1B PUSH2 0x5B29 JUMP JUMPDEST SWAP1 PUSH1 0x0 MSTORE PUSH1 0x20 PUSH1 0x0 KECCAK256 SWAP1 PUSH1 0x4 MUL ADD PUSH1 0x3 ADD SLOAD PUSH1 0x40 MLOAD PUSH2 0x1D3D SWAP5 SWAP4 SWAP3 SWAP2 SWAP1 PUSH2 0x5DD5 JUMP JUMPDEST PUSH1 0x40 MLOAD DUP1 SWAP2 SUB SWAP1 LOG1 POP POP POP POP JUMP JUMPDEST PUSH1 0x40 MLOAD PUSH4 0x6FB1A07 PUSH1 0xE0 SHL DUP2 MSTORE PUSH1 0x3 PUSH1 0x4 DUP3 ADD MSTORE ADDRESS SWAP1 CALLER SWAP1 PUSH1 0x0 SWAP1 PUSH20 0xDEF1FAC7BF08F173D286BBBDCBEEADE695129840 SWAP1 PUSH4 0x6FB1A07 SWAP1 PUSH1 0x24 ADD PUSH1 0x20 PUSH1 0x40 MLOAD DUP1 DUP4 SUB DUP2 DUP7 GAS STATICCALL ISZERO DUP1 ISZERO PUSH2 0x1DA2 JUMPI RETURNDATASIZE PUSH1 0x0 DUP1 RETURNDATACOPY RETURNDATASIZE PUSH1 0x0 REVERT JUMPDEST POP POP POP POP PUSH1 0x40 MLOAD RETURNDATASIZE PUSH1 0x1F NOT PUSH1 0x1F DUP3 ADD AND DUP3 ADD DUP1 PUSH1 0x40 MSTORE POP DUP2 ADD SWAP1 PUSH2 0x1DC6 SWAP2 SWAP1 PUSH2 0x5B87 JUMP JUMPDEST PUSH1 0x40 MLOAD PUSH4 0xC8B57EF PUSH1 0xE2 SHL DUP2 MSTORE PUSH1 0x1 PUSH1 0x1 PUSH1 0xA0 SHL SUB DUP6 DUP2 AND PUSH1 0x4 DUP4 ADD MSTORE DUP5 DUP2 AND PUSH1 0x24 DUP4 ADD MSTORE SWAP2 SWAP3 POP SWAP1 DUP3 AND SWAP1 PUSH4 0x322D5FBC SWAP1 PUSH1 0x44 ADD PUSH1 0x20 PUSH1 0x40 MLOAD DUP1 DUP4 SUB DUP2 PUSH1 0x0 DUP8 GAS CALL ISZERO DUP1 ISZERO PUSH2 0x1E1A JUMPI RETURNDATASIZE PUSH1 0x0 DUP1 RETURNDATACOPY RETURNDATASIZE PUSH1 0x0 REVERT JUMPDEST POP POP POP POP PUSH1 0x40 MLOAD RETURNDATASIZE PUSH1 0x1F NOT PUSH1 0x1F DUP3 ADD AND DUP3 ADD DUP1 PUSH1 0x40 MSTORE POP DUP2 ADD SWAP1 PUSH2 0x1E3E SWAP2 SWAP1 PUSH2 0x5E05 JUMP JUMPDEST ISZERO PUSH2 0x1E5C JUMPI PUSH1 0x40 MLOAD PUSH4 0xE30CF0F PUSH1 0xE0 SHL DUP2 MSTORE PUSH1 0x4 ADD PUSH1 0x40 MLOAD DUP1 SWAP2 SUB SWAP1 REVERT JUMPDEST DUP1 PUSH1 0x1 PUSH1 0x1 PUSH1 0xA0 SHL SUB AND PUSH4 0xEEF84BA1 PUSH1 0x40 MLOAD DUP2 PUSH4 0xFFFFFFFF AND PUSH1 0xE0 SHL DUP2 MSTORE PUSH1 0x4 ADD PUSH1 0x0 PUSH1 0x40 MLOAD DUP1 DUP4 SUB DUP2 PUSH1 0x0 DUP8 DUP1 EXTCODESIZE ISZERO DUP1 ISZERO PUSH2 0x1E97 JUMPI PUSH1 0x0 DUP1 REVERT JUMPDEST POP GAS CALL ISZERO DUP1 ISZERO PUSH2 0x1EAB JUMPI RETURNDATASIZE PUSH1 0x0 DUP1 RETURNDATACOPY RETURNDATASIZE PUSH1 0x0 REVERT JUMPDEST POP POP POP POP PUSH2 0x45C PUSH2 0x1EB9 CALLER SWAP1 JUMP JUMPDEST DUP7 DUP7 PUSH2 0x4334 JUMP JUMPDEST PUSH1 0x0 DUP1 DUP4 DUP1 TIMESTAMP GT ISZERO PUSH2 0x1EE4 JUMPI PUSH1 0x40 MLOAD PUSH3 0x461BCD PUSH1 0xE5 SHL DUP2 MSTORE PUSH1 0x4 ADD PUSH2 0xA48 SWAP1 PUSH2 0x5D24 JUMP JUMPDEST PUSH1 0x1 DUP8 GT PUSH2 0x1F04 JUMPI PUSH1 0x40 MLOAD PUSH3 0x461BCD PUSH1 0xE5 SHL DUP2 MSTORE PUSH1 0x4 ADD PUSH2 0xA48 SWAP1 PUSH2 0x5D3F JUMP JUMPDEST PUSH1 0xD SLOAD CALLER SWAP1 PUSH1 0x0 SWAP1 PUSH1 0x1 PUSH1 0x1 PUSH1 0xA0 SHL SUB DUP13 DUP2 AND SWAP2 AND EQ DUP1 ISZERO SWAP1 PUSH2 0x1F34 JUMPI POP PUSH1 0xD SLOAD PUSH1 0x1 PUSH1 0x1 PUSH1 0xA0 SHL SUB DUP12 DUP2 AND SWAP2 AND EQ JUMPDEST ISZERO PUSH2 0x1F96 JUMPI PUSH2 0x1F43 DUP12 DUP11 PUSH2 0x2DEF JUMP JUMPDEST SWAP1 POP DUP8 DUP2 LT ISZERO PUSH2 0x1F79 JUMPI PUSH1 0x40 MLOAD PUSH3 0x461BCD PUSH1 0xE5 SHL DUP2 MSTORE PUSH1 0x20 PUSH1 0x4 DUP3 ADD MSTORE PUSH1 0x1 PUSH1 0x24 DUP3 ADD MSTORE PUSH1 0x9 PUSH1 0xFB SHL PUSH1 0x44 DUP3 ADD MSTORE PUSH1 0x64 ADD PUSH2 0xA48 JUMP JUMPDEST PUSH2 0x1F84 DUP12 DUP4 DUP12 PUSH2 0x2B60 JUMP JUMPDEST PUSH2 0x1F91 DUP12 PUSH1 0x0 DUP4 DUP10 PUSH2 0x31F0 JUMP JUMPDEST PUSH2 0x20F4 JUMP JUMPDEST PUSH1 0xD SLOAD PUSH1 0x1 PUSH1 0x1 PUSH1 0xA0 SHL SUB DUP13 DUP2 AND SWAP2 AND EQ DUP1 ISZERO PUSH2 0x1FC1 JUMPI POP PUSH1 0xD SLOAD PUSH1 0x1 PUSH1 0x1 PUSH1 0xA0 SHL SUB DUP12 DUP2 AND SWAP2 AND EQ ISZERO JUMPDEST ISZERO PUSH2 0x201E JUMPI PUSH2 0x1FD0 DUP11 DUP11 PUSH2 0x2EE2 JUMP JUMPDEST SWAP1 POP DUP8 DUP2 LT ISZERO PUSH2 0x2006 JUMPI PUSH1 0x40 MLOAD PUSH3 0x461BCD PUSH1 0xE5 SHL DUP2 MSTORE PUSH1 0x20 PUSH1 0x4 DUP3 ADD MSTORE PUSH1 0x1 PUSH1 0x24 DUP3 ADD MSTORE PUSH1 0x69 PUSH1 0xF8 SHL PUSH1 0x44 DUP3 ADD MSTORE PUSH1 0x64 ADD PUSH2 0xA48 JUMP JUMPDEST PUSH2 0x2011 DUP12 DUP4 DUP12 PUSH2 0x2B60 JUMP JUMPDEST PUSH2 0x1F91 DUP11 DUP3 PUSH1 0x0 DUP10 PUSH2 0x31F0 JUMP JUMPDEST PUSH1 0xD SLOAD PUSH1 0x1 PUSH1 0x1 PUSH1 0xA0 SHL SUB DUP13 DUP2 AND SWAP2 AND EQ DUP1 ISZERO SWAP1 PUSH2 0x204A JUMPI POP PUSH1 0xD SLOAD PUSH1 0x1 PUSH1 0x1 PUSH1 0xA0 SHL SUB DUP13 DUP2 AND SWAP2 AND EQ ISZERO JUMPDEST ISZERO PUSH2 0x20C8 JUMPI PUSH1 0x0 PUSH2 0x205B DUP13 DUP12 PUSH2 0x2DEF JUMP JUMPDEST SWAP1 POP PUSH2 0x2067 DUP12 DUP3 PUSH2 0x2EE2 JUMP JUMPDEST SWAP2 POP DUP9 DUP3 LT ISZERO PUSH2 0x209D JUMPI PUSH1 0x40 MLOAD PUSH3 0x461BCD PUSH1 0xE5 SHL DUP2 MSTORE PUSH1 0x20 PUSH1 0x4 DUP3 ADD MSTORE PUSH1 0x1 PUSH1 0x24 DUP3 ADD MSTORE PUSH1 0x69 PUSH1 0xF8 SHL PUSH1 0x44 DUP3 ADD MSTORE PUSH1 0x64 ADD PUSH2 0xA48 JUMP JUMPDEST PUSH2 0x20A8 DUP13 DUP5 DUP13 PUSH2 0x2B60 JUMP JUMPDEST PUSH2 0x20B5 DUP13 PUSH1 0x0 DUP4 ADDRESS PUSH2 0x31F0 JUMP JUMPDEST PUSH2 0x20C2 DUP12 DUP4 PUSH1 0x0 DUP11 PUSH2 0x31F0 JUMP JUMPDEST POP PUSH2 0x20F4 JUMP JUMPDEST PUSH1 0x40 MLOAD PUSH3 0x461BCD PUSH1 0xE5 SHL DUP2 MSTORE PUSH1 0x20 PUSH1 0x4 DUP3 ADD MSTORE PUSH1 0x1 PUSH1 0x24 DUP3 ADD MSTORE PUSH1 0x13 PUSH1 0xFA SHL PUSH1 0x44 DUP3 ADD MSTORE PUSH1 0x64 ADD PUSH2 0xA48 JUMP JUMPDEST SWAP8 SWAP11 SWAP8 SWAP10 POP SWAP7 SWAP8 POP POP POP POP POP POP POP POP JUMP JUMPDEST PUSH1 0x60 PUSH1 0x0 DUP3 PUSH1 0x1 PUSH1 0x1 PUSH1 0x40 SHL SUB DUP2 GT ISZERO PUSH2 0x2121 JUMPI PUSH2 0x2121 PUSH2 0x5391 JUMP JUMPDEST PUSH1 0x40 MLOAD SWAP1 DUP1 DUP3 MSTORE DUP1 PUSH1 0x20 MUL PUSH1 0x20 ADD DUP3 ADD PUSH1 0x40 MSTORE DUP1 ISZERO PUSH2 0x215A JUMPI DUP2 PUSH1 0x20 ADD JUMPDEST PUSH2 0x2147 PUSH2 0x5076 JUMP JUMPDEST DUP2 MSTORE PUSH1 0x20 ADD SWAP1 PUSH1 0x1 SWAP1 SUB SWAP1 DUP2 PUSH2 0x213F JUMPI SWAP1 POP JUMPDEST POP SWAP1 POP PUSH1 0x0 JUMPDEST DUP4 DUP2 LT ISZERO PUSH2 0xFD0 JUMPI PUSH1 0x9 DUP6 DUP6 DUP4 DUP2 DUP2 LT PUSH2 0x217C JUMPI PUSH2 0x217C PUSH2 0x5B29 JUMP JUMPDEST SWAP1 POP PUSH1 0x20 MUL ADD CALLDATALOAD DUP2 SLOAD DUP2 LT PUSH2 0x2193 JUMPI PUSH2 0x2193 PUSH2 0x5B29 JUMP JUMPDEST PUSH1 0x0 SWAP2 DUP3 MSTORE PUSH1 0x20 SWAP1 SWAP2 KECCAK256 PUSH1 0x40 DUP1 MLOAD PUSH2 0x1A0 DUP2 ADD SWAP1 SWAP2 MSTORE SWAP2 PUSH1 0x4 MUL ADD DUP2 PUSH1 0xA0 DUP2 ADD DUP3 PUSH1 0x8 DUP3 DUP3 DUP3 PUSH1 0x20 MUL DUP3 ADD SWAP2 PUSH1 0x0 SWAP1 JUMPDEST DUP3 DUP3 SWAP1 SLOAD SWAP1 PUSH2 0x100 EXP SWAP1 DIV PUSH4 0xFFFFFFFF AND PUSH4 0xFFFFFFFF AND DUP2 MSTORE PUSH1 0x20 ADD SWAP1 PUSH1 0x4 ADD SWAP1 PUSH1 0x20 DUP3 PUSH1 0x3 ADD DIV SWAP3 DUP4 ADD SWAP3 PUSH1 0x1 SUB DUP3 MUL SWAP2 POP DUP1 DUP5 GT PUSH2 0x21C3 JUMPI POP POP POP SWAP3 DUP5 MSTORE POP POP POP PUSH1 0x1 DUP3 ADD SLOAD PUSH1 0x1 PUSH1 0x1 PUSH1 0x80 SHL SUB DUP1 DUP3 AND PUSH1 0x20 DUP5 ADD MSTORE PUSH1 0x1 PUSH1 0x80 SHL SWAP1 SWAP2 DIV DUP2 AND PUSH1 0x40 DUP4 ADD MSTORE PUSH1 0x2 DUP4 ADD SLOAD AND PUSH1 0x60 DUP3 ADD MSTORE PUSH1 0x3 SWAP1 SWAP2 ADD SLOAD PUSH1 0x80 SWAP1 SWAP2 ADD MSTORE DUP3 MLOAD DUP4 SWAP1 DUP4 SWAP1 DUP2 LT PUSH2 0x2255 JUMPI PUSH2 0x2255 PUSH2 0x5B29 JUMP JUMPDEST PUSH1 0x20 MUL PUSH1 0x20 ADD ADD DUP2 SWAP1 MSTORE POP DUP1 DUP1 PUSH2 0x226B SWAP1 PUSH2 0x5B6C JUMP JUMPDEST SWAP2 POP POP PUSH2 0x2160 JUMP JUMPDEST PUSH1 0x0 PUSH2 0x227F DUP2 CALLER PUSH2 0x2ADD JUMP JUMPDEST PUSH2 0x22A7 DUP3 PUSH1 0x40 MLOAD PUSH1 0x20 ADD PUSH2 0x2293 SWAP2 SWAP1 PUSH2 0x5E22 JUMP JUMPDEST PUSH1 0x40 MLOAD PUSH1 0x20 DUP2 DUP4 SUB SUB DUP2 MSTORE SWAP1 PUSH1 0x40 MSTORE PUSH2 0x43D4 JUMP JUMPDEST DUP2 MLOAD PUSH2 0xE2A SWAP1 PUSH1 0x8 SWAP1 PUSH1 0x20 DUP6 ADD SWAP1 PUSH2 0x50AB JUMP JUMPDEST PUSH1 0xC SLOAD PUSH2 0x22E6 SWAP1 PUSH1 0x1 PUSH1 0x1 PUSH1 0xA0 SHL SUB AND PUSH10 0xD3C21BCECCEDA1000000 PUSH10 0x69E10DE76676D0800000 CALLER PUSH2 0x25A5 JUMP JUMPDEST PUSH1 0xE SLOAD PUSH2 0x2308 SWAP1 PUSH1 0x1 PUSH1 0x1 PUSH1 0xA0 SHL SUB AND PUSH10 0x943B1377290CBD800000 DUP1 CALLER PUSH2 0x25A5 JUMP JUMPDEST JUMP JUMPDEST PUSH1 0x0 PUSH2 0x2316 DUP2 CALLER PUSH2 0x2ADD JUMP JUMPDEST PUSH1 0xF SLOAD PUSH2 0x233F SWAP1 PUSH1 0x1 PUSH1 0x1 PUSH1 0xA0 SHL SUB AND PUSH7 0x38D7EA4C68000 PUSH10 0xD3C21BCECCEDA1000000 CALLER PUSH2 0x25A5 JUMP JUMPDEST POP JUMP JUMPDEST PUSH1 0xD SLOAD PUSH1 0x0 SWAP1 PUSH1 0x1 PUSH1 0x1 PUSH1 0xA0 SHL SUB DUP6 DUP2 AND SWAP2 AND EQ DUP1 ISZERO SWAP1 PUSH2 0x2370 JUMPI POP PUSH1 0xD SLOAD PUSH1 0x1 PUSH1 0x1 PUSH1 0xA0 SHL SUB DUP5 DUP2 AND SWAP2 AND EQ JUMPDEST ISZERO PUSH2 0x237F JUMPI PUSH2 0x1650 DUP5 DUP4 PUSH2 0x43E7 JUMP JUMPDEST PUSH1 0xD SLOAD PUSH1 0x1 PUSH1 0x1 PUSH1 0xA0 SHL SUB DUP6 DUP2 AND SWAP2 AND EQ DUP1 ISZERO PUSH2 0x23AA JUMPI POP PUSH1 0xD SLOAD PUSH1 0x1 PUSH1 0x1 PUSH1 0xA0 SHL SUB DUP5 DUP2 AND SWAP2 AND EQ ISZERO JUMPDEST ISZERO PUSH2 0x23B9 JUMPI PUSH2 0x1650 DUP4 DUP4 PUSH2 0x44D1 JUMP JUMPDEST PUSH1 0xD SLOAD PUSH1 0x1 PUSH1 0x1 PUSH1 0xA0 SHL SUB DUP6 DUP2 AND SWAP2 AND EQ DUP1 ISZERO SWAP1 PUSH2 0x23E5 JUMPI POP PUSH1 0xD SLOAD PUSH1 0x1 PUSH1 0x1 PUSH1 0xA0 SHL SUB DUP5 DUP2 AND SWAP2 AND EQ ISZERO JUMPDEST ISZERO PUSH2 0x16DE JUMPI PUSH1 0x0 PUSH2 0x23F6 DUP5 DUP5 PUSH2 0x44D1 JUMP JUMPDEST SWAP1 POP PUSH2 0x16DA DUP6 DUP3 PUSH2 0x43E7 JUMP JUMPDEST PUSH1 0x0 DUP2 DUP2 MSTORE PUSH1 0x5 PUSH1 0x20 MSTORE PUSH1 0x40 DUP2 KECCAK256 PUSH2 0x9B1 SWAP1 PUSH2 0x45BB JUMP JUMPDEST PUSH1 0x0 PUSH2 0x2425 DUP2 CALLER PUSH2 0x2ADD JUMP JUMPDEST PUSH1 0x1 PUSH1 0x1 PUSH1 0xA0 SHL SUB DUP4 AND PUSH1 0x0 SWAP1 DUP2 MSTORE PUSH1 0xA PUSH1 0x20 MSTORE PUSH1 0x40 SWAP1 KECCAK256 SLOAD DUP4 SWAP1 ISZERO DUP1 PUSH2 0x2459 JUMPI POP PUSH1 0xD SLOAD PUSH1 0x1 PUSH1 0x1 PUSH1 0xA0 SHL SUB DUP3 DUP2 AND SWAP2 AND EQ JUMPDEST ISZERO PUSH2 0x2476 JUMPI PUSH1 0x40 MLOAD PUSH3 0x461BCD PUSH1 0xE5 SHL DUP2 MSTORE PUSH1 0x4 ADD PUSH2 0xA48 SWAP1 PUSH2 0x5B0E JUMP JUMPDEST PUSH1 0x1 PUSH1 0x1 PUSH1 0xA0 SHL SUB DUP5 AND PUSH1 0x0 SWAP1 DUP2 MSTORE PUSH1 0xA PUSH1 0x20 MSTORE PUSH1 0x40 SWAP1 KECCAK256 SLOAD PUSH1 0x9 DUP1 SLOAD DUP6 SWAP2 SWAP1 DUP4 SWAP1 DUP2 LT PUSH2 0x24A6 JUMPI PUSH2 0x24A6 PUSH2 0x5B29 JUMP JUMPDEST SWAP1 PUSH1 0x0 MSTORE PUSH1 0x20 PUSH1 0x0 KECCAK256 SWAP1 PUSH1 0x4 MUL ADD PUSH1 0x3 ADD DUP2 SWAP1 SSTORE POP PUSH1 0x0 DUP1 MLOAD PUSH1 0x20 PUSH2 0x5F2E DUP4 CODECOPY DUP2 MLOAD SWAP2 MSTORE DUP6 PUSH1 0x9 DUP4 DUP2 SLOAD DUP2 LT PUSH2 0x24DE JUMPI PUSH2 0x24DE PUSH2 0x5B29 JUMP JUMPDEST SWAP1 PUSH1 0x0 MSTORE PUSH1 0x20 PUSH1 0x0 KECCAK256 SWAP1 PUSH1 0x4 MUL ADD PUSH1 0x1 ADD PUSH1 0x0 SWAP1 SLOAD SWAP1 PUSH2 0x100 EXP SWAP1 DIV PUSH1 0x1 PUSH1 0x1 PUSH1 0x80 SHL SUB AND PUSH1 0x9 DUP5 DUP2 SLOAD DUP2 LT PUSH2 0x2516 JUMPI PUSH2 0x2516 PUSH2 0x5B29 JUMP JUMPDEST SWAP1 PUSH1 0x0 MSTORE PUSH1 0x20 PUSH1 0x0 KECCAK256 SWAP1 PUSH1 0x4 MUL ADD PUSH1 0x1 ADD PUSH1 0x10 SWAP1 SLOAD SWAP1 PUSH2 0x100 EXP SWAP1 DIV PUSH1 0x1 PUSH1 0x1 PUSH1 0x80 SHL SUB AND PUSH1 0x9 DUP6 DUP2 SLOAD DUP2 LT PUSH2 0x254E JUMPI PUSH2 0x254E PUSH2 0x5B29 JUMP JUMPDEST SWAP1 PUSH1 0x0 MSTORE PUSH1 0x20 PUSH1 0x0 KECCAK256 SWAP1 PUSH1 0x4 MUL ADD PUSH1 0x3 ADD SLOAD PUSH1 0x40 MLOAD PUSH2 0x2570 SWAP5 SWAP4 SWAP3 SWAP2 SWAP1 PUSH2 0x5DD5 JUMP JUMPDEST PUSH1 0x40 MLOAD DUP1 SWAP2 SUB SWAP1 LOG1 POP POP POP POP POP JUMP JUMPDEST PUSH1 0x0 DUP3 DUP2 MSTORE PUSH1 0x4 PUSH1 0x20 MSTORE PUSH1 0x40 SWAP1 KECCAK256 PUSH1 0x1 ADD SLOAD PUSH2 0x259B DUP2 CALLER PUSH2 0x2ADD JUMP JUMPDEST PUSH2 0xE2A DUP4 DUP4 PUSH2 0x2B3E JUMP JUMPDEST PUSH1 0x0 PUSH2 0x25B1 DUP2 CALLER PUSH2 0x2ADD JUMP JUMPDEST PUSH2 0x45C DUP6 DUP6 DUP6 PUSH1 0x0 NOT DUP7 PUSH2 0x3F88 JUMP JUMPDEST PUSH1 0xC DUP1 SLOAD PUSH1 0x1 PUSH1 0x1 PUSH1 0xA0 SHL SUB DUP1 DUP8 AND PUSH1 0x1 PUSH1 0x1 PUSH1 0xA0 SHL SUB NOT SWAP3 DUP4 AND OR SWAP1 SWAP3 SSTORE PUSH1 0xD DUP1 SLOAD DUP7 DUP5 AND SWAP1 DUP4 AND OR SWAP1 SSTORE PUSH1 0xE DUP1 SLOAD SWAP3 DUP6 AND SWAP3 SWAP1 SWAP2 AND SWAP2 SWAP1 SWAP2 OR SWAP1 SSTORE PUSH2 0x45C PUSH2 0x22BA JUMP JUMPDEST PUSH1 0x1 PUSH1 0x1 PUSH1 0xA0 SHL SUB DUP6 AND CALLER EQ DUP1 ISZERO SWAP1 PUSH2 0x2625 JUMPI POP PUSH2 0x2623 DUP6 CALLER PUSH2 0x8C4 JUMP JUMPDEST ISZERO JUMPDEST ISZERO PUSH2 0x2643 JUMPI PUSH1 0x40 MLOAD PUSH4 0xDE69555 PUSH1 0xE3 SHL DUP2 MSTORE PUSH1 0x4 ADD PUSH1 0x40 MLOAD DUP1 SWAP2 SUB SWAP1 REVERT JUMPDEST PUSH2 0x264E ADDRESS DUP7 DUP7 PUSH2 0x45C5 JUMP JUMPDEST PUSH2 0x45C DUP6 DUP6 DUP6 DUP6 DUP6 PUSH2 0x474A JUMP JUMPDEST PUSH1 0x1 PUSH1 0x1 PUSH1 0xA0 SHL SUB DUP4 AND CALLER EQ DUP1 ISZERO SWAP1 PUSH2 0x267B JUMPI POP PUSH2 0x2679 DUP4 CALLER PUSH2 0x8C4 JUMP JUMPDEST ISZERO JUMPDEST ISZERO PUSH2 0x2699 JUMPI PUSH1 0x40 MLOAD PUSH4 0xDE69555 PUSH1 0xE3 SHL DUP2 MSTORE PUSH1 0x4 ADD PUSH1 0x40 MLOAD DUP1 SWAP2 SUB SWAP1 REVERT JUMPDEST PUSH2 0xE2A DUP4 DUP4 DUP4 PUSH2 0x4860 JUMP JUMPDEST PUSH1 0x0 DUP1 DUP4 DUP1 TIMESTAMP GT ISZERO PUSH2 0x26C8 JUMPI PUSH1 0x40 MLOAD PUSH3 0x461BCD PUSH1 0xE5 SHL DUP2 MSTORE PUSH1 0x4 ADD PUSH2 0xA48 SWAP1 PUSH2 0x5D24 JUMP JUMPDEST PUSH1 0xD SLOAD CALLER SWAP1 PUSH1 0x0 SWAP1 PUSH1 0x1 PUSH1 0x1 PUSH1 0xA0 SHL SUB DUP13 DUP2 AND SWAP2 AND EQ DUP1 ISZERO SWAP1 PUSH2 0x26F8 JUMPI POP PUSH1 0xD SLOAD PUSH1 0x1 PUSH1 0x1 PUSH1 0xA0 SHL SUB DUP12 DUP2 AND SWAP2 AND EQ JUMPDEST ISZERO PUSH2 0x277A JUMPI PUSH2 0x2707 DUP12 DUP11 PUSH2 0x43E7 JUMP JUMPDEST SWAP1 POP DUP8 DUP2 GT ISZERO PUSH2 0x273D JUMPI PUSH1 0x40 MLOAD PUSH3 0x461BCD PUSH1 0xE5 SHL DUP2 MSTORE PUSH1 0x20 PUSH1 0x4 DUP3 ADD MSTORE PUSH1 0x1 PUSH1 0x24 DUP3 ADD MSTORE PUSH1 0x4B PUSH1 0xF8 SHL PUSH1 0x44 DUP3 ADD MSTORE PUSH1 0x64 ADD PUSH2 0xA48 JUMP JUMPDEST PUSH1 0x1 DUP2 GT PUSH2 0x275D JUMPI PUSH1 0x40 MLOAD PUSH3 0x461BCD PUSH1 0xE5 SHL DUP2 MSTORE PUSH1 0x4 ADD PUSH2 0xA48 SWAP1 PUSH2 0x5D3F JUMP JUMPDEST PUSH2 0x2768 DUP12 DUP4 DUP4 PUSH2 0x2B60 JUMP JUMPDEST PUSH2 0x2775 DUP12 PUSH1 0x0 DUP12 DUP10 PUSH2 0x31F0 JUMP JUMPDEST PUSH2 0x2930 JUMP JUMPDEST PUSH1 0xD SLOAD PUSH1 0x1 PUSH1 0x1 PUSH1 0xA0 SHL SUB DUP13 DUP2 AND SWAP2 AND EQ DUP1 ISZERO PUSH2 0x27A5 JUMPI POP PUSH1 0xD SLOAD PUSH1 0x1 PUSH1 0x1 PUSH1 0xA0 SHL SUB DUP12 DUP2 AND SWAP2 AND EQ ISZERO JUMPDEST ISZERO PUSH2 0x2836 JUMPI PUSH2 0x27B4 DUP11 DUP11 PUSH2 0x44D1 JUMP JUMPDEST SWAP1 POP DUP8 DUP2 GT ISZERO PUSH2 0x27EA JUMPI PUSH1 0x40 MLOAD PUSH3 0x461BCD PUSH1 0xE5 SHL DUP2 MSTORE PUSH1 0x20 PUSH1 0x4 DUP3 ADD MSTORE PUSH1 0x1 PUSH1 0x24 DUP3 ADD MSTORE PUSH1 0x25 PUSH1 0xF9 SHL PUSH1 0x44 DUP3 ADD MSTORE PUSH1 0x64 ADD PUSH2 0xA48 JUMP JUMPDEST PUSH1 0x1 DUP2 GT PUSH2 0x281E JUMPI PUSH1 0x40 MLOAD PUSH3 0x461BCD PUSH1 0xE5 SHL DUP2 MSTORE PUSH1 0x20 PUSH1 0x4 DUP3 ADD MSTORE PUSH1 0x1 PUSH1 0x24 DUP3 ADD MSTORE PUSH1 0x55 PUSH1 0xF8 SHL PUSH1 0x44 DUP3 ADD MSTORE PUSH1 0x64 ADD PUSH2 0xA48 JUMP JUMPDEST PUSH2 0x2829 DUP12 DUP4 DUP4 PUSH2 0x2B60 JUMP JUMPDEST PUSH2 0x2775 DUP11 DUP11 PUSH1 0x0 DUP10 PUSH2 0x31F0 JUMP JUMPDEST PUSH1 0xD SLOAD PUSH1 0x1 PUSH1 0x1 PUSH1 0xA0 SHL SUB DUP13 DUP2 AND SWAP2 AND EQ DUP1 ISZERO SWAP1 PUSH2 0x2862 JUMPI POP PUSH1 0xD SLOAD PUSH1 0x1 PUSH1 0x1 PUSH1 0xA0 SHL SUB DUP12 DUP2 AND SWAP2 AND EQ ISZERO JUMPDEST ISZERO PUSH2 0x20C8 JUMPI PUSH1 0x0 PUSH2 0x2873 DUP12 DUP12 PUSH2 0x44D1 JUMP JUMPDEST SWAP1 POP PUSH1 0x1 DUP2 GT PUSH2 0x28A9 JUMPI PUSH1 0x40 MLOAD PUSH3 0x461BCD PUSH1 0xE5 SHL DUP2 MSTORE PUSH1 0x20 PUSH1 0x4 DUP3 ADD MSTORE PUSH1 0x1 PUSH1 0x24 DUP3 ADD MSTORE PUSH1 0x55 PUSH1 0xF8 SHL PUSH1 0x44 DUP3 ADD MSTORE PUSH1 0x64 ADD PUSH2 0xA48 JUMP JUMPDEST PUSH2 0x28B3 DUP13 DUP3 PUSH2 0x43E7 JUMP JUMPDEST SWAP2 POP DUP9 DUP3 GT ISZERO PUSH2 0x28E9 JUMPI PUSH1 0x40 MLOAD PUSH3 0x461BCD PUSH1 0xE5 SHL DUP2 MSTORE PUSH1 0x20 PUSH1 0x4 DUP3 ADD MSTORE PUSH1 0x1 PUSH1 0x24 DUP3 ADD MSTORE PUSH1 0x4B PUSH1 0xF8 SHL PUSH1 0x44 DUP3 ADD MSTORE PUSH1 0x64 ADD PUSH2 0xA48 JUMP JUMPDEST PUSH1 0x1 DUP3 GT PUSH2 0x2909 JUMPI PUSH1 0x40 MLOAD PUSH3 0x461BCD PUSH1 0xE5 SHL DUP2 MSTORE PUSH1 0x4 ADD PUSH2 0xA48 SWAP1 PUSH2 0x5D3F JUMP JUMPDEST PUSH2 0x2914 DUP13 DUP5 DUP5 PUSH2 0x2B60 JUMP JUMPDEST PUSH2 0x2921 DUP13 PUSH1 0x0 DUP4 ADDRESS PUSH2 0x31F0 JUMP JUMPDEST PUSH2 0x292E DUP12 DUP12 PUSH1 0x0 DUP11 PUSH2 0x31F0 JUMP JUMPDEST POP JUMPDEST SWAP11 SWAP8 SWAP10 POP SWAP7 SWAP8 POP POP POP POP POP POP POP POP JUMP JUMPDEST PUSH2 0x294A DUP3 DUP3 PUSH2 0x1A7C JUMP JUMPDEST PUSH2 0x100B JUMPI PUSH1 0x0 DUP3 DUP2 MSTORE PUSH1 0x4 PUSH1 0x20 SWAP1 DUP2 MSTORE PUSH1 0x40 DUP1 DUP4 KECCAK256 PUSH1 0x1 PUSH1 0x1 PUSH1 0xA0 SHL SUB DUP6 AND DUP5 MSTORE SWAP1 SWAP2 MSTORE SWAP1 KECCAK256 DUP1 SLOAD PUSH1 0xFF NOT AND PUSH1 0x1 OR SWAP1 SSTORE PUSH2 0x2982 CALLER SWAP1 JUMP JUMPDEST PUSH1 0x1 PUSH1 0x1 PUSH1 0xA0 SHL SUB AND DUP2 PUSH1 0x1 PUSH1 0x1 PUSH1 0xA0 SHL SUB AND DUP4 PUSH32 0x2F8788117E7EFF1D82E926EC794901D17C78024A50270940304540A733656F0D PUSH1 0x40 MLOAD PUSH1 0x40 MLOAD DUP1 SWAP2 SUB SWAP1 LOG4 POP POP JUMP JUMPDEST PUSH1 0x0 PUSH2 0x16DE DUP4 PUSH1 0x1 PUSH1 0x1 PUSH1 0xA0 SHL SUB DUP5 AND PUSH2 0x4963 JUMP JUMPDEST PUSH1 0x0 PUSH1 0x1 PUSH1 0x1 PUSH1 0xE0 SHL SUB NOT DUP3 AND PUSH4 0x5A05180F PUSH1 0xE0 SHL EQ DUP1 PUSH2 0x9B1 JUMPI POP PUSH4 0x1FFC9A7 PUSH1 0xE0 SHL PUSH1 0x1 PUSH1 0x1 PUSH1 0xE0 SHL SUB NOT DUP4 AND EQ PUSH2 0x9B1 JUMP JUMPDEST PUSH1 0xF SLOAD PUSH1 0x0 SWAP1 PUSH1 0x1 PUSH1 0x1 PUSH1 0xA0 SHL SUB DUP4 DUP2 AND SWAP2 AND EQ ISZERO PUSH2 0x2A30 JUMPI POP SELFBALANCE SWAP2 SWAP1 POP JUMP JUMPDEST PUSH1 0x40 MLOAD PUSH4 0x70A08231 PUSH1 0xE0 SHL DUP2 MSTORE ADDRESS PUSH1 0x4 DUP3 ADD MSTORE PUSH1 0x1 PUSH1 0x1 PUSH1 0xA0 SHL SUB DUP4 AND SWAP1 PUSH4 0x70A08231 SWAP1 PUSH1 0x24 ADD PUSH1 0x20 PUSH1 0x40 MLOAD DUP1 DUP4 SUB DUP2 DUP7 GAS STATICCALL ISZERO DUP1 ISZERO PUSH2 0x2A74 JUMPI RETURNDATASIZE PUSH1 0x0 DUP1 RETURNDATACOPY RETURNDATASIZE PUSH1 0x0 REVERT JUMPDEST POP POP POP POP PUSH1 0x40 MLOAD RETURNDATASIZE PUSH1 0x1F NOT PUSH1 0x1F DUP3 ADD AND DUP3 ADD DUP1 PUSH1 0x40 MSTORE POP DUP2 ADD SWAP1 PUSH2 0x9B1 SWAP2 SWAP1 PUSH2 0x5E4F JUMP JUMPDEST SWAP2 SWAP1 POP JUMP JUMPDEST PUSH1 0x1 PUSH1 0x1 PUSH1 0xA0 SHL SUB DUP4 AND ADDRESS EQ PUSH2 0xBC6 JUMPI PUSH1 0xF SLOAD PUSH1 0x1 PUSH1 0x1 PUSH1 0xA0 SHL SUB DUP6 DUP2 AND SWAP2 AND EQ ISZERO PUSH2 0x2AD2 JUMPI PUSH2 0x2ACD DUP4 DUP4 PUSH2 0x49B2 JUMP JUMPDEST PUSH2 0xBC6 JUMP JUMPDEST PUSH2 0xBC6 DUP5 DUP5 DUP5 PUSH2 0x4A40 JUMP JUMPDEST PUSH2 0x2AE7 DUP3 DUP3 PUSH2 0x1A7C JUMP JUMPDEST PUSH2 0x100B JUMPI PUSH1 0x40 MLOAD PUSH4 0x151BF58B PUSH1 0xE2 SHL DUP2 MSTORE PUSH1 0x1 PUSH1 0x1 PUSH1 0xA0 SHL SUB DUP3 AND PUSH1 0x4 DUP3 ADD MSTORE PUSH1 0x24 DUP2 ADD DUP4 SWAP1 MSTORE PUSH1 0x44 ADD PUSH2 0xA48 JUMP JUMPDEST PUSH2 0x100B DUP3 DUP3 JUMPDEST PUSH2 0x2B26 DUP3 DUP3 PUSH2 0x2940 JUMP JUMPDEST PUSH1 0x0 DUP3 DUP2 MSTORE PUSH1 0x5 PUSH1 0x20 MSTORE PUSH1 0x40 SWAP1 KECCAK256 PUSH2 0xE2A SWAP1 DUP3 PUSH2 0x29C6 JUMP JUMPDEST PUSH2 0x2B48 DUP3 DUP3 PUSH2 0x4B25 JUMP JUMPDEST PUSH1 0x0 DUP3 DUP2 MSTORE PUSH1 0x5 PUSH1 0x20 MSTORE PUSH1 0x40 SWAP1 KECCAK256 PUSH2 0xE2A SWAP1 DUP3 PUSH2 0x4B8C JUMP JUMPDEST PUSH1 0xF SLOAD PUSH1 0x1 PUSH1 0x1 PUSH1 0xA0 SHL SUB DUP5 DUP2 AND SWAP2 AND EQ PUSH2 0x2BC3 JUMPI CALLVALUE ISZERO PUSH2 0x2BA7 JUMPI PUSH1 0x40 MLOAD PUSH3 0x461BCD PUSH1 0xE5 SHL DUP2 MSTORE PUSH1 0x20 PUSH1 0x4 DUP3 ADD MSTORE PUSH1 0x1 PUSH1 0x24 DUP3 ADD MSTORE PUSH1 0x47 PUSH1 0xF8 SHL PUSH1 0x44 DUP3 ADD MSTORE PUSH1 0x64 ADD PUSH2 0xA48 JUMP JUMPDEST PUSH1 0x1 PUSH1 0x1 PUSH1 0xA0 SHL SUB DUP3 AND ADDRESS EQ PUSH2 0xE2A JUMPI PUSH2 0xE2A DUP4 DUP4 ADDRESS DUP5 PUSH2 0x4BA1 JUMP JUMPDEST PUSH1 0xF SLOAD PUSH1 0x1 PUSH1 0x1 PUSH1 0xA0 SHL SUB DUP5 DUP2 AND SWAP2 AND EQ ISZERO PUSH2 0xE2A JUMPI DUP1 CALLVALUE LT ISZERO PUSH2 0x2BFA JUMPI PUSH1 0x40 MLOAD PUSH4 0xAC50B70D PUSH1 0xE0 SHL DUP2 MSTORE PUSH1 0x4 ADD PUSH1 0x40 MLOAD DUP1 SWAP2 SUB SWAP1 REVERT JUMPDEST DUP1 CALLVALUE GT ISZERO PUSH2 0xE2A JUMPI PUSH1 0xF SLOAD PUSH2 0xE2A SWAP1 PUSH1 0x1 PUSH1 0x1 PUSH1 0xA0 SHL SUB AND CALLER PUSH2 0x2C1D DUP5 CALLVALUE PUSH2 0x5B55 JUMP JUMPDEST PUSH1 0x0 PUSH2 0x2A9D JUMP JUMPDEST PUSH1 0x0 PUSH1 0x3 DUP3 GT ISZERO PUSH2 0x2C85 JUMPI POP DUP1 PUSH1 0x0 PUSH2 0x2C3E PUSH1 0x2 DUP4 PUSH2 0x5D70 JUMP JUMPDEST PUSH2 0x2C49 SWAP1 PUSH1 0x1 PUSH2 0x5D0C JUMP JUMPDEST SWAP1 POP JUMPDEST DUP2 DUP2 LT ISZERO PUSH2 0x2C7F JUMPI SWAP1 POP DUP1 PUSH1 0x2 DUP2 PUSH2 0x2C64 DUP2 DUP7 PUSH2 0x5D70 JUMP JUMPDEST PUSH2 0x2C6E SWAP2 SWAP1 PUSH2 0x5D0C JUMP JUMPDEST PUSH2 0x2C78 SWAP2 SWAP1 PUSH2 0x5D70 JUMP JUMPDEST SWAP1 POP PUSH2 0x2C4C JUMP JUMPDEST POP SWAP2 SWAP1 POP JUMP JUMPDEST DUP2 ISZERO PUSH2 0x2A98 JUMPI POP PUSH1 0x1 SWAP2 SWAP1 POP JUMP JUMPDEST PUSH1 0x11 SLOAD PUSH1 0x0 SWAP1 DUP2 SWAP1 DUP6 DUP6 GT DUP1 ISZERO PUSH2 0x2CAA JUMPI POP PUSH1 0x0 DUP7 GT JUMPDEST DUP1 ISZERO PUSH2 0x2CB6 JUMPI POP PUSH1 0x0 DUP2 GT JUMPDEST ISZERO PUSH2 0x2D0F JUMPI PUSH2 0x2CC5 DUP2 DUP8 PUSH2 0x5BD9 JUMP JUMPDEST PUSH2 0x2CD0 DUP3 PUSH1 0x64 PUSH2 0x5B55 JUMP JUMPDEST PUSH2 0x2CDA SWAP1 DUP8 PUSH2 0x5BD9 JUMP JUMPDEST PUSH2 0x2CE4 SWAP2 SWAP1 PUSH2 0x5D0C JUMP JUMPDEST PUSH2 0x2CEE DUP8 DUP8 PUSH2 0x5B55 JUMP JUMPDEST PUSH2 0x2CF8 DUP4 DUP8 PUSH2 0x5BD9 JUMP JUMPDEST PUSH2 0x2D02 SWAP2 SWAP1 PUSH2 0x5BD9 JUMP JUMPDEST PUSH2 0x2D0C SWAP2 SWAP1 PUSH2 0x5D70 JUMP JUMPDEST SWAP2 POP JUMPDEST POP SWAP5 SWAP4 POP POP POP POP JUMP JUMPDEST PUSH1 0x1 PUSH1 0x1 PUSH1 0xA0 SHL SUB DUP5 AND PUSH2 0x2D3F JUMPI PUSH1 0x40 MLOAD PUSH4 0x3E11866B PUSH1 0xE2 SHL DUP2 MSTORE PUSH1 0x4 ADD PUSH1 0x40 MLOAD DUP1 SWAP2 SUB SWAP1 REVERT JUMPDEST CALLER PUSH2 0x2D5F DUP2 PUSH1 0x0 DUP8 PUSH2 0x2D50 DUP9 PUSH2 0x4C96 JUMP JUMPDEST PUSH2 0x2D59 DUP9 PUSH2 0x4C96 JUMP JUMPDEST DUP8 PUSH2 0x4CE1 JUMP JUMPDEST PUSH1 0x0 DUP5 DUP2 MSTORE PUSH1 0x20 DUP2 DUP2 MSTORE PUSH1 0x40 DUP1 DUP4 KECCAK256 PUSH1 0x1 PUSH1 0x1 PUSH1 0xA0 SHL SUB DUP10 AND DUP5 MSTORE SWAP1 SWAP2 MSTORE DUP2 KECCAK256 DUP1 SLOAD DUP6 SWAP3 SWAP1 PUSH2 0x2D8F SWAP1 DUP5 SWAP1 PUSH2 0x5D0C JUMP JUMPDEST SWAP1 SWAP2 SSTORE POP POP PUSH1 0x40 DUP1 MLOAD DUP6 DUP2 MSTORE PUSH1 0x20 DUP2 ADD DUP6 SWAP1 MSTORE PUSH1 0x1 PUSH1 0x1 PUSH1 0xA0 SHL SUB DUP1 DUP9 AND SWAP3 PUSH1 0x0 SWAP3 SWAP2 DUP6 AND SWAP2 PUSH32 0xC3D58168C5AE7397731D063D5BBF3D657854427343F4C083240F7AACAA2D0F62 SWAP2 ADD PUSH1 0x40 MLOAD DUP1 SWAP2 SUB SWAP1 LOG4 PUSH2 0x45C DUP2 PUSH1 0x0 DUP8 DUP8 DUP8 DUP8 PUSH2 0x4DED JUMP JUMPDEST PUSH1 0x1 PUSH1 0x1 PUSH1 0xA0 SHL SUB DUP3 AND PUSH1 0x0 SWAP1 DUP2 MSTORE PUSH1 0xA PUSH1 0x20 MSTORE PUSH1 0x40 DUP2 KECCAK256 SLOAD DUP4 SWAP1 ISZERO DUP1 PUSH2 0x2E23 JUMPI POP PUSH1 0xD SLOAD PUSH1 0x1 PUSH1 0x1 PUSH1 0xA0 SHL SUB DUP3 DUP2 AND SWAP2 AND EQ JUMPDEST ISZERO PUSH2 0x2E40 JUMPI PUSH1 0x40 MLOAD PUSH3 0x461BCD PUSH1 0xE5 SHL DUP2 MSTORE PUSH1 0x4 ADD PUSH2 0xA48 SWAP1 PUSH2 0x5B0E JUMP JUMPDEST PUSH1 0x1 PUSH1 0x1 PUSH1 0xA0 SHL SUB DUP5 AND PUSH1 0x0 SWAP1 DUP2 MSTORE PUSH1 0xA PUSH1 0x20 MSTORE PUSH1 0x40 SWAP1 KECCAK256 SLOAD PUSH1 0x9 DUP1 SLOAD PUSH2 0x2ED9 SWAP2 DUP7 SWAP2 DUP5 SWAP1 DUP2 LT PUSH2 0x2E73 JUMPI PUSH2 0x2E73 PUSH2 0x5B29 JUMP JUMPDEST PUSH1 0x0 SWAP2 DUP3 MSTORE PUSH1 0x20 SWAP1 SWAP2 KECCAK256 PUSH1 0x1 PUSH1 0x4 SWAP1 SWAP3 MUL ADD ADD SLOAD PUSH1 0x9 DUP1 SLOAD PUSH1 0x1 PUSH1 0x1 PUSH1 0x80 SHL SUB SWAP1 SWAP3 AND SWAP2 DUP6 SWAP1 DUP2 LT PUSH2 0x2EA7 JUMPI PUSH2 0x2EA7 PUSH2 0x5B29 JUMP JUMPDEST PUSH1 0x0 SWAP2 DUP3 MSTORE PUSH1 0x20 SWAP1 SWAP2 KECCAK256 PUSH1 0x4 SWAP1 SWAP2 MUL ADD PUSH1 0x1 ADD SLOAD PUSH1 0x1 PUSH1 0x80 SHL SWAP1 DIV PUSH1 0x1 PUSH1 0x1 PUSH1 0x80 SHL SUB AND PUSH2 0x2ED4 DUP6 PUSH2 0x2FCC JUMP JUMPDEST PUSH2 0x4EB1 JUMP JUMPDEST SWAP6 SWAP5 POP POP POP POP POP JUMP JUMPDEST PUSH1 0x1 PUSH1 0x1 PUSH1 0xA0 SHL SUB DUP3 AND PUSH1 0x0 SWAP1 DUP2 MSTORE PUSH1 0xA PUSH1 0x20 MSTORE PUSH1 0x40 DUP2 KECCAK256 SLOAD DUP4 SWAP1 ISZERO DUP1 PUSH2 0x2F16 JUMPI POP PUSH1 0xD SLOAD PUSH1 0x1 PUSH1 0x1 PUSH1 0xA0 SHL SUB DUP3 DUP2 AND SWAP2 AND EQ JUMPDEST ISZERO PUSH2 0x2F33 JUMPI PUSH1 0x40 MLOAD PUSH3 0x461BCD PUSH1 0xE5 SHL DUP2 MSTORE PUSH1 0x4 ADD PUSH2 0xA48 SWAP1 PUSH2 0x5B0E JUMP JUMPDEST PUSH1 0x1 PUSH1 0x1 PUSH1 0xA0 SHL SUB DUP5 AND PUSH1 0x0 SWAP1 DUP2 MSTORE PUSH1 0xA PUSH1 0x20 MSTORE PUSH1 0x40 SWAP1 KECCAK256 SLOAD PUSH1 0x9 DUP1 SLOAD PUSH2 0x2ED9 SWAP2 DUP7 SWAP2 DUP5 SWAP1 DUP2 LT PUSH2 0x2F66 JUMPI PUSH2 0x2F66 PUSH2 0x5B29 JUMP JUMPDEST SWAP1 PUSH1 0x0 MSTORE PUSH1 0x20 PUSH1 0x0 KECCAK256 SWAP1 PUSH1 0x4 MUL ADD PUSH1 0x1 ADD PUSH1 0x10 SWAP1 SLOAD SWAP1 PUSH2 0x100 EXP SWAP1 DIV PUSH1 0x1 PUSH1 0x1 PUSH1 0x80 SHL SUB AND PUSH1 0x1 PUSH1 0x1 PUSH1 0x80 SHL SUB AND PUSH1 0x9 DUP5 DUP2 SLOAD DUP2 LT PUSH2 0x2FA7 JUMPI PUSH2 0x2FA7 PUSH2 0x5B29 JUMP JUMPDEST PUSH1 0x0 SWAP2 DUP3 MSTORE PUSH1 0x20 SWAP1 SWAP2 KECCAK256 PUSH1 0x1 PUSH1 0x4 SWAP1 SWAP3 MUL ADD ADD SLOAD PUSH1 0x1 PUSH1 0x1 PUSH1 0x80 SHL SUB AND PUSH2 0x2710 PUSH2 0x4EB1 JUMP JUMPDEST PUSH1 0x0 DUP1 PUSH2 0x2FD7 PUSH2 0x4EED JUMP JUMPDEST SWAP1 POP PUSH1 0x0 PUSH1 0x8 PUSH2 0x2FE8 DUP4 PUSH1 0x1 PUSH2 0x5D0C JUMP JUMPDEST PUSH2 0x2FF2 SWAP2 SWAP1 PUSH2 0x5E68 JUMP JUMPDEST SWAP1 POP PUSH1 0x0 DUP1 JUMPDEST PUSH1 0x8 DUP2 LT ISZERO PUSH2 0x308F JUMPI DUP4 DUP2 EQ DUP1 PUSH2 0x300E JUMPI POP DUP3 DUP2 EQ JUMPDEST ISZERO PUSH2 0x3018 JUMPI PUSH2 0x307D JUMP JUMPDEST PUSH1 0x9 DUP7 DUP2 SLOAD DUP2 LT PUSH2 0x302B JUMPI PUSH2 0x302B PUSH2 0x5B29 JUMP JUMPDEST SWAP1 PUSH1 0x0 MSTORE PUSH1 0x20 PUSH1 0x0 KECCAK256 SWAP1 PUSH1 0x4 MUL ADD PUSH1 0x0 ADD DUP2 PUSH1 0x8 DUP2 LT PUSH2 0x304D JUMPI PUSH2 0x304D PUSH2 0x5B29 JUMP JUMPDEST PUSH1 0x8 SWAP2 DUP3 DUP3 DIV ADD SWAP2 SWAP1 MOD PUSH1 0x4 MUL SWAP1 SLOAD SWAP1 PUSH2 0x100 EXP SWAP1 DIV PUSH4 0xFFFFFFFF AND PUSH4 0xFFFFFFFF AND DUP3 PUSH2 0x307A SWAP2 SWAP1 PUSH2 0x5D0C JUMP JUMPDEST SWAP2 POP JUMPDEST DUP1 PUSH2 0x3087 DUP2 PUSH2 0x5B6C JUMP JUMPDEST SWAP2 POP POP PUSH2 0x2FF8 JUMP JUMPDEST POP PUSH2 0x30A2 PUSH8 0x8AC7230489E80000 DUP3 PUSH2 0x5BD9 JUMP JUMPDEST SWAP1 POP PUSH1 0x0 PUSH5 0x2540BE400 PUSH1 0x10 PUSH1 0x4 ADD SLOAD PUSH1 0x9 DUP9 DUP2 SLOAD DUP2 LT PUSH2 0x30C5 JUMPI PUSH2 0x30C5 PUSH2 0x5B29 JUMP JUMPDEST PUSH1 0x0 SWAP2 DUP3 MSTORE PUSH1 0x20 SWAP1 SWAP2 KECCAK256 PUSH1 0x4 SWAP1 SWAP2 MUL ADD PUSH1 0x1 ADD SLOAD PUSH2 0x30F3 SWAP2 SWAP1 PUSH1 0x1 PUSH1 0x80 SHL SWAP1 DIV PUSH1 0x1 PUSH1 0x1 PUSH1 0x80 SHL SUB AND PUSH2 0x5BD9 JUMP JUMPDEST PUSH2 0x30FD SWAP2 SWAP1 PUSH2 0x5D70 JUMP JUMPDEST SWAP1 POP PUSH1 0x0 PUSH5 0x2540BE400 PUSH1 0x10 PUSH1 0x5 ADD SLOAD PUSH1 0x9 DUP10 DUP2 SLOAD DUP2 LT PUSH2 0x3120 JUMPI PUSH2 0x3120 PUSH2 0x5B29 JUMP JUMPDEST PUSH1 0x0 SWAP2 DUP3 MSTORE PUSH1 0x20 SWAP1 SWAP2 KECCAK256 PUSH1 0x4 SWAP1 SWAP2 MUL ADD PUSH1 0x1 ADD SLOAD PUSH2 0x314E SWAP2 SWAP1 PUSH1 0x1 PUSH1 0x80 SHL SWAP1 DIV PUSH1 0x1 PUSH1 0x1 PUSH1 0x80 SHL SUB AND PUSH2 0x5BD9 JUMP JUMPDEST PUSH2 0x3158 SWAP2 SWAP1 PUSH2 0x5D70 JUMP JUMPDEST SWAP1 POP PUSH1 0x0 DUP3 DUP5 GT PUSH2 0x316C JUMPI POP PUSH1 0x13 SLOAD PUSH2 0x31D8 JUMP JUMPDEST DUP4 DUP4 LT DUP1 ISZERO PUSH2 0x317A JUMPI POP DUP2 DUP5 LT JUMPDEST ISZERO PUSH2 0x31CB JUMPI PUSH2 0x3189 DUP4 DUP4 PUSH2 0x5B55 JUMP JUMPDEST PUSH1 0x12 SLOAD PUSH1 0x13 SLOAD PUSH2 0x3199 SWAP2 SWAP1 PUSH2 0x5B55 JUMP JUMPDEST PUSH2 0x31A3 DUP6 DUP8 PUSH2 0x5B55 JUMP JUMPDEST PUSH2 0x31AD SWAP2 SWAP1 PUSH2 0x5BD9 JUMP JUMPDEST PUSH2 0x31B7 SWAP2 SWAP1 PUSH2 0x5D70 JUMP JUMPDEST PUSH1 0x13 SLOAD PUSH2 0x31C4 SWAP2 SWAP1 PUSH2 0x5B55 JUMP JUMPDEST SWAP1 POP PUSH2 0x31D8 JUMP JUMPDEST DUP2 DUP5 GT ISZERO PUSH2 0x31D8 JUMPI POP PUSH1 0x12 SLOAD JUMPDEST PUSH2 0x31E4 DUP2 PUSH2 0x2710 PUSH2 0x5B55 JUMP JUMPDEST SWAP9 SWAP8 POP POP POP POP POP POP POP POP JUMP JUMPDEST PUSH1 0x1 PUSH1 0x1 PUSH1 0xA0 SHL SUB DUP5 AND PUSH1 0x0 SWAP1 DUP2 MSTORE PUSH1 0xA PUSH1 0x20 MSTORE PUSH1 0x40 SWAP1 KECCAK256 SLOAD DUP5 SWAP1 ISZERO DUP1 PUSH2 0x3224 JUMPI POP PUSH1 0xD SLOAD PUSH1 0x1 PUSH1 0x1 PUSH1 0xA0 SHL SUB DUP3 DUP2 AND SWAP2 AND EQ JUMPDEST ISZERO PUSH2 0x3241 JUMPI PUSH1 0x40 MLOAD PUSH3 0x461BCD PUSH1 0xE5 SHL DUP2 MSTORE PUSH1 0x4 ADD PUSH2 0xA48 SWAP1 PUSH2 0x5B0E JUMP JUMPDEST PUSH1 0x1 PUSH1 0x1 PUSH1 0xA0 SHL SUB DUP1 DUP7 AND PUSH1 0x0 SWAP1 DUP2 MSTORE PUSH1 0xA PUSH1 0x20 MSTORE PUSH1 0x40 DUP2 KECCAK256 SLOAD PUSH1 0xB SLOAD PUSH1 0xD SLOAD SWAP2 SWAP4 SWAP1 SWAP2 PUSH2 0x326F SWAP2 AND PUSH2 0x2A10 JUMP JUMPDEST PUSH2 0x3279 SWAP2 SWAP1 PUSH2 0x5B55 JUMP JUMPDEST SWAP1 POP PUSH1 0x0 PUSH1 0x9 DUP4 DUP2 SLOAD DUP2 LT PUSH2 0x3290 JUMPI PUSH2 0x3290 PUSH2 0x5B29 JUMP JUMPDEST PUSH1 0x0 SWAP2 DUP3 MSTORE PUSH1 0x20 SWAP1 SWAP2 KECCAK256 PUSH1 0x1 PUSH1 0x4 SWAP1 SWAP3 MUL ADD ADD SLOAD PUSH1 0x1 PUSH1 0x1 PUSH1 0x80 SHL SUB AND PUSH2 0x32B6 DUP10 PUSH2 0x2A10 JUMP JUMPDEST PUSH2 0x32C0 SWAP2 SWAP1 PUSH2 0x5B55 JUMP JUMPDEST SWAP1 POP PUSH1 0x1 PUSH2 0x32CE DUP4 DUP4 PUSH2 0x5D0C JUMP JUMPDEST GT PUSH2 0x32FF JUMPI PUSH1 0x40 MLOAD PUSH3 0x461BCD PUSH1 0xE5 SHL DUP2 MSTORE PUSH1 0x20 PUSH1 0x4 DUP3 ADD MSTORE PUSH1 0x1 PUSH1 0x24 DUP3 ADD MSTORE PUSH1 0x19 PUSH1 0xF9 SHL PUSH1 0x44 DUP3 ADD MSTORE PUSH1 0x64 ADD PUSH2 0xA48 JUMP JUMPDEST PUSH1 0x0 PUSH1 0x1 DUP4 GT DUP1 ISZERO PUSH2 0x3312 JUMPI POP PUSH1 0x1 DUP3 GT ISZERO JUMPDEST PUSH2 0x3324 JUMPI PUSH2 0x331F DUP5 PUSH2 0x2FCC JUMP JUMPDEST PUSH2 0x3328 JUMP JUMPDEST PUSH2 0x2710 JUMPDEST SWAP1 POP PUSH1 0x0 NOT PUSH1 0x9 DUP6 DUP2 SLOAD DUP2 LT PUSH2 0x3340 JUMPI PUSH2 0x3340 PUSH2 0x5B29 JUMP JUMPDEST SWAP1 PUSH1 0x0 MSTORE PUSH1 0x20 PUSH1 0x0 KECCAK256 SWAP1 PUSH1 0x4 MUL ADD PUSH1 0x3 ADD SLOAD LT DUP1 ISZERO PUSH2 0x338D JUMPI POP DUP7 DUP4 PUSH1 0x9 DUP7 DUP2 SLOAD DUP2 LT PUSH2 0x336F JUMPI PUSH2 0x336F PUSH2 0x5B29 JUMP JUMPDEST SWAP1 PUSH1 0x0 MSTORE PUSH1 0x20 PUSH1 0x0 KECCAK256 SWAP1 PUSH1 0x4 MUL ADD PUSH1 0x3 ADD SLOAD PUSH2 0x338B SWAP2 SWAP1 PUSH2 0x5D0C JUMP JUMPDEST LT JUMPDEST ISZERO PUSH2 0x33BE JUMPI PUSH1 0x40 MLOAD PUSH3 0x461BCD PUSH1 0xE5 SHL DUP2 MSTORE PUSH1 0x20 PUSH1 0x4 DUP3 ADD MSTORE PUSH1 0x1 PUSH1 0x24 DUP3 ADD MSTORE PUSH1 0x2D PUSH1 0xF9 SHL PUSH1 0x44 DUP3 ADD MSTORE PUSH1 0x64 ADD PUSH2 0xA48 JUMP JUMPDEST PUSH1 0x0 PUSH2 0x2710 PUSH1 0x9 DUP7 DUP2 SLOAD DUP2 LT PUSH2 0x33D6 JUMPI PUSH2 0x33D6 PUSH2 0x5B29 JUMP JUMPDEST SWAP1 PUSH1 0x0 MSTORE PUSH1 0x20 PUSH1 0x0 KECCAK256 SWAP1 PUSH1 0x4 MUL ADD PUSH1 0x1 ADD PUSH1 0x0 SWAP1 SLOAD SWAP1 PUSH2 0x100 EXP SWAP1 DIV PUSH1 0x1 PUSH1 0x1 PUSH1 0x80 SHL SUB AND PUSH1 0x1 PUSH1 0x1 PUSH1 0x80 SHL SUB AND PUSH2 0x2710 PUSH1 0x9 DUP9 DUP2 SLOAD DUP2 LT PUSH2 0x341A JUMPI PUSH2 0x341A PUSH2 0x5B29 JUMP JUMPDEST PUSH1 0x0 SWAP2 DUP3 MSTORE PUSH1 0x20 SWAP1 SWAP2 KECCAK256 PUSH1 0x4 SWAP1 SWAP2 MUL ADD PUSH1 0x1 ADD SLOAD PUSH2 0x3448 SWAP2 SWAP1 PUSH1 0x1 PUSH1 0x80 SHL SWAP1 DIV PUSH1 0x1 PUSH1 0x1 PUSH1 0x80 SHL SUB AND PUSH2 0x5BD9 JUMP JUMPDEST PUSH2 0x3452 SWAP2 SWAP1 PUSH2 0x5BD9 JUMP JUMPDEST PUSH2 0x345C SWAP2 SWAP1 PUSH2 0x5BD9 JUMP JUMPDEST SWAP1 POP PUSH1 0x0 DUP9 DUP6 PUSH1 0xB SLOAD PUSH2 0x346F SWAP2 SWAP1 PUSH2 0x5D0C JUMP JUMPDEST PUSH2 0x3479 SWAP2 SWAP1 PUSH2 0x5B55 JUMP JUMPDEST SWAP1 POP PUSH1 0x0 DUP10 DUP7 PUSH1 0x9 DUP10 DUP2 SLOAD DUP2 LT PUSH2 0x3492 JUMPI PUSH2 0x3492 PUSH2 0x5B29 JUMP JUMPDEST PUSH1 0x0 SWAP2 DUP3 MSTORE PUSH1 0x20 SWAP1 SWAP2 KECCAK256 PUSH1 0x4 SWAP1 SWAP2 MUL ADD PUSH1 0x1 ADD SLOAD PUSH2 0x34C0 SWAP2 SWAP1 PUSH1 0x1 PUSH1 0x80 SHL SWAP1 DIV PUSH1 0x1 PUSH1 0x1 PUSH1 0x80 SHL SUB AND PUSH2 0x5D0C JUMP JUMPDEST PUSH2 0x34CA SWAP2 SWAP1 PUSH2 0x5B55 JUMP JUMPDEST SWAP1 POP PUSH1 0x0 DUP12 DUP7 PUSH1 0x9 DUP11 DUP2 SLOAD DUP2 LT PUSH2 0x34E3 JUMPI PUSH2 0x34E3 PUSH2 0x5B29 JUMP JUMPDEST PUSH1 0x0 SWAP2 DUP3 MSTORE PUSH1 0x20 SWAP1 SWAP2 KECCAK256 PUSH1 0x1 PUSH1 0x4 SWAP1 SWAP3 MUL ADD ADD SLOAD PUSH2 0x350A SWAP2 SWAP1 PUSH1 0x1 PUSH1 0x1 PUSH1 0x80 SHL SUB AND PUSH2 0x5D0C JUMP JUMPDEST PUSH2 0x3514 SWAP2 SWAP1 PUSH2 0x5B55 JUMP JUMPDEST SWAP1 POP PUSH1 0x0 PUSH2 0x3524 DUP7 PUSH2 0x2710 PUSH2 0x5B55 JUMP JUMPDEST PUSH2 0x352E SWAP1 DUP9 PUSH2 0x5BD9 JUMP JUMPDEST PUSH2 0x353A PUSH2 0x2710 DUP5 PUSH2 0x5BD9 JUMP JUMPDEST PUSH2 0x3544 SWAP2 SWAP1 PUSH2 0x5B55 JUMP JUMPDEST PUSH2 0x3550 DUP8 PUSH2 0x2710 PUSH2 0x5B55 JUMP JUMPDEST PUSH2 0x355A SWAP1 DUP11 PUSH2 0x5BD9 JUMP JUMPDEST PUSH2 0x3566 PUSH2 0x2710 DUP7 PUSH2 0x5BD9 JUMP JUMPDEST PUSH2 0x3570 SWAP2 SWAP1 PUSH2 0x5B55 JUMP JUMPDEST PUSH2 0x357A SWAP2 SWAP1 PUSH2 0x5BD9 JUMP JUMPDEST SWAP1 POP DUP5 DUP2 LT ISZERO PUSH2 0x35B0 JUMPI PUSH1 0x40 MLOAD PUSH3 0x461BCD PUSH1 0xE5 SHL DUP2 MSTORE PUSH1 0x20 PUSH1 0x4 DUP3 ADD MSTORE PUSH1 0x1 PUSH1 0x24 DUP3 ADD MSTORE PUSH1 0x31 PUSH1 0xF8 SHL PUSH1 0x44 DUP3 ADD MSTORE PUSH1 0x64 ADD PUSH2 0xA48 JUMP JUMPDEST DUP4 PUSH1 0xB DUP2 SWAP1 SSTORE POP DUP3 PUSH1 0x9 DUP11 DUP2 SLOAD DUP2 LT PUSH2 0x35CB JUMPI PUSH2 0x35CB PUSH2 0x5B29 JUMP JUMPDEST SWAP1 PUSH1 0x0 MSTORE PUSH1 0x20 PUSH1 0x0 KECCAK256 SWAP1 PUSH1 0x4 MUL ADD PUSH1 0x1 ADD PUSH1 0x10 PUSH2 0x100 EXP DUP2 SLOAD DUP2 PUSH1 0x1 PUSH1 0x1 PUSH1 0x80 SHL SUB MUL NOT AND SWAP1 DUP4 PUSH1 0x1 PUSH1 0x1 PUSH1 0x80 SHL SUB AND MUL OR SWAP1 SSTORE POP DUP2 PUSH1 0x9 DUP11 DUP2 SLOAD DUP2 LT PUSH2 0x3614 JUMPI PUSH2 0x3614 PUSH2 0x5B29 JUMP JUMPDEST SWAP1 PUSH1 0x0 MSTORE PUSH1 0x20 PUSH1 0x0 KECCAK256 SWAP1 PUSH1 0x4 MUL ADD PUSH1 0x1 ADD PUSH1 0x0 PUSH2 0x100 EXP DUP2 SLOAD DUP2 PUSH1 0x1 PUSH1 0x1 PUSH1 0x80 SHL SUB MUL NOT AND SWAP1 DUP4 PUSH1 0x1 PUSH1 0x1 PUSH1 0x80 SHL SUB AND MUL OR SWAP1 SSTORE POP PUSH1 0x0 NOT PUSH1 0x9 DUP11 DUP2 SLOAD DUP2 LT PUSH2 0x365F JUMPI PUSH2 0x365F PUSH2 0x5B29 JUMP JUMPDEST SWAP1 PUSH1 0x0 MSTORE PUSH1 0x20 PUSH1 0x0 KECCAK256 SWAP1 PUSH1 0x4 MUL ADD PUSH1 0x3 ADD SLOAD LT ISZERO PUSH2 0x36DB JUMPI DUP12 DUP9 PUSH1 0x9 DUP12 DUP2 SLOAD DUP2 LT PUSH2 0x368C JUMPI PUSH2 0x368C PUSH2 0x5B29 JUMP JUMPDEST SWAP1 PUSH1 0x0 MSTORE PUSH1 0x20 PUSH1 0x0 KECCAK256 SWAP1 PUSH1 0x4 MUL ADD PUSH1 0x3 ADD SLOAD PUSH2 0x36A8 SWAP2 SWAP1 PUSH2 0x5D0C JUMP JUMPDEST PUSH2 0x36B2 SWAP2 SWAP1 PUSH2 0x5B55 JUMP JUMPDEST PUSH1 0x9 DUP11 DUP2 SLOAD DUP2 LT PUSH2 0x36C5 JUMPI PUSH2 0x36C5 PUSH2 0x5B29 JUMP JUMPDEST SWAP1 PUSH1 0x0 MSTORE PUSH1 0x20 PUSH1 0x0 KECCAK256 SWAP1 PUSH1 0x4 MUL ADD PUSH1 0x3 ADD DUP2 SWAP1 SSTORE POP JUMPDEST POP POP POP POP POP PUSH1 0x0 PUSH2 0x36EA PUSH2 0x4EED JUMP JUMPDEST SWAP1 POP PUSH1 0x0 PUSH1 0x8 PUSH2 0x36F8 PUSH2 0x4EED JUMP JUMPDEST PUSH2 0x3703 SWAP1 PUSH1 0x1 PUSH2 0x5D0C JUMP JUMPDEST PUSH2 0x370D SWAP2 SWAP1 PUSH2 0x5E68 JUMP JUMPDEST SWAP1 POP PUSH8 0x8AC7230489E80000 DUP10 GT ISZERO PUSH2 0x380D JUMPI PUSH1 0x0 PUSH2 0x3733 PUSH8 0x8AC7230489E80000 DUP12 PUSH2 0x5D70 JUMP JUMPDEST PUSH1 0x9 DUP9 DUP2 SLOAD DUP2 LT PUSH2 0x3746 JUMPI PUSH2 0x3746 PUSH2 0x5B29 JUMP JUMPDEST SWAP1 PUSH1 0x0 MSTORE PUSH1 0x20 PUSH1 0x0 KECCAK256 SWAP1 PUSH1 0x4 MUL ADD PUSH1 0x0 ADD DUP5 PUSH1 0x8 DUP2 LT PUSH2 0x3768 JUMPI PUSH2 0x3768 PUSH2 0x5B29 JUMP JUMPDEST PUSH1 0x8 SWAP2 DUP3 DUP3 DIV ADD SWAP2 SWAP1 MOD PUSH1 0x4 MUL SWAP1 SLOAD SWAP1 PUSH2 0x100 EXP SWAP1 DIV PUSH4 0xFFFFFFFF AND PUSH4 0xFFFFFFFF AND PUSH2 0x3794 SWAP2 SWAP1 PUSH2 0x5D0C JUMP JUMPDEST SWAP1 POP PUSH4 0xFFFFFFFF DUP2 LT PUSH2 0x37AB JUMPI PUSH4 0xFFFFFFFF PUSH2 0x37AD JUMP JUMPDEST DUP1 JUMPDEST PUSH1 0x9 DUP9 DUP2 SLOAD DUP2 LT PUSH2 0x37C0 JUMPI PUSH2 0x37C0 PUSH2 0x5B29 JUMP JUMPDEST SWAP1 PUSH1 0x0 MSTORE PUSH1 0x20 PUSH1 0x0 KECCAK256 SWAP1 PUSH1 0x4 MUL ADD PUSH1 0x0 ADD DUP5 PUSH1 0x8 DUP2 LT PUSH2 0x37E2 JUMPI PUSH2 0x37E2 PUSH2 0x5B29 JUMP JUMPDEST PUSH1 0x8 SWAP2 DUP3 DUP3 DIV ADD SWAP2 SWAP1 MOD PUSH1 0x4 MUL PUSH2 0x100 EXP DUP2 SLOAD DUP2 PUSH4 0xFFFFFFFF MUL NOT AND SWAP1 DUP4 PUSH4 0xFFFFFFFF AND MUL OR SWAP1 SSTORE POP POP JUMPDEST PUSH1 0x1 PUSH1 0x9 DUP8 DUP2 SLOAD DUP2 LT PUSH2 0x3822 JUMPI PUSH2 0x3822 PUSH2 0x5B29 JUMP JUMPDEST SWAP1 PUSH1 0x0 MSTORE PUSH1 0x20 PUSH1 0x0 KECCAK256 SWAP1 PUSH1 0x4 MUL ADD PUSH1 0x0 ADD DUP3 PUSH1 0x8 DUP2 LT PUSH2 0x3844 JUMPI PUSH2 0x3844 PUSH2 0x5B29 JUMP JUMPDEST PUSH1 0x8 SWAP2 DUP3 DUP3 DIV ADD SWAP2 SWAP1 MOD PUSH1 0x4 MUL SWAP1 SLOAD SWAP1 PUSH2 0x100 EXP SWAP1 DIV PUSH4 0xFFFFFFFF AND PUSH4 0xFFFFFFFF AND GT ISZERO PUSH2 0x38CD JUMPI PUSH1 0x1 PUSH1 0x9 DUP8 DUP2 SLOAD DUP2 LT PUSH2 0x3881 JUMPI PUSH2 0x3881 PUSH2 0x5B29 JUMP JUMPDEST SWAP1 PUSH1 0x0 MSTORE PUSH1 0x20 PUSH1 0x0 KECCAK256 SWAP1 PUSH1 0x4 MUL ADD PUSH1 0x0 ADD DUP3 PUSH1 0x8 DUP2 LT PUSH2 0x38A3 JUMPI PUSH2 0x38A3 PUSH2 0x5B29 JUMP JUMPDEST PUSH1 0x8 SWAP2 DUP3 DUP3 DIV ADD SWAP2 SWAP1 MOD PUSH1 0x4 MUL PUSH2 0x100 EXP DUP2 SLOAD DUP2 PUSH4 0xFFFFFFFF MUL NOT AND SWAP1 DUP4 PUSH4 0xFFFFFFFF AND MUL OR SWAP1 SSTORE POP JUMPDEST DUP10 ISZERO PUSH2 0x393E JUMPI PUSH2 0x38E0 DUP12 DUP10 DUP13 PUSH1 0x1 PUSH2 0x2A9D JUMP JUMPDEST PUSH1 0x0 PUSH2 0x38EB DUP13 PUSH2 0x2A10 JUMP JUMPDEST SWAP1 POP PUSH1 0x9 DUP8 DUP2 SLOAD DUP2 LT PUSH2 0x3900 JUMPI PUSH2 0x3900 PUSH2 0x5B29 JUMP JUMPDEST PUSH1 0x0 SWAP2 DUP3 MSTORE PUSH1 0x20 SWAP1 SWAP2 KECCAK256 PUSH1 0x1 PUSH1 0x4 SWAP1 SWAP3 MUL ADD ADD SLOAD PUSH1 0x1 PUSH1 0x1 PUSH1 0x80 SHL SUB AND DUP2 EQ PUSH2 0x393C JUMPI PUSH1 0x40 MLOAD PUSH4 0xA8B538D3 PUSH1 0xE0 SHL DUP2 MSTORE PUSH1 0x4 ADD PUSH1 0x40 MLOAD DUP1 SWAP2 SUB SWAP1 REVERT JUMPDEST POP JUMPDEST DUP9 ISZERO PUSH2 0x395D JUMPI PUSH1 0xD SLOAD PUSH2 0x395D SWAP1 PUSH1 0x1 PUSH1 0x1 PUSH1 0xA0 SHL SUB AND DUP10 DUP12 PUSH1 0x1 PUSH2 0x2A9D JUMP JUMPDEST PUSH32 0x4AB7F3F4678BF8F6CBE4D85E4007B7C64DF8E1D5D97DE1628F4A6416F9D1DB03 DUP12 CALLER DUP7 DUP9 DUP15 DUP15 PUSH2 0x3990 DUP11 PUSH2 0x2710 PUSH2 0x5B55 JUMP JUMPDEST PUSH1 0x40 DUP1 MLOAD PUSH1 0x1 PUSH1 0x1 PUSH1 0xA0 SHL SUB SWAP9 DUP10 AND DUP2 MSTORE SWAP7 DUP9 AND PUSH1 0x20 DUP9 ADD MSTORE DUP7 ADD SWAP5 SWAP1 SWAP5 MSTORE PUSH1 0x60 DUP6 ADD SWAP3 SWAP1 SWAP3 MSTORE PUSH1 0x80 DUP5 ADD MSTORE PUSH1 0xA0 DUP4 ADD MSTORE PUSH1 0xC0 DUP3 ADD MSTORE SWAP1 DUP11 AND PUSH1 0xE0 DUP3 ADD MSTORE PUSH2 0x100 ADD PUSH1 0x40 MLOAD DUP1 SWAP2 SUB SWAP1 LOG1 PUSH1 0x0 DUP1 MLOAD PUSH1 0x20 PUSH2 0x5F2E DUP4 CODECOPY DUP2 MLOAD SWAP2 MSTORE DUP12 PUSH1 0x9 DUP9 DUP2 SLOAD DUP2 LT PUSH2 0x39FD JUMPI PUSH2 0x39FD PUSH2 0x5B29 JUMP JUMPDEST SWAP1 PUSH1 0x0 MSTORE PUSH1 0x20 PUSH1 0x0 KECCAK256 SWAP1 PUSH1 0x4 MUL ADD PUSH1 0x1 ADD PUSH1 0x0 SWAP1 SLOAD SWAP1 PUSH2 0x100 EXP SWAP1 DIV PUSH1 0x1 PUSH1 0x1 PUSH1 0x80 SHL SUB AND PUSH1 0x9 DUP10 DUP2 SLOAD DUP2 LT PUSH2 0x3A35 JUMPI PUSH2 0x3A35 PUSH2 0x5B29 JUMP JUMPDEST SWAP1 PUSH1 0x0 MSTORE PUSH1 0x20 PUSH1 0x0 KECCAK256 SWAP1 PUSH1 0x4 MUL ADD PUSH1 0x1 ADD PUSH1 0x10 SWAP1 SLOAD SWAP1 PUSH2 0x100 EXP SWAP1 DIV PUSH1 0x1 PUSH1 0x1 PUSH1 0x80 SHL SUB AND PUSH1 0x9 DUP11 DUP2 SLOAD DUP2 LT PUSH2 0x3A6D JUMPI PUSH2 0x3A6D PUSH2 0x5B29 JUMP JUMPDEST SWAP1 PUSH1 0x0 MSTORE PUSH1 0x20 PUSH1 0x0 KECCAK256 SWAP1 PUSH1 0x4 MUL ADD PUSH1 0x3 ADD SLOAD PUSH1 0x40 MLOAD PUSH2 0x3A8F SWAP5 SWAP4 SWAP3 SWAP2 SWAP1 PUSH2 0x5DD5 JUMP JUMPDEST PUSH1 0x40 MLOAD DUP1 SWAP2 SUB SWAP1 LOG1 POP POP POP POP POP POP POP POP POP POP POP JUMP JUMPDEST PUSH1 0x1 PUSH1 0x1 PUSH1 0xA0 SHL SUB DUP4 AND PUSH1 0x0 SWAP1 DUP2 MSTORE PUSH1 0xA PUSH1 0x20 MSTORE PUSH1 0x40 DUP2 KECCAK256 SLOAD DUP2 PUSH2 0x3AC7 DUP7 PUSH2 0x2A10 JUMP JUMPDEST SWAP1 POP PUSH1 0x0 PUSH1 0x9 DUP4 DUP2 SLOAD DUP2 LT PUSH2 0x3ADE JUMPI PUSH2 0x3ADE PUSH2 0x5B29 JUMP JUMPDEST PUSH1 0x0 SWAP2 DUP3 MSTORE PUSH1 0x20 SWAP1 SWAP2 KECCAK256 PUSH1 0x1 PUSH1 0x4 SWAP1 SWAP3 MUL ADD ADD SLOAD PUSH2 0x3B05 SWAP1 PUSH1 0x1 PUSH1 0x1 PUSH1 0x80 SHL SUB AND DUP4 PUSH2 0x5B55 JUMP JUMPDEST PUSH1 0xB SLOAD PUSH1 0xD SLOAD SWAP2 SWAP3 POP PUSH1 0x0 SWAP2 PUSH2 0x3B23 SWAP1 PUSH1 0x1 PUSH1 0x1 PUSH1 0xA0 SHL SUB AND PUSH2 0x2A10 JUMP JUMPDEST PUSH2 0x3B2D SWAP2 SWAP1 PUSH2 0x5B55 JUMP JUMPDEST PUSH1 0x0 DUP6 DUP2 MSTORE PUSH1 0x3 PUSH1 0x20 MSTORE PUSH1 0x40 DUP2 KECCAK256 SLOAD PUSH1 0x9 DUP1 SLOAD SWAP4 SWAP5 POP SWAP1 SWAP3 DUP4 SWAP2 DUP12 SWAP2 DUP10 SWAP1 DUP2 LT PUSH2 0x3B59 JUMPI PUSH2 0x3B59 PUSH2 0x5B29 JUMP JUMPDEST PUSH1 0x0 SWAP2 DUP3 MSTORE PUSH1 0x20 SWAP1 SWAP2 KECCAK256 PUSH1 0x1 PUSH1 0x4 SWAP1 SWAP3 MUL ADD ADD SLOAD PUSH2 0x3B80 SWAP2 SWAP1 PUSH1 0x1 PUSH1 0x1 PUSH1 0x80 SHL SUB AND PUSH2 0x5BD9 JUMP JUMPDEST PUSH2 0x3B8A SWAP2 SWAP1 PUSH2 0x5D70 JUMP JUMPDEST SWAP1 POP PUSH1 0x0 DUP3 DUP11 PUSH1 0x9 DUP10 DUP2 SLOAD DUP2 LT PUSH2 0x3BA3 JUMPI PUSH2 0x3BA3 PUSH2 0x5B29 JUMP JUMPDEST PUSH1 0x0 SWAP2 DUP3 MSTORE PUSH1 0x20 SWAP1 SWAP2 KECCAK256 PUSH1 0x4 SWAP1 SWAP2 MUL ADD PUSH1 0x1 ADD SLOAD PUSH2 0x3BD1 SWAP2 SWAP1 PUSH1 0x1 PUSH1 0x80 SHL SWAP1 DIV PUSH1 0x1 PUSH1 0x1 PUSH1 0x80 SHL SUB AND PUSH2 0x5BD9 JUMP JUMPDEST PUSH2 0x3BDB SWAP2 SWAP1 PUSH2 0x5D70 JUMP JUMPDEST SWAP1 POP PUSH1 0x0 PUSH2 0x3C36 PUSH1 0x9 DUP10 DUP2 SLOAD DUP2 LT PUSH2 0x3BF5 JUMPI PUSH2 0x3BF5 PUSH2 0x5B29 JUMP JUMPDEST SWAP1 PUSH1 0x0 MSTORE PUSH1 0x20 PUSH1 0x0 KECCAK256 SWAP1 PUSH1 0x4 MUL ADD PUSH1 0x1 ADD PUSH1 0x10 SWAP1 SLOAD SWAP1 PUSH2 0x100 EXP SWAP1 DIV PUSH1 0x1 PUSH1 0x1 PUSH1 0x80 SHL SUB AND PUSH1 0x1 PUSH1 0x1 PUSH1 0x80 SHL SUB AND PUSH1 0x9 DUP11 DUP2 SLOAD DUP2 LT PUSH2 0x11C6 JUMPI PUSH2 0x11C6 PUSH2 0x5B29 JUMP JUMPDEST SWAP1 POP PUSH1 0x0 PUSH2 0x3C74 PUSH1 0x9 DUP11 DUP2 SLOAD DUP2 LT PUSH2 0x3C50 JUMPI PUSH2 0x3C50 PUSH2 0x5B29 JUMP JUMPDEST PUSH1 0x0 SWAP2 DUP3 MSTORE PUSH1 0x20 SWAP1 SWAP2 KECCAK256 PUSH1 0x2 PUSH1 0x4 SWAP1 SWAP3 MUL ADD ADD SLOAD PUSH1 0x1 PUSH1 0x1 PUSH1 0x80 SHL SUB AND DUP4 DUP8 PUSH2 0x2C93 JUMP JUMPDEST SWAP1 POP DUP1 ISZERO PUSH2 0x3CA5 JUMPI PUSH1 0x10 SLOAD PUSH1 0x40 DUP1 MLOAD PUSH1 0x20 DUP2 ADD SWAP1 SWAP2 MSTORE PUSH1 0x0 DUP2 MSTORE PUSH2 0x3CA5 SWAP2 PUSH1 0x1 PUSH1 0x1 PUSH1 0xA0 SHL SUB AND SWAP1 DUP12 SWAP1 DUP5 SWAP1 PUSH2 0x2D18 JUMP JUMPDEST DUP3 DUP7 PUSH1 0xB SLOAD PUSH2 0x3CB4 SWAP2 SWAP1 PUSH2 0x5D0C JUMP JUMPDEST PUSH2 0x3CBE SWAP2 SWAP1 PUSH2 0x5B55 JUMP JUMPDEST PUSH1 0xB DUP2 SWAP1 SSTORE POP DUP4 DUP8 PUSH1 0x9 DUP12 DUP2 SLOAD DUP2 LT PUSH2 0x3CD9 JUMPI PUSH2 0x3CD9 PUSH2 0x5B29 JUMP JUMPDEST PUSH1 0x0 SWAP2 DUP3 MSTORE PUSH1 0x20 SWAP1 SWAP2 KECCAK256 PUSH1 0x1 PUSH1 0x4 SWAP1 SWAP3 MUL ADD ADD SLOAD PUSH2 0x3D00 SWAP2 SWAP1 PUSH1 0x1 PUSH1 0x1 PUSH1 0x80 SHL SUB AND PUSH2 0x5D84 JUMP JUMPDEST PUSH2 0x3D0A SWAP2 SWAP1 PUSH2 0x5E7C JUMP JUMPDEST PUSH1 0x9 DUP11 DUP2 SLOAD DUP2 LT PUSH2 0x3D1D JUMPI PUSH2 0x3D1D PUSH2 0x5B29 JUMP JUMPDEST SWAP1 PUSH1 0x0 MSTORE PUSH1 0x20 PUSH1 0x0 KECCAK256 SWAP1 PUSH1 0x4 MUL ADD PUSH1 0x1 ADD PUSH1 0x0 PUSH2 0x100 EXP DUP2 SLOAD DUP2 PUSH1 0x1 PUSH1 0x1 PUSH1 0x80 SHL SUB MUL NOT AND SWAP1 DUP4 PUSH1 0x1 PUSH1 0x1 PUSH1 0x80 SHL SUB AND MUL OR SWAP1 SSTORE POP DUP3 DUP7 PUSH1 0x9 DUP12 DUP2 SLOAD DUP2 LT PUSH2 0x3D67 JUMPI PUSH2 0x3D67 PUSH2 0x5B29 JUMP JUMPDEST SWAP1 PUSH1 0x0 MSTORE PUSH1 0x20 PUSH1 0x0 KECCAK256 SWAP1 PUSH1 0x4 MUL ADD PUSH1 0x1 ADD PUSH1 0x10 SWAP1 SLOAD SWAP1 PUSH2 0x100 EXP SWAP1 DIV PUSH1 0x1 PUSH1 0x1 PUSH1 0x80 SHL SUB AND PUSH2 0x3D96 SWAP2 SWAP1 PUSH2 0x5D84 JUMP JUMPDEST PUSH2 0x3DA0 SWAP2 SWAP1 PUSH2 0x5E7C JUMP JUMPDEST PUSH1 0x9 DUP11 DUP2 SLOAD DUP2 LT PUSH2 0x3DB3 JUMPI PUSH2 0x3DB3 PUSH2 0x5B29 JUMP JUMPDEST SWAP1 PUSH1 0x0 MSTORE PUSH1 0x20 PUSH1 0x0 KECCAK256 SWAP1 PUSH1 0x4 MUL ADD PUSH1 0x1 ADD PUSH1 0x10 PUSH2 0x100 EXP DUP2 SLOAD DUP2 PUSH1 0x1 PUSH1 0x1 PUSH1 0x80 SHL SUB MUL NOT AND SWAP1 DUP4 PUSH1 0x1 PUSH1 0x1 PUSH1 0x80 SHL SUB AND MUL OR SWAP1 SSTORE POP PUSH2 0x3E3F PUSH1 0x9 DUP11 DUP2 SLOAD DUP2 LT PUSH2 0x3DFE JUMPI PUSH2 0x3DFE PUSH2 0x5B29 JUMP JUMPDEST SWAP1 PUSH1 0x0 MSTORE PUSH1 0x20 PUSH1 0x0 KECCAK256 SWAP1 PUSH1 0x4 MUL ADD PUSH1 0x1 ADD PUSH1 0x10 SWAP1 SLOAD SWAP1 PUSH2 0x100 EXP SWAP1 DIV PUSH1 0x1 PUSH1 0x1 PUSH1 0x80 SHL SUB AND PUSH1 0x1 PUSH1 0x1 PUSH1 0x80 SHL SUB AND PUSH1 0x9 DUP12 DUP2 SLOAD DUP2 LT PUSH2 0x11C6 JUMPI PUSH2 0x11C6 PUSH2 0x5B29 JUMP JUMPDEST PUSH1 0x9 DUP11 DUP2 SLOAD DUP2 LT PUSH2 0x3E52 JUMPI PUSH2 0x3E52 PUSH2 0x5B29 JUMP JUMPDEST SWAP1 PUSH1 0x0 MSTORE PUSH1 0x20 PUSH1 0x0 KECCAK256 SWAP1 PUSH1 0x4 MUL ADD PUSH1 0x2 ADD PUSH1 0x0 PUSH2 0x100 EXP DUP2 SLOAD DUP2 PUSH1 0x1 PUSH1 0x1 PUSH1 0x80 SHL SUB MUL NOT AND SWAP1 DUP4 PUSH1 0x1 PUSH1 0x1 PUSH1 0x80 SHL SUB AND MUL OR SWAP1 SSTORE POP PUSH2 0x3E92 CALLER DUP11 DUP15 PUSH2 0x4860 JUMP JUMPDEST PUSH1 0xD SLOAD PUSH1 0x40 MLOAD PUSH4 0x18A8AD87 PUSH1 0xE0 SHL DUP2 MSTORE ADDRESS PUSH1 0x4 DUP3 ADD MSTORE PUSH1 0x24 DUP2 ADD DUP6 SWAP1 MSTORE PUSH1 0x1 PUSH1 0x1 PUSH1 0xA0 SHL SUB SWAP1 SWAP2 AND SWAP1 PUSH4 0x18A8AD87 SWAP1 PUSH1 0x44 ADD PUSH1 0x0 PUSH1 0x40 MLOAD DUP1 DUP4 SUB DUP2 PUSH1 0x0 DUP8 DUP1 EXTCODESIZE ISZERO DUP1 ISZERO PUSH2 0x3EDE JUMPI PUSH1 0x0 DUP1 REVERT JUMPDEST POP GAS CALL ISZERO DUP1 ISZERO PUSH2 0x3EF2 JUMPI RETURNDATASIZE PUSH1 0x0 DUP1 RETURNDATACOPY RETURNDATASIZE PUSH1 0x0 REVERT JUMPDEST POP POP POP POP POP POP PUSH2 0x3F05 DUP12 DUP11 DUP5 PUSH1 0x1 PUSH2 0x2A9D JUMP JUMPDEST PUSH1 0x0 PUSH2 0x3F10 DUP13 PUSH2 0x2A10 JUMP JUMPDEST SWAP1 POP DUP7 PUSH2 0x3F1D DUP5 DUP4 PUSH2 0x5D0C JUMP JUMPDEST EQ PUSH2 0x3F3B JUMPI PUSH1 0x40 MLOAD PUSH4 0xA8B538D3 PUSH1 0xE0 SHL DUP2 MSTORE PUSH1 0x4 ADD PUSH1 0x40 MLOAD DUP1 SWAP2 SUB SWAP1 REVERT JUMPDEST PUSH32 0x1DC8BB69DF2B8E91FBDCBFCF93D951B3F0000F085A95FE3F7946D6161439245D DUP13 DUP5 DUP5 DUP15 PUSH1 0x40 MLOAD PUSH2 0x3F70 SWAP5 SWAP4 SWAP3 SWAP2 SWAP1 PUSH2 0x5DAF JUMP JUMPDEST PUSH1 0x40 MLOAD DUP1 SWAP2 SUB SWAP1 LOG1 POP SWAP1 SWAP11 SWAP10 POP POP POP POP POP POP POP POP POP POP JUMP JUMPDEST PUSH1 0x1 PUSH1 0x1 PUSH1 0xA0 SHL SUB DUP6 AND PUSH1 0x0 SWAP1 DUP2 MSTORE PUSH1 0xA PUSH1 0x20 MSTORE PUSH1 0x40 SWAP1 KECCAK256 SLOAD DUP6 SWAP1 ISZERO PUSH2 0x3FC1 JUMPI PUSH1 0x40 MLOAD PUSH4 0x402670DF PUSH1 0xE0 SHL DUP2 MSTORE PUSH1 0x4 ADD PUSH1 0x40 MLOAD DUP1 SWAP2 SUB SWAP1 REVERT JUMPDEST PUSH2 0x3FCC DUP7 CALLER DUP8 PUSH2 0x2B60 JUMP JUMPDEST PUSH1 0xD SLOAD PUSH1 0x40 MLOAD PUSH4 0xBB9FF5D PUSH1 0xE0 SHL DUP2 MSTORE ADDRESS PUSH1 0x4 DUP3 ADD MSTORE PUSH1 0x24 DUP2 ADD DUP7 SWAP1 MSTORE PUSH1 0x1 PUSH1 0x1 PUSH1 0xA0 SHL SUB SWAP1 SWAP2 AND SWAP1 PUSH4 0xBB9FF5D SWAP1 PUSH1 0x44 ADD PUSH1 0x0 PUSH1 0x40 MLOAD DUP1 DUP4 SUB DUP2 PUSH1 0x0 DUP8 DUP1 EXTCODESIZE ISZERO DUP1 ISZERO PUSH2 0x4018 JUMPI PUSH1 0x0 DUP1 REVERT JUMPDEST POP GAS CALL ISZERO DUP1 ISZERO PUSH2 0x402C JUMPI RETURNDATASIZE PUSH1 0x0 DUP1 RETURNDATACOPY RETURNDATASIZE PUSH1 0x0 REVERT JUMPDEST POP POP POP POP PUSH2 0x4039 DUP7 PUSH2 0x2A10 JUMP JUMPDEST SWAP5 POP PUSH1 0x1 DUP6 GT PUSH2 0x405B JUMPI PUSH1 0x40 MLOAD PUSH3 0x461BCD PUSH1 0xE5 SHL DUP2 MSTORE PUSH1 0x4 ADD PUSH2 0xA48 SWAP1 PUSH2 0x5D3F JUMP JUMPDEST PUSH1 0x0 PUSH2 0x406A PUSH2 0x11ED DUP7 DUP9 PUSH2 0x5BD9 JUMP JUMPDEST SWAP1 POP PUSH2 0x4074 PUSH2 0x512F JUMP JUMPDEST PUSH1 0x0 JUMPDEST PUSH1 0x8 DUP2 LT ISZERO PUSH2 0x40B6 JUMPI PUSH1 0x1 DUP3 DUP3 PUSH1 0x8 DUP2 LT PUSH2 0x4094 JUMPI PUSH2 0x4094 PUSH2 0x5B29 JUMP JUMPDEST PUSH4 0xFFFFFFFF SWAP1 SWAP3 AND PUSH1 0x20 SWAP3 SWAP1 SWAP3 MUL ADD MSTORE DUP1 PUSH2 0x40AE DUP2 PUSH2 0x5B6C JUMP JUMPDEST SWAP2 POP POP PUSH2 0x4077 JUMP JUMPDEST POP PUSH1 0x40 DUP1 MLOAD PUSH1 0xA0 DUP2 ADD DUP3 MSTORE DUP3 DUP2 MSTORE PUSH1 0x1 PUSH1 0x1 PUSH1 0x80 SHL SUB DUP1 DUP11 AND PUSH1 0x20 DUP4 ADD MSTORE DUP9 DUP2 AND SWAP3 DUP3 ADD SWAP3 SWAP1 SWAP3 MSTORE SWAP1 DUP4 AND PUSH1 0x60 DUP3 ADD MSTORE PUSH1 0x80 DUP2 ADD DUP7 SWAP1 MSTORE PUSH1 0x9 DUP1 SLOAD PUSH1 0x1 DUP2 ADD DUP3 SSTORE PUSH1 0x0 SWAP2 SWAP1 SWAP2 MSTORE DUP2 MLOAD DUP3 SWAP1 PUSH1 0x4 DUP4 MUL PUSH32 0x6E1540171B6C0C960B71A7020D9F60077F6AF931A8BBF590DA0223DACF75C7AF ADD SWAP1 PUSH2 0x4135 SWAP1 DUP3 SWAP1 PUSH1 0x8 PUSH2 0x514E JUMP JUMPDEST POP PUSH1 0x20 DUP3 DUP2 ADD MLOAD PUSH1 0x40 DUP1 DUP6 ADD MLOAD PUSH1 0x1 PUSH1 0x1 PUSH1 0x80 SHL SUB SWAP3 DUP4 AND PUSH1 0x1 PUSH1 0x80 SHL SWAP2 DUP5 AND SWAP2 SWAP1 SWAP2 MUL OR PUSH1 0x1 DUP6 ADD SSTORE PUSH1 0x60 DUP6 ADD MLOAD PUSH1 0x2 DUP6 ADD DUP1 SLOAD PUSH1 0x1 PUSH1 0x1 PUSH1 0x80 SHL SUB NOT AND SWAP2 SWAP1 SWAP4 AND OR SWAP1 SWAP2 SSTORE PUSH1 0x80 SWAP1 SWAP4 ADD MLOAD PUSH1 0x3 SWAP1 SWAP3 ADD SWAP2 SWAP1 SWAP2 SSTORE PUSH1 0x1 PUSH1 0x1 PUSH1 0xA0 SHL SUB DUP13 AND PUSH1 0x0 SWAP1 DUP2 MSTORE PUSH1 0xA SWAP1 SWAP2 MSTORE SWAP1 DUP2 KECCAK256 DUP3 SWAP1 SSTORE PUSH1 0xB DUP1 SLOAD DUP11 SWAP3 SWAP1 PUSH2 0x41B7 SWAP1 DUP5 SWAP1 PUSH2 0x5D0C JUMP JUMPDEST SWAP3 POP POP DUP2 SWAP1 SSTORE POP PUSH2 0x41DD PUSH2 0xDEAD DUP3 PUSH2 0x3E8 PUSH1 0x40 MLOAD DUP1 PUSH1 0x20 ADD PUSH1 0x40 MSTORE DUP1 PUSH1 0x0 DUP2 MSTORE POP PUSH2 0x2D18 JUMP JUMPDEST PUSH1 0x0 PUSH2 0x3E8 PUSH2 0x41EF PUSH2 0x11ED DUP12 DUP14 PUSH2 0x5BD9 JUMP JUMPDEST PUSH2 0x41F9 SWAP2 SWAP1 PUSH2 0x5B55 JUMP JUMPDEST SWAP1 POP PUSH2 0x4216 DUP8 DUP4 DUP4 PUSH1 0x40 MLOAD DUP1 PUSH1 0x20 ADD PUSH1 0x40 MSTORE DUP1 PUSH1 0x0 DUP2 MSTORE POP PUSH2 0x2D18 JUMP JUMPDEST PUSH1 0x40 DUP1 MLOAD PUSH1 0x1 PUSH1 0x1 PUSH1 0xA0 SHL SUB DUP14 AND DUP2 MSTORE PUSH1 0x20 DUP2 ADD DUP5 SWAP1 MSTORE PUSH32 0x17AA8D0E85DB1D0531A8181B5BB84E1D4ED744DB1CADD8814ACD3D181FF30137 SWAP2 ADD PUSH1 0x40 MLOAD DUP1 SWAP2 SUB SWAP1 LOG1 PUSH32 0x64B83944E79C3CE8D4C297411DE637C3E102D064677AAC0C163976EBDCD6F50E DUP12 DUP12 DUP12 DUP5 PUSH1 0x40 MLOAD PUSH2 0x428D SWAP5 SWAP4 SWAP3 SWAP2 SWAP1 PUSH2 0x5DAF JUMP JUMPDEST PUSH1 0x40 MLOAD DUP1 SWAP2 SUB SWAP1 LOG1 PUSH1 0x0 DUP1 MLOAD PUSH1 0x20 PUSH2 0x5F2E DUP4 CODECOPY DUP2 MLOAD SWAP2 MSTORE DUP12 PUSH1 0x9 DUP5 DUP2 SLOAD DUP2 LT PUSH2 0x42B8 JUMPI PUSH2 0x42B8 PUSH2 0x5B29 JUMP JUMPDEST SWAP1 PUSH1 0x0 MSTORE PUSH1 0x20 PUSH1 0x0 KECCAK256 SWAP1 PUSH1 0x4 MUL ADD PUSH1 0x1 ADD PUSH1 0x0 SWAP1 SLOAD SWAP1 PUSH2 0x100 EXP SWAP1 DIV PUSH1 0x1 PUSH1 0x1 PUSH1 0x80 SHL SUB AND PUSH1 0x9 DUP6 DUP2 SLOAD DUP2 LT PUSH2 0x42F0 JUMPI PUSH2 0x42F0 PUSH2 0x5B29 JUMP JUMPDEST SWAP1 PUSH1 0x0 MSTORE PUSH1 0x20 PUSH1 0x0 KECCAK256 SWAP1 PUSH1 0x4 MUL ADD PUSH1 0x1 ADD PUSH1 0x10 SWAP1 SLOAD SWAP1 PUSH2 0x100 EXP SWAP1 DIV PUSH1 0x1 PUSH1 0x1 PUSH1 0x80 SHL SUB AND PUSH1 0x9 DUP7 DUP2 SLOAD DUP2 LT PUSH2 0x3A6D JUMPI PUSH2 0x3A6D PUSH2 0x5B29 JUMP JUMPDEST PUSH1 0x0 PUSH2 0x16DE DUP4 DUP4 PUSH2 0x4F0C JUMP JUMPDEST DUP2 PUSH1 0x1 PUSH1 0x1 PUSH1 0xA0 SHL SUB AND DUP4 PUSH1 0x1 PUSH1 0x1 PUSH1 0xA0 SHL SUB AND EQ ISZERO PUSH2 0x4367 JUMPI PUSH1 0x40 MLOAD PUSH4 0x180A65B9 PUSH1 0xE3 SHL DUP2 MSTORE PUSH1 0x4 ADD PUSH1 0x40 MLOAD DUP1 SWAP2 SUB SWAP1 REVERT JUMPDEST PUSH1 0x1 PUSH1 0x1 PUSH1 0xA0 SHL SUB DUP4 DUP2 AND PUSH1 0x0 DUP2 DUP2 MSTORE PUSH1 0x1 PUSH1 0x20 SWAP1 DUP2 MSTORE PUSH1 0x40 DUP1 DUP4 KECCAK256 SWAP5 DUP8 AND DUP1 DUP5 MSTORE SWAP5 DUP3 MSTORE SWAP2 DUP3 SWAP1 KECCAK256 DUP1 SLOAD PUSH1 0xFF NOT AND DUP7 ISZERO ISZERO SWAP1 DUP2 OR SWAP1 SWAP2 SSTORE SWAP2 MLOAD SWAP2 DUP3 MSTORE PUSH32 0x17307EAB39AB6107E8899845AD3D59BD9653F200F220920489CA2B5937696C31 SWAP2 ADD PUSH1 0x40 MLOAD DUP1 SWAP2 SUB SWAP1 LOG3 POP POP POP JUMP JUMPDEST DUP1 MLOAD PUSH2 0x100B SWAP1 PUSH1 0x2 SWAP1 PUSH1 0x20 DUP5 ADD SWAP1 PUSH2 0x50AB JUMP JUMPDEST PUSH1 0x1 PUSH1 0x1 PUSH1 0xA0 SHL SUB DUP3 AND PUSH1 0x0 SWAP1 DUP2 MSTORE PUSH1 0xA PUSH1 0x20 MSTORE PUSH1 0x40 DUP2 KECCAK256 SLOAD DUP4 SWAP1 ISZERO DUP1 PUSH2 0x441B JUMPI POP PUSH1 0xD SLOAD PUSH1 0x1 PUSH1 0x1 PUSH1 0xA0 SHL SUB DUP3 DUP2 AND SWAP2 AND EQ JUMPDEST ISZERO PUSH2 0x4438 JUMPI PUSH1 0x40 MLOAD PUSH3 0x461BCD PUSH1 0xE5 SHL DUP2 MSTORE PUSH1 0x4 ADD PUSH2 0xA48 SWAP1 PUSH2 0x5B0E JUMP JUMPDEST PUSH1 0x1 PUSH1 0x1 PUSH1 0xA0 SHL SUB DUP5 AND PUSH1 0x0 SWAP1 DUP2 MSTORE PUSH1 0xA PUSH1 0x20 MSTORE PUSH1 0x40 SWAP1 KECCAK256 SLOAD PUSH1 0x9 DUP1 SLOAD PUSH2 0x2ED9 SWAP2 DUP7 SWAP2 DUP5 SWAP1 DUP2 LT PUSH2 0x446B JUMPI PUSH2 0x446B PUSH2 0x5B29 JUMP JUMPDEST PUSH1 0x0 SWAP2 DUP3 MSTORE PUSH1 0x20 SWAP1 SWAP2 KECCAK256 PUSH1 0x1 PUSH1 0x4 SWAP1 SWAP3 MUL ADD ADD SLOAD PUSH1 0x9 DUP1 SLOAD PUSH1 0x1 PUSH1 0x1 PUSH1 0x80 SHL SUB SWAP1 SWAP3 AND SWAP2 DUP6 SWAP1 DUP2 LT PUSH2 0x449F JUMPI PUSH2 0x449F PUSH2 0x5B29 JUMP JUMPDEST PUSH1 0x0 SWAP2 DUP3 MSTORE PUSH1 0x20 SWAP1 SWAP2 KECCAK256 PUSH1 0x4 SWAP1 SWAP2 MUL ADD PUSH1 0x1 ADD SLOAD PUSH1 0x1 PUSH1 0x80 SHL SWAP1 DIV PUSH1 0x1 PUSH1 0x1 PUSH1 0x80 SHL SUB AND PUSH2 0x44CC DUP6 PUSH2 0x2FCC JUMP JUMPDEST PUSH2 0x4F36 JUMP JUMPDEST PUSH1 0x1 PUSH1 0x1 PUSH1 0xA0 SHL SUB DUP3 AND PUSH1 0x0 SWAP1 DUP2 MSTORE PUSH1 0xA PUSH1 0x20 MSTORE PUSH1 0x40 DUP2 KECCAK256 SLOAD DUP4 SWAP1 ISZERO DUP1 PUSH2 0x4505 JUMPI POP PUSH1 0xD SLOAD PUSH1 0x1 PUSH1 0x1 PUSH1 0xA0 SHL SUB DUP3 DUP2 AND SWAP2 AND EQ JUMPDEST ISZERO PUSH2 0x4522 JUMPI PUSH1 0x40 MLOAD PUSH3 0x461BCD PUSH1 0xE5 SHL DUP2 MSTORE PUSH1 0x4 ADD PUSH2 0xA48 SWAP1 PUSH2 0x5B0E JUMP JUMPDEST PUSH1 0x1 PUSH1 0x1 PUSH1 0xA0 SHL SUB DUP5 AND PUSH1 0x0 SWAP1 DUP2 MSTORE PUSH1 0xA PUSH1 0x20 MSTORE PUSH1 0x40 SWAP1 KECCAK256 SLOAD PUSH1 0x9 DUP1 SLOAD PUSH2 0x2ED9 SWAP2 DUP7 SWAP2 DUP5 SWAP1 DUP2 LT PUSH2 0x4555 JUMPI PUSH2 0x4555 PUSH2 0x5B29 JUMP JUMPDEST SWAP1 PUSH1 0x0 MSTORE PUSH1 0x20 PUSH1 0x0 KECCAK256 SWAP1 PUSH1 0x4 MUL ADD PUSH1 0x1 ADD PUSH1 0x10 SWAP1 SLOAD SWAP1 PUSH2 0x100 EXP SWAP1 DIV PUSH1 0x1 PUSH1 0x1 PUSH1 0x80 SHL SUB AND PUSH1 0x1 PUSH1 0x1 PUSH1 0x80 SHL SUB AND PUSH1 0x9 DUP5 DUP2 SLOAD DUP2 LT PUSH2 0x4596 JUMPI PUSH2 0x4596 PUSH2 0x5B29 JUMP JUMPDEST PUSH1 0x0 SWAP2 DUP3 MSTORE PUSH1 0x20 SWAP1 SWAP2 KECCAK256 PUSH1 0x1 PUSH1 0x4 SWAP1 SWAP3 MUL ADD ADD SLOAD PUSH1 0x1 PUSH1 0x1 PUSH1 0x80 SHL SUB AND PUSH2 0x2710 PUSH2 0x4F36 JUMP JUMPDEST PUSH1 0x0 PUSH2 0x9B1 DUP3 SLOAD SWAP1 JUMP JUMPDEST PUSH1 0x40 MLOAD PUSH4 0x6FB1A07 PUSH1 0xE0 SHL DUP2 MSTORE PUSH1 0x3 PUSH1 0x4 DUP3 ADD MSTORE PUSH1 0x0 SWAP1 PUSH20 0xDEF1FAC7BF08F173D286BBBDCBEEADE695129840 SWAP1 PUSH4 0x6FB1A07 SWAP1 PUSH1 0x24 ADD PUSH1 0x20 PUSH1 0x40 MLOAD DUP1 DUP4 SUB DUP2 DUP7 GAS STATICCALL ISZERO DUP1 ISZERO PUSH2 0x4618 JUMPI RETURNDATASIZE PUSH1 0x0 DUP1 RETURNDATACOPY RETURNDATASIZE PUSH1 0x0 REVERT JUMPDEST POP POP POP POP PUSH1 0x40 MLOAD RETURNDATASIZE PUSH1 0x1F NOT PUSH1 0x1F DUP3 ADD AND DUP3 ADD DUP1 PUSH1 0x40 MSTORE POP DUP2 ADD SWAP1 PUSH2 0x463C SWAP2 SWAP1 PUSH2 0x5B87 JUMP JUMPDEST PUSH1 0x40 MLOAD PUSH4 0xC8B57EF PUSH1 0xE2 SHL DUP2 MSTORE PUSH1 0x1 PUSH1 0x1 PUSH1 0xA0 SHL SUB DUP7 DUP2 AND PUSH1 0x4 DUP4 ADD MSTORE DUP6 DUP2 AND PUSH1 0x24 DUP4 ADD MSTORE SWAP2 SWAP3 POP SWAP1 DUP3 AND SWAP1 PUSH4 0x322D5FBC SWAP1 PUSH1 0x44 ADD PUSH1 0x20 PUSH1 0x40 MLOAD DUP1 DUP4 SUB DUP2 PUSH1 0x0 DUP8 GAS CALL ISZERO DUP1 ISZERO PUSH2 0x4690 JUMPI RETURNDATASIZE PUSH1 0x0 DUP1 RETURNDATACOPY RETURNDATASIZE PUSH1 0x0 REVERT JUMPDEST POP POP POP POP PUSH1 0x40 MLOAD RETURNDATASIZE PUSH1 0x1F NOT PUSH1 0x1F DUP3 ADD AND DUP3 ADD DUP1 PUSH1 0x40 MSTORE POP DUP2 ADD SWAP1 PUSH2 0x46B4 SWAP2 SWAP1 PUSH2 0x5E05 JUMP JUMPDEST PUSH2 0x46D1 JUMPI PUSH1 0x40 MLOAD PUSH4 0xE30CF0F PUSH1 0xE0 SHL DUP2 MSTORE PUSH1 0x4 ADD PUSH1 0x40 MLOAD DUP1 SWAP2 SUB SWAP1 REVERT JUMPDEST PUSH1 0x1 PUSH1 0x1 PUSH1 0xA0 SHL SUB DUP3 AND ADDRESS EQ PUSH2 0xBC6 JUMPI PUSH1 0x40 MLOAD PUSH4 0x3973256B PUSH1 0xE1 SHL DUP2 MSTORE PUSH1 0x1 PUSH1 0x1 PUSH1 0xA0 SHL SUB DUP6 DUP2 AND PUSH1 0x4 DUP4 ADD MSTORE DUP4 DUP2 AND PUSH1 0x24 DUP4 ADD MSTORE DUP3 AND SWAP1 PUSH4 0x72E64AD6 SWAP1 PUSH1 0x44 ADD PUSH1 0x0 PUSH1 0x40 MLOAD DUP1 DUP4 SUB DUP2 PUSH1 0x0 DUP8 DUP1 EXTCODESIZE ISZERO DUP1 ISZERO PUSH2 0x472C JUMPI PUSH1 0x0 DUP1 REVERT JUMPDEST POP GAS CALL ISZERO DUP1 ISZERO PUSH2 0x4740 JUMPI RETURNDATASIZE PUSH1 0x0 DUP1 RETURNDATACOPY RETURNDATASIZE PUSH1 0x0 REVERT JUMPDEST POP POP POP POP POP POP POP POP JUMP JUMPDEST PUSH1 0x1 PUSH1 0x1 PUSH1 0xA0 SHL SUB DUP5 AND PUSH2 0x4771 JUMPI PUSH1 0x40 MLOAD PUSH4 0x7CC7869 PUSH1 0xE3 SHL DUP2 MSTORE PUSH1 0x4 ADD PUSH1 0x40 MLOAD DUP1 SWAP2 SUB SWAP1 REVERT JUMPDEST CALLER PUSH2 0x4781 DUP2 DUP8 DUP8 PUSH2 0x2D50 DUP9 PUSH2 0x4C96 JUMP JUMPDEST PUSH1 0x0 DUP5 DUP2 MSTORE PUSH1 0x20 DUP2 DUP2 MSTORE PUSH1 0x40 DUP1 DUP4 KECCAK256 PUSH1 0x1 PUSH1 0x1 PUSH1 0xA0 SHL SUB DUP11 AND DUP5 MSTORE SWAP1 SWAP2 MSTORE SWAP1 KECCAK256 SLOAD DUP4 DUP2 LT ISZERO PUSH2 0x47C3 JUMPI PUSH1 0x40 MLOAD PUSH4 0x2D688F61 PUSH1 0xE1 SHL DUP2 MSTORE PUSH1 0x4 ADD PUSH1 0x40 MLOAD DUP1 SWAP2 SUB SWAP1 REVERT JUMPDEST PUSH1 0x0 DUP6 DUP2 MSTORE PUSH1 0x20 DUP2 DUP2 MSTORE PUSH1 0x40 DUP1 DUP4 KECCAK256 PUSH1 0x1 PUSH1 0x1 PUSH1 0xA0 SHL SUB DUP12 DUP2 AND DUP6 MSTORE SWAP3 MSTORE DUP1 DUP4 KECCAK256 DUP8 DUP6 SUB SWAP1 SSTORE SWAP1 DUP9 AND DUP3 MSTORE DUP2 KECCAK256 DUP1 SLOAD DUP7 SWAP3 SWAP1 PUSH2 0x4800 SWAP1 DUP5 SWAP1 PUSH2 0x5D0C JUMP JUMPDEST SWAP1 SWAP2 SSTORE POP POP PUSH1 0x40 DUP1 MLOAD DUP7 DUP2 MSTORE PUSH1 0x20 DUP2 ADD DUP7 SWAP1 MSTORE PUSH1 0x1 PUSH1 0x1 PUSH1 0xA0 SHL SUB DUP1 DUP10 AND SWAP3 DUP11 DUP3 AND SWAP3 SWAP2 DUP7 AND SWAP2 PUSH32 0xC3D58168C5AE7397731D063D5BBF3D657854427343F4C083240F7AACAA2D0F62 SWAP2 ADD PUSH1 0x40 MLOAD DUP1 SWAP2 SUB SWAP1 LOG4 PUSH2 0xB46 DUP3 DUP9 DUP9 DUP9 DUP9 DUP9 PUSH2 0x4DED JUMP JUMPDEST PUSH1 0x1 PUSH1 0x1 PUSH1 0xA0 SHL SUB DUP4 AND PUSH2 0x4887 JUMPI PUSH1 0x40 MLOAD PUSH4 0xEDBA591D PUSH1 0xE0 SHL DUP2 MSTORE PUSH1 0x4 ADD PUSH1 0x40 MLOAD DUP1 SWAP2 SUB SWAP1 REVERT JUMPDEST CALLER PUSH2 0x48B6 DUP2 DUP6 PUSH1 0x0 PUSH2 0x4898 DUP8 PUSH2 0x4C96 JUMP JUMPDEST PUSH2 0x48A1 DUP8 PUSH2 0x4C96 JUMP JUMPDEST PUSH1 0x40 MLOAD DUP1 PUSH1 0x20 ADD PUSH1 0x40 MSTORE DUP1 PUSH1 0x0 DUP2 MSTORE POP PUSH2 0x4CE1 JUMP JUMPDEST PUSH1 0x0 DUP4 DUP2 MSTORE PUSH1 0x20 DUP2 DUP2 MSTORE PUSH1 0x40 DUP1 DUP4 KECCAK256 PUSH1 0x1 PUSH1 0x1 PUSH1 0xA0 SHL SUB DUP9 AND DUP5 MSTORE SWAP1 SWAP2 MSTORE SWAP1 KECCAK256 SLOAD DUP3 DUP2 LT ISZERO PUSH2 0x48F8 JUMPI PUSH1 0x40 MLOAD PUSH4 0x1CFB29E1 PUSH1 0xE2 SHL DUP2 MSTORE PUSH1 0x4 ADD PUSH1 0x40 MLOAD DUP1 SWAP2 SUB SWAP1 REVERT JUMPDEST PUSH1 0x0 DUP5 DUP2 MSTORE PUSH1 0x20 DUP2 DUP2 MSTORE PUSH1 0x40 DUP1 DUP4 KECCAK256 PUSH1 0x1 PUSH1 0x1 PUSH1 0xA0 SHL SUB DUP10 DUP2 AND DUP1 DUP7 MSTORE SWAP2 DUP5 MSTORE DUP3 DUP6 KECCAK256 DUP9 DUP8 SUB SWAP1 SSTORE DUP3 MLOAD DUP10 DUP2 MSTORE SWAP4 DUP5 ADD DUP9 SWAP1 MSTORE SWAP1 SWAP3 SWAP1 DUP7 AND SWAP2 PUSH32 0xC3D58168C5AE7397731D063D5BBF3D657854427343F4C083240F7AACAA2D0F62 SWAP2 ADD PUSH1 0x40 MLOAD DUP1 SWAP2 SUB SWAP1 LOG4 POP POP POP POP POP JUMP JUMPDEST PUSH1 0x0 DUP2 DUP2 MSTORE PUSH1 0x1 DUP4 ADD PUSH1 0x20 MSTORE PUSH1 0x40 DUP2 KECCAK256 SLOAD PUSH2 0x49AA JUMPI POP DUP2 SLOAD PUSH1 0x1 DUP2 DUP2 ADD DUP5 SSTORE PUSH1 0x0 DUP5 DUP2 MSTORE PUSH1 0x20 DUP1 DUP3 KECCAK256 SWAP1 SWAP4 ADD DUP5 SWAP1 SSTORE DUP5 SLOAD DUP5 DUP3 MSTORE DUP3 DUP7 ADD SWAP1 SWAP4 MSTORE PUSH1 0x40 SWAP1 KECCAK256 SWAP2 SWAP1 SWAP2 SSTORE PUSH2 0x9B1 JUMP JUMPDEST POP PUSH1 0x0 PUSH2 0x9B1 JUMP JUMPDEST PUSH1 0x40 DUP1 MLOAD PUSH1 0x0 DUP1 DUP3 MSTORE PUSH1 0x20 DUP3 ADD SWAP1 SWAP3 MSTORE PUSH1 0x1 PUSH1 0x1 PUSH1 0xA0 SHL SUB DUP5 AND SWAP1 DUP4 SWAP1 PUSH1 0x40 MLOAD PUSH2 0x49DC SWAP2 SWAP1 PUSH2 0x5EA4 JUMP JUMPDEST PUSH1 0x0 PUSH1 0x40 MLOAD DUP1 DUP4 SUB DUP2 DUP6 DUP8 GAS CALL SWAP3 POP POP POP RETURNDATASIZE DUP1 PUSH1 0x0 DUP2 EQ PUSH2 0x4A19 JUMPI PUSH1 0x40 MLOAD SWAP2 POP PUSH1 0x1F NOT PUSH1 0x3F RETURNDATASIZE ADD AND DUP3 ADD PUSH1 0x40 MSTORE RETURNDATASIZE DUP3 MSTORE RETURNDATASIZE PUSH1 0x0 PUSH1 0x20 DUP5 ADD RETURNDATACOPY PUSH2 0x4A1E JUMP JUMPDEST PUSH1 0x60 SWAP2 POP JUMPDEST POP POP SWAP1 POP DUP1 PUSH2 0xE2A JUMPI PUSH1 0x40 MLOAD PUSH4 0x30667AAB PUSH1 0xE0 SHL DUP2 MSTORE PUSH1 0x4 ADD PUSH1 0x40 MLOAD DUP1 SWAP2 SUB SWAP1 REVERT JUMPDEST PUSH1 0x40 DUP1 MLOAD PUSH1 0x1 PUSH1 0x1 PUSH1 0xA0 SHL SUB DUP5 DUP2 AND PUSH1 0x24 DUP4 ADD MSTORE PUSH1 0x44 DUP1 DUP4 ADD DUP6 SWAP1 MSTORE DUP4 MLOAD DUP1 DUP5 SUB SWAP1 SWAP2 ADD DUP2 MSTORE PUSH1 0x64 SWAP1 SWAP3 ADD DUP4 MSTORE PUSH1 0x20 DUP3 ADD DUP1 MLOAD PUSH1 0x1 PUSH1 0x1 PUSH1 0xE0 SHL SUB AND PUSH4 0xA9059CBB PUSH1 0xE0 SHL OR SWAP1 MSTORE SWAP2 MLOAD PUSH1 0x0 SWAP3 DUP4 SWAP3 SWAP1 DUP8 AND SWAP2 PUSH2 0x4A9C SWAP2 SWAP1 PUSH2 0x5EA4 JUMP JUMPDEST PUSH1 0x0 PUSH1 0x40 MLOAD DUP1 DUP4 SUB DUP2 PUSH1 0x0 DUP7 GAS CALL SWAP2 POP POP RETURNDATASIZE DUP1 PUSH1 0x0 DUP2 EQ PUSH2 0x4AD9 JUMPI PUSH1 0x40 MLOAD SWAP2 POP PUSH1 0x1F NOT PUSH1 0x3F RETURNDATASIZE ADD AND DUP3 ADD PUSH1 0x40 MSTORE RETURNDATASIZE DUP3 MSTORE RETURNDATASIZE PUSH1 0x0 PUSH1 0x20 DUP5 ADD RETURNDATACOPY PUSH2 0x4ADE JUMP JUMPDEST PUSH1 0x60 SWAP2 POP JUMPDEST POP SWAP2 POP SWAP2 POP DUP2 DUP1 ISZERO PUSH2 0x4B08 JUMPI POP DUP1 MLOAD ISZERO DUP1 PUSH2 0x4B08 JUMPI POP DUP1 DUP1 PUSH1 0x20 ADD SWAP1 MLOAD DUP2 ADD SWAP1 PUSH2 0x4B08 SWAP2 SWAP1 PUSH2 0x5E05 JUMP JUMPDEST PUSH2 0x45C JUMPI PUSH1 0x40 MLOAD PUSH4 0x7805DA53 PUSH1 0xE0 SHL DUP2 MSTORE PUSH1 0x4 ADD PUSH1 0x40 MLOAD DUP1 SWAP2 SUB SWAP1 REVERT JUMPDEST PUSH2 0x4B2F DUP3 DUP3 PUSH2 0x1A7C JUMP JUMPDEST ISZERO PUSH2 0x100B JUMPI PUSH1 0x0 DUP3 DUP2 MSTORE PUSH1 0x4 PUSH1 0x20 SWAP1 DUP2 MSTORE PUSH1 0x40 DUP1 DUP4 KECCAK256 PUSH1 0x1 PUSH1 0x1 PUSH1 0xA0 SHL SUB DUP6 AND DUP1 DUP6 MSTORE SWAP3 MSTORE DUP1 DUP4 KECCAK256 DUP1 SLOAD PUSH1 0xFF NOT AND SWAP1 SSTORE MLOAD CALLER SWAP3 DUP6 SWAP2 PUSH32 0xF6391F5C32D9C69D2A47EA670B442974B53935D1EDC7FD64EB21E047A839171B SWAP2 SWAP1 LOG4 POP POP JUMP JUMPDEST PUSH1 0x0 PUSH2 0x16DE DUP4 PUSH1 0x1 PUSH1 0x1 PUSH1 0xA0 SHL SUB DUP5 AND PUSH2 0x4F83 JUMP JUMPDEST PUSH1 0x40 DUP1 MLOAD PUSH1 0x1 PUSH1 0x1 PUSH1 0xA0 SHL SUB DUP6 DUP2 AND PUSH1 0x24 DUP4 ADD MSTORE DUP5 DUP2 AND PUSH1 0x44 DUP4 ADD MSTORE PUSH1 0x64 DUP1 DUP4 ADD DUP6 SWAP1 MSTORE DUP4 MLOAD DUP1 DUP5 SUB SWAP1 SWAP2 ADD DUP2 MSTORE PUSH1 0x84 SWAP1 SWAP3 ADD DUP4 MSTORE PUSH1 0x20 DUP3 ADD DUP1 MLOAD PUSH1 0x1 PUSH1 0x1 PUSH1 0xE0 SHL SUB AND PUSH4 0x23B872DD PUSH1 0xE0 SHL OR SWAP1 MSTORE SWAP2 MLOAD PUSH1 0x0 SWAP3 DUP4 SWAP3 SWAP1 DUP9 AND SWAP2 PUSH2 0x4C05 SWAP2 SWAP1 PUSH2 0x5EA4 JUMP JUMPDEST PUSH1 0x0 PUSH1 0x40 MLOAD DUP1 DUP4 SUB DUP2 PUSH1 0x0 DUP7 GAS CALL SWAP2 POP POP RETURNDATASIZE DUP1 PUSH1 0x0 DUP2 EQ PUSH2 0x4C42 JUMPI PUSH1 0x40 MLOAD SWAP2 POP PUSH1 0x1F NOT PUSH1 0x3F RETURNDATASIZE ADD AND DUP3 ADD PUSH1 0x40 MSTORE RETURNDATASIZE DUP3 MSTORE RETURNDATASIZE PUSH1 0x0 PUSH1 0x20 DUP5 ADD RETURNDATACOPY PUSH2 0x4C47 JUMP JUMPDEST PUSH1 0x60 SWAP2 POP JUMPDEST POP SWAP2 POP SWAP2 POP DUP2 DUP1 ISZERO PUSH2 0x4C71 JUMPI POP DUP1 MLOAD ISZERO DUP1 PUSH2 0x4C71 JUMPI POP DUP1 DUP1 PUSH1 0x20 ADD SWAP1 MLOAD DUP2 ADD SWAP1 PUSH2 0x4C71 SWAP2 SWAP1 PUSH2 0x5E05 JUMP JUMPDEST PUSH2 0x4C8E JUMPI PUSH1 0x40 MLOAD PUSH4 0x6050FE29 PUSH1 0xE0 SHL DUP2 MSTORE PUSH1 0x4 ADD PUSH1 0x40 MLOAD DUP1 SWAP2 SUB SWAP1 REVERT JUMPDEST POP POP POP POP POP POP JUMP JUMPDEST PUSH1 0x40 DUP1 MLOAD PUSH1 0x1 DUP1 DUP3 MSTORE DUP2 DUP4 ADD SWAP1 SWAP3 MSTORE PUSH1 0x60 SWAP2 PUSH1 0x0 SWAP2 SWAP1 PUSH1 0x20 DUP1 DUP4 ADD SWAP1 DUP1 CALLDATASIZE DUP4 CALLDATACOPY ADD SWAP1 POP POP SWAP1 POP DUP3 DUP2 PUSH1 0x0 DUP2 MLOAD DUP2 LT PUSH2 0x4CD0 JUMPI PUSH2 0x4CD0 PUSH2 0x5B29 JUMP JUMPDEST PUSH1 0x20 SWAP1 DUP2 MUL SWAP2 SWAP1 SWAP2 ADD ADD MSTORE SWAP3 SWAP2 POP POP JUMP JUMPDEST PUSH1 0x1 PUSH1 0x1 PUSH1 0xA0 SHL SUB DUP6 AND PUSH2 0x4D68 JUMPI PUSH1 0x0 JUMPDEST DUP4 MLOAD DUP2 LT ISZERO PUSH2 0x4D66 JUMPI DUP3 DUP2 DUP2 MLOAD DUP2 LT PUSH2 0x4D0D JUMPI PUSH2 0x4D0D PUSH2 0x5B29 JUMP JUMPDEST PUSH1 0x20 MUL PUSH1 0x20 ADD ADD MLOAD PUSH1 0x3 PUSH1 0x0 DUP7 DUP5 DUP2 MLOAD DUP2 LT PUSH2 0x4D2B JUMPI PUSH2 0x4D2B PUSH2 0x5B29 JUMP JUMPDEST PUSH1 0x20 MUL PUSH1 0x20 ADD ADD MLOAD DUP2 MSTORE PUSH1 0x20 ADD SWAP1 DUP2 MSTORE PUSH1 0x20 ADD PUSH1 0x0 KECCAK256 PUSH1 0x0 DUP3 DUP3 SLOAD PUSH2 0x4D50 SWAP2 SWAP1 PUSH2 0x5D0C JUMP JUMPDEST SWAP1 SWAP2 SSTORE POP PUSH2 0x4D5F SWAP1 POP DUP2 PUSH2 0x5B6C JUMP JUMPDEST SWAP1 POP PUSH2 0x4CF2 JUMP JUMPDEST POP JUMPDEST PUSH1 0x1 PUSH1 0x1 PUSH1 0xA0 SHL SUB DUP5 AND PUSH2 0x4C8E JUMPI PUSH1 0x0 JUMPDEST DUP4 MLOAD DUP2 LT ISZERO PUSH2 0xB46 JUMPI DUP3 DUP2 DUP2 MLOAD DUP2 LT PUSH2 0x4D94 JUMPI PUSH2 0x4D94 PUSH2 0x5B29 JUMP JUMPDEST PUSH1 0x20 MUL PUSH1 0x20 ADD ADD MLOAD PUSH1 0x3 PUSH1 0x0 DUP7 DUP5 DUP2 MLOAD DUP2 LT PUSH2 0x4DB2 JUMPI PUSH2 0x4DB2 PUSH2 0x5B29 JUMP JUMPDEST PUSH1 0x20 MUL PUSH1 0x20 ADD ADD MLOAD DUP2 MSTORE PUSH1 0x20 ADD SWAP1 DUP2 MSTORE PUSH1 0x20 ADD PUSH1 0x0 KECCAK256 PUSH1 0x0 DUP3 DUP3 SLOAD PUSH2 0x4DD7 SWAP2 SWAP1 PUSH2 0x5B55 JUMP JUMPDEST SWAP1 SWAP2 SSTORE POP PUSH2 0x4DE6 SWAP1 POP DUP2 PUSH2 0x5B6C JUMP JUMPDEST SWAP1 POP PUSH2 0x4D79 JUMP JUMPDEST DUP4 EXTCODESIZE ISZERO PUSH2 0x4C8E JUMPI PUSH1 0x40 MLOAD PUSH4 0xF23A6E61 PUSH1 0xE0 SHL DUP2 MSTORE PUSH1 0x1 PUSH1 0x1 PUSH1 0xA0 SHL SUB DUP6 AND SWAP1 PUSH4 0xF23A6E61 SWAP1 PUSH2 0x4E28 SWAP1 DUP10 SWAP1 DUP10 SWAP1 DUP9 SWAP1 DUP9 SWAP1 DUP9 SWAP1 PUSH1 0x4 ADD PUSH2 0x5EC0 JUMP JUMPDEST PUSH1 0x20 PUSH1 0x40 MLOAD DUP1 DUP4 SUB DUP2 PUSH1 0x0 DUP8 GAS CALL SWAP3 POP POP POP DUP1 ISZERO PUSH2 0x4E63 JUMPI POP PUSH1 0x40 DUP1 MLOAD PUSH1 0x1F RETURNDATASIZE SWAP1 DUP2 ADD PUSH1 0x1F NOT AND DUP3 ADD SWAP1 SWAP3 MSTORE PUSH2 0x4E60 SWAP2 DUP2 ADD SWAP1 PUSH2 0x5EFA JUMP JUMPDEST PUSH1 0x1 JUMPDEST PUSH2 0x4E80 JUMPI PUSH1 0x40 MLOAD PUSH4 0x22EA0359 PUSH1 0xE1 SHL DUP2 MSTORE PUSH1 0x4 ADD PUSH1 0x40 MLOAD DUP1 SWAP2 SUB SWAP1 REVERT JUMPDEST PUSH1 0x1 PUSH1 0x1 PUSH1 0xE0 SHL SUB NOT DUP2 AND PUSH4 0xF23A6E61 PUSH1 0xE0 SHL EQ PUSH2 0xB46 JUMPI PUSH1 0x40 MLOAD PUSH4 0x15D52937 PUSH1 0xE1 SHL DUP2 MSTORE PUSH1 0x4 ADD PUSH1 0x40 MLOAD DUP1 SWAP2 SUB SWAP1 REVERT JUMPDEST PUSH1 0x0 DUP1 PUSH2 0x4EBE DUP4 DUP8 PUSH2 0x5BD9 JUMP JUMPDEST SWAP1 POP PUSH1 0x0 DUP2 PUSH2 0x4ECF PUSH2 0x2710 DUP9 PUSH2 0x5BD9 JUMP JUMPDEST PUSH2 0x4ED9 SWAP2 SWAP1 PUSH2 0x5D0C JUMP JUMPDEST PUSH2 0x4EE3 DUP4 DUP8 PUSH2 0x5BD9 JUMP JUMPDEST PUSH2 0x1A4B SWAP2 SWAP1 PUSH2 0x5D70 JUMP JUMPDEST PUSH1 0x0 PUSH1 0x8 PUSH2 0x4EFD PUSH2 0x3840 TIMESTAMP PUSH2 0x5D70 JUMP JUMPDEST PUSH2 0x4F07 SWAP2 SWAP1 PUSH2 0x5E68 JUMP JUMPDEST SWAP1 POP SWAP1 JUMP JUMPDEST PUSH1 0x0 DUP3 PUSH1 0x0 ADD DUP3 DUP2 SLOAD DUP2 LT PUSH2 0x4F23 JUMPI PUSH2 0x4F23 PUSH2 0x5B29 JUMP JUMPDEST SWAP1 PUSH1 0x0 MSTORE PUSH1 0x20 PUSH1 0x0 KECCAK256 ADD SLOAD SWAP1 POP SWAP3 SWAP2 POP POP JUMP JUMPDEST PUSH1 0x0 DUP1 PUSH2 0x4F43 DUP7 DUP6 PUSH2 0x5B55 JUMP JUMPDEST PUSH2 0x4F4D SWAP1 DUP5 PUSH2 0x5BD9 JUMP JUMPDEST PUSH2 0x2710 PUSH2 0x4F5A DUP9 DUP9 PUSH2 0x5BD9 JUMP JUMPDEST PUSH2 0x4F64 SWAP2 SWAP1 PUSH2 0x5BD9 JUMP JUMPDEST PUSH2 0x4F6E SWAP2 SWAP1 PUSH2 0x5D70 JUMP JUMPDEST PUSH2 0x4F79 SWAP1 PUSH1 0x1 PUSH2 0x5D0C JUMP JUMPDEST SWAP7 SWAP6 POP POP POP POP POP POP JUMP JUMPDEST PUSH1 0x0 DUP2 DUP2 MSTORE PUSH1 0x1 DUP4 ADD PUSH1 0x20 MSTORE PUSH1 0x40 DUP2 KECCAK256 SLOAD DUP1 ISZERO PUSH2 0x506C JUMPI PUSH1 0x0 PUSH2 0x4FA7 PUSH1 0x1 DUP4 PUSH2 0x5B55 JUMP JUMPDEST DUP6 SLOAD SWAP1 SWAP2 POP PUSH1 0x0 SWAP1 PUSH2 0x4FBB SWAP1 PUSH1 0x1 SWAP1 PUSH2 0x5B55 JUMP JUMPDEST SWAP1 POP DUP2 DUP2 EQ PUSH2 0x5020 JUMPI PUSH1 0x0 DUP7 PUSH1 0x0 ADD DUP3 DUP2 SLOAD DUP2 LT PUSH2 0x4FDB JUMPI PUSH2 0x4FDB PUSH2 0x5B29 JUMP JUMPDEST SWAP1 PUSH1 0x0 MSTORE PUSH1 0x20 PUSH1 0x0 KECCAK256 ADD SLOAD SWAP1 POP DUP1 DUP8 PUSH1 0x0 ADD DUP5 DUP2 SLOAD DUP2 LT PUSH2 0x4FFE JUMPI PUSH2 0x4FFE PUSH2 0x5B29 JUMP JUMPDEST PUSH1 0x0 SWAP2 DUP3 MSTORE PUSH1 0x20 DUP1 DUP4 KECCAK256 SWAP1 SWAP2 ADD SWAP3 SWAP1 SWAP3 SSTORE SWAP2 DUP3 MSTORE PUSH1 0x1 DUP9 ADD SWAP1 MSTORE PUSH1 0x40 SWAP1 KECCAK256 DUP4 SWAP1 SSTORE JUMPDEST DUP6 SLOAD DUP7 SWAP1 DUP1 PUSH2 0x5031 JUMPI PUSH2 0x5031 PUSH2 0x5F17 JUMP JUMPDEST PUSH1 0x1 SWAP1 SUB DUP2 DUP2 SWAP1 PUSH1 0x0 MSTORE PUSH1 0x20 PUSH1 0x0 KECCAK256 ADD PUSH1 0x0 SWAP1 SSTORE SWAP1 SSTORE DUP6 PUSH1 0x1 ADD PUSH1 0x0 DUP7 DUP2 MSTORE PUSH1 0x20 ADD SWAP1 DUP2 MSTORE PUSH1 0x20 ADD PUSH1 0x0 KECCAK256 PUSH1 0x0 SWAP1 SSTORE PUSH1 0x1 SWAP4 POP POP POP POP PUSH2 0x9B1 JUMP JUMPDEST PUSH1 0x0 SWAP2 POP POP PUSH2 0x9B1 JUMP JUMPDEST PUSH1 0x40 MLOAD DUP1 PUSH1 0xA0 ADD PUSH1 0x40 MSTORE DUP1 PUSH2 0x5089 PUSH2 0x512F JUMP JUMPDEST DUP2 MSTORE PUSH1 0x0 PUSH1 0x20 DUP3 ADD DUP2 SWAP1 MSTORE PUSH1 0x40 DUP3 ADD DUP2 SWAP1 MSTORE PUSH1 0x60 DUP3 ADD DUP2 SWAP1 MSTORE PUSH1 0x80 SWAP1 SWAP2 ADD MSTORE SWAP1 JUMP JUMPDEST DUP3 DUP1 SLOAD PUSH2 0x50B7 SWAP1 PUSH2 0x5BA4 JUMP JUMPDEST SWAP1 PUSH1 0x0 MSTORE PUSH1 0x20 PUSH1 0x0 KECCAK256 SWAP1 PUSH1 0x1F ADD PUSH1 0x20 SWAP1 DIV DUP2 ADD SWAP3 DUP3 PUSH2 0x50D9 JUMPI PUSH1 0x0 DUP6 SSTORE PUSH2 0x511F JUMP JUMPDEST DUP3 PUSH1 0x1F LT PUSH2 0x50F2 JUMPI DUP1 MLOAD PUSH1 0xFF NOT AND DUP4 DUP1 ADD OR DUP6 SSTORE PUSH2 0x511F JUMP JUMPDEST DUP3 DUP1 ADD PUSH1 0x1 ADD DUP6 SSTORE DUP3 ISZERO PUSH2 0x511F JUMPI SWAP2 DUP3 ADD JUMPDEST DUP3 DUP2 GT ISZERO PUSH2 0x511F JUMPI DUP3 MLOAD DUP3 SSTORE SWAP2 PUSH1 0x20 ADD SWAP2 SWAP1 PUSH1 0x1 ADD SWAP1 PUSH2 0x5104 JUMP JUMPDEST POP PUSH2 0x512B SWAP3 SWAP2 POP PUSH2 0x51E1 JUMP JUMPDEST POP SWAP1 JUMP JUMPDEST PUSH1 0x40 MLOAD DUP1 PUSH2 0x100 ADD PUSH1 0x40 MSTORE DUP1 PUSH1 0x8 SWAP1 PUSH1 0x20 DUP3 MUL DUP1 CALLDATASIZE DUP4 CALLDATACOPY POP SWAP2 SWAP3 SWAP2 POP POP JUMP JUMPDEST PUSH1 0x1 DUP4 ADD SWAP2 DUP4 SWAP1 DUP3 ISZERO PUSH2 0x511F JUMPI SWAP2 PUSH1 0x20 MUL DUP3 ADD PUSH1 0x0 JUMPDEST DUP4 DUP3 GT ISZERO PUSH2 0x51A8 JUMPI DUP4 MLOAD DUP4 DUP3 PUSH2 0x100 EXP DUP2 SLOAD DUP2 PUSH4 0xFFFFFFFF MUL NOT AND SWAP1 DUP4 PUSH4 0xFFFFFFFF AND MUL OR SWAP1 SSTORE POP SWAP3 PUSH1 0x20 ADD SWAP3 PUSH1 0x4 ADD PUSH1 0x20 DUP2 PUSH1 0x3 ADD DIV SWAP3 DUP4 ADD SWAP3 PUSH1 0x1 SUB MUL PUSH2 0x5164 JUMP JUMPDEST DUP1 ISZERO PUSH2 0x51D8 JUMPI DUP3 DUP2 PUSH2 0x100 EXP DUP2 SLOAD SWAP1 PUSH4 0xFFFFFFFF MUL NOT AND SWAP1 SSTORE PUSH1 0x4 ADD PUSH1 0x20 DUP2 PUSH1 0x3 ADD DIV SWAP3 DUP4 ADD SWAP3 PUSH1 0x1 SUB MUL PUSH2 0x51A8 JUMP JUMPDEST POP POP PUSH2 0x512B SWAP3 SWAP2 POP JUMPDEST JUMPDEST DUP1 DUP3 GT ISZERO PUSH2 0x512B JUMPI PUSH1 0x0 DUP2 SSTORE PUSH1 0x1 ADD PUSH2 0x51E2 JUMP JUMPDEST PUSH1 0x1 PUSH1 0x1 PUSH1 0xA0 SHL SUB DUP2 AND DUP2 EQ PUSH2 0x233F JUMPI PUSH1 0x0 DUP1 REVERT JUMPDEST PUSH1 0x0 DUP1 PUSH1 0x40 DUP4 DUP6 SUB SLT ISZERO PUSH2 0x521E JUMPI PUSH1 0x0 DUP1 REVERT JUMPDEST DUP3 CALLDATALOAD PUSH2 0x5229 DUP2 PUSH2 0x51F6 JUMP JUMPDEST SWAP5 PUSH1 0x20 SWAP4 SWAP1 SWAP4 ADD CALLDATALOAD SWAP4 POP POP POP JUMP JUMPDEST PUSH1 0x1 PUSH1 0x1 PUSH1 0xE0 SHL SUB NOT DUP2 AND DUP2 EQ PUSH2 0x233F JUMPI PUSH1 0x0 DUP1 REVERT JUMPDEST PUSH1 0x0 PUSH1 0x20 DUP3 DUP5 SUB SLT ISZERO PUSH2 0x525F JUMPI PUSH1 0x0 DUP1 REVERT JUMPDEST DUP2 CALLDATALOAD PUSH2 0x16DE DUP2 PUSH2 0x5237 JUMP JUMPDEST PUSH1 0x0 PUSH1 0x20 DUP3 DUP5 SUB SLT ISZERO PUSH2 0x527C JUMPI PUSH1 0x0 DUP1 REVERT JUMPDEST DUP2 CALLDATALOAD PUSH2 0x16DE DUP2 PUSH2 0x51F6 JUMP JUMPDEST PUSH1 0x0 DUP1 PUSH1 0x20 DUP4 DUP6 SUB SLT ISZERO PUSH2 0x529A JUMPI PUSH1 0x0 DUP1 REVERT JUMPDEST DUP3 CALLDATALOAD PUSH1 0x1 PUSH1 0x1 PUSH1 0x40 SHL SUB DUP1 DUP3 GT ISZERO PUSH2 0x52B1 JUMPI PUSH1 0x0 DUP1 REVERT JUMPDEST DUP2 DUP6 ADD SWAP2 POP DUP6 PUSH1 0x1F DUP4 ADD SLT PUSH2 0x52C5 JUMPI PUSH1 0x0 DUP1 REVERT JUMPDEST DUP2 CALLDATALOAD DUP2 DUP2 GT ISZERO PUSH2 0x52D4 JUMPI PUSH1 0x0 DUP1 REVERT JUMPDEST DUP7 PUSH1 0x20 DUP3 PUSH1 0x6 SHL DUP6 ADD ADD GT ISZERO PUSH2 0x52E9 JUMPI PUSH1 0x0 DUP1 REVERT JUMPDEST PUSH1 0x20 SWAP3 SWAP1 SWAP3 ADD SWAP7 SWAP2 SWAP6 POP SWAP1 SWAP4 POP POP POP POP JUMP JUMPDEST PUSH1 0x0 PUSH1 0x20 DUP3 DUP5 SUB SLT ISZERO PUSH2 0x530D JUMPI PUSH1 0x0 DUP1 REVERT JUMPDEST POP CALLDATALOAD SWAP2 SWAP1 POP JUMP JUMPDEST PUSH1 0x0 JUMPDEST DUP4 DUP2 LT ISZERO PUSH2 0x532F JUMPI DUP2 DUP2 ADD MLOAD DUP4 DUP3 ADD MSTORE PUSH1 0x20 ADD PUSH2 0x5317 JUMP JUMPDEST DUP4 DUP2 GT ISZERO PUSH2 0xBC6 JUMPI POP POP PUSH1 0x0 SWAP2 ADD MSTORE JUMP JUMPDEST PUSH1 0x0 DUP2 MLOAD DUP1 DUP5 MSTORE PUSH2 0x5358 DUP2 PUSH1 0x20 DUP7 ADD PUSH1 0x20 DUP7 ADD PUSH2 0x5314 JUMP JUMPDEST PUSH1 0x1F ADD PUSH1 0x1F NOT AND SWAP3 SWAP1 SWAP3 ADD PUSH1 0x20 ADD SWAP3 SWAP2 POP POP JUMP JUMPDEST PUSH1 0x20 DUP2 MSTORE PUSH1 0x0 PUSH2 0x16DE PUSH1 0x20 DUP4 ADD DUP5 PUSH2 0x5340 JUMP JUMPDEST PUSH1 0x0 PUSH1 0xC0 DUP3 DUP5 SUB SLT ISZERO PUSH2 0x2C7F JUMPI PUSH1 0x0 DUP1 REVERT JUMPDEST PUSH4 0x4E487B71 PUSH1 0xE0 SHL PUSH1 0x0 MSTORE PUSH1 0x41 PUSH1 0x4 MSTORE PUSH1 0x24 PUSH1 0x0 REVERT JUMPDEST PUSH1 0x40 MLOAD PUSH1 0x1F DUP3 ADD PUSH1 0x1F NOT AND DUP2 ADD PUSH1 0x1 PUSH1 0x1 PUSH1 0x40 SHL SUB DUP2 GT DUP3 DUP3 LT OR ISZERO PUSH2 0x53CF JUMPI PUSH2 0x53CF PUSH2 0x5391 JUMP JUMPDEST PUSH1 0x40 MSTORE SWAP2 SWAP1 POP JUMP JUMPDEST PUSH1 0x0 PUSH1 0x1 PUSH1 0x1 PUSH1 0x40 SHL SUB DUP3 GT ISZERO PUSH2 0x53F0 JUMPI PUSH2 0x53F0 PUSH2 0x5391 JUMP JUMPDEST POP PUSH1 0x5 SHL PUSH1 0x20 ADD SWAP1 JUMP JUMPDEST PUSH1 0x0 DUP3 PUSH1 0x1F DUP4 ADD SLT PUSH2 0x540B JUMPI PUSH1 0x0 DUP1 REVERT JUMPDEST DUP2 CALLDATALOAD PUSH1 0x20 PUSH2 0x5420 PUSH2 0x541B DUP4 PUSH2 0x53D7 JUMP JUMPDEST PUSH2 0x53A7 JUMP JUMPDEST DUP3 DUP2 MSTORE PUSH1 0x5 SWAP3 SWAP1 SWAP3 SHL DUP5 ADD DUP2 ADD SWAP2 DUP2 DUP2 ADD SWAP1 DUP7 DUP5 GT ISZERO PUSH2 0x543F JUMPI PUSH1 0x0 DUP1 REVERT JUMPDEST DUP3 DUP7 ADD JUMPDEST DUP5 DUP2 LT ISZERO PUSH2 0x545A JUMPI DUP1 CALLDATALOAD DUP4 MSTORE SWAP2 DUP4 ADD SWAP2 DUP4 ADD PUSH2 0x5443 JUMP JUMPDEST POP SWAP7 SWAP6 POP POP POP POP POP POP JUMP JUMPDEST PUSH1 0x0 DUP3 PUSH1 0x1F DUP4 ADD SLT PUSH2 0x5476 JUMPI PUSH1 0x0 DUP1 REVERT JUMPDEST DUP2 CALLDATALOAD PUSH1 0x1 PUSH1 0x1 PUSH1 0x40 SHL SUB DUP2 GT ISZERO PUSH2 0x548F JUMPI PUSH2 0x548F PUSH2 0x5391 JUMP JUMPDEST PUSH2 0x54A2 PUSH1 0x1F DUP3 ADD PUSH1 0x1F NOT AND PUSH1 0x20 ADD PUSH2 0x53A7 JUMP JUMPDEST DUP2 DUP2 MSTORE DUP5 PUSH1 0x20 DUP4 DUP7 ADD ADD GT ISZERO PUSH2 0x54B7 JUMPI PUSH1 0x0 DUP1 REVERT JUMPDEST DUP2 PUSH1 0x20 DUP6 ADD PUSH1 0x20 DUP4 ADD CALLDATACOPY PUSH1 0x0 SWAP2 DUP2 ADD PUSH1 0x20 ADD SWAP2 SWAP1 SWAP2 MSTORE SWAP4 SWAP3 POP POP POP JUMP JUMPDEST PUSH1 0x0 DUP1 PUSH1 0x0 DUP1 PUSH1 0x0 PUSH1 0xA0 DUP7 DUP9 SUB SLT ISZERO PUSH2 0x54EC JUMPI PUSH1 0x0 DUP1 REVERT JUMPDEST DUP6 CALLDATALOAD PUSH2 0x54F7 DUP2 PUSH2 0x51F6 JUMP JUMPDEST SWAP5 POP PUSH1 0x20 DUP7 ADD CALLDATALOAD PUSH2 0x5507 DUP2 PUSH2 0x51F6 JUMP JUMPDEST SWAP4 POP PUSH1 0x40 DUP7 ADD CALLDATALOAD PUSH1 0x1 PUSH1 0x1 PUSH1 0x40 SHL SUB DUP1 DUP3 GT ISZERO PUSH2 0x5523 JUMPI PUSH1 0x0 DUP1 REVERT JUMPDEST PUSH2 0x552F DUP10 DUP4 DUP11 ADD PUSH2 0x53FA JUMP JUMPDEST SWAP5 POP PUSH1 0x60 DUP9 ADD CALLDATALOAD SWAP2 POP DUP1 DUP3 GT ISZERO PUSH2 0x5545 JUMPI PUSH1 0x0 DUP1 REVERT JUMPDEST PUSH2 0x5551 DUP10 DUP4 DUP11 ADD PUSH2 0x53FA JUMP JUMPDEST SWAP4 POP PUSH1 0x80 DUP9 ADD CALLDATALOAD SWAP2 POP DUP1 DUP3 GT ISZERO PUSH2 0x5567 JUMPI PUSH1 0x0 DUP1 REVERT JUMPDEST POP PUSH2 0x5574 DUP9 DUP3 DUP10 ADD PUSH2 0x5465 JUMP JUMPDEST SWAP2 POP POP SWAP3 SWAP6 POP SWAP3 SWAP6 SWAP1 SWAP4 POP JUMP JUMPDEST PUSH1 0x0 DUP1 PUSH1 0x40 DUP4 DUP6 SUB SLT ISZERO PUSH2 0x5594 JUMPI PUSH1 0x0 DUP1 REVERT JUMPDEST DUP3 CALLDATALOAD SWAP2 POP PUSH1 0x20 DUP4 ADD CALLDATALOAD PUSH2 0x55A6 DUP2 PUSH2 0x51F6 JUMP JUMPDEST DUP1 SWAP2 POP POP SWAP3 POP SWAP3 SWAP1 POP JUMP JUMPDEST PUSH1 0x0 DUP1 DUP4 PUSH1 0x1F DUP5 ADD SLT PUSH2 0x55C3 JUMPI PUSH1 0x0 DUP1 REVERT JUMPDEST POP DUP2 CALLDATALOAD PUSH1 0x1 PUSH1 0x1 PUSH1 0x40 SHL SUB DUP2 GT ISZERO PUSH2 0x55DA JUMPI PUSH1 0x0 DUP1 REVERT JUMPDEST PUSH1 0x20 DUP4 ADD SWAP2 POP DUP4 PUSH1 0x20 DUP3 PUSH1 0x5 SHL DUP6 ADD ADD GT ISZERO PUSH2 0x55F5 JUMPI PUSH1 0x0 DUP1 REVERT JUMPDEST SWAP3 POP SWAP3 SWAP1 POP JUMP JUMPDEST PUSH1 0x0 DUP1 PUSH1 0x20 DUP4 DUP6 SUB SLT ISZERO PUSH2 0x560F JUMPI PUSH1 0x0 DUP1 REVERT JUMPDEST DUP3 CALLDATALOAD PUSH1 0x1 PUSH1 0x1 PUSH1 0x40 SHL SUB DUP2 GT ISZERO PUSH2 0x5625 JUMPI PUSH1 0x0 DUP1 REVERT JUMPDEST PUSH2 0x5631 DUP6 DUP3 DUP7 ADD PUSH2 0x55B1 JUMP JUMPDEST SWAP1 SWAP7 SWAP1 SWAP6 POP SWAP4 POP POP POP POP JUMP JUMPDEST PUSH1 0x20 DUP1 DUP3 MSTORE DUP3 MLOAD DUP3 DUP3 ADD DUP2 SWAP1 MSTORE PUSH1 0x0 SWAP2 SWAP1 PUSH1 0x40 SWAP1 DUP2 DUP6 ADD SWAP1 DUP7 DUP5 ADD DUP6 DUP1 JUMPDEST DUP4 DUP2 LT ISZERO PUSH2 0x56DA JUMPI DUP3 MLOAD DUP1 MLOAD DUP7 DUP5 JUMPDEST PUSH1 0x8 DUP2 LT ISZERO PUSH2 0x568D JUMPI DUP3 MLOAD PUSH4 0xFFFFFFFF AND DUP3 MSTORE SWAP2 DUP11 ADD SWAP2 SWAP1 DUP11 ADD SWAP1 PUSH1 0x1 ADD PUSH2 0x566A JUMP JUMPDEST POP POP POP DUP8 DUP2 ADD MLOAD PUSH1 0x1 PUSH1 0x1 PUSH1 0x80 SHL SUB SWAP1 DUP2 AND PUSH2 0x100 DUP9 ADD MSTORE DUP8 DUP3 ADD MLOAD DUP2 AND PUSH2 0x120 DUP9 ADD MSTORE PUSH1 0x60 DUP3 ADD MLOAD AND PUSH2 0x140 DUP8 ADD MSTORE PUSH1 0x80 ADD MLOAD PUSH2 0x160 DUP7 ADD MSTORE PUSH2 0x180 SWAP1 SWAP5 ADD SWAP4 SWAP2 DUP7 ADD SWAP2 PUSH1 0x1 ADD PUSH2 0x565B JUMP JUMPDEST POP SWAP3 SWAP9 SWAP8 POP POP POP POP POP POP POP POP JUMP JUMPDEST PUSH1 0x0 DUP1 PUSH1 0x40 DUP4 DUP6 SUB SLT ISZERO PUSH2 0x56FB JUMPI PUSH1 0x0 DUP1 REVERT JUMPDEST DUP3 CALLDATALOAD PUSH1 0x1 PUSH1 0x1 PUSH1 0x40 SHL SUB DUP1 DUP3 GT ISZERO PUSH2 0x5712 JUMPI PUSH1 0x0 DUP1 REVERT JUMPDEST PUSH2 0x571E DUP7 DUP4 DUP8 ADD PUSH2 0x5465 JUMP JUMPDEST SWAP4 POP PUSH1 0x20 DUP6 ADD CALLDATALOAD SWAP2 POP DUP1 DUP3 GT ISZERO PUSH2 0x5734 JUMPI PUSH1 0x0 DUP1 REVERT JUMPDEST POP PUSH2 0x5741 DUP6 DUP3 DUP7 ADD PUSH2 0x5465 JUMP JUMPDEST SWAP2 POP POP SWAP3 POP SWAP3 SWAP1 POP JUMP JUMPDEST PUSH1 0x0 DUP1 PUSH1 0x0 DUP1 PUSH1 0x80 DUP6 DUP8 SUB SLT ISZERO PUSH2 0x5761 JUMPI PUSH1 0x0 DUP1 REVERT JUMPDEST DUP5 CALLDATALOAD PUSH2 0x576C DUP2 PUSH2 0x51F6 JUMP JUMPDEST SWAP4 POP PUSH1 0x20 DUP6 ADD CALLDATALOAD SWAP3 POP PUSH1 0x40 DUP6 ADD CALLDATALOAD SWAP2 POP PUSH1 0x60 DUP6 ADD CALLDATALOAD PUSH2 0x578A DUP2 PUSH2 0x51F6 JUMP JUMPDEST SWAP4 SWAP7 SWAP3 SWAP6 POP SWAP1 SWAP4 POP POP JUMP JUMPDEST PUSH1 0x0 DUP1 PUSH1 0x0 PUSH1 0x60 DUP5 DUP7 SUB SLT ISZERO PUSH2 0x57AA JUMPI PUSH1 0x0 DUP1 REVERT JUMPDEST DUP4 CALLDATALOAD PUSH2 0x57B5 DUP2 PUSH2 0x51F6 JUMP JUMPDEST SWAP3 POP PUSH1 0x20 DUP5 ADD CALLDATALOAD PUSH2 0x57C5 DUP2 PUSH2 0x51F6 JUMP JUMPDEST SWAP3 SWAP6 SWAP3 SWAP5 POP POP POP PUSH1 0x40 SWAP2 SWAP1 SWAP2 ADD CALLDATALOAD SWAP1 JUMP JUMPDEST PUSH1 0x0 DUP1 PUSH1 0x40 DUP4 DUP6 SUB SLT ISZERO PUSH2 0x57E9 JUMPI PUSH1 0x0 DUP1 REVERT JUMPDEST DUP3 CALLDATALOAD PUSH1 0x1 PUSH1 0x1 PUSH1 0x40 SHL SUB DUP1 DUP3 GT ISZERO PUSH2 0x5800 JUMPI PUSH1 0x0 DUP1 REVERT JUMPDEST DUP2 DUP6 ADD SWAP2 POP DUP6 PUSH1 0x1F DUP4 ADD SLT PUSH2 0x5814 JUMPI PUSH1 0x0 DUP1 REVERT JUMPDEST DUP2 CALLDATALOAD PUSH1 0x20 PUSH2 0x5824 PUSH2 0x541B DUP4 PUSH2 0x53D7 JUMP JUMPDEST DUP3 DUP2 MSTORE PUSH1 0x5 SWAP3 SWAP1 SWAP3 SHL DUP5 ADD DUP2 ADD SWAP2 DUP2 DUP2 ADD SWAP1 DUP10 DUP5 GT ISZERO PUSH2 0x5843 JUMPI PUSH1 0x0 DUP1 REVERT JUMPDEST SWAP5 DUP3 ADD SWAP5 JUMPDEST DUP4 DUP7 LT ISZERO PUSH2 0x586A JUMPI DUP6 CALLDATALOAD PUSH2 0x585B DUP2 PUSH2 0x51F6 JUMP JUMPDEST DUP3 MSTORE SWAP5 DUP3 ADD SWAP5 SWAP1 DUP3 ADD SWAP1 PUSH2 0x5848 JUMP JUMPDEST SWAP7 POP POP DUP7 ADD CALLDATALOAD SWAP3 POP POP DUP1 DUP3 GT ISZERO PUSH2 0x5880 JUMPI PUSH1 0x0 DUP1 REVERT JUMPDEST POP PUSH2 0x5741 DUP6 DUP3 DUP7 ADD PUSH2 0x53FA JUMP JUMPDEST PUSH1 0x20 DUP1 DUP3 MSTORE DUP3 MLOAD DUP3 DUP3 ADD DUP2 SWAP1 MSTORE PUSH1 0x0 SWAP2 SWAP1 DUP5 DUP3 ADD SWAP1 PUSH1 0x40 DUP6 ADD SWAP1 DUP5 JUMPDEST DUP2 DUP2 LT ISZERO PUSH2 0x58C5 JUMPI DUP4 MLOAD DUP4 MSTORE SWAP3 DUP5 ADD SWAP3 SWAP2 DUP5 ADD SWAP2 PUSH1 0x1 ADD PUSH2 0x58A9 JUMP JUMPDEST POP SWAP1 SWAP7 SWAP6 POP POP POP POP POP POP JUMP JUMPDEST PUSH1 0x0 DUP1 PUSH1 0x40 DUP4 DUP6 SUB SLT ISZERO PUSH2 0x58E4 JUMPI PUSH1 0x0 DUP1 REVERT JUMPDEST POP POP DUP1 CALLDATALOAD SWAP3 PUSH1 0x20 SWAP1 SWAP2 ADD CALLDATALOAD SWAP2 POP JUMP JUMPDEST DUP1 ISZERO ISZERO DUP2 EQ PUSH2 0x233F JUMPI PUSH1 0x0 DUP1 REVERT JUMPDEST PUSH1 0x0 DUP1 PUSH1 0x40 DUP4 DUP6 SUB SLT ISZERO PUSH2 0x5914 JUMPI PUSH1 0x0 DUP1 REVERT JUMPDEST DUP3 CALLDATALOAD PUSH2 0x591F DUP2 PUSH2 0x51F6 JUMP JUMPDEST SWAP2 POP PUSH1 0x20 DUP4 ADD CALLDATALOAD PUSH2 0x55A6 DUP2 PUSH2 0x58F3 JUMP JUMPDEST PUSH1 0x0 DUP1 PUSH1 0x0 DUP1 PUSH1 0x0 DUP1 PUSH1 0xC0 DUP8 DUP10 SUB SLT ISZERO PUSH2 0x5948 JUMPI PUSH1 0x0 DUP1 REVERT JUMPDEST DUP7 CALLDATALOAD PUSH2 0x5953 DUP2 PUSH2 0x51F6 JUMP JUMPDEST SWAP6 POP PUSH1 0x20 DUP8 ADD CALLDATALOAD PUSH2 0x5963 DUP2 PUSH2 0x51F6 JUMP JUMPDEST SWAP5 POP PUSH1 0x40 DUP8 ADD CALLDATALOAD SWAP4 POP PUSH1 0x60 DUP8 ADD CALLDATALOAD SWAP3 POP PUSH1 0x80 DUP8 ADD CALLDATALOAD SWAP2 POP PUSH1 0xA0 DUP8 ADD CALLDATALOAD PUSH2 0x5988 DUP2 PUSH2 0x51F6 JUMP JUMPDEST DUP1 SWAP2 POP POP SWAP3 SWAP6 POP SWAP3 SWAP6 POP SWAP3 SWAP6 JUMP JUMPDEST PUSH1 0x0 PUSH1 0x20 DUP3 DUP5 SUB SLT ISZERO PUSH2 0x59A8 JUMPI PUSH1 0x0 DUP1 REVERT JUMPDEST DUP2 CALLDATALOAD PUSH1 0x1 PUSH1 0x1 PUSH1 0x40 SHL SUB DUP2 GT ISZERO PUSH2 0x59BE JUMPI PUSH1 0x0 DUP1 REVERT JUMPDEST PUSH2 0x59CA DUP5 DUP3 DUP6 ADD PUSH2 0x5465 JUMP JUMPDEST SWAP5 SWAP4 POP POP POP POP JUMP JUMPDEST PUSH1 0x0 DUP1 PUSH1 0x40 DUP4 DUP6 SUB SLT ISZERO PUSH2 0x59E5 JUMPI PUSH1 0x0 DUP1 REVERT JUMPDEST DUP3 CALLDATALOAD PUSH2 0x59F0 DUP2 PUSH2 0x51F6 JUMP JUMPDEST SWAP2 POP PUSH1 0x20 DUP4 ADD CALLDATALOAD PUSH2 0x55A6 DUP2 PUSH2 0x51F6 JUMP JUMPDEST PUSH1 0x0 DUP1 PUSH1 0x0 DUP1 PUSH1 0x0 PUSH1 0xA0 DUP7 DUP9 SUB SLT ISZERO PUSH2 0x5A18 JUMPI PUSH1 0x0 DUP1 REVERT JUMPDEST DUP6 CALLDATALOAD PUSH2 0x5A23 DUP2 PUSH2 0x51F6 JUMP JUMPDEST SWAP5 POP PUSH1 0x20 DUP7 ADD CALLDATALOAD PUSH2 0x5A33 DUP2 PUSH2 0x51F6 JUMP JUMPDEST SWAP4 POP PUSH1 0x40 DUP7 ADD CALLDATALOAD PUSH2 0x5A43 DUP2 PUSH2 0x51F6 JUMP JUMPDEST SWAP3 POP PUSH1 0x60 DUP7 ADD CALLDATALOAD PUSH2 0x5A53 DUP2 PUSH2 0x51F6 JUMP JUMPDEST SWAP2 POP PUSH1 0x80 DUP7 ADD CALLDATALOAD PUSH2 0x5A63 DUP2 PUSH2 0x51F6 JUMP JUMPDEST DUP1 SWAP2 POP POP SWAP3 SWAP6 POP SWAP3 SWAP6 SWAP1 SWAP4 POP JUMP JUMPDEST PUSH1 0x0 DUP1 PUSH1 0x0 DUP1 PUSH1 0x0 PUSH1 0xA0 DUP7 DUP9 SUB SLT ISZERO PUSH2 0x5A89 JUMPI PUSH1 0x0 DUP1 REVERT JUMPDEST DUP6 CALLDATALOAD PUSH2 0x5A94 DUP2 PUSH2 0x51F6 JUMP JUMPDEST SWAP5 POP PUSH1 0x20 DUP7 ADD CALLDATALOAD PUSH2 0x5AA4 DUP2 PUSH2 0x51F6 JUMP JUMPDEST SWAP4 POP PUSH1 0x40 DUP7 ADD CALLDATALOAD SWAP3 POP PUSH1 0x60 DUP7 ADD CALLDATALOAD SWAP2 POP PUSH1 0x80 DUP7 ADD CALLDATALOAD PUSH1 0x1 PUSH1 0x1 PUSH1 0x40 SHL SUB DUP2 GT ISZERO PUSH2 0x5ACD JUMPI PUSH1 0x0 DUP1 REVERT JUMPDEST PUSH2 0x5574 DUP9 DUP3 DUP10 ADD PUSH2 0x5465 JUMP JUMPDEST PUSH1 0x0 DUP1 PUSH1 0x0 PUSH1 0x60 DUP5 DUP7 SUB SLT ISZERO PUSH2 0x5AEE JUMPI PUSH1 0x0 DUP1 REVERT JUMPDEST DUP4 CALLDATALOAD PUSH2 0x5AF9 DUP2 PUSH2 0x51F6 JUMP JUMPDEST SWAP6 PUSH1 0x20 DUP6 ADD CALLDATALOAD SWAP6 POP PUSH1 0x40 SWAP1 SWAP5 ADD CALLDATALOAD SWAP4 SWAP3 POP POP POP JUMP JUMPDEST PUSH1 0x20 DUP1 DUP3 MSTORE PUSH1 0x1 SWAP1 DUP3 ADD MSTORE PUSH1 0x43 PUSH1 0xF8 SHL PUSH1 0x40 DUP3 ADD MSTORE PUSH1 0x60 ADD SWAP1 JUMP JUMPDEST PUSH4 0x4E487B71 PUSH1 0xE0 SHL PUSH1 0x0 MSTORE PUSH1 0x32 PUSH1 0x4 MSTORE PUSH1 0x24 PUSH1 0x0 REVERT JUMPDEST PUSH4 0x4E487B71 PUSH1 0xE0 SHL PUSH1 0x0 MSTORE PUSH1 0x11 PUSH1 0x4 MSTORE PUSH1 0x24 PUSH1 0x0 REVERT JUMPDEST PUSH1 0x0 DUP3 DUP3 LT ISZERO PUSH2 0x5B67 JUMPI PUSH2 0x5B67 PUSH2 0x5B3F JUMP JUMPDEST POP SUB SWAP1 JUMP JUMPDEST PUSH1 0x0 PUSH1 0x0 NOT DUP3 EQ ISZERO PUSH2 0x5B80 JUMPI PUSH2 0x5B80 PUSH2 0x5B3F JUMP JUMPDEST POP PUSH1 0x1 ADD SWAP1 JUMP JUMPDEST PUSH1 0x0 PUSH1 0x20 DUP3 DUP5 SUB SLT ISZERO PUSH2 0x5B99 JUMPI PUSH1 0x0 DUP1 REVERT JUMPDEST DUP2 MLOAD PUSH2 0x16DE DUP2 PUSH2 0x51F6 JUMP JUMPDEST PUSH1 0x1 DUP2 DUP2 SHR SWAP1 DUP3 AND DUP1 PUSH2 0x5BB8 JUMPI PUSH1 0x7F DUP3 AND SWAP2 POP JUMPDEST PUSH1 0x20 DUP3 LT DUP2 EQ ISZERO PUSH2 0x2C7F JUMPI PUSH4 0x4E487B71 PUSH1 0xE0 SHL PUSH1 0x0 MSTORE PUSH1 0x22 PUSH1 0x4 MSTORE PUSH1 0x24 PUSH1 0x0 REVERT JUMPDEST PUSH1 0x0 DUP2 PUSH1 0x0 NOT DIV DUP4 GT DUP3 ISZERO ISZERO AND ISZERO PUSH2 0x5BF3 JUMPI PUSH2 0x5BF3 PUSH2 0x5B3F JUMP JUMPDEST POP MUL SWAP1 JUMP JUMPDEST DUP2 CALLDATALOAD PUSH2 0x5C03 DUP2 PUSH2 0x51F6 JUMP JUMPDEST DUP2 SLOAD PUSH1 0x1 PUSH1 0x1 PUSH1 0xA0 SHL SUB NOT AND PUSH1 0x1 PUSH1 0x1 PUSH1 0xA0 SHL SUB SWAP2 SWAP1 SWAP2 AND OR DUP2 SSTORE PUSH1 0x20 DUP3 ADD CALLDATALOAD PUSH1 0x1 DUP3 ADD SSTORE PUSH1 0x40 DUP3 ADD CALLDATALOAD PUSH1 0x2 DUP3 ADD SSTORE PUSH1 0x60 DUP3 ADD CALLDATALOAD PUSH1 0x3 DUP3 ADD SSTORE PUSH1 0x80 DUP3 ADD CALLDATALOAD PUSH1 0x4 DUP3 ADD SSTORE PUSH1 0xA0 SWAP2 SWAP1 SWAP2 ADD CALLDATALOAD PUSH1 0x5 SWAP1 SWAP2 ADD SSTORE JUMP JUMPDEST PUSH1 0x0 DUP1 DUP5 SLOAD DUP2 PUSH1 0x1 DUP3 DUP2 SHR SWAP2 POP DUP1 DUP4 AND DUP1 PUSH2 0x5C71 JUMPI PUSH1 0x7F DUP4 AND SWAP3 POP JUMPDEST PUSH1 0x20 DUP1 DUP5 LT DUP3 EQ ISZERO PUSH2 0x5C91 JUMPI PUSH4 0x4E487B71 PUSH1 0xE0 SHL DUP7 MSTORE PUSH1 0x22 PUSH1 0x4 MSTORE PUSH1 0x24 DUP7 REVERT JUMPDEST DUP2 DUP1 ISZERO PUSH2 0x5CA5 JUMPI PUSH1 0x1 DUP2 EQ PUSH2 0x5CB6 JUMPI PUSH2 0x5CE3 JUMP JUMPDEST PUSH1 0xFF NOT DUP7 AND DUP10 MSTORE DUP5 DUP10 ADD SWAP7 POP PUSH2 0x5CE3 JUMP JUMPDEST PUSH1 0x0 DUP12 DUP2 MSTORE PUSH1 0x20 SWAP1 KECCAK256 PUSH1 0x0 JUMPDEST DUP7 DUP2 LT ISZERO PUSH2 0x5CDB JUMPI DUP2 SLOAD DUP12 DUP3 ADD MSTORE SWAP1 DUP6 ADD SWAP1 DUP4 ADD PUSH2 0x5CC2 JUMP JUMPDEST POP POP DUP5 DUP10 ADD SWAP7 POP JUMPDEST POP DUP9 DUP7 MSTORE PUSH2 0x5CFE DUP2 DUP8 ADD PUSH5 0x173539B7B7 PUSH1 0xD9 SHL DUP2 MSTORE PUSH1 0x5 ADD SWAP1 JUMP JUMPDEST SWAP11 SWAP10 POP POP POP POP POP POP POP POP POP POP JUMP JUMPDEST PUSH1 0x0 DUP3 NOT DUP3 GT ISZERO PUSH2 0x5D1F JUMPI PUSH2 0x5D1F PUSH2 0x5B3F JUMP JUMPDEST POP ADD SWAP1 JUMP JUMPDEST PUSH1 0x20 DUP1 DUP3 MSTORE PUSH1 0x1 SWAP1 DUP3 ADD MSTORE PUSH1 0x11 PUSH1 0xFA SHL PUSH1 0x40 DUP3 ADD MSTORE PUSH1 0x60 ADD SWAP1 JUMP JUMPDEST PUSH1 0x20 DUP1 DUP3 MSTORE PUSH1 0x1 SWAP1 DUP3 ADD MSTORE PUSH1 0x23 PUSH1 0xF9 SHL PUSH1 0x40 DUP3 ADD MSTORE PUSH1 0x60 ADD SWAP1 JUMP JUMPDEST PUSH4 0x4E487B71 PUSH1 0xE0 SHL PUSH1 0x0 MSTORE PUSH1 0x12 PUSH1 0x4 MSTORE PUSH1 0x24 PUSH1 0x0 REVERT JUMPDEST PUSH1 0x0 DUP3 PUSH2 0x5D7F JUMPI PUSH2 0x5D7F PUSH2 0x5D5A JUMP JUMPDEST POP DIV SWAP1 JUMP JUMPDEST PUSH1 0x0 PUSH1 0x1 PUSH1 0x1 PUSH1 0x80 SHL SUB DUP1 DUP4 AND DUP2 DUP6 AND DUP1 DUP4 SUB DUP3 GT ISZERO PUSH2 0x5DA6 JUMPI PUSH2 0x5DA6 PUSH2 0x5B3F JUMP JUMPDEST ADD SWAP5 SWAP4 POP POP POP POP JUMP JUMPDEST PUSH1 0x1 PUSH1 0x1 PUSH1 0xA0 SHL SUB SWAP5 SWAP1 SWAP5 AND DUP5 MSTORE PUSH1 0x20 DUP5 ADD SWAP3 SWAP1 SWAP3 MSTORE PUSH1 0x40 DUP4 ADD MSTORE PUSH1 0x60 DUP3 ADD MSTORE PUSH1 0x80 ADD SWAP1 JUMP JUMPDEST PUSH1 0x1 PUSH1 0x1 PUSH1 0xA0 SHL SUB SWAP5 SWAP1 SWAP5 AND DUP5 MSTORE PUSH1 0x1 PUSH1 0x1 PUSH1 0x80 SHL SUB SWAP3 DUP4 AND PUSH1 0x20 DUP6 ADD MSTORE SWAP2 AND PUSH1 0x40 DUP4 ADD MSTORE PUSH1 0x60 DUP3 ADD MSTORE PUSH1 0x80 ADD SWAP1 JUMP JUMPDEST PUSH1 0x0 PUSH1 0x20 DUP3 DUP5 SUB SLT ISZERO PUSH2 0x5E17 JUMPI PUSH1 0x0 DUP1 REVERT JUMPDEST DUP2 MLOAD PUSH2 0x16DE DUP2 PUSH2 0x58F3 JUMP JUMPDEST PUSH1 0x0 DUP3 MLOAD PUSH2 0x5E34 DUP2 DUP5 PUSH1 0x20 DUP8 ADD PUSH2 0x5314 JUMP JUMPDEST PUSH9 0x3DB4B23E973539B7B7 PUSH1 0xB9 SHL SWAP3 ADD SWAP2 DUP3 MSTORE POP PUSH1 0x9 ADD SWAP2 SWAP1 POP JUMP JUMPDEST PUSH1 0x0 PUSH1 0x20 DUP3 DUP5 SUB SLT ISZERO PUSH2 0x5E61 JUMPI PUSH1 0x0 DUP1 REVERT JUMPDEST POP MLOAD SWAP2 SWAP1 POP JUMP JUMPDEST PUSH1 0x0 DUP3 PUSH2 0x5E77 JUMPI PUSH2 0x5E77 PUSH2 0x5D5A JUMP JUMPDEST POP MOD SWAP1 JUMP JUMPDEST PUSH1 0x0 PUSH1 0x1 PUSH1 0x1 PUSH1 0x80 SHL SUB DUP4 DUP2 AND SWAP1 DUP4 AND DUP2 DUP2 LT ISZERO PUSH2 0x5E9C JUMPI PUSH2 0x5E9C PUSH2 0x5B3F JUMP JUMPDEST SUB SWAP4 SWAP3 POP POP POP JUMP JUMPDEST PUSH1 0x0 DUP3 MLOAD PUSH2 0x5EB6 DUP2 DUP5 PUSH1 0x20 DUP8 ADD PUSH2 0x5314 JUMP JUMPDEST SWAP2 SWAP1 SWAP2 ADD SWAP3 SWAP2 POP POP JUMP JUMPDEST PUSH1 0x1 PUSH1 0x1 PUSH1 0xA0 SHL SUB DUP7 DUP2 AND DUP3 MSTORE DUP6 AND PUSH1 0x20 DUP3 ADD MSTORE PUSH1 0x40 DUP2 ADD DUP5 SWAP1 MSTORE PUSH1 0x60 DUP2 ADD DUP4 SWAP1 MSTORE PUSH1 0xA0 PUSH1 0x80 DUP3 ADD DUP2 SWAP1 MSTORE PUSH1 0x0 SWAP1 PUSH2 0x1A4B SWAP1 DUP4 ADD DUP5 PUSH2 0x5340 JUMP JUMPDEST PUSH1 0x0 PUSH1 0x20 DUP3 DUP5 SUB SLT ISZERO PUSH2 0x5F0C JUMPI PUSH1 0x0 DUP1 REVERT JUMPDEST DUP2 MLOAD PUSH2 0x16DE DUP2 PUSH2 0x5237 JUMP JUMPDEST PUSH4 0x4E487B71 PUSH1 0xE0 SHL PUSH1 0x0 MSTORE PUSH1 0x31 PUSH1 0x4 MSTORE PUSH1 0x24 PUSH1 0x0 REVERT INVALID MLOAD 0xAB SLT ORIGIN 0xA7 EXTCODESIZE DUP3 0xB6 0xB0 0xAC 0xB0 STATICCALL SWAP2 0xB8 CALLVALUE 0xCF PUSH15 0x258A1858C4E23C72CE97241C71AA0D LOG2 PUSH5 0x6970667358 0x22 SLT KECCAK256 DUP12 REVERT PUSH2 0x54ED 0xF9 0xEC 0xAC RETURN PUSH4 0xA4EB0083 EXTCODECOPY 0x29 0xEF BALANCE 0xAF BYTE SSTORE PUSH2 0x1A5E 0x4D TIMESTAMP 0xED PUSH32 0xB81356BC64736F6C634300080B003368747470733A2F2F646174612E63657262 PUSH26 0x2E66692F4365726279537761702F76312F000000000000000000 "
		},
		"gasEstimates": {
			"creation": {
				"codeDepositCost": "4890200",
				"executionCost": "infinite",
				"totalCost": "infinite"
			},
			"external": {
				"ROLE_ADMIN()": "317",
				"addTokenLiquidity(address,uint256,uint256,address)": "infinite",
				"adminChangeCerUsdCreditInPool(address,uint256)": "infinite",
				"adminCreatePool(address,uint256,uint256,address)": "infinite",
				"adminInitialize()": "infinite",
				"adminSetURI(string)": "infinite",
				"adminUpdateFeesAndTvlMultipliers((address,uint256,uint256,uint256,uint256,uint256))": "137889",
				"adminUpdateNameAndSymbol(string,string)": "infinite",
				"balanceOf(address,uint256)": "2717",
				"balanceOfBatch(address[],uint256[])": "infinite",
				"burn(address,uint256,uint256)": "infinite",
				"createPool(address,uint256,uint256,address)": "infinite",
				"decimals()": "227",
				"exists(uint256)": "2539",
				"getCurrentOneMinusFeeBasedOnTrades(address)": "infinite",
				"getInputTokensForExactTokens(address,address,uint256)": "infinite",
				"getOutputExactTokensForTokens(address,address,uint256)": "infinite",
				"getPoolsByIds(uint256[])": "infinite",
				"getPoolsByTokens(address[])": "infinite",
				"getRoleAdmin(bytes32)": "2545",
				"getRoleMember(bytes32,uint256)": "infinite",
				"getRoleMemberCount(bytes32)": "infinite",
				"getTokenToPoolId(address)": "2653",
				"getUtilsContractAtPos(uint256)": "infinite",
				"grantRole(bytes32,address)": "infinite",
				"grantRolesBulk((bytes32,address)[])": "infinite",
				"hasRole(bytes32,address)": "2776",
				"increaseCerUsdCreditInPool(address,uint256)": "infinite",
				"isApprovedForAll(address,address)": "infinite",
				"lowLevelSwap(address,uint256,uint256,address)": "infinite",
				"name()": "infinite",
				"removeTokenLiquidity(address,uint256,uint256,address)": "infinite",
				"renounceRole(bytes32,address)": "infinite",
				"revokeRole(bytes32,address)": "infinite",
				"safeBatchTransferFrom(address,address,uint256[],uint256[],bytes)": "infinite",
				"safeTransferFrom(address,address,uint256,uint256,bytes)": "infinite",
				"setApprovalForAll(address,bool)": "infinite",
				"settings()": "13052",
				"skimPool(address)": "infinite",
				"supportsInterface(bytes4)": "infinite",
				"swapExactTokensForTokens(address,address,uint256,uint256,uint256,address)": "infinite",
				"swapTokensForExactTokens(address,address,uint256,uint256,uint256,address)": "infinite",
				"symbol()": "infinite",
				"syncTokenBalanceInPool(address)": "infinite",
				"testInit()": "infinite",
				"testSetupTokens(address,address,address,address,address)": "infinite",
				"totalSupply()": "infinite",
				"totalSupply(uint256)": "2582",
				"uri(uint256)": "infinite"
			},
			"internal": {
				"_createPool(address,uint256,uint256,uint256,address)": "infinite",
				"_getInput(uint256,uint256,uint256,uint256)": "infinite",
				"_getMintFeeLiquidityAmount(uint256,uint256,uint256)": "infinite",
				"_getOutput(uint256,uint256,uint256,uint256)": "infinite",
				"_getTokenBalance(address)": "infinite",
				"_removeTokenLiquidity(address,uint256,address)": "infinite",
				"_safeTransferFrom(address,address,address,uint256)": "infinite",
				"_safeTransferFromHelper(address,address,uint256)": "infinite",
				"_safeTransferHelper(address,address,uint256,bool)": "infinite",
				"_safeTransferNative(address,uint256)": "infinite",
				"_safeTransferToken(address,address,uint256)": "infinite",
				"_swap(address,uint256,uint256,address)": "infinite",
				"getCurrentOneMinusFeeBasedOnTrades(uint256)": "infinite",
				"getCurrentPeriod()": "142",
				"getInputCerUsdForExactTokens(address,uint256)": "infinite",
				"getInputTokensForExactCerUsd(address,uint256)": "infinite",
				"getOutputExactCerUsdForTokens(address,uint256)": "infinite",
				"getOutputExactTokensForCerUsd(address,uint256)": "infinite",
				"sqrt(uint256)": "infinite"
			}
		},
		"methodIdentifiers": {
			"ROLE_ADMIN()": "d391014b",
			"addTokenLiquidity(address,uint256,uint256,address)": "43fefad4",
			"adminChangeCerUsdCreditInPool(address,uint256)": "cab4ba82",
			"adminCreatePool(address,uint256,uint256,address)": "d5d60737",
			"adminInitialize()": "c09c923b",
			"adminSetURI(string)": "a7fd40bf",
			"adminUpdateFeesAndTvlMultipliers((address,uint256,uint256,uint256,uint256,uint256))": "0c2e075b",
			"adminUpdateNameAndSymbol(string,string)": "3935ac11",
			"balanceOf(address,uint256)": "00fdd58e",
			"balanceOfBatch(address[],uint256[])": "4e1273f4",
			"burn(address,uint256,uint256)": "f5298aca",
			"createPool(address,uint256,uint256,address)": "842980f4",
			"decimals()": "313ce567",
			"exists(uint256)": "4f558e79",
			"getCurrentOneMinusFeeBasedOnTrades(address)": "4c3c0eb2",
			"getInputTokensForExactTokens(address,address,uint256)": "c790985a",
			"getOutputExactTokensForTokens(address,address,uint256)": "48b08d62",
			"getPoolsByIds(uint256[])": "a6d8ad39",
			"getPoolsByTokens(address[])": "34e150ab",
			"getRoleAdmin(bytes32)": "248a9ca3",
			"getRoleMember(bytes32,uint256)": "9010d07c",
			"getRoleMemberCount(bytes32)": "ca15c873",
			"getTokenToPoolId(address)": "61417516",
			"getUtilsContractAtPos(uint256)": "06fb1a07",
			"grantRole(bytes32,address)": "2f2ff15d",
			"grantRolesBulk((bytes32,address)[])": "03ed957f",
			"hasRole(bytes32,address)": "91d14854",
			"increaseCerUsdCreditInPool(address,uint256)": "71858049",
			"isApprovedForAll(address,address)": "e985e9c5",
			"lowLevelSwap(address,uint256,uint256,address)": "5c41dbe0",
			"name()": "06fdde03",
			"removeTokenLiquidity(address,uint256,uint256,address)": "74fcf071",
			"renounceRole(bytes32,address)": "36568abe",
			"revokeRole(bytes32,address)": "d547741f",
			"safeBatchTransferFrom(address,address,uint256[],uint256[],bytes)": "2eb2c2d6",
			"safeTransferFrom(address,address,uint256,uint256,bytes)": "f242432a",
			"setApprovalForAll(address,bool)": "a22cb465",
			"settings()": "e06174e4",
			"skimPool(address)": "03d604bd",
			"supportsInterface(bytes4)": "01ffc9a7",
			"swapExactTokensForTokens(address,address,uint256,uint256,uint256,address)": "a60c6e55",
			"swapTokensForExactTokens(address,address,uint256,uint256,uint256,address)": "f6524724",
			"symbol()": "95d89b41",
			"syncTokenBalanceInPool(address)": "9bc731fc",
			"testInit()": "b5d11e99",
			"testSetupTokens(address,address,address,address,address)": "eca01093",
			"totalSupply()": "18160ddd",
			"totalSupply(uint256)": "bd85b039",
			"uri(uint256)": "0e89341c"
		}
	},
	"abi": [
		{
			"inputs": [],
			"stateMutability": "nonpayable",
			"type": "constructor"
		},
		{
			"inputs": [
				{
					"internalType": "address",
					"name": "account",
					"type": "address"
				},
				{
					"internalType": "bytes32",
					"name": "role",
					"type": "bytes32"
				}
			],
			"name": "AccountIsMissingRole",
			"type": "error"
		},
		{
			"inputs": [],
			"name": "CanOnlyRenounceRoleForSelf",
			"type": "error"
		},
		{
			"inputs": [],
			"name": "CerbyCronJobsExecution_TransactionsAreTemporarilyDisabled",
			"type": "error"
		},
		{
			"inputs": [],
			"name": "CerbySwapLP1155V1_CallerIsNotOwnerNorApproved",
			"type": "error"
		},
		{
			"inputs": [],
			"name": "CerbySwapLP1155V1_TransactionsAreTemporarilyDisabled",
			"type": "error"
		},
		{
			"inputs": [],
			"name": "CerbySwapV1_AmountOfCerUsdMustBeLargerThanOne",
			"type": "error"
		},
		{
			"inputs": [],
			"name": "CerbySwapV1_AmountOfCerUsdOrTokensInMustBeLargerThanOne",
			"type": "error"
		},
		{
			"inputs": [],
			"name": "CerbySwapV1_AmountOfTokensMustBeLargerThanOne",
			"type": "error"
		},
		{
			"inputs": [],
			"name": "CerbySwapV1_CreditCerUsdIsOverflown",
			"type": "error"
		},
		{
			"inputs": [],
			"name": "CerbySwapV1_CreditCerUsdMustNotBeBelowZero",
			"type": "error"
		},
		{
			"inputs": [],
			"name": "CerbySwapV1_FeeIsWrong",
			"type": "error"
		},
		{
			"inputs": [],
			"name": "CerbySwapV1_FeeOnTransferTokensArentSupported",
			"type": "error"
		},
		{
			"inputs": [],
			"name": "CerbySwapV1_InputCerUsdAmountIsLargerThanMaximumSpecified",
			"type": "error"
		},
		{
			"inputs": [],
			"name": "CerbySwapV1_InputTokensAmountIsLargerThanMaximumSpecified",
			"type": "error"
		},
		{
			"inputs": [],
			"name": "CerbySwapV1_InvariantKValueMustBeSameOrIncreasedOnAnySwaps",
			"type": "error"
		},
		{
			"inputs": [],
			"name": "CerbySwapV1_MintFeeMultiplierMustNotBeLargerThan50Percent",
			"type": "error"
		},
		{
			"inputs": [],
			"name": "CerbySwapV1_MsgValueProvidedMustBeLargerThanAmountIn",
			"type": "error"
		},
		{
			"inputs": [],
			"name": "CerbySwapV1_MsgValueProvidedMustBeZero",
			"type": "error"
		},
		{
			"inputs": [],
			"name": "CerbySwapV1_OutputCerUsdAmountIsLowerThanMinimumSpecified",
			"type": "error"
		},
		{
			"inputs": [],
			"name": "CerbySwapV1_OutputTokensAmountIsLowerThanMinimumSpecified",
			"type": "error"
		},
		{
			"inputs": [],
			"name": "CerbySwapV1_SafeTransferFromFailed",
			"type": "error"
		},
		{
			"inputs": [],
			"name": "CerbySwapV1_SafeTransferNativeFailed",
			"type": "error"
		},
		{
			"inputs": [],
			"name": "CerbySwapV1_SafeTransferTokensFailed",
			"type": "error"
		},
		{
			"inputs": [],
			"name": "CerbySwapV1_SwappingTokenToSameTokenIsForbidden",
			"type": "error"
		},
		{
			"inputs": [],
			"name": "CerbySwapV1_TokenAlreadyExists",
			"type": "error"
		},
		{
			"inputs": [],
			"name": "CerbySwapV1_TokenDoesNotExist",
			"type": "error"
		},
		{
			"inputs": [],
			"name": "CerbySwapV1_TransactionIsExpired",
			"type": "error"
		},
		{
			"inputs": [],
			"name": "CerbySwapV1_TvlMultiplierIsWrong",
			"type": "error"
		},
		{
			"inputs": [],
			"name": "ERC1155_AccountsAndIdsLengthMismatch",
			"type": "error"
		},
		{
			"inputs": [],
			"name": "ERC1155_BalanceQueryForTheZeroAddress",
			"type": "error"
		},
		{
			"inputs": [],
			"name": "ERC1155_BurnAmountExceedsBalance",
			"type": "error"
		},
		{
			"inputs": [],
			"name": "ERC1155_BurnFromZeroAddress",
			"type": "error"
		},
		{
			"inputs": [],
			"name": "ERC1155_ERC1155ReceiverRejectsTokens",
			"type": "error"
		},
		{
			"inputs": [],
			"name": "ERC1155_IdsAndAmountsLengthMismatch",
			"type": "error"
		},
		{
			"inputs": [],
			"name": "ERC1155_InsufficientBalanceForTransfer",
			"type": "error"
		},
		{
			"inputs": [],
			"name": "ERC1155_MintToZeroAddress",
			"type": "error"
		},
		{
			"inputs": [],
			"name": "ERC1155_SettingApprovalStatusForSelf",
			"type": "error"
		},
		{
			"inputs": [],
			"name": "ERC1155_TransferToNonERC1155ReceiverImplementer",
			"type": "error"
		},
		{
			"inputs": [],
			"name": "ERC1155_TransferToZeroAddress",
			"type": "error"
		},
		{
			"anonymous": false,
			"inputs": [
				{
					"indexed": true,
					"internalType": "address",
					"name": "account",
					"type": "address"
				},
				{
					"indexed": true,
					"internalType": "address",
					"name": "operator",
					"type": "address"
				},
				{
					"indexed": false,
					"internalType": "bool",
					"name": "approved",
					"type": "bool"
				}
			],
			"name": "ApprovalForAll",
			"type": "event"
		},
		{
			"anonymous": false,
			"inputs": [
				{
					"indexed": false,
					"internalType": "address",
					"name": "token",
					"type": "address"
				},
				{
					"indexed": false,
					"internalType": "uint256",
					"name": "amountTokensIn",
					"type": "uint256"
				},
				{
					"indexed": false,
					"internalType": "uint256",
					"name": "amountCerUsdToMint",
					"type": "uint256"
				},
				{
					"indexed": false,
					"internalType": "uint256",
					"name": "lpAmount",
					"type": "uint256"
				}
			],
			"name": "LiquidityAdded",
			"type": "event"
		},
		{
			"anonymous": false,
			"inputs": [
				{
					"indexed": false,
					"internalType": "address",
					"name": "token",
					"type": "address"
				},
				{
					"indexed": false,
					"internalType": "uint256",
					"name": "amountTokensOut",
					"type": "uint256"
				},
				{
					"indexed": false,
					"internalType": "uint256",
					"name": "amountCerUsdToBurn",
					"type": "uint256"
				},
				{
					"indexed": false,
					"internalType": "uint256",
					"name": "amountLpTokensBalanceToBurn",
					"type": "uint256"
				}
			],
			"name": "LiquidityRemoved",
			"type": "event"
		},
		{
			"anonymous": false,
			"inputs": [
				{
					"indexed": false,
					"internalType": "address",
					"name": "token",
					"type": "address"
				},
				{
					"indexed": false,
					"internalType": "uint256",
					"name": "poolId",
					"type": "uint256"
				}
			],
			"name": "PairCreated",
			"type": "event"
		},
		{
			"anonymous": false,
			"inputs": [
				{
					"indexed": true,
					"internalType": "bytes32",
					"name": "role",
					"type": "bytes32"
				},
				{
					"indexed": true,
					"internalType": "bytes32",
					"name": "previousAdminRole",
					"type": "bytes32"
				},
				{
					"indexed": true,
					"internalType": "bytes32",
					"name": "newAdminRole",
					"type": "bytes32"
				}
			],
			"name": "RoleAdminChanged",
			"type": "event"
		},
		{
			"anonymous": false,
			"inputs": [
				{
					"indexed": true,
					"internalType": "bytes32",
					"name": "role",
					"type": "bytes32"
				},
				{
					"indexed": true,
					"internalType": "address",
					"name": "account",
					"type": "address"
				},
				{
					"indexed": true,
					"internalType": "address",
					"name": "sender",
					"type": "address"
				}
			],
			"name": "RoleGranted",
			"type": "event"
		},
		{
			"anonymous": false,
			"inputs": [
				{
					"indexed": true,
					"internalType": "bytes32",
					"name": "role",
					"type": "bytes32"
				},
				{
					"indexed": true,
					"internalType": "address",
					"name": "account",
					"type": "address"
				},
				{
					"indexed": true,
					"internalType": "address",
					"name": "sender",
					"type": "address"
				}
			],
			"name": "RoleRevoked",
			"type": "event"
		},
		{
			"anonymous": false,
			"inputs": [
				{
					"indexed": false,
					"internalType": "address",
					"name": "token",
					"type": "address"
				},
				{
					"indexed": false,
					"internalType": "address",
					"name": "sender",
					"type": "address"
				},
				{
					"indexed": false,
					"internalType": "uint256",
					"name": "amountTokensIn",
					"type": "uint256"
				},
				{
					"indexed": false,
					"internalType": "uint256",
					"name": "amountCerUsdIn",
					"type": "uint256"
				},
				{
					"indexed": false,
					"internalType": "uint256",
					"name": "amountTokensOut",
					"type": "uint256"
				},
				{
					"indexed": false,
					"internalType": "uint256",
					"name": "amountCerUsdOut",
					"type": "uint256"
				},
				{
					"indexed": false,
					"internalType": "uint256",
					"name": "currentFee",
					"type": "uint256"
				},
				{
					"indexed": false,
					"internalType": "address",
					"name": "transferTo",
					"type": "address"
				}
			],
			"name": "Swap",
			"type": "event"
		},
		{
			"anonymous": false,
			"inputs": [
				{
					"indexed": false,
					"internalType": "address",
					"name": "token",
					"type": "address"
				},
				{
					"indexed": false,
					"internalType": "uint256",
					"name": "newBalanceToken",
					"type": "uint256"
				},
				{
					"indexed": false,
					"internalType": "uint256",
					"name": "newBalanceCerUsd",
					"type": "uint256"
				},
				{
					"indexed": false,
					"internalType": "uint256",
					"name": "newCreditCerUsd",
					"type": "uint256"
				}
			],
			"name": "Sync",
			"type": "event"
		},
		{
			"anonymous": false,
			"inputs": [
				{
					"indexed": true,
					"internalType": "address",
					"name": "operator",
					"type": "address"
				},
				{
					"indexed": true,
					"internalType": "address",
					"name": "from",
					"type": "address"
				},
				{
					"indexed": true,
					"internalType": "address",
					"name": "to",
					"type": "address"
				},
				{
					"indexed": false,
					"internalType": "uint256[]",
					"name": "ids",
					"type": "uint256[]"
				},
				{
					"indexed": false,
					"internalType": "uint256[]",
					"name": "values",
					"type": "uint256[]"
				}
			],
			"name": "TransferBatch",
			"type": "event"
		},
		{
			"anonymous": false,
			"inputs": [
				{
					"indexed": true,
					"internalType": "address",
					"name": "operator",
					"type": "address"
				},
				{
					"indexed": true,
					"internalType": "address",
					"name": "from",
					"type": "address"
				},
				{
					"indexed": true,
					"internalType": "address",
					"name": "to",
					"type": "address"
				},
				{
					"indexed": false,
					"internalType": "uint256",
					"name": "id",
					"type": "uint256"
				},
				{
					"indexed": false,
					"internalType": "uint256",
					"name": "value",
					"type": "uint256"
				}
			],
			"name": "TransferSingle",
			"type": "event"
		},
		{
			"anonymous": false,
			"inputs": [
				{
					"indexed": false,
					"internalType": "string",
					"name": "value",
					"type": "string"
				},
				{
					"indexed": true,
					"internalType": "uint256",
					"name": "id",
					"type": "uint256"
				}
			],
			"name": "URI",
			"type": "event"
		},
		{
			"inputs": [],
			"name": "ROLE_ADMIN",
			"outputs": [
				{
					"internalType": "bytes32",
					"name": "",
					"type": "bytes32"
				}
			],
			"stateMutability": "view",
			"type": "function"
		},
		{
			"inputs": [
				{
					"internalType": "address",
					"name": "token",
					"type": "address"
				},
				{
					"internalType": "uint256",
					"name": "amountTokensIn",
					"type": "uint256"
				},
				{
					"internalType": "uint256",
					"name": "expireTimestamp",
					"type": "uint256"
				},
				{
					"internalType": "address",
					"name": "transferTo",
					"type": "address"
				}
			],
			"name": "addTokenLiquidity",
			"outputs": [
				{
					"internalType": "uint256",
					"name": "",
					"type": "uint256"
				}
			],
			"stateMutability": "payable",
			"type": "function"
		},
		{
			"inputs": [
				{
					"internalType": "address",
					"name": "token",
					"type": "address"
				},
				{
					"internalType": "uint256",
					"name": "amountCerUsdCredit",
					"type": "uint256"
				}
			],
			"name": "adminChangeCerUsdCreditInPool",
			"outputs": [],
			"stateMutability": "nonpayable",
			"type": "function"
		},
		{
			"inputs": [
				{
					"internalType": "address",
					"name": "token",
					"type": "address"
				},
				{
					"internalType": "uint256",
					"name": "amountTokensIn",
					"type": "uint256"
				},
				{
					"internalType": "uint256",
					"name": "amountCerUsdToMint",
					"type": "uint256"
				},
				{
					"internalType": "address",
					"name": "transferTo",
					"type": "address"
				}
			],
			"name": "adminCreatePool",
			"outputs": [],
			"stateMutability": "payable",
			"type": "function"
		},
		{
			"inputs": [],
			"name": "adminInitialize",
			"outputs": [],
			"stateMutability": "payable",
			"type": "function"
		},
		{
			"inputs": [
				{
					"internalType": "string",
					"name": "newUrlPrefix",
					"type": "string"
				}
			],
			"name": "adminSetURI",
			"outputs": [],
			"stateMutability": "nonpayable",
			"type": "function"
		},
		{
			"inputs": [
				{
					"components": [
						{
							"internalType": "address",
							"name": "mintFeeBeneficiary",
							"type": "address"
						},
						{
							"internalType": "uint256",
							"name": "mintFeeMultiplier",
							"type": "uint256"
						},
						{
							"internalType": "uint256",
							"name": "feeMinimum",
							"type": "uint256"
						},
						{
							"internalType": "uint256",
							"name": "feeMaximum",
							"type": "uint256"
						},
						{
							"internalType": "uint256",
							"name": "tvlMultiplierMinimum",
							"type": "uint256"
						},
						{
							"internalType": "uint256",
							"name": "tvlMultiplierMaximum",
							"type": "uint256"
						}
					],
					"internalType": "struct CerbySwapV1.Settings",
					"name": "_settings",
					"type": "tuple"
				}
			],
			"name": "adminUpdateFeesAndTvlMultipliers",
			"outputs": [],
			"stateMutability": "nonpayable",
			"type": "function"
		},
		{
			"inputs": [
				{
					"internalType": "string",
					"name": "newName",
					"type": "string"
				},
				{
					"internalType": "string",
					"name": "newSymbol",
					"type": "string"
				}
			],
			"name": "adminUpdateNameAndSymbol",
			"outputs": [],
			"stateMutability": "nonpayable",
			"type": "function"
		},
		{
			"inputs": [
				{
					"internalType": "address",
					"name": "account",
					"type": "address"
				},
				{
					"internalType": "uint256",
					"name": "id",
					"type": "uint256"
				}
			],
			"name": "balanceOf",
			"outputs": [
				{
					"internalType": "uint256",
					"name": "",
					"type": "uint256"
				}
			],
			"stateMutability": "view",
			"type": "function"
		},
		{
			"inputs": [
				{
					"internalType": "address[]",
					"name": "accounts",
					"type": "address[]"
				},
				{
					"internalType": "uint256[]",
					"name": "ids",
					"type": "uint256[]"
				}
			],
			"name": "balanceOfBatch",
			"outputs": [
				{
					"internalType": "uint256[]",
					"name": "",
					"type": "uint256[]"
				}
			],
			"stateMutability": "view",
			"type": "function"
		},
		{
			"inputs": [
				{
					"internalType": "address",
					"name": "account",
					"type": "address"
				},
				{
					"internalType": "uint256",
					"name": "id",
					"type": "uint256"
				},
				{
					"internalType": "uint256",
					"name": "value",
					"type": "uint256"
				}
			],
			"name": "burn",
			"outputs": [],
			"stateMutability": "nonpayable",
			"type": "function"
		},
		{
			"inputs": [
				{
					"internalType": "address",
					"name": "token",
					"type": "address"
				},
				{
					"internalType": "uint256",
					"name": "amountTokensIn",
					"type": "uint256"
				},
				{
					"internalType": "uint256",
					"name": "amountCerUsdToMint",
					"type": "uint256"
				},
				{
					"internalType": "address",
					"name": "transferTo",
					"type": "address"
				}
			],
			"name": "createPool",
			"outputs": [],
			"stateMutability": "payable",
			"type": "function"
		},
		{
			"inputs": [],
			"name": "decimals",
			"outputs": [
				{
					"internalType": "uint256",
					"name": "",
					"type": "uint256"
				}
			],
			"stateMutability": "pure",
			"type": "function"
		},
		{
			"inputs": [
				{
					"internalType": "uint256",
					"name": "id",
					"type": "uint256"
				}
			],
			"name": "exists",
			"outputs": [
				{
					"internalType": "bool",
					"name": "",
					"type": "bool"
				}
			],
			"stateMutability": "view",
			"type": "function"
		},
		{
			"inputs": [
				{
					"internalType": "address",
					"name": "token",
					"type": "address"
				}
			],
			"name": "getCurrentOneMinusFeeBasedOnTrades",
			"outputs": [
				{
					"internalType": "uint256",
					"name": "fee",
					"type": "uint256"
				}
			],
			"stateMutability": "view",
			"type": "function"
		},
		{
			"inputs": [
				{
					"internalType": "address",
					"name": "tokenIn",
					"type": "address"
				},
				{
					"internalType": "address",
					"name": "tokenOut",
					"type": "address"
				},
				{
					"internalType": "uint256",
					"name": "amountTokensOut",
					"type": "uint256"
				}
			],
			"name": "getInputTokensForExactTokens",
			"outputs": [
				{
					"internalType": "uint256",
					"name": "amountTokensIn",
					"type": "uint256"
				}
			],
			"stateMutability": "view",
			"type": "function"
		},
		{
			"inputs": [
				{
					"internalType": "address",
					"name": "tokenIn",
					"type": "address"
				},
				{
					"internalType": "address",
					"name": "tokenOut",
					"type": "address"
				},
				{
					"internalType": "uint256",
					"name": "amountTokensIn",
					"type": "uint256"
				}
			],
			"name": "getOutputExactTokensForTokens",
			"outputs": [
				{
					"internalType": "uint256",
					"name": "amountTokensOut",
					"type": "uint256"
				}
			],
			"stateMutability": "view",
			"type": "function"
		},
		{
			"inputs": [
				{
					"internalType": "uint256[]",
					"name": "ids",
					"type": "uint256[]"
				}
			],
			"name": "getPoolsByIds",
			"outputs": [
				{
					"components": [
						{
							"internalType": "uint32[8]",
							"name": "tradeVolumePerPeriodInCerUsd",
							"type": "uint32[8]"
						},
						{
							"internalType": "uint128",
							"name": "balanceToken",
							"type": "uint128"
						},
						{
							"internalType": "uint128",
							"name": "balanceCerUsd",
							"type": "uint128"
						},
						{
							"internalType": "uint128",
							"name": "lastSqrtKValue",
							"type": "uint128"
						},
						{
							"internalType": "uint256",
							"name": "creditCerUsd",
							"type": "uint256"
						}
					],
					"internalType": "struct CerbySwapV1.Pool[]",
					"name": "",
					"type": "tuple[]"
				}
			],
			"stateMutability": "view",
			"type": "function"
		},
		{
			"inputs": [
				{
					"internalType": "address[]",
					"name": "tokens",
					"type": "address[]"
				}
			],
			"name": "getPoolsByTokens",
			"outputs": [
				{
					"components": [
						{
							"internalType": "uint32[8]",
							"name": "tradeVolumePerPeriodInCerUsd",
							"type": "uint32[8]"
						},
						{
							"internalType": "uint128",
							"name": "balanceToken",
							"type": "uint128"
						},
						{
							"internalType": "uint128",
							"name": "balanceCerUsd",
							"type": "uint128"
						},
						{
							"internalType": "uint128",
							"name": "lastSqrtKValue",
							"type": "uint128"
						},
						{
							"internalType": "uint256",
							"name": "creditCerUsd",
							"type": "uint256"
						}
					],
					"internalType": "struct CerbySwapV1.Pool[]",
					"name": "",
					"type": "tuple[]"
				}
			],
			"stateMutability": "view",
			"type": "function"
		},
		{
			"inputs": [
				{
					"internalType": "bytes32",
					"name": "role",
					"type": "bytes32"
				}
			],
			"name": "getRoleAdmin",
			"outputs": [
				{
					"internalType": "bytes32",
					"name": "",
					"type": "bytes32"
				}
			],
			"stateMutability": "view",
			"type": "function"
		},
		{
			"inputs": [
				{
					"internalType": "bytes32",
					"name": "role",
					"type": "bytes32"
				},
				{
					"internalType": "uint256",
					"name": "index",
					"type": "uint256"
				}
			],
			"name": "getRoleMember",
			"outputs": [
				{
					"internalType": "address",
					"name": "",
					"type": "address"
				}
			],
			"stateMutability": "view",
			"type": "function"
		},
		{
			"inputs": [
				{
					"internalType": "bytes32",
					"name": "role",
					"type": "bytes32"
				}
			],
			"name": "getRoleMemberCount",
			"outputs": [
				{
					"internalType": "uint256",
					"name": "",
					"type": "uint256"
				}
			],
			"stateMutability": "view",
			"type": "function"
		},
		{
			"inputs": [
				{
					"internalType": "address",
					"name": "token",
					"type": "address"
				}
			],
			"name": "getTokenToPoolId",
			"outputs": [
				{
					"internalType": "uint256",
					"name": "",
					"type": "uint256"
				}
			],
			"stateMutability": "view",
			"type": "function"
		},
		{
			"inputs": [
				{
					"internalType": "uint256",
					"name": "pos",
					"type": "uint256"
				}
			],
			"name": "getUtilsContractAtPos",
			"outputs": [
				{
					"internalType": "address",
					"name": "",
					"type": "address"
				}
			],
			"stateMutability": "view",
			"type": "function"
		},
		{
			"inputs": [
				{
					"internalType": "bytes32",
					"name": "role",
					"type": "bytes32"
				},
				{
					"internalType": "address",
					"name": "account",
					"type": "address"
				}
			],
			"name": "grantRole",
			"outputs": [],
			"stateMutability": "nonpayable",
			"type": "function"
		},
		{
			"inputs": [
				{
					"components": [
						{
							"internalType": "bytes32",
							"name": "role",
							"type": "bytes32"
						},
						{
							"internalType": "address",
							"name": "addr",
							"type": "address"
						}
					],
					"internalType": "struct RoleAccess[]",
					"name": "roles",
					"type": "tuple[]"
				}
			],
			"name": "grantRolesBulk",
			"outputs": [],
			"stateMutability": "nonpayable",
			"type": "function"
		},
		{
			"inputs": [
				{
					"internalType": "bytes32",
					"name": "role",
					"type": "bytes32"
				},
				{
					"internalType": "address",
					"name": "account",
					"type": "address"
				}
			],
			"name": "hasRole",
			"outputs": [
				{
					"internalType": "bool",
					"name": "",
					"type": "bool"
				}
			],
			"stateMutability": "view",
			"type": "function"
		},
		{
			"inputs": [
				{
					"internalType": "address",
					"name": "token",
					"type": "address"
				},
				{
					"internalType": "uint256",
					"name": "amountCerUsdCredit",
					"type": "uint256"
				}
			],
			"name": "increaseCerUsdCreditInPool",
			"outputs": [],
			"stateMutability": "nonpayable",
			"type": "function"
		},
		{
			"inputs": [
				{
					"internalType": "address",
					"name": "account",
					"type": "address"
				},
				{
					"internalType": "address",
					"name": "operator",
					"type": "address"
				}
			],
			"name": "isApprovedForAll",
			"outputs": [
				{
					"internalType": "bool",
					"name": "",
					"type": "bool"
				}
			],
			"stateMutability": "view",
			"type": "function"
		},
		{
			"inputs": [
				{
					"internalType": "address",
					"name": "token",
					"type": "address"
				},
				{
					"internalType": "uint256",
					"name": "amountTokensOut",
					"type": "uint256"
				},
				{
					"internalType": "uint256",
					"name": "amountCerUsdOut",
					"type": "uint256"
				},
				{
					"internalType": "address",
					"name": "transferTo",
					"type": "address"
				}
			],
			"name": "lowLevelSwap",
			"outputs": [],
			"stateMutability": "payable",
			"type": "function"
		},
		{
			"inputs": [],
			"name": "name",
			"outputs": [
				{
					"internalType": "string",
					"name": "",
					"type": "string"
				}
			],
			"stateMutability": "view",
			"type": "function"
		},
		{
			"inputs": [
				{
					"internalType": "address",
					"name": "token",
					"type": "address"
				},
				{
					"internalType": "uint256",
					"name": "amountLpTokensBalanceToBurn",
					"type": "uint256"
				},
				{
					"internalType": "uint256",
					"name": "expireTimestamp",
					"type": "uint256"
				},
				{
					"internalType": "address",
					"name": "transferTo",
					"type": "address"
				}
			],
			"name": "removeTokenLiquidity",
			"outputs": [
				{
					"internalType": "uint256",
					"name": "",
					"type": "uint256"
				}
			],
			"stateMutability": "nonpayable",
			"type": "function"
		},
		{
			"inputs": [
				{
					"internalType": "bytes32",
					"name": "role",
					"type": "bytes32"
				},
				{
					"internalType": "address",
					"name": "account",
					"type": "address"
				}
			],
			"name": "renounceRole",
			"outputs": [],
			"stateMutability": "nonpayable",
			"type": "function"
		},
		{
			"inputs": [
				{
					"internalType": "bytes32",
					"name": "role",
					"type": "bytes32"
				},
				{
					"internalType": "address",
					"name": "account",
					"type": "address"
				}
			],
			"name": "revokeRole",
			"outputs": [],
			"stateMutability": "nonpayable",
			"type": "function"
		},
		{
			"inputs": [
				{
					"internalType": "address",
					"name": "from",
					"type": "address"
				},
				{
					"internalType": "address",
					"name": "to",
					"type": "address"
				},
				{
					"internalType": "uint256[]",
					"name": "ids",
					"type": "uint256[]"
				},
				{
					"internalType": "uint256[]",
					"name": "amounts",
					"type": "uint256[]"
				},
				{
					"internalType": "bytes",
					"name": "data",
					"type": "bytes"
				}
			],
			"name": "safeBatchTransferFrom",
			"outputs": [],
			"stateMutability": "nonpayable",
			"type": "function"
		},
		{
			"inputs": [
				{
					"internalType": "address",
					"name": "from",
					"type": "address"
				},
				{
					"internalType": "address",
					"name": "to",
					"type": "address"
				},
				{
					"internalType": "uint256",
					"name": "id",
					"type": "uint256"
				},
				{
					"internalType": "uint256",
					"name": "amount",
					"type": "uint256"
				},
				{
					"internalType": "bytes",
					"name": "data",
					"type": "bytes"
				}
			],
			"name": "safeTransferFrom",
			"outputs": [],
			"stateMutability": "nonpayable",
			"type": "function"
		},
		{
			"inputs": [
				{
					"internalType": "address",
					"name": "operator",
					"type": "address"
				},
				{
					"internalType": "bool",
					"name": "approved",
					"type": "bool"
				}
			],
			"name": "setApprovalForAll",
			"outputs": [],
			"stateMutability": "nonpayable",
			"type": "function"
		},
		{
			"inputs": [],
			"name": "settings",
			"outputs": [
				{
					"internalType": "address",
					"name": "mintFeeBeneficiary",
					"type": "address"
				},
				{
					"internalType": "uint256",
					"name": "mintFeeMultiplier",
					"type": "uint256"
				},
				{
					"internalType": "uint256",
					"name": "feeMinimum",
					"type": "uint256"
				},
				{
					"internalType": "uint256",
					"name": "feeMaximum",
					"type": "uint256"
				},
				{
					"internalType": "uint256",
					"name": "tvlMultiplierMinimum",
					"type": "uint256"
				},
				{
					"internalType": "uint256",
					"name": "tvlMultiplierMaximum",
					"type": "uint256"
				}
			],
			"stateMutability": "view",
			"type": "function"
		},
		{
			"inputs": [
				{
					"internalType": "address",
					"name": "token",
					"type": "address"
				}
			],
			"name": "skimPool",
			"outputs": [],
			"stateMutability": "nonpayable",
			"type": "function"
		},
		{
			"inputs": [
				{
					"internalType": "bytes4",
					"name": "interfaceId",
					"type": "bytes4"
				}
			],
			"name": "supportsInterface",
			"outputs": [
				{
					"internalType": "bool",
					"name": "",
					"type": "bool"
				}
			],
			"stateMutability": "view",
			"type": "function"
		},
		{
			"inputs": [
				{
					"internalType": "address",
					"name": "tokenIn",
					"type": "address"
				},
				{
					"internalType": "address",
					"name": "tokenOut",
					"type": "address"
				},
				{
					"internalType": "uint256",
					"name": "amountTokensIn",
					"type": "uint256"
				},
				{
					"internalType": "uint256",
					"name": "minAmountTokensOut",
					"type": "uint256"
				},
				{
					"internalType": "uint256",
					"name": "expireTimestamp",
					"type": "uint256"
				},
				{
					"internalType": "address",
					"name": "transferTo",
					"type": "address"
				}
			],
			"name": "swapExactTokensForTokens",
			"outputs": [
				{
					"internalType": "uint256",
					"name": "",
					"type": "uint256"
				},
				{
					"internalType": "uint256",
					"name": "",
					"type": "uint256"
				}
			],
			"stateMutability": "payable",
			"type": "function"
		},
		{
			"inputs": [
				{
					"internalType": "address",
					"name": "tokenIn",
					"type": "address"
				},
				{
					"internalType": "address",
					"name": "tokenOut",
					"type": "address"
				},
				{
					"internalType": "uint256",
					"name": "amountTokensOut",
					"type": "uint256"
				},
				{
					"internalType": "uint256",
					"name": "maxAmountTokensIn",
					"type": "uint256"
				},
				{
					"internalType": "uint256",
					"name": "expireTimestamp",
					"type": "uint256"
				},
				{
					"internalType": "address",
					"name": "transferTo",
					"type": "address"
				}
			],
			"name": "swapTokensForExactTokens",
			"outputs": [
				{
					"internalType": "uint256",
					"name": "",
					"type": "uint256"
				},
				{
					"internalType": "uint256",
					"name": "",
					"type": "uint256"
				}
			],
			"stateMutability": "payable",
			"type": "function"
		},
		{
			"inputs": [],
			"name": "symbol",
			"outputs": [
				{
					"internalType": "string",
					"name": "",
					"type": "string"
				}
			],
			"stateMutability": "view",
			"type": "function"
		},
		{
			"inputs": [
				{
					"internalType": "address",
					"name": "token",
					"type": "address"
				}
			],
			"name": "syncTokenBalanceInPool",
			"outputs": [],
			"stateMutability": "nonpayable",
			"type": "function"
		},
		{
			"inputs": [],
			"name": "testInit",
			"outputs": [],
			"stateMutability": "nonpayable",
			"type": "function"
		},
		{
			"inputs": [
				{
					"internalType": "address",
					"name": "",
					"type": "address"
				},
				{
					"internalType": "address",
					"name": "_testCerbyToken",
					"type": "address"
				},
				{
					"internalType": "address",
					"name": "_cerUsdToken",
					"type": "address"
				},
				{
					"internalType": "address",
					"name": "_testUsdcToken",
					"type": "address"
				},
				{
					"internalType": "address",
					"name": "",
					"type": "address"
				}
			],
			"name": "testSetupTokens",
			"outputs": [],
			"stateMutability": "nonpayable",
			"type": "function"
		},
		{
			"inputs": [],
			"name": "totalSupply",
			"outputs": [
				{
					"internalType": "uint256",
					"name": "",
					"type": "uint256"
				}
			],
			"stateMutability": "view",
			"type": "function"
		},
		{
			"inputs": [
				{
					"internalType": "uint256",
					"name": "id",
					"type": "uint256"
				}
			],
			"name": "totalSupply",
			"outputs": [
				{
					"internalType": "uint256",
					"name": "",
					"type": "uint256"
				}
			],
			"stateMutability": "view",
			"type": "function"
		},
		{
			"inputs": [
				{
					"internalType": "uint256",
					"name": "id",
					"type": "uint256"
				}
			],
			"name": "uri",
			"outputs": [
				{
					"internalType": "string",
					"name": "",
					"type": "string"
				}
			],
			"stateMutability": "view",
			"type": "function"
		},
		{
			"stateMutability": "payable",
			"type": "receive"
		}
	]
}