{
	"data": {
		"bytecode": {
			"linkReferences": {},
			"object": "608060405273e7126c0fb4b1f5f79e5bbec3948139dcf348b49c600360006101000a81548173ffffffffffffffffffffffffffffffffffffffff021916908373ffffffffffffffffffffffffffffffffffffffff160217905550730fc5025c764ce34df352757e82f7b5c4df39a836600460006101000a81548173ffffffffffffffffffffffffffffffffffffffff021916908373ffffffffffffffffffffffffffffffffffffffff160217905550737412f2cd820d1e63bd130b0ffebe44c4e5a47d71600560006101000a81548173ffffffffffffffffffffffffffffffffffffffff021916908373ffffffffffffffffffffffffffffffffffffffff1602179055507314769f96e57b80c66837701de0b43686fb4632de600660006101000a81548173ffffffffffffffffffffffffffffffffffffffff021916908373ffffffffffffffffffffffffffffffffffffffff1602179055506040518060400160405280600d81526020017f436572627920537761702056310000000000000000000000000000000000000081525060119080519060200190620001a592919062000866565b506040518060400160405280600d81526020017f43455242595f535741505f56310000000000000000000000000000000000000081525060129080519060200190620001f392919062000866565b506040518060600160405280602381526020016200ac4460239139601390805190602001906200022592919062000866565b503480156200023357600080fd5b50601360405160200162000248919062000b43565b60405160208183030381529060405262000268816200078460201b60201c565b506200027a33620007a060201b60201c565b600073def78a28c78a461598d948bc0c689ce88f812ad890506000606460146064620002a7919062000ba2565b620002b3919062000c32565b905060006351a673669050600060019050600060c8905060008390506000838386620002e0919062000ba2565b620002ec919062000c32565b90506040518060c001604052808873ffffffffffffffffffffffffffffffffffffffff16815260200187815260200185815260200184815260200183815260200182815250600760008201518160000160006101000a81548173ffffffffffffffffffffffffffffffffffffffff021916908373ffffffffffffffffffffffffffffffffffffffff1602179055506020820151816001015560408201518160020155606082015181600301556080820151816004015560a08201518160050155905050620003b9620008f7565b60006040518060a0016040528083815260200160006fffffffffffffffffffffffffffffffff16815260200160006fffffffffffffffffffffffffffffffff16815260200160006fffffffffffffffffffffffffffffffff168152602001600081525090806001815401808255809150506001900390600052602060002090600402016000909190919091506000820151816000019060086200045e9291906200091a565b5060208201518160010160006101000a8154816fffffffffffffffffffffffffffffffff02191690836fffffffffffffffffffffffffffffffff16021790555060408201518160010160106101000a8154816fffffffffffffffffffffffffffffffff02191690836fffffffffffffffffffffffffffffffff16021790555060608201518160020160006101000a8154816fffffffffffffffffffffffffffffffff02191690836fffffffffffffffffffffffffffffffff16021790555060808201518160030155505060014614156200058d5773c02aaa39b223fe8d0a0e5c4f27ead9083c756cc2600660006101000a81548173ffffffffffffffffffffffffffffffffffffffff021916908373ffffffffffffffffffffffffffffffffffffffff16021790555062000721565b6038461415620005f25773bb4cdb9cbd36b01bd1cbaebf2de08d9173bc095c600660006101000a81548173ffffffffffffffffffffffffffffffffffffffff021916908373ffffffffffffffffffffffffffffffffffffffff16021790555062000720565b60894614156200065757730d500b1d8e8ef31e21c99d1db9a6444d3adf1270600660006101000a81548173ffffffffffffffffffffffffffffffffffffffff021916908373ffffffffffffffffffffffffffffffffffffffff1602179055506200071f565b61a86a461415620006bd5773b31f66aa3c1e785363f0875a1b74e27b85fd66c7600660006101000a81548173ffffffffffffffffffffffffffffffffffffffff021916908373ffffffffffffffffffffffffffffffffffffffff1602179055506200071e565b60fa4614156200071d577321be370d5312f44cb42ce377bc9b8a0cef1a4c83600660006101000a81548173ffffffffffffffffffffffffffffffffffffffff021916908373ffffffffffffffffffffffffffffffffffffffff1602179055505b5b5b5b5b7314769f96e57b80c66837701de0b43686fb4632de600660006101000a81548173ffffffffffffffffffffffffffffffffffffffff021916908373ffffffffffffffffffffffffffffffffffffffff160217905550505050505050505062000c6a565b80600f90805190602001906200079c92919062000866565b5050565b6000601460009054906101000a900473ffffffffffffffffffffffffffffffffffffffff16905081601460006101000a81548173ffffffffffffffffffffffffffffffffffffffff021916908373ffffffffffffffffffffffffffffffffffffffff1602179055508173ffffffffffffffffffffffffffffffffffffffff168173ffffffffffffffffffffffffffffffffffffffff167f8be0079c531659141344cd1fd0a4f28419497f9722a3daafe3b4186f6b6457e060405160405180910390a35050565b828054620008749062000a12565b90600052602060002090601f016020900481019282620008985760008555620008e4565b82601f10620008b357805160ff1916838001178555620008e4565b82800160010185558215620008e4579182015b82811115620008e3578251825591602001919060010190620008c6565b5b509050620008f39190620009c4565b5090565b604051806101000160405280600890602082028036833780820191505090505090565b826008600701600890048101928215620009b15791602002820160005b838211156200097d57835183826101000a81548163ffffffff021916908363ffffffff160217905550926020019260040160208160030104928301926001030262000937565b8015620009af5782816101000a81549063ffffffff02191690556004016020816003010492830192600103026200097d565b505b509050620009c09190620009c4565b5090565b5b80821115620009df576000816000905550600101620009c5565b5090565b7f4e487b7100000000000000000000000000000000000000000000000000000000600052602260045260246000fd5b6000600282049050600182168062000a2b57607f821691505b6020821081141562000a425762000a41620009e3565b5b50919050565b600081905092915050565b60008190508160005260206000209050919050565b6000815462000a778162000a12565b62000a83818662000a48565b9450600182166000811462000aa1576001811462000ab35762000aea565b60ff1983168652818601935062000aea565b62000abe8562000a53565b60005b8381101562000ae25781548189015260018201915060208101905062000ac1565b838801955050505b50505092915050565b7f7b69647d2e6a736f6e0000000000000000000000000000000000000000000000600082015250565b600062000b2b60098362000a48565b915062000b388262000af3565b600982019050919050565b600062000b51828462000a68565b915062000b5e8262000b1c565b915081905092915050565b6000819050919050565b7f4e487b7100000000000000000000000000000000000000000000000000000000600052601160045260246000fd5b600062000baf8262000b69565b915062000bbc8362000b69565b9250817fffffffffffffffffffffffffffffffffffffffffffffffffffffffffffffffff048311821515161562000bf85762000bf762000b73565b5b828202905092915050565b7f4e487b7100000000000000000000000000000000000000000000000000000000600052601260045260246000fd5b600062000c3f8262000b69565b915062000c4c8362000b69565b92508262000c5f5762000c5e62000c03565b5b828204905092915050565b619fca8062000c7a6000396000f3fe60806040526004361061025f5760003560e01c806374fcf07111610144578063bd85b039116100b6578063e985e9c51161007a578063e985e9c514610921578063eca010931461095e578063f242432a14610987578063f2fde38b146109b0578063f5298aca146109d9578063f652472414610a0257610266565b8063bd85b03914610858578063c09c923b14610895578063c790985a1461089f578063cab4ba82146108dc578063d5d607371461090557610266565b80639bc731fc116101085780639bc731fc14610758578063a22cb46514610781578063a60c6e55146107aa578063a6d8ad39146107db578063a7fd40bf14610818578063b5d11e991461084157610266565b806374fcf0711461067e578063842980f4146106bb57806385b4bb53146106d75780638da5cb5b1461070257806395d89b411461072d57610266565b806334e150ab116101dd5780634e1273f4116101a15780634e1273f41461056b5780634f558e79146105a85780635c41dbe0146105e55780636141751614610601578063715018a61461063e578063718580491461065557610266565b806334e150ab1461045b5780633935ac111461049857806343fefad4146104c157806348b08d62146104f15780634c3c0eb21461052e57610266565b80630c2e075b116102245780630c2e075b146103765780630e89341c1461039f57806318160ddd146103dc5780632eb2c2d614610407578063313ce5671461043057610266565b8062fdd58e1461026b57806301ffc9a7146102a857806303d604bd146102e557806306fb1a071461030e57806306fdde031461034b57610266565b3661026657005b600080fd5b34801561027757600080fd5b50610292600480360381019061028d9190617e22565b610a33565b60405161029f9190617e71565b60405180910390f35b3480156102b457600080fd5b506102cf60048036038101906102ca9190617ee4565b610af4565b6040516102dc9190617f2c565b60405180910390f35b3480156102f157600080fd5b5061030c60048036038101906103079190617f47565b610b5e565b005b34801561031a57600080fd5b5061033560048036038101906103309190617f74565b610dd7565b6040516103429190617fb0565b60405180910390f35b34801561035757600080fd5b50610360610e6e565b60405161036d9190618064565b60405180910390f35b34801561038257600080fd5b5061039d600480360381019061039891906180aa565b610f00565b005b3480156103ab57600080fd5b506103c660048036038101906103c19190617f74565b611075565b6040516103d39190618064565b60405180910390f35b3480156103e857600080fd5b506103f16110a1565b6040516103fe9190617e71565b60405180910390f35b34801561041357600080fd5b5061042e600480360381019061042991906182d4565b6110fd565b005b34801561043c57600080fd5b50610445611104565b6040516104529190617e71565b60405180910390f35b34801561046757600080fd5b50610482600480360381019061047d91906183fe565b61110d565b60405161048f919061865d565b60405180910390f35b3480156104a457600080fd5b506104bf60048036038101906104ba9190618720565b6113a0565b005b6104db60048036038101906104d69190618798565b611445565b6040516104e89190617e71565b60405180910390f35b3480156104fd57600080fd5b50610518600480360381019061051391906187ff565b611d2a565b6040516105259190617e71565b60405180910390f35b34801561053a57600080fd5b5061055560048036038101906105509190617f47565b611f84565b6040516105629190617e71565b60405180910390f35b34801561057757600080fd5b50610592600480360381019061058d9190618915565b611fd5565b60405161059f9190618a3c565b60405180910390f35b3480156105b457600080fd5b506105cf60048036038101906105ca9190617f74565b6120e5565b6040516105dc9190617f2c565b60405180910390f35b6105ff60048036038101906105fa9190618798565b6120f9565b005b34801561060d57600080fd5b5061062860048036038101906106239190617f47565b61210b565b6040516106359190617e71565b60405180910390f35b34801561064a57600080fd5b50610653612154565b005b34801561066157600080fd5b5061067c60048036038101906106779190617e22565b6121d3565b005b34801561068a57600080fd5b506106a560048036038101906106a09190618798565b61245e565b6040516106b29190617e71565b60405180910390f35b6106d560048036038101906106d09190618798565b612597565b005b3480156106e357600080fd5b506106ec6125ab565b6040516106f99190618ae8565b60405180910390f35b34801561070e57600080fd5b5061071761264d565b6040516107249190617fb0565b60405180910390f35b34801561073957600080fd5b50610742612677565b60405161074f9190618064565b60405180910390f35b34801561076457600080fd5b5061077f600480360381019061077a9190617f47565b612709565b005b34801561078d57600080fd5b506107a860048036038101906107a39190618b2f565b612adb565b005b6107c460048036038101906107bf9190618b6f565b612c9e565b6040516107d2929190618bfc565b60405180910390f35b3480156107e757600080fd5b5061080260048036038101906107fd9190618c7b565b6130f1565b60405161080f919061865d565b60405180910390f35b34801561082457600080fd5b5061083f600480360381019061083a9190618cc8565b613337565b005b34801561084d57600080fd5b506108566133ec565b005b34801561086457600080fd5b5061087f600480360381019061087a9190617f74565b613468565b60405161088c9190617e71565b60405180910390f35b61089d613485565b005b3480156108ab57600080fd5b506108c660048036038101906108c191906187ff565b613539565b6040516108d39190617e71565b60405180910390f35b3480156108e857600080fd5b5061090360048036038101906108fe9190617e22565b613793565b005b61091f600480360381019061091a9190618798565b613a3a565b005b34801561092d57600080fd5b5061094860048036038101906109439190618d11565b613ae0565b6040516109559190617f2c565b60405180910390f35b34801561096a57600080fd5b5061098560048036038101906109809190618d51565b613b74565b005b34801561099357600080fd5b506109ae60048036038101906109a99190618dcc565b613c46565b005b3480156109bc57600080fd5b506109d760048036038101906109d29190617f47565b613ced565b005b3480156109e557600080fd5b50610a0060048036038101906109fb9190618e63565b613dd3565b005b610a1c6004803603810190610a179190618b6f565b613e6b565b604051610a2a929190618bfc565b60405180910390f35b60008073ffffffffffffffffffffffffffffffffffffffff168373ffffffffffffffffffffffffffffffffffffffff161415610a9b576040517fdc768a8e00000000000000000000000000000000000000000000000000000000815260040160405180910390fd5b600d600083815260200190815260200160002060008473ffffffffffffffffffffffffffffffffffffffff1673ffffffffffffffffffffffffffffffffffffffff16815260200190815260200160002054905092915050565b60007f01ffc9a7000000000000000000000000000000000000000000000000000000007bffffffffffffffffffffffffffffffffffffffffffffffffffffffff1916827bffffffffffffffffffffffffffffffffffffffffffffffffffffffff1916149050919050565b806000600160008373ffffffffffffffffffffffffffffffffffffffff1673ffffffffffffffffffffffffffffffffffffffff168152602001908152602001600020541480610bfa5750600460009054906101000a900473ffffffffffffffffffffffffffffffffffffffff1673ffffffffffffffffffffffffffffffffffffffff168173ffffffffffffffffffffffffffffffffffffffff16145b15610c3a576040517f08c379a0000000000000000000000000000000000000000000000000000000008152600401610c3190618f02565b60405180910390fd5b6000600160008473ffffffffffffffffffffffffffffffffffffffff1673ffffffffffffffffffffffffffffffffffffffff1681526020019081526020016000205490506000610c8984614387565b90506000610cb8600460009054906101000a900473ffffffffffffffffffffffffffffffffffffffff16614387565b90506000808481548110610ccf57610cce618f22565b5b906000526020600020906004020160010160009054906101000a90046fffffffffffffffffffffffffffffffff166fffffffffffffffffffffffffffffffff1683610d1a9190618f80565b90506000811115610d3357610d328633836000614469565b5b6000808581548110610d4857610d47618f22565b5b906000526020600020906004020160010160109054906101000a90046fffffffffffffffffffffffffffffffff166fffffffffffffffffffffffffffffffff1683610d939190618f80565b90506000811115610dce57610dcd600460009054906101000a900473ffffffffffffffffffffffffffffffffffffffff1633836000614469565b5b50505050505050565b600073def1fac7bf08f173d286bbbdcbeeade69512984073ffffffffffffffffffffffffffffffffffffffff166306fb1a07836040518263ffffffff1660e01b8152600401610e269190617e71565b602060405180830381865afa158015610e43573d6000803e3d6000fd5b505050506040513d601f19601f82011682018060405250810190610e679190618fc9565b9050919050565b606060118054610e7d90619025565b80601f0160208091040260200160405190810160405280929190818152602001828054610ea990619025565b8015610ef65780601f10610ecb57610100808354040283529160200191610ef6565b820191906000526020600020905b815481529060010190602001808311610ed957829003601f168201915b5050505050905090565b610f08614514565b73ffffffffffffffffffffffffffffffffffffffff16610f2661264d565b73ffffffffffffffffffffffffffffffffffffffff1614610f73576040517febf9845900000000000000000000000000000000000000000000000000000000815260040160405180910390fd5b806040013560001480610f8d575080606001358160400135115b80610f9d57506101f48160600135115b15610fd4576040517fe8404b1a00000000000000000000000000000000000000000000000000000000815260040160405180910390fd5b8060a0013581608001351115611016576040517febc2e01600000000000000000000000000000000000000000000000000000000815260040160405180910390fd5b6064600282602001356110299190619057565b10611060576040517f28af878600000000000000000000000000000000000000000000000000000000815260040160405180910390fd5b806007818161106f91906192f8565b90505050565b606060138260405160200161108b929190619412565b6040516020818303038152906040529050919050565b60008060005b600060106000846110b790619445565b94508481526020019081526020016000205411156110f5576010600083815260200190815260200160002054816110ee919061948e565b90506110a7565b809250505090565b5050505050565b60006012905090565b606060008383905067ffffffffffffffff81111561112e5761112d6180dc565b5b60405190808252806020026020018201604052801561116757816020015b611154617b5a565b81526020019060019003908161114c5790505b50905060005b848490508110156113955760006001600087878581811061119157611190618f22565b5b90506020020160208101906111a69190617f47565b73ffffffffffffffffffffffffffffffffffffffff1673ffffffffffffffffffffffffffffffffffffffff16815260200190815260200160002054815481106111f2576111f1618f22565b5b90600052602060002090600402016040518060a001604052908160008201600880602002604051908101604052809291908260088015611273576020028201916000905b82829054906101000a900463ffffffff1663ffffffff16815260200190600401906020826003010492830192600103820291508084116112365790505b505050505081526020016001820160009054906101000a90046fffffffffffffffffffffffffffffffff166fffffffffffffffffffffffffffffffff166fffffffffffffffffffffffffffffffff1681526020016001820160109054906101000a90046fffffffffffffffffffffffffffffffff166fffffffffffffffffffffffffffffffff166fffffffffffffffffffffffffffffffff1681526020016002820160009054906101000a90046fffffffffffffffffffffffffffffffff166fffffffffffffffffffffffffffffffff166fffffffffffffffffffffffffffffffff16815260200160038201548152505082828151811061137757611376618f22565b5b6020026020010181905250808061138d90619445565b91505061116d565b508091505092915050565b6113a8614514565b73ffffffffffffffffffffffffffffffffffffffff166113c661264d565b73ffffffffffffffffffffffffffffffffffffffff1614611413576040517febf9845900000000000000000000000000000000000000000000000000000000815260040160405180910390fd5b8160119080519060200190611429929190617bc5565b508060129080519060200190611440929190617bc5565b505050565b6000846000600160008373ffffffffffffffffffffffffffffffffffffffff1673ffffffffffffffffffffffffffffffffffffffff1681526020019081526020016000205414806114e35750600460009054906101000a900473ffffffffffffffffffffffffffffffffffffffff1673ffffffffffffffffffffffffffffffffffffffff168173ffffffffffffffffffffffffffffffffffffffff16145b15611523576040517f08c379a000000000000000000000000000000000000000000000000000000000815260040161151a90618f02565b60405180910390fd5b8380421115611567576040517f08c379a000000000000000000000000000000000000000000000000000000000815260040161155e90619530565b60405180910390fd5b6000600160008973ffffffffffffffffffffffffffffffffffffffff1673ffffffffffffffffffffffffffffffffffffffff1681526020019081526020016000205490506115b688338961451c565b60006115c189614387565b9050600082815481106115d7576115d6618f22565b5b906000526020600020906004020160010160009054906101000a90046fffffffffffffffffffffffffffffffff166fffffffffffffffffffffffffffffffff16816116229190618f80565b975060018811611667576040517f08c379a000000000000000000000000000000000000000000000000000000000815260040161165e9061959c565b60405180910390fd5b6000611694600460009054906101000a900473ffffffffffffffffffffffffffffffffffffffff16614387565b90506000600254826116a69190618f80565b90506000611764600086815481106116c1576116c0618f22565b5b906000526020600020906004020160010160109054906101000a90046fffffffffffffffffffffffffffffffff166fffffffffffffffffffffffffffffffff166000878154811061171557611714618f22565b5b906000526020600020906004020160010160009054906101000a90046fffffffffffffffffffffffffffffffff166fffffffffffffffffffffffffffffffff1661175f9190619057565b6146d4565b905060006117d96000878154811061177f5761177e618f22565b5b906000526020600020906004020160020160009054906101000a90046fffffffffffffffffffffffffffffffff166fffffffffffffffffffffffffffffffff1683601060008a81526020019081526020016000205461474e565b9050600081111561182557611824600760000160009054906101000a900473ffffffffffffffffffffffffffffffffffffffff168783604051806020016040528060008152506147e4565b5b5050600080858154811061183c5761183b618f22565b5b906000526020600020906004020160010160009054906101000a90046fffffffffffffffffffffffffffffffff166fffffffffffffffffffffffffffffffff1660106000878152602001908152602001600020548c61189b9190619057565b6118a591906195eb565b90506118c2898683604051806020016040528060008152506147e4565b60008086815481106118d7576118d6618f22565b5b906000526020600020906004020160010160009054906101000a90046fffffffffffffffffffffffffffffffff166fffffffffffffffffffffffffffffffff166000878154811061192b5761192a618f22565b5b906000526020600020906004020160010160109054906101000a90046fffffffffffffffffffffffffffffffff166fffffffffffffffffffffffffffffffff168d6119769190619057565b61198091906195eb565b9050600181116119bc576040517f206f960000000000000000000000000000000000000000000000000000000000815260040160405180910390fd5b600460009054906101000a900473ffffffffffffffffffffffffffffffffffffffff1673ffffffffffffffffffffffffffffffffffffffff16630bb9ff5d30836040518363ffffffff1660e01b8152600401611a1992919061961c565b600060405180830381600087803b158015611a3357600080fd5b505af1158015611a47573d6000803e3d6000fd5b505050508083600254611a5a919061948e565b611a64919061948e565b6002819055508b60008781548110611a7f57611a7e618f22565b5b906000526020600020906004020160010160009054906101000a90046fffffffffffffffffffffffffffffffff16611ab79190619645565b60008781548110611acb57611aca618f22565b5b906000526020600020906004020160010160006101000a8154816fffffffffffffffffffffffffffffffff02191690836fffffffffffffffffffffffffffffffff1602179055508083611b1e919061948e565b60008781548110611b3257611b31618f22565b5b906000526020600020906004020160010160109054906101000a90046fffffffffffffffffffffffffffffffff16611b6a9190619645565b60008781548110611b7e57611b7d618f22565b5b906000526020600020906004020160010160106101000a8154816fffffffffffffffffffffffffffffffff02191690836fffffffffffffffffffffffffffffffff160217905550611c7f60008781548110611bdc57611bdb618f22565b5b906000526020600020906004020160010160109054906101000a90046fffffffffffffffffffffffffffffffff166fffffffffffffffffffffffffffffffff1660008881548110611c3057611c2f618f22565b5b906000526020600020906004020160010160009054906101000a90046fffffffffffffffffffffffffffffffff166fffffffffffffffffffffffffffffffff16611c7a9190619057565b6146d4565b60008781548110611c9357611c92618f22565b5b906000526020600020906004020160020160006101000a8154816fffffffffffffffffffffffffffffffff02191690836fffffffffffffffffffffffffffffffff1602179055507f64b83944e79c3ce8d4c297411de637c3e102d064677aac0c163976ebdcd6f50e8d8d8385604051611d0f949392919061968b565b60405180910390a15080975050505050505050949350505050565b6000600460009054906101000a900473ffffffffffffffffffffffffffffffffffffffff1673ffffffffffffffffffffffffffffffffffffffff168473ffffffffffffffffffffffffffffffffffffffff1614158015611dd75750600460009054906101000a900473ffffffffffffffffffffffffffffffffffffffff1673ffffffffffffffffffffffffffffffffffffffff168373ffffffffffffffffffffffffffffffffffffffff16145b15611ded57611de68483614972565b9050611f7d565b600460009054906101000a900473ffffffffffffffffffffffffffffffffffffffff1673ffffffffffffffffffffffffffffffffffffffff168473ffffffffffffffffffffffffffffffffffffffff16148015611e985750600460009054906101000a900473ffffffffffffffffffffffffffffffffffffffff1673ffffffffffffffffffffffffffffffffffffffff168373ffffffffffffffffffffffffffffffffffffffff1614155b15611eae57611ea78383614b58565b9050611f7c565b600460009054906101000a900473ffffffffffffffffffffffffffffffffffffffff1673ffffffffffffffffffffffffffffffffffffffff168473ffffffffffffffffffffffffffffffffffffffff1614158015611f5a5750600460009054906101000a900473ffffffffffffffffffffffffffffffffffffffff1673ffffffffffffffffffffffffffffffffffffffff168473ffffffffffffffffffffffffffffffffffffffff1614155b15611f7b576000611f6b8584614972565b9050611f778482614b58565b9150505b5b5b9392505050565b6000611fce600160008473ffffffffffffffffffffffffffffffffffffffff1673ffffffffffffffffffffffffffffffffffffffff16815260200190815260200160002054614d38565b9050919050565b60608151835114612012576040517f80dadc2700000000000000000000000000000000000000000000000000000000815260040160405180910390fd5b6000835167ffffffffffffffff81111561202f5761202e6180dc565b5b60405190808252806020026020018201604052801561205d5781602001602082028036833780820191505090505b50905060005b84518110156120da576120aa85828151811061208257612081618f22565b5b602002602001015185838151811061209d5761209c618f22565b5b6020026020010151610a33565b8282815181106120bd576120bc618f22565b5b602002602001018181525050806120d390619445565b9050612063565b508091505092915050565b6000806120f183613468565b119050919050565b61210584848484614fb7565b50505050565b6000600160008373ffffffffffffffffffffffffffffffffffffffff1673ffffffffffffffffffffffffffffffffffffffff168152602001908152602001600020549050919050565b61215c614514565b73ffffffffffffffffffffffffffffffffffffffff1661217a61264d565b73ffffffffffffffffffffffffffffffffffffffff16146121c7576040517febf9845900000000000000000000000000000000000000000000000000000000815260040160405180910390fd5b6121d16000615ad3565b565b6000600160008473ffffffffffffffffffffffffffffffffffffffff1673ffffffffffffffffffffffffffffffffffffffff168152602001908152602001600020549050817fffffffffffffffffffffffffffffffffffffffffffffffffffffffffffffffff6122439190618f80565b6000828154811061225757612256618f22565b5b90600052602060002090600402016003015411156122aa576040517f08c379a00000000000000000000000000000000000000000000000000000000081526004016122a19061971c565b60405180910390fd5b81600082815481106122bf576122be618f22565b5b906000526020600020906004020160030160008282546122df919061948e565b92505081905550600460009054906101000a900473ffffffffffffffffffffffffffffffffffffffff1673ffffffffffffffffffffffffffffffffffffffff166318a8ad8733846040518363ffffffff1660e01b815260040161234392919061961c565b600060405180830381600087803b15801561235d57600080fd5b505af1158015612371573d6000803e3d6000fd5b505050507f51ab1232a73b82b6b0acb0fa91b834cf6e258a1858c4e23c72ce97241c71aa0d83600083815481106123ab576123aa618f22565b5b906000526020600020906004020160010160009054906101000a90046fffffffffffffffffffffffffffffffff16600084815481106123ed576123ec618f22565b5b906000526020600020906004020160010160109054906101000a90046fffffffffffffffffffffffffffffffff166000858154811061242f5761242e618f22565b5b906000526020600020906004020160030154604051612451949392919061976d565b60405180910390a1505050565b6000846000600160008373ffffffffffffffffffffffffffffffffffffffff1673ffffffffffffffffffffffffffffffffffffffff1681526020019081526020016000205414806124fc5750600460009054906101000a900473ffffffffffffffffffffffffffffffffffffffff1673ffffffffffffffffffffffffffffffffffffffff168173ffffffffffffffffffffffffffffffffffffffff16145b1561253c576040517f08c379a000000000000000000000000000000000000000000000000000000000815260040161253390618f02565b60405180910390fd5b8380421115612580576040517f08c379a000000000000000000000000000000000000000000000000000000000815260040161257790619530565b60405180910390fd5b61258b878786615b99565b92505050949350505050565b6125a58484846000856162ca565b50505050565b6125b3617c4b565b60076040518060c00160405290816000820160009054906101000a900473ffffffffffffffffffffffffffffffffffffffff1673ffffffffffffffffffffffffffffffffffffffff1673ffffffffffffffffffffffffffffffffffffffff16815260200160018201548152602001600282015481526020016003820154815260200160048201548152602001600582015481525050905090565b6000601460009054906101000a900473ffffffffffffffffffffffffffffffffffffffff16905090565b60606012805461268690619025565b80601f01602080910402602001604051908101604052809291908181526020018280546126b290619025565b80156126ff5780601f106126d4576101008083540402835291602001916126ff565b820191906000526020600020905b8154815290600101906020018083116126e257829003601f168201915b5050505050905090565b806000600160008373ffffffffffffffffffffffffffffffffffffffff1673ffffffffffffffffffffffffffffffffffffffff1681526020019081526020016000205414806127a55750600460009054906101000a900473ffffffffffffffffffffffffffffffffffffffff1673ffffffffffffffffffffffffffffffffffffffff168173ffffffffffffffffffffffffffffffffffffffff16145b156127e5576040517f08c379a00000000000000000000000000000000000000000000000000000000081526004016127dc90618f02565b60405180910390fd5b6000600160008473ffffffffffffffffffffffffffffffffffffffff1673ffffffffffffffffffffffffffffffffffffffff16815260200190815260200160002054905061283283614387565b6000828154811061284657612845618f22565b5b906000526020600020906004020160010160006101000a8154816fffffffffffffffffffffffffffffffff02191690836fffffffffffffffffffffffffffffffff16021790555060006128ba600460009054906101000a900473ffffffffffffffffffffffffffffffffffffffff16614387565b905060025481600084815481106128d4576128d3618f22565b5b906000526020600020906004020160010160109054906101000a90046fffffffffffffffffffffffffffffffff166fffffffffffffffffffffffffffffffff1661291e919061948e565b6129289190618f80565b6000838154811061293c5761293b618f22565b5b906000526020600020906004020160010160106101000a8154816fffffffffffffffffffffffffffffffff02191690836fffffffffffffffffffffffffffffffff160217905550600254816000848154811061299b5761299a618f22565b5b9060005260206000209060040201600301546129b7919061948e565b6129c19190618f80565b600083815481106129d5576129d4618f22565b5b906000526020600020906004020160030181905550806002819055507f51ab1232a73b82b6b0acb0fa91b834cf6e258a1858c4e23c72ce97241c71aa0d8460008481548110612a2757612a26618f22565b5b906000526020600020906004020160010160009054906101000a90046fffffffffffffffffffffffffffffffff1660008581548110612a6957612a68618f22565b5b906000526020600020906004020160010160109054906101000a90046fffffffffffffffffffffffffffffffff1660008681548110612aab57612aaa618f22565b5b906000526020600020906004020160030154604051612acd949392919061976d565b60405180910390a150505050565b3033600073def1fac7bf08f173d286bbbdcbeeade69512984073ffffffffffffffffffffffffffffffffffffffff166306fb1a0760036040518263ffffffff1660e01b8152600401612b2d9190617e71565b602060405180830381865afa158015612b4a573d6000803e3d6000fd5b505050506040513d601f19601f82011682018060405250810190612b6e9190618fc9565b90508073ffffffffffffffffffffffffffffffffffffffff1663322d5fbc84846040518363ffffffff1660e01b8152600401612bab9291906197b2565b6020604051808303816000875af1158015612bca573d6000803e3d6000fd5b505050506040513d601f19601f82011682018060405250810190612bee91906197f0565b15612c25576040517f0e30cf0f00000000000000000000000000000000000000000000000000000000815260040160405180910390fd5b8073ffffffffffffffffffffffffffffffffffffffff1663eef84ba16040518163ffffffff1660e01b8152600401600060405180830381600087803b158015612c6d57600080fd5b505af1158015612c81573d6000803e3d6000fd5b50505050612c97612c90614514565b8686616833565b5050505050565b6000808380421115612ce5576040517f08c379a0000000000000000000000000000000000000000000000000000000008152600401612cdc90619530565b60405180910390fd5b60018711612d28576040517f08c379a0000000000000000000000000000000000000000000000000000000008152600401612d1f9061959c565b60405180910390fd5b60003390506000600460009054906101000a900473ffffffffffffffffffffffffffffffffffffffff1673ffffffffffffffffffffffffffffffffffffffff168b73ffffffffffffffffffffffffffffffffffffffff1614158015612dda5750600460009054906101000a900473ffffffffffffffffffffffffffffffffffffffff1673ffffffffffffffffffffffffffffffffffffffff168a73ffffffffffffffffffffffffffffffffffffffff16145b15612e4b57612de98b8a614972565b905087811015612e2e576040517f08c379a0000000000000000000000000000000000000000000000000000000008152600401612e2590619869565b60405180910390fd5b612e398b838b61451c565b612e468b60008389614fb7565b6130dd565b600460009054906101000a900473ffffffffffffffffffffffffffffffffffffffff1673ffffffffffffffffffffffffffffffffffffffff168b73ffffffffffffffffffffffffffffffffffffffff16148015612ef65750600460009054906101000a900473ffffffffffffffffffffffffffffffffffffffff1673ffffffffffffffffffffffffffffffffffffffff168a73ffffffffffffffffffffffffffffffffffffffff1614155b15612f6757612f058a8a614b58565b905087811015612f4a576040517f08c379a0000000000000000000000000000000000000000000000000000000008152600401612f41906198d5565b60405180910390fd5b612f558b838b61451c565b612f628a82600089614fb7565b6130dc565b600460009054906101000a900473ffffffffffffffffffffffffffffffffffffffff1673ffffffffffffffffffffffffffffffffffffffff168b73ffffffffffffffffffffffffffffffffffffffff16141580156130135750600460009054906101000a900473ffffffffffffffffffffffffffffffffffffffff1673ffffffffffffffffffffffffffffffffffffffff168b73ffffffffffffffffffffffffffffffffffffffff1614155b156130a05760006130248c8b614972565b90506130308b82614b58565b915088821015613075576040517f08c379a000000000000000000000000000000000000000000000000000000000815260040161306c906198d5565b60405180910390fd5b6130808c848c61451c565b61308d8c60008330614fb7565b61309a8b8360008a614fb7565b506130db565b6040517f08c379a00000000000000000000000000000000000000000000000000000000081526004016130d290619941565b60405180910390fd5b5b5b888194509450505050965096945050505050565b606060008383905067ffffffffffffffff811115613112576131116180dc565b5b60405190808252806020026020018201604052801561314b57816020015b613138617b5a565b8152602001906001900390816131305790505b50905060005b8484905081101561332c57600085858381811061317157613170618f22565b5b905060200201358154811061318957613188618f22565b5b90600052602060002090600402016040518060a00160405290816000820160088060200260405190810160405280929190826008801561320a576020028201916000905b82829054906101000a900463ffffffff1663ffffffff16815260200190600401906020826003010492830192600103820291508084116131cd5790505b505050505081526020016001820160009054906101000a90046fffffffffffffffffffffffffffffffff166fffffffffffffffffffffffffffffffff166fffffffffffffffffffffffffffffffff1681526020016001820160109054906101000a90046fffffffffffffffffffffffffffffffff166fffffffffffffffffffffffffffffffff166fffffffffffffffffffffffffffffffff1681526020016002820160009054906101000a90046fffffffffffffffffffffffffffffffff166fffffffffffffffffffffffffffffffff166fffffffffffffffffffffffffffffffff16815260200160038201548152505082828151811061330e5761330d618f22565b5b6020026020010181905250808061332490619445565b915050613151565b508091505092915050565b61333f614514565b73ffffffffffffffffffffffffffffffffffffffff1661335d61264d565b73ffffffffffffffffffffffffffffffffffffffff16146133aa576040517febf9845900000000000000000000000000000000000000000000000000000000815260040160405180910390fd5b6133d2816040516020016133be91906199de565b604051602081830303815290604052616997565b80601390805190602001906133e8929190617bc5565b5050565b61342e600360009054906101000a900473ffffffffffffffffffffffffffffffffffffffff1669d3c21bcecceda10000006969e10de76676d080000033613a3a565b613466600560009054906101000a900473ffffffffffffffffffffffffffffffffffffffff1669943b1377290cbd8000008033613a3a565b565b600060106000838152602001908152602001600020549050919050565b61348d614514565b73ffffffffffffffffffffffffffffffffffffffff166134ab61264d565b73ffffffffffffffffffffffffffffffffffffffff16146134f8576040517febf9845900000000000000000000000000000000000000000000000000000000815260040160405180910390fd5b613537600660009054906101000a900473ffffffffffffffffffffffffffffffffffffffff1666038d7ea4c6800069d3c21bcecceda100000033613a3a565b565b6000600460009054906101000a900473ffffffffffffffffffffffffffffffffffffffff1673ffffffffffffffffffffffffffffffffffffffff168473ffffffffffffffffffffffffffffffffffffffff16141580156135e65750600460009054906101000a900473ffffffffffffffffffffffffffffffffffffffff1673ffffffffffffffffffffffffffffffffffffffff168373ffffffffffffffffffffffffffffffffffffffff16145b156135fc576135f584836169b1565b905061378c565b600460009054906101000a900473ffffffffffffffffffffffffffffffffffffffff1673ffffffffffffffffffffffffffffffffffffffff168473ffffffffffffffffffffffffffffffffffffffff161480156136a75750600460009054906101000a900473ffffffffffffffffffffffffffffffffffffffff1673ffffffffffffffffffffffffffffffffffffffff168373ffffffffffffffffffffffffffffffffffffffff1614155b156136bd576136b68383616b97565b905061378b565b600460009054906101000a900473ffffffffffffffffffffffffffffffffffffffff1673ffffffffffffffffffffffffffffffffffffffff168473ffffffffffffffffffffffffffffffffffffffff16141580156137695750600460009054906101000a900473ffffffffffffffffffffffffffffffffffffffff1673ffffffffffffffffffffffffffffffffffffffff168373ffffffffffffffffffffffffffffffffffffffff1614155b1561378a57600061377a8484616b97565b905061378685826169b1565b9150505b5b5b9392505050565b61379b614514565b73ffffffffffffffffffffffffffffffffffffffff166137b961264d565b73ffffffffffffffffffffffffffffffffffffffff1614613806576040517febf9845900000000000000000000000000000000000000000000000000000000815260040160405180910390fd5b816000600160008373ffffffffffffffffffffffffffffffffffffffff1673ffffffffffffffffffffffffffffffffffffffff1681526020019081526020016000205414806138a25750600460009054906101000a900473ffffffffffffffffffffffffffffffffffffffff1673ffffffffffffffffffffffffffffffffffffffff168173ffffffffffffffffffffffffffffffffffffffff16145b156138e2576040517f08c379a00000000000000000000000000000000000000000000000000000000081526004016138d990618f02565b60405180910390fd5b6000600160008573ffffffffffffffffffffffffffffffffffffffff1673ffffffffffffffffffffffffffffffffffffffff168152602001908152602001600020549050826000828154811061393b5761393a618f22565b5b9060005260206000209060040201600301819055507f51ab1232a73b82b6b0acb0fa91b834cf6e258a1858c4e23c72ce97241c71aa0d846000838154811061398657613985618f22565b5b906000526020600020906004020160010160009054906101000a90046fffffffffffffffffffffffffffffffff16600084815481106139c8576139c7618f22565b5b906000526020600020906004020160010160109054906101000a90046fffffffffffffffffffffffffffffffff1660008581548110613a0a57613a09618f22565b5b906000526020600020906004020160030154604051613a2c949392919061976d565b60405180910390a150505050565b613a42614514565b73ffffffffffffffffffffffffffffffffffffffff16613a6061264d565b73ffffffffffffffffffffffffffffffffffffffff1614613aad576040517febf9845900000000000000000000000000000000000000000000000000000000815260040160405180910390fd5b613ada8484847fffffffffffffffffffffffffffffffffffffffffffffffffffffffffffffffff856162ca565b50505050565b6000600e60008473ffffffffffffffffffffffffffffffffffffffff1673ffffffffffffffffffffffffffffffffffffffff16815260200190815260200160002060008373ffffffffffffffffffffffffffffffffffffffff1673ffffffffffffffffffffffffffffffffffffffff16815260200190815260200160002060009054906101000a900460ff16905092915050565b83600360006101000a81548173ffffffffffffffffffffffffffffffffffffffff021916908373ffffffffffffffffffffffffffffffffffffffff16021790555082600460006101000a81548173ffffffffffffffffffffffffffffffffffffffff021916908373ffffffffffffffffffffffffffffffffffffffff16021790555081600560006101000a81548173ffffffffffffffffffffffffffffffffffffffff021916908373ffffffffffffffffffffffffffffffffffffffff160217905550613c3f6133ec565b5050505050565b613c4e614514565b73ffffffffffffffffffffffffffffffffffffffff168573ffffffffffffffffffffffffffffffffffffffff1614158015613c975750613c9585613c90614514565b613ae0565b155b15613cce576040517f6f34aaa800000000000000000000000000000000000000000000000000000000815260040160405180910390fd5b613cd9308686616d77565b613ce68585858585616f65565b5050505050565b613cf5614514565b73ffffffffffffffffffffffffffffffffffffffff16613d1361264d565b73ffffffffffffffffffffffffffffffffffffffff1614613d60576040517febf9845900000000000000000000000000000000000000000000000000000000815260040160405180910390fd5b600073ffffffffffffffffffffffffffffffffffffffff168173ffffffffffffffffffffffffffffffffffffffff161415613dc7576040517f5868b79d00000000000000000000000000000000000000000000000000000000815260040160405180910390fd5b613dd081615ad3565b50565b613ddb614514565b73ffffffffffffffffffffffffffffffffffffffff168373ffffffffffffffffffffffffffffffffffffffff1614158015613e245750613e2283613e1d614514565b613ae0565b155b15613e5b576040517f6f34aaa800000000000000000000000000000000000000000000000000000000815260040160405180910390fd5b613e668383836171d8565b505050565b6000808380421115613eb2576040517f08c379a0000000000000000000000000000000000000000000000000000000008152600401613ea990619530565b60405180910390fd5b60003390506000600460009054906101000a900473ffffffffffffffffffffffffffffffffffffffff1673ffffffffffffffffffffffffffffffffffffffff168b73ffffffffffffffffffffffffffffffffffffffff1614158015613f645750600460009054906101000a900473ffffffffffffffffffffffffffffffffffffffff1673ffffffffffffffffffffffffffffffffffffffff168a73ffffffffffffffffffffffffffffffffffffffff16145b1561401857613f738b8a6169b1565b905087811115613fb8576040517f08c379a0000000000000000000000000000000000000000000000000000000008152600401613faf90619a4c565b60405180910390fd5b60018111613ffb576040517f08c379a0000000000000000000000000000000000000000000000000000000008152600401613ff29061959c565b60405180910390fd5b6140068b838361451c565b6140138b60008b89614fb7565b614373565b600460009054906101000a900473ffffffffffffffffffffffffffffffffffffffff1673ffffffffffffffffffffffffffffffffffffffff168b73ffffffffffffffffffffffffffffffffffffffff161480156140c35750600460009054906101000a900473ffffffffffffffffffffffffffffffffffffffff1673ffffffffffffffffffffffffffffffffffffffff168a73ffffffffffffffffffffffffffffffffffffffff1614155b15614177576140d28a8a616b97565b905087811115614117576040517f08c379a000000000000000000000000000000000000000000000000000000000815260040161410e90619ab8565b60405180910390fd5b6001811161415a576040517f08c379a000000000000000000000000000000000000000000000000000000000815260040161415190619b24565b60405180910390fd5b6141658b838361451c565b6141728a8a600089614fb7565b614372565b600460009054906101000a900473ffffffffffffffffffffffffffffffffffffffff1673ffffffffffffffffffffffffffffffffffffffff168b73ffffffffffffffffffffffffffffffffffffffff16141580156142235750600460009054906101000a900473ffffffffffffffffffffffffffffffffffffffff1673ffffffffffffffffffffffffffffffffffffffff168a73ffffffffffffffffffffffffffffffffffffffff1614155b156143365760006142348b8b616b97565b905060018111614279576040517f08c379a000000000000000000000000000000000000000000000000000000000815260040161427090619b24565b60405180910390fd5b6142838c826169b1565b9150888211156142c8576040517f08c379a00000000000000000000000000000000000000000000000000000000081526004016142bf90619a4c565b60405180910390fd5b6001821161430b576040517f08c379a00000000000000000000000000000000000000000000000000000000081526004016143029061959c565b60405180910390fd5b6143168c848461451c565b6143238c60008330614fb7565b6143308b8b60008a614fb7565b50614371565b6040517f08c379a000000000000000000000000000000000000000000000000000000000815260040161436890619941565b60405180910390fd5b5b5b808994509450505050965096945050505050565b6000600660009054906101000a900473ffffffffffffffffffffffffffffffffffffffff1673ffffffffffffffffffffffffffffffffffffffff168273ffffffffffffffffffffffffffffffffffffffff1614156143e757479050614464565b8173ffffffffffffffffffffffffffffffffffffffff166370a08231306040518263ffffffff1660e01b81526004016144209190617fb0565b602060405180830381865afa15801561443d573d6000803e3d6000fd5b505050506040513d601f19601f820116820180604052508101906144619190619b59565b90505b919050565b3073ffffffffffffffffffffffffffffffffffffffff168373ffffffffffffffffffffffffffffffffffffffff161461450e57600660009054906101000a900473ffffffffffffffffffffffffffffffffffffffff1673ffffffffffffffffffffffffffffffffffffffff168473ffffffffffffffffffffffffffffffffffffffff161415614501576144fc83836173e5565b61450d565b61450c8484846174dc565b5b5b50505050565b600033905090565b600660009054906101000a900473ffffffffffffffffffffffffffffffffffffffff1673ffffffffffffffffffffffffffffffffffffffff168373ffffffffffffffffffffffffffffffffffffffff16146145fa5760003411156145b5576040517f08c379a00000000000000000000000000000000000000000000000000000000081526004016145ac90619bd2565b60405180910390fd5b3073ffffffffffffffffffffffffffffffffffffffff168273ffffffffffffffffffffffffffffffffffffffff16146145f5576145f483833084617609565b5b6146cf565b600660009054906101000a900473ffffffffffffffffffffffffffffffffffffffff1673ffffffffffffffffffffffffffffffffffffffff168373ffffffffffffffffffffffffffffffffffffffff1614156146ce578034101561468a576040517fac50b70d00000000000000000000000000000000000000000000000000000000815260040160405180910390fd5b803411156146cd576146cc600660009054906101000a900473ffffffffffffffffffffffffffffffffffffffff163383346146c59190618f80565b6000614469565b5b5b5b505050565b6000600382111561473b57819050600060016002846146f391906195eb565b6146fd919061948e565b90505b8181101561473557809150600281828561471a91906195eb565b614724919061948e565b61472e91906195eb565b9050614700565b50614749565b6000821461474857600190505b5b919050565b60008060006007600101549050858511801561476a5750600086115b80156147765750600081115b156147d85780866147879190619057565b8160646147949190618f80565b8661479f9190619057565b6147a9919061948e565b86866147b59190618f80565b82866147c19190619057565b6147cb9190619057565b6147d591906195eb565b91505b81925050509392505050565b600073ffffffffffffffffffffffffffffffffffffffff168473ffffffffffffffffffffffffffffffffffffffff16141561484b576040517ff84619ac00000000000000000000000000000000000000000000000000000000815260040160405180910390fd5b6000614855614514565b90506148768160008761486788617739565b61487088617739565b876177b3565b82600d600086815260200190815260200160002060008773ffffffffffffffffffffffffffffffffffffffff1673ffffffffffffffffffffffffffffffffffffffff16815260200190815260200160002060008282546148d6919061948e565b925050819055508473ffffffffffffffffffffffffffffffffffffffff16600073ffffffffffffffffffffffffffffffffffffffff168273ffffffffffffffffffffffffffffffffffffffff167fc3d58168c5ae7397731d063d5bbf3d657854427343f4c083240f7aacaa2d0f628787604051614954929190618bfc565b60405180910390a461496b8160008787878761792d565b5050505050565b6000826000600160008373ffffffffffffffffffffffffffffffffffffffff1673ffffffffffffffffffffffffffffffffffffffff168152602001908152602001600020541480614a105750600460009054906101000a900473ffffffffffffffffffffffffffffffffffffffff1673ffffffffffffffffffffffffffffffffffffffff168173ffffffffffffffffffffffffffffffffffffffff16145b15614a50576040517f08c379a0000000000000000000000000000000000000000000000000000000008152600401614a4790618f02565b60405180910390fd5b6000600160008673ffffffffffffffffffffffffffffffffffffffff1673ffffffffffffffffffffffffffffffffffffffff168152602001908152602001600020549050614b4e8460008381548110614aac57614aab618f22565b5b906000526020600020906004020160010160009054906101000a90046fffffffffffffffffffffffffffffffff166fffffffffffffffffffffffffffffffff1660008481548110614b0057614aff618f22565b5b906000526020600020906004020160010160109054906101000a90046fffffffffffffffffffffffffffffffff166fffffffffffffffffffffffffffffffff16614b4985614d38565b617a76565b9250505092915050565b6000826000600160008373ffffffffffffffffffffffffffffffffffffffff1673ffffffffffffffffffffffffffffffffffffffff168152602001908152602001600020541480614bf65750600460009054906101000a900473ffffffffffffffffffffffffffffffffffffffff1673ffffffffffffffffffffffffffffffffffffffff168173ffffffffffffffffffffffffffffffffffffffff16145b15614c36576040517f08c379a0000000000000000000000000000000000000000000000000000000008152600401614c2d90618f02565b60405180910390fd5b6000600160008673ffffffffffffffffffffffffffffffffffffffff1673ffffffffffffffffffffffffffffffffffffffff168152602001908152602001600020549050614d2e8460008381548110614c9257614c91618f22565b5b906000526020600020906004020160010160109054906101000a90046fffffffffffffffffffffffffffffffff166fffffffffffffffffffffffffffffffff1660008481548110614ce657614ce5618f22565b5b906000526020600020906004020160010160009054906101000a90046fffffffffffffffffffffffffffffffff166fffffffffffffffffffffffffffffffff16612710617a76565b9250505092915050565b600080614d43617ac7565b905060006008600183614d56919061948e565b614d609190619bf2565b90506000805b6008811015614e005783811480614d7c57508281145b15614d8657614ded565b60008681548110614d9a57614d99618f22565b5b90600052602060002090600402016000018160088110614dbd57614dbc618f22565b5b600891828204019190066004029054906101000a900463ffffffff1663ffffffff1682614dea919061948e565b91505b8080614df890619445565b915050614d66565b50678ac7230489e8000081614e159190619057565b905060006402540be40060076004015460008881548110614e3957614e38618f22565b5b906000526020600020906004020160010160109054906101000a90046fffffffffffffffffffffffffffffffff166fffffffffffffffffffffffffffffffff16614e839190619057565b614e8d91906195eb565b905060006402540be40060076005015460008981548110614eb157614eb0618f22565b5b906000526020600020906004020160010160109054906101000a90046fffffffffffffffffffffffffffffffff166fffffffffffffffffffffffffffffffff16614efb9190619057565b614f0591906195eb565b90506000828411614f1d576007600301549050614f9c565b8383108015614f2b57508184105b15614f89578282614f3c9190618f80565b600760020154600760030154614f529190618f80565b8486614f5e9190618f80565b614f689190619057565b614f7291906195eb565b600760030154614f829190618f80565b9050614f9b565b81841115614f9a5760076002015490505b5b5b80612710614faa9190618f80565b9650505050505050919050565b836000600160008373ffffffffffffffffffffffffffffffffffffffff1673ffffffffffffffffffffffffffffffffffffffff1681526020019081526020016000205414806150535750600460009054906101000a900473ffffffffffffffffffffffffffffffffffffffff1673ffffffffffffffffffffffffffffffffffffffff168173ffffffffffffffffffffffffffffffffffffffff16145b15615093576040517f08c379a000000000000000000000000000000000000000000000000000000000815260040161508a90618f02565b60405180910390fd5b6000600160008773ffffffffffffffffffffffffffffffffffffffff1673ffffffffffffffffffffffffffffffffffffffff1681526020019081526020016000205490506000600254615107600460009054906101000a900473ffffffffffffffffffffffffffffffffffffffff16614387565b6151119190618f80565b9050600080838154811061512857615127618f22565b5b906000526020600020906004020160010160009054906101000a90046fffffffffffffffffffffffffffffffff166fffffffffffffffffffffffffffffffff1661517189614387565b61517b9190618f80565b90506001828261518b919061948e565b116151cb576040517f08c379a00000000000000000000000000000000000000000000000000000000081526004016151c290619c6f565b60405180910390fd5b60006001831180156151de575060018211155b6151f0576151eb84614d38565b6151f4565b6127105b90507fffffffffffffffffffffffffffffffffffffffffffffffffffffffffffffffff6000858154811061522b5761522a618f22565b5b906000526020600020906004020160030154108015615279575086836000868154811061525b5761525a618f22565b5b906000526020600020906004020160030154615277919061948e565b105b156152b9576040517f08c379a00000000000000000000000000000000000000000000000000000000081526004016152b090619cdb565b60405180910390fd5b6000612710600086815481106152d2576152d1618f22565b5b906000526020600020906004020160010160009054906101000a90046fffffffffffffffffffffffffffffffff166fffffffffffffffffffffffffffffffff166127106000888154811061532957615328618f22565b5b906000526020600020906004020160010160109054906101000a90046fffffffffffffffffffffffffffffffff166fffffffffffffffffffffffffffffffff166153739190619057565b61537d9190619057565b6153879190619057565b90506000888560025461539a919061948e565b6153a49190618f80565b905060008986600089815481106153be576153bd618f22565b5b906000526020600020906004020160010160109054906101000a90046fffffffffffffffffffffffffffffffff166fffffffffffffffffffffffffffffffff16615408919061948e565b6154129190618f80565b905060008b8660008a8154811061542c5761542b618f22565b5b906000526020600020906004020160010160009054906101000a90046fffffffffffffffffffffffffffffffff166fffffffffffffffffffffffffffffffff16615476919061948e565b6154809190618f80565b90506000856127106154929190618f80565b8761549d9190619057565b612710836154ab9190619057565b6154b59190618f80565b866127106154c39190618f80565b896154ce9190619057565b612710856154dc9190619057565b6154e69190618f80565b6154f09190619057565b905084811015615535576040517f08c379a000000000000000000000000000000000000000000000000000000000815260040161552c90619d47565b60405180910390fd5b836002819055508260008a8154811061555157615550618f22565b5b906000526020600020906004020160010160106101000a8154816fffffffffffffffffffffffffffffffff02191690836fffffffffffffffffffffffffffffffff1602179055508160008a815481106155ad576155ac618f22565b5b906000526020600020906004020160010160006101000a8154816fffffffffffffffffffffffffffffffff02191690836fffffffffffffffffffffffffffffffff1602179055507fffffffffffffffffffffffffffffffffffffffffffffffffffffffffffffffff60008a8154811061562957615628618f22565b5b90600052602060002090600402016003015410156156a7578b8860008b8154811061565757615656618f22565b5b906000526020600020906004020160030154615673919061948e565b61567d9190618f80565b60008a8154811061569157615690618f22565b5b9060005260206000209060040201600301819055505b505050505060006156b6617ac7565b90506000600860016156c6617ac7565b6156d0919061948e565b6156da9190619bf2565b9050678ac7230489e800008911156157e2576000678ac7230489e800008a61570291906195eb565b6000888154811061571657615715618f22565b5b9060005260206000209060040201600001846008811061573957615738618f22565b5b600891828204019190066004029054906101000a900463ffffffff1663ffffffff16615765919061948e565b905063ffffffff8016811061577e5763ffffffff615780565b805b6000888154811061579457615793618f22565b5b906000526020600020906004020160000184600881106157b7576157b6618f22565b5b600891828204019190066004026101000a81548163ffffffff021916908363ffffffff160217905550505b6001600087815481106157f8576157f7618f22565b5b9060005260206000209060040201600001826008811061581b5761581a618f22565b5b600891828204019190066004029054906101000a900463ffffffff1663ffffffff1611156158a65760016000878154811061585957615858618f22565b5b9060005260206000209060040201600001826008811061587c5761587b618f22565b5b600891828204019190066004026101000a81548163ffffffff021916908363ffffffff1602179055505b60008a1115615957576158bc8b898c6001614469565b60006158c78c614387565b9050600087815481106158dd576158dc618f22565b5b906000526020600020906004020160010160009054906101000a90046fffffffffffffffffffffffffffffffff166fffffffffffffffffffffffffffffffff168114615955576040517fa8b538d300000000000000000000000000000000000000000000000000000000815260040160405180910390fd5b505b60008911156159905761598f600460009054906101000a900473ffffffffffffffffffffffffffffffffffffffff16898b6001614469565b5b7f4ab7f3f4678bf8f6cbe4d85e4007b7c64df8e1d5d97de1628f4a6416f9d1db038b3386888e8e896127106159c59190618f80565b8f6040516159da989796959493929190619d67565b60405180910390a17f51ab1232a73b82b6b0acb0fa91b834cf6e258a1858c4e23c72ce97241c71aa0d8b60008881548110615a1857615a17618f22565b5b906000526020600020906004020160010160009054906101000a90046fffffffffffffffffffffffffffffffff1660008981548110615a5a57615a59618f22565b5b906000526020600020906004020160010160109054906101000a90046fffffffffffffffffffffffffffffffff1660008a81548110615a9c57615a9b618f22565b5b906000526020600020906004020160030154604051615abe949392919061976d565b60405180910390a15050505050505050505050565b6000601460009054906101000a900473ffffffffffffffffffffffffffffffffffffffff16905081601460006101000a81548173ffffffffffffffffffffffffffffffffffffffff021916908373ffffffffffffffffffffffffffffffffffffffff1602179055508173ffffffffffffffffffffffffffffffffffffffff168173ffffffffffffffffffffffffffffffffffffffff167f8be0079c531659141344cd1fd0a4f28419497f9722a3daafe3b4186f6b6457e060405160405180910390a35050565b600080600160008673ffffffffffffffffffffffffffffffffffffffff1673ffffffffffffffffffffffffffffffffffffffff1681526020019081526020016000205490506000615be986614387565b90506000808381548110615c0057615bff618f22565b5b906000526020600020906004020160010160009054906101000a90046fffffffffffffffffffffffffffffffff166fffffffffffffffffffffffffffffffff1682615c4b9190618f80565b90506000600254615c7d600460009054906101000a900473ffffffffffffffffffffffffffffffffffffffff16614387565b615c879190618f80565b90506000601060008681526020019081526020016000205490506000818960008881548110615cb957615cb8618f22565b5b906000526020600020906004020160010160009054906101000a90046fffffffffffffffffffffffffffffffff166fffffffffffffffffffffffffffffffff16615d039190619057565b615d0d91906195eb565b90506000828a60008981548110615d2757615d26618f22565b5b906000526020600020906004020160010160109054906101000a90046fffffffffffffffffffffffffffffffff166fffffffffffffffffffffffffffffffff16615d719190619057565b615d7b91906195eb565b90506000615e3960008981548110615d9657615d95618f22565b5b906000526020600020906004020160010160109054906101000a90046fffffffffffffffffffffffffffffffff166fffffffffffffffffffffffffffffffff1660008a81548110615dea57615de9618f22565b5b906000526020600020906004020160010160009054906101000a90046fffffffffffffffffffffffffffffffff166fffffffffffffffffffffffffffffffff16615e349190619057565b6146d4565b90506000615e9b60008a81548110615e5457615e53618f22565b5b906000526020600020906004020160020160009054906101000a90046fffffffffffffffffffffffffffffffff166fffffffffffffffffffffffffffffffff16838761474e565b90506000811115615ee757615ee6600760000160009054906101000a900473ffffffffffffffffffffffffffffffffffffffff168a83604051806020016040528060008152506147e4565b5b8286600254615ef6919061948e565b615f009190618f80565b600281905550838760008b81548110615f1c57615f1b618f22565b5b906000526020600020906004020160010160009054906101000a90046fffffffffffffffffffffffffffffffff16615f549190619645565b615f5e9190619de5565b60008a81548110615f7257615f71618f22565b5b906000526020600020906004020160010160006101000a8154816fffffffffffffffffffffffffffffffff02191690836fffffffffffffffffffffffffffffffff160217905550828660008b81548110615fcf57615fce618f22565b5b906000526020600020906004020160010160109054906101000a90046fffffffffffffffffffffffffffffffff166160079190619645565b6160119190619de5565b60008a8154811061602557616024618f22565b5b906000526020600020906004020160010160106101000a8154816fffffffffffffffffffffffffffffffff02191690836fffffffffffffffffffffffffffffffff16021790555061612660008a8154811061608357616082618f22565b5b906000526020600020906004020160010160109054906101000a90046fffffffffffffffffffffffffffffffff166fffffffffffffffffffffffffffffffff1660008b815481106160d7576160d6618f22565b5b906000526020600020906004020160010160009054906101000a90046fffffffffffffffffffffffffffffffff166fffffffffffffffffffffffffffffffff166161219190619057565b6146d4565b60008a8154811061613a57616139618f22565b5b906000526020600020906004020160020160006101000a8154816fffffffffffffffffffffffffffffffff02191690836fffffffffffffffffffffffffffffffff16021790555061618c338a8e6171d8565b600460009054906101000a900473ffffffffffffffffffffffffffffffffffffffff1673ffffffffffffffffffffffffffffffffffffffff166318a8ad8730856040518363ffffffff1660e01b81526004016161e992919061961c565b600060405180830381600087803b15801561620357600080fd5b505af1158015616217573d6000803e3d6000fd5b50505050505061622a8b8a846001614469565b60006162358c614387565b9050868382616244919061948e565b1461627b576040517fa8b538d300000000000000000000000000000000000000000000000000000000815260040160405180910390fd5b7f1dc8bb69df2b8e91fbdcbfcf93d951b3f0000f085a95fe3f7946d6161439245d8c84848e6040516162b0949392919061968b565b60405180910390a182985050505050505050509392505050565b846000600160008373ffffffffffffffffffffffffffffffffffffffff1673ffffffffffffffffffffffffffffffffffffffff168152602001908152602001600020541115616345576040517f402670df00000000000000000000000000000000000000000000000000000000815260040160405180910390fd5b61635086338761451c565b600460009054906101000a900473ffffffffffffffffffffffffffffffffffffffff1673ffffffffffffffffffffffffffffffffffffffff16630bb9ff5d30866040518363ffffffff1660e01b81526004016163ad92919061961c565b600060405180830381600087803b1580156163c757600080fd5b505af11580156163db573d6000803e3d6000fd5b505050506163e886614387565b94506001851161642d576040517f08c379a00000000000000000000000000000000000000000000000000000000081526004016164249061959c565b60405180910390fd5b6000616443858761643e9190619057565b6146d4565b905061644d617c97565b60005b600881101561649857600182826008811061646e5761646d618f22565b5b602002019063ffffffff16908163ffffffff1681525050808061649090619445565b915050616450565b5060006040518060a00160405280838152602001896fffffffffffffffffffffffffffffffff168152602001886fffffffffffffffffffffffffffffffff168152602001846fffffffffffffffffffffffffffffffff1681526020018781525090506000808054905090506000829080600181540180825580915050600190039060005260206000209060040201600090919091909150600082015181600001906008616546929190617cba565b5060208201518160010160006101000a8154816fffffffffffffffffffffffffffffffff02191690836fffffffffffffffffffffffffffffffff16021790555060408201518160010160106101000a8154816fffffffffffffffffffffffffffffffff02191690836fffffffffffffffffffffffffffffffff16021790555060608201518160020160006101000a8154816fffffffffffffffffffffffffffffffff02191690836fffffffffffffffffffffffffffffffff16021790555060808201518160030155505080600160008c73ffffffffffffffffffffffffffffffffffffffff1673ffffffffffffffffffffffffffffffffffffffff168152602001908152602001600020819055508760026000828254616666919061948e565b9250508190555061668c61dead826103e8604051806020016040528060008152506147e4565b60006103e86166a58a8c6166a09190619057565b6146d4565b6166af9190618f80565b90506166cc878383604051806020016040528060008152506147e4565b7f17aa8d0e85db1d0531a8181b5bb84e1d4ed744db1cadd8814acd3d181ff301378b836040516166fd92919061961c565b60405180910390a17f64b83944e79c3ce8d4c297411de637c3e102d064677aac0c163976ebdcd6f50e8b8b8b8460405161673a949392919061968b565b60405180910390a17f51ab1232a73b82b6b0acb0fa91b834cf6e258a1858c4e23c72ce97241c71aa0d8b6000848154811061677857616777618f22565b5b906000526020600020906004020160010160009054906101000a90046fffffffffffffffffffffffffffffffff16600085815481106167ba576167b9618f22565b5b906000526020600020906004020160010160109054906101000a90046fffffffffffffffffffffffffffffffff16600086815481106167fc576167fb618f22565b5b90600052602060002090600402016003015460405161681e949392919061976d565b60405180910390a15050505050505050505050565b8173ffffffffffffffffffffffffffffffffffffffff168373ffffffffffffffffffffffffffffffffffffffff161415616899576040517fc0532dc800000000000000000000000000000000000000000000000000000000815260040160405180910390fd5b80600e60008573ffffffffffffffffffffffffffffffffffffffff1673ffffffffffffffffffffffffffffffffffffffff16815260200190815260200160002060008473ffffffffffffffffffffffffffffffffffffffff1673ffffffffffffffffffffffffffffffffffffffff16815260200190815260200160002060006101000a81548160ff0219169083151502179055508173ffffffffffffffffffffffffffffffffffffffff168373ffffffffffffffffffffffffffffffffffffffff167f17307eab39ab6107e8899845ad3d59bd9653f200f220920489ca2b5937696c318360405161698a9190617f2c565b60405180910390a3505050565b80600f90805190602001906169ad929190617bc5565b5050565b6000826000600160008373ffffffffffffffffffffffffffffffffffffffff1673ffffffffffffffffffffffffffffffffffffffff168152602001908152602001600020541480616a4f5750600460009054906101000a900473ffffffffffffffffffffffffffffffffffffffff1673ffffffffffffffffffffffffffffffffffffffff168173ffffffffffffffffffffffffffffffffffffffff16145b15616a8f576040517f08c379a0000000000000000000000000000000000000000000000000000000008152600401616a8690618f02565b60405180910390fd5b6000600160008673ffffffffffffffffffffffffffffffffffffffff1673ffffffffffffffffffffffffffffffffffffffff168152602001908152602001600020549050616b8d8460008381548110616aeb57616aea618f22565b5b906000526020600020906004020160010160009054906101000a90046fffffffffffffffffffffffffffffffff166fffffffffffffffffffffffffffffffff1660008481548110616b3f57616b3e618f22565b5b906000526020600020906004020160010160109054906101000a90046fffffffffffffffffffffffffffffffff166fffffffffffffffffffffffffffffffff16616b8885614d38565b617ae8565b9250505092915050565b6000826000600160008373ffffffffffffffffffffffffffffffffffffffff1673ffffffffffffffffffffffffffffffffffffffff168152602001908152602001600020541480616c355750600460009054906101000a900473ffffffffffffffffffffffffffffffffffffffff1673ffffffffffffffffffffffffffffffffffffffff168173ffffffffffffffffffffffffffffffffffffffff16145b15616c75576040517f08c379a0000000000000000000000000000000000000000000000000000000008152600401616c6c90618f02565b60405180910390fd5b6000600160008673ffffffffffffffffffffffffffffffffffffffff1673ffffffffffffffffffffffffffffffffffffffff168152602001908152602001600020549050616d6d8460008381548110616cd157616cd0618f22565b5b906000526020600020906004020160010160109054906101000a90046fffffffffffffffffffffffffffffffff166fffffffffffffffffffffffffffffffff1660008481548110616d2557616d24618f22565b5b906000526020600020906004020160010160009054906101000a90046fffffffffffffffffffffffffffffffff166fffffffffffffffffffffffffffffffff16612710617ae8565b9250505092915050565b600073def1fac7bf08f173d286bbbdcbeeade69512984073ffffffffffffffffffffffffffffffffffffffff166306fb1a0760036040518263ffffffff1660e01b8152600401616dc79190617e71565b602060405180830381865afa158015616de4573d6000803e3d6000fd5b505050506040513d601f19601f82011682018060405250810190616e089190618fc9565b90508073ffffffffffffffffffffffffffffffffffffffff1663322d5fbc85856040518363ffffffff1660e01b8152600401616e459291906197b2565b6020604051808303816000875af1158015616e64573d6000803e3d6000fd5b505050506040513d601f19601f82011682018060405250810190616e8891906197f0565b616ebe576040517f0e30cf0f00000000000000000000000000000000000000000000000000000000815260040160405180910390fd5b3073ffffffffffffffffffffffffffffffffffffffff168273ffffffffffffffffffffffffffffffffffffffff1614616f5f578073ffffffffffffffffffffffffffffffffffffffff166372e64ad685846040518363ffffffff1660e01b8152600401616f2c9291906197b2565b600060405180830381600087803b158015616f4657600080fd5b505af1158015616f5a573d6000803e3d6000fd5b505050505b50505050565b600073ffffffffffffffffffffffffffffffffffffffff168473ffffffffffffffffffffffffffffffffffffffff161415616fcc576040517f3e63c34800000000000000000000000000000000000000000000000000000000815260040160405180910390fd5b6000616fd6614514565b9050616ff6818787616fe788617739565b616ff088617739565b876177b3565b6000600d600086815260200190815260200160002060008873ffffffffffffffffffffffffffffffffffffffff1673ffffffffffffffffffffffffffffffffffffffff16815260200190815260200160002054905083811015617085576040517f5ad11ec200000000000000000000000000000000000000000000000000000000815260040160405180910390fd5b838103600d600087815260200190815260200160002060008973ffffffffffffffffffffffffffffffffffffffff1673ffffffffffffffffffffffffffffffffffffffff1681526020019081526020016000208190555083600d600087815260200190815260200160002060008873ffffffffffffffffffffffffffffffffffffffff1673ffffffffffffffffffffffffffffffffffffffff168152602001908152602001600020600082825461713c919061948e565b925050819055508573ffffffffffffffffffffffffffffffffffffffff168773ffffffffffffffffffffffffffffffffffffffff168373ffffffffffffffffffffffffffffffffffffffff167fc3d58168c5ae7397731d063d5bbf3d657854427343f4c083240f7aacaa2d0f6288886040516171b9929190618bfc565b60405180910390a46171cf82888888888861792d565b50505050505050565b600073ffffffffffffffffffffffffffffffffffffffff168373ffffffffffffffffffffffffffffffffffffffff16141561723f576040517fedba591d00000000000000000000000000000000000000000000000000000000815260040160405180910390fd5b6000617249614514565b90506172798185600061725b87617739565b61726487617739565b604051806020016040528060008152506177b3565b6000600d600085815260200190815260200160002060008673ffffffffffffffffffffffffffffffffffffffff1673ffffffffffffffffffffffffffffffffffffffff16815260200190815260200160002054905082811015617308576040517f73eca78400000000000000000000000000000000000000000000000000000000815260040160405180910390fd5b828103600d600086815260200190815260200160002060008773ffffffffffffffffffffffffffffffffffffffff1673ffffffffffffffffffffffffffffffffffffffff16815260200190815260200160002081905550600073ffffffffffffffffffffffffffffffffffffffff168573ffffffffffffffffffffffffffffffffffffffff168373ffffffffffffffffffffffffffffffffffffffff167fc3d58168c5ae7397731d063d5bbf3d657854427343f4c083240f7aacaa2d0f6287876040516173d6929190618bfc565b60405180910390a45050505050565b60008273ffffffffffffffffffffffffffffffffffffffff1682600067ffffffffffffffff81111561741a576174196180dc565b5b6040519080825280601f01601f19166020018201604052801561744c5781602001600182028036833780820191505090505b5060405161745a9190619e60565b60006040518083038185875af1925050503d8060008114617497576040519150601f19603f3d011682016040523d82523d6000602084013e61749c565b606091505b50509050806174d7576040517f30667aab00000000000000000000000000000000000000000000000000000000815260040160405180910390fd5b505050565b6000808473ffffffffffffffffffffffffffffffffffffffff1663a9059cbb858560405160240161750e92919061961c565b6040516020818303038152906040529060e01b6020820180517bffffffffffffffffffffffffffffffffffffffffffffffffffffffff838183161783525050505060405161755c9190619e60565b6000604051808303816000865af19150503d8060008114617599576040519150601f19603f3d011682016040523d82523d6000602084013e61759e565b606091505b50915091508180156175cc57506000815114806175cb5750808060200190518101906175ca91906197f0565b5b5b617602576040517f7805da5300000000000000000000000000000000000000000000000000000000815260040160405180910390fd5b5050505050565b6000808573ffffffffffffffffffffffffffffffffffffffff166323b872dd86868660405160240161763d93929190619e77565b6040516020818303038152906040529060e01b6020820180517bffffffffffffffffffffffffffffffffffffffffffffffffffffffff838183161783525050505060405161768b9190619e60565b6000604051808303816000865af19150503d80600081146176c8576040519150601f19603f3d011682016040523d82523d6000602084013e6176cd565b606091505b50915091508180156176fb57506000815114806176fa5750808060200190518101906176f991906197f0565b5b5b617731576040517f6050fe2900000000000000000000000000000000000000000000000000000000815260040160405180910390fd5b505050505050565b60606000600167ffffffffffffffff811115617758576177576180dc565b5b6040519080825280602002602001820160405280156177865781602001602082028036833780820191505090505b509050828160008151811061779e5761779d618f22565b5b60200260200101818152505080915050919050565b6177c1868686868686617b3f565b600073ffffffffffffffffffffffffffffffffffffffff168573ffffffffffffffffffffffffffffffffffffffff1614156178735760005b83518110156178715782818151811061781557617814618f22565b5b60200260200101516010600086848151811061783457617833618f22565b5b602002602001015181526020019081526020016000206000828254617859919061948e565b925050819055508061786a90619445565b90506177f9565b505b600073ffffffffffffffffffffffffffffffffffffffff168473ffffffffffffffffffffffffffffffffffffffff1614156179255760005b8351811015617923578281815181106178c7576178c6618f22565b5b6020026020010151601060008684815181106178e6576178e5618f22565b5b60200260200101518152602001908152602001600020600082825461790b9190618f80565b925050819055508061791c90619445565b90506178ab565b505b505050505050565b61793684617b47565b15617a6e578373ffffffffffffffffffffffffffffffffffffffff1663f23a6e6187878686866040518663ffffffff1660e01b815260040161797c959493929190619ef8565b6020604051808303816000875af19250505080156179b857506040513d601f19601f820116820180604052508101906179b59190619f67565b60015b6179ee576040517f45d406b200000000000000000000000000000000000000000000000000000000815260040160405180910390fd5b63f23a6e6160e01b7bffffffffffffffffffffffffffffffffffffffffffffffffffffffff1916817bffffffffffffffffffffffffffffffffffffffffffffffffffffffff191614617a6c576040517f2baa526e00000000000000000000000000000000000000000000000000000000815260040160405180910390fd5b505b505050505050565b6000808286617a859190619057565b905060008161271087617a989190619057565b617aa2919061948e565b8286617aae9190619057565b617ab891906195eb565b90508092505050949350505050565b6000600861384042617ad991906195eb565b617ae39190619bf2565b905090565b60008060018685617af99190618f80565b84617b049190619057565b6127108888617b139190619057565b617b1d9190619057565b617b2791906195eb565b617b31919061948e565b905080915050949350505050565b505050505050565b600080823b905060008111915050919050565b6040518060a00160405280617b6d617c97565b815260200160006fffffffffffffffffffffffffffffffff16815260200160006fffffffffffffffffffffffffffffffff16815260200160006fffffffffffffffffffffffffffffffff168152602001600081525090565b828054617bd190619025565b90600052602060002090601f016020900481019282617bf35760008555617c3a565b82601f10617c0c57805160ff1916838001178555617c3a565b82800160010185558215617c3a579182015b82811115617c39578251825591602001919060010190617c1e565b5b509050617c479190617d5d565b5090565b6040518060c00160405280600073ffffffffffffffffffffffffffffffffffffffff16815260200160008152602001600081526020016000815260200160008152602001600081525090565b604051806101000160405280600890602082028036833780820191505090505090565b826008600701600890048101928215617d4c5791602002820160005b83821115617d1a57835183826101000a81548163ffffffff021916908363ffffffff1602179055509260200192600401602081600301049283019260010302617cd6565b8015617d4a5782816101000a81549063ffffffff0219169055600401602081600301049283019260010302617d1a565b505b509050617d599190617d5d565b5090565b5b80821115617d76576000816000905550600101617d5e565b5090565b6000604051905090565b600080fd5b600080fd5b600073ffffffffffffffffffffffffffffffffffffffff82169050919050565b6000617db982617d8e565b9050919050565b617dc981617dae565b8114617dd457600080fd5b50565b600081359050617de681617dc0565b92915050565b6000819050919050565b617dff81617dec565b8114617e0a57600080fd5b50565b600081359050617e1c81617df6565b92915050565b60008060408385031215617e3957617e38617d84565b5b6000617e4785828601617dd7565b9250506020617e5885828601617e0d565b9150509250929050565b617e6b81617dec565b82525050565b6000602082019050617e866000830184617e62565b92915050565b60007fffffffff0000000000000000000000000000000000000000000000000000000082169050919050565b617ec181617e8c565b8114617ecc57600080fd5b50565b600081359050617ede81617eb8565b92915050565b600060208284031215617efa57617ef9617d84565b5b6000617f0884828501617ecf565b91505092915050565b60008115159050919050565b617f2681617f11565b82525050565b6000602082019050617f416000830184617f1d565b92915050565b600060208284031215617f5d57617f5c617d84565b5b6000617f6b84828501617dd7565b91505092915050565b600060208284031215617f8a57617f89617d84565b5b6000617f9884828501617e0d565b91505092915050565b617faa81617dae565b82525050565b6000602082019050617fc56000830184617fa1565b92915050565b600081519050919050565b600082825260208201905092915050565b60005b83811015618005578082015181840152602081019050617fea565b83811115618014576000848401525b50505050565b6000601f19601f8301169050919050565b600061803682617fcb565b6180408185617fd6565b9350618050818560208601617fe7565b6180598161801a565b840191505092915050565b6000602082019050818103600083015261807e818461802b565b905092915050565b600080fd5b600060c082840312156180a1576180a0618086565b5b81905092915050565b600060c082840312156180c0576180bf617d84565b5b60006180ce8482850161808b565b91505092915050565b600080fd5b7f4e487b7100000000000000000000000000000000000000000000000000000000600052604160045260246000fd5b6181148261801a565b810181811067ffffffffffffffff82111715618133576181326180dc565b5b80604052505050565b6000618146617d7a565b9050618152828261810b565b919050565b600067ffffffffffffffff821115618172576181716180dc565b5b602082029050602081019050919050565b600080fd5b600061819b61819684618157565b61813c565b905080838252602082019050602084028301858111156181be576181bd618183565b5b835b818110156181e757806181d38882617e0d565b8452602084019350506020810190506181c0565b5050509392505050565b600082601f830112618206576182056180d7565b5b8135618216848260208601618188565b91505092915050565b600080fd5b600067ffffffffffffffff82111561823f5761823e6180dc565b5b6182488261801a565b9050602081019050919050565b82818337600083830152505050565b600061827761827284618224565b61813c565b9050828152602081018484840111156182935761829261821f565b5b61829e848285618255565b509392505050565b600082601f8301126182bb576182ba6180d7565b5b81356182cb848260208601618264565b91505092915050565b600080600080600060a086880312156182f0576182ef617d84565b5b60006182fe88828901617dd7565b955050602061830f88828901617dd7565b945050604086013567ffffffffffffffff8111156183305761832f617d89565b5b61833c888289016181f1565b935050606086013567ffffffffffffffff81111561835d5761835c617d89565b5b618369888289016181f1565b925050608086013567ffffffffffffffff81111561838a57618389617d89565b5b618396888289016182a6565b9150509295509295909350565b600080fd5b60008083601f8401126183be576183bd6180d7565b5b8235905067ffffffffffffffff8111156183db576183da6183a3565b5b6020830191508360208202830111156183f7576183f6618183565b5b9250929050565b6000806020838503121561841557618414617d84565b5b600083013567ffffffffffffffff81111561843357618432617d89565b5b61843f858286016183a8565b92509250509250929050565b600081519050919050565b600082825260208201905092915050565b6000819050602082019050919050565b600060089050919050565b600081905092915050565b6000819050919050565b600063ffffffff82169050919050565b6184b081618497565b82525050565b60006184c283836184a7565b60208301905092915050565b6000602082019050919050565b6184e481618477565b6184ee8184618482565b92506184f98261848d565b8060005b8381101561852a57815161851187826184b6565b965061851c836184ce565b9250506001810190506184fd565b505050505050565b60006fffffffffffffffffffffffffffffffff82169050919050565b61855781618532565b82525050565b61856681617dec565b82525050565b6101808201600082015161858360008501826184db565b50602082015161859761010085018261854e565b5060408201516185ab61012085018261854e565b5060608201516185bf61014085018261854e565b5060808201516185d361016085018261855d565b50505050565b60006185e5838361856c565b6101808301905092915050565b6000602082019050919050565b600061860a8261844b565b6186148185618456565b935061861f83618467565b8060005b8381101561865057815161863788826185d9565b9750618642836185f2565b925050600181019050618623565b5085935050505092915050565b6000602082019050818103600083015261867781846185ff565b905092915050565b600067ffffffffffffffff82111561869a576186996180dc565b5b6186a38261801a565b9050602081019050919050565b60006186c36186be8461867f565b61813c565b9050828152602081018484840111156186df576186de61821f565b5b6186ea848285618255565b509392505050565b600082601f830112618707576187066180d7565b5b81356187178482602086016186b0565b91505092915050565b6000806040838503121561873757618736617d84565b5b600083013567ffffffffffffffff81111561875557618754617d89565b5b618761858286016186f2565b925050602083013567ffffffffffffffff81111561878257618781617d89565b5b61878e858286016186f2565b9150509250929050565b600080600080608085870312156187b2576187b1617d84565b5b60006187c087828801617dd7565b94505060206187d187828801617e0d565b93505060406187e287828801617e0d565b92505060606187f387828801617dd7565b91505092959194509250565b60008060006060848603121561881857618817617d84565b5b600061882686828701617dd7565b935050602061883786828701617dd7565b925050604061884886828701617e0d565b9150509250925092565b600067ffffffffffffffff82111561886d5761886c6180dc565b5b602082029050602081019050919050565b600061889161888c84618852565b61813c565b905080838252602082019050602084028301858111156188b4576188b3618183565b5b835b818110156188dd57806188c98882617dd7565b8452602084019350506020810190506188b6565b5050509392505050565b600082601f8301126188fc576188fb6180d7565b5b813561890c84826020860161887e565b91505092915050565b6000806040838503121561892c5761892b617d84565b5b600083013567ffffffffffffffff81111561894a57618949617d89565b5b618956858286016188e7565b925050602083013567ffffffffffffffff81111561897757618976617d89565b5b618983858286016181f1565b9150509250929050565b600081519050919050565b600082825260208201905092915050565b6000819050602082019050919050565b60006189c5838361855d565b60208301905092915050565b6000602082019050919050565b60006189e98261898d565b6189f38185618998565b93506189fe836189a9565b8060005b83811015618a2f578151618a1688826189b9565b9750618a21836189d1565b925050600181019050618a02565b5085935050505092915050565b60006020820190508181036000830152618a5681846189de565b905092915050565b618a6781617dae565b82525050565b60c082016000820151618a836000850182618a5e565b506020820151618a96602085018261855d565b506040820151618aa9604085018261855d565b506060820151618abc606085018261855d565b506080820151618acf608085018261855d565b5060a0820151618ae260a085018261855d565b50505050565b600060c082019050618afd6000830184618a6d565b92915050565b618b0c81617f11565b8114618b1757600080fd5b50565b600081359050618b2981618b03565b92915050565b60008060408385031215618b4657618b45617d84565b5b6000618b5485828601617dd7565b9250506020618b6585828601618b1a565b9150509250929050565b60008060008060008060c08789031215618b8c57618b8b617d84565b5b6000618b9a89828a01617dd7565b9650506020618bab89828a01617dd7565b9550506040618bbc89828a01617e0d565b9450506060618bcd89828a01617e0d565b9350506080618bde89828a01617e0d565b92505060a0618bef89828a01617dd7565b9150509295509295509295565b6000604082019050618c116000830185617e62565b618c1e6020830184617e62565b9392505050565b60008083601f840112618c3b57618c3a6180d7565b5b8235905067ffffffffffffffff811115618c5857618c576183a3565b5b602083019150836020820283011115618c7457618c73618183565b5b9250929050565b60008060208385031215618c9257618c91617d84565b5b600083013567ffffffffffffffff811115618cb057618caf617d89565b5b618cbc85828601618c25565b92509250509250929050565b600060208284031215618cde57618cdd617d84565b5b600082013567ffffffffffffffff811115618cfc57618cfb617d89565b5b618d08848285016186f2565b91505092915050565b60008060408385031215618d2857618d27617d84565b5b6000618d3685828601617dd7565b9250506020618d4785828601617dd7565b9150509250929050565b600080600080600060a08688031215618d6d57618d6c617d84565b5b6000618d7b88828901617dd7565b9550506020618d8c88828901617dd7565b9450506040618d9d88828901617dd7565b9350506060618dae88828901617dd7565b9250506080618dbf88828901617dd7565b9150509295509295909350565b600080600080600060a08688031215618de857618de7617d84565b5b6000618df688828901617dd7565b9550506020618e0788828901617dd7565b9450506040618e1888828901617e0d565b9350506060618e2988828901617e0d565b925050608086013567ffffffffffffffff811115618e4a57618e49617d89565b5b618e56888289016182a6565b9150509295509295909350565b600080600060608486031215618e7c57618e7b617d84565b5b6000618e8a86828701617dd7565b9350506020618e9b86828701617e0d565b9250506040618eac86828701617e0d565b9150509250925092565b7f4300000000000000000000000000000000000000000000000000000000000000600082015250565b6000618eec600183617fd6565b9150618ef782618eb6565b602082019050919050565b60006020820190508181036000830152618f1b81618edf565b9050919050565b7f4e487b7100000000000000000000000000000000000000000000000000000000600052603260045260246000fd5b7f4e487b7100000000000000000000000000000000000000000000000000000000600052601160045260246000fd5b6000618f8b82617dec565b9150618f9683617dec565b925082821015618fa957618fa8618f51565b5b828203905092915050565b600081519050618fc381617dc0565b92915050565b600060208284031215618fdf57618fde617d84565b5b6000618fed84828501618fb4565b91505092915050565b7f4e487b7100000000000000000000000000000000000000000000000000000000600052602260045260246000fd5b6000600282049050600182168061903d57607f821691505b6020821081141561905157619050618ff6565b5b50919050565b600061906282617dec565b915061906d83617dec565b9250817fffffffffffffffffffffffffffffffffffffffffffffffffffffffffffffffff04831182151516156190a6576190a5618f51565b5b828202905092915050565b600081356190be81617dc0565b80915050919050565b60008160001b9050919050565b600073ffffffffffffffffffffffffffffffffffffffff6190f4846190c7565b9350801983169250808416831791505092915050565b6000819050919050565b600061912f61912a61912584617d8e565b61910a565b617d8e565b9050919050565b600061914182619114565b9050919050565b600061915382619136565b9050919050565b6000819050919050565b61916d82619148565b6191806191798261915a565b83546190d4565b8255505050565b6000813561919481617df6565b80915050919050565b60007fffffffffffffffffffffffffffffffffffffffffffffffffffffffffffffffff6191c9846190c7565b9350801983169250808416831791505092915050565b60006191fa6191f56191f084617dec565b61910a565b617dec565b9050919050565b6000819050919050565b619214826191df565b61922761922082619201565b835461919d565b8255505050565b600081016000830180619240816190b1565b905061924c8184619164565b50505060018101602083018061926181619187565b905061926d818461920b565b50505060028101604083018061928281619187565b905061928e818461920b565b5050506003810160608301806192a381619187565b90506192af818461920b565b5050506004810160808301806192c481619187565b90506192d0818461920b565b5050506005810160a08301806192e581619187565b90506192f1818461920b565b5050505050565b619302828261922e565b5050565b600081905092915050565b60008190508160005260206000209050919050565b6000815461933381619025565b61933d8186619306565b9450600182166000811461935857600181146193695761939c565b60ff1983168652818601935061939c565b61937285619311565b60005b8381101561939457815481890152600182019150602081019050619375565b838801955050505b50505092915050565b6000819050919050565b6193c06193bb82617dec565b6193a5565b82525050565b7f2e6a736f6e000000000000000000000000000000000000000000000000000000600082015250565b60006193fc600583619306565b9150619407826193c6565b600582019050919050565b600061941e8285619326565b915061942a82846193af565b602082019150619439826193ef565b91508190509392505050565b600061945082617dec565b91507fffffffffffffffffffffffffffffffffffffffffffffffffffffffffffffffff82141561948357619482618f51565b5b600182019050919050565b600061949982617dec565b91506194a483617dec565b9250827fffffffffffffffffffffffffffffffffffffffffffffffffffffffffffffffff038211156194d9576194d8618f51565b5b828201905092915050565b7f4400000000000000000000000000000000000000000000000000000000000000600082015250565b600061951a600183617fd6565b9150619525826194e4565b602082019050919050565b600060208201905081810360008301526195498161950d565b9050919050565b7f4600000000000000000000000000000000000000000000000000000000000000600082015250565b6000619586600183617fd6565b915061959182619550565b602082019050919050565b600060208201905081810360008301526195b581619579565b9050919050565b7f4e487b7100000000000000000000000000000000000000000000000000000000600052601260045260246000fd5b60006195f682617dec565b915061960183617dec565b925082619611576196106195bc565b5b828204905092915050565b60006040820190506196316000830185617fa1565b61963e6020830184617e62565b9392505050565b600061965082618532565b915061965b83618532565b9250826fffffffffffffffffffffffffffffffff038211156196805761967f618f51565b5b828201905092915050565b60006080820190506196a06000830187617fa1565b6196ad6020830186617e62565b6196ba6040830185617e62565b6196c76060830184617e62565b95945050505050565b7f5800000000000000000000000000000000000000000000000000000000000000600082015250565b6000619706600183617fd6565b9150619711826196d0565b602082019050919050565b60006020820190508181036000830152619735816196f9565b9050919050565b600061975761975261974d84618532565b61910a565b617dec565b9050919050565b6197678161973c565b82525050565b60006080820190506197826000830187617fa1565b61978f602083018661975e565b61979c604083018561975e565b6197a96060830184617e62565b95945050505050565b60006040820190506197c76000830185617fa1565b6197d46020830184617fa1565b9392505050565b6000815190506197ea81618b03565b92915050565b60006020828403121561980657619805617d84565b5b6000619814848285016197db565b91505092915050565b7f4800000000000000000000000000000000000000000000000000000000000000600082015250565b6000619853600183617fd6565b915061985e8261981d565b602082019050919050565b6000602082019050818103600083015261988281619846565b9050919050565b7f6900000000000000000000000000000000000000000000000000000000000000600082015250565b60006198bf600183617fd6565b91506198ca82619889565b602082019050919050565b600060208201905081810360008301526198ee816198b2565b9050919050565b7f4c00000000000000000000000000000000000000000000000000000000000000600082015250565b600061992b600183617fd6565b9150619936826198f5565b602082019050919050565b6000602082019050818103600083015261995a8161991e565b9050919050565b600061996c82617fcb565b6199768185619306565b9350619986818560208601617fe7565b80840191505092915050565b7f7b69647d2e6a736f6e0000000000000000000000000000000000000000000000600082015250565b60006199c8600983619306565b91506199d382619992565b600982019050919050565b60006199ea8284619961565b91506199f5826199bb565b915081905092915050565b7f4b00000000000000000000000000000000000000000000000000000000000000600082015250565b6000619a36600183617fd6565b9150619a4182619a00565b602082019050919050565b60006020820190508181036000830152619a6581619a29565b9050919050565b7f4a00000000000000000000000000000000000000000000000000000000000000600082015250565b6000619aa2600183617fd6565b9150619aad82619a6c565b602082019050919050565b60006020820190508181036000830152619ad181619a95565b9050919050565b7f5500000000000000000000000000000000000000000000000000000000000000600082015250565b6000619b0e600183617fd6565b9150619b1982619ad8565b602082019050919050565b60006020820190508181036000830152619b3d81619b01565b9050919050565b600081519050619b5381617df6565b92915050565b600060208284031215619b6f57619b6e617d84565b5b6000619b7d84828501619b44565b91505092915050565b7f4700000000000000000000000000000000000000000000000000000000000000600082015250565b6000619bbc600183617fd6565b9150619bc782619b86565b602082019050919050565b60006020820190508181036000830152619beb81619baf565b9050919050565b6000619bfd82617dec565b9150619c0883617dec565b925082619c1857619c176195bc565b5b828206905092915050565b7f3200000000000000000000000000000000000000000000000000000000000000600082015250565b6000619c59600183617fd6565b9150619c6482619c23565b602082019050919050565b60006020820190508181036000830152619c8881619c4c565b9050919050565b7f5a00000000000000000000000000000000000000000000000000000000000000600082015250565b6000619cc5600183617fd6565b9150619cd082619c8f565b602082019050919050565b60006020820190508181036000830152619cf481619cb8565b9050919050565b7f3100000000000000000000000000000000000000000000000000000000000000600082015250565b6000619d31600183617fd6565b9150619d3c82619cfb565b602082019050919050565b60006020820190508181036000830152619d6081619d24565b9050919050565b600061010082019050619d7d600083018b617fa1565b619d8a602083018a617fa1565b619d976040830189617e62565b619da46060830188617e62565b619db16080830187617e62565b619dbe60a0830186617e62565b619dcb60c0830185617e62565b619dd860e0830184617fa1565b9998505050505050505050565b6000619df082618532565b9150619dfb83618532565b925082821015619e0e57619e0d618f51565b5b828203905092915050565b600081519050919050565b600081905092915050565b6000619e3a82619e19565b619e448185619e24565b9350619e54818560208601617fe7565b80840191505092915050565b6000619e6c8284619e2f565b915081905092915050565b6000606082019050619e8c6000830186617fa1565b619e996020830185617fa1565b619ea66040830184617e62565b949350505050565b600082825260208201905092915050565b6000619eca82619e19565b619ed48185619eae565b9350619ee4818560208601617fe7565b619eed8161801a565b840191505092915050565b600060a082019050619f0d6000830188617fa1565b619f1a6020830187617fa1565b619f276040830186617e62565b619f346060830185617e62565b8181036080830152619f468184619ebf565b90509695505050505050565b600081519050619f6181617eb8565b92915050565b600060208284031215619f7d57619f7c617d84565b5b6000619f8b84828501619f52565b9150509291505056fea264697066735822122040822338fc8a4fcf8263ea9c6a82b71f9c4bc70eae34ddd86bac8e15d69cecaa64736f6c634300080b003368747470733a2f2f646174612e63657262792e66692f4365726279537761702f76312f",
			"opcodes": "PUSH1 0x80 PUSH1 0x40 MSTORE PUSH20 0xE7126C0FB4B1F5F79E5BBEC3948139DCF348B49C PUSH1 0x3 PUSH1 0x0 PUSH2 0x100 EXP DUP2 SLOAD DUP2 PUSH20 0xFFFFFFFFFFFFFFFFFFFFFFFFFFFFFFFFFFFFFFFF MUL NOT AND SWAP1 DUP4 PUSH20 0xFFFFFFFFFFFFFFFFFFFFFFFFFFFFFFFFFFFFFFFF AND MUL OR SWAP1 SSTORE POP PUSH20 0xFC5025C764CE34DF352757E82F7B5C4DF39A836 PUSH1 0x4 PUSH1 0x0 PUSH2 0x100 EXP DUP2 SLOAD DUP2 PUSH20 0xFFFFFFFFFFFFFFFFFFFFFFFFFFFFFFFFFFFFFFFF MUL NOT AND SWAP1 DUP4 PUSH20 0xFFFFFFFFFFFFFFFFFFFFFFFFFFFFFFFFFFFFFFFF AND MUL OR SWAP1 SSTORE POP PUSH20 0x7412F2CD820D1E63BD130B0FFEBE44C4E5A47D71 PUSH1 0x5 PUSH1 0x0 PUSH2 0x100 EXP DUP2 SLOAD DUP2 PUSH20 0xFFFFFFFFFFFFFFFFFFFFFFFFFFFFFFFFFFFFFFFF MUL NOT AND SWAP1 DUP4 PUSH20 0xFFFFFFFFFFFFFFFFFFFFFFFFFFFFFFFFFFFFFFFF AND MUL OR SWAP1 SSTORE POP PUSH20 0x14769F96E57B80C66837701DE0B43686FB4632DE PUSH1 0x6 PUSH1 0x0 PUSH2 0x100 EXP DUP2 SLOAD DUP2 PUSH20 0xFFFFFFFFFFFFFFFFFFFFFFFFFFFFFFFFFFFFFFFF MUL NOT AND SWAP1 DUP4 PUSH20 0xFFFFFFFFFFFFFFFFFFFFFFFFFFFFFFFFFFFFFFFF AND MUL OR SWAP1 SSTORE POP PUSH1 0x40 MLOAD DUP1 PUSH1 0x40 ADD PUSH1 0x40 MSTORE DUP1 PUSH1 0xD DUP2 MSTORE PUSH1 0x20 ADD PUSH32 0x4365726279205377617020563100000000000000000000000000000000000000 DUP2 MSTORE POP PUSH1 0x11 SWAP1 DUP1 MLOAD SWAP1 PUSH1 0x20 ADD SWAP1 PUSH3 0x1A5 SWAP3 SWAP2 SWAP1 PUSH3 0x866 JUMP JUMPDEST POP PUSH1 0x40 MLOAD DUP1 PUSH1 0x40 ADD PUSH1 0x40 MSTORE DUP1 PUSH1 0xD DUP2 MSTORE PUSH1 0x20 ADD PUSH32 0x43455242595F535741505F563100000000000000000000000000000000000000 DUP2 MSTORE POP PUSH1 0x12 SWAP1 DUP1 MLOAD SWAP1 PUSH1 0x20 ADD SWAP1 PUSH3 0x1F3 SWAP3 SWAP2 SWAP1 PUSH3 0x866 JUMP JUMPDEST POP PUSH1 0x40 MLOAD DUP1 PUSH1 0x60 ADD PUSH1 0x40 MSTORE DUP1 PUSH1 0x23 DUP2 MSTORE PUSH1 0x20 ADD PUSH3 0xAC44 PUSH1 0x23 SWAP2 CODECOPY PUSH1 0x13 SWAP1 DUP1 MLOAD SWAP1 PUSH1 0x20 ADD SWAP1 PUSH3 0x225 SWAP3 SWAP2 SWAP1 PUSH3 0x866 JUMP JUMPDEST POP CALLVALUE DUP1 ISZERO PUSH3 0x233 JUMPI PUSH1 0x0 DUP1 REVERT JUMPDEST POP PUSH1 0x13 PUSH1 0x40 MLOAD PUSH1 0x20 ADD PUSH3 0x248 SWAP2 SWAP1 PUSH3 0xB43 JUMP JUMPDEST PUSH1 0x40 MLOAD PUSH1 0x20 DUP2 DUP4 SUB SUB DUP2 MSTORE SWAP1 PUSH1 0x40 MSTORE PUSH3 0x268 DUP2 PUSH3 0x784 PUSH1 0x20 SHL PUSH1 0x20 SHR JUMP JUMPDEST POP PUSH3 0x27A CALLER PUSH3 0x7A0 PUSH1 0x20 SHL PUSH1 0x20 SHR JUMP JUMPDEST PUSH1 0x0 PUSH20 0xDEF78A28C78A461598D948BC0C689CE88F812AD8 SWAP1 POP PUSH1 0x0 PUSH1 0x64 PUSH1 0x14 PUSH1 0x64 PUSH3 0x2A7 SWAP2 SWAP1 PUSH3 0xBA2 JUMP JUMPDEST PUSH3 0x2B3 SWAP2 SWAP1 PUSH3 0xC32 JUMP JUMPDEST SWAP1 POP PUSH1 0x0 PUSH4 0x51A67366 SWAP1 POP PUSH1 0x0 PUSH1 0x1 SWAP1 POP PUSH1 0x0 PUSH1 0xC8 SWAP1 POP PUSH1 0x0 DUP4 SWAP1 POP PUSH1 0x0 DUP4 DUP4 DUP7 PUSH3 0x2E0 SWAP2 SWAP1 PUSH3 0xBA2 JUMP JUMPDEST PUSH3 0x2EC SWAP2 SWAP1 PUSH3 0xC32 JUMP JUMPDEST SWAP1 POP PUSH1 0x40 MLOAD DUP1 PUSH1 0xC0 ADD PUSH1 0x40 MSTORE DUP1 DUP9 PUSH20 0xFFFFFFFFFFFFFFFFFFFFFFFFFFFFFFFFFFFFFFFF AND DUP2 MSTORE PUSH1 0x20 ADD DUP8 DUP2 MSTORE PUSH1 0x20 ADD DUP6 DUP2 MSTORE PUSH1 0x20 ADD DUP5 DUP2 MSTORE PUSH1 0x20 ADD DUP4 DUP2 MSTORE PUSH1 0x20 ADD DUP3 DUP2 MSTORE POP PUSH1 0x7 PUSH1 0x0 DUP3 ADD MLOAD DUP2 PUSH1 0x0 ADD PUSH1 0x0 PUSH2 0x100 EXP DUP2 SLOAD DUP2 PUSH20 0xFFFFFFFFFFFFFFFFFFFFFFFFFFFFFFFFFFFFFFFF MUL NOT AND SWAP1 DUP4 PUSH20 0xFFFFFFFFFFFFFFFFFFFFFFFFFFFFFFFFFFFFFFFF AND MUL OR SWAP1 SSTORE POP PUSH1 0x20 DUP3 ADD MLOAD DUP2 PUSH1 0x1 ADD SSTORE PUSH1 0x40 DUP3 ADD MLOAD DUP2 PUSH1 0x2 ADD SSTORE PUSH1 0x60 DUP3 ADD MLOAD DUP2 PUSH1 0x3 ADD SSTORE PUSH1 0x80 DUP3 ADD MLOAD DUP2 PUSH1 0x4 ADD SSTORE PUSH1 0xA0 DUP3 ADD MLOAD DUP2 PUSH1 0x5 ADD SSTORE SWAP1 POP POP PUSH3 0x3B9 PUSH3 0x8F7 JUMP JUMPDEST PUSH1 0x0 PUSH1 0x40 MLOAD DUP1 PUSH1 0xA0 ADD PUSH1 0x40 MSTORE DUP1 DUP4 DUP2 MSTORE PUSH1 0x20 ADD PUSH1 0x0 PUSH16 0xFFFFFFFFFFFFFFFFFFFFFFFFFFFFFFFF AND DUP2 MSTORE PUSH1 0x20 ADD PUSH1 0x0 PUSH16 0xFFFFFFFFFFFFFFFFFFFFFFFFFFFFFFFF AND DUP2 MSTORE PUSH1 0x20 ADD PUSH1 0x0 PUSH16 0xFFFFFFFFFFFFFFFFFFFFFFFFFFFFFFFF AND DUP2 MSTORE PUSH1 0x20 ADD PUSH1 0x0 DUP2 MSTORE POP SWAP1 DUP1 PUSH1 0x1 DUP2 SLOAD ADD DUP1 DUP3 SSTORE DUP1 SWAP2 POP POP PUSH1 0x1 SWAP1 SUB SWAP1 PUSH1 0x0 MSTORE PUSH1 0x20 PUSH1 0x0 KECCAK256 SWAP1 PUSH1 0x4 MUL ADD PUSH1 0x0 SWAP1 SWAP2 SWAP1 SWAP2 SWAP1 SWAP2 POP PUSH1 0x0 DUP3 ADD MLOAD DUP2 PUSH1 0x0 ADD SWAP1 PUSH1 0x8 PUSH3 0x45E SWAP3 SWAP2 SWAP1 PUSH3 0x91A JUMP JUMPDEST POP PUSH1 0x20 DUP3 ADD MLOAD DUP2 PUSH1 0x1 ADD PUSH1 0x0 PUSH2 0x100 EXP DUP2 SLOAD DUP2 PUSH16 0xFFFFFFFFFFFFFFFFFFFFFFFFFFFFFFFF MUL NOT AND SWAP1 DUP4 PUSH16 0xFFFFFFFFFFFFFFFFFFFFFFFFFFFFFFFF AND MUL OR SWAP1 SSTORE POP PUSH1 0x40 DUP3 ADD MLOAD DUP2 PUSH1 0x1 ADD PUSH1 0x10 PUSH2 0x100 EXP DUP2 SLOAD DUP2 PUSH16 0xFFFFFFFFFFFFFFFFFFFFFFFFFFFFFFFF MUL NOT AND SWAP1 DUP4 PUSH16 0xFFFFFFFFFFFFFFFFFFFFFFFFFFFFFFFF AND MUL OR SWAP1 SSTORE POP PUSH1 0x60 DUP3 ADD MLOAD DUP2 PUSH1 0x2 ADD PUSH1 0x0 PUSH2 0x100 EXP DUP2 SLOAD DUP2 PUSH16 0xFFFFFFFFFFFFFFFFFFFFFFFFFFFFFFFF MUL NOT AND SWAP1 DUP4 PUSH16 0xFFFFFFFFFFFFFFFFFFFFFFFFFFFFFFFF AND MUL OR SWAP1 SSTORE POP PUSH1 0x80 DUP3 ADD MLOAD DUP2 PUSH1 0x3 ADD SSTORE POP POP PUSH1 0x1 CHAINID EQ ISZERO PUSH3 0x58D JUMPI PUSH20 0xC02AAA39B223FE8D0A0E5C4F27EAD9083C756CC2 PUSH1 0x6 PUSH1 0x0 PUSH2 0x100 EXP DUP2 SLOAD DUP2 PUSH20 0xFFFFFFFFFFFFFFFFFFFFFFFFFFFFFFFFFFFFFFFF MUL NOT AND SWAP1 DUP4 PUSH20 0xFFFFFFFFFFFFFFFFFFFFFFFFFFFFFFFFFFFFFFFF AND MUL OR SWAP1 SSTORE POP PUSH3 0x721 JUMP JUMPDEST PUSH1 0x38 CHAINID EQ ISZERO PUSH3 0x5F2 JUMPI PUSH20 0xBB4CDB9CBD36B01BD1CBAEBF2DE08D9173BC095C PUSH1 0x6 PUSH1 0x0 PUSH2 0x100 EXP DUP2 SLOAD DUP2 PUSH20 0xFFFFFFFFFFFFFFFFFFFFFFFFFFFFFFFFFFFFFFFF MUL NOT AND SWAP1 DUP4 PUSH20 0xFFFFFFFFFFFFFFFFFFFFFFFFFFFFFFFFFFFFFFFF AND MUL OR SWAP1 SSTORE POP PUSH3 0x720 JUMP JUMPDEST PUSH1 0x89 CHAINID EQ ISZERO PUSH3 0x657 JUMPI PUSH20 0xD500B1D8E8EF31E21C99D1DB9A6444D3ADF1270 PUSH1 0x6 PUSH1 0x0 PUSH2 0x100 EXP DUP2 SLOAD DUP2 PUSH20 0xFFFFFFFFFFFFFFFFFFFFFFFFFFFFFFFFFFFFFFFF MUL NOT AND SWAP1 DUP4 PUSH20 0xFFFFFFFFFFFFFFFFFFFFFFFFFFFFFFFFFFFFFFFF AND MUL OR SWAP1 SSTORE POP PUSH3 0x71F JUMP JUMPDEST PUSH2 0xA86A CHAINID EQ ISZERO PUSH3 0x6BD JUMPI PUSH20 0xB31F66AA3C1E785363F0875A1B74E27B85FD66C7 PUSH1 0x6 PUSH1 0x0 PUSH2 0x100 EXP DUP2 SLOAD DUP2 PUSH20 0xFFFFFFFFFFFFFFFFFFFFFFFFFFFFFFFFFFFFFFFF MUL NOT AND SWAP1 DUP4 PUSH20 0xFFFFFFFFFFFFFFFFFFFFFFFFFFFFFFFFFFFFFFFF AND MUL OR SWAP1 SSTORE POP PUSH3 0x71E JUMP JUMPDEST PUSH1 0xFA CHAINID EQ ISZERO PUSH3 0x71D JUMPI PUSH20 0x21BE370D5312F44CB42CE377BC9B8A0CEF1A4C83 PUSH1 0x6 PUSH1 0x0 PUSH2 0x100 EXP DUP2 SLOAD DUP2 PUSH20 0xFFFFFFFFFFFFFFFFFFFFFFFFFFFFFFFFFFFFFFFF MUL NOT AND SWAP1 DUP4 PUSH20 0xFFFFFFFFFFFFFFFFFFFFFFFFFFFFFFFFFFFFFFFF AND MUL OR SWAP1 SSTORE POP JUMPDEST JUMPDEST JUMPDEST JUMPDEST JUMPDEST PUSH20 0x14769F96E57B80C66837701DE0B43686FB4632DE PUSH1 0x6 PUSH1 0x0 PUSH2 0x100 EXP DUP2 SLOAD DUP2 PUSH20 0xFFFFFFFFFFFFFFFFFFFFFFFFFFFFFFFFFFFFFFFF MUL NOT AND SWAP1 DUP4 PUSH20 0xFFFFFFFFFFFFFFFFFFFFFFFFFFFFFFFFFFFFFFFF AND MUL OR SWAP1 SSTORE POP POP POP POP POP POP POP POP POP PUSH3 0xC6A JUMP JUMPDEST DUP1 PUSH1 0xF SWAP1 DUP1 MLOAD SWAP1 PUSH1 0x20 ADD SWAP1 PUSH3 0x79C SWAP3 SWAP2 SWAP1 PUSH3 0x866 JUMP JUMPDEST POP POP JUMP JUMPDEST PUSH1 0x0 PUSH1 0x14 PUSH1 0x0 SWAP1 SLOAD SWAP1 PUSH2 0x100 EXP SWAP1 DIV PUSH20 0xFFFFFFFFFFFFFFFFFFFFFFFFFFFFFFFFFFFFFFFF AND SWAP1 POP DUP2 PUSH1 0x14 PUSH1 0x0 PUSH2 0x100 EXP DUP2 SLOAD DUP2 PUSH20 0xFFFFFFFFFFFFFFFFFFFFFFFFFFFFFFFFFFFFFFFF MUL NOT AND SWAP1 DUP4 PUSH20 0xFFFFFFFFFFFFFFFFFFFFFFFFFFFFFFFFFFFFFFFF AND MUL OR SWAP1 SSTORE POP DUP2 PUSH20 0xFFFFFFFFFFFFFFFFFFFFFFFFFFFFFFFFFFFFFFFF AND DUP2 PUSH20 0xFFFFFFFFFFFFFFFFFFFFFFFFFFFFFFFFFFFFFFFF AND PUSH32 0x8BE0079C531659141344CD1FD0A4F28419497F9722A3DAAFE3B4186F6B6457E0 PUSH1 0x40 MLOAD PUSH1 0x40 MLOAD DUP1 SWAP2 SUB SWAP1 LOG3 POP POP JUMP JUMPDEST DUP3 DUP1 SLOAD PUSH3 0x874 SWAP1 PUSH3 0xA12 JUMP JUMPDEST SWAP1 PUSH1 0x0 MSTORE PUSH1 0x20 PUSH1 0x0 KECCAK256 SWAP1 PUSH1 0x1F ADD PUSH1 0x20 SWAP1 DIV DUP2 ADD SWAP3 DUP3 PUSH3 0x898 JUMPI PUSH1 0x0 DUP6 SSTORE PUSH3 0x8E4 JUMP JUMPDEST DUP3 PUSH1 0x1F LT PUSH3 0x8B3 JUMPI DUP1 MLOAD PUSH1 0xFF NOT AND DUP4 DUP1 ADD OR DUP6 SSTORE PUSH3 0x8E4 JUMP JUMPDEST DUP3 DUP1 ADD PUSH1 0x1 ADD DUP6 SSTORE DUP3 ISZERO PUSH3 0x8E4 JUMPI SWAP2 DUP3 ADD JUMPDEST DUP3 DUP2 GT ISZERO PUSH3 0x8E3 JUMPI DUP3 MLOAD DUP3 SSTORE SWAP2 PUSH1 0x20 ADD SWAP2 SWAP1 PUSH1 0x1 ADD SWAP1 PUSH3 0x8C6 JUMP JUMPDEST JUMPDEST POP SWAP1 POP PUSH3 0x8F3 SWAP2 SWAP1 PUSH3 0x9C4 JUMP JUMPDEST POP SWAP1 JUMP JUMPDEST PUSH1 0x40 MLOAD DUP1 PUSH2 0x100 ADD PUSH1 0x40 MSTORE DUP1 PUSH1 0x8 SWAP1 PUSH1 0x20 DUP3 MUL DUP1 CALLDATASIZE DUP4 CALLDATACOPY DUP1 DUP3 ADD SWAP2 POP POP SWAP1 POP POP SWAP1 JUMP JUMPDEST DUP3 PUSH1 0x8 PUSH1 0x7 ADD PUSH1 0x8 SWAP1 DIV DUP2 ADD SWAP3 DUP3 ISZERO PUSH3 0x9B1 JUMPI SWAP2 PUSH1 0x20 MUL DUP3 ADD PUSH1 0x0 JUMPDEST DUP4 DUP3 GT ISZERO PUSH3 0x97D JUMPI DUP4 MLOAD DUP4 DUP3 PUSH2 0x100 EXP DUP2 SLOAD DUP2 PUSH4 0xFFFFFFFF MUL NOT AND SWAP1 DUP4 PUSH4 0xFFFFFFFF AND MUL OR SWAP1 SSTORE POP SWAP3 PUSH1 0x20 ADD SWAP3 PUSH1 0x4 ADD PUSH1 0x20 DUP2 PUSH1 0x3 ADD DIV SWAP3 DUP4 ADD SWAP3 PUSH1 0x1 SUB MUL PUSH3 0x937 JUMP JUMPDEST DUP1 ISZERO PUSH3 0x9AF JUMPI DUP3 DUP2 PUSH2 0x100 EXP DUP2 SLOAD SWAP1 PUSH4 0xFFFFFFFF MUL NOT AND SWAP1 SSTORE PUSH1 0x4 ADD PUSH1 0x20 DUP2 PUSH1 0x3 ADD DIV SWAP3 DUP4 ADD SWAP3 PUSH1 0x1 SUB MUL PUSH3 0x97D JUMP JUMPDEST POP JUMPDEST POP SWAP1 POP PUSH3 0x9C0 SWAP2 SWAP1 PUSH3 0x9C4 JUMP JUMPDEST POP SWAP1 JUMP JUMPDEST JUMPDEST DUP1 DUP3 GT ISZERO PUSH3 0x9DF JUMPI PUSH1 0x0 DUP2 PUSH1 0x0 SWAP1 SSTORE POP PUSH1 0x1 ADD PUSH3 0x9C5 JUMP JUMPDEST POP SWAP1 JUMP JUMPDEST PUSH32 0x4E487B7100000000000000000000000000000000000000000000000000000000 PUSH1 0x0 MSTORE PUSH1 0x22 PUSH1 0x4 MSTORE PUSH1 0x24 PUSH1 0x0 REVERT JUMPDEST PUSH1 0x0 PUSH1 0x2 DUP3 DIV SWAP1 POP PUSH1 0x1 DUP3 AND DUP1 PUSH3 0xA2B JUMPI PUSH1 0x7F DUP3 AND SWAP2 POP JUMPDEST PUSH1 0x20 DUP3 LT DUP2 EQ ISZERO PUSH3 0xA42 JUMPI PUSH3 0xA41 PUSH3 0x9E3 JUMP JUMPDEST JUMPDEST POP SWAP2 SWAP1 POP JUMP JUMPDEST PUSH1 0x0 DUP2 SWAP1 POP SWAP3 SWAP2 POP POP JUMP JUMPDEST PUSH1 0x0 DUP2 SWAP1 POP DUP2 PUSH1 0x0 MSTORE PUSH1 0x20 PUSH1 0x0 KECCAK256 SWAP1 POP SWAP2 SWAP1 POP JUMP JUMPDEST PUSH1 0x0 DUP2 SLOAD PUSH3 0xA77 DUP2 PUSH3 0xA12 JUMP JUMPDEST PUSH3 0xA83 DUP2 DUP7 PUSH3 0xA48 JUMP JUMPDEST SWAP5 POP PUSH1 0x1 DUP3 AND PUSH1 0x0 DUP2 EQ PUSH3 0xAA1 JUMPI PUSH1 0x1 DUP2 EQ PUSH3 0xAB3 JUMPI PUSH3 0xAEA JUMP JUMPDEST PUSH1 0xFF NOT DUP4 AND DUP7 MSTORE DUP2 DUP7 ADD SWAP4 POP PUSH3 0xAEA JUMP JUMPDEST PUSH3 0xABE DUP6 PUSH3 0xA53 JUMP JUMPDEST PUSH1 0x0 JUMPDEST DUP4 DUP2 LT ISZERO PUSH3 0xAE2 JUMPI DUP2 SLOAD DUP2 DUP10 ADD MSTORE PUSH1 0x1 DUP3 ADD SWAP2 POP PUSH1 0x20 DUP2 ADD SWAP1 POP PUSH3 0xAC1 JUMP JUMPDEST DUP4 DUP9 ADD SWAP6 POP POP POP JUMPDEST POP POP POP SWAP3 SWAP2 POP POP JUMP JUMPDEST PUSH32 0x7B69647D2E6A736F6E0000000000000000000000000000000000000000000000 PUSH1 0x0 DUP3 ADD MSTORE POP JUMP JUMPDEST PUSH1 0x0 PUSH3 0xB2B PUSH1 0x9 DUP4 PUSH3 0xA48 JUMP JUMPDEST SWAP2 POP PUSH3 0xB38 DUP3 PUSH3 0xAF3 JUMP JUMPDEST PUSH1 0x9 DUP3 ADD SWAP1 POP SWAP2 SWAP1 POP JUMP JUMPDEST PUSH1 0x0 PUSH3 0xB51 DUP3 DUP5 PUSH3 0xA68 JUMP JUMPDEST SWAP2 POP PUSH3 0xB5E DUP3 PUSH3 0xB1C JUMP JUMPDEST SWAP2 POP DUP2 SWAP1 POP SWAP3 SWAP2 POP POP JUMP JUMPDEST PUSH1 0x0 DUP2 SWAP1 POP SWAP2 SWAP1 POP JUMP JUMPDEST PUSH32 0x4E487B7100000000000000000000000000000000000000000000000000000000 PUSH1 0x0 MSTORE PUSH1 0x11 PUSH1 0x4 MSTORE PUSH1 0x24 PUSH1 0x0 REVERT JUMPDEST PUSH1 0x0 PUSH3 0xBAF DUP3 PUSH3 0xB69 JUMP JUMPDEST SWAP2 POP PUSH3 0xBBC DUP4 PUSH3 0xB69 JUMP JUMPDEST SWAP3 POP DUP2 PUSH32 0xFFFFFFFFFFFFFFFFFFFFFFFFFFFFFFFFFFFFFFFFFFFFFFFFFFFFFFFFFFFFFFFF DIV DUP4 GT DUP3 ISZERO ISZERO AND ISZERO PUSH3 0xBF8 JUMPI PUSH3 0xBF7 PUSH3 0xB73 JUMP JUMPDEST JUMPDEST DUP3 DUP3 MUL SWAP1 POP SWAP3 SWAP2 POP POP JUMP JUMPDEST PUSH32 0x4E487B7100000000000000000000000000000000000000000000000000000000 PUSH1 0x0 MSTORE PUSH1 0x12 PUSH1 0x4 MSTORE PUSH1 0x24 PUSH1 0x0 REVERT JUMPDEST PUSH1 0x0 PUSH3 0xC3F DUP3 PUSH3 0xB69 JUMP JUMPDEST SWAP2 POP PUSH3 0xC4C DUP4 PUSH3 0xB69 JUMP JUMPDEST SWAP3 POP DUP3 PUSH3 0xC5F JUMPI PUSH3 0xC5E PUSH3 0xC03 JUMP JUMPDEST JUMPDEST DUP3 DUP3 DIV SWAP1 POP SWAP3 SWAP2 POP POP JUMP JUMPDEST PUSH2 0x9FCA DUP1 PUSH3 0xC7A PUSH1 0x0 CODECOPY PUSH1 0x0 RETURN INVALID PUSH1 0x80 PUSH1 0x40 MSTORE PUSH1 0x4 CALLDATASIZE LT PUSH2 0x25F JUMPI PUSH1 0x0 CALLDATALOAD PUSH1 0xE0 SHR DUP1 PUSH4 0x74FCF071 GT PUSH2 0x144 JUMPI DUP1 PUSH4 0xBD85B039 GT PUSH2 0xB6 JUMPI DUP1 PUSH4 0xE985E9C5 GT PUSH2 0x7A JUMPI DUP1 PUSH4 0xE985E9C5 EQ PUSH2 0x921 JUMPI DUP1 PUSH4 0xECA01093 EQ PUSH2 0x95E JUMPI DUP1 PUSH4 0xF242432A EQ PUSH2 0x987 JUMPI DUP1 PUSH4 0xF2FDE38B EQ PUSH2 0x9B0 JUMPI DUP1 PUSH4 0xF5298ACA EQ PUSH2 0x9D9 JUMPI DUP1 PUSH4 0xF6524724 EQ PUSH2 0xA02 JUMPI PUSH2 0x266 JUMP JUMPDEST DUP1 PUSH4 0xBD85B039 EQ PUSH2 0x858 JUMPI DUP1 PUSH4 0xC09C923B EQ PUSH2 0x895 JUMPI DUP1 PUSH4 0xC790985A EQ PUSH2 0x89F JUMPI DUP1 PUSH4 0xCAB4BA82 EQ PUSH2 0x8DC JUMPI DUP1 PUSH4 0xD5D60737 EQ PUSH2 0x905 JUMPI PUSH2 0x266 JUMP JUMPDEST DUP1 PUSH4 0x9BC731FC GT PUSH2 0x108 JUMPI DUP1 PUSH4 0x9BC731FC EQ PUSH2 0x758 JUMPI DUP1 PUSH4 0xA22CB465 EQ PUSH2 0x781 JUMPI DUP1 PUSH4 0xA60C6E55 EQ PUSH2 0x7AA JUMPI DUP1 PUSH4 0xA6D8AD39 EQ PUSH2 0x7DB JUMPI DUP1 PUSH4 0xA7FD40BF EQ PUSH2 0x818 JUMPI DUP1 PUSH4 0xB5D11E99 EQ PUSH2 0x841 JUMPI PUSH2 0x266 JUMP JUMPDEST DUP1 PUSH4 0x74FCF071 EQ PUSH2 0x67E JUMPI DUP1 PUSH4 0x842980F4 EQ PUSH2 0x6BB JUMPI DUP1 PUSH4 0x85B4BB53 EQ PUSH2 0x6D7 JUMPI DUP1 PUSH4 0x8DA5CB5B EQ PUSH2 0x702 JUMPI DUP1 PUSH4 0x95D89B41 EQ PUSH2 0x72D JUMPI PUSH2 0x266 JUMP JUMPDEST DUP1 PUSH4 0x34E150AB GT PUSH2 0x1DD JUMPI DUP1 PUSH4 0x4E1273F4 GT PUSH2 0x1A1 JUMPI DUP1 PUSH4 0x4E1273F4 EQ PUSH2 0x56B JUMPI DUP1 PUSH4 0x4F558E79 EQ PUSH2 0x5A8 JUMPI DUP1 PUSH4 0x5C41DBE0 EQ PUSH2 0x5E5 JUMPI DUP1 PUSH4 0x61417516 EQ PUSH2 0x601 JUMPI DUP1 PUSH4 0x715018A6 EQ PUSH2 0x63E JUMPI DUP1 PUSH4 0x71858049 EQ PUSH2 0x655 JUMPI PUSH2 0x266 JUMP JUMPDEST DUP1 PUSH4 0x34E150AB EQ PUSH2 0x45B JUMPI DUP1 PUSH4 0x3935AC11 EQ PUSH2 0x498 JUMPI DUP1 PUSH4 0x43FEFAD4 EQ PUSH2 0x4C1 JUMPI DUP1 PUSH4 0x48B08D62 EQ PUSH2 0x4F1 JUMPI DUP1 PUSH4 0x4C3C0EB2 EQ PUSH2 0x52E JUMPI PUSH2 0x266 JUMP JUMPDEST DUP1 PUSH4 0xC2E075B GT PUSH2 0x224 JUMPI DUP1 PUSH4 0xC2E075B EQ PUSH2 0x376 JUMPI DUP1 PUSH4 0xE89341C EQ PUSH2 0x39F JUMPI DUP1 PUSH4 0x18160DDD EQ PUSH2 0x3DC JUMPI DUP1 PUSH4 0x2EB2C2D6 EQ PUSH2 0x407 JUMPI DUP1 PUSH4 0x313CE567 EQ PUSH2 0x430 JUMPI PUSH2 0x266 JUMP JUMPDEST DUP1 PUSH3 0xFDD58E EQ PUSH2 0x26B JUMPI DUP1 PUSH4 0x1FFC9A7 EQ PUSH2 0x2A8 JUMPI DUP1 PUSH4 0x3D604BD EQ PUSH2 0x2E5 JUMPI DUP1 PUSH4 0x6FB1A07 EQ PUSH2 0x30E JUMPI DUP1 PUSH4 0x6FDDE03 EQ PUSH2 0x34B JUMPI PUSH2 0x266 JUMP JUMPDEST CALLDATASIZE PUSH2 0x266 JUMPI STOP JUMPDEST PUSH1 0x0 DUP1 REVERT JUMPDEST CALLVALUE DUP1 ISZERO PUSH2 0x277 JUMPI PUSH1 0x0 DUP1 REVERT JUMPDEST POP PUSH2 0x292 PUSH1 0x4 DUP1 CALLDATASIZE SUB DUP2 ADD SWAP1 PUSH2 0x28D SWAP2 SWAP1 PUSH2 0x7E22 JUMP JUMPDEST PUSH2 0xA33 JUMP JUMPDEST PUSH1 0x40 MLOAD PUSH2 0x29F SWAP2 SWAP1 PUSH2 0x7E71 JUMP JUMPDEST PUSH1 0x40 MLOAD DUP1 SWAP2 SUB SWAP1 RETURN JUMPDEST CALLVALUE DUP1 ISZERO PUSH2 0x2B4 JUMPI PUSH1 0x0 DUP1 REVERT JUMPDEST POP PUSH2 0x2CF PUSH1 0x4 DUP1 CALLDATASIZE SUB DUP2 ADD SWAP1 PUSH2 0x2CA SWAP2 SWAP1 PUSH2 0x7EE4 JUMP JUMPDEST PUSH2 0xAF4 JUMP JUMPDEST PUSH1 0x40 MLOAD PUSH2 0x2DC SWAP2 SWAP1 PUSH2 0x7F2C JUMP JUMPDEST PUSH1 0x40 MLOAD DUP1 SWAP2 SUB SWAP1 RETURN JUMPDEST CALLVALUE DUP1 ISZERO PUSH2 0x2F1 JUMPI PUSH1 0x0 DUP1 REVERT JUMPDEST POP PUSH2 0x30C PUSH1 0x4 DUP1 CALLDATASIZE SUB DUP2 ADD SWAP1 PUSH2 0x307 SWAP2 SWAP1 PUSH2 0x7F47 JUMP JUMPDEST PUSH2 0xB5E JUMP JUMPDEST STOP JUMPDEST CALLVALUE DUP1 ISZERO PUSH2 0x31A JUMPI PUSH1 0x0 DUP1 REVERT JUMPDEST POP PUSH2 0x335 PUSH1 0x4 DUP1 CALLDATASIZE SUB DUP2 ADD SWAP1 PUSH2 0x330 SWAP2 SWAP1 PUSH2 0x7F74 JUMP JUMPDEST PUSH2 0xDD7 JUMP JUMPDEST PUSH1 0x40 MLOAD PUSH2 0x342 SWAP2 SWAP1 PUSH2 0x7FB0 JUMP JUMPDEST PUSH1 0x40 MLOAD DUP1 SWAP2 SUB SWAP1 RETURN JUMPDEST CALLVALUE DUP1 ISZERO PUSH2 0x357 JUMPI PUSH1 0x0 DUP1 REVERT JUMPDEST POP PUSH2 0x360 PUSH2 0xE6E JUMP JUMPDEST PUSH1 0x40 MLOAD PUSH2 0x36D SWAP2 SWAP1 PUSH2 0x8064 JUMP JUMPDEST PUSH1 0x40 MLOAD DUP1 SWAP2 SUB SWAP1 RETURN JUMPDEST CALLVALUE DUP1 ISZERO PUSH2 0x382 JUMPI PUSH1 0x0 DUP1 REVERT JUMPDEST POP PUSH2 0x39D PUSH1 0x4 DUP1 CALLDATASIZE SUB DUP2 ADD SWAP1 PUSH2 0x398 SWAP2 SWAP1 PUSH2 0x80AA JUMP JUMPDEST PUSH2 0xF00 JUMP JUMPDEST STOP JUMPDEST CALLVALUE DUP1 ISZERO PUSH2 0x3AB JUMPI PUSH1 0x0 DUP1 REVERT JUMPDEST POP PUSH2 0x3C6 PUSH1 0x4 DUP1 CALLDATASIZE SUB DUP2 ADD SWAP1 PUSH2 0x3C1 SWAP2 SWAP1 PUSH2 0x7F74 JUMP JUMPDEST PUSH2 0x1075 JUMP JUMPDEST PUSH1 0x40 MLOAD PUSH2 0x3D3 SWAP2 SWAP1 PUSH2 0x8064 JUMP JUMPDEST PUSH1 0x40 MLOAD DUP1 SWAP2 SUB SWAP1 RETURN JUMPDEST CALLVALUE DUP1 ISZERO PUSH2 0x3E8 JUMPI PUSH1 0x0 DUP1 REVERT JUMPDEST POP PUSH2 0x3F1 PUSH2 0x10A1 JUMP JUMPDEST PUSH1 0x40 MLOAD PUSH2 0x3FE SWAP2 SWAP1 PUSH2 0x7E71 JUMP JUMPDEST PUSH1 0x40 MLOAD DUP1 SWAP2 SUB SWAP1 RETURN JUMPDEST CALLVALUE DUP1 ISZERO PUSH2 0x413 JUMPI PUSH1 0x0 DUP1 REVERT JUMPDEST POP PUSH2 0x42E PUSH1 0x4 DUP1 CALLDATASIZE SUB DUP2 ADD SWAP1 PUSH2 0x429 SWAP2 SWAP1 PUSH2 0x82D4 JUMP JUMPDEST PUSH2 0x10FD JUMP JUMPDEST STOP JUMPDEST CALLVALUE DUP1 ISZERO PUSH2 0x43C JUMPI PUSH1 0x0 DUP1 REVERT JUMPDEST POP PUSH2 0x445 PUSH2 0x1104 JUMP JUMPDEST PUSH1 0x40 MLOAD PUSH2 0x452 SWAP2 SWAP1 PUSH2 0x7E71 JUMP JUMPDEST PUSH1 0x40 MLOAD DUP1 SWAP2 SUB SWAP1 RETURN JUMPDEST CALLVALUE DUP1 ISZERO PUSH2 0x467 JUMPI PUSH1 0x0 DUP1 REVERT JUMPDEST POP PUSH2 0x482 PUSH1 0x4 DUP1 CALLDATASIZE SUB DUP2 ADD SWAP1 PUSH2 0x47D SWAP2 SWAP1 PUSH2 0x83FE JUMP JUMPDEST PUSH2 0x110D JUMP JUMPDEST PUSH1 0x40 MLOAD PUSH2 0x48F SWAP2 SWAP1 PUSH2 0x865D JUMP JUMPDEST PUSH1 0x40 MLOAD DUP1 SWAP2 SUB SWAP1 RETURN JUMPDEST CALLVALUE DUP1 ISZERO PUSH2 0x4A4 JUMPI PUSH1 0x0 DUP1 REVERT JUMPDEST POP PUSH2 0x4BF PUSH1 0x4 DUP1 CALLDATASIZE SUB DUP2 ADD SWAP1 PUSH2 0x4BA SWAP2 SWAP1 PUSH2 0x8720 JUMP JUMPDEST PUSH2 0x13A0 JUMP JUMPDEST STOP JUMPDEST PUSH2 0x4DB PUSH1 0x4 DUP1 CALLDATASIZE SUB DUP2 ADD SWAP1 PUSH2 0x4D6 SWAP2 SWAP1 PUSH2 0x8798 JUMP JUMPDEST PUSH2 0x1445 JUMP JUMPDEST PUSH1 0x40 MLOAD PUSH2 0x4E8 SWAP2 SWAP1 PUSH2 0x7E71 JUMP JUMPDEST PUSH1 0x40 MLOAD DUP1 SWAP2 SUB SWAP1 RETURN JUMPDEST CALLVALUE DUP1 ISZERO PUSH2 0x4FD JUMPI PUSH1 0x0 DUP1 REVERT JUMPDEST POP PUSH2 0x518 PUSH1 0x4 DUP1 CALLDATASIZE SUB DUP2 ADD SWAP1 PUSH2 0x513 SWAP2 SWAP1 PUSH2 0x87FF JUMP JUMPDEST PUSH2 0x1D2A JUMP JUMPDEST PUSH1 0x40 MLOAD PUSH2 0x525 SWAP2 SWAP1 PUSH2 0x7E71 JUMP JUMPDEST PUSH1 0x40 MLOAD DUP1 SWAP2 SUB SWAP1 RETURN JUMPDEST CALLVALUE DUP1 ISZERO PUSH2 0x53A JUMPI PUSH1 0x0 DUP1 REVERT JUMPDEST POP PUSH2 0x555 PUSH1 0x4 DUP1 CALLDATASIZE SUB DUP2 ADD SWAP1 PUSH2 0x550 SWAP2 SWAP1 PUSH2 0x7F47 JUMP JUMPDEST PUSH2 0x1F84 JUMP JUMPDEST PUSH1 0x40 MLOAD PUSH2 0x562 SWAP2 SWAP1 PUSH2 0x7E71 JUMP JUMPDEST PUSH1 0x40 MLOAD DUP1 SWAP2 SUB SWAP1 RETURN JUMPDEST CALLVALUE DUP1 ISZERO PUSH2 0x577 JUMPI PUSH1 0x0 DUP1 REVERT JUMPDEST POP PUSH2 0x592 PUSH1 0x4 DUP1 CALLDATASIZE SUB DUP2 ADD SWAP1 PUSH2 0x58D SWAP2 SWAP1 PUSH2 0x8915 JUMP JUMPDEST PUSH2 0x1FD5 JUMP JUMPDEST PUSH1 0x40 MLOAD PUSH2 0x59F SWAP2 SWAP1 PUSH2 0x8A3C JUMP JUMPDEST PUSH1 0x40 MLOAD DUP1 SWAP2 SUB SWAP1 RETURN JUMPDEST CALLVALUE DUP1 ISZERO PUSH2 0x5B4 JUMPI PUSH1 0x0 DUP1 REVERT JUMPDEST POP PUSH2 0x5CF PUSH1 0x4 DUP1 CALLDATASIZE SUB DUP2 ADD SWAP1 PUSH2 0x5CA SWAP2 SWAP1 PUSH2 0x7F74 JUMP JUMPDEST PUSH2 0x20E5 JUMP JUMPDEST PUSH1 0x40 MLOAD PUSH2 0x5DC SWAP2 SWAP1 PUSH2 0x7F2C JUMP JUMPDEST PUSH1 0x40 MLOAD DUP1 SWAP2 SUB SWAP1 RETURN JUMPDEST PUSH2 0x5FF PUSH1 0x4 DUP1 CALLDATASIZE SUB DUP2 ADD SWAP1 PUSH2 0x5FA SWAP2 SWAP1 PUSH2 0x8798 JUMP JUMPDEST PUSH2 0x20F9 JUMP JUMPDEST STOP JUMPDEST CALLVALUE DUP1 ISZERO PUSH2 0x60D JUMPI PUSH1 0x0 DUP1 REVERT JUMPDEST POP PUSH2 0x628 PUSH1 0x4 DUP1 CALLDATASIZE SUB DUP2 ADD SWAP1 PUSH2 0x623 SWAP2 SWAP1 PUSH2 0x7F47 JUMP JUMPDEST PUSH2 0x210B JUMP JUMPDEST PUSH1 0x40 MLOAD PUSH2 0x635 SWAP2 SWAP1 PUSH2 0x7E71 JUMP JUMPDEST PUSH1 0x40 MLOAD DUP1 SWAP2 SUB SWAP1 RETURN JUMPDEST CALLVALUE DUP1 ISZERO PUSH2 0x64A JUMPI PUSH1 0x0 DUP1 REVERT JUMPDEST POP PUSH2 0x653 PUSH2 0x2154 JUMP JUMPDEST STOP JUMPDEST CALLVALUE DUP1 ISZERO PUSH2 0x661 JUMPI PUSH1 0x0 DUP1 REVERT JUMPDEST POP PUSH2 0x67C PUSH1 0x4 DUP1 CALLDATASIZE SUB DUP2 ADD SWAP1 PUSH2 0x677 SWAP2 SWAP1 PUSH2 0x7E22 JUMP JUMPDEST PUSH2 0x21D3 JUMP JUMPDEST STOP JUMPDEST CALLVALUE DUP1 ISZERO PUSH2 0x68A JUMPI PUSH1 0x0 DUP1 REVERT JUMPDEST POP PUSH2 0x6A5 PUSH1 0x4 DUP1 CALLDATASIZE SUB DUP2 ADD SWAP1 PUSH2 0x6A0 SWAP2 SWAP1 PUSH2 0x8798 JUMP JUMPDEST PUSH2 0x245E JUMP JUMPDEST PUSH1 0x40 MLOAD PUSH2 0x6B2 SWAP2 SWAP1 PUSH2 0x7E71 JUMP JUMPDEST PUSH1 0x40 MLOAD DUP1 SWAP2 SUB SWAP1 RETURN JUMPDEST PUSH2 0x6D5 PUSH1 0x4 DUP1 CALLDATASIZE SUB DUP2 ADD SWAP1 PUSH2 0x6D0 SWAP2 SWAP1 PUSH2 0x8798 JUMP JUMPDEST PUSH2 0x2597 JUMP JUMPDEST STOP JUMPDEST CALLVALUE DUP1 ISZERO PUSH2 0x6E3 JUMPI PUSH1 0x0 DUP1 REVERT JUMPDEST POP PUSH2 0x6EC PUSH2 0x25AB JUMP JUMPDEST PUSH1 0x40 MLOAD PUSH2 0x6F9 SWAP2 SWAP1 PUSH2 0x8AE8 JUMP JUMPDEST PUSH1 0x40 MLOAD DUP1 SWAP2 SUB SWAP1 RETURN JUMPDEST CALLVALUE DUP1 ISZERO PUSH2 0x70E JUMPI PUSH1 0x0 DUP1 REVERT JUMPDEST POP PUSH2 0x717 PUSH2 0x264D JUMP JUMPDEST PUSH1 0x40 MLOAD PUSH2 0x724 SWAP2 SWAP1 PUSH2 0x7FB0 JUMP JUMPDEST PUSH1 0x40 MLOAD DUP1 SWAP2 SUB SWAP1 RETURN JUMPDEST CALLVALUE DUP1 ISZERO PUSH2 0x739 JUMPI PUSH1 0x0 DUP1 REVERT JUMPDEST POP PUSH2 0x742 PUSH2 0x2677 JUMP JUMPDEST PUSH1 0x40 MLOAD PUSH2 0x74F SWAP2 SWAP1 PUSH2 0x8064 JUMP JUMPDEST PUSH1 0x40 MLOAD DUP1 SWAP2 SUB SWAP1 RETURN JUMPDEST CALLVALUE DUP1 ISZERO PUSH2 0x764 JUMPI PUSH1 0x0 DUP1 REVERT JUMPDEST POP PUSH2 0x77F PUSH1 0x4 DUP1 CALLDATASIZE SUB DUP2 ADD SWAP1 PUSH2 0x77A SWAP2 SWAP1 PUSH2 0x7F47 JUMP JUMPDEST PUSH2 0x2709 JUMP JUMPDEST STOP JUMPDEST CALLVALUE DUP1 ISZERO PUSH2 0x78D JUMPI PUSH1 0x0 DUP1 REVERT JUMPDEST POP PUSH2 0x7A8 PUSH1 0x4 DUP1 CALLDATASIZE SUB DUP2 ADD SWAP1 PUSH2 0x7A3 SWAP2 SWAP1 PUSH2 0x8B2F JUMP JUMPDEST PUSH2 0x2ADB JUMP JUMPDEST STOP JUMPDEST PUSH2 0x7C4 PUSH1 0x4 DUP1 CALLDATASIZE SUB DUP2 ADD SWAP1 PUSH2 0x7BF SWAP2 SWAP1 PUSH2 0x8B6F JUMP JUMPDEST PUSH2 0x2C9E JUMP JUMPDEST PUSH1 0x40 MLOAD PUSH2 0x7D2 SWAP3 SWAP2 SWAP1 PUSH2 0x8BFC JUMP JUMPDEST PUSH1 0x40 MLOAD DUP1 SWAP2 SUB SWAP1 RETURN JUMPDEST CALLVALUE DUP1 ISZERO PUSH2 0x7E7 JUMPI PUSH1 0x0 DUP1 REVERT JUMPDEST POP PUSH2 0x802 PUSH1 0x4 DUP1 CALLDATASIZE SUB DUP2 ADD SWAP1 PUSH2 0x7FD SWAP2 SWAP1 PUSH2 0x8C7B JUMP JUMPDEST PUSH2 0x30F1 JUMP JUMPDEST PUSH1 0x40 MLOAD PUSH2 0x80F SWAP2 SWAP1 PUSH2 0x865D JUMP JUMPDEST PUSH1 0x40 MLOAD DUP1 SWAP2 SUB SWAP1 RETURN JUMPDEST CALLVALUE DUP1 ISZERO PUSH2 0x824 JUMPI PUSH1 0x0 DUP1 REVERT JUMPDEST POP PUSH2 0x83F PUSH1 0x4 DUP1 CALLDATASIZE SUB DUP2 ADD SWAP1 PUSH2 0x83A SWAP2 SWAP1 PUSH2 0x8CC8 JUMP JUMPDEST PUSH2 0x3337 JUMP JUMPDEST STOP JUMPDEST CALLVALUE DUP1 ISZERO PUSH2 0x84D JUMPI PUSH1 0x0 DUP1 REVERT JUMPDEST POP PUSH2 0x856 PUSH2 0x33EC JUMP JUMPDEST STOP JUMPDEST CALLVALUE DUP1 ISZERO PUSH2 0x864 JUMPI PUSH1 0x0 DUP1 REVERT JUMPDEST POP PUSH2 0x87F PUSH1 0x4 DUP1 CALLDATASIZE SUB DUP2 ADD SWAP1 PUSH2 0x87A SWAP2 SWAP1 PUSH2 0x7F74 JUMP JUMPDEST PUSH2 0x3468 JUMP JUMPDEST PUSH1 0x40 MLOAD PUSH2 0x88C SWAP2 SWAP1 PUSH2 0x7E71 JUMP JUMPDEST PUSH1 0x40 MLOAD DUP1 SWAP2 SUB SWAP1 RETURN JUMPDEST PUSH2 0x89D PUSH2 0x3485 JUMP JUMPDEST STOP JUMPDEST CALLVALUE DUP1 ISZERO PUSH2 0x8AB JUMPI PUSH1 0x0 DUP1 REVERT JUMPDEST POP PUSH2 0x8C6 PUSH1 0x4 DUP1 CALLDATASIZE SUB DUP2 ADD SWAP1 PUSH2 0x8C1 SWAP2 SWAP1 PUSH2 0x87FF JUMP JUMPDEST PUSH2 0x3539 JUMP JUMPDEST PUSH1 0x40 MLOAD PUSH2 0x8D3 SWAP2 SWAP1 PUSH2 0x7E71 JUMP JUMPDEST PUSH1 0x40 MLOAD DUP1 SWAP2 SUB SWAP1 RETURN JUMPDEST CALLVALUE DUP1 ISZERO PUSH2 0x8E8 JUMPI PUSH1 0x0 DUP1 REVERT JUMPDEST POP PUSH2 0x903 PUSH1 0x4 DUP1 CALLDATASIZE SUB DUP2 ADD SWAP1 PUSH2 0x8FE SWAP2 SWAP1 PUSH2 0x7E22 JUMP JUMPDEST PUSH2 0x3793 JUMP JUMPDEST STOP JUMPDEST PUSH2 0x91F PUSH1 0x4 DUP1 CALLDATASIZE SUB DUP2 ADD SWAP1 PUSH2 0x91A SWAP2 SWAP1 PUSH2 0x8798 JUMP JUMPDEST PUSH2 0x3A3A JUMP JUMPDEST STOP JUMPDEST CALLVALUE DUP1 ISZERO PUSH2 0x92D JUMPI PUSH1 0x0 DUP1 REVERT JUMPDEST POP PUSH2 0x948 PUSH1 0x4 DUP1 CALLDATASIZE SUB DUP2 ADD SWAP1 PUSH2 0x943 SWAP2 SWAP1 PUSH2 0x8D11 JUMP JUMPDEST PUSH2 0x3AE0 JUMP JUMPDEST PUSH1 0x40 MLOAD PUSH2 0x955 SWAP2 SWAP1 PUSH2 0x7F2C JUMP JUMPDEST PUSH1 0x40 MLOAD DUP1 SWAP2 SUB SWAP1 RETURN JUMPDEST CALLVALUE DUP1 ISZERO PUSH2 0x96A JUMPI PUSH1 0x0 DUP1 REVERT JUMPDEST POP PUSH2 0x985 PUSH1 0x4 DUP1 CALLDATASIZE SUB DUP2 ADD SWAP1 PUSH2 0x980 SWAP2 SWAP1 PUSH2 0x8D51 JUMP JUMPDEST PUSH2 0x3B74 JUMP JUMPDEST STOP JUMPDEST CALLVALUE DUP1 ISZERO PUSH2 0x993 JUMPI PUSH1 0x0 DUP1 REVERT JUMPDEST POP PUSH2 0x9AE PUSH1 0x4 DUP1 CALLDATASIZE SUB DUP2 ADD SWAP1 PUSH2 0x9A9 SWAP2 SWAP1 PUSH2 0x8DCC JUMP JUMPDEST PUSH2 0x3C46 JUMP JUMPDEST STOP JUMPDEST CALLVALUE DUP1 ISZERO PUSH2 0x9BC JUMPI PUSH1 0x0 DUP1 REVERT JUMPDEST POP PUSH2 0x9D7 PUSH1 0x4 DUP1 CALLDATASIZE SUB DUP2 ADD SWAP1 PUSH2 0x9D2 SWAP2 SWAP1 PUSH2 0x7F47 JUMP JUMPDEST PUSH2 0x3CED JUMP JUMPDEST STOP JUMPDEST CALLVALUE DUP1 ISZERO PUSH2 0x9E5 JUMPI PUSH1 0x0 DUP1 REVERT JUMPDEST POP PUSH2 0xA00 PUSH1 0x4 DUP1 CALLDATASIZE SUB DUP2 ADD SWAP1 PUSH2 0x9FB SWAP2 SWAP1 PUSH2 0x8E63 JUMP JUMPDEST PUSH2 0x3DD3 JUMP JUMPDEST STOP JUMPDEST PUSH2 0xA1C PUSH1 0x4 DUP1 CALLDATASIZE SUB DUP2 ADD SWAP1 PUSH2 0xA17 SWAP2 SWAP1 PUSH2 0x8B6F JUMP JUMPDEST PUSH2 0x3E6B JUMP JUMPDEST PUSH1 0x40 MLOAD PUSH2 0xA2A SWAP3 SWAP2 SWAP1 PUSH2 0x8BFC JUMP JUMPDEST PUSH1 0x40 MLOAD DUP1 SWAP2 SUB SWAP1 RETURN JUMPDEST PUSH1 0x0 DUP1 PUSH20 0xFFFFFFFFFFFFFFFFFFFFFFFFFFFFFFFFFFFFFFFF AND DUP4 PUSH20 0xFFFFFFFFFFFFFFFFFFFFFFFFFFFFFFFFFFFFFFFF AND EQ ISZERO PUSH2 0xA9B JUMPI PUSH1 0x40 MLOAD PUSH32 0xDC768A8E00000000000000000000000000000000000000000000000000000000 DUP2 MSTORE PUSH1 0x4 ADD PUSH1 0x40 MLOAD DUP1 SWAP2 SUB SWAP1 REVERT JUMPDEST PUSH1 0xD PUSH1 0x0 DUP4 DUP2 MSTORE PUSH1 0x20 ADD SWAP1 DUP2 MSTORE PUSH1 0x20 ADD PUSH1 0x0 KECCAK256 PUSH1 0x0 DUP5 PUSH20 0xFFFFFFFFFFFFFFFFFFFFFFFFFFFFFFFFFFFFFFFF AND PUSH20 0xFFFFFFFFFFFFFFFFFFFFFFFFFFFFFFFFFFFFFFFF AND DUP2 MSTORE PUSH1 0x20 ADD SWAP1 DUP2 MSTORE PUSH1 0x20 ADD PUSH1 0x0 KECCAK256 SLOAD SWAP1 POP SWAP3 SWAP2 POP POP JUMP JUMPDEST PUSH1 0x0 PUSH32 0x1FFC9A700000000000000000000000000000000000000000000000000000000 PUSH28 0xFFFFFFFFFFFFFFFFFFFFFFFFFFFFFFFFFFFFFFFFFFFFFFFFFFFFFFFF NOT AND DUP3 PUSH28 0xFFFFFFFFFFFFFFFFFFFFFFFFFFFFFFFFFFFFFFFFFFFFFFFFFFFFFFFF NOT AND EQ SWAP1 POP SWAP2 SWAP1 POP JUMP JUMPDEST DUP1 PUSH1 0x0 PUSH1 0x1 PUSH1 0x0 DUP4 PUSH20 0xFFFFFFFFFFFFFFFFFFFFFFFFFFFFFFFFFFFFFFFF AND PUSH20 0xFFFFFFFFFFFFFFFFFFFFFFFFFFFFFFFFFFFFFFFF AND DUP2 MSTORE PUSH1 0x20 ADD SWAP1 DUP2 MSTORE PUSH1 0x20 ADD PUSH1 0x0 KECCAK256 SLOAD EQ DUP1 PUSH2 0xBFA JUMPI POP PUSH1 0x4 PUSH1 0x0 SWAP1 SLOAD SWAP1 PUSH2 0x100 EXP SWAP1 DIV PUSH20 0xFFFFFFFFFFFFFFFFFFFFFFFFFFFFFFFFFFFFFFFF AND PUSH20 0xFFFFFFFFFFFFFFFFFFFFFFFFFFFFFFFFFFFFFFFF AND DUP2 PUSH20 0xFFFFFFFFFFFFFFFFFFFFFFFFFFFFFFFFFFFFFFFF AND EQ JUMPDEST ISZERO PUSH2 0xC3A JUMPI PUSH1 0x40 MLOAD PUSH32 0x8C379A000000000000000000000000000000000000000000000000000000000 DUP2 MSTORE PUSH1 0x4 ADD PUSH2 0xC31 SWAP1 PUSH2 0x8F02 JUMP JUMPDEST PUSH1 0x40 MLOAD DUP1 SWAP2 SUB SWAP1 REVERT JUMPDEST PUSH1 0x0 PUSH1 0x1 PUSH1 0x0 DUP5 PUSH20 0xFFFFFFFFFFFFFFFFFFFFFFFFFFFFFFFFFFFFFFFF AND PUSH20 0xFFFFFFFFFFFFFFFFFFFFFFFFFFFFFFFFFFFFFFFF AND DUP2 MSTORE PUSH1 0x20 ADD SWAP1 DUP2 MSTORE PUSH1 0x20 ADD PUSH1 0x0 KECCAK256 SLOAD SWAP1 POP PUSH1 0x0 PUSH2 0xC89 DUP5 PUSH2 0x4387 JUMP JUMPDEST SWAP1 POP PUSH1 0x0 PUSH2 0xCB8 PUSH1 0x4 PUSH1 0x0 SWAP1 SLOAD SWAP1 PUSH2 0x100 EXP SWAP1 DIV PUSH20 0xFFFFFFFFFFFFFFFFFFFFFFFFFFFFFFFFFFFFFFFF AND PUSH2 0x4387 JUMP JUMPDEST SWAP1 POP PUSH1 0x0 DUP1 DUP5 DUP2 SLOAD DUP2 LT PUSH2 0xCCF JUMPI PUSH2 0xCCE PUSH2 0x8F22 JUMP JUMPDEST JUMPDEST SWAP1 PUSH1 0x0 MSTORE PUSH1 0x20 PUSH1 0x0 KECCAK256 SWAP1 PUSH1 0x4 MUL ADD PUSH1 0x1 ADD PUSH1 0x0 SWAP1 SLOAD SWAP1 PUSH2 0x100 EXP SWAP1 DIV PUSH16 0xFFFFFFFFFFFFFFFFFFFFFFFFFFFFFFFF AND PUSH16 0xFFFFFFFFFFFFFFFFFFFFFFFFFFFFFFFF AND DUP4 PUSH2 0xD1A SWAP2 SWAP1 PUSH2 0x8F80 JUMP JUMPDEST SWAP1 POP PUSH1 0x0 DUP2 GT ISZERO PUSH2 0xD33 JUMPI PUSH2 0xD32 DUP7 CALLER DUP4 PUSH1 0x0 PUSH2 0x4469 JUMP JUMPDEST JUMPDEST PUSH1 0x0 DUP1 DUP6 DUP2 SLOAD DUP2 LT PUSH2 0xD48 JUMPI PUSH2 0xD47 PUSH2 0x8F22 JUMP JUMPDEST JUMPDEST SWAP1 PUSH1 0x0 MSTORE PUSH1 0x20 PUSH1 0x0 KECCAK256 SWAP1 PUSH1 0x4 MUL ADD PUSH1 0x1 ADD PUSH1 0x10 SWAP1 SLOAD SWAP1 PUSH2 0x100 EXP SWAP1 DIV PUSH16 0xFFFFFFFFFFFFFFFFFFFFFFFFFFFFFFFF AND PUSH16 0xFFFFFFFFFFFFFFFFFFFFFFFFFFFFFFFF AND DUP4 PUSH2 0xD93 SWAP2 SWAP1 PUSH2 0x8F80 JUMP JUMPDEST SWAP1 POP PUSH1 0x0 DUP2 GT ISZERO PUSH2 0xDCE JUMPI PUSH2 0xDCD PUSH1 0x4 PUSH1 0x0 SWAP1 SLOAD SWAP1 PUSH2 0x100 EXP SWAP1 DIV PUSH20 0xFFFFFFFFFFFFFFFFFFFFFFFFFFFFFFFFFFFFFFFF AND CALLER DUP4 PUSH1 0x0 PUSH2 0x4469 JUMP JUMPDEST JUMPDEST POP POP POP POP POP POP POP JUMP JUMPDEST PUSH1 0x0 PUSH20 0xDEF1FAC7BF08F173D286BBBDCBEEADE695129840 PUSH20 0xFFFFFFFFFFFFFFFFFFFFFFFFFFFFFFFFFFFFFFFF AND PUSH4 0x6FB1A07 DUP4 PUSH1 0x40 MLOAD DUP3 PUSH4 0xFFFFFFFF AND PUSH1 0xE0 SHL DUP2 MSTORE PUSH1 0x4 ADD PUSH2 0xE26 SWAP2 SWAP1 PUSH2 0x7E71 JUMP JUMPDEST PUSH1 0x20 PUSH1 0x40 MLOAD DUP1 DUP4 SUB DUP2 DUP7 GAS STATICCALL ISZERO DUP1 ISZERO PUSH2 0xE43 JUMPI RETURNDATASIZE PUSH1 0x0 DUP1 RETURNDATACOPY RETURNDATASIZE PUSH1 0x0 REVERT JUMPDEST POP POP POP POP PUSH1 0x40 MLOAD RETURNDATASIZE PUSH1 0x1F NOT PUSH1 0x1F DUP3 ADD AND DUP3 ADD DUP1 PUSH1 0x40 MSTORE POP DUP2 ADD SWAP1 PUSH2 0xE67 SWAP2 SWAP1 PUSH2 0x8FC9 JUMP JUMPDEST SWAP1 POP SWAP2 SWAP1 POP JUMP JUMPDEST PUSH1 0x60 PUSH1 0x11 DUP1 SLOAD PUSH2 0xE7D SWAP1 PUSH2 0x9025 JUMP JUMPDEST DUP1 PUSH1 0x1F ADD PUSH1 0x20 DUP1 SWAP2 DIV MUL PUSH1 0x20 ADD PUSH1 0x40 MLOAD SWAP1 DUP2 ADD PUSH1 0x40 MSTORE DUP1 SWAP3 SWAP2 SWAP1 DUP2 DUP2 MSTORE PUSH1 0x20 ADD DUP3 DUP1 SLOAD PUSH2 0xEA9 SWAP1 PUSH2 0x9025 JUMP JUMPDEST DUP1 ISZERO PUSH2 0xEF6 JUMPI DUP1 PUSH1 0x1F LT PUSH2 0xECB JUMPI PUSH2 0x100 DUP1 DUP4 SLOAD DIV MUL DUP4 MSTORE SWAP2 PUSH1 0x20 ADD SWAP2 PUSH2 0xEF6 JUMP JUMPDEST DUP3 ADD SWAP2 SWAP1 PUSH1 0x0 MSTORE PUSH1 0x20 PUSH1 0x0 KECCAK256 SWAP1 JUMPDEST DUP2 SLOAD DUP2 MSTORE SWAP1 PUSH1 0x1 ADD SWAP1 PUSH1 0x20 ADD DUP1 DUP4 GT PUSH2 0xED9 JUMPI DUP3 SWAP1 SUB PUSH1 0x1F AND DUP3 ADD SWAP2 JUMPDEST POP POP POP POP POP SWAP1 POP SWAP1 JUMP JUMPDEST PUSH2 0xF08 PUSH2 0x4514 JUMP JUMPDEST PUSH20 0xFFFFFFFFFFFFFFFFFFFFFFFFFFFFFFFFFFFFFFFF AND PUSH2 0xF26 PUSH2 0x264D JUMP JUMPDEST PUSH20 0xFFFFFFFFFFFFFFFFFFFFFFFFFFFFFFFFFFFFFFFF AND EQ PUSH2 0xF73 JUMPI PUSH1 0x40 MLOAD PUSH32 0xEBF9845900000000000000000000000000000000000000000000000000000000 DUP2 MSTORE PUSH1 0x4 ADD PUSH1 0x40 MLOAD DUP1 SWAP2 SUB SWAP1 REVERT JUMPDEST DUP1 PUSH1 0x40 ADD CALLDATALOAD PUSH1 0x0 EQ DUP1 PUSH2 0xF8D JUMPI POP DUP1 PUSH1 0x60 ADD CALLDATALOAD DUP2 PUSH1 0x40 ADD CALLDATALOAD GT JUMPDEST DUP1 PUSH2 0xF9D JUMPI POP PUSH2 0x1F4 DUP2 PUSH1 0x60 ADD CALLDATALOAD GT JUMPDEST ISZERO PUSH2 0xFD4 JUMPI PUSH1 0x40 MLOAD PUSH32 0xE8404B1A00000000000000000000000000000000000000000000000000000000 DUP2 MSTORE PUSH1 0x4 ADD PUSH1 0x40 MLOAD DUP1 SWAP2 SUB SWAP1 REVERT JUMPDEST DUP1 PUSH1 0xA0 ADD CALLDATALOAD DUP2 PUSH1 0x80 ADD CALLDATALOAD GT ISZERO PUSH2 0x1016 JUMPI PUSH1 0x40 MLOAD PUSH32 0xEBC2E01600000000000000000000000000000000000000000000000000000000 DUP2 MSTORE PUSH1 0x4 ADD PUSH1 0x40 MLOAD DUP1 SWAP2 SUB SWAP1 REVERT JUMPDEST PUSH1 0x64 PUSH1 0x2 DUP3 PUSH1 0x20 ADD CALLDATALOAD PUSH2 0x1029 SWAP2 SWAP1 PUSH2 0x9057 JUMP JUMPDEST LT PUSH2 0x1060 JUMPI PUSH1 0x40 MLOAD PUSH32 0x28AF878600000000000000000000000000000000000000000000000000000000 DUP2 MSTORE PUSH1 0x4 ADD PUSH1 0x40 MLOAD DUP1 SWAP2 SUB SWAP1 REVERT JUMPDEST DUP1 PUSH1 0x7 DUP2 DUP2 PUSH2 0x106F SWAP2 SWAP1 PUSH2 0x92F8 JUMP JUMPDEST SWAP1 POP POP POP JUMP JUMPDEST PUSH1 0x60 PUSH1 0x13 DUP3 PUSH1 0x40 MLOAD PUSH1 0x20 ADD PUSH2 0x108B SWAP3 SWAP2 SWAP1 PUSH2 0x9412 JUMP JUMPDEST PUSH1 0x40 MLOAD PUSH1 0x20 DUP2 DUP4 SUB SUB DUP2 MSTORE SWAP1 PUSH1 0x40 MSTORE SWAP1 POP SWAP2 SWAP1 POP JUMP JUMPDEST PUSH1 0x0 DUP1 PUSH1 0x0 JUMPDEST PUSH1 0x0 PUSH1 0x10 PUSH1 0x0 DUP5 PUSH2 0x10B7 SWAP1 PUSH2 0x9445 JUMP JUMPDEST SWAP5 POP DUP5 DUP2 MSTORE PUSH1 0x20 ADD SWAP1 DUP2 MSTORE PUSH1 0x20 ADD PUSH1 0x0 KECCAK256 SLOAD GT ISZERO PUSH2 0x10F5 JUMPI PUSH1 0x10 PUSH1 0x0 DUP4 DUP2 MSTORE PUSH1 0x20 ADD SWAP1 DUP2 MSTORE PUSH1 0x20 ADD PUSH1 0x0 KECCAK256 SLOAD DUP2 PUSH2 0x10EE SWAP2 SWAP1 PUSH2 0x948E JUMP JUMPDEST SWAP1 POP PUSH2 0x10A7 JUMP JUMPDEST DUP1 SWAP3 POP POP POP SWAP1 JUMP JUMPDEST POP POP POP POP POP JUMP JUMPDEST PUSH1 0x0 PUSH1 0x12 SWAP1 POP SWAP1 JUMP JUMPDEST PUSH1 0x60 PUSH1 0x0 DUP4 DUP4 SWAP1 POP PUSH8 0xFFFFFFFFFFFFFFFF DUP2 GT ISZERO PUSH2 0x112E JUMPI PUSH2 0x112D PUSH2 0x80DC JUMP JUMPDEST JUMPDEST PUSH1 0x40 MLOAD SWAP1 DUP1 DUP3 MSTORE DUP1 PUSH1 0x20 MUL PUSH1 0x20 ADD DUP3 ADD PUSH1 0x40 MSTORE DUP1 ISZERO PUSH2 0x1167 JUMPI DUP2 PUSH1 0x20 ADD JUMPDEST PUSH2 0x1154 PUSH2 0x7B5A JUMP JUMPDEST DUP2 MSTORE PUSH1 0x20 ADD SWAP1 PUSH1 0x1 SWAP1 SUB SWAP1 DUP2 PUSH2 0x114C JUMPI SWAP1 POP JUMPDEST POP SWAP1 POP PUSH1 0x0 JUMPDEST DUP5 DUP5 SWAP1 POP DUP2 LT ISZERO PUSH2 0x1395 JUMPI PUSH1 0x0 PUSH1 0x1 PUSH1 0x0 DUP8 DUP8 DUP6 DUP2 DUP2 LT PUSH2 0x1191 JUMPI PUSH2 0x1190 PUSH2 0x8F22 JUMP JUMPDEST JUMPDEST SWAP1 POP PUSH1 0x20 MUL ADD PUSH1 0x20 DUP2 ADD SWAP1 PUSH2 0x11A6 SWAP2 SWAP1 PUSH2 0x7F47 JUMP JUMPDEST PUSH20 0xFFFFFFFFFFFFFFFFFFFFFFFFFFFFFFFFFFFFFFFF AND PUSH20 0xFFFFFFFFFFFFFFFFFFFFFFFFFFFFFFFFFFFFFFFF AND DUP2 MSTORE PUSH1 0x20 ADD SWAP1 DUP2 MSTORE PUSH1 0x20 ADD PUSH1 0x0 KECCAK256 SLOAD DUP2 SLOAD DUP2 LT PUSH2 0x11F2 JUMPI PUSH2 0x11F1 PUSH2 0x8F22 JUMP JUMPDEST JUMPDEST SWAP1 PUSH1 0x0 MSTORE PUSH1 0x20 PUSH1 0x0 KECCAK256 SWAP1 PUSH1 0x4 MUL ADD PUSH1 0x40 MLOAD DUP1 PUSH1 0xA0 ADD PUSH1 0x40 MSTORE SWAP1 DUP2 PUSH1 0x0 DUP3 ADD PUSH1 0x8 DUP1 PUSH1 0x20 MUL PUSH1 0x40 MLOAD SWAP1 DUP2 ADD PUSH1 0x40 MSTORE DUP1 SWAP3 SWAP2 SWAP1 DUP3 PUSH1 0x8 DUP1 ISZERO PUSH2 0x1273 JUMPI PUSH1 0x20 MUL DUP3 ADD SWAP2 PUSH1 0x0 SWAP1 JUMPDEST DUP3 DUP3 SWAP1 SLOAD SWAP1 PUSH2 0x100 EXP SWAP1 DIV PUSH4 0xFFFFFFFF AND PUSH4 0xFFFFFFFF AND DUP2 MSTORE PUSH1 0x20 ADD SWAP1 PUSH1 0x4 ADD SWAP1 PUSH1 0x20 DUP3 PUSH1 0x3 ADD DIV SWAP3 DUP4 ADD SWAP3 PUSH1 0x1 SUB DUP3 MUL SWAP2 POP DUP1 DUP5 GT PUSH2 0x1236 JUMPI SWAP1 POP JUMPDEST POP POP POP POP POP DUP2 MSTORE PUSH1 0x20 ADD PUSH1 0x1 DUP3 ADD PUSH1 0x0 SWAP1 SLOAD SWAP1 PUSH2 0x100 EXP SWAP1 DIV PUSH16 0xFFFFFFFFFFFFFFFFFFFFFFFFFFFFFFFF AND PUSH16 0xFFFFFFFFFFFFFFFFFFFFFFFFFFFFFFFF AND PUSH16 0xFFFFFFFFFFFFFFFFFFFFFFFFFFFFFFFF AND DUP2 MSTORE PUSH1 0x20 ADD PUSH1 0x1 DUP3 ADD PUSH1 0x10 SWAP1 SLOAD SWAP1 PUSH2 0x100 EXP SWAP1 DIV PUSH16 0xFFFFFFFFFFFFFFFFFFFFFFFFFFFFFFFF AND PUSH16 0xFFFFFFFFFFFFFFFFFFFFFFFFFFFFFFFF AND PUSH16 0xFFFFFFFFFFFFFFFFFFFFFFFFFFFFFFFF AND DUP2 MSTORE PUSH1 0x20 ADD PUSH1 0x2 DUP3 ADD PUSH1 0x0 SWAP1 SLOAD SWAP1 PUSH2 0x100 EXP SWAP1 DIV PUSH16 0xFFFFFFFFFFFFFFFFFFFFFFFFFFFFFFFF AND PUSH16 0xFFFFFFFFFFFFFFFFFFFFFFFFFFFFFFFF AND PUSH16 0xFFFFFFFFFFFFFFFFFFFFFFFFFFFFFFFF AND DUP2 MSTORE PUSH1 0x20 ADD PUSH1 0x3 DUP3 ADD SLOAD DUP2 MSTORE POP POP DUP3 DUP3 DUP2 MLOAD DUP2 LT PUSH2 0x1377 JUMPI PUSH2 0x1376 PUSH2 0x8F22 JUMP JUMPDEST JUMPDEST PUSH1 0x20 MUL PUSH1 0x20 ADD ADD DUP2 SWAP1 MSTORE POP DUP1 DUP1 PUSH2 0x138D SWAP1 PUSH2 0x9445 JUMP JUMPDEST SWAP2 POP POP PUSH2 0x116D JUMP JUMPDEST POP DUP1 SWAP2 POP POP SWAP3 SWAP2 POP POP JUMP JUMPDEST PUSH2 0x13A8 PUSH2 0x4514 JUMP JUMPDEST PUSH20 0xFFFFFFFFFFFFFFFFFFFFFFFFFFFFFFFFFFFFFFFF AND PUSH2 0x13C6 PUSH2 0x264D JUMP JUMPDEST PUSH20 0xFFFFFFFFFFFFFFFFFFFFFFFFFFFFFFFFFFFFFFFF AND EQ PUSH2 0x1413 JUMPI PUSH1 0x40 MLOAD PUSH32 0xEBF9845900000000000000000000000000000000000000000000000000000000 DUP2 MSTORE PUSH1 0x4 ADD PUSH1 0x40 MLOAD DUP1 SWAP2 SUB SWAP1 REVERT JUMPDEST DUP2 PUSH1 0x11 SWAP1 DUP1 MLOAD SWAP1 PUSH1 0x20 ADD SWAP1 PUSH2 0x1429 SWAP3 SWAP2 SWAP1 PUSH2 0x7BC5 JUMP JUMPDEST POP DUP1 PUSH1 0x12 SWAP1 DUP1 MLOAD SWAP1 PUSH1 0x20 ADD SWAP1 PUSH2 0x1440 SWAP3 SWAP2 SWAP1 PUSH2 0x7BC5 JUMP JUMPDEST POP POP POP JUMP JUMPDEST PUSH1 0x0 DUP5 PUSH1 0x0 PUSH1 0x1 PUSH1 0x0 DUP4 PUSH20 0xFFFFFFFFFFFFFFFFFFFFFFFFFFFFFFFFFFFFFFFF AND PUSH20 0xFFFFFFFFFFFFFFFFFFFFFFFFFFFFFFFFFFFFFFFF AND DUP2 MSTORE PUSH1 0x20 ADD SWAP1 DUP2 MSTORE PUSH1 0x20 ADD PUSH1 0x0 KECCAK256 SLOAD EQ DUP1 PUSH2 0x14E3 JUMPI POP PUSH1 0x4 PUSH1 0x0 SWAP1 SLOAD SWAP1 PUSH2 0x100 EXP SWAP1 DIV PUSH20 0xFFFFFFFFFFFFFFFFFFFFFFFFFFFFFFFFFFFFFFFF AND PUSH20 0xFFFFFFFFFFFFFFFFFFFFFFFFFFFFFFFFFFFFFFFF AND DUP2 PUSH20 0xFFFFFFFFFFFFFFFFFFFFFFFFFFFFFFFFFFFFFFFF AND EQ JUMPDEST ISZERO PUSH2 0x1523 JUMPI PUSH1 0x40 MLOAD PUSH32 0x8C379A000000000000000000000000000000000000000000000000000000000 DUP2 MSTORE PUSH1 0x4 ADD PUSH2 0x151A SWAP1 PUSH2 0x8F02 JUMP JUMPDEST PUSH1 0x40 MLOAD DUP1 SWAP2 SUB SWAP1 REVERT JUMPDEST DUP4 DUP1 TIMESTAMP GT ISZERO PUSH2 0x1567 JUMPI PUSH1 0x40 MLOAD PUSH32 0x8C379A000000000000000000000000000000000000000000000000000000000 DUP2 MSTORE PUSH1 0x4 ADD PUSH2 0x155E SWAP1 PUSH2 0x9530 JUMP JUMPDEST PUSH1 0x40 MLOAD DUP1 SWAP2 SUB SWAP1 REVERT JUMPDEST PUSH1 0x0 PUSH1 0x1 PUSH1 0x0 DUP10 PUSH20 0xFFFFFFFFFFFFFFFFFFFFFFFFFFFFFFFFFFFFFFFF AND PUSH20 0xFFFFFFFFFFFFFFFFFFFFFFFFFFFFFFFFFFFFFFFF AND DUP2 MSTORE PUSH1 0x20 ADD SWAP1 DUP2 MSTORE PUSH1 0x20 ADD PUSH1 0x0 KECCAK256 SLOAD SWAP1 POP PUSH2 0x15B6 DUP9 CALLER DUP10 PUSH2 0x451C JUMP JUMPDEST PUSH1 0x0 PUSH2 0x15C1 DUP10 PUSH2 0x4387 JUMP JUMPDEST SWAP1 POP PUSH1 0x0 DUP3 DUP2 SLOAD DUP2 LT PUSH2 0x15D7 JUMPI PUSH2 0x15D6 PUSH2 0x8F22 JUMP JUMPDEST JUMPDEST SWAP1 PUSH1 0x0 MSTORE PUSH1 0x20 PUSH1 0x0 KECCAK256 SWAP1 PUSH1 0x4 MUL ADD PUSH1 0x1 ADD PUSH1 0x0 SWAP1 SLOAD SWAP1 PUSH2 0x100 EXP SWAP1 DIV PUSH16 0xFFFFFFFFFFFFFFFFFFFFFFFFFFFFFFFF AND PUSH16 0xFFFFFFFFFFFFFFFFFFFFFFFFFFFFFFFF AND DUP2 PUSH2 0x1622 SWAP2 SWAP1 PUSH2 0x8F80 JUMP JUMPDEST SWAP8 POP PUSH1 0x1 DUP9 GT PUSH2 0x1667 JUMPI PUSH1 0x40 MLOAD PUSH32 0x8C379A000000000000000000000000000000000000000000000000000000000 DUP2 MSTORE PUSH1 0x4 ADD PUSH2 0x165E SWAP1 PUSH2 0x959C JUMP JUMPDEST PUSH1 0x40 MLOAD DUP1 SWAP2 SUB SWAP1 REVERT JUMPDEST PUSH1 0x0 PUSH2 0x1694 PUSH1 0x4 PUSH1 0x0 SWAP1 SLOAD SWAP1 PUSH2 0x100 EXP SWAP1 DIV PUSH20 0xFFFFFFFFFFFFFFFFFFFFFFFFFFFFFFFFFFFFFFFF AND PUSH2 0x4387 JUMP JUMPDEST SWAP1 POP PUSH1 0x0 PUSH1 0x2 SLOAD DUP3 PUSH2 0x16A6 SWAP2 SWAP1 PUSH2 0x8F80 JUMP JUMPDEST SWAP1 POP PUSH1 0x0 PUSH2 0x1764 PUSH1 0x0 DUP7 DUP2 SLOAD DUP2 LT PUSH2 0x16C1 JUMPI PUSH2 0x16C0 PUSH2 0x8F22 JUMP JUMPDEST JUMPDEST SWAP1 PUSH1 0x0 MSTORE PUSH1 0x20 PUSH1 0x0 KECCAK256 SWAP1 PUSH1 0x4 MUL ADD PUSH1 0x1 ADD PUSH1 0x10 SWAP1 SLOAD SWAP1 PUSH2 0x100 EXP SWAP1 DIV PUSH16 0xFFFFFFFFFFFFFFFFFFFFFFFFFFFFFFFF AND PUSH16 0xFFFFFFFFFFFFFFFFFFFFFFFFFFFFFFFF AND PUSH1 0x0 DUP8 DUP2 SLOAD DUP2 LT PUSH2 0x1715 JUMPI PUSH2 0x1714 PUSH2 0x8F22 JUMP JUMPDEST JUMPDEST SWAP1 PUSH1 0x0 MSTORE PUSH1 0x20 PUSH1 0x0 KECCAK256 SWAP1 PUSH1 0x4 MUL ADD PUSH1 0x1 ADD PUSH1 0x0 SWAP1 SLOAD SWAP1 PUSH2 0x100 EXP SWAP1 DIV PUSH16 0xFFFFFFFFFFFFFFFFFFFFFFFFFFFFFFFF AND PUSH16 0xFFFFFFFFFFFFFFFFFFFFFFFFFFFFFFFF AND PUSH2 0x175F SWAP2 SWAP1 PUSH2 0x9057 JUMP JUMPDEST PUSH2 0x46D4 JUMP JUMPDEST SWAP1 POP PUSH1 0x0 PUSH2 0x17D9 PUSH1 0x0 DUP8 DUP2 SLOAD DUP2 LT PUSH2 0x177F JUMPI PUSH2 0x177E PUSH2 0x8F22 JUMP JUMPDEST JUMPDEST SWAP1 PUSH1 0x0 MSTORE PUSH1 0x20 PUSH1 0x0 KECCAK256 SWAP1 PUSH1 0x4 MUL ADD PUSH1 0x2 ADD PUSH1 0x0 SWAP1 SLOAD SWAP1 PUSH2 0x100 EXP SWAP1 DIV PUSH16 0xFFFFFFFFFFFFFFFFFFFFFFFFFFFFFFFF AND PUSH16 0xFFFFFFFFFFFFFFFFFFFFFFFFFFFFFFFF AND DUP4 PUSH1 0x10 PUSH1 0x0 DUP11 DUP2 MSTORE PUSH1 0x20 ADD SWAP1 DUP2 MSTORE PUSH1 0x20 ADD PUSH1 0x0 KECCAK256 SLOAD PUSH2 0x474E JUMP JUMPDEST SWAP1 POP PUSH1 0x0 DUP2 GT ISZERO PUSH2 0x1825 JUMPI PUSH2 0x1824 PUSH1 0x7 PUSH1 0x0 ADD PUSH1 0x0 SWAP1 SLOAD SWAP1 PUSH2 0x100 EXP SWAP1 DIV PUSH20 0xFFFFFFFFFFFFFFFFFFFFFFFFFFFFFFFFFFFFFFFF AND DUP8 DUP4 PUSH1 0x40 MLOAD DUP1 PUSH1 0x20 ADD PUSH1 0x40 MSTORE DUP1 PUSH1 0x0 DUP2 MSTORE POP PUSH2 0x47E4 JUMP JUMPDEST JUMPDEST POP POP PUSH1 0x0 DUP1 DUP6 DUP2 SLOAD DUP2 LT PUSH2 0x183C JUMPI PUSH2 0x183B PUSH2 0x8F22 JUMP JUMPDEST JUMPDEST SWAP1 PUSH1 0x0 MSTORE PUSH1 0x20 PUSH1 0x0 KECCAK256 SWAP1 PUSH1 0x4 MUL ADD PUSH1 0x1 ADD PUSH1 0x0 SWAP1 SLOAD SWAP1 PUSH2 0x100 EXP SWAP1 DIV PUSH16 0xFFFFFFFFFFFFFFFFFFFFFFFFFFFFFFFF AND PUSH16 0xFFFFFFFFFFFFFFFFFFFFFFFFFFFFFFFF AND PUSH1 0x10 PUSH1 0x0 DUP8 DUP2 MSTORE PUSH1 0x20 ADD SWAP1 DUP2 MSTORE PUSH1 0x20 ADD PUSH1 0x0 KECCAK256 SLOAD DUP13 PUSH2 0x189B SWAP2 SWAP1 PUSH2 0x9057 JUMP JUMPDEST PUSH2 0x18A5 SWAP2 SWAP1 PUSH2 0x95EB JUMP JUMPDEST SWAP1 POP PUSH2 0x18C2 DUP10 DUP7 DUP4 PUSH1 0x40 MLOAD DUP1 PUSH1 0x20 ADD PUSH1 0x40 MSTORE DUP1 PUSH1 0x0 DUP2 MSTORE POP PUSH2 0x47E4 JUMP JUMPDEST PUSH1 0x0 DUP1 DUP7 DUP2 SLOAD DUP2 LT PUSH2 0x18D7 JUMPI PUSH2 0x18D6 PUSH2 0x8F22 JUMP JUMPDEST JUMPDEST SWAP1 PUSH1 0x0 MSTORE PUSH1 0x20 PUSH1 0x0 KECCAK256 SWAP1 PUSH1 0x4 MUL ADD PUSH1 0x1 ADD PUSH1 0x0 SWAP1 SLOAD SWAP1 PUSH2 0x100 EXP SWAP1 DIV PUSH16 0xFFFFFFFFFFFFFFFFFFFFFFFFFFFFFFFF AND PUSH16 0xFFFFFFFFFFFFFFFFFFFFFFFFFFFFFFFF AND PUSH1 0x0 DUP8 DUP2 SLOAD DUP2 LT PUSH2 0x192B JUMPI PUSH2 0x192A PUSH2 0x8F22 JUMP JUMPDEST JUMPDEST SWAP1 PUSH1 0x0 MSTORE PUSH1 0x20 PUSH1 0x0 KECCAK256 SWAP1 PUSH1 0x4 MUL ADD PUSH1 0x1 ADD PUSH1 0x10 SWAP1 SLOAD SWAP1 PUSH2 0x100 EXP SWAP1 DIV PUSH16 0xFFFFFFFFFFFFFFFFFFFFFFFFFFFFFFFF AND PUSH16 0xFFFFFFFFFFFFFFFFFFFFFFFFFFFFFFFF AND DUP14 PUSH2 0x1976 SWAP2 SWAP1 PUSH2 0x9057 JUMP JUMPDEST PUSH2 0x1980 SWAP2 SWAP1 PUSH2 0x95EB JUMP JUMPDEST SWAP1 POP PUSH1 0x1 DUP2 GT PUSH2 0x19BC JUMPI PUSH1 0x40 MLOAD PUSH32 0x206F960000000000000000000000000000000000000000000000000000000000 DUP2 MSTORE PUSH1 0x4 ADD PUSH1 0x40 MLOAD DUP1 SWAP2 SUB SWAP1 REVERT JUMPDEST PUSH1 0x4 PUSH1 0x0 SWAP1 SLOAD SWAP1 PUSH2 0x100 EXP SWAP1 DIV PUSH20 0xFFFFFFFFFFFFFFFFFFFFFFFFFFFFFFFFFFFFFFFF AND PUSH20 0xFFFFFFFFFFFFFFFFFFFFFFFFFFFFFFFFFFFFFFFF AND PUSH4 0xBB9FF5D ADDRESS DUP4 PUSH1 0x40 MLOAD DUP4 PUSH4 0xFFFFFFFF AND PUSH1 0xE0 SHL DUP2 MSTORE PUSH1 0x4 ADD PUSH2 0x1A19 SWAP3 SWAP2 SWAP1 PUSH2 0x961C JUMP JUMPDEST PUSH1 0x0 PUSH1 0x40 MLOAD DUP1 DUP4 SUB DUP2 PUSH1 0x0 DUP8 DUP1 EXTCODESIZE ISZERO DUP1 ISZERO PUSH2 0x1A33 JUMPI PUSH1 0x0 DUP1 REVERT JUMPDEST POP GAS CALL ISZERO DUP1 ISZERO PUSH2 0x1A47 JUMPI RETURNDATASIZE PUSH1 0x0 DUP1 RETURNDATACOPY RETURNDATASIZE PUSH1 0x0 REVERT JUMPDEST POP POP POP POP DUP1 DUP4 PUSH1 0x2 SLOAD PUSH2 0x1A5A SWAP2 SWAP1 PUSH2 0x948E JUMP JUMPDEST PUSH2 0x1A64 SWAP2 SWAP1 PUSH2 0x948E JUMP JUMPDEST PUSH1 0x2 DUP2 SWAP1 SSTORE POP DUP12 PUSH1 0x0 DUP8 DUP2 SLOAD DUP2 LT PUSH2 0x1A7F JUMPI PUSH2 0x1A7E PUSH2 0x8F22 JUMP JUMPDEST JUMPDEST SWAP1 PUSH1 0x0 MSTORE PUSH1 0x20 PUSH1 0x0 KECCAK256 SWAP1 PUSH1 0x4 MUL ADD PUSH1 0x1 ADD PUSH1 0x0 SWAP1 SLOAD SWAP1 PUSH2 0x100 EXP SWAP1 DIV PUSH16 0xFFFFFFFFFFFFFFFFFFFFFFFFFFFFFFFF AND PUSH2 0x1AB7 SWAP2 SWAP1 PUSH2 0x9645 JUMP JUMPDEST PUSH1 0x0 DUP8 DUP2 SLOAD DUP2 LT PUSH2 0x1ACB JUMPI PUSH2 0x1ACA PUSH2 0x8F22 JUMP JUMPDEST JUMPDEST SWAP1 PUSH1 0x0 MSTORE PUSH1 0x20 PUSH1 0x0 KECCAK256 SWAP1 PUSH1 0x4 MUL ADD PUSH1 0x1 ADD PUSH1 0x0 PUSH2 0x100 EXP DUP2 SLOAD DUP2 PUSH16 0xFFFFFFFFFFFFFFFFFFFFFFFFFFFFFFFF MUL NOT AND SWAP1 DUP4 PUSH16 0xFFFFFFFFFFFFFFFFFFFFFFFFFFFFFFFF AND MUL OR SWAP1 SSTORE POP DUP1 DUP4 PUSH2 0x1B1E SWAP2 SWAP1 PUSH2 0x948E JUMP JUMPDEST PUSH1 0x0 DUP8 DUP2 SLOAD DUP2 LT PUSH2 0x1B32 JUMPI PUSH2 0x1B31 PUSH2 0x8F22 JUMP JUMPDEST JUMPDEST SWAP1 PUSH1 0x0 MSTORE PUSH1 0x20 PUSH1 0x0 KECCAK256 SWAP1 PUSH1 0x4 MUL ADD PUSH1 0x1 ADD PUSH1 0x10 SWAP1 SLOAD SWAP1 PUSH2 0x100 EXP SWAP1 DIV PUSH16 0xFFFFFFFFFFFFFFFFFFFFFFFFFFFFFFFF AND PUSH2 0x1B6A SWAP2 SWAP1 PUSH2 0x9645 JUMP JUMPDEST PUSH1 0x0 DUP8 DUP2 SLOAD DUP2 LT PUSH2 0x1B7E JUMPI PUSH2 0x1B7D PUSH2 0x8F22 JUMP JUMPDEST JUMPDEST SWAP1 PUSH1 0x0 MSTORE PUSH1 0x20 PUSH1 0x0 KECCAK256 SWAP1 PUSH1 0x4 MUL ADD PUSH1 0x1 ADD PUSH1 0x10 PUSH2 0x100 EXP DUP2 SLOAD DUP2 PUSH16 0xFFFFFFFFFFFFFFFFFFFFFFFFFFFFFFFF MUL NOT AND SWAP1 DUP4 PUSH16 0xFFFFFFFFFFFFFFFFFFFFFFFFFFFFFFFF AND MUL OR SWAP1 SSTORE POP PUSH2 0x1C7F PUSH1 0x0 DUP8 DUP2 SLOAD DUP2 LT PUSH2 0x1BDC JUMPI PUSH2 0x1BDB PUSH2 0x8F22 JUMP JUMPDEST JUMPDEST SWAP1 PUSH1 0x0 MSTORE PUSH1 0x20 PUSH1 0x0 KECCAK256 SWAP1 PUSH1 0x4 MUL ADD PUSH1 0x1 ADD PUSH1 0x10 SWAP1 SLOAD SWAP1 PUSH2 0x100 EXP SWAP1 DIV PUSH16 0xFFFFFFFFFFFFFFFFFFFFFFFFFFFFFFFF AND PUSH16 0xFFFFFFFFFFFFFFFFFFFFFFFFFFFFFFFF AND PUSH1 0x0 DUP9 DUP2 SLOAD DUP2 LT PUSH2 0x1C30 JUMPI PUSH2 0x1C2F PUSH2 0x8F22 JUMP JUMPDEST JUMPDEST SWAP1 PUSH1 0x0 MSTORE PUSH1 0x20 PUSH1 0x0 KECCAK256 SWAP1 PUSH1 0x4 MUL ADD PUSH1 0x1 ADD PUSH1 0x0 SWAP1 SLOAD SWAP1 PUSH2 0x100 EXP SWAP1 DIV PUSH16 0xFFFFFFFFFFFFFFFFFFFFFFFFFFFFFFFF AND PUSH16 0xFFFFFFFFFFFFFFFFFFFFFFFFFFFFFFFF AND PUSH2 0x1C7A SWAP2 SWAP1 PUSH2 0x9057 JUMP JUMPDEST PUSH2 0x46D4 JUMP JUMPDEST PUSH1 0x0 DUP8 DUP2 SLOAD DUP2 LT PUSH2 0x1C93 JUMPI PUSH2 0x1C92 PUSH2 0x8F22 JUMP JUMPDEST JUMPDEST SWAP1 PUSH1 0x0 MSTORE PUSH1 0x20 PUSH1 0x0 KECCAK256 SWAP1 PUSH1 0x4 MUL ADD PUSH1 0x2 ADD PUSH1 0x0 PUSH2 0x100 EXP DUP2 SLOAD DUP2 PUSH16 0xFFFFFFFFFFFFFFFFFFFFFFFFFFFFFFFF MUL NOT AND SWAP1 DUP4 PUSH16 0xFFFFFFFFFFFFFFFFFFFFFFFFFFFFFFFF AND MUL OR SWAP1 SSTORE POP PUSH32 0x64B83944E79C3CE8D4C297411DE637C3E102D064677AAC0C163976EBDCD6F50E DUP14 DUP14 DUP4 DUP6 PUSH1 0x40 MLOAD PUSH2 0x1D0F SWAP5 SWAP4 SWAP3 SWAP2 SWAP1 PUSH2 0x968B JUMP JUMPDEST PUSH1 0x40 MLOAD DUP1 SWAP2 SUB SWAP1 LOG1 POP DUP1 SWAP8 POP POP POP POP POP POP POP POP SWAP5 SWAP4 POP POP POP POP JUMP JUMPDEST PUSH1 0x0 PUSH1 0x4 PUSH1 0x0 SWAP1 SLOAD SWAP1 PUSH2 0x100 EXP SWAP1 DIV PUSH20 0xFFFFFFFFFFFFFFFFFFFFFFFFFFFFFFFFFFFFFFFF AND PUSH20 0xFFFFFFFFFFFFFFFFFFFFFFFFFFFFFFFFFFFFFFFF AND DUP5 PUSH20 0xFFFFFFFFFFFFFFFFFFFFFFFFFFFFFFFFFFFFFFFF AND EQ ISZERO DUP1 ISZERO PUSH2 0x1DD7 JUMPI POP PUSH1 0x4 PUSH1 0x0 SWAP1 SLOAD SWAP1 PUSH2 0x100 EXP SWAP1 DIV PUSH20 0xFFFFFFFFFFFFFFFFFFFFFFFFFFFFFFFFFFFFFFFF AND PUSH20 0xFFFFFFFFFFFFFFFFFFFFFFFFFFFFFFFFFFFFFFFF AND DUP4 PUSH20 0xFFFFFFFFFFFFFFFFFFFFFFFFFFFFFFFFFFFFFFFF AND EQ JUMPDEST ISZERO PUSH2 0x1DED JUMPI PUSH2 0x1DE6 DUP5 DUP4 PUSH2 0x4972 JUMP JUMPDEST SWAP1 POP PUSH2 0x1F7D JUMP JUMPDEST PUSH1 0x4 PUSH1 0x0 SWAP1 SLOAD SWAP1 PUSH2 0x100 EXP SWAP1 DIV PUSH20 0xFFFFFFFFFFFFFFFFFFFFFFFFFFFFFFFFFFFFFFFF AND PUSH20 0xFFFFFFFFFFFFFFFFFFFFFFFFFFFFFFFFFFFFFFFF AND DUP5 PUSH20 0xFFFFFFFFFFFFFFFFFFFFFFFFFFFFFFFFFFFFFFFF AND EQ DUP1 ISZERO PUSH2 0x1E98 JUMPI POP PUSH1 0x4 PUSH1 0x0 SWAP1 SLOAD SWAP1 PUSH2 0x100 EXP SWAP1 DIV PUSH20 0xFFFFFFFFFFFFFFFFFFFFFFFFFFFFFFFFFFFFFFFF AND PUSH20 0xFFFFFFFFFFFFFFFFFFFFFFFFFFFFFFFFFFFFFFFF AND DUP4 PUSH20 0xFFFFFFFFFFFFFFFFFFFFFFFFFFFFFFFFFFFFFFFF AND EQ ISZERO JUMPDEST ISZERO PUSH2 0x1EAE JUMPI PUSH2 0x1EA7 DUP4 DUP4 PUSH2 0x4B58 JUMP JUMPDEST SWAP1 POP PUSH2 0x1F7C JUMP JUMPDEST PUSH1 0x4 PUSH1 0x0 SWAP1 SLOAD SWAP1 PUSH2 0x100 EXP SWAP1 DIV PUSH20 0xFFFFFFFFFFFFFFFFFFFFFFFFFFFFFFFFFFFFFFFF AND PUSH20 0xFFFFFFFFFFFFFFFFFFFFFFFFFFFFFFFFFFFFFFFF AND DUP5 PUSH20 0xFFFFFFFFFFFFFFFFFFFFFFFFFFFFFFFFFFFFFFFF AND EQ ISZERO DUP1 ISZERO PUSH2 0x1F5A JUMPI POP PUSH1 0x4 PUSH1 0x0 SWAP1 SLOAD SWAP1 PUSH2 0x100 EXP SWAP1 DIV PUSH20 0xFFFFFFFFFFFFFFFFFFFFFFFFFFFFFFFFFFFFFFFF AND PUSH20 0xFFFFFFFFFFFFFFFFFFFFFFFFFFFFFFFFFFFFFFFF AND DUP5 PUSH20 0xFFFFFFFFFFFFFFFFFFFFFFFFFFFFFFFFFFFFFFFF AND EQ ISZERO JUMPDEST ISZERO PUSH2 0x1F7B JUMPI PUSH1 0x0 PUSH2 0x1F6B DUP6 DUP5 PUSH2 0x4972 JUMP JUMPDEST SWAP1 POP PUSH2 0x1F77 DUP5 DUP3 PUSH2 0x4B58 JUMP JUMPDEST SWAP2 POP POP JUMPDEST JUMPDEST JUMPDEST SWAP4 SWAP3 POP POP POP JUMP JUMPDEST PUSH1 0x0 PUSH2 0x1FCE PUSH1 0x1 PUSH1 0x0 DUP5 PUSH20 0xFFFFFFFFFFFFFFFFFFFFFFFFFFFFFFFFFFFFFFFF AND PUSH20 0xFFFFFFFFFFFFFFFFFFFFFFFFFFFFFFFFFFFFFFFF AND DUP2 MSTORE PUSH1 0x20 ADD SWAP1 DUP2 MSTORE PUSH1 0x20 ADD PUSH1 0x0 KECCAK256 SLOAD PUSH2 0x4D38 JUMP JUMPDEST SWAP1 POP SWAP2 SWAP1 POP JUMP JUMPDEST PUSH1 0x60 DUP2 MLOAD DUP4 MLOAD EQ PUSH2 0x2012 JUMPI PUSH1 0x40 MLOAD PUSH32 0x80DADC2700000000000000000000000000000000000000000000000000000000 DUP2 MSTORE PUSH1 0x4 ADD PUSH1 0x40 MLOAD DUP1 SWAP2 SUB SWAP1 REVERT JUMPDEST PUSH1 0x0 DUP4 MLOAD PUSH8 0xFFFFFFFFFFFFFFFF DUP2 GT ISZERO PUSH2 0x202F JUMPI PUSH2 0x202E PUSH2 0x80DC JUMP JUMPDEST JUMPDEST PUSH1 0x40 MLOAD SWAP1 DUP1 DUP3 MSTORE DUP1 PUSH1 0x20 MUL PUSH1 0x20 ADD DUP3 ADD PUSH1 0x40 MSTORE DUP1 ISZERO PUSH2 0x205D JUMPI DUP2 PUSH1 0x20 ADD PUSH1 0x20 DUP3 MUL DUP1 CALLDATASIZE DUP4 CALLDATACOPY DUP1 DUP3 ADD SWAP2 POP POP SWAP1 POP JUMPDEST POP SWAP1 POP PUSH1 0x0 JUMPDEST DUP5 MLOAD DUP2 LT ISZERO PUSH2 0x20DA JUMPI PUSH2 0x20AA DUP6 DUP3 DUP2 MLOAD DUP2 LT PUSH2 0x2082 JUMPI PUSH2 0x2081 PUSH2 0x8F22 JUMP JUMPDEST JUMPDEST PUSH1 0x20 MUL PUSH1 0x20 ADD ADD MLOAD DUP6 DUP4 DUP2 MLOAD DUP2 LT PUSH2 0x209D JUMPI PUSH2 0x209C PUSH2 0x8F22 JUMP JUMPDEST JUMPDEST PUSH1 0x20 MUL PUSH1 0x20 ADD ADD MLOAD PUSH2 0xA33 JUMP JUMPDEST DUP3 DUP3 DUP2 MLOAD DUP2 LT PUSH2 0x20BD JUMPI PUSH2 0x20BC PUSH2 0x8F22 JUMP JUMPDEST JUMPDEST PUSH1 0x20 MUL PUSH1 0x20 ADD ADD DUP2 DUP2 MSTORE POP POP DUP1 PUSH2 0x20D3 SWAP1 PUSH2 0x9445 JUMP JUMPDEST SWAP1 POP PUSH2 0x2063 JUMP JUMPDEST POP DUP1 SWAP2 POP POP SWAP3 SWAP2 POP POP JUMP JUMPDEST PUSH1 0x0 DUP1 PUSH2 0x20F1 DUP4 PUSH2 0x3468 JUMP JUMPDEST GT SWAP1 POP SWAP2 SWAP1 POP JUMP JUMPDEST PUSH2 0x2105 DUP5 DUP5 DUP5 DUP5 PUSH2 0x4FB7 JUMP JUMPDEST POP POP POP POP JUMP JUMPDEST PUSH1 0x0 PUSH1 0x1 PUSH1 0x0 DUP4 PUSH20 0xFFFFFFFFFFFFFFFFFFFFFFFFFFFFFFFFFFFFFFFF AND PUSH20 0xFFFFFFFFFFFFFFFFFFFFFFFFFFFFFFFFFFFFFFFF AND DUP2 MSTORE PUSH1 0x20 ADD SWAP1 DUP2 MSTORE PUSH1 0x20 ADD PUSH1 0x0 KECCAK256 SLOAD SWAP1 POP SWAP2 SWAP1 POP JUMP JUMPDEST PUSH2 0x215C PUSH2 0x4514 JUMP JUMPDEST PUSH20 0xFFFFFFFFFFFFFFFFFFFFFFFFFFFFFFFFFFFFFFFF AND PUSH2 0x217A PUSH2 0x264D JUMP JUMPDEST PUSH20 0xFFFFFFFFFFFFFFFFFFFFFFFFFFFFFFFFFFFFFFFF AND EQ PUSH2 0x21C7 JUMPI PUSH1 0x40 MLOAD PUSH32 0xEBF9845900000000000000000000000000000000000000000000000000000000 DUP2 MSTORE PUSH1 0x4 ADD PUSH1 0x40 MLOAD DUP1 SWAP2 SUB SWAP1 REVERT JUMPDEST PUSH2 0x21D1 PUSH1 0x0 PUSH2 0x5AD3 JUMP JUMPDEST JUMP JUMPDEST PUSH1 0x0 PUSH1 0x1 PUSH1 0x0 DUP5 PUSH20 0xFFFFFFFFFFFFFFFFFFFFFFFFFFFFFFFFFFFFFFFF AND PUSH20 0xFFFFFFFFFFFFFFFFFFFFFFFFFFFFFFFFFFFFFFFF AND DUP2 MSTORE PUSH1 0x20 ADD SWAP1 DUP2 MSTORE PUSH1 0x20 ADD PUSH1 0x0 KECCAK256 SLOAD SWAP1 POP DUP2 PUSH32 0xFFFFFFFFFFFFFFFFFFFFFFFFFFFFFFFFFFFFFFFFFFFFFFFFFFFFFFFFFFFFFFFF PUSH2 0x2243 SWAP2 SWAP1 PUSH2 0x8F80 JUMP JUMPDEST PUSH1 0x0 DUP3 DUP2 SLOAD DUP2 LT PUSH2 0x2257 JUMPI PUSH2 0x2256 PUSH2 0x8F22 JUMP JUMPDEST JUMPDEST SWAP1 PUSH1 0x0 MSTORE PUSH1 0x20 PUSH1 0x0 KECCAK256 SWAP1 PUSH1 0x4 MUL ADD PUSH1 0x3 ADD SLOAD GT ISZERO PUSH2 0x22AA JUMPI PUSH1 0x40 MLOAD PUSH32 0x8C379A000000000000000000000000000000000000000000000000000000000 DUP2 MSTORE PUSH1 0x4 ADD PUSH2 0x22A1 SWAP1 PUSH2 0x971C JUMP JUMPDEST PUSH1 0x40 MLOAD DUP1 SWAP2 SUB SWAP1 REVERT JUMPDEST DUP2 PUSH1 0x0 DUP3 DUP2 SLOAD DUP2 LT PUSH2 0x22BF JUMPI PUSH2 0x22BE PUSH2 0x8F22 JUMP JUMPDEST JUMPDEST SWAP1 PUSH1 0x0 MSTORE PUSH1 0x20 PUSH1 0x0 KECCAK256 SWAP1 PUSH1 0x4 MUL ADD PUSH1 0x3 ADD PUSH1 0x0 DUP3 DUP3 SLOAD PUSH2 0x22DF SWAP2 SWAP1 PUSH2 0x948E JUMP JUMPDEST SWAP3 POP POP DUP2 SWAP1 SSTORE POP PUSH1 0x4 PUSH1 0x0 SWAP1 SLOAD SWAP1 PUSH2 0x100 EXP SWAP1 DIV PUSH20 0xFFFFFFFFFFFFFFFFFFFFFFFFFFFFFFFFFFFFFFFF AND PUSH20 0xFFFFFFFFFFFFFFFFFFFFFFFFFFFFFFFFFFFFFFFF AND PUSH4 0x18A8AD87 CALLER DUP5 PUSH1 0x40 MLOAD DUP4 PUSH4 0xFFFFFFFF AND PUSH1 0xE0 SHL DUP2 MSTORE PUSH1 0x4 ADD PUSH2 0x2343 SWAP3 SWAP2 SWAP1 PUSH2 0x961C JUMP JUMPDEST PUSH1 0x0 PUSH1 0x40 MLOAD DUP1 DUP4 SUB DUP2 PUSH1 0x0 DUP8 DUP1 EXTCODESIZE ISZERO DUP1 ISZERO PUSH2 0x235D JUMPI PUSH1 0x0 DUP1 REVERT JUMPDEST POP GAS CALL ISZERO DUP1 ISZERO PUSH2 0x2371 JUMPI RETURNDATASIZE PUSH1 0x0 DUP1 RETURNDATACOPY RETURNDATASIZE PUSH1 0x0 REVERT JUMPDEST POP POP POP POP PUSH32 0x51AB1232A73B82B6B0ACB0FA91B834CF6E258A1858C4E23C72CE97241C71AA0D DUP4 PUSH1 0x0 DUP4 DUP2 SLOAD DUP2 LT PUSH2 0x23AB JUMPI PUSH2 0x23AA PUSH2 0x8F22 JUMP JUMPDEST JUMPDEST SWAP1 PUSH1 0x0 MSTORE PUSH1 0x20 PUSH1 0x0 KECCAK256 SWAP1 PUSH1 0x4 MUL ADD PUSH1 0x1 ADD PUSH1 0x0 SWAP1 SLOAD SWAP1 PUSH2 0x100 EXP SWAP1 DIV PUSH16 0xFFFFFFFFFFFFFFFFFFFFFFFFFFFFFFFF AND PUSH1 0x0 DUP5 DUP2 SLOAD DUP2 LT PUSH2 0x23ED JUMPI PUSH2 0x23EC PUSH2 0x8F22 JUMP JUMPDEST JUMPDEST SWAP1 PUSH1 0x0 MSTORE PUSH1 0x20 PUSH1 0x0 KECCAK256 SWAP1 PUSH1 0x4 MUL ADD PUSH1 0x1 ADD PUSH1 0x10 SWAP1 SLOAD SWAP1 PUSH2 0x100 EXP SWAP1 DIV PUSH16 0xFFFFFFFFFFFFFFFFFFFFFFFFFFFFFFFF AND PUSH1 0x0 DUP6 DUP2 SLOAD DUP2 LT PUSH2 0x242F JUMPI PUSH2 0x242E PUSH2 0x8F22 JUMP JUMPDEST JUMPDEST SWAP1 PUSH1 0x0 MSTORE PUSH1 0x20 PUSH1 0x0 KECCAK256 SWAP1 PUSH1 0x4 MUL ADD PUSH1 0x3 ADD SLOAD PUSH1 0x40 MLOAD PUSH2 0x2451 SWAP5 SWAP4 SWAP3 SWAP2 SWAP1 PUSH2 0x976D JUMP JUMPDEST PUSH1 0x40 MLOAD DUP1 SWAP2 SUB SWAP1 LOG1 POP POP POP JUMP JUMPDEST PUSH1 0x0 DUP5 PUSH1 0x0 PUSH1 0x1 PUSH1 0x0 DUP4 PUSH20 0xFFFFFFFFFFFFFFFFFFFFFFFFFFFFFFFFFFFFFFFF AND PUSH20 0xFFFFFFFFFFFFFFFFFFFFFFFFFFFFFFFFFFFFFFFF AND DUP2 MSTORE PUSH1 0x20 ADD SWAP1 DUP2 MSTORE PUSH1 0x20 ADD PUSH1 0x0 KECCAK256 SLOAD EQ DUP1 PUSH2 0x24FC JUMPI POP PUSH1 0x4 PUSH1 0x0 SWAP1 SLOAD SWAP1 PUSH2 0x100 EXP SWAP1 DIV PUSH20 0xFFFFFFFFFFFFFFFFFFFFFFFFFFFFFFFFFFFFFFFF AND PUSH20 0xFFFFFFFFFFFFFFFFFFFFFFFFFFFFFFFFFFFFFFFF AND DUP2 PUSH20 0xFFFFFFFFFFFFFFFFFFFFFFFFFFFFFFFFFFFFFFFF AND EQ JUMPDEST ISZERO PUSH2 0x253C JUMPI PUSH1 0x40 MLOAD PUSH32 0x8C379A000000000000000000000000000000000000000000000000000000000 DUP2 MSTORE PUSH1 0x4 ADD PUSH2 0x2533 SWAP1 PUSH2 0x8F02 JUMP JUMPDEST PUSH1 0x40 MLOAD DUP1 SWAP2 SUB SWAP1 REVERT JUMPDEST DUP4 DUP1 TIMESTAMP GT ISZERO PUSH2 0x2580 JUMPI PUSH1 0x40 MLOAD PUSH32 0x8C379A000000000000000000000000000000000000000000000000000000000 DUP2 MSTORE PUSH1 0x4 ADD PUSH2 0x2577 SWAP1 PUSH2 0x9530 JUMP JUMPDEST PUSH1 0x40 MLOAD DUP1 SWAP2 SUB SWAP1 REVERT JUMPDEST PUSH2 0x258B DUP8 DUP8 DUP7 PUSH2 0x5B99 JUMP JUMPDEST SWAP3 POP POP POP SWAP5 SWAP4 POP POP POP POP JUMP JUMPDEST PUSH2 0x25A5 DUP5 DUP5 DUP5 PUSH1 0x0 DUP6 PUSH2 0x62CA JUMP JUMPDEST POP POP POP POP JUMP JUMPDEST PUSH2 0x25B3 PUSH2 0x7C4B JUMP JUMPDEST PUSH1 0x7 PUSH1 0x40 MLOAD DUP1 PUSH1 0xC0 ADD PUSH1 0x40 MSTORE SWAP1 DUP2 PUSH1 0x0 DUP3 ADD PUSH1 0x0 SWAP1 SLOAD SWAP1 PUSH2 0x100 EXP SWAP1 DIV PUSH20 0xFFFFFFFFFFFFFFFFFFFFFFFFFFFFFFFFFFFFFFFF AND PUSH20 0xFFFFFFFFFFFFFFFFFFFFFFFFFFFFFFFFFFFFFFFF AND PUSH20 0xFFFFFFFFFFFFFFFFFFFFFFFFFFFFFFFFFFFFFFFF AND DUP2 MSTORE PUSH1 0x20 ADD PUSH1 0x1 DUP3 ADD SLOAD DUP2 MSTORE PUSH1 0x20 ADD PUSH1 0x2 DUP3 ADD SLOAD DUP2 MSTORE PUSH1 0x20 ADD PUSH1 0x3 DUP3 ADD SLOAD DUP2 MSTORE PUSH1 0x20 ADD PUSH1 0x4 DUP3 ADD SLOAD DUP2 MSTORE PUSH1 0x20 ADD PUSH1 0x5 DUP3 ADD SLOAD DUP2 MSTORE POP POP SWAP1 POP SWAP1 JUMP JUMPDEST PUSH1 0x0 PUSH1 0x14 PUSH1 0x0 SWAP1 SLOAD SWAP1 PUSH2 0x100 EXP SWAP1 DIV PUSH20 0xFFFFFFFFFFFFFFFFFFFFFFFFFFFFFFFFFFFFFFFF AND SWAP1 POP SWAP1 JUMP JUMPDEST PUSH1 0x60 PUSH1 0x12 DUP1 SLOAD PUSH2 0x2686 SWAP1 PUSH2 0x9025 JUMP JUMPDEST DUP1 PUSH1 0x1F ADD PUSH1 0x20 DUP1 SWAP2 DIV MUL PUSH1 0x20 ADD PUSH1 0x40 MLOAD SWAP1 DUP2 ADD PUSH1 0x40 MSTORE DUP1 SWAP3 SWAP2 SWAP1 DUP2 DUP2 MSTORE PUSH1 0x20 ADD DUP3 DUP1 SLOAD PUSH2 0x26B2 SWAP1 PUSH2 0x9025 JUMP JUMPDEST DUP1 ISZERO PUSH2 0x26FF JUMPI DUP1 PUSH1 0x1F LT PUSH2 0x26D4 JUMPI PUSH2 0x100 DUP1 DUP4 SLOAD DIV MUL DUP4 MSTORE SWAP2 PUSH1 0x20 ADD SWAP2 PUSH2 0x26FF JUMP JUMPDEST DUP3 ADD SWAP2 SWAP1 PUSH1 0x0 MSTORE PUSH1 0x20 PUSH1 0x0 KECCAK256 SWAP1 JUMPDEST DUP2 SLOAD DUP2 MSTORE SWAP1 PUSH1 0x1 ADD SWAP1 PUSH1 0x20 ADD DUP1 DUP4 GT PUSH2 0x26E2 JUMPI DUP3 SWAP1 SUB PUSH1 0x1F AND DUP3 ADD SWAP2 JUMPDEST POP POP POP POP POP SWAP1 POP SWAP1 JUMP JUMPDEST DUP1 PUSH1 0x0 PUSH1 0x1 PUSH1 0x0 DUP4 PUSH20 0xFFFFFFFFFFFFFFFFFFFFFFFFFFFFFFFFFFFFFFFF AND PUSH20 0xFFFFFFFFFFFFFFFFFFFFFFFFFFFFFFFFFFFFFFFF AND DUP2 MSTORE PUSH1 0x20 ADD SWAP1 DUP2 MSTORE PUSH1 0x20 ADD PUSH1 0x0 KECCAK256 SLOAD EQ DUP1 PUSH2 0x27A5 JUMPI POP PUSH1 0x4 PUSH1 0x0 SWAP1 SLOAD SWAP1 PUSH2 0x100 EXP SWAP1 DIV PUSH20 0xFFFFFFFFFFFFFFFFFFFFFFFFFFFFFFFFFFFFFFFF AND PUSH20 0xFFFFFFFFFFFFFFFFFFFFFFFFFFFFFFFFFFFFFFFF AND DUP2 PUSH20 0xFFFFFFFFFFFFFFFFFFFFFFFFFFFFFFFFFFFFFFFF AND EQ JUMPDEST ISZERO PUSH2 0x27E5 JUMPI PUSH1 0x40 MLOAD PUSH32 0x8C379A000000000000000000000000000000000000000000000000000000000 DUP2 MSTORE PUSH1 0x4 ADD PUSH2 0x27DC SWAP1 PUSH2 0x8F02 JUMP JUMPDEST PUSH1 0x40 MLOAD DUP1 SWAP2 SUB SWAP1 REVERT JUMPDEST PUSH1 0x0 PUSH1 0x1 PUSH1 0x0 DUP5 PUSH20 0xFFFFFFFFFFFFFFFFFFFFFFFFFFFFFFFFFFFFFFFF AND PUSH20 0xFFFFFFFFFFFFFFFFFFFFFFFFFFFFFFFFFFFFFFFF AND DUP2 MSTORE PUSH1 0x20 ADD SWAP1 DUP2 MSTORE PUSH1 0x20 ADD PUSH1 0x0 KECCAK256 SLOAD SWAP1 POP PUSH2 0x2832 DUP4 PUSH2 0x4387 JUMP JUMPDEST PUSH1 0x0 DUP3 DUP2 SLOAD DUP2 LT PUSH2 0x2846 JUMPI PUSH2 0x2845 PUSH2 0x8F22 JUMP JUMPDEST JUMPDEST SWAP1 PUSH1 0x0 MSTORE PUSH1 0x20 PUSH1 0x0 KECCAK256 SWAP1 PUSH1 0x4 MUL ADD PUSH1 0x1 ADD PUSH1 0x0 PUSH2 0x100 EXP DUP2 SLOAD DUP2 PUSH16 0xFFFFFFFFFFFFFFFFFFFFFFFFFFFFFFFF MUL NOT AND SWAP1 DUP4 PUSH16 0xFFFFFFFFFFFFFFFFFFFFFFFFFFFFFFFF AND MUL OR SWAP1 SSTORE POP PUSH1 0x0 PUSH2 0x28BA PUSH1 0x4 PUSH1 0x0 SWAP1 SLOAD SWAP1 PUSH2 0x100 EXP SWAP1 DIV PUSH20 0xFFFFFFFFFFFFFFFFFFFFFFFFFFFFFFFFFFFFFFFF AND PUSH2 0x4387 JUMP JUMPDEST SWAP1 POP PUSH1 0x2 SLOAD DUP2 PUSH1 0x0 DUP5 DUP2 SLOAD DUP2 LT PUSH2 0x28D4 JUMPI PUSH2 0x28D3 PUSH2 0x8F22 JUMP JUMPDEST JUMPDEST SWAP1 PUSH1 0x0 MSTORE PUSH1 0x20 PUSH1 0x0 KECCAK256 SWAP1 PUSH1 0x4 MUL ADD PUSH1 0x1 ADD PUSH1 0x10 SWAP1 SLOAD SWAP1 PUSH2 0x100 EXP SWAP1 DIV PUSH16 0xFFFFFFFFFFFFFFFFFFFFFFFFFFFFFFFF AND PUSH16 0xFFFFFFFFFFFFFFFFFFFFFFFFFFFFFFFF AND PUSH2 0x291E SWAP2 SWAP1 PUSH2 0x948E JUMP JUMPDEST PUSH2 0x2928 SWAP2 SWAP1 PUSH2 0x8F80 JUMP JUMPDEST PUSH1 0x0 DUP4 DUP2 SLOAD DUP2 LT PUSH2 0x293C JUMPI PUSH2 0x293B PUSH2 0x8F22 JUMP JUMPDEST JUMPDEST SWAP1 PUSH1 0x0 MSTORE PUSH1 0x20 PUSH1 0x0 KECCAK256 SWAP1 PUSH1 0x4 MUL ADD PUSH1 0x1 ADD PUSH1 0x10 PUSH2 0x100 EXP DUP2 SLOAD DUP2 PUSH16 0xFFFFFFFFFFFFFFFFFFFFFFFFFFFFFFFF MUL NOT AND SWAP1 DUP4 PUSH16 0xFFFFFFFFFFFFFFFFFFFFFFFFFFFFFFFF AND MUL OR SWAP1 SSTORE POP PUSH1 0x2 SLOAD DUP2 PUSH1 0x0 DUP5 DUP2 SLOAD DUP2 LT PUSH2 0x299B JUMPI PUSH2 0x299A PUSH2 0x8F22 JUMP JUMPDEST JUMPDEST SWAP1 PUSH1 0x0 MSTORE PUSH1 0x20 PUSH1 0x0 KECCAK256 SWAP1 PUSH1 0x4 MUL ADD PUSH1 0x3 ADD SLOAD PUSH2 0x29B7 SWAP2 SWAP1 PUSH2 0x948E JUMP JUMPDEST PUSH2 0x29C1 SWAP2 SWAP1 PUSH2 0x8F80 JUMP JUMPDEST PUSH1 0x0 DUP4 DUP2 SLOAD DUP2 LT PUSH2 0x29D5 JUMPI PUSH2 0x29D4 PUSH2 0x8F22 JUMP JUMPDEST JUMPDEST SWAP1 PUSH1 0x0 MSTORE PUSH1 0x20 PUSH1 0x0 KECCAK256 SWAP1 PUSH1 0x4 MUL ADD PUSH1 0x3 ADD DUP2 SWAP1 SSTORE POP DUP1 PUSH1 0x2 DUP2 SWAP1 SSTORE POP PUSH32 0x51AB1232A73B82B6B0ACB0FA91B834CF6E258A1858C4E23C72CE97241C71AA0D DUP5 PUSH1 0x0 DUP5 DUP2 SLOAD DUP2 LT PUSH2 0x2A27 JUMPI PUSH2 0x2A26 PUSH2 0x8F22 JUMP JUMPDEST JUMPDEST SWAP1 PUSH1 0x0 MSTORE PUSH1 0x20 PUSH1 0x0 KECCAK256 SWAP1 PUSH1 0x4 MUL ADD PUSH1 0x1 ADD PUSH1 0x0 SWAP1 SLOAD SWAP1 PUSH2 0x100 EXP SWAP1 DIV PUSH16 0xFFFFFFFFFFFFFFFFFFFFFFFFFFFFFFFF AND PUSH1 0x0 DUP6 DUP2 SLOAD DUP2 LT PUSH2 0x2A69 JUMPI PUSH2 0x2A68 PUSH2 0x8F22 JUMP JUMPDEST JUMPDEST SWAP1 PUSH1 0x0 MSTORE PUSH1 0x20 PUSH1 0x0 KECCAK256 SWAP1 PUSH1 0x4 MUL ADD PUSH1 0x1 ADD PUSH1 0x10 SWAP1 SLOAD SWAP1 PUSH2 0x100 EXP SWAP1 DIV PUSH16 0xFFFFFFFFFFFFFFFFFFFFFFFFFFFFFFFF AND PUSH1 0x0 DUP7 DUP2 SLOAD DUP2 LT PUSH2 0x2AAB JUMPI PUSH2 0x2AAA PUSH2 0x8F22 JUMP JUMPDEST JUMPDEST SWAP1 PUSH1 0x0 MSTORE PUSH1 0x20 PUSH1 0x0 KECCAK256 SWAP1 PUSH1 0x4 MUL ADD PUSH1 0x3 ADD SLOAD PUSH1 0x40 MLOAD PUSH2 0x2ACD SWAP5 SWAP4 SWAP3 SWAP2 SWAP1 PUSH2 0x976D JUMP JUMPDEST PUSH1 0x40 MLOAD DUP1 SWAP2 SUB SWAP1 LOG1 POP POP POP POP JUMP JUMPDEST ADDRESS CALLER PUSH1 0x0 PUSH20 0xDEF1FAC7BF08F173D286BBBDCBEEADE695129840 PUSH20 0xFFFFFFFFFFFFFFFFFFFFFFFFFFFFFFFFFFFFFFFF AND PUSH4 0x6FB1A07 PUSH1 0x3 PUSH1 0x40 MLOAD DUP3 PUSH4 0xFFFFFFFF AND PUSH1 0xE0 SHL DUP2 MSTORE PUSH1 0x4 ADD PUSH2 0x2B2D SWAP2 SWAP1 PUSH2 0x7E71 JUMP JUMPDEST PUSH1 0x20 PUSH1 0x40 MLOAD DUP1 DUP4 SUB DUP2 DUP7 GAS STATICCALL ISZERO DUP1 ISZERO PUSH2 0x2B4A JUMPI RETURNDATASIZE PUSH1 0x0 DUP1 RETURNDATACOPY RETURNDATASIZE PUSH1 0x0 REVERT JUMPDEST POP POP POP POP PUSH1 0x40 MLOAD RETURNDATASIZE PUSH1 0x1F NOT PUSH1 0x1F DUP3 ADD AND DUP3 ADD DUP1 PUSH1 0x40 MSTORE POP DUP2 ADD SWAP1 PUSH2 0x2B6E SWAP2 SWAP1 PUSH2 0x8FC9 JUMP JUMPDEST SWAP1 POP DUP1 PUSH20 0xFFFFFFFFFFFFFFFFFFFFFFFFFFFFFFFFFFFFFFFF AND PUSH4 0x322D5FBC DUP5 DUP5 PUSH1 0x40 MLOAD DUP4 PUSH4 0xFFFFFFFF AND PUSH1 0xE0 SHL DUP2 MSTORE PUSH1 0x4 ADD PUSH2 0x2BAB SWAP3 SWAP2 SWAP1 PUSH2 0x97B2 JUMP JUMPDEST PUSH1 0x20 PUSH1 0x40 MLOAD DUP1 DUP4 SUB DUP2 PUSH1 0x0 DUP8 GAS CALL ISZERO DUP1 ISZERO PUSH2 0x2BCA JUMPI RETURNDATASIZE PUSH1 0x0 DUP1 RETURNDATACOPY RETURNDATASIZE PUSH1 0x0 REVERT JUMPDEST POP POP POP POP PUSH1 0x40 MLOAD RETURNDATASIZE PUSH1 0x1F NOT PUSH1 0x1F DUP3 ADD AND DUP3 ADD DUP1 PUSH1 0x40 MSTORE POP DUP2 ADD SWAP1 PUSH2 0x2BEE SWAP2 SWAP1 PUSH2 0x97F0 JUMP JUMPDEST ISZERO PUSH2 0x2C25 JUMPI PUSH1 0x40 MLOAD PUSH32 0xE30CF0F00000000000000000000000000000000000000000000000000000000 DUP2 MSTORE PUSH1 0x4 ADD PUSH1 0x40 MLOAD DUP1 SWAP2 SUB SWAP1 REVERT JUMPDEST DUP1 PUSH20 0xFFFFFFFFFFFFFFFFFFFFFFFFFFFFFFFFFFFFFFFF AND PUSH4 0xEEF84BA1 PUSH1 0x40 MLOAD DUP2 PUSH4 0xFFFFFFFF AND PUSH1 0xE0 SHL DUP2 MSTORE PUSH1 0x4 ADD PUSH1 0x0 PUSH1 0x40 MLOAD DUP1 DUP4 SUB DUP2 PUSH1 0x0 DUP8 DUP1 EXTCODESIZE ISZERO DUP1 ISZERO PUSH2 0x2C6D JUMPI PUSH1 0x0 DUP1 REVERT JUMPDEST POP GAS CALL ISZERO DUP1 ISZERO PUSH2 0x2C81 JUMPI RETURNDATASIZE PUSH1 0x0 DUP1 RETURNDATACOPY RETURNDATASIZE PUSH1 0x0 REVERT JUMPDEST POP POP POP POP PUSH2 0x2C97 PUSH2 0x2C90 PUSH2 0x4514 JUMP JUMPDEST DUP7 DUP7 PUSH2 0x6833 JUMP JUMPDEST POP POP POP POP POP JUMP JUMPDEST PUSH1 0x0 DUP1 DUP4 DUP1 TIMESTAMP GT ISZERO PUSH2 0x2CE5 JUMPI PUSH1 0x40 MLOAD PUSH32 0x8C379A000000000000000000000000000000000000000000000000000000000 DUP2 MSTORE PUSH1 0x4 ADD PUSH2 0x2CDC SWAP1 PUSH2 0x9530 JUMP JUMPDEST PUSH1 0x40 MLOAD DUP1 SWAP2 SUB SWAP1 REVERT JUMPDEST PUSH1 0x1 DUP8 GT PUSH2 0x2D28 JUMPI PUSH1 0x40 MLOAD PUSH32 0x8C379A000000000000000000000000000000000000000000000000000000000 DUP2 MSTORE PUSH1 0x4 ADD PUSH2 0x2D1F SWAP1 PUSH2 0x959C JUMP JUMPDEST PUSH1 0x40 MLOAD DUP1 SWAP2 SUB SWAP1 REVERT JUMPDEST PUSH1 0x0 CALLER SWAP1 POP PUSH1 0x0 PUSH1 0x4 PUSH1 0x0 SWAP1 SLOAD SWAP1 PUSH2 0x100 EXP SWAP1 DIV PUSH20 0xFFFFFFFFFFFFFFFFFFFFFFFFFFFFFFFFFFFFFFFF AND PUSH20 0xFFFFFFFFFFFFFFFFFFFFFFFFFFFFFFFFFFFFFFFF AND DUP12 PUSH20 0xFFFFFFFFFFFFFFFFFFFFFFFFFFFFFFFFFFFFFFFF AND EQ ISZERO DUP1 ISZERO PUSH2 0x2DDA JUMPI POP PUSH1 0x4 PUSH1 0x0 SWAP1 SLOAD SWAP1 PUSH2 0x100 EXP SWAP1 DIV PUSH20 0xFFFFFFFFFFFFFFFFFFFFFFFFFFFFFFFFFFFFFFFF AND PUSH20 0xFFFFFFFFFFFFFFFFFFFFFFFFFFFFFFFFFFFFFFFF AND DUP11 PUSH20 0xFFFFFFFFFFFFFFFFFFFFFFFFFFFFFFFFFFFFFFFF AND EQ JUMPDEST ISZERO PUSH2 0x2E4B JUMPI PUSH2 0x2DE9 DUP12 DUP11 PUSH2 0x4972 JUMP JUMPDEST SWAP1 POP DUP8 DUP2 LT ISZERO PUSH2 0x2E2E JUMPI PUSH1 0x40 MLOAD PUSH32 0x8C379A000000000000000000000000000000000000000000000000000000000 DUP2 MSTORE PUSH1 0x4 ADD PUSH2 0x2E25 SWAP1 PUSH2 0x9869 JUMP JUMPDEST PUSH1 0x40 MLOAD DUP1 SWAP2 SUB SWAP1 REVERT JUMPDEST PUSH2 0x2E39 DUP12 DUP4 DUP12 PUSH2 0x451C JUMP JUMPDEST PUSH2 0x2E46 DUP12 PUSH1 0x0 DUP4 DUP10 PUSH2 0x4FB7 JUMP JUMPDEST PUSH2 0x30DD JUMP JUMPDEST PUSH1 0x4 PUSH1 0x0 SWAP1 SLOAD SWAP1 PUSH2 0x100 EXP SWAP1 DIV PUSH20 0xFFFFFFFFFFFFFFFFFFFFFFFFFFFFFFFFFFFFFFFF AND PUSH20 0xFFFFFFFFFFFFFFFFFFFFFFFFFFFFFFFFFFFFFFFF AND DUP12 PUSH20 0xFFFFFFFFFFFFFFFFFFFFFFFFFFFFFFFFFFFFFFFF AND EQ DUP1 ISZERO PUSH2 0x2EF6 JUMPI POP PUSH1 0x4 PUSH1 0x0 SWAP1 SLOAD SWAP1 PUSH2 0x100 EXP SWAP1 DIV PUSH20 0xFFFFFFFFFFFFFFFFFFFFFFFFFFFFFFFFFFFFFFFF AND PUSH20 0xFFFFFFFFFFFFFFFFFFFFFFFFFFFFFFFFFFFFFFFF AND DUP11 PUSH20 0xFFFFFFFFFFFFFFFFFFFFFFFFFFFFFFFFFFFFFFFF AND EQ ISZERO JUMPDEST ISZERO PUSH2 0x2F67 JUMPI PUSH2 0x2F05 DUP11 DUP11 PUSH2 0x4B58 JUMP JUMPDEST SWAP1 POP DUP8 DUP2 LT ISZERO PUSH2 0x2F4A JUMPI PUSH1 0x40 MLOAD PUSH32 0x8C379A000000000000000000000000000000000000000000000000000000000 DUP2 MSTORE PUSH1 0x4 ADD PUSH2 0x2F41 SWAP1 PUSH2 0x98D5 JUMP JUMPDEST PUSH1 0x40 MLOAD DUP1 SWAP2 SUB SWAP1 REVERT JUMPDEST PUSH2 0x2F55 DUP12 DUP4 DUP12 PUSH2 0x451C JUMP JUMPDEST PUSH2 0x2F62 DUP11 DUP3 PUSH1 0x0 DUP10 PUSH2 0x4FB7 JUMP JUMPDEST PUSH2 0x30DC JUMP JUMPDEST PUSH1 0x4 PUSH1 0x0 SWAP1 SLOAD SWAP1 PUSH2 0x100 EXP SWAP1 DIV PUSH20 0xFFFFFFFFFFFFFFFFFFFFFFFFFFFFFFFFFFFFFFFF AND PUSH20 0xFFFFFFFFFFFFFFFFFFFFFFFFFFFFFFFFFFFFFFFF AND DUP12 PUSH20 0xFFFFFFFFFFFFFFFFFFFFFFFFFFFFFFFFFFFFFFFF AND EQ ISZERO DUP1 ISZERO PUSH2 0x3013 JUMPI POP PUSH1 0x4 PUSH1 0x0 SWAP1 SLOAD SWAP1 PUSH2 0x100 EXP SWAP1 DIV PUSH20 0xFFFFFFFFFFFFFFFFFFFFFFFFFFFFFFFFFFFFFFFF AND PUSH20 0xFFFFFFFFFFFFFFFFFFFFFFFFFFFFFFFFFFFFFFFF AND DUP12 PUSH20 0xFFFFFFFFFFFFFFFFFFFFFFFFFFFFFFFFFFFFFFFF AND EQ ISZERO JUMPDEST ISZERO PUSH2 0x30A0 JUMPI PUSH1 0x0 PUSH2 0x3024 DUP13 DUP12 PUSH2 0x4972 JUMP JUMPDEST SWAP1 POP PUSH2 0x3030 DUP12 DUP3 PUSH2 0x4B58 JUMP JUMPDEST SWAP2 POP DUP9 DUP3 LT ISZERO PUSH2 0x3075 JUMPI PUSH1 0x40 MLOAD PUSH32 0x8C379A000000000000000000000000000000000000000000000000000000000 DUP2 MSTORE PUSH1 0x4 ADD PUSH2 0x306C SWAP1 PUSH2 0x98D5 JUMP JUMPDEST PUSH1 0x40 MLOAD DUP1 SWAP2 SUB SWAP1 REVERT JUMPDEST PUSH2 0x3080 DUP13 DUP5 DUP13 PUSH2 0x451C JUMP JUMPDEST PUSH2 0x308D DUP13 PUSH1 0x0 DUP4 ADDRESS PUSH2 0x4FB7 JUMP JUMPDEST PUSH2 0x309A DUP12 DUP4 PUSH1 0x0 DUP11 PUSH2 0x4FB7 JUMP JUMPDEST POP PUSH2 0x30DB JUMP JUMPDEST PUSH1 0x40 MLOAD PUSH32 0x8C379A000000000000000000000000000000000000000000000000000000000 DUP2 MSTORE PUSH1 0x4 ADD PUSH2 0x30D2 SWAP1 PUSH2 0x9941 JUMP JUMPDEST PUSH1 0x40 MLOAD DUP1 SWAP2 SUB SWAP1 REVERT JUMPDEST JUMPDEST JUMPDEST DUP9 DUP2 SWAP5 POP SWAP5 POP POP POP POP SWAP7 POP SWAP7 SWAP5 POP POP POP POP POP JUMP JUMPDEST PUSH1 0x60 PUSH1 0x0 DUP4 DUP4 SWAP1 POP PUSH8 0xFFFFFFFFFFFFFFFF DUP2 GT ISZERO PUSH2 0x3112 JUMPI PUSH2 0x3111 PUSH2 0x80DC JUMP JUMPDEST JUMPDEST PUSH1 0x40 MLOAD SWAP1 DUP1 DUP3 MSTORE DUP1 PUSH1 0x20 MUL PUSH1 0x20 ADD DUP3 ADD PUSH1 0x40 MSTORE DUP1 ISZERO PUSH2 0x314B JUMPI DUP2 PUSH1 0x20 ADD JUMPDEST PUSH2 0x3138 PUSH2 0x7B5A JUMP JUMPDEST DUP2 MSTORE PUSH1 0x20 ADD SWAP1 PUSH1 0x1 SWAP1 SUB SWAP1 DUP2 PUSH2 0x3130 JUMPI SWAP1 POP JUMPDEST POP SWAP1 POP PUSH1 0x0 JUMPDEST DUP5 DUP5 SWAP1 POP DUP2 LT ISZERO PUSH2 0x332C JUMPI PUSH1 0x0 DUP6 DUP6 DUP4 DUP2 DUP2 LT PUSH2 0x3171 JUMPI PUSH2 0x3170 PUSH2 0x8F22 JUMP JUMPDEST JUMPDEST SWAP1 POP PUSH1 0x20 MUL ADD CALLDATALOAD DUP2 SLOAD DUP2 LT PUSH2 0x3189 JUMPI PUSH2 0x3188 PUSH2 0x8F22 JUMP JUMPDEST JUMPDEST SWAP1 PUSH1 0x0 MSTORE PUSH1 0x20 PUSH1 0x0 KECCAK256 SWAP1 PUSH1 0x4 MUL ADD PUSH1 0x40 MLOAD DUP1 PUSH1 0xA0 ADD PUSH1 0x40 MSTORE SWAP1 DUP2 PUSH1 0x0 DUP3 ADD PUSH1 0x8 DUP1 PUSH1 0x20 MUL PUSH1 0x40 MLOAD SWAP1 DUP2 ADD PUSH1 0x40 MSTORE DUP1 SWAP3 SWAP2 SWAP1 DUP3 PUSH1 0x8 DUP1 ISZERO PUSH2 0x320A JUMPI PUSH1 0x20 MUL DUP3 ADD SWAP2 PUSH1 0x0 SWAP1 JUMPDEST DUP3 DUP3 SWAP1 SLOAD SWAP1 PUSH2 0x100 EXP SWAP1 DIV PUSH4 0xFFFFFFFF AND PUSH4 0xFFFFFFFF AND DUP2 MSTORE PUSH1 0x20 ADD SWAP1 PUSH1 0x4 ADD SWAP1 PUSH1 0x20 DUP3 PUSH1 0x3 ADD DIV SWAP3 DUP4 ADD SWAP3 PUSH1 0x1 SUB DUP3 MUL SWAP2 POP DUP1 DUP5 GT PUSH2 0x31CD JUMPI SWAP1 POP JUMPDEST POP POP POP POP POP DUP2 MSTORE PUSH1 0x20 ADD PUSH1 0x1 DUP3 ADD PUSH1 0x0 SWAP1 SLOAD SWAP1 PUSH2 0x100 EXP SWAP1 DIV PUSH16 0xFFFFFFFFFFFFFFFFFFFFFFFFFFFFFFFF AND PUSH16 0xFFFFFFFFFFFFFFFFFFFFFFFFFFFFFFFF AND PUSH16 0xFFFFFFFFFFFFFFFFFFFFFFFFFFFFFFFF AND DUP2 MSTORE PUSH1 0x20 ADD PUSH1 0x1 DUP3 ADD PUSH1 0x10 SWAP1 SLOAD SWAP1 PUSH2 0x100 EXP SWAP1 DIV PUSH16 0xFFFFFFFFFFFFFFFFFFFFFFFFFFFFFFFF AND PUSH16 0xFFFFFFFFFFFFFFFFFFFFFFFFFFFFFFFF AND PUSH16 0xFFFFFFFFFFFFFFFFFFFFFFFFFFFFFFFF AND DUP2 MSTORE PUSH1 0x20 ADD PUSH1 0x2 DUP3 ADD PUSH1 0x0 SWAP1 SLOAD SWAP1 PUSH2 0x100 EXP SWAP1 DIV PUSH16 0xFFFFFFFFFFFFFFFFFFFFFFFFFFFFFFFF AND PUSH16 0xFFFFFFFFFFFFFFFFFFFFFFFFFFFFFFFF AND PUSH16 0xFFFFFFFFFFFFFFFFFFFFFFFFFFFFFFFF AND DUP2 MSTORE PUSH1 0x20 ADD PUSH1 0x3 DUP3 ADD SLOAD DUP2 MSTORE POP POP DUP3 DUP3 DUP2 MLOAD DUP2 LT PUSH2 0x330E JUMPI PUSH2 0x330D PUSH2 0x8F22 JUMP JUMPDEST JUMPDEST PUSH1 0x20 MUL PUSH1 0x20 ADD ADD DUP2 SWAP1 MSTORE POP DUP1 DUP1 PUSH2 0x3324 SWAP1 PUSH2 0x9445 JUMP JUMPDEST SWAP2 POP POP PUSH2 0x3151 JUMP JUMPDEST POP DUP1 SWAP2 POP POP SWAP3 SWAP2 POP POP JUMP JUMPDEST PUSH2 0x333F PUSH2 0x4514 JUMP JUMPDEST PUSH20 0xFFFFFFFFFFFFFFFFFFFFFFFFFFFFFFFFFFFFFFFF AND PUSH2 0x335D PUSH2 0x264D JUMP JUMPDEST PUSH20 0xFFFFFFFFFFFFFFFFFFFFFFFFFFFFFFFFFFFFFFFF AND EQ PUSH2 0x33AA JUMPI PUSH1 0x40 MLOAD PUSH32 0xEBF9845900000000000000000000000000000000000000000000000000000000 DUP2 MSTORE PUSH1 0x4 ADD PUSH1 0x40 MLOAD DUP1 SWAP2 SUB SWAP1 REVERT JUMPDEST PUSH2 0x33D2 DUP2 PUSH1 0x40 MLOAD PUSH1 0x20 ADD PUSH2 0x33BE SWAP2 SWAP1 PUSH2 0x99DE JUMP JUMPDEST PUSH1 0x40 MLOAD PUSH1 0x20 DUP2 DUP4 SUB SUB DUP2 MSTORE SWAP1 PUSH1 0x40 MSTORE PUSH2 0x6997 JUMP JUMPDEST DUP1 PUSH1 0x13 SWAP1 DUP1 MLOAD SWAP1 PUSH1 0x20 ADD SWAP1 PUSH2 0x33E8 SWAP3 SWAP2 SWAP1 PUSH2 0x7BC5 JUMP JUMPDEST POP POP JUMP JUMPDEST PUSH2 0x342E PUSH1 0x3 PUSH1 0x0 SWAP1 SLOAD SWAP1 PUSH2 0x100 EXP SWAP1 DIV PUSH20 0xFFFFFFFFFFFFFFFFFFFFFFFFFFFFFFFFFFFFFFFF AND PUSH10 0xD3C21BCECCEDA1000000 PUSH10 0x69E10DE76676D0800000 CALLER PUSH2 0x3A3A JUMP JUMPDEST PUSH2 0x3466 PUSH1 0x5 PUSH1 0x0 SWAP1 SLOAD SWAP1 PUSH2 0x100 EXP SWAP1 DIV PUSH20 0xFFFFFFFFFFFFFFFFFFFFFFFFFFFFFFFFFFFFFFFF AND PUSH10 0x943B1377290CBD800000 DUP1 CALLER PUSH2 0x3A3A JUMP JUMPDEST JUMP JUMPDEST PUSH1 0x0 PUSH1 0x10 PUSH1 0x0 DUP4 DUP2 MSTORE PUSH1 0x20 ADD SWAP1 DUP2 MSTORE PUSH1 0x20 ADD PUSH1 0x0 KECCAK256 SLOAD SWAP1 POP SWAP2 SWAP1 POP JUMP JUMPDEST PUSH2 0x348D PUSH2 0x4514 JUMP JUMPDEST PUSH20 0xFFFFFFFFFFFFFFFFFFFFFFFFFFFFFFFFFFFFFFFF AND PUSH2 0x34AB PUSH2 0x264D JUMP JUMPDEST PUSH20 0xFFFFFFFFFFFFFFFFFFFFFFFFFFFFFFFFFFFFFFFF AND EQ PUSH2 0x34F8 JUMPI PUSH1 0x40 MLOAD PUSH32 0xEBF9845900000000000000000000000000000000000000000000000000000000 DUP2 MSTORE PUSH1 0x4 ADD PUSH1 0x40 MLOAD DUP1 SWAP2 SUB SWAP1 REVERT JUMPDEST PUSH2 0x3537 PUSH1 0x6 PUSH1 0x0 SWAP1 SLOAD SWAP1 PUSH2 0x100 EXP SWAP1 DIV PUSH20 0xFFFFFFFFFFFFFFFFFFFFFFFFFFFFFFFFFFFFFFFF AND PUSH7 0x38D7EA4C68000 PUSH10 0xD3C21BCECCEDA1000000 CALLER PUSH2 0x3A3A JUMP JUMPDEST JUMP JUMPDEST PUSH1 0x0 PUSH1 0x4 PUSH1 0x0 SWAP1 SLOAD SWAP1 PUSH2 0x100 EXP SWAP1 DIV PUSH20 0xFFFFFFFFFFFFFFFFFFFFFFFFFFFFFFFFFFFFFFFF AND PUSH20 0xFFFFFFFFFFFFFFFFFFFFFFFFFFFFFFFFFFFFFFFF AND DUP5 PUSH20 0xFFFFFFFFFFFFFFFFFFFFFFFFFFFFFFFFFFFFFFFF AND EQ ISZERO DUP1 ISZERO PUSH2 0x35E6 JUMPI POP PUSH1 0x4 PUSH1 0x0 SWAP1 SLOAD SWAP1 PUSH2 0x100 EXP SWAP1 DIV PUSH20 0xFFFFFFFFFFFFFFFFFFFFFFFFFFFFFFFFFFFFFFFF AND PUSH20 0xFFFFFFFFFFFFFFFFFFFFFFFFFFFFFFFFFFFFFFFF AND DUP4 PUSH20 0xFFFFFFFFFFFFFFFFFFFFFFFFFFFFFFFFFFFFFFFF AND EQ JUMPDEST ISZERO PUSH2 0x35FC JUMPI PUSH2 0x35F5 DUP5 DUP4 PUSH2 0x69B1 JUMP JUMPDEST SWAP1 POP PUSH2 0x378C JUMP JUMPDEST PUSH1 0x4 PUSH1 0x0 SWAP1 SLOAD SWAP1 PUSH2 0x100 EXP SWAP1 DIV PUSH20 0xFFFFFFFFFFFFFFFFFFFFFFFFFFFFFFFFFFFFFFFF AND PUSH20 0xFFFFFFFFFFFFFFFFFFFFFFFFFFFFFFFFFFFFFFFF AND DUP5 PUSH20 0xFFFFFFFFFFFFFFFFFFFFFFFFFFFFFFFFFFFFFFFF AND EQ DUP1 ISZERO PUSH2 0x36A7 JUMPI POP PUSH1 0x4 PUSH1 0x0 SWAP1 SLOAD SWAP1 PUSH2 0x100 EXP SWAP1 DIV PUSH20 0xFFFFFFFFFFFFFFFFFFFFFFFFFFFFFFFFFFFFFFFF AND PUSH20 0xFFFFFFFFFFFFFFFFFFFFFFFFFFFFFFFFFFFFFFFF AND DUP4 PUSH20 0xFFFFFFFFFFFFFFFFFFFFFFFFFFFFFFFFFFFFFFFF AND EQ ISZERO JUMPDEST ISZERO PUSH2 0x36BD JUMPI PUSH2 0x36B6 DUP4 DUP4 PUSH2 0x6B97 JUMP JUMPDEST SWAP1 POP PUSH2 0x378B JUMP JUMPDEST PUSH1 0x4 PUSH1 0x0 SWAP1 SLOAD SWAP1 PUSH2 0x100 EXP SWAP1 DIV PUSH20 0xFFFFFFFFFFFFFFFFFFFFFFFFFFFFFFFFFFFFFFFF AND PUSH20 0xFFFFFFFFFFFFFFFFFFFFFFFFFFFFFFFFFFFFFFFF AND DUP5 PUSH20 0xFFFFFFFFFFFFFFFFFFFFFFFFFFFFFFFFFFFFFFFF AND EQ ISZERO DUP1 ISZERO PUSH2 0x3769 JUMPI POP PUSH1 0x4 PUSH1 0x0 SWAP1 SLOAD SWAP1 PUSH2 0x100 EXP SWAP1 DIV PUSH20 0xFFFFFFFFFFFFFFFFFFFFFFFFFFFFFFFFFFFFFFFF AND PUSH20 0xFFFFFFFFFFFFFFFFFFFFFFFFFFFFFFFFFFFFFFFF AND DUP4 PUSH20 0xFFFFFFFFFFFFFFFFFFFFFFFFFFFFFFFFFFFFFFFF AND EQ ISZERO JUMPDEST ISZERO PUSH2 0x378A JUMPI PUSH1 0x0 PUSH2 0x377A DUP5 DUP5 PUSH2 0x6B97 JUMP JUMPDEST SWAP1 POP PUSH2 0x3786 DUP6 DUP3 PUSH2 0x69B1 JUMP JUMPDEST SWAP2 POP POP JUMPDEST JUMPDEST JUMPDEST SWAP4 SWAP3 POP POP POP JUMP JUMPDEST PUSH2 0x379B PUSH2 0x4514 JUMP JUMPDEST PUSH20 0xFFFFFFFFFFFFFFFFFFFFFFFFFFFFFFFFFFFFFFFF AND PUSH2 0x37B9 PUSH2 0x264D JUMP JUMPDEST PUSH20 0xFFFFFFFFFFFFFFFFFFFFFFFFFFFFFFFFFFFFFFFF AND EQ PUSH2 0x3806 JUMPI PUSH1 0x40 MLOAD PUSH32 0xEBF9845900000000000000000000000000000000000000000000000000000000 DUP2 MSTORE PUSH1 0x4 ADD PUSH1 0x40 MLOAD DUP1 SWAP2 SUB SWAP1 REVERT JUMPDEST DUP2 PUSH1 0x0 PUSH1 0x1 PUSH1 0x0 DUP4 PUSH20 0xFFFFFFFFFFFFFFFFFFFFFFFFFFFFFFFFFFFFFFFF AND PUSH20 0xFFFFFFFFFFFFFFFFFFFFFFFFFFFFFFFFFFFFFFFF AND DUP2 MSTORE PUSH1 0x20 ADD SWAP1 DUP2 MSTORE PUSH1 0x20 ADD PUSH1 0x0 KECCAK256 SLOAD EQ DUP1 PUSH2 0x38A2 JUMPI POP PUSH1 0x4 PUSH1 0x0 SWAP1 SLOAD SWAP1 PUSH2 0x100 EXP SWAP1 DIV PUSH20 0xFFFFFFFFFFFFFFFFFFFFFFFFFFFFFFFFFFFFFFFF AND PUSH20 0xFFFFFFFFFFFFFFFFFFFFFFFFFFFFFFFFFFFFFFFF AND DUP2 PUSH20 0xFFFFFFFFFFFFFFFFFFFFFFFFFFFFFFFFFFFFFFFF AND EQ JUMPDEST ISZERO PUSH2 0x38E2 JUMPI PUSH1 0x40 MLOAD PUSH32 0x8C379A000000000000000000000000000000000000000000000000000000000 DUP2 MSTORE PUSH1 0x4 ADD PUSH2 0x38D9 SWAP1 PUSH2 0x8F02 JUMP JUMPDEST PUSH1 0x40 MLOAD DUP1 SWAP2 SUB SWAP1 REVERT JUMPDEST PUSH1 0x0 PUSH1 0x1 PUSH1 0x0 DUP6 PUSH20 0xFFFFFFFFFFFFFFFFFFFFFFFFFFFFFFFFFFFFFFFF AND PUSH20 0xFFFFFFFFFFFFFFFFFFFFFFFFFFFFFFFFFFFFFFFF AND DUP2 MSTORE PUSH1 0x20 ADD SWAP1 DUP2 MSTORE PUSH1 0x20 ADD PUSH1 0x0 KECCAK256 SLOAD SWAP1 POP DUP3 PUSH1 0x0 DUP3 DUP2 SLOAD DUP2 LT PUSH2 0x393B JUMPI PUSH2 0x393A PUSH2 0x8F22 JUMP JUMPDEST JUMPDEST SWAP1 PUSH1 0x0 MSTORE PUSH1 0x20 PUSH1 0x0 KECCAK256 SWAP1 PUSH1 0x4 MUL ADD PUSH1 0x3 ADD DUP2 SWAP1 SSTORE POP PUSH32 0x51AB1232A73B82B6B0ACB0FA91B834CF6E258A1858C4E23C72CE97241C71AA0D DUP5 PUSH1 0x0 DUP4 DUP2 SLOAD DUP2 LT PUSH2 0x3986 JUMPI PUSH2 0x3985 PUSH2 0x8F22 JUMP JUMPDEST JUMPDEST SWAP1 PUSH1 0x0 MSTORE PUSH1 0x20 PUSH1 0x0 KECCAK256 SWAP1 PUSH1 0x4 MUL ADD PUSH1 0x1 ADD PUSH1 0x0 SWAP1 SLOAD SWAP1 PUSH2 0x100 EXP SWAP1 DIV PUSH16 0xFFFFFFFFFFFFFFFFFFFFFFFFFFFFFFFF AND PUSH1 0x0 DUP5 DUP2 SLOAD DUP2 LT PUSH2 0x39C8 JUMPI PUSH2 0x39C7 PUSH2 0x8F22 JUMP JUMPDEST JUMPDEST SWAP1 PUSH1 0x0 MSTORE PUSH1 0x20 PUSH1 0x0 KECCAK256 SWAP1 PUSH1 0x4 MUL ADD PUSH1 0x1 ADD PUSH1 0x10 SWAP1 SLOAD SWAP1 PUSH2 0x100 EXP SWAP1 DIV PUSH16 0xFFFFFFFFFFFFFFFFFFFFFFFFFFFFFFFF AND PUSH1 0x0 DUP6 DUP2 SLOAD DUP2 LT PUSH2 0x3A0A JUMPI PUSH2 0x3A09 PUSH2 0x8F22 JUMP JUMPDEST JUMPDEST SWAP1 PUSH1 0x0 MSTORE PUSH1 0x20 PUSH1 0x0 KECCAK256 SWAP1 PUSH1 0x4 MUL ADD PUSH1 0x3 ADD SLOAD PUSH1 0x40 MLOAD PUSH2 0x3A2C SWAP5 SWAP4 SWAP3 SWAP2 SWAP1 PUSH2 0x976D JUMP JUMPDEST PUSH1 0x40 MLOAD DUP1 SWAP2 SUB SWAP1 LOG1 POP POP POP POP JUMP JUMPDEST PUSH2 0x3A42 PUSH2 0x4514 JUMP JUMPDEST PUSH20 0xFFFFFFFFFFFFFFFFFFFFFFFFFFFFFFFFFFFFFFFF AND PUSH2 0x3A60 PUSH2 0x264D JUMP JUMPDEST PUSH20 0xFFFFFFFFFFFFFFFFFFFFFFFFFFFFFFFFFFFFFFFF AND EQ PUSH2 0x3AAD JUMPI PUSH1 0x40 MLOAD PUSH32 0xEBF9845900000000000000000000000000000000000000000000000000000000 DUP2 MSTORE PUSH1 0x4 ADD PUSH1 0x40 MLOAD DUP1 SWAP2 SUB SWAP1 REVERT JUMPDEST PUSH2 0x3ADA DUP5 DUP5 DUP5 PUSH32 0xFFFFFFFFFFFFFFFFFFFFFFFFFFFFFFFFFFFFFFFFFFFFFFFFFFFFFFFFFFFFFFFF DUP6 PUSH2 0x62CA JUMP JUMPDEST POP POP POP POP JUMP JUMPDEST PUSH1 0x0 PUSH1 0xE PUSH1 0x0 DUP5 PUSH20 0xFFFFFFFFFFFFFFFFFFFFFFFFFFFFFFFFFFFFFFFF AND PUSH20 0xFFFFFFFFFFFFFFFFFFFFFFFFFFFFFFFFFFFFFFFF AND DUP2 MSTORE PUSH1 0x20 ADD SWAP1 DUP2 MSTORE PUSH1 0x20 ADD PUSH1 0x0 KECCAK256 PUSH1 0x0 DUP4 PUSH20 0xFFFFFFFFFFFFFFFFFFFFFFFFFFFFFFFFFFFFFFFF AND PUSH20 0xFFFFFFFFFFFFFFFFFFFFFFFFFFFFFFFFFFFFFFFF AND DUP2 MSTORE PUSH1 0x20 ADD SWAP1 DUP2 MSTORE PUSH1 0x20 ADD PUSH1 0x0 KECCAK256 PUSH1 0x0 SWAP1 SLOAD SWAP1 PUSH2 0x100 EXP SWAP1 DIV PUSH1 0xFF AND SWAP1 POP SWAP3 SWAP2 POP POP JUMP JUMPDEST DUP4 PUSH1 0x3 PUSH1 0x0 PUSH2 0x100 EXP DUP2 SLOAD DUP2 PUSH20 0xFFFFFFFFFFFFFFFFFFFFFFFFFFFFFFFFFFFFFFFF MUL NOT AND SWAP1 DUP4 PUSH20 0xFFFFFFFFFFFFFFFFFFFFFFFFFFFFFFFFFFFFFFFF AND MUL OR SWAP1 SSTORE POP DUP3 PUSH1 0x4 PUSH1 0x0 PUSH2 0x100 EXP DUP2 SLOAD DUP2 PUSH20 0xFFFFFFFFFFFFFFFFFFFFFFFFFFFFFFFFFFFFFFFF MUL NOT AND SWAP1 DUP4 PUSH20 0xFFFFFFFFFFFFFFFFFFFFFFFFFFFFFFFFFFFFFFFF AND MUL OR SWAP1 SSTORE POP DUP2 PUSH1 0x5 PUSH1 0x0 PUSH2 0x100 EXP DUP2 SLOAD DUP2 PUSH20 0xFFFFFFFFFFFFFFFFFFFFFFFFFFFFFFFFFFFFFFFF MUL NOT AND SWAP1 DUP4 PUSH20 0xFFFFFFFFFFFFFFFFFFFFFFFFFFFFFFFFFFFFFFFF AND MUL OR SWAP1 SSTORE POP PUSH2 0x3C3F PUSH2 0x33EC JUMP JUMPDEST POP POP POP POP POP JUMP JUMPDEST PUSH2 0x3C4E PUSH2 0x4514 JUMP JUMPDEST PUSH20 0xFFFFFFFFFFFFFFFFFFFFFFFFFFFFFFFFFFFFFFFF AND DUP6 PUSH20 0xFFFFFFFFFFFFFFFFFFFFFFFFFFFFFFFFFFFFFFFF AND EQ ISZERO DUP1 ISZERO PUSH2 0x3C97 JUMPI POP PUSH2 0x3C95 DUP6 PUSH2 0x3C90 PUSH2 0x4514 JUMP JUMPDEST PUSH2 0x3AE0 JUMP JUMPDEST ISZERO JUMPDEST ISZERO PUSH2 0x3CCE JUMPI PUSH1 0x40 MLOAD PUSH32 0x6F34AAA800000000000000000000000000000000000000000000000000000000 DUP2 MSTORE PUSH1 0x4 ADD PUSH1 0x40 MLOAD DUP1 SWAP2 SUB SWAP1 REVERT JUMPDEST PUSH2 0x3CD9 ADDRESS DUP7 DUP7 PUSH2 0x6D77 JUMP JUMPDEST PUSH2 0x3CE6 DUP6 DUP6 DUP6 DUP6 DUP6 PUSH2 0x6F65 JUMP JUMPDEST POP POP POP POP POP JUMP JUMPDEST PUSH2 0x3CF5 PUSH2 0x4514 JUMP JUMPDEST PUSH20 0xFFFFFFFFFFFFFFFFFFFFFFFFFFFFFFFFFFFFFFFF AND PUSH2 0x3D13 PUSH2 0x264D JUMP JUMPDEST PUSH20 0xFFFFFFFFFFFFFFFFFFFFFFFFFFFFFFFFFFFFFFFF AND EQ PUSH2 0x3D60 JUMPI PUSH1 0x40 MLOAD PUSH32 0xEBF9845900000000000000000000000000000000000000000000000000000000 DUP2 MSTORE PUSH1 0x4 ADD PUSH1 0x40 MLOAD DUP1 SWAP2 SUB SWAP1 REVERT JUMPDEST PUSH1 0x0 PUSH20 0xFFFFFFFFFFFFFFFFFFFFFFFFFFFFFFFFFFFFFFFF AND DUP2 PUSH20 0xFFFFFFFFFFFFFFFFFFFFFFFFFFFFFFFFFFFFFFFF AND EQ ISZERO PUSH2 0x3DC7 JUMPI PUSH1 0x40 MLOAD PUSH32 0x5868B79D00000000000000000000000000000000000000000000000000000000 DUP2 MSTORE PUSH1 0x4 ADD PUSH1 0x40 MLOAD DUP1 SWAP2 SUB SWAP1 REVERT JUMPDEST PUSH2 0x3DD0 DUP2 PUSH2 0x5AD3 JUMP JUMPDEST POP JUMP JUMPDEST PUSH2 0x3DDB PUSH2 0x4514 JUMP JUMPDEST PUSH20 0xFFFFFFFFFFFFFFFFFFFFFFFFFFFFFFFFFFFFFFFF AND DUP4 PUSH20 0xFFFFFFFFFFFFFFFFFFFFFFFFFFFFFFFFFFFFFFFF AND EQ ISZERO DUP1 ISZERO PUSH2 0x3E24 JUMPI POP PUSH2 0x3E22 DUP4 PUSH2 0x3E1D PUSH2 0x4514 JUMP JUMPDEST PUSH2 0x3AE0 JUMP JUMPDEST ISZERO JUMPDEST ISZERO PUSH2 0x3E5B JUMPI PUSH1 0x40 MLOAD PUSH32 0x6F34AAA800000000000000000000000000000000000000000000000000000000 DUP2 MSTORE PUSH1 0x4 ADD PUSH1 0x40 MLOAD DUP1 SWAP2 SUB SWAP1 REVERT JUMPDEST PUSH2 0x3E66 DUP4 DUP4 DUP4 PUSH2 0x71D8 JUMP JUMPDEST POP POP POP JUMP JUMPDEST PUSH1 0x0 DUP1 DUP4 DUP1 TIMESTAMP GT ISZERO PUSH2 0x3EB2 JUMPI PUSH1 0x40 MLOAD PUSH32 0x8C379A000000000000000000000000000000000000000000000000000000000 DUP2 MSTORE PUSH1 0x4 ADD PUSH2 0x3EA9 SWAP1 PUSH2 0x9530 JUMP JUMPDEST PUSH1 0x40 MLOAD DUP1 SWAP2 SUB SWAP1 REVERT JUMPDEST PUSH1 0x0 CALLER SWAP1 POP PUSH1 0x0 PUSH1 0x4 PUSH1 0x0 SWAP1 SLOAD SWAP1 PUSH2 0x100 EXP SWAP1 DIV PUSH20 0xFFFFFFFFFFFFFFFFFFFFFFFFFFFFFFFFFFFFFFFF AND PUSH20 0xFFFFFFFFFFFFFFFFFFFFFFFFFFFFFFFFFFFFFFFF AND DUP12 PUSH20 0xFFFFFFFFFFFFFFFFFFFFFFFFFFFFFFFFFFFFFFFF AND EQ ISZERO DUP1 ISZERO PUSH2 0x3F64 JUMPI POP PUSH1 0x4 PUSH1 0x0 SWAP1 SLOAD SWAP1 PUSH2 0x100 EXP SWAP1 DIV PUSH20 0xFFFFFFFFFFFFFFFFFFFFFFFFFFFFFFFFFFFFFFFF AND PUSH20 0xFFFFFFFFFFFFFFFFFFFFFFFFFFFFFFFFFFFFFFFF AND DUP11 PUSH20 0xFFFFFFFFFFFFFFFFFFFFFFFFFFFFFFFFFFFFFFFF AND EQ JUMPDEST ISZERO PUSH2 0x4018 JUMPI PUSH2 0x3F73 DUP12 DUP11 PUSH2 0x69B1 JUMP JUMPDEST SWAP1 POP DUP8 DUP2 GT ISZERO PUSH2 0x3FB8 JUMPI PUSH1 0x40 MLOAD PUSH32 0x8C379A000000000000000000000000000000000000000000000000000000000 DUP2 MSTORE PUSH1 0x4 ADD PUSH2 0x3FAF SWAP1 PUSH2 0x9A4C JUMP JUMPDEST PUSH1 0x40 MLOAD DUP1 SWAP2 SUB SWAP1 REVERT JUMPDEST PUSH1 0x1 DUP2 GT PUSH2 0x3FFB JUMPI PUSH1 0x40 MLOAD PUSH32 0x8C379A000000000000000000000000000000000000000000000000000000000 DUP2 MSTORE PUSH1 0x4 ADD PUSH2 0x3FF2 SWAP1 PUSH2 0x959C JUMP JUMPDEST PUSH1 0x40 MLOAD DUP1 SWAP2 SUB SWAP1 REVERT JUMPDEST PUSH2 0x4006 DUP12 DUP4 DUP4 PUSH2 0x451C JUMP JUMPDEST PUSH2 0x4013 DUP12 PUSH1 0x0 DUP12 DUP10 PUSH2 0x4FB7 JUMP JUMPDEST PUSH2 0x4373 JUMP JUMPDEST PUSH1 0x4 PUSH1 0x0 SWAP1 SLOAD SWAP1 PUSH2 0x100 EXP SWAP1 DIV PUSH20 0xFFFFFFFFFFFFFFFFFFFFFFFFFFFFFFFFFFFFFFFF AND PUSH20 0xFFFFFFFFFFFFFFFFFFFFFFFFFFFFFFFFFFFFFFFF AND DUP12 PUSH20 0xFFFFFFFFFFFFFFFFFFFFFFFFFFFFFFFFFFFFFFFF AND EQ DUP1 ISZERO PUSH2 0x40C3 JUMPI POP PUSH1 0x4 PUSH1 0x0 SWAP1 SLOAD SWAP1 PUSH2 0x100 EXP SWAP1 DIV PUSH20 0xFFFFFFFFFFFFFFFFFFFFFFFFFFFFFFFFFFFFFFFF AND PUSH20 0xFFFFFFFFFFFFFFFFFFFFFFFFFFFFFFFFFFFFFFFF AND DUP11 PUSH20 0xFFFFFFFFFFFFFFFFFFFFFFFFFFFFFFFFFFFFFFFF AND EQ ISZERO JUMPDEST ISZERO PUSH2 0x4177 JUMPI PUSH2 0x40D2 DUP11 DUP11 PUSH2 0x6B97 JUMP JUMPDEST SWAP1 POP DUP8 DUP2 GT ISZERO PUSH2 0x4117 JUMPI PUSH1 0x40 MLOAD PUSH32 0x8C379A000000000000000000000000000000000000000000000000000000000 DUP2 MSTORE PUSH1 0x4 ADD PUSH2 0x410E SWAP1 PUSH2 0x9AB8 JUMP JUMPDEST PUSH1 0x40 MLOAD DUP1 SWAP2 SUB SWAP1 REVERT JUMPDEST PUSH1 0x1 DUP2 GT PUSH2 0x415A JUMPI PUSH1 0x40 MLOAD PUSH32 0x8C379A000000000000000000000000000000000000000000000000000000000 DUP2 MSTORE PUSH1 0x4 ADD PUSH2 0x4151 SWAP1 PUSH2 0x9B24 JUMP JUMPDEST PUSH1 0x40 MLOAD DUP1 SWAP2 SUB SWAP1 REVERT JUMPDEST PUSH2 0x4165 DUP12 DUP4 DUP4 PUSH2 0x451C JUMP JUMPDEST PUSH2 0x4172 DUP11 DUP11 PUSH1 0x0 DUP10 PUSH2 0x4FB7 JUMP JUMPDEST PUSH2 0x4372 JUMP JUMPDEST PUSH1 0x4 PUSH1 0x0 SWAP1 SLOAD SWAP1 PUSH2 0x100 EXP SWAP1 DIV PUSH20 0xFFFFFFFFFFFFFFFFFFFFFFFFFFFFFFFFFFFFFFFF AND PUSH20 0xFFFFFFFFFFFFFFFFFFFFFFFFFFFFFFFFFFFFFFFF AND DUP12 PUSH20 0xFFFFFFFFFFFFFFFFFFFFFFFFFFFFFFFFFFFFFFFF AND EQ ISZERO DUP1 ISZERO PUSH2 0x4223 JUMPI POP PUSH1 0x4 PUSH1 0x0 SWAP1 SLOAD SWAP1 PUSH2 0x100 EXP SWAP1 DIV PUSH20 0xFFFFFFFFFFFFFFFFFFFFFFFFFFFFFFFFFFFFFFFF AND PUSH20 0xFFFFFFFFFFFFFFFFFFFFFFFFFFFFFFFFFFFFFFFF AND DUP11 PUSH20 0xFFFFFFFFFFFFFFFFFFFFFFFFFFFFFFFFFFFFFFFF AND EQ ISZERO JUMPDEST ISZERO PUSH2 0x4336 JUMPI PUSH1 0x0 PUSH2 0x4234 DUP12 DUP12 PUSH2 0x6B97 JUMP JUMPDEST SWAP1 POP PUSH1 0x1 DUP2 GT PUSH2 0x4279 JUMPI PUSH1 0x40 MLOAD PUSH32 0x8C379A000000000000000000000000000000000000000000000000000000000 DUP2 MSTORE PUSH1 0x4 ADD PUSH2 0x4270 SWAP1 PUSH2 0x9B24 JUMP JUMPDEST PUSH1 0x40 MLOAD DUP1 SWAP2 SUB SWAP1 REVERT JUMPDEST PUSH2 0x4283 DUP13 DUP3 PUSH2 0x69B1 JUMP JUMPDEST SWAP2 POP DUP9 DUP3 GT ISZERO PUSH2 0x42C8 JUMPI PUSH1 0x40 MLOAD PUSH32 0x8C379A000000000000000000000000000000000000000000000000000000000 DUP2 MSTORE PUSH1 0x4 ADD PUSH2 0x42BF SWAP1 PUSH2 0x9A4C JUMP JUMPDEST PUSH1 0x40 MLOAD DUP1 SWAP2 SUB SWAP1 REVERT JUMPDEST PUSH1 0x1 DUP3 GT PUSH2 0x430B JUMPI PUSH1 0x40 MLOAD PUSH32 0x8C379A000000000000000000000000000000000000000000000000000000000 DUP2 MSTORE PUSH1 0x4 ADD PUSH2 0x4302 SWAP1 PUSH2 0x959C JUMP JUMPDEST PUSH1 0x40 MLOAD DUP1 SWAP2 SUB SWAP1 REVERT JUMPDEST PUSH2 0x4316 DUP13 DUP5 DUP5 PUSH2 0x451C JUMP JUMPDEST PUSH2 0x4323 DUP13 PUSH1 0x0 DUP4 ADDRESS PUSH2 0x4FB7 JUMP JUMPDEST PUSH2 0x4330 DUP12 DUP12 PUSH1 0x0 DUP11 PUSH2 0x4FB7 JUMP JUMPDEST POP PUSH2 0x4371 JUMP JUMPDEST PUSH1 0x40 MLOAD PUSH32 0x8C379A000000000000000000000000000000000000000000000000000000000 DUP2 MSTORE PUSH1 0x4 ADD PUSH2 0x4368 SWAP1 PUSH2 0x9941 JUMP JUMPDEST PUSH1 0x40 MLOAD DUP1 SWAP2 SUB SWAP1 REVERT JUMPDEST JUMPDEST JUMPDEST DUP1 DUP10 SWAP5 POP SWAP5 POP POP POP POP SWAP7 POP SWAP7 SWAP5 POP POP POP POP POP JUMP JUMPDEST PUSH1 0x0 PUSH1 0x6 PUSH1 0x0 SWAP1 SLOAD SWAP1 PUSH2 0x100 EXP SWAP1 DIV PUSH20 0xFFFFFFFFFFFFFFFFFFFFFFFFFFFFFFFFFFFFFFFF AND PUSH20 0xFFFFFFFFFFFFFFFFFFFFFFFFFFFFFFFFFFFFFFFF AND DUP3 PUSH20 0xFFFFFFFFFFFFFFFFFFFFFFFFFFFFFFFFFFFFFFFF AND EQ ISZERO PUSH2 0x43E7 JUMPI SELFBALANCE SWAP1 POP PUSH2 0x4464 JUMP JUMPDEST DUP2 PUSH20 0xFFFFFFFFFFFFFFFFFFFFFFFFFFFFFFFFFFFFFFFF AND PUSH4 0x70A08231 ADDRESS PUSH1 0x40 MLOAD DUP3 PUSH4 0xFFFFFFFF AND PUSH1 0xE0 SHL DUP2 MSTORE PUSH1 0x4 ADD PUSH2 0x4420 SWAP2 SWAP1 PUSH2 0x7FB0 JUMP JUMPDEST PUSH1 0x20 PUSH1 0x40 MLOAD DUP1 DUP4 SUB DUP2 DUP7 GAS STATICCALL ISZERO DUP1 ISZERO PUSH2 0x443D JUMPI RETURNDATASIZE PUSH1 0x0 DUP1 RETURNDATACOPY RETURNDATASIZE PUSH1 0x0 REVERT JUMPDEST POP POP POP POP PUSH1 0x40 MLOAD RETURNDATASIZE PUSH1 0x1F NOT PUSH1 0x1F DUP3 ADD AND DUP3 ADD DUP1 PUSH1 0x40 MSTORE POP DUP2 ADD SWAP1 PUSH2 0x4461 SWAP2 SWAP1 PUSH2 0x9B59 JUMP JUMPDEST SWAP1 POP JUMPDEST SWAP2 SWAP1 POP JUMP JUMPDEST ADDRESS PUSH20 0xFFFFFFFFFFFFFFFFFFFFFFFFFFFFFFFFFFFFFFFF AND DUP4 PUSH20 0xFFFFFFFFFFFFFFFFFFFFFFFFFFFFFFFFFFFFFFFF AND EQ PUSH2 0x450E JUMPI PUSH1 0x6 PUSH1 0x0 SWAP1 SLOAD SWAP1 PUSH2 0x100 EXP SWAP1 DIV PUSH20 0xFFFFFFFFFFFFFFFFFFFFFFFFFFFFFFFFFFFFFFFF AND PUSH20 0xFFFFFFFFFFFFFFFFFFFFFFFFFFFFFFFFFFFFFFFF AND DUP5 PUSH20 0xFFFFFFFFFFFFFFFFFFFFFFFFFFFFFFFFFFFFFFFF AND EQ ISZERO PUSH2 0x4501 JUMPI PUSH2 0x44FC DUP4 DUP4 PUSH2 0x73E5 JUMP JUMPDEST PUSH2 0x450D JUMP JUMPDEST PUSH2 0x450C DUP5 DUP5 DUP5 PUSH2 0x74DC JUMP JUMPDEST JUMPDEST JUMPDEST POP POP POP POP JUMP JUMPDEST PUSH1 0x0 CALLER SWAP1 POP SWAP1 JUMP JUMPDEST PUSH1 0x6 PUSH1 0x0 SWAP1 SLOAD SWAP1 PUSH2 0x100 EXP SWAP1 DIV PUSH20 0xFFFFFFFFFFFFFFFFFFFFFFFFFFFFFFFFFFFFFFFF AND PUSH20 0xFFFFFFFFFFFFFFFFFFFFFFFFFFFFFFFFFFFFFFFF AND DUP4 PUSH20 0xFFFFFFFFFFFFFFFFFFFFFFFFFFFFFFFFFFFFFFFF AND EQ PUSH2 0x45FA JUMPI PUSH1 0x0 CALLVALUE GT ISZERO PUSH2 0x45B5 JUMPI PUSH1 0x40 MLOAD PUSH32 0x8C379A000000000000000000000000000000000000000000000000000000000 DUP2 MSTORE PUSH1 0x4 ADD PUSH2 0x45AC SWAP1 PUSH2 0x9BD2 JUMP JUMPDEST PUSH1 0x40 MLOAD DUP1 SWAP2 SUB SWAP1 REVERT JUMPDEST ADDRESS PUSH20 0xFFFFFFFFFFFFFFFFFFFFFFFFFFFFFFFFFFFFFFFF AND DUP3 PUSH20 0xFFFFFFFFFFFFFFFFFFFFFFFFFFFFFFFFFFFFFFFF AND EQ PUSH2 0x45F5 JUMPI PUSH2 0x45F4 DUP4 DUP4 ADDRESS DUP5 PUSH2 0x7609 JUMP JUMPDEST JUMPDEST PUSH2 0x46CF JUMP JUMPDEST PUSH1 0x6 PUSH1 0x0 SWAP1 SLOAD SWAP1 PUSH2 0x100 EXP SWAP1 DIV PUSH20 0xFFFFFFFFFFFFFFFFFFFFFFFFFFFFFFFFFFFFFFFF AND PUSH20 0xFFFFFFFFFFFFFFFFFFFFFFFFFFFFFFFFFFFFFFFF AND DUP4 PUSH20 0xFFFFFFFFFFFFFFFFFFFFFFFFFFFFFFFFFFFFFFFF AND EQ ISZERO PUSH2 0x46CE JUMPI DUP1 CALLVALUE LT ISZERO PUSH2 0x468A JUMPI PUSH1 0x40 MLOAD PUSH32 0xAC50B70D00000000000000000000000000000000000000000000000000000000 DUP2 MSTORE PUSH1 0x4 ADD PUSH1 0x40 MLOAD DUP1 SWAP2 SUB SWAP1 REVERT JUMPDEST DUP1 CALLVALUE GT ISZERO PUSH2 0x46CD JUMPI PUSH2 0x46CC PUSH1 0x6 PUSH1 0x0 SWAP1 SLOAD SWAP1 PUSH2 0x100 EXP SWAP1 DIV PUSH20 0xFFFFFFFFFFFFFFFFFFFFFFFFFFFFFFFFFFFFFFFF AND CALLER DUP4 CALLVALUE PUSH2 0x46C5 SWAP2 SWAP1 PUSH2 0x8F80 JUMP JUMPDEST PUSH1 0x0 PUSH2 0x4469 JUMP JUMPDEST JUMPDEST JUMPDEST JUMPDEST POP POP POP JUMP JUMPDEST PUSH1 0x0 PUSH1 0x3 DUP3 GT ISZERO PUSH2 0x473B JUMPI DUP2 SWAP1 POP PUSH1 0x0 PUSH1 0x1 PUSH1 0x2 DUP5 PUSH2 0x46F3 SWAP2 SWAP1 PUSH2 0x95EB JUMP JUMPDEST PUSH2 0x46FD SWAP2 SWAP1 PUSH2 0x948E JUMP JUMPDEST SWAP1 POP JUMPDEST DUP2 DUP2 LT ISZERO PUSH2 0x4735 JUMPI DUP1 SWAP2 POP PUSH1 0x2 DUP2 DUP3 DUP6 PUSH2 0x471A SWAP2 SWAP1 PUSH2 0x95EB JUMP JUMPDEST PUSH2 0x4724 SWAP2 SWAP1 PUSH2 0x948E JUMP JUMPDEST PUSH2 0x472E SWAP2 SWAP1 PUSH2 0x95EB JUMP JUMPDEST SWAP1 POP PUSH2 0x4700 JUMP JUMPDEST POP PUSH2 0x4749 JUMP JUMPDEST PUSH1 0x0 DUP3 EQ PUSH2 0x4748 JUMPI PUSH1 0x1 SWAP1 POP JUMPDEST JUMPDEST SWAP2 SWAP1 POP JUMP JUMPDEST PUSH1 0x0 DUP1 PUSH1 0x0 PUSH1 0x7 PUSH1 0x1 ADD SLOAD SWAP1 POP DUP6 DUP6 GT DUP1 ISZERO PUSH2 0x476A JUMPI POP PUSH1 0x0 DUP7 GT JUMPDEST DUP1 ISZERO PUSH2 0x4776 JUMPI POP PUSH1 0x0 DUP2 GT JUMPDEST ISZERO PUSH2 0x47D8 JUMPI DUP1 DUP7 PUSH2 0x4787 SWAP2 SWAP1 PUSH2 0x9057 JUMP JUMPDEST DUP2 PUSH1 0x64 PUSH2 0x4794 SWAP2 SWAP1 PUSH2 0x8F80 JUMP JUMPDEST DUP7 PUSH2 0x479F SWAP2 SWAP1 PUSH2 0x9057 JUMP JUMPDEST PUSH2 0x47A9 SWAP2 SWAP1 PUSH2 0x948E JUMP JUMPDEST DUP7 DUP7 PUSH2 0x47B5 SWAP2 SWAP1 PUSH2 0x8F80 JUMP JUMPDEST DUP3 DUP7 PUSH2 0x47C1 SWAP2 SWAP1 PUSH2 0x9057 JUMP JUMPDEST PUSH2 0x47CB SWAP2 SWAP1 PUSH2 0x9057 JUMP JUMPDEST PUSH2 0x47D5 SWAP2 SWAP1 PUSH2 0x95EB JUMP JUMPDEST SWAP2 POP JUMPDEST DUP2 SWAP3 POP POP POP SWAP4 SWAP3 POP POP POP JUMP JUMPDEST PUSH1 0x0 PUSH20 0xFFFFFFFFFFFFFFFFFFFFFFFFFFFFFFFFFFFFFFFF AND DUP5 PUSH20 0xFFFFFFFFFFFFFFFFFFFFFFFFFFFFFFFFFFFFFFFF AND EQ ISZERO PUSH2 0x484B JUMPI PUSH1 0x40 MLOAD PUSH32 0xF84619AC00000000000000000000000000000000000000000000000000000000 DUP2 MSTORE PUSH1 0x4 ADD PUSH1 0x40 MLOAD DUP1 SWAP2 SUB SWAP1 REVERT JUMPDEST PUSH1 0x0 PUSH2 0x4855 PUSH2 0x4514 JUMP JUMPDEST SWAP1 POP PUSH2 0x4876 DUP2 PUSH1 0x0 DUP8 PUSH2 0x4867 DUP9 PUSH2 0x7739 JUMP JUMPDEST PUSH2 0x4870 DUP9 PUSH2 0x7739 JUMP JUMPDEST DUP8 PUSH2 0x77B3 JUMP JUMPDEST DUP3 PUSH1 0xD PUSH1 0x0 DUP7 DUP2 MSTORE PUSH1 0x20 ADD SWAP1 DUP2 MSTORE PUSH1 0x20 ADD PUSH1 0x0 KECCAK256 PUSH1 0x0 DUP8 PUSH20 0xFFFFFFFFFFFFFFFFFFFFFFFFFFFFFFFFFFFFFFFF AND PUSH20 0xFFFFFFFFFFFFFFFFFFFFFFFFFFFFFFFFFFFFFFFF AND DUP2 MSTORE PUSH1 0x20 ADD SWAP1 DUP2 MSTORE PUSH1 0x20 ADD PUSH1 0x0 KECCAK256 PUSH1 0x0 DUP3 DUP3 SLOAD PUSH2 0x48D6 SWAP2 SWAP1 PUSH2 0x948E JUMP JUMPDEST SWAP3 POP POP DUP2 SWAP1 SSTORE POP DUP5 PUSH20 0xFFFFFFFFFFFFFFFFFFFFFFFFFFFFFFFFFFFFFFFF AND PUSH1 0x0 PUSH20 0xFFFFFFFFFFFFFFFFFFFFFFFFFFFFFFFFFFFFFFFF AND DUP3 PUSH20 0xFFFFFFFFFFFFFFFFFFFFFFFFFFFFFFFFFFFFFFFF AND PUSH32 0xC3D58168C5AE7397731D063D5BBF3D657854427343F4C083240F7AACAA2D0F62 DUP8 DUP8 PUSH1 0x40 MLOAD PUSH2 0x4954 SWAP3 SWAP2 SWAP1 PUSH2 0x8BFC JUMP JUMPDEST PUSH1 0x40 MLOAD DUP1 SWAP2 SUB SWAP1 LOG4 PUSH2 0x496B DUP2 PUSH1 0x0 DUP8 DUP8 DUP8 DUP8 PUSH2 0x792D JUMP JUMPDEST POP POP POP POP POP JUMP JUMPDEST PUSH1 0x0 DUP3 PUSH1 0x0 PUSH1 0x1 PUSH1 0x0 DUP4 PUSH20 0xFFFFFFFFFFFFFFFFFFFFFFFFFFFFFFFFFFFFFFFF AND PUSH20 0xFFFFFFFFFFFFFFFFFFFFFFFFFFFFFFFFFFFFFFFF AND DUP2 MSTORE PUSH1 0x20 ADD SWAP1 DUP2 MSTORE PUSH1 0x20 ADD PUSH1 0x0 KECCAK256 SLOAD EQ DUP1 PUSH2 0x4A10 JUMPI POP PUSH1 0x4 PUSH1 0x0 SWAP1 SLOAD SWAP1 PUSH2 0x100 EXP SWAP1 DIV PUSH20 0xFFFFFFFFFFFFFFFFFFFFFFFFFFFFFFFFFFFFFFFF AND PUSH20 0xFFFFFFFFFFFFFFFFFFFFFFFFFFFFFFFFFFFFFFFF AND DUP2 PUSH20 0xFFFFFFFFFFFFFFFFFFFFFFFFFFFFFFFFFFFFFFFF AND EQ JUMPDEST ISZERO PUSH2 0x4A50 JUMPI PUSH1 0x40 MLOAD PUSH32 0x8C379A000000000000000000000000000000000000000000000000000000000 DUP2 MSTORE PUSH1 0x4 ADD PUSH2 0x4A47 SWAP1 PUSH2 0x8F02 JUMP JUMPDEST PUSH1 0x40 MLOAD DUP1 SWAP2 SUB SWAP1 REVERT JUMPDEST PUSH1 0x0 PUSH1 0x1 PUSH1 0x0 DUP7 PUSH20 0xFFFFFFFFFFFFFFFFFFFFFFFFFFFFFFFFFFFFFFFF AND PUSH20 0xFFFFFFFFFFFFFFFFFFFFFFFFFFFFFFFFFFFFFFFF AND DUP2 MSTORE PUSH1 0x20 ADD SWAP1 DUP2 MSTORE PUSH1 0x20 ADD PUSH1 0x0 KECCAK256 SLOAD SWAP1 POP PUSH2 0x4B4E DUP5 PUSH1 0x0 DUP4 DUP2 SLOAD DUP2 LT PUSH2 0x4AAC JUMPI PUSH2 0x4AAB PUSH2 0x8F22 JUMP JUMPDEST JUMPDEST SWAP1 PUSH1 0x0 MSTORE PUSH1 0x20 PUSH1 0x0 KECCAK256 SWAP1 PUSH1 0x4 MUL ADD PUSH1 0x1 ADD PUSH1 0x0 SWAP1 SLOAD SWAP1 PUSH2 0x100 EXP SWAP1 DIV PUSH16 0xFFFFFFFFFFFFFFFFFFFFFFFFFFFFFFFF AND PUSH16 0xFFFFFFFFFFFFFFFFFFFFFFFFFFFFFFFF AND PUSH1 0x0 DUP5 DUP2 SLOAD DUP2 LT PUSH2 0x4B00 JUMPI PUSH2 0x4AFF PUSH2 0x8F22 JUMP JUMPDEST JUMPDEST SWAP1 PUSH1 0x0 MSTORE PUSH1 0x20 PUSH1 0x0 KECCAK256 SWAP1 PUSH1 0x4 MUL ADD PUSH1 0x1 ADD PUSH1 0x10 SWAP1 SLOAD SWAP1 PUSH2 0x100 EXP SWAP1 DIV PUSH16 0xFFFFFFFFFFFFFFFFFFFFFFFFFFFFFFFF AND PUSH16 0xFFFFFFFFFFFFFFFFFFFFFFFFFFFFFFFF AND PUSH2 0x4B49 DUP6 PUSH2 0x4D38 JUMP JUMPDEST PUSH2 0x7A76 JUMP JUMPDEST SWAP3 POP POP POP SWAP3 SWAP2 POP POP JUMP JUMPDEST PUSH1 0x0 DUP3 PUSH1 0x0 PUSH1 0x1 PUSH1 0x0 DUP4 PUSH20 0xFFFFFFFFFFFFFFFFFFFFFFFFFFFFFFFFFFFFFFFF AND PUSH20 0xFFFFFFFFFFFFFFFFFFFFFFFFFFFFFFFFFFFFFFFF AND DUP2 MSTORE PUSH1 0x20 ADD SWAP1 DUP2 MSTORE PUSH1 0x20 ADD PUSH1 0x0 KECCAK256 SLOAD EQ DUP1 PUSH2 0x4BF6 JUMPI POP PUSH1 0x4 PUSH1 0x0 SWAP1 SLOAD SWAP1 PUSH2 0x100 EXP SWAP1 DIV PUSH20 0xFFFFFFFFFFFFFFFFFFFFFFFFFFFFFFFFFFFFFFFF AND PUSH20 0xFFFFFFFFFFFFFFFFFFFFFFFFFFFFFFFFFFFFFFFF AND DUP2 PUSH20 0xFFFFFFFFFFFFFFFFFFFFFFFFFFFFFFFFFFFFFFFF AND EQ JUMPDEST ISZERO PUSH2 0x4C36 JUMPI PUSH1 0x40 MLOAD PUSH32 0x8C379A000000000000000000000000000000000000000000000000000000000 DUP2 MSTORE PUSH1 0x4 ADD PUSH2 0x4C2D SWAP1 PUSH2 0x8F02 JUMP JUMPDEST PUSH1 0x40 MLOAD DUP1 SWAP2 SUB SWAP1 REVERT JUMPDEST PUSH1 0x0 PUSH1 0x1 PUSH1 0x0 DUP7 PUSH20 0xFFFFFFFFFFFFFFFFFFFFFFFFFFFFFFFFFFFFFFFF AND PUSH20 0xFFFFFFFFFFFFFFFFFFFFFFFFFFFFFFFFFFFFFFFF AND DUP2 MSTORE PUSH1 0x20 ADD SWAP1 DUP2 MSTORE PUSH1 0x20 ADD PUSH1 0x0 KECCAK256 SLOAD SWAP1 POP PUSH2 0x4D2E DUP5 PUSH1 0x0 DUP4 DUP2 SLOAD DUP2 LT PUSH2 0x4C92 JUMPI PUSH2 0x4C91 PUSH2 0x8F22 JUMP JUMPDEST JUMPDEST SWAP1 PUSH1 0x0 MSTORE PUSH1 0x20 PUSH1 0x0 KECCAK256 SWAP1 PUSH1 0x4 MUL ADD PUSH1 0x1 ADD PUSH1 0x10 SWAP1 SLOAD SWAP1 PUSH2 0x100 EXP SWAP1 DIV PUSH16 0xFFFFFFFFFFFFFFFFFFFFFFFFFFFFFFFF AND PUSH16 0xFFFFFFFFFFFFFFFFFFFFFFFFFFFFFFFF AND PUSH1 0x0 DUP5 DUP2 SLOAD DUP2 LT PUSH2 0x4CE6 JUMPI PUSH2 0x4CE5 PUSH2 0x8F22 JUMP JUMPDEST JUMPDEST SWAP1 PUSH1 0x0 MSTORE PUSH1 0x20 PUSH1 0x0 KECCAK256 SWAP1 PUSH1 0x4 MUL ADD PUSH1 0x1 ADD PUSH1 0x0 SWAP1 SLOAD SWAP1 PUSH2 0x100 EXP SWAP1 DIV PUSH16 0xFFFFFFFFFFFFFFFFFFFFFFFFFFFFFFFF AND PUSH16 0xFFFFFFFFFFFFFFFFFFFFFFFFFFFFFFFF AND PUSH2 0x2710 PUSH2 0x7A76 JUMP JUMPDEST SWAP3 POP POP POP SWAP3 SWAP2 POP POP JUMP JUMPDEST PUSH1 0x0 DUP1 PUSH2 0x4D43 PUSH2 0x7AC7 JUMP JUMPDEST SWAP1 POP PUSH1 0x0 PUSH1 0x8 PUSH1 0x1 DUP4 PUSH2 0x4D56 SWAP2 SWAP1 PUSH2 0x948E JUMP JUMPDEST PUSH2 0x4D60 SWAP2 SWAP1 PUSH2 0x9BF2 JUMP JUMPDEST SWAP1 POP PUSH1 0x0 DUP1 JUMPDEST PUSH1 0x8 DUP2 LT ISZERO PUSH2 0x4E00 JUMPI DUP4 DUP2 EQ DUP1 PUSH2 0x4D7C JUMPI POP DUP3 DUP2 EQ JUMPDEST ISZERO PUSH2 0x4D86 JUMPI PUSH2 0x4DED JUMP JUMPDEST PUSH1 0x0 DUP7 DUP2 SLOAD DUP2 LT PUSH2 0x4D9A JUMPI PUSH2 0x4D99 PUSH2 0x8F22 JUMP JUMPDEST JUMPDEST SWAP1 PUSH1 0x0 MSTORE PUSH1 0x20 PUSH1 0x0 KECCAK256 SWAP1 PUSH1 0x4 MUL ADD PUSH1 0x0 ADD DUP2 PUSH1 0x8 DUP2 LT PUSH2 0x4DBD JUMPI PUSH2 0x4DBC PUSH2 0x8F22 JUMP JUMPDEST JUMPDEST PUSH1 0x8 SWAP2 DUP3 DUP3 DIV ADD SWAP2 SWAP1 MOD PUSH1 0x4 MUL SWAP1 SLOAD SWAP1 PUSH2 0x100 EXP SWAP1 DIV PUSH4 0xFFFFFFFF AND PUSH4 0xFFFFFFFF AND DUP3 PUSH2 0x4DEA SWAP2 SWAP1 PUSH2 0x948E JUMP JUMPDEST SWAP2 POP JUMPDEST DUP1 DUP1 PUSH2 0x4DF8 SWAP1 PUSH2 0x9445 JUMP JUMPDEST SWAP2 POP POP PUSH2 0x4D66 JUMP JUMPDEST POP PUSH8 0x8AC7230489E80000 DUP2 PUSH2 0x4E15 SWAP2 SWAP1 PUSH2 0x9057 JUMP JUMPDEST SWAP1 POP PUSH1 0x0 PUSH5 0x2540BE400 PUSH1 0x7 PUSH1 0x4 ADD SLOAD PUSH1 0x0 DUP9 DUP2 SLOAD DUP2 LT PUSH2 0x4E39 JUMPI PUSH2 0x4E38 PUSH2 0x8F22 JUMP JUMPDEST JUMPDEST SWAP1 PUSH1 0x0 MSTORE PUSH1 0x20 PUSH1 0x0 KECCAK256 SWAP1 PUSH1 0x4 MUL ADD PUSH1 0x1 ADD PUSH1 0x10 SWAP1 SLOAD SWAP1 PUSH2 0x100 EXP SWAP1 DIV PUSH16 0xFFFFFFFFFFFFFFFFFFFFFFFFFFFFFFFF AND PUSH16 0xFFFFFFFFFFFFFFFFFFFFFFFFFFFFFFFF AND PUSH2 0x4E83 SWAP2 SWAP1 PUSH2 0x9057 JUMP JUMPDEST PUSH2 0x4E8D SWAP2 SWAP1 PUSH2 0x95EB JUMP JUMPDEST SWAP1 POP PUSH1 0x0 PUSH5 0x2540BE400 PUSH1 0x7 PUSH1 0x5 ADD SLOAD PUSH1 0x0 DUP10 DUP2 SLOAD DUP2 LT PUSH2 0x4EB1 JUMPI PUSH2 0x4EB0 PUSH2 0x8F22 JUMP JUMPDEST JUMPDEST SWAP1 PUSH1 0x0 MSTORE PUSH1 0x20 PUSH1 0x0 KECCAK256 SWAP1 PUSH1 0x4 MUL ADD PUSH1 0x1 ADD PUSH1 0x10 SWAP1 SLOAD SWAP1 PUSH2 0x100 EXP SWAP1 DIV PUSH16 0xFFFFFFFFFFFFFFFFFFFFFFFFFFFFFFFF AND PUSH16 0xFFFFFFFFFFFFFFFFFFFFFFFFFFFFFFFF AND PUSH2 0x4EFB SWAP2 SWAP1 PUSH2 0x9057 JUMP JUMPDEST PUSH2 0x4F05 SWAP2 SWAP1 PUSH2 0x95EB JUMP JUMPDEST SWAP1 POP PUSH1 0x0 DUP3 DUP5 GT PUSH2 0x4F1D JUMPI PUSH1 0x7 PUSH1 0x3 ADD SLOAD SWAP1 POP PUSH2 0x4F9C JUMP JUMPDEST DUP4 DUP4 LT DUP1 ISZERO PUSH2 0x4F2B JUMPI POP DUP2 DUP5 LT JUMPDEST ISZERO PUSH2 0x4F89 JUMPI DUP3 DUP3 PUSH2 0x4F3C SWAP2 SWAP1 PUSH2 0x8F80 JUMP JUMPDEST PUSH1 0x7 PUSH1 0x2 ADD SLOAD PUSH1 0x7 PUSH1 0x3 ADD SLOAD PUSH2 0x4F52 SWAP2 SWAP1 PUSH2 0x8F80 JUMP JUMPDEST DUP5 DUP7 PUSH2 0x4F5E SWAP2 SWAP1 PUSH2 0x8F80 JUMP JUMPDEST PUSH2 0x4F68 SWAP2 SWAP1 PUSH2 0x9057 JUMP JUMPDEST PUSH2 0x4F72 SWAP2 SWAP1 PUSH2 0x95EB JUMP JUMPDEST PUSH1 0x7 PUSH1 0x3 ADD SLOAD PUSH2 0x4F82 SWAP2 SWAP1 PUSH2 0x8F80 JUMP JUMPDEST SWAP1 POP PUSH2 0x4F9B JUMP JUMPDEST DUP2 DUP5 GT ISZERO PUSH2 0x4F9A JUMPI PUSH1 0x7 PUSH1 0x2 ADD SLOAD SWAP1 POP JUMPDEST JUMPDEST JUMPDEST DUP1 PUSH2 0x2710 PUSH2 0x4FAA SWAP2 SWAP1 PUSH2 0x8F80 JUMP JUMPDEST SWAP7 POP POP POP POP POP POP POP SWAP2 SWAP1 POP JUMP JUMPDEST DUP4 PUSH1 0x0 PUSH1 0x1 PUSH1 0x0 DUP4 PUSH20 0xFFFFFFFFFFFFFFFFFFFFFFFFFFFFFFFFFFFFFFFF AND PUSH20 0xFFFFFFFFFFFFFFFFFFFFFFFFFFFFFFFFFFFFFFFF AND DUP2 MSTORE PUSH1 0x20 ADD SWAP1 DUP2 MSTORE PUSH1 0x20 ADD PUSH1 0x0 KECCAK256 SLOAD EQ DUP1 PUSH2 0x5053 JUMPI POP PUSH1 0x4 PUSH1 0x0 SWAP1 SLOAD SWAP1 PUSH2 0x100 EXP SWAP1 DIV PUSH20 0xFFFFFFFFFFFFFFFFFFFFFFFFFFFFFFFFFFFFFFFF AND PUSH20 0xFFFFFFFFFFFFFFFFFFFFFFFFFFFFFFFFFFFFFFFF AND DUP2 PUSH20 0xFFFFFFFFFFFFFFFFFFFFFFFFFFFFFFFFFFFFFFFF AND EQ JUMPDEST ISZERO PUSH2 0x5093 JUMPI PUSH1 0x40 MLOAD PUSH32 0x8C379A000000000000000000000000000000000000000000000000000000000 DUP2 MSTORE PUSH1 0x4 ADD PUSH2 0x508A SWAP1 PUSH2 0x8F02 JUMP JUMPDEST PUSH1 0x40 MLOAD DUP1 SWAP2 SUB SWAP1 REVERT JUMPDEST PUSH1 0x0 PUSH1 0x1 PUSH1 0x0 DUP8 PUSH20 0xFFFFFFFFFFFFFFFFFFFFFFFFFFFFFFFFFFFFFFFF AND PUSH20 0xFFFFFFFFFFFFFFFFFFFFFFFFFFFFFFFFFFFFFFFF AND DUP2 MSTORE PUSH1 0x20 ADD SWAP1 DUP2 MSTORE PUSH1 0x20 ADD PUSH1 0x0 KECCAK256 SLOAD SWAP1 POP PUSH1 0x0 PUSH1 0x2 SLOAD PUSH2 0x5107 PUSH1 0x4 PUSH1 0x0 SWAP1 SLOAD SWAP1 PUSH2 0x100 EXP SWAP1 DIV PUSH20 0xFFFFFFFFFFFFFFFFFFFFFFFFFFFFFFFFFFFFFFFF AND PUSH2 0x4387 JUMP JUMPDEST PUSH2 0x5111 SWAP2 SWAP1 PUSH2 0x8F80 JUMP JUMPDEST SWAP1 POP PUSH1 0x0 DUP1 DUP4 DUP2 SLOAD DUP2 LT PUSH2 0x5128 JUMPI PUSH2 0x5127 PUSH2 0x8F22 JUMP JUMPDEST JUMPDEST SWAP1 PUSH1 0x0 MSTORE PUSH1 0x20 PUSH1 0x0 KECCAK256 SWAP1 PUSH1 0x4 MUL ADD PUSH1 0x1 ADD PUSH1 0x0 SWAP1 SLOAD SWAP1 PUSH2 0x100 EXP SWAP1 DIV PUSH16 0xFFFFFFFFFFFFFFFFFFFFFFFFFFFFFFFF AND PUSH16 0xFFFFFFFFFFFFFFFFFFFFFFFFFFFFFFFF AND PUSH2 0x5171 DUP10 PUSH2 0x4387 JUMP JUMPDEST PUSH2 0x517B SWAP2 SWAP1 PUSH2 0x8F80 JUMP JUMPDEST SWAP1 POP PUSH1 0x1 DUP3 DUP3 PUSH2 0x518B SWAP2 SWAP1 PUSH2 0x948E JUMP JUMPDEST GT PUSH2 0x51CB JUMPI PUSH1 0x40 MLOAD PUSH32 0x8C379A000000000000000000000000000000000000000000000000000000000 DUP2 MSTORE PUSH1 0x4 ADD PUSH2 0x51C2 SWAP1 PUSH2 0x9C6F JUMP JUMPDEST PUSH1 0x40 MLOAD DUP1 SWAP2 SUB SWAP1 REVERT JUMPDEST PUSH1 0x0 PUSH1 0x1 DUP4 GT DUP1 ISZERO PUSH2 0x51DE JUMPI POP PUSH1 0x1 DUP3 GT ISZERO JUMPDEST PUSH2 0x51F0 JUMPI PUSH2 0x51EB DUP5 PUSH2 0x4D38 JUMP JUMPDEST PUSH2 0x51F4 JUMP JUMPDEST PUSH2 0x2710 JUMPDEST SWAP1 POP PUSH32 0xFFFFFFFFFFFFFFFFFFFFFFFFFFFFFFFFFFFFFFFFFFFFFFFFFFFFFFFFFFFFFFFF PUSH1 0x0 DUP6 DUP2 SLOAD DUP2 LT PUSH2 0x522B JUMPI PUSH2 0x522A PUSH2 0x8F22 JUMP JUMPDEST JUMPDEST SWAP1 PUSH1 0x0 MSTORE PUSH1 0x20 PUSH1 0x0 KECCAK256 SWAP1 PUSH1 0x4 MUL ADD PUSH1 0x3 ADD SLOAD LT DUP1 ISZERO PUSH2 0x5279 JUMPI POP DUP7 DUP4 PUSH1 0x0 DUP7 DUP2 SLOAD DUP2 LT PUSH2 0x525B JUMPI PUSH2 0x525A PUSH2 0x8F22 JUMP JUMPDEST JUMPDEST SWAP1 PUSH1 0x0 MSTORE PUSH1 0x20 PUSH1 0x0 KECCAK256 SWAP1 PUSH1 0x4 MUL ADD PUSH1 0x3 ADD SLOAD PUSH2 0x5277 SWAP2 SWAP1 PUSH2 0x948E JUMP JUMPDEST LT JUMPDEST ISZERO PUSH2 0x52B9 JUMPI PUSH1 0x40 MLOAD PUSH32 0x8C379A000000000000000000000000000000000000000000000000000000000 DUP2 MSTORE PUSH1 0x4 ADD PUSH2 0x52B0 SWAP1 PUSH2 0x9CDB JUMP JUMPDEST PUSH1 0x40 MLOAD DUP1 SWAP2 SUB SWAP1 REVERT JUMPDEST PUSH1 0x0 PUSH2 0x2710 PUSH1 0x0 DUP7 DUP2 SLOAD DUP2 LT PUSH2 0x52D2 JUMPI PUSH2 0x52D1 PUSH2 0x8F22 JUMP JUMPDEST JUMPDEST SWAP1 PUSH1 0x0 MSTORE PUSH1 0x20 PUSH1 0x0 KECCAK256 SWAP1 PUSH1 0x4 MUL ADD PUSH1 0x1 ADD PUSH1 0x0 SWAP1 SLOAD SWAP1 PUSH2 0x100 EXP SWAP1 DIV PUSH16 0xFFFFFFFFFFFFFFFFFFFFFFFFFFFFFFFF AND PUSH16 0xFFFFFFFFFFFFFFFFFFFFFFFFFFFFFFFF AND PUSH2 0x2710 PUSH1 0x0 DUP9 DUP2 SLOAD DUP2 LT PUSH2 0x5329 JUMPI PUSH2 0x5328 PUSH2 0x8F22 JUMP JUMPDEST JUMPDEST SWAP1 PUSH1 0x0 MSTORE PUSH1 0x20 PUSH1 0x0 KECCAK256 SWAP1 PUSH1 0x4 MUL ADD PUSH1 0x1 ADD PUSH1 0x10 SWAP1 SLOAD SWAP1 PUSH2 0x100 EXP SWAP1 DIV PUSH16 0xFFFFFFFFFFFFFFFFFFFFFFFFFFFFFFFF AND PUSH16 0xFFFFFFFFFFFFFFFFFFFFFFFFFFFFFFFF AND PUSH2 0x5373 SWAP2 SWAP1 PUSH2 0x9057 JUMP JUMPDEST PUSH2 0x537D SWAP2 SWAP1 PUSH2 0x9057 JUMP JUMPDEST PUSH2 0x5387 SWAP2 SWAP1 PUSH2 0x9057 JUMP JUMPDEST SWAP1 POP PUSH1 0x0 DUP9 DUP6 PUSH1 0x2 SLOAD PUSH2 0x539A SWAP2 SWAP1 PUSH2 0x948E JUMP JUMPDEST PUSH2 0x53A4 SWAP2 SWAP1 PUSH2 0x8F80 JUMP JUMPDEST SWAP1 POP PUSH1 0x0 DUP10 DUP7 PUSH1 0x0 DUP10 DUP2 SLOAD DUP2 LT PUSH2 0x53BE JUMPI PUSH2 0x53BD PUSH2 0x8F22 JUMP JUMPDEST JUMPDEST SWAP1 PUSH1 0x0 MSTORE PUSH1 0x20 PUSH1 0x0 KECCAK256 SWAP1 PUSH1 0x4 MUL ADD PUSH1 0x1 ADD PUSH1 0x10 SWAP1 SLOAD SWAP1 PUSH2 0x100 EXP SWAP1 DIV PUSH16 0xFFFFFFFFFFFFFFFFFFFFFFFFFFFFFFFF AND PUSH16 0xFFFFFFFFFFFFFFFFFFFFFFFFFFFFFFFF AND PUSH2 0x5408 SWAP2 SWAP1 PUSH2 0x948E JUMP JUMPDEST PUSH2 0x5412 SWAP2 SWAP1 PUSH2 0x8F80 JUMP JUMPDEST SWAP1 POP PUSH1 0x0 DUP12 DUP7 PUSH1 0x0 DUP11 DUP2 SLOAD DUP2 LT PUSH2 0x542C JUMPI PUSH2 0x542B PUSH2 0x8F22 JUMP JUMPDEST JUMPDEST SWAP1 PUSH1 0x0 MSTORE PUSH1 0x20 PUSH1 0x0 KECCAK256 SWAP1 PUSH1 0x4 MUL ADD PUSH1 0x1 ADD PUSH1 0x0 SWAP1 SLOAD SWAP1 PUSH2 0x100 EXP SWAP1 DIV PUSH16 0xFFFFFFFFFFFFFFFFFFFFFFFFFFFFFFFF AND PUSH16 0xFFFFFFFFFFFFFFFFFFFFFFFFFFFFFFFF AND PUSH2 0x5476 SWAP2 SWAP1 PUSH2 0x948E JUMP JUMPDEST PUSH2 0x5480 SWAP2 SWAP1 PUSH2 0x8F80 JUMP JUMPDEST SWAP1 POP PUSH1 0x0 DUP6 PUSH2 0x2710 PUSH2 0x5492 SWAP2 SWAP1 PUSH2 0x8F80 JUMP JUMPDEST DUP8 PUSH2 0x549D SWAP2 SWAP1 PUSH2 0x9057 JUMP JUMPDEST PUSH2 0x2710 DUP4 PUSH2 0x54AB SWAP2 SWAP1 PUSH2 0x9057 JUMP JUMPDEST PUSH2 0x54B5 SWAP2 SWAP1 PUSH2 0x8F80 JUMP JUMPDEST DUP7 PUSH2 0x2710 PUSH2 0x54C3 SWAP2 SWAP1 PUSH2 0x8F80 JUMP JUMPDEST DUP10 PUSH2 0x54CE SWAP2 SWAP1 PUSH2 0x9057 JUMP JUMPDEST PUSH2 0x2710 DUP6 PUSH2 0x54DC SWAP2 SWAP1 PUSH2 0x9057 JUMP JUMPDEST PUSH2 0x54E6 SWAP2 SWAP1 PUSH2 0x8F80 JUMP JUMPDEST PUSH2 0x54F0 SWAP2 SWAP1 PUSH2 0x9057 JUMP JUMPDEST SWAP1 POP DUP5 DUP2 LT ISZERO PUSH2 0x5535 JUMPI PUSH1 0x40 MLOAD PUSH32 0x8C379A000000000000000000000000000000000000000000000000000000000 DUP2 MSTORE PUSH1 0x4 ADD PUSH2 0x552C SWAP1 PUSH2 0x9D47 JUMP JUMPDEST PUSH1 0x40 MLOAD DUP1 SWAP2 SUB SWAP1 REVERT JUMPDEST DUP4 PUSH1 0x2 DUP2 SWAP1 SSTORE POP DUP3 PUSH1 0x0 DUP11 DUP2 SLOAD DUP2 LT PUSH2 0x5551 JUMPI PUSH2 0x5550 PUSH2 0x8F22 JUMP JUMPDEST JUMPDEST SWAP1 PUSH1 0x0 MSTORE PUSH1 0x20 PUSH1 0x0 KECCAK256 SWAP1 PUSH1 0x4 MUL ADD PUSH1 0x1 ADD PUSH1 0x10 PUSH2 0x100 EXP DUP2 SLOAD DUP2 PUSH16 0xFFFFFFFFFFFFFFFFFFFFFFFFFFFFFFFF MUL NOT AND SWAP1 DUP4 PUSH16 0xFFFFFFFFFFFFFFFFFFFFFFFFFFFFFFFF AND MUL OR SWAP1 SSTORE POP DUP2 PUSH1 0x0 DUP11 DUP2 SLOAD DUP2 LT PUSH2 0x55AD JUMPI PUSH2 0x55AC PUSH2 0x8F22 JUMP JUMPDEST JUMPDEST SWAP1 PUSH1 0x0 MSTORE PUSH1 0x20 PUSH1 0x0 KECCAK256 SWAP1 PUSH1 0x4 MUL ADD PUSH1 0x1 ADD PUSH1 0x0 PUSH2 0x100 EXP DUP2 SLOAD DUP2 PUSH16 0xFFFFFFFFFFFFFFFFFFFFFFFFFFFFFFFF MUL NOT AND SWAP1 DUP4 PUSH16 0xFFFFFFFFFFFFFFFFFFFFFFFFFFFFFFFF AND MUL OR SWAP1 SSTORE POP PUSH32 0xFFFFFFFFFFFFFFFFFFFFFFFFFFFFFFFFFFFFFFFFFFFFFFFFFFFFFFFFFFFFFFFF PUSH1 0x0 DUP11 DUP2 SLOAD DUP2 LT PUSH2 0x5629 JUMPI PUSH2 0x5628 PUSH2 0x8F22 JUMP JUMPDEST JUMPDEST SWAP1 PUSH1 0x0 MSTORE PUSH1 0x20 PUSH1 0x0 KECCAK256 SWAP1 PUSH1 0x4 MUL ADD PUSH1 0x3 ADD SLOAD LT ISZERO PUSH2 0x56A7 JUMPI DUP12 DUP9 PUSH1 0x0 DUP12 DUP2 SLOAD DUP2 LT PUSH2 0x5657 JUMPI PUSH2 0x5656 PUSH2 0x8F22 JUMP JUMPDEST JUMPDEST SWAP1 PUSH1 0x0 MSTORE PUSH1 0x20 PUSH1 0x0 KECCAK256 SWAP1 PUSH1 0x4 MUL ADD PUSH1 0x3 ADD SLOAD PUSH2 0x5673 SWAP2 SWAP1 PUSH2 0x948E JUMP JUMPDEST PUSH2 0x567D SWAP2 SWAP1 PUSH2 0x8F80 JUMP JUMPDEST PUSH1 0x0 DUP11 DUP2 SLOAD DUP2 LT PUSH2 0x5691 JUMPI PUSH2 0x5690 PUSH2 0x8F22 JUMP JUMPDEST JUMPDEST SWAP1 PUSH1 0x0 MSTORE PUSH1 0x20 PUSH1 0x0 KECCAK256 SWAP1 PUSH1 0x4 MUL ADD PUSH1 0x3 ADD DUP2 SWAP1 SSTORE POP JUMPDEST POP POP POP POP POP PUSH1 0x0 PUSH2 0x56B6 PUSH2 0x7AC7 JUMP JUMPDEST SWAP1 POP PUSH1 0x0 PUSH1 0x8 PUSH1 0x1 PUSH2 0x56C6 PUSH2 0x7AC7 JUMP JUMPDEST PUSH2 0x56D0 SWAP2 SWAP1 PUSH2 0x948E JUMP JUMPDEST PUSH2 0x56DA SWAP2 SWAP1 PUSH2 0x9BF2 JUMP JUMPDEST SWAP1 POP PUSH8 0x8AC7230489E80000 DUP10 GT ISZERO PUSH2 0x57E2 JUMPI PUSH1 0x0 PUSH8 0x8AC7230489E80000 DUP11 PUSH2 0x5702 SWAP2 SWAP1 PUSH2 0x95EB JUMP JUMPDEST PUSH1 0x0 DUP9 DUP2 SLOAD DUP2 LT PUSH2 0x5716 JUMPI PUSH2 0x5715 PUSH2 0x8F22 JUMP JUMPDEST JUMPDEST SWAP1 PUSH1 0x0 MSTORE PUSH1 0x20 PUSH1 0x0 KECCAK256 SWAP1 PUSH1 0x4 MUL ADD PUSH1 0x0 ADD DUP5 PUSH1 0x8 DUP2 LT PUSH2 0x5739 JUMPI PUSH2 0x5738 PUSH2 0x8F22 JUMP JUMPDEST JUMPDEST PUSH1 0x8 SWAP2 DUP3 DUP3 DIV ADD SWAP2 SWAP1 MOD PUSH1 0x4 MUL SWAP1 SLOAD SWAP1 PUSH2 0x100 EXP SWAP1 DIV PUSH4 0xFFFFFFFF AND PUSH4 0xFFFFFFFF AND PUSH2 0x5765 SWAP2 SWAP1 PUSH2 0x948E JUMP JUMPDEST SWAP1 POP PUSH4 0xFFFFFFFF DUP1 AND DUP2 LT PUSH2 0x577E JUMPI PUSH4 0xFFFFFFFF PUSH2 0x5780 JUMP JUMPDEST DUP1 JUMPDEST PUSH1 0x0 DUP9 DUP2 SLOAD DUP2 LT PUSH2 0x5794 JUMPI PUSH2 0x5793 PUSH2 0x8F22 JUMP JUMPDEST JUMPDEST SWAP1 PUSH1 0x0 MSTORE PUSH1 0x20 PUSH1 0x0 KECCAK256 SWAP1 PUSH1 0x4 MUL ADD PUSH1 0x0 ADD DUP5 PUSH1 0x8 DUP2 LT PUSH2 0x57B7 JUMPI PUSH2 0x57B6 PUSH2 0x8F22 JUMP JUMPDEST JUMPDEST PUSH1 0x8 SWAP2 DUP3 DUP3 DIV ADD SWAP2 SWAP1 MOD PUSH1 0x4 MUL PUSH2 0x100 EXP DUP2 SLOAD DUP2 PUSH4 0xFFFFFFFF MUL NOT AND SWAP1 DUP4 PUSH4 0xFFFFFFFF AND MUL OR SWAP1 SSTORE POP POP JUMPDEST PUSH1 0x1 PUSH1 0x0 DUP8 DUP2 SLOAD DUP2 LT PUSH2 0x57F8 JUMPI PUSH2 0x57F7 PUSH2 0x8F22 JUMP JUMPDEST JUMPDEST SWAP1 PUSH1 0x0 MSTORE PUSH1 0x20 PUSH1 0x0 KECCAK256 SWAP1 PUSH1 0x4 MUL ADD PUSH1 0x0 ADD DUP3 PUSH1 0x8 DUP2 LT PUSH2 0x581B JUMPI PUSH2 0x581A PUSH2 0x8F22 JUMP JUMPDEST JUMPDEST PUSH1 0x8 SWAP2 DUP3 DUP3 DIV ADD SWAP2 SWAP1 MOD PUSH1 0x4 MUL SWAP1 SLOAD SWAP1 PUSH2 0x100 EXP SWAP1 DIV PUSH4 0xFFFFFFFF AND PUSH4 0xFFFFFFFF AND GT ISZERO PUSH2 0x58A6 JUMPI PUSH1 0x1 PUSH1 0x0 DUP8 DUP2 SLOAD DUP2 LT PUSH2 0x5859 JUMPI PUSH2 0x5858 PUSH2 0x8F22 JUMP JUMPDEST JUMPDEST SWAP1 PUSH1 0x0 MSTORE PUSH1 0x20 PUSH1 0x0 KECCAK256 SWAP1 PUSH1 0x4 MUL ADD PUSH1 0x0 ADD DUP3 PUSH1 0x8 DUP2 LT PUSH2 0x587C JUMPI PUSH2 0x587B PUSH2 0x8F22 JUMP JUMPDEST JUMPDEST PUSH1 0x8 SWAP2 DUP3 DUP3 DIV ADD SWAP2 SWAP1 MOD PUSH1 0x4 MUL PUSH2 0x100 EXP DUP2 SLOAD DUP2 PUSH4 0xFFFFFFFF MUL NOT AND SWAP1 DUP4 PUSH4 0xFFFFFFFF AND MUL OR SWAP1 SSTORE POP JUMPDEST PUSH1 0x0 DUP11 GT ISZERO PUSH2 0x5957 JUMPI PUSH2 0x58BC DUP12 DUP10 DUP13 PUSH1 0x1 PUSH2 0x4469 JUMP JUMPDEST PUSH1 0x0 PUSH2 0x58C7 DUP13 PUSH2 0x4387 JUMP JUMPDEST SWAP1 POP PUSH1 0x0 DUP8 DUP2 SLOAD DUP2 LT PUSH2 0x58DD JUMPI PUSH2 0x58DC PUSH2 0x8F22 JUMP JUMPDEST JUMPDEST SWAP1 PUSH1 0x0 MSTORE PUSH1 0x20 PUSH1 0x0 KECCAK256 SWAP1 PUSH1 0x4 MUL ADD PUSH1 0x1 ADD PUSH1 0x0 SWAP1 SLOAD SWAP1 PUSH2 0x100 EXP SWAP1 DIV PUSH16 0xFFFFFFFFFFFFFFFFFFFFFFFFFFFFFFFF AND PUSH16 0xFFFFFFFFFFFFFFFFFFFFFFFFFFFFFFFF AND DUP2 EQ PUSH2 0x5955 JUMPI PUSH1 0x40 MLOAD PUSH32 0xA8B538D300000000000000000000000000000000000000000000000000000000 DUP2 MSTORE PUSH1 0x4 ADD PUSH1 0x40 MLOAD DUP1 SWAP2 SUB SWAP1 REVERT JUMPDEST POP JUMPDEST PUSH1 0x0 DUP10 GT ISZERO PUSH2 0x5990 JUMPI PUSH2 0x598F PUSH1 0x4 PUSH1 0x0 SWAP1 SLOAD SWAP1 PUSH2 0x100 EXP SWAP1 DIV PUSH20 0xFFFFFFFFFFFFFFFFFFFFFFFFFFFFFFFFFFFFFFFF AND DUP10 DUP12 PUSH1 0x1 PUSH2 0x4469 JUMP JUMPDEST JUMPDEST PUSH32 0x4AB7F3F4678BF8F6CBE4D85E4007B7C64DF8E1D5D97DE1628F4A6416F9D1DB03 DUP12 CALLER DUP7 DUP9 DUP15 DUP15 DUP10 PUSH2 0x2710 PUSH2 0x59C5 SWAP2 SWAP1 PUSH2 0x8F80 JUMP JUMPDEST DUP16 PUSH1 0x40 MLOAD PUSH2 0x59DA SWAP9 SWAP8 SWAP7 SWAP6 SWAP5 SWAP4 SWAP3 SWAP2 SWAP1 PUSH2 0x9D67 JUMP JUMPDEST PUSH1 0x40 MLOAD DUP1 SWAP2 SUB SWAP1 LOG1 PUSH32 0x51AB1232A73B82B6B0ACB0FA91B834CF6E258A1858C4E23C72CE97241C71AA0D DUP12 PUSH1 0x0 DUP9 DUP2 SLOAD DUP2 LT PUSH2 0x5A18 JUMPI PUSH2 0x5A17 PUSH2 0x8F22 JUMP JUMPDEST JUMPDEST SWAP1 PUSH1 0x0 MSTORE PUSH1 0x20 PUSH1 0x0 KECCAK256 SWAP1 PUSH1 0x4 MUL ADD PUSH1 0x1 ADD PUSH1 0x0 SWAP1 SLOAD SWAP1 PUSH2 0x100 EXP SWAP1 DIV PUSH16 0xFFFFFFFFFFFFFFFFFFFFFFFFFFFFFFFF AND PUSH1 0x0 DUP10 DUP2 SLOAD DUP2 LT PUSH2 0x5A5A JUMPI PUSH2 0x5A59 PUSH2 0x8F22 JUMP JUMPDEST JUMPDEST SWAP1 PUSH1 0x0 MSTORE PUSH1 0x20 PUSH1 0x0 KECCAK256 SWAP1 PUSH1 0x4 MUL ADD PUSH1 0x1 ADD PUSH1 0x10 SWAP1 SLOAD SWAP1 PUSH2 0x100 EXP SWAP1 DIV PUSH16 0xFFFFFFFFFFFFFFFFFFFFFFFFFFFFFFFF AND PUSH1 0x0 DUP11 DUP2 SLOAD DUP2 LT PUSH2 0x5A9C JUMPI PUSH2 0x5A9B PUSH2 0x8F22 JUMP JUMPDEST JUMPDEST SWAP1 PUSH1 0x0 MSTORE PUSH1 0x20 PUSH1 0x0 KECCAK256 SWAP1 PUSH1 0x4 MUL ADD PUSH1 0x3 ADD SLOAD PUSH1 0x40 MLOAD PUSH2 0x5ABE SWAP5 SWAP4 SWAP3 SWAP2 SWAP1 PUSH2 0x976D JUMP JUMPDEST PUSH1 0x40 MLOAD DUP1 SWAP2 SUB SWAP1 LOG1 POP POP POP POP POP POP POP POP POP POP POP JUMP JUMPDEST PUSH1 0x0 PUSH1 0x14 PUSH1 0x0 SWAP1 SLOAD SWAP1 PUSH2 0x100 EXP SWAP1 DIV PUSH20 0xFFFFFFFFFFFFFFFFFFFFFFFFFFFFFFFFFFFFFFFF AND SWAP1 POP DUP2 PUSH1 0x14 PUSH1 0x0 PUSH2 0x100 EXP DUP2 SLOAD DUP2 PUSH20 0xFFFFFFFFFFFFFFFFFFFFFFFFFFFFFFFFFFFFFFFF MUL NOT AND SWAP1 DUP4 PUSH20 0xFFFFFFFFFFFFFFFFFFFFFFFFFFFFFFFFFFFFFFFF AND MUL OR SWAP1 SSTORE POP DUP2 PUSH20 0xFFFFFFFFFFFFFFFFFFFFFFFFFFFFFFFFFFFFFFFF AND DUP2 PUSH20 0xFFFFFFFFFFFFFFFFFFFFFFFFFFFFFFFFFFFFFFFF AND PUSH32 0x8BE0079C531659141344CD1FD0A4F28419497F9722A3DAAFE3B4186F6B6457E0 PUSH1 0x40 MLOAD PUSH1 0x40 MLOAD DUP1 SWAP2 SUB SWAP1 LOG3 POP POP JUMP JUMPDEST PUSH1 0x0 DUP1 PUSH1 0x1 PUSH1 0x0 DUP7 PUSH20 0xFFFFFFFFFFFFFFFFFFFFFFFFFFFFFFFFFFFFFFFF AND PUSH20 0xFFFFFFFFFFFFFFFFFFFFFFFFFFFFFFFFFFFFFFFF AND DUP2 MSTORE PUSH1 0x20 ADD SWAP1 DUP2 MSTORE PUSH1 0x20 ADD PUSH1 0x0 KECCAK256 SLOAD SWAP1 POP PUSH1 0x0 PUSH2 0x5BE9 DUP7 PUSH2 0x4387 JUMP JUMPDEST SWAP1 POP PUSH1 0x0 DUP1 DUP4 DUP2 SLOAD DUP2 LT PUSH2 0x5C00 JUMPI PUSH2 0x5BFF PUSH2 0x8F22 JUMP JUMPDEST JUMPDEST SWAP1 PUSH1 0x0 MSTORE PUSH1 0x20 PUSH1 0x0 KECCAK256 SWAP1 PUSH1 0x4 MUL ADD PUSH1 0x1 ADD PUSH1 0x0 SWAP1 SLOAD SWAP1 PUSH2 0x100 EXP SWAP1 DIV PUSH16 0xFFFFFFFFFFFFFFFFFFFFFFFFFFFFFFFF AND PUSH16 0xFFFFFFFFFFFFFFFFFFFFFFFFFFFFFFFF AND DUP3 PUSH2 0x5C4B SWAP2 SWAP1 PUSH2 0x8F80 JUMP JUMPDEST SWAP1 POP PUSH1 0x0 PUSH1 0x2 SLOAD PUSH2 0x5C7D PUSH1 0x4 PUSH1 0x0 SWAP1 SLOAD SWAP1 PUSH2 0x100 EXP SWAP1 DIV PUSH20 0xFFFFFFFFFFFFFFFFFFFFFFFFFFFFFFFFFFFFFFFF AND PUSH2 0x4387 JUMP JUMPDEST PUSH2 0x5C87 SWAP2 SWAP1 PUSH2 0x8F80 JUMP JUMPDEST SWAP1 POP PUSH1 0x0 PUSH1 0x10 PUSH1 0x0 DUP7 DUP2 MSTORE PUSH1 0x20 ADD SWAP1 DUP2 MSTORE PUSH1 0x20 ADD PUSH1 0x0 KECCAK256 SLOAD SWAP1 POP PUSH1 0x0 DUP2 DUP10 PUSH1 0x0 DUP9 DUP2 SLOAD DUP2 LT PUSH2 0x5CB9 JUMPI PUSH2 0x5CB8 PUSH2 0x8F22 JUMP JUMPDEST JUMPDEST SWAP1 PUSH1 0x0 MSTORE PUSH1 0x20 PUSH1 0x0 KECCAK256 SWAP1 PUSH1 0x4 MUL ADD PUSH1 0x1 ADD PUSH1 0x0 SWAP1 SLOAD SWAP1 PUSH2 0x100 EXP SWAP1 DIV PUSH16 0xFFFFFFFFFFFFFFFFFFFFFFFFFFFFFFFF AND PUSH16 0xFFFFFFFFFFFFFFFFFFFFFFFFFFFFFFFF AND PUSH2 0x5D03 SWAP2 SWAP1 PUSH2 0x9057 JUMP JUMPDEST PUSH2 0x5D0D SWAP2 SWAP1 PUSH2 0x95EB JUMP JUMPDEST SWAP1 POP PUSH1 0x0 DUP3 DUP11 PUSH1 0x0 DUP10 DUP2 SLOAD DUP2 LT PUSH2 0x5D27 JUMPI PUSH2 0x5D26 PUSH2 0x8F22 JUMP JUMPDEST JUMPDEST SWAP1 PUSH1 0x0 MSTORE PUSH1 0x20 PUSH1 0x0 KECCAK256 SWAP1 PUSH1 0x4 MUL ADD PUSH1 0x1 ADD PUSH1 0x10 SWAP1 SLOAD SWAP1 PUSH2 0x100 EXP SWAP1 DIV PUSH16 0xFFFFFFFFFFFFFFFFFFFFFFFFFFFFFFFF AND PUSH16 0xFFFFFFFFFFFFFFFFFFFFFFFFFFFFFFFF AND PUSH2 0x5D71 SWAP2 SWAP1 PUSH2 0x9057 JUMP JUMPDEST PUSH2 0x5D7B SWAP2 SWAP1 PUSH2 0x95EB JUMP JUMPDEST SWAP1 POP PUSH1 0x0 PUSH2 0x5E39 PUSH1 0x0 DUP10 DUP2 SLOAD DUP2 LT PUSH2 0x5D96 JUMPI PUSH2 0x5D95 PUSH2 0x8F22 JUMP JUMPDEST JUMPDEST SWAP1 PUSH1 0x0 MSTORE PUSH1 0x20 PUSH1 0x0 KECCAK256 SWAP1 PUSH1 0x4 MUL ADD PUSH1 0x1 ADD PUSH1 0x10 SWAP1 SLOAD SWAP1 PUSH2 0x100 EXP SWAP1 DIV PUSH16 0xFFFFFFFFFFFFFFFFFFFFFFFFFFFFFFFF AND PUSH16 0xFFFFFFFFFFFFFFFFFFFFFFFFFFFFFFFF AND PUSH1 0x0 DUP11 DUP2 SLOAD DUP2 LT PUSH2 0x5DEA JUMPI PUSH2 0x5DE9 PUSH2 0x8F22 JUMP JUMPDEST JUMPDEST SWAP1 PUSH1 0x0 MSTORE PUSH1 0x20 PUSH1 0x0 KECCAK256 SWAP1 PUSH1 0x4 MUL ADD PUSH1 0x1 ADD PUSH1 0x0 SWAP1 SLOAD SWAP1 PUSH2 0x100 EXP SWAP1 DIV PUSH16 0xFFFFFFFFFFFFFFFFFFFFFFFFFFFFFFFF AND PUSH16 0xFFFFFFFFFFFFFFFFFFFFFFFFFFFFFFFF AND PUSH2 0x5E34 SWAP2 SWAP1 PUSH2 0x9057 JUMP JUMPDEST PUSH2 0x46D4 JUMP JUMPDEST SWAP1 POP PUSH1 0x0 PUSH2 0x5E9B PUSH1 0x0 DUP11 DUP2 SLOAD DUP2 LT PUSH2 0x5E54 JUMPI PUSH2 0x5E53 PUSH2 0x8F22 JUMP JUMPDEST JUMPDEST SWAP1 PUSH1 0x0 MSTORE PUSH1 0x20 PUSH1 0x0 KECCAK256 SWAP1 PUSH1 0x4 MUL ADD PUSH1 0x2 ADD PUSH1 0x0 SWAP1 SLOAD SWAP1 PUSH2 0x100 EXP SWAP1 DIV PUSH16 0xFFFFFFFFFFFFFFFFFFFFFFFFFFFFFFFF AND PUSH16 0xFFFFFFFFFFFFFFFFFFFFFFFFFFFFFFFF AND DUP4 DUP8 PUSH2 0x474E JUMP JUMPDEST SWAP1 POP PUSH1 0x0 DUP2 GT ISZERO PUSH2 0x5EE7 JUMPI PUSH2 0x5EE6 PUSH1 0x7 PUSH1 0x0 ADD PUSH1 0x0 SWAP1 SLOAD SWAP1 PUSH2 0x100 EXP SWAP1 DIV PUSH20 0xFFFFFFFFFFFFFFFFFFFFFFFFFFFFFFFFFFFFFFFF AND DUP11 DUP4 PUSH1 0x40 MLOAD DUP1 PUSH1 0x20 ADD PUSH1 0x40 MSTORE DUP1 PUSH1 0x0 DUP2 MSTORE POP PUSH2 0x47E4 JUMP JUMPDEST JUMPDEST DUP3 DUP7 PUSH1 0x2 SLOAD PUSH2 0x5EF6 SWAP2 SWAP1 PUSH2 0x948E JUMP JUMPDEST PUSH2 0x5F00 SWAP2 SWAP1 PUSH2 0x8F80 JUMP JUMPDEST PUSH1 0x2 DUP2 SWAP1 SSTORE POP DUP4 DUP8 PUSH1 0x0 DUP12 DUP2 SLOAD DUP2 LT PUSH2 0x5F1C JUMPI PUSH2 0x5F1B PUSH2 0x8F22 JUMP JUMPDEST JUMPDEST SWAP1 PUSH1 0x0 MSTORE PUSH1 0x20 PUSH1 0x0 KECCAK256 SWAP1 PUSH1 0x4 MUL ADD PUSH1 0x1 ADD PUSH1 0x0 SWAP1 SLOAD SWAP1 PUSH2 0x100 EXP SWAP1 DIV PUSH16 0xFFFFFFFFFFFFFFFFFFFFFFFFFFFFFFFF AND PUSH2 0x5F54 SWAP2 SWAP1 PUSH2 0x9645 JUMP JUMPDEST PUSH2 0x5F5E SWAP2 SWAP1 PUSH2 0x9DE5 JUMP JUMPDEST PUSH1 0x0 DUP11 DUP2 SLOAD DUP2 LT PUSH2 0x5F72 JUMPI PUSH2 0x5F71 PUSH2 0x8F22 JUMP JUMPDEST JUMPDEST SWAP1 PUSH1 0x0 MSTORE PUSH1 0x20 PUSH1 0x0 KECCAK256 SWAP1 PUSH1 0x4 MUL ADD PUSH1 0x1 ADD PUSH1 0x0 PUSH2 0x100 EXP DUP2 SLOAD DUP2 PUSH16 0xFFFFFFFFFFFFFFFFFFFFFFFFFFFFFFFF MUL NOT AND SWAP1 DUP4 PUSH16 0xFFFFFFFFFFFFFFFFFFFFFFFFFFFFFFFF AND MUL OR SWAP1 SSTORE POP DUP3 DUP7 PUSH1 0x0 DUP12 DUP2 SLOAD DUP2 LT PUSH2 0x5FCF JUMPI PUSH2 0x5FCE PUSH2 0x8F22 JUMP JUMPDEST JUMPDEST SWAP1 PUSH1 0x0 MSTORE PUSH1 0x20 PUSH1 0x0 KECCAK256 SWAP1 PUSH1 0x4 MUL ADD PUSH1 0x1 ADD PUSH1 0x10 SWAP1 SLOAD SWAP1 PUSH2 0x100 EXP SWAP1 DIV PUSH16 0xFFFFFFFFFFFFFFFFFFFFFFFFFFFFFFFF AND PUSH2 0x6007 SWAP2 SWAP1 PUSH2 0x9645 JUMP JUMPDEST PUSH2 0x6011 SWAP2 SWAP1 PUSH2 0x9DE5 JUMP JUMPDEST PUSH1 0x0 DUP11 DUP2 SLOAD DUP2 LT PUSH2 0x6025 JUMPI PUSH2 0x6024 PUSH2 0x8F22 JUMP JUMPDEST JUMPDEST SWAP1 PUSH1 0x0 MSTORE PUSH1 0x20 PUSH1 0x0 KECCAK256 SWAP1 PUSH1 0x4 MUL ADD PUSH1 0x1 ADD PUSH1 0x10 PUSH2 0x100 EXP DUP2 SLOAD DUP2 PUSH16 0xFFFFFFFFFFFFFFFFFFFFFFFFFFFFFFFF MUL NOT AND SWAP1 DUP4 PUSH16 0xFFFFFFFFFFFFFFFFFFFFFFFFFFFFFFFF AND MUL OR SWAP1 SSTORE POP PUSH2 0x6126 PUSH1 0x0 DUP11 DUP2 SLOAD DUP2 LT PUSH2 0x6083 JUMPI PUSH2 0x6082 PUSH2 0x8F22 JUMP JUMPDEST JUMPDEST SWAP1 PUSH1 0x0 MSTORE PUSH1 0x20 PUSH1 0x0 KECCAK256 SWAP1 PUSH1 0x4 MUL ADD PUSH1 0x1 ADD PUSH1 0x10 SWAP1 SLOAD SWAP1 PUSH2 0x100 EXP SWAP1 DIV PUSH16 0xFFFFFFFFFFFFFFFFFFFFFFFFFFFFFFFF AND PUSH16 0xFFFFFFFFFFFFFFFFFFFFFFFFFFFFFFFF AND PUSH1 0x0 DUP12 DUP2 SLOAD DUP2 LT PUSH2 0x60D7 JUMPI PUSH2 0x60D6 PUSH2 0x8F22 JUMP JUMPDEST JUMPDEST SWAP1 PUSH1 0x0 MSTORE PUSH1 0x20 PUSH1 0x0 KECCAK256 SWAP1 PUSH1 0x4 MUL ADD PUSH1 0x1 ADD PUSH1 0x0 SWAP1 SLOAD SWAP1 PUSH2 0x100 EXP SWAP1 DIV PUSH16 0xFFFFFFFFFFFFFFFFFFFFFFFFFFFFFFFF AND PUSH16 0xFFFFFFFFFFFFFFFFFFFFFFFFFFFFFFFF AND PUSH2 0x6121 SWAP2 SWAP1 PUSH2 0x9057 JUMP JUMPDEST PUSH2 0x46D4 JUMP JUMPDEST PUSH1 0x0 DUP11 DUP2 SLOAD DUP2 LT PUSH2 0x613A JUMPI PUSH2 0x6139 PUSH2 0x8F22 JUMP JUMPDEST JUMPDEST SWAP1 PUSH1 0x0 MSTORE PUSH1 0x20 PUSH1 0x0 KECCAK256 SWAP1 PUSH1 0x4 MUL ADD PUSH1 0x2 ADD PUSH1 0x0 PUSH2 0x100 EXP DUP2 SLOAD DUP2 PUSH16 0xFFFFFFFFFFFFFFFFFFFFFFFFFFFFFFFF MUL NOT AND SWAP1 DUP4 PUSH16 0xFFFFFFFFFFFFFFFFFFFFFFFFFFFFFFFF AND MUL OR SWAP1 SSTORE POP PUSH2 0x618C CALLER DUP11 DUP15 PUSH2 0x71D8 JUMP JUMPDEST PUSH1 0x4 PUSH1 0x0 SWAP1 SLOAD SWAP1 PUSH2 0x100 EXP SWAP1 DIV PUSH20 0xFFFFFFFFFFFFFFFFFFFFFFFFFFFFFFFFFFFFFFFF AND PUSH20 0xFFFFFFFFFFFFFFFFFFFFFFFFFFFFFFFFFFFFFFFF AND PUSH4 0x18A8AD87 ADDRESS DUP6 PUSH1 0x40 MLOAD DUP4 PUSH4 0xFFFFFFFF AND PUSH1 0xE0 SHL DUP2 MSTORE PUSH1 0x4 ADD PUSH2 0x61E9 SWAP3 SWAP2 SWAP1 PUSH2 0x961C JUMP JUMPDEST PUSH1 0x0 PUSH1 0x40 MLOAD DUP1 DUP4 SUB DUP2 PUSH1 0x0 DUP8 DUP1 EXTCODESIZE ISZERO DUP1 ISZERO PUSH2 0x6203 JUMPI PUSH1 0x0 DUP1 REVERT JUMPDEST POP GAS CALL ISZERO DUP1 ISZERO PUSH2 0x6217 JUMPI RETURNDATASIZE PUSH1 0x0 DUP1 RETURNDATACOPY RETURNDATASIZE PUSH1 0x0 REVERT JUMPDEST POP POP POP POP POP POP PUSH2 0x622A DUP12 DUP11 DUP5 PUSH1 0x1 PUSH2 0x4469 JUMP JUMPDEST PUSH1 0x0 PUSH2 0x6235 DUP13 PUSH2 0x4387 JUMP JUMPDEST SWAP1 POP DUP7 DUP4 DUP3 PUSH2 0x6244 SWAP2 SWAP1 PUSH2 0x948E JUMP JUMPDEST EQ PUSH2 0x627B JUMPI PUSH1 0x40 MLOAD PUSH32 0xA8B538D300000000000000000000000000000000000000000000000000000000 DUP2 MSTORE PUSH1 0x4 ADD PUSH1 0x40 MLOAD DUP1 SWAP2 SUB SWAP1 REVERT JUMPDEST PUSH32 0x1DC8BB69DF2B8E91FBDCBFCF93D951B3F0000F085A95FE3F7946D6161439245D DUP13 DUP5 DUP5 DUP15 PUSH1 0x40 MLOAD PUSH2 0x62B0 SWAP5 SWAP4 SWAP3 SWAP2 SWAP1 PUSH2 0x968B JUMP JUMPDEST PUSH1 0x40 MLOAD DUP1 SWAP2 SUB SWAP1 LOG1 DUP3 SWAP9 POP POP POP POP POP POP POP POP POP SWAP4 SWAP3 POP POP POP JUMP JUMPDEST DUP5 PUSH1 0x0 PUSH1 0x1 PUSH1 0x0 DUP4 PUSH20 0xFFFFFFFFFFFFFFFFFFFFFFFFFFFFFFFFFFFFFFFF AND PUSH20 0xFFFFFFFFFFFFFFFFFFFFFFFFFFFFFFFFFFFFFFFF AND DUP2 MSTORE PUSH1 0x20 ADD SWAP1 DUP2 MSTORE PUSH1 0x20 ADD PUSH1 0x0 KECCAK256 SLOAD GT ISZERO PUSH2 0x6345 JUMPI PUSH1 0x40 MLOAD PUSH32 0x402670DF00000000000000000000000000000000000000000000000000000000 DUP2 MSTORE PUSH1 0x4 ADD PUSH1 0x40 MLOAD DUP1 SWAP2 SUB SWAP1 REVERT JUMPDEST PUSH2 0x6350 DUP7 CALLER DUP8 PUSH2 0x451C JUMP JUMPDEST PUSH1 0x4 PUSH1 0x0 SWAP1 SLOAD SWAP1 PUSH2 0x100 EXP SWAP1 DIV PUSH20 0xFFFFFFFFFFFFFFFFFFFFFFFFFFFFFFFFFFFFFFFF AND PUSH20 0xFFFFFFFFFFFFFFFFFFFFFFFFFFFFFFFFFFFFFFFF AND PUSH4 0xBB9FF5D ADDRESS DUP7 PUSH1 0x40 MLOAD DUP4 PUSH4 0xFFFFFFFF AND PUSH1 0xE0 SHL DUP2 MSTORE PUSH1 0x4 ADD PUSH2 0x63AD SWAP3 SWAP2 SWAP1 PUSH2 0x961C JUMP JUMPDEST PUSH1 0x0 PUSH1 0x40 MLOAD DUP1 DUP4 SUB DUP2 PUSH1 0x0 DUP8 DUP1 EXTCODESIZE ISZERO DUP1 ISZERO PUSH2 0x63C7 JUMPI PUSH1 0x0 DUP1 REVERT JUMPDEST POP GAS CALL ISZERO DUP1 ISZERO PUSH2 0x63DB JUMPI RETURNDATASIZE PUSH1 0x0 DUP1 RETURNDATACOPY RETURNDATASIZE PUSH1 0x0 REVERT JUMPDEST POP POP POP POP PUSH2 0x63E8 DUP7 PUSH2 0x4387 JUMP JUMPDEST SWAP5 POP PUSH1 0x1 DUP6 GT PUSH2 0x642D JUMPI PUSH1 0x40 MLOAD PUSH32 0x8C379A000000000000000000000000000000000000000000000000000000000 DUP2 MSTORE PUSH1 0x4 ADD PUSH2 0x6424 SWAP1 PUSH2 0x959C JUMP JUMPDEST PUSH1 0x40 MLOAD DUP1 SWAP2 SUB SWAP1 REVERT JUMPDEST PUSH1 0x0 PUSH2 0x6443 DUP6 DUP8 PUSH2 0x643E SWAP2 SWAP1 PUSH2 0x9057 JUMP JUMPDEST PUSH2 0x46D4 JUMP JUMPDEST SWAP1 POP PUSH2 0x644D PUSH2 0x7C97 JUMP JUMPDEST PUSH1 0x0 JUMPDEST PUSH1 0x8 DUP2 LT ISZERO PUSH2 0x6498 JUMPI PUSH1 0x1 DUP3 DUP3 PUSH1 0x8 DUP2 LT PUSH2 0x646E JUMPI PUSH2 0x646D PUSH2 0x8F22 JUMP JUMPDEST JUMPDEST PUSH1 0x20 MUL ADD SWAP1 PUSH4 0xFFFFFFFF AND SWAP1 DUP2 PUSH4 0xFFFFFFFF AND DUP2 MSTORE POP POP DUP1 DUP1 PUSH2 0x6490 SWAP1 PUSH2 0x9445 JUMP JUMPDEST SWAP2 POP POP PUSH2 0x6450 JUMP JUMPDEST POP PUSH1 0x0 PUSH1 0x40 MLOAD DUP1 PUSH1 0xA0 ADD PUSH1 0x40 MSTORE DUP1 DUP4 DUP2 MSTORE PUSH1 0x20 ADD DUP10 PUSH16 0xFFFFFFFFFFFFFFFFFFFFFFFFFFFFFFFF AND DUP2 MSTORE PUSH1 0x20 ADD DUP9 PUSH16 0xFFFFFFFFFFFFFFFFFFFFFFFFFFFFFFFF AND DUP2 MSTORE PUSH1 0x20 ADD DUP5 PUSH16 0xFFFFFFFFFFFFFFFFFFFFFFFFFFFFFFFF AND DUP2 MSTORE PUSH1 0x20 ADD DUP8 DUP2 MSTORE POP SWAP1 POP PUSH1 0x0 DUP1 DUP1 SLOAD SWAP1 POP SWAP1 POP PUSH1 0x0 DUP3 SWAP1 DUP1 PUSH1 0x1 DUP2 SLOAD ADD DUP1 DUP3 SSTORE DUP1 SWAP2 POP POP PUSH1 0x1 SWAP1 SUB SWAP1 PUSH1 0x0 MSTORE PUSH1 0x20 PUSH1 0x0 KECCAK256 SWAP1 PUSH1 0x4 MUL ADD PUSH1 0x0 SWAP1 SWAP2 SWAP1 SWAP2 SWAP1 SWAP2 POP PUSH1 0x0 DUP3 ADD MLOAD DUP2 PUSH1 0x0 ADD SWAP1 PUSH1 0x8 PUSH2 0x6546 SWAP3 SWAP2 SWAP1 PUSH2 0x7CBA JUMP JUMPDEST POP PUSH1 0x20 DUP3 ADD MLOAD DUP2 PUSH1 0x1 ADD PUSH1 0x0 PUSH2 0x100 EXP DUP2 SLOAD DUP2 PUSH16 0xFFFFFFFFFFFFFFFFFFFFFFFFFFFFFFFF MUL NOT AND SWAP1 DUP4 PUSH16 0xFFFFFFFFFFFFFFFFFFFFFFFFFFFFFFFF AND MUL OR SWAP1 SSTORE POP PUSH1 0x40 DUP3 ADD MLOAD DUP2 PUSH1 0x1 ADD PUSH1 0x10 PUSH2 0x100 EXP DUP2 SLOAD DUP2 PUSH16 0xFFFFFFFFFFFFFFFFFFFFFFFFFFFFFFFF MUL NOT AND SWAP1 DUP4 PUSH16 0xFFFFFFFFFFFFFFFFFFFFFFFFFFFFFFFF AND MUL OR SWAP1 SSTORE POP PUSH1 0x60 DUP3 ADD MLOAD DUP2 PUSH1 0x2 ADD PUSH1 0x0 PUSH2 0x100 EXP DUP2 SLOAD DUP2 PUSH16 0xFFFFFFFFFFFFFFFFFFFFFFFFFFFFFFFF MUL NOT AND SWAP1 DUP4 PUSH16 0xFFFFFFFFFFFFFFFFFFFFFFFFFFFFFFFF AND MUL OR SWAP1 SSTORE POP PUSH1 0x80 DUP3 ADD MLOAD DUP2 PUSH1 0x3 ADD SSTORE POP POP DUP1 PUSH1 0x1 PUSH1 0x0 DUP13 PUSH20 0xFFFFFFFFFFFFFFFFFFFFFFFFFFFFFFFFFFFFFFFF AND PUSH20 0xFFFFFFFFFFFFFFFFFFFFFFFFFFFFFFFFFFFFFFFF AND DUP2 MSTORE PUSH1 0x20 ADD SWAP1 DUP2 MSTORE PUSH1 0x20 ADD PUSH1 0x0 KECCAK256 DUP2 SWAP1 SSTORE POP DUP8 PUSH1 0x2 PUSH1 0x0 DUP3 DUP3 SLOAD PUSH2 0x6666 SWAP2 SWAP1 PUSH2 0x948E JUMP JUMPDEST SWAP3 POP POP DUP2 SWAP1 SSTORE POP PUSH2 0x668C PUSH2 0xDEAD DUP3 PUSH2 0x3E8 PUSH1 0x40 MLOAD DUP1 PUSH1 0x20 ADD PUSH1 0x40 MSTORE DUP1 PUSH1 0x0 DUP2 MSTORE POP PUSH2 0x47E4 JUMP JUMPDEST PUSH1 0x0 PUSH2 0x3E8 PUSH2 0x66A5 DUP11 DUP13 PUSH2 0x66A0 SWAP2 SWAP1 PUSH2 0x9057 JUMP JUMPDEST PUSH2 0x46D4 JUMP JUMPDEST PUSH2 0x66AF SWAP2 SWAP1 PUSH2 0x8F80 JUMP JUMPDEST SWAP1 POP PUSH2 0x66CC DUP8 DUP4 DUP4 PUSH1 0x40 MLOAD DUP1 PUSH1 0x20 ADD PUSH1 0x40 MSTORE DUP1 PUSH1 0x0 DUP2 MSTORE POP PUSH2 0x47E4 JUMP JUMPDEST PUSH32 0x17AA8D0E85DB1D0531A8181B5BB84E1D4ED744DB1CADD8814ACD3D181FF30137 DUP12 DUP4 PUSH1 0x40 MLOAD PUSH2 0x66FD SWAP3 SWAP2 SWAP1 PUSH2 0x961C JUMP JUMPDEST PUSH1 0x40 MLOAD DUP1 SWAP2 SUB SWAP1 LOG1 PUSH32 0x64B83944E79C3CE8D4C297411DE637C3E102D064677AAC0C163976EBDCD6F50E DUP12 DUP12 DUP12 DUP5 PUSH1 0x40 MLOAD PUSH2 0x673A SWAP5 SWAP4 SWAP3 SWAP2 SWAP1 PUSH2 0x968B JUMP JUMPDEST PUSH1 0x40 MLOAD DUP1 SWAP2 SUB SWAP1 LOG1 PUSH32 0x51AB1232A73B82B6B0ACB0FA91B834CF6E258A1858C4E23C72CE97241C71AA0D DUP12 PUSH1 0x0 DUP5 DUP2 SLOAD DUP2 LT PUSH2 0x6778 JUMPI PUSH2 0x6777 PUSH2 0x8F22 JUMP JUMPDEST JUMPDEST SWAP1 PUSH1 0x0 MSTORE PUSH1 0x20 PUSH1 0x0 KECCAK256 SWAP1 PUSH1 0x4 MUL ADD PUSH1 0x1 ADD PUSH1 0x0 SWAP1 SLOAD SWAP1 PUSH2 0x100 EXP SWAP1 DIV PUSH16 0xFFFFFFFFFFFFFFFFFFFFFFFFFFFFFFFF AND PUSH1 0x0 DUP6 DUP2 SLOAD DUP2 LT PUSH2 0x67BA JUMPI PUSH2 0x67B9 PUSH2 0x8F22 JUMP JUMPDEST JUMPDEST SWAP1 PUSH1 0x0 MSTORE PUSH1 0x20 PUSH1 0x0 KECCAK256 SWAP1 PUSH1 0x4 MUL ADD PUSH1 0x1 ADD PUSH1 0x10 SWAP1 SLOAD SWAP1 PUSH2 0x100 EXP SWAP1 DIV PUSH16 0xFFFFFFFFFFFFFFFFFFFFFFFFFFFFFFFF AND PUSH1 0x0 DUP7 DUP2 SLOAD DUP2 LT PUSH2 0x67FC JUMPI PUSH2 0x67FB PUSH2 0x8F22 JUMP JUMPDEST JUMPDEST SWAP1 PUSH1 0x0 MSTORE PUSH1 0x20 PUSH1 0x0 KECCAK256 SWAP1 PUSH1 0x4 MUL ADD PUSH1 0x3 ADD SLOAD PUSH1 0x40 MLOAD PUSH2 0x681E SWAP5 SWAP4 SWAP3 SWAP2 SWAP1 PUSH2 0x976D JUMP JUMPDEST PUSH1 0x40 MLOAD DUP1 SWAP2 SUB SWAP1 LOG1 POP POP POP POP POP POP POP POP POP POP POP JUMP JUMPDEST DUP2 PUSH20 0xFFFFFFFFFFFFFFFFFFFFFFFFFFFFFFFFFFFFFFFF AND DUP4 PUSH20 0xFFFFFFFFFFFFFFFFFFFFFFFFFFFFFFFFFFFFFFFF AND EQ ISZERO PUSH2 0x6899 JUMPI PUSH1 0x40 MLOAD PUSH32 0xC0532DC800000000000000000000000000000000000000000000000000000000 DUP2 MSTORE PUSH1 0x4 ADD PUSH1 0x40 MLOAD DUP1 SWAP2 SUB SWAP1 REVERT JUMPDEST DUP1 PUSH1 0xE PUSH1 0x0 DUP6 PUSH20 0xFFFFFFFFFFFFFFFFFFFFFFFFFFFFFFFFFFFFFFFF AND PUSH20 0xFFFFFFFFFFFFFFFFFFFFFFFFFFFFFFFFFFFFFFFF AND DUP2 MSTORE PUSH1 0x20 ADD SWAP1 DUP2 MSTORE PUSH1 0x20 ADD PUSH1 0x0 KECCAK256 PUSH1 0x0 DUP5 PUSH20 0xFFFFFFFFFFFFFFFFFFFFFFFFFFFFFFFFFFFFFFFF AND PUSH20 0xFFFFFFFFFFFFFFFFFFFFFFFFFFFFFFFFFFFFFFFF AND DUP2 MSTORE PUSH1 0x20 ADD SWAP1 DUP2 MSTORE PUSH1 0x20 ADD PUSH1 0x0 KECCAK256 PUSH1 0x0 PUSH2 0x100 EXP DUP2 SLOAD DUP2 PUSH1 0xFF MUL NOT AND SWAP1 DUP4 ISZERO ISZERO MUL OR SWAP1 SSTORE POP DUP2 PUSH20 0xFFFFFFFFFFFFFFFFFFFFFFFFFFFFFFFFFFFFFFFF AND DUP4 PUSH20 0xFFFFFFFFFFFFFFFFFFFFFFFFFFFFFFFFFFFFFFFF AND PUSH32 0x17307EAB39AB6107E8899845AD3D59BD9653F200F220920489CA2B5937696C31 DUP4 PUSH1 0x40 MLOAD PUSH2 0x698A SWAP2 SWAP1 PUSH2 0x7F2C JUMP JUMPDEST PUSH1 0x40 MLOAD DUP1 SWAP2 SUB SWAP1 LOG3 POP POP POP JUMP JUMPDEST DUP1 PUSH1 0xF SWAP1 DUP1 MLOAD SWAP1 PUSH1 0x20 ADD SWAP1 PUSH2 0x69AD SWAP3 SWAP2 SWAP1 PUSH2 0x7BC5 JUMP JUMPDEST POP POP JUMP JUMPDEST PUSH1 0x0 DUP3 PUSH1 0x0 PUSH1 0x1 PUSH1 0x0 DUP4 PUSH20 0xFFFFFFFFFFFFFFFFFFFFFFFFFFFFFFFFFFFFFFFF AND PUSH20 0xFFFFFFFFFFFFFFFFFFFFFFFFFFFFFFFFFFFFFFFF AND DUP2 MSTORE PUSH1 0x20 ADD SWAP1 DUP2 MSTORE PUSH1 0x20 ADD PUSH1 0x0 KECCAK256 SLOAD EQ DUP1 PUSH2 0x6A4F JUMPI POP PUSH1 0x4 PUSH1 0x0 SWAP1 SLOAD SWAP1 PUSH2 0x100 EXP SWAP1 DIV PUSH20 0xFFFFFFFFFFFFFFFFFFFFFFFFFFFFFFFFFFFFFFFF AND PUSH20 0xFFFFFFFFFFFFFFFFFFFFFFFFFFFFFFFFFFFFFFFF AND DUP2 PUSH20 0xFFFFFFFFFFFFFFFFFFFFFFFFFFFFFFFFFFFFFFFF AND EQ JUMPDEST ISZERO PUSH2 0x6A8F JUMPI PUSH1 0x40 MLOAD PUSH32 0x8C379A000000000000000000000000000000000000000000000000000000000 DUP2 MSTORE PUSH1 0x4 ADD PUSH2 0x6A86 SWAP1 PUSH2 0x8F02 JUMP JUMPDEST PUSH1 0x40 MLOAD DUP1 SWAP2 SUB SWAP1 REVERT JUMPDEST PUSH1 0x0 PUSH1 0x1 PUSH1 0x0 DUP7 PUSH20 0xFFFFFFFFFFFFFFFFFFFFFFFFFFFFFFFFFFFFFFFF AND PUSH20 0xFFFFFFFFFFFFFFFFFFFFFFFFFFFFFFFFFFFFFFFF AND DUP2 MSTORE PUSH1 0x20 ADD SWAP1 DUP2 MSTORE PUSH1 0x20 ADD PUSH1 0x0 KECCAK256 SLOAD SWAP1 POP PUSH2 0x6B8D DUP5 PUSH1 0x0 DUP4 DUP2 SLOAD DUP2 LT PUSH2 0x6AEB JUMPI PUSH2 0x6AEA PUSH2 0x8F22 JUMP JUMPDEST JUMPDEST SWAP1 PUSH1 0x0 MSTORE PUSH1 0x20 PUSH1 0x0 KECCAK256 SWAP1 PUSH1 0x4 MUL ADD PUSH1 0x1 ADD PUSH1 0x0 SWAP1 SLOAD SWAP1 PUSH2 0x100 EXP SWAP1 DIV PUSH16 0xFFFFFFFFFFFFFFFFFFFFFFFFFFFFFFFF AND PUSH16 0xFFFFFFFFFFFFFFFFFFFFFFFFFFFFFFFF AND PUSH1 0x0 DUP5 DUP2 SLOAD DUP2 LT PUSH2 0x6B3F JUMPI PUSH2 0x6B3E PUSH2 0x8F22 JUMP JUMPDEST JUMPDEST SWAP1 PUSH1 0x0 MSTORE PUSH1 0x20 PUSH1 0x0 KECCAK256 SWAP1 PUSH1 0x4 MUL ADD PUSH1 0x1 ADD PUSH1 0x10 SWAP1 SLOAD SWAP1 PUSH2 0x100 EXP SWAP1 DIV PUSH16 0xFFFFFFFFFFFFFFFFFFFFFFFFFFFFFFFF AND PUSH16 0xFFFFFFFFFFFFFFFFFFFFFFFFFFFFFFFF AND PUSH2 0x6B88 DUP6 PUSH2 0x4D38 JUMP JUMPDEST PUSH2 0x7AE8 JUMP JUMPDEST SWAP3 POP POP POP SWAP3 SWAP2 POP POP JUMP JUMPDEST PUSH1 0x0 DUP3 PUSH1 0x0 PUSH1 0x1 PUSH1 0x0 DUP4 PUSH20 0xFFFFFFFFFFFFFFFFFFFFFFFFFFFFFFFFFFFFFFFF AND PUSH20 0xFFFFFFFFFFFFFFFFFFFFFFFFFFFFFFFFFFFFFFFF AND DUP2 MSTORE PUSH1 0x20 ADD SWAP1 DUP2 MSTORE PUSH1 0x20 ADD PUSH1 0x0 KECCAK256 SLOAD EQ DUP1 PUSH2 0x6C35 JUMPI POP PUSH1 0x4 PUSH1 0x0 SWAP1 SLOAD SWAP1 PUSH2 0x100 EXP SWAP1 DIV PUSH20 0xFFFFFFFFFFFFFFFFFFFFFFFFFFFFFFFFFFFFFFFF AND PUSH20 0xFFFFFFFFFFFFFFFFFFFFFFFFFFFFFFFFFFFFFFFF AND DUP2 PUSH20 0xFFFFFFFFFFFFFFFFFFFFFFFFFFFFFFFFFFFFFFFF AND EQ JUMPDEST ISZERO PUSH2 0x6C75 JUMPI PUSH1 0x40 MLOAD PUSH32 0x8C379A000000000000000000000000000000000000000000000000000000000 DUP2 MSTORE PUSH1 0x4 ADD PUSH2 0x6C6C SWAP1 PUSH2 0x8F02 JUMP JUMPDEST PUSH1 0x40 MLOAD DUP1 SWAP2 SUB SWAP1 REVERT JUMPDEST PUSH1 0x0 PUSH1 0x1 PUSH1 0x0 DUP7 PUSH20 0xFFFFFFFFFFFFFFFFFFFFFFFFFFFFFFFFFFFFFFFF AND PUSH20 0xFFFFFFFFFFFFFFFFFFFFFFFFFFFFFFFFFFFFFFFF AND DUP2 MSTORE PUSH1 0x20 ADD SWAP1 DUP2 MSTORE PUSH1 0x20 ADD PUSH1 0x0 KECCAK256 SLOAD SWAP1 POP PUSH2 0x6D6D DUP5 PUSH1 0x0 DUP4 DUP2 SLOAD DUP2 LT PUSH2 0x6CD1 JUMPI PUSH2 0x6CD0 PUSH2 0x8F22 JUMP JUMPDEST JUMPDEST SWAP1 PUSH1 0x0 MSTORE PUSH1 0x20 PUSH1 0x0 KECCAK256 SWAP1 PUSH1 0x4 MUL ADD PUSH1 0x1 ADD PUSH1 0x10 SWAP1 SLOAD SWAP1 PUSH2 0x100 EXP SWAP1 DIV PUSH16 0xFFFFFFFFFFFFFFFFFFFFFFFFFFFFFFFF AND PUSH16 0xFFFFFFFFFFFFFFFFFFFFFFFFFFFFFFFF AND PUSH1 0x0 DUP5 DUP2 SLOAD DUP2 LT PUSH2 0x6D25 JUMPI PUSH2 0x6D24 PUSH2 0x8F22 JUMP JUMPDEST JUMPDEST SWAP1 PUSH1 0x0 MSTORE PUSH1 0x20 PUSH1 0x0 KECCAK256 SWAP1 PUSH1 0x4 MUL ADD PUSH1 0x1 ADD PUSH1 0x0 SWAP1 SLOAD SWAP1 PUSH2 0x100 EXP SWAP1 DIV PUSH16 0xFFFFFFFFFFFFFFFFFFFFFFFFFFFFFFFF AND PUSH16 0xFFFFFFFFFFFFFFFFFFFFFFFFFFFFFFFF AND PUSH2 0x2710 PUSH2 0x7AE8 JUMP JUMPDEST SWAP3 POP POP POP SWAP3 SWAP2 POP POP JUMP JUMPDEST PUSH1 0x0 PUSH20 0xDEF1FAC7BF08F173D286BBBDCBEEADE695129840 PUSH20 0xFFFFFFFFFFFFFFFFFFFFFFFFFFFFFFFFFFFFFFFF AND PUSH4 0x6FB1A07 PUSH1 0x3 PUSH1 0x40 MLOAD DUP3 PUSH4 0xFFFFFFFF AND PUSH1 0xE0 SHL DUP2 MSTORE PUSH1 0x4 ADD PUSH2 0x6DC7 SWAP2 SWAP1 PUSH2 0x7E71 JUMP JUMPDEST PUSH1 0x20 PUSH1 0x40 MLOAD DUP1 DUP4 SUB DUP2 DUP7 GAS STATICCALL ISZERO DUP1 ISZERO PUSH2 0x6DE4 JUMPI RETURNDATASIZE PUSH1 0x0 DUP1 RETURNDATACOPY RETURNDATASIZE PUSH1 0x0 REVERT JUMPDEST POP POP POP POP PUSH1 0x40 MLOAD RETURNDATASIZE PUSH1 0x1F NOT PUSH1 0x1F DUP3 ADD AND DUP3 ADD DUP1 PUSH1 0x40 MSTORE POP DUP2 ADD SWAP1 PUSH2 0x6E08 SWAP2 SWAP1 PUSH2 0x8FC9 JUMP JUMPDEST SWAP1 POP DUP1 PUSH20 0xFFFFFFFFFFFFFFFFFFFFFFFFFFFFFFFFFFFFFFFF AND PUSH4 0x322D5FBC DUP6 DUP6 PUSH1 0x40 MLOAD DUP4 PUSH4 0xFFFFFFFF AND PUSH1 0xE0 SHL DUP2 MSTORE PUSH1 0x4 ADD PUSH2 0x6E45 SWAP3 SWAP2 SWAP1 PUSH2 0x97B2 JUMP JUMPDEST PUSH1 0x20 PUSH1 0x40 MLOAD DUP1 DUP4 SUB DUP2 PUSH1 0x0 DUP8 GAS CALL ISZERO DUP1 ISZERO PUSH2 0x6E64 JUMPI RETURNDATASIZE PUSH1 0x0 DUP1 RETURNDATACOPY RETURNDATASIZE PUSH1 0x0 REVERT JUMPDEST POP POP POP POP PUSH1 0x40 MLOAD RETURNDATASIZE PUSH1 0x1F NOT PUSH1 0x1F DUP3 ADD AND DUP3 ADD DUP1 PUSH1 0x40 MSTORE POP DUP2 ADD SWAP1 PUSH2 0x6E88 SWAP2 SWAP1 PUSH2 0x97F0 JUMP JUMPDEST PUSH2 0x6EBE JUMPI PUSH1 0x40 MLOAD PUSH32 0xE30CF0F00000000000000000000000000000000000000000000000000000000 DUP2 MSTORE PUSH1 0x4 ADD PUSH1 0x40 MLOAD DUP1 SWAP2 SUB SWAP1 REVERT JUMPDEST ADDRESS PUSH20 0xFFFFFFFFFFFFFFFFFFFFFFFFFFFFFFFFFFFFFFFF AND DUP3 PUSH20 0xFFFFFFFFFFFFFFFFFFFFFFFFFFFFFFFFFFFFFFFF AND EQ PUSH2 0x6F5F JUMPI DUP1 PUSH20 0xFFFFFFFFFFFFFFFFFFFFFFFFFFFFFFFFFFFFFFFF AND PUSH4 0x72E64AD6 DUP6 DUP5 PUSH1 0x40 MLOAD DUP4 PUSH4 0xFFFFFFFF AND PUSH1 0xE0 SHL DUP2 MSTORE PUSH1 0x4 ADD PUSH2 0x6F2C SWAP3 SWAP2 SWAP1 PUSH2 0x97B2 JUMP JUMPDEST PUSH1 0x0 PUSH1 0x40 MLOAD DUP1 DUP4 SUB DUP2 PUSH1 0x0 DUP8 DUP1 EXTCODESIZE ISZERO DUP1 ISZERO PUSH2 0x6F46 JUMPI PUSH1 0x0 DUP1 REVERT JUMPDEST POP GAS CALL ISZERO DUP1 ISZERO PUSH2 0x6F5A JUMPI RETURNDATASIZE PUSH1 0x0 DUP1 RETURNDATACOPY RETURNDATASIZE PUSH1 0x0 REVERT JUMPDEST POP POP POP POP JUMPDEST POP POP POP POP JUMP JUMPDEST PUSH1 0x0 PUSH20 0xFFFFFFFFFFFFFFFFFFFFFFFFFFFFFFFFFFFFFFFF AND DUP5 PUSH20 0xFFFFFFFFFFFFFFFFFFFFFFFFFFFFFFFFFFFFFFFF AND EQ ISZERO PUSH2 0x6FCC JUMPI PUSH1 0x40 MLOAD PUSH32 0x3E63C34800000000000000000000000000000000000000000000000000000000 DUP2 MSTORE PUSH1 0x4 ADD PUSH1 0x40 MLOAD DUP1 SWAP2 SUB SWAP1 REVERT JUMPDEST PUSH1 0x0 PUSH2 0x6FD6 PUSH2 0x4514 JUMP JUMPDEST SWAP1 POP PUSH2 0x6FF6 DUP2 DUP8 DUP8 PUSH2 0x6FE7 DUP9 PUSH2 0x7739 JUMP JUMPDEST PUSH2 0x6FF0 DUP9 PUSH2 0x7739 JUMP JUMPDEST DUP8 PUSH2 0x77B3 JUMP JUMPDEST PUSH1 0x0 PUSH1 0xD PUSH1 0x0 DUP7 DUP2 MSTORE PUSH1 0x20 ADD SWAP1 DUP2 MSTORE PUSH1 0x20 ADD PUSH1 0x0 KECCAK256 PUSH1 0x0 DUP9 PUSH20 0xFFFFFFFFFFFFFFFFFFFFFFFFFFFFFFFFFFFFFFFF AND PUSH20 0xFFFFFFFFFFFFFFFFFFFFFFFFFFFFFFFFFFFFFFFF AND DUP2 MSTORE PUSH1 0x20 ADD SWAP1 DUP2 MSTORE PUSH1 0x20 ADD PUSH1 0x0 KECCAK256 SLOAD SWAP1 POP DUP4 DUP2 LT ISZERO PUSH2 0x7085 JUMPI PUSH1 0x40 MLOAD PUSH32 0x5AD11EC200000000000000000000000000000000000000000000000000000000 DUP2 MSTORE PUSH1 0x4 ADD PUSH1 0x40 MLOAD DUP1 SWAP2 SUB SWAP1 REVERT JUMPDEST DUP4 DUP2 SUB PUSH1 0xD PUSH1 0x0 DUP8 DUP2 MSTORE PUSH1 0x20 ADD SWAP1 DUP2 MSTORE PUSH1 0x20 ADD PUSH1 0x0 KECCAK256 PUSH1 0x0 DUP10 PUSH20 0xFFFFFFFFFFFFFFFFFFFFFFFFFFFFFFFFFFFFFFFF AND PUSH20 0xFFFFFFFFFFFFFFFFFFFFFFFFFFFFFFFFFFFFFFFF AND DUP2 MSTORE PUSH1 0x20 ADD SWAP1 DUP2 MSTORE PUSH1 0x20 ADD PUSH1 0x0 KECCAK256 DUP2 SWAP1 SSTORE POP DUP4 PUSH1 0xD PUSH1 0x0 DUP8 DUP2 MSTORE PUSH1 0x20 ADD SWAP1 DUP2 MSTORE PUSH1 0x20 ADD PUSH1 0x0 KECCAK256 PUSH1 0x0 DUP9 PUSH20 0xFFFFFFFFFFFFFFFFFFFFFFFFFFFFFFFFFFFFFFFF AND PUSH20 0xFFFFFFFFFFFFFFFFFFFFFFFFFFFFFFFFFFFFFFFF AND DUP2 MSTORE PUSH1 0x20 ADD SWAP1 DUP2 MSTORE PUSH1 0x20 ADD PUSH1 0x0 KECCAK256 PUSH1 0x0 DUP3 DUP3 SLOAD PUSH2 0x713C SWAP2 SWAP1 PUSH2 0x948E JUMP JUMPDEST SWAP3 POP POP DUP2 SWAP1 SSTORE POP DUP6 PUSH20 0xFFFFFFFFFFFFFFFFFFFFFFFFFFFFFFFFFFFFFFFF AND DUP8 PUSH20 0xFFFFFFFFFFFFFFFFFFFFFFFFFFFFFFFFFFFFFFFF AND DUP4 PUSH20 0xFFFFFFFFFFFFFFFFFFFFFFFFFFFFFFFFFFFFFFFF AND PUSH32 0xC3D58168C5AE7397731D063D5BBF3D657854427343F4C083240F7AACAA2D0F62 DUP9 DUP9 PUSH1 0x40 MLOAD PUSH2 0x71B9 SWAP3 SWAP2 SWAP1 PUSH2 0x8BFC JUMP JUMPDEST PUSH1 0x40 MLOAD DUP1 SWAP2 SUB SWAP1 LOG4 PUSH2 0x71CF DUP3 DUP9 DUP9 DUP9 DUP9 DUP9 PUSH2 0x792D JUMP JUMPDEST POP POP POP POP POP POP POP JUMP JUMPDEST PUSH1 0x0 PUSH20 0xFFFFFFFFFFFFFFFFFFFFFFFFFFFFFFFFFFFFFFFF AND DUP4 PUSH20 0xFFFFFFFFFFFFFFFFFFFFFFFFFFFFFFFFFFFFFFFF AND EQ ISZERO PUSH2 0x723F JUMPI PUSH1 0x40 MLOAD PUSH32 0xEDBA591D00000000000000000000000000000000000000000000000000000000 DUP2 MSTORE PUSH1 0x4 ADD PUSH1 0x40 MLOAD DUP1 SWAP2 SUB SWAP1 REVERT JUMPDEST PUSH1 0x0 PUSH2 0x7249 PUSH2 0x4514 JUMP JUMPDEST SWAP1 POP PUSH2 0x7279 DUP2 DUP6 PUSH1 0x0 PUSH2 0x725B DUP8 PUSH2 0x7739 JUMP JUMPDEST PUSH2 0x7264 DUP8 PUSH2 0x7739 JUMP JUMPDEST PUSH1 0x40 MLOAD DUP1 PUSH1 0x20 ADD PUSH1 0x40 MSTORE DUP1 PUSH1 0x0 DUP2 MSTORE POP PUSH2 0x77B3 JUMP JUMPDEST PUSH1 0x0 PUSH1 0xD PUSH1 0x0 DUP6 DUP2 MSTORE PUSH1 0x20 ADD SWAP1 DUP2 MSTORE PUSH1 0x20 ADD PUSH1 0x0 KECCAK256 PUSH1 0x0 DUP7 PUSH20 0xFFFFFFFFFFFFFFFFFFFFFFFFFFFFFFFFFFFFFFFF AND PUSH20 0xFFFFFFFFFFFFFFFFFFFFFFFFFFFFFFFFFFFFFFFF AND DUP2 MSTORE PUSH1 0x20 ADD SWAP1 DUP2 MSTORE PUSH1 0x20 ADD PUSH1 0x0 KECCAK256 SLOAD SWAP1 POP DUP3 DUP2 LT ISZERO PUSH2 0x7308 JUMPI PUSH1 0x40 MLOAD PUSH32 0x73ECA78400000000000000000000000000000000000000000000000000000000 DUP2 MSTORE PUSH1 0x4 ADD PUSH1 0x40 MLOAD DUP1 SWAP2 SUB SWAP1 REVERT JUMPDEST DUP3 DUP2 SUB PUSH1 0xD PUSH1 0x0 DUP7 DUP2 MSTORE PUSH1 0x20 ADD SWAP1 DUP2 MSTORE PUSH1 0x20 ADD PUSH1 0x0 KECCAK256 PUSH1 0x0 DUP8 PUSH20 0xFFFFFFFFFFFFFFFFFFFFFFFFFFFFFFFFFFFFFFFF AND PUSH20 0xFFFFFFFFFFFFFFFFFFFFFFFFFFFFFFFFFFFFFFFF AND DUP2 MSTORE PUSH1 0x20 ADD SWAP1 DUP2 MSTORE PUSH1 0x20 ADD PUSH1 0x0 KECCAK256 DUP2 SWAP1 SSTORE POP PUSH1 0x0 PUSH20 0xFFFFFFFFFFFFFFFFFFFFFFFFFFFFFFFFFFFFFFFF AND DUP6 PUSH20 0xFFFFFFFFFFFFFFFFFFFFFFFFFFFFFFFFFFFFFFFF AND DUP4 PUSH20 0xFFFFFFFFFFFFFFFFFFFFFFFFFFFFFFFFFFFFFFFF AND PUSH32 0xC3D58168C5AE7397731D063D5BBF3D657854427343F4C083240F7AACAA2D0F62 DUP8 DUP8 PUSH1 0x40 MLOAD PUSH2 0x73D6 SWAP3 SWAP2 SWAP1 PUSH2 0x8BFC JUMP JUMPDEST PUSH1 0x40 MLOAD DUP1 SWAP2 SUB SWAP1 LOG4 POP POP POP POP POP JUMP JUMPDEST PUSH1 0x0 DUP3 PUSH20 0xFFFFFFFFFFFFFFFFFFFFFFFFFFFFFFFFFFFFFFFF AND DUP3 PUSH1 0x0 PUSH8 0xFFFFFFFFFFFFFFFF DUP2 GT ISZERO PUSH2 0x741A JUMPI PUSH2 0x7419 PUSH2 0x80DC JUMP JUMPDEST JUMPDEST PUSH1 0x40 MLOAD SWAP1 DUP1 DUP3 MSTORE DUP1 PUSH1 0x1F ADD PUSH1 0x1F NOT AND PUSH1 0x20 ADD DUP3 ADD PUSH1 0x40 MSTORE DUP1 ISZERO PUSH2 0x744C JUMPI DUP2 PUSH1 0x20 ADD PUSH1 0x1 DUP3 MUL DUP1 CALLDATASIZE DUP4 CALLDATACOPY DUP1 DUP3 ADD SWAP2 POP POP SWAP1 POP JUMPDEST POP PUSH1 0x40 MLOAD PUSH2 0x745A SWAP2 SWAP1 PUSH2 0x9E60 JUMP JUMPDEST PUSH1 0x0 PUSH1 0x40 MLOAD DUP1 DUP4 SUB DUP2 DUP6 DUP8 GAS CALL SWAP3 POP POP POP RETURNDATASIZE DUP1 PUSH1 0x0 DUP2 EQ PUSH2 0x7497 JUMPI PUSH1 0x40 MLOAD SWAP2 POP PUSH1 0x1F NOT PUSH1 0x3F RETURNDATASIZE ADD AND DUP3 ADD PUSH1 0x40 MSTORE RETURNDATASIZE DUP3 MSTORE RETURNDATASIZE PUSH1 0x0 PUSH1 0x20 DUP5 ADD RETURNDATACOPY PUSH2 0x749C JUMP JUMPDEST PUSH1 0x60 SWAP2 POP JUMPDEST POP POP SWAP1 POP DUP1 PUSH2 0x74D7 JUMPI PUSH1 0x40 MLOAD PUSH32 0x30667AAB00000000000000000000000000000000000000000000000000000000 DUP2 MSTORE PUSH1 0x4 ADD PUSH1 0x40 MLOAD DUP1 SWAP2 SUB SWAP1 REVERT JUMPDEST POP POP POP JUMP JUMPDEST PUSH1 0x0 DUP1 DUP5 PUSH20 0xFFFFFFFFFFFFFFFFFFFFFFFFFFFFFFFFFFFFFFFF AND PUSH4 0xA9059CBB DUP6 DUP6 PUSH1 0x40 MLOAD PUSH1 0x24 ADD PUSH2 0x750E SWAP3 SWAP2 SWAP1 PUSH2 0x961C JUMP JUMPDEST PUSH1 0x40 MLOAD PUSH1 0x20 DUP2 DUP4 SUB SUB DUP2 MSTORE SWAP1 PUSH1 0x40 MSTORE SWAP1 PUSH1 0xE0 SHL PUSH1 0x20 DUP3 ADD DUP1 MLOAD PUSH28 0xFFFFFFFFFFFFFFFFFFFFFFFFFFFFFFFFFFFFFFFFFFFFFFFFFFFFFFFF DUP4 DUP2 DUP4 AND OR DUP4 MSTORE POP POP POP POP PUSH1 0x40 MLOAD PUSH2 0x755C SWAP2 SWAP1 PUSH2 0x9E60 JUMP JUMPDEST PUSH1 0x0 PUSH1 0x40 MLOAD DUP1 DUP4 SUB DUP2 PUSH1 0x0 DUP7 GAS CALL SWAP2 POP POP RETURNDATASIZE DUP1 PUSH1 0x0 DUP2 EQ PUSH2 0x7599 JUMPI PUSH1 0x40 MLOAD SWAP2 POP PUSH1 0x1F NOT PUSH1 0x3F RETURNDATASIZE ADD AND DUP3 ADD PUSH1 0x40 MSTORE RETURNDATASIZE DUP3 MSTORE RETURNDATASIZE PUSH1 0x0 PUSH1 0x20 DUP5 ADD RETURNDATACOPY PUSH2 0x759E JUMP JUMPDEST PUSH1 0x60 SWAP2 POP JUMPDEST POP SWAP2 POP SWAP2 POP DUP2 DUP1 ISZERO PUSH2 0x75CC JUMPI POP PUSH1 0x0 DUP2 MLOAD EQ DUP1 PUSH2 0x75CB JUMPI POP DUP1 DUP1 PUSH1 0x20 ADD SWAP1 MLOAD DUP2 ADD SWAP1 PUSH2 0x75CA SWAP2 SWAP1 PUSH2 0x97F0 JUMP JUMPDEST JUMPDEST JUMPDEST PUSH2 0x7602 JUMPI PUSH1 0x40 MLOAD PUSH32 0x7805DA5300000000000000000000000000000000000000000000000000000000 DUP2 MSTORE PUSH1 0x4 ADD PUSH1 0x40 MLOAD DUP1 SWAP2 SUB SWAP1 REVERT JUMPDEST POP POP POP POP POP JUMP JUMPDEST PUSH1 0x0 DUP1 DUP6 PUSH20 0xFFFFFFFFFFFFFFFFFFFFFFFFFFFFFFFFFFFFFFFF AND PUSH4 0x23B872DD DUP7 DUP7 DUP7 PUSH1 0x40 MLOAD PUSH1 0x24 ADD PUSH2 0x763D SWAP4 SWAP3 SWAP2 SWAP1 PUSH2 0x9E77 JUMP JUMPDEST PUSH1 0x40 MLOAD PUSH1 0x20 DUP2 DUP4 SUB SUB DUP2 MSTORE SWAP1 PUSH1 0x40 MSTORE SWAP1 PUSH1 0xE0 SHL PUSH1 0x20 DUP3 ADD DUP1 MLOAD PUSH28 0xFFFFFFFFFFFFFFFFFFFFFFFFFFFFFFFFFFFFFFFFFFFFFFFFFFFFFFFF DUP4 DUP2 DUP4 AND OR DUP4 MSTORE POP POP POP POP PUSH1 0x40 MLOAD PUSH2 0x768B SWAP2 SWAP1 PUSH2 0x9E60 JUMP JUMPDEST PUSH1 0x0 PUSH1 0x40 MLOAD DUP1 DUP4 SUB DUP2 PUSH1 0x0 DUP7 GAS CALL SWAP2 POP POP RETURNDATASIZE DUP1 PUSH1 0x0 DUP2 EQ PUSH2 0x76C8 JUMPI PUSH1 0x40 MLOAD SWAP2 POP PUSH1 0x1F NOT PUSH1 0x3F RETURNDATASIZE ADD AND DUP3 ADD PUSH1 0x40 MSTORE RETURNDATASIZE DUP3 MSTORE RETURNDATASIZE PUSH1 0x0 PUSH1 0x20 DUP5 ADD RETURNDATACOPY PUSH2 0x76CD JUMP JUMPDEST PUSH1 0x60 SWAP2 POP JUMPDEST POP SWAP2 POP SWAP2 POP DUP2 DUP1 ISZERO PUSH2 0x76FB JUMPI POP PUSH1 0x0 DUP2 MLOAD EQ DUP1 PUSH2 0x76FA JUMPI POP DUP1 DUP1 PUSH1 0x20 ADD SWAP1 MLOAD DUP2 ADD SWAP1 PUSH2 0x76F9 SWAP2 SWAP1 PUSH2 0x97F0 JUMP JUMPDEST JUMPDEST JUMPDEST PUSH2 0x7731 JUMPI PUSH1 0x40 MLOAD PUSH32 0x6050FE2900000000000000000000000000000000000000000000000000000000 DUP2 MSTORE PUSH1 0x4 ADD PUSH1 0x40 MLOAD DUP1 SWAP2 SUB SWAP1 REVERT JUMPDEST POP POP POP POP POP POP JUMP JUMPDEST PUSH1 0x60 PUSH1 0x0 PUSH1 0x1 PUSH8 0xFFFFFFFFFFFFFFFF DUP2 GT ISZERO PUSH2 0x7758 JUMPI PUSH2 0x7757 PUSH2 0x80DC JUMP JUMPDEST JUMPDEST PUSH1 0x40 MLOAD SWAP1 DUP1 DUP3 MSTORE DUP1 PUSH1 0x20 MUL PUSH1 0x20 ADD DUP3 ADD PUSH1 0x40 MSTORE DUP1 ISZERO PUSH2 0x7786 JUMPI DUP2 PUSH1 0x20 ADD PUSH1 0x20 DUP3 MUL DUP1 CALLDATASIZE DUP4 CALLDATACOPY DUP1 DUP3 ADD SWAP2 POP POP SWAP1 POP JUMPDEST POP SWAP1 POP DUP3 DUP2 PUSH1 0x0 DUP2 MLOAD DUP2 LT PUSH2 0x779E JUMPI PUSH2 0x779D PUSH2 0x8F22 JUMP JUMPDEST JUMPDEST PUSH1 0x20 MUL PUSH1 0x20 ADD ADD DUP2 DUP2 MSTORE POP POP DUP1 SWAP2 POP POP SWAP2 SWAP1 POP JUMP JUMPDEST PUSH2 0x77C1 DUP7 DUP7 DUP7 DUP7 DUP7 DUP7 PUSH2 0x7B3F JUMP JUMPDEST PUSH1 0x0 PUSH20 0xFFFFFFFFFFFFFFFFFFFFFFFFFFFFFFFFFFFFFFFF AND DUP6 PUSH20 0xFFFFFFFFFFFFFFFFFFFFFFFFFFFFFFFFFFFFFFFF AND EQ ISZERO PUSH2 0x7873 JUMPI PUSH1 0x0 JUMPDEST DUP4 MLOAD DUP2 LT ISZERO PUSH2 0x7871 JUMPI DUP3 DUP2 DUP2 MLOAD DUP2 LT PUSH2 0x7815 JUMPI PUSH2 0x7814 PUSH2 0x8F22 JUMP JUMPDEST JUMPDEST PUSH1 0x20 MUL PUSH1 0x20 ADD ADD MLOAD PUSH1 0x10 PUSH1 0x0 DUP7 DUP5 DUP2 MLOAD DUP2 LT PUSH2 0x7834 JUMPI PUSH2 0x7833 PUSH2 0x8F22 JUMP JUMPDEST JUMPDEST PUSH1 0x20 MUL PUSH1 0x20 ADD ADD MLOAD DUP2 MSTORE PUSH1 0x20 ADD SWAP1 DUP2 MSTORE PUSH1 0x20 ADD PUSH1 0x0 KECCAK256 PUSH1 0x0 DUP3 DUP3 SLOAD PUSH2 0x7859 SWAP2 SWAP1 PUSH2 0x948E JUMP JUMPDEST SWAP3 POP POP DUP2 SWAP1 SSTORE POP DUP1 PUSH2 0x786A SWAP1 PUSH2 0x9445 JUMP JUMPDEST SWAP1 POP PUSH2 0x77F9 JUMP JUMPDEST POP JUMPDEST PUSH1 0x0 PUSH20 0xFFFFFFFFFFFFFFFFFFFFFFFFFFFFFFFFFFFFFFFF AND DUP5 PUSH20 0xFFFFFFFFFFFFFFFFFFFFFFFFFFFFFFFFFFFFFFFF AND EQ ISZERO PUSH2 0x7925 JUMPI PUSH1 0x0 JUMPDEST DUP4 MLOAD DUP2 LT ISZERO PUSH2 0x7923 JUMPI DUP3 DUP2 DUP2 MLOAD DUP2 LT PUSH2 0x78C7 JUMPI PUSH2 0x78C6 PUSH2 0x8F22 JUMP JUMPDEST JUMPDEST PUSH1 0x20 MUL PUSH1 0x20 ADD ADD MLOAD PUSH1 0x10 PUSH1 0x0 DUP7 DUP5 DUP2 MLOAD DUP2 LT PUSH2 0x78E6 JUMPI PUSH2 0x78E5 PUSH2 0x8F22 JUMP JUMPDEST JUMPDEST PUSH1 0x20 MUL PUSH1 0x20 ADD ADD MLOAD DUP2 MSTORE PUSH1 0x20 ADD SWAP1 DUP2 MSTORE PUSH1 0x20 ADD PUSH1 0x0 KECCAK256 PUSH1 0x0 DUP3 DUP3 SLOAD PUSH2 0x790B SWAP2 SWAP1 PUSH2 0x8F80 JUMP JUMPDEST SWAP3 POP POP DUP2 SWAP1 SSTORE POP DUP1 PUSH2 0x791C SWAP1 PUSH2 0x9445 JUMP JUMPDEST SWAP1 POP PUSH2 0x78AB JUMP JUMPDEST POP JUMPDEST POP POP POP POP POP POP JUMP JUMPDEST PUSH2 0x7936 DUP5 PUSH2 0x7B47 JUMP JUMPDEST ISZERO PUSH2 0x7A6E JUMPI DUP4 PUSH20 0xFFFFFFFFFFFFFFFFFFFFFFFFFFFFFFFFFFFFFFFF AND PUSH4 0xF23A6E61 DUP8 DUP8 DUP7 DUP7 DUP7 PUSH1 0x40 MLOAD DUP7 PUSH4 0xFFFFFFFF AND PUSH1 0xE0 SHL DUP2 MSTORE PUSH1 0x4 ADD PUSH2 0x797C SWAP6 SWAP5 SWAP4 SWAP3 SWAP2 SWAP1 PUSH2 0x9EF8 JUMP JUMPDEST PUSH1 0x20 PUSH1 0x40 MLOAD DUP1 DUP4 SUB DUP2 PUSH1 0x0 DUP8 GAS CALL SWAP3 POP POP POP DUP1 ISZERO PUSH2 0x79B8 JUMPI POP PUSH1 0x40 MLOAD RETURNDATASIZE PUSH1 0x1F NOT PUSH1 0x1F DUP3 ADD AND DUP3 ADD DUP1 PUSH1 0x40 MSTORE POP DUP2 ADD SWAP1 PUSH2 0x79B5 SWAP2 SWAP1 PUSH2 0x9F67 JUMP JUMPDEST PUSH1 0x1 JUMPDEST PUSH2 0x79EE JUMPI PUSH1 0x40 MLOAD PUSH32 0x45D406B200000000000000000000000000000000000000000000000000000000 DUP2 MSTORE PUSH1 0x4 ADD PUSH1 0x40 MLOAD DUP1 SWAP2 SUB SWAP1 REVERT JUMPDEST PUSH4 0xF23A6E61 PUSH1 0xE0 SHL PUSH28 0xFFFFFFFFFFFFFFFFFFFFFFFFFFFFFFFFFFFFFFFFFFFFFFFFFFFFFFFF NOT AND DUP2 PUSH28 0xFFFFFFFFFFFFFFFFFFFFFFFFFFFFFFFFFFFFFFFFFFFFFFFFFFFFFFFF NOT AND EQ PUSH2 0x7A6C JUMPI PUSH1 0x40 MLOAD PUSH32 0x2BAA526E00000000000000000000000000000000000000000000000000000000 DUP2 MSTORE PUSH1 0x4 ADD PUSH1 0x40 MLOAD DUP1 SWAP2 SUB SWAP1 REVERT JUMPDEST POP JUMPDEST POP POP POP POP POP POP JUMP JUMPDEST PUSH1 0x0 DUP1 DUP3 DUP7 PUSH2 0x7A85 SWAP2 SWAP1 PUSH2 0x9057 JUMP JUMPDEST SWAP1 POP PUSH1 0x0 DUP2 PUSH2 0x2710 DUP8 PUSH2 0x7A98 SWAP2 SWAP1 PUSH2 0x9057 JUMP JUMPDEST PUSH2 0x7AA2 SWAP2 SWAP1 PUSH2 0x948E JUMP JUMPDEST DUP3 DUP7 PUSH2 0x7AAE SWAP2 SWAP1 PUSH2 0x9057 JUMP JUMPDEST PUSH2 0x7AB8 SWAP2 SWAP1 PUSH2 0x95EB JUMP JUMPDEST SWAP1 POP DUP1 SWAP3 POP POP POP SWAP5 SWAP4 POP POP POP POP JUMP JUMPDEST PUSH1 0x0 PUSH1 0x8 PUSH2 0x3840 TIMESTAMP PUSH2 0x7AD9 SWAP2 SWAP1 PUSH2 0x95EB JUMP JUMPDEST PUSH2 0x7AE3 SWAP2 SWAP1 PUSH2 0x9BF2 JUMP JUMPDEST SWAP1 POP SWAP1 JUMP JUMPDEST PUSH1 0x0 DUP1 PUSH1 0x1 DUP7 DUP6 PUSH2 0x7AF9 SWAP2 SWAP1 PUSH2 0x8F80 JUMP JUMPDEST DUP5 PUSH2 0x7B04 SWAP2 SWAP1 PUSH2 0x9057 JUMP JUMPDEST PUSH2 0x2710 DUP9 DUP9 PUSH2 0x7B13 SWAP2 SWAP1 PUSH2 0x9057 JUMP JUMPDEST PUSH2 0x7B1D SWAP2 SWAP1 PUSH2 0x9057 JUMP JUMPDEST PUSH2 0x7B27 SWAP2 SWAP1 PUSH2 0x95EB JUMP JUMPDEST PUSH2 0x7B31 SWAP2 SWAP1 PUSH2 0x948E JUMP JUMPDEST SWAP1 POP DUP1 SWAP2 POP POP SWAP5 SWAP4 POP POP POP POP JUMP JUMPDEST POP POP POP POP POP POP JUMP JUMPDEST PUSH1 0x0 DUP1 DUP3 EXTCODESIZE SWAP1 POP PUSH1 0x0 DUP2 GT SWAP2 POP POP SWAP2 SWAP1 POP JUMP JUMPDEST PUSH1 0x40 MLOAD DUP1 PUSH1 0xA0 ADD PUSH1 0x40 MSTORE DUP1 PUSH2 0x7B6D PUSH2 0x7C97 JUMP JUMPDEST DUP2 MSTORE PUSH1 0x20 ADD PUSH1 0x0 PUSH16 0xFFFFFFFFFFFFFFFFFFFFFFFFFFFFFFFF AND DUP2 MSTORE PUSH1 0x20 ADD PUSH1 0x0 PUSH16 0xFFFFFFFFFFFFFFFFFFFFFFFFFFFFFFFF AND DUP2 MSTORE PUSH1 0x20 ADD PUSH1 0x0 PUSH16 0xFFFFFFFFFFFFFFFFFFFFFFFFFFFFFFFF AND DUP2 MSTORE PUSH1 0x20 ADD PUSH1 0x0 DUP2 MSTORE POP SWAP1 JUMP JUMPDEST DUP3 DUP1 SLOAD PUSH2 0x7BD1 SWAP1 PUSH2 0x9025 JUMP JUMPDEST SWAP1 PUSH1 0x0 MSTORE PUSH1 0x20 PUSH1 0x0 KECCAK256 SWAP1 PUSH1 0x1F ADD PUSH1 0x20 SWAP1 DIV DUP2 ADD SWAP3 DUP3 PUSH2 0x7BF3 JUMPI PUSH1 0x0 DUP6 SSTORE PUSH2 0x7C3A JUMP JUMPDEST DUP3 PUSH1 0x1F LT PUSH2 0x7C0C JUMPI DUP1 MLOAD PUSH1 0xFF NOT AND DUP4 DUP1 ADD OR DUP6 SSTORE PUSH2 0x7C3A JUMP JUMPDEST DUP3 DUP1 ADD PUSH1 0x1 ADD DUP6 SSTORE DUP3 ISZERO PUSH2 0x7C3A JUMPI SWAP2 DUP3 ADD JUMPDEST DUP3 DUP2 GT ISZERO PUSH2 0x7C39 JUMPI DUP3 MLOAD DUP3 SSTORE SWAP2 PUSH1 0x20 ADD SWAP2 SWAP1 PUSH1 0x1 ADD SWAP1 PUSH2 0x7C1E JUMP JUMPDEST JUMPDEST POP SWAP1 POP PUSH2 0x7C47 SWAP2 SWAP1 PUSH2 0x7D5D JUMP JUMPDEST POP SWAP1 JUMP JUMPDEST PUSH1 0x40 MLOAD DUP1 PUSH1 0xC0 ADD PUSH1 0x40 MSTORE DUP1 PUSH1 0x0 PUSH20 0xFFFFFFFFFFFFFFFFFFFFFFFFFFFFFFFFFFFFFFFF AND DUP2 MSTORE PUSH1 0x20 ADD PUSH1 0x0 DUP2 MSTORE PUSH1 0x20 ADD PUSH1 0x0 DUP2 MSTORE PUSH1 0x20 ADD PUSH1 0x0 DUP2 MSTORE PUSH1 0x20 ADD PUSH1 0x0 DUP2 MSTORE PUSH1 0x20 ADD PUSH1 0x0 DUP2 MSTORE POP SWAP1 JUMP JUMPDEST PUSH1 0x40 MLOAD DUP1 PUSH2 0x100 ADD PUSH1 0x40 MSTORE DUP1 PUSH1 0x8 SWAP1 PUSH1 0x20 DUP3 MUL DUP1 CALLDATASIZE DUP4 CALLDATACOPY DUP1 DUP3 ADD SWAP2 POP POP SWAP1 POP POP SWAP1 JUMP JUMPDEST DUP3 PUSH1 0x8 PUSH1 0x7 ADD PUSH1 0x8 SWAP1 DIV DUP2 ADD SWAP3 DUP3 ISZERO PUSH2 0x7D4C JUMPI SWAP2 PUSH1 0x20 MUL DUP3 ADD PUSH1 0x0 JUMPDEST DUP4 DUP3 GT ISZERO PUSH2 0x7D1A JUMPI DUP4 MLOAD DUP4 DUP3 PUSH2 0x100 EXP DUP2 SLOAD DUP2 PUSH4 0xFFFFFFFF MUL NOT AND SWAP1 DUP4 PUSH4 0xFFFFFFFF AND MUL OR SWAP1 SSTORE POP SWAP3 PUSH1 0x20 ADD SWAP3 PUSH1 0x4 ADD PUSH1 0x20 DUP2 PUSH1 0x3 ADD DIV SWAP3 DUP4 ADD SWAP3 PUSH1 0x1 SUB MUL PUSH2 0x7CD6 JUMP JUMPDEST DUP1 ISZERO PUSH2 0x7D4A JUMPI DUP3 DUP2 PUSH2 0x100 EXP DUP2 SLOAD SWAP1 PUSH4 0xFFFFFFFF MUL NOT AND SWAP1 SSTORE PUSH1 0x4 ADD PUSH1 0x20 DUP2 PUSH1 0x3 ADD DIV SWAP3 DUP4 ADD SWAP3 PUSH1 0x1 SUB MUL PUSH2 0x7D1A JUMP JUMPDEST POP JUMPDEST POP SWAP1 POP PUSH2 0x7D59 SWAP2 SWAP1 PUSH2 0x7D5D JUMP JUMPDEST POP SWAP1 JUMP JUMPDEST JUMPDEST DUP1 DUP3 GT ISZERO PUSH2 0x7D76 JUMPI PUSH1 0x0 DUP2 PUSH1 0x0 SWAP1 SSTORE POP PUSH1 0x1 ADD PUSH2 0x7D5E JUMP JUMPDEST POP SWAP1 JUMP JUMPDEST PUSH1 0x0 PUSH1 0x40 MLOAD SWAP1 POP SWAP1 JUMP JUMPDEST PUSH1 0x0 DUP1 REVERT JUMPDEST PUSH1 0x0 DUP1 REVERT JUMPDEST PUSH1 0x0 PUSH20 0xFFFFFFFFFFFFFFFFFFFFFFFFFFFFFFFFFFFFFFFF DUP3 AND SWAP1 POP SWAP2 SWAP1 POP JUMP JUMPDEST PUSH1 0x0 PUSH2 0x7DB9 DUP3 PUSH2 0x7D8E JUMP JUMPDEST SWAP1 POP SWAP2 SWAP1 POP JUMP JUMPDEST PUSH2 0x7DC9 DUP2 PUSH2 0x7DAE JUMP JUMPDEST DUP2 EQ PUSH2 0x7DD4 JUMPI PUSH1 0x0 DUP1 REVERT JUMPDEST POP JUMP JUMPDEST PUSH1 0x0 DUP2 CALLDATALOAD SWAP1 POP PUSH2 0x7DE6 DUP2 PUSH2 0x7DC0 JUMP JUMPDEST SWAP3 SWAP2 POP POP JUMP JUMPDEST PUSH1 0x0 DUP2 SWAP1 POP SWAP2 SWAP1 POP JUMP JUMPDEST PUSH2 0x7DFF DUP2 PUSH2 0x7DEC JUMP JUMPDEST DUP2 EQ PUSH2 0x7E0A JUMPI PUSH1 0x0 DUP1 REVERT JUMPDEST POP JUMP JUMPDEST PUSH1 0x0 DUP2 CALLDATALOAD SWAP1 POP PUSH2 0x7E1C DUP2 PUSH2 0x7DF6 JUMP JUMPDEST SWAP3 SWAP2 POP POP JUMP JUMPDEST PUSH1 0x0 DUP1 PUSH1 0x40 DUP4 DUP6 SUB SLT ISZERO PUSH2 0x7E39 JUMPI PUSH2 0x7E38 PUSH2 0x7D84 JUMP JUMPDEST JUMPDEST PUSH1 0x0 PUSH2 0x7E47 DUP6 DUP3 DUP7 ADD PUSH2 0x7DD7 JUMP JUMPDEST SWAP3 POP POP PUSH1 0x20 PUSH2 0x7E58 DUP6 DUP3 DUP7 ADD PUSH2 0x7E0D JUMP JUMPDEST SWAP2 POP POP SWAP3 POP SWAP3 SWAP1 POP JUMP JUMPDEST PUSH2 0x7E6B DUP2 PUSH2 0x7DEC JUMP JUMPDEST DUP3 MSTORE POP POP JUMP JUMPDEST PUSH1 0x0 PUSH1 0x20 DUP3 ADD SWAP1 POP PUSH2 0x7E86 PUSH1 0x0 DUP4 ADD DUP5 PUSH2 0x7E62 JUMP JUMPDEST SWAP3 SWAP2 POP POP JUMP JUMPDEST PUSH1 0x0 PUSH32 0xFFFFFFFF00000000000000000000000000000000000000000000000000000000 DUP3 AND SWAP1 POP SWAP2 SWAP1 POP JUMP JUMPDEST PUSH2 0x7EC1 DUP2 PUSH2 0x7E8C JUMP JUMPDEST DUP2 EQ PUSH2 0x7ECC JUMPI PUSH1 0x0 DUP1 REVERT JUMPDEST POP JUMP JUMPDEST PUSH1 0x0 DUP2 CALLDATALOAD SWAP1 POP PUSH2 0x7EDE DUP2 PUSH2 0x7EB8 JUMP JUMPDEST SWAP3 SWAP2 POP POP JUMP JUMPDEST PUSH1 0x0 PUSH1 0x20 DUP3 DUP5 SUB SLT ISZERO PUSH2 0x7EFA JUMPI PUSH2 0x7EF9 PUSH2 0x7D84 JUMP JUMPDEST JUMPDEST PUSH1 0x0 PUSH2 0x7F08 DUP5 DUP3 DUP6 ADD PUSH2 0x7ECF JUMP JUMPDEST SWAP2 POP POP SWAP3 SWAP2 POP POP JUMP JUMPDEST PUSH1 0x0 DUP2 ISZERO ISZERO SWAP1 POP SWAP2 SWAP1 POP JUMP JUMPDEST PUSH2 0x7F26 DUP2 PUSH2 0x7F11 JUMP JUMPDEST DUP3 MSTORE POP POP JUMP JUMPDEST PUSH1 0x0 PUSH1 0x20 DUP3 ADD SWAP1 POP PUSH2 0x7F41 PUSH1 0x0 DUP4 ADD DUP5 PUSH2 0x7F1D JUMP JUMPDEST SWAP3 SWAP2 POP POP JUMP JUMPDEST PUSH1 0x0 PUSH1 0x20 DUP3 DUP5 SUB SLT ISZERO PUSH2 0x7F5D JUMPI PUSH2 0x7F5C PUSH2 0x7D84 JUMP JUMPDEST JUMPDEST PUSH1 0x0 PUSH2 0x7F6B DUP5 DUP3 DUP6 ADD PUSH2 0x7DD7 JUMP JUMPDEST SWAP2 POP POP SWAP3 SWAP2 POP POP JUMP JUMPDEST PUSH1 0x0 PUSH1 0x20 DUP3 DUP5 SUB SLT ISZERO PUSH2 0x7F8A JUMPI PUSH2 0x7F89 PUSH2 0x7D84 JUMP JUMPDEST JUMPDEST PUSH1 0x0 PUSH2 0x7F98 DUP5 DUP3 DUP6 ADD PUSH2 0x7E0D JUMP JUMPDEST SWAP2 POP POP SWAP3 SWAP2 POP POP JUMP JUMPDEST PUSH2 0x7FAA DUP2 PUSH2 0x7DAE JUMP JUMPDEST DUP3 MSTORE POP POP JUMP JUMPDEST PUSH1 0x0 PUSH1 0x20 DUP3 ADD SWAP1 POP PUSH2 0x7FC5 PUSH1 0x0 DUP4 ADD DUP5 PUSH2 0x7FA1 JUMP JUMPDEST SWAP3 SWAP2 POP POP JUMP JUMPDEST PUSH1 0x0 DUP2 MLOAD SWAP1 POP SWAP2 SWAP1 POP JUMP JUMPDEST PUSH1 0x0 DUP3 DUP3 MSTORE PUSH1 0x20 DUP3 ADD SWAP1 POP SWAP3 SWAP2 POP POP JUMP JUMPDEST PUSH1 0x0 JUMPDEST DUP4 DUP2 LT ISZERO PUSH2 0x8005 JUMPI DUP1 DUP3 ADD MLOAD DUP2 DUP5 ADD MSTORE PUSH1 0x20 DUP2 ADD SWAP1 POP PUSH2 0x7FEA JUMP JUMPDEST DUP4 DUP2 GT ISZERO PUSH2 0x8014 JUMPI PUSH1 0x0 DUP5 DUP5 ADD MSTORE JUMPDEST POP POP POP POP JUMP JUMPDEST PUSH1 0x0 PUSH1 0x1F NOT PUSH1 0x1F DUP4 ADD AND SWAP1 POP SWAP2 SWAP1 POP JUMP JUMPDEST PUSH1 0x0 PUSH2 0x8036 DUP3 PUSH2 0x7FCB JUMP JUMPDEST PUSH2 0x8040 DUP2 DUP6 PUSH2 0x7FD6 JUMP JUMPDEST SWAP4 POP PUSH2 0x8050 DUP2 DUP6 PUSH1 0x20 DUP7 ADD PUSH2 0x7FE7 JUMP JUMPDEST PUSH2 0x8059 DUP2 PUSH2 0x801A JUMP JUMPDEST DUP5 ADD SWAP2 POP POP SWAP3 SWAP2 POP POP JUMP JUMPDEST PUSH1 0x0 PUSH1 0x20 DUP3 ADD SWAP1 POP DUP2 DUP2 SUB PUSH1 0x0 DUP4 ADD MSTORE PUSH2 0x807E DUP2 DUP5 PUSH2 0x802B JUMP JUMPDEST SWAP1 POP SWAP3 SWAP2 POP POP JUMP JUMPDEST PUSH1 0x0 DUP1 REVERT JUMPDEST PUSH1 0x0 PUSH1 0xC0 DUP3 DUP5 SUB SLT ISZERO PUSH2 0x80A1 JUMPI PUSH2 0x80A0 PUSH2 0x8086 JUMP JUMPDEST JUMPDEST DUP2 SWAP1 POP SWAP3 SWAP2 POP POP JUMP JUMPDEST PUSH1 0x0 PUSH1 0xC0 DUP3 DUP5 SUB SLT ISZERO PUSH2 0x80C0 JUMPI PUSH2 0x80BF PUSH2 0x7D84 JUMP JUMPDEST JUMPDEST PUSH1 0x0 PUSH2 0x80CE DUP5 DUP3 DUP6 ADD PUSH2 0x808B JUMP JUMPDEST SWAP2 POP POP SWAP3 SWAP2 POP POP JUMP JUMPDEST PUSH1 0x0 DUP1 REVERT JUMPDEST PUSH32 0x4E487B7100000000000000000000000000000000000000000000000000000000 PUSH1 0x0 MSTORE PUSH1 0x41 PUSH1 0x4 MSTORE PUSH1 0x24 PUSH1 0x0 REVERT JUMPDEST PUSH2 0x8114 DUP3 PUSH2 0x801A JUMP JUMPDEST DUP2 ADD DUP2 DUP2 LT PUSH8 0xFFFFFFFFFFFFFFFF DUP3 GT OR ISZERO PUSH2 0x8133 JUMPI PUSH2 0x8132 PUSH2 0x80DC JUMP JUMPDEST JUMPDEST DUP1 PUSH1 0x40 MSTORE POP POP POP JUMP JUMPDEST PUSH1 0x0 PUSH2 0x8146 PUSH2 0x7D7A JUMP JUMPDEST SWAP1 POP PUSH2 0x8152 DUP3 DUP3 PUSH2 0x810B JUMP JUMPDEST SWAP2 SWAP1 POP JUMP JUMPDEST PUSH1 0x0 PUSH8 0xFFFFFFFFFFFFFFFF DUP3 GT ISZERO PUSH2 0x8172 JUMPI PUSH2 0x8171 PUSH2 0x80DC JUMP JUMPDEST JUMPDEST PUSH1 0x20 DUP3 MUL SWAP1 POP PUSH1 0x20 DUP2 ADD SWAP1 POP SWAP2 SWAP1 POP JUMP JUMPDEST PUSH1 0x0 DUP1 REVERT JUMPDEST PUSH1 0x0 PUSH2 0x819B PUSH2 0x8196 DUP5 PUSH2 0x8157 JUMP JUMPDEST PUSH2 0x813C JUMP JUMPDEST SWAP1 POP DUP1 DUP4 DUP3 MSTORE PUSH1 0x20 DUP3 ADD SWAP1 POP PUSH1 0x20 DUP5 MUL DUP4 ADD DUP6 DUP2 GT ISZERO PUSH2 0x81BE JUMPI PUSH2 0x81BD PUSH2 0x8183 JUMP JUMPDEST JUMPDEST DUP4 JUMPDEST DUP2 DUP2 LT ISZERO PUSH2 0x81E7 JUMPI DUP1 PUSH2 0x81D3 DUP9 DUP3 PUSH2 0x7E0D JUMP JUMPDEST DUP5 MSTORE PUSH1 0x20 DUP5 ADD SWAP4 POP POP PUSH1 0x20 DUP2 ADD SWAP1 POP PUSH2 0x81C0 JUMP JUMPDEST POP POP POP SWAP4 SWAP3 POP POP POP JUMP JUMPDEST PUSH1 0x0 DUP3 PUSH1 0x1F DUP4 ADD SLT PUSH2 0x8206 JUMPI PUSH2 0x8205 PUSH2 0x80D7 JUMP JUMPDEST JUMPDEST DUP2 CALLDATALOAD PUSH2 0x8216 DUP5 DUP3 PUSH1 0x20 DUP7 ADD PUSH2 0x8188 JUMP JUMPDEST SWAP2 POP POP SWAP3 SWAP2 POP POP JUMP JUMPDEST PUSH1 0x0 DUP1 REVERT JUMPDEST PUSH1 0x0 PUSH8 0xFFFFFFFFFFFFFFFF DUP3 GT ISZERO PUSH2 0x823F JUMPI PUSH2 0x823E PUSH2 0x80DC JUMP JUMPDEST JUMPDEST PUSH2 0x8248 DUP3 PUSH2 0x801A JUMP JUMPDEST SWAP1 POP PUSH1 0x20 DUP2 ADD SWAP1 POP SWAP2 SWAP1 POP JUMP JUMPDEST DUP3 DUP2 DUP4 CALLDATACOPY PUSH1 0x0 DUP4 DUP4 ADD MSTORE POP POP POP JUMP JUMPDEST PUSH1 0x0 PUSH2 0x8277 PUSH2 0x8272 DUP5 PUSH2 0x8224 JUMP JUMPDEST PUSH2 0x813C JUMP JUMPDEST SWAP1 POP DUP3 DUP2 MSTORE PUSH1 0x20 DUP2 ADD DUP5 DUP5 DUP5 ADD GT ISZERO PUSH2 0x8293 JUMPI PUSH2 0x8292 PUSH2 0x821F JUMP JUMPDEST JUMPDEST PUSH2 0x829E DUP5 DUP3 DUP6 PUSH2 0x8255 JUMP JUMPDEST POP SWAP4 SWAP3 POP POP POP JUMP JUMPDEST PUSH1 0x0 DUP3 PUSH1 0x1F DUP4 ADD SLT PUSH2 0x82BB JUMPI PUSH2 0x82BA PUSH2 0x80D7 JUMP JUMPDEST JUMPDEST DUP2 CALLDATALOAD PUSH2 0x82CB DUP5 DUP3 PUSH1 0x20 DUP7 ADD PUSH2 0x8264 JUMP JUMPDEST SWAP2 POP POP SWAP3 SWAP2 POP POP JUMP JUMPDEST PUSH1 0x0 DUP1 PUSH1 0x0 DUP1 PUSH1 0x0 PUSH1 0xA0 DUP7 DUP9 SUB SLT ISZERO PUSH2 0x82F0 JUMPI PUSH2 0x82EF PUSH2 0x7D84 JUMP JUMPDEST JUMPDEST PUSH1 0x0 PUSH2 0x82FE DUP9 DUP3 DUP10 ADD PUSH2 0x7DD7 JUMP JUMPDEST SWAP6 POP POP PUSH1 0x20 PUSH2 0x830F DUP9 DUP3 DUP10 ADD PUSH2 0x7DD7 JUMP JUMPDEST SWAP5 POP POP PUSH1 0x40 DUP7 ADD CALLDATALOAD PUSH8 0xFFFFFFFFFFFFFFFF DUP2 GT ISZERO PUSH2 0x8330 JUMPI PUSH2 0x832F PUSH2 0x7D89 JUMP JUMPDEST JUMPDEST PUSH2 0x833C DUP9 DUP3 DUP10 ADD PUSH2 0x81F1 JUMP JUMPDEST SWAP4 POP POP PUSH1 0x60 DUP7 ADD CALLDATALOAD PUSH8 0xFFFFFFFFFFFFFFFF DUP2 GT ISZERO PUSH2 0x835D JUMPI PUSH2 0x835C PUSH2 0x7D89 JUMP JUMPDEST JUMPDEST PUSH2 0x8369 DUP9 DUP3 DUP10 ADD PUSH2 0x81F1 JUMP JUMPDEST SWAP3 POP POP PUSH1 0x80 DUP7 ADD CALLDATALOAD PUSH8 0xFFFFFFFFFFFFFFFF DUP2 GT ISZERO PUSH2 0x838A JUMPI PUSH2 0x8389 PUSH2 0x7D89 JUMP JUMPDEST JUMPDEST PUSH2 0x8396 DUP9 DUP3 DUP10 ADD PUSH2 0x82A6 JUMP JUMPDEST SWAP2 POP POP SWAP3 SWAP6 POP SWAP3 SWAP6 SWAP1 SWAP4 POP JUMP JUMPDEST PUSH1 0x0 DUP1 REVERT JUMPDEST PUSH1 0x0 DUP1 DUP4 PUSH1 0x1F DUP5 ADD SLT PUSH2 0x83BE JUMPI PUSH2 0x83BD PUSH2 0x80D7 JUMP JUMPDEST JUMPDEST DUP3 CALLDATALOAD SWAP1 POP PUSH8 0xFFFFFFFFFFFFFFFF DUP2 GT ISZERO PUSH2 0x83DB JUMPI PUSH2 0x83DA PUSH2 0x83A3 JUMP JUMPDEST JUMPDEST PUSH1 0x20 DUP4 ADD SWAP2 POP DUP4 PUSH1 0x20 DUP3 MUL DUP4 ADD GT ISZERO PUSH2 0x83F7 JUMPI PUSH2 0x83F6 PUSH2 0x8183 JUMP JUMPDEST JUMPDEST SWAP3 POP SWAP3 SWAP1 POP JUMP JUMPDEST PUSH1 0x0 DUP1 PUSH1 0x20 DUP4 DUP6 SUB SLT ISZERO PUSH2 0x8415 JUMPI PUSH2 0x8414 PUSH2 0x7D84 JUMP JUMPDEST JUMPDEST PUSH1 0x0 DUP4 ADD CALLDATALOAD PUSH8 0xFFFFFFFFFFFFFFFF DUP2 GT ISZERO PUSH2 0x8433 JUMPI PUSH2 0x8432 PUSH2 0x7D89 JUMP JUMPDEST JUMPDEST PUSH2 0x843F DUP6 DUP3 DUP7 ADD PUSH2 0x83A8 JUMP JUMPDEST SWAP3 POP SWAP3 POP POP SWAP3 POP SWAP3 SWAP1 POP JUMP JUMPDEST PUSH1 0x0 DUP2 MLOAD SWAP1 POP SWAP2 SWAP1 POP JUMP JUMPDEST PUSH1 0x0 DUP3 DUP3 MSTORE PUSH1 0x20 DUP3 ADD SWAP1 POP SWAP3 SWAP2 POP POP JUMP JUMPDEST PUSH1 0x0 DUP2 SWAP1 POP PUSH1 0x20 DUP3 ADD SWAP1 POP SWAP2 SWAP1 POP JUMP JUMPDEST PUSH1 0x0 PUSH1 0x8 SWAP1 POP SWAP2 SWAP1 POP JUMP JUMPDEST PUSH1 0x0 DUP2 SWAP1 POP SWAP3 SWAP2 POP POP JUMP JUMPDEST PUSH1 0x0 DUP2 SWAP1 POP SWAP2 SWAP1 POP JUMP JUMPDEST PUSH1 0x0 PUSH4 0xFFFFFFFF DUP3 AND SWAP1 POP SWAP2 SWAP1 POP JUMP JUMPDEST PUSH2 0x84B0 DUP2 PUSH2 0x8497 JUMP JUMPDEST DUP3 MSTORE POP POP JUMP JUMPDEST PUSH1 0x0 PUSH2 0x84C2 DUP4 DUP4 PUSH2 0x84A7 JUMP JUMPDEST PUSH1 0x20 DUP4 ADD SWAP1 POP SWAP3 SWAP2 POP POP JUMP JUMPDEST PUSH1 0x0 PUSH1 0x20 DUP3 ADD SWAP1 POP SWAP2 SWAP1 POP JUMP JUMPDEST PUSH2 0x84E4 DUP2 PUSH2 0x8477 JUMP JUMPDEST PUSH2 0x84EE DUP2 DUP5 PUSH2 0x8482 JUMP JUMPDEST SWAP3 POP PUSH2 0x84F9 DUP3 PUSH2 0x848D JUMP JUMPDEST DUP1 PUSH1 0x0 JUMPDEST DUP4 DUP2 LT ISZERO PUSH2 0x852A JUMPI DUP2 MLOAD PUSH2 0x8511 DUP8 DUP3 PUSH2 0x84B6 JUMP JUMPDEST SWAP7 POP PUSH2 0x851C DUP4 PUSH2 0x84CE JUMP JUMPDEST SWAP3 POP POP PUSH1 0x1 DUP2 ADD SWAP1 POP PUSH2 0x84FD JUMP JUMPDEST POP POP POP POP POP POP JUMP JUMPDEST PUSH1 0x0 PUSH16 0xFFFFFFFFFFFFFFFFFFFFFFFFFFFFFFFF DUP3 AND SWAP1 POP SWAP2 SWAP1 POP JUMP JUMPDEST PUSH2 0x8557 DUP2 PUSH2 0x8532 JUMP JUMPDEST DUP3 MSTORE POP POP JUMP JUMPDEST PUSH2 0x8566 DUP2 PUSH2 0x7DEC JUMP JUMPDEST DUP3 MSTORE POP POP JUMP JUMPDEST PUSH2 0x180 DUP3 ADD PUSH1 0x0 DUP3 ADD MLOAD PUSH2 0x8583 PUSH1 0x0 DUP6 ADD DUP3 PUSH2 0x84DB JUMP JUMPDEST POP PUSH1 0x20 DUP3 ADD MLOAD PUSH2 0x8597 PUSH2 0x100 DUP6 ADD DUP3 PUSH2 0x854E JUMP JUMPDEST POP PUSH1 0x40 DUP3 ADD MLOAD PUSH2 0x85AB PUSH2 0x120 DUP6 ADD DUP3 PUSH2 0x854E JUMP JUMPDEST POP PUSH1 0x60 DUP3 ADD MLOAD PUSH2 0x85BF PUSH2 0x140 DUP6 ADD DUP3 PUSH2 0x854E JUMP JUMPDEST POP PUSH1 0x80 DUP3 ADD MLOAD PUSH2 0x85D3 PUSH2 0x160 DUP6 ADD DUP3 PUSH2 0x855D JUMP JUMPDEST POP POP POP POP JUMP JUMPDEST PUSH1 0x0 PUSH2 0x85E5 DUP4 DUP4 PUSH2 0x856C JUMP JUMPDEST PUSH2 0x180 DUP4 ADD SWAP1 POP SWAP3 SWAP2 POP POP JUMP JUMPDEST PUSH1 0x0 PUSH1 0x20 DUP3 ADD SWAP1 POP SWAP2 SWAP1 POP JUMP JUMPDEST PUSH1 0x0 PUSH2 0x860A DUP3 PUSH2 0x844B JUMP JUMPDEST PUSH2 0x8614 DUP2 DUP6 PUSH2 0x8456 JUMP JUMPDEST SWAP4 POP PUSH2 0x861F DUP4 PUSH2 0x8467 JUMP JUMPDEST DUP1 PUSH1 0x0 JUMPDEST DUP4 DUP2 LT ISZERO PUSH2 0x8650 JUMPI DUP2 MLOAD PUSH2 0x8637 DUP9 DUP3 PUSH2 0x85D9 JUMP JUMPDEST SWAP8 POP PUSH2 0x8642 DUP4 PUSH2 0x85F2 JUMP JUMPDEST SWAP3 POP POP PUSH1 0x1 DUP2 ADD SWAP1 POP PUSH2 0x8623 JUMP JUMPDEST POP DUP6 SWAP4 POP POP POP POP SWAP3 SWAP2 POP POP JUMP JUMPDEST PUSH1 0x0 PUSH1 0x20 DUP3 ADD SWAP1 POP DUP2 DUP2 SUB PUSH1 0x0 DUP4 ADD MSTORE PUSH2 0x8677 DUP2 DUP5 PUSH2 0x85FF JUMP JUMPDEST SWAP1 POP SWAP3 SWAP2 POP POP JUMP JUMPDEST PUSH1 0x0 PUSH8 0xFFFFFFFFFFFFFFFF DUP3 GT ISZERO PUSH2 0x869A JUMPI PUSH2 0x8699 PUSH2 0x80DC JUMP JUMPDEST JUMPDEST PUSH2 0x86A3 DUP3 PUSH2 0x801A JUMP JUMPDEST SWAP1 POP PUSH1 0x20 DUP2 ADD SWAP1 POP SWAP2 SWAP1 POP JUMP JUMPDEST PUSH1 0x0 PUSH2 0x86C3 PUSH2 0x86BE DUP5 PUSH2 0x867F JUMP JUMPDEST PUSH2 0x813C JUMP JUMPDEST SWAP1 POP DUP3 DUP2 MSTORE PUSH1 0x20 DUP2 ADD DUP5 DUP5 DUP5 ADD GT ISZERO PUSH2 0x86DF JUMPI PUSH2 0x86DE PUSH2 0x821F JUMP JUMPDEST JUMPDEST PUSH2 0x86EA DUP5 DUP3 DUP6 PUSH2 0x8255 JUMP JUMPDEST POP SWAP4 SWAP3 POP POP POP JUMP JUMPDEST PUSH1 0x0 DUP3 PUSH1 0x1F DUP4 ADD SLT PUSH2 0x8707 JUMPI PUSH2 0x8706 PUSH2 0x80D7 JUMP JUMPDEST JUMPDEST DUP2 CALLDATALOAD PUSH2 0x8717 DUP5 DUP3 PUSH1 0x20 DUP7 ADD PUSH2 0x86B0 JUMP JUMPDEST SWAP2 POP POP SWAP3 SWAP2 POP POP JUMP JUMPDEST PUSH1 0x0 DUP1 PUSH1 0x40 DUP4 DUP6 SUB SLT ISZERO PUSH2 0x8737 JUMPI PUSH2 0x8736 PUSH2 0x7D84 JUMP JUMPDEST JUMPDEST PUSH1 0x0 DUP4 ADD CALLDATALOAD PUSH8 0xFFFFFFFFFFFFFFFF DUP2 GT ISZERO PUSH2 0x8755 JUMPI PUSH2 0x8754 PUSH2 0x7D89 JUMP JUMPDEST JUMPDEST PUSH2 0x8761 DUP6 DUP3 DUP7 ADD PUSH2 0x86F2 JUMP JUMPDEST SWAP3 POP POP PUSH1 0x20 DUP4 ADD CALLDATALOAD PUSH8 0xFFFFFFFFFFFFFFFF DUP2 GT ISZERO PUSH2 0x8782 JUMPI PUSH2 0x8781 PUSH2 0x7D89 JUMP JUMPDEST JUMPDEST PUSH2 0x878E DUP6 DUP3 DUP7 ADD PUSH2 0x86F2 JUMP JUMPDEST SWAP2 POP POP SWAP3 POP SWAP3 SWAP1 POP JUMP JUMPDEST PUSH1 0x0 DUP1 PUSH1 0x0 DUP1 PUSH1 0x80 DUP6 DUP8 SUB SLT ISZERO PUSH2 0x87B2 JUMPI PUSH2 0x87B1 PUSH2 0x7D84 JUMP JUMPDEST JUMPDEST PUSH1 0x0 PUSH2 0x87C0 DUP8 DUP3 DUP9 ADD PUSH2 0x7DD7 JUMP JUMPDEST SWAP5 POP POP PUSH1 0x20 PUSH2 0x87D1 DUP8 DUP3 DUP9 ADD PUSH2 0x7E0D JUMP JUMPDEST SWAP4 POP POP PUSH1 0x40 PUSH2 0x87E2 DUP8 DUP3 DUP9 ADD PUSH2 0x7E0D JUMP JUMPDEST SWAP3 POP POP PUSH1 0x60 PUSH2 0x87F3 DUP8 DUP3 DUP9 ADD PUSH2 0x7DD7 JUMP JUMPDEST SWAP2 POP POP SWAP3 SWAP6 SWAP2 SWAP5 POP SWAP3 POP JUMP JUMPDEST PUSH1 0x0 DUP1 PUSH1 0x0 PUSH1 0x60 DUP5 DUP7 SUB SLT ISZERO PUSH2 0x8818 JUMPI PUSH2 0x8817 PUSH2 0x7D84 JUMP JUMPDEST JUMPDEST PUSH1 0x0 PUSH2 0x8826 DUP7 DUP3 DUP8 ADD PUSH2 0x7DD7 JUMP JUMPDEST SWAP4 POP POP PUSH1 0x20 PUSH2 0x8837 DUP7 DUP3 DUP8 ADD PUSH2 0x7DD7 JUMP JUMPDEST SWAP3 POP POP PUSH1 0x40 PUSH2 0x8848 DUP7 DUP3 DUP8 ADD PUSH2 0x7E0D JUMP JUMPDEST SWAP2 POP POP SWAP3 POP SWAP3 POP SWAP3 JUMP JUMPDEST PUSH1 0x0 PUSH8 0xFFFFFFFFFFFFFFFF DUP3 GT ISZERO PUSH2 0x886D JUMPI PUSH2 0x886C PUSH2 0x80DC JUMP JUMPDEST JUMPDEST PUSH1 0x20 DUP3 MUL SWAP1 POP PUSH1 0x20 DUP2 ADD SWAP1 POP SWAP2 SWAP1 POP JUMP JUMPDEST PUSH1 0x0 PUSH2 0x8891 PUSH2 0x888C DUP5 PUSH2 0x8852 JUMP JUMPDEST PUSH2 0x813C JUMP JUMPDEST SWAP1 POP DUP1 DUP4 DUP3 MSTORE PUSH1 0x20 DUP3 ADD SWAP1 POP PUSH1 0x20 DUP5 MUL DUP4 ADD DUP6 DUP2 GT ISZERO PUSH2 0x88B4 JUMPI PUSH2 0x88B3 PUSH2 0x8183 JUMP JUMPDEST JUMPDEST DUP4 JUMPDEST DUP2 DUP2 LT ISZERO PUSH2 0x88DD JUMPI DUP1 PUSH2 0x88C9 DUP9 DUP3 PUSH2 0x7DD7 JUMP JUMPDEST DUP5 MSTORE PUSH1 0x20 DUP5 ADD SWAP4 POP POP PUSH1 0x20 DUP2 ADD SWAP1 POP PUSH2 0x88B6 JUMP JUMPDEST POP POP POP SWAP4 SWAP3 POP POP POP JUMP JUMPDEST PUSH1 0x0 DUP3 PUSH1 0x1F DUP4 ADD SLT PUSH2 0x88FC JUMPI PUSH2 0x88FB PUSH2 0x80D7 JUMP JUMPDEST JUMPDEST DUP2 CALLDATALOAD PUSH2 0x890C DUP5 DUP3 PUSH1 0x20 DUP7 ADD PUSH2 0x887E JUMP JUMPDEST SWAP2 POP POP SWAP3 SWAP2 POP POP JUMP JUMPDEST PUSH1 0x0 DUP1 PUSH1 0x40 DUP4 DUP6 SUB SLT ISZERO PUSH2 0x892C JUMPI PUSH2 0x892B PUSH2 0x7D84 JUMP JUMPDEST JUMPDEST PUSH1 0x0 DUP4 ADD CALLDATALOAD PUSH8 0xFFFFFFFFFFFFFFFF DUP2 GT ISZERO PUSH2 0x894A JUMPI PUSH2 0x8949 PUSH2 0x7D89 JUMP JUMPDEST JUMPDEST PUSH2 0x8956 DUP6 DUP3 DUP7 ADD PUSH2 0x88E7 JUMP JUMPDEST SWAP3 POP POP PUSH1 0x20 DUP4 ADD CALLDATALOAD PUSH8 0xFFFFFFFFFFFFFFFF DUP2 GT ISZERO PUSH2 0x8977 JUMPI PUSH2 0x8976 PUSH2 0x7D89 JUMP JUMPDEST JUMPDEST PUSH2 0x8983 DUP6 DUP3 DUP7 ADD PUSH2 0x81F1 JUMP JUMPDEST SWAP2 POP POP SWAP3 POP SWAP3 SWAP1 POP JUMP JUMPDEST PUSH1 0x0 DUP2 MLOAD SWAP1 POP SWAP2 SWAP1 POP JUMP JUMPDEST PUSH1 0x0 DUP3 DUP3 MSTORE PUSH1 0x20 DUP3 ADD SWAP1 POP SWAP3 SWAP2 POP POP JUMP JUMPDEST PUSH1 0x0 DUP2 SWAP1 POP PUSH1 0x20 DUP3 ADD SWAP1 POP SWAP2 SWAP1 POP JUMP JUMPDEST PUSH1 0x0 PUSH2 0x89C5 DUP4 DUP4 PUSH2 0x855D JUMP JUMPDEST PUSH1 0x20 DUP4 ADD SWAP1 POP SWAP3 SWAP2 POP POP JUMP JUMPDEST PUSH1 0x0 PUSH1 0x20 DUP3 ADD SWAP1 POP SWAP2 SWAP1 POP JUMP JUMPDEST PUSH1 0x0 PUSH2 0x89E9 DUP3 PUSH2 0x898D JUMP JUMPDEST PUSH2 0x89F3 DUP2 DUP6 PUSH2 0x8998 JUMP JUMPDEST SWAP4 POP PUSH2 0x89FE DUP4 PUSH2 0x89A9 JUMP JUMPDEST DUP1 PUSH1 0x0 JUMPDEST DUP4 DUP2 LT ISZERO PUSH2 0x8A2F JUMPI DUP2 MLOAD PUSH2 0x8A16 DUP9 DUP3 PUSH2 0x89B9 JUMP JUMPDEST SWAP8 POP PUSH2 0x8A21 DUP4 PUSH2 0x89D1 JUMP JUMPDEST SWAP3 POP POP PUSH1 0x1 DUP2 ADD SWAP1 POP PUSH2 0x8A02 JUMP JUMPDEST POP DUP6 SWAP4 POP POP POP POP SWAP3 SWAP2 POP POP JUMP JUMPDEST PUSH1 0x0 PUSH1 0x20 DUP3 ADD SWAP1 POP DUP2 DUP2 SUB PUSH1 0x0 DUP4 ADD MSTORE PUSH2 0x8A56 DUP2 DUP5 PUSH2 0x89DE JUMP JUMPDEST SWAP1 POP SWAP3 SWAP2 POP POP JUMP JUMPDEST PUSH2 0x8A67 DUP2 PUSH2 0x7DAE JUMP JUMPDEST DUP3 MSTORE POP POP JUMP JUMPDEST PUSH1 0xC0 DUP3 ADD PUSH1 0x0 DUP3 ADD MLOAD PUSH2 0x8A83 PUSH1 0x0 DUP6 ADD DUP3 PUSH2 0x8A5E JUMP JUMPDEST POP PUSH1 0x20 DUP3 ADD MLOAD PUSH2 0x8A96 PUSH1 0x20 DUP6 ADD DUP3 PUSH2 0x855D JUMP JUMPDEST POP PUSH1 0x40 DUP3 ADD MLOAD PUSH2 0x8AA9 PUSH1 0x40 DUP6 ADD DUP3 PUSH2 0x855D JUMP JUMPDEST POP PUSH1 0x60 DUP3 ADD MLOAD PUSH2 0x8ABC PUSH1 0x60 DUP6 ADD DUP3 PUSH2 0x855D JUMP JUMPDEST POP PUSH1 0x80 DUP3 ADD MLOAD PUSH2 0x8ACF PUSH1 0x80 DUP6 ADD DUP3 PUSH2 0x855D JUMP JUMPDEST POP PUSH1 0xA0 DUP3 ADD MLOAD PUSH2 0x8AE2 PUSH1 0xA0 DUP6 ADD DUP3 PUSH2 0x855D JUMP JUMPDEST POP POP POP POP JUMP JUMPDEST PUSH1 0x0 PUSH1 0xC0 DUP3 ADD SWAP1 POP PUSH2 0x8AFD PUSH1 0x0 DUP4 ADD DUP5 PUSH2 0x8A6D JUMP JUMPDEST SWAP3 SWAP2 POP POP JUMP JUMPDEST PUSH2 0x8B0C DUP2 PUSH2 0x7F11 JUMP JUMPDEST DUP2 EQ PUSH2 0x8B17 JUMPI PUSH1 0x0 DUP1 REVERT JUMPDEST POP JUMP JUMPDEST PUSH1 0x0 DUP2 CALLDATALOAD SWAP1 POP PUSH2 0x8B29 DUP2 PUSH2 0x8B03 JUMP JUMPDEST SWAP3 SWAP2 POP POP JUMP JUMPDEST PUSH1 0x0 DUP1 PUSH1 0x40 DUP4 DUP6 SUB SLT ISZERO PUSH2 0x8B46 JUMPI PUSH2 0x8B45 PUSH2 0x7D84 JUMP JUMPDEST JUMPDEST PUSH1 0x0 PUSH2 0x8B54 DUP6 DUP3 DUP7 ADD PUSH2 0x7DD7 JUMP JUMPDEST SWAP3 POP POP PUSH1 0x20 PUSH2 0x8B65 DUP6 DUP3 DUP7 ADD PUSH2 0x8B1A JUMP JUMPDEST SWAP2 POP POP SWAP3 POP SWAP3 SWAP1 POP JUMP JUMPDEST PUSH1 0x0 DUP1 PUSH1 0x0 DUP1 PUSH1 0x0 DUP1 PUSH1 0xC0 DUP8 DUP10 SUB SLT ISZERO PUSH2 0x8B8C JUMPI PUSH2 0x8B8B PUSH2 0x7D84 JUMP JUMPDEST JUMPDEST PUSH1 0x0 PUSH2 0x8B9A DUP10 DUP3 DUP11 ADD PUSH2 0x7DD7 JUMP JUMPDEST SWAP7 POP POP PUSH1 0x20 PUSH2 0x8BAB DUP10 DUP3 DUP11 ADD PUSH2 0x7DD7 JUMP JUMPDEST SWAP6 POP POP PUSH1 0x40 PUSH2 0x8BBC DUP10 DUP3 DUP11 ADD PUSH2 0x7E0D JUMP JUMPDEST SWAP5 POP POP PUSH1 0x60 PUSH2 0x8BCD DUP10 DUP3 DUP11 ADD PUSH2 0x7E0D JUMP JUMPDEST SWAP4 POP POP PUSH1 0x80 PUSH2 0x8BDE DUP10 DUP3 DUP11 ADD PUSH2 0x7E0D JUMP JUMPDEST SWAP3 POP POP PUSH1 0xA0 PUSH2 0x8BEF DUP10 DUP3 DUP11 ADD PUSH2 0x7DD7 JUMP JUMPDEST SWAP2 POP POP SWAP3 SWAP6 POP SWAP3 SWAP6 POP SWAP3 SWAP6 JUMP JUMPDEST PUSH1 0x0 PUSH1 0x40 DUP3 ADD SWAP1 POP PUSH2 0x8C11 PUSH1 0x0 DUP4 ADD DUP6 PUSH2 0x7E62 JUMP JUMPDEST PUSH2 0x8C1E PUSH1 0x20 DUP4 ADD DUP5 PUSH2 0x7E62 JUMP JUMPDEST SWAP4 SWAP3 POP POP POP JUMP JUMPDEST PUSH1 0x0 DUP1 DUP4 PUSH1 0x1F DUP5 ADD SLT PUSH2 0x8C3B JUMPI PUSH2 0x8C3A PUSH2 0x80D7 JUMP JUMPDEST JUMPDEST DUP3 CALLDATALOAD SWAP1 POP PUSH8 0xFFFFFFFFFFFFFFFF DUP2 GT ISZERO PUSH2 0x8C58 JUMPI PUSH2 0x8C57 PUSH2 0x83A3 JUMP JUMPDEST JUMPDEST PUSH1 0x20 DUP4 ADD SWAP2 POP DUP4 PUSH1 0x20 DUP3 MUL DUP4 ADD GT ISZERO PUSH2 0x8C74 JUMPI PUSH2 0x8C73 PUSH2 0x8183 JUMP JUMPDEST JUMPDEST SWAP3 POP SWAP3 SWAP1 POP JUMP JUMPDEST PUSH1 0x0 DUP1 PUSH1 0x20 DUP4 DUP6 SUB SLT ISZERO PUSH2 0x8C92 JUMPI PUSH2 0x8C91 PUSH2 0x7D84 JUMP JUMPDEST JUMPDEST PUSH1 0x0 DUP4 ADD CALLDATALOAD PUSH8 0xFFFFFFFFFFFFFFFF DUP2 GT ISZERO PUSH2 0x8CB0 JUMPI PUSH2 0x8CAF PUSH2 0x7D89 JUMP JUMPDEST JUMPDEST PUSH2 0x8CBC DUP6 DUP3 DUP7 ADD PUSH2 0x8C25 JUMP JUMPDEST SWAP3 POP SWAP3 POP POP SWAP3 POP SWAP3 SWAP1 POP JUMP JUMPDEST PUSH1 0x0 PUSH1 0x20 DUP3 DUP5 SUB SLT ISZERO PUSH2 0x8CDE JUMPI PUSH2 0x8CDD PUSH2 0x7D84 JUMP JUMPDEST JUMPDEST PUSH1 0x0 DUP3 ADD CALLDATALOAD PUSH8 0xFFFFFFFFFFFFFFFF DUP2 GT ISZERO PUSH2 0x8CFC JUMPI PUSH2 0x8CFB PUSH2 0x7D89 JUMP JUMPDEST JUMPDEST PUSH2 0x8D08 DUP5 DUP3 DUP6 ADD PUSH2 0x86F2 JUMP JUMPDEST SWAP2 POP POP SWAP3 SWAP2 POP POP JUMP JUMPDEST PUSH1 0x0 DUP1 PUSH1 0x40 DUP4 DUP6 SUB SLT ISZERO PUSH2 0x8D28 JUMPI PUSH2 0x8D27 PUSH2 0x7D84 JUMP JUMPDEST JUMPDEST PUSH1 0x0 PUSH2 0x8D36 DUP6 DUP3 DUP7 ADD PUSH2 0x7DD7 JUMP JUMPDEST SWAP3 POP POP PUSH1 0x20 PUSH2 0x8D47 DUP6 DUP3 DUP7 ADD PUSH2 0x7DD7 JUMP JUMPDEST SWAP2 POP POP SWAP3 POP SWAP3 SWAP1 POP JUMP JUMPDEST PUSH1 0x0 DUP1 PUSH1 0x0 DUP1 PUSH1 0x0 PUSH1 0xA0 DUP7 DUP9 SUB SLT ISZERO PUSH2 0x8D6D JUMPI PUSH2 0x8D6C PUSH2 0x7D84 JUMP JUMPDEST JUMPDEST PUSH1 0x0 PUSH2 0x8D7B DUP9 DUP3 DUP10 ADD PUSH2 0x7DD7 JUMP JUMPDEST SWAP6 POP POP PUSH1 0x20 PUSH2 0x8D8C DUP9 DUP3 DUP10 ADD PUSH2 0x7DD7 JUMP JUMPDEST SWAP5 POP POP PUSH1 0x40 PUSH2 0x8D9D DUP9 DUP3 DUP10 ADD PUSH2 0x7DD7 JUMP JUMPDEST SWAP4 POP POP PUSH1 0x60 PUSH2 0x8DAE DUP9 DUP3 DUP10 ADD PUSH2 0x7DD7 JUMP JUMPDEST SWAP3 POP POP PUSH1 0x80 PUSH2 0x8DBF DUP9 DUP3 DUP10 ADD PUSH2 0x7DD7 JUMP JUMPDEST SWAP2 POP POP SWAP3 SWAP6 POP SWAP3 SWAP6 SWAP1 SWAP4 POP JUMP JUMPDEST PUSH1 0x0 DUP1 PUSH1 0x0 DUP1 PUSH1 0x0 PUSH1 0xA0 DUP7 DUP9 SUB SLT ISZERO PUSH2 0x8DE8 JUMPI PUSH2 0x8DE7 PUSH2 0x7D84 JUMP JUMPDEST JUMPDEST PUSH1 0x0 PUSH2 0x8DF6 DUP9 DUP3 DUP10 ADD PUSH2 0x7DD7 JUMP JUMPDEST SWAP6 POP POP PUSH1 0x20 PUSH2 0x8E07 DUP9 DUP3 DUP10 ADD PUSH2 0x7DD7 JUMP JUMPDEST SWAP5 POP POP PUSH1 0x40 PUSH2 0x8E18 DUP9 DUP3 DUP10 ADD PUSH2 0x7E0D JUMP JUMPDEST SWAP4 POP POP PUSH1 0x60 PUSH2 0x8E29 DUP9 DUP3 DUP10 ADD PUSH2 0x7E0D JUMP JUMPDEST SWAP3 POP POP PUSH1 0x80 DUP7 ADD CALLDATALOAD PUSH8 0xFFFFFFFFFFFFFFFF DUP2 GT ISZERO PUSH2 0x8E4A JUMPI PUSH2 0x8E49 PUSH2 0x7D89 JUMP JUMPDEST JUMPDEST PUSH2 0x8E56 DUP9 DUP3 DUP10 ADD PUSH2 0x82A6 JUMP JUMPDEST SWAP2 POP POP SWAP3 SWAP6 POP SWAP3 SWAP6 SWAP1 SWAP4 POP JUMP JUMPDEST PUSH1 0x0 DUP1 PUSH1 0x0 PUSH1 0x60 DUP5 DUP7 SUB SLT ISZERO PUSH2 0x8E7C JUMPI PUSH2 0x8E7B PUSH2 0x7D84 JUMP JUMPDEST JUMPDEST PUSH1 0x0 PUSH2 0x8E8A DUP7 DUP3 DUP8 ADD PUSH2 0x7DD7 JUMP JUMPDEST SWAP4 POP POP PUSH1 0x20 PUSH2 0x8E9B DUP7 DUP3 DUP8 ADD PUSH2 0x7E0D JUMP JUMPDEST SWAP3 POP POP PUSH1 0x40 PUSH2 0x8EAC DUP7 DUP3 DUP8 ADD PUSH2 0x7E0D JUMP JUMPDEST SWAP2 POP POP SWAP3 POP SWAP3 POP SWAP3 JUMP JUMPDEST PUSH32 0x4300000000000000000000000000000000000000000000000000000000000000 PUSH1 0x0 DUP3 ADD MSTORE POP JUMP JUMPDEST PUSH1 0x0 PUSH2 0x8EEC PUSH1 0x1 DUP4 PUSH2 0x7FD6 JUMP JUMPDEST SWAP2 POP PUSH2 0x8EF7 DUP3 PUSH2 0x8EB6 JUMP JUMPDEST PUSH1 0x20 DUP3 ADD SWAP1 POP SWAP2 SWAP1 POP JUMP JUMPDEST PUSH1 0x0 PUSH1 0x20 DUP3 ADD SWAP1 POP DUP2 DUP2 SUB PUSH1 0x0 DUP4 ADD MSTORE PUSH2 0x8F1B DUP2 PUSH2 0x8EDF JUMP JUMPDEST SWAP1 POP SWAP2 SWAP1 POP JUMP JUMPDEST PUSH32 0x4E487B7100000000000000000000000000000000000000000000000000000000 PUSH1 0x0 MSTORE PUSH1 0x32 PUSH1 0x4 MSTORE PUSH1 0x24 PUSH1 0x0 REVERT JUMPDEST PUSH32 0x4E487B7100000000000000000000000000000000000000000000000000000000 PUSH1 0x0 MSTORE PUSH1 0x11 PUSH1 0x4 MSTORE PUSH1 0x24 PUSH1 0x0 REVERT JUMPDEST PUSH1 0x0 PUSH2 0x8F8B DUP3 PUSH2 0x7DEC JUMP JUMPDEST SWAP2 POP PUSH2 0x8F96 DUP4 PUSH2 0x7DEC JUMP JUMPDEST SWAP3 POP DUP3 DUP3 LT ISZERO PUSH2 0x8FA9 JUMPI PUSH2 0x8FA8 PUSH2 0x8F51 JUMP JUMPDEST JUMPDEST DUP3 DUP3 SUB SWAP1 POP SWAP3 SWAP2 POP POP JUMP JUMPDEST PUSH1 0x0 DUP2 MLOAD SWAP1 POP PUSH2 0x8FC3 DUP2 PUSH2 0x7DC0 JUMP JUMPDEST SWAP3 SWAP2 POP POP JUMP JUMPDEST PUSH1 0x0 PUSH1 0x20 DUP3 DUP5 SUB SLT ISZERO PUSH2 0x8FDF JUMPI PUSH2 0x8FDE PUSH2 0x7D84 JUMP JUMPDEST JUMPDEST PUSH1 0x0 PUSH2 0x8FED DUP5 DUP3 DUP6 ADD PUSH2 0x8FB4 JUMP JUMPDEST SWAP2 POP POP SWAP3 SWAP2 POP POP JUMP JUMPDEST PUSH32 0x4E487B7100000000000000000000000000000000000000000000000000000000 PUSH1 0x0 MSTORE PUSH1 0x22 PUSH1 0x4 MSTORE PUSH1 0x24 PUSH1 0x0 REVERT JUMPDEST PUSH1 0x0 PUSH1 0x2 DUP3 DIV SWAP1 POP PUSH1 0x1 DUP3 AND DUP1 PUSH2 0x903D JUMPI PUSH1 0x7F DUP3 AND SWAP2 POP JUMPDEST PUSH1 0x20 DUP3 LT DUP2 EQ ISZERO PUSH2 0x9051 JUMPI PUSH2 0x9050 PUSH2 0x8FF6 JUMP JUMPDEST JUMPDEST POP SWAP2 SWAP1 POP JUMP JUMPDEST PUSH1 0x0 PUSH2 0x9062 DUP3 PUSH2 0x7DEC JUMP JUMPDEST SWAP2 POP PUSH2 0x906D DUP4 PUSH2 0x7DEC JUMP JUMPDEST SWAP3 POP DUP2 PUSH32 0xFFFFFFFFFFFFFFFFFFFFFFFFFFFFFFFFFFFFFFFFFFFFFFFFFFFFFFFFFFFFFFFF DIV DUP4 GT DUP3 ISZERO ISZERO AND ISZERO PUSH2 0x90A6 JUMPI PUSH2 0x90A5 PUSH2 0x8F51 JUMP JUMPDEST JUMPDEST DUP3 DUP3 MUL SWAP1 POP SWAP3 SWAP2 POP POP JUMP JUMPDEST PUSH1 0x0 DUP2 CALLDATALOAD PUSH2 0x90BE DUP2 PUSH2 0x7DC0 JUMP JUMPDEST DUP1 SWAP2 POP POP SWAP2 SWAP1 POP JUMP JUMPDEST PUSH1 0x0 DUP2 PUSH1 0x0 SHL SWAP1 POP SWAP2 SWAP1 POP JUMP JUMPDEST PUSH1 0x0 PUSH20 0xFFFFFFFFFFFFFFFFFFFFFFFFFFFFFFFFFFFFFFFF PUSH2 0x90F4 DUP5 PUSH2 0x90C7 JUMP JUMPDEST SWAP4 POP DUP1 NOT DUP4 AND SWAP3 POP DUP1 DUP5 AND DUP4 OR SWAP2 POP POP SWAP3 SWAP2 POP POP JUMP JUMPDEST PUSH1 0x0 DUP2 SWAP1 POP SWAP2 SWAP1 POP JUMP JUMPDEST PUSH1 0x0 PUSH2 0x912F PUSH2 0x912A PUSH2 0x9125 DUP5 PUSH2 0x7D8E JUMP JUMPDEST PUSH2 0x910A JUMP JUMPDEST PUSH2 0x7D8E JUMP JUMPDEST SWAP1 POP SWAP2 SWAP1 POP JUMP JUMPDEST PUSH1 0x0 PUSH2 0x9141 DUP3 PUSH2 0x9114 JUMP JUMPDEST SWAP1 POP SWAP2 SWAP1 POP JUMP JUMPDEST PUSH1 0x0 PUSH2 0x9153 DUP3 PUSH2 0x9136 JUMP JUMPDEST SWAP1 POP SWAP2 SWAP1 POP JUMP JUMPDEST PUSH1 0x0 DUP2 SWAP1 POP SWAP2 SWAP1 POP JUMP JUMPDEST PUSH2 0x916D DUP3 PUSH2 0x9148 JUMP JUMPDEST PUSH2 0x9180 PUSH2 0x9179 DUP3 PUSH2 0x915A JUMP JUMPDEST DUP4 SLOAD PUSH2 0x90D4 JUMP JUMPDEST DUP3 SSTORE POP POP POP JUMP JUMPDEST PUSH1 0x0 DUP2 CALLDATALOAD PUSH2 0x9194 DUP2 PUSH2 0x7DF6 JUMP JUMPDEST DUP1 SWAP2 POP POP SWAP2 SWAP1 POP JUMP JUMPDEST PUSH1 0x0 PUSH32 0xFFFFFFFFFFFFFFFFFFFFFFFFFFFFFFFFFFFFFFFFFFFFFFFFFFFFFFFFFFFFFFFF PUSH2 0x91C9 DUP5 PUSH2 0x90C7 JUMP JUMPDEST SWAP4 POP DUP1 NOT DUP4 AND SWAP3 POP DUP1 DUP5 AND DUP4 OR SWAP2 POP POP SWAP3 SWAP2 POP POP JUMP JUMPDEST PUSH1 0x0 PUSH2 0x91FA PUSH2 0x91F5 PUSH2 0x91F0 DUP5 PUSH2 0x7DEC JUMP JUMPDEST PUSH2 0x910A JUMP JUMPDEST PUSH2 0x7DEC JUMP JUMPDEST SWAP1 POP SWAP2 SWAP1 POP JUMP JUMPDEST PUSH1 0x0 DUP2 SWAP1 POP SWAP2 SWAP1 POP JUMP JUMPDEST PUSH2 0x9214 DUP3 PUSH2 0x91DF JUMP JUMPDEST PUSH2 0x9227 PUSH2 0x9220 DUP3 PUSH2 0x9201 JUMP JUMPDEST DUP4 SLOAD PUSH2 0x919D JUMP JUMPDEST DUP3 SSTORE POP POP POP JUMP JUMPDEST PUSH1 0x0 DUP2 ADD PUSH1 0x0 DUP4 ADD DUP1 PUSH2 0x9240 DUP2 PUSH2 0x90B1 JUMP JUMPDEST SWAP1 POP PUSH2 0x924C DUP2 DUP5 PUSH2 0x9164 JUMP JUMPDEST POP POP POP PUSH1 0x1 DUP2 ADD PUSH1 0x20 DUP4 ADD DUP1 PUSH2 0x9261 DUP2 PUSH2 0x9187 JUMP JUMPDEST SWAP1 POP PUSH2 0x926D DUP2 DUP5 PUSH2 0x920B JUMP JUMPDEST POP POP POP PUSH1 0x2 DUP2 ADD PUSH1 0x40 DUP4 ADD DUP1 PUSH2 0x9282 DUP2 PUSH2 0x9187 JUMP JUMPDEST SWAP1 POP PUSH2 0x928E DUP2 DUP5 PUSH2 0x920B JUMP JUMPDEST POP POP POP PUSH1 0x3 DUP2 ADD PUSH1 0x60 DUP4 ADD DUP1 PUSH2 0x92A3 DUP2 PUSH2 0x9187 JUMP JUMPDEST SWAP1 POP PUSH2 0x92AF DUP2 DUP5 PUSH2 0x920B JUMP JUMPDEST POP POP POP PUSH1 0x4 DUP2 ADD PUSH1 0x80 DUP4 ADD DUP1 PUSH2 0x92C4 DUP2 PUSH2 0x9187 JUMP JUMPDEST SWAP1 POP PUSH2 0x92D0 DUP2 DUP5 PUSH2 0x920B JUMP JUMPDEST POP POP POP PUSH1 0x5 DUP2 ADD PUSH1 0xA0 DUP4 ADD DUP1 PUSH2 0x92E5 DUP2 PUSH2 0x9187 JUMP JUMPDEST SWAP1 POP PUSH2 0x92F1 DUP2 DUP5 PUSH2 0x920B JUMP JUMPDEST POP POP POP POP POP JUMP JUMPDEST PUSH2 0x9302 DUP3 DUP3 PUSH2 0x922E JUMP JUMPDEST POP POP JUMP JUMPDEST PUSH1 0x0 DUP2 SWAP1 POP SWAP3 SWAP2 POP POP JUMP JUMPDEST PUSH1 0x0 DUP2 SWAP1 POP DUP2 PUSH1 0x0 MSTORE PUSH1 0x20 PUSH1 0x0 KECCAK256 SWAP1 POP SWAP2 SWAP1 POP JUMP JUMPDEST PUSH1 0x0 DUP2 SLOAD PUSH2 0x9333 DUP2 PUSH2 0x9025 JUMP JUMPDEST PUSH2 0x933D DUP2 DUP7 PUSH2 0x9306 JUMP JUMPDEST SWAP5 POP PUSH1 0x1 DUP3 AND PUSH1 0x0 DUP2 EQ PUSH2 0x9358 JUMPI PUSH1 0x1 DUP2 EQ PUSH2 0x9369 JUMPI PUSH2 0x939C JUMP JUMPDEST PUSH1 0xFF NOT DUP4 AND DUP7 MSTORE DUP2 DUP7 ADD SWAP4 POP PUSH2 0x939C JUMP JUMPDEST PUSH2 0x9372 DUP6 PUSH2 0x9311 JUMP JUMPDEST PUSH1 0x0 JUMPDEST DUP4 DUP2 LT ISZERO PUSH2 0x9394 JUMPI DUP2 SLOAD DUP2 DUP10 ADD MSTORE PUSH1 0x1 DUP3 ADD SWAP2 POP PUSH1 0x20 DUP2 ADD SWAP1 POP PUSH2 0x9375 JUMP JUMPDEST DUP4 DUP9 ADD SWAP6 POP POP POP JUMPDEST POP POP POP SWAP3 SWAP2 POP POP JUMP JUMPDEST PUSH1 0x0 DUP2 SWAP1 POP SWAP2 SWAP1 POP JUMP JUMPDEST PUSH2 0x93C0 PUSH2 0x93BB DUP3 PUSH2 0x7DEC JUMP JUMPDEST PUSH2 0x93A5 JUMP JUMPDEST DUP3 MSTORE POP POP JUMP JUMPDEST PUSH32 0x2E6A736F6E000000000000000000000000000000000000000000000000000000 PUSH1 0x0 DUP3 ADD MSTORE POP JUMP JUMPDEST PUSH1 0x0 PUSH2 0x93FC PUSH1 0x5 DUP4 PUSH2 0x9306 JUMP JUMPDEST SWAP2 POP PUSH2 0x9407 DUP3 PUSH2 0x93C6 JUMP JUMPDEST PUSH1 0x5 DUP3 ADD SWAP1 POP SWAP2 SWAP1 POP JUMP JUMPDEST PUSH1 0x0 PUSH2 0x941E DUP3 DUP6 PUSH2 0x9326 JUMP JUMPDEST SWAP2 POP PUSH2 0x942A DUP3 DUP5 PUSH2 0x93AF JUMP JUMPDEST PUSH1 0x20 DUP3 ADD SWAP2 POP PUSH2 0x9439 DUP3 PUSH2 0x93EF JUMP JUMPDEST SWAP2 POP DUP2 SWAP1 POP SWAP4 SWAP3 POP POP POP JUMP JUMPDEST PUSH1 0x0 PUSH2 0x9450 DUP3 PUSH2 0x7DEC JUMP JUMPDEST SWAP2 POP PUSH32 0xFFFFFFFFFFFFFFFFFFFFFFFFFFFFFFFFFFFFFFFFFFFFFFFFFFFFFFFFFFFFFFFF DUP3 EQ ISZERO PUSH2 0x9483 JUMPI PUSH2 0x9482 PUSH2 0x8F51 JUMP JUMPDEST JUMPDEST PUSH1 0x1 DUP3 ADD SWAP1 POP SWAP2 SWAP1 POP JUMP JUMPDEST PUSH1 0x0 PUSH2 0x9499 DUP3 PUSH2 0x7DEC JUMP JUMPDEST SWAP2 POP PUSH2 0x94A4 DUP4 PUSH2 0x7DEC JUMP JUMPDEST SWAP3 POP DUP3 PUSH32 0xFFFFFFFFFFFFFFFFFFFFFFFFFFFFFFFFFFFFFFFFFFFFFFFFFFFFFFFFFFFFFFFF SUB DUP3 GT ISZERO PUSH2 0x94D9 JUMPI PUSH2 0x94D8 PUSH2 0x8F51 JUMP JUMPDEST JUMPDEST DUP3 DUP3 ADD SWAP1 POP SWAP3 SWAP2 POP POP JUMP JUMPDEST PUSH32 0x4400000000000000000000000000000000000000000000000000000000000000 PUSH1 0x0 DUP3 ADD MSTORE POP JUMP JUMPDEST PUSH1 0x0 PUSH2 0x951A PUSH1 0x1 DUP4 PUSH2 0x7FD6 JUMP JUMPDEST SWAP2 POP PUSH2 0x9525 DUP3 PUSH2 0x94E4 JUMP JUMPDEST PUSH1 0x20 DUP3 ADD SWAP1 POP SWAP2 SWAP1 POP JUMP JUMPDEST PUSH1 0x0 PUSH1 0x20 DUP3 ADD SWAP1 POP DUP2 DUP2 SUB PUSH1 0x0 DUP4 ADD MSTORE PUSH2 0x9549 DUP2 PUSH2 0x950D JUMP JUMPDEST SWAP1 POP SWAP2 SWAP1 POP JUMP JUMPDEST PUSH32 0x4600000000000000000000000000000000000000000000000000000000000000 PUSH1 0x0 DUP3 ADD MSTORE POP JUMP JUMPDEST PUSH1 0x0 PUSH2 0x9586 PUSH1 0x1 DUP4 PUSH2 0x7FD6 JUMP JUMPDEST SWAP2 POP PUSH2 0x9591 DUP3 PUSH2 0x9550 JUMP JUMPDEST PUSH1 0x20 DUP3 ADD SWAP1 POP SWAP2 SWAP1 POP JUMP JUMPDEST PUSH1 0x0 PUSH1 0x20 DUP3 ADD SWAP1 POP DUP2 DUP2 SUB PUSH1 0x0 DUP4 ADD MSTORE PUSH2 0x95B5 DUP2 PUSH2 0x9579 JUMP JUMPDEST SWAP1 POP SWAP2 SWAP1 POP JUMP JUMPDEST PUSH32 0x4E487B7100000000000000000000000000000000000000000000000000000000 PUSH1 0x0 MSTORE PUSH1 0x12 PUSH1 0x4 MSTORE PUSH1 0x24 PUSH1 0x0 REVERT JUMPDEST PUSH1 0x0 PUSH2 0x95F6 DUP3 PUSH2 0x7DEC JUMP JUMPDEST SWAP2 POP PUSH2 0x9601 DUP4 PUSH2 0x7DEC JUMP JUMPDEST SWAP3 POP DUP3 PUSH2 0x9611 JUMPI PUSH2 0x9610 PUSH2 0x95BC JUMP JUMPDEST JUMPDEST DUP3 DUP3 DIV SWAP1 POP SWAP3 SWAP2 POP POP JUMP JUMPDEST PUSH1 0x0 PUSH1 0x40 DUP3 ADD SWAP1 POP PUSH2 0x9631 PUSH1 0x0 DUP4 ADD DUP6 PUSH2 0x7FA1 JUMP JUMPDEST PUSH2 0x963E PUSH1 0x20 DUP4 ADD DUP5 PUSH2 0x7E62 JUMP JUMPDEST SWAP4 SWAP3 POP POP POP JUMP JUMPDEST PUSH1 0x0 PUSH2 0x9650 DUP3 PUSH2 0x8532 JUMP JUMPDEST SWAP2 POP PUSH2 0x965B DUP4 PUSH2 0x8532 JUMP JUMPDEST SWAP3 POP DUP3 PUSH16 0xFFFFFFFFFFFFFFFFFFFFFFFFFFFFFFFF SUB DUP3 GT ISZERO PUSH2 0x9680 JUMPI PUSH2 0x967F PUSH2 0x8F51 JUMP JUMPDEST JUMPDEST DUP3 DUP3 ADD SWAP1 POP SWAP3 SWAP2 POP POP JUMP JUMPDEST PUSH1 0x0 PUSH1 0x80 DUP3 ADD SWAP1 POP PUSH2 0x96A0 PUSH1 0x0 DUP4 ADD DUP8 PUSH2 0x7FA1 JUMP JUMPDEST PUSH2 0x96AD PUSH1 0x20 DUP4 ADD DUP7 PUSH2 0x7E62 JUMP JUMPDEST PUSH2 0x96BA PUSH1 0x40 DUP4 ADD DUP6 PUSH2 0x7E62 JUMP JUMPDEST PUSH2 0x96C7 PUSH1 0x60 DUP4 ADD DUP5 PUSH2 0x7E62 JUMP JUMPDEST SWAP6 SWAP5 POP POP POP POP POP JUMP JUMPDEST PUSH32 0x5800000000000000000000000000000000000000000000000000000000000000 PUSH1 0x0 DUP3 ADD MSTORE POP JUMP JUMPDEST PUSH1 0x0 PUSH2 0x9706 PUSH1 0x1 DUP4 PUSH2 0x7FD6 JUMP JUMPDEST SWAP2 POP PUSH2 0x9711 DUP3 PUSH2 0x96D0 JUMP JUMPDEST PUSH1 0x20 DUP3 ADD SWAP1 POP SWAP2 SWAP1 POP JUMP JUMPDEST PUSH1 0x0 PUSH1 0x20 DUP3 ADD SWAP1 POP DUP2 DUP2 SUB PUSH1 0x0 DUP4 ADD MSTORE PUSH2 0x9735 DUP2 PUSH2 0x96F9 JUMP JUMPDEST SWAP1 POP SWAP2 SWAP1 POP JUMP JUMPDEST PUSH1 0x0 PUSH2 0x9757 PUSH2 0x9752 PUSH2 0x974D DUP5 PUSH2 0x8532 JUMP JUMPDEST PUSH2 0x910A JUMP JUMPDEST PUSH2 0x7DEC JUMP JUMPDEST SWAP1 POP SWAP2 SWAP1 POP JUMP JUMPDEST PUSH2 0x9767 DUP2 PUSH2 0x973C JUMP JUMPDEST DUP3 MSTORE POP POP JUMP JUMPDEST PUSH1 0x0 PUSH1 0x80 DUP3 ADD SWAP1 POP PUSH2 0x9782 PUSH1 0x0 DUP4 ADD DUP8 PUSH2 0x7FA1 JUMP JUMPDEST PUSH2 0x978F PUSH1 0x20 DUP4 ADD DUP7 PUSH2 0x975E JUMP JUMPDEST PUSH2 0x979C PUSH1 0x40 DUP4 ADD DUP6 PUSH2 0x975E JUMP JUMPDEST PUSH2 0x97A9 PUSH1 0x60 DUP4 ADD DUP5 PUSH2 0x7E62 JUMP JUMPDEST SWAP6 SWAP5 POP POP POP POP POP JUMP JUMPDEST PUSH1 0x0 PUSH1 0x40 DUP3 ADD SWAP1 POP PUSH2 0x97C7 PUSH1 0x0 DUP4 ADD DUP6 PUSH2 0x7FA1 JUMP JUMPDEST PUSH2 0x97D4 PUSH1 0x20 DUP4 ADD DUP5 PUSH2 0x7FA1 JUMP JUMPDEST SWAP4 SWAP3 POP POP POP JUMP JUMPDEST PUSH1 0x0 DUP2 MLOAD SWAP1 POP PUSH2 0x97EA DUP2 PUSH2 0x8B03 JUMP JUMPDEST SWAP3 SWAP2 POP POP JUMP JUMPDEST PUSH1 0x0 PUSH1 0x20 DUP3 DUP5 SUB SLT ISZERO PUSH2 0x9806 JUMPI PUSH2 0x9805 PUSH2 0x7D84 JUMP JUMPDEST JUMPDEST PUSH1 0x0 PUSH2 0x9814 DUP5 DUP3 DUP6 ADD PUSH2 0x97DB JUMP JUMPDEST SWAP2 POP POP SWAP3 SWAP2 POP POP JUMP JUMPDEST PUSH32 0x4800000000000000000000000000000000000000000000000000000000000000 PUSH1 0x0 DUP3 ADD MSTORE POP JUMP JUMPDEST PUSH1 0x0 PUSH2 0x9853 PUSH1 0x1 DUP4 PUSH2 0x7FD6 JUMP JUMPDEST SWAP2 POP PUSH2 0x985E DUP3 PUSH2 0x981D JUMP JUMPDEST PUSH1 0x20 DUP3 ADD SWAP1 POP SWAP2 SWAP1 POP JUMP JUMPDEST PUSH1 0x0 PUSH1 0x20 DUP3 ADD SWAP1 POP DUP2 DUP2 SUB PUSH1 0x0 DUP4 ADD MSTORE PUSH2 0x9882 DUP2 PUSH2 0x9846 JUMP JUMPDEST SWAP1 POP SWAP2 SWAP1 POP JUMP JUMPDEST PUSH32 0x6900000000000000000000000000000000000000000000000000000000000000 PUSH1 0x0 DUP3 ADD MSTORE POP JUMP JUMPDEST PUSH1 0x0 PUSH2 0x98BF PUSH1 0x1 DUP4 PUSH2 0x7FD6 JUMP JUMPDEST SWAP2 POP PUSH2 0x98CA DUP3 PUSH2 0x9889 JUMP JUMPDEST PUSH1 0x20 DUP3 ADD SWAP1 POP SWAP2 SWAP1 POP JUMP JUMPDEST PUSH1 0x0 PUSH1 0x20 DUP3 ADD SWAP1 POP DUP2 DUP2 SUB PUSH1 0x0 DUP4 ADD MSTORE PUSH2 0x98EE DUP2 PUSH2 0x98B2 JUMP JUMPDEST SWAP1 POP SWAP2 SWAP1 POP JUMP JUMPDEST PUSH32 0x4C00000000000000000000000000000000000000000000000000000000000000 PUSH1 0x0 DUP3 ADD MSTORE POP JUMP JUMPDEST PUSH1 0x0 PUSH2 0x992B PUSH1 0x1 DUP4 PUSH2 0x7FD6 JUMP JUMPDEST SWAP2 POP PUSH2 0x9936 DUP3 PUSH2 0x98F5 JUMP JUMPDEST PUSH1 0x20 DUP3 ADD SWAP1 POP SWAP2 SWAP1 POP JUMP JUMPDEST PUSH1 0x0 PUSH1 0x20 DUP3 ADD SWAP1 POP DUP2 DUP2 SUB PUSH1 0x0 DUP4 ADD MSTORE PUSH2 0x995A DUP2 PUSH2 0x991E JUMP JUMPDEST SWAP1 POP SWAP2 SWAP1 POP JUMP JUMPDEST PUSH1 0x0 PUSH2 0x996C DUP3 PUSH2 0x7FCB JUMP JUMPDEST PUSH2 0x9976 DUP2 DUP6 PUSH2 0x9306 JUMP JUMPDEST SWAP4 POP PUSH2 0x9986 DUP2 DUP6 PUSH1 0x20 DUP7 ADD PUSH2 0x7FE7 JUMP JUMPDEST DUP1 DUP5 ADD SWAP2 POP POP SWAP3 SWAP2 POP POP JUMP JUMPDEST PUSH32 0x7B69647D2E6A736F6E0000000000000000000000000000000000000000000000 PUSH1 0x0 DUP3 ADD MSTORE POP JUMP JUMPDEST PUSH1 0x0 PUSH2 0x99C8 PUSH1 0x9 DUP4 PUSH2 0x9306 JUMP JUMPDEST SWAP2 POP PUSH2 0x99D3 DUP3 PUSH2 0x9992 JUMP JUMPDEST PUSH1 0x9 DUP3 ADD SWAP1 POP SWAP2 SWAP1 POP JUMP JUMPDEST PUSH1 0x0 PUSH2 0x99EA DUP3 DUP5 PUSH2 0x9961 JUMP JUMPDEST SWAP2 POP PUSH2 0x99F5 DUP3 PUSH2 0x99BB JUMP JUMPDEST SWAP2 POP DUP2 SWAP1 POP SWAP3 SWAP2 POP POP JUMP JUMPDEST PUSH32 0x4B00000000000000000000000000000000000000000000000000000000000000 PUSH1 0x0 DUP3 ADD MSTORE POP JUMP JUMPDEST PUSH1 0x0 PUSH2 0x9A36 PUSH1 0x1 DUP4 PUSH2 0x7FD6 JUMP JUMPDEST SWAP2 POP PUSH2 0x9A41 DUP3 PUSH2 0x9A00 JUMP JUMPDEST PUSH1 0x20 DUP3 ADD SWAP1 POP SWAP2 SWAP1 POP JUMP JUMPDEST PUSH1 0x0 PUSH1 0x20 DUP3 ADD SWAP1 POP DUP2 DUP2 SUB PUSH1 0x0 DUP4 ADD MSTORE PUSH2 0x9A65 DUP2 PUSH2 0x9A29 JUMP JUMPDEST SWAP1 POP SWAP2 SWAP1 POP JUMP JUMPDEST PUSH32 0x4A00000000000000000000000000000000000000000000000000000000000000 PUSH1 0x0 DUP3 ADD MSTORE POP JUMP JUMPDEST PUSH1 0x0 PUSH2 0x9AA2 PUSH1 0x1 DUP4 PUSH2 0x7FD6 JUMP JUMPDEST SWAP2 POP PUSH2 0x9AAD DUP3 PUSH2 0x9A6C JUMP JUMPDEST PUSH1 0x20 DUP3 ADD SWAP1 POP SWAP2 SWAP1 POP JUMP JUMPDEST PUSH1 0x0 PUSH1 0x20 DUP3 ADD SWAP1 POP DUP2 DUP2 SUB PUSH1 0x0 DUP4 ADD MSTORE PUSH2 0x9AD1 DUP2 PUSH2 0x9A95 JUMP JUMPDEST SWAP1 POP SWAP2 SWAP1 POP JUMP JUMPDEST PUSH32 0x5500000000000000000000000000000000000000000000000000000000000000 PUSH1 0x0 DUP3 ADD MSTORE POP JUMP JUMPDEST PUSH1 0x0 PUSH2 0x9B0E PUSH1 0x1 DUP4 PUSH2 0x7FD6 JUMP JUMPDEST SWAP2 POP PUSH2 0x9B19 DUP3 PUSH2 0x9AD8 JUMP JUMPDEST PUSH1 0x20 DUP3 ADD SWAP1 POP SWAP2 SWAP1 POP JUMP JUMPDEST PUSH1 0x0 PUSH1 0x20 DUP3 ADD SWAP1 POP DUP2 DUP2 SUB PUSH1 0x0 DUP4 ADD MSTORE PUSH2 0x9B3D DUP2 PUSH2 0x9B01 JUMP JUMPDEST SWAP1 POP SWAP2 SWAP1 POP JUMP JUMPDEST PUSH1 0x0 DUP2 MLOAD SWAP1 POP PUSH2 0x9B53 DUP2 PUSH2 0x7DF6 JUMP JUMPDEST SWAP3 SWAP2 POP POP JUMP JUMPDEST PUSH1 0x0 PUSH1 0x20 DUP3 DUP5 SUB SLT ISZERO PUSH2 0x9B6F JUMPI PUSH2 0x9B6E PUSH2 0x7D84 JUMP JUMPDEST JUMPDEST PUSH1 0x0 PUSH2 0x9B7D DUP5 DUP3 DUP6 ADD PUSH2 0x9B44 JUMP JUMPDEST SWAP2 POP POP SWAP3 SWAP2 POP POP JUMP JUMPDEST PUSH32 0x4700000000000000000000000000000000000000000000000000000000000000 PUSH1 0x0 DUP3 ADD MSTORE POP JUMP JUMPDEST PUSH1 0x0 PUSH2 0x9BBC PUSH1 0x1 DUP4 PUSH2 0x7FD6 JUMP JUMPDEST SWAP2 POP PUSH2 0x9BC7 DUP3 PUSH2 0x9B86 JUMP JUMPDEST PUSH1 0x20 DUP3 ADD SWAP1 POP SWAP2 SWAP1 POP JUMP JUMPDEST PUSH1 0x0 PUSH1 0x20 DUP3 ADD SWAP1 POP DUP2 DUP2 SUB PUSH1 0x0 DUP4 ADD MSTORE PUSH2 0x9BEB DUP2 PUSH2 0x9BAF JUMP JUMPDEST SWAP1 POP SWAP2 SWAP1 POP JUMP JUMPDEST PUSH1 0x0 PUSH2 0x9BFD DUP3 PUSH2 0x7DEC JUMP JUMPDEST SWAP2 POP PUSH2 0x9C08 DUP4 PUSH2 0x7DEC JUMP JUMPDEST SWAP3 POP DUP3 PUSH2 0x9C18 JUMPI PUSH2 0x9C17 PUSH2 0x95BC JUMP JUMPDEST JUMPDEST DUP3 DUP3 MOD SWAP1 POP SWAP3 SWAP2 POP POP JUMP JUMPDEST PUSH32 0x3200000000000000000000000000000000000000000000000000000000000000 PUSH1 0x0 DUP3 ADD MSTORE POP JUMP JUMPDEST PUSH1 0x0 PUSH2 0x9C59 PUSH1 0x1 DUP4 PUSH2 0x7FD6 JUMP JUMPDEST SWAP2 POP PUSH2 0x9C64 DUP3 PUSH2 0x9C23 JUMP JUMPDEST PUSH1 0x20 DUP3 ADD SWAP1 POP SWAP2 SWAP1 POP JUMP JUMPDEST PUSH1 0x0 PUSH1 0x20 DUP3 ADD SWAP1 POP DUP2 DUP2 SUB PUSH1 0x0 DUP4 ADD MSTORE PUSH2 0x9C88 DUP2 PUSH2 0x9C4C JUMP JUMPDEST SWAP1 POP SWAP2 SWAP1 POP JUMP JUMPDEST PUSH32 0x5A00000000000000000000000000000000000000000000000000000000000000 PUSH1 0x0 DUP3 ADD MSTORE POP JUMP JUMPDEST PUSH1 0x0 PUSH2 0x9CC5 PUSH1 0x1 DUP4 PUSH2 0x7FD6 JUMP JUMPDEST SWAP2 POP PUSH2 0x9CD0 DUP3 PUSH2 0x9C8F JUMP JUMPDEST PUSH1 0x20 DUP3 ADD SWAP1 POP SWAP2 SWAP1 POP JUMP JUMPDEST PUSH1 0x0 PUSH1 0x20 DUP3 ADD SWAP1 POP DUP2 DUP2 SUB PUSH1 0x0 DUP4 ADD MSTORE PUSH2 0x9CF4 DUP2 PUSH2 0x9CB8 JUMP JUMPDEST SWAP1 POP SWAP2 SWAP1 POP JUMP JUMPDEST PUSH32 0x3100000000000000000000000000000000000000000000000000000000000000 PUSH1 0x0 DUP3 ADD MSTORE POP JUMP JUMPDEST PUSH1 0x0 PUSH2 0x9D31 PUSH1 0x1 DUP4 PUSH2 0x7FD6 JUMP JUMPDEST SWAP2 POP PUSH2 0x9D3C DUP3 PUSH2 0x9CFB JUMP JUMPDEST PUSH1 0x20 DUP3 ADD SWAP1 POP SWAP2 SWAP1 POP JUMP JUMPDEST PUSH1 0x0 PUSH1 0x20 DUP3 ADD SWAP1 POP DUP2 DUP2 SUB PUSH1 0x0 DUP4 ADD MSTORE PUSH2 0x9D60 DUP2 PUSH2 0x9D24 JUMP JUMPDEST SWAP1 POP SWAP2 SWAP1 POP JUMP JUMPDEST PUSH1 0x0 PUSH2 0x100 DUP3 ADD SWAP1 POP PUSH2 0x9D7D PUSH1 0x0 DUP4 ADD DUP12 PUSH2 0x7FA1 JUMP JUMPDEST PUSH2 0x9D8A PUSH1 0x20 DUP4 ADD DUP11 PUSH2 0x7FA1 JUMP JUMPDEST PUSH2 0x9D97 PUSH1 0x40 DUP4 ADD DUP10 PUSH2 0x7E62 JUMP JUMPDEST PUSH2 0x9DA4 PUSH1 0x60 DUP4 ADD DUP9 PUSH2 0x7E62 JUMP JUMPDEST PUSH2 0x9DB1 PUSH1 0x80 DUP4 ADD DUP8 PUSH2 0x7E62 JUMP JUMPDEST PUSH2 0x9DBE PUSH1 0xA0 DUP4 ADD DUP7 PUSH2 0x7E62 JUMP JUMPDEST PUSH2 0x9DCB PUSH1 0xC0 DUP4 ADD DUP6 PUSH2 0x7E62 JUMP JUMPDEST PUSH2 0x9DD8 PUSH1 0xE0 DUP4 ADD DUP5 PUSH2 0x7FA1 JUMP JUMPDEST SWAP10 SWAP9 POP POP POP POP POP POP POP POP POP JUMP JUMPDEST PUSH1 0x0 PUSH2 0x9DF0 DUP3 PUSH2 0x8532 JUMP JUMPDEST SWAP2 POP PUSH2 0x9DFB DUP4 PUSH2 0x8532 JUMP JUMPDEST SWAP3 POP DUP3 DUP3 LT ISZERO PUSH2 0x9E0E JUMPI PUSH2 0x9E0D PUSH2 0x8F51 JUMP JUMPDEST JUMPDEST DUP3 DUP3 SUB SWAP1 POP SWAP3 SWAP2 POP POP JUMP JUMPDEST PUSH1 0x0 DUP2 MLOAD SWAP1 POP SWAP2 SWAP1 POP JUMP JUMPDEST PUSH1 0x0 DUP2 SWAP1 POP SWAP3 SWAP2 POP POP JUMP JUMPDEST PUSH1 0x0 PUSH2 0x9E3A DUP3 PUSH2 0x9E19 JUMP JUMPDEST PUSH2 0x9E44 DUP2 DUP6 PUSH2 0x9E24 JUMP JUMPDEST SWAP4 POP PUSH2 0x9E54 DUP2 DUP6 PUSH1 0x20 DUP7 ADD PUSH2 0x7FE7 JUMP JUMPDEST DUP1 DUP5 ADD SWAP2 POP POP SWAP3 SWAP2 POP POP JUMP JUMPDEST PUSH1 0x0 PUSH2 0x9E6C DUP3 DUP5 PUSH2 0x9E2F JUMP JUMPDEST SWAP2 POP DUP2 SWAP1 POP SWAP3 SWAP2 POP POP JUMP JUMPDEST PUSH1 0x0 PUSH1 0x60 DUP3 ADD SWAP1 POP PUSH2 0x9E8C PUSH1 0x0 DUP4 ADD DUP7 PUSH2 0x7FA1 JUMP JUMPDEST PUSH2 0x9E99 PUSH1 0x20 DUP4 ADD DUP6 PUSH2 0x7FA1 JUMP JUMPDEST PUSH2 0x9EA6 PUSH1 0x40 DUP4 ADD DUP5 PUSH2 0x7E62 JUMP JUMPDEST SWAP5 SWAP4 POP POP POP POP JUMP JUMPDEST PUSH1 0x0 DUP3 DUP3 MSTORE PUSH1 0x20 DUP3 ADD SWAP1 POP SWAP3 SWAP2 POP POP JUMP JUMPDEST PUSH1 0x0 PUSH2 0x9ECA DUP3 PUSH2 0x9E19 JUMP JUMPDEST PUSH2 0x9ED4 DUP2 DUP6 PUSH2 0x9EAE JUMP JUMPDEST SWAP4 POP PUSH2 0x9EE4 DUP2 DUP6 PUSH1 0x20 DUP7 ADD PUSH2 0x7FE7 JUMP JUMPDEST PUSH2 0x9EED DUP2 PUSH2 0x801A JUMP JUMPDEST DUP5 ADD SWAP2 POP POP SWAP3 SWAP2 POP POP JUMP JUMPDEST PUSH1 0x0 PUSH1 0xA0 DUP3 ADD SWAP1 POP PUSH2 0x9F0D PUSH1 0x0 DUP4 ADD DUP9 PUSH2 0x7FA1 JUMP JUMPDEST PUSH2 0x9F1A PUSH1 0x20 DUP4 ADD DUP8 PUSH2 0x7FA1 JUMP JUMPDEST PUSH2 0x9F27 PUSH1 0x40 DUP4 ADD DUP7 PUSH2 0x7E62 JUMP JUMPDEST PUSH2 0x9F34 PUSH1 0x60 DUP4 ADD DUP6 PUSH2 0x7E62 JUMP JUMPDEST DUP2 DUP2 SUB PUSH1 0x80 DUP4 ADD MSTORE PUSH2 0x9F46 DUP2 DUP5 PUSH2 0x9EBF JUMP JUMPDEST SWAP1 POP SWAP7 SWAP6 POP POP POP POP POP POP JUMP JUMPDEST PUSH1 0x0 DUP2 MLOAD SWAP1 POP PUSH2 0x9F61 DUP2 PUSH2 0x7EB8 JUMP JUMPDEST SWAP3 SWAP2 POP POP JUMP JUMPDEST PUSH1 0x0 PUSH1 0x20 DUP3 DUP5 SUB SLT ISZERO PUSH2 0x9F7D JUMPI PUSH2 0x9F7C PUSH2 0x7D84 JUMP JUMPDEST JUMPDEST PUSH1 0x0 PUSH2 0x9F8B DUP5 DUP3 DUP6 ADD PUSH2 0x9F52 JUMP JUMPDEST SWAP2 POP POP SWAP3 SWAP2 POP POP JUMP INVALID LOG2 PUSH5 0x6970667358 0x22 SLT KECCAK256 BLOCKHASH DUP3 0x23 CODESIZE 0xFC DUP11 0x4F 0xCF DUP3 PUSH4 0xEA9C6A82 0xB7 0x1F SWAP13 0x4B 0xC7 0xE 0xAE CALLVALUE 0xDD 0xD8 PUSH12 0xAC8E15D69CECAA64736F6C63 NUMBER STOP ADDMOD SIGNEXTEND STOP CALLER PUSH9 0x747470733A2F2F6461 PUSH21 0x612E63657262792E66692F4365726279537761702F PUSH23 0x312F000000000000000000000000000000000000000000 "
		},
		"gasEstimates": {
			"creation": {
				"codeDepositCost": "8181200",
				"executionCost": "infinite",
				"totalCost": "infinite"
			},
			"external": {
				"addTokenLiquidity(address,uint256,uint256,address)": "infinite",
				"adminChangeCerUsdCreditInPool(address,uint256)": "infinite",
				"adminCreatePool(address,uint256,uint256,address)": "infinite",
				"adminInitialize()": "infinite",
				"adminSetURI(string)": "infinite",
				"adminUpdateFeesAndTvlMultipliers((address,uint256,uint256,uint256,uint256,uint256))": "infinite",
				"adminUpdateNameAndSymbol(string,string)": "infinite",
				"balanceOf(address,uint256)": "infinite",
				"balanceOfBatch(address[],uint256[])": "infinite",
				"burn(address,uint256,uint256)": "infinite",
				"createPool(address,uint256,uint256,address)": "infinite",
				"decimals()": "471",
				"exists(uint256)": "2902",
				"getCurrentOneMinusFeeBasedOnTrades(address)": "infinite",
				"getInputTokensForExactTokens(address,address,uint256)": "infinite",
				"getOutputExactTokensForTokens(address,address,uint256)": "infinite",
				"getPoolsByIds(uint256[])": "infinite",
				"getPoolsByTokens(address[])": "infinite",
				"getSettings()": "infinite",
				"getTokenToPoolId(address)": "2952",
				"getUtilsContractAtPos(uint256)": "infinite",
				"increaseCerUsdCreditInPool(address,uint256)": "infinite",
				"isApprovedForAll(address,address)": "infinite",
				"lowLevelSwap(address,uint256,uint256,address)": "infinite",
				"name()": "infinite",
				"owner()": "2634",
				"removeTokenLiquidity(address,uint256,uint256,address)": "infinite",
				"renounceOwnership()": "30507",
				"safeBatchTransferFrom(address,address,uint256[],uint256[],bytes)": "infinite",
				"safeTransferFrom(address,address,uint256,uint256,bytes)": "infinite",
				"setApprovalForAll(address,bool)": "infinite",
				"skimPool(address)": "infinite",
				"supportsInterface(bytes4)": "707",
				"swapExactTokensForTokens(address,address,uint256,uint256,uint256,address)": "infinite",
				"swapTokensForExactTokens(address,address,uint256,uint256,uint256,address)": "infinite",
				"symbol()": "infinite",
				"syncTokenBalanceInPool(address)": "infinite",
				"testInit()": "infinite",
				"testSetupTokens(address,address,address,address,address)": "infinite",
				"totalSupply()": "infinite",
				"totalSupply(uint256)": "infinite",
				"transferOwnership(address)": "30833",
				"uri(uint256)": "infinite"
			}
		},
		"methodIdentifiers": {
			"addTokenLiquidity(address,uint256,uint256,address)": "43fefad4",
			"adminChangeCerUsdCreditInPool(address,uint256)": "cab4ba82",
			"adminCreatePool(address,uint256,uint256,address)": "d5d60737",
			"adminInitialize()": "c09c923b",
			"adminSetURI(string)": "a7fd40bf",
			"adminUpdateFeesAndTvlMultipliers((address,uint256,uint256,uint256,uint256,uint256))": "0c2e075b",
			"adminUpdateNameAndSymbol(string,string)": "3935ac11",
			"balanceOf(address,uint256)": "00fdd58e",
			"balanceOfBatch(address[],uint256[])": "4e1273f4",
			"burn(address,uint256,uint256)": "f5298aca",
			"createPool(address,uint256,uint256,address)": "842980f4",
			"decimals()": "313ce567",
			"exists(uint256)": "4f558e79",
			"getCurrentOneMinusFeeBasedOnTrades(address)": "4c3c0eb2",
			"getInputTokensForExactTokens(address,address,uint256)": "c790985a",
			"getOutputExactTokensForTokens(address,address,uint256)": "48b08d62",
			"getPoolsByIds(uint256[])": "a6d8ad39",
			"getPoolsByTokens(address[])": "34e150ab",
			"getSettings()": "85b4bb53",
			"getTokenToPoolId(address)": "61417516",
			"getUtilsContractAtPos(uint256)": "06fb1a07",
			"increaseCerUsdCreditInPool(address,uint256)": "71858049",
			"isApprovedForAll(address,address)": "e985e9c5",
			"lowLevelSwap(address,uint256,uint256,address)": "5c41dbe0",
			"name()": "06fdde03",
			"owner()": "8da5cb5b",
			"removeTokenLiquidity(address,uint256,uint256,address)": "74fcf071",
			"renounceOwnership()": "715018a6",
			"safeBatchTransferFrom(address,address,uint256[],uint256[],bytes)": "2eb2c2d6",
			"safeTransferFrom(address,address,uint256,uint256,bytes)": "f242432a",
			"setApprovalForAll(address,bool)": "a22cb465",
			"skimPool(address)": "03d604bd",
			"supportsInterface(bytes4)": "01ffc9a7",
			"swapExactTokensForTokens(address,address,uint256,uint256,uint256,address)": "a60c6e55",
			"swapTokensForExactTokens(address,address,uint256,uint256,uint256,address)": "f6524724",
			"symbol()": "95d89b41",
			"syncTokenBalanceInPool(address)": "9bc731fc",
			"testInit()": "b5d11e99",
			"testSetupTokens(address,address,address,address,address)": "eca01093",
			"totalSupply()": "18160ddd",
			"totalSupply(uint256)": "bd85b039",
			"transferOwnership(address)": "f2fde38b",
			"uri(uint256)": "0e89341c"
		}
	},
	"abi": [
		{
			"inputs": [],
			"stateMutability": "nonpayable",
			"type": "constructor"
		},
		{
			"inputs": [],
			"name": "CerbyCronJobsExecution_TransactionsAreTemporarilyDisabled",
			"type": "error"
		},
		{
			"inputs": [],
			"name": "CerbySwapLP1155V1_CallerIsNotOwnerNorApproved",
			"type": "error"
		},
		{
			"inputs": [],
			"name": "CerbySwapLP1155V1_TransactionsAreTemporarilyDisabled",
			"type": "error"
		},
		{
			"inputs": [],
			"name": "CerbySwapV1_AmountOfCerUsdMustBeLargerThanOne",
			"type": "error"
		},
		{
			"inputs": [],
			"name": "CerbySwapV1_AmountOfCerUsdOrTokensInMustBeLargerThanOne",
			"type": "error"
		},
		{
			"inputs": [],
			"name": "CerbySwapV1_AmountOfTokensMustBeLargerThanOne",
			"type": "error"
		},
		{
			"inputs": [],
			"name": "CerbySwapV1_CreditCerUsdIsOverflown",
			"type": "error"
		},
		{
			"inputs": [],
			"name": "CerbySwapV1_CreditCerUsdMustNotBeBelowZero",
			"type": "error"
		},
		{
			"inputs": [],
			"name": "CerbySwapV1_FeeIsWrong",
			"type": "error"
		},
		{
			"inputs": [],
			"name": "CerbySwapV1_FeeOnTransferTokensArentSupported",
			"type": "error"
		},
		{
			"inputs": [],
			"name": "CerbySwapV1_InputCerUsdAmountIsLargerThanMaximumSpecified",
			"type": "error"
		},
		{
			"inputs": [],
			"name": "CerbySwapV1_InputTokensAmountIsLargerThanMaximumSpecified",
			"type": "error"
		},
		{
			"inputs": [],
			"name": "CerbySwapV1_InvariantKValueMustBeSameOrIncreasedOnAnySwaps",
			"type": "error"
		},
		{
			"inputs": [],
			"name": "CerbySwapV1_MintFeeMultiplierMustNotBeLargerThan50Percent",
			"type": "error"
		},
		{
			"inputs": [],
			"name": "CerbySwapV1_MsgValueProvidedMustBeLargerThanAmountIn",
			"type": "error"
		},
		{
			"inputs": [],
			"name": "CerbySwapV1_MsgValueProvidedMustBeZero",
			"type": "error"
		},
		{
			"inputs": [],
			"name": "CerbySwapV1_OutputCerUsdAmountIsLowerThanMinimumSpecified",
			"type": "error"
		},
		{
			"inputs": [],
			"name": "CerbySwapV1_OutputTokensAmountIsLowerThanMinimumSpecified",
			"type": "error"
		},
		{
			"inputs": [],
			"name": "CerbySwapV1_SafeTransferFromFailed",
			"type": "error"
		},
		{
			"inputs": [],
			"name": "CerbySwapV1_SafeTransferNativeFailed",
			"type": "error"
		},
		{
			"inputs": [],
			"name": "CerbySwapV1_SafeTransferTokensFailed",
			"type": "error"
		},
		{
			"inputs": [],
			"name": "CerbySwapV1_SwappingTokenToSameTokenIsForbidden",
			"type": "error"
		},
		{
			"inputs": [],
			"name": "CerbySwapV1_TokenAlreadyExists",
			"type": "error"
		},
		{
			"inputs": [],
			"name": "CerbySwapV1_TokenDoesNotExist",
			"type": "error"
		},
		{
			"inputs": [],
			"name": "CerbySwapV1_TransactionIsExpired",
			"type": "error"
		},
		{
			"inputs": [],
			"name": "CerbySwapV1_TvlMultiplierIsWrong",
			"type": "error"
		},
		{
			"inputs": [],
			"name": "ERC1155_AccountsAndIdsLengthMismatch",
			"type": "error"
		},
		{
			"inputs": [],
			"name": "ERC1155_BalanceQueryForTheZeroAddress",
			"type": "error"
		},
		{
			"inputs": [],
			"name": "ERC1155_BurnAmountExceedsBalance",
			"type": "error"
		},
		{
			"inputs": [],
			"name": "ERC1155_BurnFromZeroAddress",
			"type": "error"
		},
		{
			"inputs": [],
			"name": "ERC1155_ERC1155ReceiverRejectsTokens",
			"type": "error"
		},
		{
			"inputs": [],
			"name": "ERC1155_IdsAndAmountsLengthMismatch",
			"type": "error"
		},
		{
			"inputs": [],
			"name": "ERC1155_InsufficientBalanceForTransfer",
			"type": "error"
		},
		{
			"inputs": [],
			"name": "ERC1155_MintToZeroAddress",
			"type": "error"
		},
		{
			"inputs": [],
			"name": "ERC1155_SettingApprovalStatusForSelf",
			"type": "error"
		},
		{
			"inputs": [],
			"name": "ERC1155_TransferToNonERC1155ReceiverImplementer",
			"type": "error"
		},
		{
			"inputs": [],
			"name": "ERC1155_TransferToZeroAddress",
			"type": "error"
		},
		{
			"inputs": [],
			"name": "Ownable_CallerIsNotOwner",
			"type": "error"
		},
		{
			"inputs": [],
			"name": "Ownable_NewOwnerIsNotTheZeroAddress",
			"type": "error"
		},
		{
			"anonymous": false,
			"inputs": [
				{
					"indexed": true,
					"internalType": "address",
					"name": "account",
					"type": "address"
				},
				{
					"indexed": true,
					"internalType": "address",
					"name": "operator",
					"type": "address"
				},
				{
					"indexed": false,
					"internalType": "bool",
					"name": "approved",
					"type": "bool"
				}
			],
			"name": "ApprovalForAll",
			"type": "event"
		},
		{
			"anonymous": false,
			"inputs": [
				{
					"indexed": false,
					"internalType": "address",
					"name": "token",
					"type": "address"
				},
				{
					"indexed": false,
					"internalType": "uint256",
					"name": "amountTokensIn",
					"type": "uint256"
				},
				{
					"indexed": false,
					"internalType": "uint256",
					"name": "amountCerUsdToMint",
					"type": "uint256"
				},
				{
					"indexed": false,
					"internalType": "uint256",
					"name": "lpAmount",
					"type": "uint256"
				}
			],
			"name": "LiquidityAdded",
			"type": "event"
		},
		{
			"anonymous": false,
			"inputs": [
				{
					"indexed": false,
					"internalType": "address",
					"name": "token",
					"type": "address"
				},
				{
					"indexed": false,
					"internalType": "uint256",
					"name": "amountTokensOut",
					"type": "uint256"
				},
				{
					"indexed": false,
					"internalType": "uint256",
					"name": "amountCerUsdToBurn",
					"type": "uint256"
				},
				{
					"indexed": false,
					"internalType": "uint256",
					"name": "amountLpTokensBalanceToBurn",
					"type": "uint256"
				}
			],
			"name": "LiquidityRemoved",
			"type": "event"
		},
		{
			"anonymous": false,
			"inputs": [
				{
					"indexed": true,
					"internalType": "address",
					"name": "previousOwner",
					"type": "address"
				},
				{
					"indexed": true,
					"internalType": "address",
					"name": "newOwner",
					"type": "address"
				}
			],
			"name": "OwnershipTransferred",
			"type": "event"
		},
		{
			"anonymous": false,
			"inputs": [
				{
					"indexed": false,
					"internalType": "address",
					"name": "token",
					"type": "address"
				},
				{
					"indexed": false,
					"internalType": "uint256",
					"name": "poolId",
					"type": "uint256"
				}
			],
			"name": "PairCreated",
			"type": "event"
		},
		{
			"anonymous": false,
			"inputs": [
				{
					"indexed": false,
					"internalType": "address",
					"name": "token",
					"type": "address"
				},
				{
					"indexed": false,
					"internalType": "address",
					"name": "sender",
					"type": "address"
				},
				{
					"indexed": false,
					"internalType": "uint256",
					"name": "amountTokensIn",
					"type": "uint256"
				},
				{
					"indexed": false,
					"internalType": "uint256",
					"name": "amountCerUsdIn",
					"type": "uint256"
				},
				{
					"indexed": false,
					"internalType": "uint256",
					"name": "amountTokensOut",
					"type": "uint256"
				},
				{
					"indexed": false,
					"internalType": "uint256",
					"name": "amountCerUsdOut",
					"type": "uint256"
				},
				{
					"indexed": false,
					"internalType": "uint256",
					"name": "currentFee",
					"type": "uint256"
				},
				{
					"indexed": false,
					"internalType": "address",
					"name": "transferTo",
					"type": "address"
				}
			],
			"name": "Swap",
			"type": "event"
		},
		{
			"anonymous": false,
			"inputs": [
				{
					"indexed": false,
					"internalType": "address",
					"name": "token",
					"type": "address"
				},
				{
					"indexed": false,
					"internalType": "uint256",
					"name": "newBalanceToken",
					"type": "uint256"
				},
				{
					"indexed": false,
					"internalType": "uint256",
					"name": "newBalanceCerUsd",
					"type": "uint256"
				},
				{
					"indexed": false,
					"internalType": "uint256",
					"name": "newCreditCerUsd",
					"type": "uint256"
				}
			],
			"name": "Sync",
			"type": "event"
		},
		{
			"anonymous": false,
			"inputs": [
				{
					"indexed": true,
					"internalType": "address",
					"name": "operator",
					"type": "address"
				},
				{
					"indexed": true,
					"internalType": "address",
					"name": "from",
					"type": "address"
				},
				{
					"indexed": true,
					"internalType": "address",
					"name": "to",
					"type": "address"
				},
				{
					"indexed": false,
					"internalType": "uint256[]",
					"name": "ids",
					"type": "uint256[]"
				},
				{
					"indexed": false,
					"internalType": "uint256[]",
					"name": "values",
					"type": "uint256[]"
				}
			],
			"name": "TransferBatch",
			"type": "event"
		},
		{
			"anonymous": false,
			"inputs": [
				{
					"indexed": true,
					"internalType": "address",
					"name": "operator",
					"type": "address"
				},
				{
					"indexed": true,
					"internalType": "address",
					"name": "from",
					"type": "address"
				},
				{
					"indexed": true,
					"internalType": "address",
					"name": "to",
					"type": "address"
				},
				{
					"indexed": false,
					"internalType": "uint256",
					"name": "id",
					"type": "uint256"
				},
				{
					"indexed": false,
					"internalType": "uint256",
					"name": "value",
					"type": "uint256"
				}
			],
			"name": "TransferSingle",
			"type": "event"
		},
		{
			"anonymous": false,
			"inputs": [
				{
					"indexed": false,
					"internalType": "string",
					"name": "value",
					"type": "string"
				},
				{
					"indexed": true,
					"internalType": "uint256",
					"name": "id",
					"type": "uint256"
				}
			],
			"name": "URI",
			"type": "event"
		},
		{
			"inputs": [
				{
					"internalType": "address",
					"name": "token",
					"type": "address"
				},
				{
					"internalType": "uint256",
					"name": "amountTokensIn",
					"type": "uint256"
				},
				{
					"internalType": "uint256",
					"name": "expireTimestamp",
					"type": "uint256"
				},
				{
					"internalType": "address",
					"name": "transferTo",
					"type": "address"
				}
			],
			"name": "addTokenLiquidity",
			"outputs": [
				{
					"internalType": "uint256",
					"name": "",
					"type": "uint256"
				}
			],
			"stateMutability": "payable",
			"type": "function"
		},
		{
			"inputs": [
				{
					"internalType": "address",
					"name": "token",
					"type": "address"
				},
				{
					"internalType": "uint256",
					"name": "amountCerUsdCredit",
					"type": "uint256"
				}
			],
			"name": "adminChangeCerUsdCreditInPool",
			"outputs": [],
			"stateMutability": "nonpayable",
			"type": "function"
		},
		{
			"inputs": [
				{
					"internalType": "address",
					"name": "token",
					"type": "address"
				},
				{
					"internalType": "uint256",
					"name": "amountTokensIn",
					"type": "uint256"
				},
				{
					"internalType": "uint256",
					"name": "amountCerUsdToMint",
					"type": "uint256"
				},
				{
					"internalType": "address",
					"name": "transferTo",
					"type": "address"
				}
			],
			"name": "adminCreatePool",
			"outputs": [],
			"stateMutability": "payable",
			"type": "function"
		},
		{
			"inputs": [],
			"name": "adminInitialize",
			"outputs": [],
			"stateMutability": "payable",
			"type": "function"
		},
		{
			"inputs": [
				{
					"internalType": "string",
					"name": "newUrlPrefix",
					"type": "string"
				}
			],
			"name": "adminSetURI",
			"outputs": [],
			"stateMutability": "nonpayable",
			"type": "function"
		},
		{
			"inputs": [
				{
					"components": [
						{
							"internalType": "address",
							"name": "mintFeeBeneficiary",
							"type": "address"
						},
						{
							"internalType": "uint256",
							"name": "mintFeeMultiplier",
							"type": "uint256"
						},
						{
							"internalType": "uint256",
							"name": "feeMinimum",
							"type": "uint256"
						},
						{
							"internalType": "uint256",
							"name": "feeMaximum",
							"type": "uint256"
						},
						{
							"internalType": "uint256",
							"name": "tvlMultiplierMinimum",
							"type": "uint256"
						},
						{
							"internalType": "uint256",
							"name": "tvlMultiplierMaximum",
							"type": "uint256"
						}
					],
					"internalType": "struct CerbySwapV1_Declarations.Settings",
					"name": "_settings",
					"type": "tuple"
				}
			],
			"name": "adminUpdateFeesAndTvlMultipliers",
			"outputs": [],
			"stateMutability": "nonpayable",
			"type": "function"
		},
		{
			"inputs": [
				{
					"internalType": "string",
					"name": "newName",
					"type": "string"
				},
				{
					"internalType": "string",
					"name": "newSymbol",
					"type": "string"
				}
			],
			"name": "adminUpdateNameAndSymbol",
			"outputs": [],
			"stateMutability": "nonpayable",
			"type": "function"
		},
		{
			"inputs": [
				{
					"internalType": "address",
					"name": "account",
					"type": "address"
				},
				{
					"internalType": "uint256",
					"name": "id",
					"type": "uint256"
				}
			],
			"name": "balanceOf",
			"outputs": [
				{
					"internalType": "uint256",
					"name": "",
					"type": "uint256"
				}
			],
			"stateMutability": "view",
			"type": "function"
		},
		{
			"inputs": [
				{
					"internalType": "address[]",
					"name": "accounts",
					"type": "address[]"
				},
				{
					"internalType": "uint256[]",
					"name": "ids",
					"type": "uint256[]"
				}
			],
			"name": "balanceOfBatch",
			"outputs": [
				{
					"internalType": "uint256[]",
					"name": "",
					"type": "uint256[]"
				}
			],
			"stateMutability": "view",
			"type": "function"
		},
		{
			"inputs": [
				{
					"internalType": "address",
					"name": "account",
					"type": "address"
				},
				{
					"internalType": "uint256",
					"name": "id",
					"type": "uint256"
				},
				{
					"internalType": "uint256",
					"name": "value",
					"type": "uint256"
				}
			],
			"name": "burn",
			"outputs": [],
			"stateMutability": "nonpayable",
			"type": "function"
		},
		{
			"inputs": [
				{
					"internalType": "address",
					"name": "token",
					"type": "address"
				},
				{
					"internalType": "uint256",
					"name": "amountTokensIn",
					"type": "uint256"
				},
				{
					"internalType": "uint256",
					"name": "amountCerUsdToMint",
					"type": "uint256"
				},
				{
					"internalType": "address",
					"name": "transferTo",
					"type": "address"
				}
			],
			"name": "createPool",
			"outputs": [],
			"stateMutability": "payable",
			"type": "function"
		},
		{
			"inputs": [],
			"name": "decimals",
			"outputs": [
				{
					"internalType": "uint256",
					"name": "",
					"type": "uint256"
				}
			],
			"stateMutability": "pure",
			"type": "function"
		},
		{
			"inputs": [
				{
					"internalType": "uint256",
					"name": "id",
					"type": "uint256"
				}
			],
			"name": "exists",
			"outputs": [
				{
					"internalType": "bool",
					"name": "",
					"type": "bool"
				}
			],
			"stateMutability": "view",
			"type": "function"
		},
		{
			"inputs": [
				{
					"internalType": "address",
					"name": "token",
					"type": "address"
				}
			],
			"name": "getCurrentOneMinusFeeBasedOnTrades",
			"outputs": [
				{
					"internalType": "uint256",
					"name": "fee",
					"type": "uint256"
				}
			],
			"stateMutability": "view",
			"type": "function"
		},
		{
			"inputs": [
				{
					"internalType": "address",
					"name": "tokenIn",
					"type": "address"
				},
				{
					"internalType": "address",
					"name": "tokenOut",
					"type": "address"
				},
				{
					"internalType": "uint256",
					"name": "amountTokensOut",
					"type": "uint256"
				}
			],
			"name": "getInputTokensForExactTokens",
			"outputs": [
				{
					"internalType": "uint256",
					"name": "amountTokensIn",
					"type": "uint256"
				}
			],
			"stateMutability": "view",
			"type": "function"
		},
		{
			"inputs": [
				{
					"internalType": "address",
					"name": "tokenIn",
					"type": "address"
				},
				{
					"internalType": "address",
					"name": "tokenOut",
					"type": "address"
				},
				{
					"internalType": "uint256",
					"name": "amountTokensIn",
					"type": "uint256"
				}
			],
			"name": "getOutputExactTokensForTokens",
			"outputs": [
				{
					"internalType": "uint256",
					"name": "amountTokensOut",
					"type": "uint256"
				}
			],
			"stateMutability": "view",
			"type": "function"
		},
		{
			"inputs": [
				{
					"internalType": "uint256[]",
					"name": "ids",
					"type": "uint256[]"
				}
			],
			"name": "getPoolsByIds",
			"outputs": [
				{
					"components": [
						{
							"internalType": "uint32[8]",
							"name": "tradeVolumePerPeriodInCerUsd",
							"type": "uint32[8]"
						},
						{
							"internalType": "uint128",
							"name": "balanceToken",
							"type": "uint128"
						},
						{
							"internalType": "uint128",
							"name": "balanceCerUsd",
							"type": "uint128"
						},
						{
							"internalType": "uint128",
							"name": "lastSqrtKValue",
							"type": "uint128"
						},
						{
							"internalType": "uint256",
							"name": "creditCerUsd",
							"type": "uint256"
						}
					],
					"internalType": "struct CerbySwapV1_Declarations.Pool[]",
					"name": "",
					"type": "tuple[]"
				}
			],
			"stateMutability": "view",
			"type": "function"
		},
		{
			"inputs": [
				{
					"internalType": "address[]",
					"name": "tokens",
					"type": "address[]"
				}
			],
			"name": "getPoolsByTokens",
			"outputs": [
				{
					"components": [
						{
							"internalType": "uint32[8]",
							"name": "tradeVolumePerPeriodInCerUsd",
							"type": "uint32[8]"
						},
						{
							"internalType": "uint128",
							"name": "balanceToken",
							"type": "uint128"
						},
						{
							"internalType": "uint128",
							"name": "balanceCerUsd",
							"type": "uint128"
						},
						{
							"internalType": "uint128",
							"name": "lastSqrtKValue",
							"type": "uint128"
						},
						{
							"internalType": "uint256",
							"name": "creditCerUsd",
							"type": "uint256"
						}
					],
					"internalType": "struct CerbySwapV1_Declarations.Pool[]",
					"name": "",
					"type": "tuple[]"
				}
			],
			"stateMutability": "view",
			"type": "function"
		},
		{
			"inputs": [],
			"name": "getSettings",
			"outputs": [
				{
					"components": [
						{
							"internalType": "address",
							"name": "mintFeeBeneficiary",
							"type": "address"
						},
						{
							"internalType": "uint256",
							"name": "mintFeeMultiplier",
							"type": "uint256"
						},
						{
							"internalType": "uint256",
							"name": "feeMinimum",
							"type": "uint256"
						},
						{
							"internalType": "uint256",
							"name": "feeMaximum",
							"type": "uint256"
						},
						{
							"internalType": "uint256",
							"name": "tvlMultiplierMinimum",
							"type": "uint256"
						},
						{
							"internalType": "uint256",
							"name": "tvlMultiplierMaximum",
							"type": "uint256"
						}
					],
					"internalType": "struct CerbySwapV1_Declarations.Settings",
					"name": "",
					"type": "tuple"
				}
			],
			"stateMutability": "view",
			"type": "function"
		},
		{
			"inputs": [
				{
					"internalType": "address",
					"name": "token",
					"type": "address"
				}
			],
			"name": "getTokenToPoolId",
			"outputs": [
				{
					"internalType": "uint256",
					"name": "",
					"type": "uint256"
				}
			],
			"stateMutability": "view",
			"type": "function"
		},
		{
			"inputs": [
				{
					"internalType": "uint256",
					"name": "pos",
					"type": "uint256"
				}
			],
			"name": "getUtilsContractAtPos",
			"outputs": [
				{
					"internalType": "address",
					"name": "",
					"type": "address"
				}
			],
			"stateMutability": "view",
			"type": "function"
		},
		{
			"inputs": [
				{
					"internalType": "address",
					"name": "token",
					"type": "address"
				},
				{
					"internalType": "uint256",
					"name": "amountCerUsdCredit",
					"type": "uint256"
				}
			],
			"name": "increaseCerUsdCreditInPool",
			"outputs": [],
			"stateMutability": "nonpayable",
			"type": "function"
		},
		{
			"inputs": [
				{
					"internalType": "address",
					"name": "account",
					"type": "address"
				},
				{
					"internalType": "address",
					"name": "operator",
					"type": "address"
				}
			],
			"name": "isApprovedForAll",
			"outputs": [
				{
					"internalType": "bool",
					"name": "",
					"type": "bool"
				}
			],
			"stateMutability": "view",
			"type": "function"
		},
		{
			"inputs": [
				{
					"internalType": "address",
					"name": "token",
					"type": "address"
				},
				{
					"internalType": "uint256",
					"name": "amountTokensOut",
					"type": "uint256"
				},
				{
					"internalType": "uint256",
					"name": "amountCerUsdOut",
					"type": "uint256"
				},
				{
					"internalType": "address",
					"name": "transferTo",
					"type": "address"
				}
			],
			"name": "lowLevelSwap",
			"outputs": [],
			"stateMutability": "payable",
			"type": "function"
		},
		{
			"inputs": [],
			"name": "name",
			"outputs": [
				{
					"internalType": "string",
					"name": "",
					"type": "string"
				}
			],
			"stateMutability": "view",
			"type": "function"
		},
		{
			"inputs": [],
			"name": "owner",
			"outputs": [
				{
					"internalType": "address",
					"name": "",
					"type": "address"
				}
			],
			"stateMutability": "view",
			"type": "function"
		},
		{
			"inputs": [
				{
					"internalType": "address",
					"name": "token",
					"type": "address"
				},
				{
					"internalType": "uint256",
					"name": "amountLpTokensBalanceToBurn",
					"type": "uint256"
				},
				{
					"internalType": "uint256",
					"name": "expireTimestamp",
					"type": "uint256"
				},
				{
					"internalType": "address",
					"name": "transferTo",
					"type": "address"
				}
			],
			"name": "removeTokenLiquidity",
			"outputs": [
				{
					"internalType": "uint256",
					"name": "",
					"type": "uint256"
				}
			],
			"stateMutability": "nonpayable",
			"type": "function"
		},
		{
			"inputs": [],
			"name": "renounceOwnership",
			"outputs": [],
			"stateMutability": "nonpayable",
			"type": "function"
		},
		{
			"inputs": [
				{
					"internalType": "address",
					"name": "from",
					"type": "address"
				},
				{
					"internalType": "address",
					"name": "to",
					"type": "address"
				},
				{
					"internalType": "uint256[]",
					"name": "ids",
					"type": "uint256[]"
				},
				{
					"internalType": "uint256[]",
					"name": "amounts",
					"type": "uint256[]"
				},
				{
					"internalType": "bytes",
					"name": "data",
					"type": "bytes"
				}
			],
			"name": "safeBatchTransferFrom",
			"outputs": [],
			"stateMutability": "nonpayable",
			"type": "function"
		},
		{
			"inputs": [
				{
					"internalType": "address",
					"name": "from",
					"type": "address"
				},
				{
					"internalType": "address",
					"name": "to",
					"type": "address"
				},
				{
					"internalType": "uint256",
					"name": "id",
					"type": "uint256"
				},
				{
					"internalType": "uint256",
					"name": "amount",
					"type": "uint256"
				},
				{
					"internalType": "bytes",
					"name": "data",
					"type": "bytes"
				}
			],
			"name": "safeTransferFrom",
			"outputs": [],
			"stateMutability": "nonpayable",
			"type": "function"
		},
		{
			"inputs": [
				{
					"internalType": "address",
					"name": "operator",
					"type": "address"
				},
				{
					"internalType": "bool",
					"name": "approved",
					"type": "bool"
				}
			],
			"name": "setApprovalForAll",
			"outputs": [],
			"stateMutability": "nonpayable",
			"type": "function"
		},
		{
			"inputs": [
				{
					"internalType": "address",
					"name": "token",
					"type": "address"
				}
			],
			"name": "skimPool",
			"outputs": [],
			"stateMutability": "nonpayable",
			"type": "function"
		},
		{
			"inputs": [
				{
					"internalType": "bytes4",
					"name": "interfaceId",
					"type": "bytes4"
				}
			],
			"name": "supportsInterface",
			"outputs": [
				{
					"internalType": "bool",
					"name": "",
					"type": "bool"
				}
			],
			"stateMutability": "view",
			"type": "function"
		},
		{
			"inputs": [
				{
					"internalType": "address",
					"name": "tokenIn",
					"type": "address"
				},
				{
					"internalType": "address",
					"name": "tokenOut",
					"type": "address"
				},
				{
					"internalType": "uint256",
					"name": "amountTokensIn",
					"type": "uint256"
				},
				{
					"internalType": "uint256",
					"name": "minAmountTokensOut",
					"type": "uint256"
				},
				{
					"internalType": "uint256",
					"name": "expireTimestamp",
					"type": "uint256"
				},
				{
					"internalType": "address",
					"name": "transferTo",
					"type": "address"
				}
			],
			"name": "swapExactTokensForTokens",
			"outputs": [
				{
					"internalType": "uint256",
					"name": "",
					"type": "uint256"
				},
				{
					"internalType": "uint256",
					"name": "",
					"type": "uint256"
				}
			],
			"stateMutability": "payable",
			"type": "function"
		},
		{
			"inputs": [
				{
					"internalType": "address",
					"name": "tokenIn",
					"type": "address"
				},
				{
					"internalType": "address",
					"name": "tokenOut",
					"type": "address"
				},
				{
					"internalType": "uint256",
					"name": "amountTokensOut",
					"type": "uint256"
				},
				{
					"internalType": "uint256",
					"name": "maxAmountTokensIn",
					"type": "uint256"
				},
				{
					"internalType": "uint256",
					"name": "expireTimestamp",
					"type": "uint256"
				},
				{
					"internalType": "address",
					"name": "transferTo",
					"type": "address"
				}
			],
			"name": "swapTokensForExactTokens",
			"outputs": [
				{
					"internalType": "uint256",
					"name": "",
					"type": "uint256"
				},
				{
					"internalType": "uint256",
					"name": "",
					"type": "uint256"
				}
			],
			"stateMutability": "payable",
			"type": "function"
		},
		{
			"inputs": [],
			"name": "symbol",
			"outputs": [
				{
					"internalType": "string",
					"name": "",
					"type": "string"
				}
			],
			"stateMutability": "view",
			"type": "function"
		},
		{
			"inputs": [
				{
					"internalType": "address",
					"name": "token",
					"type": "address"
				}
			],
			"name": "syncTokenBalanceInPool",
			"outputs": [],
			"stateMutability": "nonpayable",
			"type": "function"
		},
		{
			"inputs": [],
			"name": "testInit",
			"outputs": [],
			"stateMutability": "nonpayable",
			"type": "function"
		},
		{
			"inputs": [
				{
					"internalType": "address",
					"name": "",
					"type": "address"
				},
				{
					"internalType": "address",
					"name": "_testCerbyToken",
					"type": "address"
				},
				{
					"internalType": "address",
					"name": "_cerUsdToken",
					"type": "address"
				},
				{
					"internalType": "address",
					"name": "_testUsdcToken",
					"type": "address"
				},
				{
					"internalType": "address",
					"name": "",
					"type": "address"
				}
			],
			"name": "testSetupTokens",
			"outputs": [],
			"stateMutability": "nonpayable",
			"type": "function"
		},
		{
			"inputs": [],
			"name": "totalSupply",
			"outputs": [
				{
					"internalType": "uint256",
					"name": "",
					"type": "uint256"
				}
			],
			"stateMutability": "view",
			"type": "function"
		},
		{
			"inputs": [
				{
					"internalType": "uint256",
					"name": "id",
					"type": "uint256"
				}
			],
			"name": "totalSupply",
			"outputs": [
				{
					"internalType": "uint256",
					"name": "",
					"type": "uint256"
				}
			],
			"stateMutability": "view",
			"type": "function"
		},
		{
			"inputs": [
				{
					"internalType": "address",
					"name": "newOwner",
					"type": "address"
				}
			],
			"name": "transferOwnership",
			"outputs": [],
			"stateMutability": "nonpayable",
			"type": "function"
		},
		{
			"inputs": [
				{
					"internalType": "uint256",
					"name": "id",
					"type": "uint256"
				}
			],
			"name": "uri",
			"outputs": [
				{
					"internalType": "string",
					"name": "",
					"type": "string"
				}
			],
			"stateMutability": "view",
			"type": "function"
		},
		{
			"stateMutability": "payable",
			"type": "receive"
		}
	]
}