{
	"data": {
		"bytecode": {
			"linkReferences": {},
			"object": "600080546001600160a01b03199081167346e8e0af862f636199af69acd082b9963066ed9c1790915560048054821673527ea24a5917c452dbf402edc9da4190239bccf117905560058054821673947ef3df5b7d5ec37214dd06c4042c8e7b0cebd7179055600680549091167314769f96e57b80c66837701de0b43686fb4632de17905560c0604052600b60808190526a436572627953776170563160a81b60a0908152620000b291601291906200047b565b506040805180820190915260038082526243533160e81b6020909201918252620000df916013916200047b565b5060405180606001604052806023815260200162005bf860239139805162000110916014916020909101906200047b565b503480156200011e57600080fd5b5060146040516020016200013391906200055e565b60408051601f198184030181529190526200014e8162000410565b506200015a3362000429565b73def78a28c78a461598d948bc0c689ce88f812ad860006064620001808160146200061c565b6200018c91906200064a565b90506351a67366600160c882600083620001a784846200061c565b620001b391906200064a565b6040805160e0810182526001600160a01b03808b1680835260208084018c90528385018a905260608085018a90526080850189905260a08501879052601860c0909501859052600780546001600160a01b0319908116909417905560088d905560098b9055600a8a9055600b899055600c879055600d8590558551908101865260008082529181018281529581018281526001805480820182559381905291516002939093027fb10e2d527612073b26eecdfd717e6a320cf44b4afac2b0732d9fcbe2b7fa0cf681018054949096169390941692909217909355935193516001600160801b03908116600160801b029416939093177fb10e2d527612073b26eecdfd717e6a320cf44b4afac2b0732d9fcbe2b7fa0cf7909301929092559192504614156200030757600680546001600160a01b03191673c02aaa39b223fe8d0a0e5c4f27ead9083c756cc2179055620003db565b46603814156200033d57600680546001600160a01b03191673bb4cdb9cbd36b01bd1cbaebf2de08d9173bc095c179055620003db565b46608914156200037357600680546001600160a01b031916730d500b1d8e8ef31e21c99d1db9a6444d3adf1270179055620003db565b4661a86a1415620003aa57600680546001600160a01b03191673b31f66aa3c1e785363f0875a1b74e27b85fd66c7179055620003db565b4660fa1415620003db57600680546001600160a01b0319167321be370d5312f44cb42ce377bc9b8a0cef1a4c831790555b5050600680546001600160a01b0319167314769f96e57b80c66837701de0b43686fb4632de179055506200066d945050505050565b8051620004259060109060208401906200047b565b5050565b601580546001600160a01b038381166001600160a01b0319831681179093556040519116919082907f8be0079c531659141344cd1fd0a4f28419497f9722a3daafe3b4186f6b6457e090600090a35050565b828054620004899062000521565b90600052602060002090601f016020900481019282620004ad5760008555620004f8565b82601f10620004c857805160ff1916838001178555620004f8565b82800160010185558215620004f8579182015b82811115620004f8578251825591602001919060010190620004db565b50620005069291506200050a565b5090565b5b808211156200050657600081556001016200050b565b600181811c908216806200053657607f821691505b602082108114156200055857634e487b7160e01b600052602260045260246000fd5b50919050565b600080835481600182811c9150808316806200057b57607f831692505b60208084108214156200059c57634e487b7160e01b86526022600452602486fd5b818015620005b35760018114620005c557620005f4565b60ff19861689528489019650620005f4565b60008a81526020902060005b86811015620005ec5781548b820152908501908301620005d1565b505084890196505b5050505050506200061481683db4b23e973539b7b760b91b815260090190565b949350505050565b60008160001904831182151516156200064557634e487b7160e01b600052601160045260246000fd5b500290565b6000826200066857634e487b7160e01b600052601260045260246000fd5b500490565b61557b806200067d6000396000f3fe608060405260043610620002555760003560e01c806374fcf071116200013b578063bd85b03911620000b9578063e985e9c51162000078578063e985e9c51462000778578063eca01093146200079d578063f242432a14620007c2578063f2fde38b14620007e7578063f6524724146200080c57600080fd5b8063bd85b03914620006dc578063c09c923b146200070d578063c790985a1462000717578063cab4ba82146200073c578063d5d60737146200076157600080fd5b806395d89b41116200010657806395d89b41146200064b578063a22cb4651462000663578063a60c6e551462000688578063a7fd40bf146200069f578063b5d11e9914620006c457600080fd5b806374fcf071146200057c578063842980f414620005a157806385b4bb5314620005b85780638da5cb5b146200062b57600080fd5b806334e150ab11620001d55780634e1273f411620001945780634e1273f4146200049e5780634f558e7914620004d2578063614175161462000505578063715018a6146200053f57806371858049146200055757600080fd5b806334e150ab14620003e45780633935ac11146200041857806343fefad4146200043d57806348b08d6214620004545780634c3c0eb2146200047957600080fd5b806306fdde03116200022257806306fdde0314620003455780630e89341c146200036c57806318160ddd14620003915780632eb2c2d614620003a9578063313ce56714620003ce57600080fd5b80623374b51462000262578062fdd58e146200028957806301ffc9a714620002c157806306fb1a07146200030757600080fd5b366200025d57005b600080fd5b3480156200026f57600080fd5b50620002876200028136600462004462565b62000823565b005b3480156200029657600080fd5b50620002ae620002a83660046200448b565b62000918565b6040519081526020015b60405180910390f35b348015620002ce57600080fd5b50620002f6620002e0366004620044d1565b6001600160e01b0319166301ffc9a760e01b1490565b6040519015158152602001620002b8565b3480156200031457600080fd5b506200032c62000326366004620044f1565b6200096d565b6040516001600160a01b039091168152602001620002b8565b3480156200035257600080fd5b506200035d620009e7565b604051620002b8919062004568565b3480156200037957600080fd5b506200035d6200038b366004620044f1565b62000a81565b3480156200039e57600080fd5b50620002ae62000aaf565b348015620003b657600080fd5b5062000287620003c836600462004611565b62000b01565b348015620003db57600080fd5b506012620002ae565b348015620003f157600080fd5b506200040962000403366004620046de565b62000bc5565b604051620002b8919062004724565b3480156200042557600080fd5b50620002876200043736600462004820565b62000d07565b620002ae6200044e3660046200488b565b62000d6e565b3480156200046157600080fd5b50620002ae62000473366004620048da565b62001117565b3480156200048657600080fd5b50620002ae6200049836600462004920565b62001284565b348015620004ab57600080fd5b50620004c3620004bd36600462004940565b620012f5565b604051620002b89190620049b3565b348015620004df57600080fd5b50620002f6620004f1366004620044f1565b600090815260116020526040902054151590565b3480156200051257600080fd5b50620002ae6200052436600462004920565b6001600160a01b031660009081526002602052604090205490565b3480156200054c57600080fd5b506200028762001400565b3480156200056457600080fd5b5062000287620005763660046200448b565b6200144a565b3480156200058957600080fd5b50620002ae6200059b3660046200488b565b620015c8565b62000287620005b23660046200488b565b62001659565b348015620005c557600080fd5b50620005d06200166f565b604051620002b8919081516001600160a01b031681526020808301519082015260408083015190820152606080830151908201526080808301519082015260a0828101519082015260c0918201519181019190915260e00190565b3480156200063857600080fd5b506015546001600160a01b03166200032c565b3480156200065857600080fd5b506200035d62001707565b3480156200067057600080fd5b50620002876200068236600462004a08565b62001718565b620004c36200069936600462004a46565b6200178a565b348015620006ac57600080fd5b5062000287620006be36600462004ab4565b62001c3b565b348015620006d157600080fd5b506200028762001cb3565b348015620006e957600080fd5b50620002ae620006fb366004620044f1565b60009081526011602052604090205490565b6200028762001d15565b3480156200072457600080fd5b50620002ae62000736366004620048da565b62001d84565b3480156200074957600080fd5b50620002876200075b3660046200448b565b62001ed7565b62000287620007723660046200488b565b6200201d565b3480156200078557600080fd5b50620002f66200079736600462004aee565b6200206f565b348015620007aa57600080fd5b5062000287620007bc36600462004b21565b6200209d565b348015620007cf57600080fd5b5062000287620007e136600462004b9d565b620020eb565b348015620007f457600080fd5b50620002876200080636600462004920565b620021ab565b620004c36200081d36600462004a46565b6200221d565b33620008376015546001600160a01b031690565b6001600160a01b0316146200085f5760405163ebf9845960e01b815260040160405180910390fd5b6040810135158062000878575080606001358160400135115b806200088957506101f48160600135115b15620008a857604051637420258d60e11b815260040160405180910390fd5b8060a0013581608001351115620008d2576040516375e1700b60e11b815260040160405180910390fd5b6064620008e56020830135600262004c37565b106200090457604051631457c3c360e11b815260040160405180910390fd5b80600762000913828262004c59565b505050565b60006001600160a01b0383166200094257604051636e3b454760e11b815260040160405180910390fd5b506000818152600e602090815260408083206001600160a01b03861684529091529020545b92915050565b6040516306fb1a0760e01b81526004810182905260009073def1fac7bf08f173d286bbbdcbeeade695129840906306fb1a0790602401602060405180830381865afa158015620009c1573d6000803e3d6000fd5b505050506040513d601f19601f8201168201806040525081019062000967919062004cc1565b606060128054620009f89062004ce1565b80601f016020809104026020016040519081016040528092919081815260200182805462000a269062004ce1565b801562000a775780601f1062000a4b5761010080835404028352916020019162000a77565b820191906000526020600020905b81548152906001019060200180831162000a5957829003601f168201915b5050505050905090565b606060148260405160200162000a9992919062004d18565b6040516020818303038152906040529050919050565b60008060005b600060118162000ac58562004dd8565b9450848152602001908152602001600020541115620009675760008281526011602052604090205462000af9908262004df6565b905062000ab5565b600062000b0f60036200096d565b9050806001600160a01b031663eef84ba16040518163ffffffff1660e01b8152600401600060405180830381600087803b15801562000b4d57600080fd5b505af115801562000b62573d6000803e3d6000fd5b505050506001600160a01b038916331480159062000b89575062000b8789336200206f565b155b1562000ba857604051630de6955560e31b815260040160405180910390fd5b62000bba89898989898989896200272a565b505050505050505050565b606060008267ffffffffffffffff81111562000be55762000be562004775565b60405190808252806020026020018201604052801562000c2c57816020015b604080518082019091526000808252602082015281526020019060019003908162000c045790505b50905060005b8381101562000cff57600085858381811062000c525762000c5262004e11565b905060200201602081019062000c69919062004920565b6001600160a01b038116600090815260026020526040812054600180549394509192811062000c9c5762000c9c62004e11565b60009182526020909120600290910201805490915062000cc79083906001600160a01b0316620029de565b84848151811062000cdc5762000cdc62004e11565b60200260200101819052505050808062000cf69062004dd8565b91505062000c32565b509392505050565b3362000d1b6015546001600160a01b031690565b6001600160a01b03161462000d435760405163ebf9845960e01b815260040160405180910390fd5b815162000d5890601290602085019062004331565b5080516200091390601390602084019062004331565b6001600160a01b0384166000908152600260205260408120548590158062000da357506000546001600160a01b038281169116145b1562000dcc5760405162461bcd60e51b815260040162000dc39062004e27565b60405180910390fd5b838042111562000df05760405162461bcd60e51b815260040162000dc39062004e42565b6001600160a01b038716600090815260026020526040812054600180549192918390811062000e235762000e2362004e11565b600091825260208220600290910201805490925062000e4d908b906001600160a01b0316620029de565b825490915062000e6b908b9033906001600160a01b03168c62002a32565b815460009062000e86908c906001600160a01b0316620029de565b8251815191925062000e989162004e5d565b995060018a1162000ebd5760405162461bcd60e51b815260040162000dc39062004e77565b600062000edf8360200151846000015162000ed9919062004c37565b62002b9d565b60018501546000878152601160205260408120549293509162000f0e916001600160801b031690849062002c1b565b60075460408051602081019091526000815291925062000f3e916001600160a01b03909116908890849062002cb3565b835160008781526011602052604081205490919062000f5e908f62004c37565b62000f6a919062004e92565b905062000f898b88836040518060200160405280600081525062002cb3565b6000856000015186602001518f62000fa2919062004c37565b62000fae919062004e92565b90506001811162000fd157604051621037cb60e91b815260040160405180910390fd5b6000548754604051630bb9ff5d60e01b81526001600160a01b03918216600482015260248101849052911690630bb9ff5d90604401600060405180830381600087803b1580156200102157600080fd5b505af115801562001036573d6000803e3d6000fd5b5050505060208501518551620010519162000ed99162004c37565b8760010160006101000a8154816001600160801b0302191690836001600160801b031602179055507f64b83944e79c3ce8d4c297411de637c3e102d064677aac0c163976ebdcd6f50e8f8f8385604051620010b0949392919062004eb5565b60405180910390a1600080516020620055268339815191528f866000015187602001518a60010160109054906101000a90046001600160801b0316604051620010fd949392919062004edb565b60405180910390a1509d9c50505050505050505050505050565b6001600160a01b03831660009081526002602052604081205460018054839283929181106200114a576200114a62004e11565b60009182526020808320600292830201546001600160a01b03898116855292909152604083205460018054939092169450909181106200118e576200118e62004e11565b6000918252602082206002909102015490546001600160a01b039182169250888216911614801590620011ce57506000546001600160a01b038781169116145b15620011f857620011ec620011e48884620029de565b888762002d87565b93506200127d92505050565b6000546001600160a01b0388811691161480156200122457506000546001600160a01b03878116911614155b156200124257620011ec6200123a8783620029de565b878762002e06565b60006200125c620012548985620029de565b898862002d87565b9050620012766200126e8884620029de565b888362002e06565b9450505050505b9392505050565b6001600160a01b038116600090815260026020526040812054600180548392908110620012b557620012b562004e11565b6000918252602082206002909102018054909250620012df9085906001600160a01b0316620029de565b9050620012ed848262002e73565b949350505050565b60608184811462001319576040516380dadc2760e01b815260040160405180910390fd5b60008567ffffffffffffffff81111562001337576200133762004775565b60405190808252806020026020018201604052801562001361578160200160208202803683370190505b50905060005b82811015620013f557620013c288888381811062001389576200138962004e11565b9050602002016020810190620013a0919062004920565b878784818110620013b557620013b562004e11565b9050602002013562000918565b828281518110620013d757620013d762004e11565b6020908102919091010152620013ed8162004dd8565b905062001367565b509695505050505050565b33620014146015546001600160a01b031690565b6001600160a01b0316146200143c5760405163ebf9845960e01b815260040160405180910390fd5b62001448600062002fe4565b565b6001600160a01b0382166000908152600260205260408120546001805490919081106200147b576200147b62004e11565b6000918252602082206002909102018054909250620014a59085906001600160a01b0316620029de565b60018301549091506001600160801b03600160801b909104811610156200157857828260010160108282829054906101000a90046001600160801b0316620014ee919062004f0a565b82546001600160801b039182166101009390930a9283029190920219909116179055506000546040516318a8ad8760e01b8152336004820152602481018590526001600160a01b03909116906318a8ad8790604401600060405180830381600087803b1580156200155e57600080fd5b505af115801562001573573d6000803e3d6000fd5b505050505b8051602082015160018401546040516000805160206200552683398151915293620015ba93899391929091600160801b90046001600160801b03169062004edb565b60405180910390a150505050565b6001600160a01b03841660009081526002602052604081205485901580620015fd57506000546001600160a01b038281169116145b156200161d5760405162461bcd60e51b815260040162000dc39062004e27565b8380421115620016415760405162461bcd60e51b815260040162000dc39062004e42565b6200164e87878662003036565b979650505050505050565b6200166984848460008562003300565b50505050565b620016b96040518060e0016040528060006001600160a01b031681526020016000815260200160008152602001600081526020016000815260200160008152602001600081525090565b506040805160e0810182526007546001600160a01b03168152600854602082015260095491810191909152600a546060820152600b546080820152600c5460a0820152600d5460c082015290565b606060138054620009f89062004ce1565b60006200172660036200096d565b9050806001600160a01b031663eef84ba16040518163ffffffff1660e01b8152600401600060405180830381600087803b1580156200176457600080fd5b505af115801562001779573d6000803e3d6000fd5b505050506200091333848462003639565b60608280421115620017b05760405162461bcd60e51b815260040162000dc39062004e42565b60018611620017d35760405162461bcd60e51b815260040162000dc39062004e77565b6001600160a01b03881660009081526002602052604081205460018054909190811062001804576200180462004e11565b60009182526020808320600292830201546001600160a01b038c81168552929091526040832054600180549390921694509091811062001848576200184862004e11565b6000918252602080832060029283020154604080518481526060810182526001600160a01b0390921695509092918301908036833701905050905088816000815181106200189a576200189a62004e11565b60209081029190910101526000546001600160a01b038c8116911614801590620018d157506000546001600160a01b038b81169116145b15620019b0576000620018e58c85620029de565b9050620018f4818d8c62002d87565b826001815181106200190a576200190a62004e11565b60200260200101818152505088826001815181106200192d576200192d62004e11565b60200260200101511015620019695760405162461bcd60e51b81526020600482015260016024820152600960fb1b604482015260640162000dc3565b620019778c33868d62002a32565b620019a48c8260008560018151811062001995576200199562004e11565b60200260200101518b620036da565b509350620013f5915050565b6000546001600160a01b038c81169116148015620019dc57506000546001600160a01b038b8116911614155b1562001aaf576000620019f08b84620029de565b9050620019ff818c8c62002e06565b8260018151811062001a155762001a1562004e11565b602002602001018181525050888260018151811062001a385762001a3862004e11565b6020026020010151101562001a745760405162461bcd60e51b81526020600482015260016024820152606960f81b604482015260640162000dc3565b62001a828c33858d62002a32565b620019a48b828460018151811062001a9e5762001a9e62004e11565b602002602001015160008b620036da565b6000546001600160a01b038c811691161480159062001adc57506000546001600160a01b038b8116911614155b801562001afb5750896001600160a01b03168b6001600160a01b031614155b1562001c0e57600062001b0f8c85620029de565b9050600062001b20828e8d62002d87565b9050600062001b308d86620029de565b905062001b3f818e8462002e06565b8460018151811062001b555762001b5562004e11565b6020026020010181815250508a8460018151811062001b785762001b7862004e11565b6020026020010151101562001bb45760405162461bcd60e51b81526020600482015260016024820152606960f81b604482015260640162000dc3565b62001bc28e33888f62002a32565b62001bd28e8460008589620036da565b62001bff8d828660018151811062001bee5762001bee62004e11565b602002602001015160008d620036da565b839750505050505050620013f5565b60405162461bcd60e51b81526020600482015260016024820152601360fa1b604482015260640162000dc3565b3362001c4f6015546001600160a01b031690565b6001600160a01b03161462001c775760405163ebf9845960e01b815260040160405180910390fd5b62001ca5828260405160200162001c9092919062004f38565b60405160208183030381529060405262003b64565b6200091360148383620043c0565b60045462001ce9906001600160a01b031669d3c21bcecceda10000006969e10de76676d08000006001600160801b033362003300565b60055462001448906001600160a01b031669943b1377290cbd800000806001600160801b033362003300565b3362001d296015546001600160a01b031690565b6001600160a01b03161462001d515760405163ebf9845960e01b815260040160405180910390fd5b60065462001448906001600160a01b031666038d7ea4c6800069d3c21bcecceda10000006001600160801b033362003300565b6001600160a01b038316600090815260026020526040812054600180548392839291811062001db75762001db762004e11565b60009182526020808320600292830201546001600160a01b038981168552929091526040832054600180549390921694509091811062001dfb5762001dfb62004e11565b6000918252602082206002909102015490546001600160a01b03918216925088821691161480159062001e3b57506000546001600160a01b038781169116145b1562001e5957620011ec62001e518884620029de565b888762003b7d565b6000546001600160a01b03888116911614801562001e8557506000546001600160a01b03878116911614155b1562001ea357620011ec62001e9b8783620029de565b878762003bf3565b600062001ebd62001eb58884620029de565b888862003bf3565b90506200127662001ecf8985620029de565b898362003b7d565b3362001eeb6015546001600160a01b031690565b6001600160a01b03161462001f135760405163ebf9845960e01b815260040160405180910390fd5b6001600160a01b0382166000908152600260205260409020548290158062001f4857506000546001600160a01b038281169116145b1562001f685760405162461bcd60e51b815260040162000dc39062004e27565b6001600160a01b03831660009081526002602052604081205460018054909190811062001f995762001f9962004e11565b600091825260208220600290910201805490925062001fc39086906001600160a01b0316620029de565b6001830180546001600160801b03808816600160801b0291161790558051602082015160405192935060008051602062005526833981519152926200200e9289929091899062004eb5565b60405180910390a15050505050565b33620020316015546001600160a01b031690565b6001600160a01b031614620020595760405163ebf9845960e01b815260040160405180910390fd5b620016698484846001600160801b038562003300565b6001600160a01b039182166000908152600f6020908152604080832093909416825291909152205460ff1690565b600480546001600160a01b038087166001600160a01b031992831617909255600080548684169083161790556005805492851692909116919091179055620020e462001cb3565b5050505050565b6000620020f960036200096d565b9050806001600160a01b031663eef84ba16040518163ffffffff1660e01b8152600401600060405180830381600087803b1580156200213757600080fd5b505af11580156200214c573d6000803e3d6000fd5b505050506001600160a01b03871633148015906200217357506200217187336200206f565b155b156200219257604051630de6955560e31b815260040160405180910390fd5b620021a287878787878762003c60565b50505050505050565b33620021bf6015546001600160a01b031690565b6001600160a01b031614620021e75760405163ebf9845960e01b815260040160405180910390fd5b6001600160a01b0381166200220f57604051635868b79d60e01b815260040160405180910390fd5b6200221a8162002fe4565b50565b60608280421115620022435760405162461bcd60e51b815260040162000dc39062004e42565b6001600160a01b03881660009081526002602052604081205460018054909190811062002274576200227462004e11565b60009182526020808320600292830201546001600160a01b038c811685529290915260408320546001805493909216945090918110620022b857620022b862004e11565b6000918252602080832060029283020154604080518481526060810182526001600160a01b0390921695509092918301908036833701905050905088816001815181106200230a576200230a62004e11565b60209081029190910101526000546001600160a01b038c81169116148015906200234157506000546001600160a01b038b81169116145b1562002454576000620023558c85620029de565b905062002364818d8c62003b7d565b826000815181106200237a576200237a62004e11565b60200260200101818152505088826000815181106200239d576200239d62004e11565b60200260200101511115620023d95760405162461bcd60e51b81526020600482015260016024820152604b60f81b604482015260640162000dc3565b600182600081518110620023f157620023f162004e11565b602002602001015111620024195760405162461bcd60e51b815260040162000dc39062004e77565b620024448c33868560008151811062002436576200243662004e11565b602002602001015162002a32565b620019a48c8260008d8b620036da565b6000546001600160a01b038c811691161480156200248057506000546001600160a01b038b8116911614155b1562002585576000620024948b84620029de565b9050620024a3818c8c62003bf3565b82600081518110620024b957620024b962004e11565b6020026020010181815250508882600081518110620024dc57620024dc62004e11565b60200260200101511115620025185760405162461bcd60e51b81526020600482015260016024820152602560f91b604482015260640162000dc3565b60018260008151811062002530576200253062004e11565b602002602001015111620025585760405162461bcd60e51b815260040162000dc39062004f56565b620025758c33858560008151811062002436576200243662004e11565b620019a48b828c60008b620036da565b6000546001600160a01b038c8116911614801590620025b257506000546001600160a01b038b8116911614155b8015620025d15750896001600160a01b03168b6001600160a01b031614155b1562001c0e576000620025e58b84620029de565b90506000620025f6828d8d62003bf3565b9050600181116200261b5760405162461bcd60e51b815260040162000dc39062004f56565b6000620026298e87620029de565b905062002638818f8462003b7d565b846000815181106200264e576200264e62004e11565b60200260200101818152505060018460008151811062002672576200267262004e11565b6020026020010151116200269a5760405162461bcd60e51b815260040162000dc39062004f56565b8a84600081518110620026b157620026b162004e11565b60200260200101511115620026ed5760405162461bcd60e51b81526020600482015260016024820152604b60f81b604482015260640162000dc3565b6200270a8e33888760008151811062002436576200243662004e11565b6200271a8e8260008589620036da565b62001bff8d848e60008d620036da565b848381146200274c5760405163a98a885960e01b815260040160405180910390fd5b6001600160a01b03881662002774576040516307cc786960e31b815260040160405180910390fd5b3360005b828110156200292c57600087878381811062002798576200279862004e11565b9050602002013590506000600e60008c8c86818110620027bc57620027bc62004e11565b90506020020135815260200190815260200160002060008e6001600160a01b03166001600160a01b03168152602001908152602001600020549050818110156200281957604051632d688f6160e11b815260040160405180910390fd5b818103600e60008d8d8781811062002835576200283562004e11565b90506020020135815260200190815260200160002060008f6001600160a01b03166001600160a01b031681526020019081526020016000208190555081600e60008d8d878181106200288b576200288b62004e11565b90506020020135815260200190815260200160002060008e6001600160a01b03166001600160a01b031681526020019081526020016000206000828254620028d4919062004df6565b90915550829050601160008d8d87818110620028f457620028f462004e11565b90506020020135815260200190815260200160002060008282540192505081905550505080620029249062004dd8565b905062002778565b50886001600160a01b03168a6001600160a01b0316826001600160a01b03167f4a39dc06d4c0dbc64b70af90fd698a233a518aa5d07e595d983b8c0526c8f7fb8b8b8b8b60405162002982949392919062004fa8565b60405180910390a4620029d2818b8b8b8b8b8b8b8b8080601f01602080910402602001604051908101604052809392919081815260200183838082843760009201919091525062003dc792505050565b50505050505050505050565b6040805180820190915260008082526020820152604051806040016040528062002a09858562003e97565b815260005460209091019062002a29906001600160a01b03168562003e97565b90529392505050565b60018111158062002a545750816001600160a01b0316836001600160a01b0316145b1562002a605762001669565b6006546001600160a01b03858116911614801562002a8657506001600160a01b03831633145b1562002af857478181101562002ac55760405162461bcd60e51b8152602060048201526003602482015262185cd960ea1b604482015260640162000dc3565b8181111562002ae55762002ae53362002adf848462004e5d565b62003f33565b62002af1838362003f33565b5062001669565b6006546001600160a01b03858116911614801562002b1f57506001600160a01b0383163314155b1562002b8f576040516306e6a46960e21b81526001600160a01b03838116600483015260248201839052841690631b9a91a490604401600060405180830381600087803b15801562002b7057600080fd5b505af115801562002b85573d6000803e3d6000fd5b5050505062001669565b620016698484848462003fc6565b6000600382111562002c0b575080600062002bba60028362004e92565b62002bc790600162004df6565b90505b8181101562002c055790508060028162002be5818662004e92565b62002bf1919062004df6565b62002bfd919062004e92565b905062002bca565b50919050565b811562002c16575060015b919050565b6008546000908190858511801562002c335750600086115b801562002c405750600081115b1562002caa5762002c52818762004c37565b62002c5f82606462004e5d565b62002c6b908762004c37565b62002c77919062004df6565b62002c83878762004e5d565b62002c8f838762004c37565b62002c9b919062004c37565b62002ca7919062004e92565b91505b50949350505050565b6001600160a01b03841662002cdb57604051633e11866b60e21b815260040160405180910390fd5b8162002ce75762001669565b60008381526011602052604081208054339285929162002d0990849062004df6565b90915550506000848152600e602090815260408083206001600160a01b038981168086529184528285208054890190558251898152938401889052909392908516917fc3d58168c5ae7397731d063d5bbf3d657854427343f4c083240f7aacaa2d0f62910160405180910390a4620020e481600087878787620040c4565b6001600160a01b0382166000908152600260205260408120548390158062002dbc57506000546001600160a01b038281169116145b1562002ddc5760405162461bcd60e51b815260040162000dc39062004e27565b62002dfd838660000151876020015162002df7888a62002e73565b62004190565b95945050505050565b6001600160a01b0382166000908152600260205260408120548390158062002e3b57506000546001600160a01b038281169116145b1562002e5b5760405162461bcd60e51b815260040162000dc39062004e27565b62002dfd838660200151876000015161271062004190565b60008062002e80620041d6565b90506000806007600601548362002e98919062004e5d565b90505b8281101562002eeb576001600160a01b038616600090815260036020908152604080832084845290915290205462002ed4908362004df6565b91508062002ee28162004dd8565b91505062002e9b565b5060006402540be400600760040154866020015162002f0b919062004c37565b62002f17919062004e92565b905060006402540be400600760050154876020015162002f38919062004c37565b62002f44919062004e92565b905081831162002f6b57600a5462002f5f9061271062004e5d565b94505050505062000967565b8083111562002f855760095462002f5f9061271062004e5d565b62002f91828262004e5d565b600954600a5462002fa3919062004e5d565b62002faf848662004e5d565b62002fbb919062004c37565b62002fc7919062004e92565b600a5462002fd89061271062004e5d565b6200164e919062004df6565b601580546001600160a01b038381166001600160a01b0319831681179093556040519116919082907f8be0079c531659141344cd1fd0a4f28419497f9722a3daafe3b4186f6b6457e090600090a35050565b6001600160a01b038316600090815260026020526040812054600180548391908390811062003069576200306962004e11565b6000918252602082206002909102018054909250620030939088906001600160a01b0316620029de565b6000848152601160205260408120548251929350918290620030b7908a9062004c37565b620030c3919062004e92565b9050600082898560200151620030da919062004c37565b620030e6919062004e92565b90506000620031048560200151866000015162000ed9919062004c37565b600187015490915060009062003125906001600160801b0316838762002c1b565b60075460408051602081019091526000815291925062003155916001600160a01b03909116908a90849062002cb3565b6000604051806040016040528086896000015162003174919062004e5d565b81526020018589602001516200318b919062004e5d565b905260208101518151919250620031a89162000ed9919062004c37565b6001890180546fffffffffffffffffffffffffffffffff19166001600160801b0392909216919091179055620031e0338a8e620041eb565b60005488546040516318a8ad8760e01b81526001600160a01b039182166004820152602481018790529116906318a8ad8790604401600060405180830381600087803b1580156200323057600080fd5b505af115801562003245573d6000803e3d6000fd5b505089546200326392508f91506001600160a01b03168d8862002a32565b7f1dc8bb69df2b8e91fbdcbfcf93d951b3f0000f085a95fe3f7946d6161439245d8d86868f6040516200329a949392919062004eb5565b60405180910390a1600080516020620055268339815191528d826000015183602001518b60010160109054906101000a90046001600160801b0316604051620032e7949392919062004edb565b60405180910390a150929b9a5050505050505050505050565b6001600160a01b0385166000908152600260205260409020548590156200333a5760405163402670df60e01b815260040160405180910390fd5b6000805460065460405189926001600160a01b03908116928185169116149062003364906200443d565b6001600160a01b03938416815292909116602083015215156040820152606001604051809103906000f080158015620033a1573d6000803e3d6000fd5b509050620033b28733838962002a32565b600054604051630bb9ff5d60e01b81526001600160a01b0383811660048301526024820188905290911690630bb9ff5d90604401600060405180830381600087803b1580156200340157600080fd5b505af115801562003416573d6000803e3d6000fd5b5050505062003426878262003e97565b9550600186116200344b5760405162461bcd60e51b815260040162000dc39062004e77565b60006200345d62000ed9878962004c37565b604080516060810182526001600160a01b0380861682526001600160801b0380851660208085019182528b83168587019081526001805480820182556000918252875160028083027fb10e2d527612073b26eecdfd717e6a320cf44b4afac2b0732d9fcbe2b7fa0cf681018054938b166001600160a01b031990941693909317909255955193518716600160801b0293909616929092177fb10e2d527612073b26eecdfd717e6a320cf44b4afac2b0732d9fcbe2b7fa0cf790950194909455938f1683529081528482208390558451908101909452835292935091906200354e9061dead9083906103e89062002cb3565b60006200355e6103e88562004e5d565b90506200357d8783836040518060200160405280600081525062002cb3565b604080516001600160a01b038d168152602081018490527f641e49906554552c8c33d7e09e02d1270590f405bc1da0c7b99a9c2808abdd05910160405180910390a17f64b83944e79c3ce8d4c297411de637c3e102d064677aac0c163976ebdcd6f50e8b8b8b84604051620035f6949392919062004eb5565b60405180910390a1600080516020620055268339815191528b8b8b8b60405162003624949392919062004eb5565b60405180910390a15050505050505050505050565b816001600160a01b0316836001600160a01b031614156200366d5760405163180a65b960e31b815260040160405180910390fd5b6001600160a01b038381166000818152600f6020908152604080832094871680845294825291829020805460ff191686151590811790915591519182527f17307eab39ab6107e8899845ad3d59bd9653f200f220920489ca2b5937696c31910160405180910390a3505050565b6001600160a01b038516600090815260026020526040902054859015806200370f57506000546001600160a01b038281169116145b156200372f5760405162461bcd60e51b815260040162000dc39062004e27565b6001600160a01b03861660009081526002602052604081205460018054909190811062003760576200376062004e11565b60009182526020822060029091020180549092506200378a9089906001600160a01b0316620029de565b9050600087602001518260200151620037a4919062004e5d565b88518351919250600091620037ba919062004e5d565b90506001620037ca838362004df6565b11620037fd5760405162461bcd60e51b81526020600482015260016024820152601960f91b604482015260640162000dc3565b60018401546001600160801b03600160801b90910481161080156200384357506001840154879062003841908490600160801b90046001600160801b031662004df6565b105b15620038765760405162461bcd60e51b81526020600482015260016024820152602d60f91b604482015260640162000dc3565b6000620038866127108062004c37565b60208b01518b5162003899919062004c37565b620038a5919062004c37565b90506000600184118015620038bb575060018311155b620038d257620038cc8c8c62002e73565b620038d6565b6127105b90506000620038e88261271062004e5d565b620038f4908562004c37565b865162003905906127109062004c37565b62003911919062004e5d565b6200391f8361271062004e5d565b6200392b908762004c37565b61271088602001516200393f919062004c37565b6200394b919062004e5d565b62003957919062004c37565b9050828110156200398f5760405162461bcd60e51b81526020600482015260016024820152603160f81b604482015260640162000dc3565b60018701546001600160801b03600160801b90910481161015620039fd5760018701548a90620039d1908790600160801b90046001600160801b031662004df6565b620039dd919062004e5d565b6001880180546001600160801b03928316600160801b0292169190911790555b60018a111562003a50576001600160a01b038d1660009081526003602052604081208b9162003a2b620041d6565b8152602001908152602001600020600082825462003a4a919062004df6565b90915550505b50855462003a6b908d906001600160a01b03168a8d62002a32565b600054865462003a8a916001600160a01b0390811691168a8c62002a32565b7f4ab7f3f4678bf8f6cbe4d85e4007b7c64df8e1d5d97de1628f4a6416f9d1db038c3385878e8e62003abf8861271062004e5d565b604080516001600160a01b03988916815296881660208801528601949094526060850192909252608084015260a083015260c0820152908a1660e08201526101000160405180910390a1600080516020620055268339815191528c866000015187602001518960010160109054906101000a90046001600160801b031660405162003b4e949392919062004edb565b60405180910390a1505050505050505050505050565b805162003b7990601090602084019062004331565b5050565b6001600160a01b0382166000908152600260205260408120548390158062003bb257506000546001600160a01b038281169116145b1562003bd25760405162461bcd60e51b815260040162000dc39062004e27565b62002dfd838660000151876020015162003bed888a62002e73565b620042d8565b6001600160a01b0382166000908152600260205260408120548390158062003c2857506000546001600160a01b038281169116145b1562003c485760405162461bcd60e51b815260040162000dc39062004e27565b62002dfd8386602001518760000151612710620042d8565b6001600160a01b03851662003c88576040516307cc786960e31b815260040160405180910390fd5b6000848152600e602090815260408083206001600160a01b038a16845290915290205433908481101562003ccf57604051632d688f6160e11b815260040160405180910390fd5b6000868152600e602090815260408083206001600160a01b038c811685529252808320888503905590891682528120805487929062003d1090849062004df6565b909155505060008681526011602090815260409182902080548801905581518881529081018790526001600160a01b03898116928b821692918616917fc3d58168c5ae7397731d063d5bbf3d657854427343f4c083240f7aacaa2d0f62910160405180910390a462003dbd828989898989898080601f016020809104026020016040519081016040528093929190818152602001838380828437600092019190915250620040c492505050565b5050505050505050565b853b1562003dbd5760405163bc197c8160e01b81526001600160a01b0387169063bc197c819062003e09908b908b908a908a908a908a908a9060040162004fd3565b6020604051808303816000875af192505050801562003e47575060408051601f3d908101601f1916820190925262003e44918101906200502d565b60015b62003e65576040516322ea035960e11b815260040160405180910390fd5b6001600160e01b0319811663bc197c8160e01b1462000bba576040516315d5293760e11b815260040160405180910390fd5b60065460009081906001600160a01b038581169116141562003ec65750506001600160a01b0381163162000967565b6040516370a0823160e01b81526001600160a01b0384811660048301528516906370a0823190602401602060405180830381865afa15801562003f0d573d6000803e3d6000fd5b505050506040513d601f19601f82011682018060405250810190620012ed91906200504d565b604080516000808252602082019092526001600160a01b03841690839060405162003f5f919062005067565b60006040518083038185875af1925050503d806000811462003f9e576040519150601f19603f3d011682016040523d82523d6000602084013e62003fa3565b606091505b505090508062000913576040516330667aab60e01b815260040160405180910390fd5b604080516001600160a01b0385811660248301528481166044830152606480830185905283518084039091018152608490920183526020820180516001600160e01b03166323b872dd60e01b17905291516000928392908816916200402c919062005067565b6000604051808303816000865af19150503d80600081146200406b576040519150601f19603f3d011682016040523d82523d6000602084013e62004070565b606091505b50915091508180156200409e5750805115806200409e5750808060200190518101906200409e919062005085565b620040bc57604051636050fe2960e01b815260040160405180910390fd5b505050505050565b833b15620040bc5760405163f23a6e6160e01b81526001600160a01b0385169063f23a6e6190620041029089908990889088908890600401620050a5565b6020604051808303816000875af192505050801562004140575060408051601f3d908101601f191682019092526200413d918101906200502d565b60015b6200415e576040516322ea035960e11b815260040160405180910390fd5b6001600160e01b0319811663f23a6e6160e01b14620021a2576040516315d5293760e11b815260040160405180910390fd5b6000806200419f838762004c37565b9050600081620041b26127108862004c37565b620041be919062004df6565b620041ca838762004c37565b6200164e919062004e92565b6000620041e6610e104262004e92565b905090565b6001600160a01b038316620042135760405163edba591d60e01b815260040160405180910390fd5b6000828152600e602090815260408083206001600160a01b03871684529091529020543390828110156200425a57604051631cfb29e160e21b815260040160405180910390fd5b6000848152600e602090815260408083206001600160a01b038981168086529184528285208887039055888552601184528285208054899003905582518981529384018890529092908616917fc3d58168c5ae7397731d063d5bbf3d657854427343f4c083240f7aacaa2d0f62910160405180910390a45050505050565b600080620042e7868562004e5d565b620042f3908462004c37565b61271062004302888862004c37565b6200430e919062004c37565b6200431a919062004e92565b6200432790600162004df6565b9695505050505050565b8280546200433f9062004ce1565b90600052602060002090601f016020900481019282620043635760008555620043ae565b82601f106200437e57805160ff1916838001178555620043ae565b82800160010185558215620043ae579182015b82811115620043ae57825182559160200191906001019062004391565b50620043bc9291506200444b565b5090565b828054620043ce9062004ce1565b90600052602060002090601f016020900481019282620043f25760008555620043ae565b82601f106200440d5782800160ff19823516178555620043ae565b82800160010185558215620043ae579182015b82811115620043ae57823582559160200191906001019062004420565b61044480620050e283390190565b5b80821115620043bc57600081556001016200444c565b600060e0828403121562002c0557600080fd5b6001600160a01b03811681146200221a57600080fd5b600080604083850312156200449f57600080fd5b8235620044ac8162004475565b946020939093013593505050565b6001600160e01b0319811681146200221a57600080fd5b600060208284031215620044e457600080fd5b81356200127d81620044ba565b6000602082840312156200450457600080fd5b5035919050565b60005b83811015620045285781810151838201526020016200450e565b83811115620016695750506000910152565b60008151808452620045548160208601602086016200450b565b601f01601f19169290920160200192915050565b6020815260006200127d60208301846200453a565b60008083601f8401126200459057600080fd5b50813567ffffffffffffffff811115620045a957600080fd5b6020830191508360208260051b8501011115620045c557600080fd5b9250929050565b60008083601f840112620045df57600080fd5b50813567ffffffffffffffff811115620045f857600080fd5b602083019150836020828501011115620045c557600080fd5b60008060008060008060008060a0898b0312156200462e57600080fd5b88356200463b8162004475565b975060208901356200464d8162004475565b9650604089013567ffffffffffffffff808211156200466b57600080fd5b620046798c838d016200457d565b909850965060608b01359150808211156200469357600080fd5b620046a18c838d016200457d565b909650945060808b0135915080821115620046bb57600080fd5b50620046ca8b828c01620045cc565b999c989b5096995094979396929594505050565b60008060208385031215620046f257600080fd5b823567ffffffffffffffff8111156200470a57600080fd5b62004718858286016200457d565b90969095509350505050565b602080825282518282018190526000919060409081850190868401855b82811015620047685781518051855286015186850152928401929085019060010162004741565b5091979650505050505050565b634e487b7160e01b600052604160045260246000fd5b600082601f8301126200479d57600080fd5b813567ffffffffffffffff80821115620047bb57620047bb62004775565b604051601f8301601f19908116603f01168101908282118183101715620047e657620047e662004775565b816040528381528660208588010111156200480057600080fd5b836020870160208301376000602085830101528094505050505092915050565b600080604083850312156200483457600080fd5b823567ffffffffffffffff808211156200484d57600080fd5b6200485b868387016200478b565b935060208501359150808211156200487257600080fd5b5062004881858286016200478b565b9150509250929050565b60008060008060808587031215620048a257600080fd5b8435620048af8162004475565b935060208501359250604085013591506060850135620048cf8162004475565b939692955090935050565b600080600060608486031215620048f057600080fd5b8335620048fd8162004475565b925060208401356200490f8162004475565b929592945050506040919091013590565b6000602082840312156200493357600080fd5b81356200127d8162004475565b600080600080604085870312156200495757600080fd5b843567ffffffffffffffff808211156200497057600080fd5b6200497e888389016200457d565b909650945060208701359150808211156200499857600080fd5b50620049a7878288016200457d565b95989497509550505050565b6020808252825182820181905260009190848201906040850190845b81811015620049ed57835183529284019291840191600101620049cf565b50909695505050505050565b80151581146200221a57600080fd5b6000806040838503121562004a1c57600080fd5b823562004a298162004475565b9150602083013562004a3b81620049f9565b809150509250929050565b60008060008060008060c0878903121562004a6057600080fd5b863562004a6d8162004475565b9550602087013562004a7f8162004475565b945060408701359350606087013592506080870135915060a087013562004aa68162004475565b809150509295509295509295565b6000806020838503121562004ac857600080fd5b823567ffffffffffffffff81111562004ae057600080fd5b6200471885828601620045cc565b6000806040838503121562004b0257600080fd5b823562004b0f8162004475565b9150602083013562004a3b8162004475565b600080600080600060a0868803121562004b3a57600080fd5b853562004b478162004475565b9450602086013562004b598162004475565b9350604086013562004b6b8162004475565b9250606086013562004b7d8162004475565b9150608086013562004b8f8162004475565b809150509295509295909350565b60008060008060008060a0878903121562004bb757600080fd5b863562004bc48162004475565b9550602087013562004bd68162004475565b94506040870135935060608701359250608087013567ffffffffffffffff81111562004c0157600080fd5b62004c0f89828a01620045cc565b979a9699509497509295939492505050565b634e487b7160e01b600052601160045260246000fd5b600081600019048311821515161562004c545762004c5462004c21565b500290565b813562004c668162004475565b81546001600160a01b0319166001600160a01b03919091161781556020820135600182015560408201356002820155606082013560038201556080820135600482015560a0820135600582015560c090910135600690910155565b60006020828403121562004cd457600080fd5b81516200127d8162004475565b600181811c9082168062004cf657607f821691505b6020821081141562002c0557634e487b7160e01b600052602260045260246000fd5b600080845481600182811c91508083168062004d3557607f831692505b602080841082141562004d5657634e487b7160e01b86526022600452602486fd5b81801562004d6d576001811462004d7f5762004dae565b60ff1986168952848901965062004dae565b60008b81526020902060005b8681101562004da65781548b82015290850190830162004d8b565b505084890196505b5088865262004dca81870164173539b7b760d91b815260050190565b9a9950505050505050505050565b600060001982141562004def5762004def62004c21565b5060010190565b6000821982111562004e0c5762004e0c62004c21565b500190565b634e487b7160e01b600052603260045260246000fd5b6020808252600190820152604360f81b604082015260600190565b6020808252600190820152601160fa1b604082015260600190565b60008282101562004e725762004e7262004c21565b500390565b6020808252600190820152602360f91b604082015260600190565b60008262004eb057634e487b7160e01b600052601260045260246000fd5b500490565b6001600160a01b0394909416845260208401929092526040830152606082015260800190565b6001600160a01b03949094168452602084019290925260408301526001600160801b0316606082015260800190565b60006001600160801b0380831681851680830382111562004f2f5762004f2f62004c21565b01949350505050565b81838237683db4b23e973539b7b760b91b9101908152600901919050565b6020808252600190820152605560f81b604082015260600190565b81835260006001600160fb1b0383111562004f8b57600080fd5b8260051b8083602087013760009401602001938452509192915050565b60408152600062004fbe60408301868862004f71565b82810360208401526200164e81858762004f71565b6001600160a01b0388811682528716602082015260a06040820181905260009062005002908301878962004f71565b82810360608401526200501781868862004f71565b9050828103608084015262004dca81856200453a565b6000602082840312156200504057600080fd5b81516200127d81620044ba565b6000602082840312156200506057600080fd5b5051919050565b600082516200507b8184602087016200450b565b9190910192915050565b6000602082840312156200509857600080fd5b81516200127d81620049f9565b6001600160a01b03868116825285166020820152604081018490526060810183905260a0608082018190526000906200164e908301846200453a56fe6080604052600080546001600160a01b0319167346e8e0af862f636199af69acd082b9963066ed9c17905534801561003657600080fd5b50604051610444380380610444833981016040819052610055916101af565b806100ce5760405163095ea7b360e01b815233600482015260001960248201526001600160a01b0384169063095ea7b3906044016020604051808303816000875af11580156100a8573d6000803e3d6000fd5b505050506040513d601f19601f820116820180604052508101906100cc91906101f2565b505b60405163095ea7b360e01b815233600482015260001960248201526001600160a01b0383169063095ea7b3906044016020604051808303816000875af115801561011c573d6000803e3d6000fd5b505050506040513d601f19601f8201168201806040525081019061014091906101f2565b5050600180546001600160a01b039384166001600160a01b0319918216179091556000805492909316918116919091179091556002805490911633179055610214565b80516001600160a01b038116811461019a57600080fd5b919050565b8051801515811461019a57600080fd5b6000806000606084860312156101c457600080fd5b6101cd84610183565b92506101db60208501610183565b91506101e96040850161019f565b90509250925092565b60006020828403121561020457600080fd5b61020d8261019f565b9392505050565b610221806102236000396000f3fe6080604052600436106100385760003560e01c80630dfe1681146100445780631b9a91a41461007a578063d21220a71461009c57600080fd5b3661003f57005b600080fd5b34801561005057600080fd5b506001546001600160a01b03165b6040516001600160a01b03909116815260200160405180910390f35b34801561008657600080fd5b5061009a610095366004610178565b6100ba565b005b3480156100a857600080fd5b506000546001600160a01b031661005e565b6002546001600160a01b031633146100e55760405163ab243e4960e01b815260040160405180910390fd5b604080516000808252602082019092526001600160a01b03841690839060405161010f91906101b0565b60006040518083038185875af1925050503d806000811461014c576040519150601f19603f3d011682016040523d82523d6000602084013e610151565b606091505b505090508061017357604051635aeccf6b60e01b815260040160405180910390fd5b505050565b6000806040838503121561018b57600080fd5b82356001600160a01b03811681146101a257600080fd5b946020939093013593505050565b6000825160005b818110156101d157602081860181015185830152016101b7565b818111156101e0576000828501525b50919091019291505056fea26469706673582212205aeb7e5de3be1388a355f225f2b9e3caa9dfa8f8f9ed01a5d3ffd1fa9be35ebb64736f6c634300080b003351ab1232a73b82b6b0acb0fa91b834cf6e258a1858c4e23c72ce97241c71aa0da2646970667358221220abba923bb8b60d1cb4a61ede422f9cf923bc4b04c35cad22da104d08783c708064736f6c634300080b003368747470733a2f2f646174612e63657262792e66692f4365726279537761702f76312f",
			"opcodes": "PUSH1 0x0 DUP1 SLOAD PUSH1 0x1 PUSH1 0x1 PUSH1 0xA0 SHL SUB NOT SWAP1 DUP2 AND PUSH20 0x46E8E0AF862F636199AF69ACD082B9963066ED9C OR SWAP1 SWAP2 SSTORE PUSH1 0x4 DUP1 SLOAD DUP3 AND PUSH20 0x527EA24A5917C452DBF402EDC9DA4190239BCCF1 OR SWAP1 SSTORE PUSH1 0x5 DUP1 SLOAD DUP3 AND PUSH20 0x947EF3DF5B7D5EC37214DD06C4042C8E7B0CEBD7 OR SWAP1 SSTORE PUSH1 0x6 DUP1 SLOAD SWAP1 SWAP2 AND PUSH20 0x14769F96E57B80C66837701DE0B43686FB4632DE OR SWAP1 SSTORE PUSH1 0xC0 PUSH1 0x40 MSTORE PUSH1 0xB PUSH1 0x80 DUP2 SWAP1 MSTORE PUSH11 0x4365726279537761705631 PUSH1 0xA8 SHL PUSH1 0xA0 SWAP1 DUP2 MSTORE PUSH3 0xB2 SWAP2 PUSH1 0x12 SWAP2 SWAP1 PUSH3 0x47B JUMP JUMPDEST POP PUSH1 0x40 DUP1 MLOAD DUP1 DUP3 ADD SWAP1 SWAP2 MSTORE PUSH1 0x3 DUP1 DUP3 MSTORE PUSH3 0x435331 PUSH1 0xE8 SHL PUSH1 0x20 SWAP1 SWAP3 ADD SWAP2 DUP3 MSTORE PUSH3 0xDF SWAP2 PUSH1 0x13 SWAP2 PUSH3 0x47B JUMP JUMPDEST POP PUSH1 0x40 MLOAD DUP1 PUSH1 0x60 ADD PUSH1 0x40 MSTORE DUP1 PUSH1 0x23 DUP2 MSTORE PUSH1 0x20 ADD PUSH3 0x5BF8 PUSH1 0x23 SWAP2 CODECOPY DUP1 MLOAD PUSH3 0x110 SWAP2 PUSH1 0x14 SWAP2 PUSH1 0x20 SWAP1 SWAP2 ADD SWAP1 PUSH3 0x47B JUMP JUMPDEST POP CALLVALUE DUP1 ISZERO PUSH3 0x11E JUMPI PUSH1 0x0 DUP1 REVERT JUMPDEST POP PUSH1 0x14 PUSH1 0x40 MLOAD PUSH1 0x20 ADD PUSH3 0x133 SWAP2 SWAP1 PUSH3 0x55E JUMP JUMPDEST PUSH1 0x40 DUP1 MLOAD PUSH1 0x1F NOT DUP2 DUP5 SUB ADD DUP2 MSTORE SWAP2 SWAP1 MSTORE PUSH3 0x14E DUP2 PUSH3 0x410 JUMP JUMPDEST POP PUSH3 0x15A CALLER PUSH3 0x429 JUMP JUMPDEST PUSH20 0xDEF78A28C78A461598D948BC0C689CE88F812AD8 PUSH1 0x0 PUSH1 0x64 PUSH3 0x180 DUP2 PUSH1 0x14 PUSH3 0x61C JUMP JUMPDEST PUSH3 0x18C SWAP2 SWAP1 PUSH3 0x64A JUMP JUMPDEST SWAP1 POP PUSH4 0x51A67366 PUSH1 0x1 PUSH1 0xC8 DUP3 PUSH1 0x0 DUP4 PUSH3 0x1A7 DUP5 DUP5 PUSH3 0x61C JUMP JUMPDEST PUSH3 0x1B3 SWAP2 SWAP1 PUSH3 0x64A JUMP JUMPDEST PUSH1 0x40 DUP1 MLOAD PUSH1 0xE0 DUP2 ADD DUP3 MSTORE PUSH1 0x1 PUSH1 0x1 PUSH1 0xA0 SHL SUB DUP1 DUP12 AND DUP1 DUP4 MSTORE PUSH1 0x20 DUP1 DUP5 ADD DUP13 SWAP1 MSTORE DUP4 DUP6 ADD DUP11 SWAP1 MSTORE PUSH1 0x60 DUP1 DUP6 ADD DUP11 SWAP1 MSTORE PUSH1 0x80 DUP6 ADD DUP10 SWAP1 MSTORE PUSH1 0xA0 DUP6 ADD DUP8 SWAP1 MSTORE PUSH1 0x18 PUSH1 0xC0 SWAP1 SWAP6 ADD DUP6 SWAP1 MSTORE PUSH1 0x7 DUP1 SLOAD PUSH1 0x1 PUSH1 0x1 PUSH1 0xA0 SHL SUB NOT SWAP1 DUP2 AND SWAP1 SWAP5 OR SWAP1 SSTORE PUSH1 0x8 DUP14 SWAP1 SSTORE PUSH1 0x9 DUP12 SWAP1 SSTORE PUSH1 0xA DUP11 SWAP1 SSTORE PUSH1 0xB DUP10 SWAP1 SSTORE PUSH1 0xC DUP8 SWAP1 SSTORE PUSH1 0xD DUP6 SWAP1 SSTORE DUP6 MLOAD SWAP1 DUP2 ADD DUP7 MSTORE PUSH1 0x0 DUP1 DUP3 MSTORE SWAP2 DUP2 ADD DUP3 DUP2 MSTORE SWAP6 DUP2 ADD DUP3 DUP2 MSTORE PUSH1 0x1 DUP1 SLOAD DUP1 DUP3 ADD DUP3 SSTORE SWAP4 DUP2 SWAP1 MSTORE SWAP2 MLOAD PUSH1 0x2 SWAP4 SWAP1 SWAP4 MUL PUSH32 0xB10E2D527612073B26EECDFD717E6A320CF44B4AFAC2B0732D9FCBE2B7FA0CF6 DUP2 ADD DUP1 SLOAD SWAP5 SWAP1 SWAP7 AND SWAP4 SWAP1 SWAP5 AND SWAP3 SWAP1 SWAP3 OR SWAP1 SWAP4 SSTORE SWAP4 MLOAD SWAP4 MLOAD PUSH1 0x1 PUSH1 0x1 PUSH1 0x80 SHL SUB SWAP1 DUP2 AND PUSH1 0x1 PUSH1 0x80 SHL MUL SWAP5 AND SWAP4 SWAP1 SWAP4 OR PUSH32 0xB10E2D527612073B26EECDFD717E6A320CF44B4AFAC2B0732D9FCBE2B7FA0CF7 SWAP1 SWAP4 ADD SWAP3 SWAP1 SWAP3 SSTORE SWAP2 SWAP3 POP CHAINID EQ ISZERO PUSH3 0x307 JUMPI PUSH1 0x6 DUP1 SLOAD PUSH1 0x1 PUSH1 0x1 PUSH1 0xA0 SHL SUB NOT AND PUSH20 0xC02AAA39B223FE8D0A0E5C4F27EAD9083C756CC2 OR SWAP1 SSTORE PUSH3 0x3DB JUMP JUMPDEST CHAINID PUSH1 0x38 EQ ISZERO PUSH3 0x33D JUMPI PUSH1 0x6 DUP1 SLOAD PUSH1 0x1 PUSH1 0x1 PUSH1 0xA0 SHL SUB NOT AND PUSH20 0xBB4CDB9CBD36B01BD1CBAEBF2DE08D9173BC095C OR SWAP1 SSTORE PUSH3 0x3DB JUMP JUMPDEST CHAINID PUSH1 0x89 EQ ISZERO PUSH3 0x373 JUMPI PUSH1 0x6 DUP1 SLOAD PUSH1 0x1 PUSH1 0x1 PUSH1 0xA0 SHL SUB NOT AND PUSH20 0xD500B1D8E8EF31E21C99D1DB9A6444D3ADF1270 OR SWAP1 SSTORE PUSH3 0x3DB JUMP JUMPDEST CHAINID PUSH2 0xA86A EQ ISZERO PUSH3 0x3AA JUMPI PUSH1 0x6 DUP1 SLOAD PUSH1 0x1 PUSH1 0x1 PUSH1 0xA0 SHL SUB NOT AND PUSH20 0xB31F66AA3C1E785363F0875A1B74E27B85FD66C7 OR SWAP1 SSTORE PUSH3 0x3DB JUMP JUMPDEST CHAINID PUSH1 0xFA EQ ISZERO PUSH3 0x3DB JUMPI PUSH1 0x6 DUP1 SLOAD PUSH1 0x1 PUSH1 0x1 PUSH1 0xA0 SHL SUB NOT AND PUSH20 0x21BE370D5312F44CB42CE377BC9B8A0CEF1A4C83 OR SWAP1 SSTORE JUMPDEST POP POP PUSH1 0x6 DUP1 SLOAD PUSH1 0x1 PUSH1 0x1 PUSH1 0xA0 SHL SUB NOT AND PUSH20 0x14769F96E57B80C66837701DE0B43686FB4632DE OR SWAP1 SSTORE POP PUSH3 0x66D SWAP5 POP POP POP POP POP JUMP JUMPDEST DUP1 MLOAD PUSH3 0x425 SWAP1 PUSH1 0x10 SWAP1 PUSH1 0x20 DUP5 ADD SWAP1 PUSH3 0x47B JUMP JUMPDEST POP POP JUMP JUMPDEST PUSH1 0x15 DUP1 SLOAD PUSH1 0x1 PUSH1 0x1 PUSH1 0xA0 SHL SUB DUP4 DUP2 AND PUSH1 0x1 PUSH1 0x1 PUSH1 0xA0 SHL SUB NOT DUP4 AND DUP2 OR SWAP1 SWAP4 SSTORE PUSH1 0x40 MLOAD SWAP2 AND SWAP2 SWAP1 DUP3 SWAP1 PUSH32 0x8BE0079C531659141344CD1FD0A4F28419497F9722A3DAAFE3B4186F6B6457E0 SWAP1 PUSH1 0x0 SWAP1 LOG3 POP POP JUMP JUMPDEST DUP3 DUP1 SLOAD PUSH3 0x489 SWAP1 PUSH3 0x521 JUMP JUMPDEST SWAP1 PUSH1 0x0 MSTORE PUSH1 0x20 PUSH1 0x0 KECCAK256 SWAP1 PUSH1 0x1F ADD PUSH1 0x20 SWAP1 DIV DUP2 ADD SWAP3 DUP3 PUSH3 0x4AD JUMPI PUSH1 0x0 DUP6 SSTORE PUSH3 0x4F8 JUMP JUMPDEST DUP3 PUSH1 0x1F LT PUSH3 0x4C8 JUMPI DUP1 MLOAD PUSH1 0xFF NOT AND DUP4 DUP1 ADD OR DUP6 SSTORE PUSH3 0x4F8 JUMP JUMPDEST DUP3 DUP1 ADD PUSH1 0x1 ADD DUP6 SSTORE DUP3 ISZERO PUSH3 0x4F8 JUMPI SWAP2 DUP3 ADD JUMPDEST DUP3 DUP2 GT ISZERO PUSH3 0x4F8 JUMPI DUP3 MLOAD DUP3 SSTORE SWAP2 PUSH1 0x20 ADD SWAP2 SWAP1 PUSH1 0x1 ADD SWAP1 PUSH3 0x4DB JUMP JUMPDEST POP PUSH3 0x506 SWAP3 SWAP2 POP PUSH3 0x50A JUMP JUMPDEST POP SWAP1 JUMP JUMPDEST JUMPDEST DUP1 DUP3 GT ISZERO PUSH3 0x506 JUMPI PUSH1 0x0 DUP2 SSTORE PUSH1 0x1 ADD PUSH3 0x50B JUMP JUMPDEST PUSH1 0x1 DUP2 DUP2 SHR SWAP1 DUP3 AND DUP1 PUSH3 0x536 JUMPI PUSH1 0x7F DUP3 AND SWAP2 POP JUMPDEST PUSH1 0x20 DUP3 LT DUP2 EQ ISZERO PUSH3 0x558 JUMPI PUSH4 0x4E487B71 PUSH1 0xE0 SHL PUSH1 0x0 MSTORE PUSH1 0x22 PUSH1 0x4 MSTORE PUSH1 0x24 PUSH1 0x0 REVERT JUMPDEST POP SWAP2 SWAP1 POP JUMP JUMPDEST PUSH1 0x0 DUP1 DUP4 SLOAD DUP2 PUSH1 0x1 DUP3 DUP2 SHR SWAP2 POP DUP1 DUP4 AND DUP1 PUSH3 0x57B JUMPI PUSH1 0x7F DUP4 AND SWAP3 POP JUMPDEST PUSH1 0x20 DUP1 DUP5 LT DUP3 EQ ISZERO PUSH3 0x59C JUMPI PUSH4 0x4E487B71 PUSH1 0xE0 SHL DUP7 MSTORE PUSH1 0x22 PUSH1 0x4 MSTORE PUSH1 0x24 DUP7 REVERT JUMPDEST DUP2 DUP1 ISZERO PUSH3 0x5B3 JUMPI PUSH1 0x1 DUP2 EQ PUSH3 0x5C5 JUMPI PUSH3 0x5F4 JUMP JUMPDEST PUSH1 0xFF NOT DUP7 AND DUP10 MSTORE DUP5 DUP10 ADD SWAP7 POP PUSH3 0x5F4 JUMP JUMPDEST PUSH1 0x0 DUP11 DUP2 MSTORE PUSH1 0x20 SWAP1 KECCAK256 PUSH1 0x0 JUMPDEST DUP7 DUP2 LT ISZERO PUSH3 0x5EC JUMPI DUP2 SLOAD DUP12 DUP3 ADD MSTORE SWAP1 DUP6 ADD SWAP1 DUP4 ADD PUSH3 0x5D1 JUMP JUMPDEST POP POP DUP5 DUP10 ADD SWAP7 POP JUMPDEST POP POP POP POP POP POP PUSH3 0x614 DUP2 PUSH9 0x3DB4B23E973539B7B7 PUSH1 0xB9 SHL DUP2 MSTORE PUSH1 0x9 ADD SWAP1 JUMP JUMPDEST SWAP5 SWAP4 POP POP POP POP JUMP JUMPDEST PUSH1 0x0 DUP2 PUSH1 0x0 NOT DIV DUP4 GT DUP3 ISZERO ISZERO AND ISZERO PUSH3 0x645 JUMPI PUSH4 0x4E487B71 PUSH1 0xE0 SHL PUSH1 0x0 MSTORE PUSH1 0x11 PUSH1 0x4 MSTORE PUSH1 0x24 PUSH1 0x0 REVERT JUMPDEST POP MUL SWAP1 JUMP JUMPDEST PUSH1 0x0 DUP3 PUSH3 0x668 JUMPI PUSH4 0x4E487B71 PUSH1 0xE0 SHL PUSH1 0x0 MSTORE PUSH1 0x12 PUSH1 0x4 MSTORE PUSH1 0x24 PUSH1 0x0 REVERT JUMPDEST POP DIV SWAP1 JUMP JUMPDEST PUSH2 0x557B DUP1 PUSH3 0x67D PUSH1 0x0 CODECOPY PUSH1 0x0 RETURN INVALID PUSH1 0x80 PUSH1 0x40 MSTORE PUSH1 0x4 CALLDATASIZE LT PUSH3 0x255 JUMPI PUSH1 0x0 CALLDATALOAD PUSH1 0xE0 SHR DUP1 PUSH4 0x74FCF071 GT PUSH3 0x13B JUMPI DUP1 PUSH4 0xBD85B039 GT PUSH3 0xB9 JUMPI DUP1 PUSH4 0xE985E9C5 GT PUSH3 0x78 JUMPI DUP1 PUSH4 0xE985E9C5 EQ PUSH3 0x778 JUMPI DUP1 PUSH4 0xECA01093 EQ PUSH3 0x79D JUMPI DUP1 PUSH4 0xF242432A EQ PUSH3 0x7C2 JUMPI DUP1 PUSH4 0xF2FDE38B EQ PUSH3 0x7E7 JUMPI DUP1 PUSH4 0xF6524724 EQ PUSH3 0x80C JUMPI PUSH1 0x0 DUP1 REVERT JUMPDEST DUP1 PUSH4 0xBD85B039 EQ PUSH3 0x6DC JUMPI DUP1 PUSH4 0xC09C923B EQ PUSH3 0x70D JUMPI DUP1 PUSH4 0xC790985A EQ PUSH3 0x717 JUMPI DUP1 PUSH4 0xCAB4BA82 EQ PUSH3 0x73C JUMPI DUP1 PUSH4 0xD5D60737 EQ PUSH3 0x761 JUMPI PUSH1 0x0 DUP1 REVERT JUMPDEST DUP1 PUSH4 0x95D89B41 GT PUSH3 0x106 JUMPI DUP1 PUSH4 0x95D89B41 EQ PUSH3 0x64B JUMPI DUP1 PUSH4 0xA22CB465 EQ PUSH3 0x663 JUMPI DUP1 PUSH4 0xA60C6E55 EQ PUSH3 0x688 JUMPI DUP1 PUSH4 0xA7FD40BF EQ PUSH3 0x69F JUMPI DUP1 PUSH4 0xB5D11E99 EQ PUSH3 0x6C4 JUMPI PUSH1 0x0 DUP1 REVERT JUMPDEST DUP1 PUSH4 0x74FCF071 EQ PUSH3 0x57C JUMPI DUP1 PUSH4 0x842980F4 EQ PUSH3 0x5A1 JUMPI DUP1 PUSH4 0x85B4BB53 EQ PUSH3 0x5B8 JUMPI DUP1 PUSH4 0x8DA5CB5B EQ PUSH3 0x62B JUMPI PUSH1 0x0 DUP1 REVERT JUMPDEST DUP1 PUSH4 0x34E150AB GT PUSH3 0x1D5 JUMPI DUP1 PUSH4 0x4E1273F4 GT PUSH3 0x194 JUMPI DUP1 PUSH4 0x4E1273F4 EQ PUSH3 0x49E JUMPI DUP1 PUSH4 0x4F558E79 EQ PUSH3 0x4D2 JUMPI DUP1 PUSH4 0x61417516 EQ PUSH3 0x505 JUMPI DUP1 PUSH4 0x715018A6 EQ PUSH3 0x53F JUMPI DUP1 PUSH4 0x71858049 EQ PUSH3 0x557 JUMPI PUSH1 0x0 DUP1 REVERT JUMPDEST DUP1 PUSH4 0x34E150AB EQ PUSH3 0x3E4 JUMPI DUP1 PUSH4 0x3935AC11 EQ PUSH3 0x418 JUMPI DUP1 PUSH4 0x43FEFAD4 EQ PUSH3 0x43D JUMPI DUP1 PUSH4 0x48B08D62 EQ PUSH3 0x454 JUMPI DUP1 PUSH4 0x4C3C0EB2 EQ PUSH3 0x479 JUMPI PUSH1 0x0 DUP1 REVERT JUMPDEST DUP1 PUSH4 0x6FDDE03 GT PUSH3 0x222 JUMPI DUP1 PUSH4 0x6FDDE03 EQ PUSH3 0x345 JUMPI DUP1 PUSH4 0xE89341C EQ PUSH3 0x36C JUMPI DUP1 PUSH4 0x18160DDD EQ PUSH3 0x391 JUMPI DUP1 PUSH4 0x2EB2C2D6 EQ PUSH3 0x3A9 JUMPI DUP1 PUSH4 0x313CE567 EQ PUSH3 0x3CE JUMPI PUSH1 0x0 DUP1 REVERT JUMPDEST DUP1 PUSH3 0x3374B5 EQ PUSH3 0x262 JUMPI DUP1 PUSH3 0xFDD58E EQ PUSH3 0x289 JUMPI DUP1 PUSH4 0x1FFC9A7 EQ PUSH3 0x2C1 JUMPI DUP1 PUSH4 0x6FB1A07 EQ PUSH3 0x307 JUMPI PUSH1 0x0 DUP1 REVERT JUMPDEST CALLDATASIZE PUSH3 0x25D JUMPI STOP JUMPDEST PUSH1 0x0 DUP1 REVERT JUMPDEST CALLVALUE DUP1 ISZERO PUSH3 0x26F JUMPI PUSH1 0x0 DUP1 REVERT JUMPDEST POP PUSH3 0x287 PUSH3 0x281 CALLDATASIZE PUSH1 0x4 PUSH3 0x4462 JUMP JUMPDEST PUSH3 0x823 JUMP JUMPDEST STOP JUMPDEST CALLVALUE DUP1 ISZERO PUSH3 0x296 JUMPI PUSH1 0x0 DUP1 REVERT JUMPDEST POP PUSH3 0x2AE PUSH3 0x2A8 CALLDATASIZE PUSH1 0x4 PUSH3 0x448B JUMP JUMPDEST PUSH3 0x918 JUMP JUMPDEST PUSH1 0x40 MLOAD SWAP1 DUP2 MSTORE PUSH1 0x20 ADD JUMPDEST PUSH1 0x40 MLOAD DUP1 SWAP2 SUB SWAP1 RETURN JUMPDEST CALLVALUE DUP1 ISZERO PUSH3 0x2CE JUMPI PUSH1 0x0 DUP1 REVERT JUMPDEST POP PUSH3 0x2F6 PUSH3 0x2E0 CALLDATASIZE PUSH1 0x4 PUSH3 0x44D1 JUMP JUMPDEST PUSH1 0x1 PUSH1 0x1 PUSH1 0xE0 SHL SUB NOT AND PUSH4 0x1FFC9A7 PUSH1 0xE0 SHL EQ SWAP1 JUMP JUMPDEST PUSH1 0x40 MLOAD SWAP1 ISZERO ISZERO DUP2 MSTORE PUSH1 0x20 ADD PUSH3 0x2B8 JUMP JUMPDEST CALLVALUE DUP1 ISZERO PUSH3 0x314 JUMPI PUSH1 0x0 DUP1 REVERT JUMPDEST POP PUSH3 0x32C PUSH3 0x326 CALLDATASIZE PUSH1 0x4 PUSH3 0x44F1 JUMP JUMPDEST PUSH3 0x96D JUMP JUMPDEST PUSH1 0x40 MLOAD PUSH1 0x1 PUSH1 0x1 PUSH1 0xA0 SHL SUB SWAP1 SWAP2 AND DUP2 MSTORE PUSH1 0x20 ADD PUSH3 0x2B8 JUMP JUMPDEST CALLVALUE DUP1 ISZERO PUSH3 0x352 JUMPI PUSH1 0x0 DUP1 REVERT JUMPDEST POP PUSH3 0x35D PUSH3 0x9E7 JUMP JUMPDEST PUSH1 0x40 MLOAD PUSH3 0x2B8 SWAP2 SWAP1 PUSH3 0x4568 JUMP JUMPDEST CALLVALUE DUP1 ISZERO PUSH3 0x379 JUMPI PUSH1 0x0 DUP1 REVERT JUMPDEST POP PUSH3 0x35D PUSH3 0x38B CALLDATASIZE PUSH1 0x4 PUSH3 0x44F1 JUMP JUMPDEST PUSH3 0xA81 JUMP JUMPDEST CALLVALUE DUP1 ISZERO PUSH3 0x39E JUMPI PUSH1 0x0 DUP1 REVERT JUMPDEST POP PUSH3 0x2AE PUSH3 0xAAF JUMP JUMPDEST CALLVALUE DUP1 ISZERO PUSH3 0x3B6 JUMPI PUSH1 0x0 DUP1 REVERT JUMPDEST POP PUSH3 0x287 PUSH3 0x3C8 CALLDATASIZE PUSH1 0x4 PUSH3 0x4611 JUMP JUMPDEST PUSH3 0xB01 JUMP JUMPDEST CALLVALUE DUP1 ISZERO PUSH3 0x3DB JUMPI PUSH1 0x0 DUP1 REVERT JUMPDEST POP PUSH1 0x12 PUSH3 0x2AE JUMP JUMPDEST CALLVALUE DUP1 ISZERO PUSH3 0x3F1 JUMPI PUSH1 0x0 DUP1 REVERT JUMPDEST POP PUSH3 0x409 PUSH3 0x403 CALLDATASIZE PUSH1 0x4 PUSH3 0x46DE JUMP JUMPDEST PUSH3 0xBC5 JUMP JUMPDEST PUSH1 0x40 MLOAD PUSH3 0x2B8 SWAP2 SWAP1 PUSH3 0x4724 JUMP JUMPDEST CALLVALUE DUP1 ISZERO PUSH3 0x425 JUMPI PUSH1 0x0 DUP1 REVERT JUMPDEST POP PUSH3 0x287 PUSH3 0x437 CALLDATASIZE PUSH1 0x4 PUSH3 0x4820 JUMP JUMPDEST PUSH3 0xD07 JUMP JUMPDEST PUSH3 0x2AE PUSH3 0x44E CALLDATASIZE PUSH1 0x4 PUSH3 0x488B JUMP JUMPDEST PUSH3 0xD6E JUMP JUMPDEST CALLVALUE DUP1 ISZERO PUSH3 0x461 JUMPI PUSH1 0x0 DUP1 REVERT JUMPDEST POP PUSH3 0x2AE PUSH3 0x473 CALLDATASIZE PUSH1 0x4 PUSH3 0x48DA JUMP JUMPDEST PUSH3 0x1117 JUMP JUMPDEST CALLVALUE DUP1 ISZERO PUSH3 0x486 JUMPI PUSH1 0x0 DUP1 REVERT JUMPDEST POP PUSH3 0x2AE PUSH3 0x498 CALLDATASIZE PUSH1 0x4 PUSH3 0x4920 JUMP JUMPDEST PUSH3 0x1284 JUMP JUMPDEST CALLVALUE DUP1 ISZERO PUSH3 0x4AB JUMPI PUSH1 0x0 DUP1 REVERT JUMPDEST POP PUSH3 0x4C3 PUSH3 0x4BD CALLDATASIZE PUSH1 0x4 PUSH3 0x4940 JUMP JUMPDEST PUSH3 0x12F5 JUMP JUMPDEST PUSH1 0x40 MLOAD PUSH3 0x2B8 SWAP2 SWAP1 PUSH3 0x49B3 JUMP JUMPDEST CALLVALUE DUP1 ISZERO PUSH3 0x4DF JUMPI PUSH1 0x0 DUP1 REVERT JUMPDEST POP PUSH3 0x2F6 PUSH3 0x4F1 CALLDATASIZE PUSH1 0x4 PUSH3 0x44F1 JUMP JUMPDEST PUSH1 0x0 SWAP1 DUP2 MSTORE PUSH1 0x11 PUSH1 0x20 MSTORE PUSH1 0x40 SWAP1 KECCAK256 SLOAD ISZERO ISZERO SWAP1 JUMP JUMPDEST CALLVALUE DUP1 ISZERO PUSH3 0x512 JUMPI PUSH1 0x0 DUP1 REVERT JUMPDEST POP PUSH3 0x2AE PUSH3 0x524 CALLDATASIZE PUSH1 0x4 PUSH3 0x4920 JUMP JUMPDEST PUSH1 0x1 PUSH1 0x1 PUSH1 0xA0 SHL SUB AND PUSH1 0x0 SWAP1 DUP2 MSTORE PUSH1 0x2 PUSH1 0x20 MSTORE PUSH1 0x40 SWAP1 KECCAK256 SLOAD SWAP1 JUMP JUMPDEST CALLVALUE DUP1 ISZERO PUSH3 0x54C JUMPI PUSH1 0x0 DUP1 REVERT JUMPDEST POP PUSH3 0x287 PUSH3 0x1400 JUMP JUMPDEST CALLVALUE DUP1 ISZERO PUSH3 0x564 JUMPI PUSH1 0x0 DUP1 REVERT JUMPDEST POP PUSH3 0x287 PUSH3 0x576 CALLDATASIZE PUSH1 0x4 PUSH3 0x448B JUMP JUMPDEST PUSH3 0x144A JUMP JUMPDEST CALLVALUE DUP1 ISZERO PUSH3 0x589 JUMPI PUSH1 0x0 DUP1 REVERT JUMPDEST POP PUSH3 0x2AE PUSH3 0x59B CALLDATASIZE PUSH1 0x4 PUSH3 0x488B JUMP JUMPDEST PUSH3 0x15C8 JUMP JUMPDEST PUSH3 0x287 PUSH3 0x5B2 CALLDATASIZE PUSH1 0x4 PUSH3 0x488B JUMP JUMPDEST PUSH3 0x1659 JUMP JUMPDEST CALLVALUE DUP1 ISZERO PUSH3 0x5C5 JUMPI PUSH1 0x0 DUP1 REVERT JUMPDEST POP PUSH3 0x5D0 PUSH3 0x166F JUMP JUMPDEST PUSH1 0x40 MLOAD PUSH3 0x2B8 SWAP2 SWAP1 DUP2 MLOAD PUSH1 0x1 PUSH1 0x1 PUSH1 0xA0 SHL SUB AND DUP2 MSTORE PUSH1 0x20 DUP1 DUP4 ADD MLOAD SWAP1 DUP3 ADD MSTORE PUSH1 0x40 DUP1 DUP4 ADD MLOAD SWAP1 DUP3 ADD MSTORE PUSH1 0x60 DUP1 DUP4 ADD MLOAD SWAP1 DUP3 ADD MSTORE PUSH1 0x80 DUP1 DUP4 ADD MLOAD SWAP1 DUP3 ADD MSTORE PUSH1 0xA0 DUP3 DUP2 ADD MLOAD SWAP1 DUP3 ADD MSTORE PUSH1 0xC0 SWAP2 DUP3 ADD MLOAD SWAP2 DUP2 ADD SWAP2 SWAP1 SWAP2 MSTORE PUSH1 0xE0 ADD SWAP1 JUMP JUMPDEST CALLVALUE DUP1 ISZERO PUSH3 0x638 JUMPI PUSH1 0x0 DUP1 REVERT JUMPDEST POP PUSH1 0x15 SLOAD PUSH1 0x1 PUSH1 0x1 PUSH1 0xA0 SHL SUB AND PUSH3 0x32C JUMP JUMPDEST CALLVALUE DUP1 ISZERO PUSH3 0x658 JUMPI PUSH1 0x0 DUP1 REVERT JUMPDEST POP PUSH3 0x35D PUSH3 0x1707 JUMP JUMPDEST CALLVALUE DUP1 ISZERO PUSH3 0x670 JUMPI PUSH1 0x0 DUP1 REVERT JUMPDEST POP PUSH3 0x287 PUSH3 0x682 CALLDATASIZE PUSH1 0x4 PUSH3 0x4A08 JUMP JUMPDEST PUSH3 0x1718 JUMP JUMPDEST PUSH3 0x4C3 PUSH3 0x699 CALLDATASIZE PUSH1 0x4 PUSH3 0x4A46 JUMP JUMPDEST PUSH3 0x178A JUMP JUMPDEST CALLVALUE DUP1 ISZERO PUSH3 0x6AC JUMPI PUSH1 0x0 DUP1 REVERT JUMPDEST POP PUSH3 0x287 PUSH3 0x6BE CALLDATASIZE PUSH1 0x4 PUSH3 0x4AB4 JUMP JUMPDEST PUSH3 0x1C3B JUMP JUMPDEST CALLVALUE DUP1 ISZERO PUSH3 0x6D1 JUMPI PUSH1 0x0 DUP1 REVERT JUMPDEST POP PUSH3 0x287 PUSH3 0x1CB3 JUMP JUMPDEST CALLVALUE DUP1 ISZERO PUSH3 0x6E9 JUMPI PUSH1 0x0 DUP1 REVERT JUMPDEST POP PUSH3 0x2AE PUSH3 0x6FB CALLDATASIZE PUSH1 0x4 PUSH3 0x44F1 JUMP JUMPDEST PUSH1 0x0 SWAP1 DUP2 MSTORE PUSH1 0x11 PUSH1 0x20 MSTORE PUSH1 0x40 SWAP1 KECCAK256 SLOAD SWAP1 JUMP JUMPDEST PUSH3 0x287 PUSH3 0x1D15 JUMP JUMPDEST CALLVALUE DUP1 ISZERO PUSH3 0x724 JUMPI PUSH1 0x0 DUP1 REVERT JUMPDEST POP PUSH3 0x2AE PUSH3 0x736 CALLDATASIZE PUSH1 0x4 PUSH3 0x48DA JUMP JUMPDEST PUSH3 0x1D84 JUMP JUMPDEST CALLVALUE DUP1 ISZERO PUSH3 0x749 JUMPI PUSH1 0x0 DUP1 REVERT JUMPDEST POP PUSH3 0x287 PUSH3 0x75B CALLDATASIZE PUSH1 0x4 PUSH3 0x448B JUMP JUMPDEST PUSH3 0x1ED7 JUMP JUMPDEST PUSH3 0x287 PUSH3 0x772 CALLDATASIZE PUSH1 0x4 PUSH3 0x488B JUMP JUMPDEST PUSH3 0x201D JUMP JUMPDEST CALLVALUE DUP1 ISZERO PUSH3 0x785 JUMPI PUSH1 0x0 DUP1 REVERT JUMPDEST POP PUSH3 0x2F6 PUSH3 0x797 CALLDATASIZE PUSH1 0x4 PUSH3 0x4AEE JUMP JUMPDEST PUSH3 0x206F JUMP JUMPDEST CALLVALUE DUP1 ISZERO PUSH3 0x7AA JUMPI PUSH1 0x0 DUP1 REVERT JUMPDEST POP PUSH3 0x287 PUSH3 0x7BC CALLDATASIZE PUSH1 0x4 PUSH3 0x4B21 JUMP JUMPDEST PUSH3 0x209D JUMP JUMPDEST CALLVALUE DUP1 ISZERO PUSH3 0x7CF JUMPI PUSH1 0x0 DUP1 REVERT JUMPDEST POP PUSH3 0x287 PUSH3 0x7E1 CALLDATASIZE PUSH1 0x4 PUSH3 0x4B9D JUMP JUMPDEST PUSH3 0x20EB JUMP JUMPDEST CALLVALUE DUP1 ISZERO PUSH3 0x7F4 JUMPI PUSH1 0x0 DUP1 REVERT JUMPDEST POP PUSH3 0x287 PUSH3 0x806 CALLDATASIZE PUSH1 0x4 PUSH3 0x4920 JUMP JUMPDEST PUSH3 0x21AB JUMP JUMPDEST PUSH3 0x4C3 PUSH3 0x81D CALLDATASIZE PUSH1 0x4 PUSH3 0x4A46 JUMP JUMPDEST PUSH3 0x221D JUMP JUMPDEST CALLER PUSH3 0x837 PUSH1 0x15 SLOAD PUSH1 0x1 PUSH1 0x1 PUSH1 0xA0 SHL SUB AND SWAP1 JUMP JUMPDEST PUSH1 0x1 PUSH1 0x1 PUSH1 0xA0 SHL SUB AND EQ PUSH3 0x85F JUMPI PUSH1 0x40 MLOAD PUSH4 0xEBF98459 PUSH1 0xE0 SHL DUP2 MSTORE PUSH1 0x4 ADD PUSH1 0x40 MLOAD DUP1 SWAP2 SUB SWAP1 REVERT JUMPDEST PUSH1 0x40 DUP2 ADD CALLDATALOAD ISZERO DUP1 PUSH3 0x878 JUMPI POP DUP1 PUSH1 0x60 ADD CALLDATALOAD DUP2 PUSH1 0x40 ADD CALLDATALOAD GT JUMPDEST DUP1 PUSH3 0x889 JUMPI POP PUSH2 0x1F4 DUP2 PUSH1 0x60 ADD CALLDATALOAD GT JUMPDEST ISZERO PUSH3 0x8A8 JUMPI PUSH1 0x40 MLOAD PUSH4 0x7420258D PUSH1 0xE1 SHL DUP2 MSTORE PUSH1 0x4 ADD PUSH1 0x40 MLOAD DUP1 SWAP2 SUB SWAP1 REVERT JUMPDEST DUP1 PUSH1 0xA0 ADD CALLDATALOAD DUP2 PUSH1 0x80 ADD CALLDATALOAD GT ISZERO PUSH3 0x8D2 JUMPI PUSH1 0x40 MLOAD PUSH4 0x75E1700B PUSH1 0xE1 SHL DUP2 MSTORE PUSH1 0x4 ADD PUSH1 0x40 MLOAD DUP1 SWAP2 SUB SWAP1 REVERT JUMPDEST PUSH1 0x64 PUSH3 0x8E5 PUSH1 0x20 DUP4 ADD CALLDATALOAD PUSH1 0x2 PUSH3 0x4C37 JUMP JUMPDEST LT PUSH3 0x904 JUMPI PUSH1 0x40 MLOAD PUSH4 0x1457C3C3 PUSH1 0xE1 SHL DUP2 MSTORE PUSH1 0x4 ADD PUSH1 0x40 MLOAD DUP1 SWAP2 SUB SWAP1 REVERT JUMPDEST DUP1 PUSH1 0x7 PUSH3 0x913 DUP3 DUP3 PUSH3 0x4C59 JUMP JUMPDEST POP POP POP JUMP JUMPDEST PUSH1 0x0 PUSH1 0x1 PUSH1 0x1 PUSH1 0xA0 SHL SUB DUP4 AND PUSH3 0x942 JUMPI PUSH1 0x40 MLOAD PUSH4 0x6E3B4547 PUSH1 0xE1 SHL DUP2 MSTORE PUSH1 0x4 ADD PUSH1 0x40 MLOAD DUP1 SWAP2 SUB SWAP1 REVERT JUMPDEST POP PUSH1 0x0 DUP2 DUP2 MSTORE PUSH1 0xE PUSH1 0x20 SWAP1 DUP2 MSTORE PUSH1 0x40 DUP1 DUP4 KECCAK256 PUSH1 0x1 PUSH1 0x1 PUSH1 0xA0 SHL SUB DUP7 AND DUP5 MSTORE SWAP1 SWAP2 MSTORE SWAP1 KECCAK256 SLOAD JUMPDEST SWAP3 SWAP2 POP POP JUMP JUMPDEST PUSH1 0x40 MLOAD PUSH4 0x6FB1A07 PUSH1 0xE0 SHL DUP2 MSTORE PUSH1 0x4 DUP2 ADD DUP3 SWAP1 MSTORE PUSH1 0x0 SWAP1 PUSH20 0xDEF1FAC7BF08F173D286BBBDCBEEADE695129840 SWAP1 PUSH4 0x6FB1A07 SWAP1 PUSH1 0x24 ADD PUSH1 0x20 PUSH1 0x40 MLOAD DUP1 DUP4 SUB DUP2 DUP7 GAS STATICCALL ISZERO DUP1 ISZERO PUSH3 0x9C1 JUMPI RETURNDATASIZE PUSH1 0x0 DUP1 RETURNDATACOPY RETURNDATASIZE PUSH1 0x0 REVERT JUMPDEST POP POP POP POP PUSH1 0x40 MLOAD RETURNDATASIZE PUSH1 0x1F NOT PUSH1 0x1F DUP3 ADD AND DUP3 ADD DUP1 PUSH1 0x40 MSTORE POP DUP2 ADD SWAP1 PUSH3 0x967 SWAP2 SWAP1 PUSH3 0x4CC1 JUMP JUMPDEST PUSH1 0x60 PUSH1 0x12 DUP1 SLOAD PUSH3 0x9F8 SWAP1 PUSH3 0x4CE1 JUMP JUMPDEST DUP1 PUSH1 0x1F ADD PUSH1 0x20 DUP1 SWAP2 DIV MUL PUSH1 0x20 ADD PUSH1 0x40 MLOAD SWAP1 DUP2 ADD PUSH1 0x40 MSTORE DUP1 SWAP3 SWAP2 SWAP1 DUP2 DUP2 MSTORE PUSH1 0x20 ADD DUP3 DUP1 SLOAD PUSH3 0xA26 SWAP1 PUSH3 0x4CE1 JUMP JUMPDEST DUP1 ISZERO PUSH3 0xA77 JUMPI DUP1 PUSH1 0x1F LT PUSH3 0xA4B JUMPI PUSH2 0x100 DUP1 DUP4 SLOAD DIV MUL DUP4 MSTORE SWAP2 PUSH1 0x20 ADD SWAP2 PUSH3 0xA77 JUMP JUMPDEST DUP3 ADD SWAP2 SWAP1 PUSH1 0x0 MSTORE PUSH1 0x20 PUSH1 0x0 KECCAK256 SWAP1 JUMPDEST DUP2 SLOAD DUP2 MSTORE SWAP1 PUSH1 0x1 ADD SWAP1 PUSH1 0x20 ADD DUP1 DUP4 GT PUSH3 0xA59 JUMPI DUP3 SWAP1 SUB PUSH1 0x1F AND DUP3 ADD SWAP2 JUMPDEST POP POP POP POP POP SWAP1 POP SWAP1 JUMP JUMPDEST PUSH1 0x60 PUSH1 0x14 DUP3 PUSH1 0x40 MLOAD PUSH1 0x20 ADD PUSH3 0xA99 SWAP3 SWAP2 SWAP1 PUSH3 0x4D18 JUMP JUMPDEST PUSH1 0x40 MLOAD PUSH1 0x20 DUP2 DUP4 SUB SUB DUP2 MSTORE SWAP1 PUSH1 0x40 MSTORE SWAP1 POP SWAP2 SWAP1 POP JUMP JUMPDEST PUSH1 0x0 DUP1 PUSH1 0x0 JUMPDEST PUSH1 0x0 PUSH1 0x11 DUP2 PUSH3 0xAC5 DUP6 PUSH3 0x4DD8 JUMP JUMPDEST SWAP5 POP DUP5 DUP2 MSTORE PUSH1 0x20 ADD SWAP1 DUP2 MSTORE PUSH1 0x20 ADD PUSH1 0x0 KECCAK256 SLOAD GT ISZERO PUSH3 0x967 JUMPI PUSH1 0x0 DUP3 DUP2 MSTORE PUSH1 0x11 PUSH1 0x20 MSTORE PUSH1 0x40 SWAP1 KECCAK256 SLOAD PUSH3 0xAF9 SWAP1 DUP3 PUSH3 0x4DF6 JUMP JUMPDEST SWAP1 POP PUSH3 0xAB5 JUMP JUMPDEST PUSH1 0x0 PUSH3 0xB0F PUSH1 0x3 PUSH3 0x96D JUMP JUMPDEST SWAP1 POP DUP1 PUSH1 0x1 PUSH1 0x1 PUSH1 0xA0 SHL SUB AND PUSH4 0xEEF84BA1 PUSH1 0x40 MLOAD DUP2 PUSH4 0xFFFFFFFF AND PUSH1 0xE0 SHL DUP2 MSTORE PUSH1 0x4 ADD PUSH1 0x0 PUSH1 0x40 MLOAD DUP1 DUP4 SUB DUP2 PUSH1 0x0 DUP8 DUP1 EXTCODESIZE ISZERO DUP1 ISZERO PUSH3 0xB4D JUMPI PUSH1 0x0 DUP1 REVERT JUMPDEST POP GAS CALL ISZERO DUP1 ISZERO PUSH3 0xB62 JUMPI RETURNDATASIZE PUSH1 0x0 DUP1 RETURNDATACOPY RETURNDATASIZE PUSH1 0x0 REVERT JUMPDEST POP POP POP POP PUSH1 0x1 PUSH1 0x1 PUSH1 0xA0 SHL SUB DUP10 AND CALLER EQ DUP1 ISZERO SWAP1 PUSH3 0xB89 JUMPI POP PUSH3 0xB87 DUP10 CALLER PUSH3 0x206F JUMP JUMPDEST ISZERO JUMPDEST ISZERO PUSH3 0xBA8 JUMPI PUSH1 0x40 MLOAD PUSH4 0xDE69555 PUSH1 0xE3 SHL DUP2 MSTORE PUSH1 0x4 ADD PUSH1 0x40 MLOAD DUP1 SWAP2 SUB SWAP1 REVERT JUMPDEST PUSH3 0xBBA DUP10 DUP10 DUP10 DUP10 DUP10 DUP10 DUP10 DUP10 PUSH3 0x272A JUMP JUMPDEST POP POP POP POP POP POP POP POP POP JUMP JUMPDEST PUSH1 0x60 PUSH1 0x0 DUP3 PUSH8 0xFFFFFFFFFFFFFFFF DUP2 GT ISZERO PUSH3 0xBE5 JUMPI PUSH3 0xBE5 PUSH3 0x4775 JUMP JUMPDEST PUSH1 0x40 MLOAD SWAP1 DUP1 DUP3 MSTORE DUP1 PUSH1 0x20 MUL PUSH1 0x20 ADD DUP3 ADD PUSH1 0x40 MSTORE DUP1 ISZERO PUSH3 0xC2C JUMPI DUP2 PUSH1 0x20 ADD JUMPDEST PUSH1 0x40 DUP1 MLOAD DUP1 DUP3 ADD SWAP1 SWAP2 MSTORE PUSH1 0x0 DUP1 DUP3 MSTORE PUSH1 0x20 DUP3 ADD MSTORE DUP2 MSTORE PUSH1 0x20 ADD SWAP1 PUSH1 0x1 SWAP1 SUB SWAP1 DUP2 PUSH3 0xC04 JUMPI SWAP1 POP JUMPDEST POP SWAP1 POP PUSH1 0x0 JUMPDEST DUP4 DUP2 LT ISZERO PUSH3 0xCFF JUMPI PUSH1 0x0 DUP6 DUP6 DUP4 DUP2 DUP2 LT PUSH3 0xC52 JUMPI PUSH3 0xC52 PUSH3 0x4E11 JUMP JUMPDEST SWAP1 POP PUSH1 0x20 MUL ADD PUSH1 0x20 DUP2 ADD SWAP1 PUSH3 0xC69 SWAP2 SWAP1 PUSH3 0x4920 JUMP JUMPDEST PUSH1 0x1 PUSH1 0x1 PUSH1 0xA0 SHL SUB DUP2 AND PUSH1 0x0 SWAP1 DUP2 MSTORE PUSH1 0x2 PUSH1 0x20 MSTORE PUSH1 0x40 DUP2 KECCAK256 SLOAD PUSH1 0x1 DUP1 SLOAD SWAP4 SWAP5 POP SWAP2 SWAP3 DUP2 LT PUSH3 0xC9C JUMPI PUSH3 0xC9C PUSH3 0x4E11 JUMP JUMPDEST PUSH1 0x0 SWAP2 DUP3 MSTORE PUSH1 0x20 SWAP1 SWAP2 KECCAK256 PUSH1 0x2 SWAP1 SWAP2 MUL ADD DUP1 SLOAD SWAP1 SWAP2 POP PUSH3 0xCC7 SWAP1 DUP4 SWAP1 PUSH1 0x1 PUSH1 0x1 PUSH1 0xA0 SHL SUB AND PUSH3 0x29DE JUMP JUMPDEST DUP5 DUP5 DUP2 MLOAD DUP2 LT PUSH3 0xCDC JUMPI PUSH3 0xCDC PUSH3 0x4E11 JUMP JUMPDEST PUSH1 0x20 MUL PUSH1 0x20 ADD ADD DUP2 SWAP1 MSTORE POP POP POP DUP1 DUP1 PUSH3 0xCF6 SWAP1 PUSH3 0x4DD8 JUMP JUMPDEST SWAP2 POP POP PUSH3 0xC32 JUMP JUMPDEST POP SWAP4 SWAP3 POP POP POP JUMP JUMPDEST CALLER PUSH3 0xD1B PUSH1 0x15 SLOAD PUSH1 0x1 PUSH1 0x1 PUSH1 0xA0 SHL SUB AND SWAP1 JUMP JUMPDEST PUSH1 0x1 PUSH1 0x1 PUSH1 0xA0 SHL SUB AND EQ PUSH3 0xD43 JUMPI PUSH1 0x40 MLOAD PUSH4 0xEBF98459 PUSH1 0xE0 SHL DUP2 MSTORE PUSH1 0x4 ADD PUSH1 0x40 MLOAD DUP1 SWAP2 SUB SWAP1 REVERT JUMPDEST DUP2 MLOAD PUSH3 0xD58 SWAP1 PUSH1 0x12 SWAP1 PUSH1 0x20 DUP6 ADD SWAP1 PUSH3 0x4331 JUMP JUMPDEST POP DUP1 MLOAD PUSH3 0x913 SWAP1 PUSH1 0x13 SWAP1 PUSH1 0x20 DUP5 ADD SWAP1 PUSH3 0x4331 JUMP JUMPDEST PUSH1 0x1 PUSH1 0x1 PUSH1 0xA0 SHL SUB DUP5 AND PUSH1 0x0 SWAP1 DUP2 MSTORE PUSH1 0x2 PUSH1 0x20 MSTORE PUSH1 0x40 DUP2 KECCAK256 SLOAD DUP6 SWAP1 ISZERO DUP1 PUSH3 0xDA3 JUMPI POP PUSH1 0x0 SLOAD PUSH1 0x1 PUSH1 0x1 PUSH1 0xA0 SHL SUB DUP3 DUP2 AND SWAP2 AND EQ JUMPDEST ISZERO PUSH3 0xDCC JUMPI PUSH1 0x40 MLOAD PUSH3 0x461BCD PUSH1 0xE5 SHL DUP2 MSTORE PUSH1 0x4 ADD PUSH3 0xDC3 SWAP1 PUSH3 0x4E27 JUMP JUMPDEST PUSH1 0x40 MLOAD DUP1 SWAP2 SUB SWAP1 REVERT JUMPDEST DUP4 DUP1 TIMESTAMP GT ISZERO PUSH3 0xDF0 JUMPI PUSH1 0x40 MLOAD PUSH3 0x461BCD PUSH1 0xE5 SHL DUP2 MSTORE PUSH1 0x4 ADD PUSH3 0xDC3 SWAP1 PUSH3 0x4E42 JUMP JUMPDEST PUSH1 0x1 PUSH1 0x1 PUSH1 0xA0 SHL SUB DUP8 AND PUSH1 0x0 SWAP1 DUP2 MSTORE PUSH1 0x2 PUSH1 0x20 MSTORE PUSH1 0x40 DUP2 KECCAK256 SLOAD PUSH1 0x1 DUP1 SLOAD SWAP2 SWAP3 SWAP2 DUP4 SWAP1 DUP2 LT PUSH3 0xE23 JUMPI PUSH3 0xE23 PUSH3 0x4E11 JUMP JUMPDEST PUSH1 0x0 SWAP2 DUP3 MSTORE PUSH1 0x20 DUP3 KECCAK256 PUSH1 0x2 SWAP1 SWAP2 MUL ADD DUP1 SLOAD SWAP1 SWAP3 POP PUSH3 0xE4D SWAP1 DUP12 SWAP1 PUSH1 0x1 PUSH1 0x1 PUSH1 0xA0 SHL SUB AND PUSH3 0x29DE JUMP JUMPDEST DUP3 SLOAD SWAP1 SWAP2 POP PUSH3 0xE6B SWAP1 DUP12 SWAP1 CALLER SWAP1 PUSH1 0x1 PUSH1 0x1 PUSH1 0xA0 SHL SUB AND DUP13 PUSH3 0x2A32 JUMP JUMPDEST DUP2 SLOAD PUSH1 0x0 SWAP1 PUSH3 0xE86 SWAP1 DUP13 SWAP1 PUSH1 0x1 PUSH1 0x1 PUSH1 0xA0 SHL SUB AND PUSH3 0x29DE JUMP JUMPDEST DUP3 MLOAD DUP2 MLOAD SWAP2 SWAP3 POP PUSH3 0xE98 SWAP2 PUSH3 0x4E5D JUMP JUMPDEST SWAP10 POP PUSH1 0x1 DUP11 GT PUSH3 0xEBD JUMPI PUSH1 0x40 MLOAD PUSH3 0x461BCD PUSH1 0xE5 SHL DUP2 MSTORE PUSH1 0x4 ADD PUSH3 0xDC3 SWAP1 PUSH3 0x4E77 JUMP JUMPDEST PUSH1 0x0 PUSH3 0xEDF DUP4 PUSH1 0x20 ADD MLOAD DUP5 PUSH1 0x0 ADD MLOAD PUSH3 0xED9 SWAP2 SWAP1 PUSH3 0x4C37 JUMP JUMPDEST PUSH3 0x2B9D JUMP JUMPDEST PUSH1 0x1 DUP6 ADD SLOAD PUSH1 0x0 DUP8 DUP2 MSTORE PUSH1 0x11 PUSH1 0x20 MSTORE PUSH1 0x40 DUP2 KECCAK256 SLOAD SWAP3 SWAP4 POP SWAP2 PUSH3 0xF0E SWAP2 PUSH1 0x1 PUSH1 0x1 PUSH1 0x80 SHL SUB AND SWAP1 DUP5 SWAP1 PUSH3 0x2C1B JUMP JUMPDEST PUSH1 0x7 SLOAD PUSH1 0x40 DUP1 MLOAD PUSH1 0x20 DUP2 ADD SWAP1 SWAP2 MSTORE PUSH1 0x0 DUP2 MSTORE SWAP2 SWAP3 POP PUSH3 0xF3E SWAP2 PUSH1 0x1 PUSH1 0x1 PUSH1 0xA0 SHL SUB SWAP1 SWAP2 AND SWAP1 DUP9 SWAP1 DUP5 SWAP1 PUSH3 0x2CB3 JUMP JUMPDEST DUP4 MLOAD PUSH1 0x0 DUP8 DUP2 MSTORE PUSH1 0x11 PUSH1 0x20 MSTORE PUSH1 0x40 DUP2 KECCAK256 SLOAD SWAP1 SWAP2 SWAP1 PUSH3 0xF5E SWAP1 DUP16 PUSH3 0x4C37 JUMP JUMPDEST PUSH3 0xF6A SWAP2 SWAP1 PUSH3 0x4E92 JUMP JUMPDEST SWAP1 POP PUSH3 0xF89 DUP12 DUP9 DUP4 PUSH1 0x40 MLOAD DUP1 PUSH1 0x20 ADD PUSH1 0x40 MSTORE DUP1 PUSH1 0x0 DUP2 MSTORE POP PUSH3 0x2CB3 JUMP JUMPDEST PUSH1 0x0 DUP6 PUSH1 0x0 ADD MLOAD DUP7 PUSH1 0x20 ADD MLOAD DUP16 PUSH3 0xFA2 SWAP2 SWAP1 PUSH3 0x4C37 JUMP JUMPDEST PUSH3 0xFAE SWAP2 SWAP1 PUSH3 0x4E92 JUMP JUMPDEST SWAP1 POP PUSH1 0x1 DUP2 GT PUSH3 0xFD1 JUMPI PUSH1 0x40 MLOAD PUSH3 0x1037CB PUSH1 0xE9 SHL DUP2 MSTORE PUSH1 0x4 ADD PUSH1 0x40 MLOAD DUP1 SWAP2 SUB SWAP1 REVERT JUMPDEST PUSH1 0x0 SLOAD DUP8 SLOAD PUSH1 0x40 MLOAD PUSH4 0xBB9FF5D PUSH1 0xE0 SHL DUP2 MSTORE PUSH1 0x1 PUSH1 0x1 PUSH1 0xA0 SHL SUB SWAP2 DUP3 AND PUSH1 0x4 DUP3 ADD MSTORE PUSH1 0x24 DUP2 ADD DUP5 SWAP1 MSTORE SWAP2 AND SWAP1 PUSH4 0xBB9FF5D SWAP1 PUSH1 0x44 ADD PUSH1 0x0 PUSH1 0x40 MLOAD DUP1 DUP4 SUB DUP2 PUSH1 0x0 DUP8 DUP1 EXTCODESIZE ISZERO DUP1 ISZERO PUSH3 0x1021 JUMPI PUSH1 0x0 DUP1 REVERT JUMPDEST POP GAS CALL ISZERO DUP1 ISZERO PUSH3 0x1036 JUMPI RETURNDATASIZE PUSH1 0x0 DUP1 RETURNDATACOPY RETURNDATASIZE PUSH1 0x0 REVERT JUMPDEST POP POP POP POP PUSH1 0x20 DUP6 ADD MLOAD DUP6 MLOAD PUSH3 0x1051 SWAP2 PUSH3 0xED9 SWAP2 PUSH3 0x4C37 JUMP JUMPDEST DUP8 PUSH1 0x1 ADD PUSH1 0x0 PUSH2 0x100 EXP DUP2 SLOAD DUP2 PUSH1 0x1 PUSH1 0x1 PUSH1 0x80 SHL SUB MUL NOT AND SWAP1 DUP4 PUSH1 0x1 PUSH1 0x1 PUSH1 0x80 SHL SUB AND MUL OR SWAP1 SSTORE POP PUSH32 0x64B83944E79C3CE8D4C297411DE637C3E102D064677AAC0C163976EBDCD6F50E DUP16 DUP16 DUP4 DUP6 PUSH1 0x40 MLOAD PUSH3 0x10B0 SWAP5 SWAP4 SWAP3 SWAP2 SWAP1 PUSH3 0x4EB5 JUMP JUMPDEST PUSH1 0x40 MLOAD DUP1 SWAP2 SUB SWAP1 LOG1 PUSH1 0x0 DUP1 MLOAD PUSH1 0x20 PUSH3 0x5526 DUP4 CODECOPY DUP2 MLOAD SWAP2 MSTORE DUP16 DUP7 PUSH1 0x0 ADD MLOAD DUP8 PUSH1 0x20 ADD MLOAD DUP11 PUSH1 0x1 ADD PUSH1 0x10 SWAP1 SLOAD SWAP1 PUSH2 0x100 EXP SWAP1 DIV PUSH1 0x1 PUSH1 0x1 PUSH1 0x80 SHL SUB AND PUSH1 0x40 MLOAD PUSH3 0x10FD SWAP5 SWAP4 SWAP3 SWAP2 SWAP1 PUSH3 0x4EDB JUMP JUMPDEST PUSH1 0x40 MLOAD DUP1 SWAP2 SUB SWAP1 LOG1 POP SWAP14 SWAP13 POP POP POP POP POP POP POP POP POP POP POP POP POP JUMP JUMPDEST PUSH1 0x1 PUSH1 0x1 PUSH1 0xA0 SHL SUB DUP4 AND PUSH1 0x0 SWAP1 DUP2 MSTORE PUSH1 0x2 PUSH1 0x20 MSTORE PUSH1 0x40 DUP2 KECCAK256 SLOAD PUSH1 0x1 DUP1 SLOAD DUP4 SWAP3 DUP4 SWAP3 SWAP2 DUP2 LT PUSH3 0x114A JUMPI PUSH3 0x114A PUSH3 0x4E11 JUMP JUMPDEST PUSH1 0x0 SWAP2 DUP3 MSTORE PUSH1 0x20 DUP1 DUP4 KECCAK256 PUSH1 0x2 SWAP3 DUP4 MUL ADD SLOAD PUSH1 0x1 PUSH1 0x1 PUSH1 0xA0 SHL SUB DUP10 DUP2 AND DUP6 MSTORE SWAP3 SWAP1 SWAP2 MSTORE PUSH1 0x40 DUP4 KECCAK256 SLOAD PUSH1 0x1 DUP1 SLOAD SWAP4 SWAP1 SWAP3 AND SWAP5 POP SWAP1 SWAP2 DUP2 LT PUSH3 0x118E JUMPI PUSH3 0x118E PUSH3 0x4E11 JUMP JUMPDEST PUSH1 0x0 SWAP2 DUP3 MSTORE PUSH1 0x20 DUP3 KECCAK256 PUSH1 0x2 SWAP1 SWAP2 MUL ADD SLOAD SWAP1 SLOAD PUSH1 0x1 PUSH1 0x1 PUSH1 0xA0 SHL SUB SWAP2 DUP3 AND SWAP3 POP DUP9 DUP3 AND SWAP2 AND EQ DUP1 ISZERO SWAP1 PUSH3 0x11CE JUMPI POP PUSH1 0x0 SLOAD PUSH1 0x1 PUSH1 0x1 PUSH1 0xA0 SHL SUB DUP8 DUP2 AND SWAP2 AND EQ JUMPDEST ISZERO PUSH3 0x11F8 JUMPI PUSH3 0x11EC PUSH3 0x11E4 DUP9 DUP5 PUSH3 0x29DE JUMP JUMPDEST DUP9 DUP8 PUSH3 0x2D87 JUMP JUMPDEST SWAP4 POP PUSH3 0x127D SWAP3 POP POP POP JUMP JUMPDEST PUSH1 0x0 SLOAD PUSH1 0x1 PUSH1 0x1 PUSH1 0xA0 SHL SUB DUP9 DUP2 AND SWAP2 AND EQ DUP1 ISZERO PUSH3 0x1224 JUMPI POP PUSH1 0x0 SLOAD PUSH1 0x1 PUSH1 0x1 PUSH1 0xA0 SHL SUB DUP8 DUP2 AND SWAP2 AND EQ ISZERO JUMPDEST ISZERO PUSH3 0x1242 JUMPI PUSH3 0x11EC PUSH3 0x123A DUP8 DUP4 PUSH3 0x29DE JUMP JUMPDEST DUP8 DUP8 PUSH3 0x2E06 JUMP JUMPDEST PUSH1 0x0 PUSH3 0x125C PUSH3 0x1254 DUP10 DUP6 PUSH3 0x29DE JUMP JUMPDEST DUP10 DUP9 PUSH3 0x2D87 JUMP JUMPDEST SWAP1 POP PUSH3 0x1276 PUSH3 0x126E DUP9 DUP5 PUSH3 0x29DE JUMP JUMPDEST DUP9 DUP4 PUSH3 0x2E06 JUMP JUMPDEST SWAP5 POP POP POP POP POP JUMPDEST SWAP4 SWAP3 POP POP POP JUMP JUMPDEST PUSH1 0x1 PUSH1 0x1 PUSH1 0xA0 SHL SUB DUP2 AND PUSH1 0x0 SWAP1 DUP2 MSTORE PUSH1 0x2 PUSH1 0x20 MSTORE PUSH1 0x40 DUP2 KECCAK256 SLOAD PUSH1 0x1 DUP1 SLOAD DUP4 SWAP3 SWAP1 DUP2 LT PUSH3 0x12B5 JUMPI PUSH3 0x12B5 PUSH3 0x4E11 JUMP JUMPDEST PUSH1 0x0 SWAP2 DUP3 MSTORE PUSH1 0x20 DUP3 KECCAK256 PUSH1 0x2 SWAP1 SWAP2 MUL ADD DUP1 SLOAD SWAP1 SWAP3 POP PUSH3 0x12DF SWAP1 DUP6 SWAP1 PUSH1 0x1 PUSH1 0x1 PUSH1 0xA0 SHL SUB AND PUSH3 0x29DE JUMP JUMPDEST SWAP1 POP PUSH3 0x12ED DUP5 DUP3 PUSH3 0x2E73 JUMP JUMPDEST SWAP5 SWAP4 POP POP POP POP JUMP JUMPDEST PUSH1 0x60 DUP2 DUP5 DUP2 EQ PUSH3 0x1319 JUMPI PUSH1 0x40 MLOAD PUSH4 0x80DADC27 PUSH1 0xE0 SHL DUP2 MSTORE PUSH1 0x4 ADD PUSH1 0x40 MLOAD DUP1 SWAP2 SUB SWAP1 REVERT JUMPDEST PUSH1 0x0 DUP6 PUSH8 0xFFFFFFFFFFFFFFFF DUP2 GT ISZERO PUSH3 0x1337 JUMPI PUSH3 0x1337 PUSH3 0x4775 JUMP JUMPDEST PUSH1 0x40 MLOAD SWAP1 DUP1 DUP3 MSTORE DUP1 PUSH1 0x20 MUL PUSH1 0x20 ADD DUP3 ADD PUSH1 0x40 MSTORE DUP1 ISZERO PUSH3 0x1361 JUMPI DUP2 PUSH1 0x20 ADD PUSH1 0x20 DUP3 MUL DUP1 CALLDATASIZE DUP4 CALLDATACOPY ADD SWAP1 POP JUMPDEST POP SWAP1 POP PUSH1 0x0 JUMPDEST DUP3 DUP2 LT ISZERO PUSH3 0x13F5 JUMPI PUSH3 0x13C2 DUP9 DUP9 DUP4 DUP2 DUP2 LT PUSH3 0x1389 JUMPI PUSH3 0x1389 PUSH3 0x4E11 JUMP JUMPDEST SWAP1 POP PUSH1 0x20 MUL ADD PUSH1 0x20 DUP2 ADD SWAP1 PUSH3 0x13A0 SWAP2 SWAP1 PUSH3 0x4920 JUMP JUMPDEST DUP8 DUP8 DUP5 DUP2 DUP2 LT PUSH3 0x13B5 JUMPI PUSH3 0x13B5 PUSH3 0x4E11 JUMP JUMPDEST SWAP1 POP PUSH1 0x20 MUL ADD CALLDATALOAD PUSH3 0x918 JUMP JUMPDEST DUP3 DUP3 DUP2 MLOAD DUP2 LT PUSH3 0x13D7 JUMPI PUSH3 0x13D7 PUSH3 0x4E11 JUMP JUMPDEST PUSH1 0x20 SWAP1 DUP2 MUL SWAP2 SWAP1 SWAP2 ADD ADD MSTORE PUSH3 0x13ED DUP2 PUSH3 0x4DD8 JUMP JUMPDEST SWAP1 POP PUSH3 0x1367 JUMP JUMPDEST POP SWAP7 SWAP6 POP POP POP POP POP POP JUMP JUMPDEST CALLER PUSH3 0x1414 PUSH1 0x15 SLOAD PUSH1 0x1 PUSH1 0x1 PUSH1 0xA0 SHL SUB AND SWAP1 JUMP JUMPDEST PUSH1 0x1 PUSH1 0x1 PUSH1 0xA0 SHL SUB AND EQ PUSH3 0x143C JUMPI PUSH1 0x40 MLOAD PUSH4 0xEBF98459 PUSH1 0xE0 SHL DUP2 MSTORE PUSH1 0x4 ADD PUSH1 0x40 MLOAD DUP1 SWAP2 SUB SWAP1 REVERT JUMPDEST PUSH3 0x1448 PUSH1 0x0 PUSH3 0x2FE4 JUMP JUMPDEST JUMP JUMPDEST PUSH1 0x1 PUSH1 0x1 PUSH1 0xA0 SHL SUB DUP3 AND PUSH1 0x0 SWAP1 DUP2 MSTORE PUSH1 0x2 PUSH1 0x20 MSTORE PUSH1 0x40 DUP2 KECCAK256 SLOAD PUSH1 0x1 DUP1 SLOAD SWAP1 SWAP2 SWAP1 DUP2 LT PUSH3 0x147B JUMPI PUSH3 0x147B PUSH3 0x4E11 JUMP JUMPDEST PUSH1 0x0 SWAP2 DUP3 MSTORE PUSH1 0x20 DUP3 KECCAK256 PUSH1 0x2 SWAP1 SWAP2 MUL ADD DUP1 SLOAD SWAP1 SWAP3 POP PUSH3 0x14A5 SWAP1 DUP6 SWAP1 PUSH1 0x1 PUSH1 0x1 PUSH1 0xA0 SHL SUB AND PUSH3 0x29DE JUMP JUMPDEST PUSH1 0x1 DUP4 ADD SLOAD SWAP1 SWAP2 POP PUSH1 0x1 PUSH1 0x1 PUSH1 0x80 SHL SUB PUSH1 0x1 PUSH1 0x80 SHL SWAP1 SWAP2 DIV DUP2 AND LT ISZERO PUSH3 0x1578 JUMPI DUP3 DUP3 PUSH1 0x1 ADD PUSH1 0x10 DUP3 DUP3 DUP3 SWAP1 SLOAD SWAP1 PUSH2 0x100 EXP SWAP1 DIV PUSH1 0x1 PUSH1 0x1 PUSH1 0x80 SHL SUB AND PUSH3 0x14EE SWAP2 SWAP1 PUSH3 0x4F0A JUMP JUMPDEST DUP3 SLOAD PUSH1 0x1 PUSH1 0x1 PUSH1 0x80 SHL SUB SWAP2 DUP3 AND PUSH2 0x100 SWAP4 SWAP1 SWAP4 EXP SWAP3 DUP4 MUL SWAP2 SWAP1 SWAP3 MUL NOT SWAP1 SWAP2 AND OR SWAP1 SSTORE POP PUSH1 0x0 SLOAD PUSH1 0x40 MLOAD PUSH4 0x18A8AD87 PUSH1 0xE0 SHL DUP2 MSTORE CALLER PUSH1 0x4 DUP3 ADD MSTORE PUSH1 0x24 DUP2 ADD DUP6 SWAP1 MSTORE PUSH1 0x1 PUSH1 0x1 PUSH1 0xA0 SHL SUB SWAP1 SWAP2 AND SWAP1 PUSH4 0x18A8AD87 SWAP1 PUSH1 0x44 ADD PUSH1 0x0 PUSH1 0x40 MLOAD DUP1 DUP4 SUB DUP2 PUSH1 0x0 DUP8 DUP1 EXTCODESIZE ISZERO DUP1 ISZERO PUSH3 0x155E JUMPI PUSH1 0x0 DUP1 REVERT JUMPDEST POP GAS CALL ISZERO DUP1 ISZERO PUSH3 0x1573 JUMPI RETURNDATASIZE PUSH1 0x0 DUP1 RETURNDATACOPY RETURNDATASIZE PUSH1 0x0 REVERT JUMPDEST POP POP POP POP JUMPDEST DUP1 MLOAD PUSH1 0x20 DUP3 ADD MLOAD PUSH1 0x1 DUP5 ADD SLOAD PUSH1 0x40 MLOAD PUSH1 0x0 DUP1 MLOAD PUSH1 0x20 PUSH3 0x5526 DUP4 CODECOPY DUP2 MLOAD SWAP2 MSTORE SWAP4 PUSH3 0x15BA SWAP4 DUP10 SWAP4 SWAP2 SWAP3 SWAP1 SWAP2 PUSH1 0x1 PUSH1 0x80 SHL SWAP1 DIV PUSH1 0x1 PUSH1 0x1 PUSH1 0x80 SHL SUB AND SWAP1 PUSH3 0x4EDB JUMP JUMPDEST PUSH1 0x40 MLOAD DUP1 SWAP2 SUB SWAP1 LOG1 POP POP POP POP JUMP JUMPDEST PUSH1 0x1 PUSH1 0x1 PUSH1 0xA0 SHL SUB DUP5 AND PUSH1 0x0 SWAP1 DUP2 MSTORE PUSH1 0x2 PUSH1 0x20 MSTORE PUSH1 0x40 DUP2 KECCAK256 SLOAD DUP6 SWAP1 ISZERO DUP1 PUSH3 0x15FD JUMPI POP PUSH1 0x0 SLOAD PUSH1 0x1 PUSH1 0x1 PUSH1 0xA0 SHL SUB DUP3 DUP2 AND SWAP2 AND EQ JUMPDEST ISZERO PUSH3 0x161D JUMPI PUSH1 0x40 MLOAD PUSH3 0x461BCD PUSH1 0xE5 SHL DUP2 MSTORE PUSH1 0x4 ADD PUSH3 0xDC3 SWAP1 PUSH3 0x4E27 JUMP JUMPDEST DUP4 DUP1 TIMESTAMP GT ISZERO PUSH3 0x1641 JUMPI PUSH1 0x40 MLOAD PUSH3 0x461BCD PUSH1 0xE5 SHL DUP2 MSTORE PUSH1 0x4 ADD PUSH3 0xDC3 SWAP1 PUSH3 0x4E42 JUMP JUMPDEST PUSH3 0x164E DUP8 DUP8 DUP7 PUSH3 0x3036 JUMP JUMPDEST SWAP8 SWAP7 POP POP POP POP POP POP POP JUMP JUMPDEST PUSH3 0x1669 DUP5 DUP5 DUP5 PUSH1 0x0 DUP6 PUSH3 0x3300 JUMP JUMPDEST POP POP POP POP JUMP JUMPDEST PUSH3 0x16B9 PUSH1 0x40 MLOAD DUP1 PUSH1 0xE0 ADD PUSH1 0x40 MSTORE DUP1 PUSH1 0x0 PUSH1 0x1 PUSH1 0x1 PUSH1 0xA0 SHL SUB AND DUP2 MSTORE PUSH1 0x20 ADD PUSH1 0x0 DUP2 MSTORE PUSH1 0x20 ADD PUSH1 0x0 DUP2 MSTORE PUSH1 0x20 ADD PUSH1 0x0 DUP2 MSTORE PUSH1 0x20 ADD PUSH1 0x0 DUP2 MSTORE PUSH1 0x20 ADD PUSH1 0x0 DUP2 MSTORE PUSH1 0x20 ADD PUSH1 0x0 DUP2 MSTORE POP SWAP1 JUMP JUMPDEST POP PUSH1 0x40 DUP1 MLOAD PUSH1 0xE0 DUP2 ADD DUP3 MSTORE PUSH1 0x7 SLOAD PUSH1 0x1 PUSH1 0x1 PUSH1 0xA0 SHL SUB AND DUP2 MSTORE PUSH1 0x8 SLOAD PUSH1 0x20 DUP3 ADD MSTORE PUSH1 0x9 SLOAD SWAP2 DUP2 ADD SWAP2 SWAP1 SWAP2 MSTORE PUSH1 0xA SLOAD PUSH1 0x60 DUP3 ADD MSTORE PUSH1 0xB SLOAD PUSH1 0x80 DUP3 ADD MSTORE PUSH1 0xC SLOAD PUSH1 0xA0 DUP3 ADD MSTORE PUSH1 0xD SLOAD PUSH1 0xC0 DUP3 ADD MSTORE SWAP1 JUMP JUMPDEST PUSH1 0x60 PUSH1 0x13 DUP1 SLOAD PUSH3 0x9F8 SWAP1 PUSH3 0x4CE1 JUMP JUMPDEST PUSH1 0x0 PUSH3 0x1726 PUSH1 0x3 PUSH3 0x96D JUMP JUMPDEST SWAP1 POP DUP1 PUSH1 0x1 PUSH1 0x1 PUSH1 0xA0 SHL SUB AND PUSH4 0xEEF84BA1 PUSH1 0x40 MLOAD DUP2 PUSH4 0xFFFFFFFF AND PUSH1 0xE0 SHL DUP2 MSTORE PUSH1 0x4 ADD PUSH1 0x0 PUSH1 0x40 MLOAD DUP1 DUP4 SUB DUP2 PUSH1 0x0 DUP8 DUP1 EXTCODESIZE ISZERO DUP1 ISZERO PUSH3 0x1764 JUMPI PUSH1 0x0 DUP1 REVERT JUMPDEST POP GAS CALL ISZERO DUP1 ISZERO PUSH3 0x1779 JUMPI RETURNDATASIZE PUSH1 0x0 DUP1 RETURNDATACOPY RETURNDATASIZE PUSH1 0x0 REVERT JUMPDEST POP POP POP POP PUSH3 0x913 CALLER DUP5 DUP5 PUSH3 0x3639 JUMP JUMPDEST PUSH1 0x60 DUP3 DUP1 TIMESTAMP GT ISZERO PUSH3 0x17B0 JUMPI PUSH1 0x40 MLOAD PUSH3 0x461BCD PUSH1 0xE5 SHL DUP2 MSTORE PUSH1 0x4 ADD PUSH3 0xDC3 SWAP1 PUSH3 0x4E42 JUMP JUMPDEST PUSH1 0x1 DUP7 GT PUSH3 0x17D3 JUMPI PUSH1 0x40 MLOAD PUSH3 0x461BCD PUSH1 0xE5 SHL DUP2 MSTORE PUSH1 0x4 ADD PUSH3 0xDC3 SWAP1 PUSH3 0x4E77 JUMP JUMPDEST PUSH1 0x1 PUSH1 0x1 PUSH1 0xA0 SHL SUB DUP9 AND PUSH1 0x0 SWAP1 DUP2 MSTORE PUSH1 0x2 PUSH1 0x20 MSTORE PUSH1 0x40 DUP2 KECCAK256 SLOAD PUSH1 0x1 DUP1 SLOAD SWAP1 SWAP2 SWAP1 DUP2 LT PUSH3 0x1804 JUMPI PUSH3 0x1804 PUSH3 0x4E11 JUMP JUMPDEST PUSH1 0x0 SWAP2 DUP3 MSTORE PUSH1 0x20 DUP1 DUP4 KECCAK256 PUSH1 0x2 SWAP3 DUP4 MUL ADD SLOAD PUSH1 0x1 PUSH1 0x1 PUSH1 0xA0 SHL SUB DUP13 DUP2 AND DUP6 MSTORE SWAP3 SWAP1 SWAP2 MSTORE PUSH1 0x40 DUP4 KECCAK256 SLOAD PUSH1 0x1 DUP1 SLOAD SWAP4 SWAP1 SWAP3 AND SWAP5 POP SWAP1 SWAP2 DUP2 LT PUSH3 0x1848 JUMPI PUSH3 0x1848 PUSH3 0x4E11 JUMP JUMPDEST PUSH1 0x0 SWAP2 DUP3 MSTORE PUSH1 0x20 DUP1 DUP4 KECCAK256 PUSH1 0x2 SWAP3 DUP4 MUL ADD SLOAD PUSH1 0x40 DUP1 MLOAD DUP5 DUP2 MSTORE PUSH1 0x60 DUP2 ADD DUP3 MSTORE PUSH1 0x1 PUSH1 0x1 PUSH1 0xA0 SHL SUB SWAP1 SWAP3 AND SWAP6 POP SWAP1 SWAP3 SWAP2 DUP4 ADD SWAP1 DUP1 CALLDATASIZE DUP4 CALLDATACOPY ADD SWAP1 POP POP SWAP1 POP DUP9 DUP2 PUSH1 0x0 DUP2 MLOAD DUP2 LT PUSH3 0x189A JUMPI PUSH3 0x189A PUSH3 0x4E11 JUMP JUMPDEST PUSH1 0x20 SWAP1 DUP2 MUL SWAP2 SWAP1 SWAP2 ADD ADD MSTORE PUSH1 0x0 SLOAD PUSH1 0x1 PUSH1 0x1 PUSH1 0xA0 SHL SUB DUP13 DUP2 AND SWAP2 AND EQ DUP1 ISZERO SWAP1 PUSH3 0x18D1 JUMPI POP PUSH1 0x0 SLOAD PUSH1 0x1 PUSH1 0x1 PUSH1 0xA0 SHL SUB DUP12 DUP2 AND SWAP2 AND EQ JUMPDEST ISZERO PUSH3 0x19B0 JUMPI PUSH1 0x0 PUSH3 0x18E5 DUP13 DUP6 PUSH3 0x29DE JUMP JUMPDEST SWAP1 POP PUSH3 0x18F4 DUP2 DUP14 DUP13 PUSH3 0x2D87 JUMP JUMPDEST DUP3 PUSH1 0x1 DUP2 MLOAD DUP2 LT PUSH3 0x190A JUMPI PUSH3 0x190A PUSH3 0x4E11 JUMP JUMPDEST PUSH1 0x20 MUL PUSH1 0x20 ADD ADD DUP2 DUP2 MSTORE POP POP DUP9 DUP3 PUSH1 0x1 DUP2 MLOAD DUP2 LT PUSH3 0x192D JUMPI PUSH3 0x192D PUSH3 0x4E11 JUMP JUMPDEST PUSH1 0x20 MUL PUSH1 0x20 ADD ADD MLOAD LT ISZERO PUSH3 0x1969 JUMPI PUSH1 0x40 MLOAD PUSH3 0x461BCD PUSH1 0xE5 SHL DUP2 MSTORE PUSH1 0x20 PUSH1 0x4 DUP3 ADD MSTORE PUSH1 0x1 PUSH1 0x24 DUP3 ADD MSTORE PUSH1 0x9 PUSH1 0xFB SHL PUSH1 0x44 DUP3 ADD MSTORE PUSH1 0x64 ADD PUSH3 0xDC3 JUMP JUMPDEST PUSH3 0x1977 DUP13 CALLER DUP7 DUP14 PUSH3 0x2A32 JUMP JUMPDEST PUSH3 0x19A4 DUP13 DUP3 PUSH1 0x0 DUP6 PUSH1 0x1 DUP2 MLOAD DUP2 LT PUSH3 0x1995 JUMPI PUSH3 0x1995 PUSH3 0x4E11 JUMP JUMPDEST PUSH1 0x20 MUL PUSH1 0x20 ADD ADD MLOAD DUP12 PUSH3 0x36DA JUMP JUMPDEST POP SWAP4 POP PUSH3 0x13F5 SWAP2 POP POP JUMP JUMPDEST PUSH1 0x0 SLOAD PUSH1 0x1 PUSH1 0x1 PUSH1 0xA0 SHL SUB DUP13 DUP2 AND SWAP2 AND EQ DUP1 ISZERO PUSH3 0x19DC JUMPI POP PUSH1 0x0 SLOAD PUSH1 0x1 PUSH1 0x1 PUSH1 0xA0 SHL SUB DUP12 DUP2 AND SWAP2 AND EQ ISZERO JUMPDEST ISZERO PUSH3 0x1AAF JUMPI PUSH1 0x0 PUSH3 0x19F0 DUP12 DUP5 PUSH3 0x29DE JUMP JUMPDEST SWAP1 POP PUSH3 0x19FF DUP2 DUP13 DUP13 PUSH3 0x2E06 JUMP JUMPDEST DUP3 PUSH1 0x1 DUP2 MLOAD DUP2 LT PUSH3 0x1A15 JUMPI PUSH3 0x1A15 PUSH3 0x4E11 JUMP JUMPDEST PUSH1 0x20 MUL PUSH1 0x20 ADD ADD DUP2 DUP2 MSTORE POP POP DUP9 DUP3 PUSH1 0x1 DUP2 MLOAD DUP2 LT PUSH3 0x1A38 JUMPI PUSH3 0x1A38 PUSH3 0x4E11 JUMP JUMPDEST PUSH1 0x20 MUL PUSH1 0x20 ADD ADD MLOAD LT ISZERO PUSH3 0x1A74 JUMPI PUSH1 0x40 MLOAD PUSH3 0x461BCD PUSH1 0xE5 SHL DUP2 MSTORE PUSH1 0x20 PUSH1 0x4 DUP3 ADD MSTORE PUSH1 0x1 PUSH1 0x24 DUP3 ADD MSTORE PUSH1 0x69 PUSH1 0xF8 SHL PUSH1 0x44 DUP3 ADD MSTORE PUSH1 0x64 ADD PUSH3 0xDC3 JUMP JUMPDEST PUSH3 0x1A82 DUP13 CALLER DUP6 DUP14 PUSH3 0x2A32 JUMP JUMPDEST PUSH3 0x19A4 DUP12 DUP3 DUP5 PUSH1 0x1 DUP2 MLOAD DUP2 LT PUSH3 0x1A9E JUMPI PUSH3 0x1A9E PUSH3 0x4E11 JUMP JUMPDEST PUSH1 0x20 MUL PUSH1 0x20 ADD ADD MLOAD PUSH1 0x0 DUP12 PUSH3 0x36DA JUMP JUMPDEST PUSH1 0x0 SLOAD PUSH1 0x1 PUSH1 0x1 PUSH1 0xA0 SHL SUB DUP13 DUP2 AND SWAP2 AND EQ DUP1 ISZERO SWAP1 PUSH3 0x1ADC JUMPI POP PUSH1 0x0 SLOAD PUSH1 0x1 PUSH1 0x1 PUSH1 0xA0 SHL SUB DUP12 DUP2 AND SWAP2 AND EQ ISZERO JUMPDEST DUP1 ISZERO PUSH3 0x1AFB JUMPI POP DUP10 PUSH1 0x1 PUSH1 0x1 PUSH1 0xA0 SHL SUB AND DUP12 PUSH1 0x1 PUSH1 0x1 PUSH1 0xA0 SHL SUB AND EQ ISZERO JUMPDEST ISZERO PUSH3 0x1C0E JUMPI PUSH1 0x0 PUSH3 0x1B0F DUP13 DUP6 PUSH3 0x29DE JUMP JUMPDEST SWAP1 POP PUSH1 0x0 PUSH3 0x1B20 DUP3 DUP15 DUP14 PUSH3 0x2D87 JUMP JUMPDEST SWAP1 POP PUSH1 0x0 PUSH3 0x1B30 DUP14 DUP7 PUSH3 0x29DE JUMP JUMPDEST SWAP1 POP PUSH3 0x1B3F DUP2 DUP15 DUP5 PUSH3 0x2E06 JUMP JUMPDEST DUP5 PUSH1 0x1 DUP2 MLOAD DUP2 LT PUSH3 0x1B55 JUMPI PUSH3 0x1B55 PUSH3 0x4E11 JUMP JUMPDEST PUSH1 0x20 MUL PUSH1 0x20 ADD ADD DUP2 DUP2 MSTORE POP POP DUP11 DUP5 PUSH1 0x1 DUP2 MLOAD DUP2 LT PUSH3 0x1B78 JUMPI PUSH3 0x1B78 PUSH3 0x4E11 JUMP JUMPDEST PUSH1 0x20 MUL PUSH1 0x20 ADD ADD MLOAD LT ISZERO PUSH3 0x1BB4 JUMPI PUSH1 0x40 MLOAD PUSH3 0x461BCD PUSH1 0xE5 SHL DUP2 MSTORE PUSH1 0x20 PUSH1 0x4 DUP3 ADD MSTORE PUSH1 0x1 PUSH1 0x24 DUP3 ADD MSTORE PUSH1 0x69 PUSH1 0xF8 SHL PUSH1 0x44 DUP3 ADD MSTORE PUSH1 0x64 ADD PUSH3 0xDC3 JUMP JUMPDEST PUSH3 0x1BC2 DUP15 CALLER DUP9 DUP16 PUSH3 0x2A32 JUMP JUMPDEST PUSH3 0x1BD2 DUP15 DUP5 PUSH1 0x0 DUP6 DUP10 PUSH3 0x36DA JUMP JUMPDEST PUSH3 0x1BFF DUP14 DUP3 DUP7 PUSH1 0x1 DUP2 MLOAD DUP2 LT PUSH3 0x1BEE JUMPI PUSH3 0x1BEE PUSH3 0x4E11 JUMP JUMPDEST PUSH1 0x20 MUL PUSH1 0x20 ADD ADD MLOAD PUSH1 0x0 DUP14 PUSH3 0x36DA JUMP JUMPDEST DUP4 SWAP8 POP POP POP POP POP POP POP PUSH3 0x13F5 JUMP JUMPDEST PUSH1 0x40 MLOAD PUSH3 0x461BCD PUSH1 0xE5 SHL DUP2 MSTORE PUSH1 0x20 PUSH1 0x4 DUP3 ADD MSTORE PUSH1 0x1 PUSH1 0x24 DUP3 ADD MSTORE PUSH1 0x13 PUSH1 0xFA SHL PUSH1 0x44 DUP3 ADD MSTORE PUSH1 0x64 ADD PUSH3 0xDC3 JUMP JUMPDEST CALLER PUSH3 0x1C4F PUSH1 0x15 SLOAD PUSH1 0x1 PUSH1 0x1 PUSH1 0xA0 SHL SUB AND SWAP1 JUMP JUMPDEST PUSH1 0x1 PUSH1 0x1 PUSH1 0xA0 SHL SUB AND EQ PUSH3 0x1C77 JUMPI PUSH1 0x40 MLOAD PUSH4 0xEBF98459 PUSH1 0xE0 SHL DUP2 MSTORE PUSH1 0x4 ADD PUSH1 0x40 MLOAD DUP1 SWAP2 SUB SWAP1 REVERT JUMPDEST PUSH3 0x1CA5 DUP3 DUP3 PUSH1 0x40 MLOAD PUSH1 0x20 ADD PUSH3 0x1C90 SWAP3 SWAP2 SWAP1 PUSH3 0x4F38 JUMP JUMPDEST PUSH1 0x40 MLOAD PUSH1 0x20 DUP2 DUP4 SUB SUB DUP2 MSTORE SWAP1 PUSH1 0x40 MSTORE PUSH3 0x3B64 JUMP JUMPDEST PUSH3 0x913 PUSH1 0x14 DUP4 DUP4 PUSH3 0x43C0 JUMP JUMPDEST PUSH1 0x4 SLOAD PUSH3 0x1CE9 SWAP1 PUSH1 0x1 PUSH1 0x1 PUSH1 0xA0 SHL SUB AND PUSH10 0xD3C21BCECCEDA1000000 PUSH10 0x69E10DE76676D0800000 PUSH1 0x1 PUSH1 0x1 PUSH1 0x80 SHL SUB CALLER PUSH3 0x3300 JUMP JUMPDEST PUSH1 0x5 SLOAD PUSH3 0x1448 SWAP1 PUSH1 0x1 PUSH1 0x1 PUSH1 0xA0 SHL SUB AND PUSH10 0x943B1377290CBD800000 DUP1 PUSH1 0x1 PUSH1 0x1 PUSH1 0x80 SHL SUB CALLER PUSH3 0x3300 JUMP JUMPDEST CALLER PUSH3 0x1D29 PUSH1 0x15 SLOAD PUSH1 0x1 PUSH1 0x1 PUSH1 0xA0 SHL SUB AND SWAP1 JUMP JUMPDEST PUSH1 0x1 PUSH1 0x1 PUSH1 0xA0 SHL SUB AND EQ PUSH3 0x1D51 JUMPI PUSH1 0x40 MLOAD PUSH4 0xEBF98459 PUSH1 0xE0 SHL DUP2 MSTORE PUSH1 0x4 ADD PUSH1 0x40 MLOAD DUP1 SWAP2 SUB SWAP1 REVERT JUMPDEST PUSH1 0x6 SLOAD PUSH3 0x1448 SWAP1 PUSH1 0x1 PUSH1 0x1 PUSH1 0xA0 SHL SUB AND PUSH7 0x38D7EA4C68000 PUSH10 0xD3C21BCECCEDA1000000 PUSH1 0x1 PUSH1 0x1 PUSH1 0x80 SHL SUB CALLER PUSH3 0x3300 JUMP JUMPDEST PUSH1 0x1 PUSH1 0x1 PUSH1 0xA0 SHL SUB DUP4 AND PUSH1 0x0 SWAP1 DUP2 MSTORE PUSH1 0x2 PUSH1 0x20 MSTORE PUSH1 0x40 DUP2 KECCAK256 SLOAD PUSH1 0x1 DUP1 SLOAD DUP4 SWAP3 DUP4 SWAP3 SWAP2 DUP2 LT PUSH3 0x1DB7 JUMPI PUSH3 0x1DB7 PUSH3 0x4E11 JUMP JUMPDEST PUSH1 0x0 SWAP2 DUP3 MSTORE PUSH1 0x20 DUP1 DUP4 KECCAK256 PUSH1 0x2 SWAP3 DUP4 MUL ADD SLOAD PUSH1 0x1 PUSH1 0x1 PUSH1 0xA0 SHL SUB DUP10 DUP2 AND DUP6 MSTORE SWAP3 SWAP1 SWAP2 MSTORE PUSH1 0x40 DUP4 KECCAK256 SLOAD PUSH1 0x1 DUP1 SLOAD SWAP4 SWAP1 SWAP3 AND SWAP5 POP SWAP1 SWAP2 DUP2 LT PUSH3 0x1DFB JUMPI PUSH3 0x1DFB PUSH3 0x4E11 JUMP JUMPDEST PUSH1 0x0 SWAP2 DUP3 MSTORE PUSH1 0x20 DUP3 KECCAK256 PUSH1 0x2 SWAP1 SWAP2 MUL ADD SLOAD SWAP1 SLOAD PUSH1 0x1 PUSH1 0x1 PUSH1 0xA0 SHL SUB SWAP2 DUP3 AND SWAP3 POP DUP9 DUP3 AND SWAP2 AND EQ DUP1 ISZERO SWAP1 PUSH3 0x1E3B JUMPI POP PUSH1 0x0 SLOAD PUSH1 0x1 PUSH1 0x1 PUSH1 0xA0 SHL SUB DUP8 DUP2 AND SWAP2 AND EQ JUMPDEST ISZERO PUSH3 0x1E59 JUMPI PUSH3 0x11EC PUSH3 0x1E51 DUP9 DUP5 PUSH3 0x29DE JUMP JUMPDEST DUP9 DUP8 PUSH3 0x3B7D JUMP JUMPDEST PUSH1 0x0 SLOAD PUSH1 0x1 PUSH1 0x1 PUSH1 0xA0 SHL SUB DUP9 DUP2 AND SWAP2 AND EQ DUP1 ISZERO PUSH3 0x1E85 JUMPI POP PUSH1 0x0 SLOAD PUSH1 0x1 PUSH1 0x1 PUSH1 0xA0 SHL SUB DUP8 DUP2 AND SWAP2 AND EQ ISZERO JUMPDEST ISZERO PUSH3 0x1EA3 JUMPI PUSH3 0x11EC PUSH3 0x1E9B DUP8 DUP4 PUSH3 0x29DE JUMP JUMPDEST DUP8 DUP8 PUSH3 0x3BF3 JUMP JUMPDEST PUSH1 0x0 PUSH3 0x1EBD PUSH3 0x1EB5 DUP9 DUP5 PUSH3 0x29DE JUMP JUMPDEST DUP9 DUP9 PUSH3 0x3BF3 JUMP JUMPDEST SWAP1 POP PUSH3 0x1276 PUSH3 0x1ECF DUP10 DUP6 PUSH3 0x29DE JUMP JUMPDEST DUP10 DUP4 PUSH3 0x3B7D JUMP JUMPDEST CALLER PUSH3 0x1EEB PUSH1 0x15 SLOAD PUSH1 0x1 PUSH1 0x1 PUSH1 0xA0 SHL SUB AND SWAP1 JUMP JUMPDEST PUSH1 0x1 PUSH1 0x1 PUSH1 0xA0 SHL SUB AND EQ PUSH3 0x1F13 JUMPI PUSH1 0x40 MLOAD PUSH4 0xEBF98459 PUSH1 0xE0 SHL DUP2 MSTORE PUSH1 0x4 ADD PUSH1 0x40 MLOAD DUP1 SWAP2 SUB SWAP1 REVERT JUMPDEST PUSH1 0x1 PUSH1 0x1 PUSH1 0xA0 SHL SUB DUP3 AND PUSH1 0x0 SWAP1 DUP2 MSTORE PUSH1 0x2 PUSH1 0x20 MSTORE PUSH1 0x40 SWAP1 KECCAK256 SLOAD DUP3 SWAP1 ISZERO DUP1 PUSH3 0x1F48 JUMPI POP PUSH1 0x0 SLOAD PUSH1 0x1 PUSH1 0x1 PUSH1 0xA0 SHL SUB DUP3 DUP2 AND SWAP2 AND EQ JUMPDEST ISZERO PUSH3 0x1F68 JUMPI PUSH1 0x40 MLOAD PUSH3 0x461BCD PUSH1 0xE5 SHL DUP2 MSTORE PUSH1 0x4 ADD PUSH3 0xDC3 SWAP1 PUSH3 0x4E27 JUMP JUMPDEST PUSH1 0x1 PUSH1 0x1 PUSH1 0xA0 SHL SUB DUP4 AND PUSH1 0x0 SWAP1 DUP2 MSTORE PUSH1 0x2 PUSH1 0x20 MSTORE PUSH1 0x40 DUP2 KECCAK256 SLOAD PUSH1 0x1 DUP1 SLOAD SWAP1 SWAP2 SWAP1 DUP2 LT PUSH3 0x1F99 JUMPI PUSH3 0x1F99 PUSH3 0x4E11 JUMP JUMPDEST PUSH1 0x0 SWAP2 DUP3 MSTORE PUSH1 0x20 DUP3 KECCAK256 PUSH1 0x2 SWAP1 SWAP2 MUL ADD DUP1 SLOAD SWAP1 SWAP3 POP PUSH3 0x1FC3 SWAP1 DUP7 SWAP1 PUSH1 0x1 PUSH1 0x1 PUSH1 0xA0 SHL SUB AND PUSH3 0x29DE JUMP JUMPDEST PUSH1 0x1 DUP4 ADD DUP1 SLOAD PUSH1 0x1 PUSH1 0x1 PUSH1 0x80 SHL SUB DUP1 DUP9 AND PUSH1 0x1 PUSH1 0x80 SHL MUL SWAP2 AND OR SWAP1 SSTORE DUP1 MLOAD PUSH1 0x20 DUP3 ADD MLOAD PUSH1 0x40 MLOAD SWAP3 SWAP4 POP PUSH1 0x0 DUP1 MLOAD PUSH1 0x20 PUSH3 0x5526 DUP4 CODECOPY DUP2 MLOAD SWAP2 MSTORE SWAP3 PUSH3 0x200E SWAP3 DUP10 SWAP3 SWAP1 SWAP2 DUP10 SWAP1 PUSH3 0x4EB5 JUMP JUMPDEST PUSH1 0x40 MLOAD DUP1 SWAP2 SUB SWAP1 LOG1 POP POP POP POP POP JUMP JUMPDEST CALLER PUSH3 0x2031 PUSH1 0x15 SLOAD PUSH1 0x1 PUSH1 0x1 PUSH1 0xA0 SHL SUB AND SWAP1 JUMP JUMPDEST PUSH1 0x1 PUSH1 0x1 PUSH1 0xA0 SHL SUB AND EQ PUSH3 0x2059 JUMPI PUSH1 0x40 MLOAD PUSH4 0xEBF98459 PUSH1 0xE0 SHL DUP2 MSTORE PUSH1 0x4 ADD PUSH1 0x40 MLOAD DUP1 SWAP2 SUB SWAP1 REVERT JUMPDEST PUSH3 0x1669 DUP5 DUP5 DUP5 PUSH1 0x1 PUSH1 0x1 PUSH1 0x80 SHL SUB DUP6 PUSH3 0x3300 JUMP JUMPDEST PUSH1 0x1 PUSH1 0x1 PUSH1 0xA0 SHL SUB SWAP2 DUP3 AND PUSH1 0x0 SWAP1 DUP2 MSTORE PUSH1 0xF PUSH1 0x20 SWAP1 DUP2 MSTORE PUSH1 0x40 DUP1 DUP4 KECCAK256 SWAP4 SWAP1 SWAP5 AND DUP3 MSTORE SWAP2 SWAP1 SWAP2 MSTORE KECCAK256 SLOAD PUSH1 0xFF AND SWAP1 JUMP JUMPDEST PUSH1 0x4 DUP1 SLOAD PUSH1 0x1 PUSH1 0x1 PUSH1 0xA0 SHL SUB DUP1 DUP8 AND PUSH1 0x1 PUSH1 0x1 PUSH1 0xA0 SHL SUB NOT SWAP3 DUP4 AND OR SWAP1 SWAP3 SSTORE PUSH1 0x0 DUP1 SLOAD DUP7 DUP5 AND SWAP1 DUP4 AND OR SWAP1 SSTORE PUSH1 0x5 DUP1 SLOAD SWAP3 DUP6 AND SWAP3 SWAP1 SWAP2 AND SWAP2 SWAP1 SWAP2 OR SWAP1 SSTORE PUSH3 0x20E4 PUSH3 0x1CB3 JUMP JUMPDEST POP POP POP POP POP JUMP JUMPDEST PUSH1 0x0 PUSH3 0x20F9 PUSH1 0x3 PUSH3 0x96D JUMP JUMPDEST SWAP1 POP DUP1 PUSH1 0x1 PUSH1 0x1 PUSH1 0xA0 SHL SUB AND PUSH4 0xEEF84BA1 PUSH1 0x40 MLOAD DUP2 PUSH4 0xFFFFFFFF AND PUSH1 0xE0 SHL DUP2 MSTORE PUSH1 0x4 ADD PUSH1 0x0 PUSH1 0x40 MLOAD DUP1 DUP4 SUB DUP2 PUSH1 0x0 DUP8 DUP1 EXTCODESIZE ISZERO DUP1 ISZERO PUSH3 0x2137 JUMPI PUSH1 0x0 DUP1 REVERT JUMPDEST POP GAS CALL ISZERO DUP1 ISZERO PUSH3 0x214C JUMPI RETURNDATASIZE PUSH1 0x0 DUP1 RETURNDATACOPY RETURNDATASIZE PUSH1 0x0 REVERT JUMPDEST POP POP POP POP PUSH1 0x1 PUSH1 0x1 PUSH1 0xA0 SHL SUB DUP8 AND CALLER EQ DUP1 ISZERO SWAP1 PUSH3 0x2173 JUMPI POP PUSH3 0x2171 DUP8 CALLER PUSH3 0x206F JUMP JUMPDEST ISZERO JUMPDEST ISZERO PUSH3 0x2192 JUMPI PUSH1 0x40 MLOAD PUSH4 0xDE69555 PUSH1 0xE3 SHL DUP2 MSTORE PUSH1 0x4 ADD PUSH1 0x40 MLOAD DUP1 SWAP2 SUB SWAP1 REVERT JUMPDEST PUSH3 0x21A2 DUP8 DUP8 DUP8 DUP8 DUP8 DUP8 PUSH3 0x3C60 JUMP JUMPDEST POP POP POP POP POP POP POP JUMP JUMPDEST CALLER PUSH3 0x21BF PUSH1 0x15 SLOAD PUSH1 0x1 PUSH1 0x1 PUSH1 0xA0 SHL SUB AND SWAP1 JUMP JUMPDEST PUSH1 0x1 PUSH1 0x1 PUSH1 0xA0 SHL SUB AND EQ PUSH3 0x21E7 JUMPI PUSH1 0x40 MLOAD PUSH4 0xEBF98459 PUSH1 0xE0 SHL DUP2 MSTORE PUSH1 0x4 ADD PUSH1 0x40 MLOAD DUP1 SWAP2 SUB SWAP1 REVERT JUMPDEST PUSH1 0x1 PUSH1 0x1 PUSH1 0xA0 SHL SUB DUP2 AND PUSH3 0x220F JUMPI PUSH1 0x40 MLOAD PUSH4 0x5868B79D PUSH1 0xE0 SHL DUP2 MSTORE PUSH1 0x4 ADD PUSH1 0x40 MLOAD DUP1 SWAP2 SUB SWAP1 REVERT JUMPDEST PUSH3 0x221A DUP2 PUSH3 0x2FE4 JUMP JUMPDEST POP JUMP JUMPDEST PUSH1 0x60 DUP3 DUP1 TIMESTAMP GT ISZERO PUSH3 0x2243 JUMPI PUSH1 0x40 MLOAD PUSH3 0x461BCD PUSH1 0xE5 SHL DUP2 MSTORE PUSH1 0x4 ADD PUSH3 0xDC3 SWAP1 PUSH3 0x4E42 JUMP JUMPDEST PUSH1 0x1 PUSH1 0x1 PUSH1 0xA0 SHL SUB DUP9 AND PUSH1 0x0 SWAP1 DUP2 MSTORE PUSH1 0x2 PUSH1 0x20 MSTORE PUSH1 0x40 DUP2 KECCAK256 SLOAD PUSH1 0x1 DUP1 SLOAD SWAP1 SWAP2 SWAP1 DUP2 LT PUSH3 0x2274 JUMPI PUSH3 0x2274 PUSH3 0x4E11 JUMP JUMPDEST PUSH1 0x0 SWAP2 DUP3 MSTORE PUSH1 0x20 DUP1 DUP4 KECCAK256 PUSH1 0x2 SWAP3 DUP4 MUL ADD SLOAD PUSH1 0x1 PUSH1 0x1 PUSH1 0xA0 SHL SUB DUP13 DUP2 AND DUP6 MSTORE SWAP3 SWAP1 SWAP2 MSTORE PUSH1 0x40 DUP4 KECCAK256 SLOAD PUSH1 0x1 DUP1 SLOAD SWAP4 SWAP1 SWAP3 AND SWAP5 POP SWAP1 SWAP2 DUP2 LT PUSH3 0x22B8 JUMPI PUSH3 0x22B8 PUSH3 0x4E11 JUMP JUMPDEST PUSH1 0x0 SWAP2 DUP3 MSTORE PUSH1 0x20 DUP1 DUP4 KECCAK256 PUSH1 0x2 SWAP3 DUP4 MUL ADD SLOAD PUSH1 0x40 DUP1 MLOAD DUP5 DUP2 MSTORE PUSH1 0x60 DUP2 ADD DUP3 MSTORE PUSH1 0x1 PUSH1 0x1 PUSH1 0xA0 SHL SUB SWAP1 SWAP3 AND SWAP6 POP SWAP1 SWAP3 SWAP2 DUP4 ADD SWAP1 DUP1 CALLDATASIZE DUP4 CALLDATACOPY ADD SWAP1 POP POP SWAP1 POP DUP9 DUP2 PUSH1 0x1 DUP2 MLOAD DUP2 LT PUSH3 0x230A JUMPI PUSH3 0x230A PUSH3 0x4E11 JUMP JUMPDEST PUSH1 0x20 SWAP1 DUP2 MUL SWAP2 SWAP1 SWAP2 ADD ADD MSTORE PUSH1 0x0 SLOAD PUSH1 0x1 PUSH1 0x1 PUSH1 0xA0 SHL SUB DUP13 DUP2 AND SWAP2 AND EQ DUP1 ISZERO SWAP1 PUSH3 0x2341 JUMPI POP PUSH1 0x0 SLOAD PUSH1 0x1 PUSH1 0x1 PUSH1 0xA0 SHL SUB DUP12 DUP2 AND SWAP2 AND EQ JUMPDEST ISZERO PUSH3 0x2454 JUMPI PUSH1 0x0 PUSH3 0x2355 DUP13 DUP6 PUSH3 0x29DE JUMP JUMPDEST SWAP1 POP PUSH3 0x2364 DUP2 DUP14 DUP13 PUSH3 0x3B7D JUMP JUMPDEST DUP3 PUSH1 0x0 DUP2 MLOAD DUP2 LT PUSH3 0x237A JUMPI PUSH3 0x237A PUSH3 0x4E11 JUMP JUMPDEST PUSH1 0x20 MUL PUSH1 0x20 ADD ADD DUP2 DUP2 MSTORE POP POP DUP9 DUP3 PUSH1 0x0 DUP2 MLOAD DUP2 LT PUSH3 0x239D JUMPI PUSH3 0x239D PUSH3 0x4E11 JUMP JUMPDEST PUSH1 0x20 MUL PUSH1 0x20 ADD ADD MLOAD GT ISZERO PUSH3 0x23D9 JUMPI PUSH1 0x40 MLOAD PUSH3 0x461BCD PUSH1 0xE5 SHL DUP2 MSTORE PUSH1 0x20 PUSH1 0x4 DUP3 ADD MSTORE PUSH1 0x1 PUSH1 0x24 DUP3 ADD MSTORE PUSH1 0x4B PUSH1 0xF8 SHL PUSH1 0x44 DUP3 ADD MSTORE PUSH1 0x64 ADD PUSH3 0xDC3 JUMP JUMPDEST PUSH1 0x1 DUP3 PUSH1 0x0 DUP2 MLOAD DUP2 LT PUSH3 0x23F1 JUMPI PUSH3 0x23F1 PUSH3 0x4E11 JUMP JUMPDEST PUSH1 0x20 MUL PUSH1 0x20 ADD ADD MLOAD GT PUSH3 0x2419 JUMPI PUSH1 0x40 MLOAD PUSH3 0x461BCD PUSH1 0xE5 SHL DUP2 MSTORE PUSH1 0x4 ADD PUSH3 0xDC3 SWAP1 PUSH3 0x4E77 JUMP JUMPDEST PUSH3 0x2444 DUP13 CALLER DUP7 DUP6 PUSH1 0x0 DUP2 MLOAD DUP2 LT PUSH3 0x2436 JUMPI PUSH3 0x2436 PUSH3 0x4E11 JUMP JUMPDEST PUSH1 0x20 MUL PUSH1 0x20 ADD ADD MLOAD PUSH3 0x2A32 JUMP JUMPDEST PUSH3 0x19A4 DUP13 DUP3 PUSH1 0x0 DUP14 DUP12 PUSH3 0x36DA JUMP JUMPDEST PUSH1 0x0 SLOAD PUSH1 0x1 PUSH1 0x1 PUSH1 0xA0 SHL SUB DUP13 DUP2 AND SWAP2 AND EQ DUP1 ISZERO PUSH3 0x2480 JUMPI POP PUSH1 0x0 SLOAD PUSH1 0x1 PUSH1 0x1 PUSH1 0xA0 SHL SUB DUP12 DUP2 AND SWAP2 AND EQ ISZERO JUMPDEST ISZERO PUSH3 0x2585 JUMPI PUSH1 0x0 PUSH3 0x2494 DUP12 DUP5 PUSH3 0x29DE JUMP JUMPDEST SWAP1 POP PUSH3 0x24A3 DUP2 DUP13 DUP13 PUSH3 0x3BF3 JUMP JUMPDEST DUP3 PUSH1 0x0 DUP2 MLOAD DUP2 LT PUSH3 0x24B9 JUMPI PUSH3 0x24B9 PUSH3 0x4E11 JUMP JUMPDEST PUSH1 0x20 MUL PUSH1 0x20 ADD ADD DUP2 DUP2 MSTORE POP POP DUP9 DUP3 PUSH1 0x0 DUP2 MLOAD DUP2 LT PUSH3 0x24DC JUMPI PUSH3 0x24DC PUSH3 0x4E11 JUMP JUMPDEST PUSH1 0x20 MUL PUSH1 0x20 ADD ADD MLOAD GT ISZERO PUSH3 0x2518 JUMPI PUSH1 0x40 MLOAD PUSH3 0x461BCD PUSH1 0xE5 SHL DUP2 MSTORE PUSH1 0x20 PUSH1 0x4 DUP3 ADD MSTORE PUSH1 0x1 PUSH1 0x24 DUP3 ADD MSTORE PUSH1 0x25 PUSH1 0xF9 SHL PUSH1 0x44 DUP3 ADD MSTORE PUSH1 0x64 ADD PUSH3 0xDC3 JUMP JUMPDEST PUSH1 0x1 DUP3 PUSH1 0x0 DUP2 MLOAD DUP2 LT PUSH3 0x2530 JUMPI PUSH3 0x2530 PUSH3 0x4E11 JUMP JUMPDEST PUSH1 0x20 MUL PUSH1 0x20 ADD ADD MLOAD GT PUSH3 0x2558 JUMPI PUSH1 0x40 MLOAD PUSH3 0x461BCD PUSH1 0xE5 SHL DUP2 MSTORE PUSH1 0x4 ADD PUSH3 0xDC3 SWAP1 PUSH3 0x4F56 JUMP JUMPDEST PUSH3 0x2575 DUP13 CALLER DUP6 DUP6 PUSH1 0x0 DUP2 MLOAD DUP2 LT PUSH3 0x2436 JUMPI PUSH3 0x2436 PUSH3 0x4E11 JUMP JUMPDEST PUSH3 0x19A4 DUP12 DUP3 DUP13 PUSH1 0x0 DUP12 PUSH3 0x36DA JUMP JUMPDEST PUSH1 0x0 SLOAD PUSH1 0x1 PUSH1 0x1 PUSH1 0xA0 SHL SUB DUP13 DUP2 AND SWAP2 AND EQ DUP1 ISZERO SWAP1 PUSH3 0x25B2 JUMPI POP PUSH1 0x0 SLOAD PUSH1 0x1 PUSH1 0x1 PUSH1 0xA0 SHL SUB DUP12 DUP2 AND SWAP2 AND EQ ISZERO JUMPDEST DUP1 ISZERO PUSH3 0x25D1 JUMPI POP DUP10 PUSH1 0x1 PUSH1 0x1 PUSH1 0xA0 SHL SUB AND DUP12 PUSH1 0x1 PUSH1 0x1 PUSH1 0xA0 SHL SUB AND EQ ISZERO JUMPDEST ISZERO PUSH3 0x1C0E JUMPI PUSH1 0x0 PUSH3 0x25E5 DUP12 DUP5 PUSH3 0x29DE JUMP JUMPDEST SWAP1 POP PUSH1 0x0 PUSH3 0x25F6 DUP3 DUP14 DUP14 PUSH3 0x3BF3 JUMP JUMPDEST SWAP1 POP PUSH1 0x1 DUP2 GT PUSH3 0x261B JUMPI PUSH1 0x40 MLOAD PUSH3 0x461BCD PUSH1 0xE5 SHL DUP2 MSTORE PUSH1 0x4 ADD PUSH3 0xDC3 SWAP1 PUSH3 0x4F56 JUMP JUMPDEST PUSH1 0x0 PUSH3 0x2629 DUP15 DUP8 PUSH3 0x29DE JUMP JUMPDEST SWAP1 POP PUSH3 0x2638 DUP2 DUP16 DUP5 PUSH3 0x3B7D JUMP JUMPDEST DUP5 PUSH1 0x0 DUP2 MLOAD DUP2 LT PUSH3 0x264E JUMPI PUSH3 0x264E PUSH3 0x4E11 JUMP JUMPDEST PUSH1 0x20 MUL PUSH1 0x20 ADD ADD DUP2 DUP2 MSTORE POP POP PUSH1 0x1 DUP5 PUSH1 0x0 DUP2 MLOAD DUP2 LT PUSH3 0x2672 JUMPI PUSH3 0x2672 PUSH3 0x4E11 JUMP JUMPDEST PUSH1 0x20 MUL PUSH1 0x20 ADD ADD MLOAD GT PUSH3 0x269A JUMPI PUSH1 0x40 MLOAD PUSH3 0x461BCD PUSH1 0xE5 SHL DUP2 MSTORE PUSH1 0x4 ADD PUSH3 0xDC3 SWAP1 PUSH3 0x4F56 JUMP JUMPDEST DUP11 DUP5 PUSH1 0x0 DUP2 MLOAD DUP2 LT PUSH3 0x26B1 JUMPI PUSH3 0x26B1 PUSH3 0x4E11 JUMP JUMPDEST PUSH1 0x20 MUL PUSH1 0x20 ADD ADD MLOAD GT ISZERO PUSH3 0x26ED JUMPI PUSH1 0x40 MLOAD PUSH3 0x461BCD PUSH1 0xE5 SHL DUP2 MSTORE PUSH1 0x20 PUSH1 0x4 DUP3 ADD MSTORE PUSH1 0x1 PUSH1 0x24 DUP3 ADD MSTORE PUSH1 0x4B PUSH1 0xF8 SHL PUSH1 0x44 DUP3 ADD MSTORE PUSH1 0x64 ADD PUSH3 0xDC3 JUMP JUMPDEST PUSH3 0x270A DUP15 CALLER DUP9 DUP8 PUSH1 0x0 DUP2 MLOAD DUP2 LT PUSH3 0x2436 JUMPI PUSH3 0x2436 PUSH3 0x4E11 JUMP JUMPDEST PUSH3 0x271A DUP15 DUP3 PUSH1 0x0 DUP6 DUP10 PUSH3 0x36DA JUMP JUMPDEST PUSH3 0x1BFF DUP14 DUP5 DUP15 PUSH1 0x0 DUP14 PUSH3 0x36DA JUMP JUMPDEST DUP5 DUP4 DUP2 EQ PUSH3 0x274C JUMPI PUSH1 0x40 MLOAD PUSH4 0xA98A8859 PUSH1 0xE0 SHL DUP2 MSTORE PUSH1 0x4 ADD PUSH1 0x40 MLOAD DUP1 SWAP2 SUB SWAP1 REVERT JUMPDEST PUSH1 0x1 PUSH1 0x1 PUSH1 0xA0 SHL SUB DUP9 AND PUSH3 0x2774 JUMPI PUSH1 0x40 MLOAD PUSH4 0x7CC7869 PUSH1 0xE3 SHL DUP2 MSTORE PUSH1 0x4 ADD PUSH1 0x40 MLOAD DUP1 SWAP2 SUB SWAP1 REVERT JUMPDEST CALLER PUSH1 0x0 JUMPDEST DUP3 DUP2 LT ISZERO PUSH3 0x292C JUMPI PUSH1 0x0 DUP8 DUP8 DUP4 DUP2 DUP2 LT PUSH3 0x2798 JUMPI PUSH3 0x2798 PUSH3 0x4E11 JUMP JUMPDEST SWAP1 POP PUSH1 0x20 MUL ADD CALLDATALOAD SWAP1 POP PUSH1 0x0 PUSH1 0xE PUSH1 0x0 DUP13 DUP13 DUP7 DUP2 DUP2 LT PUSH3 0x27BC JUMPI PUSH3 0x27BC PUSH3 0x4E11 JUMP JUMPDEST SWAP1 POP PUSH1 0x20 MUL ADD CALLDATALOAD DUP2 MSTORE PUSH1 0x20 ADD SWAP1 DUP2 MSTORE PUSH1 0x20 ADD PUSH1 0x0 KECCAK256 PUSH1 0x0 DUP15 PUSH1 0x1 PUSH1 0x1 PUSH1 0xA0 SHL SUB AND PUSH1 0x1 PUSH1 0x1 PUSH1 0xA0 SHL SUB AND DUP2 MSTORE PUSH1 0x20 ADD SWAP1 DUP2 MSTORE PUSH1 0x20 ADD PUSH1 0x0 KECCAK256 SLOAD SWAP1 POP DUP2 DUP2 LT ISZERO PUSH3 0x2819 JUMPI PUSH1 0x40 MLOAD PUSH4 0x2D688F61 PUSH1 0xE1 SHL DUP2 MSTORE PUSH1 0x4 ADD PUSH1 0x40 MLOAD DUP1 SWAP2 SUB SWAP1 REVERT JUMPDEST DUP2 DUP2 SUB PUSH1 0xE PUSH1 0x0 DUP14 DUP14 DUP8 DUP2 DUP2 LT PUSH3 0x2835 JUMPI PUSH3 0x2835 PUSH3 0x4E11 JUMP JUMPDEST SWAP1 POP PUSH1 0x20 MUL ADD CALLDATALOAD DUP2 MSTORE PUSH1 0x20 ADD SWAP1 DUP2 MSTORE PUSH1 0x20 ADD PUSH1 0x0 KECCAK256 PUSH1 0x0 DUP16 PUSH1 0x1 PUSH1 0x1 PUSH1 0xA0 SHL SUB AND PUSH1 0x1 PUSH1 0x1 PUSH1 0xA0 SHL SUB AND DUP2 MSTORE PUSH1 0x20 ADD SWAP1 DUP2 MSTORE PUSH1 0x20 ADD PUSH1 0x0 KECCAK256 DUP2 SWAP1 SSTORE POP DUP2 PUSH1 0xE PUSH1 0x0 DUP14 DUP14 DUP8 DUP2 DUP2 LT PUSH3 0x288B JUMPI PUSH3 0x288B PUSH3 0x4E11 JUMP JUMPDEST SWAP1 POP PUSH1 0x20 MUL ADD CALLDATALOAD DUP2 MSTORE PUSH1 0x20 ADD SWAP1 DUP2 MSTORE PUSH1 0x20 ADD PUSH1 0x0 KECCAK256 PUSH1 0x0 DUP15 PUSH1 0x1 PUSH1 0x1 PUSH1 0xA0 SHL SUB AND PUSH1 0x1 PUSH1 0x1 PUSH1 0xA0 SHL SUB AND DUP2 MSTORE PUSH1 0x20 ADD SWAP1 DUP2 MSTORE PUSH1 0x20 ADD PUSH1 0x0 KECCAK256 PUSH1 0x0 DUP3 DUP3 SLOAD PUSH3 0x28D4 SWAP2 SWAP1 PUSH3 0x4DF6 JUMP JUMPDEST SWAP1 SWAP2 SSTORE POP DUP3 SWAP1 POP PUSH1 0x11 PUSH1 0x0 DUP14 DUP14 DUP8 DUP2 DUP2 LT PUSH3 0x28F4 JUMPI PUSH3 0x28F4 PUSH3 0x4E11 JUMP JUMPDEST SWAP1 POP PUSH1 0x20 MUL ADD CALLDATALOAD DUP2 MSTORE PUSH1 0x20 ADD SWAP1 DUP2 MSTORE PUSH1 0x20 ADD PUSH1 0x0 KECCAK256 PUSH1 0x0 DUP3 DUP3 SLOAD ADD SWAP3 POP POP DUP2 SWAP1 SSTORE POP POP POP DUP1 PUSH3 0x2924 SWAP1 PUSH3 0x4DD8 JUMP JUMPDEST SWAP1 POP PUSH3 0x2778 JUMP JUMPDEST POP DUP9 PUSH1 0x1 PUSH1 0x1 PUSH1 0xA0 SHL SUB AND DUP11 PUSH1 0x1 PUSH1 0x1 PUSH1 0xA0 SHL SUB AND DUP3 PUSH1 0x1 PUSH1 0x1 PUSH1 0xA0 SHL SUB AND PUSH32 0x4A39DC06D4C0DBC64B70AF90FD698A233A518AA5D07E595D983B8C0526C8F7FB DUP12 DUP12 DUP12 DUP12 PUSH1 0x40 MLOAD PUSH3 0x2982 SWAP5 SWAP4 SWAP3 SWAP2 SWAP1 PUSH3 0x4FA8 JUMP JUMPDEST PUSH1 0x40 MLOAD DUP1 SWAP2 SUB SWAP1 LOG4 PUSH3 0x29D2 DUP2 DUP12 DUP12 DUP12 DUP12 DUP12 DUP12 DUP12 DUP12 DUP1 DUP1 PUSH1 0x1F ADD PUSH1 0x20 DUP1 SWAP2 DIV MUL PUSH1 0x20 ADD PUSH1 0x40 MLOAD SWAP1 DUP2 ADD PUSH1 0x40 MSTORE DUP1 SWAP4 SWAP3 SWAP2 SWAP1 DUP2 DUP2 MSTORE PUSH1 0x20 ADD DUP4 DUP4 DUP1 DUP3 DUP5 CALLDATACOPY PUSH1 0x0 SWAP3 ADD SWAP2 SWAP1 SWAP2 MSTORE POP PUSH3 0x3DC7 SWAP3 POP POP POP JUMP JUMPDEST POP POP POP POP POP POP POP POP POP POP JUMP JUMPDEST PUSH1 0x40 DUP1 MLOAD DUP1 DUP3 ADD SWAP1 SWAP2 MSTORE PUSH1 0x0 DUP1 DUP3 MSTORE PUSH1 0x20 DUP3 ADD MSTORE PUSH1 0x40 MLOAD DUP1 PUSH1 0x40 ADD PUSH1 0x40 MSTORE DUP1 PUSH3 0x2A09 DUP6 DUP6 PUSH3 0x3E97 JUMP JUMPDEST DUP2 MSTORE PUSH1 0x0 SLOAD PUSH1 0x20 SWAP1 SWAP2 ADD SWAP1 PUSH3 0x2A29 SWAP1 PUSH1 0x1 PUSH1 0x1 PUSH1 0xA0 SHL SUB AND DUP6 PUSH3 0x3E97 JUMP JUMPDEST SWAP1 MSTORE SWAP4 SWAP3 POP POP POP JUMP JUMPDEST PUSH1 0x1 DUP2 GT ISZERO DUP1 PUSH3 0x2A54 JUMPI POP DUP2 PUSH1 0x1 PUSH1 0x1 PUSH1 0xA0 SHL SUB AND DUP4 PUSH1 0x1 PUSH1 0x1 PUSH1 0xA0 SHL SUB AND EQ JUMPDEST ISZERO PUSH3 0x2A60 JUMPI PUSH3 0x1669 JUMP JUMPDEST PUSH1 0x6 SLOAD PUSH1 0x1 PUSH1 0x1 PUSH1 0xA0 SHL SUB DUP6 DUP2 AND SWAP2 AND EQ DUP1 ISZERO PUSH3 0x2A86 JUMPI POP PUSH1 0x1 PUSH1 0x1 PUSH1 0xA0 SHL SUB DUP4 AND CALLER EQ JUMPDEST ISZERO PUSH3 0x2AF8 JUMPI SELFBALANCE DUP2 DUP2 LT ISZERO PUSH3 0x2AC5 JUMPI PUSH1 0x40 MLOAD PUSH3 0x461BCD PUSH1 0xE5 SHL DUP2 MSTORE PUSH1 0x20 PUSH1 0x4 DUP3 ADD MSTORE PUSH1 0x3 PUSH1 0x24 DUP3 ADD MSTORE PUSH3 0x185CD9 PUSH1 0xEA SHL PUSH1 0x44 DUP3 ADD MSTORE PUSH1 0x64 ADD PUSH3 0xDC3 JUMP JUMPDEST DUP2 DUP2 GT ISZERO PUSH3 0x2AE5 JUMPI PUSH3 0x2AE5 CALLER PUSH3 0x2ADF DUP5 DUP5 PUSH3 0x4E5D JUMP JUMPDEST PUSH3 0x3F33 JUMP JUMPDEST PUSH3 0x2AF1 DUP4 DUP4 PUSH3 0x3F33 JUMP JUMPDEST POP PUSH3 0x1669 JUMP JUMPDEST PUSH1 0x6 SLOAD PUSH1 0x1 PUSH1 0x1 PUSH1 0xA0 SHL SUB DUP6 DUP2 AND SWAP2 AND EQ DUP1 ISZERO PUSH3 0x2B1F JUMPI POP PUSH1 0x1 PUSH1 0x1 PUSH1 0xA0 SHL SUB DUP4 AND CALLER EQ ISZERO JUMPDEST ISZERO PUSH3 0x2B8F JUMPI PUSH1 0x40 MLOAD PUSH4 0x6E6A469 PUSH1 0xE2 SHL DUP2 MSTORE PUSH1 0x1 PUSH1 0x1 PUSH1 0xA0 SHL SUB DUP4 DUP2 AND PUSH1 0x4 DUP4 ADD MSTORE PUSH1 0x24 DUP3 ADD DUP4 SWAP1 MSTORE DUP5 AND SWAP1 PUSH4 0x1B9A91A4 SWAP1 PUSH1 0x44 ADD PUSH1 0x0 PUSH1 0x40 MLOAD DUP1 DUP4 SUB DUP2 PUSH1 0x0 DUP8 DUP1 EXTCODESIZE ISZERO DUP1 ISZERO PUSH3 0x2B70 JUMPI PUSH1 0x0 DUP1 REVERT JUMPDEST POP GAS CALL ISZERO DUP1 ISZERO PUSH3 0x2B85 JUMPI RETURNDATASIZE PUSH1 0x0 DUP1 RETURNDATACOPY RETURNDATASIZE PUSH1 0x0 REVERT JUMPDEST POP POP POP POP PUSH3 0x1669 JUMP JUMPDEST PUSH3 0x1669 DUP5 DUP5 DUP5 DUP5 PUSH3 0x3FC6 JUMP JUMPDEST PUSH1 0x0 PUSH1 0x3 DUP3 GT ISZERO PUSH3 0x2C0B JUMPI POP DUP1 PUSH1 0x0 PUSH3 0x2BBA PUSH1 0x2 DUP4 PUSH3 0x4E92 JUMP JUMPDEST PUSH3 0x2BC7 SWAP1 PUSH1 0x1 PUSH3 0x4DF6 JUMP JUMPDEST SWAP1 POP JUMPDEST DUP2 DUP2 LT ISZERO PUSH3 0x2C05 JUMPI SWAP1 POP DUP1 PUSH1 0x2 DUP2 PUSH3 0x2BE5 DUP2 DUP7 PUSH3 0x4E92 JUMP JUMPDEST PUSH3 0x2BF1 SWAP2 SWAP1 PUSH3 0x4DF6 JUMP JUMPDEST PUSH3 0x2BFD SWAP2 SWAP1 PUSH3 0x4E92 JUMP JUMPDEST SWAP1 POP PUSH3 0x2BCA JUMP JUMPDEST POP SWAP2 SWAP1 POP JUMP JUMPDEST DUP2 ISZERO PUSH3 0x2C16 JUMPI POP PUSH1 0x1 JUMPDEST SWAP2 SWAP1 POP JUMP JUMPDEST PUSH1 0x8 SLOAD PUSH1 0x0 SWAP1 DUP2 SWAP1 DUP6 DUP6 GT DUP1 ISZERO PUSH3 0x2C33 JUMPI POP PUSH1 0x0 DUP7 GT JUMPDEST DUP1 ISZERO PUSH3 0x2C40 JUMPI POP PUSH1 0x0 DUP2 GT JUMPDEST ISZERO PUSH3 0x2CAA JUMPI PUSH3 0x2C52 DUP2 DUP8 PUSH3 0x4C37 JUMP JUMPDEST PUSH3 0x2C5F DUP3 PUSH1 0x64 PUSH3 0x4E5D JUMP JUMPDEST PUSH3 0x2C6B SWAP1 DUP8 PUSH3 0x4C37 JUMP JUMPDEST PUSH3 0x2C77 SWAP2 SWAP1 PUSH3 0x4DF6 JUMP JUMPDEST PUSH3 0x2C83 DUP8 DUP8 PUSH3 0x4E5D JUMP JUMPDEST PUSH3 0x2C8F DUP4 DUP8 PUSH3 0x4C37 JUMP JUMPDEST PUSH3 0x2C9B SWAP2 SWAP1 PUSH3 0x4C37 JUMP JUMPDEST PUSH3 0x2CA7 SWAP2 SWAP1 PUSH3 0x4E92 JUMP JUMPDEST SWAP2 POP JUMPDEST POP SWAP5 SWAP4 POP POP POP POP JUMP JUMPDEST PUSH1 0x1 PUSH1 0x1 PUSH1 0xA0 SHL SUB DUP5 AND PUSH3 0x2CDB JUMPI PUSH1 0x40 MLOAD PUSH4 0x3E11866B PUSH1 0xE2 SHL DUP2 MSTORE PUSH1 0x4 ADD PUSH1 0x40 MLOAD DUP1 SWAP2 SUB SWAP1 REVERT JUMPDEST DUP2 PUSH3 0x2CE7 JUMPI PUSH3 0x1669 JUMP JUMPDEST PUSH1 0x0 DUP4 DUP2 MSTORE PUSH1 0x11 PUSH1 0x20 MSTORE PUSH1 0x40 DUP2 KECCAK256 DUP1 SLOAD CALLER SWAP3 DUP6 SWAP3 SWAP2 PUSH3 0x2D09 SWAP1 DUP5 SWAP1 PUSH3 0x4DF6 JUMP JUMPDEST SWAP1 SWAP2 SSTORE POP POP PUSH1 0x0 DUP5 DUP2 MSTORE PUSH1 0xE PUSH1 0x20 SWAP1 DUP2 MSTORE PUSH1 0x40 DUP1 DUP4 KECCAK256 PUSH1 0x1 PUSH1 0x1 PUSH1 0xA0 SHL SUB DUP10 DUP2 AND DUP1 DUP7 MSTORE SWAP2 DUP5 MSTORE DUP3 DUP6 KECCAK256 DUP1 SLOAD DUP10 ADD SWAP1 SSTORE DUP3 MLOAD DUP10 DUP2 MSTORE SWAP4 DUP5 ADD DUP9 SWAP1 MSTORE SWAP1 SWAP4 SWAP3 SWAP1 DUP6 AND SWAP2 PUSH32 0xC3D58168C5AE7397731D063D5BBF3D657854427343F4C083240F7AACAA2D0F62 SWAP2 ADD PUSH1 0x40 MLOAD DUP1 SWAP2 SUB SWAP1 LOG4 PUSH3 0x20E4 DUP2 PUSH1 0x0 DUP8 DUP8 DUP8 DUP8 PUSH3 0x40C4 JUMP JUMPDEST PUSH1 0x1 PUSH1 0x1 PUSH1 0xA0 SHL SUB DUP3 AND PUSH1 0x0 SWAP1 DUP2 MSTORE PUSH1 0x2 PUSH1 0x20 MSTORE PUSH1 0x40 DUP2 KECCAK256 SLOAD DUP4 SWAP1 ISZERO DUP1 PUSH3 0x2DBC JUMPI POP PUSH1 0x0 SLOAD PUSH1 0x1 PUSH1 0x1 PUSH1 0xA0 SHL SUB DUP3 DUP2 AND SWAP2 AND EQ JUMPDEST ISZERO PUSH3 0x2DDC JUMPI PUSH1 0x40 MLOAD PUSH3 0x461BCD PUSH1 0xE5 SHL DUP2 MSTORE PUSH1 0x4 ADD PUSH3 0xDC3 SWAP1 PUSH3 0x4E27 JUMP JUMPDEST PUSH3 0x2DFD DUP4 DUP7 PUSH1 0x0 ADD MLOAD DUP8 PUSH1 0x20 ADD MLOAD PUSH3 0x2DF7 DUP9 DUP11 PUSH3 0x2E73 JUMP JUMPDEST PUSH3 0x4190 JUMP JUMPDEST SWAP6 SWAP5 POP POP POP POP POP JUMP JUMPDEST PUSH1 0x1 PUSH1 0x1 PUSH1 0xA0 SHL SUB DUP3 AND PUSH1 0x0 SWAP1 DUP2 MSTORE PUSH1 0x2 PUSH1 0x20 MSTORE PUSH1 0x40 DUP2 KECCAK256 SLOAD DUP4 SWAP1 ISZERO DUP1 PUSH3 0x2E3B JUMPI POP PUSH1 0x0 SLOAD PUSH1 0x1 PUSH1 0x1 PUSH1 0xA0 SHL SUB DUP3 DUP2 AND SWAP2 AND EQ JUMPDEST ISZERO PUSH3 0x2E5B JUMPI PUSH1 0x40 MLOAD PUSH3 0x461BCD PUSH1 0xE5 SHL DUP2 MSTORE PUSH1 0x4 ADD PUSH3 0xDC3 SWAP1 PUSH3 0x4E27 JUMP JUMPDEST PUSH3 0x2DFD DUP4 DUP7 PUSH1 0x20 ADD MLOAD DUP8 PUSH1 0x0 ADD MLOAD PUSH2 0x2710 PUSH3 0x4190 JUMP JUMPDEST PUSH1 0x0 DUP1 PUSH3 0x2E80 PUSH3 0x41D6 JUMP JUMPDEST SWAP1 POP PUSH1 0x0 DUP1 PUSH1 0x7 PUSH1 0x6 ADD SLOAD DUP4 PUSH3 0x2E98 SWAP2 SWAP1 PUSH3 0x4E5D JUMP JUMPDEST SWAP1 POP JUMPDEST DUP3 DUP2 LT ISZERO PUSH3 0x2EEB JUMPI PUSH1 0x1 PUSH1 0x1 PUSH1 0xA0 SHL SUB DUP7 AND PUSH1 0x0 SWAP1 DUP2 MSTORE PUSH1 0x3 PUSH1 0x20 SWAP1 DUP2 MSTORE PUSH1 0x40 DUP1 DUP4 KECCAK256 DUP5 DUP5 MSTORE SWAP1 SWAP2 MSTORE SWAP1 KECCAK256 SLOAD PUSH3 0x2ED4 SWAP1 DUP4 PUSH3 0x4DF6 JUMP JUMPDEST SWAP2 POP DUP1 PUSH3 0x2EE2 DUP2 PUSH3 0x4DD8 JUMP JUMPDEST SWAP2 POP POP PUSH3 0x2E9B JUMP JUMPDEST POP PUSH1 0x0 PUSH5 0x2540BE400 PUSH1 0x7 PUSH1 0x4 ADD SLOAD DUP7 PUSH1 0x20 ADD MLOAD PUSH3 0x2F0B SWAP2 SWAP1 PUSH3 0x4C37 JUMP JUMPDEST PUSH3 0x2F17 SWAP2 SWAP1 PUSH3 0x4E92 JUMP JUMPDEST SWAP1 POP PUSH1 0x0 PUSH5 0x2540BE400 PUSH1 0x7 PUSH1 0x5 ADD SLOAD DUP8 PUSH1 0x20 ADD MLOAD PUSH3 0x2F38 SWAP2 SWAP1 PUSH3 0x4C37 JUMP JUMPDEST PUSH3 0x2F44 SWAP2 SWAP1 PUSH3 0x4E92 JUMP JUMPDEST SWAP1 POP DUP2 DUP4 GT PUSH3 0x2F6B JUMPI PUSH1 0xA SLOAD PUSH3 0x2F5F SWAP1 PUSH2 0x2710 PUSH3 0x4E5D JUMP JUMPDEST SWAP5 POP POP POP POP POP PUSH3 0x967 JUMP JUMPDEST DUP1 DUP4 GT ISZERO PUSH3 0x2F85 JUMPI PUSH1 0x9 SLOAD PUSH3 0x2F5F SWAP1 PUSH2 0x2710 PUSH3 0x4E5D JUMP JUMPDEST PUSH3 0x2F91 DUP3 DUP3 PUSH3 0x4E5D JUMP JUMPDEST PUSH1 0x9 SLOAD PUSH1 0xA SLOAD PUSH3 0x2FA3 SWAP2 SWAP1 PUSH3 0x4E5D JUMP JUMPDEST PUSH3 0x2FAF DUP5 DUP7 PUSH3 0x4E5D JUMP JUMPDEST PUSH3 0x2FBB SWAP2 SWAP1 PUSH3 0x4C37 JUMP JUMPDEST PUSH3 0x2FC7 SWAP2 SWAP1 PUSH3 0x4E92 JUMP JUMPDEST PUSH1 0xA SLOAD PUSH3 0x2FD8 SWAP1 PUSH2 0x2710 PUSH3 0x4E5D JUMP JUMPDEST PUSH3 0x164E SWAP2 SWAP1 PUSH3 0x4DF6 JUMP JUMPDEST PUSH1 0x15 DUP1 SLOAD PUSH1 0x1 PUSH1 0x1 PUSH1 0xA0 SHL SUB DUP4 DUP2 AND PUSH1 0x1 PUSH1 0x1 PUSH1 0xA0 SHL SUB NOT DUP4 AND DUP2 OR SWAP1 SWAP4 SSTORE PUSH1 0x40 MLOAD SWAP2 AND SWAP2 SWAP1 DUP3 SWAP1 PUSH32 0x8BE0079C531659141344CD1FD0A4F28419497F9722A3DAAFE3B4186F6B6457E0 SWAP1 PUSH1 0x0 SWAP1 LOG3 POP POP JUMP JUMPDEST PUSH1 0x1 PUSH1 0x1 PUSH1 0xA0 SHL SUB DUP4 AND PUSH1 0x0 SWAP1 DUP2 MSTORE PUSH1 0x2 PUSH1 0x20 MSTORE PUSH1 0x40 DUP2 KECCAK256 SLOAD PUSH1 0x1 DUP1 SLOAD DUP4 SWAP2 SWAP1 DUP4 SWAP1 DUP2 LT PUSH3 0x3069 JUMPI PUSH3 0x3069 PUSH3 0x4E11 JUMP JUMPDEST PUSH1 0x0 SWAP2 DUP3 MSTORE PUSH1 0x20 DUP3 KECCAK256 PUSH1 0x2 SWAP1 SWAP2 MUL ADD DUP1 SLOAD SWAP1 SWAP3 POP PUSH3 0x3093 SWAP1 DUP9 SWAP1 PUSH1 0x1 PUSH1 0x1 PUSH1 0xA0 SHL SUB AND PUSH3 0x29DE JUMP JUMPDEST PUSH1 0x0 DUP5 DUP2 MSTORE PUSH1 0x11 PUSH1 0x20 MSTORE PUSH1 0x40 DUP2 KECCAK256 SLOAD DUP3 MLOAD SWAP3 SWAP4 POP SWAP2 DUP3 SWAP1 PUSH3 0x30B7 SWAP1 DUP11 SWAP1 PUSH3 0x4C37 JUMP JUMPDEST PUSH3 0x30C3 SWAP2 SWAP1 PUSH3 0x4E92 JUMP JUMPDEST SWAP1 POP PUSH1 0x0 DUP3 DUP10 DUP6 PUSH1 0x20 ADD MLOAD PUSH3 0x30DA SWAP2 SWAP1 PUSH3 0x4C37 JUMP JUMPDEST PUSH3 0x30E6 SWAP2 SWAP1 PUSH3 0x4E92 JUMP JUMPDEST SWAP1 POP PUSH1 0x0 PUSH3 0x3104 DUP6 PUSH1 0x20 ADD MLOAD DUP7 PUSH1 0x0 ADD MLOAD PUSH3 0xED9 SWAP2 SWAP1 PUSH3 0x4C37 JUMP JUMPDEST PUSH1 0x1 DUP8 ADD SLOAD SWAP1 SWAP2 POP PUSH1 0x0 SWAP1 PUSH3 0x3125 SWAP1 PUSH1 0x1 PUSH1 0x1 PUSH1 0x80 SHL SUB AND DUP4 DUP8 PUSH3 0x2C1B JUMP JUMPDEST PUSH1 0x7 SLOAD PUSH1 0x40 DUP1 MLOAD PUSH1 0x20 DUP2 ADD SWAP1 SWAP2 MSTORE PUSH1 0x0 DUP2 MSTORE SWAP2 SWAP3 POP PUSH3 0x3155 SWAP2 PUSH1 0x1 PUSH1 0x1 PUSH1 0xA0 SHL SUB SWAP1 SWAP2 AND SWAP1 DUP11 SWAP1 DUP5 SWAP1 PUSH3 0x2CB3 JUMP JUMPDEST PUSH1 0x0 PUSH1 0x40 MLOAD DUP1 PUSH1 0x40 ADD PUSH1 0x40 MSTORE DUP1 DUP7 DUP10 PUSH1 0x0 ADD MLOAD PUSH3 0x3174 SWAP2 SWAP1 PUSH3 0x4E5D JUMP JUMPDEST DUP2 MSTORE PUSH1 0x20 ADD DUP6 DUP10 PUSH1 0x20 ADD MLOAD PUSH3 0x318B SWAP2 SWAP1 PUSH3 0x4E5D JUMP JUMPDEST SWAP1 MSTORE PUSH1 0x20 DUP2 ADD MLOAD DUP2 MLOAD SWAP2 SWAP3 POP PUSH3 0x31A8 SWAP2 PUSH3 0xED9 SWAP2 SWAP1 PUSH3 0x4C37 JUMP JUMPDEST PUSH1 0x1 DUP10 ADD DUP1 SLOAD PUSH16 0xFFFFFFFFFFFFFFFFFFFFFFFFFFFFFFFF NOT AND PUSH1 0x1 PUSH1 0x1 PUSH1 0x80 SHL SUB SWAP3 SWAP1 SWAP3 AND SWAP2 SWAP1 SWAP2 OR SWAP1 SSTORE PUSH3 0x31E0 CALLER DUP11 DUP15 PUSH3 0x41EB JUMP JUMPDEST PUSH1 0x0 SLOAD DUP9 SLOAD PUSH1 0x40 MLOAD PUSH4 0x18A8AD87 PUSH1 0xE0 SHL DUP2 MSTORE PUSH1 0x1 PUSH1 0x1 PUSH1 0xA0 SHL SUB SWAP2 DUP3 AND PUSH1 0x4 DUP3 ADD MSTORE PUSH1 0x24 DUP2 ADD DUP8 SWAP1 MSTORE SWAP2 AND SWAP1 PUSH4 0x18A8AD87 SWAP1 PUSH1 0x44 ADD PUSH1 0x0 PUSH1 0x40 MLOAD DUP1 DUP4 SUB DUP2 PUSH1 0x0 DUP8 DUP1 EXTCODESIZE ISZERO DUP1 ISZERO PUSH3 0x3230 JUMPI PUSH1 0x0 DUP1 REVERT JUMPDEST POP GAS CALL ISZERO DUP1 ISZERO PUSH3 0x3245 JUMPI RETURNDATASIZE PUSH1 0x0 DUP1 RETURNDATACOPY RETURNDATASIZE PUSH1 0x0 REVERT JUMPDEST POP POP DUP10 SLOAD PUSH3 0x3263 SWAP3 POP DUP16 SWAP2 POP PUSH1 0x1 PUSH1 0x1 PUSH1 0xA0 SHL SUB AND DUP14 DUP9 PUSH3 0x2A32 JUMP JUMPDEST PUSH32 0x1DC8BB69DF2B8E91FBDCBFCF93D951B3F0000F085A95FE3F7946D6161439245D DUP14 DUP7 DUP7 DUP16 PUSH1 0x40 MLOAD PUSH3 0x329A SWAP5 SWAP4 SWAP3 SWAP2 SWAP1 PUSH3 0x4EB5 JUMP JUMPDEST PUSH1 0x40 MLOAD DUP1 SWAP2 SUB SWAP1 LOG1 PUSH1 0x0 DUP1 MLOAD PUSH1 0x20 PUSH3 0x5526 DUP4 CODECOPY DUP2 MLOAD SWAP2 MSTORE DUP14 DUP3 PUSH1 0x0 ADD MLOAD DUP4 PUSH1 0x20 ADD MLOAD DUP12 PUSH1 0x1 ADD PUSH1 0x10 SWAP1 SLOAD SWAP1 PUSH2 0x100 EXP SWAP1 DIV PUSH1 0x1 PUSH1 0x1 PUSH1 0x80 SHL SUB AND PUSH1 0x40 MLOAD PUSH3 0x32E7 SWAP5 SWAP4 SWAP3 SWAP2 SWAP1 PUSH3 0x4EDB JUMP JUMPDEST PUSH1 0x40 MLOAD DUP1 SWAP2 SUB SWAP1 LOG1 POP SWAP3 SWAP12 SWAP11 POP POP POP POP POP POP POP POP POP POP POP JUMP JUMPDEST PUSH1 0x1 PUSH1 0x1 PUSH1 0xA0 SHL SUB DUP6 AND PUSH1 0x0 SWAP1 DUP2 MSTORE PUSH1 0x2 PUSH1 0x20 MSTORE PUSH1 0x40 SWAP1 KECCAK256 SLOAD DUP6 SWAP1 ISZERO PUSH3 0x333A JUMPI PUSH1 0x40 MLOAD PUSH4 0x402670DF PUSH1 0xE0 SHL DUP2 MSTORE PUSH1 0x4 ADD PUSH1 0x40 MLOAD DUP1 SWAP2 SUB SWAP1 REVERT JUMPDEST PUSH1 0x0 DUP1 SLOAD PUSH1 0x6 SLOAD PUSH1 0x40 MLOAD DUP10 SWAP3 PUSH1 0x1 PUSH1 0x1 PUSH1 0xA0 SHL SUB SWAP1 DUP2 AND SWAP3 DUP2 DUP6 AND SWAP2 AND EQ SWAP1 PUSH3 0x3364 SWAP1 PUSH3 0x443D JUMP JUMPDEST PUSH1 0x1 PUSH1 0x1 PUSH1 0xA0 SHL SUB SWAP4 DUP5 AND DUP2 MSTORE SWAP3 SWAP1 SWAP2 AND PUSH1 0x20 DUP4 ADD MSTORE ISZERO ISZERO PUSH1 0x40 DUP3 ADD MSTORE PUSH1 0x60 ADD PUSH1 0x40 MLOAD DUP1 SWAP2 SUB SWAP1 PUSH1 0x0 CREATE DUP1 ISZERO DUP1 ISZERO PUSH3 0x33A1 JUMPI RETURNDATASIZE PUSH1 0x0 DUP1 RETURNDATACOPY RETURNDATASIZE PUSH1 0x0 REVERT JUMPDEST POP SWAP1 POP PUSH3 0x33B2 DUP8 CALLER DUP4 DUP10 PUSH3 0x2A32 JUMP JUMPDEST PUSH1 0x0 SLOAD PUSH1 0x40 MLOAD PUSH4 0xBB9FF5D PUSH1 0xE0 SHL DUP2 MSTORE PUSH1 0x1 PUSH1 0x1 PUSH1 0xA0 SHL SUB DUP4 DUP2 AND PUSH1 0x4 DUP4 ADD MSTORE PUSH1 0x24 DUP3 ADD DUP9 SWAP1 MSTORE SWAP1 SWAP2 AND SWAP1 PUSH4 0xBB9FF5D SWAP1 PUSH1 0x44 ADD PUSH1 0x0 PUSH1 0x40 MLOAD DUP1 DUP4 SUB DUP2 PUSH1 0x0 DUP8 DUP1 EXTCODESIZE ISZERO DUP1 ISZERO PUSH3 0x3401 JUMPI PUSH1 0x0 DUP1 REVERT JUMPDEST POP GAS CALL ISZERO DUP1 ISZERO PUSH3 0x3416 JUMPI RETURNDATASIZE PUSH1 0x0 DUP1 RETURNDATACOPY RETURNDATASIZE PUSH1 0x0 REVERT JUMPDEST POP POP POP POP PUSH3 0x3426 DUP8 DUP3 PUSH3 0x3E97 JUMP JUMPDEST SWAP6 POP PUSH1 0x1 DUP7 GT PUSH3 0x344B JUMPI PUSH1 0x40 MLOAD PUSH3 0x461BCD PUSH1 0xE5 SHL DUP2 MSTORE PUSH1 0x4 ADD PUSH3 0xDC3 SWAP1 PUSH3 0x4E77 JUMP JUMPDEST PUSH1 0x0 PUSH3 0x345D PUSH3 0xED9 DUP8 DUP10 PUSH3 0x4C37 JUMP JUMPDEST PUSH1 0x40 DUP1 MLOAD PUSH1 0x60 DUP2 ADD DUP3 MSTORE PUSH1 0x1 PUSH1 0x1 PUSH1 0xA0 SHL SUB DUP1 DUP7 AND DUP3 MSTORE PUSH1 0x1 PUSH1 0x1 PUSH1 0x80 SHL SUB DUP1 DUP6 AND PUSH1 0x20 DUP1 DUP6 ADD SWAP2 DUP3 MSTORE DUP12 DUP4 AND DUP6 DUP8 ADD SWAP1 DUP2 MSTORE PUSH1 0x1 DUP1 SLOAD DUP1 DUP3 ADD DUP3 SSTORE PUSH1 0x0 SWAP2 DUP3 MSTORE DUP8 MLOAD PUSH1 0x2 DUP1 DUP4 MUL PUSH32 0xB10E2D527612073B26EECDFD717E6A320CF44B4AFAC2B0732D9FCBE2B7FA0CF6 DUP2 ADD DUP1 SLOAD SWAP4 DUP12 AND PUSH1 0x1 PUSH1 0x1 PUSH1 0xA0 SHL SUB NOT SWAP1 SWAP5 AND SWAP4 SWAP1 SWAP4 OR SWAP1 SWAP3 SSTORE SWAP6 MLOAD SWAP4 MLOAD DUP8 AND PUSH1 0x1 PUSH1 0x80 SHL MUL SWAP4 SWAP1 SWAP7 AND SWAP3 SWAP1 SWAP3 OR PUSH32 0xB10E2D527612073B26EECDFD717E6A320CF44B4AFAC2B0732D9FCBE2B7FA0CF7 SWAP1 SWAP6 ADD SWAP5 SWAP1 SWAP5 SSTORE SWAP4 DUP16 AND DUP4 MSTORE SWAP1 DUP2 MSTORE DUP5 DUP3 KECCAK256 DUP4 SWAP1 SSTORE DUP5 MLOAD SWAP1 DUP2 ADD SWAP1 SWAP5 MSTORE DUP4 MSTORE SWAP3 SWAP4 POP SWAP2 SWAP1 PUSH3 0x354E SWAP1 PUSH2 0xDEAD SWAP1 DUP4 SWAP1 PUSH2 0x3E8 SWAP1 PUSH3 0x2CB3 JUMP JUMPDEST PUSH1 0x0 PUSH3 0x355E PUSH2 0x3E8 DUP6 PUSH3 0x4E5D JUMP JUMPDEST SWAP1 POP PUSH3 0x357D DUP8 DUP4 DUP4 PUSH1 0x40 MLOAD DUP1 PUSH1 0x20 ADD PUSH1 0x40 MSTORE DUP1 PUSH1 0x0 DUP2 MSTORE POP PUSH3 0x2CB3 JUMP JUMPDEST PUSH1 0x40 DUP1 MLOAD PUSH1 0x1 PUSH1 0x1 PUSH1 0xA0 SHL SUB DUP14 AND DUP2 MSTORE PUSH1 0x20 DUP2 ADD DUP5 SWAP1 MSTORE PUSH32 0x641E49906554552C8C33D7E09E02D1270590F405BC1DA0C7B99A9C2808ABDD05 SWAP2 ADD PUSH1 0x40 MLOAD DUP1 SWAP2 SUB SWAP1 LOG1 PUSH32 0x64B83944E79C3CE8D4C297411DE637C3E102D064677AAC0C163976EBDCD6F50E DUP12 DUP12 DUP12 DUP5 PUSH1 0x40 MLOAD PUSH3 0x35F6 SWAP5 SWAP4 SWAP3 SWAP2 SWAP1 PUSH3 0x4EB5 JUMP JUMPDEST PUSH1 0x40 MLOAD DUP1 SWAP2 SUB SWAP1 LOG1 PUSH1 0x0 DUP1 MLOAD PUSH1 0x20 PUSH3 0x5526 DUP4 CODECOPY DUP2 MLOAD SWAP2 MSTORE DUP12 DUP12 DUP12 DUP12 PUSH1 0x40 MLOAD PUSH3 0x3624 SWAP5 SWAP4 SWAP3 SWAP2 SWAP1 PUSH3 0x4EB5 JUMP JUMPDEST PUSH1 0x40 MLOAD DUP1 SWAP2 SUB SWAP1 LOG1 POP POP POP POP POP POP POP POP POP POP POP JUMP JUMPDEST DUP2 PUSH1 0x1 PUSH1 0x1 PUSH1 0xA0 SHL SUB AND DUP4 PUSH1 0x1 PUSH1 0x1 PUSH1 0xA0 SHL SUB AND EQ ISZERO PUSH3 0x366D JUMPI PUSH1 0x40 MLOAD PUSH4 0x180A65B9 PUSH1 0xE3 SHL DUP2 MSTORE PUSH1 0x4 ADD PUSH1 0x40 MLOAD DUP1 SWAP2 SUB SWAP1 REVERT JUMPDEST PUSH1 0x1 PUSH1 0x1 PUSH1 0xA0 SHL SUB DUP4 DUP2 AND PUSH1 0x0 DUP2 DUP2 MSTORE PUSH1 0xF PUSH1 0x20 SWAP1 DUP2 MSTORE PUSH1 0x40 DUP1 DUP4 KECCAK256 SWAP5 DUP8 AND DUP1 DUP5 MSTORE SWAP5 DUP3 MSTORE SWAP2 DUP3 SWAP1 KECCAK256 DUP1 SLOAD PUSH1 0xFF NOT AND DUP7 ISZERO ISZERO SWAP1 DUP2 OR SWAP1 SWAP2 SSTORE SWAP2 MLOAD SWAP2 DUP3 MSTORE PUSH32 0x17307EAB39AB6107E8899845AD3D59BD9653F200F220920489CA2B5937696C31 SWAP2 ADD PUSH1 0x40 MLOAD DUP1 SWAP2 SUB SWAP1 LOG3 POP POP POP JUMP JUMPDEST PUSH1 0x1 PUSH1 0x1 PUSH1 0xA0 SHL SUB DUP6 AND PUSH1 0x0 SWAP1 DUP2 MSTORE PUSH1 0x2 PUSH1 0x20 MSTORE PUSH1 0x40 SWAP1 KECCAK256 SLOAD DUP6 SWAP1 ISZERO DUP1 PUSH3 0x370F JUMPI POP PUSH1 0x0 SLOAD PUSH1 0x1 PUSH1 0x1 PUSH1 0xA0 SHL SUB DUP3 DUP2 AND SWAP2 AND EQ JUMPDEST ISZERO PUSH3 0x372F JUMPI PUSH1 0x40 MLOAD PUSH3 0x461BCD PUSH1 0xE5 SHL DUP2 MSTORE PUSH1 0x4 ADD PUSH3 0xDC3 SWAP1 PUSH3 0x4E27 JUMP JUMPDEST PUSH1 0x1 PUSH1 0x1 PUSH1 0xA0 SHL SUB DUP7 AND PUSH1 0x0 SWAP1 DUP2 MSTORE PUSH1 0x2 PUSH1 0x20 MSTORE PUSH1 0x40 DUP2 KECCAK256 SLOAD PUSH1 0x1 DUP1 SLOAD SWAP1 SWAP2 SWAP1 DUP2 LT PUSH3 0x3760 JUMPI PUSH3 0x3760 PUSH3 0x4E11 JUMP JUMPDEST PUSH1 0x0 SWAP2 DUP3 MSTORE PUSH1 0x20 DUP3 KECCAK256 PUSH1 0x2 SWAP1 SWAP2 MUL ADD DUP1 SLOAD SWAP1 SWAP3 POP PUSH3 0x378A SWAP1 DUP10 SWAP1 PUSH1 0x1 PUSH1 0x1 PUSH1 0xA0 SHL SUB AND PUSH3 0x29DE JUMP JUMPDEST SWAP1 POP PUSH1 0x0 DUP8 PUSH1 0x20 ADD MLOAD DUP3 PUSH1 0x20 ADD MLOAD PUSH3 0x37A4 SWAP2 SWAP1 PUSH3 0x4E5D JUMP JUMPDEST DUP9 MLOAD DUP4 MLOAD SWAP2 SWAP3 POP PUSH1 0x0 SWAP2 PUSH3 0x37BA SWAP2 SWAP1 PUSH3 0x4E5D JUMP JUMPDEST SWAP1 POP PUSH1 0x1 PUSH3 0x37CA DUP4 DUP4 PUSH3 0x4DF6 JUMP JUMPDEST GT PUSH3 0x37FD JUMPI PUSH1 0x40 MLOAD PUSH3 0x461BCD PUSH1 0xE5 SHL DUP2 MSTORE PUSH1 0x20 PUSH1 0x4 DUP3 ADD MSTORE PUSH1 0x1 PUSH1 0x24 DUP3 ADD MSTORE PUSH1 0x19 PUSH1 0xF9 SHL PUSH1 0x44 DUP3 ADD MSTORE PUSH1 0x64 ADD PUSH3 0xDC3 JUMP JUMPDEST PUSH1 0x1 DUP5 ADD SLOAD PUSH1 0x1 PUSH1 0x1 PUSH1 0x80 SHL SUB PUSH1 0x1 PUSH1 0x80 SHL SWAP1 SWAP2 DIV DUP2 AND LT DUP1 ISZERO PUSH3 0x3843 JUMPI POP PUSH1 0x1 DUP5 ADD SLOAD DUP8 SWAP1 PUSH3 0x3841 SWAP1 DUP5 SWAP1 PUSH1 0x1 PUSH1 0x80 SHL SWAP1 DIV PUSH1 0x1 PUSH1 0x1 PUSH1 0x80 SHL SUB AND PUSH3 0x4DF6 JUMP JUMPDEST LT JUMPDEST ISZERO PUSH3 0x3876 JUMPI PUSH1 0x40 MLOAD PUSH3 0x461BCD PUSH1 0xE5 SHL DUP2 MSTORE PUSH1 0x20 PUSH1 0x4 DUP3 ADD MSTORE PUSH1 0x1 PUSH1 0x24 DUP3 ADD MSTORE PUSH1 0x2D PUSH1 0xF9 SHL PUSH1 0x44 DUP3 ADD MSTORE PUSH1 0x64 ADD PUSH3 0xDC3 JUMP JUMPDEST PUSH1 0x0 PUSH3 0x3886 PUSH2 0x2710 DUP1 PUSH3 0x4C37 JUMP JUMPDEST PUSH1 0x20 DUP12 ADD MLOAD DUP12 MLOAD PUSH3 0x3899 SWAP2 SWAP1 PUSH3 0x4C37 JUMP JUMPDEST PUSH3 0x38A5 SWAP2 SWAP1 PUSH3 0x4C37 JUMP JUMPDEST SWAP1 POP PUSH1 0x0 PUSH1 0x1 DUP5 GT DUP1 ISZERO PUSH3 0x38BB JUMPI POP PUSH1 0x1 DUP4 GT ISZERO JUMPDEST PUSH3 0x38D2 JUMPI PUSH3 0x38CC DUP13 DUP13 PUSH3 0x2E73 JUMP JUMPDEST PUSH3 0x38D6 JUMP JUMPDEST PUSH2 0x2710 JUMPDEST SWAP1 POP PUSH1 0x0 PUSH3 0x38E8 DUP3 PUSH2 0x2710 PUSH3 0x4E5D JUMP JUMPDEST PUSH3 0x38F4 SWAP1 DUP6 PUSH3 0x4C37 JUMP JUMPDEST DUP7 MLOAD PUSH3 0x3905 SWAP1 PUSH2 0x2710 SWAP1 PUSH3 0x4C37 JUMP JUMPDEST PUSH3 0x3911 SWAP2 SWAP1 PUSH3 0x4E5D JUMP JUMPDEST PUSH3 0x391F DUP4 PUSH2 0x2710 PUSH3 0x4E5D JUMP JUMPDEST PUSH3 0x392B SWAP1 DUP8 PUSH3 0x4C37 JUMP JUMPDEST PUSH2 0x2710 DUP9 PUSH1 0x20 ADD MLOAD PUSH3 0x393F SWAP2 SWAP1 PUSH3 0x4C37 JUMP JUMPDEST PUSH3 0x394B SWAP2 SWAP1 PUSH3 0x4E5D JUMP JUMPDEST PUSH3 0x3957 SWAP2 SWAP1 PUSH3 0x4C37 JUMP JUMPDEST SWAP1 POP DUP3 DUP2 LT ISZERO PUSH3 0x398F JUMPI PUSH1 0x40 MLOAD PUSH3 0x461BCD PUSH1 0xE5 SHL DUP2 MSTORE PUSH1 0x20 PUSH1 0x4 DUP3 ADD MSTORE PUSH1 0x1 PUSH1 0x24 DUP3 ADD MSTORE PUSH1 0x31 PUSH1 0xF8 SHL PUSH1 0x44 DUP3 ADD MSTORE PUSH1 0x64 ADD PUSH3 0xDC3 JUMP JUMPDEST PUSH1 0x1 DUP8 ADD SLOAD PUSH1 0x1 PUSH1 0x1 PUSH1 0x80 SHL SUB PUSH1 0x1 PUSH1 0x80 SHL SWAP1 SWAP2 DIV DUP2 AND LT ISZERO PUSH3 0x39FD JUMPI PUSH1 0x1 DUP8 ADD SLOAD DUP11 SWAP1 PUSH3 0x39D1 SWAP1 DUP8 SWAP1 PUSH1 0x1 PUSH1 0x80 SHL SWAP1 DIV PUSH1 0x1 PUSH1 0x1 PUSH1 0x80 SHL SUB AND PUSH3 0x4DF6 JUMP JUMPDEST PUSH3 0x39DD SWAP2 SWAP1 PUSH3 0x4E5D JUMP JUMPDEST PUSH1 0x1 DUP9 ADD DUP1 SLOAD PUSH1 0x1 PUSH1 0x1 PUSH1 0x80 SHL SUB SWAP3 DUP4 AND PUSH1 0x1 PUSH1 0x80 SHL MUL SWAP3 AND SWAP2 SWAP1 SWAP2 OR SWAP1 SSTORE JUMPDEST PUSH1 0x1 DUP11 GT ISZERO PUSH3 0x3A50 JUMPI PUSH1 0x1 PUSH1 0x1 PUSH1 0xA0 SHL SUB DUP14 AND PUSH1 0x0 SWAP1 DUP2 MSTORE PUSH1 0x3 PUSH1 0x20 MSTORE PUSH1 0x40 DUP2 KECCAK256 DUP12 SWAP2 PUSH3 0x3A2B PUSH3 0x41D6 JUMP JUMPDEST DUP2 MSTORE PUSH1 0x20 ADD SWAP1 DUP2 MSTORE PUSH1 0x20 ADD PUSH1 0x0 KECCAK256 PUSH1 0x0 DUP3 DUP3 SLOAD PUSH3 0x3A4A SWAP2 SWAP1 PUSH3 0x4DF6 JUMP JUMPDEST SWAP1 SWAP2 SSTORE POP POP JUMPDEST POP DUP6 SLOAD PUSH3 0x3A6B SWAP1 DUP14 SWAP1 PUSH1 0x1 PUSH1 0x1 PUSH1 0xA0 SHL SUB AND DUP11 DUP14 PUSH3 0x2A32 JUMP JUMPDEST PUSH1 0x0 SLOAD DUP7 SLOAD PUSH3 0x3A8A SWAP2 PUSH1 0x1 PUSH1 0x1 PUSH1 0xA0 SHL SUB SWAP1 DUP2 AND SWAP2 AND DUP11 DUP13 PUSH3 0x2A32 JUMP JUMPDEST PUSH32 0x4AB7F3F4678BF8F6CBE4D85E4007B7C64DF8E1D5D97DE1628F4A6416F9D1DB03 DUP13 CALLER DUP6 DUP8 DUP15 DUP15 PUSH3 0x3ABF DUP9 PUSH2 0x2710 PUSH3 0x4E5D JUMP JUMPDEST PUSH1 0x40 DUP1 MLOAD PUSH1 0x1 PUSH1 0x1 PUSH1 0xA0 SHL SUB SWAP9 DUP10 AND DUP2 MSTORE SWAP7 DUP9 AND PUSH1 0x20 DUP9 ADD MSTORE DUP7 ADD SWAP5 SWAP1 SWAP5 MSTORE PUSH1 0x60 DUP6 ADD SWAP3 SWAP1 SWAP3 MSTORE PUSH1 0x80 DUP5 ADD MSTORE PUSH1 0xA0 DUP4 ADD MSTORE PUSH1 0xC0 DUP3 ADD MSTORE SWAP1 DUP11 AND PUSH1 0xE0 DUP3 ADD MSTORE PUSH2 0x100 ADD PUSH1 0x40 MLOAD DUP1 SWAP2 SUB SWAP1 LOG1 PUSH1 0x0 DUP1 MLOAD PUSH1 0x20 PUSH3 0x5526 DUP4 CODECOPY DUP2 MLOAD SWAP2 MSTORE DUP13 DUP7 PUSH1 0x0 ADD MLOAD DUP8 PUSH1 0x20 ADD MLOAD DUP10 PUSH1 0x1 ADD PUSH1 0x10 SWAP1 SLOAD SWAP1 PUSH2 0x100 EXP SWAP1 DIV PUSH1 0x1 PUSH1 0x1 PUSH1 0x80 SHL SUB AND PUSH1 0x40 MLOAD PUSH3 0x3B4E SWAP5 SWAP4 SWAP3 SWAP2 SWAP1 PUSH3 0x4EDB JUMP JUMPDEST PUSH1 0x40 MLOAD DUP1 SWAP2 SUB SWAP1 LOG1 POP POP POP POP POP POP POP POP POP POP POP POP JUMP JUMPDEST DUP1 MLOAD PUSH3 0x3B79 SWAP1 PUSH1 0x10 SWAP1 PUSH1 0x20 DUP5 ADD SWAP1 PUSH3 0x4331 JUMP JUMPDEST POP POP JUMP JUMPDEST PUSH1 0x1 PUSH1 0x1 PUSH1 0xA0 SHL SUB DUP3 AND PUSH1 0x0 SWAP1 DUP2 MSTORE PUSH1 0x2 PUSH1 0x20 MSTORE PUSH1 0x40 DUP2 KECCAK256 SLOAD DUP4 SWAP1 ISZERO DUP1 PUSH3 0x3BB2 JUMPI POP PUSH1 0x0 SLOAD PUSH1 0x1 PUSH1 0x1 PUSH1 0xA0 SHL SUB DUP3 DUP2 AND SWAP2 AND EQ JUMPDEST ISZERO PUSH3 0x3BD2 JUMPI PUSH1 0x40 MLOAD PUSH3 0x461BCD PUSH1 0xE5 SHL DUP2 MSTORE PUSH1 0x4 ADD PUSH3 0xDC3 SWAP1 PUSH3 0x4E27 JUMP JUMPDEST PUSH3 0x2DFD DUP4 DUP7 PUSH1 0x0 ADD MLOAD DUP8 PUSH1 0x20 ADD MLOAD PUSH3 0x3BED DUP9 DUP11 PUSH3 0x2E73 JUMP JUMPDEST PUSH3 0x42D8 JUMP JUMPDEST PUSH1 0x1 PUSH1 0x1 PUSH1 0xA0 SHL SUB DUP3 AND PUSH1 0x0 SWAP1 DUP2 MSTORE PUSH1 0x2 PUSH1 0x20 MSTORE PUSH1 0x40 DUP2 KECCAK256 SLOAD DUP4 SWAP1 ISZERO DUP1 PUSH3 0x3C28 JUMPI POP PUSH1 0x0 SLOAD PUSH1 0x1 PUSH1 0x1 PUSH1 0xA0 SHL SUB DUP3 DUP2 AND SWAP2 AND EQ JUMPDEST ISZERO PUSH3 0x3C48 JUMPI PUSH1 0x40 MLOAD PUSH3 0x461BCD PUSH1 0xE5 SHL DUP2 MSTORE PUSH1 0x4 ADD PUSH3 0xDC3 SWAP1 PUSH3 0x4E27 JUMP JUMPDEST PUSH3 0x2DFD DUP4 DUP7 PUSH1 0x20 ADD MLOAD DUP8 PUSH1 0x0 ADD MLOAD PUSH2 0x2710 PUSH3 0x42D8 JUMP JUMPDEST PUSH1 0x1 PUSH1 0x1 PUSH1 0xA0 SHL SUB DUP6 AND PUSH3 0x3C88 JUMPI PUSH1 0x40 MLOAD PUSH4 0x7CC7869 PUSH1 0xE3 SHL DUP2 MSTORE PUSH1 0x4 ADD PUSH1 0x40 MLOAD DUP1 SWAP2 SUB SWAP1 REVERT JUMPDEST PUSH1 0x0 DUP5 DUP2 MSTORE PUSH1 0xE PUSH1 0x20 SWAP1 DUP2 MSTORE PUSH1 0x40 DUP1 DUP4 KECCAK256 PUSH1 0x1 PUSH1 0x1 PUSH1 0xA0 SHL SUB DUP11 AND DUP5 MSTORE SWAP1 SWAP2 MSTORE SWAP1 KECCAK256 SLOAD CALLER SWAP1 DUP5 DUP2 LT ISZERO PUSH3 0x3CCF JUMPI PUSH1 0x40 MLOAD PUSH4 0x2D688F61 PUSH1 0xE1 SHL DUP2 MSTORE PUSH1 0x4 ADD PUSH1 0x40 MLOAD DUP1 SWAP2 SUB SWAP1 REVERT JUMPDEST PUSH1 0x0 DUP7 DUP2 MSTORE PUSH1 0xE PUSH1 0x20 SWAP1 DUP2 MSTORE PUSH1 0x40 DUP1 DUP4 KECCAK256 PUSH1 0x1 PUSH1 0x1 PUSH1 0xA0 SHL SUB DUP13 DUP2 AND DUP6 MSTORE SWAP3 MSTORE DUP1 DUP4 KECCAK256 DUP9 DUP6 SUB SWAP1 SSTORE SWAP1 DUP10 AND DUP3 MSTORE DUP2 KECCAK256 DUP1 SLOAD DUP8 SWAP3 SWAP1 PUSH3 0x3D10 SWAP1 DUP5 SWAP1 PUSH3 0x4DF6 JUMP JUMPDEST SWAP1 SWAP2 SSTORE POP POP PUSH1 0x0 DUP7 DUP2 MSTORE PUSH1 0x11 PUSH1 0x20 SWAP1 DUP2 MSTORE PUSH1 0x40 SWAP2 DUP3 SWAP1 KECCAK256 DUP1 SLOAD DUP9 ADD SWAP1 SSTORE DUP2 MLOAD DUP9 DUP2 MSTORE SWAP1 DUP2 ADD DUP8 SWAP1 MSTORE PUSH1 0x1 PUSH1 0x1 PUSH1 0xA0 SHL SUB DUP10 DUP2 AND SWAP3 DUP12 DUP3 AND SWAP3 SWAP2 DUP7 AND SWAP2 PUSH32 0xC3D58168C5AE7397731D063D5BBF3D657854427343F4C083240F7AACAA2D0F62 SWAP2 ADD PUSH1 0x40 MLOAD DUP1 SWAP2 SUB SWAP1 LOG4 PUSH3 0x3DBD DUP3 DUP10 DUP10 DUP10 DUP10 DUP10 DUP10 DUP1 DUP1 PUSH1 0x1F ADD PUSH1 0x20 DUP1 SWAP2 DIV MUL PUSH1 0x20 ADD PUSH1 0x40 MLOAD SWAP1 DUP2 ADD PUSH1 0x40 MSTORE DUP1 SWAP4 SWAP3 SWAP2 SWAP1 DUP2 DUP2 MSTORE PUSH1 0x20 ADD DUP4 DUP4 DUP1 DUP3 DUP5 CALLDATACOPY PUSH1 0x0 SWAP3 ADD SWAP2 SWAP1 SWAP2 MSTORE POP PUSH3 0x40C4 SWAP3 POP POP POP JUMP JUMPDEST POP POP POP POP POP POP POP POP JUMP JUMPDEST DUP6 EXTCODESIZE ISZERO PUSH3 0x3DBD JUMPI PUSH1 0x40 MLOAD PUSH4 0xBC197C81 PUSH1 0xE0 SHL DUP2 MSTORE PUSH1 0x1 PUSH1 0x1 PUSH1 0xA0 SHL SUB DUP8 AND SWAP1 PUSH4 0xBC197C81 SWAP1 PUSH3 0x3E09 SWAP1 DUP12 SWAP1 DUP12 SWAP1 DUP11 SWAP1 DUP11 SWAP1 DUP11 SWAP1 DUP11 SWAP1 DUP11 SWAP1 PUSH1 0x4 ADD PUSH3 0x4FD3 JUMP JUMPDEST PUSH1 0x20 PUSH1 0x40 MLOAD DUP1 DUP4 SUB DUP2 PUSH1 0x0 DUP8 GAS CALL SWAP3 POP POP POP DUP1 ISZERO PUSH3 0x3E47 JUMPI POP PUSH1 0x40 DUP1 MLOAD PUSH1 0x1F RETURNDATASIZE SWAP1 DUP2 ADD PUSH1 0x1F NOT AND DUP3 ADD SWAP1 SWAP3 MSTORE PUSH3 0x3E44 SWAP2 DUP2 ADD SWAP1 PUSH3 0x502D JUMP JUMPDEST PUSH1 0x1 JUMPDEST PUSH3 0x3E65 JUMPI PUSH1 0x40 MLOAD PUSH4 0x22EA0359 PUSH1 0xE1 SHL DUP2 MSTORE PUSH1 0x4 ADD PUSH1 0x40 MLOAD DUP1 SWAP2 SUB SWAP1 REVERT JUMPDEST PUSH1 0x1 PUSH1 0x1 PUSH1 0xE0 SHL SUB NOT DUP2 AND PUSH4 0xBC197C81 PUSH1 0xE0 SHL EQ PUSH3 0xBBA JUMPI PUSH1 0x40 MLOAD PUSH4 0x15D52937 PUSH1 0xE1 SHL DUP2 MSTORE PUSH1 0x4 ADD PUSH1 0x40 MLOAD DUP1 SWAP2 SUB SWAP1 REVERT JUMPDEST PUSH1 0x6 SLOAD PUSH1 0x0 SWAP1 DUP2 SWAP1 PUSH1 0x1 PUSH1 0x1 PUSH1 0xA0 SHL SUB DUP6 DUP2 AND SWAP2 AND EQ ISZERO PUSH3 0x3EC6 JUMPI POP POP PUSH1 0x1 PUSH1 0x1 PUSH1 0xA0 SHL SUB DUP2 AND BALANCE PUSH3 0x967 JUMP JUMPDEST PUSH1 0x40 MLOAD PUSH4 0x70A08231 PUSH1 0xE0 SHL DUP2 MSTORE PUSH1 0x1 PUSH1 0x1 PUSH1 0xA0 SHL SUB DUP5 DUP2 AND PUSH1 0x4 DUP4 ADD MSTORE DUP6 AND SWAP1 PUSH4 0x70A08231 SWAP1 PUSH1 0x24 ADD PUSH1 0x20 PUSH1 0x40 MLOAD DUP1 DUP4 SUB DUP2 DUP7 GAS STATICCALL ISZERO DUP1 ISZERO PUSH3 0x3F0D JUMPI RETURNDATASIZE PUSH1 0x0 DUP1 RETURNDATACOPY RETURNDATASIZE PUSH1 0x0 REVERT JUMPDEST POP POP POP POP PUSH1 0x40 MLOAD RETURNDATASIZE PUSH1 0x1F NOT PUSH1 0x1F DUP3 ADD AND DUP3 ADD DUP1 PUSH1 0x40 MSTORE POP DUP2 ADD SWAP1 PUSH3 0x12ED SWAP2 SWAP1 PUSH3 0x504D JUMP JUMPDEST PUSH1 0x40 DUP1 MLOAD PUSH1 0x0 DUP1 DUP3 MSTORE PUSH1 0x20 DUP3 ADD SWAP1 SWAP3 MSTORE PUSH1 0x1 PUSH1 0x1 PUSH1 0xA0 SHL SUB DUP5 AND SWAP1 DUP4 SWAP1 PUSH1 0x40 MLOAD PUSH3 0x3F5F SWAP2 SWAP1 PUSH3 0x5067 JUMP JUMPDEST PUSH1 0x0 PUSH1 0x40 MLOAD DUP1 DUP4 SUB DUP2 DUP6 DUP8 GAS CALL SWAP3 POP POP POP RETURNDATASIZE DUP1 PUSH1 0x0 DUP2 EQ PUSH3 0x3F9E JUMPI PUSH1 0x40 MLOAD SWAP2 POP PUSH1 0x1F NOT PUSH1 0x3F RETURNDATASIZE ADD AND DUP3 ADD PUSH1 0x40 MSTORE RETURNDATASIZE DUP3 MSTORE RETURNDATASIZE PUSH1 0x0 PUSH1 0x20 DUP5 ADD RETURNDATACOPY PUSH3 0x3FA3 JUMP JUMPDEST PUSH1 0x60 SWAP2 POP JUMPDEST POP POP SWAP1 POP DUP1 PUSH3 0x913 JUMPI PUSH1 0x40 MLOAD PUSH4 0x30667AAB PUSH1 0xE0 SHL DUP2 MSTORE PUSH1 0x4 ADD PUSH1 0x40 MLOAD DUP1 SWAP2 SUB SWAP1 REVERT JUMPDEST PUSH1 0x40 DUP1 MLOAD PUSH1 0x1 PUSH1 0x1 PUSH1 0xA0 SHL SUB DUP6 DUP2 AND PUSH1 0x24 DUP4 ADD MSTORE DUP5 DUP2 AND PUSH1 0x44 DUP4 ADD MSTORE PUSH1 0x64 DUP1 DUP4 ADD DUP6 SWAP1 MSTORE DUP4 MLOAD DUP1 DUP5 SUB SWAP1 SWAP2 ADD DUP2 MSTORE PUSH1 0x84 SWAP1 SWAP3 ADD DUP4 MSTORE PUSH1 0x20 DUP3 ADD DUP1 MLOAD PUSH1 0x1 PUSH1 0x1 PUSH1 0xE0 SHL SUB AND PUSH4 0x23B872DD PUSH1 0xE0 SHL OR SWAP1 MSTORE SWAP2 MLOAD PUSH1 0x0 SWAP3 DUP4 SWAP3 SWAP1 DUP9 AND SWAP2 PUSH3 0x402C SWAP2 SWAP1 PUSH3 0x5067 JUMP JUMPDEST PUSH1 0x0 PUSH1 0x40 MLOAD DUP1 DUP4 SUB DUP2 PUSH1 0x0 DUP7 GAS CALL SWAP2 POP POP RETURNDATASIZE DUP1 PUSH1 0x0 DUP2 EQ PUSH3 0x406B JUMPI PUSH1 0x40 MLOAD SWAP2 POP PUSH1 0x1F NOT PUSH1 0x3F RETURNDATASIZE ADD AND DUP3 ADD PUSH1 0x40 MSTORE RETURNDATASIZE DUP3 MSTORE RETURNDATASIZE PUSH1 0x0 PUSH1 0x20 DUP5 ADD RETURNDATACOPY PUSH3 0x4070 JUMP JUMPDEST PUSH1 0x60 SWAP2 POP JUMPDEST POP SWAP2 POP SWAP2 POP DUP2 DUP1 ISZERO PUSH3 0x409E JUMPI POP DUP1 MLOAD ISZERO DUP1 PUSH3 0x409E JUMPI POP DUP1 DUP1 PUSH1 0x20 ADD SWAP1 MLOAD DUP2 ADD SWAP1 PUSH3 0x409E SWAP2 SWAP1 PUSH3 0x5085 JUMP JUMPDEST PUSH3 0x40BC JUMPI PUSH1 0x40 MLOAD PUSH4 0x6050FE29 PUSH1 0xE0 SHL DUP2 MSTORE PUSH1 0x4 ADD PUSH1 0x40 MLOAD DUP1 SWAP2 SUB SWAP1 REVERT JUMPDEST POP POP POP POP POP POP JUMP JUMPDEST DUP4 EXTCODESIZE ISZERO PUSH3 0x40BC JUMPI PUSH1 0x40 MLOAD PUSH4 0xF23A6E61 PUSH1 0xE0 SHL DUP2 MSTORE PUSH1 0x1 PUSH1 0x1 PUSH1 0xA0 SHL SUB DUP6 AND SWAP1 PUSH4 0xF23A6E61 SWAP1 PUSH3 0x4102 SWAP1 DUP10 SWAP1 DUP10 SWAP1 DUP9 SWAP1 DUP9 SWAP1 DUP9 SWAP1 PUSH1 0x4 ADD PUSH3 0x50A5 JUMP JUMPDEST PUSH1 0x20 PUSH1 0x40 MLOAD DUP1 DUP4 SUB DUP2 PUSH1 0x0 DUP8 GAS CALL SWAP3 POP POP POP DUP1 ISZERO PUSH3 0x4140 JUMPI POP PUSH1 0x40 DUP1 MLOAD PUSH1 0x1F RETURNDATASIZE SWAP1 DUP2 ADD PUSH1 0x1F NOT AND DUP3 ADD SWAP1 SWAP3 MSTORE PUSH3 0x413D SWAP2 DUP2 ADD SWAP1 PUSH3 0x502D JUMP JUMPDEST PUSH1 0x1 JUMPDEST PUSH3 0x415E JUMPI PUSH1 0x40 MLOAD PUSH4 0x22EA0359 PUSH1 0xE1 SHL DUP2 MSTORE PUSH1 0x4 ADD PUSH1 0x40 MLOAD DUP1 SWAP2 SUB SWAP1 REVERT JUMPDEST PUSH1 0x1 PUSH1 0x1 PUSH1 0xE0 SHL SUB NOT DUP2 AND PUSH4 0xF23A6E61 PUSH1 0xE0 SHL EQ PUSH3 0x21A2 JUMPI PUSH1 0x40 MLOAD PUSH4 0x15D52937 PUSH1 0xE1 SHL DUP2 MSTORE PUSH1 0x4 ADD PUSH1 0x40 MLOAD DUP1 SWAP2 SUB SWAP1 REVERT JUMPDEST PUSH1 0x0 DUP1 PUSH3 0x419F DUP4 DUP8 PUSH3 0x4C37 JUMP JUMPDEST SWAP1 POP PUSH1 0x0 DUP2 PUSH3 0x41B2 PUSH2 0x2710 DUP9 PUSH3 0x4C37 JUMP JUMPDEST PUSH3 0x41BE SWAP2 SWAP1 PUSH3 0x4DF6 JUMP JUMPDEST PUSH3 0x41CA DUP4 DUP8 PUSH3 0x4C37 JUMP JUMPDEST PUSH3 0x164E SWAP2 SWAP1 PUSH3 0x4E92 JUMP JUMPDEST PUSH1 0x0 PUSH3 0x41E6 PUSH2 0xE10 TIMESTAMP PUSH3 0x4E92 JUMP JUMPDEST SWAP1 POP SWAP1 JUMP JUMPDEST PUSH1 0x1 PUSH1 0x1 PUSH1 0xA0 SHL SUB DUP4 AND PUSH3 0x4213 JUMPI PUSH1 0x40 MLOAD PUSH4 0xEDBA591D PUSH1 0xE0 SHL DUP2 MSTORE PUSH1 0x4 ADD PUSH1 0x40 MLOAD DUP1 SWAP2 SUB SWAP1 REVERT JUMPDEST PUSH1 0x0 DUP3 DUP2 MSTORE PUSH1 0xE PUSH1 0x20 SWAP1 DUP2 MSTORE PUSH1 0x40 DUP1 DUP4 KECCAK256 PUSH1 0x1 PUSH1 0x1 PUSH1 0xA0 SHL SUB DUP8 AND DUP5 MSTORE SWAP1 SWAP2 MSTORE SWAP1 KECCAK256 SLOAD CALLER SWAP1 DUP3 DUP2 LT ISZERO PUSH3 0x425A JUMPI PUSH1 0x40 MLOAD PUSH4 0x1CFB29E1 PUSH1 0xE2 SHL DUP2 MSTORE PUSH1 0x4 ADD PUSH1 0x40 MLOAD DUP1 SWAP2 SUB SWAP1 REVERT JUMPDEST PUSH1 0x0 DUP5 DUP2 MSTORE PUSH1 0xE PUSH1 0x20 SWAP1 DUP2 MSTORE PUSH1 0x40 DUP1 DUP4 KECCAK256 PUSH1 0x1 PUSH1 0x1 PUSH1 0xA0 SHL SUB DUP10 DUP2 AND DUP1 DUP7 MSTORE SWAP2 DUP5 MSTORE DUP3 DUP6 KECCAK256 DUP9 DUP8 SUB SWAP1 SSTORE DUP9 DUP6 MSTORE PUSH1 0x11 DUP5 MSTORE DUP3 DUP6 KECCAK256 DUP1 SLOAD DUP10 SWAP1 SUB SWAP1 SSTORE DUP3 MLOAD DUP10 DUP2 MSTORE SWAP4 DUP5 ADD DUP9 SWAP1 MSTORE SWAP1 SWAP3 SWAP1 DUP7 AND SWAP2 PUSH32 0xC3D58168C5AE7397731D063D5BBF3D657854427343F4C083240F7AACAA2D0F62 SWAP2 ADD PUSH1 0x40 MLOAD DUP1 SWAP2 SUB SWAP1 LOG4 POP POP POP POP POP JUMP JUMPDEST PUSH1 0x0 DUP1 PUSH3 0x42E7 DUP7 DUP6 PUSH3 0x4E5D JUMP JUMPDEST PUSH3 0x42F3 SWAP1 DUP5 PUSH3 0x4C37 JUMP JUMPDEST PUSH2 0x2710 PUSH3 0x4302 DUP9 DUP9 PUSH3 0x4C37 JUMP JUMPDEST PUSH3 0x430E SWAP2 SWAP1 PUSH3 0x4C37 JUMP JUMPDEST PUSH3 0x431A SWAP2 SWAP1 PUSH3 0x4E92 JUMP JUMPDEST PUSH3 0x4327 SWAP1 PUSH1 0x1 PUSH3 0x4DF6 JUMP JUMPDEST SWAP7 SWAP6 POP POP POP POP POP POP JUMP JUMPDEST DUP3 DUP1 SLOAD PUSH3 0x433F SWAP1 PUSH3 0x4CE1 JUMP JUMPDEST SWAP1 PUSH1 0x0 MSTORE PUSH1 0x20 PUSH1 0x0 KECCAK256 SWAP1 PUSH1 0x1F ADD PUSH1 0x20 SWAP1 DIV DUP2 ADD SWAP3 DUP3 PUSH3 0x4363 JUMPI PUSH1 0x0 DUP6 SSTORE PUSH3 0x43AE JUMP JUMPDEST DUP3 PUSH1 0x1F LT PUSH3 0x437E JUMPI DUP1 MLOAD PUSH1 0xFF NOT AND DUP4 DUP1 ADD OR DUP6 SSTORE PUSH3 0x43AE JUMP JUMPDEST DUP3 DUP1 ADD PUSH1 0x1 ADD DUP6 SSTORE DUP3 ISZERO PUSH3 0x43AE JUMPI SWAP2 DUP3 ADD JUMPDEST DUP3 DUP2 GT ISZERO PUSH3 0x43AE JUMPI DUP3 MLOAD DUP3 SSTORE SWAP2 PUSH1 0x20 ADD SWAP2 SWAP1 PUSH1 0x1 ADD SWAP1 PUSH3 0x4391 JUMP JUMPDEST POP PUSH3 0x43BC SWAP3 SWAP2 POP PUSH3 0x444B JUMP JUMPDEST POP SWAP1 JUMP JUMPDEST DUP3 DUP1 SLOAD PUSH3 0x43CE SWAP1 PUSH3 0x4CE1 JUMP JUMPDEST SWAP1 PUSH1 0x0 MSTORE PUSH1 0x20 PUSH1 0x0 KECCAK256 SWAP1 PUSH1 0x1F ADD PUSH1 0x20 SWAP1 DIV DUP2 ADD SWAP3 DUP3 PUSH3 0x43F2 JUMPI PUSH1 0x0 DUP6 SSTORE PUSH3 0x43AE JUMP JUMPDEST DUP3 PUSH1 0x1F LT PUSH3 0x440D JUMPI DUP3 DUP1 ADD PUSH1 0xFF NOT DUP3 CALLDATALOAD AND OR DUP6 SSTORE PUSH3 0x43AE JUMP JUMPDEST DUP3 DUP1 ADD PUSH1 0x1 ADD DUP6 SSTORE DUP3 ISZERO PUSH3 0x43AE JUMPI SWAP2 DUP3 ADD JUMPDEST DUP3 DUP2 GT ISZERO PUSH3 0x43AE JUMPI DUP3 CALLDATALOAD DUP3 SSTORE SWAP2 PUSH1 0x20 ADD SWAP2 SWAP1 PUSH1 0x1 ADD SWAP1 PUSH3 0x4420 JUMP JUMPDEST PUSH2 0x444 DUP1 PUSH3 0x50E2 DUP4 CODECOPY ADD SWAP1 JUMP JUMPDEST JUMPDEST DUP1 DUP3 GT ISZERO PUSH3 0x43BC JUMPI PUSH1 0x0 DUP2 SSTORE PUSH1 0x1 ADD PUSH3 0x444C JUMP JUMPDEST PUSH1 0x0 PUSH1 0xE0 DUP3 DUP5 SUB SLT ISZERO PUSH3 0x2C05 JUMPI PUSH1 0x0 DUP1 REVERT JUMPDEST PUSH1 0x1 PUSH1 0x1 PUSH1 0xA0 SHL SUB DUP2 AND DUP2 EQ PUSH3 0x221A JUMPI PUSH1 0x0 DUP1 REVERT JUMPDEST PUSH1 0x0 DUP1 PUSH1 0x40 DUP4 DUP6 SUB SLT ISZERO PUSH3 0x449F JUMPI PUSH1 0x0 DUP1 REVERT JUMPDEST DUP3 CALLDATALOAD PUSH3 0x44AC DUP2 PUSH3 0x4475 JUMP JUMPDEST SWAP5 PUSH1 0x20 SWAP4 SWAP1 SWAP4 ADD CALLDATALOAD SWAP4 POP POP POP JUMP JUMPDEST PUSH1 0x1 PUSH1 0x1 PUSH1 0xE0 SHL SUB NOT DUP2 AND DUP2 EQ PUSH3 0x221A JUMPI PUSH1 0x0 DUP1 REVERT JUMPDEST PUSH1 0x0 PUSH1 0x20 DUP3 DUP5 SUB SLT ISZERO PUSH3 0x44E4 JUMPI PUSH1 0x0 DUP1 REVERT JUMPDEST DUP2 CALLDATALOAD PUSH3 0x127D DUP2 PUSH3 0x44BA JUMP JUMPDEST PUSH1 0x0 PUSH1 0x20 DUP3 DUP5 SUB SLT ISZERO PUSH3 0x4504 JUMPI PUSH1 0x0 DUP1 REVERT JUMPDEST POP CALLDATALOAD SWAP2 SWAP1 POP JUMP JUMPDEST PUSH1 0x0 JUMPDEST DUP4 DUP2 LT ISZERO PUSH3 0x4528 JUMPI DUP2 DUP2 ADD MLOAD DUP4 DUP3 ADD MSTORE PUSH1 0x20 ADD PUSH3 0x450E JUMP JUMPDEST DUP4 DUP2 GT ISZERO PUSH3 0x1669 JUMPI POP POP PUSH1 0x0 SWAP2 ADD MSTORE JUMP JUMPDEST PUSH1 0x0 DUP2 MLOAD DUP1 DUP5 MSTORE PUSH3 0x4554 DUP2 PUSH1 0x20 DUP7 ADD PUSH1 0x20 DUP7 ADD PUSH3 0x450B JUMP JUMPDEST PUSH1 0x1F ADD PUSH1 0x1F NOT AND SWAP3 SWAP1 SWAP3 ADD PUSH1 0x20 ADD SWAP3 SWAP2 POP POP JUMP JUMPDEST PUSH1 0x20 DUP2 MSTORE PUSH1 0x0 PUSH3 0x127D PUSH1 0x20 DUP4 ADD DUP5 PUSH3 0x453A JUMP JUMPDEST PUSH1 0x0 DUP1 DUP4 PUSH1 0x1F DUP5 ADD SLT PUSH3 0x4590 JUMPI PUSH1 0x0 DUP1 REVERT JUMPDEST POP DUP2 CALLDATALOAD PUSH8 0xFFFFFFFFFFFFFFFF DUP2 GT ISZERO PUSH3 0x45A9 JUMPI PUSH1 0x0 DUP1 REVERT JUMPDEST PUSH1 0x20 DUP4 ADD SWAP2 POP DUP4 PUSH1 0x20 DUP3 PUSH1 0x5 SHL DUP6 ADD ADD GT ISZERO PUSH3 0x45C5 JUMPI PUSH1 0x0 DUP1 REVERT JUMPDEST SWAP3 POP SWAP3 SWAP1 POP JUMP JUMPDEST PUSH1 0x0 DUP1 DUP4 PUSH1 0x1F DUP5 ADD SLT PUSH3 0x45DF JUMPI PUSH1 0x0 DUP1 REVERT JUMPDEST POP DUP2 CALLDATALOAD PUSH8 0xFFFFFFFFFFFFFFFF DUP2 GT ISZERO PUSH3 0x45F8 JUMPI PUSH1 0x0 DUP1 REVERT JUMPDEST PUSH1 0x20 DUP4 ADD SWAP2 POP DUP4 PUSH1 0x20 DUP3 DUP6 ADD ADD GT ISZERO PUSH3 0x45C5 JUMPI PUSH1 0x0 DUP1 REVERT JUMPDEST PUSH1 0x0 DUP1 PUSH1 0x0 DUP1 PUSH1 0x0 DUP1 PUSH1 0x0 DUP1 PUSH1 0xA0 DUP10 DUP12 SUB SLT ISZERO PUSH3 0x462E JUMPI PUSH1 0x0 DUP1 REVERT JUMPDEST DUP9 CALLDATALOAD PUSH3 0x463B DUP2 PUSH3 0x4475 JUMP JUMPDEST SWAP8 POP PUSH1 0x20 DUP10 ADD CALLDATALOAD PUSH3 0x464D DUP2 PUSH3 0x4475 JUMP JUMPDEST SWAP7 POP PUSH1 0x40 DUP10 ADD CALLDATALOAD PUSH8 0xFFFFFFFFFFFFFFFF DUP1 DUP3 GT ISZERO PUSH3 0x466B JUMPI PUSH1 0x0 DUP1 REVERT JUMPDEST PUSH3 0x4679 DUP13 DUP4 DUP14 ADD PUSH3 0x457D JUMP JUMPDEST SWAP1 SWAP9 POP SWAP7 POP PUSH1 0x60 DUP12 ADD CALLDATALOAD SWAP2 POP DUP1 DUP3 GT ISZERO PUSH3 0x4693 JUMPI PUSH1 0x0 DUP1 REVERT JUMPDEST PUSH3 0x46A1 DUP13 DUP4 DUP14 ADD PUSH3 0x457D JUMP JUMPDEST SWAP1 SWAP7 POP SWAP5 POP PUSH1 0x80 DUP12 ADD CALLDATALOAD SWAP2 POP DUP1 DUP3 GT ISZERO PUSH3 0x46BB JUMPI PUSH1 0x0 DUP1 REVERT JUMPDEST POP PUSH3 0x46CA DUP12 DUP3 DUP13 ADD PUSH3 0x45CC JUMP JUMPDEST SWAP10 SWAP13 SWAP9 SWAP12 POP SWAP7 SWAP10 POP SWAP5 SWAP8 SWAP4 SWAP7 SWAP3 SWAP6 SWAP5 POP POP POP JUMP JUMPDEST PUSH1 0x0 DUP1 PUSH1 0x20 DUP4 DUP6 SUB SLT ISZERO PUSH3 0x46F2 JUMPI PUSH1 0x0 DUP1 REVERT JUMPDEST DUP3 CALLDATALOAD PUSH8 0xFFFFFFFFFFFFFFFF DUP2 GT ISZERO PUSH3 0x470A JUMPI PUSH1 0x0 DUP1 REVERT JUMPDEST PUSH3 0x4718 DUP6 DUP3 DUP7 ADD PUSH3 0x457D JUMP JUMPDEST SWAP1 SWAP7 SWAP1 SWAP6 POP SWAP4 POP POP POP POP JUMP JUMPDEST PUSH1 0x20 DUP1 DUP3 MSTORE DUP3 MLOAD DUP3 DUP3 ADD DUP2 SWAP1 MSTORE PUSH1 0x0 SWAP2 SWAP1 PUSH1 0x40 SWAP1 DUP2 DUP6 ADD SWAP1 DUP7 DUP5 ADD DUP6 JUMPDEST DUP3 DUP2 LT ISZERO PUSH3 0x4768 JUMPI DUP2 MLOAD DUP1 MLOAD DUP6 MSTORE DUP7 ADD MLOAD DUP7 DUP6 ADD MSTORE SWAP3 DUP5 ADD SWAP3 SWAP1 DUP6 ADD SWAP1 PUSH1 0x1 ADD PUSH3 0x4741 JUMP JUMPDEST POP SWAP2 SWAP8 SWAP7 POP POP POP POP POP POP POP JUMP JUMPDEST PUSH4 0x4E487B71 PUSH1 0xE0 SHL PUSH1 0x0 MSTORE PUSH1 0x41 PUSH1 0x4 MSTORE PUSH1 0x24 PUSH1 0x0 REVERT JUMPDEST PUSH1 0x0 DUP3 PUSH1 0x1F DUP4 ADD SLT PUSH3 0x479D JUMPI PUSH1 0x0 DUP1 REVERT JUMPDEST DUP2 CALLDATALOAD PUSH8 0xFFFFFFFFFFFFFFFF DUP1 DUP3 GT ISZERO PUSH3 0x47BB JUMPI PUSH3 0x47BB PUSH3 0x4775 JUMP JUMPDEST PUSH1 0x40 MLOAD PUSH1 0x1F DUP4 ADD PUSH1 0x1F NOT SWAP1 DUP2 AND PUSH1 0x3F ADD AND DUP2 ADD SWAP1 DUP3 DUP3 GT DUP2 DUP4 LT OR ISZERO PUSH3 0x47E6 JUMPI PUSH3 0x47E6 PUSH3 0x4775 JUMP JUMPDEST DUP2 PUSH1 0x40 MSTORE DUP4 DUP2 MSTORE DUP7 PUSH1 0x20 DUP6 DUP9 ADD ADD GT ISZERO PUSH3 0x4800 JUMPI PUSH1 0x0 DUP1 REVERT JUMPDEST DUP4 PUSH1 0x20 DUP8 ADD PUSH1 0x20 DUP4 ADD CALLDATACOPY PUSH1 0x0 PUSH1 0x20 DUP6 DUP4 ADD ADD MSTORE DUP1 SWAP5 POP POP POP POP POP SWAP3 SWAP2 POP POP JUMP JUMPDEST PUSH1 0x0 DUP1 PUSH1 0x40 DUP4 DUP6 SUB SLT ISZERO PUSH3 0x4834 JUMPI PUSH1 0x0 DUP1 REVERT JUMPDEST DUP3 CALLDATALOAD PUSH8 0xFFFFFFFFFFFFFFFF DUP1 DUP3 GT ISZERO PUSH3 0x484D JUMPI PUSH1 0x0 DUP1 REVERT JUMPDEST PUSH3 0x485B DUP7 DUP4 DUP8 ADD PUSH3 0x478B JUMP JUMPDEST SWAP4 POP PUSH1 0x20 DUP6 ADD CALLDATALOAD SWAP2 POP DUP1 DUP3 GT ISZERO PUSH3 0x4872 JUMPI PUSH1 0x0 DUP1 REVERT JUMPDEST POP PUSH3 0x4881 DUP6 DUP3 DUP7 ADD PUSH3 0x478B JUMP JUMPDEST SWAP2 POP POP SWAP3 POP SWAP3 SWAP1 POP JUMP JUMPDEST PUSH1 0x0 DUP1 PUSH1 0x0 DUP1 PUSH1 0x80 DUP6 DUP8 SUB SLT ISZERO PUSH3 0x48A2 JUMPI PUSH1 0x0 DUP1 REVERT JUMPDEST DUP5 CALLDATALOAD PUSH3 0x48AF DUP2 PUSH3 0x4475 JUMP JUMPDEST SWAP4 POP PUSH1 0x20 DUP6 ADD CALLDATALOAD SWAP3 POP PUSH1 0x40 DUP6 ADD CALLDATALOAD SWAP2 POP PUSH1 0x60 DUP6 ADD CALLDATALOAD PUSH3 0x48CF DUP2 PUSH3 0x4475 JUMP JUMPDEST SWAP4 SWAP7 SWAP3 SWAP6 POP SWAP1 SWAP4 POP POP JUMP JUMPDEST PUSH1 0x0 DUP1 PUSH1 0x0 PUSH1 0x60 DUP5 DUP7 SUB SLT ISZERO PUSH3 0x48F0 JUMPI PUSH1 0x0 DUP1 REVERT JUMPDEST DUP4 CALLDATALOAD PUSH3 0x48FD DUP2 PUSH3 0x4475 JUMP JUMPDEST SWAP3 POP PUSH1 0x20 DUP5 ADD CALLDATALOAD PUSH3 0x490F DUP2 PUSH3 0x4475 JUMP JUMPDEST SWAP3 SWAP6 SWAP3 SWAP5 POP POP POP PUSH1 0x40 SWAP2 SWAP1 SWAP2 ADD CALLDATALOAD SWAP1 JUMP JUMPDEST PUSH1 0x0 PUSH1 0x20 DUP3 DUP5 SUB SLT ISZERO PUSH3 0x4933 JUMPI PUSH1 0x0 DUP1 REVERT JUMPDEST DUP2 CALLDATALOAD PUSH3 0x127D DUP2 PUSH3 0x4475 JUMP JUMPDEST PUSH1 0x0 DUP1 PUSH1 0x0 DUP1 PUSH1 0x40 DUP6 DUP8 SUB SLT ISZERO PUSH3 0x4957 JUMPI PUSH1 0x0 DUP1 REVERT JUMPDEST DUP5 CALLDATALOAD PUSH8 0xFFFFFFFFFFFFFFFF DUP1 DUP3 GT ISZERO PUSH3 0x4970 JUMPI PUSH1 0x0 DUP1 REVERT JUMPDEST PUSH3 0x497E DUP9 DUP4 DUP10 ADD PUSH3 0x457D JUMP JUMPDEST SWAP1 SWAP7 POP SWAP5 POP PUSH1 0x20 DUP8 ADD CALLDATALOAD SWAP2 POP DUP1 DUP3 GT ISZERO PUSH3 0x4998 JUMPI PUSH1 0x0 DUP1 REVERT JUMPDEST POP PUSH3 0x49A7 DUP8 DUP3 DUP9 ADD PUSH3 0x457D JUMP JUMPDEST SWAP6 SWAP9 SWAP5 SWAP8 POP SWAP6 POP POP POP POP JUMP JUMPDEST PUSH1 0x20 DUP1 DUP3 MSTORE DUP3 MLOAD DUP3 DUP3 ADD DUP2 SWAP1 MSTORE PUSH1 0x0 SWAP2 SWAP1 DUP5 DUP3 ADD SWAP1 PUSH1 0x40 DUP6 ADD SWAP1 DUP5 JUMPDEST DUP2 DUP2 LT ISZERO PUSH3 0x49ED JUMPI DUP4 MLOAD DUP4 MSTORE SWAP3 DUP5 ADD SWAP3 SWAP2 DUP5 ADD SWAP2 PUSH1 0x1 ADD PUSH3 0x49CF JUMP JUMPDEST POP SWAP1 SWAP7 SWAP6 POP POP POP POP POP POP JUMP JUMPDEST DUP1 ISZERO ISZERO DUP2 EQ PUSH3 0x221A JUMPI PUSH1 0x0 DUP1 REVERT JUMPDEST PUSH1 0x0 DUP1 PUSH1 0x40 DUP4 DUP6 SUB SLT ISZERO PUSH3 0x4A1C JUMPI PUSH1 0x0 DUP1 REVERT JUMPDEST DUP3 CALLDATALOAD PUSH3 0x4A29 DUP2 PUSH3 0x4475 JUMP JUMPDEST SWAP2 POP PUSH1 0x20 DUP4 ADD CALLDATALOAD PUSH3 0x4A3B DUP2 PUSH3 0x49F9 JUMP JUMPDEST DUP1 SWAP2 POP POP SWAP3 POP SWAP3 SWAP1 POP JUMP JUMPDEST PUSH1 0x0 DUP1 PUSH1 0x0 DUP1 PUSH1 0x0 DUP1 PUSH1 0xC0 DUP8 DUP10 SUB SLT ISZERO PUSH3 0x4A60 JUMPI PUSH1 0x0 DUP1 REVERT JUMPDEST DUP7 CALLDATALOAD PUSH3 0x4A6D DUP2 PUSH3 0x4475 JUMP JUMPDEST SWAP6 POP PUSH1 0x20 DUP8 ADD CALLDATALOAD PUSH3 0x4A7F DUP2 PUSH3 0x4475 JUMP JUMPDEST SWAP5 POP PUSH1 0x40 DUP8 ADD CALLDATALOAD SWAP4 POP PUSH1 0x60 DUP8 ADD CALLDATALOAD SWAP3 POP PUSH1 0x80 DUP8 ADD CALLDATALOAD SWAP2 POP PUSH1 0xA0 DUP8 ADD CALLDATALOAD PUSH3 0x4AA6 DUP2 PUSH3 0x4475 JUMP JUMPDEST DUP1 SWAP2 POP POP SWAP3 SWAP6 POP SWAP3 SWAP6 POP SWAP3 SWAP6 JUMP JUMPDEST PUSH1 0x0 DUP1 PUSH1 0x20 DUP4 DUP6 SUB SLT ISZERO PUSH3 0x4AC8 JUMPI PUSH1 0x0 DUP1 REVERT JUMPDEST DUP3 CALLDATALOAD PUSH8 0xFFFFFFFFFFFFFFFF DUP2 GT ISZERO PUSH3 0x4AE0 JUMPI PUSH1 0x0 DUP1 REVERT JUMPDEST PUSH3 0x4718 DUP6 DUP3 DUP7 ADD PUSH3 0x45CC JUMP JUMPDEST PUSH1 0x0 DUP1 PUSH1 0x40 DUP4 DUP6 SUB SLT ISZERO PUSH3 0x4B02 JUMPI PUSH1 0x0 DUP1 REVERT JUMPDEST DUP3 CALLDATALOAD PUSH3 0x4B0F DUP2 PUSH3 0x4475 JUMP JUMPDEST SWAP2 POP PUSH1 0x20 DUP4 ADD CALLDATALOAD PUSH3 0x4A3B DUP2 PUSH3 0x4475 JUMP JUMPDEST PUSH1 0x0 DUP1 PUSH1 0x0 DUP1 PUSH1 0x0 PUSH1 0xA0 DUP7 DUP9 SUB SLT ISZERO PUSH3 0x4B3A JUMPI PUSH1 0x0 DUP1 REVERT JUMPDEST DUP6 CALLDATALOAD PUSH3 0x4B47 DUP2 PUSH3 0x4475 JUMP JUMPDEST SWAP5 POP PUSH1 0x20 DUP7 ADD CALLDATALOAD PUSH3 0x4B59 DUP2 PUSH3 0x4475 JUMP JUMPDEST SWAP4 POP PUSH1 0x40 DUP7 ADD CALLDATALOAD PUSH3 0x4B6B DUP2 PUSH3 0x4475 JUMP JUMPDEST SWAP3 POP PUSH1 0x60 DUP7 ADD CALLDATALOAD PUSH3 0x4B7D DUP2 PUSH3 0x4475 JUMP JUMPDEST SWAP2 POP PUSH1 0x80 DUP7 ADD CALLDATALOAD PUSH3 0x4B8F DUP2 PUSH3 0x4475 JUMP JUMPDEST DUP1 SWAP2 POP POP SWAP3 SWAP6 POP SWAP3 SWAP6 SWAP1 SWAP4 POP JUMP JUMPDEST PUSH1 0x0 DUP1 PUSH1 0x0 DUP1 PUSH1 0x0 DUP1 PUSH1 0xA0 DUP8 DUP10 SUB SLT ISZERO PUSH3 0x4BB7 JUMPI PUSH1 0x0 DUP1 REVERT JUMPDEST DUP7 CALLDATALOAD PUSH3 0x4BC4 DUP2 PUSH3 0x4475 JUMP JUMPDEST SWAP6 POP PUSH1 0x20 DUP8 ADD CALLDATALOAD PUSH3 0x4BD6 DUP2 PUSH3 0x4475 JUMP JUMPDEST SWAP5 POP PUSH1 0x40 DUP8 ADD CALLDATALOAD SWAP4 POP PUSH1 0x60 DUP8 ADD CALLDATALOAD SWAP3 POP PUSH1 0x80 DUP8 ADD CALLDATALOAD PUSH8 0xFFFFFFFFFFFFFFFF DUP2 GT ISZERO PUSH3 0x4C01 JUMPI PUSH1 0x0 DUP1 REVERT JUMPDEST PUSH3 0x4C0F DUP10 DUP3 DUP11 ADD PUSH3 0x45CC JUMP JUMPDEST SWAP8 SWAP11 SWAP7 SWAP10 POP SWAP5 SWAP8 POP SWAP3 SWAP6 SWAP4 SWAP5 SWAP3 POP POP POP JUMP JUMPDEST PUSH4 0x4E487B71 PUSH1 0xE0 SHL PUSH1 0x0 MSTORE PUSH1 0x11 PUSH1 0x4 MSTORE PUSH1 0x24 PUSH1 0x0 REVERT JUMPDEST PUSH1 0x0 DUP2 PUSH1 0x0 NOT DIV DUP4 GT DUP3 ISZERO ISZERO AND ISZERO PUSH3 0x4C54 JUMPI PUSH3 0x4C54 PUSH3 0x4C21 JUMP JUMPDEST POP MUL SWAP1 JUMP JUMPDEST DUP2 CALLDATALOAD PUSH3 0x4C66 DUP2 PUSH3 0x4475 JUMP JUMPDEST DUP2 SLOAD PUSH1 0x1 PUSH1 0x1 PUSH1 0xA0 SHL SUB NOT AND PUSH1 0x1 PUSH1 0x1 PUSH1 0xA0 SHL SUB SWAP2 SWAP1 SWAP2 AND OR DUP2 SSTORE PUSH1 0x20 DUP3 ADD CALLDATALOAD PUSH1 0x1 DUP3 ADD SSTORE PUSH1 0x40 DUP3 ADD CALLDATALOAD PUSH1 0x2 DUP3 ADD SSTORE PUSH1 0x60 DUP3 ADD CALLDATALOAD PUSH1 0x3 DUP3 ADD SSTORE PUSH1 0x80 DUP3 ADD CALLDATALOAD PUSH1 0x4 DUP3 ADD SSTORE PUSH1 0xA0 DUP3 ADD CALLDATALOAD PUSH1 0x5 DUP3 ADD SSTORE PUSH1 0xC0 SWAP1 SWAP2 ADD CALLDATALOAD PUSH1 0x6 SWAP1 SWAP2 ADD SSTORE JUMP JUMPDEST PUSH1 0x0 PUSH1 0x20 DUP3 DUP5 SUB SLT ISZERO PUSH3 0x4CD4 JUMPI PUSH1 0x0 DUP1 REVERT JUMPDEST DUP2 MLOAD PUSH3 0x127D DUP2 PUSH3 0x4475 JUMP JUMPDEST PUSH1 0x1 DUP2 DUP2 SHR SWAP1 DUP3 AND DUP1 PUSH3 0x4CF6 JUMPI PUSH1 0x7F DUP3 AND SWAP2 POP JUMPDEST PUSH1 0x20 DUP3 LT DUP2 EQ ISZERO PUSH3 0x2C05 JUMPI PUSH4 0x4E487B71 PUSH1 0xE0 SHL PUSH1 0x0 MSTORE PUSH1 0x22 PUSH1 0x4 MSTORE PUSH1 0x24 PUSH1 0x0 REVERT JUMPDEST PUSH1 0x0 DUP1 DUP5 SLOAD DUP2 PUSH1 0x1 DUP3 DUP2 SHR SWAP2 POP DUP1 DUP4 AND DUP1 PUSH3 0x4D35 JUMPI PUSH1 0x7F DUP4 AND SWAP3 POP JUMPDEST PUSH1 0x20 DUP1 DUP5 LT DUP3 EQ ISZERO PUSH3 0x4D56 JUMPI PUSH4 0x4E487B71 PUSH1 0xE0 SHL DUP7 MSTORE PUSH1 0x22 PUSH1 0x4 MSTORE PUSH1 0x24 DUP7 REVERT JUMPDEST DUP2 DUP1 ISZERO PUSH3 0x4D6D JUMPI PUSH1 0x1 DUP2 EQ PUSH3 0x4D7F JUMPI PUSH3 0x4DAE JUMP JUMPDEST PUSH1 0xFF NOT DUP7 AND DUP10 MSTORE DUP5 DUP10 ADD SWAP7 POP PUSH3 0x4DAE JUMP JUMPDEST PUSH1 0x0 DUP12 DUP2 MSTORE PUSH1 0x20 SWAP1 KECCAK256 PUSH1 0x0 JUMPDEST DUP7 DUP2 LT ISZERO PUSH3 0x4DA6 JUMPI DUP2 SLOAD DUP12 DUP3 ADD MSTORE SWAP1 DUP6 ADD SWAP1 DUP4 ADD PUSH3 0x4D8B JUMP JUMPDEST POP POP DUP5 DUP10 ADD SWAP7 POP JUMPDEST POP DUP9 DUP7 MSTORE PUSH3 0x4DCA DUP2 DUP8 ADD PUSH5 0x173539B7B7 PUSH1 0xD9 SHL DUP2 MSTORE PUSH1 0x5 ADD SWAP1 JUMP JUMPDEST SWAP11 SWAP10 POP POP POP POP POP POP POP POP POP POP JUMP JUMPDEST PUSH1 0x0 PUSH1 0x0 NOT DUP3 EQ ISZERO PUSH3 0x4DEF JUMPI PUSH3 0x4DEF PUSH3 0x4C21 JUMP JUMPDEST POP PUSH1 0x1 ADD SWAP1 JUMP JUMPDEST PUSH1 0x0 DUP3 NOT DUP3 GT ISZERO PUSH3 0x4E0C JUMPI PUSH3 0x4E0C PUSH3 0x4C21 JUMP JUMPDEST POP ADD SWAP1 JUMP JUMPDEST PUSH4 0x4E487B71 PUSH1 0xE0 SHL PUSH1 0x0 MSTORE PUSH1 0x32 PUSH1 0x4 MSTORE PUSH1 0x24 PUSH1 0x0 REVERT JUMPDEST PUSH1 0x20 DUP1 DUP3 MSTORE PUSH1 0x1 SWAP1 DUP3 ADD MSTORE PUSH1 0x43 PUSH1 0xF8 SHL PUSH1 0x40 DUP3 ADD MSTORE PUSH1 0x60 ADD SWAP1 JUMP JUMPDEST PUSH1 0x20 DUP1 DUP3 MSTORE PUSH1 0x1 SWAP1 DUP3 ADD MSTORE PUSH1 0x11 PUSH1 0xFA SHL PUSH1 0x40 DUP3 ADD MSTORE PUSH1 0x60 ADD SWAP1 JUMP JUMPDEST PUSH1 0x0 DUP3 DUP3 LT ISZERO PUSH3 0x4E72 JUMPI PUSH3 0x4E72 PUSH3 0x4C21 JUMP JUMPDEST POP SUB SWAP1 JUMP JUMPDEST PUSH1 0x20 DUP1 DUP3 MSTORE PUSH1 0x1 SWAP1 DUP3 ADD MSTORE PUSH1 0x23 PUSH1 0xF9 SHL PUSH1 0x40 DUP3 ADD MSTORE PUSH1 0x60 ADD SWAP1 JUMP JUMPDEST PUSH1 0x0 DUP3 PUSH3 0x4EB0 JUMPI PUSH4 0x4E487B71 PUSH1 0xE0 SHL PUSH1 0x0 MSTORE PUSH1 0x12 PUSH1 0x4 MSTORE PUSH1 0x24 PUSH1 0x0 REVERT JUMPDEST POP DIV SWAP1 JUMP JUMPDEST PUSH1 0x1 PUSH1 0x1 PUSH1 0xA0 SHL SUB SWAP5 SWAP1 SWAP5 AND DUP5 MSTORE PUSH1 0x20 DUP5 ADD SWAP3 SWAP1 SWAP3 MSTORE PUSH1 0x40 DUP4 ADD MSTORE PUSH1 0x60 DUP3 ADD MSTORE PUSH1 0x80 ADD SWAP1 JUMP JUMPDEST PUSH1 0x1 PUSH1 0x1 PUSH1 0xA0 SHL SUB SWAP5 SWAP1 SWAP5 AND DUP5 MSTORE PUSH1 0x20 DUP5 ADD SWAP3 SWAP1 SWAP3 MSTORE PUSH1 0x40 DUP4 ADD MSTORE PUSH1 0x1 PUSH1 0x1 PUSH1 0x80 SHL SUB AND PUSH1 0x60 DUP3 ADD MSTORE PUSH1 0x80 ADD SWAP1 JUMP JUMPDEST PUSH1 0x0 PUSH1 0x1 PUSH1 0x1 PUSH1 0x80 SHL SUB DUP1 DUP4 AND DUP2 DUP6 AND DUP1 DUP4 SUB DUP3 GT ISZERO PUSH3 0x4F2F JUMPI PUSH3 0x4F2F PUSH3 0x4C21 JUMP JUMPDEST ADD SWAP5 SWAP4 POP POP POP POP JUMP JUMPDEST DUP2 DUP4 DUP3 CALLDATACOPY PUSH9 0x3DB4B23E973539B7B7 PUSH1 0xB9 SHL SWAP2 ADD SWAP1 DUP2 MSTORE PUSH1 0x9 ADD SWAP2 SWAP1 POP JUMP JUMPDEST PUSH1 0x20 DUP1 DUP3 MSTORE PUSH1 0x1 SWAP1 DUP3 ADD MSTORE PUSH1 0x55 PUSH1 0xF8 SHL PUSH1 0x40 DUP3 ADD MSTORE PUSH1 0x60 ADD SWAP1 JUMP JUMPDEST DUP2 DUP4 MSTORE PUSH1 0x0 PUSH1 0x1 PUSH1 0x1 PUSH1 0xFB SHL SUB DUP4 GT ISZERO PUSH3 0x4F8B JUMPI PUSH1 0x0 DUP1 REVERT JUMPDEST DUP3 PUSH1 0x5 SHL DUP1 DUP4 PUSH1 0x20 DUP8 ADD CALLDATACOPY PUSH1 0x0 SWAP5 ADD PUSH1 0x20 ADD SWAP4 DUP5 MSTORE POP SWAP2 SWAP3 SWAP2 POP POP JUMP JUMPDEST PUSH1 0x40 DUP2 MSTORE PUSH1 0x0 PUSH3 0x4FBE PUSH1 0x40 DUP4 ADD DUP7 DUP9 PUSH3 0x4F71 JUMP JUMPDEST DUP3 DUP2 SUB PUSH1 0x20 DUP5 ADD MSTORE PUSH3 0x164E DUP2 DUP6 DUP8 PUSH3 0x4F71 JUMP JUMPDEST PUSH1 0x1 PUSH1 0x1 PUSH1 0xA0 SHL SUB DUP9 DUP2 AND DUP3 MSTORE DUP8 AND PUSH1 0x20 DUP3 ADD MSTORE PUSH1 0xA0 PUSH1 0x40 DUP3 ADD DUP2 SWAP1 MSTORE PUSH1 0x0 SWAP1 PUSH3 0x5002 SWAP1 DUP4 ADD DUP8 DUP10 PUSH3 0x4F71 JUMP JUMPDEST DUP3 DUP2 SUB PUSH1 0x60 DUP5 ADD MSTORE PUSH3 0x5017 DUP2 DUP7 DUP9 PUSH3 0x4F71 JUMP JUMPDEST SWAP1 POP DUP3 DUP2 SUB PUSH1 0x80 DUP5 ADD MSTORE PUSH3 0x4DCA DUP2 DUP6 PUSH3 0x453A JUMP JUMPDEST PUSH1 0x0 PUSH1 0x20 DUP3 DUP5 SUB SLT ISZERO PUSH3 0x5040 JUMPI PUSH1 0x0 DUP1 REVERT JUMPDEST DUP2 MLOAD PUSH3 0x127D DUP2 PUSH3 0x44BA JUMP JUMPDEST PUSH1 0x0 PUSH1 0x20 DUP3 DUP5 SUB SLT ISZERO PUSH3 0x5060 JUMPI PUSH1 0x0 DUP1 REVERT JUMPDEST POP MLOAD SWAP2 SWAP1 POP JUMP JUMPDEST PUSH1 0x0 DUP3 MLOAD PUSH3 0x507B DUP2 DUP5 PUSH1 0x20 DUP8 ADD PUSH3 0x450B JUMP JUMPDEST SWAP2 SWAP1 SWAP2 ADD SWAP3 SWAP2 POP POP JUMP JUMPDEST PUSH1 0x0 PUSH1 0x20 DUP3 DUP5 SUB SLT ISZERO PUSH3 0x5098 JUMPI PUSH1 0x0 DUP1 REVERT JUMPDEST DUP2 MLOAD PUSH3 0x127D DUP2 PUSH3 0x49F9 JUMP JUMPDEST PUSH1 0x1 PUSH1 0x1 PUSH1 0xA0 SHL SUB DUP7 DUP2 AND DUP3 MSTORE DUP6 AND PUSH1 0x20 DUP3 ADD MSTORE PUSH1 0x40 DUP2 ADD DUP5 SWAP1 MSTORE PUSH1 0x60 DUP2 ADD DUP4 SWAP1 MSTORE PUSH1 0xA0 PUSH1 0x80 DUP3 ADD DUP2 SWAP1 MSTORE PUSH1 0x0 SWAP1 PUSH3 0x164E SWAP1 DUP4 ADD DUP5 PUSH3 0x453A JUMP INVALID PUSH1 0x80 PUSH1 0x40 MSTORE PUSH1 0x0 DUP1 SLOAD PUSH1 0x1 PUSH1 0x1 PUSH1 0xA0 SHL SUB NOT AND PUSH20 0x46E8E0AF862F636199AF69ACD082B9963066ED9C OR SWAP1 SSTORE CALLVALUE DUP1 ISZERO PUSH2 0x36 JUMPI PUSH1 0x0 DUP1 REVERT JUMPDEST POP PUSH1 0x40 MLOAD PUSH2 0x444 CODESIZE SUB DUP1 PUSH2 0x444 DUP4 CODECOPY DUP2 ADD PUSH1 0x40 DUP2 SWAP1 MSTORE PUSH2 0x55 SWAP2 PUSH2 0x1AF JUMP JUMPDEST DUP1 PUSH2 0xCE JUMPI PUSH1 0x40 MLOAD PUSH4 0x95EA7B3 PUSH1 0xE0 SHL DUP2 MSTORE CALLER PUSH1 0x4 DUP3 ADD MSTORE PUSH1 0x0 NOT PUSH1 0x24 DUP3 ADD MSTORE PUSH1 0x1 PUSH1 0x1 PUSH1 0xA0 SHL SUB DUP5 AND SWAP1 PUSH4 0x95EA7B3 SWAP1 PUSH1 0x44 ADD PUSH1 0x20 PUSH1 0x40 MLOAD DUP1 DUP4 SUB DUP2 PUSH1 0x0 DUP8 GAS CALL ISZERO DUP1 ISZERO PUSH2 0xA8 JUMPI RETURNDATASIZE PUSH1 0x0 DUP1 RETURNDATACOPY RETURNDATASIZE PUSH1 0x0 REVERT JUMPDEST POP POP POP POP PUSH1 0x40 MLOAD RETURNDATASIZE PUSH1 0x1F NOT PUSH1 0x1F DUP3 ADD AND DUP3 ADD DUP1 PUSH1 0x40 MSTORE POP DUP2 ADD SWAP1 PUSH2 0xCC SWAP2 SWAP1 PUSH2 0x1F2 JUMP JUMPDEST POP JUMPDEST PUSH1 0x40 MLOAD PUSH4 0x95EA7B3 PUSH1 0xE0 SHL DUP2 MSTORE CALLER PUSH1 0x4 DUP3 ADD MSTORE PUSH1 0x0 NOT PUSH1 0x24 DUP3 ADD MSTORE PUSH1 0x1 PUSH1 0x1 PUSH1 0xA0 SHL SUB DUP4 AND SWAP1 PUSH4 0x95EA7B3 SWAP1 PUSH1 0x44 ADD PUSH1 0x20 PUSH1 0x40 MLOAD DUP1 DUP4 SUB DUP2 PUSH1 0x0 DUP8 GAS CALL ISZERO DUP1 ISZERO PUSH2 0x11C JUMPI RETURNDATASIZE PUSH1 0x0 DUP1 RETURNDATACOPY RETURNDATASIZE PUSH1 0x0 REVERT JUMPDEST POP POP POP POP PUSH1 0x40 MLOAD RETURNDATASIZE PUSH1 0x1F NOT PUSH1 0x1F DUP3 ADD AND DUP3 ADD DUP1 PUSH1 0x40 MSTORE POP DUP2 ADD SWAP1 PUSH2 0x140 SWAP2 SWAP1 PUSH2 0x1F2 JUMP JUMPDEST POP POP PUSH1 0x1 DUP1 SLOAD PUSH1 0x1 PUSH1 0x1 PUSH1 0xA0 SHL SUB SWAP4 DUP5 AND PUSH1 0x1 PUSH1 0x1 PUSH1 0xA0 SHL SUB NOT SWAP2 DUP3 AND OR SWAP1 SWAP2 SSTORE PUSH1 0x0 DUP1 SLOAD SWAP3 SWAP1 SWAP4 AND SWAP2 DUP2 AND SWAP2 SWAP1 SWAP2 OR SWAP1 SWAP2 SSTORE PUSH1 0x2 DUP1 SLOAD SWAP1 SWAP2 AND CALLER OR SWAP1 SSTORE PUSH2 0x214 JUMP JUMPDEST DUP1 MLOAD PUSH1 0x1 PUSH1 0x1 PUSH1 0xA0 SHL SUB DUP2 AND DUP2 EQ PUSH2 0x19A JUMPI PUSH1 0x0 DUP1 REVERT JUMPDEST SWAP2 SWAP1 POP JUMP JUMPDEST DUP1 MLOAD DUP1 ISZERO ISZERO DUP2 EQ PUSH2 0x19A JUMPI PUSH1 0x0 DUP1 REVERT JUMPDEST PUSH1 0x0 DUP1 PUSH1 0x0 PUSH1 0x60 DUP5 DUP7 SUB SLT ISZERO PUSH2 0x1C4 JUMPI PUSH1 0x0 DUP1 REVERT JUMPDEST PUSH2 0x1CD DUP5 PUSH2 0x183 JUMP JUMPDEST SWAP3 POP PUSH2 0x1DB PUSH1 0x20 DUP6 ADD PUSH2 0x183 JUMP JUMPDEST SWAP2 POP PUSH2 0x1E9 PUSH1 0x40 DUP6 ADD PUSH2 0x19F JUMP JUMPDEST SWAP1 POP SWAP3 POP SWAP3 POP SWAP3 JUMP JUMPDEST PUSH1 0x0 PUSH1 0x20 DUP3 DUP5 SUB SLT ISZERO PUSH2 0x204 JUMPI PUSH1 0x0 DUP1 REVERT JUMPDEST PUSH2 0x20D DUP3 PUSH2 0x19F JUMP JUMPDEST SWAP4 SWAP3 POP POP POP JUMP JUMPDEST PUSH2 0x221 DUP1 PUSH2 0x223 PUSH1 0x0 CODECOPY PUSH1 0x0 RETURN INVALID PUSH1 0x80 PUSH1 0x40 MSTORE PUSH1 0x4 CALLDATASIZE LT PUSH2 0x38 JUMPI PUSH1 0x0 CALLDATALOAD PUSH1 0xE0 SHR DUP1 PUSH4 0xDFE1681 EQ PUSH2 0x44 JUMPI DUP1 PUSH4 0x1B9A91A4 EQ PUSH2 0x7A JUMPI DUP1 PUSH4 0xD21220A7 EQ PUSH2 0x9C JUMPI PUSH1 0x0 DUP1 REVERT JUMPDEST CALLDATASIZE PUSH2 0x3F JUMPI STOP JUMPDEST PUSH1 0x0 DUP1 REVERT JUMPDEST CALLVALUE DUP1 ISZERO PUSH2 0x50 JUMPI PUSH1 0x0 DUP1 REVERT JUMPDEST POP PUSH1 0x1 SLOAD PUSH1 0x1 PUSH1 0x1 PUSH1 0xA0 SHL SUB AND JUMPDEST PUSH1 0x40 MLOAD PUSH1 0x1 PUSH1 0x1 PUSH1 0xA0 SHL SUB SWAP1 SWAP2 AND DUP2 MSTORE PUSH1 0x20 ADD PUSH1 0x40 MLOAD DUP1 SWAP2 SUB SWAP1 RETURN JUMPDEST CALLVALUE DUP1 ISZERO PUSH2 0x86 JUMPI PUSH1 0x0 DUP1 REVERT JUMPDEST POP PUSH2 0x9A PUSH2 0x95 CALLDATASIZE PUSH1 0x4 PUSH2 0x178 JUMP JUMPDEST PUSH2 0xBA JUMP JUMPDEST STOP JUMPDEST CALLVALUE DUP1 ISZERO PUSH2 0xA8 JUMPI PUSH1 0x0 DUP1 REVERT JUMPDEST POP PUSH1 0x0 SLOAD PUSH1 0x1 PUSH1 0x1 PUSH1 0xA0 SHL SUB AND PUSH2 0x5E JUMP JUMPDEST PUSH1 0x2 SLOAD PUSH1 0x1 PUSH1 0x1 PUSH1 0xA0 SHL SUB AND CALLER EQ PUSH2 0xE5 JUMPI PUSH1 0x40 MLOAD PUSH4 0xAB243E49 PUSH1 0xE0 SHL DUP2 MSTORE PUSH1 0x4 ADD PUSH1 0x40 MLOAD DUP1 SWAP2 SUB SWAP1 REVERT JUMPDEST PUSH1 0x40 DUP1 MLOAD PUSH1 0x0 DUP1 DUP3 MSTORE PUSH1 0x20 DUP3 ADD SWAP1 SWAP3 MSTORE PUSH1 0x1 PUSH1 0x1 PUSH1 0xA0 SHL SUB DUP5 AND SWAP1 DUP4 SWAP1 PUSH1 0x40 MLOAD PUSH2 0x10F SWAP2 SWAP1 PUSH2 0x1B0 JUMP JUMPDEST PUSH1 0x0 PUSH1 0x40 MLOAD DUP1 DUP4 SUB DUP2 DUP6 DUP8 GAS CALL SWAP3 POP POP POP RETURNDATASIZE DUP1 PUSH1 0x0 DUP2 EQ PUSH2 0x14C JUMPI PUSH1 0x40 MLOAD SWAP2 POP PUSH1 0x1F NOT PUSH1 0x3F RETURNDATASIZE ADD AND DUP3 ADD PUSH1 0x40 MSTORE RETURNDATASIZE DUP3 MSTORE RETURNDATASIZE PUSH1 0x0 PUSH1 0x20 DUP5 ADD RETURNDATACOPY PUSH2 0x151 JUMP JUMPDEST PUSH1 0x60 SWAP2 POP JUMPDEST POP POP SWAP1 POP DUP1 PUSH2 0x173 JUMPI PUSH1 0x40 MLOAD PUSH4 0x5AECCF6B PUSH1 0xE0 SHL DUP2 MSTORE PUSH1 0x4 ADD PUSH1 0x40 MLOAD DUP1 SWAP2 SUB SWAP1 REVERT JUMPDEST POP POP POP JUMP JUMPDEST PUSH1 0x0 DUP1 PUSH1 0x40 DUP4 DUP6 SUB SLT ISZERO PUSH2 0x18B JUMPI PUSH1 0x0 DUP1 REVERT JUMPDEST DUP3 CALLDATALOAD PUSH1 0x1 PUSH1 0x1 PUSH1 0xA0 SHL SUB DUP2 AND DUP2 EQ PUSH2 0x1A2 JUMPI PUSH1 0x0 DUP1 REVERT JUMPDEST SWAP5 PUSH1 0x20 SWAP4 SWAP1 SWAP4 ADD CALLDATALOAD SWAP4 POP POP POP JUMP JUMPDEST PUSH1 0x0 DUP3 MLOAD PUSH1 0x0 JUMPDEST DUP2 DUP2 LT ISZERO PUSH2 0x1D1 JUMPI PUSH1 0x20 DUP2 DUP7 ADD DUP2 ADD MLOAD DUP6 DUP4 ADD MSTORE ADD PUSH2 0x1B7 JUMP JUMPDEST DUP2 DUP2 GT ISZERO PUSH2 0x1E0 JUMPI PUSH1 0x0 DUP3 DUP6 ADD MSTORE JUMPDEST POP SWAP2 SWAP1 SWAP2 ADD SWAP3 SWAP2 POP POP JUMP INVALID LOG2 PUSH5 0x6970667358 0x22 SLT KECCAK256 GAS 0xEB PUSH31 0x5DE3BE1388A355F225F2B9E3CAA9DFA8F8F9ED01A5D3FFD1FA9BE35EBB6473 PUSH16 0x6C634300080B003351AB1232A73B82B6 0xB0 0xAC 0xB0 STATICCALL SWAP2 0xB8 CALLVALUE 0xCF PUSH15 0x258A1858C4E23C72CE97241C71AA0D LOG2 PUSH5 0x6970667358 0x22 SLT KECCAK256 0xAB 0xBA SWAP3 EXTCODESIZE 0xB8 0xB6 0xD SHR 0xB4 0xA6 0x1E 0xDE TIMESTAMP 0x2F SWAP13 0xF9 0x23 0xBC 0x4B DIV 0xC3 0x5C 0xAD 0x22 0xDA LT 0x4D ADDMOD PUSH25 0x3C708064736F6C634300080B003368747470733A2F2F646174 PUSH2 0x2E63 PUSH6 0x7262792E6669 0x2F NUMBER PUSH6 0x726279537761 PUSH17 0x2F76312F00000000000000000000000000 "
		},
		"gasEstimates": {
			"creation": {
				"codeDepositCost": "4376600",
				"executionCost": "infinite",
				"totalCost": "infinite"
			},
			"external": {
				"addTokenLiquidity(address,uint256,uint256,address)": "infinite",
				"adminChangeCerUsdCreditInPool(address,uint256)": "infinite",
				"adminCreatePool(address,uint256,uint256,address)": "infinite",
				"adminInitialize()": "infinite",
				"adminSetURI(string)": "infinite",
				"adminUpdateFeesAndTvlMultipliers((address,uint256,uint256,uint256,uint256,uint256,uint256))": "159825",
				"adminUpdateNameAndSymbol(string,string)": "infinite",
				"balanceOf(address,uint256)": "2742",
				"balanceOfBatch(address[],uint256[])": "infinite",
				"createPool(address,uint256,uint256,address)": "infinite",
				"decimals()": "315",
				"exists(uint256)": "2517",
				"getCurrentOneMinusFeeBasedOnTrades(address)": "infinite",
				"getInputTokensForExactTokens(address,address,uint256)": "infinite",
				"getOutputExactTokensForTokens(address,address,uint256)": "infinite",
				"getPoolsByTokens(address[])": "infinite",
				"getSettings()": "15566",
				"getTokenToPoolId(address)": "2609",
				"getUtilsContractAtPos(uint256)": "infinite",
				"increaseCerUsdCreditInPool(address,uint256)": "infinite",
				"isApprovedForAll(address,address)": "infinite",
				"name()": "infinite",
				"owner()": "2443",
				"removeTokenLiquidity(address,uint256,uint256,address)": "infinite",
				"renounceOwnership()": "28261",
				"safeBatchTransferFrom(address,address,uint256[],uint256[],bytes)": "infinite",
				"safeTransferFrom(address,address,uint256,uint256,bytes)": "infinite",
				"setApprovalForAll(address,bool)": "infinite",
				"supportsInterface(bytes4)": "477",
				"swapExactTokensForTokens(address,address,uint256,uint256,uint256,address)": "infinite",
				"swapTokensForExactTokens(address,address,uint256,uint256,uint256,address)": "infinite",
				"symbol()": "infinite",
				"testInit()": "infinite",
				"testSetupTokens(address,address,address,address,address)": "infinite",
				"totalSupply()": "infinite",
				"totalSupply(uint256)": "2472",
				"transferOwnership(address)": "infinite",
				"uri(uint256)": "infinite"
			}
		},
		"methodIdentifiers": {
			"addTokenLiquidity(address,uint256,uint256,address)": "43fefad4",
			"adminChangeCerUsdCreditInPool(address,uint256)": "cab4ba82",
			"adminCreatePool(address,uint256,uint256,address)": "d5d60737",
			"adminInitialize()": "c09c923b",
			"adminSetURI(string)": "a7fd40bf",
			"adminUpdateFeesAndTvlMultipliers((address,uint256,uint256,uint256,uint256,uint256,uint256))": "003374b5",
			"adminUpdateNameAndSymbol(string,string)": "3935ac11",
			"balanceOf(address,uint256)": "00fdd58e",
			"balanceOfBatch(address[],uint256[])": "4e1273f4",
			"createPool(address,uint256,uint256,address)": "842980f4",
			"decimals()": "313ce567",
			"exists(uint256)": "4f558e79",
			"getCurrentOneMinusFeeBasedOnTrades(address)": "4c3c0eb2",
			"getInputTokensForExactTokens(address,address,uint256)": "c790985a",
			"getOutputExactTokensForTokens(address,address,uint256)": "48b08d62",
			"getPoolsByTokens(address[])": "34e150ab",
			"getSettings()": "85b4bb53",
			"getTokenToPoolId(address)": "61417516",
			"getUtilsContractAtPos(uint256)": "06fb1a07",
			"increaseCerUsdCreditInPool(address,uint256)": "71858049",
			"isApprovedForAll(address,address)": "e985e9c5",
			"name()": "06fdde03",
			"owner()": "8da5cb5b",
			"removeTokenLiquidity(address,uint256,uint256,address)": "74fcf071",
			"renounceOwnership()": "715018a6",
			"safeBatchTransferFrom(address,address,uint256[],uint256[],bytes)": "2eb2c2d6",
			"safeTransferFrom(address,address,uint256,uint256,bytes)": "f242432a",
			"setApprovalForAll(address,bool)": "a22cb465",
			"supportsInterface(bytes4)": "01ffc9a7",
			"swapExactTokensForTokens(address,address,uint256,uint256,uint256,address)": "a60c6e55",
			"swapTokensForExactTokens(address,address,uint256,uint256,uint256,address)": "f6524724",
			"symbol()": "95d89b41",
			"testInit()": "b5d11e99",
			"testSetupTokens(address,address,address,address,address)": "eca01093",
			"totalSupply()": "18160ddd",
			"totalSupply(uint256)": "bd85b039",
			"transferOwnership(address)": "f2fde38b",
			"uri(uint256)": "0e89341c"
		}
	},
	"abi": [
		{
			"inputs": [],
			"stateMutability": "nonpayable",
			"type": "constructor"
		},
		{
			"inputs": [],
			"name": "CerbyCronJobsExecution_TransactionsAreTemporarilyDisabled",
			"type": "error"
		},
		{
			"inputs": [],
			"name": "CerbySwapLP1155V1_CallerIsNotOwnerNorApproved",
			"type": "error"
		},
		{
			"inputs": [],
			"name": "CerbySwapLP1155V1_TransactionsAreTemporarilyDisabled",
			"type": "error"
		},
		{
			"inputs": [],
			"name": "CerbySwapV1_AmountOfCerUsdMustBeLargerThanOne",
			"type": "error"
		},
		{
			"inputs": [],
			"name": "CerbySwapV1_AmountOfCerUsdOrTokensInMustBeLargerThanOne",
			"type": "error"
		},
		{
			"inputs": [],
			"name": "CerbySwapV1_AmountOfTokensMustBeLargerThanOne",
			"type": "error"
		},
		{
			"inputs": [],
			"name": "CerbySwapV1_CreditCerUsdIsOverflown",
			"type": "error"
		},
		{
			"inputs": [],
			"name": "CerbySwapV1_CreditCerUsdMustNotBeBelowZero",
			"type": "error"
		},
		{
			"inputs": [],
			"name": "CerbySwapV1_FeeIsWrong",
			"type": "error"
		},
		{
			"inputs": [],
			"name": "CerbySwapV1_FeeOnTransferTokensArentSupported",
			"type": "error"
		},
		{
			"inputs": [],
			"name": "CerbySwapV1_InputCerUsdAmountIsLargerThanMaximumSpecified",
			"type": "error"
		},
		{
			"inputs": [],
			"name": "CerbySwapV1_InputTokensAmountIsLargerThanMaximumSpecified",
			"type": "error"
		},
		{
			"inputs": [],
			"name": "CerbySwapV1_InvariantKValueMustBeSameOrIncreasedOnAnySwaps",
			"type": "error"
		},
		{
			"inputs": [],
			"name": "CerbySwapV1_MintFeeMultiplierMustNotBeLargerThan50Percent",
			"type": "error"
		},
		{
			"inputs": [],
			"name": "CerbySwapV1_MsgValueProvidedMustBeLargerThanAmountTokensIn",
			"type": "error"
		},
		{
			"inputs": [],
			"name": "CerbySwapV1_MsgValueProvidedMustBeZero",
			"type": "error"
		},
		{
			"inputs": [],
			"name": "CerbySwapV1_OutputCerUsdAmountIsLowerThanMinimumSpecified",
			"type": "error"
		},
		{
			"inputs": [],
			"name": "CerbySwapV1_OutputTokensAmountIsLowerThanMinimumSpecified",
			"type": "error"
		},
		{
			"inputs": [],
			"name": "CerbySwapV1_SafeTransferFromFailed",
			"type": "error"
		},
		{
			"inputs": [],
			"name": "CerbySwapV1_SafeTransferNativeFailed",
			"type": "error"
		},
		{
			"inputs": [],
			"name": "CerbySwapV1_SafeTransferTokensFailed",
			"type": "error"
		},
		{
			"inputs": [],
			"name": "CerbySwapV1_SwappingTokenToSameTokenIsForbidden",
			"type": "error"
		},
		{
			"inputs": [],
			"name": "CerbySwapV1_TokenAlreadyExists",
			"type": "error"
		},
		{
			"inputs": [],
			"name": "CerbySwapV1_TokenDoesNotExist",
			"type": "error"
		},
		{
			"inputs": [],
			"name": "CerbySwapV1_TransactionIsExpired",
			"type": "error"
		},
		{
			"inputs": [],
			"name": "CerbySwapV1_TvlMultiplierIsWrong",
			"type": "error"
		},
		{
			"inputs": [],
			"name": "ERC1155_AccountsAndIdsLengthMismatch",
			"type": "error"
		},
		{
			"inputs": [],
			"name": "ERC1155_BalanceQueryForTheZeroAddress",
			"type": "error"
		},
		{
			"inputs": [],
			"name": "ERC1155_BurnAmountExceedsBalance",
			"type": "error"
		},
		{
			"inputs": [],
			"name": "ERC1155_BurnFromZeroAddress",
			"type": "error"
		},
		{
			"inputs": [],
			"name": "ERC1155_ERC1155ReceiverRejectsTokens",
			"type": "error"
		},
		{
			"inputs": [],
			"name": "ERC1155_IdsAndAmountsLengthMismatch",
			"type": "error"
		},
		{
			"inputs": [],
			"name": "ERC1155_InsufficientBalanceForTransfer",
			"type": "error"
		},
		{
			"inputs": [],
			"name": "ERC1155_MintToZeroAddress",
			"type": "error"
		},
		{
			"inputs": [],
			"name": "ERC1155_SettingApprovalStatusForSelf",
			"type": "error"
		},
		{
			"inputs": [],
			"name": "ERC1155_TransferToNonERC1155ReceiverImplementer",
			"type": "error"
		},
		{
			"inputs": [],
			"name": "ERC1155_TransferToZeroAddress",
			"type": "error"
		},
		{
			"inputs": [],
			"name": "Ownable_CallerIsNotOwner",
			"type": "error"
		},
		{
			"inputs": [],
			"name": "Ownable_NewOwnerIsNotTheZeroAddress",
			"type": "error"
		},
		{
			"anonymous": false,
			"inputs": [
				{
					"indexed": true,
					"internalType": "address",
					"name": "account",
					"type": "address"
				},
				{
					"indexed": true,
					"internalType": "address",
					"name": "operator",
					"type": "address"
				},
				{
					"indexed": false,
					"internalType": "bool",
					"name": "approved",
					"type": "bool"
				}
			],
			"name": "ApprovalForAll",
			"type": "event"
		},
		{
			"anonymous": false,
			"inputs": [
				{
					"indexed": false,
					"internalType": "address",
					"name": "_token",
					"type": "address"
				},
				{
					"indexed": false,
					"internalType": "uint256",
					"name": "_amountTokensIn",
					"type": "uint256"
				},
				{
					"indexed": false,
					"internalType": "uint256",
					"name": "_amountCerUsdToMint",
					"type": "uint256"
				},
				{
					"indexed": false,
					"internalType": "uint256",
					"name": "_lpAmount",
					"type": "uint256"
				}
			],
			"name": "LiquidityAdded",
			"type": "event"
		},
		{
			"anonymous": false,
			"inputs": [
				{
					"indexed": false,
					"internalType": "address",
					"name": "_token",
					"type": "address"
				},
				{
					"indexed": false,
					"internalType": "uint256",
					"name": "_amountTokensOut",
					"type": "uint256"
				},
				{
					"indexed": false,
					"internalType": "uint256",
					"name": "_amountCerUsdToBurn",
					"type": "uint256"
				},
				{
					"indexed": false,
					"internalType": "uint256",
					"name": "_amountLpTokensBalanceToBurn",
					"type": "uint256"
				}
			],
			"name": "LiquidityRemoved",
			"type": "event"
		},
		{
			"anonymous": false,
			"inputs": [
				{
					"indexed": true,
					"internalType": "address",
					"name": "previousOwner",
					"type": "address"
				},
				{
					"indexed": true,
					"internalType": "address",
					"name": "newOwner",
					"type": "address"
				}
			],
			"name": "OwnershipTransferred",
			"type": "event"
		},
		{
			"anonymous": false,
			"inputs": [
				{
					"indexed": false,
					"internalType": "address",
					"name": "_token",
					"type": "address"
				},
				{
					"indexed": false,
					"internalType": "uint256",
					"name": "_poolId",
					"type": "uint256"
				}
			],
			"name": "PoolCreated",
			"type": "event"
		},
		{
			"anonymous": false,
			"inputs": [
				{
					"indexed": false,
					"internalType": "address",
					"name": "_token",
					"type": "address"
				},
				{
					"indexed": false,
					"internalType": "address",
					"name": "_sender",
					"type": "address"
				},
				{
					"indexed": false,
					"internalType": "uint256",
					"name": "_amountTokensIn",
					"type": "uint256"
				},
				{
					"indexed": false,
					"internalType": "uint256",
					"name": "_amountCerUsdIn",
					"type": "uint256"
				},
				{
					"indexed": false,
					"internalType": "uint256",
					"name": "__amountTokensOut",
					"type": "uint256"
				},
				{
					"indexed": false,
					"internalType": "uint256",
					"name": "amountCerUsdOut",
					"type": "uint256"
				},
				{
					"indexed": false,
					"internalType": "uint256",
					"name": "_currentFee",
					"type": "uint256"
				},
				{
					"indexed": false,
					"internalType": "address",
					"name": "_transferTo",
					"type": "address"
				}
			],
			"name": "Swap",
			"type": "event"
		},
		{
			"anonymous": false,
			"inputs": [
				{
					"indexed": false,
					"internalType": "address",
					"name": "_token",
					"type": "address"
				},
				{
					"indexed": false,
					"internalType": "uint256",
					"name": "_newBalanceToken",
					"type": "uint256"
				},
				{
					"indexed": false,
					"internalType": "uint256",
					"name": "_newBalanceCerUsd",
					"type": "uint256"
				},
				{
					"indexed": false,
					"internalType": "uint256",
					"name": "_newCreditCerUsd",
					"type": "uint256"
				}
			],
			"name": "Sync",
			"type": "event"
		},
		{
			"anonymous": false,
			"inputs": [
				{
					"indexed": true,
					"internalType": "address",
					"name": "operator",
					"type": "address"
				},
				{
					"indexed": true,
					"internalType": "address",
					"name": "from",
					"type": "address"
				},
				{
					"indexed": true,
					"internalType": "address",
					"name": "to",
					"type": "address"
				},
				{
					"indexed": false,
					"internalType": "uint256[]",
					"name": "ids",
					"type": "uint256[]"
				},
				{
					"indexed": false,
					"internalType": "uint256[]",
					"name": "values",
					"type": "uint256[]"
				}
			],
			"name": "TransferBatch",
			"type": "event"
		},
		{
			"anonymous": false,
			"inputs": [
				{
					"indexed": true,
					"internalType": "address",
					"name": "operator",
					"type": "address"
				},
				{
					"indexed": true,
					"internalType": "address",
					"name": "from",
					"type": "address"
				},
				{
					"indexed": true,
					"internalType": "address",
					"name": "to",
					"type": "address"
				},
				{
					"indexed": false,
					"internalType": "uint256",
					"name": "id",
					"type": "uint256"
				},
				{
					"indexed": false,
					"internalType": "uint256",
					"name": "value",
					"type": "uint256"
				}
			],
			"name": "TransferSingle",
			"type": "event"
		},
		{
			"anonymous": false,
			"inputs": [
				{
					"indexed": false,
					"internalType": "string",
					"name": "value",
					"type": "string"
				},
				{
					"indexed": true,
					"internalType": "uint256",
					"name": "id",
					"type": "uint256"
				}
			],
			"name": "URI",
			"type": "event"
		},
		{
			"inputs": [
				{
					"internalType": "address",
					"name": "_token",
					"type": "address"
				},
				{
					"internalType": "uint256",
					"name": "_amountTokensIn",
					"type": "uint256"
				},
				{
					"internalType": "uint256",
					"name": "_expireTimestamp",
					"type": "uint256"
				},
				{
					"internalType": "address",
					"name": "_transferTo",
					"type": "address"
				}
			],
			"name": "addTokenLiquidity",
			"outputs": [
				{
					"internalType": "uint256",
					"name": "",
					"type": "uint256"
				}
			],
			"stateMutability": "payable",
			"type": "function"
		},
		{
			"inputs": [
				{
					"internalType": "address",
					"name": "_token",
					"type": "address"
				},
				{
					"internalType": "uint256",
					"name": "_amountCerUsdCredit",
					"type": "uint256"
				}
			],
			"name": "adminChangeCerUsdCreditInPool",
			"outputs": [],
			"stateMutability": "nonpayable",
			"type": "function"
		},
		{
			"inputs": [
				{
					"internalType": "address",
					"name": "_token",
					"type": "address"
				},
				{
					"internalType": "uint256",
					"name": "_amountTokensIn",
					"type": "uint256"
				},
				{
					"internalType": "uint256",
					"name": "_amountCerUsdToMint",
					"type": "uint256"
				},
				{
					"internalType": "address",
					"name": "_transferTo",
					"type": "address"
				}
			],
			"name": "adminCreatePool",
			"outputs": [],
			"stateMutability": "payable",
			"type": "function"
		},
		{
			"inputs": [],
			"name": "adminInitialize",
			"outputs": [],
			"stateMutability": "payable",
			"type": "function"
		},
		{
			"inputs": [
				{
					"internalType": "string",
					"name": "_newUrlPrefix",
					"type": "string"
				}
			],
			"name": "adminSetURI",
			"outputs": [],
			"stateMutability": "nonpayable",
			"type": "function"
		},
		{
			"inputs": [
				{
					"components": [
						{
							"internalType": "address",
							"name": "mintFeeBeneficiary",
							"type": "address"
						},
						{
							"internalType": "uint256",
							"name": "mintFeeMultiplier",
							"type": "uint256"
						},
						{
							"internalType": "uint256",
							"name": "feeMinimum",
							"type": "uint256"
						},
						{
							"internalType": "uint256",
							"name": "feeMaximum",
							"type": "uint256"
						},
						{
							"internalType": "uint256",
							"name": "tvlMultiplierMinimum",
							"type": "uint256"
						},
						{
							"internalType": "uint256",
							"name": "tvlMultiplierMaximum",
							"type": "uint256"
						},
						{
							"internalType": "uint256",
							"name": "sincePeriodAgoToTrackTradeVolume",
							"type": "uint256"
						}
					],
					"internalType": "struct CerbySwapV1_Declarations.Settings",
					"name": "_settings",
					"type": "tuple"
				}
			],
			"name": "adminUpdateFeesAndTvlMultipliers",
			"outputs": [],
			"stateMutability": "nonpayable",
			"type": "function"
		},
		{
			"inputs": [
				{
					"internalType": "string",
					"name": "_newContractName",
					"type": "string"
				},
				{
					"internalType": "string",
					"name": "_newContractSymbol",
					"type": "string"
				}
			],
			"name": "adminUpdateNameAndSymbol",
			"outputs": [],
			"stateMutability": "nonpayable",
			"type": "function"
		},
		{
			"inputs": [
				{
					"internalType": "address",
					"name": "_account",
					"type": "address"
				},
				{
					"internalType": "uint256",
					"name": "_id",
					"type": "uint256"
				}
			],
			"name": "balanceOf",
			"outputs": [
				{
					"internalType": "uint256",
					"name": "",
					"type": "uint256"
				}
			],
			"stateMutability": "view",
			"type": "function"
		},
		{
			"inputs": [
				{
					"internalType": "address[]",
					"name": "_accounts",
					"type": "address[]"
				},
				{
					"internalType": "uint256[]",
					"name": "_ids",
					"type": "uint256[]"
				}
			],
			"name": "balanceOfBatch",
			"outputs": [
				{
					"internalType": "uint256[]",
					"name": "",
					"type": "uint256[]"
				}
			],
			"stateMutability": "view",
			"type": "function"
		},
		{
			"inputs": [
				{
					"internalType": "address",
					"name": "_token",
					"type": "address"
				},
				{
					"internalType": "uint256",
					"name": "_amountTokensIn",
					"type": "uint256"
				},
				{
					"internalType": "uint256",
					"name": "_amountCerUsdToMint",
					"type": "uint256"
				},
				{
					"internalType": "address",
					"name": "_transferTo",
					"type": "address"
				}
			],
			"name": "createPool",
			"outputs": [],
			"stateMutability": "payable",
			"type": "function"
		},
		{
			"inputs": [],
			"name": "decimals",
			"outputs": [
				{
					"internalType": "uint256",
					"name": "",
					"type": "uint256"
				}
			],
			"stateMutability": "pure",
			"type": "function"
		},
		{
			"inputs": [
				{
					"internalType": "uint256",
					"name": "_id",
					"type": "uint256"
				}
			],
			"name": "exists",
			"outputs": [
				{
					"internalType": "bool",
					"name": "",
					"type": "bool"
				}
			],
			"stateMutability": "view",
			"type": "function"
		},
		{
			"inputs": [
				{
					"internalType": "address",
					"name": "_token",
					"type": "address"
				}
			],
			"name": "getCurrentOneMinusFeeBasedOnTrades",
			"outputs": [
				{
					"internalType": "uint256",
					"name": "fee",
					"type": "uint256"
				}
			],
			"stateMutability": "view",
			"type": "function"
		},
		{
			"inputs": [
				{
					"internalType": "address",
					"name": "_tokenIn",
					"type": "address"
				},
				{
					"internalType": "address",
					"name": "_tokenOut",
					"type": "address"
				},
				{
					"internalType": "uint256",
					"name": "_amountTokensOut",
					"type": "uint256"
				}
			],
			"name": "getInputTokensForExactTokens",
			"outputs": [
				{
					"internalType": "uint256",
					"name": "",
					"type": "uint256"
				}
			],
			"stateMutability": "view",
			"type": "function"
		},
		{
			"inputs": [
				{
					"internalType": "address",
					"name": "_tokenIn",
					"type": "address"
				},
				{
					"internalType": "address",
					"name": "_tokenOut",
					"type": "address"
				},
				{
					"internalType": "uint256",
					"name": "_amountTokensIn",
					"type": "uint256"
				}
			],
			"name": "getOutputExactTokensForTokens",
			"outputs": [
				{
					"internalType": "uint256",
					"name": "",
					"type": "uint256"
				}
			],
			"stateMutability": "view",
			"type": "function"
		},
		{
			"inputs": [
				{
					"internalType": "address[]",
					"name": "_tokens",
					"type": "address[]"
				}
			],
			"name": "getPoolsByTokens",
			"outputs": [
				{
					"components": [
						{
							"internalType": "uint256",
							"name": "balanceToken",
							"type": "uint256"
						},
						{
							"internalType": "uint256",
							"name": "balanceCerUsd",
							"type": "uint256"
						}
					],
					"internalType": "struct CerbySwapV1_Declarations.PoolBalances[]",
					"name": "",
					"type": "tuple[]"
				}
			],
			"stateMutability": "view",
			"type": "function"
		},
		{
			"inputs": [],
			"name": "getSettings",
			"outputs": [
				{
					"components": [
						{
							"internalType": "address",
							"name": "mintFeeBeneficiary",
							"type": "address"
						},
						{
							"internalType": "uint256",
							"name": "mintFeeMultiplier",
							"type": "uint256"
						},
						{
							"internalType": "uint256",
							"name": "feeMinimum",
							"type": "uint256"
						},
						{
							"internalType": "uint256",
							"name": "feeMaximum",
							"type": "uint256"
						},
						{
							"internalType": "uint256",
							"name": "tvlMultiplierMinimum",
							"type": "uint256"
						},
						{
							"internalType": "uint256",
							"name": "tvlMultiplierMaximum",
							"type": "uint256"
						},
						{
							"internalType": "uint256",
							"name": "sincePeriodAgoToTrackTradeVolume",
							"type": "uint256"
						}
					],
					"internalType": "struct CerbySwapV1_Declarations.Settings",
					"name": "",
					"type": "tuple"
				}
			],
			"stateMutability": "view",
			"type": "function"
		},
		{
			"inputs": [
				{
					"internalType": "address",
					"name": "_token",
					"type": "address"
				}
			],
			"name": "getTokenToPoolId",
			"outputs": [
				{
					"internalType": "uint256",
					"name": "",
					"type": "uint256"
				}
			],
			"stateMutability": "view",
			"type": "function"
		},
		{
			"inputs": [
				{
					"internalType": "uint256",
					"name": "_pos",
					"type": "uint256"
				}
			],
			"name": "getUtilsContractAtPos",
			"outputs": [
				{
					"internalType": "address",
					"name": "",
					"type": "address"
				}
			],
			"stateMutability": "view",
			"type": "function"
		},
		{
			"inputs": [
				{
					"internalType": "address",
					"name": "_token",
					"type": "address"
				},
				{
					"internalType": "uint256",
					"name": "_amountCerUsdCredit",
					"type": "uint256"
				}
			],
			"name": "increaseCerUsdCreditInPool",
			"outputs": [],
			"stateMutability": "nonpayable",
			"type": "function"
		},
		{
			"inputs": [
				{
					"internalType": "address",
					"name": "_account",
					"type": "address"
				},
				{
					"internalType": "address",
					"name": "_operator",
					"type": "address"
				}
			],
			"name": "isApprovedForAll",
			"outputs": [
				{
					"internalType": "bool",
					"name": "",
					"type": "bool"
				}
			],
			"stateMutability": "view",
			"type": "function"
		},
		{
			"inputs": [],
			"name": "name",
			"outputs": [
				{
					"internalType": "string",
					"name": "",
					"type": "string"
				}
			],
			"stateMutability": "view",
			"type": "function"
		},
		{
			"inputs": [],
			"name": "owner",
			"outputs": [
				{
					"internalType": "address",
					"name": "",
					"type": "address"
				}
			],
			"stateMutability": "view",
			"type": "function"
		},
		{
			"inputs": [
				{
					"internalType": "address",
					"name": "_token",
					"type": "address"
				},
				{
					"internalType": "uint256",
					"name": "_amountLpTokensBalanceToBurn",
					"type": "uint256"
				},
				{
					"internalType": "uint256",
					"name": "_expireTimestamp",
					"type": "uint256"
				},
				{
					"internalType": "address",
					"name": "_transferTo",
					"type": "address"
				}
			],
			"name": "removeTokenLiquidity",
			"outputs": [
				{
					"internalType": "uint256",
					"name": "",
					"type": "uint256"
				}
			],
			"stateMutability": "nonpayable",
			"type": "function"
		},
		{
			"inputs": [],
			"name": "renounceOwnership",
			"outputs": [],
			"stateMutability": "nonpayable",
			"type": "function"
		},
		{
			"inputs": [
				{
					"internalType": "address",
					"name": "_from",
					"type": "address"
				},
				{
					"internalType": "address",
					"name": "_to",
					"type": "address"
				},
				{
					"internalType": "uint256[]",
					"name": "_ids",
					"type": "uint256[]"
				},
				{
					"internalType": "uint256[]",
					"name": "_amounts",
					"type": "uint256[]"
				},
				{
					"internalType": "bytes",
					"name": "_data",
					"type": "bytes"
				}
			],
			"name": "safeBatchTransferFrom",
			"outputs": [],
			"stateMutability": "nonpayable",
			"type": "function"
		},
		{
			"inputs": [
				{
					"internalType": "address",
					"name": "_from",
					"type": "address"
				},
				{
					"internalType": "address",
					"name": "_to",
					"type": "address"
				},
				{
					"internalType": "uint256",
					"name": "_id",
					"type": "uint256"
				},
				{
					"internalType": "uint256",
					"name": "_amount",
					"type": "uint256"
				},
				{
					"internalType": "bytes",
					"name": "_data",
					"type": "bytes"
				}
			],
			"name": "safeTransferFrom",
			"outputs": [],
			"stateMutability": "nonpayable",
			"type": "function"
		},
		{
			"inputs": [
				{
					"internalType": "address",
					"name": "_operator",
					"type": "address"
				},
				{
					"internalType": "bool",
					"name": "_approved",
					"type": "bool"
				}
			],
			"name": "setApprovalForAll",
			"outputs": [],
			"stateMutability": "nonpayable",
			"type": "function"
		},
		{
			"inputs": [
				{
					"internalType": "bytes4",
					"name": "interfaceId",
					"type": "bytes4"
				}
			],
			"name": "supportsInterface",
			"outputs": [
				{
					"internalType": "bool",
					"name": "",
					"type": "bool"
				}
			],
			"stateMutability": "view",
			"type": "function"
		},
		{
			"inputs": [
				{
					"internalType": "address",
					"name": "_tokenIn",
					"type": "address"
				},
				{
					"internalType": "address",
					"name": "_tokenOut",
					"type": "address"
				},
				{
					"internalType": "uint256",
					"name": "_amountTokensIn",
					"type": "uint256"
				},
				{
					"internalType": "uint256",
					"name": "_minAmountTokensOut",
					"type": "uint256"
				},
				{
					"internalType": "uint256",
					"name": "_expireTimestamp",
					"type": "uint256"
				},
				{
					"internalType": "address",
					"name": "_transferTo",
					"type": "address"
				}
			],
			"name": "swapExactTokensForTokens",
			"outputs": [
				{
					"internalType": "uint256[]",
					"name": "",
					"type": "uint256[]"
				}
			],
			"stateMutability": "payable",
			"type": "function"
		},
		{
			"inputs": [
				{
					"internalType": "address",
					"name": "_tokenIn",
					"type": "address"
				},
				{
					"internalType": "address",
					"name": "_tokenOut",
					"type": "address"
				},
				{
					"internalType": "uint256",
					"name": "_amountTokensOut",
					"type": "uint256"
				},
				{
					"internalType": "uint256",
					"name": "_maxAmountTokensIn",
					"type": "uint256"
				},
				{
					"internalType": "uint256",
					"name": "_expireTimestamp",
					"type": "uint256"
				},
				{
					"internalType": "address",
					"name": "_transferTo",
					"type": "address"
				}
			],
			"name": "swapTokensForExactTokens",
			"outputs": [
				{
					"internalType": "uint256[]",
					"name": "",
					"type": "uint256[]"
				}
			],
			"stateMutability": "payable",
			"type": "function"
		},
		{
			"inputs": [],
			"name": "symbol",
			"outputs": [
				{
					"internalType": "string",
					"name": "",
					"type": "string"
				}
			],
			"stateMutability": "view",
			"type": "function"
		},
		{
			"inputs": [],
			"name": "testInit",
			"outputs": [],
			"stateMutability": "nonpayable",
			"type": "function"
		},
		{
			"inputs": [
				{
					"internalType": "address",
					"name": "",
					"type": "address"
				},
				{
					"internalType": "address",
					"name": "_testCerbyToken",
					"type": "address"
				},
				{
					"internalType": "address",
					"name": "_cerUsdToken",
					"type": "address"
				},
				{
					"internalType": "address",
					"name": "_testUsdcToken",
					"type": "address"
				},
				{
					"internalType": "address",
					"name": "",
					"type": "address"
				}
			],
			"name": "testSetupTokens",
			"outputs": [],
			"stateMutability": "nonpayable",
			"type": "function"
		},
		{
			"inputs": [],
			"name": "totalSupply",
			"outputs": [
				{
					"internalType": "uint256",
					"name": "",
					"type": "uint256"
				}
			],
			"stateMutability": "view",
			"type": "function"
		},
		{
			"inputs": [
				{
					"internalType": "uint256",
					"name": "_id",
					"type": "uint256"
				}
			],
			"name": "totalSupply",
			"outputs": [
				{
					"internalType": "uint256",
					"name": "",
					"type": "uint256"
				}
			],
			"stateMutability": "view",
			"type": "function"
		},
		{
			"inputs": [
				{
					"internalType": "address",
					"name": "_newOwner",
					"type": "address"
				}
			],
			"name": "transferOwnership",
			"outputs": [],
			"stateMutability": "nonpayable",
			"type": "function"
		},
		{
			"inputs": [
				{
					"internalType": "uint256",
					"name": "_id",
					"type": "uint256"
				}
			],
			"name": "uri",
			"outputs": [
				{
					"internalType": "string",
					"name": "",
					"type": "string"
				}
			],
			"stateMutability": "view",
			"type": "function"
		},
		{
			"stateMutability": "payable",
			"type": "receive"
		}
	]
}