{
	"data": {
		"bytecode": {
			"linkReferences": {},
			"object": "60806040527346e8e0af862f636199af69acd082b9963066ed9c6000806101000a81548173ffffffffffffffffffffffffffffffffffffffff021916908373ffffffffffffffffffffffffffffffffffffffff16021790555073527ea24a5917c452dbf402edc9da4190239bccf1600460006101000a81548173ffffffffffffffffffffffffffffffffffffffff021916908373ffffffffffffffffffffffffffffffffffffffff16021790555073947ef3df5b7d5ec37214dd06c4042c8e7b0cebd7600560006101000a81548173ffffffffffffffffffffffffffffffffffffffff021916908373ffffffffffffffffffffffffffffffffffffffff1602179055507314769f96e57b80c66837701de0b43686fb4632de600660006101000a81548173ffffffffffffffffffffffffffffffffffffffff021916908373ffffffffffffffffffffffffffffffffffffffff1602179055506040518060400160405280600b81526020017f436572627953776170563100000000000000000000000000000000000000000081525060129080519060200190620001a49291906200084d565b506040518060400160405280600381526020017f435331000000000000000000000000000000000000000000000000000000000081525060139080519060200190620001f29291906200084d565b506040518060600160405280602381526020016200a6fc6023913960149080519060200190620002249291906200084d565b503480156200023257600080fd5b50601460405160200162000247919062000a5d565b60405160208183030381529060405262000267816200076b60201b60201c565b5062000279336200078760201b60201c565b600073def78a28c78a461598d948bc0c689ce88f812ad890506000606460146064620002a6919062000abc565b620002b2919062000b4c565b905060006351a673669050600060019050600060c8905060008390506000838386620002df919062000abc565b620002eb919062000b4c565b90506000601890506040518060e001604052808973ffffffffffffffffffffffffffffffffffffffff1681526020018881526020018681526020018581526020018481526020018381526020016018815250600760008201518160000160006101000a81548173ffffffffffffffffffffffffffffffffffffffff021916908373ffffffffffffffffffffffffffffffffffffffff1602179055506020820151816001015560408201518160020155606082015181600301556080820151816004015560a0820151816005015560c0820151816006015590505060016040518060600160405280600073ffffffffffffffffffffffffffffffffffffffff16815260200160006fffffffffffffffffffffffffffffffff16815260200160006fffffffffffffffffffffffffffffffff16815250908060018154018082558091505060019003906000526020600020906002020160009091909190915060008201518160000160006101000a81548173ffffffffffffffffffffffffffffffffffffffff021916908373ffffffffffffffffffffffffffffffffffffffff16021790555060208201518160010160006101000a8154816fffffffffffffffffffffffffffffffff02191690836fffffffffffffffffffffffffffffffff16021790555060408201518160010160106101000a8154816fffffffffffffffffffffffffffffffff02191690836fffffffffffffffffffffffffffffffff16021790555050506001461415620005745773c02aaa39b223fe8d0a0e5c4f27ead9083c756cc2600660006101000a81548173ffffffffffffffffffffffffffffffffffffffff021916908373ffffffffffffffffffffffffffffffffffffffff16021790555062000708565b6038461415620005d95773bb4cdb9cbd36b01bd1cbaebf2de08d9173bc095c600660006101000a81548173ffffffffffffffffffffffffffffffffffffffff021916908373ffffffffffffffffffffffffffffffffffffffff16021790555062000707565b60894614156200063e57730d500b1d8e8ef31e21c99d1db9a6444d3adf1270600660006101000a81548173ffffffffffffffffffffffffffffffffffffffff021916908373ffffffffffffffffffffffffffffffffffffffff16021790555062000706565b61a86a461415620006a45773b31f66aa3c1e785363f0875a1b74e27b85fd66c7600660006101000a81548173ffffffffffffffffffffffffffffffffffffffff021916908373ffffffffffffffffffffffffffffffffffffffff16021790555062000705565b60fa46141562000704577321be370d5312f44cb42ce377bc9b8a0cef1a4c83600660006101000a81548173ffffffffffffffffffffffffffffffffffffffff021916908373ffffffffffffffffffffffffffffffffffffffff1602179055505b5b5b5b5b7314769f96e57b80c66837701de0b43686fb4632de600660006101000a81548173ffffffffffffffffffffffffffffffffffffffff021916908373ffffffffffffffffffffffffffffffffffffffff160217905550505050505050505062000b84565b8060109080519060200190620007839291906200084d565b5050565b6000601560009054906101000a900473ffffffffffffffffffffffffffffffffffffffff16905081601560006101000a81548173ffffffffffffffffffffffffffffffffffffffff021916908373ffffffffffffffffffffffffffffffffffffffff1602179055508173ffffffffffffffffffffffffffffffffffffffff168173ffffffffffffffffffffffffffffffffffffffff167f8be0079c531659141344cd1fd0a4f28419497f9722a3daafe3b4186f6b6457e060405160405180910390a35050565b8280546200085b906200092c565b90600052602060002090601f0160209004810192826200087f5760008555620008cb565b82601f106200089a57805160ff1916838001178555620008cb565b82800160010185558215620008cb579182015b82811115620008ca578251825591602001919060010190620008ad565b5b509050620008da9190620008de565b5090565b5b80821115620008f9576000816000905550600101620008df565b5090565b7f4e487b7100000000000000000000000000000000000000000000000000000000600052602260045260246000fd5b600060028204905060018216806200094557607f821691505b602082108114156200095c576200095b620008fd565b5b50919050565b600081905092915050565b60008190508160005260206000209050919050565b6000815462000991816200092c565b6200099d818662000962565b94506001821660008114620009bb5760018114620009cd5762000a04565b60ff1983168652818601935062000a04565b620009d8856200096d565b60005b83811015620009fc57815481890152600182019150602081019050620009db565b838801955050505b50505092915050565b7f7b69647d2e6a736f6e0000000000000000000000000000000000000000000000600082015250565b600062000a4560098362000962565b915062000a528262000a0d565b600982019050919050565b600062000a6b828462000982565b915062000a788262000a36565b915081905092915050565b6000819050919050565b7f4e487b7100000000000000000000000000000000000000000000000000000000600052601160045260246000fd5b600062000ac98262000a83565b915062000ad68362000a83565b9250817fffffffffffffffffffffffffffffffffffffffffffffffffffffffffffffffff048311821515161562000b125762000b1162000a8d565b5b828202905092915050565b7f4e487b7100000000000000000000000000000000000000000000000000000000600052601260045260246000fd5b600062000b598262000a83565b915062000b668362000a83565b92508262000b795762000b7862000b1d565b5b828204905092915050565b619b688062000b946000396000f3fe608060405260043610620002695760003560e01c806371858049116200014b578063bd85b03911620000bb578063e985e9c51162000079578063e985e9c5146200097d578063eca0109314620009c1578063f242432a14620009ef578063f2fde38b1462000a1d578063f65247241462000a4b5762000271565b8063bd85b039146200089b578063c09c923b14620008df578063c790985a14620008eb578063cab4ba82146200092f578063d5d60737146200095d5762000271565b806395d89b41116200010957806395d89b4114620007bf578063a22cb46514620007ef578063a60c6e55146200081d578063a7fd40bf1462000853578063b5d11e9914620008815762000271565b80637185804914620006cd57806374fcf07114620006fb578063842980f4146200073f57806385b4bb53146200075f5780638da5cb5b146200078f5762000271565b8063313ce56711620001e75780634c3c0eb211620001a55780634c3c0eb214620005a35780634e1273f414620005e75780634f558e79146200062b57806361417516146200066f578063715018a614620006b35762000271565b8063313ce567146200048757806334e150ab14620004b75780633935ac1114620004fb57806343fefad4146200052957806348b08d62146200055f5762000271565b806306fdde03116200023557806306fdde0314620003705780630e89341c14620003a057806318160ddd14620003e45780631f06f4b514620004145780632eb2c2d614620004595762000271565b80623374b51462000276578062fdd58e14620002a457806301ffc9a714620002e857806306fb1a07146200032c5762000271565b366200027157005b600080fd5b3480156200028357600080fd5b50620002a260048036038101906200029c919062007036565b62000a81565b005b348015620002b157600080fd5b50620002d06004803603810190620002ca919062007108565b62000bfb565b604051620002df919062007160565b60405180910390f35b348015620002f557600080fd5b506200031460048036038101906200030e9190620071da565b62000cbd565b60405162000323919062007229565b60405180910390f35b3480156200033957600080fd5b5062000358600480360381019062000352919062007246565b62000d27565b60405162000367919062007289565b60405180910390f35b3480156200037d57600080fd5b506200038862000dc3565b6040516200039791906200734a565b60405180910390f35b348015620003ad57600080fd5b50620003cc6004803603810190620003c6919062007246565b62000e5d565b604051620003db91906200734a565b60405180910390f35b348015620003f157600080fd5b50620003fc62000e8b565b6040516200040b919062007160565b60405180910390f35b3480156200042157600080fd5b506200044060048036038101906200043a919062007108565b62000eed565b60405162000450929190620073ba565b60405180910390f35b3480156200046657600080fd5b506200048560048036038101906200047f9190620074b4565b62000f48565b005b3480156200049457600080fd5b506200049f62001055565b604051620004ae919062007160565b60405180910390f35b348015620004c457600080fd5b50620004e36004803603810190620004dd919062007605565b6200105e565b604051620004f291906200775b565b60405180910390f35b3480156200050857600080fd5b50620005276004803603810190620005219190620078cb565b620011de565b005b62000547600480360381019062000541919062007950565b62001283565b60405162000556919062007160565b60405180910390f35b3480156200056c57600080fd5b506200058b6004803603810190620005859190620079c2565b6200184a565b6040516200059a919062007160565b60405180910390f35b348015620005b057600080fd5b50620005cf6004803603810190620005c9919062007a1e565b62001b52565b604051620005de919062007160565b60405180910390f35b348015620005f457600080fd5b506200061360048036038101906200060d919062007a50565b62001c04565b60405162000622919062007b9b565b60405180910390f35b3480156200063857600080fd5b5062000657600480360381019062000651919062007246565b62001d43565b60405162000666919062007229565b60405180910390f35b3480156200067c57600080fd5b506200069b600480360381019062000695919062007a1e565b62001d62565b604051620006aa919062007160565b60405180910390f35b348015620006c057600080fd5b50620006cb62001dab565b005b348015620006da57600080fd5b50620006f96004803603810190620006f3919062007108565b62001e28565b005b3480156200070857600080fd5b5062000727600480360381019062000721919062007950565b62002077565b60405162000736919062007160565b60405180910390f35b6200075d600480360381019062000757919062007950565b620021b7565b005b3480156200076c57600080fd5b5062000777620021cd565b60405162000786919062007c6c565b60405180910390f35b3480156200079c57600080fd5b50620007a76200227b565b604051620007b6919062007289565b60405180910390f35b348015620007cc57600080fd5b50620007d7620022a5565b604051620007e691906200734a565b60405180910390f35b348015620007fc57600080fd5b506200081b600480360381019062000815919062007cba565b6200233f565b005b6200083b600480360381019062000835919062007d01565b620023c3565b6040516200084a919062007b9b565b60405180910390f35b3480156200086057600080fd5b506200087f600480360381019062000879919062007dfc565b62002b66565b005b3480156200088e57600080fd5b506200089962002c1b565b005b348015620008a857600080fd5b50620008c76004803603810190620008c1919062007246565b62002cc1565b604051620008d6919062007160565b60405180910390f35b620008e962002cde565b005b348015620008f857600080fd5b50620009176004803603810190620009119190620079c2565b62002da3565b60405162000926919062007160565b60405180910390f35b3480156200093c57600080fd5b506200095b600480360381019062000955919062007108565b620030ab565b005b6200097b600480360381019062000975919062007950565b6200331d565b005b3480156200098a57600080fd5b50620009a96004803603810190620009a3919062007e51565b620033b3565b604051620009b8919062007229565b60405180910390f35b348015620009ce57600080fd5b50620009ed6004803603810190620009e7919062007e98565b62003447565b005b348015620009fc57600080fd5b5062000a1b600480360381019062000a15919062007f20565b6200351a565b005b34801562000a2a57600080fd5b5062000a49600480360381019062000a43919062007a1e565b62003623565b005b62000a69600480360381019062000a63919062007d01565b62003708565b60405162000a78919062007b9b565b60405180910390f35b3373ffffffffffffffffffffffffffffffffffffffff1662000aa26200227b565b73ffffffffffffffffffffffffffffffffffffffff161462000af0576040517febf9845900000000000000000000000000000000000000000000000000000000815260040160405180910390fd5b80604001356000148062000b0b575080606001358160400135115b8062000b1c57506101f48160600135115b1562000b54576040517fe8404b1a00000000000000000000000000000000000000000000000000000000815260040160405180910390fd5b8060a001358160800135111562000b97576040517febc2e01600000000000000000000000000000000000000000000000000000000815260040160405180910390fd5b60646002826020013562000bac919062007ff9565b1062000be4576040517f28af878600000000000000000000000000000000000000000000000000000000815260040160405180910390fd5b806007818162000bf5919062008302565b90505050565b60008073ffffffffffffffffffffffffffffffffffffffff168373ffffffffffffffffffffffffffffffffffffffff16141562000c64576040517fdc768a8e00000000000000000000000000000000000000000000000000000000815260040160405180910390fd5b600e600083815260200190815260200160002060008473ffffffffffffffffffffffffffffffffffffffff1673ffffffffffffffffffffffffffffffffffffffff16815260200190815260200160002054905092915050565b60007f01ffc9a7000000000000000000000000000000000000000000000000000000007bffffffffffffffffffffffffffffffffffffffffffffffffffffffff1916827bffffffffffffffffffffffffffffffffffffffffffffffffffffffff1916149050919050565b600073def1fac7bf08f173d286bbbdcbeeade69512984073ffffffffffffffffffffffffffffffffffffffff166306fb1a07836040518263ffffffff1660e01b815260040162000d78919062007160565b602060405180830381865afa15801562000d96573d6000803e3d6000fd5b505050506040513d601f19601f8201168201806040525081019062000dbc919062008329565b9050919050565b60606012805462000dd4906200838a565b80601f016020809104026020016040519081016040528092919081815260200182805462000e02906200838a565b801562000e535780601f1062000e275761010080835404028352916020019162000e53565b820191906000526020600020905b81548152906001019060200180831162000e3557829003601f168201915b5050505050905090565b606060148260405160200162000e75929190620084e0565b6040516020818303038152906040529050919050565b60008060005b6000601160008462000ea39062008519565b945084815260200190815260200160002054111562000ee55760116000838152602001908152602001600020548162000edd919062008567565b905062000e91565b809250505090565b6003602052816000526040600020602052806000526040600020600091509150508060000160009054906101000a900461ffff16908060000160029054906101000a90046fffffffffffffffffffffffffffffffff16905082565b600062000f56600362000d27565b90508073ffffffffffffffffffffffffffffffffffffffff1663eef84ba16040518163ffffffff1660e01b8152600401600060405180830381600087803b15801562000fa157600080fd5b505af115801562000fb6573d6000803e3d6000fd5b505050503373ffffffffffffffffffffffffffffffffffffffff168973ffffffffffffffffffffffffffffffffffffffff161415801562001000575062000ffe8933620033b3565b155b1562001038576040517f6f34aaa800000000000000000000000000000000000000000000000000000000815260040160405180910390fd5b6200104a898989898989898962003fd7565b505050505050505050565b60006012905090565b606060008383905067ffffffffffffffff81111562001082576200108162007784565b5b604051908082528060200260200182016040528015620010bf57816020015b620010ab62006e3f565b815260200190600190039081620010a15790505b50905060005b84849050811015620011d3576000858583818110620010e957620010e8620085c4565b5b905060200201602081019062001100919062007a1e565b905060006001600260008473ffffffffffffffffffffffffffffffffffffffff1673ffffffffffffffffffffffffffffffffffffffff16815260200190815260200160002054815481106200115a5762001159620085c4565b5b906000526020600020906002020190506200119a828260000160009054906101000a900473ffffffffffffffffffffffffffffffffffffffff1662004394565b848481518110620011b057620011af620085c4565b5b602002602001018190525050508080620011ca9062008519565b915050620010c5565b508091505092915050565b3373ffffffffffffffffffffffffffffffffffffffff16620011ff6200227b565b73ffffffffffffffffffffffffffffffffffffffff16146200124d576040517febf9845900000000000000000000000000000000000000000000000000000000815260040160405180910390fd5b81601290805190602001906200126592919062006e59565b5080601390805190602001906200127e92919062006e59565b505050565b6000846000600260008373ffffffffffffffffffffffffffffffffffffffff1673ffffffffffffffffffffffffffffffffffffffff16815260200190815260200160002054148062001320575060008054906101000a900473ffffffffffffffffffffffffffffffffffffffff1673ffffffffffffffffffffffffffffffffffffffff168173ffffffffffffffffffffffffffffffffffffffff16145b1562001363576040517f08c379a00000000000000000000000000000000000000000000000000000000081526004016200135a9062008643565b60405180910390fd5b8380421115620013aa576040517f08c379a0000000000000000000000000000000000000000000000000000000008152600401620013a190620086b5565b60405180910390fd5b6000600260008973ffffffffffffffffffffffffffffffffffffffff1673ffffffffffffffffffffffffffffffffffffffff168152602001908152602001600020549050600060018281548110620014075762001406620085c4565b5b906000526020600020906002020190506000620014498a8360000160009054906101000a900473ffffffffffffffffffffffffffffffffffffffff1662004394565b90506200147d8a338460000160009054906101000a900473ffffffffffffffffffffffffffffffffffffffff168c620043f1565b6000620014af8b8460000160009054906101000a900473ffffffffffffffffffffffffffffffffffffffff1662004394565b905081600001518160000151620014c79190620086d7565b995060018a116200150f576040517f08c379a0000000000000000000000000000000000000000000000000000000008152600401620015069062008762565b60405180910390fd5b600062001531836020015184600001516200152b919062007ff9565b62004665565b90506000620015878560010160009054906101000a90046fffffffffffffffffffffffffffffffff166fffffffffffffffffffffffffffffffff1683601160008a815260200190815260200160002054620046ee565b9050620015cb600760000160009054906101000a900473ffffffffffffffffffffffffffffffffffffffff1687836040518060200160405280600081525062004797565b6000846000015160116000898152602001908152602001600020548e620015f3919062007ff9565b620015ff9190620087b3565b90506200161e8b88836040518060200160405280600081525062004797565b6000856000015186602001518f62001637919062007ff9565b620016439190620087b3565b90506001811162001680576040517f206f960000000000000000000000000000000000000000000000000000000000815260040160405180910390fd5b60008054906101000a900473ffffffffffffffffffffffffffffffffffffffff1673ffffffffffffffffffffffffffffffffffffffff16630bb9ff5d8860000160009054906101000a900473ffffffffffffffffffffffffffffffffffffffff16836040518363ffffffff1660e01b815260040162001701929190620087eb565b600060405180830381600087803b1580156200171c57600080fd5b505af115801562001731573d6000803e3d6000fd5b5050505062001755856020015186600001516200174f919062007ff9565b62004665565b8760010160006101000a8154816fffffffffffffffffffffffffffffffff02191690836fffffffffffffffffffffffffffffffff1602179055507f64b83944e79c3ce8d4c297411de637c3e102d064677aac0c163976ebdcd6f50e8f8f8385604051620017c6949392919062008818565b60405180910390a17f51ab1232a73b82b6b0acb0fa91b834cf6e258a1858c4e23c72ce97241c71aa0d8f866000015187602001518a60010160109054906101000a90046fffffffffffffffffffffffffffffffff166040516200182d94939291906200889e565b60405180910390a1819a5050505050505050505050949350505050565b60008060006001600260008873ffffffffffffffffffffffffffffffffffffffff1673ffffffffffffffffffffffffffffffffffffffff1681526020019081526020016000205481548110620018a557620018a4620085c4565b5b906000526020600020906002020160000160009054906101000a900473ffffffffffffffffffffffffffffffffffffffff16905060006001600260008873ffffffffffffffffffffffffffffffffffffffff1673ffffffffffffffffffffffffffffffffffffffff1681526020019081526020016000205481548110620019315762001930620085c4565b5b906000526020600020906002020160000160009054906101000a900473ffffffffffffffffffffffffffffffffffffffff16905060008054906101000a900473ffffffffffffffffffffffffffffffffffffffff1673ffffffffffffffffffffffffffffffffffffffff168773ffffffffffffffffffffffffffffffffffffffff161415801562001a0d575060008054906101000a900473ffffffffffffffffffffffffffffffffffffffff1673ffffffffffffffffffffffffffffffffffffffff168673ffffffffffffffffffffffffffffffffffffffff16145b1562001a395762001a2b62001a23888462004394565b888762004938565b925082935050505062001b4b565b60008054906101000a900473ffffffffffffffffffffffffffffffffffffffff1673ffffffffffffffffffffffffffffffffffffffff168773ffffffffffffffffffffffffffffffffffffffff1614801562001ae1575060008054906101000a900473ffffffffffffffffffffffffffffffffffffffff1673ffffffffffffffffffffffffffffffffffffffff168673ffffffffffffffffffffffffffffffffffffffff1614155b1562001b0d5762001aff62001af7878362004394565b878762004a43565b925082935050505062001b4b565b600062001b2762001b1f898562004394565b898862004938565b905062001b4162001b39888462004394565b888362004a43565b9350839450505050505b9392505050565b6000806001600260008573ffffffffffffffffffffffffffffffffffffffff1673ffffffffffffffffffffffffffffffffffffffff168152602001908152602001600020548154811062001bab5762001baa620085c4565b5b90600052602060002090600202019050600062001bed848360000160009054906101000a900473ffffffffffffffffffffffffffffffffffffffff1662004394565b905062001bfb848262004b45565b92505050919050565b6060600083839050905080868690501462001c4b576040517f80dadc2700000000000000000000000000000000000000000000000000000000815260040160405180910390fd5b60008686905067ffffffffffffffff81111562001c6d5762001c6c62007784565b5b60405190808252806020026020018201604052801562001c9c5781602001602082028036833780820191505090505b50905060005b8281101562001d355762001cff88888381811062001cc55762001cc4620085c4565b5b905060200201602081019062001cdc919062007a1e565b87878481811062001cf25762001cf1620085c4565b5b9050602002013562000bfb565b82828151811062001d155762001d14620085c4565b5b6020026020010181815250508062001d2d9062008519565b905062001ca2565b508092505050949350505050565b6000806011600084815260200190815260200160002054119050919050565b6000600260008373ffffffffffffffffffffffffffffffffffffffff1673ffffffffffffffffffffffffffffffffffffffff168152602001908152602001600020549050919050565b3373ffffffffffffffffffffffffffffffffffffffff1662001dcc6200227b565b73ffffffffffffffffffffffffffffffffffffffff161462001e1a576040517febf9845900000000000000000000000000000000000000000000000000000000815260040160405180910390fd5b62001e26600062004d44565b565b60006001600260008573ffffffffffffffffffffffffffffffffffffffff1673ffffffffffffffffffffffffffffffffffffffff168152602001908152602001600020548154811062001e805762001e7f620085c4565b5b90600052602060002090600202019050600062001ec2848360000160009054906101000a900473ffffffffffffffffffffffffffffffffffffffff1662004394565b90506fffffffffffffffffffffffffffffffff80168260010160109054906101000a90046fffffffffffffffffffffffffffffffff166fffffffffffffffffffffffffffffffff1610156200200a57828260010160108282829054906101000a90046fffffffffffffffffffffffffffffffff1662001f429190620088eb565b92506101000a8154816fffffffffffffffffffffffffffffffff02191690836fffffffffffffffffffffffffffffffff16021790555060008054906101000a900473ffffffffffffffffffffffffffffffffffffffff1673ffffffffffffffffffffffffffffffffffffffff166318a8ad8733856040518363ffffffff1660e01b815260040162001fd5929190620087eb565b600060405180830381600087803b15801562001ff057600080fd5b505af115801562002005573d6000803e3d6000fd5b505050505b7f51ab1232a73b82b6b0acb0fa91b834cf6e258a1858c4e23c72ce97241c71aa0d84826000015183602001518560010160109054906101000a90046fffffffffffffffffffffffffffffffff166040516200206994939291906200889e565b60405180910390a150505050565b6000846000600260008373ffffffffffffffffffffffffffffffffffffffff1673ffffffffffffffffffffffffffffffffffffffff16815260200190815260200160002054148062002114575060008054906101000a900473ffffffffffffffffffffffffffffffffffffffff1673ffffffffffffffffffffffffffffffffffffffff168173ffffffffffffffffffffffffffffffffffffffff16145b1562002157576040517f08c379a00000000000000000000000000000000000000000000000000000000081526004016200214e9062008643565b60405180910390fd5b83804211156200219e576040517f08c379a00000000000000000000000000000000000000000000000000000000081526004016200219590620086b5565b60405180910390fd5b620021ab87878662004e0a565b92505050949350505050565b620021c7848484600085620051f5565b50505050565b620021d762006eea565b60076040518060e00160405290816000820160009054906101000a900473ffffffffffffffffffffffffffffffffffffffff1673ffffffffffffffffffffffffffffffffffffffff1673ffffffffffffffffffffffffffffffffffffffff1681526020016001820154815260200160028201548152602001600382015481526020016004820154815260200160058201548152602001600682015481525050905090565b6000601560009054906101000a900473ffffffffffffffffffffffffffffffffffffffff16905090565b606060138054620022b6906200838a565b80601f0160208091040260200160405190810160405280929190818152602001828054620022e4906200838a565b8015620023355780601f10620023095761010080835404028352916020019162002335565b820191906000526020600020905b8154815290600101906020018083116200231757829003601f168201915b5050505050905090565b60006200234d600362000d27565b90508073ffffffffffffffffffffffffffffffffffffffff1663eef84ba16040518163ffffffff1660e01b8152600401600060405180830381600087803b1580156200239857600080fd5b505af1158015620023ad573d6000803e3d6000fd5b50505050620023be338484620056e3565b505050565b606082804211156200240c576040517f08c379a00000000000000000000000000000000000000000000000000000000081526004016200240390620086b5565b60405180910390fd5b6001861162002452576040517f08c379a0000000000000000000000000000000000000000000000000000000008152600401620024499062008762565b60405180910390fd5b60006001600260008b73ffffffffffffffffffffffffffffffffffffffff1673ffffffffffffffffffffffffffffffffffffffff1681526020019081526020016000205481548110620024aa57620024a9620085c4565b5b906000526020600020906002020160000160009054906101000a900473ffffffffffffffffffffffffffffffffffffffff16905060006001600260008b73ffffffffffffffffffffffffffffffffffffffff1673ffffffffffffffffffffffffffffffffffffffff1681526020019081526020016000205481548110620025365762002535620085c4565b5b906000526020600020906002020160000160009054906101000a900473ffffffffffffffffffffffffffffffffffffffff1690506000600267ffffffffffffffff8111156200258a576200258962007784565b5b604051908082528060200260200182016040528015620025b95781602001602082028036833780820191505090505b5090508881600081518110620025d457620025d3620085c4565b5b60200260200101818152505060008054906101000a900473ffffffffffffffffffffffffffffffffffffffff1673ffffffffffffffffffffffffffffffffffffffff168b73ffffffffffffffffffffffffffffffffffffffff161415801562002688575060008054906101000a900473ffffffffffffffffffffffffffffffffffffffff1673ffffffffffffffffffffffffffffffffffffffff168a73ffffffffffffffffffffffffffffffffffffffff16145b156200277b5760006200269c8c8562004394565b9050620026ab818d8c62004938565b82600181518110620026c257620026c1620085c4565b5b6020026020010181815250508882600181518110620026e657620026e5620085c4565b5b6020026020010151101562002732576040517f08c379a0000000000000000000000000000000000000000000000000000000008152600401620027299062008988565b60405180910390fd5b620027408c33868d620043f1565b6200276e8c826000856001815181106200275f576200275e620085c4565b5b60200260200101518b6200584a565b8195505050505062002b5b565b60008054906101000a900473ffffffffffffffffffffffffffffffffffffffff1673ffffffffffffffffffffffffffffffffffffffff168b73ffffffffffffffffffffffffffffffffffffffff1614801562002823575060008054906101000a900473ffffffffffffffffffffffffffffffffffffffff1673ffffffffffffffffffffffffffffffffffffffff168a73ffffffffffffffffffffffffffffffffffffffff1614155b1562002916576000620028378b8462004394565b905062002846818c8c62004a43565b826001815181106200285d576200285c620085c4565b5b6020026020010181815250508882600181518110620028815762002880620085c4565b5b60200260200101511015620028cd576040517f08c379a0000000000000000000000000000000000000000000000000000000008152600401620028c490620089fa565b60405180910390fd5b620028db8c33858d620043f1565b620029098b8284600181518110620028f857620028f7620085c4565b5b602002602001015160008b6200584a565b8195505050505062002b5b565b60008054906101000a900473ffffffffffffffffffffffffffffffffffffffff1673ffffffffffffffffffffffffffffffffffffffff168b73ffffffffffffffffffffffffffffffffffffffff1614158015620029bf575060008054906101000a900473ffffffffffffffffffffffffffffffffffffffff1673ffffffffffffffffffffffffffffffffffffffff168a73ffffffffffffffffffffffffffffffffffffffff1614155b8015620029f857508973ffffffffffffffffffffffffffffffffffffffff168b73ffffffffffffffffffffffffffffffffffffffff1614155b1562002b1e57600062002a0c8c8562004394565b9050600062002a1d828e8d62004938565b9050600062002a2d8d8662004394565b905062002a3c818e8462004a43565b8460018151811062002a535762002a52620085c4565b5b6020026020010181815250508a8460018151811062002a775762002a76620085c4565b5b6020026020010151101562002ac3576040517f08c379a000000000000000000000000000000000000000000000000000000000815260040162002aba90620089fa565b60405180910390fd5b62002ad18e33888f620043f1565b62002ae18e84600085896200584a565b62002b0f8d828660018151811062002afe5762002afd620085c4565b5b602002602001015160008d6200584a565b83975050505050505062002b5b565b6040517f08c379a000000000000000000000000000000000000000000000000000000000815260040162002b529062008a6c565b60405180910390fd5b509695505050505050565b3373ffffffffffffffffffffffffffffffffffffffff1662002b876200227b565b73ffffffffffffffffffffffffffffffffffffffff161462002bd5576040517febf9845900000000000000000000000000000000000000000000000000000000815260040160405180910390fd5b62002c03828260405160200162002bee92919062008b07565b60405160208183030381529060405262006084565b81816014919062002c1692919062006f3d565b505050565b62002c72600460009054906101000a900473ffffffffffffffffffffffffffffffffffffffff1669d3c21bcecceda10000006969e10de76676d08000006fffffffffffffffffffffffffffffffff801633620051f5565b62002cbf600560009054906101000a900473ffffffffffffffffffffffffffffffffffffffff1669943b1377290cbd800000806fffffffffffffffffffffffffffffffff801633620051f5565b565b600060116000838152602001908152602001600020549050919050565b3373ffffffffffffffffffffffffffffffffffffffff1662002cff6200227b565b73ffffffffffffffffffffffffffffffffffffffff161462002d4d576040517febf9845900000000000000000000000000000000000000000000000000000000815260040160405180910390fd5b62002da1600660009054906101000a900473ffffffffffffffffffffffffffffffffffffffff1666038d7ea4c6800069d3c21bcecceda10000006fffffffffffffffffffffffffffffffff801633620051f5565b565b60008060006001600260008873ffffffffffffffffffffffffffffffffffffffff1673ffffffffffffffffffffffffffffffffffffffff168152602001908152602001600020548154811062002dfe5762002dfd620085c4565b5b906000526020600020906002020160000160009054906101000a900473ffffffffffffffffffffffffffffffffffffffff16905060006001600260008873ffffffffffffffffffffffffffffffffffffffff1673ffffffffffffffffffffffffffffffffffffffff168152602001908152602001600020548154811062002e8a5762002e89620085c4565b5b906000526020600020906002020160000160009054906101000a900473ffffffffffffffffffffffffffffffffffffffff16905060008054906101000a900473ffffffffffffffffffffffffffffffffffffffff1673ffffffffffffffffffffffffffffffffffffffff168773ffffffffffffffffffffffffffffffffffffffff161415801562002f66575060008054906101000a900473ffffffffffffffffffffffffffffffffffffffff1673ffffffffffffffffffffffffffffffffffffffff168673ffffffffffffffffffffffffffffffffffffffff16145b1562002f925762002f8462002f7c888462004394565b8887620060a0565b9250829350505050620030a4565b60008054906101000a900473ffffffffffffffffffffffffffffffffffffffff1673ffffffffffffffffffffffffffffffffffffffff168773ffffffffffffffffffffffffffffffffffffffff161480156200303a575060008054906101000a900473ffffffffffffffffffffffffffffffffffffffff1673ffffffffffffffffffffffffffffffffffffffff168673ffffffffffffffffffffffffffffffffffffffff1614155b1562003066576200305862003050878362004394565b8787620061ab565b9250829350505050620030a4565b60006200308062003078888462004394565b8888620061ab565b90506200309a62003092898562004394565b8983620060a0565b9350839450505050505b9392505050565b3373ffffffffffffffffffffffffffffffffffffffff16620030cc6200227b565b73ffffffffffffffffffffffffffffffffffffffff16146200311a576040517febf9845900000000000000000000000000000000000000000000000000000000815260040160405180910390fd5b816000600260008373ffffffffffffffffffffffffffffffffffffffff1673ffffffffffffffffffffffffffffffffffffffff168152602001908152602001600020541480620031b5575060008054906101000a900473ffffffffffffffffffffffffffffffffffffffff1673ffffffffffffffffffffffffffffffffffffffff168173ffffffffffffffffffffffffffffffffffffffff16145b15620031f8576040517f08c379a0000000000000000000000000000000000000000000000000000000008152600401620031ef9062008643565b60405180910390fd5b60006001600260008673ffffffffffffffffffffffffffffffffffffffff1673ffffffffffffffffffffffffffffffffffffffff168152602001908152602001600020548154811062003250576200324f620085c4565b5b90600052602060002090600202019050600062003292858360000160009054906101000a900473ffffffffffffffffffffffffffffffffffffffff1662004394565b9050838260010160106101000a8154816fffffffffffffffffffffffffffffffff02191690836fffffffffffffffffffffffffffffffff1602179055507f51ab1232a73b82b6b0acb0fa91b834cf6e258a1858c4e23c72ce97241c71aa0d8582600001518360200151876040516200330e949392919062008818565b60405180910390a15050505050565b3373ffffffffffffffffffffffffffffffffffffffff166200333e6200227b565b73ffffffffffffffffffffffffffffffffffffffff16146200338c576040517febf9845900000000000000000000000000000000000000000000000000000000815260040160405180910390fd5b620033ad8484846fffffffffffffffffffffffffffffffff801685620051f5565b50505050565b6000600f60008473ffffffffffffffffffffffffffffffffffffffff1673ffffffffffffffffffffffffffffffffffffffff16815260200190815260200160002060008373ffffffffffffffffffffffffffffffffffffffff1673ffffffffffffffffffffffffffffffffffffffff16815260200190815260200160002060009054906101000a900460ff16905092915050565b83600460006101000a81548173ffffffffffffffffffffffffffffffffffffffff021916908373ffffffffffffffffffffffffffffffffffffffff160217905550826000806101000a81548173ffffffffffffffffffffffffffffffffffffffff021916908373ffffffffffffffffffffffffffffffffffffffff16021790555081600560006101000a81548173ffffffffffffffffffffffffffffffffffffffff021916908373ffffffffffffffffffffffffffffffffffffffff1602179055506200351362002c1b565b5050505050565b600062003528600362000d27565b90508073ffffffffffffffffffffffffffffffffffffffff1663eef84ba16040518163ffffffff1660e01b8152600401600060405180830381600087803b1580156200357357600080fd5b505af115801562003588573d6000803e3d6000fd5b505050503373ffffffffffffffffffffffffffffffffffffffff168773ffffffffffffffffffffffffffffffffffffffff1614158015620035d25750620035d08733620033b3565b155b156200360a576040517f6f34aaa800000000000000000000000000000000000000000000000000000000815260040160405180910390fd5b6200361a878787878787620062ad565b50505050505050565b3373ffffffffffffffffffffffffffffffffffffffff16620036446200227b565b73ffffffffffffffffffffffffffffffffffffffff161462003692576040517febf9845900000000000000000000000000000000000000000000000000000000815260040160405180910390fd5b600073ffffffffffffffffffffffffffffffffffffffff168173ffffffffffffffffffffffffffffffffffffffff161415620036fa576040517f5868b79d00000000000000000000000000000000000000000000000000000000815260040160405180910390fd5b620037058162004d44565b50565b6060828042111562003751576040517f08c379a00000000000000000000000000000000000000000000000000000000081526004016200374890620086b5565b60405180910390fd5b60006001600260008b73ffffffffffffffffffffffffffffffffffffffff1673ffffffffffffffffffffffffffffffffffffffff1681526020019081526020016000205481548110620037a957620037a8620085c4565b5b906000526020600020906002020160000160009054906101000a900473ffffffffffffffffffffffffffffffffffffffff16905060006001600260008b73ffffffffffffffffffffffffffffffffffffffff1673ffffffffffffffffffffffffffffffffffffffff1681526020019081526020016000205481548110620038355762003834620085c4565b5b906000526020600020906002020160000160009054906101000a900473ffffffffffffffffffffffffffffffffffffffff1690506000600267ffffffffffffffff81111562003889576200388862007784565b5b604051908082528060200260200182016040528015620038b85781602001602082028036833780820191505090505b5090508881600181518110620038d357620038d2620085c4565b5b60200260200101818152505060008054906101000a900473ffffffffffffffffffffffffffffffffffffffff1673ffffffffffffffffffffffffffffffffffffffff168b73ffffffffffffffffffffffffffffffffffffffff161415801562003987575060008054906101000a900473ffffffffffffffffffffffffffffffffffffffff1673ffffffffffffffffffffffffffffffffffffffff168a73ffffffffffffffffffffffffffffffffffffffff16145b1562003ade5760006200399b8c8562004394565b9050620039aa818d8c620060a0565b82600081518110620039c157620039c0620085c4565b5b6020026020010181815250508882600081518110620039e557620039e4620085c4565b5b6020026020010151111562003a31576040517f08c379a000000000000000000000000000000000000000000000000000000000815260040162003a289062008b7f565b60405180910390fd5b60018260008151811062003a4a5762003a49620085c4565b5b60200260200101511162003a95576040517f08c379a000000000000000000000000000000000000000000000000000000000815260040162003a8c9062008762565b60405180910390fd5b62003ac18c33868560008151811062003ab35762003ab2620085c4565b5b6020026020010151620043f1565b62003ad18c8260008d8b6200584a565b8195505050505062003fcc565b60008054906101000a900473ffffffffffffffffffffffffffffffffffffffff1673ffffffffffffffffffffffffffffffffffffffff168b73ffffffffffffffffffffffffffffffffffffffff1614801562003b86575060008054906101000a900473ffffffffffffffffffffffffffffffffffffffff1673ffffffffffffffffffffffffffffffffffffffff168a73ffffffffffffffffffffffffffffffffffffffff1614155b1562003cdd57600062003b9a8b8462004394565b905062003ba9818c8c620061ab565b8260008151811062003bc05762003bbf620085c4565b5b602002602001018181525050888260008151811062003be45762003be3620085c4565b5b6020026020010151111562003c30576040517f08c379a000000000000000000000000000000000000000000000000000000000815260040162003c279062008bf1565b60405180910390fd5b60018260008151811062003c495762003c48620085c4565b5b60200260200101511162003c94576040517f08c379a000000000000000000000000000000000000000000000000000000000815260040162003c8b9062008c63565b60405180910390fd5b62003cc08c33858560008151811062003cb25762003cb1620085c4565b5b6020026020010151620043f1565b62003cd08b828c60008b6200584a565b8195505050505062003fcc565b60008054906101000a900473ffffffffffffffffffffffffffffffffffffffff1673ffffffffffffffffffffffffffffffffffffffff168b73ffffffffffffffffffffffffffffffffffffffff161415801562003d86575060008054906101000a900473ffffffffffffffffffffffffffffffffffffffff1673ffffffffffffffffffffffffffffffffffffffff168a73ffffffffffffffffffffffffffffffffffffffff1614155b801562003dbf57508973ffffffffffffffffffffffffffffffffffffffff168b73ffffffffffffffffffffffffffffffffffffffff1614155b1562003f8f57600062003dd38b8462004394565b9050600062003de4828d8d620061ab565b90506001811162003e2c576040517f08c379a000000000000000000000000000000000000000000000000000000000815260040162003e239062008c63565b60405180910390fd5b600062003e3a8e8762004394565b905062003e49818f84620060a0565b8460008151811062003e605762003e5f620085c4565b5b60200260200101818152505060018460008151811062003e855762003e84620085c4565b5b60200260200101511162003ed0576040517f08c379a000000000000000000000000000000000000000000000000000000000815260040162003ec79062008c63565b60405180910390fd5b8a8460008151811062003ee85762003ee7620085c4565b5b6020026020010151111562003f34576040517f08c379a000000000000000000000000000000000000000000000000000000000815260040162003f2b9062008b7f565b60405180910390fd5b62003f608e33888760008151811062003f525762003f51620085c4565b5b6020026020010151620043f1565b62003f708e82600085896200584a565b62003f808d848e60008d6200584a565b83975050505050505062003fcc565b6040517f08c379a000000000000000000000000000000000000000000000000000000000815260040162003fc39062008a6c565b60405180910390fd5b509695505050505050565b60008686905090508484905081146200401c576040517fa98a885900000000000000000000000000000000000000000000000000000000815260040160405180910390fd5b600073ffffffffffffffffffffffffffffffffffffffff168873ffffffffffffffffffffffffffffffffffffffff16141562004084576040517f3e63c34800000000000000000000000000000000000000000000000000000000815260040160405180910390fd5b600033905060005b82811015620042ad576000878783818110620040ad57620040ac620085c4565b5b9050602002013590506000600e60008c8c86818110620040d257620040d1620085c4565b5b90506020020135815260200190815260200160002060008e73ffffffffffffffffffffffffffffffffffffffff1673ffffffffffffffffffffffffffffffffffffffff1681526020019081526020016000205490508181101562004162576040517f5ad11ec200000000000000000000000000000000000000000000000000000000815260040160405180910390fd5b818103600e60008d8d878181106200417f576200417e620085c4565b5b90506020020135815260200190815260200160002060008f73ffffffffffffffffffffffffffffffffffffffff1673ffffffffffffffffffffffffffffffffffffffff1681526020019081526020016000208190555081600e60008d8d87818110620041f057620041ef620085c4565b5b90506020020135815260200190815260200160002060008e73ffffffffffffffffffffffffffffffffffffffff1673ffffffffffffffffffffffffffffffffffffffff168152602001908152602001600020600082825462004253919062008567565b9250508190555081601160008d8d87818110620042755762004274620085c4565b5b90506020020135815260200190815260200160002060008282540192505081905550505080620042a59062008519565b90506200408c565b508873ffffffffffffffffffffffffffffffffffffffff168a73ffffffffffffffffffffffffffffffffffffffff168273ffffffffffffffffffffffffffffffffffffffff167f4a39dc06d4c0dbc64b70af90fd698a233a518aa5d07e595d983b8c0526c8f7fb8b8b8b8b6040516200432a949392919062008ced565b60405180910390a462004388818b8b8b8b8b8b8b8b8080601f016020809104026020016040519081016040528093929190818152602001838380828437600081840152601f19601f8201169050808301925050505050505062006569565b50505050505050505050565b6200439e62006e3f565b6040518060400160405280620043b58585620066c2565b8152602001620043e660008054906101000a900473ffffffffffffffffffffffffffffffffffffffff1685620066c2565b815250905092915050565b6001811115806200442d57508173ffffffffffffffffffffffffffffffffffffffff168373ffffffffffffffffffffffffffffffffffffffff16145b1562004439576200465f565b600660009054906101000a900473ffffffffffffffffffffffffffffffffffffffff1673ffffffffffffffffffffffffffffffffffffffff168473ffffffffffffffffffffffffffffffffffffffff16148015620044c257503373ffffffffffffffffffffffffffffffffffffffff168373ffffffffffffffffffffffffffffffffffffffff16145b15620045495760004790508181101562004513576040517f08c379a00000000000000000000000000000000000000000000000000000000081526004016200450a9062008d7c565b60405180910390fd5b818111156200453657620045353383836200452f9190620086d7565b620067cc565b5b620045428383620067cc565b506200465f565b600660009054906101000a900473ffffffffffffffffffffffffffffffffffffffff1673ffffffffffffffffffffffffffffffffffffffff168473ffffffffffffffffffffffffffffffffffffffff16148015620045d357503373ffffffffffffffffffffffffffffffffffffffff168373ffffffffffffffffffffffffffffffffffffffff1614155b1562004650578273ffffffffffffffffffffffffffffffffffffffff16631b9a91a483836040518363ffffffff1660e01b815260040162004616929190620087eb565b600060405180830381600087803b1580156200463157600080fd5b505af115801562004646573d6000803e3d6000fd5b505050506200465f565b6200465e84848484620068cc565b5b50505050565b60006003821115620046da5781905060006001600284620046879190620087b3565b62004693919062008567565b90505b81811015620046d3578091506002818285620046b39190620087b3565b620046bf919062008567565b620046cb9190620087b3565b905062004696565b50620046e9565b60008214620046e857600190505b5b919050565b6000806000600760010154905085851180156200470b5750600086115b8015620047185750600081115b156200478b5780866200472c919062007ff9565b8160646200473b9190620086d7565b8662004748919062007ff9565b62004754919062008567565b8686620047629190620086d7565b828662004770919062007ff9565b6200477c919062007ff9565b620047889190620087b3565b91505b81925050509392505050565b600073ffffffffffffffffffffffffffffffffffffffff168473ffffffffffffffffffffffffffffffffffffffff161415620047ff576040517ff84619ac00000000000000000000000000000000000000000000000000000000815260040160405180910390fd5b60008214156200480f5762004932565b60003390508260116000868152602001908152602001600020600082825462004839919062008567565b9250508190555082600e600086815260200190815260200160002060008773ffffffffffffffffffffffffffffffffffffffff1673ffffffffffffffffffffffffffffffffffffffff168152602001908152602001600020600082825401925050819055508473ffffffffffffffffffffffffffffffffffffffff16600073ffffffffffffffffffffffffffffffffffffffff168273ffffffffffffffffffffffffffffffffffffffff167fc3d58168c5ae7397731d063d5bbf3d657854427343f4c083240f7aacaa2d0f6287876040516200491792919062008d9e565b60405180910390a4620049308160008787878762006a07565b505b50505050565b6000826000600260008373ffffffffffffffffffffffffffffffffffffffff1673ffffffffffffffffffffffffffffffffffffffff168152602001908152602001600020541480620049d5575060008054906101000a900473ffffffffffffffffffffffffffffffffffffffff1673ffffffffffffffffffffffffffffffffffffffff168173ffffffffffffffffffffffffffffffffffffffff16145b1562004a18576040517f08c379a000000000000000000000000000000000000000000000000000000000815260040162004a0f9062008643565b60405180910390fd5b62004a39838660000151876020015162004a33888a62004b45565b62006b5a565b9150509392505050565b6000826000600260008373ffffffffffffffffffffffffffffffffffffffff1673ffffffffffffffffffffffffffffffffffffffff16815260200190815260200160002054148062004ae0575060008054906101000a900473ffffffffffffffffffffffffffffffffffffffff1673ffffffffffffffffffffffffffffffffffffffff168173ffffffffffffffffffffffffffffffffffffffff16145b1562004b23576040517f08c379a000000000000000000000000000000000000000000000000000000000815260040162004b1a9062008643565b60405180910390fd5b62004b3b838660200151876000015161271062006b5a565b9150509392505050565b60008062004b5262006bb5565b90506000806007600601548362004b6a9190620086d7565b90505b8281101562004c1d57600360008773ffffffffffffffffffffffffffffffffffffffff1673ffffffffffffffffffffffffffffffffffffffff168152602001908152602001600020600082815260200190815260200160002060000160029054906101000a90046fffffffffffffffffffffffffffffffff166fffffffffffffffffffffffffffffffff168262004c05919062008567565b9150808062004c149062008519565b91505062004b6d565b5060006402540be400600760040154866020015162004c3d919062007ff9565b62004c499190620087b3565b905060006402540be400600760050154876020015162004c6a919062007ff9565b62004c769190620087b3565b905081831162004ca15760076003015461271062004c959190620086d7565b94505050505062004d3e565b80831062004cca5760076002015461271062004cbe9190620086d7565b94505050505062004d3e565b818162004cd89190620086d7565b60076002015460076003015462004cf09190620086d7565b838562004cfe9190620086d7565b62004d0a919062007ff9565b62004d169190620087b3565b60076003015461271062004d2b9190620086d7565b62004d37919062008567565b9450505050505b92915050565b6000601560009054906101000a900473ffffffffffffffffffffffffffffffffffffffff16905081601560006101000a81548173ffffffffffffffffffffffffffffffffffffffff021916908373ffffffffffffffffffffffffffffffffffffffff1602179055508173ffffffffffffffffffffffffffffffffffffffff168173ffffffffffffffffffffffffffffffffffffffff167f8be0079c531659141344cd1fd0a4f28419497f9722a3daafe3b4186f6b6457e060405160405180910390a35050565b600080600260008673ffffffffffffffffffffffffffffffffffffffff1673ffffffffffffffffffffffffffffffffffffffff16815260200190815260200160002054905060006001828154811062004e685762004e67620085c4565b5b90600052602060002090600202019050600062004eaa878360000160009054906101000a900473ffffffffffffffffffffffffffffffffffffffff1662004394565b905060006011600085815260200190815260200160002054905060008188846000015162004ed9919062007ff9565b62004ee59190620087b3565b905060008289856020015162004efc919062007ff9565b62004f089190620087b3565b9050600062004f2c8560200151866000015162004f26919062007ff9565b62004665565b9050600062004f6f8760010160009054906101000a90046fffffffffffffffffffffffffffffffff166fffffffffffffffffffffffffffffffff168387620046ee565b905062004fb3600760000160009054906101000a900473ffffffffffffffffffffffffffffffffffffffff1689836040518060200160405280600081525062004797565b6000604051806040016040528086896000015162004fd29190620086d7565b815260200185896020015162004fe99190620086d7565b81525090506200500e8160200151826000015162005008919062007ff9565b62004665565b8860010160006101000a8154816fffffffffffffffffffffffffffffffff02191690836fffffffffffffffffffffffffffffffff16021790555062005055338a8e62006bcc565b60008054906101000a900473ffffffffffffffffffffffffffffffffffffffff1673ffffffffffffffffffffffffffffffffffffffff166318a8ad878960000160009054906101000a900473ffffffffffffffffffffffffffffffffffffffff16866040518363ffffffff1660e01b8152600401620050d6929190620087eb565b600060405180830381600087803b158015620050f157600080fd5b505af115801562005106573d6000803e3d6000fd5b505050506200513c8d8960000160009054906101000a900473ffffffffffffffffffffffffffffffffffffffff168d88620043f1565b7f1dc8bb69df2b8e91fbdcbfcf93d951b3f0000f085a95fe3f7946d6161439245d8d86868f60405162005173949392919062008818565b60405180910390a17f51ab1232a73b82b6b0acb0fa91b834cf6e258a1858c4e23c72ce97241c71aa0d8d826000015183602001518b60010160109054906101000a90046fffffffffffffffffffffffffffffffff16604051620051da94939291906200889e565b60405180910390a18499505050505050505050509392505050565b846000600260008373ffffffffffffffffffffffffffffffffffffffff1673ffffffffffffffffffffffffffffffffffffffff16815260200190815260200160002054111562005271576040517f402670df00000000000000000000000000000000000000000000000000000000815260040160405180910390fd5b60008660008054906101000a900473ffffffffffffffffffffffffffffffffffffffff16600660009054906101000a900473ffffffffffffffffffffffffffffffffffffffff1673ffffffffffffffffffffffffffffffffffffffff168973ffffffffffffffffffffffffffffffffffffffff1614604051620052f49062006fce565b620053029392919062008dcb565b604051809103906000f0801580156200531f573d6000803e3d6000fd5b5090506200533087338389620043f1565b60008054906101000a900473ffffffffffffffffffffffffffffffffffffffff1673ffffffffffffffffffffffffffffffffffffffff16630bb9ff5d82876040518363ffffffff1660e01b81526004016200538d929190620087eb565b600060405180830381600087803b158015620053a857600080fd5b505af1158015620053bd573d6000803e3d6000fd5b50505050620053cd8782620066c2565b95506001861162005415576040517f08c379a00000000000000000000000000000000000000000000000000000000081526004016200540c9062008762565b60405180910390fd5b60006200542f868862005429919062007ff9565b62004665565b9050600060405180606001604052808473ffffffffffffffffffffffffffffffffffffffff168152602001836fffffffffffffffffffffffffffffffff168152602001876fffffffffffffffffffffffffffffffff16815250905060006001805490509050600182908060018154018082558091505060019003906000526020600020906002020160009091909190915060008201518160000160006101000a81548173ffffffffffffffffffffffffffffffffffffffff021916908373ffffffffffffffffffffffffffffffffffffffff16021790555060208201518160010160006101000a8154816fffffffffffffffffffffffffffffffff02191690836fffffffffffffffffffffffffffffffff16021790555060408201518160010160106101000a8154816fffffffffffffffffffffffffffffffff02191690836fffffffffffffffffffffffffffffffff160217905550505080600260008c73ffffffffffffffffffffffffffffffffffffffff1673ffffffffffffffffffffffffffffffffffffffff16815260200190815260200160002081905550620055ec61dead826103e86040518060200160405280600081525062004797565b60006103e884620055fe9190620086d7565b90506200561d8783836040518060200160405280600081525062004797565b7f641e49906554552c8c33d7e09e02d1270590f405bc1da0c7b99a9c2808abdd058b8360405162005650929190620087eb565b60405180910390a17f64b83944e79c3ce8d4c297411de637c3e102d064677aac0c163976ebdcd6f50e8b8b8b846040516200568f949392919062008818565b60405180910390a17f51ab1232a73b82b6b0acb0fa91b834cf6e258a1858c4e23c72ce97241c71aa0d8b8b8b8b604051620056ce949392919062008818565b60405180910390a15050505050505050505050565b8173ffffffffffffffffffffffffffffffffffffffff168373ffffffffffffffffffffffffffffffffffffffff1614156200574a576040517fc0532dc800000000000000000000000000000000000000000000000000000000815260040160405180910390fd5b80600f60008573ffffffffffffffffffffffffffffffffffffffff1673ffffffffffffffffffffffffffffffffffffffff16815260200190815260200160002060008473ffffffffffffffffffffffffffffffffffffffff1673ffffffffffffffffffffffffffffffffffffffff16815260200190815260200160002060006101000a81548160ff0219169083151502179055508173ffffffffffffffffffffffffffffffffffffffff168373ffffffffffffffffffffffffffffffffffffffff167f17307eab39ab6107e8899845ad3d59bd9653f200f220920489ca2b5937696c31836040516200583d919062007229565b60405180910390a3505050565b846000600260008373ffffffffffffffffffffffffffffffffffffffff1673ffffffffffffffffffffffffffffffffffffffff168152602001908152602001600020541480620058e5575060008054906101000a900473ffffffffffffffffffffffffffffffffffffffff1673ffffffffffffffffffffffffffffffffffffffff168173ffffffffffffffffffffffffffffffffffffffff16145b1562005928576040517f08c379a00000000000000000000000000000000000000000000000000000000081526004016200591f9062008643565b60405180910390fd5b60006001600260008973ffffffffffffffffffffffffffffffffffffffff1673ffffffffffffffffffffffffffffffffffffffff168152602001908152602001600020548154811062005980576200597f620085c4565b5b906000526020600020906002020190506000620059c2888360000160009054906101000a900473ffffffffffffffffffffffffffffffffffffffff1662004394565b9050600087602001518260200151620059dc9190620086d7565b9050600088600001518360000151620059f69190620086d7565b90506001828262005a08919062008567565b1162005a4b576040517f08c379a000000000000000000000000000000000000000000000000000000000815260040162005a429062008e58565b60405180910390fd5b6fffffffffffffffffffffffffffffffff80168460010160109054906101000a90046fffffffffffffffffffffffffffffffff166fffffffffffffffffffffffffffffffff1610801562005add575086828560010160109054906101000a90046fffffffffffffffffffffffffffffffff166fffffffffffffffffffffffffffffffff1662005adb919062008567565b105b1562005b20576040517f08c379a000000000000000000000000000000000000000000000000000000000815260040162005b179062008eca565b60405180910390fd5b600062005b2c62006bb5565b905060006127109050600089111562005c9d576000600360008e73ffffffffffffffffffffffffffffffffffffffff1673ffffffffffffffffffffffffffffffffffffffff168152602001908152602001600020600084815260200190815260200160002060000160009054906101000a900461ffff1661ffff16148062005bb4575060003a145b1562005c345762005bc68c8c62004b45565b600360008e73ffffffffffffffffffffffffffffffffffffffff1673ffffffffffffffffffffffffffffffffffffffff168152602001908152602001600020600084815260200190815260200160002060000160006101000a81548161ffff021916908361ffff1602179055505b600360008d73ffffffffffffffffffffffffffffffffffffffff1673ffffffffffffffffffffffffffffffffffffffff168152602001908152602001600020600083815260200190815260200160002060000160009054906101000a900461ffff1661ffff1690505b60008161271062005caf9190620086d7565b8462005cbc919062007ff9565b612710876000015162005cd0919062007ff9565b62005cdc9190620086d7565b8261271062005cec9190620086d7565b8662005cf9919062007ff9565b612710886020015162005d0d919062007ff9565b62005d199190620086d7565b62005d25919062007ff9565b90506127108062005d37919062007ff9565b8c602001518d6000015162005d4d919062007ff9565b62005d59919062007ff9565b81101562005d9e576040517f08c379a000000000000000000000000000000000000000000000000000000000815260040162005d959062008f3c565b60405180910390fd5b6fffffffffffffffffffffffffffffffff80168760010160109054906101000a90046fffffffffffffffffffffffffffffffff166fffffffffffffffffffffffffffffffff16101562005e735789858860010160109054906101000a90046fffffffffffffffffffffffffffffffff166fffffffffffffffffffffffffffffffff1662005e2c919062008567565b62005e389190620086d7565b8760010160106101000a8154816fffffffffffffffffffffffffffffffff02191690836fffffffffffffffffffffffffffffffff1602179055505b60018a111562005f345789600360008f73ffffffffffffffffffffffffffffffffffffffff1673ffffffffffffffffffffffffffffffffffffffff168152602001908152602001600020600085815260200190815260200160002060000160028282829054906101000a90046fffffffffffffffffffffffffffffffff1662005efd9190620088eb565b92506101000a8154816fffffffffffffffffffffffffffffffff02191690836fffffffffffffffffffffffffffffffff1602179055505b5062005f678c8760000160009054906101000a900473ffffffffffffffffffffffffffffffffffffffff168a8d620043f1565b62005fb960008054906101000a900473ffffffffffffffffffffffffffffffffffffffff168760000160009054906101000a900473ffffffffffffffffffffffffffffffffffffffff168a8c620043f1565b7f4ab7f3f4678bf8f6cbe4d85e4007b7c64df8e1d5d97de1628f4a6416f9d1db038c3385878e8e8761271062005ff09190620086d7565b8f6040516200600798979695949392919062008f5e565b60405180910390a17f51ab1232a73b82b6b0acb0fa91b834cf6e258a1858c4e23c72ce97241c71aa0d8c866000015187602001518960010160109054906101000a90046fffffffffffffffffffffffffffffffff166040516200606e94939291906200889e565b60405180910390a1505050505050505050505050565b80601090805190602001906200609c92919062006e59565b5050565b6000826000600260008373ffffffffffffffffffffffffffffffffffffffff1673ffffffffffffffffffffffffffffffffffffffff1681526020019081526020016000205414806200613d575060008054906101000a900473ffffffffffffffffffffffffffffffffffffffff1673ffffffffffffffffffffffffffffffffffffffff168173ffffffffffffffffffffffffffffffffffffffff16145b1562006180576040517f08c379a0000000000000000000000000000000000000000000000000000000008152600401620061779062008643565b60405180910390fd5b620061a183866000015187602001516200619b888a62004b45565b62006dc9565b9150509392505050565b6000826000600260008373ffffffffffffffffffffffffffffffffffffffff1673ffffffffffffffffffffffffffffffffffffffff16815260200190815260200160002054148062006248575060008054906101000a900473ffffffffffffffffffffffffffffffffffffffff1673ffffffffffffffffffffffffffffffffffffffff168173ffffffffffffffffffffffffffffffffffffffff16145b156200628b576040517f08c379a0000000000000000000000000000000000000000000000000000000008152600401620062829062008643565b60405180910390fd5b620062a3838660200151876000015161271062006dc9565b9150509392505050565b600073ffffffffffffffffffffffffffffffffffffffff168573ffffffffffffffffffffffffffffffffffffffff16141562006315576040517f3e63c34800000000000000000000000000000000000000000000000000000000815260040160405180910390fd5b60003390506000600e600087815260200190815260200160002060008973ffffffffffffffffffffffffffffffffffffffff1673ffffffffffffffffffffffffffffffffffffffff16815260200190815260200160002054905084811015620063aa576040517f5ad11ec200000000000000000000000000000000000000000000000000000000815260040160405180910390fd5b848103600e600088815260200190815260200160002060008a73ffffffffffffffffffffffffffffffffffffffff1673ffffffffffffffffffffffffffffffffffffffff1681526020019081526020016000208190555084600e600088815260200190815260200160002060008973ffffffffffffffffffffffffffffffffffffffff1673ffffffffffffffffffffffffffffffffffffffff168152602001908152602001600020600082825462006463919062008567565b925050819055508460116000888152602001908152602001600020600082825401925050819055508673ffffffffffffffffffffffffffffffffffffffff168873ffffffffffffffffffffffffffffffffffffffff168373ffffffffffffffffffffffffffffffffffffffff167fc3d58168c5ae7397731d063d5bbf3d657854427343f4c083240f7aacaa2d0f6289896040516200650392919062008d9e565b60405180910390a46200655f828989898989898080601f016020809104026020016040519081016040528093929190818152602001838380828437600081840152601f19601f8201169050808301925050505050505062006a07565b5050505050505050565b620065748662006e2c565b15620066b8578573ffffffffffffffffffffffffffffffffffffffff1663bc197c81898988888888886040518863ffffffff1660e01b8152600401620065c1979695949392919062009049565b6020604051808303816000875af19250505080156200660057506040513d601f19601f82011682018060405250810190620065fd9190620090d6565b60015b62006637576040517f45d406b200000000000000000000000000000000000000000000000000000000815260040160405180910390fd5b63bc197c8160e01b7bffffffffffffffffffffffffffffffffffffffffffffffffffffffff1916817bffffffffffffffffffffffffffffffffffffffffffffffffffffffff191614620066b6576040517f2baa526e00000000000000000000000000000000000000000000000000000000815260040160405180910390fd5b505b5050505050505050565b600080600660009054906101000a900473ffffffffffffffffffffffffffffffffffffffff1673ffffffffffffffffffffffffffffffffffffffff168473ffffffffffffffffffffffffffffffffffffffff16141562006740578273ffffffffffffffffffffffffffffffffffffffff1631905080915050620067c6565b8373ffffffffffffffffffffffffffffffffffffffff166370a08231846040518263ffffffff1660e01b81526004016200677b919062007289565b602060405180830381865afa15801562006799573d6000803e3d6000fd5b505050506040513d601f19601f82011682018060405250810190620067bf91906200911f565b9050809150505b92915050565b60008273ffffffffffffffffffffffffffffffffffffffff1682600067ffffffffffffffff81111562006804576200680362007784565b5b6040519080825280601f01601f191660200182016040528015620068375781602001600182028036833780820191505090505b5060405162006847919062009193565b60006040518083038185875af1925050503d806000811462006886576040519150601f19603f3d011682016040523d82523d6000602084013e6200688b565b606091505b5050905080620068c7576040517f30667aab00000000000000000000000000000000000000000000000000000000815260040160405180910390fd5b505050565b6000808573ffffffffffffffffffffffffffffffffffffffff166323b872dd8686866040516024016200690293929190620091ac565b6040516020818303038152906040529060e01b6020820180517bffffffffffffffffffffffffffffffffffffffffffffffffffffffff838183161783525050505060405162006952919062009193565b6000604051808303816000865af19150503d806000811462006991576040519150601f19603f3d011682016040523d82523d6000602084013e62006996565b606091505b5091509150818015620069c85750600081511480620069c7575080806020019051810190620069c6919062009200565b5b5b620069ff576040517f6050fe2900000000000000000000000000000000000000000000000000000000815260040160405180910390fd5b505050505050565b62006a128462006e2c565b1562006b52578373ffffffffffffffffffffffffffffffffffffffff1663f23a6e6187878686866040518663ffffffff1660e01b815260040162006a5b95949392919062009232565b6020604051808303816000875af192505050801562006a9a57506040513d601f19601f8201168201806040525081019062006a979190620090d6565b60015b62006ad1576040517f45d406b200000000000000000000000000000000000000000000000000000000815260040160405180910390fd5b63f23a6e6160e01b7bffffffffffffffffffffffffffffffffffffffffffffffffffffffff1916817bffffffffffffffffffffffffffffffffffffffffffffffffffffffff19161462006b50576040517f2baa526e00000000000000000000000000000000000000000000000000000000815260040160405180910390fd5b505b505050505050565b600080828662006b6b919062007ff9565b90506000816127108762006b80919062007ff9565b62006b8c919062008567565b828662006b9a919062007ff9565b62006ba69190620087b3565b90508092505050949350505050565b6000610e104262006bc79190620087b3565b905090565b600073ffffffffffffffffffffffffffffffffffffffff168373ffffffffffffffffffffffffffffffffffffffff16141562006c34576040517fedba591d00000000000000000000000000000000000000000000000000000000815260040160405180910390fd5b60003390506000600e600085815260200190815260200160002060008673ffffffffffffffffffffffffffffffffffffffff1673ffffffffffffffffffffffffffffffffffffffff1681526020019081526020016000205490508281101562006cc9576040517f73eca78400000000000000000000000000000000000000000000000000000000815260040160405180910390fd5b828103600e600086815260200190815260200160002060008773ffffffffffffffffffffffffffffffffffffffff1673ffffffffffffffffffffffffffffffffffffffff16815260200190815260200160002081905550826011600086815260200190815260200160002060008282540392505081905550600073ffffffffffffffffffffffffffffffffffffffff168573ffffffffffffffffffffffffffffffffffffffff168373ffffffffffffffffffffffffffffffffffffffff167fc3d58168c5ae7397731d063d5bbf3d657854427343f4c083240f7aacaa2d0f62878760405162006dba92919062008d9e565b60405180910390a45050505050565b6000806001868562006ddc9190620086d7565b8462006de9919062007ff9565b612710888862006dfa919062007ff9565b62006e06919062007ff9565b62006e129190620087b3565b62006e1e919062008567565b905080915050949350505050565b600080823b905060008111915050919050565b604051806040016040528060008152602001600081525090565b82805462006e67906200838a565b90600052602060002090601f01602090048101928262006e8b576000855562006ed7565b82601f1062006ea657805160ff191683800117855562006ed7565b8280016001018555821562006ed7579182015b8281111562006ed657825182559160200191906001019062006eb9565b5b50905062006ee6919062006fdc565b5090565b6040518060e00160405280600073ffffffffffffffffffffffffffffffffffffffff1681526020016000815260200160008152602001600081526020016000815260200160008152602001600081525090565b82805462006f4b906200838a565b90600052602060002090601f01602090048101928262006f6f576000855562006fbb565b82601f1062006f8a57803560ff191683800117855562006fbb565b8280016001018555821562006fbb579182015b8281111562006fba57823582559160200191906001019062006f9d565b5b50905062006fca919062006fdc565b5090565b61089c806200929783390190565b5b8082111562006ff757600081600090555060010162006fdd565b5090565b6000604051905090565b600080fd5b600080fd5b600080fd5b600060e082840312156200702d576200702c6200700f565b5b81905092915050565b600060e082840312156200704f576200704e62007005565b5b60006200705f8482850162007014565b91505092915050565b600073ffffffffffffffffffffffffffffffffffffffff82169050919050565b6000620070958262007068565b9050919050565b620070a78162007088565b8114620070b357600080fd5b50565b600081359050620070c7816200709c565b92915050565b6000819050919050565b620070e281620070cd565b8114620070ee57600080fd5b50565b6000813590506200710281620070d7565b92915050565b6000806040838503121562007122576200712162007005565b5b60006200713285828601620070b6565b92505060206200714585828601620070f1565b9150509250929050565b6200715a81620070cd565b82525050565b60006020820190506200717760008301846200714f565b92915050565b60007fffffffff0000000000000000000000000000000000000000000000000000000082169050919050565b620071b4816200717d565b8114620071c057600080fd5b50565b600081359050620071d481620071a9565b92915050565b600060208284031215620071f357620071f262007005565b5b60006200720384828501620071c3565b91505092915050565b60008115159050919050565b62007223816200720c565b82525050565b600060208201905062007240600083018462007218565b92915050565b6000602082840312156200725f576200725e62007005565b5b60006200726f84828501620070f1565b91505092915050565b620072838162007088565b82525050565b6000602082019050620072a0600083018462007278565b92915050565b600081519050919050565b600082825260208201905092915050565b60005b83811015620072e2578082015181840152602081019050620072c5565b83811115620072f2576000848401525b50505050565b6000601f19601f8301169050919050565b60006200731682620072a6565b620073228185620072b1565b935062007334818560208601620072c2565b6200733f81620072f8565b840191505092915050565b6000602082019050818103600083015262007366818462007309565b905092915050565b600061ffff82169050919050565b62007387816200736e565b82525050565b60006fffffffffffffffffffffffffffffffff82169050919050565b620073b4816200738d565b82525050565b6000604082019050620073d160008301856200737c565b620073e06020830184620073a9565b9392505050565b600080fd5b600080fd5b600080fd5b60008083601f8401126200740f576200740e620073e7565b5b8235905067ffffffffffffffff8111156200742f576200742e620073ec565b5b6020830191508360208202830111156200744e576200744d620073f1565b5b9250929050565b60008083601f8401126200746e576200746d620073e7565b5b8235905067ffffffffffffffff8111156200748e576200748d620073ec565b5b602083019150836001820283011115620074ad57620074ac620073f1565b5b9250929050565b60008060008060008060008060a0898b031215620074d757620074d662007005565b5b6000620074e78b828c01620070b6565b9850506020620074fa8b828c01620070b6565b975050604089013567ffffffffffffffff8111156200751e576200751d6200700a565b5b6200752c8b828c01620073f6565b9650965050606089013567ffffffffffffffff8111156200755257620075516200700a565b5b620075608b828c01620073f6565b9450945050608089013567ffffffffffffffff8111156200758657620075856200700a565b5b620075948b828c0162007455565b92509250509295985092959890939650565b60008083601f840112620075bf57620075be620073e7565b5b8235905067ffffffffffffffff811115620075df57620075de620073ec565b5b602083019150836020820283011115620075fe57620075fd620073f1565b5b9250929050565b600080602083850312156200761f576200761e62007005565b5b600083013567ffffffffffffffff81111562007640576200763f6200700a565b5b6200764e85828601620075a6565b92509250509250929050565b600081519050919050565b600082825260208201905092915050565b6000819050602082019050919050565b6200769181620070cd565b82525050565b604082016000820151620076af600085018262007686565b506020820151620076c4602085018262007686565b50505050565b6000620076d8838362007697565b60408301905092915050565b6000602082019050919050565b6000620076fe826200765a565b6200770a818562007665565b9350620077178362007676565b8060005b838110156200774e578151620077328882620076ca565b97506200773f83620076e4565b9250506001810190506200771b565b5085935050505092915050565b60006020820190508181036000830152620077778184620076f1565b905092915050565b600080fd5b7f4e487b7100000000000000000000000000000000000000000000000000000000600052604160045260246000fd5b620077be82620072f8565b810181811067ffffffffffffffff82111715620077e057620077df62007784565b5b80604052505050565b6000620077f562006ffb565b9050620078038282620077b3565b919050565b600067ffffffffffffffff82111562007826576200782562007784565b5b6200783182620072f8565b9050602081019050919050565b82818337600083830152505050565b6000620078646200785e8462007808565b620077e9565b9050828152602081018484840111156200788357620078826200777f565b5b620078908482856200783e565b509392505050565b600082601f830112620078b057620078af620073e7565b5b8135620078c28482602086016200784d565b91505092915050565b60008060408385031215620078e557620078e462007005565b5b600083013567ffffffffffffffff8111156200790657620079056200700a565b5b620079148582860162007898565b925050602083013567ffffffffffffffff8111156200793857620079376200700a565b5b620079468582860162007898565b9150509250929050565b600080600080608085870312156200796d576200796c62007005565b5b60006200797d87828801620070b6565b94505060206200799087828801620070f1565b9350506040620079a387828801620070f1565b9250506060620079b687828801620070b6565b91505092959194509250565b600080600060608486031215620079de57620079dd62007005565b5b6000620079ee86828701620070b6565b935050602062007a0186828701620070b6565b925050604062007a1486828701620070f1565b9150509250925092565b60006020828403121562007a375762007a3662007005565b5b600062007a4784828501620070b6565b91505092915050565b6000806000806040858703121562007a6d5762007a6c62007005565b5b600085013567ffffffffffffffff81111562007a8e5762007a8d6200700a565b5b62007a9c87828801620075a6565b9450945050602085013567ffffffffffffffff81111562007ac25762007ac16200700a565b5b62007ad087828801620073f6565b925092505092959194509250565b600081519050919050565b600082825260208201905092915050565b6000819050602082019050919050565b600062007b18838362007686565b60208301905092915050565b6000602082019050919050565b600062007b3e8262007ade565b62007b4a818562007ae9565b935062007b578362007afa565b8060005b8381101562007b8e57815162007b72888262007b0a565b975062007b7f8362007b24565b92505060018101905062007b5b565b5085935050505092915050565b6000602082019050818103600083015262007bb7818462007b31565b905092915050565b62007bca8162007088565b82525050565b60e08201600082015162007be8600085018262007bbf565b50602082015162007bfd602085018262007686565b50604082015162007c12604085018262007686565b50606082015162007c27606085018262007686565b50608082015162007c3c608085018262007686565b5060a082015162007c5160a085018262007686565b5060c082015162007c6660c085018262007686565b50505050565b600060e08201905062007c83600083018462007bd0565b92915050565b62007c94816200720c565b811462007ca057600080fd5b50565b60008135905062007cb48162007c89565b92915050565b6000806040838503121562007cd45762007cd362007005565b5b600062007ce485828601620070b6565b925050602062007cf78582860162007ca3565b9150509250929050565b60008060008060008060c0878903121562007d215762007d2062007005565b5b600062007d3189828a01620070b6565b965050602062007d4489828a01620070b6565b955050604062007d5789828a01620070f1565b945050606062007d6a89828a01620070f1565b935050608062007d7d89828a01620070f1565b92505060a062007d9089828a01620070b6565b9150509295509295509295565b60008083601f84011262007db65762007db5620073e7565b5b8235905067ffffffffffffffff81111562007dd65762007dd5620073ec565b5b60208301915083600182028301111562007df55762007df4620073f1565b5b9250929050565b6000806020838503121562007e165762007e1562007005565b5b600083013567ffffffffffffffff81111562007e375762007e366200700a565b5b62007e458582860162007d9d565b92509250509250929050565b6000806040838503121562007e6b5762007e6a62007005565b5b600062007e7b85828601620070b6565b925050602062007e8e85828601620070b6565b9150509250929050565b600080600080600060a0868803121562007eb75762007eb662007005565b5b600062007ec788828901620070b6565b955050602062007eda88828901620070b6565b945050604062007eed88828901620070b6565b935050606062007f0088828901620070b6565b925050608062007f1388828901620070b6565b9150509295509295909350565b60008060008060008060a0878903121562007f405762007f3f62007005565b5b600062007f5089828a01620070b6565b965050602062007f6389828a01620070b6565b955050604062007f7689828a01620070f1565b945050606062007f8989828a01620070f1565b935050608087013567ffffffffffffffff81111562007fad5762007fac6200700a565b5b62007fbb89828a0162007455565b92509250509295509295509295565b7f4e487b7100000000000000000000000000000000000000000000000000000000600052601160045260246000fd5b60006200800682620070cd565b91506200801383620070cd565b9250817fffffffffffffffffffffffffffffffffffffffffffffffffffffffffffffffff04831182151516156200804f576200804e62007fca565b5b828202905092915050565b6000813562008069816200709c565b80915050919050565b60008160001b9050919050565b600073ffffffffffffffffffffffffffffffffffffffff620080a18462008072565b9350801983169250808416831791505092915050565b6000819050919050565b6000620080e2620080dc620080d68462007068565b620080b7565b62007068565b9050919050565b6000620080f682620080c1565b9050919050565b60006200810a82620080e9565b9050919050565b6000819050919050565b6200812682620080fd565b6200813d620081358262008111565b83546200807f565b8255505050565b600081356200815381620070d7565b80915050919050565b60007fffffffffffffffffffffffffffffffffffffffffffffffffffffffffffffffff6200818a8462008072565b9350801983169250808416831791505092915050565b6000620081c1620081bb620081b584620070cd565b620080b7565b620070cd565b9050919050565b6000819050919050565b620081dd82620081a0565b620081f4620081ec82620081c8565b83546200815c565b8255505050565b6000810160008301806200820f816200805a565b90506200821d81846200811b565b505050600181016020830180620082348162008144565b9050620082428184620081d2565b505050600281016040830180620082598162008144565b9050620082678184620081d2565b5050506003810160608301806200827e8162008144565b90506200828c8184620081d2565b505050600481016080830180620082a38162008144565b9050620082b18184620081d2565b5050506005810160a0830180620082c88162008144565b9050620082d68184620081d2565b5050506006810160c0830180620082ed8162008144565b9050620082fb8184620081d2565b5050505050565b6200830e8282620081fb565b5050565b60008151905062008323816200709c565b92915050565b60006020828403121562008342576200834162007005565b5b6000620083528482850162008312565b91505092915050565b7f4e487b7100000000000000000000000000000000000000000000000000000000600052602260045260246000fd5b60006002820490506001821680620083a357607f821691505b60208210811415620083ba57620083b96200835b565b5b50919050565b600081905092915050565b60008190508160005260206000209050919050565b60008154620083ef816200838a565b620083fb8186620083c0565b945060018216600081146200841957600181146200842b5762008462565b60ff1983168652818601935062008462565b6200843685620083cb565b60005b838110156200845a5781548189015260018201915060208101905062008439565b838801955050505b50505092915050565b6000819050919050565b6200848a6200848482620070cd565b6200846b565b82525050565b7f2e6a736f6e000000000000000000000000000000000000000000000000000000600082015250565b6000620084c8600583620083c0565b9150620084d58262008490565b600582019050919050565b6000620084ee8285620083e0565b9150620084fc828462008475565b6020820191506200850d82620084b9565b91508190509392505050565b60006200852682620070cd565b91507fffffffffffffffffffffffffffffffffffffffffffffffffffffffffffffffff8214156200855c576200855b62007fca565b5b600182019050919050565b60006200857482620070cd565b91506200858183620070cd565b9250827fffffffffffffffffffffffffffffffffffffffffffffffffffffffffffffffff03821115620085b957620085b862007fca565b5b828201905092915050565b7f4e487b7100000000000000000000000000000000000000000000000000000000600052603260045260246000fd5b7f4300000000000000000000000000000000000000000000000000000000000000600082015250565b60006200862b600183620072b1565b91506200863882620085f3565b602082019050919050565b600060208201905081810360008301526200865e816200861c565b9050919050565b7f4400000000000000000000000000000000000000000000000000000000000000600082015250565b60006200869d600183620072b1565b9150620086aa8262008665565b602082019050919050565b60006020820190508181036000830152620086d0816200868e565b9050919050565b6000620086e482620070cd565b9150620086f183620070cd565b92508282101562008707576200870662007fca565b5b828203905092915050565b7f4600000000000000000000000000000000000000000000000000000000000000600082015250565b60006200874a600183620072b1565b9150620087578262008712565b602082019050919050565b600060208201905081810360008301526200877d816200873b565b9050919050565b7f4e487b7100000000000000000000000000000000000000000000000000000000600052601260045260246000fd5b6000620087c082620070cd565b9150620087cd83620070cd565b925082620087e057620087df62008784565b5b828204905092915050565b600060408201905062008802600083018562007278565b6200881160208301846200714f565b9392505050565b60006080820190506200882f600083018762007278565b6200883e60208301866200714f565b6200884d60408301856200714f565b6200885c60608301846200714f565b95945050505050565b600062008886620088806200887a846200738d565b620080b7565b620070cd565b9050919050565b620088988162008865565b82525050565b6000608082019050620088b5600083018762007278565b620088c460208301866200714f565b620088d360408301856200714f565b620088e260608301846200888d565b95945050505050565b6000620088f8826200738d565b915062008905836200738d565b9250826fffffffffffffffffffffffffffffffff038211156200892d576200892c62007fca565b5b828201905092915050565b7f4800000000000000000000000000000000000000000000000000000000000000600082015250565b600062008970600183620072b1565b91506200897d8262008938565b602082019050919050565b60006020820190508181036000830152620089a38162008961565b9050919050565b7f6900000000000000000000000000000000000000000000000000000000000000600082015250565b6000620089e2600183620072b1565b9150620089ef82620089aa565b602082019050919050565b6000602082019050818103600083015262008a1581620089d3565b9050919050565b7f4c00000000000000000000000000000000000000000000000000000000000000600082015250565b600062008a54600183620072b1565b915062008a618262008a1c565b602082019050919050565b6000602082019050818103600083015262008a878162008a45565b9050919050565b600062008a9c8385620083c0565b935062008aab8385846200783e565b82840190509392505050565b7f7b69647d2e6a736f6e0000000000000000000000000000000000000000000000600082015250565b600062008aef600983620083c0565b915062008afc8262008ab7565b600982019050919050565b600062008b1682848662008a8e565b915062008b238262008ae0565b91508190509392505050565b7f4b00000000000000000000000000000000000000000000000000000000000000600082015250565b600062008b67600183620072b1565b915062008b748262008b2f565b602082019050919050565b6000602082019050818103600083015262008b9a8162008b58565b9050919050565b7f4a00000000000000000000000000000000000000000000000000000000000000600082015250565b600062008bd9600183620072b1565b915062008be68262008ba1565b602082019050919050565b6000602082019050818103600083015262008c0c8162008bca565b9050919050565b7f5500000000000000000000000000000000000000000000000000000000000000600082015250565b600062008c4b600183620072b1565b915062008c588262008c13565b602082019050919050565b6000602082019050818103600083015262008c7e8162008c3c565b9050919050565b600080fd5b600062008c98838562007ae9565b93507f07ffffffffffffffffffffffffffffffffffffffffffffffffffffffffffffff83111562008cce5762008ccd62008c85565b5b60208302925062008ce18385846200783e565b82840190509392505050565b6000604082019050818103600083015262008d0a81868862008c8a565b9050818103602083015262008d2181848662008c8a565b905095945050505050565b7f6173640000000000000000000000000000000000000000000000000000000000600082015250565b600062008d64600383620072b1565b915062008d718262008d2c565b602082019050919050565b6000602082019050818103600083015262008d978162008d55565b9050919050565b600060408201905062008db560008301856200714f565b62008dc460208301846200714f565b9392505050565b600060608201905062008de2600083018662007278565b62008df1602083018562007278565b62008e00604083018462007218565b949350505050565b7f3200000000000000000000000000000000000000000000000000000000000000600082015250565b600062008e40600183620072b1565b915062008e4d8262008e08565b602082019050919050565b6000602082019050818103600083015262008e738162008e31565b9050919050565b7f5a00000000000000000000000000000000000000000000000000000000000000600082015250565b600062008eb2600183620072b1565b915062008ebf8262008e7a565b602082019050919050565b6000602082019050818103600083015262008ee58162008ea3565b9050919050565b7f3100000000000000000000000000000000000000000000000000000000000000600082015250565b600062008f24600183620072b1565b915062008f318262008eec565b602082019050919050565b6000602082019050818103600083015262008f578162008f15565b9050919050565b60006101008201905062008f76600083018b62007278565b62008f85602083018a62007278565b62008f9460408301896200714f565b62008fa360608301886200714f565b62008fb260808301876200714f565b62008fc160a08301866200714f565b62008fd060c08301856200714f565b62008fdf60e083018462007278565b9998505050505050505050565b600081519050919050565b600082825260208201905092915050565b6000620090158262008fec565b62009021818562008ff7565b935062009033818560208601620072c2565b6200903e81620072f8565b840191505092915050565b600060a08201905062009060600083018a62007278565b6200906f602083018962007278565b81810360408301526200908481878962008c8a565b905081810360608301526200909b81858762008c8a565b90508181036080830152620090b1818462009008565b905098975050505050505050565b600081519050620090d081620071a9565b92915050565b600060208284031215620090ef57620090ee62007005565b5b6000620090ff84828501620090bf565b91505092915050565b6000815190506200911981620070d7565b92915050565b60006020828403121562009138576200913762007005565b5b6000620091488482850162009108565b91505092915050565b600081905092915050565b6000620091698262008fec565b62009175818562009151565b935062009187818560208601620072c2565b80840191505092915050565b6000620091a182846200915c565b915081905092915050565b6000606082019050620091c3600083018662007278565b620091d2602083018562007278565b620091e160408301846200714f565b949350505050565b600081519050620091fa8162007c89565b92915050565b60006020828403121562009219576200921862007005565b5b60006200922984828501620091e9565b91505092915050565b600060a08201905062009249600083018862007278565b62009258602083018762007278565b6200926760408301866200714f565b6200927660608301856200714f565b81810360808301526200928a818462009008565b9050969550505050505056fe60806040527346e8e0af862f636199af69acd082b9963066ed9c6000806101000a81548173ffffffffffffffffffffffffffffffffffffffff021916908373ffffffffffffffffffffffffffffffffffffffff16021790555034801561006457600080fd5b5060405161089c38038061089c8339818101604052810190610086919061032f565b8061012b578273ffffffffffffffffffffffffffffffffffffffff1663095ea7b3337fffffffffffffffffffffffffffffffffffffffffffffffffffffffffffffffff6040518363ffffffff1660e01b81526004016100e69291906103aa565b6020604051808303816000875af1158015610105573d6000803e3d6000fd5b505050506040513d601f19601f8201168201806040525081019061012991906103d3565b505b8173ffffffffffffffffffffffffffffffffffffffff1663095ea7b3337fffffffffffffffffffffffffffffffffffffffffffffffffffffffffffffffff6040518363ffffffff1660e01b81526004016101869291906103aa565b6020604051808303816000875af11580156101a5573d6000803e3d6000fd5b505050506040513d601f19601f820116820180604052508101906101c991906103d3565b5082600160006101000a81548173ffffffffffffffffffffffffffffffffffffffff021916908373ffffffffffffffffffffffffffffffffffffffff160217905550816000806101000a81548173ffffffffffffffffffffffffffffffffffffffff021916908373ffffffffffffffffffffffffffffffffffffffff16021790555033600260006101000a81548173ffffffffffffffffffffffffffffffffffffffff021916908373ffffffffffffffffffffffffffffffffffffffff160217905550505050610400565b600080fd5b600073ffffffffffffffffffffffffffffffffffffffff82169050919050565b60006102c482610299565b9050919050565b6102d4816102b9565b81146102df57600080fd5b50565b6000815190506102f1816102cb565b92915050565b60008115159050919050565b61030c816102f7565b811461031757600080fd5b50565b60008151905061032981610303565b92915050565b60008060006060848603121561034857610347610294565b5b6000610356868287016102e2565b9350506020610367868287016102e2565b92505060406103788682870161031a565b9150509250925092565b61038b816102b9565b82525050565b6000819050919050565b6103a481610391565b82525050565b60006040820190506103bf6000830185610382565b6103cc602083018461039b565b9392505050565b6000602082840312156103e9576103e8610294565b5b60006103f78482850161031a565b91505092915050565b61048d8061040f6000396000f3fe6080604052600436106100385760003560e01c80630dfe1681146100445780631b9a91a41461006f578063d21220a7146100985761003f565b3661003f57005b600080fd5b34801561005057600080fd5b506100596100c3565b60405161006691906102d5565b60405180910390f35b34801561007b57600080fd5b5061009660048036038101906100919190610357565b6100ed565b005b3480156100a457600080fd5b506100ad61026b565b6040516100ba91906102d5565b60405180910390f35b6000600160009054906101000a900473ffffffffffffffffffffffffffffffffffffffff16905090565b600260009054906101000a900473ffffffffffffffffffffffffffffffffffffffff1673ffffffffffffffffffffffffffffffffffffffff163373ffffffffffffffffffffffffffffffffffffffff1614610174576040517fab243e4900000000000000000000000000000000000000000000000000000000815260040160405180910390fd5b60008273ffffffffffffffffffffffffffffffffffffffff1682600067ffffffffffffffff8111156101a9576101a8610397565b5b6040519080825280601f01601f1916602001820160405280156101db5781602001600182028036833780820191505090505b506040516101e99190610440565b60006040518083038185875af1925050503d8060008114610226576040519150601f19603f3d011682016040523d82523d6000602084013e61022b565b606091505b5050905080610266576040517f5aeccf6b00000000000000000000000000000000000000000000000000000000815260040160405180910390fd5b505050565b60008060009054906101000a900473ffffffffffffffffffffffffffffffffffffffff16905090565b600073ffffffffffffffffffffffffffffffffffffffff82169050919050565b60006102bf82610294565b9050919050565b6102cf816102b4565b82525050565b60006020820190506102ea60008301846102c6565b92915050565b600080fd5b6102fe816102b4565b811461030957600080fd5b50565b60008135905061031b816102f5565b92915050565b6000819050919050565b61033481610321565b811461033f57600080fd5b50565b6000813590506103518161032b565b92915050565b6000806040838503121561036e5761036d6102f0565b5b600061037c8582860161030c565b925050602061038d85828601610342565b9150509250929050565b7f4e487b7100000000000000000000000000000000000000000000000000000000600052604160045260246000fd5b600081519050919050565b600081905092915050565b60005b838110156103fa5780820151818401526020810190506103df565b83811115610409576000848401525b50505050565b600061041a826103c6565b61042481856103d1565b93506104348185602086016103dc565b80840191505092915050565b600061044c828461040f565b91508190509291505056fea264697066735822122052add0bf399bec9a5d57ae386be56b68b57d3465275986408ea4826a2df58bc664736f6c634300080b0033a26469706673582212206884add8e50aa9ea04c120b7ee81e3502c2713b6b2a886398f8f7093a023b9f164736f6c634300080b003368747470733a2f2f646174612e63657262792e66692f4365726279537761702f76312f",
			"opcodes": "PUSH1 0x80 PUSH1 0x40 MSTORE PUSH20 0x46E8E0AF862F636199AF69ACD082B9963066ED9C PUSH1 0x0 DUP1 PUSH2 0x100 EXP DUP2 SLOAD DUP2 PUSH20 0xFFFFFFFFFFFFFFFFFFFFFFFFFFFFFFFFFFFFFFFF MUL NOT AND SWAP1 DUP4 PUSH20 0xFFFFFFFFFFFFFFFFFFFFFFFFFFFFFFFFFFFFFFFF AND MUL OR SWAP1 SSTORE POP PUSH20 0x527EA24A5917C452DBF402EDC9DA4190239BCCF1 PUSH1 0x4 PUSH1 0x0 PUSH2 0x100 EXP DUP2 SLOAD DUP2 PUSH20 0xFFFFFFFFFFFFFFFFFFFFFFFFFFFFFFFFFFFFFFFF MUL NOT AND SWAP1 DUP4 PUSH20 0xFFFFFFFFFFFFFFFFFFFFFFFFFFFFFFFFFFFFFFFF AND MUL OR SWAP1 SSTORE POP PUSH20 0x947EF3DF5B7D5EC37214DD06C4042C8E7B0CEBD7 PUSH1 0x5 PUSH1 0x0 PUSH2 0x100 EXP DUP2 SLOAD DUP2 PUSH20 0xFFFFFFFFFFFFFFFFFFFFFFFFFFFFFFFFFFFFFFFF MUL NOT AND SWAP1 DUP4 PUSH20 0xFFFFFFFFFFFFFFFFFFFFFFFFFFFFFFFFFFFFFFFF AND MUL OR SWAP1 SSTORE POP PUSH20 0x14769F96E57B80C66837701DE0B43686FB4632DE PUSH1 0x6 PUSH1 0x0 PUSH2 0x100 EXP DUP2 SLOAD DUP2 PUSH20 0xFFFFFFFFFFFFFFFFFFFFFFFFFFFFFFFFFFFFFFFF MUL NOT AND SWAP1 DUP4 PUSH20 0xFFFFFFFFFFFFFFFFFFFFFFFFFFFFFFFFFFFFFFFF AND MUL OR SWAP1 SSTORE POP PUSH1 0x40 MLOAD DUP1 PUSH1 0x40 ADD PUSH1 0x40 MSTORE DUP1 PUSH1 0xB DUP2 MSTORE PUSH1 0x20 ADD PUSH32 0x4365726279537761705631000000000000000000000000000000000000000000 DUP2 MSTORE POP PUSH1 0x12 SWAP1 DUP1 MLOAD SWAP1 PUSH1 0x20 ADD SWAP1 PUSH3 0x1A4 SWAP3 SWAP2 SWAP1 PUSH3 0x84D JUMP JUMPDEST POP PUSH1 0x40 MLOAD DUP1 PUSH1 0x40 ADD PUSH1 0x40 MSTORE DUP1 PUSH1 0x3 DUP2 MSTORE PUSH1 0x20 ADD PUSH32 0x4353310000000000000000000000000000000000000000000000000000000000 DUP2 MSTORE POP PUSH1 0x13 SWAP1 DUP1 MLOAD SWAP1 PUSH1 0x20 ADD SWAP1 PUSH3 0x1F2 SWAP3 SWAP2 SWAP1 PUSH3 0x84D JUMP JUMPDEST POP PUSH1 0x40 MLOAD DUP1 PUSH1 0x60 ADD PUSH1 0x40 MSTORE DUP1 PUSH1 0x23 DUP2 MSTORE PUSH1 0x20 ADD PUSH3 0xA6FC PUSH1 0x23 SWAP2 CODECOPY PUSH1 0x14 SWAP1 DUP1 MLOAD SWAP1 PUSH1 0x20 ADD SWAP1 PUSH3 0x224 SWAP3 SWAP2 SWAP1 PUSH3 0x84D JUMP JUMPDEST POP CALLVALUE DUP1 ISZERO PUSH3 0x232 JUMPI PUSH1 0x0 DUP1 REVERT JUMPDEST POP PUSH1 0x14 PUSH1 0x40 MLOAD PUSH1 0x20 ADD PUSH3 0x247 SWAP2 SWAP1 PUSH3 0xA5D JUMP JUMPDEST PUSH1 0x40 MLOAD PUSH1 0x20 DUP2 DUP4 SUB SUB DUP2 MSTORE SWAP1 PUSH1 0x40 MSTORE PUSH3 0x267 DUP2 PUSH3 0x76B PUSH1 0x20 SHL PUSH1 0x20 SHR JUMP JUMPDEST POP PUSH3 0x279 CALLER PUSH3 0x787 PUSH1 0x20 SHL PUSH1 0x20 SHR JUMP JUMPDEST PUSH1 0x0 PUSH20 0xDEF78A28C78A461598D948BC0C689CE88F812AD8 SWAP1 POP PUSH1 0x0 PUSH1 0x64 PUSH1 0x14 PUSH1 0x64 PUSH3 0x2A6 SWAP2 SWAP1 PUSH3 0xABC JUMP JUMPDEST PUSH3 0x2B2 SWAP2 SWAP1 PUSH3 0xB4C JUMP JUMPDEST SWAP1 POP PUSH1 0x0 PUSH4 0x51A67366 SWAP1 POP PUSH1 0x0 PUSH1 0x1 SWAP1 POP PUSH1 0x0 PUSH1 0xC8 SWAP1 POP PUSH1 0x0 DUP4 SWAP1 POP PUSH1 0x0 DUP4 DUP4 DUP7 PUSH3 0x2DF SWAP2 SWAP1 PUSH3 0xABC JUMP JUMPDEST PUSH3 0x2EB SWAP2 SWAP1 PUSH3 0xB4C JUMP JUMPDEST SWAP1 POP PUSH1 0x0 PUSH1 0x18 SWAP1 POP PUSH1 0x40 MLOAD DUP1 PUSH1 0xE0 ADD PUSH1 0x40 MSTORE DUP1 DUP10 PUSH20 0xFFFFFFFFFFFFFFFFFFFFFFFFFFFFFFFFFFFFFFFF AND DUP2 MSTORE PUSH1 0x20 ADD DUP9 DUP2 MSTORE PUSH1 0x20 ADD DUP7 DUP2 MSTORE PUSH1 0x20 ADD DUP6 DUP2 MSTORE PUSH1 0x20 ADD DUP5 DUP2 MSTORE PUSH1 0x20 ADD DUP4 DUP2 MSTORE PUSH1 0x20 ADD PUSH1 0x18 DUP2 MSTORE POP PUSH1 0x7 PUSH1 0x0 DUP3 ADD MLOAD DUP2 PUSH1 0x0 ADD PUSH1 0x0 PUSH2 0x100 EXP DUP2 SLOAD DUP2 PUSH20 0xFFFFFFFFFFFFFFFFFFFFFFFFFFFFFFFFFFFFFFFF MUL NOT AND SWAP1 DUP4 PUSH20 0xFFFFFFFFFFFFFFFFFFFFFFFFFFFFFFFFFFFFFFFF AND MUL OR SWAP1 SSTORE POP PUSH1 0x20 DUP3 ADD MLOAD DUP2 PUSH1 0x1 ADD SSTORE PUSH1 0x40 DUP3 ADD MLOAD DUP2 PUSH1 0x2 ADD SSTORE PUSH1 0x60 DUP3 ADD MLOAD DUP2 PUSH1 0x3 ADD SSTORE PUSH1 0x80 DUP3 ADD MLOAD DUP2 PUSH1 0x4 ADD SSTORE PUSH1 0xA0 DUP3 ADD MLOAD DUP2 PUSH1 0x5 ADD SSTORE PUSH1 0xC0 DUP3 ADD MLOAD DUP2 PUSH1 0x6 ADD SSTORE SWAP1 POP POP PUSH1 0x1 PUSH1 0x40 MLOAD DUP1 PUSH1 0x60 ADD PUSH1 0x40 MSTORE DUP1 PUSH1 0x0 PUSH20 0xFFFFFFFFFFFFFFFFFFFFFFFFFFFFFFFFFFFFFFFF AND DUP2 MSTORE PUSH1 0x20 ADD PUSH1 0x0 PUSH16 0xFFFFFFFFFFFFFFFFFFFFFFFFFFFFFFFF AND DUP2 MSTORE PUSH1 0x20 ADD PUSH1 0x0 PUSH16 0xFFFFFFFFFFFFFFFFFFFFFFFFFFFFFFFF AND DUP2 MSTORE POP SWAP1 DUP1 PUSH1 0x1 DUP2 SLOAD ADD DUP1 DUP3 SSTORE DUP1 SWAP2 POP POP PUSH1 0x1 SWAP1 SUB SWAP1 PUSH1 0x0 MSTORE PUSH1 0x20 PUSH1 0x0 KECCAK256 SWAP1 PUSH1 0x2 MUL ADD PUSH1 0x0 SWAP1 SWAP2 SWAP1 SWAP2 SWAP1 SWAP2 POP PUSH1 0x0 DUP3 ADD MLOAD DUP2 PUSH1 0x0 ADD PUSH1 0x0 PUSH2 0x100 EXP DUP2 SLOAD DUP2 PUSH20 0xFFFFFFFFFFFFFFFFFFFFFFFFFFFFFFFFFFFFFFFF MUL NOT AND SWAP1 DUP4 PUSH20 0xFFFFFFFFFFFFFFFFFFFFFFFFFFFFFFFFFFFFFFFF AND MUL OR SWAP1 SSTORE POP PUSH1 0x20 DUP3 ADD MLOAD DUP2 PUSH1 0x1 ADD PUSH1 0x0 PUSH2 0x100 EXP DUP2 SLOAD DUP2 PUSH16 0xFFFFFFFFFFFFFFFFFFFFFFFFFFFFFFFF MUL NOT AND SWAP1 DUP4 PUSH16 0xFFFFFFFFFFFFFFFFFFFFFFFFFFFFFFFF AND MUL OR SWAP1 SSTORE POP PUSH1 0x40 DUP3 ADD MLOAD DUP2 PUSH1 0x1 ADD PUSH1 0x10 PUSH2 0x100 EXP DUP2 SLOAD DUP2 PUSH16 0xFFFFFFFFFFFFFFFFFFFFFFFFFFFFFFFF MUL NOT AND SWAP1 DUP4 PUSH16 0xFFFFFFFFFFFFFFFFFFFFFFFFFFFFFFFF AND MUL OR SWAP1 SSTORE POP POP POP PUSH1 0x1 CHAINID EQ ISZERO PUSH3 0x574 JUMPI PUSH20 0xC02AAA39B223FE8D0A0E5C4F27EAD9083C756CC2 PUSH1 0x6 PUSH1 0x0 PUSH2 0x100 EXP DUP2 SLOAD DUP2 PUSH20 0xFFFFFFFFFFFFFFFFFFFFFFFFFFFFFFFFFFFFFFFF MUL NOT AND SWAP1 DUP4 PUSH20 0xFFFFFFFFFFFFFFFFFFFFFFFFFFFFFFFFFFFFFFFF AND MUL OR SWAP1 SSTORE POP PUSH3 0x708 JUMP JUMPDEST PUSH1 0x38 CHAINID EQ ISZERO PUSH3 0x5D9 JUMPI PUSH20 0xBB4CDB9CBD36B01BD1CBAEBF2DE08D9173BC095C PUSH1 0x6 PUSH1 0x0 PUSH2 0x100 EXP DUP2 SLOAD DUP2 PUSH20 0xFFFFFFFFFFFFFFFFFFFFFFFFFFFFFFFFFFFFFFFF MUL NOT AND SWAP1 DUP4 PUSH20 0xFFFFFFFFFFFFFFFFFFFFFFFFFFFFFFFFFFFFFFFF AND MUL OR SWAP1 SSTORE POP PUSH3 0x707 JUMP JUMPDEST PUSH1 0x89 CHAINID EQ ISZERO PUSH3 0x63E JUMPI PUSH20 0xD500B1D8E8EF31E21C99D1DB9A6444D3ADF1270 PUSH1 0x6 PUSH1 0x0 PUSH2 0x100 EXP DUP2 SLOAD DUP2 PUSH20 0xFFFFFFFFFFFFFFFFFFFFFFFFFFFFFFFFFFFFFFFF MUL NOT AND SWAP1 DUP4 PUSH20 0xFFFFFFFFFFFFFFFFFFFFFFFFFFFFFFFFFFFFFFFF AND MUL OR SWAP1 SSTORE POP PUSH3 0x706 JUMP JUMPDEST PUSH2 0xA86A CHAINID EQ ISZERO PUSH3 0x6A4 JUMPI PUSH20 0xB31F66AA3C1E785363F0875A1B74E27B85FD66C7 PUSH1 0x6 PUSH1 0x0 PUSH2 0x100 EXP DUP2 SLOAD DUP2 PUSH20 0xFFFFFFFFFFFFFFFFFFFFFFFFFFFFFFFFFFFFFFFF MUL NOT AND SWAP1 DUP4 PUSH20 0xFFFFFFFFFFFFFFFFFFFFFFFFFFFFFFFFFFFFFFFF AND MUL OR SWAP1 SSTORE POP PUSH3 0x705 JUMP JUMPDEST PUSH1 0xFA CHAINID EQ ISZERO PUSH3 0x704 JUMPI PUSH20 0x21BE370D5312F44CB42CE377BC9B8A0CEF1A4C83 PUSH1 0x6 PUSH1 0x0 PUSH2 0x100 EXP DUP2 SLOAD DUP2 PUSH20 0xFFFFFFFFFFFFFFFFFFFFFFFFFFFFFFFFFFFFFFFF MUL NOT AND SWAP1 DUP4 PUSH20 0xFFFFFFFFFFFFFFFFFFFFFFFFFFFFFFFFFFFFFFFF AND MUL OR SWAP1 SSTORE POP JUMPDEST JUMPDEST JUMPDEST JUMPDEST JUMPDEST PUSH20 0x14769F96E57B80C66837701DE0B43686FB4632DE PUSH1 0x6 PUSH1 0x0 PUSH2 0x100 EXP DUP2 SLOAD DUP2 PUSH20 0xFFFFFFFFFFFFFFFFFFFFFFFFFFFFFFFFFFFFFFFF MUL NOT AND SWAP1 DUP4 PUSH20 0xFFFFFFFFFFFFFFFFFFFFFFFFFFFFFFFFFFFFFFFF AND MUL OR SWAP1 SSTORE POP POP POP POP POP POP POP POP POP PUSH3 0xB84 JUMP JUMPDEST DUP1 PUSH1 0x10 SWAP1 DUP1 MLOAD SWAP1 PUSH1 0x20 ADD SWAP1 PUSH3 0x783 SWAP3 SWAP2 SWAP1 PUSH3 0x84D JUMP JUMPDEST POP POP JUMP JUMPDEST PUSH1 0x0 PUSH1 0x15 PUSH1 0x0 SWAP1 SLOAD SWAP1 PUSH2 0x100 EXP SWAP1 DIV PUSH20 0xFFFFFFFFFFFFFFFFFFFFFFFFFFFFFFFFFFFFFFFF AND SWAP1 POP DUP2 PUSH1 0x15 PUSH1 0x0 PUSH2 0x100 EXP DUP2 SLOAD DUP2 PUSH20 0xFFFFFFFFFFFFFFFFFFFFFFFFFFFFFFFFFFFFFFFF MUL NOT AND SWAP1 DUP4 PUSH20 0xFFFFFFFFFFFFFFFFFFFFFFFFFFFFFFFFFFFFFFFF AND MUL OR SWAP1 SSTORE POP DUP2 PUSH20 0xFFFFFFFFFFFFFFFFFFFFFFFFFFFFFFFFFFFFFFFF AND DUP2 PUSH20 0xFFFFFFFFFFFFFFFFFFFFFFFFFFFFFFFFFFFFFFFF AND PUSH32 0x8BE0079C531659141344CD1FD0A4F28419497F9722A3DAAFE3B4186F6B6457E0 PUSH1 0x40 MLOAD PUSH1 0x40 MLOAD DUP1 SWAP2 SUB SWAP1 LOG3 POP POP JUMP JUMPDEST DUP3 DUP1 SLOAD PUSH3 0x85B SWAP1 PUSH3 0x92C JUMP JUMPDEST SWAP1 PUSH1 0x0 MSTORE PUSH1 0x20 PUSH1 0x0 KECCAK256 SWAP1 PUSH1 0x1F ADD PUSH1 0x20 SWAP1 DIV DUP2 ADD SWAP3 DUP3 PUSH3 0x87F JUMPI PUSH1 0x0 DUP6 SSTORE PUSH3 0x8CB JUMP JUMPDEST DUP3 PUSH1 0x1F LT PUSH3 0x89A JUMPI DUP1 MLOAD PUSH1 0xFF NOT AND DUP4 DUP1 ADD OR DUP6 SSTORE PUSH3 0x8CB JUMP JUMPDEST DUP3 DUP1 ADD PUSH1 0x1 ADD DUP6 SSTORE DUP3 ISZERO PUSH3 0x8CB JUMPI SWAP2 DUP3 ADD JUMPDEST DUP3 DUP2 GT ISZERO PUSH3 0x8CA JUMPI DUP3 MLOAD DUP3 SSTORE SWAP2 PUSH1 0x20 ADD SWAP2 SWAP1 PUSH1 0x1 ADD SWAP1 PUSH3 0x8AD JUMP JUMPDEST JUMPDEST POP SWAP1 POP PUSH3 0x8DA SWAP2 SWAP1 PUSH3 0x8DE JUMP JUMPDEST POP SWAP1 JUMP JUMPDEST JUMPDEST DUP1 DUP3 GT ISZERO PUSH3 0x8F9 JUMPI PUSH1 0x0 DUP2 PUSH1 0x0 SWAP1 SSTORE POP PUSH1 0x1 ADD PUSH3 0x8DF JUMP JUMPDEST POP SWAP1 JUMP JUMPDEST PUSH32 0x4E487B7100000000000000000000000000000000000000000000000000000000 PUSH1 0x0 MSTORE PUSH1 0x22 PUSH1 0x4 MSTORE PUSH1 0x24 PUSH1 0x0 REVERT JUMPDEST PUSH1 0x0 PUSH1 0x2 DUP3 DIV SWAP1 POP PUSH1 0x1 DUP3 AND DUP1 PUSH3 0x945 JUMPI PUSH1 0x7F DUP3 AND SWAP2 POP JUMPDEST PUSH1 0x20 DUP3 LT DUP2 EQ ISZERO PUSH3 0x95C JUMPI PUSH3 0x95B PUSH3 0x8FD JUMP JUMPDEST JUMPDEST POP SWAP2 SWAP1 POP JUMP JUMPDEST PUSH1 0x0 DUP2 SWAP1 POP SWAP3 SWAP2 POP POP JUMP JUMPDEST PUSH1 0x0 DUP2 SWAP1 POP DUP2 PUSH1 0x0 MSTORE PUSH1 0x20 PUSH1 0x0 KECCAK256 SWAP1 POP SWAP2 SWAP1 POP JUMP JUMPDEST PUSH1 0x0 DUP2 SLOAD PUSH3 0x991 DUP2 PUSH3 0x92C JUMP JUMPDEST PUSH3 0x99D DUP2 DUP7 PUSH3 0x962 JUMP JUMPDEST SWAP5 POP PUSH1 0x1 DUP3 AND PUSH1 0x0 DUP2 EQ PUSH3 0x9BB JUMPI PUSH1 0x1 DUP2 EQ PUSH3 0x9CD JUMPI PUSH3 0xA04 JUMP JUMPDEST PUSH1 0xFF NOT DUP4 AND DUP7 MSTORE DUP2 DUP7 ADD SWAP4 POP PUSH3 0xA04 JUMP JUMPDEST PUSH3 0x9D8 DUP6 PUSH3 0x96D JUMP JUMPDEST PUSH1 0x0 JUMPDEST DUP4 DUP2 LT ISZERO PUSH3 0x9FC JUMPI DUP2 SLOAD DUP2 DUP10 ADD MSTORE PUSH1 0x1 DUP3 ADD SWAP2 POP PUSH1 0x20 DUP2 ADD SWAP1 POP PUSH3 0x9DB JUMP JUMPDEST DUP4 DUP9 ADD SWAP6 POP POP POP JUMPDEST POP POP POP SWAP3 SWAP2 POP POP JUMP JUMPDEST PUSH32 0x7B69647D2E6A736F6E0000000000000000000000000000000000000000000000 PUSH1 0x0 DUP3 ADD MSTORE POP JUMP JUMPDEST PUSH1 0x0 PUSH3 0xA45 PUSH1 0x9 DUP4 PUSH3 0x962 JUMP JUMPDEST SWAP2 POP PUSH3 0xA52 DUP3 PUSH3 0xA0D JUMP JUMPDEST PUSH1 0x9 DUP3 ADD SWAP1 POP SWAP2 SWAP1 POP JUMP JUMPDEST PUSH1 0x0 PUSH3 0xA6B DUP3 DUP5 PUSH3 0x982 JUMP JUMPDEST SWAP2 POP PUSH3 0xA78 DUP3 PUSH3 0xA36 JUMP JUMPDEST SWAP2 POP DUP2 SWAP1 POP SWAP3 SWAP2 POP POP JUMP JUMPDEST PUSH1 0x0 DUP2 SWAP1 POP SWAP2 SWAP1 POP JUMP JUMPDEST PUSH32 0x4E487B7100000000000000000000000000000000000000000000000000000000 PUSH1 0x0 MSTORE PUSH1 0x11 PUSH1 0x4 MSTORE PUSH1 0x24 PUSH1 0x0 REVERT JUMPDEST PUSH1 0x0 PUSH3 0xAC9 DUP3 PUSH3 0xA83 JUMP JUMPDEST SWAP2 POP PUSH3 0xAD6 DUP4 PUSH3 0xA83 JUMP JUMPDEST SWAP3 POP DUP2 PUSH32 0xFFFFFFFFFFFFFFFFFFFFFFFFFFFFFFFFFFFFFFFFFFFFFFFFFFFFFFFFFFFFFFFF DIV DUP4 GT DUP3 ISZERO ISZERO AND ISZERO PUSH3 0xB12 JUMPI PUSH3 0xB11 PUSH3 0xA8D JUMP JUMPDEST JUMPDEST DUP3 DUP3 MUL SWAP1 POP SWAP3 SWAP2 POP POP JUMP JUMPDEST PUSH32 0x4E487B7100000000000000000000000000000000000000000000000000000000 PUSH1 0x0 MSTORE PUSH1 0x12 PUSH1 0x4 MSTORE PUSH1 0x24 PUSH1 0x0 REVERT JUMPDEST PUSH1 0x0 PUSH3 0xB59 DUP3 PUSH3 0xA83 JUMP JUMPDEST SWAP2 POP PUSH3 0xB66 DUP4 PUSH3 0xA83 JUMP JUMPDEST SWAP3 POP DUP3 PUSH3 0xB79 JUMPI PUSH3 0xB78 PUSH3 0xB1D JUMP JUMPDEST JUMPDEST DUP3 DUP3 DIV SWAP1 POP SWAP3 SWAP2 POP POP JUMP JUMPDEST PUSH2 0x9B68 DUP1 PUSH3 0xB94 PUSH1 0x0 CODECOPY PUSH1 0x0 RETURN INVALID PUSH1 0x80 PUSH1 0x40 MSTORE PUSH1 0x4 CALLDATASIZE LT PUSH3 0x269 JUMPI PUSH1 0x0 CALLDATALOAD PUSH1 0xE0 SHR DUP1 PUSH4 0x71858049 GT PUSH3 0x14B JUMPI DUP1 PUSH4 0xBD85B039 GT PUSH3 0xBB JUMPI DUP1 PUSH4 0xE985E9C5 GT PUSH3 0x79 JUMPI DUP1 PUSH4 0xE985E9C5 EQ PUSH3 0x97D JUMPI DUP1 PUSH4 0xECA01093 EQ PUSH3 0x9C1 JUMPI DUP1 PUSH4 0xF242432A EQ PUSH3 0x9EF JUMPI DUP1 PUSH4 0xF2FDE38B EQ PUSH3 0xA1D JUMPI DUP1 PUSH4 0xF6524724 EQ PUSH3 0xA4B JUMPI PUSH3 0x271 JUMP JUMPDEST DUP1 PUSH4 0xBD85B039 EQ PUSH3 0x89B JUMPI DUP1 PUSH4 0xC09C923B EQ PUSH3 0x8DF JUMPI DUP1 PUSH4 0xC790985A EQ PUSH3 0x8EB JUMPI DUP1 PUSH4 0xCAB4BA82 EQ PUSH3 0x92F JUMPI DUP1 PUSH4 0xD5D60737 EQ PUSH3 0x95D JUMPI PUSH3 0x271 JUMP JUMPDEST DUP1 PUSH4 0x95D89B41 GT PUSH3 0x109 JUMPI DUP1 PUSH4 0x95D89B41 EQ PUSH3 0x7BF JUMPI DUP1 PUSH4 0xA22CB465 EQ PUSH3 0x7EF JUMPI DUP1 PUSH4 0xA60C6E55 EQ PUSH3 0x81D JUMPI DUP1 PUSH4 0xA7FD40BF EQ PUSH3 0x853 JUMPI DUP1 PUSH4 0xB5D11E99 EQ PUSH3 0x881 JUMPI PUSH3 0x271 JUMP JUMPDEST DUP1 PUSH4 0x71858049 EQ PUSH3 0x6CD JUMPI DUP1 PUSH4 0x74FCF071 EQ PUSH3 0x6FB JUMPI DUP1 PUSH4 0x842980F4 EQ PUSH3 0x73F JUMPI DUP1 PUSH4 0x85B4BB53 EQ PUSH3 0x75F JUMPI DUP1 PUSH4 0x8DA5CB5B EQ PUSH3 0x78F JUMPI PUSH3 0x271 JUMP JUMPDEST DUP1 PUSH4 0x313CE567 GT PUSH3 0x1E7 JUMPI DUP1 PUSH4 0x4C3C0EB2 GT PUSH3 0x1A5 JUMPI DUP1 PUSH4 0x4C3C0EB2 EQ PUSH3 0x5A3 JUMPI DUP1 PUSH4 0x4E1273F4 EQ PUSH3 0x5E7 JUMPI DUP1 PUSH4 0x4F558E79 EQ PUSH3 0x62B JUMPI DUP1 PUSH4 0x61417516 EQ PUSH3 0x66F JUMPI DUP1 PUSH4 0x715018A6 EQ PUSH3 0x6B3 JUMPI PUSH3 0x271 JUMP JUMPDEST DUP1 PUSH4 0x313CE567 EQ PUSH3 0x487 JUMPI DUP1 PUSH4 0x34E150AB EQ PUSH3 0x4B7 JUMPI DUP1 PUSH4 0x3935AC11 EQ PUSH3 0x4FB JUMPI DUP1 PUSH4 0x43FEFAD4 EQ PUSH3 0x529 JUMPI DUP1 PUSH4 0x48B08D62 EQ PUSH3 0x55F JUMPI PUSH3 0x271 JUMP JUMPDEST DUP1 PUSH4 0x6FDDE03 GT PUSH3 0x235 JUMPI DUP1 PUSH4 0x6FDDE03 EQ PUSH3 0x370 JUMPI DUP1 PUSH4 0xE89341C EQ PUSH3 0x3A0 JUMPI DUP1 PUSH4 0x18160DDD EQ PUSH3 0x3E4 JUMPI DUP1 PUSH4 0x1F06F4B5 EQ PUSH3 0x414 JUMPI DUP1 PUSH4 0x2EB2C2D6 EQ PUSH3 0x459 JUMPI PUSH3 0x271 JUMP JUMPDEST DUP1 PUSH3 0x3374B5 EQ PUSH3 0x276 JUMPI DUP1 PUSH3 0xFDD58E EQ PUSH3 0x2A4 JUMPI DUP1 PUSH4 0x1FFC9A7 EQ PUSH3 0x2E8 JUMPI DUP1 PUSH4 0x6FB1A07 EQ PUSH3 0x32C JUMPI PUSH3 0x271 JUMP JUMPDEST CALLDATASIZE PUSH3 0x271 JUMPI STOP JUMPDEST PUSH1 0x0 DUP1 REVERT JUMPDEST CALLVALUE DUP1 ISZERO PUSH3 0x283 JUMPI PUSH1 0x0 DUP1 REVERT JUMPDEST POP PUSH3 0x2A2 PUSH1 0x4 DUP1 CALLDATASIZE SUB DUP2 ADD SWAP1 PUSH3 0x29C SWAP2 SWAP1 PUSH3 0x7036 JUMP JUMPDEST PUSH3 0xA81 JUMP JUMPDEST STOP JUMPDEST CALLVALUE DUP1 ISZERO PUSH3 0x2B1 JUMPI PUSH1 0x0 DUP1 REVERT JUMPDEST POP PUSH3 0x2D0 PUSH1 0x4 DUP1 CALLDATASIZE SUB DUP2 ADD SWAP1 PUSH3 0x2CA SWAP2 SWAP1 PUSH3 0x7108 JUMP JUMPDEST PUSH3 0xBFB JUMP JUMPDEST PUSH1 0x40 MLOAD PUSH3 0x2DF SWAP2 SWAP1 PUSH3 0x7160 JUMP JUMPDEST PUSH1 0x40 MLOAD DUP1 SWAP2 SUB SWAP1 RETURN JUMPDEST CALLVALUE DUP1 ISZERO PUSH3 0x2F5 JUMPI PUSH1 0x0 DUP1 REVERT JUMPDEST POP PUSH3 0x314 PUSH1 0x4 DUP1 CALLDATASIZE SUB DUP2 ADD SWAP1 PUSH3 0x30E SWAP2 SWAP1 PUSH3 0x71DA JUMP JUMPDEST PUSH3 0xCBD JUMP JUMPDEST PUSH1 0x40 MLOAD PUSH3 0x323 SWAP2 SWAP1 PUSH3 0x7229 JUMP JUMPDEST PUSH1 0x40 MLOAD DUP1 SWAP2 SUB SWAP1 RETURN JUMPDEST CALLVALUE DUP1 ISZERO PUSH3 0x339 JUMPI PUSH1 0x0 DUP1 REVERT JUMPDEST POP PUSH3 0x358 PUSH1 0x4 DUP1 CALLDATASIZE SUB DUP2 ADD SWAP1 PUSH3 0x352 SWAP2 SWAP1 PUSH3 0x7246 JUMP JUMPDEST PUSH3 0xD27 JUMP JUMPDEST PUSH1 0x40 MLOAD PUSH3 0x367 SWAP2 SWAP1 PUSH3 0x7289 JUMP JUMPDEST PUSH1 0x40 MLOAD DUP1 SWAP2 SUB SWAP1 RETURN JUMPDEST CALLVALUE DUP1 ISZERO PUSH3 0x37D JUMPI PUSH1 0x0 DUP1 REVERT JUMPDEST POP PUSH3 0x388 PUSH3 0xDC3 JUMP JUMPDEST PUSH1 0x40 MLOAD PUSH3 0x397 SWAP2 SWAP1 PUSH3 0x734A JUMP JUMPDEST PUSH1 0x40 MLOAD DUP1 SWAP2 SUB SWAP1 RETURN JUMPDEST CALLVALUE DUP1 ISZERO PUSH3 0x3AD JUMPI PUSH1 0x0 DUP1 REVERT JUMPDEST POP PUSH3 0x3CC PUSH1 0x4 DUP1 CALLDATASIZE SUB DUP2 ADD SWAP1 PUSH3 0x3C6 SWAP2 SWAP1 PUSH3 0x7246 JUMP JUMPDEST PUSH3 0xE5D JUMP JUMPDEST PUSH1 0x40 MLOAD PUSH3 0x3DB SWAP2 SWAP1 PUSH3 0x734A JUMP JUMPDEST PUSH1 0x40 MLOAD DUP1 SWAP2 SUB SWAP1 RETURN JUMPDEST CALLVALUE DUP1 ISZERO PUSH3 0x3F1 JUMPI PUSH1 0x0 DUP1 REVERT JUMPDEST POP PUSH3 0x3FC PUSH3 0xE8B JUMP JUMPDEST PUSH1 0x40 MLOAD PUSH3 0x40B SWAP2 SWAP1 PUSH3 0x7160 JUMP JUMPDEST PUSH1 0x40 MLOAD DUP1 SWAP2 SUB SWAP1 RETURN JUMPDEST CALLVALUE DUP1 ISZERO PUSH3 0x421 JUMPI PUSH1 0x0 DUP1 REVERT JUMPDEST POP PUSH3 0x440 PUSH1 0x4 DUP1 CALLDATASIZE SUB DUP2 ADD SWAP1 PUSH3 0x43A SWAP2 SWAP1 PUSH3 0x7108 JUMP JUMPDEST PUSH3 0xEED JUMP JUMPDEST PUSH1 0x40 MLOAD PUSH3 0x450 SWAP3 SWAP2 SWAP1 PUSH3 0x73BA JUMP JUMPDEST PUSH1 0x40 MLOAD DUP1 SWAP2 SUB SWAP1 RETURN JUMPDEST CALLVALUE DUP1 ISZERO PUSH3 0x466 JUMPI PUSH1 0x0 DUP1 REVERT JUMPDEST POP PUSH3 0x485 PUSH1 0x4 DUP1 CALLDATASIZE SUB DUP2 ADD SWAP1 PUSH3 0x47F SWAP2 SWAP1 PUSH3 0x74B4 JUMP JUMPDEST PUSH3 0xF48 JUMP JUMPDEST STOP JUMPDEST CALLVALUE DUP1 ISZERO PUSH3 0x494 JUMPI PUSH1 0x0 DUP1 REVERT JUMPDEST POP PUSH3 0x49F PUSH3 0x1055 JUMP JUMPDEST PUSH1 0x40 MLOAD PUSH3 0x4AE SWAP2 SWAP1 PUSH3 0x7160 JUMP JUMPDEST PUSH1 0x40 MLOAD DUP1 SWAP2 SUB SWAP1 RETURN JUMPDEST CALLVALUE DUP1 ISZERO PUSH3 0x4C4 JUMPI PUSH1 0x0 DUP1 REVERT JUMPDEST POP PUSH3 0x4E3 PUSH1 0x4 DUP1 CALLDATASIZE SUB DUP2 ADD SWAP1 PUSH3 0x4DD SWAP2 SWAP1 PUSH3 0x7605 JUMP JUMPDEST PUSH3 0x105E JUMP JUMPDEST PUSH1 0x40 MLOAD PUSH3 0x4F2 SWAP2 SWAP1 PUSH3 0x775B JUMP JUMPDEST PUSH1 0x40 MLOAD DUP1 SWAP2 SUB SWAP1 RETURN JUMPDEST CALLVALUE DUP1 ISZERO PUSH3 0x508 JUMPI PUSH1 0x0 DUP1 REVERT JUMPDEST POP PUSH3 0x527 PUSH1 0x4 DUP1 CALLDATASIZE SUB DUP2 ADD SWAP1 PUSH3 0x521 SWAP2 SWAP1 PUSH3 0x78CB JUMP JUMPDEST PUSH3 0x11DE JUMP JUMPDEST STOP JUMPDEST PUSH3 0x547 PUSH1 0x4 DUP1 CALLDATASIZE SUB DUP2 ADD SWAP1 PUSH3 0x541 SWAP2 SWAP1 PUSH3 0x7950 JUMP JUMPDEST PUSH3 0x1283 JUMP JUMPDEST PUSH1 0x40 MLOAD PUSH3 0x556 SWAP2 SWAP1 PUSH3 0x7160 JUMP JUMPDEST PUSH1 0x40 MLOAD DUP1 SWAP2 SUB SWAP1 RETURN JUMPDEST CALLVALUE DUP1 ISZERO PUSH3 0x56C JUMPI PUSH1 0x0 DUP1 REVERT JUMPDEST POP PUSH3 0x58B PUSH1 0x4 DUP1 CALLDATASIZE SUB DUP2 ADD SWAP1 PUSH3 0x585 SWAP2 SWAP1 PUSH3 0x79C2 JUMP JUMPDEST PUSH3 0x184A JUMP JUMPDEST PUSH1 0x40 MLOAD PUSH3 0x59A SWAP2 SWAP1 PUSH3 0x7160 JUMP JUMPDEST PUSH1 0x40 MLOAD DUP1 SWAP2 SUB SWAP1 RETURN JUMPDEST CALLVALUE DUP1 ISZERO PUSH3 0x5B0 JUMPI PUSH1 0x0 DUP1 REVERT JUMPDEST POP PUSH3 0x5CF PUSH1 0x4 DUP1 CALLDATASIZE SUB DUP2 ADD SWAP1 PUSH3 0x5C9 SWAP2 SWAP1 PUSH3 0x7A1E JUMP JUMPDEST PUSH3 0x1B52 JUMP JUMPDEST PUSH1 0x40 MLOAD PUSH3 0x5DE SWAP2 SWAP1 PUSH3 0x7160 JUMP JUMPDEST PUSH1 0x40 MLOAD DUP1 SWAP2 SUB SWAP1 RETURN JUMPDEST CALLVALUE DUP1 ISZERO PUSH3 0x5F4 JUMPI PUSH1 0x0 DUP1 REVERT JUMPDEST POP PUSH3 0x613 PUSH1 0x4 DUP1 CALLDATASIZE SUB DUP2 ADD SWAP1 PUSH3 0x60D SWAP2 SWAP1 PUSH3 0x7A50 JUMP JUMPDEST PUSH3 0x1C04 JUMP JUMPDEST PUSH1 0x40 MLOAD PUSH3 0x622 SWAP2 SWAP1 PUSH3 0x7B9B JUMP JUMPDEST PUSH1 0x40 MLOAD DUP1 SWAP2 SUB SWAP1 RETURN JUMPDEST CALLVALUE DUP1 ISZERO PUSH3 0x638 JUMPI PUSH1 0x0 DUP1 REVERT JUMPDEST POP PUSH3 0x657 PUSH1 0x4 DUP1 CALLDATASIZE SUB DUP2 ADD SWAP1 PUSH3 0x651 SWAP2 SWAP1 PUSH3 0x7246 JUMP JUMPDEST PUSH3 0x1D43 JUMP JUMPDEST PUSH1 0x40 MLOAD PUSH3 0x666 SWAP2 SWAP1 PUSH3 0x7229 JUMP JUMPDEST PUSH1 0x40 MLOAD DUP1 SWAP2 SUB SWAP1 RETURN JUMPDEST CALLVALUE DUP1 ISZERO PUSH3 0x67C JUMPI PUSH1 0x0 DUP1 REVERT JUMPDEST POP PUSH3 0x69B PUSH1 0x4 DUP1 CALLDATASIZE SUB DUP2 ADD SWAP1 PUSH3 0x695 SWAP2 SWAP1 PUSH3 0x7A1E JUMP JUMPDEST PUSH3 0x1D62 JUMP JUMPDEST PUSH1 0x40 MLOAD PUSH3 0x6AA SWAP2 SWAP1 PUSH3 0x7160 JUMP JUMPDEST PUSH1 0x40 MLOAD DUP1 SWAP2 SUB SWAP1 RETURN JUMPDEST CALLVALUE DUP1 ISZERO PUSH3 0x6C0 JUMPI PUSH1 0x0 DUP1 REVERT JUMPDEST POP PUSH3 0x6CB PUSH3 0x1DAB JUMP JUMPDEST STOP JUMPDEST CALLVALUE DUP1 ISZERO PUSH3 0x6DA JUMPI PUSH1 0x0 DUP1 REVERT JUMPDEST POP PUSH3 0x6F9 PUSH1 0x4 DUP1 CALLDATASIZE SUB DUP2 ADD SWAP1 PUSH3 0x6F3 SWAP2 SWAP1 PUSH3 0x7108 JUMP JUMPDEST PUSH3 0x1E28 JUMP JUMPDEST STOP JUMPDEST CALLVALUE DUP1 ISZERO PUSH3 0x708 JUMPI PUSH1 0x0 DUP1 REVERT JUMPDEST POP PUSH3 0x727 PUSH1 0x4 DUP1 CALLDATASIZE SUB DUP2 ADD SWAP1 PUSH3 0x721 SWAP2 SWAP1 PUSH3 0x7950 JUMP JUMPDEST PUSH3 0x2077 JUMP JUMPDEST PUSH1 0x40 MLOAD PUSH3 0x736 SWAP2 SWAP1 PUSH3 0x7160 JUMP JUMPDEST PUSH1 0x40 MLOAD DUP1 SWAP2 SUB SWAP1 RETURN JUMPDEST PUSH3 0x75D PUSH1 0x4 DUP1 CALLDATASIZE SUB DUP2 ADD SWAP1 PUSH3 0x757 SWAP2 SWAP1 PUSH3 0x7950 JUMP JUMPDEST PUSH3 0x21B7 JUMP JUMPDEST STOP JUMPDEST CALLVALUE DUP1 ISZERO PUSH3 0x76C JUMPI PUSH1 0x0 DUP1 REVERT JUMPDEST POP PUSH3 0x777 PUSH3 0x21CD JUMP JUMPDEST PUSH1 0x40 MLOAD PUSH3 0x786 SWAP2 SWAP1 PUSH3 0x7C6C JUMP JUMPDEST PUSH1 0x40 MLOAD DUP1 SWAP2 SUB SWAP1 RETURN JUMPDEST CALLVALUE DUP1 ISZERO PUSH3 0x79C JUMPI PUSH1 0x0 DUP1 REVERT JUMPDEST POP PUSH3 0x7A7 PUSH3 0x227B JUMP JUMPDEST PUSH1 0x40 MLOAD PUSH3 0x7B6 SWAP2 SWAP1 PUSH3 0x7289 JUMP JUMPDEST PUSH1 0x40 MLOAD DUP1 SWAP2 SUB SWAP1 RETURN JUMPDEST CALLVALUE DUP1 ISZERO PUSH3 0x7CC JUMPI PUSH1 0x0 DUP1 REVERT JUMPDEST POP PUSH3 0x7D7 PUSH3 0x22A5 JUMP JUMPDEST PUSH1 0x40 MLOAD PUSH3 0x7E6 SWAP2 SWAP1 PUSH3 0x734A JUMP JUMPDEST PUSH1 0x40 MLOAD DUP1 SWAP2 SUB SWAP1 RETURN JUMPDEST CALLVALUE DUP1 ISZERO PUSH3 0x7FC JUMPI PUSH1 0x0 DUP1 REVERT JUMPDEST POP PUSH3 0x81B PUSH1 0x4 DUP1 CALLDATASIZE SUB DUP2 ADD SWAP1 PUSH3 0x815 SWAP2 SWAP1 PUSH3 0x7CBA JUMP JUMPDEST PUSH3 0x233F JUMP JUMPDEST STOP JUMPDEST PUSH3 0x83B PUSH1 0x4 DUP1 CALLDATASIZE SUB DUP2 ADD SWAP1 PUSH3 0x835 SWAP2 SWAP1 PUSH3 0x7D01 JUMP JUMPDEST PUSH3 0x23C3 JUMP JUMPDEST PUSH1 0x40 MLOAD PUSH3 0x84A SWAP2 SWAP1 PUSH3 0x7B9B JUMP JUMPDEST PUSH1 0x40 MLOAD DUP1 SWAP2 SUB SWAP1 RETURN JUMPDEST CALLVALUE DUP1 ISZERO PUSH3 0x860 JUMPI PUSH1 0x0 DUP1 REVERT JUMPDEST POP PUSH3 0x87F PUSH1 0x4 DUP1 CALLDATASIZE SUB DUP2 ADD SWAP1 PUSH3 0x879 SWAP2 SWAP1 PUSH3 0x7DFC JUMP JUMPDEST PUSH3 0x2B66 JUMP JUMPDEST STOP JUMPDEST CALLVALUE DUP1 ISZERO PUSH3 0x88E JUMPI PUSH1 0x0 DUP1 REVERT JUMPDEST POP PUSH3 0x899 PUSH3 0x2C1B JUMP JUMPDEST STOP JUMPDEST CALLVALUE DUP1 ISZERO PUSH3 0x8A8 JUMPI PUSH1 0x0 DUP1 REVERT JUMPDEST POP PUSH3 0x8C7 PUSH1 0x4 DUP1 CALLDATASIZE SUB DUP2 ADD SWAP1 PUSH3 0x8C1 SWAP2 SWAP1 PUSH3 0x7246 JUMP JUMPDEST PUSH3 0x2CC1 JUMP JUMPDEST PUSH1 0x40 MLOAD PUSH3 0x8D6 SWAP2 SWAP1 PUSH3 0x7160 JUMP JUMPDEST PUSH1 0x40 MLOAD DUP1 SWAP2 SUB SWAP1 RETURN JUMPDEST PUSH3 0x8E9 PUSH3 0x2CDE JUMP JUMPDEST STOP JUMPDEST CALLVALUE DUP1 ISZERO PUSH3 0x8F8 JUMPI PUSH1 0x0 DUP1 REVERT JUMPDEST POP PUSH3 0x917 PUSH1 0x4 DUP1 CALLDATASIZE SUB DUP2 ADD SWAP1 PUSH3 0x911 SWAP2 SWAP1 PUSH3 0x79C2 JUMP JUMPDEST PUSH3 0x2DA3 JUMP JUMPDEST PUSH1 0x40 MLOAD PUSH3 0x926 SWAP2 SWAP1 PUSH3 0x7160 JUMP JUMPDEST PUSH1 0x40 MLOAD DUP1 SWAP2 SUB SWAP1 RETURN JUMPDEST CALLVALUE DUP1 ISZERO PUSH3 0x93C JUMPI PUSH1 0x0 DUP1 REVERT JUMPDEST POP PUSH3 0x95B PUSH1 0x4 DUP1 CALLDATASIZE SUB DUP2 ADD SWAP1 PUSH3 0x955 SWAP2 SWAP1 PUSH3 0x7108 JUMP JUMPDEST PUSH3 0x30AB JUMP JUMPDEST STOP JUMPDEST PUSH3 0x97B PUSH1 0x4 DUP1 CALLDATASIZE SUB DUP2 ADD SWAP1 PUSH3 0x975 SWAP2 SWAP1 PUSH3 0x7950 JUMP JUMPDEST PUSH3 0x331D JUMP JUMPDEST STOP JUMPDEST CALLVALUE DUP1 ISZERO PUSH3 0x98A JUMPI PUSH1 0x0 DUP1 REVERT JUMPDEST POP PUSH3 0x9A9 PUSH1 0x4 DUP1 CALLDATASIZE SUB DUP2 ADD SWAP1 PUSH3 0x9A3 SWAP2 SWAP1 PUSH3 0x7E51 JUMP JUMPDEST PUSH3 0x33B3 JUMP JUMPDEST PUSH1 0x40 MLOAD PUSH3 0x9B8 SWAP2 SWAP1 PUSH3 0x7229 JUMP JUMPDEST PUSH1 0x40 MLOAD DUP1 SWAP2 SUB SWAP1 RETURN JUMPDEST CALLVALUE DUP1 ISZERO PUSH3 0x9CE JUMPI PUSH1 0x0 DUP1 REVERT JUMPDEST POP PUSH3 0x9ED PUSH1 0x4 DUP1 CALLDATASIZE SUB DUP2 ADD SWAP1 PUSH3 0x9E7 SWAP2 SWAP1 PUSH3 0x7E98 JUMP JUMPDEST PUSH3 0x3447 JUMP JUMPDEST STOP JUMPDEST CALLVALUE DUP1 ISZERO PUSH3 0x9FC JUMPI PUSH1 0x0 DUP1 REVERT JUMPDEST POP PUSH3 0xA1B PUSH1 0x4 DUP1 CALLDATASIZE SUB DUP2 ADD SWAP1 PUSH3 0xA15 SWAP2 SWAP1 PUSH3 0x7F20 JUMP JUMPDEST PUSH3 0x351A JUMP JUMPDEST STOP JUMPDEST CALLVALUE DUP1 ISZERO PUSH3 0xA2A JUMPI PUSH1 0x0 DUP1 REVERT JUMPDEST POP PUSH3 0xA49 PUSH1 0x4 DUP1 CALLDATASIZE SUB DUP2 ADD SWAP1 PUSH3 0xA43 SWAP2 SWAP1 PUSH3 0x7A1E JUMP JUMPDEST PUSH3 0x3623 JUMP JUMPDEST STOP JUMPDEST PUSH3 0xA69 PUSH1 0x4 DUP1 CALLDATASIZE SUB DUP2 ADD SWAP1 PUSH3 0xA63 SWAP2 SWAP1 PUSH3 0x7D01 JUMP JUMPDEST PUSH3 0x3708 JUMP JUMPDEST PUSH1 0x40 MLOAD PUSH3 0xA78 SWAP2 SWAP1 PUSH3 0x7B9B JUMP JUMPDEST PUSH1 0x40 MLOAD DUP1 SWAP2 SUB SWAP1 RETURN JUMPDEST CALLER PUSH20 0xFFFFFFFFFFFFFFFFFFFFFFFFFFFFFFFFFFFFFFFF AND PUSH3 0xAA2 PUSH3 0x227B JUMP JUMPDEST PUSH20 0xFFFFFFFFFFFFFFFFFFFFFFFFFFFFFFFFFFFFFFFF AND EQ PUSH3 0xAF0 JUMPI PUSH1 0x40 MLOAD PUSH32 0xEBF9845900000000000000000000000000000000000000000000000000000000 DUP2 MSTORE PUSH1 0x4 ADD PUSH1 0x40 MLOAD DUP1 SWAP2 SUB SWAP1 REVERT JUMPDEST DUP1 PUSH1 0x40 ADD CALLDATALOAD PUSH1 0x0 EQ DUP1 PUSH3 0xB0B JUMPI POP DUP1 PUSH1 0x60 ADD CALLDATALOAD DUP2 PUSH1 0x40 ADD CALLDATALOAD GT JUMPDEST DUP1 PUSH3 0xB1C JUMPI POP PUSH2 0x1F4 DUP2 PUSH1 0x60 ADD CALLDATALOAD GT JUMPDEST ISZERO PUSH3 0xB54 JUMPI PUSH1 0x40 MLOAD PUSH32 0xE8404B1A00000000000000000000000000000000000000000000000000000000 DUP2 MSTORE PUSH1 0x4 ADD PUSH1 0x40 MLOAD DUP1 SWAP2 SUB SWAP1 REVERT JUMPDEST DUP1 PUSH1 0xA0 ADD CALLDATALOAD DUP2 PUSH1 0x80 ADD CALLDATALOAD GT ISZERO PUSH3 0xB97 JUMPI PUSH1 0x40 MLOAD PUSH32 0xEBC2E01600000000000000000000000000000000000000000000000000000000 DUP2 MSTORE PUSH1 0x4 ADD PUSH1 0x40 MLOAD DUP1 SWAP2 SUB SWAP1 REVERT JUMPDEST PUSH1 0x64 PUSH1 0x2 DUP3 PUSH1 0x20 ADD CALLDATALOAD PUSH3 0xBAC SWAP2 SWAP1 PUSH3 0x7FF9 JUMP JUMPDEST LT PUSH3 0xBE4 JUMPI PUSH1 0x40 MLOAD PUSH32 0x28AF878600000000000000000000000000000000000000000000000000000000 DUP2 MSTORE PUSH1 0x4 ADD PUSH1 0x40 MLOAD DUP1 SWAP2 SUB SWAP1 REVERT JUMPDEST DUP1 PUSH1 0x7 DUP2 DUP2 PUSH3 0xBF5 SWAP2 SWAP1 PUSH3 0x8302 JUMP JUMPDEST SWAP1 POP POP POP JUMP JUMPDEST PUSH1 0x0 DUP1 PUSH20 0xFFFFFFFFFFFFFFFFFFFFFFFFFFFFFFFFFFFFFFFF AND DUP4 PUSH20 0xFFFFFFFFFFFFFFFFFFFFFFFFFFFFFFFFFFFFFFFF AND EQ ISZERO PUSH3 0xC64 JUMPI PUSH1 0x40 MLOAD PUSH32 0xDC768A8E00000000000000000000000000000000000000000000000000000000 DUP2 MSTORE PUSH1 0x4 ADD PUSH1 0x40 MLOAD DUP1 SWAP2 SUB SWAP1 REVERT JUMPDEST PUSH1 0xE PUSH1 0x0 DUP4 DUP2 MSTORE PUSH1 0x20 ADD SWAP1 DUP2 MSTORE PUSH1 0x20 ADD PUSH1 0x0 KECCAK256 PUSH1 0x0 DUP5 PUSH20 0xFFFFFFFFFFFFFFFFFFFFFFFFFFFFFFFFFFFFFFFF AND PUSH20 0xFFFFFFFFFFFFFFFFFFFFFFFFFFFFFFFFFFFFFFFF AND DUP2 MSTORE PUSH1 0x20 ADD SWAP1 DUP2 MSTORE PUSH1 0x20 ADD PUSH1 0x0 KECCAK256 SLOAD SWAP1 POP SWAP3 SWAP2 POP POP JUMP JUMPDEST PUSH1 0x0 PUSH32 0x1FFC9A700000000000000000000000000000000000000000000000000000000 PUSH28 0xFFFFFFFFFFFFFFFFFFFFFFFFFFFFFFFFFFFFFFFFFFFFFFFFFFFFFFFF NOT AND DUP3 PUSH28 0xFFFFFFFFFFFFFFFFFFFFFFFFFFFFFFFFFFFFFFFFFFFFFFFFFFFFFFFF NOT AND EQ SWAP1 POP SWAP2 SWAP1 POP JUMP JUMPDEST PUSH1 0x0 PUSH20 0xDEF1FAC7BF08F173D286BBBDCBEEADE695129840 PUSH20 0xFFFFFFFFFFFFFFFFFFFFFFFFFFFFFFFFFFFFFFFF AND PUSH4 0x6FB1A07 DUP4 PUSH1 0x40 MLOAD DUP3 PUSH4 0xFFFFFFFF AND PUSH1 0xE0 SHL DUP2 MSTORE PUSH1 0x4 ADD PUSH3 0xD78 SWAP2 SWAP1 PUSH3 0x7160 JUMP JUMPDEST PUSH1 0x20 PUSH1 0x40 MLOAD DUP1 DUP4 SUB DUP2 DUP7 GAS STATICCALL ISZERO DUP1 ISZERO PUSH3 0xD96 JUMPI RETURNDATASIZE PUSH1 0x0 DUP1 RETURNDATACOPY RETURNDATASIZE PUSH1 0x0 REVERT JUMPDEST POP POP POP POP PUSH1 0x40 MLOAD RETURNDATASIZE PUSH1 0x1F NOT PUSH1 0x1F DUP3 ADD AND DUP3 ADD DUP1 PUSH1 0x40 MSTORE POP DUP2 ADD SWAP1 PUSH3 0xDBC SWAP2 SWAP1 PUSH3 0x8329 JUMP JUMPDEST SWAP1 POP SWAP2 SWAP1 POP JUMP JUMPDEST PUSH1 0x60 PUSH1 0x12 DUP1 SLOAD PUSH3 0xDD4 SWAP1 PUSH3 0x838A JUMP JUMPDEST DUP1 PUSH1 0x1F ADD PUSH1 0x20 DUP1 SWAP2 DIV MUL PUSH1 0x20 ADD PUSH1 0x40 MLOAD SWAP1 DUP2 ADD PUSH1 0x40 MSTORE DUP1 SWAP3 SWAP2 SWAP1 DUP2 DUP2 MSTORE PUSH1 0x20 ADD DUP3 DUP1 SLOAD PUSH3 0xE02 SWAP1 PUSH3 0x838A JUMP JUMPDEST DUP1 ISZERO PUSH3 0xE53 JUMPI DUP1 PUSH1 0x1F LT PUSH3 0xE27 JUMPI PUSH2 0x100 DUP1 DUP4 SLOAD DIV MUL DUP4 MSTORE SWAP2 PUSH1 0x20 ADD SWAP2 PUSH3 0xE53 JUMP JUMPDEST DUP3 ADD SWAP2 SWAP1 PUSH1 0x0 MSTORE PUSH1 0x20 PUSH1 0x0 KECCAK256 SWAP1 JUMPDEST DUP2 SLOAD DUP2 MSTORE SWAP1 PUSH1 0x1 ADD SWAP1 PUSH1 0x20 ADD DUP1 DUP4 GT PUSH3 0xE35 JUMPI DUP3 SWAP1 SUB PUSH1 0x1F AND DUP3 ADD SWAP2 JUMPDEST POP POP POP POP POP SWAP1 POP SWAP1 JUMP JUMPDEST PUSH1 0x60 PUSH1 0x14 DUP3 PUSH1 0x40 MLOAD PUSH1 0x20 ADD PUSH3 0xE75 SWAP3 SWAP2 SWAP1 PUSH3 0x84E0 JUMP JUMPDEST PUSH1 0x40 MLOAD PUSH1 0x20 DUP2 DUP4 SUB SUB DUP2 MSTORE SWAP1 PUSH1 0x40 MSTORE SWAP1 POP SWAP2 SWAP1 POP JUMP JUMPDEST PUSH1 0x0 DUP1 PUSH1 0x0 JUMPDEST PUSH1 0x0 PUSH1 0x11 PUSH1 0x0 DUP5 PUSH3 0xEA3 SWAP1 PUSH3 0x8519 JUMP JUMPDEST SWAP5 POP DUP5 DUP2 MSTORE PUSH1 0x20 ADD SWAP1 DUP2 MSTORE PUSH1 0x20 ADD PUSH1 0x0 KECCAK256 SLOAD GT ISZERO PUSH3 0xEE5 JUMPI PUSH1 0x11 PUSH1 0x0 DUP4 DUP2 MSTORE PUSH1 0x20 ADD SWAP1 DUP2 MSTORE PUSH1 0x20 ADD PUSH1 0x0 KECCAK256 SLOAD DUP2 PUSH3 0xEDD SWAP2 SWAP1 PUSH3 0x8567 JUMP JUMPDEST SWAP1 POP PUSH3 0xE91 JUMP JUMPDEST DUP1 SWAP3 POP POP POP SWAP1 JUMP JUMPDEST PUSH1 0x3 PUSH1 0x20 MSTORE DUP2 PUSH1 0x0 MSTORE PUSH1 0x40 PUSH1 0x0 KECCAK256 PUSH1 0x20 MSTORE DUP1 PUSH1 0x0 MSTORE PUSH1 0x40 PUSH1 0x0 KECCAK256 PUSH1 0x0 SWAP2 POP SWAP2 POP POP DUP1 PUSH1 0x0 ADD PUSH1 0x0 SWAP1 SLOAD SWAP1 PUSH2 0x100 EXP SWAP1 DIV PUSH2 0xFFFF AND SWAP1 DUP1 PUSH1 0x0 ADD PUSH1 0x2 SWAP1 SLOAD SWAP1 PUSH2 0x100 EXP SWAP1 DIV PUSH16 0xFFFFFFFFFFFFFFFFFFFFFFFFFFFFFFFF AND SWAP1 POP DUP3 JUMP JUMPDEST PUSH1 0x0 PUSH3 0xF56 PUSH1 0x3 PUSH3 0xD27 JUMP JUMPDEST SWAP1 POP DUP1 PUSH20 0xFFFFFFFFFFFFFFFFFFFFFFFFFFFFFFFFFFFFFFFF AND PUSH4 0xEEF84BA1 PUSH1 0x40 MLOAD DUP2 PUSH4 0xFFFFFFFF AND PUSH1 0xE0 SHL DUP2 MSTORE PUSH1 0x4 ADD PUSH1 0x0 PUSH1 0x40 MLOAD DUP1 DUP4 SUB DUP2 PUSH1 0x0 DUP8 DUP1 EXTCODESIZE ISZERO DUP1 ISZERO PUSH3 0xFA1 JUMPI PUSH1 0x0 DUP1 REVERT JUMPDEST POP GAS CALL ISZERO DUP1 ISZERO PUSH3 0xFB6 JUMPI RETURNDATASIZE PUSH1 0x0 DUP1 RETURNDATACOPY RETURNDATASIZE PUSH1 0x0 REVERT JUMPDEST POP POP POP POP CALLER PUSH20 0xFFFFFFFFFFFFFFFFFFFFFFFFFFFFFFFFFFFFFFFF AND DUP10 PUSH20 0xFFFFFFFFFFFFFFFFFFFFFFFFFFFFFFFFFFFFFFFF AND EQ ISZERO DUP1 ISZERO PUSH3 0x1000 JUMPI POP PUSH3 0xFFE DUP10 CALLER PUSH3 0x33B3 JUMP JUMPDEST ISZERO JUMPDEST ISZERO PUSH3 0x1038 JUMPI PUSH1 0x40 MLOAD PUSH32 0x6F34AAA800000000000000000000000000000000000000000000000000000000 DUP2 MSTORE PUSH1 0x4 ADD PUSH1 0x40 MLOAD DUP1 SWAP2 SUB SWAP1 REVERT JUMPDEST PUSH3 0x104A DUP10 DUP10 DUP10 DUP10 DUP10 DUP10 DUP10 DUP10 PUSH3 0x3FD7 JUMP JUMPDEST POP POP POP POP POP POP POP POP POP JUMP JUMPDEST PUSH1 0x0 PUSH1 0x12 SWAP1 POP SWAP1 JUMP JUMPDEST PUSH1 0x60 PUSH1 0x0 DUP4 DUP4 SWAP1 POP PUSH8 0xFFFFFFFFFFFFFFFF DUP2 GT ISZERO PUSH3 0x1082 JUMPI PUSH3 0x1081 PUSH3 0x7784 JUMP JUMPDEST JUMPDEST PUSH1 0x40 MLOAD SWAP1 DUP1 DUP3 MSTORE DUP1 PUSH1 0x20 MUL PUSH1 0x20 ADD DUP3 ADD PUSH1 0x40 MSTORE DUP1 ISZERO PUSH3 0x10BF JUMPI DUP2 PUSH1 0x20 ADD JUMPDEST PUSH3 0x10AB PUSH3 0x6E3F JUMP JUMPDEST DUP2 MSTORE PUSH1 0x20 ADD SWAP1 PUSH1 0x1 SWAP1 SUB SWAP1 DUP2 PUSH3 0x10A1 JUMPI SWAP1 POP JUMPDEST POP SWAP1 POP PUSH1 0x0 JUMPDEST DUP5 DUP5 SWAP1 POP DUP2 LT ISZERO PUSH3 0x11D3 JUMPI PUSH1 0x0 DUP6 DUP6 DUP4 DUP2 DUP2 LT PUSH3 0x10E9 JUMPI PUSH3 0x10E8 PUSH3 0x85C4 JUMP JUMPDEST JUMPDEST SWAP1 POP PUSH1 0x20 MUL ADD PUSH1 0x20 DUP2 ADD SWAP1 PUSH3 0x1100 SWAP2 SWAP1 PUSH3 0x7A1E JUMP JUMPDEST SWAP1 POP PUSH1 0x0 PUSH1 0x1 PUSH1 0x2 PUSH1 0x0 DUP5 PUSH20 0xFFFFFFFFFFFFFFFFFFFFFFFFFFFFFFFFFFFFFFFF AND PUSH20 0xFFFFFFFFFFFFFFFFFFFFFFFFFFFFFFFFFFFFFFFF AND DUP2 MSTORE PUSH1 0x20 ADD SWAP1 DUP2 MSTORE PUSH1 0x20 ADD PUSH1 0x0 KECCAK256 SLOAD DUP2 SLOAD DUP2 LT PUSH3 0x115A JUMPI PUSH3 0x1159 PUSH3 0x85C4 JUMP JUMPDEST JUMPDEST SWAP1 PUSH1 0x0 MSTORE PUSH1 0x20 PUSH1 0x0 KECCAK256 SWAP1 PUSH1 0x2 MUL ADD SWAP1 POP PUSH3 0x119A DUP3 DUP3 PUSH1 0x0 ADD PUSH1 0x0 SWAP1 SLOAD SWAP1 PUSH2 0x100 EXP SWAP1 DIV PUSH20 0xFFFFFFFFFFFFFFFFFFFFFFFFFFFFFFFFFFFFFFFF AND PUSH3 0x4394 JUMP JUMPDEST DUP5 DUP5 DUP2 MLOAD DUP2 LT PUSH3 0x11B0 JUMPI PUSH3 0x11AF PUSH3 0x85C4 JUMP JUMPDEST JUMPDEST PUSH1 0x20 MUL PUSH1 0x20 ADD ADD DUP2 SWAP1 MSTORE POP POP POP DUP1 DUP1 PUSH3 0x11CA SWAP1 PUSH3 0x8519 JUMP JUMPDEST SWAP2 POP POP PUSH3 0x10C5 JUMP JUMPDEST POP DUP1 SWAP2 POP POP SWAP3 SWAP2 POP POP JUMP JUMPDEST CALLER PUSH20 0xFFFFFFFFFFFFFFFFFFFFFFFFFFFFFFFFFFFFFFFF AND PUSH3 0x11FF PUSH3 0x227B JUMP JUMPDEST PUSH20 0xFFFFFFFFFFFFFFFFFFFFFFFFFFFFFFFFFFFFFFFF AND EQ PUSH3 0x124D JUMPI PUSH1 0x40 MLOAD PUSH32 0xEBF9845900000000000000000000000000000000000000000000000000000000 DUP2 MSTORE PUSH1 0x4 ADD PUSH1 0x40 MLOAD DUP1 SWAP2 SUB SWAP1 REVERT JUMPDEST DUP2 PUSH1 0x12 SWAP1 DUP1 MLOAD SWAP1 PUSH1 0x20 ADD SWAP1 PUSH3 0x1265 SWAP3 SWAP2 SWAP1 PUSH3 0x6E59 JUMP JUMPDEST POP DUP1 PUSH1 0x13 SWAP1 DUP1 MLOAD SWAP1 PUSH1 0x20 ADD SWAP1 PUSH3 0x127E SWAP3 SWAP2 SWAP1 PUSH3 0x6E59 JUMP JUMPDEST POP POP POP JUMP JUMPDEST PUSH1 0x0 DUP5 PUSH1 0x0 PUSH1 0x2 PUSH1 0x0 DUP4 PUSH20 0xFFFFFFFFFFFFFFFFFFFFFFFFFFFFFFFFFFFFFFFF AND PUSH20 0xFFFFFFFFFFFFFFFFFFFFFFFFFFFFFFFFFFFFFFFF AND DUP2 MSTORE PUSH1 0x20 ADD SWAP1 DUP2 MSTORE PUSH1 0x20 ADD PUSH1 0x0 KECCAK256 SLOAD EQ DUP1 PUSH3 0x1320 JUMPI POP PUSH1 0x0 DUP1 SLOAD SWAP1 PUSH2 0x100 EXP SWAP1 DIV PUSH20 0xFFFFFFFFFFFFFFFFFFFFFFFFFFFFFFFFFFFFFFFF AND PUSH20 0xFFFFFFFFFFFFFFFFFFFFFFFFFFFFFFFFFFFFFFFF AND DUP2 PUSH20 0xFFFFFFFFFFFFFFFFFFFFFFFFFFFFFFFFFFFFFFFF AND EQ JUMPDEST ISZERO PUSH3 0x1363 JUMPI PUSH1 0x40 MLOAD PUSH32 0x8C379A000000000000000000000000000000000000000000000000000000000 DUP2 MSTORE PUSH1 0x4 ADD PUSH3 0x135A SWAP1 PUSH3 0x8643 JUMP JUMPDEST PUSH1 0x40 MLOAD DUP1 SWAP2 SUB SWAP1 REVERT JUMPDEST DUP4 DUP1 TIMESTAMP GT ISZERO PUSH3 0x13AA JUMPI PUSH1 0x40 MLOAD PUSH32 0x8C379A000000000000000000000000000000000000000000000000000000000 DUP2 MSTORE PUSH1 0x4 ADD PUSH3 0x13A1 SWAP1 PUSH3 0x86B5 JUMP JUMPDEST PUSH1 0x40 MLOAD DUP1 SWAP2 SUB SWAP1 REVERT JUMPDEST PUSH1 0x0 PUSH1 0x2 PUSH1 0x0 DUP10 PUSH20 0xFFFFFFFFFFFFFFFFFFFFFFFFFFFFFFFFFFFFFFFF AND PUSH20 0xFFFFFFFFFFFFFFFFFFFFFFFFFFFFFFFFFFFFFFFF AND DUP2 MSTORE PUSH1 0x20 ADD SWAP1 DUP2 MSTORE PUSH1 0x20 ADD PUSH1 0x0 KECCAK256 SLOAD SWAP1 POP PUSH1 0x0 PUSH1 0x1 DUP3 DUP2 SLOAD DUP2 LT PUSH3 0x1407 JUMPI PUSH3 0x1406 PUSH3 0x85C4 JUMP JUMPDEST JUMPDEST SWAP1 PUSH1 0x0 MSTORE PUSH1 0x20 PUSH1 0x0 KECCAK256 SWAP1 PUSH1 0x2 MUL ADD SWAP1 POP PUSH1 0x0 PUSH3 0x1449 DUP11 DUP4 PUSH1 0x0 ADD PUSH1 0x0 SWAP1 SLOAD SWAP1 PUSH2 0x100 EXP SWAP1 DIV PUSH20 0xFFFFFFFFFFFFFFFFFFFFFFFFFFFFFFFFFFFFFFFF AND PUSH3 0x4394 JUMP JUMPDEST SWAP1 POP PUSH3 0x147D DUP11 CALLER DUP5 PUSH1 0x0 ADD PUSH1 0x0 SWAP1 SLOAD SWAP1 PUSH2 0x100 EXP SWAP1 DIV PUSH20 0xFFFFFFFFFFFFFFFFFFFFFFFFFFFFFFFFFFFFFFFF AND DUP13 PUSH3 0x43F1 JUMP JUMPDEST PUSH1 0x0 PUSH3 0x14AF DUP12 DUP5 PUSH1 0x0 ADD PUSH1 0x0 SWAP1 SLOAD SWAP1 PUSH2 0x100 EXP SWAP1 DIV PUSH20 0xFFFFFFFFFFFFFFFFFFFFFFFFFFFFFFFFFFFFFFFF AND PUSH3 0x4394 JUMP JUMPDEST SWAP1 POP DUP2 PUSH1 0x0 ADD MLOAD DUP2 PUSH1 0x0 ADD MLOAD PUSH3 0x14C7 SWAP2 SWAP1 PUSH3 0x86D7 JUMP JUMPDEST SWAP10 POP PUSH1 0x1 DUP11 GT PUSH3 0x150F JUMPI PUSH1 0x40 MLOAD PUSH32 0x8C379A000000000000000000000000000000000000000000000000000000000 DUP2 MSTORE PUSH1 0x4 ADD PUSH3 0x1506 SWAP1 PUSH3 0x8762 JUMP JUMPDEST PUSH1 0x40 MLOAD DUP1 SWAP2 SUB SWAP1 REVERT JUMPDEST PUSH1 0x0 PUSH3 0x1531 DUP4 PUSH1 0x20 ADD MLOAD DUP5 PUSH1 0x0 ADD MLOAD PUSH3 0x152B SWAP2 SWAP1 PUSH3 0x7FF9 JUMP JUMPDEST PUSH3 0x4665 JUMP JUMPDEST SWAP1 POP PUSH1 0x0 PUSH3 0x1587 DUP6 PUSH1 0x1 ADD PUSH1 0x0 SWAP1 SLOAD SWAP1 PUSH2 0x100 EXP SWAP1 DIV PUSH16 0xFFFFFFFFFFFFFFFFFFFFFFFFFFFFFFFF AND PUSH16 0xFFFFFFFFFFFFFFFFFFFFFFFFFFFFFFFF AND DUP4 PUSH1 0x11 PUSH1 0x0 DUP11 DUP2 MSTORE PUSH1 0x20 ADD SWAP1 DUP2 MSTORE PUSH1 0x20 ADD PUSH1 0x0 KECCAK256 SLOAD PUSH3 0x46EE JUMP JUMPDEST SWAP1 POP PUSH3 0x15CB PUSH1 0x7 PUSH1 0x0 ADD PUSH1 0x0 SWAP1 SLOAD SWAP1 PUSH2 0x100 EXP SWAP1 DIV PUSH20 0xFFFFFFFFFFFFFFFFFFFFFFFFFFFFFFFFFFFFFFFF AND DUP8 DUP4 PUSH1 0x40 MLOAD DUP1 PUSH1 0x20 ADD PUSH1 0x40 MSTORE DUP1 PUSH1 0x0 DUP2 MSTORE POP PUSH3 0x4797 JUMP JUMPDEST PUSH1 0x0 DUP5 PUSH1 0x0 ADD MLOAD PUSH1 0x11 PUSH1 0x0 DUP10 DUP2 MSTORE PUSH1 0x20 ADD SWAP1 DUP2 MSTORE PUSH1 0x20 ADD PUSH1 0x0 KECCAK256 SLOAD DUP15 PUSH3 0x15F3 SWAP2 SWAP1 PUSH3 0x7FF9 JUMP JUMPDEST PUSH3 0x15FF SWAP2 SWAP1 PUSH3 0x87B3 JUMP JUMPDEST SWAP1 POP PUSH3 0x161E DUP12 DUP9 DUP4 PUSH1 0x40 MLOAD DUP1 PUSH1 0x20 ADD PUSH1 0x40 MSTORE DUP1 PUSH1 0x0 DUP2 MSTORE POP PUSH3 0x4797 JUMP JUMPDEST PUSH1 0x0 DUP6 PUSH1 0x0 ADD MLOAD DUP7 PUSH1 0x20 ADD MLOAD DUP16 PUSH3 0x1637 SWAP2 SWAP1 PUSH3 0x7FF9 JUMP JUMPDEST PUSH3 0x1643 SWAP2 SWAP1 PUSH3 0x87B3 JUMP JUMPDEST SWAP1 POP PUSH1 0x1 DUP2 GT PUSH3 0x1680 JUMPI PUSH1 0x40 MLOAD PUSH32 0x206F960000000000000000000000000000000000000000000000000000000000 DUP2 MSTORE PUSH1 0x4 ADD PUSH1 0x40 MLOAD DUP1 SWAP2 SUB SWAP1 REVERT JUMPDEST PUSH1 0x0 DUP1 SLOAD SWAP1 PUSH2 0x100 EXP SWAP1 DIV PUSH20 0xFFFFFFFFFFFFFFFFFFFFFFFFFFFFFFFFFFFFFFFF AND PUSH20 0xFFFFFFFFFFFFFFFFFFFFFFFFFFFFFFFFFFFFFFFF AND PUSH4 0xBB9FF5D DUP9 PUSH1 0x0 ADD PUSH1 0x0 SWAP1 SLOAD SWAP1 PUSH2 0x100 EXP SWAP1 DIV PUSH20 0xFFFFFFFFFFFFFFFFFFFFFFFFFFFFFFFFFFFFFFFF AND DUP4 PUSH1 0x40 MLOAD DUP4 PUSH4 0xFFFFFFFF AND PUSH1 0xE0 SHL DUP2 MSTORE PUSH1 0x4 ADD PUSH3 0x1701 SWAP3 SWAP2 SWAP1 PUSH3 0x87EB JUMP JUMPDEST PUSH1 0x0 PUSH1 0x40 MLOAD DUP1 DUP4 SUB DUP2 PUSH1 0x0 DUP8 DUP1 EXTCODESIZE ISZERO DUP1 ISZERO PUSH3 0x171C JUMPI PUSH1 0x0 DUP1 REVERT JUMPDEST POP GAS CALL ISZERO DUP1 ISZERO PUSH3 0x1731 JUMPI RETURNDATASIZE PUSH1 0x0 DUP1 RETURNDATACOPY RETURNDATASIZE PUSH1 0x0 REVERT JUMPDEST POP POP POP POP PUSH3 0x1755 DUP6 PUSH1 0x20 ADD MLOAD DUP7 PUSH1 0x0 ADD MLOAD PUSH3 0x174F SWAP2 SWAP1 PUSH3 0x7FF9 JUMP JUMPDEST PUSH3 0x4665 JUMP JUMPDEST DUP8 PUSH1 0x1 ADD PUSH1 0x0 PUSH2 0x100 EXP DUP2 SLOAD DUP2 PUSH16 0xFFFFFFFFFFFFFFFFFFFFFFFFFFFFFFFF MUL NOT AND SWAP1 DUP4 PUSH16 0xFFFFFFFFFFFFFFFFFFFFFFFFFFFFFFFF AND MUL OR SWAP1 SSTORE POP PUSH32 0x64B83944E79C3CE8D4C297411DE637C3E102D064677AAC0C163976EBDCD6F50E DUP16 DUP16 DUP4 DUP6 PUSH1 0x40 MLOAD PUSH3 0x17C6 SWAP5 SWAP4 SWAP3 SWAP2 SWAP1 PUSH3 0x8818 JUMP JUMPDEST PUSH1 0x40 MLOAD DUP1 SWAP2 SUB SWAP1 LOG1 PUSH32 0x51AB1232A73B82B6B0ACB0FA91B834CF6E258A1858C4E23C72CE97241C71AA0D DUP16 DUP7 PUSH1 0x0 ADD MLOAD DUP8 PUSH1 0x20 ADD MLOAD DUP11 PUSH1 0x1 ADD PUSH1 0x10 SWAP1 SLOAD SWAP1 PUSH2 0x100 EXP SWAP1 DIV PUSH16 0xFFFFFFFFFFFFFFFFFFFFFFFFFFFFFFFF AND PUSH1 0x40 MLOAD PUSH3 0x182D SWAP5 SWAP4 SWAP3 SWAP2 SWAP1 PUSH3 0x889E JUMP JUMPDEST PUSH1 0x40 MLOAD DUP1 SWAP2 SUB SWAP1 LOG1 DUP2 SWAP11 POP POP POP POP POP POP POP POP POP POP POP SWAP5 SWAP4 POP POP POP POP JUMP JUMPDEST PUSH1 0x0 DUP1 PUSH1 0x0 PUSH1 0x1 PUSH1 0x2 PUSH1 0x0 DUP9 PUSH20 0xFFFFFFFFFFFFFFFFFFFFFFFFFFFFFFFFFFFFFFFF AND PUSH20 0xFFFFFFFFFFFFFFFFFFFFFFFFFFFFFFFFFFFFFFFF AND DUP2 MSTORE PUSH1 0x20 ADD SWAP1 DUP2 MSTORE PUSH1 0x20 ADD PUSH1 0x0 KECCAK256 SLOAD DUP2 SLOAD DUP2 LT PUSH3 0x18A5 JUMPI PUSH3 0x18A4 PUSH3 0x85C4 JUMP JUMPDEST JUMPDEST SWAP1 PUSH1 0x0 MSTORE PUSH1 0x20 PUSH1 0x0 KECCAK256 SWAP1 PUSH1 0x2 MUL ADD PUSH1 0x0 ADD PUSH1 0x0 SWAP1 SLOAD SWAP1 PUSH2 0x100 EXP SWAP1 DIV PUSH20 0xFFFFFFFFFFFFFFFFFFFFFFFFFFFFFFFFFFFFFFFF AND SWAP1 POP PUSH1 0x0 PUSH1 0x1 PUSH1 0x2 PUSH1 0x0 DUP9 PUSH20 0xFFFFFFFFFFFFFFFFFFFFFFFFFFFFFFFFFFFFFFFF AND PUSH20 0xFFFFFFFFFFFFFFFFFFFFFFFFFFFFFFFFFFFFFFFF AND DUP2 MSTORE PUSH1 0x20 ADD SWAP1 DUP2 MSTORE PUSH1 0x20 ADD PUSH1 0x0 KECCAK256 SLOAD DUP2 SLOAD DUP2 LT PUSH3 0x1931 JUMPI PUSH3 0x1930 PUSH3 0x85C4 JUMP JUMPDEST JUMPDEST SWAP1 PUSH1 0x0 MSTORE PUSH1 0x20 PUSH1 0x0 KECCAK256 SWAP1 PUSH1 0x2 MUL ADD PUSH1 0x0 ADD PUSH1 0x0 SWAP1 SLOAD SWAP1 PUSH2 0x100 EXP SWAP1 DIV PUSH20 0xFFFFFFFFFFFFFFFFFFFFFFFFFFFFFFFFFFFFFFFF AND SWAP1 POP PUSH1 0x0 DUP1 SLOAD SWAP1 PUSH2 0x100 EXP SWAP1 DIV PUSH20 0xFFFFFFFFFFFFFFFFFFFFFFFFFFFFFFFFFFFFFFFF AND PUSH20 0xFFFFFFFFFFFFFFFFFFFFFFFFFFFFFFFFFFFFFFFF AND DUP8 PUSH20 0xFFFFFFFFFFFFFFFFFFFFFFFFFFFFFFFFFFFFFFFF AND EQ ISZERO DUP1 ISZERO PUSH3 0x1A0D JUMPI POP PUSH1 0x0 DUP1 SLOAD SWAP1 PUSH2 0x100 EXP SWAP1 DIV PUSH20 0xFFFFFFFFFFFFFFFFFFFFFFFFFFFFFFFFFFFFFFFF AND PUSH20 0xFFFFFFFFFFFFFFFFFFFFFFFFFFFFFFFFFFFFFFFF AND DUP7 PUSH20 0xFFFFFFFFFFFFFFFFFFFFFFFFFFFFFFFFFFFFFFFF AND EQ JUMPDEST ISZERO PUSH3 0x1A39 JUMPI PUSH3 0x1A2B PUSH3 0x1A23 DUP9 DUP5 PUSH3 0x4394 JUMP JUMPDEST DUP9 DUP8 PUSH3 0x4938 JUMP JUMPDEST SWAP3 POP DUP3 SWAP4 POP POP POP POP PUSH3 0x1B4B JUMP JUMPDEST PUSH1 0x0 DUP1 SLOAD SWAP1 PUSH2 0x100 EXP SWAP1 DIV PUSH20 0xFFFFFFFFFFFFFFFFFFFFFFFFFFFFFFFFFFFFFFFF AND PUSH20 0xFFFFFFFFFFFFFFFFFFFFFFFFFFFFFFFFFFFFFFFF AND DUP8 PUSH20 0xFFFFFFFFFFFFFFFFFFFFFFFFFFFFFFFFFFFFFFFF AND EQ DUP1 ISZERO PUSH3 0x1AE1 JUMPI POP PUSH1 0x0 DUP1 SLOAD SWAP1 PUSH2 0x100 EXP SWAP1 DIV PUSH20 0xFFFFFFFFFFFFFFFFFFFFFFFFFFFFFFFFFFFFFFFF AND PUSH20 0xFFFFFFFFFFFFFFFFFFFFFFFFFFFFFFFFFFFFFFFF AND DUP7 PUSH20 0xFFFFFFFFFFFFFFFFFFFFFFFFFFFFFFFFFFFFFFFF AND EQ ISZERO JUMPDEST ISZERO PUSH3 0x1B0D JUMPI PUSH3 0x1AFF PUSH3 0x1AF7 DUP8 DUP4 PUSH3 0x4394 JUMP JUMPDEST DUP8 DUP8 PUSH3 0x4A43 JUMP JUMPDEST SWAP3 POP DUP3 SWAP4 POP POP POP POP PUSH3 0x1B4B JUMP JUMPDEST PUSH1 0x0 PUSH3 0x1B27 PUSH3 0x1B1F DUP10 DUP6 PUSH3 0x4394 JUMP JUMPDEST DUP10 DUP9 PUSH3 0x4938 JUMP JUMPDEST SWAP1 POP PUSH3 0x1B41 PUSH3 0x1B39 DUP9 DUP5 PUSH3 0x4394 JUMP JUMPDEST DUP9 DUP4 PUSH3 0x4A43 JUMP JUMPDEST SWAP4 POP DUP4 SWAP5 POP POP POP POP POP JUMPDEST SWAP4 SWAP3 POP POP POP JUMP JUMPDEST PUSH1 0x0 DUP1 PUSH1 0x1 PUSH1 0x2 PUSH1 0x0 DUP6 PUSH20 0xFFFFFFFFFFFFFFFFFFFFFFFFFFFFFFFFFFFFFFFF AND PUSH20 0xFFFFFFFFFFFFFFFFFFFFFFFFFFFFFFFFFFFFFFFF AND DUP2 MSTORE PUSH1 0x20 ADD SWAP1 DUP2 MSTORE PUSH1 0x20 ADD PUSH1 0x0 KECCAK256 SLOAD DUP2 SLOAD DUP2 LT PUSH3 0x1BAB JUMPI PUSH3 0x1BAA PUSH3 0x85C4 JUMP JUMPDEST JUMPDEST SWAP1 PUSH1 0x0 MSTORE PUSH1 0x20 PUSH1 0x0 KECCAK256 SWAP1 PUSH1 0x2 MUL ADD SWAP1 POP PUSH1 0x0 PUSH3 0x1BED DUP5 DUP4 PUSH1 0x0 ADD PUSH1 0x0 SWAP1 SLOAD SWAP1 PUSH2 0x100 EXP SWAP1 DIV PUSH20 0xFFFFFFFFFFFFFFFFFFFFFFFFFFFFFFFFFFFFFFFF AND PUSH3 0x4394 JUMP JUMPDEST SWAP1 POP PUSH3 0x1BFB DUP5 DUP3 PUSH3 0x4B45 JUMP JUMPDEST SWAP3 POP POP POP SWAP2 SWAP1 POP JUMP JUMPDEST PUSH1 0x60 PUSH1 0x0 DUP4 DUP4 SWAP1 POP SWAP1 POP DUP1 DUP7 DUP7 SWAP1 POP EQ PUSH3 0x1C4B JUMPI PUSH1 0x40 MLOAD PUSH32 0x80DADC2700000000000000000000000000000000000000000000000000000000 DUP2 MSTORE PUSH1 0x4 ADD PUSH1 0x40 MLOAD DUP1 SWAP2 SUB SWAP1 REVERT JUMPDEST PUSH1 0x0 DUP7 DUP7 SWAP1 POP PUSH8 0xFFFFFFFFFFFFFFFF DUP2 GT ISZERO PUSH3 0x1C6D JUMPI PUSH3 0x1C6C PUSH3 0x7784 JUMP JUMPDEST JUMPDEST PUSH1 0x40 MLOAD SWAP1 DUP1 DUP3 MSTORE DUP1 PUSH1 0x20 MUL PUSH1 0x20 ADD DUP3 ADD PUSH1 0x40 MSTORE DUP1 ISZERO PUSH3 0x1C9C JUMPI DUP2 PUSH1 0x20 ADD PUSH1 0x20 DUP3 MUL DUP1 CALLDATASIZE DUP4 CALLDATACOPY DUP1 DUP3 ADD SWAP2 POP POP SWAP1 POP JUMPDEST POP SWAP1 POP PUSH1 0x0 JUMPDEST DUP3 DUP2 LT ISZERO PUSH3 0x1D35 JUMPI PUSH3 0x1CFF DUP9 DUP9 DUP4 DUP2 DUP2 LT PUSH3 0x1CC5 JUMPI PUSH3 0x1CC4 PUSH3 0x85C4 JUMP JUMPDEST JUMPDEST SWAP1 POP PUSH1 0x20 MUL ADD PUSH1 0x20 DUP2 ADD SWAP1 PUSH3 0x1CDC SWAP2 SWAP1 PUSH3 0x7A1E JUMP JUMPDEST DUP8 DUP8 DUP5 DUP2 DUP2 LT PUSH3 0x1CF2 JUMPI PUSH3 0x1CF1 PUSH3 0x85C4 JUMP JUMPDEST JUMPDEST SWAP1 POP PUSH1 0x20 MUL ADD CALLDATALOAD PUSH3 0xBFB JUMP JUMPDEST DUP3 DUP3 DUP2 MLOAD DUP2 LT PUSH3 0x1D15 JUMPI PUSH3 0x1D14 PUSH3 0x85C4 JUMP JUMPDEST JUMPDEST PUSH1 0x20 MUL PUSH1 0x20 ADD ADD DUP2 DUP2 MSTORE POP POP DUP1 PUSH3 0x1D2D SWAP1 PUSH3 0x8519 JUMP JUMPDEST SWAP1 POP PUSH3 0x1CA2 JUMP JUMPDEST POP DUP1 SWAP3 POP POP POP SWAP5 SWAP4 POP POP POP POP JUMP JUMPDEST PUSH1 0x0 DUP1 PUSH1 0x11 PUSH1 0x0 DUP5 DUP2 MSTORE PUSH1 0x20 ADD SWAP1 DUP2 MSTORE PUSH1 0x20 ADD PUSH1 0x0 KECCAK256 SLOAD GT SWAP1 POP SWAP2 SWAP1 POP JUMP JUMPDEST PUSH1 0x0 PUSH1 0x2 PUSH1 0x0 DUP4 PUSH20 0xFFFFFFFFFFFFFFFFFFFFFFFFFFFFFFFFFFFFFFFF AND PUSH20 0xFFFFFFFFFFFFFFFFFFFFFFFFFFFFFFFFFFFFFFFF AND DUP2 MSTORE PUSH1 0x20 ADD SWAP1 DUP2 MSTORE PUSH1 0x20 ADD PUSH1 0x0 KECCAK256 SLOAD SWAP1 POP SWAP2 SWAP1 POP JUMP JUMPDEST CALLER PUSH20 0xFFFFFFFFFFFFFFFFFFFFFFFFFFFFFFFFFFFFFFFF AND PUSH3 0x1DCC PUSH3 0x227B JUMP JUMPDEST PUSH20 0xFFFFFFFFFFFFFFFFFFFFFFFFFFFFFFFFFFFFFFFF AND EQ PUSH3 0x1E1A JUMPI PUSH1 0x40 MLOAD PUSH32 0xEBF9845900000000000000000000000000000000000000000000000000000000 DUP2 MSTORE PUSH1 0x4 ADD PUSH1 0x40 MLOAD DUP1 SWAP2 SUB SWAP1 REVERT JUMPDEST PUSH3 0x1E26 PUSH1 0x0 PUSH3 0x4D44 JUMP JUMPDEST JUMP JUMPDEST PUSH1 0x0 PUSH1 0x1 PUSH1 0x2 PUSH1 0x0 DUP6 PUSH20 0xFFFFFFFFFFFFFFFFFFFFFFFFFFFFFFFFFFFFFFFF AND PUSH20 0xFFFFFFFFFFFFFFFFFFFFFFFFFFFFFFFFFFFFFFFF AND DUP2 MSTORE PUSH1 0x20 ADD SWAP1 DUP2 MSTORE PUSH1 0x20 ADD PUSH1 0x0 KECCAK256 SLOAD DUP2 SLOAD DUP2 LT PUSH3 0x1E80 JUMPI PUSH3 0x1E7F PUSH3 0x85C4 JUMP JUMPDEST JUMPDEST SWAP1 PUSH1 0x0 MSTORE PUSH1 0x20 PUSH1 0x0 KECCAK256 SWAP1 PUSH1 0x2 MUL ADD SWAP1 POP PUSH1 0x0 PUSH3 0x1EC2 DUP5 DUP4 PUSH1 0x0 ADD PUSH1 0x0 SWAP1 SLOAD SWAP1 PUSH2 0x100 EXP SWAP1 DIV PUSH20 0xFFFFFFFFFFFFFFFFFFFFFFFFFFFFFFFFFFFFFFFF AND PUSH3 0x4394 JUMP JUMPDEST SWAP1 POP PUSH16 0xFFFFFFFFFFFFFFFFFFFFFFFFFFFFFFFF DUP1 AND DUP3 PUSH1 0x1 ADD PUSH1 0x10 SWAP1 SLOAD SWAP1 PUSH2 0x100 EXP SWAP1 DIV PUSH16 0xFFFFFFFFFFFFFFFFFFFFFFFFFFFFFFFF AND PUSH16 0xFFFFFFFFFFFFFFFFFFFFFFFFFFFFFFFF AND LT ISZERO PUSH3 0x200A JUMPI DUP3 DUP3 PUSH1 0x1 ADD PUSH1 0x10 DUP3 DUP3 DUP3 SWAP1 SLOAD SWAP1 PUSH2 0x100 EXP SWAP1 DIV PUSH16 0xFFFFFFFFFFFFFFFFFFFFFFFFFFFFFFFF AND PUSH3 0x1F42 SWAP2 SWAP1 PUSH3 0x88EB JUMP JUMPDEST SWAP3 POP PUSH2 0x100 EXP DUP2 SLOAD DUP2 PUSH16 0xFFFFFFFFFFFFFFFFFFFFFFFFFFFFFFFF MUL NOT AND SWAP1 DUP4 PUSH16 0xFFFFFFFFFFFFFFFFFFFFFFFFFFFFFFFF AND MUL OR SWAP1 SSTORE POP PUSH1 0x0 DUP1 SLOAD SWAP1 PUSH2 0x100 EXP SWAP1 DIV PUSH20 0xFFFFFFFFFFFFFFFFFFFFFFFFFFFFFFFFFFFFFFFF AND PUSH20 0xFFFFFFFFFFFFFFFFFFFFFFFFFFFFFFFFFFFFFFFF AND PUSH4 0x18A8AD87 CALLER DUP6 PUSH1 0x40 MLOAD DUP4 PUSH4 0xFFFFFFFF AND PUSH1 0xE0 SHL DUP2 MSTORE PUSH1 0x4 ADD PUSH3 0x1FD5 SWAP3 SWAP2 SWAP1 PUSH3 0x87EB JUMP JUMPDEST PUSH1 0x0 PUSH1 0x40 MLOAD DUP1 DUP4 SUB DUP2 PUSH1 0x0 DUP8 DUP1 EXTCODESIZE ISZERO DUP1 ISZERO PUSH3 0x1FF0 JUMPI PUSH1 0x0 DUP1 REVERT JUMPDEST POP GAS CALL ISZERO DUP1 ISZERO PUSH3 0x2005 JUMPI RETURNDATASIZE PUSH1 0x0 DUP1 RETURNDATACOPY RETURNDATASIZE PUSH1 0x0 REVERT JUMPDEST POP POP POP POP JUMPDEST PUSH32 0x51AB1232A73B82B6B0ACB0FA91B834CF6E258A1858C4E23C72CE97241C71AA0D DUP5 DUP3 PUSH1 0x0 ADD MLOAD DUP4 PUSH1 0x20 ADD MLOAD DUP6 PUSH1 0x1 ADD PUSH1 0x10 SWAP1 SLOAD SWAP1 PUSH2 0x100 EXP SWAP1 DIV PUSH16 0xFFFFFFFFFFFFFFFFFFFFFFFFFFFFFFFF AND PUSH1 0x40 MLOAD PUSH3 0x2069 SWAP5 SWAP4 SWAP3 SWAP2 SWAP1 PUSH3 0x889E JUMP JUMPDEST PUSH1 0x40 MLOAD DUP1 SWAP2 SUB SWAP1 LOG1 POP POP POP POP JUMP JUMPDEST PUSH1 0x0 DUP5 PUSH1 0x0 PUSH1 0x2 PUSH1 0x0 DUP4 PUSH20 0xFFFFFFFFFFFFFFFFFFFFFFFFFFFFFFFFFFFFFFFF AND PUSH20 0xFFFFFFFFFFFFFFFFFFFFFFFFFFFFFFFFFFFFFFFF AND DUP2 MSTORE PUSH1 0x20 ADD SWAP1 DUP2 MSTORE PUSH1 0x20 ADD PUSH1 0x0 KECCAK256 SLOAD EQ DUP1 PUSH3 0x2114 JUMPI POP PUSH1 0x0 DUP1 SLOAD SWAP1 PUSH2 0x100 EXP SWAP1 DIV PUSH20 0xFFFFFFFFFFFFFFFFFFFFFFFFFFFFFFFFFFFFFFFF AND PUSH20 0xFFFFFFFFFFFFFFFFFFFFFFFFFFFFFFFFFFFFFFFF AND DUP2 PUSH20 0xFFFFFFFFFFFFFFFFFFFFFFFFFFFFFFFFFFFFFFFF AND EQ JUMPDEST ISZERO PUSH3 0x2157 JUMPI PUSH1 0x40 MLOAD PUSH32 0x8C379A000000000000000000000000000000000000000000000000000000000 DUP2 MSTORE PUSH1 0x4 ADD PUSH3 0x214E SWAP1 PUSH3 0x8643 JUMP JUMPDEST PUSH1 0x40 MLOAD DUP1 SWAP2 SUB SWAP1 REVERT JUMPDEST DUP4 DUP1 TIMESTAMP GT ISZERO PUSH3 0x219E JUMPI PUSH1 0x40 MLOAD PUSH32 0x8C379A000000000000000000000000000000000000000000000000000000000 DUP2 MSTORE PUSH1 0x4 ADD PUSH3 0x2195 SWAP1 PUSH3 0x86B5 JUMP JUMPDEST PUSH1 0x40 MLOAD DUP1 SWAP2 SUB SWAP1 REVERT JUMPDEST PUSH3 0x21AB DUP8 DUP8 DUP7 PUSH3 0x4E0A JUMP JUMPDEST SWAP3 POP POP POP SWAP5 SWAP4 POP POP POP POP JUMP JUMPDEST PUSH3 0x21C7 DUP5 DUP5 DUP5 PUSH1 0x0 DUP6 PUSH3 0x51F5 JUMP JUMPDEST POP POP POP POP JUMP JUMPDEST PUSH3 0x21D7 PUSH3 0x6EEA JUMP JUMPDEST PUSH1 0x7 PUSH1 0x40 MLOAD DUP1 PUSH1 0xE0 ADD PUSH1 0x40 MSTORE SWAP1 DUP2 PUSH1 0x0 DUP3 ADD PUSH1 0x0 SWAP1 SLOAD SWAP1 PUSH2 0x100 EXP SWAP1 DIV PUSH20 0xFFFFFFFFFFFFFFFFFFFFFFFFFFFFFFFFFFFFFFFF AND PUSH20 0xFFFFFFFFFFFFFFFFFFFFFFFFFFFFFFFFFFFFFFFF AND PUSH20 0xFFFFFFFFFFFFFFFFFFFFFFFFFFFFFFFFFFFFFFFF AND DUP2 MSTORE PUSH1 0x20 ADD PUSH1 0x1 DUP3 ADD SLOAD DUP2 MSTORE PUSH1 0x20 ADD PUSH1 0x2 DUP3 ADD SLOAD DUP2 MSTORE PUSH1 0x20 ADD PUSH1 0x3 DUP3 ADD SLOAD DUP2 MSTORE PUSH1 0x20 ADD PUSH1 0x4 DUP3 ADD SLOAD DUP2 MSTORE PUSH1 0x20 ADD PUSH1 0x5 DUP3 ADD SLOAD DUP2 MSTORE PUSH1 0x20 ADD PUSH1 0x6 DUP3 ADD SLOAD DUP2 MSTORE POP POP SWAP1 POP SWAP1 JUMP JUMPDEST PUSH1 0x0 PUSH1 0x15 PUSH1 0x0 SWAP1 SLOAD SWAP1 PUSH2 0x100 EXP SWAP1 DIV PUSH20 0xFFFFFFFFFFFFFFFFFFFFFFFFFFFFFFFFFFFFFFFF AND SWAP1 POP SWAP1 JUMP JUMPDEST PUSH1 0x60 PUSH1 0x13 DUP1 SLOAD PUSH3 0x22B6 SWAP1 PUSH3 0x838A JUMP JUMPDEST DUP1 PUSH1 0x1F ADD PUSH1 0x20 DUP1 SWAP2 DIV MUL PUSH1 0x20 ADD PUSH1 0x40 MLOAD SWAP1 DUP2 ADD PUSH1 0x40 MSTORE DUP1 SWAP3 SWAP2 SWAP1 DUP2 DUP2 MSTORE PUSH1 0x20 ADD DUP3 DUP1 SLOAD PUSH3 0x22E4 SWAP1 PUSH3 0x838A JUMP JUMPDEST DUP1 ISZERO PUSH3 0x2335 JUMPI DUP1 PUSH1 0x1F LT PUSH3 0x2309 JUMPI PUSH2 0x100 DUP1 DUP4 SLOAD DIV MUL DUP4 MSTORE SWAP2 PUSH1 0x20 ADD SWAP2 PUSH3 0x2335 JUMP JUMPDEST DUP3 ADD SWAP2 SWAP1 PUSH1 0x0 MSTORE PUSH1 0x20 PUSH1 0x0 KECCAK256 SWAP1 JUMPDEST DUP2 SLOAD DUP2 MSTORE SWAP1 PUSH1 0x1 ADD SWAP1 PUSH1 0x20 ADD DUP1 DUP4 GT PUSH3 0x2317 JUMPI DUP3 SWAP1 SUB PUSH1 0x1F AND DUP3 ADD SWAP2 JUMPDEST POP POP POP POP POP SWAP1 POP SWAP1 JUMP JUMPDEST PUSH1 0x0 PUSH3 0x234D PUSH1 0x3 PUSH3 0xD27 JUMP JUMPDEST SWAP1 POP DUP1 PUSH20 0xFFFFFFFFFFFFFFFFFFFFFFFFFFFFFFFFFFFFFFFF AND PUSH4 0xEEF84BA1 PUSH1 0x40 MLOAD DUP2 PUSH4 0xFFFFFFFF AND PUSH1 0xE0 SHL DUP2 MSTORE PUSH1 0x4 ADD PUSH1 0x0 PUSH1 0x40 MLOAD DUP1 DUP4 SUB DUP2 PUSH1 0x0 DUP8 DUP1 EXTCODESIZE ISZERO DUP1 ISZERO PUSH3 0x2398 JUMPI PUSH1 0x0 DUP1 REVERT JUMPDEST POP GAS CALL ISZERO DUP1 ISZERO PUSH3 0x23AD JUMPI RETURNDATASIZE PUSH1 0x0 DUP1 RETURNDATACOPY RETURNDATASIZE PUSH1 0x0 REVERT JUMPDEST POP POP POP POP PUSH3 0x23BE CALLER DUP5 DUP5 PUSH3 0x56E3 JUMP JUMPDEST POP POP POP JUMP JUMPDEST PUSH1 0x60 DUP3 DUP1 TIMESTAMP GT ISZERO PUSH3 0x240C JUMPI PUSH1 0x40 MLOAD PUSH32 0x8C379A000000000000000000000000000000000000000000000000000000000 DUP2 MSTORE PUSH1 0x4 ADD PUSH3 0x2403 SWAP1 PUSH3 0x86B5 JUMP JUMPDEST PUSH1 0x40 MLOAD DUP1 SWAP2 SUB SWAP1 REVERT JUMPDEST PUSH1 0x1 DUP7 GT PUSH3 0x2452 JUMPI PUSH1 0x40 MLOAD PUSH32 0x8C379A000000000000000000000000000000000000000000000000000000000 DUP2 MSTORE PUSH1 0x4 ADD PUSH3 0x2449 SWAP1 PUSH3 0x8762 JUMP JUMPDEST PUSH1 0x40 MLOAD DUP1 SWAP2 SUB SWAP1 REVERT JUMPDEST PUSH1 0x0 PUSH1 0x1 PUSH1 0x2 PUSH1 0x0 DUP12 PUSH20 0xFFFFFFFFFFFFFFFFFFFFFFFFFFFFFFFFFFFFFFFF AND PUSH20 0xFFFFFFFFFFFFFFFFFFFFFFFFFFFFFFFFFFFFFFFF AND DUP2 MSTORE PUSH1 0x20 ADD SWAP1 DUP2 MSTORE PUSH1 0x20 ADD PUSH1 0x0 KECCAK256 SLOAD DUP2 SLOAD DUP2 LT PUSH3 0x24AA JUMPI PUSH3 0x24A9 PUSH3 0x85C4 JUMP JUMPDEST JUMPDEST SWAP1 PUSH1 0x0 MSTORE PUSH1 0x20 PUSH1 0x0 KECCAK256 SWAP1 PUSH1 0x2 MUL ADD PUSH1 0x0 ADD PUSH1 0x0 SWAP1 SLOAD SWAP1 PUSH2 0x100 EXP SWAP1 DIV PUSH20 0xFFFFFFFFFFFFFFFFFFFFFFFFFFFFFFFFFFFFFFFF AND SWAP1 POP PUSH1 0x0 PUSH1 0x1 PUSH1 0x2 PUSH1 0x0 DUP12 PUSH20 0xFFFFFFFFFFFFFFFFFFFFFFFFFFFFFFFFFFFFFFFF AND PUSH20 0xFFFFFFFFFFFFFFFFFFFFFFFFFFFFFFFFFFFFFFFF AND DUP2 MSTORE PUSH1 0x20 ADD SWAP1 DUP2 MSTORE PUSH1 0x20 ADD PUSH1 0x0 KECCAK256 SLOAD DUP2 SLOAD DUP2 LT PUSH3 0x2536 JUMPI PUSH3 0x2535 PUSH3 0x85C4 JUMP JUMPDEST JUMPDEST SWAP1 PUSH1 0x0 MSTORE PUSH1 0x20 PUSH1 0x0 KECCAK256 SWAP1 PUSH1 0x2 MUL ADD PUSH1 0x0 ADD PUSH1 0x0 SWAP1 SLOAD SWAP1 PUSH2 0x100 EXP SWAP1 DIV PUSH20 0xFFFFFFFFFFFFFFFFFFFFFFFFFFFFFFFFFFFFFFFF AND SWAP1 POP PUSH1 0x0 PUSH1 0x2 PUSH8 0xFFFFFFFFFFFFFFFF DUP2 GT ISZERO PUSH3 0x258A JUMPI PUSH3 0x2589 PUSH3 0x7784 JUMP JUMPDEST JUMPDEST PUSH1 0x40 MLOAD SWAP1 DUP1 DUP3 MSTORE DUP1 PUSH1 0x20 MUL PUSH1 0x20 ADD DUP3 ADD PUSH1 0x40 MSTORE DUP1 ISZERO PUSH3 0x25B9 JUMPI DUP2 PUSH1 0x20 ADD PUSH1 0x20 DUP3 MUL DUP1 CALLDATASIZE DUP4 CALLDATACOPY DUP1 DUP3 ADD SWAP2 POP POP SWAP1 POP JUMPDEST POP SWAP1 POP DUP9 DUP2 PUSH1 0x0 DUP2 MLOAD DUP2 LT PUSH3 0x25D4 JUMPI PUSH3 0x25D3 PUSH3 0x85C4 JUMP JUMPDEST JUMPDEST PUSH1 0x20 MUL PUSH1 0x20 ADD ADD DUP2 DUP2 MSTORE POP POP PUSH1 0x0 DUP1 SLOAD SWAP1 PUSH2 0x100 EXP SWAP1 DIV PUSH20 0xFFFFFFFFFFFFFFFFFFFFFFFFFFFFFFFFFFFFFFFF AND PUSH20 0xFFFFFFFFFFFFFFFFFFFFFFFFFFFFFFFFFFFFFFFF AND DUP12 PUSH20 0xFFFFFFFFFFFFFFFFFFFFFFFFFFFFFFFFFFFFFFFF AND EQ ISZERO DUP1 ISZERO PUSH3 0x2688 JUMPI POP PUSH1 0x0 DUP1 SLOAD SWAP1 PUSH2 0x100 EXP SWAP1 DIV PUSH20 0xFFFFFFFFFFFFFFFFFFFFFFFFFFFFFFFFFFFFFFFF AND PUSH20 0xFFFFFFFFFFFFFFFFFFFFFFFFFFFFFFFFFFFFFFFF AND DUP11 PUSH20 0xFFFFFFFFFFFFFFFFFFFFFFFFFFFFFFFFFFFFFFFF AND EQ JUMPDEST ISZERO PUSH3 0x277B JUMPI PUSH1 0x0 PUSH3 0x269C DUP13 DUP6 PUSH3 0x4394 JUMP JUMPDEST SWAP1 POP PUSH3 0x26AB DUP2 DUP14 DUP13 PUSH3 0x4938 JUMP JUMPDEST DUP3 PUSH1 0x1 DUP2 MLOAD DUP2 LT PUSH3 0x26C2 JUMPI PUSH3 0x26C1 PUSH3 0x85C4 JUMP JUMPDEST JUMPDEST PUSH1 0x20 MUL PUSH1 0x20 ADD ADD DUP2 DUP2 MSTORE POP POP DUP9 DUP3 PUSH1 0x1 DUP2 MLOAD DUP2 LT PUSH3 0x26E6 JUMPI PUSH3 0x26E5 PUSH3 0x85C4 JUMP JUMPDEST JUMPDEST PUSH1 0x20 MUL PUSH1 0x20 ADD ADD MLOAD LT ISZERO PUSH3 0x2732 JUMPI PUSH1 0x40 MLOAD PUSH32 0x8C379A000000000000000000000000000000000000000000000000000000000 DUP2 MSTORE PUSH1 0x4 ADD PUSH3 0x2729 SWAP1 PUSH3 0x8988 JUMP JUMPDEST PUSH1 0x40 MLOAD DUP1 SWAP2 SUB SWAP1 REVERT JUMPDEST PUSH3 0x2740 DUP13 CALLER DUP7 DUP14 PUSH3 0x43F1 JUMP JUMPDEST PUSH3 0x276E DUP13 DUP3 PUSH1 0x0 DUP6 PUSH1 0x1 DUP2 MLOAD DUP2 LT PUSH3 0x275F JUMPI PUSH3 0x275E PUSH3 0x85C4 JUMP JUMPDEST JUMPDEST PUSH1 0x20 MUL PUSH1 0x20 ADD ADD MLOAD DUP12 PUSH3 0x584A JUMP JUMPDEST DUP2 SWAP6 POP POP POP POP POP PUSH3 0x2B5B JUMP JUMPDEST PUSH1 0x0 DUP1 SLOAD SWAP1 PUSH2 0x100 EXP SWAP1 DIV PUSH20 0xFFFFFFFFFFFFFFFFFFFFFFFFFFFFFFFFFFFFFFFF AND PUSH20 0xFFFFFFFFFFFFFFFFFFFFFFFFFFFFFFFFFFFFFFFF AND DUP12 PUSH20 0xFFFFFFFFFFFFFFFFFFFFFFFFFFFFFFFFFFFFFFFF AND EQ DUP1 ISZERO PUSH3 0x2823 JUMPI POP PUSH1 0x0 DUP1 SLOAD SWAP1 PUSH2 0x100 EXP SWAP1 DIV PUSH20 0xFFFFFFFFFFFFFFFFFFFFFFFFFFFFFFFFFFFFFFFF AND PUSH20 0xFFFFFFFFFFFFFFFFFFFFFFFFFFFFFFFFFFFFFFFF AND DUP11 PUSH20 0xFFFFFFFFFFFFFFFFFFFFFFFFFFFFFFFFFFFFFFFF AND EQ ISZERO JUMPDEST ISZERO PUSH3 0x2916 JUMPI PUSH1 0x0 PUSH3 0x2837 DUP12 DUP5 PUSH3 0x4394 JUMP JUMPDEST SWAP1 POP PUSH3 0x2846 DUP2 DUP13 DUP13 PUSH3 0x4A43 JUMP JUMPDEST DUP3 PUSH1 0x1 DUP2 MLOAD DUP2 LT PUSH3 0x285D JUMPI PUSH3 0x285C PUSH3 0x85C4 JUMP JUMPDEST JUMPDEST PUSH1 0x20 MUL PUSH1 0x20 ADD ADD DUP2 DUP2 MSTORE POP POP DUP9 DUP3 PUSH1 0x1 DUP2 MLOAD DUP2 LT PUSH3 0x2881 JUMPI PUSH3 0x2880 PUSH3 0x85C4 JUMP JUMPDEST JUMPDEST PUSH1 0x20 MUL PUSH1 0x20 ADD ADD MLOAD LT ISZERO PUSH3 0x28CD JUMPI PUSH1 0x40 MLOAD PUSH32 0x8C379A000000000000000000000000000000000000000000000000000000000 DUP2 MSTORE PUSH1 0x4 ADD PUSH3 0x28C4 SWAP1 PUSH3 0x89FA JUMP JUMPDEST PUSH1 0x40 MLOAD DUP1 SWAP2 SUB SWAP1 REVERT JUMPDEST PUSH3 0x28DB DUP13 CALLER DUP6 DUP14 PUSH3 0x43F1 JUMP JUMPDEST PUSH3 0x2909 DUP12 DUP3 DUP5 PUSH1 0x1 DUP2 MLOAD DUP2 LT PUSH3 0x28F8 JUMPI PUSH3 0x28F7 PUSH3 0x85C4 JUMP JUMPDEST JUMPDEST PUSH1 0x20 MUL PUSH1 0x20 ADD ADD MLOAD PUSH1 0x0 DUP12 PUSH3 0x584A JUMP JUMPDEST DUP2 SWAP6 POP POP POP POP POP PUSH3 0x2B5B JUMP JUMPDEST PUSH1 0x0 DUP1 SLOAD SWAP1 PUSH2 0x100 EXP SWAP1 DIV PUSH20 0xFFFFFFFFFFFFFFFFFFFFFFFFFFFFFFFFFFFFFFFF AND PUSH20 0xFFFFFFFFFFFFFFFFFFFFFFFFFFFFFFFFFFFFFFFF AND DUP12 PUSH20 0xFFFFFFFFFFFFFFFFFFFFFFFFFFFFFFFFFFFFFFFF AND EQ ISZERO DUP1 ISZERO PUSH3 0x29BF JUMPI POP PUSH1 0x0 DUP1 SLOAD SWAP1 PUSH2 0x100 EXP SWAP1 DIV PUSH20 0xFFFFFFFFFFFFFFFFFFFFFFFFFFFFFFFFFFFFFFFF AND PUSH20 0xFFFFFFFFFFFFFFFFFFFFFFFFFFFFFFFFFFFFFFFF AND DUP11 PUSH20 0xFFFFFFFFFFFFFFFFFFFFFFFFFFFFFFFFFFFFFFFF AND EQ ISZERO JUMPDEST DUP1 ISZERO PUSH3 0x29F8 JUMPI POP DUP10 PUSH20 0xFFFFFFFFFFFFFFFFFFFFFFFFFFFFFFFFFFFFFFFF AND DUP12 PUSH20 0xFFFFFFFFFFFFFFFFFFFFFFFFFFFFFFFFFFFFFFFF AND EQ ISZERO JUMPDEST ISZERO PUSH3 0x2B1E JUMPI PUSH1 0x0 PUSH3 0x2A0C DUP13 DUP6 PUSH3 0x4394 JUMP JUMPDEST SWAP1 POP PUSH1 0x0 PUSH3 0x2A1D DUP3 DUP15 DUP14 PUSH3 0x4938 JUMP JUMPDEST SWAP1 POP PUSH1 0x0 PUSH3 0x2A2D DUP14 DUP7 PUSH3 0x4394 JUMP JUMPDEST SWAP1 POP PUSH3 0x2A3C DUP2 DUP15 DUP5 PUSH3 0x4A43 JUMP JUMPDEST DUP5 PUSH1 0x1 DUP2 MLOAD DUP2 LT PUSH3 0x2A53 JUMPI PUSH3 0x2A52 PUSH3 0x85C4 JUMP JUMPDEST JUMPDEST PUSH1 0x20 MUL PUSH1 0x20 ADD ADD DUP2 DUP2 MSTORE POP POP DUP11 DUP5 PUSH1 0x1 DUP2 MLOAD DUP2 LT PUSH3 0x2A77 JUMPI PUSH3 0x2A76 PUSH3 0x85C4 JUMP JUMPDEST JUMPDEST PUSH1 0x20 MUL PUSH1 0x20 ADD ADD MLOAD LT ISZERO PUSH3 0x2AC3 JUMPI PUSH1 0x40 MLOAD PUSH32 0x8C379A000000000000000000000000000000000000000000000000000000000 DUP2 MSTORE PUSH1 0x4 ADD PUSH3 0x2ABA SWAP1 PUSH3 0x89FA JUMP JUMPDEST PUSH1 0x40 MLOAD DUP1 SWAP2 SUB SWAP1 REVERT JUMPDEST PUSH3 0x2AD1 DUP15 CALLER DUP9 DUP16 PUSH3 0x43F1 JUMP JUMPDEST PUSH3 0x2AE1 DUP15 DUP5 PUSH1 0x0 DUP6 DUP10 PUSH3 0x584A JUMP JUMPDEST PUSH3 0x2B0F DUP14 DUP3 DUP7 PUSH1 0x1 DUP2 MLOAD DUP2 LT PUSH3 0x2AFE JUMPI PUSH3 0x2AFD PUSH3 0x85C4 JUMP JUMPDEST JUMPDEST PUSH1 0x20 MUL PUSH1 0x20 ADD ADD MLOAD PUSH1 0x0 DUP14 PUSH3 0x584A JUMP JUMPDEST DUP4 SWAP8 POP POP POP POP POP POP POP PUSH3 0x2B5B JUMP JUMPDEST PUSH1 0x40 MLOAD PUSH32 0x8C379A000000000000000000000000000000000000000000000000000000000 DUP2 MSTORE PUSH1 0x4 ADD PUSH3 0x2B52 SWAP1 PUSH3 0x8A6C JUMP JUMPDEST PUSH1 0x40 MLOAD DUP1 SWAP2 SUB SWAP1 REVERT JUMPDEST POP SWAP7 SWAP6 POP POP POP POP POP POP JUMP JUMPDEST CALLER PUSH20 0xFFFFFFFFFFFFFFFFFFFFFFFFFFFFFFFFFFFFFFFF AND PUSH3 0x2B87 PUSH3 0x227B JUMP JUMPDEST PUSH20 0xFFFFFFFFFFFFFFFFFFFFFFFFFFFFFFFFFFFFFFFF AND EQ PUSH3 0x2BD5 JUMPI PUSH1 0x40 MLOAD PUSH32 0xEBF9845900000000000000000000000000000000000000000000000000000000 DUP2 MSTORE PUSH1 0x4 ADD PUSH1 0x40 MLOAD DUP1 SWAP2 SUB SWAP1 REVERT JUMPDEST PUSH3 0x2C03 DUP3 DUP3 PUSH1 0x40 MLOAD PUSH1 0x20 ADD PUSH3 0x2BEE SWAP3 SWAP2 SWAP1 PUSH3 0x8B07 JUMP JUMPDEST PUSH1 0x40 MLOAD PUSH1 0x20 DUP2 DUP4 SUB SUB DUP2 MSTORE SWAP1 PUSH1 0x40 MSTORE PUSH3 0x6084 JUMP JUMPDEST DUP2 DUP2 PUSH1 0x14 SWAP2 SWAP1 PUSH3 0x2C16 SWAP3 SWAP2 SWAP1 PUSH3 0x6F3D JUMP JUMPDEST POP POP POP JUMP JUMPDEST PUSH3 0x2C72 PUSH1 0x4 PUSH1 0x0 SWAP1 SLOAD SWAP1 PUSH2 0x100 EXP SWAP1 DIV PUSH20 0xFFFFFFFFFFFFFFFFFFFFFFFFFFFFFFFFFFFFFFFF AND PUSH10 0xD3C21BCECCEDA1000000 PUSH10 0x69E10DE76676D0800000 PUSH16 0xFFFFFFFFFFFFFFFFFFFFFFFFFFFFFFFF DUP1 AND CALLER PUSH3 0x51F5 JUMP JUMPDEST PUSH3 0x2CBF PUSH1 0x5 PUSH1 0x0 SWAP1 SLOAD SWAP1 PUSH2 0x100 EXP SWAP1 DIV PUSH20 0xFFFFFFFFFFFFFFFFFFFFFFFFFFFFFFFFFFFFFFFF AND PUSH10 0x943B1377290CBD800000 DUP1 PUSH16 0xFFFFFFFFFFFFFFFFFFFFFFFFFFFFFFFF DUP1 AND CALLER PUSH3 0x51F5 JUMP JUMPDEST JUMP JUMPDEST PUSH1 0x0 PUSH1 0x11 PUSH1 0x0 DUP4 DUP2 MSTORE PUSH1 0x20 ADD SWAP1 DUP2 MSTORE PUSH1 0x20 ADD PUSH1 0x0 KECCAK256 SLOAD SWAP1 POP SWAP2 SWAP1 POP JUMP JUMPDEST CALLER PUSH20 0xFFFFFFFFFFFFFFFFFFFFFFFFFFFFFFFFFFFFFFFF AND PUSH3 0x2CFF PUSH3 0x227B JUMP JUMPDEST PUSH20 0xFFFFFFFFFFFFFFFFFFFFFFFFFFFFFFFFFFFFFFFF AND EQ PUSH3 0x2D4D JUMPI PUSH1 0x40 MLOAD PUSH32 0xEBF9845900000000000000000000000000000000000000000000000000000000 DUP2 MSTORE PUSH1 0x4 ADD PUSH1 0x40 MLOAD DUP1 SWAP2 SUB SWAP1 REVERT JUMPDEST PUSH3 0x2DA1 PUSH1 0x6 PUSH1 0x0 SWAP1 SLOAD SWAP1 PUSH2 0x100 EXP SWAP1 DIV PUSH20 0xFFFFFFFFFFFFFFFFFFFFFFFFFFFFFFFFFFFFFFFF AND PUSH7 0x38D7EA4C68000 PUSH10 0xD3C21BCECCEDA1000000 PUSH16 0xFFFFFFFFFFFFFFFFFFFFFFFFFFFFFFFF DUP1 AND CALLER PUSH3 0x51F5 JUMP JUMPDEST JUMP JUMPDEST PUSH1 0x0 DUP1 PUSH1 0x0 PUSH1 0x1 PUSH1 0x2 PUSH1 0x0 DUP9 PUSH20 0xFFFFFFFFFFFFFFFFFFFFFFFFFFFFFFFFFFFFFFFF AND PUSH20 0xFFFFFFFFFFFFFFFFFFFFFFFFFFFFFFFFFFFFFFFF AND DUP2 MSTORE PUSH1 0x20 ADD SWAP1 DUP2 MSTORE PUSH1 0x20 ADD PUSH1 0x0 KECCAK256 SLOAD DUP2 SLOAD DUP2 LT PUSH3 0x2DFE JUMPI PUSH3 0x2DFD PUSH3 0x85C4 JUMP JUMPDEST JUMPDEST SWAP1 PUSH1 0x0 MSTORE PUSH1 0x20 PUSH1 0x0 KECCAK256 SWAP1 PUSH1 0x2 MUL ADD PUSH1 0x0 ADD PUSH1 0x0 SWAP1 SLOAD SWAP1 PUSH2 0x100 EXP SWAP1 DIV PUSH20 0xFFFFFFFFFFFFFFFFFFFFFFFFFFFFFFFFFFFFFFFF AND SWAP1 POP PUSH1 0x0 PUSH1 0x1 PUSH1 0x2 PUSH1 0x0 DUP9 PUSH20 0xFFFFFFFFFFFFFFFFFFFFFFFFFFFFFFFFFFFFFFFF AND PUSH20 0xFFFFFFFFFFFFFFFFFFFFFFFFFFFFFFFFFFFFFFFF AND DUP2 MSTORE PUSH1 0x20 ADD SWAP1 DUP2 MSTORE PUSH1 0x20 ADD PUSH1 0x0 KECCAK256 SLOAD DUP2 SLOAD DUP2 LT PUSH3 0x2E8A JUMPI PUSH3 0x2E89 PUSH3 0x85C4 JUMP JUMPDEST JUMPDEST SWAP1 PUSH1 0x0 MSTORE PUSH1 0x20 PUSH1 0x0 KECCAK256 SWAP1 PUSH1 0x2 MUL ADD PUSH1 0x0 ADD PUSH1 0x0 SWAP1 SLOAD SWAP1 PUSH2 0x100 EXP SWAP1 DIV PUSH20 0xFFFFFFFFFFFFFFFFFFFFFFFFFFFFFFFFFFFFFFFF AND SWAP1 POP PUSH1 0x0 DUP1 SLOAD SWAP1 PUSH2 0x100 EXP SWAP1 DIV PUSH20 0xFFFFFFFFFFFFFFFFFFFFFFFFFFFFFFFFFFFFFFFF AND PUSH20 0xFFFFFFFFFFFFFFFFFFFFFFFFFFFFFFFFFFFFFFFF AND DUP8 PUSH20 0xFFFFFFFFFFFFFFFFFFFFFFFFFFFFFFFFFFFFFFFF AND EQ ISZERO DUP1 ISZERO PUSH3 0x2F66 JUMPI POP PUSH1 0x0 DUP1 SLOAD SWAP1 PUSH2 0x100 EXP SWAP1 DIV PUSH20 0xFFFFFFFFFFFFFFFFFFFFFFFFFFFFFFFFFFFFFFFF AND PUSH20 0xFFFFFFFFFFFFFFFFFFFFFFFFFFFFFFFFFFFFFFFF AND DUP7 PUSH20 0xFFFFFFFFFFFFFFFFFFFFFFFFFFFFFFFFFFFFFFFF AND EQ JUMPDEST ISZERO PUSH3 0x2F92 JUMPI PUSH3 0x2F84 PUSH3 0x2F7C DUP9 DUP5 PUSH3 0x4394 JUMP JUMPDEST DUP9 DUP8 PUSH3 0x60A0 JUMP JUMPDEST SWAP3 POP DUP3 SWAP4 POP POP POP POP PUSH3 0x30A4 JUMP JUMPDEST PUSH1 0x0 DUP1 SLOAD SWAP1 PUSH2 0x100 EXP SWAP1 DIV PUSH20 0xFFFFFFFFFFFFFFFFFFFFFFFFFFFFFFFFFFFFFFFF AND PUSH20 0xFFFFFFFFFFFFFFFFFFFFFFFFFFFFFFFFFFFFFFFF AND DUP8 PUSH20 0xFFFFFFFFFFFFFFFFFFFFFFFFFFFFFFFFFFFFFFFF AND EQ DUP1 ISZERO PUSH3 0x303A JUMPI POP PUSH1 0x0 DUP1 SLOAD SWAP1 PUSH2 0x100 EXP SWAP1 DIV PUSH20 0xFFFFFFFFFFFFFFFFFFFFFFFFFFFFFFFFFFFFFFFF AND PUSH20 0xFFFFFFFFFFFFFFFFFFFFFFFFFFFFFFFFFFFFFFFF AND DUP7 PUSH20 0xFFFFFFFFFFFFFFFFFFFFFFFFFFFFFFFFFFFFFFFF AND EQ ISZERO JUMPDEST ISZERO PUSH3 0x3066 JUMPI PUSH3 0x3058 PUSH3 0x3050 DUP8 DUP4 PUSH3 0x4394 JUMP JUMPDEST DUP8 DUP8 PUSH3 0x61AB JUMP JUMPDEST SWAP3 POP DUP3 SWAP4 POP POP POP POP PUSH3 0x30A4 JUMP JUMPDEST PUSH1 0x0 PUSH3 0x3080 PUSH3 0x3078 DUP9 DUP5 PUSH3 0x4394 JUMP JUMPDEST DUP9 DUP9 PUSH3 0x61AB JUMP JUMPDEST SWAP1 POP PUSH3 0x309A PUSH3 0x3092 DUP10 DUP6 PUSH3 0x4394 JUMP JUMPDEST DUP10 DUP4 PUSH3 0x60A0 JUMP JUMPDEST SWAP4 POP DUP4 SWAP5 POP POP POP POP POP JUMPDEST SWAP4 SWAP3 POP POP POP JUMP JUMPDEST CALLER PUSH20 0xFFFFFFFFFFFFFFFFFFFFFFFFFFFFFFFFFFFFFFFF AND PUSH3 0x30CC PUSH3 0x227B JUMP JUMPDEST PUSH20 0xFFFFFFFFFFFFFFFFFFFFFFFFFFFFFFFFFFFFFFFF AND EQ PUSH3 0x311A JUMPI PUSH1 0x40 MLOAD PUSH32 0xEBF9845900000000000000000000000000000000000000000000000000000000 DUP2 MSTORE PUSH1 0x4 ADD PUSH1 0x40 MLOAD DUP1 SWAP2 SUB SWAP1 REVERT JUMPDEST DUP2 PUSH1 0x0 PUSH1 0x2 PUSH1 0x0 DUP4 PUSH20 0xFFFFFFFFFFFFFFFFFFFFFFFFFFFFFFFFFFFFFFFF AND PUSH20 0xFFFFFFFFFFFFFFFFFFFFFFFFFFFFFFFFFFFFFFFF AND DUP2 MSTORE PUSH1 0x20 ADD SWAP1 DUP2 MSTORE PUSH1 0x20 ADD PUSH1 0x0 KECCAK256 SLOAD EQ DUP1 PUSH3 0x31B5 JUMPI POP PUSH1 0x0 DUP1 SLOAD SWAP1 PUSH2 0x100 EXP SWAP1 DIV PUSH20 0xFFFFFFFFFFFFFFFFFFFFFFFFFFFFFFFFFFFFFFFF AND PUSH20 0xFFFFFFFFFFFFFFFFFFFFFFFFFFFFFFFFFFFFFFFF AND DUP2 PUSH20 0xFFFFFFFFFFFFFFFFFFFFFFFFFFFFFFFFFFFFFFFF AND EQ JUMPDEST ISZERO PUSH3 0x31F8 JUMPI PUSH1 0x40 MLOAD PUSH32 0x8C379A000000000000000000000000000000000000000000000000000000000 DUP2 MSTORE PUSH1 0x4 ADD PUSH3 0x31EF SWAP1 PUSH3 0x8643 JUMP JUMPDEST PUSH1 0x40 MLOAD DUP1 SWAP2 SUB SWAP1 REVERT JUMPDEST PUSH1 0x0 PUSH1 0x1 PUSH1 0x2 PUSH1 0x0 DUP7 PUSH20 0xFFFFFFFFFFFFFFFFFFFFFFFFFFFFFFFFFFFFFFFF AND PUSH20 0xFFFFFFFFFFFFFFFFFFFFFFFFFFFFFFFFFFFFFFFF AND DUP2 MSTORE PUSH1 0x20 ADD SWAP1 DUP2 MSTORE PUSH1 0x20 ADD PUSH1 0x0 KECCAK256 SLOAD DUP2 SLOAD DUP2 LT PUSH3 0x3250 JUMPI PUSH3 0x324F PUSH3 0x85C4 JUMP JUMPDEST JUMPDEST SWAP1 PUSH1 0x0 MSTORE PUSH1 0x20 PUSH1 0x0 KECCAK256 SWAP1 PUSH1 0x2 MUL ADD SWAP1 POP PUSH1 0x0 PUSH3 0x3292 DUP6 DUP4 PUSH1 0x0 ADD PUSH1 0x0 SWAP1 SLOAD SWAP1 PUSH2 0x100 EXP SWAP1 DIV PUSH20 0xFFFFFFFFFFFFFFFFFFFFFFFFFFFFFFFFFFFFFFFF AND PUSH3 0x4394 JUMP JUMPDEST SWAP1 POP DUP4 DUP3 PUSH1 0x1 ADD PUSH1 0x10 PUSH2 0x100 EXP DUP2 SLOAD DUP2 PUSH16 0xFFFFFFFFFFFFFFFFFFFFFFFFFFFFFFFF MUL NOT AND SWAP1 DUP4 PUSH16 0xFFFFFFFFFFFFFFFFFFFFFFFFFFFFFFFF AND MUL OR SWAP1 SSTORE POP PUSH32 0x51AB1232A73B82B6B0ACB0FA91B834CF6E258A1858C4E23C72CE97241C71AA0D DUP6 DUP3 PUSH1 0x0 ADD MLOAD DUP4 PUSH1 0x20 ADD MLOAD DUP8 PUSH1 0x40 MLOAD PUSH3 0x330E SWAP5 SWAP4 SWAP3 SWAP2 SWAP1 PUSH3 0x8818 JUMP JUMPDEST PUSH1 0x40 MLOAD DUP1 SWAP2 SUB SWAP1 LOG1 POP POP POP POP POP JUMP JUMPDEST CALLER PUSH20 0xFFFFFFFFFFFFFFFFFFFFFFFFFFFFFFFFFFFFFFFF AND PUSH3 0x333E PUSH3 0x227B JUMP JUMPDEST PUSH20 0xFFFFFFFFFFFFFFFFFFFFFFFFFFFFFFFFFFFFFFFF AND EQ PUSH3 0x338C JUMPI PUSH1 0x40 MLOAD PUSH32 0xEBF9845900000000000000000000000000000000000000000000000000000000 DUP2 MSTORE PUSH1 0x4 ADD PUSH1 0x40 MLOAD DUP1 SWAP2 SUB SWAP1 REVERT JUMPDEST PUSH3 0x33AD DUP5 DUP5 DUP5 PUSH16 0xFFFFFFFFFFFFFFFFFFFFFFFFFFFFFFFF DUP1 AND DUP6 PUSH3 0x51F5 JUMP JUMPDEST POP POP POP POP JUMP JUMPDEST PUSH1 0x0 PUSH1 0xF PUSH1 0x0 DUP5 PUSH20 0xFFFFFFFFFFFFFFFFFFFFFFFFFFFFFFFFFFFFFFFF AND PUSH20 0xFFFFFFFFFFFFFFFFFFFFFFFFFFFFFFFFFFFFFFFF AND DUP2 MSTORE PUSH1 0x20 ADD SWAP1 DUP2 MSTORE PUSH1 0x20 ADD PUSH1 0x0 KECCAK256 PUSH1 0x0 DUP4 PUSH20 0xFFFFFFFFFFFFFFFFFFFFFFFFFFFFFFFFFFFFFFFF AND PUSH20 0xFFFFFFFFFFFFFFFFFFFFFFFFFFFFFFFFFFFFFFFF AND DUP2 MSTORE PUSH1 0x20 ADD SWAP1 DUP2 MSTORE PUSH1 0x20 ADD PUSH1 0x0 KECCAK256 PUSH1 0x0 SWAP1 SLOAD SWAP1 PUSH2 0x100 EXP SWAP1 DIV PUSH1 0xFF AND SWAP1 POP SWAP3 SWAP2 POP POP JUMP JUMPDEST DUP4 PUSH1 0x4 PUSH1 0x0 PUSH2 0x100 EXP DUP2 SLOAD DUP2 PUSH20 0xFFFFFFFFFFFFFFFFFFFFFFFFFFFFFFFFFFFFFFFF MUL NOT AND SWAP1 DUP4 PUSH20 0xFFFFFFFFFFFFFFFFFFFFFFFFFFFFFFFFFFFFFFFF AND MUL OR SWAP1 SSTORE POP DUP3 PUSH1 0x0 DUP1 PUSH2 0x100 EXP DUP2 SLOAD DUP2 PUSH20 0xFFFFFFFFFFFFFFFFFFFFFFFFFFFFFFFFFFFFFFFF MUL NOT AND SWAP1 DUP4 PUSH20 0xFFFFFFFFFFFFFFFFFFFFFFFFFFFFFFFFFFFFFFFF AND MUL OR SWAP1 SSTORE POP DUP2 PUSH1 0x5 PUSH1 0x0 PUSH2 0x100 EXP DUP2 SLOAD DUP2 PUSH20 0xFFFFFFFFFFFFFFFFFFFFFFFFFFFFFFFFFFFFFFFF MUL NOT AND SWAP1 DUP4 PUSH20 0xFFFFFFFFFFFFFFFFFFFFFFFFFFFFFFFFFFFFFFFF AND MUL OR SWAP1 SSTORE POP PUSH3 0x3513 PUSH3 0x2C1B JUMP JUMPDEST POP POP POP POP POP JUMP JUMPDEST PUSH1 0x0 PUSH3 0x3528 PUSH1 0x3 PUSH3 0xD27 JUMP JUMPDEST SWAP1 POP DUP1 PUSH20 0xFFFFFFFFFFFFFFFFFFFFFFFFFFFFFFFFFFFFFFFF AND PUSH4 0xEEF84BA1 PUSH1 0x40 MLOAD DUP2 PUSH4 0xFFFFFFFF AND PUSH1 0xE0 SHL DUP2 MSTORE PUSH1 0x4 ADD PUSH1 0x0 PUSH1 0x40 MLOAD DUP1 DUP4 SUB DUP2 PUSH1 0x0 DUP8 DUP1 EXTCODESIZE ISZERO DUP1 ISZERO PUSH3 0x3573 JUMPI PUSH1 0x0 DUP1 REVERT JUMPDEST POP GAS CALL ISZERO DUP1 ISZERO PUSH3 0x3588 JUMPI RETURNDATASIZE PUSH1 0x0 DUP1 RETURNDATACOPY RETURNDATASIZE PUSH1 0x0 REVERT JUMPDEST POP POP POP POP CALLER PUSH20 0xFFFFFFFFFFFFFFFFFFFFFFFFFFFFFFFFFFFFFFFF AND DUP8 PUSH20 0xFFFFFFFFFFFFFFFFFFFFFFFFFFFFFFFFFFFFFFFF AND EQ ISZERO DUP1 ISZERO PUSH3 0x35D2 JUMPI POP PUSH3 0x35D0 DUP8 CALLER PUSH3 0x33B3 JUMP JUMPDEST ISZERO JUMPDEST ISZERO PUSH3 0x360A JUMPI PUSH1 0x40 MLOAD PUSH32 0x6F34AAA800000000000000000000000000000000000000000000000000000000 DUP2 MSTORE PUSH1 0x4 ADD PUSH1 0x40 MLOAD DUP1 SWAP2 SUB SWAP1 REVERT JUMPDEST PUSH3 0x361A DUP8 DUP8 DUP8 DUP8 DUP8 DUP8 PUSH3 0x62AD JUMP JUMPDEST POP POP POP POP POP POP POP JUMP JUMPDEST CALLER PUSH20 0xFFFFFFFFFFFFFFFFFFFFFFFFFFFFFFFFFFFFFFFF AND PUSH3 0x3644 PUSH3 0x227B JUMP JUMPDEST PUSH20 0xFFFFFFFFFFFFFFFFFFFFFFFFFFFFFFFFFFFFFFFF AND EQ PUSH3 0x3692 JUMPI PUSH1 0x40 MLOAD PUSH32 0xEBF9845900000000000000000000000000000000000000000000000000000000 DUP2 MSTORE PUSH1 0x4 ADD PUSH1 0x40 MLOAD DUP1 SWAP2 SUB SWAP1 REVERT JUMPDEST PUSH1 0x0 PUSH20 0xFFFFFFFFFFFFFFFFFFFFFFFFFFFFFFFFFFFFFFFF AND DUP2 PUSH20 0xFFFFFFFFFFFFFFFFFFFFFFFFFFFFFFFFFFFFFFFF AND EQ ISZERO PUSH3 0x36FA JUMPI PUSH1 0x40 MLOAD PUSH32 0x5868B79D00000000000000000000000000000000000000000000000000000000 DUP2 MSTORE PUSH1 0x4 ADD PUSH1 0x40 MLOAD DUP1 SWAP2 SUB SWAP1 REVERT JUMPDEST PUSH3 0x3705 DUP2 PUSH3 0x4D44 JUMP JUMPDEST POP JUMP JUMPDEST PUSH1 0x60 DUP3 DUP1 TIMESTAMP GT ISZERO PUSH3 0x3751 JUMPI PUSH1 0x40 MLOAD PUSH32 0x8C379A000000000000000000000000000000000000000000000000000000000 DUP2 MSTORE PUSH1 0x4 ADD PUSH3 0x3748 SWAP1 PUSH3 0x86B5 JUMP JUMPDEST PUSH1 0x40 MLOAD DUP1 SWAP2 SUB SWAP1 REVERT JUMPDEST PUSH1 0x0 PUSH1 0x1 PUSH1 0x2 PUSH1 0x0 DUP12 PUSH20 0xFFFFFFFFFFFFFFFFFFFFFFFFFFFFFFFFFFFFFFFF AND PUSH20 0xFFFFFFFFFFFFFFFFFFFFFFFFFFFFFFFFFFFFFFFF AND DUP2 MSTORE PUSH1 0x20 ADD SWAP1 DUP2 MSTORE PUSH1 0x20 ADD PUSH1 0x0 KECCAK256 SLOAD DUP2 SLOAD DUP2 LT PUSH3 0x37A9 JUMPI PUSH3 0x37A8 PUSH3 0x85C4 JUMP JUMPDEST JUMPDEST SWAP1 PUSH1 0x0 MSTORE PUSH1 0x20 PUSH1 0x0 KECCAK256 SWAP1 PUSH1 0x2 MUL ADD PUSH1 0x0 ADD PUSH1 0x0 SWAP1 SLOAD SWAP1 PUSH2 0x100 EXP SWAP1 DIV PUSH20 0xFFFFFFFFFFFFFFFFFFFFFFFFFFFFFFFFFFFFFFFF AND SWAP1 POP PUSH1 0x0 PUSH1 0x1 PUSH1 0x2 PUSH1 0x0 DUP12 PUSH20 0xFFFFFFFFFFFFFFFFFFFFFFFFFFFFFFFFFFFFFFFF AND PUSH20 0xFFFFFFFFFFFFFFFFFFFFFFFFFFFFFFFFFFFFFFFF AND DUP2 MSTORE PUSH1 0x20 ADD SWAP1 DUP2 MSTORE PUSH1 0x20 ADD PUSH1 0x0 KECCAK256 SLOAD DUP2 SLOAD DUP2 LT PUSH3 0x3835 JUMPI PUSH3 0x3834 PUSH3 0x85C4 JUMP JUMPDEST JUMPDEST SWAP1 PUSH1 0x0 MSTORE PUSH1 0x20 PUSH1 0x0 KECCAK256 SWAP1 PUSH1 0x2 MUL ADD PUSH1 0x0 ADD PUSH1 0x0 SWAP1 SLOAD SWAP1 PUSH2 0x100 EXP SWAP1 DIV PUSH20 0xFFFFFFFFFFFFFFFFFFFFFFFFFFFFFFFFFFFFFFFF AND SWAP1 POP PUSH1 0x0 PUSH1 0x2 PUSH8 0xFFFFFFFFFFFFFFFF DUP2 GT ISZERO PUSH3 0x3889 JUMPI PUSH3 0x3888 PUSH3 0x7784 JUMP JUMPDEST JUMPDEST PUSH1 0x40 MLOAD SWAP1 DUP1 DUP3 MSTORE DUP1 PUSH1 0x20 MUL PUSH1 0x20 ADD DUP3 ADD PUSH1 0x40 MSTORE DUP1 ISZERO PUSH3 0x38B8 JUMPI DUP2 PUSH1 0x20 ADD PUSH1 0x20 DUP3 MUL DUP1 CALLDATASIZE DUP4 CALLDATACOPY DUP1 DUP3 ADD SWAP2 POP POP SWAP1 POP JUMPDEST POP SWAP1 POP DUP9 DUP2 PUSH1 0x1 DUP2 MLOAD DUP2 LT PUSH3 0x38D3 JUMPI PUSH3 0x38D2 PUSH3 0x85C4 JUMP JUMPDEST JUMPDEST PUSH1 0x20 MUL PUSH1 0x20 ADD ADD DUP2 DUP2 MSTORE POP POP PUSH1 0x0 DUP1 SLOAD SWAP1 PUSH2 0x100 EXP SWAP1 DIV PUSH20 0xFFFFFFFFFFFFFFFFFFFFFFFFFFFFFFFFFFFFFFFF AND PUSH20 0xFFFFFFFFFFFFFFFFFFFFFFFFFFFFFFFFFFFFFFFF AND DUP12 PUSH20 0xFFFFFFFFFFFFFFFFFFFFFFFFFFFFFFFFFFFFFFFF AND EQ ISZERO DUP1 ISZERO PUSH3 0x3987 JUMPI POP PUSH1 0x0 DUP1 SLOAD SWAP1 PUSH2 0x100 EXP SWAP1 DIV PUSH20 0xFFFFFFFFFFFFFFFFFFFFFFFFFFFFFFFFFFFFFFFF AND PUSH20 0xFFFFFFFFFFFFFFFFFFFFFFFFFFFFFFFFFFFFFFFF AND DUP11 PUSH20 0xFFFFFFFFFFFFFFFFFFFFFFFFFFFFFFFFFFFFFFFF AND EQ JUMPDEST ISZERO PUSH3 0x3ADE JUMPI PUSH1 0x0 PUSH3 0x399B DUP13 DUP6 PUSH3 0x4394 JUMP JUMPDEST SWAP1 POP PUSH3 0x39AA DUP2 DUP14 DUP13 PUSH3 0x60A0 JUMP JUMPDEST DUP3 PUSH1 0x0 DUP2 MLOAD DUP2 LT PUSH3 0x39C1 JUMPI PUSH3 0x39C0 PUSH3 0x85C4 JUMP JUMPDEST JUMPDEST PUSH1 0x20 MUL PUSH1 0x20 ADD ADD DUP2 DUP2 MSTORE POP POP DUP9 DUP3 PUSH1 0x0 DUP2 MLOAD DUP2 LT PUSH3 0x39E5 JUMPI PUSH3 0x39E4 PUSH3 0x85C4 JUMP JUMPDEST JUMPDEST PUSH1 0x20 MUL PUSH1 0x20 ADD ADD MLOAD GT ISZERO PUSH3 0x3A31 JUMPI PUSH1 0x40 MLOAD PUSH32 0x8C379A000000000000000000000000000000000000000000000000000000000 DUP2 MSTORE PUSH1 0x4 ADD PUSH3 0x3A28 SWAP1 PUSH3 0x8B7F JUMP JUMPDEST PUSH1 0x40 MLOAD DUP1 SWAP2 SUB SWAP1 REVERT JUMPDEST PUSH1 0x1 DUP3 PUSH1 0x0 DUP2 MLOAD DUP2 LT PUSH3 0x3A4A JUMPI PUSH3 0x3A49 PUSH3 0x85C4 JUMP JUMPDEST JUMPDEST PUSH1 0x20 MUL PUSH1 0x20 ADD ADD MLOAD GT PUSH3 0x3A95 JUMPI PUSH1 0x40 MLOAD PUSH32 0x8C379A000000000000000000000000000000000000000000000000000000000 DUP2 MSTORE PUSH1 0x4 ADD PUSH3 0x3A8C SWAP1 PUSH3 0x8762 JUMP JUMPDEST PUSH1 0x40 MLOAD DUP1 SWAP2 SUB SWAP1 REVERT JUMPDEST PUSH3 0x3AC1 DUP13 CALLER DUP7 DUP6 PUSH1 0x0 DUP2 MLOAD DUP2 LT PUSH3 0x3AB3 JUMPI PUSH3 0x3AB2 PUSH3 0x85C4 JUMP JUMPDEST JUMPDEST PUSH1 0x20 MUL PUSH1 0x20 ADD ADD MLOAD PUSH3 0x43F1 JUMP JUMPDEST PUSH3 0x3AD1 DUP13 DUP3 PUSH1 0x0 DUP14 DUP12 PUSH3 0x584A JUMP JUMPDEST DUP2 SWAP6 POP POP POP POP POP PUSH3 0x3FCC JUMP JUMPDEST PUSH1 0x0 DUP1 SLOAD SWAP1 PUSH2 0x100 EXP SWAP1 DIV PUSH20 0xFFFFFFFFFFFFFFFFFFFFFFFFFFFFFFFFFFFFFFFF AND PUSH20 0xFFFFFFFFFFFFFFFFFFFFFFFFFFFFFFFFFFFFFFFF AND DUP12 PUSH20 0xFFFFFFFFFFFFFFFFFFFFFFFFFFFFFFFFFFFFFFFF AND EQ DUP1 ISZERO PUSH3 0x3B86 JUMPI POP PUSH1 0x0 DUP1 SLOAD SWAP1 PUSH2 0x100 EXP SWAP1 DIV PUSH20 0xFFFFFFFFFFFFFFFFFFFFFFFFFFFFFFFFFFFFFFFF AND PUSH20 0xFFFFFFFFFFFFFFFFFFFFFFFFFFFFFFFFFFFFFFFF AND DUP11 PUSH20 0xFFFFFFFFFFFFFFFFFFFFFFFFFFFFFFFFFFFFFFFF AND EQ ISZERO JUMPDEST ISZERO PUSH3 0x3CDD JUMPI PUSH1 0x0 PUSH3 0x3B9A DUP12 DUP5 PUSH3 0x4394 JUMP JUMPDEST SWAP1 POP PUSH3 0x3BA9 DUP2 DUP13 DUP13 PUSH3 0x61AB JUMP JUMPDEST DUP3 PUSH1 0x0 DUP2 MLOAD DUP2 LT PUSH3 0x3BC0 JUMPI PUSH3 0x3BBF PUSH3 0x85C4 JUMP JUMPDEST JUMPDEST PUSH1 0x20 MUL PUSH1 0x20 ADD ADD DUP2 DUP2 MSTORE POP POP DUP9 DUP3 PUSH1 0x0 DUP2 MLOAD DUP2 LT PUSH3 0x3BE4 JUMPI PUSH3 0x3BE3 PUSH3 0x85C4 JUMP JUMPDEST JUMPDEST PUSH1 0x20 MUL PUSH1 0x20 ADD ADD MLOAD GT ISZERO PUSH3 0x3C30 JUMPI PUSH1 0x40 MLOAD PUSH32 0x8C379A000000000000000000000000000000000000000000000000000000000 DUP2 MSTORE PUSH1 0x4 ADD PUSH3 0x3C27 SWAP1 PUSH3 0x8BF1 JUMP JUMPDEST PUSH1 0x40 MLOAD DUP1 SWAP2 SUB SWAP1 REVERT JUMPDEST PUSH1 0x1 DUP3 PUSH1 0x0 DUP2 MLOAD DUP2 LT PUSH3 0x3C49 JUMPI PUSH3 0x3C48 PUSH3 0x85C4 JUMP JUMPDEST JUMPDEST PUSH1 0x20 MUL PUSH1 0x20 ADD ADD MLOAD GT PUSH3 0x3C94 JUMPI PUSH1 0x40 MLOAD PUSH32 0x8C379A000000000000000000000000000000000000000000000000000000000 DUP2 MSTORE PUSH1 0x4 ADD PUSH3 0x3C8B SWAP1 PUSH3 0x8C63 JUMP JUMPDEST PUSH1 0x40 MLOAD DUP1 SWAP2 SUB SWAP1 REVERT JUMPDEST PUSH3 0x3CC0 DUP13 CALLER DUP6 DUP6 PUSH1 0x0 DUP2 MLOAD DUP2 LT PUSH3 0x3CB2 JUMPI PUSH3 0x3CB1 PUSH3 0x85C4 JUMP JUMPDEST JUMPDEST PUSH1 0x20 MUL PUSH1 0x20 ADD ADD MLOAD PUSH3 0x43F1 JUMP JUMPDEST PUSH3 0x3CD0 DUP12 DUP3 DUP13 PUSH1 0x0 DUP12 PUSH3 0x584A JUMP JUMPDEST DUP2 SWAP6 POP POP POP POP POP PUSH3 0x3FCC JUMP JUMPDEST PUSH1 0x0 DUP1 SLOAD SWAP1 PUSH2 0x100 EXP SWAP1 DIV PUSH20 0xFFFFFFFFFFFFFFFFFFFFFFFFFFFFFFFFFFFFFFFF AND PUSH20 0xFFFFFFFFFFFFFFFFFFFFFFFFFFFFFFFFFFFFFFFF AND DUP12 PUSH20 0xFFFFFFFFFFFFFFFFFFFFFFFFFFFFFFFFFFFFFFFF AND EQ ISZERO DUP1 ISZERO PUSH3 0x3D86 JUMPI POP PUSH1 0x0 DUP1 SLOAD SWAP1 PUSH2 0x100 EXP SWAP1 DIV PUSH20 0xFFFFFFFFFFFFFFFFFFFFFFFFFFFFFFFFFFFFFFFF AND PUSH20 0xFFFFFFFFFFFFFFFFFFFFFFFFFFFFFFFFFFFFFFFF AND DUP11 PUSH20 0xFFFFFFFFFFFFFFFFFFFFFFFFFFFFFFFFFFFFFFFF AND EQ ISZERO JUMPDEST DUP1 ISZERO PUSH3 0x3DBF JUMPI POP DUP10 PUSH20 0xFFFFFFFFFFFFFFFFFFFFFFFFFFFFFFFFFFFFFFFF AND DUP12 PUSH20 0xFFFFFFFFFFFFFFFFFFFFFFFFFFFFFFFFFFFFFFFF AND EQ ISZERO JUMPDEST ISZERO PUSH3 0x3F8F JUMPI PUSH1 0x0 PUSH3 0x3DD3 DUP12 DUP5 PUSH3 0x4394 JUMP JUMPDEST SWAP1 POP PUSH1 0x0 PUSH3 0x3DE4 DUP3 DUP14 DUP14 PUSH3 0x61AB JUMP JUMPDEST SWAP1 POP PUSH1 0x1 DUP2 GT PUSH3 0x3E2C JUMPI PUSH1 0x40 MLOAD PUSH32 0x8C379A000000000000000000000000000000000000000000000000000000000 DUP2 MSTORE PUSH1 0x4 ADD PUSH3 0x3E23 SWAP1 PUSH3 0x8C63 JUMP JUMPDEST PUSH1 0x40 MLOAD DUP1 SWAP2 SUB SWAP1 REVERT JUMPDEST PUSH1 0x0 PUSH3 0x3E3A DUP15 DUP8 PUSH3 0x4394 JUMP JUMPDEST SWAP1 POP PUSH3 0x3E49 DUP2 DUP16 DUP5 PUSH3 0x60A0 JUMP JUMPDEST DUP5 PUSH1 0x0 DUP2 MLOAD DUP2 LT PUSH3 0x3E60 JUMPI PUSH3 0x3E5F PUSH3 0x85C4 JUMP JUMPDEST JUMPDEST PUSH1 0x20 MUL PUSH1 0x20 ADD ADD DUP2 DUP2 MSTORE POP POP PUSH1 0x1 DUP5 PUSH1 0x0 DUP2 MLOAD DUP2 LT PUSH3 0x3E85 JUMPI PUSH3 0x3E84 PUSH3 0x85C4 JUMP JUMPDEST JUMPDEST PUSH1 0x20 MUL PUSH1 0x20 ADD ADD MLOAD GT PUSH3 0x3ED0 JUMPI PUSH1 0x40 MLOAD PUSH32 0x8C379A000000000000000000000000000000000000000000000000000000000 DUP2 MSTORE PUSH1 0x4 ADD PUSH3 0x3EC7 SWAP1 PUSH3 0x8C63 JUMP JUMPDEST PUSH1 0x40 MLOAD DUP1 SWAP2 SUB SWAP1 REVERT JUMPDEST DUP11 DUP5 PUSH1 0x0 DUP2 MLOAD DUP2 LT PUSH3 0x3EE8 JUMPI PUSH3 0x3EE7 PUSH3 0x85C4 JUMP JUMPDEST JUMPDEST PUSH1 0x20 MUL PUSH1 0x20 ADD ADD MLOAD GT ISZERO PUSH3 0x3F34 JUMPI PUSH1 0x40 MLOAD PUSH32 0x8C379A000000000000000000000000000000000000000000000000000000000 DUP2 MSTORE PUSH1 0x4 ADD PUSH3 0x3F2B SWAP1 PUSH3 0x8B7F JUMP JUMPDEST PUSH1 0x40 MLOAD DUP1 SWAP2 SUB SWAP1 REVERT JUMPDEST PUSH3 0x3F60 DUP15 CALLER DUP9 DUP8 PUSH1 0x0 DUP2 MLOAD DUP2 LT PUSH3 0x3F52 JUMPI PUSH3 0x3F51 PUSH3 0x85C4 JUMP JUMPDEST JUMPDEST PUSH1 0x20 MUL PUSH1 0x20 ADD ADD MLOAD PUSH3 0x43F1 JUMP JUMPDEST PUSH3 0x3F70 DUP15 DUP3 PUSH1 0x0 DUP6 DUP10 PUSH3 0x584A JUMP JUMPDEST PUSH3 0x3F80 DUP14 DUP5 DUP15 PUSH1 0x0 DUP14 PUSH3 0x584A JUMP JUMPDEST DUP4 SWAP8 POP POP POP POP POP POP POP PUSH3 0x3FCC JUMP JUMPDEST PUSH1 0x40 MLOAD PUSH32 0x8C379A000000000000000000000000000000000000000000000000000000000 DUP2 MSTORE PUSH1 0x4 ADD PUSH3 0x3FC3 SWAP1 PUSH3 0x8A6C JUMP JUMPDEST PUSH1 0x40 MLOAD DUP1 SWAP2 SUB SWAP1 REVERT JUMPDEST POP SWAP7 SWAP6 POP POP POP POP POP POP JUMP JUMPDEST PUSH1 0x0 DUP7 DUP7 SWAP1 POP SWAP1 POP DUP5 DUP5 SWAP1 POP DUP2 EQ PUSH3 0x401C JUMPI PUSH1 0x40 MLOAD PUSH32 0xA98A885900000000000000000000000000000000000000000000000000000000 DUP2 MSTORE PUSH1 0x4 ADD PUSH1 0x40 MLOAD DUP1 SWAP2 SUB SWAP1 REVERT JUMPDEST PUSH1 0x0 PUSH20 0xFFFFFFFFFFFFFFFFFFFFFFFFFFFFFFFFFFFFFFFF AND DUP9 PUSH20 0xFFFFFFFFFFFFFFFFFFFFFFFFFFFFFFFFFFFFFFFF AND EQ ISZERO PUSH3 0x4084 JUMPI PUSH1 0x40 MLOAD PUSH32 0x3E63C34800000000000000000000000000000000000000000000000000000000 DUP2 MSTORE PUSH1 0x4 ADD PUSH1 0x40 MLOAD DUP1 SWAP2 SUB SWAP1 REVERT JUMPDEST PUSH1 0x0 CALLER SWAP1 POP PUSH1 0x0 JUMPDEST DUP3 DUP2 LT ISZERO PUSH3 0x42AD JUMPI PUSH1 0x0 DUP8 DUP8 DUP4 DUP2 DUP2 LT PUSH3 0x40AD JUMPI PUSH3 0x40AC PUSH3 0x85C4 JUMP JUMPDEST JUMPDEST SWAP1 POP PUSH1 0x20 MUL ADD CALLDATALOAD SWAP1 POP PUSH1 0x0 PUSH1 0xE PUSH1 0x0 DUP13 DUP13 DUP7 DUP2 DUP2 LT PUSH3 0x40D2 JUMPI PUSH3 0x40D1 PUSH3 0x85C4 JUMP JUMPDEST JUMPDEST SWAP1 POP PUSH1 0x20 MUL ADD CALLDATALOAD DUP2 MSTORE PUSH1 0x20 ADD SWAP1 DUP2 MSTORE PUSH1 0x20 ADD PUSH1 0x0 KECCAK256 PUSH1 0x0 DUP15 PUSH20 0xFFFFFFFFFFFFFFFFFFFFFFFFFFFFFFFFFFFFFFFF AND PUSH20 0xFFFFFFFFFFFFFFFFFFFFFFFFFFFFFFFFFFFFFFFF AND DUP2 MSTORE PUSH1 0x20 ADD SWAP1 DUP2 MSTORE PUSH1 0x20 ADD PUSH1 0x0 KECCAK256 SLOAD SWAP1 POP DUP2 DUP2 LT ISZERO PUSH3 0x4162 JUMPI PUSH1 0x40 MLOAD PUSH32 0x5AD11EC200000000000000000000000000000000000000000000000000000000 DUP2 MSTORE PUSH1 0x4 ADD PUSH1 0x40 MLOAD DUP1 SWAP2 SUB SWAP1 REVERT JUMPDEST DUP2 DUP2 SUB PUSH1 0xE PUSH1 0x0 DUP14 DUP14 DUP8 DUP2 DUP2 LT PUSH3 0x417F JUMPI PUSH3 0x417E PUSH3 0x85C4 JUMP JUMPDEST JUMPDEST SWAP1 POP PUSH1 0x20 MUL ADD CALLDATALOAD DUP2 MSTORE PUSH1 0x20 ADD SWAP1 DUP2 MSTORE PUSH1 0x20 ADD PUSH1 0x0 KECCAK256 PUSH1 0x0 DUP16 PUSH20 0xFFFFFFFFFFFFFFFFFFFFFFFFFFFFFFFFFFFFFFFF AND PUSH20 0xFFFFFFFFFFFFFFFFFFFFFFFFFFFFFFFFFFFFFFFF AND DUP2 MSTORE PUSH1 0x20 ADD SWAP1 DUP2 MSTORE PUSH1 0x20 ADD PUSH1 0x0 KECCAK256 DUP2 SWAP1 SSTORE POP DUP2 PUSH1 0xE PUSH1 0x0 DUP14 DUP14 DUP8 DUP2 DUP2 LT PUSH3 0x41F0 JUMPI PUSH3 0x41EF PUSH3 0x85C4 JUMP JUMPDEST JUMPDEST SWAP1 POP PUSH1 0x20 MUL ADD CALLDATALOAD DUP2 MSTORE PUSH1 0x20 ADD SWAP1 DUP2 MSTORE PUSH1 0x20 ADD PUSH1 0x0 KECCAK256 PUSH1 0x0 DUP15 PUSH20 0xFFFFFFFFFFFFFFFFFFFFFFFFFFFFFFFFFFFFFFFF AND PUSH20 0xFFFFFFFFFFFFFFFFFFFFFFFFFFFFFFFFFFFFFFFF AND DUP2 MSTORE PUSH1 0x20 ADD SWAP1 DUP2 MSTORE PUSH1 0x20 ADD PUSH1 0x0 KECCAK256 PUSH1 0x0 DUP3 DUP3 SLOAD PUSH3 0x4253 SWAP2 SWAP1 PUSH3 0x8567 JUMP JUMPDEST SWAP3 POP POP DUP2 SWAP1 SSTORE POP DUP2 PUSH1 0x11 PUSH1 0x0 DUP14 DUP14 DUP8 DUP2 DUP2 LT PUSH3 0x4275 JUMPI PUSH3 0x4274 PUSH3 0x85C4 JUMP JUMPDEST JUMPDEST SWAP1 POP PUSH1 0x20 MUL ADD CALLDATALOAD DUP2 MSTORE PUSH1 0x20 ADD SWAP1 DUP2 MSTORE PUSH1 0x20 ADD PUSH1 0x0 KECCAK256 PUSH1 0x0 DUP3 DUP3 SLOAD ADD SWAP3 POP POP DUP2 SWAP1 SSTORE POP POP POP DUP1 PUSH3 0x42A5 SWAP1 PUSH3 0x8519 JUMP JUMPDEST SWAP1 POP PUSH3 0x408C JUMP JUMPDEST POP DUP9 PUSH20 0xFFFFFFFFFFFFFFFFFFFFFFFFFFFFFFFFFFFFFFFF AND DUP11 PUSH20 0xFFFFFFFFFFFFFFFFFFFFFFFFFFFFFFFFFFFFFFFF AND DUP3 PUSH20 0xFFFFFFFFFFFFFFFFFFFFFFFFFFFFFFFFFFFFFFFF AND PUSH32 0x4A39DC06D4C0DBC64B70AF90FD698A233A518AA5D07E595D983B8C0526C8F7FB DUP12 DUP12 DUP12 DUP12 PUSH1 0x40 MLOAD PUSH3 0x432A SWAP5 SWAP4 SWAP3 SWAP2 SWAP1 PUSH3 0x8CED JUMP JUMPDEST PUSH1 0x40 MLOAD DUP1 SWAP2 SUB SWAP1 LOG4 PUSH3 0x4388 DUP2 DUP12 DUP12 DUP12 DUP12 DUP12 DUP12 DUP12 DUP12 DUP1 DUP1 PUSH1 0x1F ADD PUSH1 0x20 DUP1 SWAP2 DIV MUL PUSH1 0x20 ADD PUSH1 0x40 MLOAD SWAP1 DUP2 ADD PUSH1 0x40 MSTORE DUP1 SWAP4 SWAP3 SWAP2 SWAP1 DUP2 DUP2 MSTORE PUSH1 0x20 ADD DUP4 DUP4 DUP1 DUP3 DUP5 CALLDATACOPY PUSH1 0x0 DUP2 DUP5 ADD MSTORE PUSH1 0x1F NOT PUSH1 0x1F DUP3 ADD AND SWAP1 POP DUP1 DUP4 ADD SWAP3 POP POP POP POP POP POP POP PUSH3 0x6569 JUMP JUMPDEST POP POP POP POP POP POP POP POP POP POP JUMP JUMPDEST PUSH3 0x439E PUSH3 0x6E3F JUMP JUMPDEST PUSH1 0x40 MLOAD DUP1 PUSH1 0x40 ADD PUSH1 0x40 MSTORE DUP1 PUSH3 0x43B5 DUP6 DUP6 PUSH3 0x66C2 JUMP JUMPDEST DUP2 MSTORE PUSH1 0x20 ADD PUSH3 0x43E6 PUSH1 0x0 DUP1 SLOAD SWAP1 PUSH2 0x100 EXP SWAP1 DIV PUSH20 0xFFFFFFFFFFFFFFFFFFFFFFFFFFFFFFFFFFFFFFFF AND DUP6 PUSH3 0x66C2 JUMP JUMPDEST DUP2 MSTORE POP SWAP1 POP SWAP3 SWAP2 POP POP JUMP JUMPDEST PUSH1 0x1 DUP2 GT ISZERO DUP1 PUSH3 0x442D JUMPI POP DUP2 PUSH20 0xFFFFFFFFFFFFFFFFFFFFFFFFFFFFFFFFFFFFFFFF AND DUP4 PUSH20 0xFFFFFFFFFFFFFFFFFFFFFFFFFFFFFFFFFFFFFFFF AND EQ JUMPDEST ISZERO PUSH3 0x4439 JUMPI PUSH3 0x465F JUMP JUMPDEST PUSH1 0x6 PUSH1 0x0 SWAP1 SLOAD SWAP1 PUSH2 0x100 EXP SWAP1 DIV PUSH20 0xFFFFFFFFFFFFFFFFFFFFFFFFFFFFFFFFFFFFFFFF AND PUSH20 0xFFFFFFFFFFFFFFFFFFFFFFFFFFFFFFFFFFFFFFFF AND DUP5 PUSH20 0xFFFFFFFFFFFFFFFFFFFFFFFFFFFFFFFFFFFFFFFF AND EQ DUP1 ISZERO PUSH3 0x44C2 JUMPI POP CALLER PUSH20 0xFFFFFFFFFFFFFFFFFFFFFFFFFFFFFFFFFFFFFFFF AND DUP4 PUSH20 0xFFFFFFFFFFFFFFFFFFFFFFFFFFFFFFFFFFFFFFFF AND EQ JUMPDEST ISZERO PUSH3 0x4549 JUMPI PUSH1 0x0 SELFBALANCE SWAP1 POP DUP2 DUP2 LT ISZERO PUSH3 0x4513 JUMPI PUSH1 0x40 MLOAD PUSH32 0x8C379A000000000000000000000000000000000000000000000000000000000 DUP2 MSTORE PUSH1 0x4 ADD PUSH3 0x450A SWAP1 PUSH3 0x8D7C JUMP JUMPDEST PUSH1 0x40 MLOAD DUP1 SWAP2 SUB SWAP1 REVERT JUMPDEST DUP2 DUP2 GT ISZERO PUSH3 0x4536 JUMPI PUSH3 0x4535 CALLER DUP4 DUP4 PUSH3 0x452F SWAP2 SWAP1 PUSH3 0x86D7 JUMP JUMPDEST PUSH3 0x67CC JUMP JUMPDEST JUMPDEST PUSH3 0x4542 DUP4 DUP4 PUSH3 0x67CC JUMP JUMPDEST POP PUSH3 0x465F JUMP JUMPDEST PUSH1 0x6 PUSH1 0x0 SWAP1 SLOAD SWAP1 PUSH2 0x100 EXP SWAP1 DIV PUSH20 0xFFFFFFFFFFFFFFFFFFFFFFFFFFFFFFFFFFFFFFFF AND PUSH20 0xFFFFFFFFFFFFFFFFFFFFFFFFFFFFFFFFFFFFFFFF AND DUP5 PUSH20 0xFFFFFFFFFFFFFFFFFFFFFFFFFFFFFFFFFFFFFFFF AND EQ DUP1 ISZERO PUSH3 0x45D3 JUMPI POP CALLER PUSH20 0xFFFFFFFFFFFFFFFFFFFFFFFFFFFFFFFFFFFFFFFF AND DUP4 PUSH20 0xFFFFFFFFFFFFFFFFFFFFFFFFFFFFFFFFFFFFFFFF AND EQ ISZERO JUMPDEST ISZERO PUSH3 0x4650 JUMPI DUP3 PUSH20 0xFFFFFFFFFFFFFFFFFFFFFFFFFFFFFFFFFFFFFFFF AND PUSH4 0x1B9A91A4 DUP4 DUP4 PUSH1 0x40 MLOAD DUP4 PUSH4 0xFFFFFFFF AND PUSH1 0xE0 SHL DUP2 MSTORE PUSH1 0x4 ADD PUSH3 0x4616 SWAP3 SWAP2 SWAP1 PUSH3 0x87EB JUMP JUMPDEST PUSH1 0x0 PUSH1 0x40 MLOAD DUP1 DUP4 SUB DUP2 PUSH1 0x0 DUP8 DUP1 EXTCODESIZE ISZERO DUP1 ISZERO PUSH3 0x4631 JUMPI PUSH1 0x0 DUP1 REVERT JUMPDEST POP GAS CALL ISZERO DUP1 ISZERO PUSH3 0x4646 JUMPI RETURNDATASIZE PUSH1 0x0 DUP1 RETURNDATACOPY RETURNDATASIZE PUSH1 0x0 REVERT JUMPDEST POP POP POP POP PUSH3 0x465F JUMP JUMPDEST PUSH3 0x465E DUP5 DUP5 DUP5 DUP5 PUSH3 0x68CC JUMP JUMPDEST JUMPDEST POP POP POP POP JUMP JUMPDEST PUSH1 0x0 PUSH1 0x3 DUP3 GT ISZERO PUSH3 0x46DA JUMPI DUP2 SWAP1 POP PUSH1 0x0 PUSH1 0x1 PUSH1 0x2 DUP5 PUSH3 0x4687 SWAP2 SWAP1 PUSH3 0x87B3 JUMP JUMPDEST PUSH3 0x4693 SWAP2 SWAP1 PUSH3 0x8567 JUMP JUMPDEST SWAP1 POP JUMPDEST DUP2 DUP2 LT ISZERO PUSH3 0x46D3 JUMPI DUP1 SWAP2 POP PUSH1 0x2 DUP2 DUP3 DUP6 PUSH3 0x46B3 SWAP2 SWAP1 PUSH3 0x87B3 JUMP JUMPDEST PUSH3 0x46BF SWAP2 SWAP1 PUSH3 0x8567 JUMP JUMPDEST PUSH3 0x46CB SWAP2 SWAP1 PUSH3 0x87B3 JUMP JUMPDEST SWAP1 POP PUSH3 0x4696 JUMP JUMPDEST POP PUSH3 0x46E9 JUMP JUMPDEST PUSH1 0x0 DUP3 EQ PUSH3 0x46E8 JUMPI PUSH1 0x1 SWAP1 POP JUMPDEST JUMPDEST SWAP2 SWAP1 POP JUMP JUMPDEST PUSH1 0x0 DUP1 PUSH1 0x0 PUSH1 0x7 PUSH1 0x1 ADD SLOAD SWAP1 POP DUP6 DUP6 GT DUP1 ISZERO PUSH3 0x470B JUMPI POP PUSH1 0x0 DUP7 GT JUMPDEST DUP1 ISZERO PUSH3 0x4718 JUMPI POP PUSH1 0x0 DUP2 GT JUMPDEST ISZERO PUSH3 0x478B JUMPI DUP1 DUP7 PUSH3 0x472C SWAP2 SWAP1 PUSH3 0x7FF9 JUMP JUMPDEST DUP2 PUSH1 0x64 PUSH3 0x473B SWAP2 SWAP1 PUSH3 0x86D7 JUMP JUMPDEST DUP7 PUSH3 0x4748 SWAP2 SWAP1 PUSH3 0x7FF9 JUMP JUMPDEST PUSH3 0x4754 SWAP2 SWAP1 PUSH3 0x8567 JUMP JUMPDEST DUP7 DUP7 PUSH3 0x4762 SWAP2 SWAP1 PUSH3 0x86D7 JUMP JUMPDEST DUP3 DUP7 PUSH3 0x4770 SWAP2 SWAP1 PUSH3 0x7FF9 JUMP JUMPDEST PUSH3 0x477C SWAP2 SWAP1 PUSH3 0x7FF9 JUMP JUMPDEST PUSH3 0x4788 SWAP2 SWAP1 PUSH3 0x87B3 JUMP JUMPDEST SWAP2 POP JUMPDEST DUP2 SWAP3 POP POP POP SWAP4 SWAP3 POP POP POP JUMP JUMPDEST PUSH1 0x0 PUSH20 0xFFFFFFFFFFFFFFFFFFFFFFFFFFFFFFFFFFFFFFFF AND DUP5 PUSH20 0xFFFFFFFFFFFFFFFFFFFFFFFFFFFFFFFFFFFFFFFF AND EQ ISZERO PUSH3 0x47FF JUMPI PUSH1 0x40 MLOAD PUSH32 0xF84619AC00000000000000000000000000000000000000000000000000000000 DUP2 MSTORE PUSH1 0x4 ADD PUSH1 0x40 MLOAD DUP1 SWAP2 SUB SWAP1 REVERT JUMPDEST PUSH1 0x0 DUP3 EQ ISZERO PUSH3 0x480F JUMPI PUSH3 0x4932 JUMP JUMPDEST PUSH1 0x0 CALLER SWAP1 POP DUP3 PUSH1 0x11 PUSH1 0x0 DUP7 DUP2 MSTORE PUSH1 0x20 ADD SWAP1 DUP2 MSTORE PUSH1 0x20 ADD PUSH1 0x0 KECCAK256 PUSH1 0x0 DUP3 DUP3 SLOAD PUSH3 0x4839 SWAP2 SWAP1 PUSH3 0x8567 JUMP JUMPDEST SWAP3 POP POP DUP2 SWAP1 SSTORE POP DUP3 PUSH1 0xE PUSH1 0x0 DUP7 DUP2 MSTORE PUSH1 0x20 ADD SWAP1 DUP2 MSTORE PUSH1 0x20 ADD PUSH1 0x0 KECCAK256 PUSH1 0x0 DUP8 PUSH20 0xFFFFFFFFFFFFFFFFFFFFFFFFFFFFFFFFFFFFFFFF AND PUSH20 0xFFFFFFFFFFFFFFFFFFFFFFFFFFFFFFFFFFFFFFFF AND DUP2 MSTORE PUSH1 0x20 ADD SWAP1 DUP2 MSTORE PUSH1 0x20 ADD PUSH1 0x0 KECCAK256 PUSH1 0x0 DUP3 DUP3 SLOAD ADD SWAP3 POP POP DUP2 SWAP1 SSTORE POP DUP5 PUSH20 0xFFFFFFFFFFFFFFFFFFFFFFFFFFFFFFFFFFFFFFFF AND PUSH1 0x0 PUSH20 0xFFFFFFFFFFFFFFFFFFFFFFFFFFFFFFFFFFFFFFFF AND DUP3 PUSH20 0xFFFFFFFFFFFFFFFFFFFFFFFFFFFFFFFFFFFFFFFF AND PUSH32 0xC3D58168C5AE7397731D063D5BBF3D657854427343F4C083240F7AACAA2D0F62 DUP8 DUP8 PUSH1 0x40 MLOAD PUSH3 0x4917 SWAP3 SWAP2 SWAP1 PUSH3 0x8D9E JUMP JUMPDEST PUSH1 0x40 MLOAD DUP1 SWAP2 SUB SWAP1 LOG4 PUSH3 0x4930 DUP2 PUSH1 0x0 DUP8 DUP8 DUP8 DUP8 PUSH3 0x6A07 JUMP JUMPDEST POP JUMPDEST POP POP POP POP JUMP JUMPDEST PUSH1 0x0 DUP3 PUSH1 0x0 PUSH1 0x2 PUSH1 0x0 DUP4 PUSH20 0xFFFFFFFFFFFFFFFFFFFFFFFFFFFFFFFFFFFFFFFF AND PUSH20 0xFFFFFFFFFFFFFFFFFFFFFFFFFFFFFFFFFFFFFFFF AND DUP2 MSTORE PUSH1 0x20 ADD SWAP1 DUP2 MSTORE PUSH1 0x20 ADD PUSH1 0x0 KECCAK256 SLOAD EQ DUP1 PUSH3 0x49D5 JUMPI POP PUSH1 0x0 DUP1 SLOAD SWAP1 PUSH2 0x100 EXP SWAP1 DIV PUSH20 0xFFFFFFFFFFFFFFFFFFFFFFFFFFFFFFFFFFFFFFFF AND PUSH20 0xFFFFFFFFFFFFFFFFFFFFFFFFFFFFFFFFFFFFFFFF AND DUP2 PUSH20 0xFFFFFFFFFFFFFFFFFFFFFFFFFFFFFFFFFFFFFFFF AND EQ JUMPDEST ISZERO PUSH3 0x4A18 JUMPI PUSH1 0x40 MLOAD PUSH32 0x8C379A000000000000000000000000000000000000000000000000000000000 DUP2 MSTORE PUSH1 0x4 ADD PUSH3 0x4A0F SWAP1 PUSH3 0x8643 JUMP JUMPDEST PUSH1 0x40 MLOAD DUP1 SWAP2 SUB SWAP1 REVERT JUMPDEST PUSH3 0x4A39 DUP4 DUP7 PUSH1 0x0 ADD MLOAD DUP8 PUSH1 0x20 ADD MLOAD PUSH3 0x4A33 DUP9 DUP11 PUSH3 0x4B45 JUMP JUMPDEST PUSH3 0x6B5A JUMP JUMPDEST SWAP2 POP POP SWAP4 SWAP3 POP POP POP JUMP JUMPDEST PUSH1 0x0 DUP3 PUSH1 0x0 PUSH1 0x2 PUSH1 0x0 DUP4 PUSH20 0xFFFFFFFFFFFFFFFFFFFFFFFFFFFFFFFFFFFFFFFF AND PUSH20 0xFFFFFFFFFFFFFFFFFFFFFFFFFFFFFFFFFFFFFFFF AND DUP2 MSTORE PUSH1 0x20 ADD SWAP1 DUP2 MSTORE PUSH1 0x20 ADD PUSH1 0x0 KECCAK256 SLOAD EQ DUP1 PUSH3 0x4AE0 JUMPI POP PUSH1 0x0 DUP1 SLOAD SWAP1 PUSH2 0x100 EXP SWAP1 DIV PUSH20 0xFFFFFFFFFFFFFFFFFFFFFFFFFFFFFFFFFFFFFFFF AND PUSH20 0xFFFFFFFFFFFFFFFFFFFFFFFFFFFFFFFFFFFFFFFF AND DUP2 PUSH20 0xFFFFFFFFFFFFFFFFFFFFFFFFFFFFFFFFFFFFFFFF AND EQ JUMPDEST ISZERO PUSH3 0x4B23 JUMPI PUSH1 0x40 MLOAD PUSH32 0x8C379A000000000000000000000000000000000000000000000000000000000 DUP2 MSTORE PUSH1 0x4 ADD PUSH3 0x4B1A SWAP1 PUSH3 0x8643 JUMP JUMPDEST PUSH1 0x40 MLOAD DUP1 SWAP2 SUB SWAP1 REVERT JUMPDEST PUSH3 0x4B3B DUP4 DUP7 PUSH1 0x20 ADD MLOAD DUP8 PUSH1 0x0 ADD MLOAD PUSH2 0x2710 PUSH3 0x6B5A JUMP JUMPDEST SWAP2 POP POP SWAP4 SWAP3 POP POP POP JUMP JUMPDEST PUSH1 0x0 DUP1 PUSH3 0x4B52 PUSH3 0x6BB5 JUMP JUMPDEST SWAP1 POP PUSH1 0x0 DUP1 PUSH1 0x7 PUSH1 0x6 ADD SLOAD DUP4 PUSH3 0x4B6A SWAP2 SWAP1 PUSH3 0x86D7 JUMP JUMPDEST SWAP1 POP JUMPDEST DUP3 DUP2 LT ISZERO PUSH3 0x4C1D JUMPI PUSH1 0x3 PUSH1 0x0 DUP8 PUSH20 0xFFFFFFFFFFFFFFFFFFFFFFFFFFFFFFFFFFFFFFFF AND PUSH20 0xFFFFFFFFFFFFFFFFFFFFFFFFFFFFFFFFFFFFFFFF AND DUP2 MSTORE PUSH1 0x20 ADD SWAP1 DUP2 MSTORE PUSH1 0x20 ADD PUSH1 0x0 KECCAK256 PUSH1 0x0 DUP3 DUP2 MSTORE PUSH1 0x20 ADD SWAP1 DUP2 MSTORE PUSH1 0x20 ADD PUSH1 0x0 KECCAK256 PUSH1 0x0 ADD PUSH1 0x2 SWAP1 SLOAD SWAP1 PUSH2 0x100 EXP SWAP1 DIV PUSH16 0xFFFFFFFFFFFFFFFFFFFFFFFFFFFFFFFF AND PUSH16 0xFFFFFFFFFFFFFFFFFFFFFFFFFFFFFFFF AND DUP3 PUSH3 0x4C05 SWAP2 SWAP1 PUSH3 0x8567 JUMP JUMPDEST SWAP2 POP DUP1 DUP1 PUSH3 0x4C14 SWAP1 PUSH3 0x8519 JUMP JUMPDEST SWAP2 POP POP PUSH3 0x4B6D JUMP JUMPDEST POP PUSH1 0x0 PUSH5 0x2540BE400 PUSH1 0x7 PUSH1 0x4 ADD SLOAD DUP7 PUSH1 0x20 ADD MLOAD PUSH3 0x4C3D SWAP2 SWAP1 PUSH3 0x7FF9 JUMP JUMPDEST PUSH3 0x4C49 SWAP2 SWAP1 PUSH3 0x87B3 JUMP JUMPDEST SWAP1 POP PUSH1 0x0 PUSH5 0x2540BE400 PUSH1 0x7 PUSH1 0x5 ADD SLOAD DUP8 PUSH1 0x20 ADD MLOAD PUSH3 0x4C6A SWAP2 SWAP1 PUSH3 0x7FF9 JUMP JUMPDEST PUSH3 0x4C76 SWAP2 SWAP1 PUSH3 0x87B3 JUMP JUMPDEST SWAP1 POP DUP2 DUP4 GT PUSH3 0x4CA1 JUMPI PUSH1 0x7 PUSH1 0x3 ADD SLOAD PUSH2 0x2710 PUSH3 0x4C95 SWAP2 SWAP1 PUSH3 0x86D7 JUMP JUMPDEST SWAP5 POP POP POP POP POP PUSH3 0x4D3E JUMP JUMPDEST DUP1 DUP4 LT PUSH3 0x4CCA JUMPI PUSH1 0x7 PUSH1 0x2 ADD SLOAD PUSH2 0x2710 PUSH3 0x4CBE SWAP2 SWAP1 PUSH3 0x86D7 JUMP JUMPDEST SWAP5 POP POP POP POP POP PUSH3 0x4D3E JUMP JUMPDEST DUP2 DUP2 PUSH3 0x4CD8 SWAP2 SWAP1 PUSH3 0x86D7 JUMP JUMPDEST PUSH1 0x7 PUSH1 0x2 ADD SLOAD PUSH1 0x7 PUSH1 0x3 ADD SLOAD PUSH3 0x4CF0 SWAP2 SWAP1 PUSH3 0x86D7 JUMP JUMPDEST DUP4 DUP6 PUSH3 0x4CFE SWAP2 SWAP1 PUSH3 0x86D7 JUMP JUMPDEST PUSH3 0x4D0A SWAP2 SWAP1 PUSH3 0x7FF9 JUMP JUMPDEST PUSH3 0x4D16 SWAP2 SWAP1 PUSH3 0x87B3 JUMP JUMPDEST PUSH1 0x7 PUSH1 0x3 ADD SLOAD PUSH2 0x2710 PUSH3 0x4D2B SWAP2 SWAP1 PUSH3 0x86D7 JUMP JUMPDEST PUSH3 0x4D37 SWAP2 SWAP1 PUSH3 0x8567 JUMP JUMPDEST SWAP5 POP POP POP POP POP JUMPDEST SWAP3 SWAP2 POP POP JUMP JUMPDEST PUSH1 0x0 PUSH1 0x15 PUSH1 0x0 SWAP1 SLOAD SWAP1 PUSH2 0x100 EXP SWAP1 DIV PUSH20 0xFFFFFFFFFFFFFFFFFFFFFFFFFFFFFFFFFFFFFFFF AND SWAP1 POP DUP2 PUSH1 0x15 PUSH1 0x0 PUSH2 0x100 EXP DUP2 SLOAD DUP2 PUSH20 0xFFFFFFFFFFFFFFFFFFFFFFFFFFFFFFFFFFFFFFFF MUL NOT AND SWAP1 DUP4 PUSH20 0xFFFFFFFFFFFFFFFFFFFFFFFFFFFFFFFFFFFFFFFF AND MUL OR SWAP1 SSTORE POP DUP2 PUSH20 0xFFFFFFFFFFFFFFFFFFFFFFFFFFFFFFFFFFFFFFFF AND DUP2 PUSH20 0xFFFFFFFFFFFFFFFFFFFFFFFFFFFFFFFFFFFFFFFF AND PUSH32 0x8BE0079C531659141344CD1FD0A4F28419497F9722A3DAAFE3B4186F6B6457E0 PUSH1 0x40 MLOAD PUSH1 0x40 MLOAD DUP1 SWAP2 SUB SWAP1 LOG3 POP POP JUMP JUMPDEST PUSH1 0x0 DUP1 PUSH1 0x2 PUSH1 0x0 DUP7 PUSH20 0xFFFFFFFFFFFFFFFFFFFFFFFFFFFFFFFFFFFFFFFF AND PUSH20 0xFFFFFFFFFFFFFFFFFFFFFFFFFFFFFFFFFFFFFFFF AND DUP2 MSTORE PUSH1 0x20 ADD SWAP1 DUP2 MSTORE PUSH1 0x20 ADD PUSH1 0x0 KECCAK256 SLOAD SWAP1 POP PUSH1 0x0 PUSH1 0x1 DUP3 DUP2 SLOAD DUP2 LT PUSH3 0x4E68 JUMPI PUSH3 0x4E67 PUSH3 0x85C4 JUMP JUMPDEST JUMPDEST SWAP1 PUSH1 0x0 MSTORE PUSH1 0x20 PUSH1 0x0 KECCAK256 SWAP1 PUSH1 0x2 MUL ADD SWAP1 POP PUSH1 0x0 PUSH3 0x4EAA DUP8 DUP4 PUSH1 0x0 ADD PUSH1 0x0 SWAP1 SLOAD SWAP1 PUSH2 0x100 EXP SWAP1 DIV PUSH20 0xFFFFFFFFFFFFFFFFFFFFFFFFFFFFFFFFFFFFFFFF AND PUSH3 0x4394 JUMP JUMPDEST SWAP1 POP PUSH1 0x0 PUSH1 0x11 PUSH1 0x0 DUP6 DUP2 MSTORE PUSH1 0x20 ADD SWAP1 DUP2 MSTORE PUSH1 0x20 ADD PUSH1 0x0 KECCAK256 SLOAD SWAP1 POP PUSH1 0x0 DUP2 DUP9 DUP5 PUSH1 0x0 ADD MLOAD PUSH3 0x4ED9 SWAP2 SWAP1 PUSH3 0x7FF9 JUMP JUMPDEST PUSH3 0x4EE5 SWAP2 SWAP1 PUSH3 0x87B3 JUMP JUMPDEST SWAP1 POP PUSH1 0x0 DUP3 DUP10 DUP6 PUSH1 0x20 ADD MLOAD PUSH3 0x4EFC SWAP2 SWAP1 PUSH3 0x7FF9 JUMP JUMPDEST PUSH3 0x4F08 SWAP2 SWAP1 PUSH3 0x87B3 JUMP JUMPDEST SWAP1 POP PUSH1 0x0 PUSH3 0x4F2C DUP6 PUSH1 0x20 ADD MLOAD DUP7 PUSH1 0x0 ADD MLOAD PUSH3 0x4F26 SWAP2 SWAP1 PUSH3 0x7FF9 JUMP JUMPDEST PUSH3 0x4665 JUMP JUMPDEST SWAP1 POP PUSH1 0x0 PUSH3 0x4F6F DUP8 PUSH1 0x1 ADD PUSH1 0x0 SWAP1 SLOAD SWAP1 PUSH2 0x100 EXP SWAP1 DIV PUSH16 0xFFFFFFFFFFFFFFFFFFFFFFFFFFFFFFFF AND PUSH16 0xFFFFFFFFFFFFFFFFFFFFFFFFFFFFFFFF AND DUP4 DUP8 PUSH3 0x46EE JUMP JUMPDEST SWAP1 POP PUSH3 0x4FB3 PUSH1 0x7 PUSH1 0x0 ADD PUSH1 0x0 SWAP1 SLOAD SWAP1 PUSH2 0x100 EXP SWAP1 DIV PUSH20 0xFFFFFFFFFFFFFFFFFFFFFFFFFFFFFFFFFFFFFFFF AND DUP10 DUP4 PUSH1 0x40 MLOAD DUP1 PUSH1 0x20 ADD PUSH1 0x40 MSTORE DUP1 PUSH1 0x0 DUP2 MSTORE POP PUSH3 0x4797 JUMP JUMPDEST PUSH1 0x0 PUSH1 0x40 MLOAD DUP1 PUSH1 0x40 ADD PUSH1 0x40 MSTORE DUP1 DUP7 DUP10 PUSH1 0x0 ADD MLOAD PUSH3 0x4FD2 SWAP2 SWAP1 PUSH3 0x86D7 JUMP JUMPDEST DUP2 MSTORE PUSH1 0x20 ADD DUP6 DUP10 PUSH1 0x20 ADD MLOAD PUSH3 0x4FE9 SWAP2 SWAP1 PUSH3 0x86D7 JUMP JUMPDEST DUP2 MSTORE POP SWAP1 POP PUSH3 0x500E DUP2 PUSH1 0x20 ADD MLOAD DUP3 PUSH1 0x0 ADD MLOAD PUSH3 0x5008 SWAP2 SWAP1 PUSH3 0x7FF9 JUMP JUMPDEST PUSH3 0x4665 JUMP JUMPDEST DUP9 PUSH1 0x1 ADD PUSH1 0x0 PUSH2 0x100 EXP DUP2 SLOAD DUP2 PUSH16 0xFFFFFFFFFFFFFFFFFFFFFFFFFFFFFFFF MUL NOT AND SWAP1 DUP4 PUSH16 0xFFFFFFFFFFFFFFFFFFFFFFFFFFFFFFFF AND MUL OR SWAP1 SSTORE POP PUSH3 0x5055 CALLER DUP11 DUP15 PUSH3 0x6BCC JUMP JUMPDEST PUSH1 0x0 DUP1 SLOAD SWAP1 PUSH2 0x100 EXP SWAP1 DIV PUSH20 0xFFFFFFFFFFFFFFFFFFFFFFFFFFFFFFFFFFFFFFFF AND PUSH20 0xFFFFFFFFFFFFFFFFFFFFFFFFFFFFFFFFFFFFFFFF AND PUSH4 0x18A8AD87 DUP10 PUSH1 0x0 ADD PUSH1 0x0 SWAP1 SLOAD SWAP1 PUSH2 0x100 EXP SWAP1 DIV PUSH20 0xFFFFFFFFFFFFFFFFFFFFFFFFFFFFFFFFFFFFFFFF AND DUP7 PUSH1 0x40 MLOAD DUP4 PUSH4 0xFFFFFFFF AND PUSH1 0xE0 SHL DUP2 MSTORE PUSH1 0x4 ADD PUSH3 0x50D6 SWAP3 SWAP2 SWAP1 PUSH3 0x87EB JUMP JUMPDEST PUSH1 0x0 PUSH1 0x40 MLOAD DUP1 DUP4 SUB DUP2 PUSH1 0x0 DUP8 DUP1 EXTCODESIZE ISZERO DUP1 ISZERO PUSH3 0x50F1 JUMPI PUSH1 0x0 DUP1 REVERT JUMPDEST POP GAS CALL ISZERO DUP1 ISZERO PUSH3 0x5106 JUMPI RETURNDATASIZE PUSH1 0x0 DUP1 RETURNDATACOPY RETURNDATASIZE PUSH1 0x0 REVERT JUMPDEST POP POP POP POP PUSH3 0x513C DUP14 DUP10 PUSH1 0x0 ADD PUSH1 0x0 SWAP1 SLOAD SWAP1 PUSH2 0x100 EXP SWAP1 DIV PUSH20 0xFFFFFFFFFFFFFFFFFFFFFFFFFFFFFFFFFFFFFFFF AND DUP14 DUP9 PUSH3 0x43F1 JUMP JUMPDEST PUSH32 0x1DC8BB69DF2B8E91FBDCBFCF93D951B3F0000F085A95FE3F7946D6161439245D DUP14 DUP7 DUP7 DUP16 PUSH1 0x40 MLOAD PUSH3 0x5173 SWAP5 SWAP4 SWAP3 SWAP2 SWAP1 PUSH3 0x8818 JUMP JUMPDEST PUSH1 0x40 MLOAD DUP1 SWAP2 SUB SWAP1 LOG1 PUSH32 0x51AB1232A73B82B6B0ACB0FA91B834CF6E258A1858C4E23C72CE97241C71AA0D DUP14 DUP3 PUSH1 0x0 ADD MLOAD DUP4 PUSH1 0x20 ADD MLOAD DUP12 PUSH1 0x1 ADD PUSH1 0x10 SWAP1 SLOAD SWAP1 PUSH2 0x100 EXP SWAP1 DIV PUSH16 0xFFFFFFFFFFFFFFFFFFFFFFFFFFFFFFFF AND PUSH1 0x40 MLOAD PUSH3 0x51DA SWAP5 SWAP4 SWAP3 SWAP2 SWAP1 PUSH3 0x889E JUMP JUMPDEST PUSH1 0x40 MLOAD DUP1 SWAP2 SUB SWAP1 LOG1 DUP5 SWAP10 POP POP POP POP POP POP POP POP POP POP SWAP4 SWAP3 POP POP POP JUMP JUMPDEST DUP5 PUSH1 0x0 PUSH1 0x2 PUSH1 0x0 DUP4 PUSH20 0xFFFFFFFFFFFFFFFFFFFFFFFFFFFFFFFFFFFFFFFF AND PUSH20 0xFFFFFFFFFFFFFFFFFFFFFFFFFFFFFFFFFFFFFFFF AND DUP2 MSTORE PUSH1 0x20 ADD SWAP1 DUP2 MSTORE PUSH1 0x20 ADD PUSH1 0x0 KECCAK256 SLOAD GT ISZERO PUSH3 0x5271 JUMPI PUSH1 0x40 MLOAD PUSH32 0x402670DF00000000000000000000000000000000000000000000000000000000 DUP2 MSTORE PUSH1 0x4 ADD PUSH1 0x40 MLOAD DUP1 SWAP2 SUB SWAP1 REVERT JUMPDEST PUSH1 0x0 DUP7 PUSH1 0x0 DUP1 SLOAD SWAP1 PUSH2 0x100 EXP SWAP1 DIV PUSH20 0xFFFFFFFFFFFFFFFFFFFFFFFFFFFFFFFFFFFFFFFF AND PUSH1 0x6 PUSH1 0x0 SWAP1 SLOAD SWAP1 PUSH2 0x100 EXP SWAP1 DIV PUSH20 0xFFFFFFFFFFFFFFFFFFFFFFFFFFFFFFFFFFFFFFFF AND PUSH20 0xFFFFFFFFFFFFFFFFFFFFFFFFFFFFFFFFFFFFFFFF AND DUP10 PUSH20 0xFFFFFFFFFFFFFFFFFFFFFFFFFFFFFFFFFFFFFFFF AND EQ PUSH1 0x40 MLOAD PUSH3 0x52F4 SWAP1 PUSH3 0x6FCE JUMP JUMPDEST PUSH3 0x5302 SWAP4 SWAP3 SWAP2 SWAP1 PUSH3 0x8DCB JUMP JUMPDEST PUSH1 0x40 MLOAD DUP1 SWAP2 SUB SWAP1 PUSH1 0x0 CREATE DUP1 ISZERO DUP1 ISZERO PUSH3 0x531F JUMPI RETURNDATASIZE PUSH1 0x0 DUP1 RETURNDATACOPY RETURNDATASIZE PUSH1 0x0 REVERT JUMPDEST POP SWAP1 POP PUSH3 0x5330 DUP8 CALLER DUP4 DUP10 PUSH3 0x43F1 JUMP JUMPDEST PUSH1 0x0 DUP1 SLOAD SWAP1 PUSH2 0x100 EXP SWAP1 DIV PUSH20 0xFFFFFFFFFFFFFFFFFFFFFFFFFFFFFFFFFFFFFFFF AND PUSH20 0xFFFFFFFFFFFFFFFFFFFFFFFFFFFFFFFFFFFFFFFF AND PUSH4 0xBB9FF5D DUP3 DUP8 PUSH1 0x40 MLOAD DUP4 PUSH4 0xFFFFFFFF AND PUSH1 0xE0 SHL DUP2 MSTORE PUSH1 0x4 ADD PUSH3 0x538D SWAP3 SWAP2 SWAP1 PUSH3 0x87EB JUMP JUMPDEST PUSH1 0x0 PUSH1 0x40 MLOAD DUP1 DUP4 SUB DUP2 PUSH1 0x0 DUP8 DUP1 EXTCODESIZE ISZERO DUP1 ISZERO PUSH3 0x53A8 JUMPI PUSH1 0x0 DUP1 REVERT JUMPDEST POP GAS CALL ISZERO DUP1 ISZERO PUSH3 0x53BD JUMPI RETURNDATASIZE PUSH1 0x0 DUP1 RETURNDATACOPY RETURNDATASIZE PUSH1 0x0 REVERT JUMPDEST POP POP POP POP PUSH3 0x53CD DUP8 DUP3 PUSH3 0x66C2 JUMP JUMPDEST SWAP6 POP PUSH1 0x1 DUP7 GT PUSH3 0x5415 JUMPI PUSH1 0x40 MLOAD PUSH32 0x8C379A000000000000000000000000000000000000000000000000000000000 DUP2 MSTORE PUSH1 0x4 ADD PUSH3 0x540C SWAP1 PUSH3 0x8762 JUMP JUMPDEST PUSH1 0x40 MLOAD DUP1 SWAP2 SUB SWAP1 REVERT JUMPDEST PUSH1 0x0 PUSH3 0x542F DUP7 DUP9 PUSH3 0x5429 SWAP2 SWAP1 PUSH3 0x7FF9 JUMP JUMPDEST PUSH3 0x4665 JUMP JUMPDEST SWAP1 POP PUSH1 0x0 PUSH1 0x40 MLOAD DUP1 PUSH1 0x60 ADD PUSH1 0x40 MSTORE DUP1 DUP5 PUSH20 0xFFFFFFFFFFFFFFFFFFFFFFFFFFFFFFFFFFFFFFFF AND DUP2 MSTORE PUSH1 0x20 ADD DUP4 PUSH16 0xFFFFFFFFFFFFFFFFFFFFFFFFFFFFFFFF AND DUP2 MSTORE PUSH1 0x20 ADD DUP8 PUSH16 0xFFFFFFFFFFFFFFFFFFFFFFFFFFFFFFFF AND DUP2 MSTORE POP SWAP1 POP PUSH1 0x0 PUSH1 0x1 DUP1 SLOAD SWAP1 POP SWAP1 POP PUSH1 0x1 DUP3 SWAP1 DUP1 PUSH1 0x1 DUP2 SLOAD ADD DUP1 DUP3 SSTORE DUP1 SWAP2 POP POP PUSH1 0x1 SWAP1 SUB SWAP1 PUSH1 0x0 MSTORE PUSH1 0x20 PUSH1 0x0 KECCAK256 SWAP1 PUSH1 0x2 MUL ADD PUSH1 0x0 SWAP1 SWAP2 SWAP1 SWAP2 SWAP1 SWAP2 POP PUSH1 0x0 DUP3 ADD MLOAD DUP2 PUSH1 0x0 ADD PUSH1 0x0 PUSH2 0x100 EXP DUP2 SLOAD DUP2 PUSH20 0xFFFFFFFFFFFFFFFFFFFFFFFFFFFFFFFFFFFFFFFF MUL NOT AND SWAP1 DUP4 PUSH20 0xFFFFFFFFFFFFFFFFFFFFFFFFFFFFFFFFFFFFFFFF AND MUL OR SWAP1 SSTORE POP PUSH1 0x20 DUP3 ADD MLOAD DUP2 PUSH1 0x1 ADD PUSH1 0x0 PUSH2 0x100 EXP DUP2 SLOAD DUP2 PUSH16 0xFFFFFFFFFFFFFFFFFFFFFFFFFFFFFFFF MUL NOT AND SWAP1 DUP4 PUSH16 0xFFFFFFFFFFFFFFFFFFFFFFFFFFFFFFFF AND MUL OR SWAP1 SSTORE POP PUSH1 0x40 DUP3 ADD MLOAD DUP2 PUSH1 0x1 ADD PUSH1 0x10 PUSH2 0x100 EXP DUP2 SLOAD DUP2 PUSH16 0xFFFFFFFFFFFFFFFFFFFFFFFFFFFFFFFF MUL NOT AND SWAP1 DUP4 PUSH16 0xFFFFFFFFFFFFFFFFFFFFFFFFFFFFFFFF AND MUL OR SWAP1 SSTORE POP POP POP DUP1 PUSH1 0x2 PUSH1 0x0 DUP13 PUSH20 0xFFFFFFFFFFFFFFFFFFFFFFFFFFFFFFFFFFFFFFFF AND PUSH20 0xFFFFFFFFFFFFFFFFFFFFFFFFFFFFFFFFFFFFFFFF AND DUP2 MSTORE PUSH1 0x20 ADD SWAP1 DUP2 MSTORE PUSH1 0x20 ADD PUSH1 0x0 KECCAK256 DUP2 SWAP1 SSTORE POP PUSH3 0x55EC PUSH2 0xDEAD DUP3 PUSH2 0x3E8 PUSH1 0x40 MLOAD DUP1 PUSH1 0x20 ADD PUSH1 0x40 MSTORE DUP1 PUSH1 0x0 DUP2 MSTORE POP PUSH3 0x4797 JUMP JUMPDEST PUSH1 0x0 PUSH2 0x3E8 DUP5 PUSH3 0x55FE SWAP2 SWAP1 PUSH3 0x86D7 JUMP JUMPDEST SWAP1 POP PUSH3 0x561D DUP8 DUP4 DUP4 PUSH1 0x40 MLOAD DUP1 PUSH1 0x20 ADD PUSH1 0x40 MSTORE DUP1 PUSH1 0x0 DUP2 MSTORE POP PUSH3 0x4797 JUMP JUMPDEST PUSH32 0x641E49906554552C8C33D7E09E02D1270590F405BC1DA0C7B99A9C2808ABDD05 DUP12 DUP4 PUSH1 0x40 MLOAD PUSH3 0x5650 SWAP3 SWAP2 SWAP1 PUSH3 0x87EB JUMP JUMPDEST PUSH1 0x40 MLOAD DUP1 SWAP2 SUB SWAP1 LOG1 PUSH32 0x64B83944E79C3CE8D4C297411DE637C3E102D064677AAC0C163976EBDCD6F50E DUP12 DUP12 DUP12 DUP5 PUSH1 0x40 MLOAD PUSH3 0x568F SWAP5 SWAP4 SWAP3 SWAP2 SWAP1 PUSH3 0x8818 JUMP JUMPDEST PUSH1 0x40 MLOAD DUP1 SWAP2 SUB SWAP1 LOG1 PUSH32 0x51AB1232A73B82B6B0ACB0FA91B834CF6E258A1858C4E23C72CE97241C71AA0D DUP12 DUP12 DUP12 DUP12 PUSH1 0x40 MLOAD PUSH3 0x56CE SWAP5 SWAP4 SWAP3 SWAP2 SWAP1 PUSH3 0x8818 JUMP JUMPDEST PUSH1 0x40 MLOAD DUP1 SWAP2 SUB SWAP1 LOG1 POP POP POP POP POP POP POP POP POP POP POP JUMP JUMPDEST DUP2 PUSH20 0xFFFFFFFFFFFFFFFFFFFFFFFFFFFFFFFFFFFFFFFF AND DUP4 PUSH20 0xFFFFFFFFFFFFFFFFFFFFFFFFFFFFFFFFFFFFFFFF AND EQ ISZERO PUSH3 0x574A JUMPI PUSH1 0x40 MLOAD PUSH32 0xC0532DC800000000000000000000000000000000000000000000000000000000 DUP2 MSTORE PUSH1 0x4 ADD PUSH1 0x40 MLOAD DUP1 SWAP2 SUB SWAP1 REVERT JUMPDEST DUP1 PUSH1 0xF PUSH1 0x0 DUP6 PUSH20 0xFFFFFFFFFFFFFFFFFFFFFFFFFFFFFFFFFFFFFFFF AND PUSH20 0xFFFFFFFFFFFFFFFFFFFFFFFFFFFFFFFFFFFFFFFF AND DUP2 MSTORE PUSH1 0x20 ADD SWAP1 DUP2 MSTORE PUSH1 0x20 ADD PUSH1 0x0 KECCAK256 PUSH1 0x0 DUP5 PUSH20 0xFFFFFFFFFFFFFFFFFFFFFFFFFFFFFFFFFFFFFFFF AND PUSH20 0xFFFFFFFFFFFFFFFFFFFFFFFFFFFFFFFFFFFFFFFF AND DUP2 MSTORE PUSH1 0x20 ADD SWAP1 DUP2 MSTORE PUSH1 0x20 ADD PUSH1 0x0 KECCAK256 PUSH1 0x0 PUSH2 0x100 EXP DUP2 SLOAD DUP2 PUSH1 0xFF MUL NOT AND SWAP1 DUP4 ISZERO ISZERO MUL OR SWAP1 SSTORE POP DUP2 PUSH20 0xFFFFFFFFFFFFFFFFFFFFFFFFFFFFFFFFFFFFFFFF AND DUP4 PUSH20 0xFFFFFFFFFFFFFFFFFFFFFFFFFFFFFFFFFFFFFFFF AND PUSH32 0x17307EAB39AB6107E8899845AD3D59BD9653F200F220920489CA2B5937696C31 DUP4 PUSH1 0x40 MLOAD PUSH3 0x583D SWAP2 SWAP1 PUSH3 0x7229 JUMP JUMPDEST PUSH1 0x40 MLOAD DUP1 SWAP2 SUB SWAP1 LOG3 POP POP POP JUMP JUMPDEST DUP5 PUSH1 0x0 PUSH1 0x2 PUSH1 0x0 DUP4 PUSH20 0xFFFFFFFFFFFFFFFFFFFFFFFFFFFFFFFFFFFFFFFF AND PUSH20 0xFFFFFFFFFFFFFFFFFFFFFFFFFFFFFFFFFFFFFFFF AND DUP2 MSTORE PUSH1 0x20 ADD SWAP1 DUP2 MSTORE PUSH1 0x20 ADD PUSH1 0x0 KECCAK256 SLOAD EQ DUP1 PUSH3 0x58E5 JUMPI POP PUSH1 0x0 DUP1 SLOAD SWAP1 PUSH2 0x100 EXP SWAP1 DIV PUSH20 0xFFFFFFFFFFFFFFFFFFFFFFFFFFFFFFFFFFFFFFFF AND PUSH20 0xFFFFFFFFFFFFFFFFFFFFFFFFFFFFFFFFFFFFFFFF AND DUP2 PUSH20 0xFFFFFFFFFFFFFFFFFFFFFFFFFFFFFFFFFFFFFFFF AND EQ JUMPDEST ISZERO PUSH3 0x5928 JUMPI PUSH1 0x40 MLOAD PUSH32 0x8C379A000000000000000000000000000000000000000000000000000000000 DUP2 MSTORE PUSH1 0x4 ADD PUSH3 0x591F SWAP1 PUSH3 0x8643 JUMP JUMPDEST PUSH1 0x40 MLOAD DUP1 SWAP2 SUB SWAP1 REVERT JUMPDEST PUSH1 0x0 PUSH1 0x1 PUSH1 0x2 PUSH1 0x0 DUP10 PUSH20 0xFFFFFFFFFFFFFFFFFFFFFFFFFFFFFFFFFFFFFFFF AND PUSH20 0xFFFFFFFFFFFFFFFFFFFFFFFFFFFFFFFFFFFFFFFF AND DUP2 MSTORE PUSH1 0x20 ADD SWAP1 DUP2 MSTORE PUSH1 0x20 ADD PUSH1 0x0 KECCAK256 SLOAD DUP2 SLOAD DUP2 LT PUSH3 0x5980 JUMPI PUSH3 0x597F PUSH3 0x85C4 JUMP JUMPDEST JUMPDEST SWAP1 PUSH1 0x0 MSTORE PUSH1 0x20 PUSH1 0x0 KECCAK256 SWAP1 PUSH1 0x2 MUL ADD SWAP1 POP PUSH1 0x0 PUSH3 0x59C2 DUP9 DUP4 PUSH1 0x0 ADD PUSH1 0x0 SWAP1 SLOAD SWAP1 PUSH2 0x100 EXP SWAP1 DIV PUSH20 0xFFFFFFFFFFFFFFFFFFFFFFFFFFFFFFFFFFFFFFFF AND PUSH3 0x4394 JUMP JUMPDEST SWAP1 POP PUSH1 0x0 DUP8 PUSH1 0x20 ADD MLOAD DUP3 PUSH1 0x20 ADD MLOAD PUSH3 0x59DC SWAP2 SWAP1 PUSH3 0x86D7 JUMP JUMPDEST SWAP1 POP PUSH1 0x0 DUP9 PUSH1 0x0 ADD MLOAD DUP4 PUSH1 0x0 ADD MLOAD PUSH3 0x59F6 SWAP2 SWAP1 PUSH3 0x86D7 JUMP JUMPDEST SWAP1 POP PUSH1 0x1 DUP3 DUP3 PUSH3 0x5A08 SWAP2 SWAP1 PUSH3 0x8567 JUMP JUMPDEST GT PUSH3 0x5A4B JUMPI PUSH1 0x40 MLOAD PUSH32 0x8C379A000000000000000000000000000000000000000000000000000000000 DUP2 MSTORE PUSH1 0x4 ADD PUSH3 0x5A42 SWAP1 PUSH3 0x8E58 JUMP JUMPDEST PUSH1 0x40 MLOAD DUP1 SWAP2 SUB SWAP1 REVERT JUMPDEST PUSH16 0xFFFFFFFFFFFFFFFFFFFFFFFFFFFFFFFF DUP1 AND DUP5 PUSH1 0x1 ADD PUSH1 0x10 SWAP1 SLOAD SWAP1 PUSH2 0x100 EXP SWAP1 DIV PUSH16 0xFFFFFFFFFFFFFFFFFFFFFFFFFFFFFFFF AND PUSH16 0xFFFFFFFFFFFFFFFFFFFFFFFFFFFFFFFF AND LT DUP1 ISZERO PUSH3 0x5ADD JUMPI POP DUP7 DUP3 DUP6 PUSH1 0x1 ADD PUSH1 0x10 SWAP1 SLOAD SWAP1 PUSH2 0x100 EXP SWAP1 DIV PUSH16 0xFFFFFFFFFFFFFFFFFFFFFFFFFFFFFFFF AND PUSH16 0xFFFFFFFFFFFFFFFFFFFFFFFFFFFFFFFF AND PUSH3 0x5ADB SWAP2 SWAP1 PUSH3 0x8567 JUMP JUMPDEST LT JUMPDEST ISZERO PUSH3 0x5B20 JUMPI PUSH1 0x40 MLOAD PUSH32 0x8C379A000000000000000000000000000000000000000000000000000000000 DUP2 MSTORE PUSH1 0x4 ADD PUSH3 0x5B17 SWAP1 PUSH3 0x8ECA JUMP JUMPDEST PUSH1 0x40 MLOAD DUP1 SWAP2 SUB SWAP1 REVERT JUMPDEST PUSH1 0x0 PUSH3 0x5B2C PUSH3 0x6BB5 JUMP JUMPDEST SWAP1 POP PUSH1 0x0 PUSH2 0x2710 SWAP1 POP PUSH1 0x0 DUP10 GT ISZERO PUSH3 0x5C9D JUMPI PUSH1 0x0 PUSH1 0x3 PUSH1 0x0 DUP15 PUSH20 0xFFFFFFFFFFFFFFFFFFFFFFFFFFFFFFFFFFFFFFFF AND PUSH20 0xFFFFFFFFFFFFFFFFFFFFFFFFFFFFFFFFFFFFFFFF AND DUP2 MSTORE PUSH1 0x20 ADD SWAP1 DUP2 MSTORE PUSH1 0x20 ADD PUSH1 0x0 KECCAK256 PUSH1 0x0 DUP5 DUP2 MSTORE PUSH1 0x20 ADD SWAP1 DUP2 MSTORE PUSH1 0x20 ADD PUSH1 0x0 KECCAK256 PUSH1 0x0 ADD PUSH1 0x0 SWAP1 SLOAD SWAP1 PUSH2 0x100 EXP SWAP1 DIV PUSH2 0xFFFF AND PUSH2 0xFFFF AND EQ DUP1 PUSH3 0x5BB4 JUMPI POP PUSH1 0x0 GASPRICE EQ JUMPDEST ISZERO PUSH3 0x5C34 JUMPI PUSH3 0x5BC6 DUP13 DUP13 PUSH3 0x4B45 JUMP JUMPDEST PUSH1 0x3 PUSH1 0x0 DUP15 PUSH20 0xFFFFFFFFFFFFFFFFFFFFFFFFFFFFFFFFFFFFFFFF AND PUSH20 0xFFFFFFFFFFFFFFFFFFFFFFFFFFFFFFFFFFFFFFFF AND DUP2 MSTORE PUSH1 0x20 ADD SWAP1 DUP2 MSTORE PUSH1 0x20 ADD PUSH1 0x0 KECCAK256 PUSH1 0x0 DUP5 DUP2 MSTORE PUSH1 0x20 ADD SWAP1 DUP2 MSTORE PUSH1 0x20 ADD PUSH1 0x0 KECCAK256 PUSH1 0x0 ADD PUSH1 0x0 PUSH2 0x100 EXP DUP2 SLOAD DUP2 PUSH2 0xFFFF MUL NOT AND SWAP1 DUP4 PUSH2 0xFFFF AND MUL OR SWAP1 SSTORE POP JUMPDEST PUSH1 0x3 PUSH1 0x0 DUP14 PUSH20 0xFFFFFFFFFFFFFFFFFFFFFFFFFFFFFFFFFFFFFFFF AND PUSH20 0xFFFFFFFFFFFFFFFFFFFFFFFFFFFFFFFFFFFFFFFF AND DUP2 MSTORE PUSH1 0x20 ADD SWAP1 DUP2 MSTORE PUSH1 0x20 ADD PUSH1 0x0 KECCAK256 PUSH1 0x0 DUP4 DUP2 MSTORE PUSH1 0x20 ADD SWAP1 DUP2 MSTORE PUSH1 0x20 ADD PUSH1 0x0 KECCAK256 PUSH1 0x0 ADD PUSH1 0x0 SWAP1 SLOAD SWAP1 PUSH2 0x100 EXP SWAP1 DIV PUSH2 0xFFFF AND PUSH2 0xFFFF AND SWAP1 POP JUMPDEST PUSH1 0x0 DUP2 PUSH2 0x2710 PUSH3 0x5CAF SWAP2 SWAP1 PUSH3 0x86D7 JUMP JUMPDEST DUP5 PUSH3 0x5CBC SWAP2 SWAP1 PUSH3 0x7FF9 JUMP JUMPDEST PUSH2 0x2710 DUP8 PUSH1 0x0 ADD MLOAD PUSH3 0x5CD0 SWAP2 SWAP1 PUSH3 0x7FF9 JUMP JUMPDEST PUSH3 0x5CDC SWAP2 SWAP1 PUSH3 0x86D7 JUMP JUMPDEST DUP3 PUSH2 0x2710 PUSH3 0x5CEC SWAP2 SWAP1 PUSH3 0x86D7 JUMP JUMPDEST DUP7 PUSH3 0x5CF9 SWAP2 SWAP1 PUSH3 0x7FF9 JUMP JUMPDEST PUSH2 0x2710 DUP9 PUSH1 0x20 ADD MLOAD PUSH3 0x5D0D SWAP2 SWAP1 PUSH3 0x7FF9 JUMP JUMPDEST PUSH3 0x5D19 SWAP2 SWAP1 PUSH3 0x86D7 JUMP JUMPDEST PUSH3 0x5D25 SWAP2 SWAP1 PUSH3 0x7FF9 JUMP JUMPDEST SWAP1 POP PUSH2 0x2710 DUP1 PUSH3 0x5D37 SWAP2 SWAP1 PUSH3 0x7FF9 JUMP JUMPDEST DUP13 PUSH1 0x20 ADD MLOAD DUP14 PUSH1 0x0 ADD MLOAD PUSH3 0x5D4D SWAP2 SWAP1 PUSH3 0x7FF9 JUMP JUMPDEST PUSH3 0x5D59 SWAP2 SWAP1 PUSH3 0x7FF9 JUMP JUMPDEST DUP2 LT ISZERO PUSH3 0x5D9E JUMPI PUSH1 0x40 MLOAD PUSH32 0x8C379A000000000000000000000000000000000000000000000000000000000 DUP2 MSTORE PUSH1 0x4 ADD PUSH3 0x5D95 SWAP1 PUSH3 0x8F3C JUMP JUMPDEST PUSH1 0x40 MLOAD DUP1 SWAP2 SUB SWAP1 REVERT JUMPDEST PUSH16 0xFFFFFFFFFFFFFFFFFFFFFFFFFFFFFFFF DUP1 AND DUP8 PUSH1 0x1 ADD PUSH1 0x10 SWAP1 SLOAD SWAP1 PUSH2 0x100 EXP SWAP1 DIV PUSH16 0xFFFFFFFFFFFFFFFFFFFFFFFFFFFFFFFF AND PUSH16 0xFFFFFFFFFFFFFFFFFFFFFFFFFFFFFFFF AND LT ISZERO PUSH3 0x5E73 JUMPI DUP10 DUP6 DUP9 PUSH1 0x1 ADD PUSH1 0x10 SWAP1 SLOAD SWAP1 PUSH2 0x100 EXP SWAP1 DIV PUSH16 0xFFFFFFFFFFFFFFFFFFFFFFFFFFFFFFFF AND PUSH16 0xFFFFFFFFFFFFFFFFFFFFFFFFFFFFFFFF AND PUSH3 0x5E2C SWAP2 SWAP1 PUSH3 0x8567 JUMP JUMPDEST PUSH3 0x5E38 SWAP2 SWAP1 PUSH3 0x86D7 JUMP JUMPDEST DUP8 PUSH1 0x1 ADD PUSH1 0x10 PUSH2 0x100 EXP DUP2 SLOAD DUP2 PUSH16 0xFFFFFFFFFFFFFFFFFFFFFFFFFFFFFFFF MUL NOT AND SWAP1 DUP4 PUSH16 0xFFFFFFFFFFFFFFFFFFFFFFFFFFFFFFFF AND MUL OR SWAP1 SSTORE POP JUMPDEST PUSH1 0x1 DUP11 GT ISZERO PUSH3 0x5F34 JUMPI DUP10 PUSH1 0x3 PUSH1 0x0 DUP16 PUSH20 0xFFFFFFFFFFFFFFFFFFFFFFFFFFFFFFFFFFFFFFFF AND PUSH20 0xFFFFFFFFFFFFFFFFFFFFFFFFFFFFFFFFFFFFFFFF AND DUP2 MSTORE PUSH1 0x20 ADD SWAP1 DUP2 MSTORE PUSH1 0x20 ADD PUSH1 0x0 KECCAK256 PUSH1 0x0 DUP6 DUP2 MSTORE PUSH1 0x20 ADD SWAP1 DUP2 MSTORE PUSH1 0x20 ADD PUSH1 0x0 KECCAK256 PUSH1 0x0 ADD PUSH1 0x2 DUP3 DUP3 DUP3 SWAP1 SLOAD SWAP1 PUSH2 0x100 EXP SWAP1 DIV PUSH16 0xFFFFFFFFFFFFFFFFFFFFFFFFFFFFFFFF AND PUSH3 0x5EFD SWAP2 SWAP1 PUSH3 0x88EB JUMP JUMPDEST SWAP3 POP PUSH2 0x100 EXP DUP2 SLOAD DUP2 PUSH16 0xFFFFFFFFFFFFFFFFFFFFFFFFFFFFFFFF MUL NOT AND SWAP1 DUP4 PUSH16 0xFFFFFFFFFFFFFFFFFFFFFFFFFFFFFFFF AND MUL OR SWAP1 SSTORE POP JUMPDEST POP PUSH3 0x5F67 DUP13 DUP8 PUSH1 0x0 ADD PUSH1 0x0 SWAP1 SLOAD SWAP1 PUSH2 0x100 EXP SWAP1 DIV PUSH20 0xFFFFFFFFFFFFFFFFFFFFFFFFFFFFFFFFFFFFFFFF AND DUP11 DUP14 PUSH3 0x43F1 JUMP JUMPDEST PUSH3 0x5FB9 PUSH1 0x0 DUP1 SLOAD SWAP1 PUSH2 0x100 EXP SWAP1 DIV PUSH20 0xFFFFFFFFFFFFFFFFFFFFFFFFFFFFFFFFFFFFFFFF AND DUP8 PUSH1 0x0 ADD PUSH1 0x0 SWAP1 SLOAD SWAP1 PUSH2 0x100 EXP SWAP1 DIV PUSH20 0xFFFFFFFFFFFFFFFFFFFFFFFFFFFFFFFFFFFFFFFF AND DUP11 DUP13 PUSH3 0x43F1 JUMP JUMPDEST PUSH32 0x4AB7F3F4678BF8F6CBE4D85E4007B7C64DF8E1D5D97DE1628F4A6416F9D1DB03 DUP13 CALLER DUP6 DUP8 DUP15 DUP15 DUP8 PUSH2 0x2710 PUSH3 0x5FF0 SWAP2 SWAP1 PUSH3 0x86D7 JUMP JUMPDEST DUP16 PUSH1 0x40 MLOAD PUSH3 0x6007 SWAP9 SWAP8 SWAP7 SWAP6 SWAP5 SWAP4 SWAP3 SWAP2 SWAP1 PUSH3 0x8F5E JUMP JUMPDEST PUSH1 0x40 MLOAD DUP1 SWAP2 SUB SWAP1 LOG1 PUSH32 0x51AB1232A73B82B6B0ACB0FA91B834CF6E258A1858C4E23C72CE97241C71AA0D DUP13 DUP7 PUSH1 0x0 ADD MLOAD DUP8 PUSH1 0x20 ADD MLOAD DUP10 PUSH1 0x1 ADD PUSH1 0x10 SWAP1 SLOAD SWAP1 PUSH2 0x100 EXP SWAP1 DIV PUSH16 0xFFFFFFFFFFFFFFFFFFFFFFFFFFFFFFFF AND PUSH1 0x40 MLOAD PUSH3 0x606E SWAP5 SWAP4 SWAP3 SWAP2 SWAP1 PUSH3 0x889E JUMP JUMPDEST PUSH1 0x40 MLOAD DUP1 SWAP2 SUB SWAP1 LOG1 POP POP POP POP POP POP POP POP POP POP POP POP JUMP JUMPDEST DUP1 PUSH1 0x10 SWAP1 DUP1 MLOAD SWAP1 PUSH1 0x20 ADD SWAP1 PUSH3 0x609C SWAP3 SWAP2 SWAP1 PUSH3 0x6E59 JUMP JUMPDEST POP POP JUMP JUMPDEST PUSH1 0x0 DUP3 PUSH1 0x0 PUSH1 0x2 PUSH1 0x0 DUP4 PUSH20 0xFFFFFFFFFFFFFFFFFFFFFFFFFFFFFFFFFFFFFFFF AND PUSH20 0xFFFFFFFFFFFFFFFFFFFFFFFFFFFFFFFFFFFFFFFF AND DUP2 MSTORE PUSH1 0x20 ADD SWAP1 DUP2 MSTORE PUSH1 0x20 ADD PUSH1 0x0 KECCAK256 SLOAD EQ DUP1 PUSH3 0x613D JUMPI POP PUSH1 0x0 DUP1 SLOAD SWAP1 PUSH2 0x100 EXP SWAP1 DIV PUSH20 0xFFFFFFFFFFFFFFFFFFFFFFFFFFFFFFFFFFFFFFFF AND PUSH20 0xFFFFFFFFFFFFFFFFFFFFFFFFFFFFFFFFFFFFFFFF AND DUP2 PUSH20 0xFFFFFFFFFFFFFFFFFFFFFFFFFFFFFFFFFFFFFFFF AND EQ JUMPDEST ISZERO PUSH3 0x6180 JUMPI PUSH1 0x40 MLOAD PUSH32 0x8C379A000000000000000000000000000000000000000000000000000000000 DUP2 MSTORE PUSH1 0x4 ADD PUSH3 0x6177 SWAP1 PUSH3 0x8643 JUMP JUMPDEST PUSH1 0x40 MLOAD DUP1 SWAP2 SUB SWAP1 REVERT JUMPDEST PUSH3 0x61A1 DUP4 DUP7 PUSH1 0x0 ADD MLOAD DUP8 PUSH1 0x20 ADD MLOAD PUSH3 0x619B DUP9 DUP11 PUSH3 0x4B45 JUMP JUMPDEST PUSH3 0x6DC9 JUMP JUMPDEST SWAP2 POP POP SWAP4 SWAP3 POP POP POP JUMP JUMPDEST PUSH1 0x0 DUP3 PUSH1 0x0 PUSH1 0x2 PUSH1 0x0 DUP4 PUSH20 0xFFFFFFFFFFFFFFFFFFFFFFFFFFFFFFFFFFFFFFFF AND PUSH20 0xFFFFFFFFFFFFFFFFFFFFFFFFFFFFFFFFFFFFFFFF AND DUP2 MSTORE PUSH1 0x20 ADD SWAP1 DUP2 MSTORE PUSH1 0x20 ADD PUSH1 0x0 KECCAK256 SLOAD EQ DUP1 PUSH3 0x6248 JUMPI POP PUSH1 0x0 DUP1 SLOAD SWAP1 PUSH2 0x100 EXP SWAP1 DIV PUSH20 0xFFFFFFFFFFFFFFFFFFFFFFFFFFFFFFFFFFFFFFFF AND PUSH20 0xFFFFFFFFFFFFFFFFFFFFFFFFFFFFFFFFFFFFFFFF AND DUP2 PUSH20 0xFFFFFFFFFFFFFFFFFFFFFFFFFFFFFFFFFFFFFFFF AND EQ JUMPDEST ISZERO PUSH3 0x628B JUMPI PUSH1 0x40 MLOAD PUSH32 0x8C379A000000000000000000000000000000000000000000000000000000000 DUP2 MSTORE PUSH1 0x4 ADD PUSH3 0x6282 SWAP1 PUSH3 0x8643 JUMP JUMPDEST PUSH1 0x40 MLOAD DUP1 SWAP2 SUB SWAP1 REVERT JUMPDEST PUSH3 0x62A3 DUP4 DUP7 PUSH1 0x20 ADD MLOAD DUP8 PUSH1 0x0 ADD MLOAD PUSH2 0x2710 PUSH3 0x6DC9 JUMP JUMPDEST SWAP2 POP POP SWAP4 SWAP3 POP POP POP JUMP JUMPDEST PUSH1 0x0 PUSH20 0xFFFFFFFFFFFFFFFFFFFFFFFFFFFFFFFFFFFFFFFF AND DUP6 PUSH20 0xFFFFFFFFFFFFFFFFFFFFFFFFFFFFFFFFFFFFFFFF AND EQ ISZERO PUSH3 0x6315 JUMPI PUSH1 0x40 MLOAD PUSH32 0x3E63C34800000000000000000000000000000000000000000000000000000000 DUP2 MSTORE PUSH1 0x4 ADD PUSH1 0x40 MLOAD DUP1 SWAP2 SUB SWAP1 REVERT JUMPDEST PUSH1 0x0 CALLER SWAP1 POP PUSH1 0x0 PUSH1 0xE PUSH1 0x0 DUP8 DUP2 MSTORE PUSH1 0x20 ADD SWAP1 DUP2 MSTORE PUSH1 0x20 ADD PUSH1 0x0 KECCAK256 PUSH1 0x0 DUP10 PUSH20 0xFFFFFFFFFFFFFFFFFFFFFFFFFFFFFFFFFFFFFFFF AND PUSH20 0xFFFFFFFFFFFFFFFFFFFFFFFFFFFFFFFFFFFFFFFF AND DUP2 MSTORE PUSH1 0x20 ADD SWAP1 DUP2 MSTORE PUSH1 0x20 ADD PUSH1 0x0 KECCAK256 SLOAD SWAP1 POP DUP5 DUP2 LT ISZERO PUSH3 0x63AA JUMPI PUSH1 0x40 MLOAD PUSH32 0x5AD11EC200000000000000000000000000000000000000000000000000000000 DUP2 MSTORE PUSH1 0x4 ADD PUSH1 0x40 MLOAD DUP1 SWAP2 SUB SWAP1 REVERT JUMPDEST DUP5 DUP2 SUB PUSH1 0xE PUSH1 0x0 DUP9 DUP2 MSTORE PUSH1 0x20 ADD SWAP1 DUP2 MSTORE PUSH1 0x20 ADD PUSH1 0x0 KECCAK256 PUSH1 0x0 DUP11 PUSH20 0xFFFFFFFFFFFFFFFFFFFFFFFFFFFFFFFFFFFFFFFF AND PUSH20 0xFFFFFFFFFFFFFFFFFFFFFFFFFFFFFFFFFFFFFFFF AND DUP2 MSTORE PUSH1 0x20 ADD SWAP1 DUP2 MSTORE PUSH1 0x20 ADD PUSH1 0x0 KECCAK256 DUP2 SWAP1 SSTORE POP DUP5 PUSH1 0xE PUSH1 0x0 DUP9 DUP2 MSTORE PUSH1 0x20 ADD SWAP1 DUP2 MSTORE PUSH1 0x20 ADD PUSH1 0x0 KECCAK256 PUSH1 0x0 DUP10 PUSH20 0xFFFFFFFFFFFFFFFFFFFFFFFFFFFFFFFFFFFFFFFF AND PUSH20 0xFFFFFFFFFFFFFFFFFFFFFFFFFFFFFFFFFFFFFFFF AND DUP2 MSTORE PUSH1 0x20 ADD SWAP1 DUP2 MSTORE PUSH1 0x20 ADD PUSH1 0x0 KECCAK256 PUSH1 0x0 DUP3 DUP3 SLOAD PUSH3 0x6463 SWAP2 SWAP1 PUSH3 0x8567 JUMP JUMPDEST SWAP3 POP POP DUP2 SWAP1 SSTORE POP DUP5 PUSH1 0x11 PUSH1 0x0 DUP9 DUP2 MSTORE PUSH1 0x20 ADD SWAP1 DUP2 MSTORE PUSH1 0x20 ADD PUSH1 0x0 KECCAK256 PUSH1 0x0 DUP3 DUP3 SLOAD ADD SWAP3 POP POP DUP2 SWAP1 SSTORE POP DUP7 PUSH20 0xFFFFFFFFFFFFFFFFFFFFFFFFFFFFFFFFFFFFFFFF AND DUP9 PUSH20 0xFFFFFFFFFFFFFFFFFFFFFFFFFFFFFFFFFFFFFFFF AND DUP4 PUSH20 0xFFFFFFFFFFFFFFFFFFFFFFFFFFFFFFFFFFFFFFFF AND PUSH32 0xC3D58168C5AE7397731D063D5BBF3D657854427343F4C083240F7AACAA2D0F62 DUP10 DUP10 PUSH1 0x40 MLOAD PUSH3 0x6503 SWAP3 SWAP2 SWAP1 PUSH3 0x8D9E JUMP JUMPDEST PUSH1 0x40 MLOAD DUP1 SWAP2 SUB SWAP1 LOG4 PUSH3 0x655F DUP3 DUP10 DUP10 DUP10 DUP10 DUP10 DUP10 DUP1 DUP1 PUSH1 0x1F ADD PUSH1 0x20 DUP1 SWAP2 DIV MUL PUSH1 0x20 ADD PUSH1 0x40 MLOAD SWAP1 DUP2 ADD PUSH1 0x40 MSTORE DUP1 SWAP4 SWAP3 SWAP2 SWAP1 DUP2 DUP2 MSTORE PUSH1 0x20 ADD DUP4 DUP4 DUP1 DUP3 DUP5 CALLDATACOPY PUSH1 0x0 DUP2 DUP5 ADD MSTORE PUSH1 0x1F NOT PUSH1 0x1F DUP3 ADD AND SWAP1 POP DUP1 DUP4 ADD SWAP3 POP POP POP POP POP POP POP PUSH3 0x6A07 JUMP JUMPDEST POP POP POP POP POP POP POP POP JUMP JUMPDEST PUSH3 0x6574 DUP7 PUSH3 0x6E2C JUMP JUMPDEST ISZERO PUSH3 0x66B8 JUMPI DUP6 PUSH20 0xFFFFFFFFFFFFFFFFFFFFFFFFFFFFFFFFFFFFFFFF AND PUSH4 0xBC197C81 DUP10 DUP10 DUP9 DUP9 DUP9 DUP9 DUP9 PUSH1 0x40 MLOAD DUP9 PUSH4 0xFFFFFFFF AND PUSH1 0xE0 SHL DUP2 MSTORE PUSH1 0x4 ADD PUSH3 0x65C1 SWAP8 SWAP7 SWAP6 SWAP5 SWAP4 SWAP3 SWAP2 SWAP1 PUSH3 0x9049 JUMP JUMPDEST PUSH1 0x20 PUSH1 0x40 MLOAD DUP1 DUP4 SUB DUP2 PUSH1 0x0 DUP8 GAS CALL SWAP3 POP POP POP DUP1 ISZERO PUSH3 0x6600 JUMPI POP PUSH1 0x40 MLOAD RETURNDATASIZE PUSH1 0x1F NOT PUSH1 0x1F DUP3 ADD AND DUP3 ADD DUP1 PUSH1 0x40 MSTORE POP DUP2 ADD SWAP1 PUSH3 0x65FD SWAP2 SWAP1 PUSH3 0x90D6 JUMP JUMPDEST PUSH1 0x1 JUMPDEST PUSH3 0x6637 JUMPI PUSH1 0x40 MLOAD PUSH32 0x45D406B200000000000000000000000000000000000000000000000000000000 DUP2 MSTORE PUSH1 0x4 ADD PUSH1 0x40 MLOAD DUP1 SWAP2 SUB SWAP1 REVERT JUMPDEST PUSH4 0xBC197C81 PUSH1 0xE0 SHL PUSH28 0xFFFFFFFFFFFFFFFFFFFFFFFFFFFFFFFFFFFFFFFFFFFFFFFFFFFFFFFF NOT AND DUP2 PUSH28 0xFFFFFFFFFFFFFFFFFFFFFFFFFFFFFFFFFFFFFFFFFFFFFFFFFFFFFFFF NOT AND EQ PUSH3 0x66B6 JUMPI PUSH1 0x40 MLOAD PUSH32 0x2BAA526E00000000000000000000000000000000000000000000000000000000 DUP2 MSTORE PUSH1 0x4 ADD PUSH1 0x40 MLOAD DUP1 SWAP2 SUB SWAP1 REVERT JUMPDEST POP JUMPDEST POP POP POP POP POP POP POP POP JUMP JUMPDEST PUSH1 0x0 DUP1 PUSH1 0x6 PUSH1 0x0 SWAP1 SLOAD SWAP1 PUSH2 0x100 EXP SWAP1 DIV PUSH20 0xFFFFFFFFFFFFFFFFFFFFFFFFFFFFFFFFFFFFFFFF AND PUSH20 0xFFFFFFFFFFFFFFFFFFFFFFFFFFFFFFFFFFFFFFFF AND DUP5 PUSH20 0xFFFFFFFFFFFFFFFFFFFFFFFFFFFFFFFFFFFFFFFF AND EQ ISZERO PUSH3 0x6740 JUMPI DUP3 PUSH20 0xFFFFFFFFFFFFFFFFFFFFFFFFFFFFFFFFFFFFFFFF AND BALANCE SWAP1 POP DUP1 SWAP2 POP POP PUSH3 0x67C6 JUMP JUMPDEST DUP4 PUSH20 0xFFFFFFFFFFFFFFFFFFFFFFFFFFFFFFFFFFFFFFFF AND PUSH4 0x70A08231 DUP5 PUSH1 0x40 MLOAD DUP3 PUSH4 0xFFFFFFFF AND PUSH1 0xE0 SHL DUP2 MSTORE PUSH1 0x4 ADD PUSH3 0x677B SWAP2 SWAP1 PUSH3 0x7289 JUMP JUMPDEST PUSH1 0x20 PUSH1 0x40 MLOAD DUP1 DUP4 SUB DUP2 DUP7 GAS STATICCALL ISZERO DUP1 ISZERO PUSH3 0x6799 JUMPI RETURNDATASIZE PUSH1 0x0 DUP1 RETURNDATACOPY RETURNDATASIZE PUSH1 0x0 REVERT JUMPDEST POP POP POP POP PUSH1 0x40 MLOAD RETURNDATASIZE PUSH1 0x1F NOT PUSH1 0x1F DUP3 ADD AND DUP3 ADD DUP1 PUSH1 0x40 MSTORE POP DUP2 ADD SWAP1 PUSH3 0x67BF SWAP2 SWAP1 PUSH3 0x911F JUMP JUMPDEST SWAP1 POP DUP1 SWAP2 POP POP JUMPDEST SWAP3 SWAP2 POP POP JUMP JUMPDEST PUSH1 0x0 DUP3 PUSH20 0xFFFFFFFFFFFFFFFFFFFFFFFFFFFFFFFFFFFFFFFF AND DUP3 PUSH1 0x0 PUSH8 0xFFFFFFFFFFFFFFFF DUP2 GT ISZERO PUSH3 0x6804 JUMPI PUSH3 0x6803 PUSH3 0x7784 JUMP JUMPDEST JUMPDEST PUSH1 0x40 MLOAD SWAP1 DUP1 DUP3 MSTORE DUP1 PUSH1 0x1F ADD PUSH1 0x1F NOT AND PUSH1 0x20 ADD DUP3 ADD PUSH1 0x40 MSTORE DUP1 ISZERO PUSH3 0x6837 JUMPI DUP2 PUSH1 0x20 ADD PUSH1 0x1 DUP3 MUL DUP1 CALLDATASIZE DUP4 CALLDATACOPY DUP1 DUP3 ADD SWAP2 POP POP SWAP1 POP JUMPDEST POP PUSH1 0x40 MLOAD PUSH3 0x6847 SWAP2 SWAP1 PUSH3 0x9193 JUMP JUMPDEST PUSH1 0x0 PUSH1 0x40 MLOAD DUP1 DUP4 SUB DUP2 DUP6 DUP8 GAS CALL SWAP3 POP POP POP RETURNDATASIZE DUP1 PUSH1 0x0 DUP2 EQ PUSH3 0x6886 JUMPI PUSH1 0x40 MLOAD SWAP2 POP PUSH1 0x1F NOT PUSH1 0x3F RETURNDATASIZE ADD AND DUP3 ADD PUSH1 0x40 MSTORE RETURNDATASIZE DUP3 MSTORE RETURNDATASIZE PUSH1 0x0 PUSH1 0x20 DUP5 ADD RETURNDATACOPY PUSH3 0x688B JUMP JUMPDEST PUSH1 0x60 SWAP2 POP JUMPDEST POP POP SWAP1 POP DUP1 PUSH3 0x68C7 JUMPI PUSH1 0x40 MLOAD PUSH32 0x30667AAB00000000000000000000000000000000000000000000000000000000 DUP2 MSTORE PUSH1 0x4 ADD PUSH1 0x40 MLOAD DUP1 SWAP2 SUB SWAP1 REVERT JUMPDEST POP POP POP JUMP JUMPDEST PUSH1 0x0 DUP1 DUP6 PUSH20 0xFFFFFFFFFFFFFFFFFFFFFFFFFFFFFFFFFFFFFFFF AND PUSH4 0x23B872DD DUP7 DUP7 DUP7 PUSH1 0x40 MLOAD PUSH1 0x24 ADD PUSH3 0x6902 SWAP4 SWAP3 SWAP2 SWAP1 PUSH3 0x91AC JUMP JUMPDEST PUSH1 0x40 MLOAD PUSH1 0x20 DUP2 DUP4 SUB SUB DUP2 MSTORE SWAP1 PUSH1 0x40 MSTORE SWAP1 PUSH1 0xE0 SHL PUSH1 0x20 DUP3 ADD DUP1 MLOAD PUSH28 0xFFFFFFFFFFFFFFFFFFFFFFFFFFFFFFFFFFFFFFFFFFFFFFFFFFFFFFFF DUP4 DUP2 DUP4 AND OR DUP4 MSTORE POP POP POP POP PUSH1 0x40 MLOAD PUSH3 0x6952 SWAP2 SWAP1 PUSH3 0x9193 JUMP JUMPDEST PUSH1 0x0 PUSH1 0x40 MLOAD DUP1 DUP4 SUB DUP2 PUSH1 0x0 DUP7 GAS CALL SWAP2 POP POP RETURNDATASIZE DUP1 PUSH1 0x0 DUP2 EQ PUSH3 0x6991 JUMPI PUSH1 0x40 MLOAD SWAP2 POP PUSH1 0x1F NOT PUSH1 0x3F RETURNDATASIZE ADD AND DUP3 ADD PUSH1 0x40 MSTORE RETURNDATASIZE DUP3 MSTORE RETURNDATASIZE PUSH1 0x0 PUSH1 0x20 DUP5 ADD RETURNDATACOPY PUSH3 0x6996 JUMP JUMPDEST PUSH1 0x60 SWAP2 POP JUMPDEST POP SWAP2 POP SWAP2 POP DUP2 DUP1 ISZERO PUSH3 0x69C8 JUMPI POP PUSH1 0x0 DUP2 MLOAD EQ DUP1 PUSH3 0x69C7 JUMPI POP DUP1 DUP1 PUSH1 0x20 ADD SWAP1 MLOAD DUP2 ADD SWAP1 PUSH3 0x69C6 SWAP2 SWAP1 PUSH3 0x9200 JUMP JUMPDEST JUMPDEST JUMPDEST PUSH3 0x69FF JUMPI PUSH1 0x40 MLOAD PUSH32 0x6050FE2900000000000000000000000000000000000000000000000000000000 DUP2 MSTORE PUSH1 0x4 ADD PUSH1 0x40 MLOAD DUP1 SWAP2 SUB SWAP1 REVERT JUMPDEST POP POP POP POP POP POP JUMP JUMPDEST PUSH3 0x6A12 DUP5 PUSH3 0x6E2C JUMP JUMPDEST ISZERO PUSH3 0x6B52 JUMPI DUP4 PUSH20 0xFFFFFFFFFFFFFFFFFFFFFFFFFFFFFFFFFFFFFFFF AND PUSH4 0xF23A6E61 DUP8 DUP8 DUP7 DUP7 DUP7 PUSH1 0x40 MLOAD DUP7 PUSH4 0xFFFFFFFF AND PUSH1 0xE0 SHL DUP2 MSTORE PUSH1 0x4 ADD PUSH3 0x6A5B SWAP6 SWAP5 SWAP4 SWAP3 SWAP2 SWAP1 PUSH3 0x9232 JUMP JUMPDEST PUSH1 0x20 PUSH1 0x40 MLOAD DUP1 DUP4 SUB DUP2 PUSH1 0x0 DUP8 GAS CALL SWAP3 POP POP POP DUP1 ISZERO PUSH3 0x6A9A JUMPI POP PUSH1 0x40 MLOAD RETURNDATASIZE PUSH1 0x1F NOT PUSH1 0x1F DUP3 ADD AND DUP3 ADD DUP1 PUSH1 0x40 MSTORE POP DUP2 ADD SWAP1 PUSH3 0x6A97 SWAP2 SWAP1 PUSH3 0x90D6 JUMP JUMPDEST PUSH1 0x1 JUMPDEST PUSH3 0x6AD1 JUMPI PUSH1 0x40 MLOAD PUSH32 0x45D406B200000000000000000000000000000000000000000000000000000000 DUP2 MSTORE PUSH1 0x4 ADD PUSH1 0x40 MLOAD DUP1 SWAP2 SUB SWAP1 REVERT JUMPDEST PUSH4 0xF23A6E61 PUSH1 0xE0 SHL PUSH28 0xFFFFFFFFFFFFFFFFFFFFFFFFFFFFFFFFFFFFFFFFFFFFFFFFFFFFFFFF NOT AND DUP2 PUSH28 0xFFFFFFFFFFFFFFFFFFFFFFFFFFFFFFFFFFFFFFFFFFFFFFFFFFFFFFFF NOT AND EQ PUSH3 0x6B50 JUMPI PUSH1 0x40 MLOAD PUSH32 0x2BAA526E00000000000000000000000000000000000000000000000000000000 DUP2 MSTORE PUSH1 0x4 ADD PUSH1 0x40 MLOAD DUP1 SWAP2 SUB SWAP1 REVERT JUMPDEST POP JUMPDEST POP POP POP POP POP POP JUMP JUMPDEST PUSH1 0x0 DUP1 DUP3 DUP7 PUSH3 0x6B6B SWAP2 SWAP1 PUSH3 0x7FF9 JUMP JUMPDEST SWAP1 POP PUSH1 0x0 DUP2 PUSH2 0x2710 DUP8 PUSH3 0x6B80 SWAP2 SWAP1 PUSH3 0x7FF9 JUMP JUMPDEST PUSH3 0x6B8C SWAP2 SWAP1 PUSH3 0x8567 JUMP JUMPDEST DUP3 DUP7 PUSH3 0x6B9A SWAP2 SWAP1 PUSH3 0x7FF9 JUMP JUMPDEST PUSH3 0x6BA6 SWAP2 SWAP1 PUSH3 0x87B3 JUMP JUMPDEST SWAP1 POP DUP1 SWAP3 POP POP POP SWAP5 SWAP4 POP POP POP POP JUMP JUMPDEST PUSH1 0x0 PUSH2 0xE10 TIMESTAMP PUSH3 0x6BC7 SWAP2 SWAP1 PUSH3 0x87B3 JUMP JUMPDEST SWAP1 POP SWAP1 JUMP JUMPDEST PUSH1 0x0 PUSH20 0xFFFFFFFFFFFFFFFFFFFFFFFFFFFFFFFFFFFFFFFF AND DUP4 PUSH20 0xFFFFFFFFFFFFFFFFFFFFFFFFFFFFFFFFFFFFFFFF AND EQ ISZERO PUSH3 0x6C34 JUMPI PUSH1 0x40 MLOAD PUSH32 0xEDBA591D00000000000000000000000000000000000000000000000000000000 DUP2 MSTORE PUSH1 0x4 ADD PUSH1 0x40 MLOAD DUP1 SWAP2 SUB SWAP1 REVERT JUMPDEST PUSH1 0x0 CALLER SWAP1 POP PUSH1 0x0 PUSH1 0xE PUSH1 0x0 DUP6 DUP2 MSTORE PUSH1 0x20 ADD SWAP1 DUP2 MSTORE PUSH1 0x20 ADD PUSH1 0x0 KECCAK256 PUSH1 0x0 DUP7 PUSH20 0xFFFFFFFFFFFFFFFFFFFFFFFFFFFFFFFFFFFFFFFF AND PUSH20 0xFFFFFFFFFFFFFFFFFFFFFFFFFFFFFFFFFFFFFFFF AND DUP2 MSTORE PUSH1 0x20 ADD SWAP1 DUP2 MSTORE PUSH1 0x20 ADD PUSH1 0x0 KECCAK256 SLOAD SWAP1 POP DUP3 DUP2 LT ISZERO PUSH3 0x6CC9 JUMPI PUSH1 0x40 MLOAD PUSH32 0x73ECA78400000000000000000000000000000000000000000000000000000000 DUP2 MSTORE PUSH1 0x4 ADD PUSH1 0x40 MLOAD DUP1 SWAP2 SUB SWAP1 REVERT JUMPDEST DUP3 DUP2 SUB PUSH1 0xE PUSH1 0x0 DUP7 DUP2 MSTORE PUSH1 0x20 ADD SWAP1 DUP2 MSTORE PUSH1 0x20 ADD PUSH1 0x0 KECCAK256 PUSH1 0x0 DUP8 PUSH20 0xFFFFFFFFFFFFFFFFFFFFFFFFFFFFFFFFFFFFFFFF AND PUSH20 0xFFFFFFFFFFFFFFFFFFFFFFFFFFFFFFFFFFFFFFFF AND DUP2 MSTORE PUSH1 0x20 ADD SWAP1 DUP2 MSTORE PUSH1 0x20 ADD PUSH1 0x0 KECCAK256 DUP2 SWAP1 SSTORE POP DUP3 PUSH1 0x11 PUSH1 0x0 DUP7 DUP2 MSTORE PUSH1 0x20 ADD SWAP1 DUP2 MSTORE PUSH1 0x20 ADD PUSH1 0x0 KECCAK256 PUSH1 0x0 DUP3 DUP3 SLOAD SUB SWAP3 POP POP DUP2 SWAP1 SSTORE POP PUSH1 0x0 PUSH20 0xFFFFFFFFFFFFFFFFFFFFFFFFFFFFFFFFFFFFFFFF AND DUP6 PUSH20 0xFFFFFFFFFFFFFFFFFFFFFFFFFFFFFFFFFFFFFFFF AND DUP4 PUSH20 0xFFFFFFFFFFFFFFFFFFFFFFFFFFFFFFFFFFFFFFFF AND PUSH32 0xC3D58168C5AE7397731D063D5BBF3D657854427343F4C083240F7AACAA2D0F62 DUP8 DUP8 PUSH1 0x40 MLOAD PUSH3 0x6DBA SWAP3 SWAP2 SWAP1 PUSH3 0x8D9E JUMP JUMPDEST PUSH1 0x40 MLOAD DUP1 SWAP2 SUB SWAP1 LOG4 POP POP POP POP POP JUMP JUMPDEST PUSH1 0x0 DUP1 PUSH1 0x1 DUP7 DUP6 PUSH3 0x6DDC SWAP2 SWAP1 PUSH3 0x86D7 JUMP JUMPDEST DUP5 PUSH3 0x6DE9 SWAP2 SWAP1 PUSH3 0x7FF9 JUMP JUMPDEST PUSH2 0x2710 DUP9 DUP9 PUSH3 0x6DFA SWAP2 SWAP1 PUSH3 0x7FF9 JUMP JUMPDEST PUSH3 0x6E06 SWAP2 SWAP1 PUSH3 0x7FF9 JUMP JUMPDEST PUSH3 0x6E12 SWAP2 SWAP1 PUSH3 0x87B3 JUMP JUMPDEST PUSH3 0x6E1E SWAP2 SWAP1 PUSH3 0x8567 JUMP JUMPDEST SWAP1 POP DUP1 SWAP2 POP POP SWAP5 SWAP4 POP POP POP POP JUMP JUMPDEST PUSH1 0x0 DUP1 DUP3 EXTCODESIZE SWAP1 POP PUSH1 0x0 DUP2 GT SWAP2 POP POP SWAP2 SWAP1 POP JUMP JUMPDEST PUSH1 0x40 MLOAD DUP1 PUSH1 0x40 ADD PUSH1 0x40 MSTORE DUP1 PUSH1 0x0 DUP2 MSTORE PUSH1 0x20 ADD PUSH1 0x0 DUP2 MSTORE POP SWAP1 JUMP JUMPDEST DUP3 DUP1 SLOAD PUSH3 0x6E67 SWAP1 PUSH3 0x838A JUMP JUMPDEST SWAP1 PUSH1 0x0 MSTORE PUSH1 0x20 PUSH1 0x0 KECCAK256 SWAP1 PUSH1 0x1F ADD PUSH1 0x20 SWAP1 DIV DUP2 ADD SWAP3 DUP3 PUSH3 0x6E8B JUMPI PUSH1 0x0 DUP6 SSTORE PUSH3 0x6ED7 JUMP JUMPDEST DUP3 PUSH1 0x1F LT PUSH3 0x6EA6 JUMPI DUP1 MLOAD PUSH1 0xFF NOT AND DUP4 DUP1 ADD OR DUP6 SSTORE PUSH3 0x6ED7 JUMP JUMPDEST DUP3 DUP1 ADD PUSH1 0x1 ADD DUP6 SSTORE DUP3 ISZERO PUSH3 0x6ED7 JUMPI SWAP2 DUP3 ADD JUMPDEST DUP3 DUP2 GT ISZERO PUSH3 0x6ED6 JUMPI DUP3 MLOAD DUP3 SSTORE SWAP2 PUSH1 0x20 ADD SWAP2 SWAP1 PUSH1 0x1 ADD SWAP1 PUSH3 0x6EB9 JUMP JUMPDEST JUMPDEST POP SWAP1 POP PUSH3 0x6EE6 SWAP2 SWAP1 PUSH3 0x6FDC JUMP JUMPDEST POP SWAP1 JUMP JUMPDEST PUSH1 0x40 MLOAD DUP1 PUSH1 0xE0 ADD PUSH1 0x40 MSTORE DUP1 PUSH1 0x0 PUSH20 0xFFFFFFFFFFFFFFFFFFFFFFFFFFFFFFFFFFFFFFFF AND DUP2 MSTORE PUSH1 0x20 ADD PUSH1 0x0 DUP2 MSTORE PUSH1 0x20 ADD PUSH1 0x0 DUP2 MSTORE PUSH1 0x20 ADD PUSH1 0x0 DUP2 MSTORE PUSH1 0x20 ADD PUSH1 0x0 DUP2 MSTORE PUSH1 0x20 ADD PUSH1 0x0 DUP2 MSTORE PUSH1 0x20 ADD PUSH1 0x0 DUP2 MSTORE POP SWAP1 JUMP JUMPDEST DUP3 DUP1 SLOAD PUSH3 0x6F4B SWAP1 PUSH3 0x838A JUMP JUMPDEST SWAP1 PUSH1 0x0 MSTORE PUSH1 0x20 PUSH1 0x0 KECCAK256 SWAP1 PUSH1 0x1F ADD PUSH1 0x20 SWAP1 DIV DUP2 ADD SWAP3 DUP3 PUSH3 0x6F6F JUMPI PUSH1 0x0 DUP6 SSTORE PUSH3 0x6FBB JUMP JUMPDEST DUP3 PUSH1 0x1F LT PUSH3 0x6F8A JUMPI DUP1 CALLDATALOAD PUSH1 0xFF NOT AND DUP4 DUP1 ADD OR DUP6 SSTORE PUSH3 0x6FBB JUMP JUMPDEST DUP3 DUP1 ADD PUSH1 0x1 ADD DUP6 SSTORE DUP3 ISZERO PUSH3 0x6FBB JUMPI SWAP2 DUP3 ADD JUMPDEST DUP3 DUP2 GT ISZERO PUSH3 0x6FBA JUMPI DUP3 CALLDATALOAD DUP3 SSTORE SWAP2 PUSH1 0x20 ADD SWAP2 SWAP1 PUSH1 0x1 ADD SWAP1 PUSH3 0x6F9D JUMP JUMPDEST JUMPDEST POP SWAP1 POP PUSH3 0x6FCA SWAP2 SWAP1 PUSH3 0x6FDC JUMP JUMPDEST POP SWAP1 JUMP JUMPDEST PUSH2 0x89C DUP1 PUSH3 0x9297 DUP4 CODECOPY ADD SWAP1 JUMP JUMPDEST JUMPDEST DUP1 DUP3 GT ISZERO PUSH3 0x6FF7 JUMPI PUSH1 0x0 DUP2 PUSH1 0x0 SWAP1 SSTORE POP PUSH1 0x1 ADD PUSH3 0x6FDD JUMP JUMPDEST POP SWAP1 JUMP JUMPDEST PUSH1 0x0 PUSH1 0x40 MLOAD SWAP1 POP SWAP1 JUMP JUMPDEST PUSH1 0x0 DUP1 REVERT JUMPDEST PUSH1 0x0 DUP1 REVERT JUMPDEST PUSH1 0x0 DUP1 REVERT JUMPDEST PUSH1 0x0 PUSH1 0xE0 DUP3 DUP5 SUB SLT ISZERO PUSH3 0x702D JUMPI PUSH3 0x702C PUSH3 0x700F JUMP JUMPDEST JUMPDEST DUP2 SWAP1 POP SWAP3 SWAP2 POP POP JUMP JUMPDEST PUSH1 0x0 PUSH1 0xE0 DUP3 DUP5 SUB SLT ISZERO PUSH3 0x704F JUMPI PUSH3 0x704E PUSH3 0x7005 JUMP JUMPDEST JUMPDEST PUSH1 0x0 PUSH3 0x705F DUP5 DUP3 DUP6 ADD PUSH3 0x7014 JUMP JUMPDEST SWAP2 POP POP SWAP3 SWAP2 POP POP JUMP JUMPDEST PUSH1 0x0 PUSH20 0xFFFFFFFFFFFFFFFFFFFFFFFFFFFFFFFFFFFFFFFF DUP3 AND SWAP1 POP SWAP2 SWAP1 POP JUMP JUMPDEST PUSH1 0x0 PUSH3 0x7095 DUP3 PUSH3 0x7068 JUMP JUMPDEST SWAP1 POP SWAP2 SWAP1 POP JUMP JUMPDEST PUSH3 0x70A7 DUP2 PUSH3 0x7088 JUMP JUMPDEST DUP2 EQ PUSH3 0x70B3 JUMPI PUSH1 0x0 DUP1 REVERT JUMPDEST POP JUMP JUMPDEST PUSH1 0x0 DUP2 CALLDATALOAD SWAP1 POP PUSH3 0x70C7 DUP2 PUSH3 0x709C JUMP JUMPDEST SWAP3 SWAP2 POP POP JUMP JUMPDEST PUSH1 0x0 DUP2 SWAP1 POP SWAP2 SWAP1 POP JUMP JUMPDEST PUSH3 0x70E2 DUP2 PUSH3 0x70CD JUMP JUMPDEST DUP2 EQ PUSH3 0x70EE JUMPI PUSH1 0x0 DUP1 REVERT JUMPDEST POP JUMP JUMPDEST PUSH1 0x0 DUP2 CALLDATALOAD SWAP1 POP PUSH3 0x7102 DUP2 PUSH3 0x70D7 JUMP JUMPDEST SWAP3 SWAP2 POP POP JUMP JUMPDEST PUSH1 0x0 DUP1 PUSH1 0x40 DUP4 DUP6 SUB SLT ISZERO PUSH3 0x7122 JUMPI PUSH3 0x7121 PUSH3 0x7005 JUMP JUMPDEST JUMPDEST PUSH1 0x0 PUSH3 0x7132 DUP6 DUP3 DUP7 ADD PUSH3 0x70B6 JUMP JUMPDEST SWAP3 POP POP PUSH1 0x20 PUSH3 0x7145 DUP6 DUP3 DUP7 ADD PUSH3 0x70F1 JUMP JUMPDEST SWAP2 POP POP SWAP3 POP SWAP3 SWAP1 POP JUMP JUMPDEST PUSH3 0x715A DUP2 PUSH3 0x70CD JUMP JUMPDEST DUP3 MSTORE POP POP JUMP JUMPDEST PUSH1 0x0 PUSH1 0x20 DUP3 ADD SWAP1 POP PUSH3 0x7177 PUSH1 0x0 DUP4 ADD DUP5 PUSH3 0x714F JUMP JUMPDEST SWAP3 SWAP2 POP POP JUMP JUMPDEST PUSH1 0x0 PUSH32 0xFFFFFFFF00000000000000000000000000000000000000000000000000000000 DUP3 AND SWAP1 POP SWAP2 SWAP1 POP JUMP JUMPDEST PUSH3 0x71B4 DUP2 PUSH3 0x717D JUMP JUMPDEST DUP2 EQ PUSH3 0x71C0 JUMPI PUSH1 0x0 DUP1 REVERT JUMPDEST POP JUMP JUMPDEST PUSH1 0x0 DUP2 CALLDATALOAD SWAP1 POP PUSH3 0x71D4 DUP2 PUSH3 0x71A9 JUMP JUMPDEST SWAP3 SWAP2 POP POP JUMP JUMPDEST PUSH1 0x0 PUSH1 0x20 DUP3 DUP5 SUB SLT ISZERO PUSH3 0x71F3 JUMPI PUSH3 0x71F2 PUSH3 0x7005 JUMP JUMPDEST JUMPDEST PUSH1 0x0 PUSH3 0x7203 DUP5 DUP3 DUP6 ADD PUSH3 0x71C3 JUMP JUMPDEST SWAP2 POP POP SWAP3 SWAP2 POP POP JUMP JUMPDEST PUSH1 0x0 DUP2 ISZERO ISZERO SWAP1 POP SWAP2 SWAP1 POP JUMP JUMPDEST PUSH3 0x7223 DUP2 PUSH3 0x720C JUMP JUMPDEST DUP3 MSTORE POP POP JUMP JUMPDEST PUSH1 0x0 PUSH1 0x20 DUP3 ADD SWAP1 POP PUSH3 0x7240 PUSH1 0x0 DUP4 ADD DUP5 PUSH3 0x7218 JUMP JUMPDEST SWAP3 SWAP2 POP POP JUMP JUMPDEST PUSH1 0x0 PUSH1 0x20 DUP3 DUP5 SUB SLT ISZERO PUSH3 0x725F JUMPI PUSH3 0x725E PUSH3 0x7005 JUMP JUMPDEST JUMPDEST PUSH1 0x0 PUSH3 0x726F DUP5 DUP3 DUP6 ADD PUSH3 0x70F1 JUMP JUMPDEST SWAP2 POP POP SWAP3 SWAP2 POP POP JUMP JUMPDEST PUSH3 0x7283 DUP2 PUSH3 0x7088 JUMP JUMPDEST DUP3 MSTORE POP POP JUMP JUMPDEST PUSH1 0x0 PUSH1 0x20 DUP3 ADD SWAP1 POP PUSH3 0x72A0 PUSH1 0x0 DUP4 ADD DUP5 PUSH3 0x7278 JUMP JUMPDEST SWAP3 SWAP2 POP POP JUMP JUMPDEST PUSH1 0x0 DUP2 MLOAD SWAP1 POP SWAP2 SWAP1 POP JUMP JUMPDEST PUSH1 0x0 DUP3 DUP3 MSTORE PUSH1 0x20 DUP3 ADD SWAP1 POP SWAP3 SWAP2 POP POP JUMP JUMPDEST PUSH1 0x0 JUMPDEST DUP4 DUP2 LT ISZERO PUSH3 0x72E2 JUMPI DUP1 DUP3 ADD MLOAD DUP2 DUP5 ADD MSTORE PUSH1 0x20 DUP2 ADD SWAP1 POP PUSH3 0x72C5 JUMP JUMPDEST DUP4 DUP2 GT ISZERO PUSH3 0x72F2 JUMPI PUSH1 0x0 DUP5 DUP5 ADD MSTORE JUMPDEST POP POP POP POP JUMP JUMPDEST PUSH1 0x0 PUSH1 0x1F NOT PUSH1 0x1F DUP4 ADD AND SWAP1 POP SWAP2 SWAP1 POP JUMP JUMPDEST PUSH1 0x0 PUSH3 0x7316 DUP3 PUSH3 0x72A6 JUMP JUMPDEST PUSH3 0x7322 DUP2 DUP6 PUSH3 0x72B1 JUMP JUMPDEST SWAP4 POP PUSH3 0x7334 DUP2 DUP6 PUSH1 0x20 DUP7 ADD PUSH3 0x72C2 JUMP JUMPDEST PUSH3 0x733F DUP2 PUSH3 0x72F8 JUMP JUMPDEST DUP5 ADD SWAP2 POP POP SWAP3 SWAP2 POP POP JUMP JUMPDEST PUSH1 0x0 PUSH1 0x20 DUP3 ADD SWAP1 POP DUP2 DUP2 SUB PUSH1 0x0 DUP4 ADD MSTORE PUSH3 0x7366 DUP2 DUP5 PUSH3 0x7309 JUMP JUMPDEST SWAP1 POP SWAP3 SWAP2 POP POP JUMP JUMPDEST PUSH1 0x0 PUSH2 0xFFFF DUP3 AND SWAP1 POP SWAP2 SWAP1 POP JUMP JUMPDEST PUSH3 0x7387 DUP2 PUSH3 0x736E JUMP JUMPDEST DUP3 MSTORE POP POP JUMP JUMPDEST PUSH1 0x0 PUSH16 0xFFFFFFFFFFFFFFFFFFFFFFFFFFFFFFFF DUP3 AND SWAP1 POP SWAP2 SWAP1 POP JUMP JUMPDEST PUSH3 0x73B4 DUP2 PUSH3 0x738D JUMP JUMPDEST DUP3 MSTORE POP POP JUMP JUMPDEST PUSH1 0x0 PUSH1 0x40 DUP3 ADD SWAP1 POP PUSH3 0x73D1 PUSH1 0x0 DUP4 ADD DUP6 PUSH3 0x737C JUMP JUMPDEST PUSH3 0x73E0 PUSH1 0x20 DUP4 ADD DUP5 PUSH3 0x73A9 JUMP JUMPDEST SWAP4 SWAP3 POP POP POP JUMP JUMPDEST PUSH1 0x0 DUP1 REVERT JUMPDEST PUSH1 0x0 DUP1 REVERT JUMPDEST PUSH1 0x0 DUP1 REVERT JUMPDEST PUSH1 0x0 DUP1 DUP4 PUSH1 0x1F DUP5 ADD SLT PUSH3 0x740F JUMPI PUSH3 0x740E PUSH3 0x73E7 JUMP JUMPDEST JUMPDEST DUP3 CALLDATALOAD SWAP1 POP PUSH8 0xFFFFFFFFFFFFFFFF DUP2 GT ISZERO PUSH3 0x742F JUMPI PUSH3 0x742E PUSH3 0x73EC JUMP JUMPDEST JUMPDEST PUSH1 0x20 DUP4 ADD SWAP2 POP DUP4 PUSH1 0x20 DUP3 MUL DUP4 ADD GT ISZERO PUSH3 0x744E JUMPI PUSH3 0x744D PUSH3 0x73F1 JUMP JUMPDEST JUMPDEST SWAP3 POP SWAP3 SWAP1 POP JUMP JUMPDEST PUSH1 0x0 DUP1 DUP4 PUSH1 0x1F DUP5 ADD SLT PUSH3 0x746E JUMPI PUSH3 0x746D PUSH3 0x73E7 JUMP JUMPDEST JUMPDEST DUP3 CALLDATALOAD SWAP1 POP PUSH8 0xFFFFFFFFFFFFFFFF DUP2 GT ISZERO PUSH3 0x748E JUMPI PUSH3 0x748D PUSH3 0x73EC JUMP JUMPDEST JUMPDEST PUSH1 0x20 DUP4 ADD SWAP2 POP DUP4 PUSH1 0x1 DUP3 MUL DUP4 ADD GT ISZERO PUSH3 0x74AD JUMPI PUSH3 0x74AC PUSH3 0x73F1 JUMP JUMPDEST JUMPDEST SWAP3 POP SWAP3 SWAP1 POP JUMP JUMPDEST PUSH1 0x0 DUP1 PUSH1 0x0 DUP1 PUSH1 0x0 DUP1 PUSH1 0x0 DUP1 PUSH1 0xA0 DUP10 DUP12 SUB SLT ISZERO PUSH3 0x74D7 JUMPI PUSH3 0x74D6 PUSH3 0x7005 JUMP JUMPDEST JUMPDEST PUSH1 0x0 PUSH3 0x74E7 DUP12 DUP3 DUP13 ADD PUSH3 0x70B6 JUMP JUMPDEST SWAP9 POP POP PUSH1 0x20 PUSH3 0x74FA DUP12 DUP3 DUP13 ADD PUSH3 0x70B6 JUMP JUMPDEST SWAP8 POP POP PUSH1 0x40 DUP10 ADD CALLDATALOAD PUSH8 0xFFFFFFFFFFFFFFFF DUP2 GT ISZERO PUSH3 0x751E JUMPI PUSH3 0x751D PUSH3 0x700A JUMP JUMPDEST JUMPDEST PUSH3 0x752C DUP12 DUP3 DUP13 ADD PUSH3 0x73F6 JUMP JUMPDEST SWAP7 POP SWAP7 POP POP PUSH1 0x60 DUP10 ADD CALLDATALOAD PUSH8 0xFFFFFFFFFFFFFFFF DUP2 GT ISZERO PUSH3 0x7552 JUMPI PUSH3 0x7551 PUSH3 0x700A JUMP JUMPDEST JUMPDEST PUSH3 0x7560 DUP12 DUP3 DUP13 ADD PUSH3 0x73F6 JUMP JUMPDEST SWAP5 POP SWAP5 POP POP PUSH1 0x80 DUP10 ADD CALLDATALOAD PUSH8 0xFFFFFFFFFFFFFFFF DUP2 GT ISZERO PUSH3 0x7586 JUMPI PUSH3 0x7585 PUSH3 0x700A JUMP JUMPDEST JUMPDEST PUSH3 0x7594 DUP12 DUP3 DUP13 ADD PUSH3 0x7455 JUMP JUMPDEST SWAP3 POP SWAP3 POP POP SWAP3 SWAP6 SWAP9 POP SWAP3 SWAP6 SWAP9 SWAP1 SWAP4 SWAP7 POP JUMP JUMPDEST PUSH1 0x0 DUP1 DUP4 PUSH1 0x1F DUP5 ADD SLT PUSH3 0x75BF JUMPI PUSH3 0x75BE PUSH3 0x73E7 JUMP JUMPDEST JUMPDEST DUP3 CALLDATALOAD SWAP1 POP PUSH8 0xFFFFFFFFFFFFFFFF DUP2 GT ISZERO PUSH3 0x75DF JUMPI PUSH3 0x75DE PUSH3 0x73EC JUMP JUMPDEST JUMPDEST PUSH1 0x20 DUP4 ADD SWAP2 POP DUP4 PUSH1 0x20 DUP3 MUL DUP4 ADD GT ISZERO PUSH3 0x75FE JUMPI PUSH3 0x75FD PUSH3 0x73F1 JUMP JUMPDEST JUMPDEST SWAP3 POP SWAP3 SWAP1 POP JUMP JUMPDEST PUSH1 0x0 DUP1 PUSH1 0x20 DUP4 DUP6 SUB SLT ISZERO PUSH3 0x761F JUMPI PUSH3 0x761E PUSH3 0x7005 JUMP JUMPDEST JUMPDEST PUSH1 0x0 DUP4 ADD CALLDATALOAD PUSH8 0xFFFFFFFFFFFFFFFF DUP2 GT ISZERO PUSH3 0x7640 JUMPI PUSH3 0x763F PUSH3 0x700A JUMP JUMPDEST JUMPDEST PUSH3 0x764E DUP6 DUP3 DUP7 ADD PUSH3 0x75A6 JUMP JUMPDEST SWAP3 POP SWAP3 POP POP SWAP3 POP SWAP3 SWAP1 POP JUMP JUMPDEST PUSH1 0x0 DUP2 MLOAD SWAP1 POP SWAP2 SWAP1 POP JUMP JUMPDEST PUSH1 0x0 DUP3 DUP3 MSTORE PUSH1 0x20 DUP3 ADD SWAP1 POP SWAP3 SWAP2 POP POP JUMP JUMPDEST PUSH1 0x0 DUP2 SWAP1 POP PUSH1 0x20 DUP3 ADD SWAP1 POP SWAP2 SWAP1 POP JUMP JUMPDEST PUSH3 0x7691 DUP2 PUSH3 0x70CD JUMP JUMPDEST DUP3 MSTORE POP POP JUMP JUMPDEST PUSH1 0x40 DUP3 ADD PUSH1 0x0 DUP3 ADD MLOAD PUSH3 0x76AF PUSH1 0x0 DUP6 ADD DUP3 PUSH3 0x7686 JUMP JUMPDEST POP PUSH1 0x20 DUP3 ADD MLOAD PUSH3 0x76C4 PUSH1 0x20 DUP6 ADD DUP3 PUSH3 0x7686 JUMP JUMPDEST POP POP POP POP JUMP JUMPDEST PUSH1 0x0 PUSH3 0x76D8 DUP4 DUP4 PUSH3 0x7697 JUMP JUMPDEST PUSH1 0x40 DUP4 ADD SWAP1 POP SWAP3 SWAP2 POP POP JUMP JUMPDEST PUSH1 0x0 PUSH1 0x20 DUP3 ADD SWAP1 POP SWAP2 SWAP1 POP JUMP JUMPDEST PUSH1 0x0 PUSH3 0x76FE DUP3 PUSH3 0x765A JUMP JUMPDEST PUSH3 0x770A DUP2 DUP6 PUSH3 0x7665 JUMP JUMPDEST SWAP4 POP PUSH3 0x7717 DUP4 PUSH3 0x7676 JUMP JUMPDEST DUP1 PUSH1 0x0 JUMPDEST DUP4 DUP2 LT ISZERO PUSH3 0x774E JUMPI DUP2 MLOAD PUSH3 0x7732 DUP9 DUP3 PUSH3 0x76CA JUMP JUMPDEST SWAP8 POP PUSH3 0x773F DUP4 PUSH3 0x76E4 JUMP JUMPDEST SWAP3 POP POP PUSH1 0x1 DUP2 ADD SWAP1 POP PUSH3 0x771B JUMP JUMPDEST POP DUP6 SWAP4 POP POP POP POP SWAP3 SWAP2 POP POP JUMP JUMPDEST PUSH1 0x0 PUSH1 0x20 DUP3 ADD SWAP1 POP DUP2 DUP2 SUB PUSH1 0x0 DUP4 ADD MSTORE PUSH3 0x7777 DUP2 DUP5 PUSH3 0x76F1 JUMP JUMPDEST SWAP1 POP SWAP3 SWAP2 POP POP JUMP JUMPDEST PUSH1 0x0 DUP1 REVERT JUMPDEST PUSH32 0x4E487B7100000000000000000000000000000000000000000000000000000000 PUSH1 0x0 MSTORE PUSH1 0x41 PUSH1 0x4 MSTORE PUSH1 0x24 PUSH1 0x0 REVERT JUMPDEST PUSH3 0x77BE DUP3 PUSH3 0x72F8 JUMP JUMPDEST DUP2 ADD DUP2 DUP2 LT PUSH8 0xFFFFFFFFFFFFFFFF DUP3 GT OR ISZERO PUSH3 0x77E0 JUMPI PUSH3 0x77DF PUSH3 0x7784 JUMP JUMPDEST JUMPDEST DUP1 PUSH1 0x40 MSTORE POP POP POP JUMP JUMPDEST PUSH1 0x0 PUSH3 0x77F5 PUSH3 0x6FFB JUMP JUMPDEST SWAP1 POP PUSH3 0x7803 DUP3 DUP3 PUSH3 0x77B3 JUMP JUMPDEST SWAP2 SWAP1 POP JUMP JUMPDEST PUSH1 0x0 PUSH8 0xFFFFFFFFFFFFFFFF DUP3 GT ISZERO PUSH3 0x7826 JUMPI PUSH3 0x7825 PUSH3 0x7784 JUMP JUMPDEST JUMPDEST PUSH3 0x7831 DUP3 PUSH3 0x72F8 JUMP JUMPDEST SWAP1 POP PUSH1 0x20 DUP2 ADD SWAP1 POP SWAP2 SWAP1 POP JUMP JUMPDEST DUP3 DUP2 DUP4 CALLDATACOPY PUSH1 0x0 DUP4 DUP4 ADD MSTORE POP POP POP JUMP JUMPDEST PUSH1 0x0 PUSH3 0x7864 PUSH3 0x785E DUP5 PUSH3 0x7808 JUMP JUMPDEST PUSH3 0x77E9 JUMP JUMPDEST SWAP1 POP DUP3 DUP2 MSTORE PUSH1 0x20 DUP2 ADD DUP5 DUP5 DUP5 ADD GT ISZERO PUSH3 0x7883 JUMPI PUSH3 0x7882 PUSH3 0x777F JUMP JUMPDEST JUMPDEST PUSH3 0x7890 DUP5 DUP3 DUP6 PUSH3 0x783E JUMP JUMPDEST POP SWAP4 SWAP3 POP POP POP JUMP JUMPDEST PUSH1 0x0 DUP3 PUSH1 0x1F DUP4 ADD SLT PUSH3 0x78B0 JUMPI PUSH3 0x78AF PUSH3 0x73E7 JUMP JUMPDEST JUMPDEST DUP2 CALLDATALOAD PUSH3 0x78C2 DUP5 DUP3 PUSH1 0x20 DUP7 ADD PUSH3 0x784D JUMP JUMPDEST SWAP2 POP POP SWAP3 SWAP2 POP POP JUMP JUMPDEST PUSH1 0x0 DUP1 PUSH1 0x40 DUP4 DUP6 SUB SLT ISZERO PUSH3 0x78E5 JUMPI PUSH3 0x78E4 PUSH3 0x7005 JUMP JUMPDEST JUMPDEST PUSH1 0x0 DUP4 ADD CALLDATALOAD PUSH8 0xFFFFFFFFFFFFFFFF DUP2 GT ISZERO PUSH3 0x7906 JUMPI PUSH3 0x7905 PUSH3 0x700A JUMP JUMPDEST JUMPDEST PUSH3 0x7914 DUP6 DUP3 DUP7 ADD PUSH3 0x7898 JUMP JUMPDEST SWAP3 POP POP PUSH1 0x20 DUP4 ADD CALLDATALOAD PUSH8 0xFFFFFFFFFFFFFFFF DUP2 GT ISZERO PUSH3 0x7938 JUMPI PUSH3 0x7937 PUSH3 0x700A JUMP JUMPDEST JUMPDEST PUSH3 0x7946 DUP6 DUP3 DUP7 ADD PUSH3 0x7898 JUMP JUMPDEST SWAP2 POP POP SWAP3 POP SWAP3 SWAP1 POP JUMP JUMPDEST PUSH1 0x0 DUP1 PUSH1 0x0 DUP1 PUSH1 0x80 DUP6 DUP8 SUB SLT ISZERO PUSH3 0x796D JUMPI PUSH3 0x796C PUSH3 0x7005 JUMP JUMPDEST JUMPDEST PUSH1 0x0 PUSH3 0x797D DUP8 DUP3 DUP9 ADD PUSH3 0x70B6 JUMP JUMPDEST SWAP5 POP POP PUSH1 0x20 PUSH3 0x7990 DUP8 DUP3 DUP9 ADD PUSH3 0x70F1 JUMP JUMPDEST SWAP4 POP POP PUSH1 0x40 PUSH3 0x79A3 DUP8 DUP3 DUP9 ADD PUSH3 0x70F1 JUMP JUMPDEST SWAP3 POP POP PUSH1 0x60 PUSH3 0x79B6 DUP8 DUP3 DUP9 ADD PUSH3 0x70B6 JUMP JUMPDEST SWAP2 POP POP SWAP3 SWAP6 SWAP2 SWAP5 POP SWAP3 POP JUMP JUMPDEST PUSH1 0x0 DUP1 PUSH1 0x0 PUSH1 0x60 DUP5 DUP7 SUB SLT ISZERO PUSH3 0x79DE JUMPI PUSH3 0x79DD PUSH3 0x7005 JUMP JUMPDEST JUMPDEST PUSH1 0x0 PUSH3 0x79EE DUP7 DUP3 DUP8 ADD PUSH3 0x70B6 JUMP JUMPDEST SWAP4 POP POP PUSH1 0x20 PUSH3 0x7A01 DUP7 DUP3 DUP8 ADD PUSH3 0x70B6 JUMP JUMPDEST SWAP3 POP POP PUSH1 0x40 PUSH3 0x7A14 DUP7 DUP3 DUP8 ADD PUSH3 0x70F1 JUMP JUMPDEST SWAP2 POP POP SWAP3 POP SWAP3 POP SWAP3 JUMP JUMPDEST PUSH1 0x0 PUSH1 0x20 DUP3 DUP5 SUB SLT ISZERO PUSH3 0x7A37 JUMPI PUSH3 0x7A36 PUSH3 0x7005 JUMP JUMPDEST JUMPDEST PUSH1 0x0 PUSH3 0x7A47 DUP5 DUP3 DUP6 ADD PUSH3 0x70B6 JUMP JUMPDEST SWAP2 POP POP SWAP3 SWAP2 POP POP JUMP JUMPDEST PUSH1 0x0 DUP1 PUSH1 0x0 DUP1 PUSH1 0x40 DUP6 DUP8 SUB SLT ISZERO PUSH3 0x7A6D JUMPI PUSH3 0x7A6C PUSH3 0x7005 JUMP JUMPDEST JUMPDEST PUSH1 0x0 DUP6 ADD CALLDATALOAD PUSH8 0xFFFFFFFFFFFFFFFF DUP2 GT ISZERO PUSH3 0x7A8E JUMPI PUSH3 0x7A8D PUSH3 0x700A JUMP JUMPDEST JUMPDEST PUSH3 0x7A9C DUP8 DUP3 DUP9 ADD PUSH3 0x75A6 JUMP JUMPDEST SWAP5 POP SWAP5 POP POP PUSH1 0x20 DUP6 ADD CALLDATALOAD PUSH8 0xFFFFFFFFFFFFFFFF DUP2 GT ISZERO PUSH3 0x7AC2 JUMPI PUSH3 0x7AC1 PUSH3 0x700A JUMP JUMPDEST JUMPDEST PUSH3 0x7AD0 DUP8 DUP3 DUP9 ADD PUSH3 0x73F6 JUMP JUMPDEST SWAP3 POP SWAP3 POP POP SWAP3 SWAP6 SWAP2 SWAP5 POP SWAP3 POP JUMP JUMPDEST PUSH1 0x0 DUP2 MLOAD SWAP1 POP SWAP2 SWAP1 POP JUMP JUMPDEST PUSH1 0x0 DUP3 DUP3 MSTORE PUSH1 0x20 DUP3 ADD SWAP1 POP SWAP3 SWAP2 POP POP JUMP JUMPDEST PUSH1 0x0 DUP2 SWAP1 POP PUSH1 0x20 DUP3 ADD SWAP1 POP SWAP2 SWAP1 POP JUMP JUMPDEST PUSH1 0x0 PUSH3 0x7B18 DUP4 DUP4 PUSH3 0x7686 JUMP JUMPDEST PUSH1 0x20 DUP4 ADD SWAP1 POP SWAP3 SWAP2 POP POP JUMP JUMPDEST PUSH1 0x0 PUSH1 0x20 DUP3 ADD SWAP1 POP SWAP2 SWAP1 POP JUMP JUMPDEST PUSH1 0x0 PUSH3 0x7B3E DUP3 PUSH3 0x7ADE JUMP JUMPDEST PUSH3 0x7B4A DUP2 DUP6 PUSH3 0x7AE9 JUMP JUMPDEST SWAP4 POP PUSH3 0x7B57 DUP4 PUSH3 0x7AFA JUMP JUMPDEST DUP1 PUSH1 0x0 JUMPDEST DUP4 DUP2 LT ISZERO PUSH3 0x7B8E JUMPI DUP2 MLOAD PUSH3 0x7B72 DUP9 DUP3 PUSH3 0x7B0A JUMP JUMPDEST SWAP8 POP PUSH3 0x7B7F DUP4 PUSH3 0x7B24 JUMP JUMPDEST SWAP3 POP POP PUSH1 0x1 DUP2 ADD SWAP1 POP PUSH3 0x7B5B JUMP JUMPDEST POP DUP6 SWAP4 POP POP POP POP SWAP3 SWAP2 POP POP JUMP JUMPDEST PUSH1 0x0 PUSH1 0x20 DUP3 ADD SWAP1 POP DUP2 DUP2 SUB PUSH1 0x0 DUP4 ADD MSTORE PUSH3 0x7BB7 DUP2 DUP5 PUSH3 0x7B31 JUMP JUMPDEST SWAP1 POP SWAP3 SWAP2 POP POP JUMP JUMPDEST PUSH3 0x7BCA DUP2 PUSH3 0x7088 JUMP JUMPDEST DUP3 MSTORE POP POP JUMP JUMPDEST PUSH1 0xE0 DUP3 ADD PUSH1 0x0 DUP3 ADD MLOAD PUSH3 0x7BE8 PUSH1 0x0 DUP6 ADD DUP3 PUSH3 0x7BBF JUMP JUMPDEST POP PUSH1 0x20 DUP3 ADD MLOAD PUSH3 0x7BFD PUSH1 0x20 DUP6 ADD DUP3 PUSH3 0x7686 JUMP JUMPDEST POP PUSH1 0x40 DUP3 ADD MLOAD PUSH3 0x7C12 PUSH1 0x40 DUP6 ADD DUP3 PUSH3 0x7686 JUMP JUMPDEST POP PUSH1 0x60 DUP3 ADD MLOAD PUSH3 0x7C27 PUSH1 0x60 DUP6 ADD DUP3 PUSH3 0x7686 JUMP JUMPDEST POP PUSH1 0x80 DUP3 ADD MLOAD PUSH3 0x7C3C PUSH1 0x80 DUP6 ADD DUP3 PUSH3 0x7686 JUMP JUMPDEST POP PUSH1 0xA0 DUP3 ADD MLOAD PUSH3 0x7C51 PUSH1 0xA0 DUP6 ADD DUP3 PUSH3 0x7686 JUMP JUMPDEST POP PUSH1 0xC0 DUP3 ADD MLOAD PUSH3 0x7C66 PUSH1 0xC0 DUP6 ADD DUP3 PUSH3 0x7686 JUMP JUMPDEST POP POP POP POP JUMP JUMPDEST PUSH1 0x0 PUSH1 0xE0 DUP3 ADD SWAP1 POP PUSH3 0x7C83 PUSH1 0x0 DUP4 ADD DUP5 PUSH3 0x7BD0 JUMP JUMPDEST SWAP3 SWAP2 POP POP JUMP JUMPDEST PUSH3 0x7C94 DUP2 PUSH3 0x720C JUMP JUMPDEST DUP2 EQ PUSH3 0x7CA0 JUMPI PUSH1 0x0 DUP1 REVERT JUMPDEST POP JUMP JUMPDEST PUSH1 0x0 DUP2 CALLDATALOAD SWAP1 POP PUSH3 0x7CB4 DUP2 PUSH3 0x7C89 JUMP JUMPDEST SWAP3 SWAP2 POP POP JUMP JUMPDEST PUSH1 0x0 DUP1 PUSH1 0x40 DUP4 DUP6 SUB SLT ISZERO PUSH3 0x7CD4 JUMPI PUSH3 0x7CD3 PUSH3 0x7005 JUMP JUMPDEST JUMPDEST PUSH1 0x0 PUSH3 0x7CE4 DUP6 DUP3 DUP7 ADD PUSH3 0x70B6 JUMP JUMPDEST SWAP3 POP POP PUSH1 0x20 PUSH3 0x7CF7 DUP6 DUP3 DUP7 ADD PUSH3 0x7CA3 JUMP JUMPDEST SWAP2 POP POP SWAP3 POP SWAP3 SWAP1 POP JUMP JUMPDEST PUSH1 0x0 DUP1 PUSH1 0x0 DUP1 PUSH1 0x0 DUP1 PUSH1 0xC0 DUP8 DUP10 SUB SLT ISZERO PUSH3 0x7D21 JUMPI PUSH3 0x7D20 PUSH3 0x7005 JUMP JUMPDEST JUMPDEST PUSH1 0x0 PUSH3 0x7D31 DUP10 DUP3 DUP11 ADD PUSH3 0x70B6 JUMP JUMPDEST SWAP7 POP POP PUSH1 0x20 PUSH3 0x7D44 DUP10 DUP3 DUP11 ADD PUSH3 0x70B6 JUMP JUMPDEST SWAP6 POP POP PUSH1 0x40 PUSH3 0x7D57 DUP10 DUP3 DUP11 ADD PUSH3 0x70F1 JUMP JUMPDEST SWAP5 POP POP PUSH1 0x60 PUSH3 0x7D6A DUP10 DUP3 DUP11 ADD PUSH3 0x70F1 JUMP JUMPDEST SWAP4 POP POP PUSH1 0x80 PUSH3 0x7D7D DUP10 DUP3 DUP11 ADD PUSH3 0x70F1 JUMP JUMPDEST SWAP3 POP POP PUSH1 0xA0 PUSH3 0x7D90 DUP10 DUP3 DUP11 ADD PUSH3 0x70B6 JUMP JUMPDEST SWAP2 POP POP SWAP3 SWAP6 POP SWAP3 SWAP6 POP SWAP3 SWAP6 JUMP JUMPDEST PUSH1 0x0 DUP1 DUP4 PUSH1 0x1F DUP5 ADD SLT PUSH3 0x7DB6 JUMPI PUSH3 0x7DB5 PUSH3 0x73E7 JUMP JUMPDEST JUMPDEST DUP3 CALLDATALOAD SWAP1 POP PUSH8 0xFFFFFFFFFFFFFFFF DUP2 GT ISZERO PUSH3 0x7DD6 JUMPI PUSH3 0x7DD5 PUSH3 0x73EC JUMP JUMPDEST JUMPDEST PUSH1 0x20 DUP4 ADD SWAP2 POP DUP4 PUSH1 0x1 DUP3 MUL DUP4 ADD GT ISZERO PUSH3 0x7DF5 JUMPI PUSH3 0x7DF4 PUSH3 0x73F1 JUMP JUMPDEST JUMPDEST SWAP3 POP SWAP3 SWAP1 POP JUMP JUMPDEST PUSH1 0x0 DUP1 PUSH1 0x20 DUP4 DUP6 SUB SLT ISZERO PUSH3 0x7E16 JUMPI PUSH3 0x7E15 PUSH3 0x7005 JUMP JUMPDEST JUMPDEST PUSH1 0x0 DUP4 ADD CALLDATALOAD PUSH8 0xFFFFFFFFFFFFFFFF DUP2 GT ISZERO PUSH3 0x7E37 JUMPI PUSH3 0x7E36 PUSH3 0x700A JUMP JUMPDEST JUMPDEST PUSH3 0x7E45 DUP6 DUP3 DUP7 ADD PUSH3 0x7D9D JUMP JUMPDEST SWAP3 POP SWAP3 POP POP SWAP3 POP SWAP3 SWAP1 POP JUMP JUMPDEST PUSH1 0x0 DUP1 PUSH1 0x40 DUP4 DUP6 SUB SLT ISZERO PUSH3 0x7E6B JUMPI PUSH3 0x7E6A PUSH3 0x7005 JUMP JUMPDEST JUMPDEST PUSH1 0x0 PUSH3 0x7E7B DUP6 DUP3 DUP7 ADD PUSH3 0x70B6 JUMP JUMPDEST SWAP3 POP POP PUSH1 0x20 PUSH3 0x7E8E DUP6 DUP3 DUP7 ADD PUSH3 0x70B6 JUMP JUMPDEST SWAP2 POP POP SWAP3 POP SWAP3 SWAP1 POP JUMP JUMPDEST PUSH1 0x0 DUP1 PUSH1 0x0 DUP1 PUSH1 0x0 PUSH1 0xA0 DUP7 DUP9 SUB SLT ISZERO PUSH3 0x7EB7 JUMPI PUSH3 0x7EB6 PUSH3 0x7005 JUMP JUMPDEST JUMPDEST PUSH1 0x0 PUSH3 0x7EC7 DUP9 DUP3 DUP10 ADD PUSH3 0x70B6 JUMP JUMPDEST SWAP6 POP POP PUSH1 0x20 PUSH3 0x7EDA DUP9 DUP3 DUP10 ADD PUSH3 0x70B6 JUMP JUMPDEST SWAP5 POP POP PUSH1 0x40 PUSH3 0x7EED DUP9 DUP3 DUP10 ADD PUSH3 0x70B6 JUMP JUMPDEST SWAP4 POP POP PUSH1 0x60 PUSH3 0x7F00 DUP9 DUP3 DUP10 ADD PUSH3 0x70B6 JUMP JUMPDEST SWAP3 POP POP PUSH1 0x80 PUSH3 0x7F13 DUP9 DUP3 DUP10 ADD PUSH3 0x70B6 JUMP JUMPDEST SWAP2 POP POP SWAP3 SWAP6 POP SWAP3 SWAP6 SWAP1 SWAP4 POP JUMP JUMPDEST PUSH1 0x0 DUP1 PUSH1 0x0 DUP1 PUSH1 0x0 DUP1 PUSH1 0xA0 DUP8 DUP10 SUB SLT ISZERO PUSH3 0x7F40 JUMPI PUSH3 0x7F3F PUSH3 0x7005 JUMP JUMPDEST JUMPDEST PUSH1 0x0 PUSH3 0x7F50 DUP10 DUP3 DUP11 ADD PUSH3 0x70B6 JUMP JUMPDEST SWAP7 POP POP PUSH1 0x20 PUSH3 0x7F63 DUP10 DUP3 DUP11 ADD PUSH3 0x70B6 JUMP JUMPDEST SWAP6 POP POP PUSH1 0x40 PUSH3 0x7F76 DUP10 DUP3 DUP11 ADD PUSH3 0x70F1 JUMP JUMPDEST SWAP5 POP POP PUSH1 0x60 PUSH3 0x7F89 DUP10 DUP3 DUP11 ADD PUSH3 0x70F1 JUMP JUMPDEST SWAP4 POP POP PUSH1 0x80 DUP8 ADD CALLDATALOAD PUSH8 0xFFFFFFFFFFFFFFFF DUP2 GT ISZERO PUSH3 0x7FAD JUMPI PUSH3 0x7FAC PUSH3 0x700A JUMP JUMPDEST JUMPDEST PUSH3 0x7FBB DUP10 DUP3 DUP11 ADD PUSH3 0x7455 JUMP JUMPDEST SWAP3 POP SWAP3 POP POP SWAP3 SWAP6 POP SWAP3 SWAP6 POP SWAP3 SWAP6 JUMP JUMPDEST PUSH32 0x4E487B7100000000000000000000000000000000000000000000000000000000 PUSH1 0x0 MSTORE PUSH1 0x11 PUSH1 0x4 MSTORE PUSH1 0x24 PUSH1 0x0 REVERT JUMPDEST PUSH1 0x0 PUSH3 0x8006 DUP3 PUSH3 0x70CD JUMP JUMPDEST SWAP2 POP PUSH3 0x8013 DUP4 PUSH3 0x70CD JUMP JUMPDEST SWAP3 POP DUP2 PUSH32 0xFFFFFFFFFFFFFFFFFFFFFFFFFFFFFFFFFFFFFFFFFFFFFFFFFFFFFFFFFFFFFFFF DIV DUP4 GT DUP3 ISZERO ISZERO AND ISZERO PUSH3 0x804F JUMPI PUSH3 0x804E PUSH3 0x7FCA JUMP JUMPDEST JUMPDEST DUP3 DUP3 MUL SWAP1 POP SWAP3 SWAP2 POP POP JUMP JUMPDEST PUSH1 0x0 DUP2 CALLDATALOAD PUSH3 0x8069 DUP2 PUSH3 0x709C JUMP JUMPDEST DUP1 SWAP2 POP POP SWAP2 SWAP1 POP JUMP JUMPDEST PUSH1 0x0 DUP2 PUSH1 0x0 SHL SWAP1 POP SWAP2 SWAP1 POP JUMP JUMPDEST PUSH1 0x0 PUSH20 0xFFFFFFFFFFFFFFFFFFFFFFFFFFFFFFFFFFFFFFFF PUSH3 0x80A1 DUP5 PUSH3 0x8072 JUMP JUMPDEST SWAP4 POP DUP1 NOT DUP4 AND SWAP3 POP DUP1 DUP5 AND DUP4 OR SWAP2 POP POP SWAP3 SWAP2 POP POP JUMP JUMPDEST PUSH1 0x0 DUP2 SWAP1 POP SWAP2 SWAP1 POP JUMP JUMPDEST PUSH1 0x0 PUSH3 0x80E2 PUSH3 0x80DC PUSH3 0x80D6 DUP5 PUSH3 0x7068 JUMP JUMPDEST PUSH3 0x80B7 JUMP JUMPDEST PUSH3 0x7068 JUMP JUMPDEST SWAP1 POP SWAP2 SWAP1 POP JUMP JUMPDEST PUSH1 0x0 PUSH3 0x80F6 DUP3 PUSH3 0x80C1 JUMP JUMPDEST SWAP1 POP SWAP2 SWAP1 POP JUMP JUMPDEST PUSH1 0x0 PUSH3 0x810A DUP3 PUSH3 0x80E9 JUMP JUMPDEST SWAP1 POP SWAP2 SWAP1 POP JUMP JUMPDEST PUSH1 0x0 DUP2 SWAP1 POP SWAP2 SWAP1 POP JUMP JUMPDEST PUSH3 0x8126 DUP3 PUSH3 0x80FD JUMP JUMPDEST PUSH3 0x813D PUSH3 0x8135 DUP3 PUSH3 0x8111 JUMP JUMPDEST DUP4 SLOAD PUSH3 0x807F JUMP JUMPDEST DUP3 SSTORE POP POP POP JUMP JUMPDEST PUSH1 0x0 DUP2 CALLDATALOAD PUSH3 0x8153 DUP2 PUSH3 0x70D7 JUMP JUMPDEST DUP1 SWAP2 POP POP SWAP2 SWAP1 POP JUMP JUMPDEST PUSH1 0x0 PUSH32 0xFFFFFFFFFFFFFFFFFFFFFFFFFFFFFFFFFFFFFFFFFFFFFFFFFFFFFFFFFFFFFFFF PUSH3 0x818A DUP5 PUSH3 0x8072 JUMP JUMPDEST SWAP4 POP DUP1 NOT DUP4 AND SWAP3 POP DUP1 DUP5 AND DUP4 OR SWAP2 POP POP SWAP3 SWAP2 POP POP JUMP JUMPDEST PUSH1 0x0 PUSH3 0x81C1 PUSH3 0x81BB PUSH3 0x81B5 DUP5 PUSH3 0x70CD JUMP JUMPDEST PUSH3 0x80B7 JUMP JUMPDEST PUSH3 0x70CD JUMP JUMPDEST SWAP1 POP SWAP2 SWAP1 POP JUMP JUMPDEST PUSH1 0x0 DUP2 SWAP1 POP SWAP2 SWAP1 POP JUMP JUMPDEST PUSH3 0x81DD DUP3 PUSH3 0x81A0 JUMP JUMPDEST PUSH3 0x81F4 PUSH3 0x81EC DUP3 PUSH3 0x81C8 JUMP JUMPDEST DUP4 SLOAD PUSH3 0x815C JUMP JUMPDEST DUP3 SSTORE POP POP POP JUMP JUMPDEST PUSH1 0x0 DUP2 ADD PUSH1 0x0 DUP4 ADD DUP1 PUSH3 0x820F DUP2 PUSH3 0x805A JUMP JUMPDEST SWAP1 POP PUSH3 0x821D DUP2 DUP5 PUSH3 0x811B JUMP JUMPDEST POP POP POP PUSH1 0x1 DUP2 ADD PUSH1 0x20 DUP4 ADD DUP1 PUSH3 0x8234 DUP2 PUSH3 0x8144 JUMP JUMPDEST SWAP1 POP PUSH3 0x8242 DUP2 DUP5 PUSH3 0x81D2 JUMP JUMPDEST POP POP POP PUSH1 0x2 DUP2 ADD PUSH1 0x40 DUP4 ADD DUP1 PUSH3 0x8259 DUP2 PUSH3 0x8144 JUMP JUMPDEST SWAP1 POP PUSH3 0x8267 DUP2 DUP5 PUSH3 0x81D2 JUMP JUMPDEST POP POP POP PUSH1 0x3 DUP2 ADD PUSH1 0x60 DUP4 ADD DUP1 PUSH3 0x827E DUP2 PUSH3 0x8144 JUMP JUMPDEST SWAP1 POP PUSH3 0x828C DUP2 DUP5 PUSH3 0x81D2 JUMP JUMPDEST POP POP POP PUSH1 0x4 DUP2 ADD PUSH1 0x80 DUP4 ADD DUP1 PUSH3 0x82A3 DUP2 PUSH3 0x8144 JUMP JUMPDEST SWAP1 POP PUSH3 0x82B1 DUP2 DUP5 PUSH3 0x81D2 JUMP JUMPDEST POP POP POP PUSH1 0x5 DUP2 ADD PUSH1 0xA0 DUP4 ADD DUP1 PUSH3 0x82C8 DUP2 PUSH3 0x8144 JUMP JUMPDEST SWAP1 POP PUSH3 0x82D6 DUP2 DUP5 PUSH3 0x81D2 JUMP JUMPDEST POP POP POP PUSH1 0x6 DUP2 ADD PUSH1 0xC0 DUP4 ADD DUP1 PUSH3 0x82ED DUP2 PUSH3 0x8144 JUMP JUMPDEST SWAP1 POP PUSH3 0x82FB DUP2 DUP5 PUSH3 0x81D2 JUMP JUMPDEST POP POP POP POP POP JUMP JUMPDEST PUSH3 0x830E DUP3 DUP3 PUSH3 0x81FB JUMP JUMPDEST POP POP JUMP JUMPDEST PUSH1 0x0 DUP2 MLOAD SWAP1 POP PUSH3 0x8323 DUP2 PUSH3 0x709C JUMP JUMPDEST SWAP3 SWAP2 POP POP JUMP JUMPDEST PUSH1 0x0 PUSH1 0x20 DUP3 DUP5 SUB SLT ISZERO PUSH3 0x8342 JUMPI PUSH3 0x8341 PUSH3 0x7005 JUMP JUMPDEST JUMPDEST PUSH1 0x0 PUSH3 0x8352 DUP5 DUP3 DUP6 ADD PUSH3 0x8312 JUMP JUMPDEST SWAP2 POP POP SWAP3 SWAP2 POP POP JUMP JUMPDEST PUSH32 0x4E487B7100000000000000000000000000000000000000000000000000000000 PUSH1 0x0 MSTORE PUSH1 0x22 PUSH1 0x4 MSTORE PUSH1 0x24 PUSH1 0x0 REVERT JUMPDEST PUSH1 0x0 PUSH1 0x2 DUP3 DIV SWAP1 POP PUSH1 0x1 DUP3 AND DUP1 PUSH3 0x83A3 JUMPI PUSH1 0x7F DUP3 AND SWAP2 POP JUMPDEST PUSH1 0x20 DUP3 LT DUP2 EQ ISZERO PUSH3 0x83BA JUMPI PUSH3 0x83B9 PUSH3 0x835B JUMP JUMPDEST JUMPDEST POP SWAP2 SWAP1 POP JUMP JUMPDEST PUSH1 0x0 DUP2 SWAP1 POP SWAP3 SWAP2 POP POP JUMP JUMPDEST PUSH1 0x0 DUP2 SWAP1 POP DUP2 PUSH1 0x0 MSTORE PUSH1 0x20 PUSH1 0x0 KECCAK256 SWAP1 POP SWAP2 SWAP1 POP JUMP JUMPDEST PUSH1 0x0 DUP2 SLOAD PUSH3 0x83EF DUP2 PUSH3 0x838A JUMP JUMPDEST PUSH3 0x83FB DUP2 DUP7 PUSH3 0x83C0 JUMP JUMPDEST SWAP5 POP PUSH1 0x1 DUP3 AND PUSH1 0x0 DUP2 EQ PUSH3 0x8419 JUMPI PUSH1 0x1 DUP2 EQ PUSH3 0x842B JUMPI PUSH3 0x8462 JUMP JUMPDEST PUSH1 0xFF NOT DUP4 AND DUP7 MSTORE DUP2 DUP7 ADD SWAP4 POP PUSH3 0x8462 JUMP JUMPDEST PUSH3 0x8436 DUP6 PUSH3 0x83CB JUMP JUMPDEST PUSH1 0x0 JUMPDEST DUP4 DUP2 LT ISZERO PUSH3 0x845A JUMPI DUP2 SLOAD DUP2 DUP10 ADD MSTORE PUSH1 0x1 DUP3 ADD SWAP2 POP PUSH1 0x20 DUP2 ADD SWAP1 POP PUSH3 0x8439 JUMP JUMPDEST DUP4 DUP9 ADD SWAP6 POP POP POP JUMPDEST POP POP POP SWAP3 SWAP2 POP POP JUMP JUMPDEST PUSH1 0x0 DUP2 SWAP1 POP SWAP2 SWAP1 POP JUMP JUMPDEST PUSH3 0x848A PUSH3 0x8484 DUP3 PUSH3 0x70CD JUMP JUMPDEST PUSH3 0x846B JUMP JUMPDEST DUP3 MSTORE POP POP JUMP JUMPDEST PUSH32 0x2E6A736F6E000000000000000000000000000000000000000000000000000000 PUSH1 0x0 DUP3 ADD MSTORE POP JUMP JUMPDEST PUSH1 0x0 PUSH3 0x84C8 PUSH1 0x5 DUP4 PUSH3 0x83C0 JUMP JUMPDEST SWAP2 POP PUSH3 0x84D5 DUP3 PUSH3 0x8490 JUMP JUMPDEST PUSH1 0x5 DUP3 ADD SWAP1 POP SWAP2 SWAP1 POP JUMP JUMPDEST PUSH1 0x0 PUSH3 0x84EE DUP3 DUP6 PUSH3 0x83E0 JUMP JUMPDEST SWAP2 POP PUSH3 0x84FC DUP3 DUP5 PUSH3 0x8475 JUMP JUMPDEST PUSH1 0x20 DUP3 ADD SWAP2 POP PUSH3 0x850D DUP3 PUSH3 0x84B9 JUMP JUMPDEST SWAP2 POP DUP2 SWAP1 POP SWAP4 SWAP3 POP POP POP JUMP JUMPDEST PUSH1 0x0 PUSH3 0x8526 DUP3 PUSH3 0x70CD JUMP JUMPDEST SWAP2 POP PUSH32 0xFFFFFFFFFFFFFFFFFFFFFFFFFFFFFFFFFFFFFFFFFFFFFFFFFFFFFFFFFFFFFFFF DUP3 EQ ISZERO PUSH3 0x855C JUMPI PUSH3 0x855B PUSH3 0x7FCA JUMP JUMPDEST JUMPDEST PUSH1 0x1 DUP3 ADD SWAP1 POP SWAP2 SWAP1 POP JUMP JUMPDEST PUSH1 0x0 PUSH3 0x8574 DUP3 PUSH3 0x70CD JUMP JUMPDEST SWAP2 POP PUSH3 0x8581 DUP4 PUSH3 0x70CD JUMP JUMPDEST SWAP3 POP DUP3 PUSH32 0xFFFFFFFFFFFFFFFFFFFFFFFFFFFFFFFFFFFFFFFFFFFFFFFFFFFFFFFFFFFFFFFF SUB DUP3 GT ISZERO PUSH3 0x85B9 JUMPI PUSH3 0x85B8 PUSH3 0x7FCA JUMP JUMPDEST JUMPDEST DUP3 DUP3 ADD SWAP1 POP SWAP3 SWAP2 POP POP JUMP JUMPDEST PUSH32 0x4E487B7100000000000000000000000000000000000000000000000000000000 PUSH1 0x0 MSTORE PUSH1 0x32 PUSH1 0x4 MSTORE PUSH1 0x24 PUSH1 0x0 REVERT JUMPDEST PUSH32 0x4300000000000000000000000000000000000000000000000000000000000000 PUSH1 0x0 DUP3 ADD MSTORE POP JUMP JUMPDEST PUSH1 0x0 PUSH3 0x862B PUSH1 0x1 DUP4 PUSH3 0x72B1 JUMP JUMPDEST SWAP2 POP PUSH3 0x8638 DUP3 PUSH3 0x85F3 JUMP JUMPDEST PUSH1 0x20 DUP3 ADD SWAP1 POP SWAP2 SWAP1 POP JUMP JUMPDEST PUSH1 0x0 PUSH1 0x20 DUP3 ADD SWAP1 POP DUP2 DUP2 SUB PUSH1 0x0 DUP4 ADD MSTORE PUSH3 0x865E DUP2 PUSH3 0x861C JUMP JUMPDEST SWAP1 POP SWAP2 SWAP1 POP JUMP JUMPDEST PUSH32 0x4400000000000000000000000000000000000000000000000000000000000000 PUSH1 0x0 DUP3 ADD MSTORE POP JUMP JUMPDEST PUSH1 0x0 PUSH3 0x869D PUSH1 0x1 DUP4 PUSH3 0x72B1 JUMP JUMPDEST SWAP2 POP PUSH3 0x86AA DUP3 PUSH3 0x8665 JUMP JUMPDEST PUSH1 0x20 DUP3 ADD SWAP1 POP SWAP2 SWAP1 POP JUMP JUMPDEST PUSH1 0x0 PUSH1 0x20 DUP3 ADD SWAP1 POP DUP2 DUP2 SUB PUSH1 0x0 DUP4 ADD MSTORE PUSH3 0x86D0 DUP2 PUSH3 0x868E JUMP JUMPDEST SWAP1 POP SWAP2 SWAP1 POP JUMP JUMPDEST PUSH1 0x0 PUSH3 0x86E4 DUP3 PUSH3 0x70CD JUMP JUMPDEST SWAP2 POP PUSH3 0x86F1 DUP4 PUSH3 0x70CD JUMP JUMPDEST SWAP3 POP DUP3 DUP3 LT ISZERO PUSH3 0x8707 JUMPI PUSH3 0x8706 PUSH3 0x7FCA JUMP JUMPDEST JUMPDEST DUP3 DUP3 SUB SWAP1 POP SWAP3 SWAP2 POP POP JUMP JUMPDEST PUSH32 0x4600000000000000000000000000000000000000000000000000000000000000 PUSH1 0x0 DUP3 ADD MSTORE POP JUMP JUMPDEST PUSH1 0x0 PUSH3 0x874A PUSH1 0x1 DUP4 PUSH3 0x72B1 JUMP JUMPDEST SWAP2 POP PUSH3 0x8757 DUP3 PUSH3 0x8712 JUMP JUMPDEST PUSH1 0x20 DUP3 ADD SWAP1 POP SWAP2 SWAP1 POP JUMP JUMPDEST PUSH1 0x0 PUSH1 0x20 DUP3 ADD SWAP1 POP DUP2 DUP2 SUB PUSH1 0x0 DUP4 ADD MSTORE PUSH3 0x877D DUP2 PUSH3 0x873B JUMP JUMPDEST SWAP1 POP SWAP2 SWAP1 POP JUMP JUMPDEST PUSH32 0x4E487B7100000000000000000000000000000000000000000000000000000000 PUSH1 0x0 MSTORE PUSH1 0x12 PUSH1 0x4 MSTORE PUSH1 0x24 PUSH1 0x0 REVERT JUMPDEST PUSH1 0x0 PUSH3 0x87C0 DUP3 PUSH3 0x70CD JUMP JUMPDEST SWAP2 POP PUSH3 0x87CD DUP4 PUSH3 0x70CD JUMP JUMPDEST SWAP3 POP DUP3 PUSH3 0x87E0 JUMPI PUSH3 0x87DF PUSH3 0x8784 JUMP JUMPDEST JUMPDEST DUP3 DUP3 DIV SWAP1 POP SWAP3 SWAP2 POP POP JUMP JUMPDEST PUSH1 0x0 PUSH1 0x40 DUP3 ADD SWAP1 POP PUSH3 0x8802 PUSH1 0x0 DUP4 ADD DUP6 PUSH3 0x7278 JUMP JUMPDEST PUSH3 0x8811 PUSH1 0x20 DUP4 ADD DUP5 PUSH3 0x714F JUMP JUMPDEST SWAP4 SWAP3 POP POP POP JUMP JUMPDEST PUSH1 0x0 PUSH1 0x80 DUP3 ADD SWAP1 POP PUSH3 0x882F PUSH1 0x0 DUP4 ADD DUP8 PUSH3 0x7278 JUMP JUMPDEST PUSH3 0x883E PUSH1 0x20 DUP4 ADD DUP7 PUSH3 0x714F JUMP JUMPDEST PUSH3 0x884D PUSH1 0x40 DUP4 ADD DUP6 PUSH3 0x714F JUMP JUMPDEST PUSH3 0x885C PUSH1 0x60 DUP4 ADD DUP5 PUSH3 0x714F JUMP JUMPDEST SWAP6 SWAP5 POP POP POP POP POP JUMP JUMPDEST PUSH1 0x0 PUSH3 0x8886 PUSH3 0x8880 PUSH3 0x887A DUP5 PUSH3 0x738D JUMP JUMPDEST PUSH3 0x80B7 JUMP JUMPDEST PUSH3 0x70CD JUMP JUMPDEST SWAP1 POP SWAP2 SWAP1 POP JUMP JUMPDEST PUSH3 0x8898 DUP2 PUSH3 0x8865 JUMP JUMPDEST DUP3 MSTORE POP POP JUMP JUMPDEST PUSH1 0x0 PUSH1 0x80 DUP3 ADD SWAP1 POP PUSH3 0x88B5 PUSH1 0x0 DUP4 ADD DUP8 PUSH3 0x7278 JUMP JUMPDEST PUSH3 0x88C4 PUSH1 0x20 DUP4 ADD DUP7 PUSH3 0x714F JUMP JUMPDEST PUSH3 0x88D3 PUSH1 0x40 DUP4 ADD DUP6 PUSH3 0x714F JUMP JUMPDEST PUSH3 0x88E2 PUSH1 0x60 DUP4 ADD DUP5 PUSH3 0x888D JUMP JUMPDEST SWAP6 SWAP5 POP POP POP POP POP JUMP JUMPDEST PUSH1 0x0 PUSH3 0x88F8 DUP3 PUSH3 0x738D JUMP JUMPDEST SWAP2 POP PUSH3 0x8905 DUP4 PUSH3 0x738D JUMP JUMPDEST SWAP3 POP DUP3 PUSH16 0xFFFFFFFFFFFFFFFFFFFFFFFFFFFFFFFF SUB DUP3 GT ISZERO PUSH3 0x892D JUMPI PUSH3 0x892C PUSH3 0x7FCA JUMP JUMPDEST JUMPDEST DUP3 DUP3 ADD SWAP1 POP SWAP3 SWAP2 POP POP JUMP JUMPDEST PUSH32 0x4800000000000000000000000000000000000000000000000000000000000000 PUSH1 0x0 DUP3 ADD MSTORE POP JUMP JUMPDEST PUSH1 0x0 PUSH3 0x8970 PUSH1 0x1 DUP4 PUSH3 0x72B1 JUMP JUMPDEST SWAP2 POP PUSH3 0x897D DUP3 PUSH3 0x8938 JUMP JUMPDEST PUSH1 0x20 DUP3 ADD SWAP1 POP SWAP2 SWAP1 POP JUMP JUMPDEST PUSH1 0x0 PUSH1 0x20 DUP3 ADD SWAP1 POP DUP2 DUP2 SUB PUSH1 0x0 DUP4 ADD MSTORE PUSH3 0x89A3 DUP2 PUSH3 0x8961 JUMP JUMPDEST SWAP1 POP SWAP2 SWAP1 POP JUMP JUMPDEST PUSH32 0x6900000000000000000000000000000000000000000000000000000000000000 PUSH1 0x0 DUP3 ADD MSTORE POP JUMP JUMPDEST PUSH1 0x0 PUSH3 0x89E2 PUSH1 0x1 DUP4 PUSH3 0x72B1 JUMP JUMPDEST SWAP2 POP PUSH3 0x89EF DUP3 PUSH3 0x89AA JUMP JUMPDEST PUSH1 0x20 DUP3 ADD SWAP1 POP SWAP2 SWAP1 POP JUMP JUMPDEST PUSH1 0x0 PUSH1 0x20 DUP3 ADD SWAP1 POP DUP2 DUP2 SUB PUSH1 0x0 DUP4 ADD MSTORE PUSH3 0x8A15 DUP2 PUSH3 0x89D3 JUMP JUMPDEST SWAP1 POP SWAP2 SWAP1 POP JUMP JUMPDEST PUSH32 0x4C00000000000000000000000000000000000000000000000000000000000000 PUSH1 0x0 DUP3 ADD MSTORE POP JUMP JUMPDEST PUSH1 0x0 PUSH3 0x8A54 PUSH1 0x1 DUP4 PUSH3 0x72B1 JUMP JUMPDEST SWAP2 POP PUSH3 0x8A61 DUP3 PUSH3 0x8A1C JUMP JUMPDEST PUSH1 0x20 DUP3 ADD SWAP1 POP SWAP2 SWAP1 POP JUMP JUMPDEST PUSH1 0x0 PUSH1 0x20 DUP3 ADD SWAP1 POP DUP2 DUP2 SUB PUSH1 0x0 DUP4 ADD MSTORE PUSH3 0x8A87 DUP2 PUSH3 0x8A45 JUMP JUMPDEST SWAP1 POP SWAP2 SWAP1 POP JUMP JUMPDEST PUSH1 0x0 PUSH3 0x8A9C DUP4 DUP6 PUSH3 0x83C0 JUMP JUMPDEST SWAP4 POP PUSH3 0x8AAB DUP4 DUP6 DUP5 PUSH3 0x783E JUMP JUMPDEST DUP3 DUP5 ADD SWAP1 POP SWAP4 SWAP3 POP POP POP JUMP JUMPDEST PUSH32 0x7B69647D2E6A736F6E0000000000000000000000000000000000000000000000 PUSH1 0x0 DUP3 ADD MSTORE POP JUMP JUMPDEST PUSH1 0x0 PUSH3 0x8AEF PUSH1 0x9 DUP4 PUSH3 0x83C0 JUMP JUMPDEST SWAP2 POP PUSH3 0x8AFC DUP3 PUSH3 0x8AB7 JUMP JUMPDEST PUSH1 0x9 DUP3 ADD SWAP1 POP SWAP2 SWAP1 POP JUMP JUMPDEST PUSH1 0x0 PUSH3 0x8B16 DUP3 DUP5 DUP7 PUSH3 0x8A8E JUMP JUMPDEST SWAP2 POP PUSH3 0x8B23 DUP3 PUSH3 0x8AE0 JUMP JUMPDEST SWAP2 POP DUP2 SWAP1 POP SWAP4 SWAP3 POP POP POP JUMP JUMPDEST PUSH32 0x4B00000000000000000000000000000000000000000000000000000000000000 PUSH1 0x0 DUP3 ADD MSTORE POP JUMP JUMPDEST PUSH1 0x0 PUSH3 0x8B67 PUSH1 0x1 DUP4 PUSH3 0x72B1 JUMP JUMPDEST SWAP2 POP PUSH3 0x8B74 DUP3 PUSH3 0x8B2F JUMP JUMPDEST PUSH1 0x20 DUP3 ADD SWAP1 POP SWAP2 SWAP1 POP JUMP JUMPDEST PUSH1 0x0 PUSH1 0x20 DUP3 ADD SWAP1 POP DUP2 DUP2 SUB PUSH1 0x0 DUP4 ADD MSTORE PUSH3 0x8B9A DUP2 PUSH3 0x8B58 JUMP JUMPDEST SWAP1 POP SWAP2 SWAP1 POP JUMP JUMPDEST PUSH32 0x4A00000000000000000000000000000000000000000000000000000000000000 PUSH1 0x0 DUP3 ADD MSTORE POP JUMP JUMPDEST PUSH1 0x0 PUSH3 0x8BD9 PUSH1 0x1 DUP4 PUSH3 0x72B1 JUMP JUMPDEST SWAP2 POP PUSH3 0x8BE6 DUP3 PUSH3 0x8BA1 JUMP JUMPDEST PUSH1 0x20 DUP3 ADD SWAP1 POP SWAP2 SWAP1 POP JUMP JUMPDEST PUSH1 0x0 PUSH1 0x20 DUP3 ADD SWAP1 POP DUP2 DUP2 SUB PUSH1 0x0 DUP4 ADD MSTORE PUSH3 0x8C0C DUP2 PUSH3 0x8BCA JUMP JUMPDEST SWAP1 POP SWAP2 SWAP1 POP JUMP JUMPDEST PUSH32 0x5500000000000000000000000000000000000000000000000000000000000000 PUSH1 0x0 DUP3 ADD MSTORE POP JUMP JUMPDEST PUSH1 0x0 PUSH3 0x8C4B PUSH1 0x1 DUP4 PUSH3 0x72B1 JUMP JUMPDEST SWAP2 POP PUSH3 0x8C58 DUP3 PUSH3 0x8C13 JUMP JUMPDEST PUSH1 0x20 DUP3 ADD SWAP1 POP SWAP2 SWAP1 POP JUMP JUMPDEST PUSH1 0x0 PUSH1 0x20 DUP3 ADD SWAP1 POP DUP2 DUP2 SUB PUSH1 0x0 DUP4 ADD MSTORE PUSH3 0x8C7E DUP2 PUSH3 0x8C3C JUMP JUMPDEST SWAP1 POP SWAP2 SWAP1 POP JUMP JUMPDEST PUSH1 0x0 DUP1 REVERT JUMPDEST PUSH1 0x0 PUSH3 0x8C98 DUP4 DUP6 PUSH3 0x7AE9 JUMP JUMPDEST SWAP4 POP PUSH32 0x7FFFFFFFFFFFFFFFFFFFFFFFFFFFFFFFFFFFFFFFFFFFFFFFFFFFFFFFFFFFFFF DUP4 GT ISZERO PUSH3 0x8CCE JUMPI PUSH3 0x8CCD PUSH3 0x8C85 JUMP JUMPDEST JUMPDEST PUSH1 0x20 DUP4 MUL SWAP3 POP PUSH3 0x8CE1 DUP4 DUP6 DUP5 PUSH3 0x783E JUMP JUMPDEST DUP3 DUP5 ADD SWAP1 POP SWAP4 SWAP3 POP POP POP JUMP JUMPDEST PUSH1 0x0 PUSH1 0x40 DUP3 ADD SWAP1 POP DUP2 DUP2 SUB PUSH1 0x0 DUP4 ADD MSTORE PUSH3 0x8D0A DUP2 DUP7 DUP9 PUSH3 0x8C8A JUMP JUMPDEST SWAP1 POP DUP2 DUP2 SUB PUSH1 0x20 DUP4 ADD MSTORE PUSH3 0x8D21 DUP2 DUP5 DUP7 PUSH3 0x8C8A JUMP JUMPDEST SWAP1 POP SWAP6 SWAP5 POP POP POP POP POP JUMP JUMPDEST PUSH32 0x6173640000000000000000000000000000000000000000000000000000000000 PUSH1 0x0 DUP3 ADD MSTORE POP JUMP JUMPDEST PUSH1 0x0 PUSH3 0x8D64 PUSH1 0x3 DUP4 PUSH3 0x72B1 JUMP JUMPDEST SWAP2 POP PUSH3 0x8D71 DUP3 PUSH3 0x8D2C JUMP JUMPDEST PUSH1 0x20 DUP3 ADD SWAP1 POP SWAP2 SWAP1 POP JUMP JUMPDEST PUSH1 0x0 PUSH1 0x20 DUP3 ADD SWAP1 POP DUP2 DUP2 SUB PUSH1 0x0 DUP4 ADD MSTORE PUSH3 0x8D97 DUP2 PUSH3 0x8D55 JUMP JUMPDEST SWAP1 POP SWAP2 SWAP1 POP JUMP JUMPDEST PUSH1 0x0 PUSH1 0x40 DUP3 ADD SWAP1 POP PUSH3 0x8DB5 PUSH1 0x0 DUP4 ADD DUP6 PUSH3 0x714F JUMP JUMPDEST PUSH3 0x8DC4 PUSH1 0x20 DUP4 ADD DUP5 PUSH3 0x714F JUMP JUMPDEST SWAP4 SWAP3 POP POP POP JUMP JUMPDEST PUSH1 0x0 PUSH1 0x60 DUP3 ADD SWAP1 POP PUSH3 0x8DE2 PUSH1 0x0 DUP4 ADD DUP7 PUSH3 0x7278 JUMP JUMPDEST PUSH3 0x8DF1 PUSH1 0x20 DUP4 ADD DUP6 PUSH3 0x7278 JUMP JUMPDEST PUSH3 0x8E00 PUSH1 0x40 DUP4 ADD DUP5 PUSH3 0x7218 JUMP JUMPDEST SWAP5 SWAP4 POP POP POP POP JUMP JUMPDEST PUSH32 0x3200000000000000000000000000000000000000000000000000000000000000 PUSH1 0x0 DUP3 ADD MSTORE POP JUMP JUMPDEST PUSH1 0x0 PUSH3 0x8E40 PUSH1 0x1 DUP4 PUSH3 0x72B1 JUMP JUMPDEST SWAP2 POP PUSH3 0x8E4D DUP3 PUSH3 0x8E08 JUMP JUMPDEST PUSH1 0x20 DUP3 ADD SWAP1 POP SWAP2 SWAP1 POP JUMP JUMPDEST PUSH1 0x0 PUSH1 0x20 DUP3 ADD SWAP1 POP DUP2 DUP2 SUB PUSH1 0x0 DUP4 ADD MSTORE PUSH3 0x8E73 DUP2 PUSH3 0x8E31 JUMP JUMPDEST SWAP1 POP SWAP2 SWAP1 POP JUMP JUMPDEST PUSH32 0x5A00000000000000000000000000000000000000000000000000000000000000 PUSH1 0x0 DUP3 ADD MSTORE POP JUMP JUMPDEST PUSH1 0x0 PUSH3 0x8EB2 PUSH1 0x1 DUP4 PUSH3 0x72B1 JUMP JUMPDEST SWAP2 POP PUSH3 0x8EBF DUP3 PUSH3 0x8E7A JUMP JUMPDEST PUSH1 0x20 DUP3 ADD SWAP1 POP SWAP2 SWAP1 POP JUMP JUMPDEST PUSH1 0x0 PUSH1 0x20 DUP3 ADD SWAP1 POP DUP2 DUP2 SUB PUSH1 0x0 DUP4 ADD MSTORE PUSH3 0x8EE5 DUP2 PUSH3 0x8EA3 JUMP JUMPDEST SWAP1 POP SWAP2 SWAP1 POP JUMP JUMPDEST PUSH32 0x3100000000000000000000000000000000000000000000000000000000000000 PUSH1 0x0 DUP3 ADD MSTORE POP JUMP JUMPDEST PUSH1 0x0 PUSH3 0x8F24 PUSH1 0x1 DUP4 PUSH3 0x72B1 JUMP JUMPDEST SWAP2 POP PUSH3 0x8F31 DUP3 PUSH3 0x8EEC JUMP JUMPDEST PUSH1 0x20 DUP3 ADD SWAP1 POP SWAP2 SWAP1 POP JUMP JUMPDEST PUSH1 0x0 PUSH1 0x20 DUP3 ADD SWAP1 POP DUP2 DUP2 SUB PUSH1 0x0 DUP4 ADD MSTORE PUSH3 0x8F57 DUP2 PUSH3 0x8F15 JUMP JUMPDEST SWAP1 POP SWAP2 SWAP1 POP JUMP JUMPDEST PUSH1 0x0 PUSH2 0x100 DUP3 ADD SWAP1 POP PUSH3 0x8F76 PUSH1 0x0 DUP4 ADD DUP12 PUSH3 0x7278 JUMP JUMPDEST PUSH3 0x8F85 PUSH1 0x20 DUP4 ADD DUP11 PUSH3 0x7278 JUMP JUMPDEST PUSH3 0x8F94 PUSH1 0x40 DUP4 ADD DUP10 PUSH3 0x714F JUMP JUMPDEST PUSH3 0x8FA3 PUSH1 0x60 DUP4 ADD DUP9 PUSH3 0x714F JUMP JUMPDEST PUSH3 0x8FB2 PUSH1 0x80 DUP4 ADD DUP8 PUSH3 0x714F JUMP JUMPDEST PUSH3 0x8FC1 PUSH1 0xA0 DUP4 ADD DUP7 PUSH3 0x714F JUMP JUMPDEST PUSH3 0x8FD0 PUSH1 0xC0 DUP4 ADD DUP6 PUSH3 0x714F JUMP JUMPDEST PUSH3 0x8FDF PUSH1 0xE0 DUP4 ADD DUP5 PUSH3 0x7278 JUMP JUMPDEST SWAP10 SWAP9 POP POP POP POP POP POP POP POP POP JUMP JUMPDEST PUSH1 0x0 DUP2 MLOAD SWAP1 POP SWAP2 SWAP1 POP JUMP JUMPDEST PUSH1 0x0 DUP3 DUP3 MSTORE PUSH1 0x20 DUP3 ADD SWAP1 POP SWAP3 SWAP2 POP POP JUMP JUMPDEST PUSH1 0x0 PUSH3 0x9015 DUP3 PUSH3 0x8FEC JUMP JUMPDEST PUSH3 0x9021 DUP2 DUP6 PUSH3 0x8FF7 JUMP JUMPDEST SWAP4 POP PUSH3 0x9033 DUP2 DUP6 PUSH1 0x20 DUP7 ADD PUSH3 0x72C2 JUMP JUMPDEST PUSH3 0x903E DUP2 PUSH3 0x72F8 JUMP JUMPDEST DUP5 ADD SWAP2 POP POP SWAP3 SWAP2 POP POP JUMP JUMPDEST PUSH1 0x0 PUSH1 0xA0 DUP3 ADD SWAP1 POP PUSH3 0x9060 PUSH1 0x0 DUP4 ADD DUP11 PUSH3 0x7278 JUMP JUMPDEST PUSH3 0x906F PUSH1 0x20 DUP4 ADD DUP10 PUSH3 0x7278 JUMP JUMPDEST DUP2 DUP2 SUB PUSH1 0x40 DUP4 ADD MSTORE PUSH3 0x9084 DUP2 DUP8 DUP10 PUSH3 0x8C8A JUMP JUMPDEST SWAP1 POP DUP2 DUP2 SUB PUSH1 0x60 DUP4 ADD MSTORE PUSH3 0x909B DUP2 DUP6 DUP8 PUSH3 0x8C8A JUMP JUMPDEST SWAP1 POP DUP2 DUP2 SUB PUSH1 0x80 DUP4 ADD MSTORE PUSH3 0x90B1 DUP2 DUP5 PUSH3 0x9008 JUMP JUMPDEST SWAP1 POP SWAP9 SWAP8 POP POP POP POP POP POP POP POP JUMP JUMPDEST PUSH1 0x0 DUP2 MLOAD SWAP1 POP PUSH3 0x90D0 DUP2 PUSH3 0x71A9 JUMP JUMPDEST SWAP3 SWAP2 POP POP JUMP JUMPDEST PUSH1 0x0 PUSH1 0x20 DUP3 DUP5 SUB SLT ISZERO PUSH3 0x90EF JUMPI PUSH3 0x90EE PUSH3 0x7005 JUMP JUMPDEST JUMPDEST PUSH1 0x0 PUSH3 0x90FF DUP5 DUP3 DUP6 ADD PUSH3 0x90BF JUMP JUMPDEST SWAP2 POP POP SWAP3 SWAP2 POP POP JUMP JUMPDEST PUSH1 0x0 DUP2 MLOAD SWAP1 POP PUSH3 0x9119 DUP2 PUSH3 0x70D7 JUMP JUMPDEST SWAP3 SWAP2 POP POP JUMP JUMPDEST PUSH1 0x0 PUSH1 0x20 DUP3 DUP5 SUB SLT ISZERO PUSH3 0x9138 JUMPI PUSH3 0x9137 PUSH3 0x7005 JUMP JUMPDEST JUMPDEST PUSH1 0x0 PUSH3 0x9148 DUP5 DUP3 DUP6 ADD PUSH3 0x9108 JUMP JUMPDEST SWAP2 POP POP SWAP3 SWAP2 POP POP JUMP JUMPDEST PUSH1 0x0 DUP2 SWAP1 POP SWAP3 SWAP2 POP POP JUMP JUMPDEST PUSH1 0x0 PUSH3 0x9169 DUP3 PUSH3 0x8FEC JUMP JUMPDEST PUSH3 0x9175 DUP2 DUP6 PUSH3 0x9151 JUMP JUMPDEST SWAP4 POP PUSH3 0x9187 DUP2 DUP6 PUSH1 0x20 DUP7 ADD PUSH3 0x72C2 JUMP JUMPDEST DUP1 DUP5 ADD SWAP2 POP POP SWAP3 SWAP2 POP POP JUMP JUMPDEST PUSH1 0x0 PUSH3 0x91A1 DUP3 DUP5 PUSH3 0x915C JUMP JUMPDEST SWAP2 POP DUP2 SWAP1 POP SWAP3 SWAP2 POP POP JUMP JUMPDEST PUSH1 0x0 PUSH1 0x60 DUP3 ADD SWAP1 POP PUSH3 0x91C3 PUSH1 0x0 DUP4 ADD DUP7 PUSH3 0x7278 JUMP JUMPDEST PUSH3 0x91D2 PUSH1 0x20 DUP4 ADD DUP6 PUSH3 0x7278 JUMP JUMPDEST PUSH3 0x91E1 PUSH1 0x40 DUP4 ADD DUP5 PUSH3 0x714F JUMP JUMPDEST SWAP5 SWAP4 POP POP POP POP JUMP JUMPDEST PUSH1 0x0 DUP2 MLOAD SWAP1 POP PUSH3 0x91FA DUP2 PUSH3 0x7C89 JUMP JUMPDEST SWAP3 SWAP2 POP POP JUMP JUMPDEST PUSH1 0x0 PUSH1 0x20 DUP3 DUP5 SUB SLT ISZERO PUSH3 0x9219 JUMPI PUSH3 0x9218 PUSH3 0x7005 JUMP JUMPDEST JUMPDEST PUSH1 0x0 PUSH3 0x9229 DUP5 DUP3 DUP6 ADD PUSH3 0x91E9 JUMP JUMPDEST SWAP2 POP POP SWAP3 SWAP2 POP POP JUMP JUMPDEST PUSH1 0x0 PUSH1 0xA0 DUP3 ADD SWAP1 POP PUSH3 0x9249 PUSH1 0x0 DUP4 ADD DUP9 PUSH3 0x7278 JUMP JUMPDEST PUSH3 0x9258 PUSH1 0x20 DUP4 ADD DUP8 PUSH3 0x7278 JUMP JUMPDEST PUSH3 0x9267 PUSH1 0x40 DUP4 ADD DUP7 PUSH3 0x714F JUMP JUMPDEST PUSH3 0x9276 PUSH1 0x60 DUP4 ADD DUP6 PUSH3 0x714F JUMP JUMPDEST DUP2 DUP2 SUB PUSH1 0x80 DUP4 ADD MSTORE PUSH3 0x928A DUP2 DUP5 PUSH3 0x9008 JUMP JUMPDEST SWAP1 POP SWAP7 SWAP6 POP POP POP POP POP POP JUMP INVALID PUSH1 0x80 PUSH1 0x40 MSTORE PUSH20 0x46E8E0AF862F636199AF69ACD082B9963066ED9C PUSH1 0x0 DUP1 PUSH2 0x100 EXP DUP2 SLOAD DUP2 PUSH20 0xFFFFFFFFFFFFFFFFFFFFFFFFFFFFFFFFFFFFFFFF MUL NOT AND SWAP1 DUP4 PUSH20 0xFFFFFFFFFFFFFFFFFFFFFFFFFFFFFFFFFFFFFFFF AND MUL OR SWAP1 SSTORE POP CALLVALUE DUP1 ISZERO PUSH2 0x64 JUMPI PUSH1 0x0 DUP1 REVERT JUMPDEST POP PUSH1 0x40 MLOAD PUSH2 0x89C CODESIZE SUB DUP1 PUSH2 0x89C DUP4 CODECOPY DUP2 DUP2 ADD PUSH1 0x40 MSTORE DUP2 ADD SWAP1 PUSH2 0x86 SWAP2 SWAP1 PUSH2 0x32F JUMP JUMPDEST DUP1 PUSH2 0x12B JUMPI DUP3 PUSH20 0xFFFFFFFFFFFFFFFFFFFFFFFFFFFFFFFFFFFFFFFF AND PUSH4 0x95EA7B3 CALLER PUSH32 0xFFFFFFFFFFFFFFFFFFFFFFFFFFFFFFFFFFFFFFFFFFFFFFFFFFFFFFFFFFFFFFFF PUSH1 0x40 MLOAD DUP4 PUSH4 0xFFFFFFFF AND PUSH1 0xE0 SHL DUP2 MSTORE PUSH1 0x4 ADD PUSH2 0xE6 SWAP3 SWAP2 SWAP1 PUSH2 0x3AA JUMP JUMPDEST PUSH1 0x20 PUSH1 0x40 MLOAD DUP1 DUP4 SUB DUP2 PUSH1 0x0 DUP8 GAS CALL ISZERO DUP1 ISZERO PUSH2 0x105 JUMPI RETURNDATASIZE PUSH1 0x0 DUP1 RETURNDATACOPY RETURNDATASIZE PUSH1 0x0 REVERT JUMPDEST POP POP POP POP PUSH1 0x40 MLOAD RETURNDATASIZE PUSH1 0x1F NOT PUSH1 0x1F DUP3 ADD AND DUP3 ADD DUP1 PUSH1 0x40 MSTORE POP DUP2 ADD SWAP1 PUSH2 0x129 SWAP2 SWAP1 PUSH2 0x3D3 JUMP JUMPDEST POP JUMPDEST DUP2 PUSH20 0xFFFFFFFFFFFFFFFFFFFFFFFFFFFFFFFFFFFFFFFF AND PUSH4 0x95EA7B3 CALLER PUSH32 0xFFFFFFFFFFFFFFFFFFFFFFFFFFFFFFFFFFFFFFFFFFFFFFFFFFFFFFFFFFFFFFFF PUSH1 0x40 MLOAD DUP4 PUSH4 0xFFFFFFFF AND PUSH1 0xE0 SHL DUP2 MSTORE PUSH1 0x4 ADD PUSH2 0x186 SWAP3 SWAP2 SWAP1 PUSH2 0x3AA JUMP JUMPDEST PUSH1 0x20 PUSH1 0x40 MLOAD DUP1 DUP4 SUB DUP2 PUSH1 0x0 DUP8 GAS CALL ISZERO DUP1 ISZERO PUSH2 0x1A5 JUMPI RETURNDATASIZE PUSH1 0x0 DUP1 RETURNDATACOPY RETURNDATASIZE PUSH1 0x0 REVERT JUMPDEST POP POP POP POP PUSH1 0x40 MLOAD RETURNDATASIZE PUSH1 0x1F NOT PUSH1 0x1F DUP3 ADD AND DUP3 ADD DUP1 PUSH1 0x40 MSTORE POP DUP2 ADD SWAP1 PUSH2 0x1C9 SWAP2 SWAP1 PUSH2 0x3D3 JUMP JUMPDEST POP DUP3 PUSH1 0x1 PUSH1 0x0 PUSH2 0x100 EXP DUP2 SLOAD DUP2 PUSH20 0xFFFFFFFFFFFFFFFFFFFFFFFFFFFFFFFFFFFFFFFF MUL NOT AND SWAP1 DUP4 PUSH20 0xFFFFFFFFFFFFFFFFFFFFFFFFFFFFFFFFFFFFFFFF AND MUL OR SWAP1 SSTORE POP DUP2 PUSH1 0x0 DUP1 PUSH2 0x100 EXP DUP2 SLOAD DUP2 PUSH20 0xFFFFFFFFFFFFFFFFFFFFFFFFFFFFFFFFFFFFFFFF MUL NOT AND SWAP1 DUP4 PUSH20 0xFFFFFFFFFFFFFFFFFFFFFFFFFFFFFFFFFFFFFFFF AND MUL OR SWAP1 SSTORE POP CALLER PUSH1 0x2 PUSH1 0x0 PUSH2 0x100 EXP DUP2 SLOAD DUP2 PUSH20 0xFFFFFFFFFFFFFFFFFFFFFFFFFFFFFFFFFFFFFFFF MUL NOT AND SWAP1 DUP4 PUSH20 0xFFFFFFFFFFFFFFFFFFFFFFFFFFFFFFFFFFFFFFFF AND MUL OR SWAP1 SSTORE POP POP POP POP PUSH2 0x400 JUMP JUMPDEST PUSH1 0x0 DUP1 REVERT JUMPDEST PUSH1 0x0 PUSH20 0xFFFFFFFFFFFFFFFFFFFFFFFFFFFFFFFFFFFFFFFF DUP3 AND SWAP1 POP SWAP2 SWAP1 POP JUMP JUMPDEST PUSH1 0x0 PUSH2 0x2C4 DUP3 PUSH2 0x299 JUMP JUMPDEST SWAP1 POP SWAP2 SWAP1 POP JUMP JUMPDEST PUSH2 0x2D4 DUP2 PUSH2 0x2B9 JUMP JUMPDEST DUP2 EQ PUSH2 0x2DF JUMPI PUSH1 0x0 DUP1 REVERT JUMPDEST POP JUMP JUMPDEST PUSH1 0x0 DUP2 MLOAD SWAP1 POP PUSH2 0x2F1 DUP2 PUSH2 0x2CB JUMP JUMPDEST SWAP3 SWAP2 POP POP JUMP JUMPDEST PUSH1 0x0 DUP2 ISZERO ISZERO SWAP1 POP SWAP2 SWAP1 POP JUMP JUMPDEST PUSH2 0x30C DUP2 PUSH2 0x2F7 JUMP JUMPDEST DUP2 EQ PUSH2 0x317 JUMPI PUSH1 0x0 DUP1 REVERT JUMPDEST POP JUMP JUMPDEST PUSH1 0x0 DUP2 MLOAD SWAP1 POP PUSH2 0x329 DUP2 PUSH2 0x303 JUMP JUMPDEST SWAP3 SWAP2 POP POP JUMP JUMPDEST PUSH1 0x0 DUP1 PUSH1 0x0 PUSH1 0x60 DUP5 DUP7 SUB SLT ISZERO PUSH2 0x348 JUMPI PUSH2 0x347 PUSH2 0x294 JUMP JUMPDEST JUMPDEST PUSH1 0x0 PUSH2 0x356 DUP7 DUP3 DUP8 ADD PUSH2 0x2E2 JUMP JUMPDEST SWAP4 POP POP PUSH1 0x20 PUSH2 0x367 DUP7 DUP3 DUP8 ADD PUSH2 0x2E2 JUMP JUMPDEST SWAP3 POP POP PUSH1 0x40 PUSH2 0x378 DUP7 DUP3 DUP8 ADD PUSH2 0x31A JUMP JUMPDEST SWAP2 POP POP SWAP3 POP SWAP3 POP SWAP3 JUMP JUMPDEST PUSH2 0x38B DUP2 PUSH2 0x2B9 JUMP JUMPDEST DUP3 MSTORE POP POP JUMP JUMPDEST PUSH1 0x0 DUP2 SWAP1 POP SWAP2 SWAP1 POP JUMP JUMPDEST PUSH2 0x3A4 DUP2 PUSH2 0x391 JUMP JUMPDEST DUP3 MSTORE POP POP JUMP JUMPDEST PUSH1 0x0 PUSH1 0x40 DUP3 ADD SWAP1 POP PUSH2 0x3BF PUSH1 0x0 DUP4 ADD DUP6 PUSH2 0x382 JUMP JUMPDEST PUSH2 0x3CC PUSH1 0x20 DUP4 ADD DUP5 PUSH2 0x39B JUMP JUMPDEST SWAP4 SWAP3 POP POP POP JUMP JUMPDEST PUSH1 0x0 PUSH1 0x20 DUP3 DUP5 SUB SLT ISZERO PUSH2 0x3E9 JUMPI PUSH2 0x3E8 PUSH2 0x294 JUMP JUMPDEST JUMPDEST PUSH1 0x0 PUSH2 0x3F7 DUP5 DUP3 DUP6 ADD PUSH2 0x31A JUMP JUMPDEST SWAP2 POP POP SWAP3 SWAP2 POP POP JUMP JUMPDEST PUSH2 0x48D DUP1 PUSH2 0x40F PUSH1 0x0 CODECOPY PUSH1 0x0 RETURN INVALID PUSH1 0x80 PUSH1 0x40 MSTORE PUSH1 0x4 CALLDATASIZE LT PUSH2 0x38 JUMPI PUSH1 0x0 CALLDATALOAD PUSH1 0xE0 SHR DUP1 PUSH4 0xDFE1681 EQ PUSH2 0x44 JUMPI DUP1 PUSH4 0x1B9A91A4 EQ PUSH2 0x6F JUMPI DUP1 PUSH4 0xD21220A7 EQ PUSH2 0x98 JUMPI PUSH2 0x3F JUMP JUMPDEST CALLDATASIZE PUSH2 0x3F JUMPI STOP JUMPDEST PUSH1 0x0 DUP1 REVERT JUMPDEST CALLVALUE DUP1 ISZERO PUSH2 0x50 JUMPI PUSH1 0x0 DUP1 REVERT JUMPDEST POP PUSH2 0x59 PUSH2 0xC3 JUMP JUMPDEST PUSH1 0x40 MLOAD PUSH2 0x66 SWAP2 SWAP1 PUSH2 0x2D5 JUMP JUMPDEST PUSH1 0x40 MLOAD DUP1 SWAP2 SUB SWAP1 RETURN JUMPDEST CALLVALUE DUP1 ISZERO PUSH2 0x7B JUMPI PUSH1 0x0 DUP1 REVERT JUMPDEST POP PUSH2 0x96 PUSH1 0x4 DUP1 CALLDATASIZE SUB DUP2 ADD SWAP1 PUSH2 0x91 SWAP2 SWAP1 PUSH2 0x357 JUMP JUMPDEST PUSH2 0xED JUMP JUMPDEST STOP JUMPDEST CALLVALUE DUP1 ISZERO PUSH2 0xA4 JUMPI PUSH1 0x0 DUP1 REVERT JUMPDEST POP PUSH2 0xAD PUSH2 0x26B JUMP JUMPDEST PUSH1 0x40 MLOAD PUSH2 0xBA SWAP2 SWAP1 PUSH2 0x2D5 JUMP JUMPDEST PUSH1 0x40 MLOAD DUP1 SWAP2 SUB SWAP1 RETURN JUMPDEST PUSH1 0x0 PUSH1 0x1 PUSH1 0x0 SWAP1 SLOAD SWAP1 PUSH2 0x100 EXP SWAP1 DIV PUSH20 0xFFFFFFFFFFFFFFFFFFFFFFFFFFFFFFFFFFFFFFFF AND SWAP1 POP SWAP1 JUMP JUMPDEST PUSH1 0x2 PUSH1 0x0 SWAP1 SLOAD SWAP1 PUSH2 0x100 EXP SWAP1 DIV PUSH20 0xFFFFFFFFFFFFFFFFFFFFFFFFFFFFFFFFFFFFFFFF AND PUSH20 0xFFFFFFFFFFFFFFFFFFFFFFFFFFFFFFFFFFFFFFFF AND CALLER PUSH20 0xFFFFFFFFFFFFFFFFFFFFFFFFFFFFFFFFFFFFFFFF AND EQ PUSH2 0x174 JUMPI PUSH1 0x40 MLOAD PUSH32 0xAB243E4900000000000000000000000000000000000000000000000000000000 DUP2 MSTORE PUSH1 0x4 ADD PUSH1 0x40 MLOAD DUP1 SWAP2 SUB SWAP1 REVERT JUMPDEST PUSH1 0x0 DUP3 PUSH20 0xFFFFFFFFFFFFFFFFFFFFFFFFFFFFFFFFFFFFFFFF AND DUP3 PUSH1 0x0 PUSH8 0xFFFFFFFFFFFFFFFF DUP2 GT ISZERO PUSH2 0x1A9 JUMPI PUSH2 0x1A8 PUSH2 0x397 JUMP JUMPDEST JUMPDEST PUSH1 0x40 MLOAD SWAP1 DUP1 DUP3 MSTORE DUP1 PUSH1 0x1F ADD PUSH1 0x1F NOT AND PUSH1 0x20 ADD DUP3 ADD PUSH1 0x40 MSTORE DUP1 ISZERO PUSH2 0x1DB JUMPI DUP2 PUSH1 0x20 ADD PUSH1 0x1 DUP3 MUL DUP1 CALLDATASIZE DUP4 CALLDATACOPY DUP1 DUP3 ADD SWAP2 POP POP SWAP1 POP JUMPDEST POP PUSH1 0x40 MLOAD PUSH2 0x1E9 SWAP2 SWAP1 PUSH2 0x440 JUMP JUMPDEST PUSH1 0x0 PUSH1 0x40 MLOAD DUP1 DUP4 SUB DUP2 DUP6 DUP8 GAS CALL SWAP3 POP POP POP RETURNDATASIZE DUP1 PUSH1 0x0 DUP2 EQ PUSH2 0x226 JUMPI PUSH1 0x40 MLOAD SWAP2 POP PUSH1 0x1F NOT PUSH1 0x3F RETURNDATASIZE ADD AND DUP3 ADD PUSH1 0x40 MSTORE RETURNDATASIZE DUP3 MSTORE RETURNDATASIZE PUSH1 0x0 PUSH1 0x20 DUP5 ADD RETURNDATACOPY PUSH2 0x22B JUMP JUMPDEST PUSH1 0x60 SWAP2 POP JUMPDEST POP POP SWAP1 POP DUP1 PUSH2 0x266 JUMPI PUSH1 0x40 MLOAD PUSH32 0x5AECCF6B00000000000000000000000000000000000000000000000000000000 DUP2 MSTORE PUSH1 0x4 ADD PUSH1 0x40 MLOAD DUP1 SWAP2 SUB SWAP1 REVERT JUMPDEST POP POP POP JUMP JUMPDEST PUSH1 0x0 DUP1 PUSH1 0x0 SWAP1 SLOAD SWAP1 PUSH2 0x100 EXP SWAP1 DIV PUSH20 0xFFFFFFFFFFFFFFFFFFFFFFFFFFFFFFFFFFFFFFFF AND SWAP1 POP SWAP1 JUMP JUMPDEST PUSH1 0x0 PUSH20 0xFFFFFFFFFFFFFFFFFFFFFFFFFFFFFFFFFFFFFFFF DUP3 AND SWAP1 POP SWAP2 SWAP1 POP JUMP JUMPDEST PUSH1 0x0 PUSH2 0x2BF DUP3 PUSH2 0x294 JUMP JUMPDEST SWAP1 POP SWAP2 SWAP1 POP JUMP JUMPDEST PUSH2 0x2CF DUP2 PUSH2 0x2B4 JUMP JUMPDEST DUP3 MSTORE POP POP JUMP JUMPDEST PUSH1 0x0 PUSH1 0x20 DUP3 ADD SWAP1 POP PUSH2 0x2EA PUSH1 0x0 DUP4 ADD DUP5 PUSH2 0x2C6 JUMP JUMPDEST SWAP3 SWAP2 POP POP JUMP JUMPDEST PUSH1 0x0 DUP1 REVERT JUMPDEST PUSH2 0x2FE DUP2 PUSH2 0x2B4 JUMP JUMPDEST DUP2 EQ PUSH2 0x309 JUMPI PUSH1 0x0 DUP1 REVERT JUMPDEST POP JUMP JUMPDEST PUSH1 0x0 DUP2 CALLDATALOAD SWAP1 POP PUSH2 0x31B DUP2 PUSH2 0x2F5 JUMP JUMPDEST SWAP3 SWAP2 POP POP JUMP JUMPDEST PUSH1 0x0 DUP2 SWAP1 POP SWAP2 SWAP1 POP JUMP JUMPDEST PUSH2 0x334 DUP2 PUSH2 0x321 JUMP JUMPDEST DUP2 EQ PUSH2 0x33F JUMPI PUSH1 0x0 DUP1 REVERT JUMPDEST POP JUMP JUMPDEST PUSH1 0x0 DUP2 CALLDATALOAD SWAP1 POP PUSH2 0x351 DUP2 PUSH2 0x32B JUMP JUMPDEST SWAP3 SWAP2 POP POP JUMP JUMPDEST PUSH1 0x0 DUP1 PUSH1 0x40 DUP4 DUP6 SUB SLT ISZERO PUSH2 0x36E JUMPI PUSH2 0x36D PUSH2 0x2F0 JUMP JUMPDEST JUMPDEST PUSH1 0x0 PUSH2 0x37C DUP6 DUP3 DUP7 ADD PUSH2 0x30C JUMP JUMPDEST SWAP3 POP POP PUSH1 0x20 PUSH2 0x38D DUP6 DUP3 DUP7 ADD PUSH2 0x342 JUMP JUMPDEST SWAP2 POP POP SWAP3 POP SWAP3 SWAP1 POP JUMP JUMPDEST PUSH32 0x4E487B7100000000000000000000000000000000000000000000000000000000 PUSH1 0x0 MSTORE PUSH1 0x41 PUSH1 0x4 MSTORE PUSH1 0x24 PUSH1 0x0 REVERT JUMPDEST PUSH1 0x0 DUP2 MLOAD SWAP1 POP SWAP2 SWAP1 POP JUMP JUMPDEST PUSH1 0x0 DUP2 SWAP1 POP SWAP3 SWAP2 POP POP JUMP JUMPDEST PUSH1 0x0 JUMPDEST DUP4 DUP2 LT ISZERO PUSH2 0x3FA JUMPI DUP1 DUP3 ADD MLOAD DUP2 DUP5 ADD MSTORE PUSH1 0x20 DUP2 ADD SWAP1 POP PUSH2 0x3DF JUMP JUMPDEST DUP4 DUP2 GT ISZERO PUSH2 0x409 JUMPI PUSH1 0x0 DUP5 DUP5 ADD MSTORE JUMPDEST POP POP POP POP JUMP JUMPDEST PUSH1 0x0 PUSH2 0x41A DUP3 PUSH2 0x3C6 JUMP JUMPDEST PUSH2 0x424 DUP2 DUP6 PUSH2 0x3D1 JUMP JUMPDEST SWAP4 POP PUSH2 0x434 DUP2 DUP6 PUSH1 0x20 DUP7 ADD PUSH2 0x3DC JUMP JUMPDEST DUP1 DUP5 ADD SWAP2 POP POP SWAP3 SWAP2 POP POP JUMP JUMPDEST PUSH1 0x0 PUSH2 0x44C DUP3 DUP5 PUSH2 0x40F JUMP JUMPDEST SWAP2 POP DUP2 SWAP1 POP SWAP3 SWAP2 POP POP JUMP INVALID LOG2 PUSH5 0x6970667358 0x22 SLT KECCAK256 MSTORE 0xAD 0xD0 0xBF CODECOPY SWAP12 0xEC SWAP11 0x5D JUMPI 0xAE CODESIZE PUSH12 0xE56B68B57D3465275986408E LOG4 DUP3 PUSH11 0x2DF58BC664736F6C634300 ADDMOD SIGNEXTEND STOP CALLER LOG2 PUSH5 0x6970667358 0x22 SLT KECCAK256 PUSH9 0x84ADD8E50AA9EA04C1 KECCAK256 0xB7 0xEE DUP2 0xE3 POP 0x2C 0x27 SGT 0xB6 0xB2 0xA8 DUP7 CODECOPY DUP16 DUP16 PUSH17 0x93A023B9F164736F6C634300080B003368 PUSH21 0x7470733A2F2F646174612E63657262792E66692F43 PUSH6 0x726279537761 PUSH17 0x2F76312F00000000000000000000000000 "
		},
		"gasEstimates": {
			"creation": {
				"codeDepositCost": "7956800",
				"executionCost": "infinite",
				"totalCost": "infinite"
			},
			"external": {
				"addTokenLiquidity(address,uint256,uint256,address)": "infinite",
				"adminChangeCerUsdCreditInPool(address,uint256)": "infinite",
				"adminCreatePool(address,uint256,uint256,address)": "infinite",
				"adminInitialize()": "infinite",
				"adminSetURI(string)": "infinite",
				"adminUpdateFeesAndTvlMultipliers((address,uint256,uint256,uint256,uint256,uint256,uint256))": "infinite",
				"adminUpdateNameAndSymbol(string,string)": "infinite",
				"balanceOf(address,uint256)": "infinite",
				"balanceOfBatch(address[],uint256[])": "infinite",
				"createPool(address,uint256,uint256,address)": "infinite",
				"decimals()": "383",
				"exists(uint256)": "2881",
				"getCurrentOneMinusFeeBasedOnTrades(address)": "infinite",
				"getInputTokensForExactTokens(address,address,uint256)": "infinite",
				"getOutputExactTokensForTokens(address,address,uint256)": "infinite",
				"getPoolsByTokens(address[])": "infinite",
				"getSettings()": "infinite",
				"getTokenToPoolId(address)": "2952",
				"getUtilsContractAtPos(uint256)": "infinite",
				"hourlyCache(address,uint256)": "5522",
				"increaseCerUsdCreditInPool(address,uint256)": "infinite",
				"isApprovedForAll(address,address)": "infinite",
				"name()": "infinite",
				"owner()": "2656",
				"removeTokenLiquidity(address,uint256,uint256,address)": "infinite",
				"renounceOwnership()": "30472",
				"safeBatchTransferFrom(address,address,uint256[],uint256[],bytes)": "infinite",
				"safeTransferFrom(address,address,uint256,uint256,bytes)": "infinite",
				"setApprovalForAll(address,bool)": "infinite",
				"supportsInterface(bytes4)": "729",
				"swapExactTokensForTokens(address,address,uint256,uint256,uint256,address)": "infinite",
				"swapTokensForExactTokens(address,address,uint256,uint256,uint256,address)": "infinite",
				"symbol()": "infinite",
				"testInit()": "infinite",
				"testSetupTokens(address,address,address,address,address)": "infinite",
				"totalSupply()": "infinite",
				"totalSupply(uint256)": "infinite",
				"transferOwnership(address)": "30798",
				"uri(uint256)": "infinite"
			}
		},
		"methodIdentifiers": {
			"addTokenLiquidity(address,uint256,uint256,address)": "43fefad4",
			"adminChangeCerUsdCreditInPool(address,uint256)": "cab4ba82",
			"adminCreatePool(address,uint256,uint256,address)": "d5d60737",
			"adminInitialize()": "c09c923b",
			"adminSetURI(string)": "a7fd40bf",
			"adminUpdateFeesAndTvlMultipliers((address,uint256,uint256,uint256,uint256,uint256,uint256))": "003374b5",
			"adminUpdateNameAndSymbol(string,string)": "3935ac11",
			"balanceOf(address,uint256)": "00fdd58e",
			"balanceOfBatch(address[],uint256[])": "4e1273f4",
			"createPool(address,uint256,uint256,address)": "842980f4",
			"decimals()": "313ce567",
			"exists(uint256)": "4f558e79",
			"getCurrentOneMinusFeeBasedOnTrades(address)": "4c3c0eb2",
			"getInputTokensForExactTokens(address,address,uint256)": "c790985a",
			"getOutputExactTokensForTokens(address,address,uint256)": "48b08d62",
			"getPoolsByTokens(address[])": "34e150ab",
			"getSettings()": "85b4bb53",
			"getTokenToPoolId(address)": "61417516",
			"getUtilsContractAtPos(uint256)": "06fb1a07",
			"hourlyCache(address,uint256)": "1f06f4b5",
			"increaseCerUsdCreditInPool(address,uint256)": "71858049",
			"isApprovedForAll(address,address)": "e985e9c5",
			"name()": "06fdde03",
			"owner()": "8da5cb5b",
			"removeTokenLiquidity(address,uint256,uint256,address)": "74fcf071",
			"renounceOwnership()": "715018a6",
			"safeBatchTransferFrom(address,address,uint256[],uint256[],bytes)": "2eb2c2d6",
			"safeTransferFrom(address,address,uint256,uint256,bytes)": "f242432a",
			"setApprovalForAll(address,bool)": "a22cb465",
			"supportsInterface(bytes4)": "01ffc9a7",
			"swapExactTokensForTokens(address,address,uint256,uint256,uint256,address)": "a60c6e55",
			"swapTokensForExactTokens(address,address,uint256,uint256,uint256,address)": "f6524724",
			"symbol()": "95d89b41",
			"testInit()": "b5d11e99",
			"testSetupTokens(address,address,address,address,address)": "eca01093",
			"totalSupply()": "18160ddd",
			"totalSupply(uint256)": "bd85b039",
			"transferOwnership(address)": "f2fde38b",
			"uri(uint256)": "0e89341c"
		}
	},
	"abi": [
		{
			"inputs": [],
			"stateMutability": "nonpayable",
			"type": "constructor"
		},
		{
			"inputs": [],
			"name": "CerbyCronJobsExecution_TransactionsAreTemporarilyDisabled",
			"type": "error"
		},
		{
			"inputs": [],
			"name": "CerbySwapLP1155V1_CallerIsNotOwnerNorApproved",
			"type": "error"
		},
		{
			"inputs": [],
			"name": "CerbySwapLP1155V1_TransactionsAreTemporarilyDisabled",
			"type": "error"
		},
		{
			"inputs": [],
			"name": "CerbySwapV1_AmountOfCerUsdMustBeLargerThanOne",
			"type": "error"
		},
		{
			"inputs": [],
			"name": "CerbySwapV1_AmountOfCerUsdOrTokensInMustBeLargerThanOne",
			"type": "error"
		},
		{
			"inputs": [],
			"name": "CerbySwapV1_AmountOfTokensMustBeLargerThanOne",
			"type": "error"
		},
		{
			"inputs": [],
			"name": "CerbySwapV1_CreditCerUsdIsOverflown",
			"type": "error"
		},
		{
			"inputs": [],
			"name": "CerbySwapV1_CreditCerUsdMustNotBeBelowZero",
			"type": "error"
		},
		{
			"inputs": [],
			"name": "CerbySwapV1_FeeIsWrong",
			"type": "error"
		},
		{
			"inputs": [],
			"name": "CerbySwapV1_FeeOnTransferTokensArentSupported",
			"type": "error"
		},
		{
			"inputs": [],
			"name": "CerbySwapV1_InputCerUsdAmountIsLargerThanMaximumSpecified",
			"type": "error"
		},
		{
			"inputs": [],
			"name": "CerbySwapV1_InputTokensAmountIsLargerThanMaximumSpecified",
			"type": "error"
		},
		{
			"inputs": [],
			"name": "CerbySwapV1_InvariantKValueMustBeSameOrIncreasedOnAnySwaps",
			"type": "error"
		},
		{
			"inputs": [],
			"name": "CerbySwapV1_MintFeeMultiplierMustNotBeLargerThan50Percent",
			"type": "error"
		},
		{
			"inputs": [],
			"name": "CerbySwapV1_MsgValueProvidedMustBeLargerThanAmountTokensIn",
			"type": "error"
		},
		{
			"inputs": [],
			"name": "CerbySwapV1_MsgValueProvidedMustBeZero",
			"type": "error"
		},
		{
			"inputs": [],
			"name": "CerbySwapV1_OutputCerUsdAmountIsLowerThanMinimumSpecified",
			"type": "error"
		},
		{
			"inputs": [],
			"name": "CerbySwapV1_OutputTokensAmountIsLowerThanMinimumSpecified",
			"type": "error"
		},
		{
			"inputs": [],
			"name": "CerbySwapV1_SafeTransferFromFailed",
			"type": "error"
		},
		{
			"inputs": [],
			"name": "CerbySwapV1_SafeTransferNativeFailed",
			"type": "error"
		},
		{
			"inputs": [],
			"name": "CerbySwapV1_SafeTransferTokensFailed",
			"type": "error"
		},
		{
			"inputs": [],
			"name": "CerbySwapV1_SwappingTokenToSameTokenIsForbidden",
			"type": "error"
		},
		{
			"inputs": [],
			"name": "CerbySwapV1_TokenAlreadyExists",
			"type": "error"
		},
		{
			"inputs": [],
			"name": "CerbySwapV1_TokenDoesNotExist",
			"type": "error"
		},
		{
			"inputs": [],
			"name": "CerbySwapV1_TransactionIsExpired",
			"type": "error"
		},
		{
			"inputs": [],
			"name": "CerbySwapV1_TvlMultiplierIsWrong",
			"type": "error"
		},
		{
			"inputs": [],
			"name": "ERC1155_AccountsAndIdsLengthMismatch",
			"type": "error"
		},
		{
			"inputs": [],
			"name": "ERC1155_BalanceQueryForTheZeroAddress",
			"type": "error"
		},
		{
			"inputs": [],
			"name": "ERC1155_BurnAmountExceedsBalance",
			"type": "error"
		},
		{
			"inputs": [],
			"name": "ERC1155_BurnFromZeroAddress",
			"type": "error"
		},
		{
			"inputs": [],
			"name": "ERC1155_ERC1155ReceiverRejectsTokens",
			"type": "error"
		},
		{
			"inputs": [],
			"name": "ERC1155_IdsAndAmountsLengthMismatch",
			"type": "error"
		},
		{
			"inputs": [],
			"name": "ERC1155_InsufficientBalanceForTransfer",
			"type": "error"
		},
		{
			"inputs": [],
			"name": "ERC1155_MintToZeroAddress",
			"type": "error"
		},
		{
			"inputs": [],
			"name": "ERC1155_SettingApprovalStatusForSelf",
			"type": "error"
		},
		{
			"inputs": [],
			"name": "ERC1155_TransferToNonERC1155ReceiverImplementer",
			"type": "error"
		},
		{
			"inputs": [],
			"name": "ERC1155_TransferToZeroAddress",
			"type": "error"
		},
		{
			"inputs": [],
			"name": "Ownable_CallerIsNotOwner",
			"type": "error"
		},
		{
			"inputs": [],
			"name": "Ownable_NewOwnerIsNotTheZeroAddress",
			"type": "error"
		},
		{
			"anonymous": false,
			"inputs": [
				{
					"indexed": true,
					"internalType": "address",
					"name": "account",
					"type": "address"
				},
				{
					"indexed": true,
					"internalType": "address",
					"name": "operator",
					"type": "address"
				},
				{
					"indexed": false,
					"internalType": "bool",
					"name": "approved",
					"type": "bool"
				}
			],
			"name": "ApprovalForAll",
			"type": "event"
		},
		{
			"anonymous": false,
			"inputs": [
				{
					"indexed": false,
					"internalType": "address",
					"name": "_token",
					"type": "address"
				},
				{
					"indexed": false,
					"internalType": "uint256",
					"name": "_amountTokensIn",
					"type": "uint256"
				},
				{
					"indexed": false,
					"internalType": "uint256",
					"name": "_amountCerUsdToMint",
					"type": "uint256"
				},
				{
					"indexed": false,
					"internalType": "uint256",
					"name": "_lpAmount",
					"type": "uint256"
				}
			],
			"name": "LiquidityAdded",
			"type": "event"
		},
		{
			"anonymous": false,
			"inputs": [
				{
					"indexed": false,
					"internalType": "address",
					"name": "_token",
					"type": "address"
				},
				{
					"indexed": false,
					"internalType": "uint256",
					"name": "_amountTokensOut",
					"type": "uint256"
				},
				{
					"indexed": false,
					"internalType": "uint256",
					"name": "_amountCerUsdToBurn",
					"type": "uint256"
				},
				{
					"indexed": false,
					"internalType": "uint256",
					"name": "_amountLpTokensBalanceToBurn",
					"type": "uint256"
				}
			],
			"name": "LiquidityRemoved",
			"type": "event"
		},
		{
			"anonymous": false,
			"inputs": [
				{
					"indexed": true,
					"internalType": "address",
					"name": "previousOwner",
					"type": "address"
				},
				{
					"indexed": true,
					"internalType": "address",
					"name": "newOwner",
					"type": "address"
				}
			],
			"name": "OwnershipTransferred",
			"type": "event"
		},
		{
			"anonymous": false,
			"inputs": [
				{
					"indexed": false,
					"internalType": "address",
					"name": "_token",
					"type": "address"
				},
				{
					"indexed": false,
					"internalType": "uint256",
					"name": "_poolId",
					"type": "uint256"
				}
			],
			"name": "PoolCreated",
			"type": "event"
		},
		{
			"anonymous": false,
			"inputs": [
				{
					"indexed": false,
					"internalType": "address",
					"name": "_token",
					"type": "address"
				},
				{
					"indexed": false,
					"internalType": "address",
					"name": "_sender",
					"type": "address"
				},
				{
					"indexed": false,
					"internalType": "uint256",
					"name": "_amountTokensIn",
					"type": "uint256"
				},
				{
					"indexed": false,
					"internalType": "uint256",
					"name": "_amountCerUsdIn",
					"type": "uint256"
				},
				{
					"indexed": false,
					"internalType": "uint256",
					"name": "__amountTokensOut",
					"type": "uint256"
				},
				{
					"indexed": false,
					"internalType": "uint256",
					"name": "amountCerUsdOut",
					"type": "uint256"
				},
				{
					"indexed": false,
					"internalType": "uint256",
					"name": "_currentFee",
					"type": "uint256"
				},
				{
					"indexed": false,
					"internalType": "address",
					"name": "_transferTo",
					"type": "address"
				}
			],
			"name": "Swap",
			"type": "event"
		},
		{
			"anonymous": false,
			"inputs": [
				{
					"indexed": false,
					"internalType": "address",
					"name": "_token",
					"type": "address"
				},
				{
					"indexed": false,
					"internalType": "uint256",
					"name": "_newBalanceToken",
					"type": "uint256"
				},
				{
					"indexed": false,
					"internalType": "uint256",
					"name": "_newBalanceCerUsd",
					"type": "uint256"
				},
				{
					"indexed": false,
					"internalType": "uint256",
					"name": "_newCreditCerUsd",
					"type": "uint256"
				}
			],
			"name": "Sync",
			"type": "event"
		},
		{
			"anonymous": false,
			"inputs": [
				{
					"indexed": true,
					"internalType": "address",
					"name": "operator",
					"type": "address"
				},
				{
					"indexed": true,
					"internalType": "address",
					"name": "from",
					"type": "address"
				},
				{
					"indexed": true,
					"internalType": "address",
					"name": "to",
					"type": "address"
				},
				{
					"indexed": false,
					"internalType": "uint256[]",
					"name": "ids",
					"type": "uint256[]"
				},
				{
					"indexed": false,
					"internalType": "uint256[]",
					"name": "values",
					"type": "uint256[]"
				}
			],
			"name": "TransferBatch",
			"type": "event"
		},
		{
			"anonymous": false,
			"inputs": [
				{
					"indexed": true,
					"internalType": "address",
					"name": "operator",
					"type": "address"
				},
				{
					"indexed": true,
					"internalType": "address",
					"name": "from",
					"type": "address"
				},
				{
					"indexed": true,
					"internalType": "address",
					"name": "to",
					"type": "address"
				},
				{
					"indexed": false,
					"internalType": "uint256",
					"name": "id",
					"type": "uint256"
				},
				{
					"indexed": false,
					"internalType": "uint256",
					"name": "value",
					"type": "uint256"
				}
			],
			"name": "TransferSingle",
			"type": "event"
		},
		{
			"anonymous": false,
			"inputs": [
				{
					"indexed": false,
					"internalType": "string",
					"name": "value",
					"type": "string"
				},
				{
					"indexed": true,
					"internalType": "uint256",
					"name": "id",
					"type": "uint256"
				}
			],
			"name": "URI",
			"type": "event"
		},
		{
			"inputs": [
				{
					"internalType": "address",
					"name": "_token",
					"type": "address"
				},
				{
					"internalType": "uint256",
					"name": "_amountTokensIn",
					"type": "uint256"
				},
				{
					"internalType": "uint256",
					"name": "_expireTimestamp",
					"type": "uint256"
				},
				{
					"internalType": "address",
					"name": "_transferTo",
					"type": "address"
				}
			],
			"name": "addTokenLiquidity",
			"outputs": [
				{
					"internalType": "uint256",
					"name": "",
					"type": "uint256"
				}
			],
			"stateMutability": "payable",
			"type": "function"
		},
		{
			"inputs": [
				{
					"internalType": "address",
					"name": "_token",
					"type": "address"
				},
				{
					"internalType": "uint256",
					"name": "_amountCerUsdCredit",
					"type": "uint256"
				}
			],
			"name": "adminChangeCerUsdCreditInPool",
			"outputs": [],
			"stateMutability": "nonpayable",
			"type": "function"
		},
		{
			"inputs": [
				{
					"internalType": "address",
					"name": "_token",
					"type": "address"
				},
				{
					"internalType": "uint256",
					"name": "_amountTokensIn",
					"type": "uint256"
				},
				{
					"internalType": "uint256",
					"name": "_amountCerUsdToMint",
					"type": "uint256"
				},
				{
					"internalType": "address",
					"name": "_transferTo",
					"type": "address"
				}
			],
			"name": "adminCreatePool",
			"outputs": [],
			"stateMutability": "payable",
			"type": "function"
		},
		{
			"inputs": [],
			"name": "adminInitialize",
			"outputs": [],
			"stateMutability": "payable",
			"type": "function"
		},
		{
			"inputs": [
				{
					"internalType": "string",
					"name": "_newUrlPrefix",
					"type": "string"
				}
			],
			"name": "adminSetURI",
			"outputs": [],
			"stateMutability": "nonpayable",
			"type": "function"
		},
		{
			"inputs": [
				{
					"components": [
						{
							"internalType": "address",
							"name": "mintFeeBeneficiary",
							"type": "address"
						},
						{
							"internalType": "uint256",
							"name": "mintFeeMultiplier",
							"type": "uint256"
						},
						{
							"internalType": "uint256",
							"name": "feeMinimum",
							"type": "uint256"
						},
						{
							"internalType": "uint256",
							"name": "feeMaximum",
							"type": "uint256"
						},
						{
							"internalType": "uint256",
							"name": "tvlMultiplierMinimum",
							"type": "uint256"
						},
						{
							"internalType": "uint256",
							"name": "tvlMultiplierMaximum",
							"type": "uint256"
						},
						{
							"internalType": "uint256",
							"name": "sincePeriodAgoToTrackTradeVolume",
							"type": "uint256"
						}
					],
					"internalType": "struct CerbySwapV1_Declarations.Settings",
					"name": "_settings",
					"type": "tuple"
				}
			],
			"name": "adminUpdateFeesAndTvlMultipliers",
			"outputs": [],
			"stateMutability": "nonpayable",
			"type": "function"
		},
		{
			"inputs": [
				{
					"internalType": "string",
					"name": "_newContractName",
					"type": "string"
				},
				{
					"internalType": "string",
					"name": "_newContractSymbol",
					"type": "string"
				}
			],
			"name": "adminUpdateNameAndSymbol",
			"outputs": [],
			"stateMutability": "nonpayable",
			"type": "function"
		},
		{
			"inputs": [
				{
					"internalType": "address",
					"name": "_account",
					"type": "address"
				},
				{
					"internalType": "uint256",
					"name": "_id",
					"type": "uint256"
				}
			],
			"name": "balanceOf",
			"outputs": [
				{
					"internalType": "uint256",
					"name": "",
					"type": "uint256"
				}
			],
			"stateMutability": "view",
			"type": "function"
		},
		{
			"inputs": [
				{
					"internalType": "address[]",
					"name": "_accounts",
					"type": "address[]"
				},
				{
					"internalType": "uint256[]",
					"name": "_ids",
					"type": "uint256[]"
				}
			],
			"name": "balanceOfBatch",
			"outputs": [
				{
					"internalType": "uint256[]",
					"name": "",
					"type": "uint256[]"
				}
			],
			"stateMutability": "view",
			"type": "function"
		},
		{
			"inputs": [
				{
					"internalType": "address",
					"name": "_token",
					"type": "address"
				},
				{
					"internalType": "uint256",
					"name": "_amountTokensIn",
					"type": "uint256"
				},
				{
					"internalType": "uint256",
					"name": "_amountCerUsdToMint",
					"type": "uint256"
				},
				{
					"internalType": "address",
					"name": "_transferTo",
					"type": "address"
				}
			],
			"name": "createPool",
			"outputs": [],
			"stateMutability": "payable",
			"type": "function"
		},
		{
			"inputs": [],
			"name": "decimals",
			"outputs": [
				{
					"internalType": "uint256",
					"name": "",
					"type": "uint256"
				}
			],
			"stateMutability": "pure",
			"type": "function"
		},
		{
			"inputs": [
				{
					"internalType": "uint256",
					"name": "_id",
					"type": "uint256"
				}
			],
			"name": "exists",
			"outputs": [
				{
					"internalType": "bool",
					"name": "",
					"type": "bool"
				}
			],
			"stateMutability": "view",
			"type": "function"
		},
		{
			"inputs": [
				{
					"internalType": "address",
					"name": "_token",
					"type": "address"
				}
			],
			"name": "getCurrentOneMinusFeeBasedOnTrades",
			"outputs": [
				{
					"internalType": "uint256",
					"name": "fee",
					"type": "uint256"
				}
			],
			"stateMutability": "view",
			"type": "function"
		},
		{
			"inputs": [
				{
					"internalType": "address",
					"name": "_tokenIn",
					"type": "address"
				},
				{
					"internalType": "address",
					"name": "_tokenOut",
					"type": "address"
				},
				{
					"internalType": "uint256",
					"name": "_amountTokensOut",
					"type": "uint256"
				}
			],
			"name": "getInputTokensForExactTokens",
			"outputs": [
				{
					"internalType": "uint256",
					"name": "",
					"type": "uint256"
				}
			],
			"stateMutability": "view",
			"type": "function"
		},
		{
			"inputs": [
				{
					"internalType": "address",
					"name": "_tokenIn",
					"type": "address"
				},
				{
					"internalType": "address",
					"name": "_tokenOut",
					"type": "address"
				},
				{
					"internalType": "uint256",
					"name": "_amountTokensIn",
					"type": "uint256"
				}
			],
			"name": "getOutputExactTokensForTokens",
			"outputs": [
				{
					"internalType": "uint256",
					"name": "",
					"type": "uint256"
				}
			],
			"stateMutability": "view",
			"type": "function"
		},
		{
			"inputs": [
				{
					"internalType": "address[]",
					"name": "_tokens",
					"type": "address[]"
				}
			],
			"name": "getPoolsByTokens",
			"outputs": [
				{
					"components": [
						{
							"internalType": "uint256",
							"name": "balanceToken",
							"type": "uint256"
						},
						{
							"internalType": "uint256",
							"name": "balanceCerUsd",
							"type": "uint256"
						}
					],
					"internalType": "struct CerbySwapV1_Declarations.PoolBalances[]",
					"name": "",
					"type": "tuple[]"
				}
			],
			"stateMutability": "view",
			"type": "function"
		},
		{
			"inputs": [],
			"name": "getSettings",
			"outputs": [
				{
					"components": [
						{
							"internalType": "address",
							"name": "mintFeeBeneficiary",
							"type": "address"
						},
						{
							"internalType": "uint256",
							"name": "mintFeeMultiplier",
							"type": "uint256"
						},
						{
							"internalType": "uint256",
							"name": "feeMinimum",
							"type": "uint256"
						},
						{
							"internalType": "uint256",
							"name": "feeMaximum",
							"type": "uint256"
						},
						{
							"internalType": "uint256",
							"name": "tvlMultiplierMinimum",
							"type": "uint256"
						},
						{
							"internalType": "uint256",
							"name": "tvlMultiplierMaximum",
							"type": "uint256"
						},
						{
							"internalType": "uint256",
							"name": "sincePeriodAgoToTrackTradeVolume",
							"type": "uint256"
						}
					],
					"internalType": "struct CerbySwapV1_Declarations.Settings",
					"name": "",
					"type": "tuple"
				}
			],
			"stateMutability": "view",
			"type": "function"
		},
		{
			"inputs": [
				{
					"internalType": "address",
					"name": "_token",
					"type": "address"
				}
			],
			"name": "getTokenToPoolId",
			"outputs": [
				{
					"internalType": "uint256",
					"name": "",
					"type": "uint256"
				}
			],
			"stateMutability": "view",
			"type": "function"
		},
		{
			"inputs": [
				{
					"internalType": "uint256",
					"name": "_pos",
					"type": "uint256"
				}
			],
			"name": "getUtilsContractAtPos",
			"outputs": [
				{
					"internalType": "address",
					"name": "",
					"type": "address"
				}
			],
			"stateMutability": "view",
			"type": "function"
		},
		{
			"inputs": [
				{
					"internalType": "address",
					"name": "",
					"type": "address"
				},
				{
					"internalType": "uint256",
					"name": "",
					"type": "uint256"
				}
			],
			"name": "hourlyCache",
			"outputs": [
				{
					"internalType": "uint16",
					"name": "hourlyOneMinusFee",
					"type": "uint16"
				},
				{
					"internalType": "uint128",
					"name": "hourlyTradeVolumeInCerUsd",
					"type": "uint128"
				}
			],
			"stateMutability": "view",
			"type": "function"
		},
		{
			"inputs": [
				{
					"internalType": "address",
					"name": "_token",
					"type": "address"
				},
				{
					"internalType": "uint256",
					"name": "_amountCerUsdCredit",
					"type": "uint256"
				}
			],
			"name": "increaseCerUsdCreditInPool",
			"outputs": [],
			"stateMutability": "nonpayable",
			"type": "function"
		},
		{
			"inputs": [
				{
					"internalType": "address",
					"name": "_account",
					"type": "address"
				},
				{
					"internalType": "address",
					"name": "_operator",
					"type": "address"
				}
			],
			"name": "isApprovedForAll",
			"outputs": [
				{
					"internalType": "bool",
					"name": "",
					"type": "bool"
				}
			],
			"stateMutability": "view",
			"type": "function"
		},
		{
			"inputs": [],
			"name": "name",
			"outputs": [
				{
					"internalType": "string",
					"name": "",
					"type": "string"
				}
			],
			"stateMutability": "view",
			"type": "function"
		},
		{
			"inputs": [],
			"name": "owner",
			"outputs": [
				{
					"internalType": "address",
					"name": "",
					"type": "address"
				}
			],
			"stateMutability": "view",
			"type": "function"
		},
		{
			"inputs": [
				{
					"internalType": "address",
					"name": "_token",
					"type": "address"
				},
				{
					"internalType": "uint256",
					"name": "_amountLpTokensBalanceToBurn",
					"type": "uint256"
				},
				{
					"internalType": "uint256",
					"name": "_expireTimestamp",
					"type": "uint256"
				},
				{
					"internalType": "address",
					"name": "_transferTo",
					"type": "address"
				}
			],
			"name": "removeTokenLiquidity",
			"outputs": [
				{
					"internalType": "uint256",
					"name": "",
					"type": "uint256"
				}
			],
			"stateMutability": "nonpayable",
			"type": "function"
		},
		{
			"inputs": [],
			"name": "renounceOwnership",
			"outputs": [],
			"stateMutability": "nonpayable",
			"type": "function"
		},
		{
			"inputs": [
				{
					"internalType": "address",
					"name": "_from",
					"type": "address"
				},
				{
					"internalType": "address",
					"name": "_to",
					"type": "address"
				},
				{
					"internalType": "uint256[]",
					"name": "_ids",
					"type": "uint256[]"
				},
				{
					"internalType": "uint256[]",
					"name": "_amounts",
					"type": "uint256[]"
				},
				{
					"internalType": "bytes",
					"name": "_data",
					"type": "bytes"
				}
			],
			"name": "safeBatchTransferFrom",
			"outputs": [],
			"stateMutability": "nonpayable",
			"type": "function"
		},
		{
			"inputs": [
				{
					"internalType": "address",
					"name": "_from",
					"type": "address"
				},
				{
					"internalType": "address",
					"name": "_to",
					"type": "address"
				},
				{
					"internalType": "uint256",
					"name": "_id",
					"type": "uint256"
				},
				{
					"internalType": "uint256",
					"name": "_amount",
					"type": "uint256"
				},
				{
					"internalType": "bytes",
					"name": "_data",
					"type": "bytes"
				}
			],
			"name": "safeTransferFrom",
			"outputs": [],
			"stateMutability": "nonpayable",
			"type": "function"
		},
		{
			"inputs": [
				{
					"internalType": "address",
					"name": "_operator",
					"type": "address"
				},
				{
					"internalType": "bool",
					"name": "_approved",
					"type": "bool"
				}
			],
			"name": "setApprovalForAll",
			"outputs": [],
			"stateMutability": "nonpayable",
			"type": "function"
		},
		{
			"inputs": [
				{
					"internalType": "bytes4",
					"name": "interfaceId",
					"type": "bytes4"
				}
			],
			"name": "supportsInterface",
			"outputs": [
				{
					"internalType": "bool",
					"name": "",
					"type": "bool"
				}
			],
			"stateMutability": "view",
			"type": "function"
		},
		{
			"inputs": [
				{
					"internalType": "address",
					"name": "_tokenIn",
					"type": "address"
				},
				{
					"internalType": "address",
					"name": "_tokenOut",
					"type": "address"
				},
				{
					"internalType": "uint256",
					"name": "_amountTokensIn",
					"type": "uint256"
				},
				{
					"internalType": "uint256",
					"name": "_minAmountTokensOut",
					"type": "uint256"
				},
				{
					"internalType": "uint256",
					"name": "_expireTimestamp",
					"type": "uint256"
				},
				{
					"internalType": "address",
					"name": "_transferTo",
					"type": "address"
				}
			],
			"name": "swapExactTokensForTokens",
			"outputs": [
				{
					"internalType": "uint256[]",
					"name": "",
					"type": "uint256[]"
				}
			],
			"stateMutability": "payable",
			"type": "function"
		},
		{
			"inputs": [
				{
					"internalType": "address",
					"name": "_tokenIn",
					"type": "address"
				},
				{
					"internalType": "address",
					"name": "_tokenOut",
					"type": "address"
				},
				{
					"internalType": "uint256",
					"name": "_amountTokensOut",
					"type": "uint256"
				},
				{
					"internalType": "uint256",
					"name": "_maxAmountTokensIn",
					"type": "uint256"
				},
				{
					"internalType": "uint256",
					"name": "_expireTimestamp",
					"type": "uint256"
				},
				{
					"internalType": "address",
					"name": "_transferTo",
					"type": "address"
				}
			],
			"name": "swapTokensForExactTokens",
			"outputs": [
				{
					"internalType": "uint256[]",
					"name": "",
					"type": "uint256[]"
				}
			],
			"stateMutability": "payable",
			"type": "function"
		},
		{
			"inputs": [],
			"name": "symbol",
			"outputs": [
				{
					"internalType": "string",
					"name": "",
					"type": "string"
				}
			],
			"stateMutability": "view",
			"type": "function"
		},
		{
			"inputs": [],
			"name": "testInit",
			"outputs": [],
			"stateMutability": "nonpayable",
			"type": "function"
		},
		{
			"inputs": [
				{
					"internalType": "address",
					"name": "",
					"type": "address"
				},
				{
					"internalType": "address",
					"name": "_testCerbyToken",
					"type": "address"
				},
				{
					"internalType": "address",
					"name": "_cerUsdToken",
					"type": "address"
				},
				{
					"internalType": "address",
					"name": "_testUsdcToken",
					"type": "address"
				},
				{
					"internalType": "address",
					"name": "",
					"type": "address"
				}
			],
			"name": "testSetupTokens",
			"outputs": [],
			"stateMutability": "nonpayable",
			"type": "function"
		},
		{
			"inputs": [],
			"name": "totalSupply",
			"outputs": [
				{
					"internalType": "uint256",
					"name": "",
					"type": "uint256"
				}
			],
			"stateMutability": "view",
			"type": "function"
		},
		{
			"inputs": [
				{
					"internalType": "uint256",
					"name": "_id",
					"type": "uint256"
				}
			],
			"name": "totalSupply",
			"outputs": [
				{
					"internalType": "uint256",
					"name": "",
					"type": "uint256"
				}
			],
			"stateMutability": "view",
			"type": "function"
		},
		{
			"inputs": [
				{
					"internalType": "address",
					"name": "_newOwner",
					"type": "address"
				}
			],
			"name": "transferOwnership",
			"outputs": [],
			"stateMutability": "nonpayable",
			"type": "function"
		},
		{
			"inputs": [
				{
					"internalType": "uint256",
					"name": "_id",
					"type": "uint256"
				}
			],
			"name": "uri",
			"outputs": [
				{
					"internalType": "string",
					"name": "",
					"type": "string"
				}
			],
			"stateMutability": "view",
			"type": "function"
		},
		{
			"stateMutability": "payable",
			"type": "receive"
		}
	]
}