{
	"data": {
		"bytecode": {
			"linkReferences": {},
			"object": "6080604052730fc5025c764ce34df352757e82f7b5c4df39a8366000806101000a81548173ffffffffffffffffffffffffffffffffffffffff021916908373ffffffffffffffffffffffffffffffffffffffff16021790555073e7126c0fb4b1f5f79e5bbec3948139dcf348b49c600360006101000a81548173ffffffffffffffffffffffffffffffffffffffff021916908373ffffffffffffffffffffffffffffffffffffffff160217905550737412f2cd820d1e63bd130b0ffebe44c4e5a47d71600460006101000a81548173ffffffffffffffffffffffffffffffffffffffff021916908373ffffffffffffffffffffffffffffffffffffffff1602179055507314769f96e57b80c66837701de0b43686fb4632de600560006101000a81548173ffffffffffffffffffffffffffffffffffffffff021916908373ffffffffffffffffffffffffffffffffffffffff1602179055506040518060400160405280600b81526020017f436572627953776170563100000000000000000000000000000000000000000081525060109080519060200190620001a492919062000860565b506040518060400160405280600381526020017f435331000000000000000000000000000000000000000000000000000000000081525060119080519060200190620001f292919062000860565b506040518060600160405280602381526020016200aa1960239139601290805190602001906200022492919062000860565b503480156200023257600080fd5b50601260405160200162000247919062000b3d565b60405160208183030381529060405262000267816200077e60201b60201c565b5062000279336200079a60201b60201c565b600073def78a28c78a461598d948bc0c689ce88f812ad890506000606460146064620002a6919062000b9c565b620002b2919062000c2c565b905060006351a673669050600060019050600060c8905060008390506000838386620002df919062000b9c565b620002eb919062000c2c565b90506040518060c001604052808873ffffffffffffffffffffffffffffffffffffffff16815260200187815260200185815260200184815260200183815260200182815250600660008201518160000160006101000a81548173ffffffffffffffffffffffffffffffffffffffff021916908373ffffffffffffffffffffffffffffffffffffffff1602179055506020820151816001015560408201518160020155606082015181600301556080820151816004015560a08201518160050155905050620003b8620008f1565b60016040518060800160405280600073ffffffffffffffffffffffffffffffffffffffff16815260200183815260200160006fffffffffffffffffffffffffffffffff16815260200160006fffffffffffffffffffffffffffffffff16815250908060018154018082558091505060019003906000526020600020906003020160009091909190915060008201518160000160006101000a81548173ffffffffffffffffffffffffffffffffffffffff021916908373ffffffffffffffffffffffffffffffffffffffff160217905550602082015181600101906008620004a192919062000914565b5060408201518160020160006101000a8154816fffffffffffffffffffffffffffffffff02191690836fffffffffffffffffffffffffffffffff16021790555060608201518160020160106101000a8154816fffffffffffffffffffffffffffffffff02191690836fffffffffffffffffffffffffffffffff16021790555050506001461415620005875773c02aaa39b223fe8d0a0e5c4f27ead9083c756cc2600560006101000a81548173ffffffffffffffffffffffffffffffffffffffff021916908373ffffffffffffffffffffffffffffffffffffffff1602179055506200071b565b6038461415620005ec5773bb4cdb9cbd36b01bd1cbaebf2de08d9173bc095c600560006101000a81548173ffffffffffffffffffffffffffffffffffffffff021916908373ffffffffffffffffffffffffffffffffffffffff1602179055506200071a565b60894614156200065157730d500b1d8e8ef31e21c99d1db9a6444d3adf1270600560006101000a81548173ffffffffffffffffffffffffffffffffffffffff021916908373ffffffffffffffffffffffffffffffffffffffff16021790555062000719565b61a86a461415620006b75773b31f66aa3c1e785363f0875a1b74e27b85fd66c7600560006101000a81548173ffffffffffffffffffffffffffffffffffffffff021916908373ffffffffffffffffffffffffffffffffffffffff16021790555062000718565b60fa46141562000717577321be370d5312f44cb42ce377bc9b8a0cef1a4c83600560006101000a81548173ffffffffffffffffffffffffffffffffffffffff021916908373ffffffffffffffffffffffffffffffffffffffff1602179055505b5b5b5b5b7314769f96e57b80c66837701de0b43686fb4632de600560006101000a81548173ffffffffffffffffffffffffffffffffffffffff021916908373ffffffffffffffffffffffffffffffffffffffff160217905550505050505050505062000c64565b80600e90805190602001906200079692919062000860565b5050565b6000601360009054906101000a900473ffffffffffffffffffffffffffffffffffffffff16905081601360006101000a81548173ffffffffffffffffffffffffffffffffffffffff021916908373ffffffffffffffffffffffffffffffffffffffff1602179055508173ffffffffffffffffffffffffffffffffffffffff168173ffffffffffffffffffffffffffffffffffffffff167f8be0079c531659141344cd1fd0a4f28419497f9722a3daafe3b4186f6b6457e060405160405180910390a35050565b8280546200086e9062000a0c565b90600052602060002090601f016020900481019282620008925760008555620008de565b82601f10620008ad57805160ff1916838001178555620008de565b82800160010185558215620008de579182015b82811115620008dd578251825591602001919060010190620008c0565b5b509050620008ed9190620009be565b5090565b604051806101000160405280600890602082028036833780820191505090505090565b826008600701600890048101928215620009ab5791602002820160005b838211156200097757835183826101000a81548163ffffffff021916908363ffffffff160217905550926020019260040160208160030104928301926001030262000931565b8015620009a95782816101000a81549063ffffffff021916905560040160208160030104928301926001030262000977565b505b509050620009ba9190620009be565b5090565b5b80821115620009d9576000816000905550600101620009bf565b5090565b7f4e487b7100000000000000000000000000000000000000000000000000000000600052602260045260246000fd5b6000600282049050600182168062000a2557607f821691505b6020821081141562000a3c5762000a3b620009dd565b5b50919050565b600081905092915050565b60008190508160005260206000209050919050565b6000815462000a718162000a0c565b62000a7d818662000a42565b9450600182166000811462000a9b576001811462000aad5762000ae4565b60ff1983168652818601935062000ae4565b62000ab88562000a4d565b60005b8381101562000adc5781548189015260018201915060208101905062000abb565b838801955050505b50505092915050565b7f7b69647d2e6a736f6e0000000000000000000000000000000000000000000000600082015250565b600062000b2560098362000a42565b915062000b328262000aed565b600982019050919050565b600062000b4b828462000a62565b915062000b588262000b16565b915081905092915050565b6000819050919050565b7f4e487b7100000000000000000000000000000000000000000000000000000000600052601160045260246000fd5b600062000ba98262000b63565b915062000bb68362000b63565b9250817fffffffffffffffffffffffffffffffffffffffffffffffffffffffffffffffff048311821515161562000bf25762000bf162000b6d565b5b828202905092915050565b7f4e487b7100000000000000000000000000000000000000000000000000000000600052601260045260246000fd5b600062000c398262000b63565b915062000c468362000b63565b92508262000c595762000c5862000bfd565b5b828204905092915050565b619da58062000c746000396000f3fe6080604052600436106200026a5760003560e01c806374fcf071116200014b578063bd85b03911620000bb578063e985e9c51162000079578063e985e9c5146200097d578063eca0109314620009c1578063f242432a14620009ef578063f2fde38b1462000a1d578063f65247241462000a4b5762000272565b8063bd85b039146200089b578063c09c923b14620008df578063c790985a14620008eb578063cab4ba82146200092f578063d5d60737146200095d5762000272565b8063a22cb4651162000109578063a22cb46514620007ab578063a60c6e5514620007d9578063a6d8ad39146200080f578063a7fd40bf1462000853578063b5d11e9914620008815762000272565b806374fcf07114620006b7578063842980f414620006fb57806385b4bb53146200071b5780638da5cb5b146200074b57806395d89b41146200077b5762000272565b806334e150ab11620001e75780634e1273f411620001a55780634e1273f414620005a35780634f558e7914620005e757806361417516146200062b578063715018a6146200066f5780637185804914620006895762000272565b806334e150ab14620004735780633935ac1114620004b757806343fefad414620004e557806348b08d62146200051b5780634c3c0eb2146200055f5762000272565b80630c2e075b11620002355780630c2e075b14620003735780630e89341c14620003a157806318160ddd14620003e55780632eb2c2d61462000415578063313ce56714620004435762000272565b8062fdd58e146200027757806301ffc9a714620002bb57806306fb1a0714620002ff57806306fdde0314620003435762000272565b366200027257005b600080fd5b3480156200028457600080fd5b50620002a360048036038101906200029d9190620076a8565b62000a81565b604051620002b2919062007700565b60405180910390f35b348015620002c857600080fd5b50620002e76004803603810190620002e191906200777a565b62000b43565b604051620002f69190620077c9565b60405180910390f35b3480156200030c57600080fd5b506200032b6004803603810190620003259190620077e6565b62000bad565b6040516200033a919062007829565b60405180910390f35b3480156200035057600080fd5b506200035b62000c49565b6040516200036a9190620078ea565b60405180910390f35b3480156200038057600080fd5b506200039f600480360381019062000399919062007935565b62000ce3565b005b348015620003ae57600080fd5b50620003cd6004803603810190620003c79190620077e6565b62000e5d565b604051620003dc9190620078ea565b60405180910390f35b348015620003f257600080fd5b50620003fd62000e8b565b6040516200040c919062007700565b60405180910390f35b3480156200042257600080fd5b506200044160048036038101906200043b919062007a34565b62000eed565b005b3480156200045057600080fd5b506200045b62000ffa565b6040516200046a919062007700565b60405180910390f35b3480156200048057600080fd5b506200049f600480360381019062000499919062007b85565b62001003565b604051620004ae919062007e01565b60405180910390f35b348015620004c457600080fd5b50620004e36004803603810190620004dd919062007f71565b620012b0565b005b620005036004803603810190620004fd919062007ff6565b62001355565b60405162000512919062007700565b60405180910390f35b3480156200052857600080fd5b5062000547600480360381019062000541919062008068565b6200191c565b60405162000556919062007700565b60405180910390f35b3480156200056c57600080fd5b506200058b6004803603810190620005859190620080c4565b62001c24565b6040516200059a919062007700565b60405180910390f35b348015620005b057600080fd5b50620005cf6004803603810190620005c99190620080f6565b62001cd6565b604051620005de919062008252565b60405180910390f35b348015620005f457600080fd5b506200061360048036038101906200060d9190620077e6565b62001e15565b604051620006229190620077c9565b60405180910390f35b3480156200063857600080fd5b50620006576004803603810190620006519190620080c4565b62001e34565b60405162000666919062007700565b60405180910390f35b3480156200067c57600080fd5b506200068762001e7d565b005b3480156200069657600080fd5b50620006b56004803603810190620006af9190620076a8565b62001efa565b005b348015620006c457600080fd5b50620006e36004803603810190620006dd919062007ff6565b62002149565b604051620006f2919062007700565b60405180910390f35b62000719600480360381019062000713919062007ff6565b62002289565b005b3480156200072857600080fd5b50620007336200229f565b604051620007429190620082fd565b60405180910390f35b3480156200075857600080fd5b506200076362002343565b60405162000772919062007829565b60405180910390f35b3480156200078857600080fd5b50620007936200236d565b604051620007a29190620078ea565b60405180910390f35b348015620007b857600080fd5b50620007d76004803603810190620007d191906200834b565b62002407565b005b620007f76004803603810190620007f1919062008392565b6200248b565b60405162000806919062008252565b60405180910390f35b3480156200081c57600080fd5b506200083b60048036038101906200083591906200842e565b62002c5c565b6040516200084a919062007e01565b60405180910390f35b3480156200086057600080fd5b506200087f6004803603810190620008799190620084e2565b62002eba565b005b3480156200088e57600080fd5b506200089962002f6f565b005b348015620008a857600080fd5b50620008c76004803603810190620008c19190620077e6565b62003031565b604051620008d6919062007700565b60405180910390f35b620008e96200304e565b005b348015620008f857600080fd5b5062000917600480360381019062000911919062008068565b62003121565b60405162000926919062007700565b60405180910390f35b3480156200093c57600080fd5b506200095b6004803603810190620009559190620076a8565b62003429565b005b6200097b600480360381019062000975919062007ff6565b6200369b565b005b3480156200098a57600080fd5b50620009a96004803603810190620009a3919062008537565b6200373f565b604051620009b89190620077c9565b60405180910390f35b348015620009ce57600080fd5b50620009ed6004803603810190620009e791906200857e565b620037d3565b005b348015620009fc57600080fd5b5062000a1b600480360381019062000a15919062008606565b620038a6565b005b34801562000a2a57600080fd5b5062000a49600480360381019062000a439190620080c4565b620039af565b005b62000a69600480360381019062000a63919062008392565b62003a94565b60405162000a78919062008252565b60405180910390f35b60008073ffffffffffffffffffffffffffffffffffffffff168373ffffffffffffffffffffffffffffffffffffffff16141562000aea576040517fdc768a8e00000000000000000000000000000000000000000000000000000000815260040160405180910390fd5b600c600083815260200190815260200160002060008473ffffffffffffffffffffffffffffffffffffffff1673ffffffffffffffffffffffffffffffffffffffff16815260200190815260200160002054905092915050565b60007f01ffc9a7000000000000000000000000000000000000000000000000000000007bffffffffffffffffffffffffffffffffffffffffffffffffffffffff1916827bffffffffffffffffffffffffffffffffffffffffffffffffffffffff1916149050919050565b600073def1fac7bf08f173d286bbbdcbeeade69512984073ffffffffffffffffffffffffffffffffffffffff166306fb1a07836040518263ffffffff1660e01b815260040162000bfe919062007700565b602060405180830381865afa15801562000c1c573d6000803e3d6000fd5b505050506040513d601f19601f8201168201806040525081019062000c429190620086c7565b9050919050565b60606010805462000c5a9062008728565b80601f016020809104026020016040519081016040528092919081815260200182805462000c889062008728565b801562000cd95780601f1062000cad5761010080835404028352916020019162000cd9565b820191906000526020600020905b81548152906001019060200180831162000cbb57829003601f168201915b5050505050905090565b3373ffffffffffffffffffffffffffffffffffffffff1662000d0462002343565b73ffffffffffffffffffffffffffffffffffffffff161462000d52576040517febf9845900000000000000000000000000000000000000000000000000000000815260040160405180910390fd5b80604001356000148062000d6d575080606001358160400135115b8062000d7e57506101f48160600135115b1562000db6576040517fe8404b1a00000000000000000000000000000000000000000000000000000000815260040160405180910390fd5b8060a001358160800135111562000df9576040517febc2e01600000000000000000000000000000000000000000000000000000000815260040160405180910390fd5b60646002826020013562000e0e91906200878d565b1062000e46576040517f28af878600000000000000000000000000000000000000000000000000000000815260040160405180910390fd5b806006818162000e57919062008a71565b90505050565b606060128260405160200162000e7592919062008ba1565b6040516020818303038152906040529050919050565b60008060005b6000600f60008462000ea39062008bda565b945084815260200190815260200160002054111562000ee557600f6000838152602001908152602001600020548162000edd919062008c28565b905062000e91565b809250505090565b600062000efb600362000bad565b90508073ffffffffffffffffffffffffffffffffffffffff1663eef84ba16040518163ffffffff1660e01b8152600401600060405180830381600087803b15801562000f4657600080fd5b505af115801562000f5b573d6000803e3d6000fd5b505050503373ffffffffffffffffffffffffffffffffffffffff168973ffffffffffffffffffffffffffffffffffffffff161415801562000fa5575062000fa389336200373f565b155b1562000fdd576040517f6f34aaa800000000000000000000000000000000000000000000000000000000815260040160405180910390fd5b62000fef8989898989898989620043f5565b505050505050505050565b60006012905090565b606060008383905067ffffffffffffffff81111562001027576200102662007e2a565b5b6040519080825280602002602001820160405280156200106457816020015b6200105062007308565b815260200190600190039081620010465790505b50905060005b84849050811015620012a55760016002600087878581811062001092576200109162008c85565b5b9050602002016020810190620010a99190620080c4565b73ffffffffffffffffffffffffffffffffffffffff1673ffffffffffffffffffffffffffffffffffffffff1681526020019081526020016000205481548110620010f857620010f762008c85565b5b90600052602060002090600302016040518060800160405290816000820160009054906101000a900473ffffffffffffffffffffffffffffffffffffffff1673ffffffffffffffffffffffffffffffffffffffff1673ffffffffffffffffffffffffffffffffffffffff16815260200160018201600880602002604051908101604052809291908260088015620011d1576020028201916000905b82829054906101000a900463ffffffff1663ffffffff1681526020019060040190602082600301049283019260010382029150808411620011935790505b505050505081526020016002820160009054906101000a90046fffffffffffffffffffffffffffffffff166fffffffffffffffffffffffffffffffff166fffffffffffffffffffffffffffffffff1681526020016002820160109054906101000a90046fffffffffffffffffffffffffffffffff166fffffffffffffffffffffffffffffffff166fffffffffffffffffffffffffffffffff168152505082828151811062001284576200128362008c85565b5b602002602001018190525080806200129c9062008bda565b9150506200106a565b508091505092915050565b3373ffffffffffffffffffffffffffffffffffffffff16620012d162002343565b73ffffffffffffffffffffffffffffffffffffffff16146200131f576040517febf9845900000000000000000000000000000000000000000000000000000000815260040160405180910390fd5b81601090805190602001906200133792919062007372565b5080601190805190602001906200135092919062007372565b505050565b6000846000600260008373ffffffffffffffffffffffffffffffffffffffff1673ffffffffffffffffffffffffffffffffffffffff168152602001908152602001600020541480620013f2575060008054906101000a900473ffffffffffffffffffffffffffffffffffffffff1673ffffffffffffffffffffffffffffffffffffffff168173ffffffffffffffffffffffffffffffffffffffff16145b1562001435576040517f08c379a00000000000000000000000000000000000000000000000000000000081526004016200142c9062008d04565b60405180910390fd5b83804211156200147c576040517f08c379a0000000000000000000000000000000000000000000000000000000008152600401620014739062008d76565b60405180910390fd5b6000600260008973ffffffffffffffffffffffffffffffffffffffff1673ffffffffffffffffffffffffffffffffffffffff168152602001908152602001600020549050600060018281548110620014d957620014d862008c85565b5b9060005260206000209060030201905060006200151b8a8360000160009054906101000a900473ffffffffffffffffffffffffffffffffffffffff16620047b2565b90506200154f8a338460000160009054906101000a900473ffffffffffffffffffffffffffffffffffffffff168c6200480f565b6000620015818b8460000160009054906101000a900473ffffffffffffffffffffffffffffffffffffffff16620047b2565b90508160000151816000015162001599919062008d98565b995060018a11620015e1576040517f08c379a0000000000000000000000000000000000000000000000000000000008152600401620015d89062008e23565b60405180910390fd5b60006200160383602001518460000151620015fd91906200878d565b62004a33565b90506000620016598560020160009054906101000a90046fffffffffffffffffffffffffffffffff166fffffffffffffffffffffffffffffffff1683600f60008a81526020019081526020016000205462004abc565b90506200169d600660000160009054906101000a900473ffffffffffffffffffffffffffffffffffffffff1687836040518060200160405280600081525062004b65565b60008460000151600f6000898152602001908152602001600020548e620016c591906200878d565b620016d1919062008e74565b9050620016f08b88836040518060200160405280600081525062004b65565b6000856000015186602001518f6200170991906200878d565b62001715919062008e74565b90506001811162001752576040517f206f960000000000000000000000000000000000000000000000000000000000815260040160405180910390fd5b60008054906101000a900473ffffffffffffffffffffffffffffffffffffffff1673ffffffffffffffffffffffffffffffffffffffff16630bb9ff5d8860000160009054906101000a900473ffffffffffffffffffffffffffffffffffffffff16836040518363ffffffff1660e01b8152600401620017d392919062008eac565b600060405180830381600087803b158015620017ee57600080fd5b505af115801562001803573d6000803e3d6000fd5b5050505062001827856020015186600001516200182191906200878d565b62004a33565b8760020160006101000a8154816fffffffffffffffffffffffffffffffff02191690836fffffffffffffffffffffffffffffffff1602179055507f64b83944e79c3ce8d4c297411de637c3e102d064677aac0c163976ebdcd6f50e8f8f838560405162001898949392919062008ed9565b60405180910390a17f51ab1232a73b82b6b0acb0fa91b834cf6e258a1858c4e23c72ce97241c71aa0d8f866000015187602001518a60020160109054906101000a90046fffffffffffffffffffffffffffffffff16604051620018ff949392919062008f5f565b60405180910390a1819a5050505050505050505050949350505050565b60008060006001600260008873ffffffffffffffffffffffffffffffffffffffff1673ffffffffffffffffffffffffffffffffffffffff168152602001908152602001600020548154811062001977576200197662008c85565b5b906000526020600020906003020160000160009054906101000a900473ffffffffffffffffffffffffffffffffffffffff16905060006001600260008873ffffffffffffffffffffffffffffffffffffffff1673ffffffffffffffffffffffffffffffffffffffff168152602001908152602001600020548154811062001a035762001a0262008c85565b5b906000526020600020906003020160000160009054906101000a900473ffffffffffffffffffffffffffffffffffffffff16905060008054906101000a900473ffffffffffffffffffffffffffffffffffffffff1673ffffffffffffffffffffffffffffffffffffffff168773ffffffffffffffffffffffffffffffffffffffff161415801562001adf575060008054906101000a900473ffffffffffffffffffffffffffffffffffffffff1673ffffffffffffffffffffffffffffffffffffffff168673ffffffffffffffffffffffffffffffffffffffff16145b1562001b0b5762001afd62001af58884620047b2565b888762004d06565b925082935050505062001c1d565b60008054906101000a900473ffffffffffffffffffffffffffffffffffffffff1673ffffffffffffffffffffffffffffffffffffffff168773ffffffffffffffffffffffffffffffffffffffff1614801562001bb3575060008054906101000a900473ffffffffffffffffffffffffffffffffffffffff1673ffffffffffffffffffffffffffffffffffffffff168673ffffffffffffffffffffffffffffffffffffffff1614155b1562001bdf5762001bd162001bc98783620047b2565b878762004e7a565b925082935050505062001c1d565b600062001bf962001bf18985620047b2565b898862004d06565b905062001c1362001c0b8884620047b2565b888362004e7a565b9350839450505050505b9392505050565b6000806001600260008573ffffffffffffffffffffffffffffffffffffffff1673ffffffffffffffffffffffffffffffffffffffff168152602001908152602001600020548154811062001c7d5762001c7c62008c85565b5b90600052602060002090600302019050600062001cbf848360000160009054906101000a900473ffffffffffffffffffffffffffffffffffffffff16620047b2565b905062001ccd828262004f7c565b92505050919050565b6060600083839050905080868690501462001d1d576040517f80dadc2700000000000000000000000000000000000000000000000000000000815260040160405180910390fd5b60008686905067ffffffffffffffff81111562001d3f5762001d3e62007e2a565b5b60405190808252806020026020018201604052801562001d6e5781602001602082028036833780820191505090505b50905060005b8281101562001e075762001dd188888381811062001d975762001d9662008c85565b5b905060200201602081019062001dae9190620080c4565b87878481811062001dc45762001dc362008c85565b5b9050602002013562000a81565b82828151811062001de75762001de662008c85565b5b6020026020010181815250508062001dff9062008bda565b905062001d74565b508092505050949350505050565b600080600f600084815260200190815260200160002054119050919050565b6000600260008373ffffffffffffffffffffffffffffffffffffffff1673ffffffffffffffffffffffffffffffffffffffff168152602001908152602001600020549050919050565b3373ffffffffffffffffffffffffffffffffffffffff1662001e9e62002343565b73ffffffffffffffffffffffffffffffffffffffff161462001eec576040517febf9845900000000000000000000000000000000000000000000000000000000815260040160405180910390fd5b62001ef8600062005163565b565b60006001600260008573ffffffffffffffffffffffffffffffffffffffff1673ffffffffffffffffffffffffffffffffffffffff168152602001908152602001600020548154811062001f525762001f5162008c85565b5b90600052602060002090600302019050600062001f94848360000160009054906101000a900473ffffffffffffffffffffffffffffffffffffffff16620047b2565b90506fffffffffffffffffffffffffffffffff80168260020160109054906101000a90046fffffffffffffffffffffffffffffffff166fffffffffffffffffffffffffffffffff161015620020dc57828260020160108282829054906101000a90046fffffffffffffffffffffffffffffffff1662002014919062008fac565b92506101000a8154816fffffffffffffffffffffffffffffffff02191690836fffffffffffffffffffffffffffffffff16021790555060008054906101000a900473ffffffffffffffffffffffffffffffffffffffff1673ffffffffffffffffffffffffffffffffffffffff166318a8ad8733856040518363ffffffff1660e01b8152600401620020a792919062008eac565b600060405180830381600087803b158015620020c257600080fd5b505af1158015620020d7573d6000803e3d6000fd5b505050505b7f51ab1232a73b82b6b0acb0fa91b834cf6e258a1858c4e23c72ce97241c71aa0d84826000015183602001518560020160109054906101000a90046fffffffffffffffffffffffffffffffff166040516200213b949392919062008f5f565b60405180910390a150505050565b6000846000600260008373ffffffffffffffffffffffffffffffffffffffff1673ffffffffffffffffffffffffffffffffffffffff168152602001908152602001600020541480620021e6575060008054906101000a900473ffffffffffffffffffffffffffffffffffffffff1673ffffffffffffffffffffffffffffffffffffffff168173ffffffffffffffffffffffffffffffffffffffff16145b1562002229576040517f08c379a0000000000000000000000000000000000000000000000000000000008152600401620022209062008d04565b60405180910390fd5b838042111562002270576040517f08c379a0000000000000000000000000000000000000000000000000000000008152600401620022679062008d76565b60405180910390fd5b6200227d87878662005229565b92505050949350505050565b62002299848484600085620055f0565b50505050565b620022a962007403565b60066040518060c00160405290816000820160009054906101000a900473ffffffffffffffffffffffffffffffffffffffff1673ffffffffffffffffffffffffffffffffffffffff1673ffffffffffffffffffffffffffffffffffffffff16815260200160018201548152602001600282015481526020016003820154815260200160048201548152602001600582015481525050905090565b6000601360009054906101000a900473ffffffffffffffffffffffffffffffffffffffff16905090565b6060601180546200237e9062008728565b80601f0160208091040260200160405190810160405280929190818152602001828054620023ac9062008728565b8015620023fd5780601f10620023d157610100808354040283529160200191620023fd565b820191906000526020600020905b815481529060010190602001808311620023df57829003601f168201915b5050505050905090565b600062002415600362000bad565b90508073ffffffffffffffffffffffffffffffffffffffff1663eef84ba16040518163ffffffff1660e01b8152600401600060405180830381600087803b1580156200246057600080fd5b505af115801562002475573d6000803e3d6000fd5b505050506200248633848462005b62565b505050565b60608280421115620024d4576040517f08c379a0000000000000000000000000000000000000000000000000000000008152600401620024cb9062008d76565b60405180910390fd5b600186116200251a576040517f08c379a0000000000000000000000000000000000000000000000000000000008152600401620025119062008e23565b60405180910390fd5b60006001600260008b73ffffffffffffffffffffffffffffffffffffffff1673ffffffffffffffffffffffffffffffffffffffff168152602001908152602001600020548154811062002572576200257162008c85565b5b906000526020600020906003020160000160009054906101000a900473ffffffffffffffffffffffffffffffffffffffff16905060006001600260008b73ffffffffffffffffffffffffffffffffffffffff1673ffffffffffffffffffffffffffffffffffffffff1681526020019081526020016000205481548110620025fe57620025fd62008c85565b5b906000526020600020906003020160000160009054906101000a900473ffffffffffffffffffffffffffffffffffffffff1690506000600267ffffffffffffffff81111562002652576200265162007e2a565b5b604051908082528060200260200182016040528015620026815781602001602082028036833780820191505090505b50905088816000815181106200269c576200269b62008c85565b5b60200260200101818152505060008054906101000a900473ffffffffffffffffffffffffffffffffffffffff1673ffffffffffffffffffffffffffffffffffffffff168b73ffffffffffffffffffffffffffffffffffffffff161415801562002750575060008054906101000a900473ffffffffffffffffffffffffffffffffffffffff1673ffffffffffffffffffffffffffffffffffffffff168a73ffffffffffffffffffffffffffffffffffffffff16145b1562002843576000620027648c85620047b2565b905062002773818d8c62004d06565b826001815181106200278a576200278962008c85565b5b6020026020010181815250508882600181518110620027ae57620027ad62008c85565b5b60200260200101511015620027fa576040517f08c379a0000000000000000000000000000000000000000000000000000000008152600401620027f19062009049565b60405180910390fd5b620028088c33868d6200480f565b620028368c8260008560018151811062002827576200282662008c85565b5b60200260200101518b62005cc9565b8195505050505062002c51565b60008054906101000a900473ffffffffffffffffffffffffffffffffffffffff1673ffffffffffffffffffffffffffffffffffffffff168b73ffffffffffffffffffffffffffffffffffffffff16148015620028eb575060008054906101000a900473ffffffffffffffffffffffffffffffffffffffff1673ffffffffffffffffffffffffffffffffffffffff168a73ffffffffffffffffffffffffffffffffffffffff1614155b15620029de576000620028ff8b84620047b2565b90506200290e818c8c62004e7a565b8260018151811062002925576200292462008c85565b5b602002602001018181525050888260018151811062002949576200294862008c85565b5b6020026020010151101562002995576040517f08c379a00000000000000000000000000000000000000000000000000000000081526004016200298c90620090bb565b60405180910390fd5b620029a38c33858d6200480f565b620029d18b8284600181518110620029c057620029bf62008c85565b5b602002602001015160008b62005cc9565b8195505050505062002c51565b60008054906101000a900473ffffffffffffffffffffffffffffffffffffffff1673ffffffffffffffffffffffffffffffffffffffff168b73ffffffffffffffffffffffffffffffffffffffff161415801562002a87575060008054906101000a900473ffffffffffffffffffffffffffffffffffffffff1673ffffffffffffffffffffffffffffffffffffffff168a73ffffffffffffffffffffffffffffffffffffffff1614155b801562002ac057508973ffffffffffffffffffffffffffffffffffffffff168b73ffffffffffffffffffffffffffffffffffffffff1614155b1562002c1457600062002ad48c85620047b2565b9050600062002ae5828e8d62004d06565b9050600062002af58d86620047b2565b905062002b04818e8462004e7a565b8460018151811062002b1b5762002b1a62008c85565b5b6020026020010181815250508a8460018151811062002b3f5762002b3e62008c85565b5b6020026020010151101562002b8b576040517f08c379a000000000000000000000000000000000000000000000000000000000815260040162002b8290620090bb565b60405180910390fd5b62002b998e33888f6200480f565b62002ba98e846000853062005cc9565b62002bd760008054906101000a900473ffffffffffffffffffffffffffffffffffffffff168787856200480f565b62002c058d828660018151811062002bf45762002bf362008c85565b5b602002602001015160008d62005cc9565b83975050505050505062002c51565b6040517f08c379a000000000000000000000000000000000000000000000000000000000815260040162002c48906200912d565b60405180910390fd5b509695505050505050565b606060008383905067ffffffffffffffff81111562002c805762002c7f62007e2a565b5b60405190808252806020026020018201604052801562002cbd57816020015b62002ca962007308565b81526020019060019003908162002c9f5790505b50905060005b8484905081101562002eaf57600185858381811062002ce75762002ce662008c85565b5b905060200201358154811062002d025762002d0162008c85565b5b90600052602060002090600302016040518060800160405290816000820160009054906101000a900473ffffffffffffffffffffffffffffffffffffffff1673ffffffffffffffffffffffffffffffffffffffff1673ffffffffffffffffffffffffffffffffffffffff1681526020016001820160088060200260405190810160405280929190826008801562002ddb576020028201916000905b82829054906101000a900463ffffffff1663ffffffff168152602001906004019060208260030104928301926001038202915080841162002d9d5790505b505050505081526020016002820160009054906101000a90046fffffffffffffffffffffffffffffffff166fffffffffffffffffffffffffffffffff166fffffffffffffffffffffffffffffffff1681526020016002820160109054906101000a90046fffffffffffffffffffffffffffffffff166fffffffffffffffffffffffffffffffff166fffffffffffffffffffffffffffffffff168152505082828151811062002e8e5762002e8d62008c85565b5b6020026020010181905250808062002ea69062008bda565b91505062002cc3565b508091505092915050565b3373ffffffffffffffffffffffffffffffffffffffff1662002edb62002343565b73ffffffffffffffffffffffffffffffffffffffff161462002f29576040517febf9845900000000000000000000000000000000000000000000000000000000815260040160405180910390fd5b62002f57828260405160200162002f42929190620091c8565b604051602081830303815290604052620064d6565b81816012919062002f6a9291906200744f565b505050565b62002fd4600360009054906101000a900473ffffffffffffffffffffffffffffffffffffffff1669d3c21bcecceda10000006969e10de76676d08000007fffffffffffffffffffffffffffffffffffffffffffffffffffffffffffffffff33620055f0565b6200302f600460009054906101000a900473ffffffffffffffffffffffffffffffffffffffff1669943b1377290cbd800000807fffffffffffffffffffffffffffffffffffffffffffffffffffffffffffffffff33620055f0565b565b6000600f6000838152602001908152602001600020549050919050565b3373ffffffffffffffffffffffffffffffffffffffff166200306f62002343565b73ffffffffffffffffffffffffffffffffffffffff1614620030bd576040517febf9845900000000000000000000000000000000000000000000000000000000815260040160405180910390fd5b6200311f600560009054906101000a900473ffffffffffffffffffffffffffffffffffffffff1666038d7ea4c6800069d3c21bcecceda10000007fffffffffffffffffffffffffffffffffffffffffffffffffffffffffffffffff33620055f0565b565b60008060006001600260008873ffffffffffffffffffffffffffffffffffffffff1673ffffffffffffffffffffffffffffffffffffffff16815260200190815260200160002054815481106200317c576200317b62008c85565b5b906000526020600020906003020160000160009054906101000a900473ffffffffffffffffffffffffffffffffffffffff16905060006001600260008873ffffffffffffffffffffffffffffffffffffffff1673ffffffffffffffffffffffffffffffffffffffff168152602001908152602001600020548154811062003208576200320762008c85565b5b906000526020600020906003020160000160009054906101000a900473ffffffffffffffffffffffffffffffffffffffff16905060008054906101000a900473ffffffffffffffffffffffffffffffffffffffff1673ffffffffffffffffffffffffffffffffffffffff168773ffffffffffffffffffffffffffffffffffffffff1614158015620032e4575060008054906101000a900473ffffffffffffffffffffffffffffffffffffffff1673ffffffffffffffffffffffffffffffffffffffff168673ffffffffffffffffffffffffffffffffffffffff16145b15620033105762003302620032fa8884620047b2565b8887620064f2565b925082935050505062003422565b60008054906101000a900473ffffffffffffffffffffffffffffffffffffffff1673ffffffffffffffffffffffffffffffffffffffff168773ffffffffffffffffffffffffffffffffffffffff16148015620033b8575060008054906101000a900473ffffffffffffffffffffffffffffffffffffffff1673ffffffffffffffffffffffffffffffffffffffff168673ffffffffffffffffffffffffffffffffffffffff1614155b15620033e457620033d6620033ce8783620047b2565b878762006666565b925082935050505062003422565b6000620033fe620033f68985620047b2565b888862006666565b905062003418620034108884620047b2565b8983620064f2565b9350839450505050505b9392505050565b3373ffffffffffffffffffffffffffffffffffffffff166200344a62002343565b73ffffffffffffffffffffffffffffffffffffffff161462003498576040517febf9845900000000000000000000000000000000000000000000000000000000815260040160405180910390fd5b816000600260008373ffffffffffffffffffffffffffffffffffffffff1673ffffffffffffffffffffffffffffffffffffffff16815260200190815260200160002054148062003533575060008054906101000a900473ffffffffffffffffffffffffffffffffffffffff1673ffffffffffffffffffffffffffffffffffffffff168173ffffffffffffffffffffffffffffffffffffffff16145b1562003576576040517f08c379a00000000000000000000000000000000000000000000000000000000081526004016200356d9062008d04565b60405180910390fd5b60006001600260008673ffffffffffffffffffffffffffffffffffffffff1673ffffffffffffffffffffffffffffffffffffffff1681526020019081526020016000205481548110620035ce57620035cd62008c85565b5b90600052602060002090600302019050600062003610858360000160009054906101000a900473ffffffffffffffffffffffffffffffffffffffff16620047b2565b9050838260020160106101000a8154816fffffffffffffffffffffffffffffffff02191690836fffffffffffffffffffffffffffffffff1602179055507f51ab1232a73b82b6b0acb0fa91b834cf6e258a1858c4e23c72ce97241c71aa0d8582600001518360200151876040516200368c949392919062008ed9565b60405180910390a15050505050565b3373ffffffffffffffffffffffffffffffffffffffff16620036bc62002343565b73ffffffffffffffffffffffffffffffffffffffff16146200370a576040517febf9845900000000000000000000000000000000000000000000000000000000815260040160405180910390fd5b620037398484847fffffffffffffffffffffffffffffffffffffffffffffffffffffffffffffffff85620055f0565b50505050565b6000600d60008473ffffffffffffffffffffffffffffffffffffffff1673ffffffffffffffffffffffffffffffffffffffff16815260200190815260200160002060008373ffffffffffffffffffffffffffffffffffffffff1673ffffffffffffffffffffffffffffffffffffffff16815260200190815260200160002060009054906101000a900460ff16905092915050565b83600360006101000a81548173ffffffffffffffffffffffffffffffffffffffff021916908373ffffffffffffffffffffffffffffffffffffffff160217905550826000806101000a81548173ffffffffffffffffffffffffffffffffffffffff021916908373ffffffffffffffffffffffffffffffffffffffff16021790555081600460006101000a81548173ffffffffffffffffffffffffffffffffffffffff021916908373ffffffffffffffffffffffffffffffffffffffff1602179055506200389f62002f6f565b5050505050565b6000620038b4600362000bad565b90508073ffffffffffffffffffffffffffffffffffffffff1663eef84ba16040518163ffffffff1660e01b8152600401600060405180830381600087803b158015620038ff57600080fd5b505af115801562003914573d6000803e3d6000fd5b505050503373ffffffffffffffffffffffffffffffffffffffff168773ffffffffffffffffffffffffffffffffffffffff16141580156200395e57506200395c87336200373f565b155b1562003996576040517f6f34aaa800000000000000000000000000000000000000000000000000000000815260040160405180910390fd5b620039a687878787878762006768565b50505050505050565b3373ffffffffffffffffffffffffffffffffffffffff16620039d062002343565b73ffffffffffffffffffffffffffffffffffffffff161462003a1e576040517febf9845900000000000000000000000000000000000000000000000000000000815260040160405180910390fd5b600073ffffffffffffffffffffffffffffffffffffffff168173ffffffffffffffffffffffffffffffffffffffff16141562003a86576040517f5868b79d00000000000000000000000000000000000000000000000000000000815260040160405180910390fd5b62003a918162005163565b50565b6060828042111562003add576040517f08c379a000000000000000000000000000000000000000000000000000000000815260040162003ad49062008d76565b60405180910390fd5b60006001600260008b73ffffffffffffffffffffffffffffffffffffffff1673ffffffffffffffffffffffffffffffffffffffff168152602001908152602001600020548154811062003b355762003b3462008c85565b5b906000526020600020906003020160000160009054906101000a900473ffffffffffffffffffffffffffffffffffffffff16905060006001600260008b73ffffffffffffffffffffffffffffffffffffffff1673ffffffffffffffffffffffffffffffffffffffff168152602001908152602001600020548154811062003bc15762003bc062008c85565b5b906000526020600020906003020160000160009054906101000a900473ffffffffffffffffffffffffffffffffffffffff1690506000600267ffffffffffffffff81111562003c155762003c1462007e2a565b5b60405190808252806020026020018201604052801562003c445781602001602082028036833780820191505090505b509050888160018151811062003c5f5762003c5e62008c85565b5b60200260200101818152505060008054906101000a900473ffffffffffffffffffffffffffffffffffffffff1673ffffffffffffffffffffffffffffffffffffffff168b73ffffffffffffffffffffffffffffffffffffffff161415801562003d13575060008054906101000a900473ffffffffffffffffffffffffffffffffffffffff1673ffffffffffffffffffffffffffffffffffffffff168a73ffffffffffffffffffffffffffffffffffffffff16145b1562003e6a57600062003d278c85620047b2565b905062003d36818d8c620064f2565b8260008151811062003d4d5762003d4c62008c85565b5b602002602001018181525050888260008151811062003d715762003d7062008c85565b5b6020026020010151111562003dbd576040517f08c379a000000000000000000000000000000000000000000000000000000000815260040162003db49062009240565b60405180910390fd5b60018260008151811062003dd65762003dd562008c85565b5b60200260200101511162003e21576040517f08c379a000000000000000000000000000000000000000000000000000000000815260040162003e189062008e23565b60405180910390fd5b62003e4d8c33868560008151811062003e3f5762003e3e62008c85565b5b60200260200101516200480f565b62003e5d8c8260008d8b62005cc9565b81955050505050620043ea565b60008054906101000a900473ffffffffffffffffffffffffffffffffffffffff1673ffffffffffffffffffffffffffffffffffffffff168b73ffffffffffffffffffffffffffffffffffffffff1614801562003f12575060008054906101000a900473ffffffffffffffffffffffffffffffffffffffff1673ffffffffffffffffffffffffffffffffffffffff168a73ffffffffffffffffffffffffffffffffffffffff1614155b156200406957600062003f268b84620047b2565b905062003f35818c8c62006666565b8260008151811062003f4c5762003f4b62008c85565b5b602002602001018181525050888260008151811062003f705762003f6f62008c85565b5b6020026020010151111562003fbc576040517f08c379a000000000000000000000000000000000000000000000000000000000815260040162003fb390620092b2565b60405180910390fd5b60018260008151811062003fd55762003fd462008c85565b5b60200260200101511162004020576040517f08c379a0000000000000000000000000000000000000000000000000000000008152600401620040179062009324565b60405180910390fd5b6200404c8c3385856000815181106200403e576200403d62008c85565b5b60200260200101516200480f565b6200405c8b828c60008b62005cc9565b81955050505050620043ea565b60008054906101000a900473ffffffffffffffffffffffffffffffffffffffff1673ffffffffffffffffffffffffffffffffffffffff168b73ffffffffffffffffffffffffffffffffffffffff161415801562004112575060008054906101000a900473ffffffffffffffffffffffffffffffffffffffff1673ffffffffffffffffffffffffffffffffffffffff168a73ffffffffffffffffffffffffffffffffffffffff1614155b80156200414b57508973ffffffffffffffffffffffffffffffffffffffff168b73ffffffffffffffffffffffffffffffffffffffff1614155b15620043ad5760006200415f8c85620047b2565b9050600062004170828e8d62006666565b905060018111620041b8576040517f08c379a0000000000000000000000000000000000000000000000000000000008152600401620041af9062009324565b60405180910390fd5b6000620041c68d86620047b2565b9050620041d5818e84620064f2565b84600081518110620041ec57620041eb62008c85565b5b60200260200101818152505060018460008151811062004211576200421062008c85565b5b6020026020010151116200425c576040517f08c379a0000000000000000000000000000000000000000000000000000000008152600401620042539062009324565b60405180910390fd5b8a8460008151811062004274576200427362008c85565b5b60200260200101511115620042c0576040517f08c379a0000000000000000000000000000000000000000000000000000000008152600401620042b79062009240565b60405180910390fd5b600184600081518110620042d957620042d862008c85565b5b60200260200101511162004324576040517f08c379a00000000000000000000000000000000000000000000000000000000081526004016200431b9062008e23565b60405180910390fd5b620043508e33888760008151811062004342576200434162008c85565b5b60200260200101516200480f565b620043608e846000853062005cc9565b6200438e60008054906101000a900473ffffffffffffffffffffffffffffffffffffffff168787856200480f565b6200439e8d828e60008d62005cc9565b839750505050505050620043ea565b6040517f08c379a0000000000000000000000000000000000000000000000000000000008152600401620043e1906200912d565b60405180910390fd5b509695505050505050565b60008686905090508484905081146200443a576040517fa98a885900000000000000000000000000000000000000000000000000000000815260040160405180910390fd5b600073ffffffffffffffffffffffffffffffffffffffff168873ffffffffffffffffffffffffffffffffffffffff161415620044a2576040517f3e63c34800000000000000000000000000000000000000000000000000000000815260040160405180910390fd5b600033905060005b82811015620046cb576000878783818110620044cb57620044ca62008c85565b5b9050602002013590506000600c60008c8c86818110620044f057620044ef62008c85565b5b90506020020135815260200190815260200160002060008e73ffffffffffffffffffffffffffffffffffffffff1673ffffffffffffffffffffffffffffffffffffffff1681526020019081526020016000205490508181101562004580576040517f5ad11ec200000000000000000000000000000000000000000000000000000000815260040160405180910390fd5b818103600c60008d8d878181106200459d576200459c62008c85565b5b90506020020135815260200190815260200160002060008f73ffffffffffffffffffffffffffffffffffffffff1673ffffffffffffffffffffffffffffffffffffffff1681526020019081526020016000208190555081600c60008d8d878181106200460e576200460d62008c85565b5b90506020020135815260200190815260200160002060008e73ffffffffffffffffffffffffffffffffffffffff1673ffffffffffffffffffffffffffffffffffffffff168152602001908152602001600020600082825462004671919062008c28565b9250508190555081600f60008d8d8781811062004693576200469262008c85565b5b90506020020135815260200190815260200160002060008282540192505081905550505080620046c39062008bda565b9050620044aa565b508873ffffffffffffffffffffffffffffffffffffffff168a73ffffffffffffffffffffffffffffffffffffffff168273ffffffffffffffffffffffffffffffffffffffff167f4a39dc06d4c0dbc64b70af90fd698a233a518aa5d07e595d983b8c0526c8f7fb8b8b8b8b604051620047489493929190620093ae565b60405180910390a4620047a6818b8b8b8b8b8b8b8b8080601f016020809104026020016040519081016040528093929190818152602001838380828437600081840152601f19601f8201169050808301925050505050505062006a24565b50505050505050505050565b620047bc620074e0565b6040518060400160405280620047d3858562006b7d565b81526020016200480460008054906101000a900473ffffffffffffffffffffffffffffffffffffffff168562006b7d565b815250905092915050565b600560009054906101000a900473ffffffffffffffffffffffffffffffffffffffff1673ffffffffffffffffffffffffffffffffffffffff168473ffffffffffffffffffffffffffffffffffffffff161480156200489857503073ffffffffffffffffffffffffffffffffffffffff168273ffffffffffffffffffffffffffffffffffffffff16145b15620049025780341015620048d9576040517fb5db338c00000000000000000000000000000000000000000000000000000000815260040160405180910390fd5b80341115620048fc57620048fb338234620048f5919062008d98565b62006c87565b5b62004a2d565b600560009054906101000a900473ffffffffffffffffffffffffffffffffffffffff1673ffffffffffffffffffffffffffffffffffffffff168473ffffffffffffffffffffffffffffffffffffffff161480156200498b57503073ffffffffffffffffffffffffffffffffffffffff168373ffffffffffffffffffffffffffffffffffffffff16145b8015620049c457503073ffffffffffffffffffffffffffffffffffffffff168273ffffffffffffffffffffffffffffffffffffffff1614155b15620049d757620049d6828262006c87565b5b600034111562004a1e576040517f08c379a000000000000000000000000000000000000000000000000000000000815260040162004a15906200943d565b60405180910390fd5b62004a2c8484848462006d87565b5b50505050565b6000600382111562004aa8578190506000600160028462004a55919062008e74565b62004a61919062008c28565b90505b8181101562004aa157809150600281828562004a81919062008e74565b62004a8d919062008c28565b62004a99919062008e74565b905062004a64565b5062004ab7565b6000821462004ab657600190505b5b919050565b60008060006006600101549050858511801562004ad95750600086115b801562004ae65750600081115b1562004b5957808662004afa91906200878d565b81606462004b09919062008d98565b8662004b1691906200878d565b62004b22919062008c28565b868662004b30919062008d98565b828662004b3e91906200878d565b62004b4a91906200878d565b62004b56919062008e74565b91505b81925050509392505050565b600073ffffffffffffffffffffffffffffffffffffffff168473ffffffffffffffffffffffffffffffffffffffff16141562004bcd576040517ff84619ac00000000000000000000000000000000000000000000000000000000815260040160405180910390fd5b600082141562004bdd5762004d00565b600033905082600f6000868152602001908152602001600020600082825462004c07919062008c28565b9250508190555082600c600086815260200190815260200160002060008773ffffffffffffffffffffffffffffffffffffffff1673ffffffffffffffffffffffffffffffffffffffff168152602001908152602001600020600082825401925050819055508473ffffffffffffffffffffffffffffffffffffffff16600073ffffffffffffffffffffffffffffffffffffffff168273ffffffffffffffffffffffffffffffffffffffff167fc3d58168c5ae7397731d063d5bbf3d657854427343f4c083240f7aacaa2d0f62878760405162004ce59291906200945f565b60405180910390a462004cfe8160008787878762006ec2565b505b50505050565b6000826000600260008373ffffffffffffffffffffffffffffffffffffffff1673ffffffffffffffffffffffffffffffffffffffff16815260200190815260200160002054148062004da3575060008054906101000a900473ffffffffffffffffffffffffffffffffffffffff1673ffffffffffffffffffffffffffffffffffffffff168173ffffffffffffffffffffffffffffffffffffffff16145b1562004de6576040517f08c379a000000000000000000000000000000000000000000000000000000000815260040162004ddd9062008d04565b60405180910390fd5b60006001600260008773ffffffffffffffffffffffffffffffffffffffff1673ffffffffffffffffffffffffffffffffffffffff168152602001908152602001600020548154811062004e3e5762004e3d62008c85565b5b9060005260206000209060030201905062004e6f848760000151886020015162004e69858b62004f7c565b62007015565b925050509392505050565b6000826000600260008373ffffffffffffffffffffffffffffffffffffffff1673ffffffffffffffffffffffffffffffffffffffff16815260200190815260200160002054148062004f17575060008054906101000a900473ffffffffffffffffffffffffffffffffffffffff1673ffffffffffffffffffffffffffffffffffffffff168173ffffffffffffffffffffffffffffffffffffffff16145b1562004f5a576040517f08c379a000000000000000000000000000000000000000000000000000000000815260040162004f519062008d04565b60405180910390fd5b62004f72838660200151876000015161271062007015565b9150509392505050565b60008062004f8962007070565b90506000600860018362004f9e919062008c28565b62004faa91906200948c565b90506000805b600881101562005035578381148062004fc857508281145b1562004fd4576200501f565b86600101816008811062004fed5762004fec62008c85565b5b600891828204019190066004029054906101000a900463ffffffff1663ffffffff16826200501c919062008c28565b91505b80806200502c9062008bda565b91505062004fb0565b50678ac7230489e80000816200504c91906200878d565b905060006402540be40060066004015487602001516200506d91906200878d565b62005079919062008e74565b905060006402540be40060066005015488602001516200509a91906200878d565b620050a6919062008e74565b90506000828411620050c057600660030154905062005145565b8383108015620050cf57508184105b156200513b578282620050e3919062008d98565b600660020154600660030154620050fb919062008d98565b848662005109919062008d98565b6200511591906200878d565b62005121919062008e74565b60066003015462005133919062008d98565b905062005144565b60066002015490505b5b8061271062005155919062008d98565b965050505050505092915050565b6000601360009054906101000a900473ffffffffffffffffffffffffffffffffffffffff16905081601360006101000a81548173ffffffffffffffffffffffffffffffffffffffff021916908373ffffffffffffffffffffffffffffffffffffffff1602179055508173ffffffffffffffffffffffffffffffffffffffff168173ffffffffffffffffffffffffffffffffffffffff167f8be0079c531659141344cd1fd0a4f28419497f9722a3daafe3b4186f6b6457e060405160405180910390a35050565b600080600260008673ffffffffffffffffffffffffffffffffffffffff1673ffffffffffffffffffffffffffffffffffffffff16815260200190815260200160002054905060006001828154811062005287576200528662008c85565b5b906000526020600020906003020190506000620052c9878360000160009054906101000a900473ffffffffffffffffffffffffffffffffffffffff16620047b2565b90506000600f6000858152602001908152602001600020549050600081888460000151620052f891906200878d565b62005304919062008e74565b90506000828985602001516200531b91906200878d565b62005327919062008e74565b905060006200534b856020015186600001516200534591906200878d565b62004a33565b905060006200538e8760020160009054906101000a90046fffffffffffffffffffffffffffffffff166fffffffffffffffffffffffffffffffff16838762004abc565b9050620053d2600660000160009054906101000a900473ffffffffffffffffffffffffffffffffffffffff1689836040518060200160405280600081525062004b65565b60006040518060400160405280868960000151620053f1919062008d98565b815260200185896020015162005408919062008d98565b81525090506200542d816020015182600001516200542791906200878d565b62004a33565b8860020160006101000a8154816fffffffffffffffffffffffffffffffff02191690836fffffffffffffffffffffffffffffffff16021790555062005474338a8e62007095565b60008054906101000a900473ffffffffffffffffffffffffffffffffffffffff1673ffffffffffffffffffffffffffffffffffffffff166318a8ad8730866040518363ffffffff1660e01b8152600401620054d192919062008eac565b600060405180830381600087803b158015620054ec57600080fd5b505af115801562005501573d6000803e3d6000fd5b50505050620055378d8960000160009054906101000a900473ffffffffffffffffffffffffffffffffffffffff168d886200480f565b7f1dc8bb69df2b8e91fbdcbfcf93d951b3f0000f085a95fe3f7946d6161439245d8d86868f6040516200556e949392919062008ed9565b60405180910390a17f51ab1232a73b82b6b0acb0fa91b834cf6e258a1858c4e23c72ce97241c71aa0d8d826000015183602001518b60020160109054906101000a90046fffffffffffffffffffffffffffffffff16604051620055d5949392919062008f5f565b60405180910390a18499505050505050505050509392505050565b846000600260008373ffffffffffffffffffffffffffffffffffffffff1673ffffffffffffffffffffffffffffffffffffffff1681526020019081526020016000205411156200566c576040517f402670df00000000000000000000000000000000000000000000000000000000815260040160405180910390fd5b6000309050600560009054906101000a900473ffffffffffffffffffffffffffffffffffffffff1673ffffffffffffffffffffffffffffffffffffffff168773ffffffffffffffffffffffffffffffffffffffff1614620057035786604051620056d690620074fa565b620056e2919062007829565b604051809103906000f080158015620056ff573d6000803e3d6000fd5b5090505b62005711873383896200480f565b60008054906101000a900473ffffffffffffffffffffffffffffffffffffffff1673ffffffffffffffffffffffffffffffffffffffff16630bb9ff5d82876040518363ffffffff1660e01b81526004016200576e92919062008eac565b600060405180830381600087803b1580156200578957600080fd5b505af11580156200579e573d6000803e3d6000fd5b505050508673ffffffffffffffffffffffffffffffffffffffff166370a08231826040518263ffffffff1660e01b8152600401620057dd919062007829565b602060405180830381865afa158015620057fb573d6000803e3d6000fd5b505050506040513d601f19601f82011682018060405250810190620058219190620094db565b95506001861162005869576040517f08c379a0000000000000000000000000000000000000000000000000000000008152600401620058609062008e23565b60405180910390fd5b60006200588386886200587d91906200878d565b62004a33565b90506200588f62007508565b600060405180608001604052808573ffffffffffffffffffffffffffffffffffffffff168152602001838152602001846fffffffffffffffffffffffffffffffff168152602001886fffffffffffffffffffffffffffffffff16815250905060006001805490509050600182908060018154018082558091505060019003906000526020600020906003020160009091909190915060008201518160000160006101000a81548173ffffffffffffffffffffffffffffffffffffffff021916908373ffffffffffffffffffffffffffffffffffffffff160217905550602082015181600101906008620059849291906200752b565b5060408201518160020160006101000a8154816fffffffffffffffffffffffffffffffff02191690836fffffffffffffffffffffffffffffffff16021790555060608201518160020160106101000a8154816fffffffffffffffffffffffffffffffff02191690836fffffffffffffffffffffffffffffffff160217905550505080600260008d73ffffffffffffffffffffffffffffffffffffffff1673ffffffffffffffffffffffffffffffffffffffff1681526020019081526020016000208190555062005a6a61dead826103e86040518060200160405280600081525062004b65565b60006103e88562005a7c919062008d98565b905062005a9b8883836040518060200160405280600081525062004b65565b7f17aa8d0e85db1d0531a8181b5bb84e1d4ed744db1cadd8814acd3d181ff301378c8360405162005ace92919062008eac565b60405180910390a17f64b83944e79c3ce8d4c297411de637c3e102d064677aac0c163976ebdcd6f50e8c8c8c8460405162005b0d949392919062008ed9565b60405180910390a17f51ab1232a73b82b6b0acb0fa91b834cf6e258a1858c4e23c72ce97241c71aa0d8c8c8c8c60405162005b4c949392919062008ed9565b60405180910390a1505050505050505050505050565b8173ffffffffffffffffffffffffffffffffffffffff168373ffffffffffffffffffffffffffffffffffffffff16141562005bc9576040517fc0532dc800000000000000000000000000000000000000000000000000000000815260040160405180910390fd5b80600d60008573ffffffffffffffffffffffffffffffffffffffff1673ffffffffffffffffffffffffffffffffffffffff16815260200190815260200160002060008473ffffffffffffffffffffffffffffffffffffffff1673ffffffffffffffffffffffffffffffffffffffff16815260200190815260200160002060006101000a81548160ff0219169083151502179055508173ffffffffffffffffffffffffffffffffffffffff168373ffffffffffffffffffffffffffffffffffffffff167f17307eab39ab6107e8899845ad3d59bd9653f200f220920489ca2b5937696c318360405162005cbc9190620077c9565b60405180910390a3505050565b846000600260008373ffffffffffffffffffffffffffffffffffffffff1673ffffffffffffffffffffffffffffffffffffffff16815260200190815260200160002054148062005d64575060008054906101000a900473ffffffffffffffffffffffffffffffffffffffff1673ffffffffffffffffffffffffffffffffffffffff168173ffffffffffffffffffffffffffffffffffffffff16145b1562005da7576040517f08c379a000000000000000000000000000000000000000000000000000000000815260040162005d9e9062008d04565b60405180910390fd5b60006001600260008973ffffffffffffffffffffffffffffffffffffffff1673ffffffffffffffffffffffffffffffffffffffff168152602001908152602001600020548154811062005dff5762005dfe62008c85565b5b90600052602060002090600302019050600062005e41888360000160009054906101000a900473ffffffffffffffffffffffffffffffffffffffff16620047b2565b905060008760200151826020015162005e5b919062008d98565b905060008860000151836000015162005e75919062008d98565b90506001828262005e87919062008c28565b1162005eca576040517f08c379a000000000000000000000000000000000000000000000000000000000815260040162005ec1906200955d565b60405180910390fd5b6fffffffffffffffffffffffffffffffff80168460020160109054906101000a90046fffffffffffffffffffffffffffffffff166fffffffffffffffffffffffffffffffff1610801562005f5c575086828560020160109054906101000a90046fffffffffffffffffffffffffffffffff166fffffffffffffffffffffffffffffffff1662005f5a919062008c28565b105b1562005f9f576040517f08c379a000000000000000000000000000000000000000000000000000000000815260040162005f9690620095cf565b60405180910390fd5b60006127108062005fb191906200878d565b8a602001518b6000015162005fc791906200878d565b62005fd391906200878d565b90508882856000015162005fe8919062008c28565b62005ff4919062008d98565b8460000181815250508783856020015162006010919062008c28565b6200601c919062008d98565b846020018181525050600060018411801562006039575060018311155b62006050576200604a868c62004f7c565b62006054565b6127105b905060008161271062006068919062008d98565b846200607591906200878d565b61271087600001516200608991906200878d565b62006095919062008d98565b82612710620060a5919062008d98565b86620060b291906200878d565b6127108860200151620060c691906200878d565b620060d2919062008d98565b620060de91906200878d565b90508281101562006126576040517f08c379a00000000000000000000000000000000000000000000000000000000081526004016200611d9062009641565b60405180910390fd5b6fffffffffffffffffffffffffffffffff80168760020160109054906101000a90046fffffffffffffffffffffffffffffffff166fffffffffffffffffffffffffffffffff161015620061fb5789858860020160109054906101000a90046fffffffffffffffffffffffffffffffff166fffffffffffffffffffffffffffffffff16620061b4919062008c28565b620061c0919062008d98565b8760020160106101000a8154816fffffffffffffffffffffffffffffffff02191690836fffffffffffffffffffffffffffffffff1602179055505b60006200620762007070565b9050600060086001836200621c919062008c28565b6200622891906200948c565b9050678ac7230489e800008c1115620062fb576000678ac7230489e800008d62006253919062008e74565b8a60010184600881106200626c576200626b62008c85565b5b600891828204019190066004029054906101000a900463ffffffff1663ffffffff166200629a919062008c28565b905063ffffffff80168110620062b55763ffffffff620062b7565b805b8a6001018460088110620062d057620062cf62008c85565b5b600891828204019190066004026101000a81548163ffffffff021916908363ffffffff160217905550505b600189600101826008811062006316576200631562008c85565b5b600891828204019190066004029054906101000a900463ffffffff1663ffffffff161115620063845760018960010182600881106200635a576200635962008c85565b5b600891828204019190066004026101000a81548163ffffffff021916908363ffffffff1602179055505b505050620063b98c8760000160009054906101000a900473ffffffffffffffffffffffffffffffffffffffff168a8d6200480f565b6200640b60008054906101000a900473ffffffffffffffffffffffffffffffffffffffff168760000160009054906101000a900473ffffffffffffffffffffffffffffffffffffffff168a8c6200480f565b7f4ab7f3f4678bf8f6cbe4d85e4007b7c64df8e1d5d97de1628f4a6416f9d1db038c3385878e8e8761271062006442919062008d98565b8f6040516200645998979695949392919062009663565b60405180910390a17f51ab1232a73b82b6b0acb0fa91b834cf6e258a1858c4e23c72ce97241c71aa0d8c866000015187602001518960020160109054906101000a90046fffffffffffffffffffffffffffffffff16604051620064c0949392919062008f5f565b60405180910390a1505050505050505050505050565b80600e9080519060200190620064ee92919062007372565b5050565b6000826000600260008373ffffffffffffffffffffffffffffffffffffffff1673ffffffffffffffffffffffffffffffffffffffff1681526020019081526020016000205414806200658f575060008054906101000a900473ffffffffffffffffffffffffffffffffffffffff1673ffffffffffffffffffffffffffffffffffffffff168173ffffffffffffffffffffffffffffffffffffffff16145b15620065d2576040517f08c379a0000000000000000000000000000000000000000000000000000000008152600401620065c99062008d04565b60405180910390fd5b60006001600260008773ffffffffffffffffffffffffffffffffffffffff1673ffffffffffffffffffffffffffffffffffffffff16815260200190815260200160002054815481106200662a576200662962008c85565b5b906000526020600020906003020190506200665b848760000151886020015162006655858b62004f7c565b62007292565b925050509392505050565b6000826000600260008373ffffffffffffffffffffffffffffffffffffffff1673ffffffffffffffffffffffffffffffffffffffff16815260200190815260200160002054148062006703575060008054906101000a900473ffffffffffffffffffffffffffffffffffffffff1673ffffffffffffffffffffffffffffffffffffffff168173ffffffffffffffffffffffffffffffffffffffff16145b1562006746576040517f08c379a00000000000000000000000000000000000000000000000000000000081526004016200673d9062008d04565b60405180910390fd5b6200675e838660200151876000015161271062007292565b9150509392505050565b600073ffffffffffffffffffffffffffffffffffffffff168573ffffffffffffffffffffffffffffffffffffffff161415620067d0576040517f3e63c34800000000000000000000000000000000000000000000000000000000815260040160405180910390fd5b60003390506000600c600087815260200190815260200160002060008973ffffffffffffffffffffffffffffffffffffffff1673ffffffffffffffffffffffffffffffffffffffff1681526020019081526020016000205490508481101562006865576040517f5ad11ec200000000000000000000000000000000000000000000000000000000815260040160405180910390fd5b848103600c600088815260200190815260200160002060008a73ffffffffffffffffffffffffffffffffffffffff1673ffffffffffffffffffffffffffffffffffffffff1681526020019081526020016000208190555084600c600088815260200190815260200160002060008973ffffffffffffffffffffffffffffffffffffffff1673ffffffffffffffffffffffffffffffffffffffff16815260200190815260200160002060008282546200691e919062008c28565b9250508190555084600f6000888152602001908152602001600020600082825401925050819055508673ffffffffffffffffffffffffffffffffffffffff168873ffffffffffffffffffffffffffffffffffffffff168373ffffffffffffffffffffffffffffffffffffffff167fc3d58168c5ae7397731d063d5bbf3d657854427343f4c083240f7aacaa2d0f628989604051620069be9291906200945f565b60405180910390a462006a1a828989898989898080601f016020809104026020016040519081016040528093929190818152602001838380828437600081840152601f19601f8201169050808301925050505050505062006ec2565b5050505050505050565b62006a2f86620072f5565b1562006b73578573ffffffffffffffffffffffffffffffffffffffff1663bc197c81898988888888886040518863ffffffff1660e01b815260040162006a7c97969594939291906200974e565b6020604051808303816000875af192505050801562006abb57506040513d601f19601f8201168201806040525081019062006ab89190620097db565b60015b62006af2576040517f45d406b200000000000000000000000000000000000000000000000000000000815260040160405180910390fd5b63bc197c8160e01b7bffffffffffffffffffffffffffffffffffffffffffffffffffffffff1916817bffffffffffffffffffffffffffffffffffffffffffffffffffffffff19161462006b71576040517f2baa526e00000000000000000000000000000000000000000000000000000000815260040160405180910390fd5b505b5050505050505050565b600080600560009054906101000a900473ffffffffffffffffffffffffffffffffffffffff1673ffffffffffffffffffffffffffffffffffffffff168473ffffffffffffffffffffffffffffffffffffffff16141562006bfb578273ffffffffffffffffffffffffffffffffffffffff163190508091505062006c81565b8373ffffffffffffffffffffffffffffffffffffffff166370a08231846040518263ffffffff1660e01b815260040162006c36919062007829565b602060405180830381865afa15801562006c54573d6000803e3d6000fd5b505050506040513d601f19601f8201168201806040525081019062006c7a9190620094db565b9050809150505b92915050565b60008273ffffffffffffffffffffffffffffffffffffffff1682600067ffffffffffffffff81111562006cbf5762006cbe62007e2a565b5b6040519080825280601f01601f19166020018201604052801562006cf25781602001600182028036833780820191505090505b5060405162006d0291906200984f565b60006040518083038185875af1925050503d806000811462006d41576040519150601f19603f3d011682016040523d82523d6000602084013e62006d46565b606091505b505090508062006d82576040517f30667aab00000000000000000000000000000000000000000000000000000000815260040160405180910390fd5b505050565b6000808573ffffffffffffffffffffffffffffffffffffffff166323b872dd86868660405160240162006dbd9392919062009868565b6040516020818303038152906040529060e01b6020820180517bffffffffffffffffffffffffffffffffffffffffffffffffffffffff838183161783525050505060405162006e0d91906200984f565b6000604051808303816000865af19150503d806000811462006e4c576040519150601f19603f3d011682016040523d82523d6000602084013e62006e51565b606091505b509150915081801562006e83575060008151148062006e8257508080602001905181019062006e819190620098bc565b5b5b62006eba576040517f6050fe2900000000000000000000000000000000000000000000000000000000815260040160405180910390fd5b505050505050565b62006ecd84620072f5565b156200700d578373ffffffffffffffffffffffffffffffffffffffff1663f23a6e6187878686866040518663ffffffff1660e01b815260040162006f16959493929190620098ee565b6020604051808303816000875af192505050801562006f5557506040513d601f19601f8201168201806040525081019062006f529190620097db565b60015b62006f8c576040517f45d406b200000000000000000000000000000000000000000000000000000000815260040160405180910390fd5b63f23a6e6160e01b7bffffffffffffffffffffffffffffffffffffffffffffffffffffffff1916817bffffffffffffffffffffffffffffffffffffffffffffffffffffffff1916146200700b576040517f2baa526e00000000000000000000000000000000000000000000000000000000815260040160405180910390fd5b505b505050505050565b60008082866200702691906200878d565b9050600081612710876200703b91906200878d565b62007047919062008c28565b82866200705591906200878d565b62007061919062008e74565b90508092505050949350505050565b600060086138404262007084919062008e74565b6200709091906200948c565b905090565b600073ffffffffffffffffffffffffffffffffffffffff168373ffffffffffffffffffffffffffffffffffffffff161415620070fd576040517fedba591d00000000000000000000000000000000000000000000000000000000815260040160405180910390fd5b60003390506000600c600085815260200190815260200160002060008673ffffffffffffffffffffffffffffffffffffffff1673ffffffffffffffffffffffffffffffffffffffff1681526020019081526020016000205490508281101562007192576040517f73eca78400000000000000000000000000000000000000000000000000000000815260040160405180910390fd5b828103600c600086815260200190815260200160002060008773ffffffffffffffffffffffffffffffffffffffff1673ffffffffffffffffffffffffffffffffffffffff1681526020019081526020016000208190555082600f600086815260200190815260200160002060008282540392505081905550600073ffffffffffffffffffffffffffffffffffffffff168573ffffffffffffffffffffffffffffffffffffffff168373ffffffffffffffffffffffffffffffffffffffff167fc3d58168c5ae7397731d063d5bbf3d657854427343f4c083240f7aacaa2d0f628787604051620072839291906200945f565b60405180910390a45050505050565b60008060018685620072a5919062008d98565b84620072b291906200878d565b6127108888620072c391906200878d565b620072cf91906200878d565b620072db919062008e74565b620072e7919062008c28565b905080915050949350505050565b600080823b905060008111915050919050565b6040518060800160405280600073ffffffffffffffffffffffffffffffffffffffff1681526020016200733a62007508565b815260200160006fffffffffffffffffffffffffffffffff16815260200160006fffffffffffffffffffffffffffffffff1681525090565b828054620073809062008728565b90600052602060002090601f016020900481019282620073a45760008555620073f0565b82601f10620073bf57805160ff1916838001178555620073f0565b82800160010185558215620073f0579182015b82811115620073ef578251825591602001919060010190620073d2565b5b509050620073ff9190620075d5565b5090565b6040518060c00160405280600073ffffffffffffffffffffffffffffffffffffffff16815260200160008152602001600081526020016000815260200160008152602001600081525090565b8280546200745d9062008728565b90600052602060002090601f016020900481019282620074815760008555620074cd565b82601f106200749c57803560ff1916838001178555620074cd565b82800160010185558215620074cd579182015b82811115620074cc578235825591602001919060010190620074af565b5b509050620074dc9190620075d5565b5090565b604051806040016040528060008152602001600081525090565b61041d806200995383390190565b604051806101000160405280600890602082028036833780820191505090505090565b826008600701600890048101928215620075c25791602002820160005b838211156200758e57835183826101000a81548163ffffffff021916908363ffffffff160217905550926020019260040160208160030104928301926001030262007548565b8015620075c05782816101000a81549063ffffffff02191690556004016020816003010492830192600103026200758e565b505b509050620075d19190620075d5565b5090565b5b80821115620075f0576000816000905550600101620075d6565b5090565b6000604051905090565b600080fd5b600080fd5b600073ffffffffffffffffffffffffffffffffffffffff82169050919050565b6000620076358262007608565b9050919050565b620076478162007628565b81146200765357600080fd5b50565b60008135905062007667816200763c565b92915050565b6000819050919050565b62007682816200766d565b81146200768e57600080fd5b50565b600081359050620076a28162007677565b92915050565b60008060408385031215620076c257620076c1620075fe565b5b6000620076d28582860162007656565b9250506020620076e58582860162007691565b9150509250929050565b620076fa816200766d565b82525050565b6000602082019050620077176000830184620076ef565b92915050565b60007fffffffff0000000000000000000000000000000000000000000000000000000082169050919050565b62007754816200771d565b81146200776057600080fd5b50565b600081359050620077748162007749565b92915050565b600060208284031215620077935762007792620075fe565b5b6000620077a38482850162007763565b91505092915050565b60008115159050919050565b620077c381620077ac565b82525050565b6000602082019050620077e06000830184620077b8565b92915050565b600060208284031215620077ff57620077fe620075fe565b5b60006200780f8482850162007691565b91505092915050565b620078238162007628565b82525050565b600060208201905062007840600083018462007818565b92915050565b600081519050919050565b600082825260208201905092915050565b60005b838110156200788257808201518184015260208101905062007865565b8381111562007892576000848401525b50505050565b6000601f19601f8301169050919050565b6000620078b68262007846565b620078c2818562007851565b9350620078d481856020860162007862565b620078df8162007898565b840191505092915050565b60006020820190508181036000830152620079068184620078a9565b905092915050565b600080fd5b600060c082840312156200792c576200792b6200790e565b5b81905092915050565b600060c082840312156200794e576200794d620075fe565b5b60006200795e8482850162007913565b91505092915050565b600080fd5b600080fd5b600080fd5b60008083601f8401126200798f576200798e62007967565b5b8235905067ffffffffffffffff811115620079af57620079ae6200796c565b5b602083019150836020820283011115620079ce57620079cd62007971565b5b9250929050565b60008083601f840112620079ee57620079ed62007967565b5b8235905067ffffffffffffffff81111562007a0e5762007a0d6200796c565b5b60208301915083600182028301111562007a2d5762007a2c62007971565b5b9250929050565b60008060008060008060008060a0898b03121562007a575762007a56620075fe565b5b600062007a678b828c0162007656565b985050602062007a7a8b828c0162007656565b975050604089013567ffffffffffffffff81111562007a9e5762007a9d62007603565b5b62007aac8b828c0162007976565b9650965050606089013567ffffffffffffffff81111562007ad25762007ad162007603565b5b62007ae08b828c0162007976565b9450945050608089013567ffffffffffffffff81111562007b065762007b0562007603565b5b62007b148b828c01620079d5565b92509250509295985092959890939650565b60008083601f84011262007b3f5762007b3e62007967565b5b8235905067ffffffffffffffff81111562007b5f5762007b5e6200796c565b5b60208301915083602082028301111562007b7e5762007b7d62007971565b5b9250929050565b6000806020838503121562007b9f5762007b9e620075fe565b5b600083013567ffffffffffffffff81111562007bc05762007bbf62007603565b5b62007bce8582860162007b26565b92509250509250929050565b600081519050919050565b600082825260208201905092915050565b6000819050602082019050919050565b62007c118162007628565b82525050565b600060089050919050565b600081905092915050565b6000819050919050565b600063ffffffff82169050919050565b62007c528162007c37565b82525050565b600062007c66838362007c47565b60208301905092915050565b6000602082019050919050565b62007c8a8162007c17565b62007c96818462007c22565b925062007ca38262007c2d565b8060005b8381101562007cda57815162007cbe878262007c58565b965062007ccb8362007c72565b92505060018101905062007ca7565b505050505050565b60006fffffffffffffffffffffffffffffffff82169050919050565b62007d098162007ce2565b82525050565b6101608201600082015162007d28600085018262007c06565b50602082015162007d3d602085018262007c7f565b50604082015162007d5361012085018262007cfe565b50606082015162007d6961014085018262007cfe565b50505050565b600062007d7d838362007d0f565b6101608301905092915050565b6000602082019050919050565b600062007da48262007bda565b62007db0818562007be5565b935062007dbd8362007bf6565b8060005b8381101562007df457815162007dd8888262007d6f565b975062007de58362007d8a565b92505060018101905062007dc1565b5085935050505092915050565b6000602082019050818103600083015262007e1d818462007d97565b905092915050565b600080fd5b7f4e487b7100000000000000000000000000000000000000000000000000000000600052604160045260246000fd5b62007e648262007898565b810181811067ffffffffffffffff8211171562007e865762007e8562007e2a565b5b80604052505050565b600062007e9b620075f4565b905062007ea9828262007e59565b919050565b600067ffffffffffffffff82111562007ecc5762007ecb62007e2a565b5b62007ed78262007898565b9050602081019050919050565b82818337600083830152505050565b600062007f0a62007f048462007eae565b62007e8f565b90508281526020810184848401111562007f295762007f2862007e25565b5b62007f3684828562007ee4565b509392505050565b600082601f83011262007f565762007f5562007967565b5b813562007f6884826020860162007ef3565b91505092915050565b6000806040838503121562007f8b5762007f8a620075fe565b5b600083013567ffffffffffffffff81111562007fac5762007fab62007603565b5b62007fba8582860162007f3e565b925050602083013567ffffffffffffffff81111562007fde5762007fdd62007603565b5b62007fec8582860162007f3e565b9150509250929050565b60008060008060808587031215620080135762008012620075fe565b5b6000620080238782880162007656565b9450506020620080368782880162007691565b9350506040620080498782880162007691565b92505060606200805c8782880162007656565b91505092959194509250565b600080600060608486031215620080845762008083620075fe565b5b6000620080948682870162007656565b9350506020620080a78682870162007656565b9250506040620080ba8682870162007691565b9150509250925092565b600060208284031215620080dd57620080dc620075fe565b5b6000620080ed8482850162007656565b91505092915050565b60008060008060408587031215620081135762008112620075fe565b5b600085013567ffffffffffffffff81111562008134576200813362007603565b5b620081428782880162007b26565b9450945050602085013567ffffffffffffffff81111562008168576200816762007603565b5b620081768782880162007976565b925092505092959194509250565b600081519050919050565b600082825260208201905092915050565b6000819050602082019050919050565b620081bb816200766d565b82525050565b6000620081cf8383620081b0565b60208301905092915050565b6000602082019050919050565b6000620081f58262008184565b6200820181856200818f565b93506200820e83620081a0565b8060005b8381101562008245578151620082298882620081c1565b97506200823683620081db565b92505060018101905062008212565b5085935050505092915050565b600060208201905081810360008301526200826e8184620081e8565b905092915050565b60c0820160008201516200828e600085018262007c06565b506020820151620082a36020850182620081b0565b506040820151620082b86040850182620081b0565b506060820151620082cd6060850182620081b0565b506080820151620082e26080850182620081b0565b5060a0820151620082f760a0850182620081b0565b50505050565b600060c08201905062008314600083018462008276565b92915050565b6200832581620077ac565b81146200833157600080fd5b50565b60008135905062008345816200831a565b92915050565b60008060408385031215620083655762008364620075fe565b5b6000620083758582860162007656565b9250506020620083888582860162008334565b9150509250929050565b60008060008060008060c08789031215620083b257620083b1620075fe565b5b6000620083c289828a0162007656565b9650506020620083d589828a0162007656565b9550506040620083e889828a0162007691565b9450506060620083fb89828a0162007691565b93505060806200840e89828a0162007691565b92505060a06200842189828a0162007656565b9150509295509295509295565b60008060208385031215620084485762008447620075fe565b5b600083013567ffffffffffffffff81111562008469576200846862007603565b5b620084778582860162007976565b92509250509250929050565b60008083601f8401126200849c576200849b62007967565b5b8235905067ffffffffffffffff811115620084bc57620084bb6200796c565b5b602083019150836001820283011115620084db57620084da62007971565b5b9250929050565b60008060208385031215620084fc57620084fb620075fe565b5b600083013567ffffffffffffffff8111156200851d576200851c62007603565b5b6200852b8582860162008483565b92509250509250929050565b60008060408385031215620085515762008550620075fe565b5b6000620085618582860162007656565b9250506020620085748582860162007656565b9150509250929050565b600080600080600060a086880312156200859d576200859c620075fe565b5b6000620085ad8882890162007656565b9550506020620085c08882890162007656565b9450506040620085d38882890162007656565b9350506060620085e68882890162007656565b9250506080620085f98882890162007656565b9150509295509295909350565b60008060008060008060a08789031215620086265762008625620075fe565b5b60006200863689828a0162007656565b96505060206200864989828a0162007656565b95505060406200865c89828a0162007691565b94505060606200866f89828a0162007691565b935050608087013567ffffffffffffffff81111562008693576200869262007603565b5b620086a189828a01620079d5565b92509250509295509295509295565b600081519050620086c1816200763c565b92915050565b600060208284031215620086e057620086df620075fe565b5b6000620086f084828501620086b0565b91505092915050565b7f4e487b7100000000000000000000000000000000000000000000000000000000600052602260045260246000fd5b600060028204905060018216806200874157607f821691505b60208210811415620087585762008757620086f9565b5b50919050565b7f4e487b7100000000000000000000000000000000000000000000000000000000600052601160045260246000fd5b60006200879a826200766d565b9150620087a7836200766d565b9250817fffffffffffffffffffffffffffffffffffffffffffffffffffffffffffffffff0483118215151615620087e357620087e26200875e565b5b828202905092915050565b60008135620087fd816200763c565b80915050919050565b60008160001b9050919050565b600073ffffffffffffffffffffffffffffffffffffffff620088358462008806565b9350801983169250808416831791505092915050565b6000819050919050565b600062008876620088706200886a8462007608565b6200884b565b62007608565b9050919050565b60006200888a8262008855565b9050919050565b60006200889e826200887d565b9050919050565b6000819050919050565b620088ba8262008891565b620088d1620088c982620088a5565b835462008813565b8255505050565b60008135620088e78162007677565b80915050919050565b60007fffffffffffffffffffffffffffffffffffffffffffffffffffffffffffffffff6200891e8462008806565b9350801983169250808416831791505092915050565b6000620089556200894f62008949846200766d565b6200884b565b6200766d565b9050919050565b6000819050919050565b620089718262008934565b6200898862008980826200895c565b8354620088f0565b8255505050565b600081016000830180620089a381620087ee565b9050620089b18184620088af565b505050600181016020830180620089c881620088d8565b9050620089d6818462008966565b505050600281016040830180620089ed81620088d8565b9050620089fb818462008966565b50505060038101606083018062008a1281620088d8565b905062008a20818462008966565b50505060048101608083018062008a3781620088d8565b905062008a45818462008966565b5050506005810160a083018062008a5c81620088d8565b905062008a6a818462008966565b5050505050565b62008a7d82826200898f565b5050565b600081905092915050565b60008190508160005260206000209050919050565b6000815462008ab08162008728565b62008abc818662008a81565b9450600182166000811462008ada576001811462008aec5762008b23565b60ff1983168652818601935062008b23565b62008af78562008a8c565b60005b8381101562008b1b5781548189015260018201915060208101905062008afa565b838801955050505b50505092915050565b6000819050919050565b62008b4b62008b45826200766d565b62008b2c565b82525050565b7f2e6a736f6e000000000000000000000000000000000000000000000000000000600082015250565b600062008b8960058362008a81565b915062008b968262008b51565b600582019050919050565b600062008baf828562008aa1565b915062008bbd828462008b36565b60208201915062008bce8262008b7a565b91508190509392505050565b600062008be7826200766d565b91507fffffffffffffffffffffffffffffffffffffffffffffffffffffffffffffffff82141562008c1d5762008c1c6200875e565b5b600182019050919050565b600062008c35826200766d565b915062008c42836200766d565b9250827fffffffffffffffffffffffffffffffffffffffffffffffffffffffffffffffff0382111562008c7a5762008c796200875e565b5b828201905092915050565b7f4e487b7100000000000000000000000000000000000000000000000000000000600052603260045260246000fd5b7f4300000000000000000000000000000000000000000000000000000000000000600082015250565b600062008cec60018362007851565b915062008cf98262008cb4565b602082019050919050565b6000602082019050818103600083015262008d1f8162008cdd565b9050919050565b7f4400000000000000000000000000000000000000000000000000000000000000600082015250565b600062008d5e60018362007851565b915062008d6b8262008d26565b602082019050919050565b6000602082019050818103600083015262008d918162008d4f565b9050919050565b600062008da5826200766d565b915062008db2836200766d565b92508282101562008dc85762008dc76200875e565b5b828203905092915050565b7f4600000000000000000000000000000000000000000000000000000000000000600082015250565b600062008e0b60018362007851565b915062008e188262008dd3565b602082019050919050565b6000602082019050818103600083015262008e3e8162008dfc565b9050919050565b7f4e487b7100000000000000000000000000000000000000000000000000000000600052601260045260246000fd5b600062008e81826200766d565b915062008e8e836200766d565b92508262008ea15762008ea062008e45565b5b828204905092915050565b600060408201905062008ec3600083018562007818565b62008ed26020830184620076ef565b9392505050565b600060808201905062008ef0600083018762007818565b62008eff6020830186620076ef565b62008f0e6040830185620076ef565b62008f1d6060830184620076ef565b95945050505050565b600062008f4762008f4162008f3b8462007ce2565b6200884b565b6200766d565b9050919050565b62008f598162008f26565b82525050565b600060808201905062008f76600083018762007818565b62008f856020830186620076ef565b62008f946040830185620076ef565b62008fa3606083018462008f4e565b95945050505050565b600062008fb98262007ce2565b915062008fc68362007ce2565b9250826fffffffffffffffffffffffffffffffff0382111562008fee5762008fed6200875e565b5b828201905092915050565b7f4800000000000000000000000000000000000000000000000000000000000000600082015250565b60006200903160018362007851565b91506200903e8262008ff9565b602082019050919050565b60006020820190508181036000830152620090648162009022565b9050919050565b7f6900000000000000000000000000000000000000000000000000000000000000600082015250565b6000620090a360018362007851565b9150620090b0826200906b565b602082019050919050565b60006020820190508181036000830152620090d68162009094565b9050919050565b7f4c00000000000000000000000000000000000000000000000000000000000000600082015250565b60006200911560018362007851565b91506200912282620090dd565b602082019050919050565b60006020820190508181036000830152620091488162009106565b9050919050565b60006200915d838562008a81565b93506200916c83858462007ee4565b82840190509392505050565b7f7b69647d2e6a736f6e0000000000000000000000000000000000000000000000600082015250565b6000620091b060098362008a81565b9150620091bd8262009178565b600982019050919050565b6000620091d78284866200914f565b9150620091e482620091a1565b91508190509392505050565b7f4b00000000000000000000000000000000000000000000000000000000000000600082015250565b60006200922860018362007851565b91506200923582620091f0565b602082019050919050565b600060208201905081810360008301526200925b8162009219565b9050919050565b7f4a00000000000000000000000000000000000000000000000000000000000000600082015250565b60006200929a60018362007851565b9150620092a78262009262565b602082019050919050565b60006020820190508181036000830152620092cd816200928b565b9050919050565b7f5500000000000000000000000000000000000000000000000000000000000000600082015250565b60006200930c60018362007851565b91506200931982620092d4565b602082019050919050565b600060208201905081810360008301526200933f81620092fd565b9050919050565b600080fd5b60006200935983856200818f565b93507f07ffffffffffffffffffffffffffffffffffffffffffffffffffffffffffffff8311156200938f576200938e62009346565b5b602083029250620093a283858462007ee4565b82840190509392505050565b60006040820190508181036000830152620093cb8186886200934b565b90508181036020830152620093e28184866200934b565b905095945050505050565b7f4700000000000000000000000000000000000000000000000000000000000000600082015250565b60006200942560018362007851565b91506200943282620093ed565b602082019050919050565b60006020820190508181036000830152620094588162009416565b9050919050565b6000604082019050620094766000830185620076ef565b620094856020830184620076ef565b9392505050565b600062009499826200766d565b9150620094a6836200766d565b925082620094b957620094b862008e45565b5b828206905092915050565b600081519050620094d58162007677565b92915050565b600060208284031215620094f457620094f3620075fe565b5b60006200950484828501620094c4565b91505092915050565b7f3200000000000000000000000000000000000000000000000000000000000000600082015250565b60006200954560018362007851565b915062009552826200950d565b602082019050919050565b60006020820190508181036000830152620095788162009536565b9050919050565b7f5a00000000000000000000000000000000000000000000000000000000000000600082015250565b6000620095b760018362007851565b9150620095c4826200957f565b602082019050919050565b60006020820190508181036000830152620095ea81620095a8565b9050919050565b7f3100000000000000000000000000000000000000000000000000000000000000600082015250565b60006200962960018362007851565b91506200963682620095f1565b602082019050919050565b600060208201905081810360008301526200965c816200961a565b9050919050565b6000610100820190506200967b600083018b62007818565b6200968a602083018a62007818565b620096996040830189620076ef565b620096a86060830188620076ef565b620096b76080830187620076ef565b620096c660a0830186620076ef565b620096d560c0830185620076ef565b620096e460e083018462007818565b9998505050505050505050565b600081519050919050565b600082825260208201905092915050565b60006200971a82620096f1565b620097268185620096fc565b93506200973881856020860162007862565b620097438162007898565b840191505092915050565b600060a08201905062009765600083018a62007818565b62009774602083018962007818565b8181036040830152620097898187896200934b565b90508181036060830152620097a08185876200934b565b90508181036080830152620097b681846200970d565b905098975050505050505050565b600081519050620097d58162007749565b92915050565b600060208284031215620097f457620097f3620075fe565b5b60006200980484828501620097c4565b91505092915050565b600081905092915050565b60006200982582620096f1565b6200983181856200980d565b93506200984381856020860162007862565b80840191505092915050565b60006200985d828462009818565b915081905092915050565b60006060820190506200987f600083018662007818565b6200988e602083018562007818565b6200989d6040830184620076ef565b949350505050565b600081519050620098b6816200831a565b92915050565b600060208284031215620098d557620098d4620075fe565b5b6000620098e584828501620098a5565b91505092915050565b600060a08201905062009905600083018862007818565b62009914602083018762007818565b620099236040830186620076ef565b620099326060830185620076ef565b81810360808301526200994681846200970d565b9050969550505050505056fe6080604052730fc5025c764ce34df352757e82f7b5c4df39a8366000806101000a81548173ffffffffffffffffffffffffffffffffffffffff021916908373ffffffffffffffffffffffffffffffffffffffff16021790555034801561006457600080fd5b5060405161041d38038061041d833981810160405281019061008691906101cf565b8073ffffffffffffffffffffffffffffffffffffffff1663095ea7b3337fffffffffffffffffffffffffffffffffffffffffffffffffffffffffffffffff6040518363ffffffff1660e01b81526004016100e1929190610224565b6020604051808303816000875af1158015610100573d6000803e3d6000fd5b505050506040513d601f19601f820116820180604052508101906101249190610285565b5080600160006101000a81548173ffffffffffffffffffffffffffffffffffffffff021916908373ffffffffffffffffffffffffffffffffffffffff160217905550506102b2565b600080fd5b600073ffffffffffffffffffffffffffffffffffffffff82169050919050565b600061019c82610171565b9050919050565b6101ac81610191565b81146101b757600080fd5b50565b6000815190506101c9816101a3565b92915050565b6000602082840312156101e5576101e461016c565b5b60006101f3848285016101ba565b91505092915050565b61020581610191565b82525050565b6000819050919050565b61021e8161020b565b82525050565b600060408201905061023960008301856101fc565b6102466020830184610215565b9392505050565b60008115159050919050565b6102628161024d565b811461026d57600080fd5b50565b60008151905061027f81610259565b92915050565b60006020828403121561029b5761029a61016c565b5b60006102a984828501610270565b91505092915050565b61015c806102c16000396000f3fe608060405234801561001057600080fd5b50600436106100365760003560e01c80630dfe16811461003b578063d21220a714610059575b600080fd5b610043610077565b604051610050919061010b565b60405180910390f35b6100616100a1565b60405161006e919061010b565b60405180910390f35b6000600160009054906101000a900473ffffffffffffffffffffffffffffffffffffffff16905090565b60008060009054906101000a900473ffffffffffffffffffffffffffffffffffffffff16905090565b600073ffffffffffffffffffffffffffffffffffffffff82169050919050565b60006100f5826100ca565b9050919050565b610105816100ea565b82525050565b600060208201905061012060008301846100fc565b9291505056fea26469706673582212209fefa069cd2706c650261392931412464f4adfdc8fb70e326ec7cf6c189158e664736f6c634300080b0033a2646970667358221220deb7455c6bc2d69d545179133d3f36f3a58d87f8f5e14b913bf704377498ba6264736f6c634300080b003368747470733a2f2f646174612e63657262792e66692f4365726279537761702f76312f",
			"opcodes": "PUSH1 0x80 PUSH1 0x40 MSTORE PUSH20 0xFC5025C764CE34DF352757E82F7B5C4DF39A836 PUSH1 0x0 DUP1 PUSH2 0x100 EXP DUP2 SLOAD DUP2 PUSH20 0xFFFFFFFFFFFFFFFFFFFFFFFFFFFFFFFFFFFFFFFF MUL NOT AND SWAP1 DUP4 PUSH20 0xFFFFFFFFFFFFFFFFFFFFFFFFFFFFFFFFFFFFFFFF AND MUL OR SWAP1 SSTORE POP PUSH20 0xE7126C0FB4B1F5F79E5BBEC3948139DCF348B49C PUSH1 0x3 PUSH1 0x0 PUSH2 0x100 EXP DUP2 SLOAD DUP2 PUSH20 0xFFFFFFFFFFFFFFFFFFFFFFFFFFFFFFFFFFFFFFFF MUL NOT AND SWAP1 DUP4 PUSH20 0xFFFFFFFFFFFFFFFFFFFFFFFFFFFFFFFFFFFFFFFF AND MUL OR SWAP1 SSTORE POP PUSH20 0x7412F2CD820D1E63BD130B0FFEBE44C4E5A47D71 PUSH1 0x4 PUSH1 0x0 PUSH2 0x100 EXP DUP2 SLOAD DUP2 PUSH20 0xFFFFFFFFFFFFFFFFFFFFFFFFFFFFFFFFFFFFFFFF MUL NOT AND SWAP1 DUP4 PUSH20 0xFFFFFFFFFFFFFFFFFFFFFFFFFFFFFFFFFFFFFFFF AND MUL OR SWAP1 SSTORE POP PUSH20 0x14769F96E57B80C66837701DE0B43686FB4632DE PUSH1 0x5 PUSH1 0x0 PUSH2 0x100 EXP DUP2 SLOAD DUP2 PUSH20 0xFFFFFFFFFFFFFFFFFFFFFFFFFFFFFFFFFFFFFFFF MUL NOT AND SWAP1 DUP4 PUSH20 0xFFFFFFFFFFFFFFFFFFFFFFFFFFFFFFFFFFFFFFFF AND MUL OR SWAP1 SSTORE POP PUSH1 0x40 MLOAD DUP1 PUSH1 0x40 ADD PUSH1 0x40 MSTORE DUP1 PUSH1 0xB DUP2 MSTORE PUSH1 0x20 ADD PUSH32 0x4365726279537761705631000000000000000000000000000000000000000000 DUP2 MSTORE POP PUSH1 0x10 SWAP1 DUP1 MLOAD SWAP1 PUSH1 0x20 ADD SWAP1 PUSH3 0x1A4 SWAP3 SWAP2 SWAP1 PUSH3 0x860 JUMP JUMPDEST POP PUSH1 0x40 MLOAD DUP1 PUSH1 0x40 ADD PUSH1 0x40 MSTORE DUP1 PUSH1 0x3 DUP2 MSTORE PUSH1 0x20 ADD PUSH32 0x4353310000000000000000000000000000000000000000000000000000000000 DUP2 MSTORE POP PUSH1 0x11 SWAP1 DUP1 MLOAD SWAP1 PUSH1 0x20 ADD SWAP1 PUSH3 0x1F2 SWAP3 SWAP2 SWAP1 PUSH3 0x860 JUMP JUMPDEST POP PUSH1 0x40 MLOAD DUP1 PUSH1 0x60 ADD PUSH1 0x40 MSTORE DUP1 PUSH1 0x23 DUP2 MSTORE PUSH1 0x20 ADD PUSH3 0xAA19 PUSH1 0x23 SWAP2 CODECOPY PUSH1 0x12 SWAP1 DUP1 MLOAD SWAP1 PUSH1 0x20 ADD SWAP1 PUSH3 0x224 SWAP3 SWAP2 SWAP1 PUSH3 0x860 JUMP JUMPDEST POP CALLVALUE DUP1 ISZERO PUSH3 0x232 JUMPI PUSH1 0x0 DUP1 REVERT JUMPDEST POP PUSH1 0x12 PUSH1 0x40 MLOAD PUSH1 0x20 ADD PUSH3 0x247 SWAP2 SWAP1 PUSH3 0xB3D JUMP JUMPDEST PUSH1 0x40 MLOAD PUSH1 0x20 DUP2 DUP4 SUB SUB DUP2 MSTORE SWAP1 PUSH1 0x40 MSTORE PUSH3 0x267 DUP2 PUSH3 0x77E PUSH1 0x20 SHL PUSH1 0x20 SHR JUMP JUMPDEST POP PUSH3 0x279 CALLER PUSH3 0x79A PUSH1 0x20 SHL PUSH1 0x20 SHR JUMP JUMPDEST PUSH1 0x0 PUSH20 0xDEF78A28C78A461598D948BC0C689CE88F812AD8 SWAP1 POP PUSH1 0x0 PUSH1 0x64 PUSH1 0x14 PUSH1 0x64 PUSH3 0x2A6 SWAP2 SWAP1 PUSH3 0xB9C JUMP JUMPDEST PUSH3 0x2B2 SWAP2 SWAP1 PUSH3 0xC2C JUMP JUMPDEST SWAP1 POP PUSH1 0x0 PUSH4 0x51A67366 SWAP1 POP PUSH1 0x0 PUSH1 0x1 SWAP1 POP PUSH1 0x0 PUSH1 0xC8 SWAP1 POP PUSH1 0x0 DUP4 SWAP1 POP PUSH1 0x0 DUP4 DUP4 DUP7 PUSH3 0x2DF SWAP2 SWAP1 PUSH3 0xB9C JUMP JUMPDEST PUSH3 0x2EB SWAP2 SWAP1 PUSH3 0xC2C JUMP JUMPDEST SWAP1 POP PUSH1 0x40 MLOAD DUP1 PUSH1 0xC0 ADD PUSH1 0x40 MSTORE DUP1 DUP9 PUSH20 0xFFFFFFFFFFFFFFFFFFFFFFFFFFFFFFFFFFFFFFFF AND DUP2 MSTORE PUSH1 0x20 ADD DUP8 DUP2 MSTORE PUSH1 0x20 ADD DUP6 DUP2 MSTORE PUSH1 0x20 ADD DUP5 DUP2 MSTORE PUSH1 0x20 ADD DUP4 DUP2 MSTORE PUSH1 0x20 ADD DUP3 DUP2 MSTORE POP PUSH1 0x6 PUSH1 0x0 DUP3 ADD MLOAD DUP2 PUSH1 0x0 ADD PUSH1 0x0 PUSH2 0x100 EXP DUP2 SLOAD DUP2 PUSH20 0xFFFFFFFFFFFFFFFFFFFFFFFFFFFFFFFFFFFFFFFF MUL NOT AND SWAP1 DUP4 PUSH20 0xFFFFFFFFFFFFFFFFFFFFFFFFFFFFFFFFFFFFFFFF AND MUL OR SWAP1 SSTORE POP PUSH1 0x20 DUP3 ADD MLOAD DUP2 PUSH1 0x1 ADD SSTORE PUSH1 0x40 DUP3 ADD MLOAD DUP2 PUSH1 0x2 ADD SSTORE PUSH1 0x60 DUP3 ADD MLOAD DUP2 PUSH1 0x3 ADD SSTORE PUSH1 0x80 DUP3 ADD MLOAD DUP2 PUSH1 0x4 ADD SSTORE PUSH1 0xA0 DUP3 ADD MLOAD DUP2 PUSH1 0x5 ADD SSTORE SWAP1 POP POP PUSH3 0x3B8 PUSH3 0x8F1 JUMP JUMPDEST PUSH1 0x1 PUSH1 0x40 MLOAD DUP1 PUSH1 0x80 ADD PUSH1 0x40 MSTORE DUP1 PUSH1 0x0 PUSH20 0xFFFFFFFFFFFFFFFFFFFFFFFFFFFFFFFFFFFFFFFF AND DUP2 MSTORE PUSH1 0x20 ADD DUP4 DUP2 MSTORE PUSH1 0x20 ADD PUSH1 0x0 PUSH16 0xFFFFFFFFFFFFFFFFFFFFFFFFFFFFFFFF AND DUP2 MSTORE PUSH1 0x20 ADD PUSH1 0x0 PUSH16 0xFFFFFFFFFFFFFFFFFFFFFFFFFFFFFFFF AND DUP2 MSTORE POP SWAP1 DUP1 PUSH1 0x1 DUP2 SLOAD ADD DUP1 DUP3 SSTORE DUP1 SWAP2 POP POP PUSH1 0x1 SWAP1 SUB SWAP1 PUSH1 0x0 MSTORE PUSH1 0x20 PUSH1 0x0 KECCAK256 SWAP1 PUSH1 0x3 MUL ADD PUSH1 0x0 SWAP1 SWAP2 SWAP1 SWAP2 SWAP1 SWAP2 POP PUSH1 0x0 DUP3 ADD MLOAD DUP2 PUSH1 0x0 ADD PUSH1 0x0 PUSH2 0x100 EXP DUP2 SLOAD DUP2 PUSH20 0xFFFFFFFFFFFFFFFFFFFFFFFFFFFFFFFFFFFFFFFF MUL NOT AND SWAP1 DUP4 PUSH20 0xFFFFFFFFFFFFFFFFFFFFFFFFFFFFFFFFFFFFFFFF AND MUL OR SWAP1 SSTORE POP PUSH1 0x20 DUP3 ADD MLOAD DUP2 PUSH1 0x1 ADD SWAP1 PUSH1 0x8 PUSH3 0x4A1 SWAP3 SWAP2 SWAP1 PUSH3 0x914 JUMP JUMPDEST POP PUSH1 0x40 DUP3 ADD MLOAD DUP2 PUSH1 0x2 ADD PUSH1 0x0 PUSH2 0x100 EXP DUP2 SLOAD DUP2 PUSH16 0xFFFFFFFFFFFFFFFFFFFFFFFFFFFFFFFF MUL NOT AND SWAP1 DUP4 PUSH16 0xFFFFFFFFFFFFFFFFFFFFFFFFFFFFFFFF AND MUL OR SWAP1 SSTORE POP PUSH1 0x60 DUP3 ADD MLOAD DUP2 PUSH1 0x2 ADD PUSH1 0x10 PUSH2 0x100 EXP DUP2 SLOAD DUP2 PUSH16 0xFFFFFFFFFFFFFFFFFFFFFFFFFFFFFFFF MUL NOT AND SWAP1 DUP4 PUSH16 0xFFFFFFFFFFFFFFFFFFFFFFFFFFFFFFFF AND MUL OR SWAP1 SSTORE POP POP POP PUSH1 0x1 CHAINID EQ ISZERO PUSH3 0x587 JUMPI PUSH20 0xC02AAA39B223FE8D0A0E5C4F27EAD9083C756CC2 PUSH1 0x5 PUSH1 0x0 PUSH2 0x100 EXP DUP2 SLOAD DUP2 PUSH20 0xFFFFFFFFFFFFFFFFFFFFFFFFFFFFFFFFFFFFFFFF MUL NOT AND SWAP1 DUP4 PUSH20 0xFFFFFFFFFFFFFFFFFFFFFFFFFFFFFFFFFFFFFFFF AND MUL OR SWAP1 SSTORE POP PUSH3 0x71B JUMP JUMPDEST PUSH1 0x38 CHAINID EQ ISZERO PUSH3 0x5EC JUMPI PUSH20 0xBB4CDB9CBD36B01BD1CBAEBF2DE08D9173BC095C PUSH1 0x5 PUSH1 0x0 PUSH2 0x100 EXP DUP2 SLOAD DUP2 PUSH20 0xFFFFFFFFFFFFFFFFFFFFFFFFFFFFFFFFFFFFFFFF MUL NOT AND SWAP1 DUP4 PUSH20 0xFFFFFFFFFFFFFFFFFFFFFFFFFFFFFFFFFFFFFFFF AND MUL OR SWAP1 SSTORE POP PUSH3 0x71A JUMP JUMPDEST PUSH1 0x89 CHAINID EQ ISZERO PUSH3 0x651 JUMPI PUSH20 0xD500B1D8E8EF31E21C99D1DB9A6444D3ADF1270 PUSH1 0x5 PUSH1 0x0 PUSH2 0x100 EXP DUP2 SLOAD DUP2 PUSH20 0xFFFFFFFFFFFFFFFFFFFFFFFFFFFFFFFFFFFFFFFF MUL NOT AND SWAP1 DUP4 PUSH20 0xFFFFFFFFFFFFFFFFFFFFFFFFFFFFFFFFFFFFFFFF AND MUL OR SWAP1 SSTORE POP PUSH3 0x719 JUMP JUMPDEST PUSH2 0xA86A CHAINID EQ ISZERO PUSH3 0x6B7 JUMPI PUSH20 0xB31F66AA3C1E785363F0875A1B74E27B85FD66C7 PUSH1 0x5 PUSH1 0x0 PUSH2 0x100 EXP DUP2 SLOAD DUP2 PUSH20 0xFFFFFFFFFFFFFFFFFFFFFFFFFFFFFFFFFFFFFFFF MUL NOT AND SWAP1 DUP4 PUSH20 0xFFFFFFFFFFFFFFFFFFFFFFFFFFFFFFFFFFFFFFFF AND MUL OR SWAP1 SSTORE POP PUSH3 0x718 JUMP JUMPDEST PUSH1 0xFA CHAINID EQ ISZERO PUSH3 0x717 JUMPI PUSH20 0x21BE370D5312F44CB42CE377BC9B8A0CEF1A4C83 PUSH1 0x5 PUSH1 0x0 PUSH2 0x100 EXP DUP2 SLOAD DUP2 PUSH20 0xFFFFFFFFFFFFFFFFFFFFFFFFFFFFFFFFFFFFFFFF MUL NOT AND SWAP1 DUP4 PUSH20 0xFFFFFFFFFFFFFFFFFFFFFFFFFFFFFFFFFFFFFFFF AND MUL OR SWAP1 SSTORE POP JUMPDEST JUMPDEST JUMPDEST JUMPDEST JUMPDEST PUSH20 0x14769F96E57B80C66837701DE0B43686FB4632DE PUSH1 0x5 PUSH1 0x0 PUSH2 0x100 EXP DUP2 SLOAD DUP2 PUSH20 0xFFFFFFFFFFFFFFFFFFFFFFFFFFFFFFFFFFFFFFFF MUL NOT AND SWAP1 DUP4 PUSH20 0xFFFFFFFFFFFFFFFFFFFFFFFFFFFFFFFFFFFFFFFF AND MUL OR SWAP1 SSTORE POP POP POP POP POP POP POP POP POP PUSH3 0xC64 JUMP JUMPDEST DUP1 PUSH1 0xE SWAP1 DUP1 MLOAD SWAP1 PUSH1 0x20 ADD SWAP1 PUSH3 0x796 SWAP3 SWAP2 SWAP1 PUSH3 0x860 JUMP JUMPDEST POP POP JUMP JUMPDEST PUSH1 0x0 PUSH1 0x13 PUSH1 0x0 SWAP1 SLOAD SWAP1 PUSH2 0x100 EXP SWAP1 DIV PUSH20 0xFFFFFFFFFFFFFFFFFFFFFFFFFFFFFFFFFFFFFFFF AND SWAP1 POP DUP2 PUSH1 0x13 PUSH1 0x0 PUSH2 0x100 EXP DUP2 SLOAD DUP2 PUSH20 0xFFFFFFFFFFFFFFFFFFFFFFFFFFFFFFFFFFFFFFFF MUL NOT AND SWAP1 DUP4 PUSH20 0xFFFFFFFFFFFFFFFFFFFFFFFFFFFFFFFFFFFFFFFF AND MUL OR SWAP1 SSTORE POP DUP2 PUSH20 0xFFFFFFFFFFFFFFFFFFFFFFFFFFFFFFFFFFFFFFFF AND DUP2 PUSH20 0xFFFFFFFFFFFFFFFFFFFFFFFFFFFFFFFFFFFFFFFF AND PUSH32 0x8BE0079C531659141344CD1FD0A4F28419497F9722A3DAAFE3B4186F6B6457E0 PUSH1 0x40 MLOAD PUSH1 0x40 MLOAD DUP1 SWAP2 SUB SWAP1 LOG3 POP POP JUMP JUMPDEST DUP3 DUP1 SLOAD PUSH3 0x86E SWAP1 PUSH3 0xA0C JUMP JUMPDEST SWAP1 PUSH1 0x0 MSTORE PUSH1 0x20 PUSH1 0x0 KECCAK256 SWAP1 PUSH1 0x1F ADD PUSH1 0x20 SWAP1 DIV DUP2 ADD SWAP3 DUP3 PUSH3 0x892 JUMPI PUSH1 0x0 DUP6 SSTORE PUSH3 0x8DE JUMP JUMPDEST DUP3 PUSH1 0x1F LT PUSH3 0x8AD JUMPI DUP1 MLOAD PUSH1 0xFF NOT AND DUP4 DUP1 ADD OR DUP6 SSTORE PUSH3 0x8DE JUMP JUMPDEST DUP3 DUP1 ADD PUSH1 0x1 ADD DUP6 SSTORE DUP3 ISZERO PUSH3 0x8DE JUMPI SWAP2 DUP3 ADD JUMPDEST DUP3 DUP2 GT ISZERO PUSH3 0x8DD JUMPI DUP3 MLOAD DUP3 SSTORE SWAP2 PUSH1 0x20 ADD SWAP2 SWAP1 PUSH1 0x1 ADD SWAP1 PUSH3 0x8C0 JUMP JUMPDEST JUMPDEST POP SWAP1 POP PUSH3 0x8ED SWAP2 SWAP1 PUSH3 0x9BE JUMP JUMPDEST POP SWAP1 JUMP JUMPDEST PUSH1 0x40 MLOAD DUP1 PUSH2 0x100 ADD PUSH1 0x40 MSTORE DUP1 PUSH1 0x8 SWAP1 PUSH1 0x20 DUP3 MUL DUP1 CALLDATASIZE DUP4 CALLDATACOPY DUP1 DUP3 ADD SWAP2 POP POP SWAP1 POP POP SWAP1 JUMP JUMPDEST DUP3 PUSH1 0x8 PUSH1 0x7 ADD PUSH1 0x8 SWAP1 DIV DUP2 ADD SWAP3 DUP3 ISZERO PUSH3 0x9AB JUMPI SWAP2 PUSH1 0x20 MUL DUP3 ADD PUSH1 0x0 JUMPDEST DUP4 DUP3 GT ISZERO PUSH3 0x977 JUMPI DUP4 MLOAD DUP4 DUP3 PUSH2 0x100 EXP DUP2 SLOAD DUP2 PUSH4 0xFFFFFFFF MUL NOT AND SWAP1 DUP4 PUSH4 0xFFFFFFFF AND MUL OR SWAP1 SSTORE POP SWAP3 PUSH1 0x20 ADD SWAP3 PUSH1 0x4 ADD PUSH1 0x20 DUP2 PUSH1 0x3 ADD DIV SWAP3 DUP4 ADD SWAP3 PUSH1 0x1 SUB MUL PUSH3 0x931 JUMP JUMPDEST DUP1 ISZERO PUSH3 0x9A9 JUMPI DUP3 DUP2 PUSH2 0x100 EXP DUP2 SLOAD SWAP1 PUSH4 0xFFFFFFFF MUL NOT AND SWAP1 SSTORE PUSH1 0x4 ADD PUSH1 0x20 DUP2 PUSH1 0x3 ADD DIV SWAP3 DUP4 ADD SWAP3 PUSH1 0x1 SUB MUL PUSH3 0x977 JUMP JUMPDEST POP JUMPDEST POP SWAP1 POP PUSH3 0x9BA SWAP2 SWAP1 PUSH3 0x9BE JUMP JUMPDEST POP SWAP1 JUMP JUMPDEST JUMPDEST DUP1 DUP3 GT ISZERO PUSH3 0x9D9 JUMPI PUSH1 0x0 DUP2 PUSH1 0x0 SWAP1 SSTORE POP PUSH1 0x1 ADD PUSH3 0x9BF JUMP JUMPDEST POP SWAP1 JUMP JUMPDEST PUSH32 0x4E487B7100000000000000000000000000000000000000000000000000000000 PUSH1 0x0 MSTORE PUSH1 0x22 PUSH1 0x4 MSTORE PUSH1 0x24 PUSH1 0x0 REVERT JUMPDEST PUSH1 0x0 PUSH1 0x2 DUP3 DIV SWAP1 POP PUSH1 0x1 DUP3 AND DUP1 PUSH3 0xA25 JUMPI PUSH1 0x7F DUP3 AND SWAP2 POP JUMPDEST PUSH1 0x20 DUP3 LT DUP2 EQ ISZERO PUSH3 0xA3C JUMPI PUSH3 0xA3B PUSH3 0x9DD JUMP JUMPDEST JUMPDEST POP SWAP2 SWAP1 POP JUMP JUMPDEST PUSH1 0x0 DUP2 SWAP1 POP SWAP3 SWAP2 POP POP JUMP JUMPDEST PUSH1 0x0 DUP2 SWAP1 POP DUP2 PUSH1 0x0 MSTORE PUSH1 0x20 PUSH1 0x0 KECCAK256 SWAP1 POP SWAP2 SWAP1 POP JUMP JUMPDEST PUSH1 0x0 DUP2 SLOAD PUSH3 0xA71 DUP2 PUSH3 0xA0C JUMP JUMPDEST PUSH3 0xA7D DUP2 DUP7 PUSH3 0xA42 JUMP JUMPDEST SWAP5 POP PUSH1 0x1 DUP3 AND PUSH1 0x0 DUP2 EQ PUSH3 0xA9B JUMPI PUSH1 0x1 DUP2 EQ PUSH3 0xAAD JUMPI PUSH3 0xAE4 JUMP JUMPDEST PUSH1 0xFF NOT DUP4 AND DUP7 MSTORE DUP2 DUP7 ADD SWAP4 POP PUSH3 0xAE4 JUMP JUMPDEST PUSH3 0xAB8 DUP6 PUSH3 0xA4D JUMP JUMPDEST PUSH1 0x0 JUMPDEST DUP4 DUP2 LT ISZERO PUSH3 0xADC JUMPI DUP2 SLOAD DUP2 DUP10 ADD MSTORE PUSH1 0x1 DUP3 ADD SWAP2 POP PUSH1 0x20 DUP2 ADD SWAP1 POP PUSH3 0xABB JUMP JUMPDEST DUP4 DUP9 ADD SWAP6 POP POP POP JUMPDEST POP POP POP SWAP3 SWAP2 POP POP JUMP JUMPDEST PUSH32 0x7B69647D2E6A736F6E0000000000000000000000000000000000000000000000 PUSH1 0x0 DUP3 ADD MSTORE POP JUMP JUMPDEST PUSH1 0x0 PUSH3 0xB25 PUSH1 0x9 DUP4 PUSH3 0xA42 JUMP JUMPDEST SWAP2 POP PUSH3 0xB32 DUP3 PUSH3 0xAED JUMP JUMPDEST PUSH1 0x9 DUP3 ADD SWAP1 POP SWAP2 SWAP1 POP JUMP JUMPDEST PUSH1 0x0 PUSH3 0xB4B DUP3 DUP5 PUSH3 0xA62 JUMP JUMPDEST SWAP2 POP PUSH3 0xB58 DUP3 PUSH3 0xB16 JUMP JUMPDEST SWAP2 POP DUP2 SWAP1 POP SWAP3 SWAP2 POP POP JUMP JUMPDEST PUSH1 0x0 DUP2 SWAP1 POP SWAP2 SWAP1 POP JUMP JUMPDEST PUSH32 0x4E487B7100000000000000000000000000000000000000000000000000000000 PUSH1 0x0 MSTORE PUSH1 0x11 PUSH1 0x4 MSTORE PUSH1 0x24 PUSH1 0x0 REVERT JUMPDEST PUSH1 0x0 PUSH3 0xBA9 DUP3 PUSH3 0xB63 JUMP JUMPDEST SWAP2 POP PUSH3 0xBB6 DUP4 PUSH3 0xB63 JUMP JUMPDEST SWAP3 POP DUP2 PUSH32 0xFFFFFFFFFFFFFFFFFFFFFFFFFFFFFFFFFFFFFFFFFFFFFFFFFFFFFFFFFFFFFFFF DIV DUP4 GT DUP3 ISZERO ISZERO AND ISZERO PUSH3 0xBF2 JUMPI PUSH3 0xBF1 PUSH3 0xB6D JUMP JUMPDEST JUMPDEST DUP3 DUP3 MUL SWAP1 POP SWAP3 SWAP2 POP POP JUMP JUMPDEST PUSH32 0x4E487B7100000000000000000000000000000000000000000000000000000000 PUSH1 0x0 MSTORE PUSH1 0x12 PUSH1 0x4 MSTORE PUSH1 0x24 PUSH1 0x0 REVERT JUMPDEST PUSH1 0x0 PUSH3 0xC39 DUP3 PUSH3 0xB63 JUMP JUMPDEST SWAP2 POP PUSH3 0xC46 DUP4 PUSH3 0xB63 JUMP JUMPDEST SWAP3 POP DUP3 PUSH3 0xC59 JUMPI PUSH3 0xC58 PUSH3 0xBFD JUMP JUMPDEST JUMPDEST DUP3 DUP3 DIV SWAP1 POP SWAP3 SWAP2 POP POP JUMP JUMPDEST PUSH2 0x9DA5 DUP1 PUSH3 0xC74 PUSH1 0x0 CODECOPY PUSH1 0x0 RETURN INVALID PUSH1 0x80 PUSH1 0x40 MSTORE PUSH1 0x4 CALLDATASIZE LT PUSH3 0x26A JUMPI PUSH1 0x0 CALLDATALOAD PUSH1 0xE0 SHR DUP1 PUSH4 0x74FCF071 GT PUSH3 0x14B JUMPI DUP1 PUSH4 0xBD85B039 GT PUSH3 0xBB JUMPI DUP1 PUSH4 0xE985E9C5 GT PUSH3 0x79 JUMPI DUP1 PUSH4 0xE985E9C5 EQ PUSH3 0x97D JUMPI DUP1 PUSH4 0xECA01093 EQ PUSH3 0x9C1 JUMPI DUP1 PUSH4 0xF242432A EQ PUSH3 0x9EF JUMPI DUP1 PUSH4 0xF2FDE38B EQ PUSH3 0xA1D JUMPI DUP1 PUSH4 0xF6524724 EQ PUSH3 0xA4B JUMPI PUSH3 0x272 JUMP JUMPDEST DUP1 PUSH4 0xBD85B039 EQ PUSH3 0x89B JUMPI DUP1 PUSH4 0xC09C923B EQ PUSH3 0x8DF JUMPI DUP1 PUSH4 0xC790985A EQ PUSH3 0x8EB JUMPI DUP1 PUSH4 0xCAB4BA82 EQ PUSH3 0x92F JUMPI DUP1 PUSH4 0xD5D60737 EQ PUSH3 0x95D JUMPI PUSH3 0x272 JUMP JUMPDEST DUP1 PUSH4 0xA22CB465 GT PUSH3 0x109 JUMPI DUP1 PUSH4 0xA22CB465 EQ PUSH3 0x7AB JUMPI DUP1 PUSH4 0xA60C6E55 EQ PUSH3 0x7D9 JUMPI DUP1 PUSH4 0xA6D8AD39 EQ PUSH3 0x80F JUMPI DUP1 PUSH4 0xA7FD40BF EQ PUSH3 0x853 JUMPI DUP1 PUSH4 0xB5D11E99 EQ PUSH3 0x881 JUMPI PUSH3 0x272 JUMP JUMPDEST DUP1 PUSH4 0x74FCF071 EQ PUSH3 0x6B7 JUMPI DUP1 PUSH4 0x842980F4 EQ PUSH3 0x6FB JUMPI DUP1 PUSH4 0x85B4BB53 EQ PUSH3 0x71B JUMPI DUP1 PUSH4 0x8DA5CB5B EQ PUSH3 0x74B JUMPI DUP1 PUSH4 0x95D89B41 EQ PUSH3 0x77B JUMPI PUSH3 0x272 JUMP JUMPDEST DUP1 PUSH4 0x34E150AB GT PUSH3 0x1E7 JUMPI DUP1 PUSH4 0x4E1273F4 GT PUSH3 0x1A5 JUMPI DUP1 PUSH4 0x4E1273F4 EQ PUSH3 0x5A3 JUMPI DUP1 PUSH4 0x4F558E79 EQ PUSH3 0x5E7 JUMPI DUP1 PUSH4 0x61417516 EQ PUSH3 0x62B JUMPI DUP1 PUSH4 0x715018A6 EQ PUSH3 0x66F JUMPI DUP1 PUSH4 0x71858049 EQ PUSH3 0x689 JUMPI PUSH3 0x272 JUMP JUMPDEST DUP1 PUSH4 0x34E150AB EQ PUSH3 0x473 JUMPI DUP1 PUSH4 0x3935AC11 EQ PUSH3 0x4B7 JUMPI DUP1 PUSH4 0x43FEFAD4 EQ PUSH3 0x4E5 JUMPI DUP1 PUSH4 0x48B08D62 EQ PUSH3 0x51B JUMPI DUP1 PUSH4 0x4C3C0EB2 EQ PUSH3 0x55F JUMPI PUSH3 0x272 JUMP JUMPDEST DUP1 PUSH4 0xC2E075B GT PUSH3 0x235 JUMPI DUP1 PUSH4 0xC2E075B EQ PUSH3 0x373 JUMPI DUP1 PUSH4 0xE89341C EQ PUSH3 0x3A1 JUMPI DUP1 PUSH4 0x18160DDD EQ PUSH3 0x3E5 JUMPI DUP1 PUSH4 0x2EB2C2D6 EQ PUSH3 0x415 JUMPI DUP1 PUSH4 0x313CE567 EQ PUSH3 0x443 JUMPI PUSH3 0x272 JUMP JUMPDEST DUP1 PUSH3 0xFDD58E EQ PUSH3 0x277 JUMPI DUP1 PUSH4 0x1FFC9A7 EQ PUSH3 0x2BB JUMPI DUP1 PUSH4 0x6FB1A07 EQ PUSH3 0x2FF JUMPI DUP1 PUSH4 0x6FDDE03 EQ PUSH3 0x343 JUMPI PUSH3 0x272 JUMP JUMPDEST CALLDATASIZE PUSH3 0x272 JUMPI STOP JUMPDEST PUSH1 0x0 DUP1 REVERT JUMPDEST CALLVALUE DUP1 ISZERO PUSH3 0x284 JUMPI PUSH1 0x0 DUP1 REVERT JUMPDEST POP PUSH3 0x2A3 PUSH1 0x4 DUP1 CALLDATASIZE SUB DUP2 ADD SWAP1 PUSH3 0x29D SWAP2 SWAP1 PUSH3 0x76A8 JUMP JUMPDEST PUSH3 0xA81 JUMP JUMPDEST PUSH1 0x40 MLOAD PUSH3 0x2B2 SWAP2 SWAP1 PUSH3 0x7700 JUMP JUMPDEST PUSH1 0x40 MLOAD DUP1 SWAP2 SUB SWAP1 RETURN JUMPDEST CALLVALUE DUP1 ISZERO PUSH3 0x2C8 JUMPI PUSH1 0x0 DUP1 REVERT JUMPDEST POP PUSH3 0x2E7 PUSH1 0x4 DUP1 CALLDATASIZE SUB DUP2 ADD SWAP1 PUSH3 0x2E1 SWAP2 SWAP1 PUSH3 0x777A JUMP JUMPDEST PUSH3 0xB43 JUMP JUMPDEST PUSH1 0x40 MLOAD PUSH3 0x2F6 SWAP2 SWAP1 PUSH3 0x77C9 JUMP JUMPDEST PUSH1 0x40 MLOAD DUP1 SWAP2 SUB SWAP1 RETURN JUMPDEST CALLVALUE DUP1 ISZERO PUSH3 0x30C JUMPI PUSH1 0x0 DUP1 REVERT JUMPDEST POP PUSH3 0x32B PUSH1 0x4 DUP1 CALLDATASIZE SUB DUP2 ADD SWAP1 PUSH3 0x325 SWAP2 SWAP1 PUSH3 0x77E6 JUMP JUMPDEST PUSH3 0xBAD JUMP JUMPDEST PUSH1 0x40 MLOAD PUSH3 0x33A SWAP2 SWAP1 PUSH3 0x7829 JUMP JUMPDEST PUSH1 0x40 MLOAD DUP1 SWAP2 SUB SWAP1 RETURN JUMPDEST CALLVALUE DUP1 ISZERO PUSH3 0x350 JUMPI PUSH1 0x0 DUP1 REVERT JUMPDEST POP PUSH3 0x35B PUSH3 0xC49 JUMP JUMPDEST PUSH1 0x40 MLOAD PUSH3 0x36A SWAP2 SWAP1 PUSH3 0x78EA JUMP JUMPDEST PUSH1 0x40 MLOAD DUP1 SWAP2 SUB SWAP1 RETURN JUMPDEST CALLVALUE DUP1 ISZERO PUSH3 0x380 JUMPI PUSH1 0x0 DUP1 REVERT JUMPDEST POP PUSH3 0x39F PUSH1 0x4 DUP1 CALLDATASIZE SUB DUP2 ADD SWAP1 PUSH3 0x399 SWAP2 SWAP1 PUSH3 0x7935 JUMP JUMPDEST PUSH3 0xCE3 JUMP JUMPDEST STOP JUMPDEST CALLVALUE DUP1 ISZERO PUSH3 0x3AE JUMPI PUSH1 0x0 DUP1 REVERT JUMPDEST POP PUSH3 0x3CD PUSH1 0x4 DUP1 CALLDATASIZE SUB DUP2 ADD SWAP1 PUSH3 0x3C7 SWAP2 SWAP1 PUSH3 0x77E6 JUMP JUMPDEST PUSH3 0xE5D JUMP JUMPDEST PUSH1 0x40 MLOAD PUSH3 0x3DC SWAP2 SWAP1 PUSH3 0x78EA JUMP JUMPDEST PUSH1 0x40 MLOAD DUP1 SWAP2 SUB SWAP1 RETURN JUMPDEST CALLVALUE DUP1 ISZERO PUSH3 0x3F2 JUMPI PUSH1 0x0 DUP1 REVERT JUMPDEST POP PUSH3 0x3FD PUSH3 0xE8B JUMP JUMPDEST PUSH1 0x40 MLOAD PUSH3 0x40C SWAP2 SWAP1 PUSH3 0x7700 JUMP JUMPDEST PUSH1 0x40 MLOAD DUP1 SWAP2 SUB SWAP1 RETURN JUMPDEST CALLVALUE DUP1 ISZERO PUSH3 0x422 JUMPI PUSH1 0x0 DUP1 REVERT JUMPDEST POP PUSH3 0x441 PUSH1 0x4 DUP1 CALLDATASIZE SUB DUP2 ADD SWAP1 PUSH3 0x43B SWAP2 SWAP1 PUSH3 0x7A34 JUMP JUMPDEST PUSH3 0xEED JUMP JUMPDEST STOP JUMPDEST CALLVALUE DUP1 ISZERO PUSH3 0x450 JUMPI PUSH1 0x0 DUP1 REVERT JUMPDEST POP PUSH3 0x45B PUSH3 0xFFA JUMP JUMPDEST PUSH1 0x40 MLOAD PUSH3 0x46A SWAP2 SWAP1 PUSH3 0x7700 JUMP JUMPDEST PUSH1 0x40 MLOAD DUP1 SWAP2 SUB SWAP1 RETURN JUMPDEST CALLVALUE DUP1 ISZERO PUSH3 0x480 JUMPI PUSH1 0x0 DUP1 REVERT JUMPDEST POP PUSH3 0x49F PUSH1 0x4 DUP1 CALLDATASIZE SUB DUP2 ADD SWAP1 PUSH3 0x499 SWAP2 SWAP1 PUSH3 0x7B85 JUMP JUMPDEST PUSH3 0x1003 JUMP JUMPDEST PUSH1 0x40 MLOAD PUSH3 0x4AE SWAP2 SWAP1 PUSH3 0x7E01 JUMP JUMPDEST PUSH1 0x40 MLOAD DUP1 SWAP2 SUB SWAP1 RETURN JUMPDEST CALLVALUE DUP1 ISZERO PUSH3 0x4C4 JUMPI PUSH1 0x0 DUP1 REVERT JUMPDEST POP PUSH3 0x4E3 PUSH1 0x4 DUP1 CALLDATASIZE SUB DUP2 ADD SWAP1 PUSH3 0x4DD SWAP2 SWAP1 PUSH3 0x7F71 JUMP JUMPDEST PUSH3 0x12B0 JUMP JUMPDEST STOP JUMPDEST PUSH3 0x503 PUSH1 0x4 DUP1 CALLDATASIZE SUB DUP2 ADD SWAP1 PUSH3 0x4FD SWAP2 SWAP1 PUSH3 0x7FF6 JUMP JUMPDEST PUSH3 0x1355 JUMP JUMPDEST PUSH1 0x40 MLOAD PUSH3 0x512 SWAP2 SWAP1 PUSH3 0x7700 JUMP JUMPDEST PUSH1 0x40 MLOAD DUP1 SWAP2 SUB SWAP1 RETURN JUMPDEST CALLVALUE DUP1 ISZERO PUSH3 0x528 JUMPI PUSH1 0x0 DUP1 REVERT JUMPDEST POP PUSH3 0x547 PUSH1 0x4 DUP1 CALLDATASIZE SUB DUP2 ADD SWAP1 PUSH3 0x541 SWAP2 SWAP1 PUSH3 0x8068 JUMP JUMPDEST PUSH3 0x191C JUMP JUMPDEST PUSH1 0x40 MLOAD PUSH3 0x556 SWAP2 SWAP1 PUSH3 0x7700 JUMP JUMPDEST PUSH1 0x40 MLOAD DUP1 SWAP2 SUB SWAP1 RETURN JUMPDEST CALLVALUE DUP1 ISZERO PUSH3 0x56C JUMPI PUSH1 0x0 DUP1 REVERT JUMPDEST POP PUSH3 0x58B PUSH1 0x4 DUP1 CALLDATASIZE SUB DUP2 ADD SWAP1 PUSH3 0x585 SWAP2 SWAP1 PUSH3 0x80C4 JUMP JUMPDEST PUSH3 0x1C24 JUMP JUMPDEST PUSH1 0x40 MLOAD PUSH3 0x59A SWAP2 SWAP1 PUSH3 0x7700 JUMP JUMPDEST PUSH1 0x40 MLOAD DUP1 SWAP2 SUB SWAP1 RETURN JUMPDEST CALLVALUE DUP1 ISZERO PUSH3 0x5B0 JUMPI PUSH1 0x0 DUP1 REVERT JUMPDEST POP PUSH3 0x5CF PUSH1 0x4 DUP1 CALLDATASIZE SUB DUP2 ADD SWAP1 PUSH3 0x5C9 SWAP2 SWAP1 PUSH3 0x80F6 JUMP JUMPDEST PUSH3 0x1CD6 JUMP JUMPDEST PUSH1 0x40 MLOAD PUSH3 0x5DE SWAP2 SWAP1 PUSH3 0x8252 JUMP JUMPDEST PUSH1 0x40 MLOAD DUP1 SWAP2 SUB SWAP1 RETURN JUMPDEST CALLVALUE DUP1 ISZERO PUSH3 0x5F4 JUMPI PUSH1 0x0 DUP1 REVERT JUMPDEST POP PUSH3 0x613 PUSH1 0x4 DUP1 CALLDATASIZE SUB DUP2 ADD SWAP1 PUSH3 0x60D SWAP2 SWAP1 PUSH3 0x77E6 JUMP JUMPDEST PUSH3 0x1E15 JUMP JUMPDEST PUSH1 0x40 MLOAD PUSH3 0x622 SWAP2 SWAP1 PUSH3 0x77C9 JUMP JUMPDEST PUSH1 0x40 MLOAD DUP1 SWAP2 SUB SWAP1 RETURN JUMPDEST CALLVALUE DUP1 ISZERO PUSH3 0x638 JUMPI PUSH1 0x0 DUP1 REVERT JUMPDEST POP PUSH3 0x657 PUSH1 0x4 DUP1 CALLDATASIZE SUB DUP2 ADD SWAP1 PUSH3 0x651 SWAP2 SWAP1 PUSH3 0x80C4 JUMP JUMPDEST PUSH3 0x1E34 JUMP JUMPDEST PUSH1 0x40 MLOAD PUSH3 0x666 SWAP2 SWAP1 PUSH3 0x7700 JUMP JUMPDEST PUSH1 0x40 MLOAD DUP1 SWAP2 SUB SWAP1 RETURN JUMPDEST CALLVALUE DUP1 ISZERO PUSH3 0x67C JUMPI PUSH1 0x0 DUP1 REVERT JUMPDEST POP PUSH3 0x687 PUSH3 0x1E7D JUMP JUMPDEST STOP JUMPDEST CALLVALUE DUP1 ISZERO PUSH3 0x696 JUMPI PUSH1 0x0 DUP1 REVERT JUMPDEST POP PUSH3 0x6B5 PUSH1 0x4 DUP1 CALLDATASIZE SUB DUP2 ADD SWAP1 PUSH3 0x6AF SWAP2 SWAP1 PUSH3 0x76A8 JUMP JUMPDEST PUSH3 0x1EFA JUMP JUMPDEST STOP JUMPDEST CALLVALUE DUP1 ISZERO PUSH3 0x6C4 JUMPI PUSH1 0x0 DUP1 REVERT JUMPDEST POP PUSH3 0x6E3 PUSH1 0x4 DUP1 CALLDATASIZE SUB DUP2 ADD SWAP1 PUSH3 0x6DD SWAP2 SWAP1 PUSH3 0x7FF6 JUMP JUMPDEST PUSH3 0x2149 JUMP JUMPDEST PUSH1 0x40 MLOAD PUSH3 0x6F2 SWAP2 SWAP1 PUSH3 0x7700 JUMP JUMPDEST PUSH1 0x40 MLOAD DUP1 SWAP2 SUB SWAP1 RETURN JUMPDEST PUSH3 0x719 PUSH1 0x4 DUP1 CALLDATASIZE SUB DUP2 ADD SWAP1 PUSH3 0x713 SWAP2 SWAP1 PUSH3 0x7FF6 JUMP JUMPDEST PUSH3 0x2289 JUMP JUMPDEST STOP JUMPDEST CALLVALUE DUP1 ISZERO PUSH3 0x728 JUMPI PUSH1 0x0 DUP1 REVERT JUMPDEST POP PUSH3 0x733 PUSH3 0x229F JUMP JUMPDEST PUSH1 0x40 MLOAD PUSH3 0x742 SWAP2 SWAP1 PUSH3 0x82FD JUMP JUMPDEST PUSH1 0x40 MLOAD DUP1 SWAP2 SUB SWAP1 RETURN JUMPDEST CALLVALUE DUP1 ISZERO PUSH3 0x758 JUMPI PUSH1 0x0 DUP1 REVERT JUMPDEST POP PUSH3 0x763 PUSH3 0x2343 JUMP JUMPDEST PUSH1 0x40 MLOAD PUSH3 0x772 SWAP2 SWAP1 PUSH3 0x7829 JUMP JUMPDEST PUSH1 0x40 MLOAD DUP1 SWAP2 SUB SWAP1 RETURN JUMPDEST CALLVALUE DUP1 ISZERO PUSH3 0x788 JUMPI PUSH1 0x0 DUP1 REVERT JUMPDEST POP PUSH3 0x793 PUSH3 0x236D JUMP JUMPDEST PUSH1 0x40 MLOAD PUSH3 0x7A2 SWAP2 SWAP1 PUSH3 0x78EA JUMP JUMPDEST PUSH1 0x40 MLOAD DUP1 SWAP2 SUB SWAP1 RETURN JUMPDEST CALLVALUE DUP1 ISZERO PUSH3 0x7B8 JUMPI PUSH1 0x0 DUP1 REVERT JUMPDEST POP PUSH3 0x7D7 PUSH1 0x4 DUP1 CALLDATASIZE SUB DUP2 ADD SWAP1 PUSH3 0x7D1 SWAP2 SWAP1 PUSH3 0x834B JUMP JUMPDEST PUSH3 0x2407 JUMP JUMPDEST STOP JUMPDEST PUSH3 0x7F7 PUSH1 0x4 DUP1 CALLDATASIZE SUB DUP2 ADD SWAP1 PUSH3 0x7F1 SWAP2 SWAP1 PUSH3 0x8392 JUMP JUMPDEST PUSH3 0x248B JUMP JUMPDEST PUSH1 0x40 MLOAD PUSH3 0x806 SWAP2 SWAP1 PUSH3 0x8252 JUMP JUMPDEST PUSH1 0x40 MLOAD DUP1 SWAP2 SUB SWAP1 RETURN JUMPDEST CALLVALUE DUP1 ISZERO PUSH3 0x81C JUMPI PUSH1 0x0 DUP1 REVERT JUMPDEST POP PUSH3 0x83B PUSH1 0x4 DUP1 CALLDATASIZE SUB DUP2 ADD SWAP1 PUSH3 0x835 SWAP2 SWAP1 PUSH3 0x842E JUMP JUMPDEST PUSH3 0x2C5C JUMP JUMPDEST PUSH1 0x40 MLOAD PUSH3 0x84A SWAP2 SWAP1 PUSH3 0x7E01 JUMP JUMPDEST PUSH1 0x40 MLOAD DUP1 SWAP2 SUB SWAP1 RETURN JUMPDEST CALLVALUE DUP1 ISZERO PUSH3 0x860 JUMPI PUSH1 0x0 DUP1 REVERT JUMPDEST POP PUSH3 0x87F PUSH1 0x4 DUP1 CALLDATASIZE SUB DUP2 ADD SWAP1 PUSH3 0x879 SWAP2 SWAP1 PUSH3 0x84E2 JUMP JUMPDEST PUSH3 0x2EBA JUMP JUMPDEST STOP JUMPDEST CALLVALUE DUP1 ISZERO PUSH3 0x88E JUMPI PUSH1 0x0 DUP1 REVERT JUMPDEST POP PUSH3 0x899 PUSH3 0x2F6F JUMP JUMPDEST STOP JUMPDEST CALLVALUE DUP1 ISZERO PUSH3 0x8A8 JUMPI PUSH1 0x0 DUP1 REVERT JUMPDEST POP PUSH3 0x8C7 PUSH1 0x4 DUP1 CALLDATASIZE SUB DUP2 ADD SWAP1 PUSH3 0x8C1 SWAP2 SWAP1 PUSH3 0x77E6 JUMP JUMPDEST PUSH3 0x3031 JUMP JUMPDEST PUSH1 0x40 MLOAD PUSH3 0x8D6 SWAP2 SWAP1 PUSH3 0x7700 JUMP JUMPDEST PUSH1 0x40 MLOAD DUP1 SWAP2 SUB SWAP1 RETURN JUMPDEST PUSH3 0x8E9 PUSH3 0x304E JUMP JUMPDEST STOP JUMPDEST CALLVALUE DUP1 ISZERO PUSH3 0x8F8 JUMPI PUSH1 0x0 DUP1 REVERT JUMPDEST POP PUSH3 0x917 PUSH1 0x4 DUP1 CALLDATASIZE SUB DUP2 ADD SWAP1 PUSH3 0x911 SWAP2 SWAP1 PUSH3 0x8068 JUMP JUMPDEST PUSH3 0x3121 JUMP JUMPDEST PUSH1 0x40 MLOAD PUSH3 0x926 SWAP2 SWAP1 PUSH3 0x7700 JUMP JUMPDEST PUSH1 0x40 MLOAD DUP1 SWAP2 SUB SWAP1 RETURN JUMPDEST CALLVALUE DUP1 ISZERO PUSH3 0x93C JUMPI PUSH1 0x0 DUP1 REVERT JUMPDEST POP PUSH3 0x95B PUSH1 0x4 DUP1 CALLDATASIZE SUB DUP2 ADD SWAP1 PUSH3 0x955 SWAP2 SWAP1 PUSH3 0x76A8 JUMP JUMPDEST PUSH3 0x3429 JUMP JUMPDEST STOP JUMPDEST PUSH3 0x97B PUSH1 0x4 DUP1 CALLDATASIZE SUB DUP2 ADD SWAP1 PUSH3 0x975 SWAP2 SWAP1 PUSH3 0x7FF6 JUMP JUMPDEST PUSH3 0x369B JUMP JUMPDEST STOP JUMPDEST CALLVALUE DUP1 ISZERO PUSH3 0x98A JUMPI PUSH1 0x0 DUP1 REVERT JUMPDEST POP PUSH3 0x9A9 PUSH1 0x4 DUP1 CALLDATASIZE SUB DUP2 ADD SWAP1 PUSH3 0x9A3 SWAP2 SWAP1 PUSH3 0x8537 JUMP JUMPDEST PUSH3 0x373F JUMP JUMPDEST PUSH1 0x40 MLOAD PUSH3 0x9B8 SWAP2 SWAP1 PUSH3 0x77C9 JUMP JUMPDEST PUSH1 0x40 MLOAD DUP1 SWAP2 SUB SWAP1 RETURN JUMPDEST CALLVALUE DUP1 ISZERO PUSH3 0x9CE JUMPI PUSH1 0x0 DUP1 REVERT JUMPDEST POP PUSH3 0x9ED PUSH1 0x4 DUP1 CALLDATASIZE SUB DUP2 ADD SWAP1 PUSH3 0x9E7 SWAP2 SWAP1 PUSH3 0x857E JUMP JUMPDEST PUSH3 0x37D3 JUMP JUMPDEST STOP JUMPDEST CALLVALUE DUP1 ISZERO PUSH3 0x9FC JUMPI PUSH1 0x0 DUP1 REVERT JUMPDEST POP PUSH3 0xA1B PUSH1 0x4 DUP1 CALLDATASIZE SUB DUP2 ADD SWAP1 PUSH3 0xA15 SWAP2 SWAP1 PUSH3 0x8606 JUMP JUMPDEST PUSH3 0x38A6 JUMP JUMPDEST STOP JUMPDEST CALLVALUE DUP1 ISZERO PUSH3 0xA2A JUMPI PUSH1 0x0 DUP1 REVERT JUMPDEST POP PUSH3 0xA49 PUSH1 0x4 DUP1 CALLDATASIZE SUB DUP2 ADD SWAP1 PUSH3 0xA43 SWAP2 SWAP1 PUSH3 0x80C4 JUMP JUMPDEST PUSH3 0x39AF JUMP JUMPDEST STOP JUMPDEST PUSH3 0xA69 PUSH1 0x4 DUP1 CALLDATASIZE SUB DUP2 ADD SWAP1 PUSH3 0xA63 SWAP2 SWAP1 PUSH3 0x8392 JUMP JUMPDEST PUSH3 0x3A94 JUMP JUMPDEST PUSH1 0x40 MLOAD PUSH3 0xA78 SWAP2 SWAP1 PUSH3 0x8252 JUMP JUMPDEST PUSH1 0x40 MLOAD DUP1 SWAP2 SUB SWAP1 RETURN JUMPDEST PUSH1 0x0 DUP1 PUSH20 0xFFFFFFFFFFFFFFFFFFFFFFFFFFFFFFFFFFFFFFFF AND DUP4 PUSH20 0xFFFFFFFFFFFFFFFFFFFFFFFFFFFFFFFFFFFFFFFF AND EQ ISZERO PUSH3 0xAEA JUMPI PUSH1 0x40 MLOAD PUSH32 0xDC768A8E00000000000000000000000000000000000000000000000000000000 DUP2 MSTORE PUSH1 0x4 ADD PUSH1 0x40 MLOAD DUP1 SWAP2 SUB SWAP1 REVERT JUMPDEST PUSH1 0xC PUSH1 0x0 DUP4 DUP2 MSTORE PUSH1 0x20 ADD SWAP1 DUP2 MSTORE PUSH1 0x20 ADD PUSH1 0x0 KECCAK256 PUSH1 0x0 DUP5 PUSH20 0xFFFFFFFFFFFFFFFFFFFFFFFFFFFFFFFFFFFFFFFF AND PUSH20 0xFFFFFFFFFFFFFFFFFFFFFFFFFFFFFFFFFFFFFFFF AND DUP2 MSTORE PUSH1 0x20 ADD SWAP1 DUP2 MSTORE PUSH1 0x20 ADD PUSH1 0x0 KECCAK256 SLOAD SWAP1 POP SWAP3 SWAP2 POP POP JUMP JUMPDEST PUSH1 0x0 PUSH32 0x1FFC9A700000000000000000000000000000000000000000000000000000000 PUSH28 0xFFFFFFFFFFFFFFFFFFFFFFFFFFFFFFFFFFFFFFFFFFFFFFFFFFFFFFFF NOT AND DUP3 PUSH28 0xFFFFFFFFFFFFFFFFFFFFFFFFFFFFFFFFFFFFFFFFFFFFFFFFFFFFFFFF NOT AND EQ SWAP1 POP SWAP2 SWAP1 POP JUMP JUMPDEST PUSH1 0x0 PUSH20 0xDEF1FAC7BF08F173D286BBBDCBEEADE695129840 PUSH20 0xFFFFFFFFFFFFFFFFFFFFFFFFFFFFFFFFFFFFFFFF AND PUSH4 0x6FB1A07 DUP4 PUSH1 0x40 MLOAD DUP3 PUSH4 0xFFFFFFFF AND PUSH1 0xE0 SHL DUP2 MSTORE PUSH1 0x4 ADD PUSH3 0xBFE SWAP2 SWAP1 PUSH3 0x7700 JUMP JUMPDEST PUSH1 0x20 PUSH1 0x40 MLOAD DUP1 DUP4 SUB DUP2 DUP7 GAS STATICCALL ISZERO DUP1 ISZERO PUSH3 0xC1C JUMPI RETURNDATASIZE PUSH1 0x0 DUP1 RETURNDATACOPY RETURNDATASIZE PUSH1 0x0 REVERT JUMPDEST POP POP POP POP PUSH1 0x40 MLOAD RETURNDATASIZE PUSH1 0x1F NOT PUSH1 0x1F DUP3 ADD AND DUP3 ADD DUP1 PUSH1 0x40 MSTORE POP DUP2 ADD SWAP1 PUSH3 0xC42 SWAP2 SWAP1 PUSH3 0x86C7 JUMP JUMPDEST SWAP1 POP SWAP2 SWAP1 POP JUMP JUMPDEST PUSH1 0x60 PUSH1 0x10 DUP1 SLOAD PUSH3 0xC5A SWAP1 PUSH3 0x8728 JUMP JUMPDEST DUP1 PUSH1 0x1F ADD PUSH1 0x20 DUP1 SWAP2 DIV MUL PUSH1 0x20 ADD PUSH1 0x40 MLOAD SWAP1 DUP2 ADD PUSH1 0x40 MSTORE DUP1 SWAP3 SWAP2 SWAP1 DUP2 DUP2 MSTORE PUSH1 0x20 ADD DUP3 DUP1 SLOAD PUSH3 0xC88 SWAP1 PUSH3 0x8728 JUMP JUMPDEST DUP1 ISZERO PUSH3 0xCD9 JUMPI DUP1 PUSH1 0x1F LT PUSH3 0xCAD JUMPI PUSH2 0x100 DUP1 DUP4 SLOAD DIV MUL DUP4 MSTORE SWAP2 PUSH1 0x20 ADD SWAP2 PUSH3 0xCD9 JUMP JUMPDEST DUP3 ADD SWAP2 SWAP1 PUSH1 0x0 MSTORE PUSH1 0x20 PUSH1 0x0 KECCAK256 SWAP1 JUMPDEST DUP2 SLOAD DUP2 MSTORE SWAP1 PUSH1 0x1 ADD SWAP1 PUSH1 0x20 ADD DUP1 DUP4 GT PUSH3 0xCBB JUMPI DUP3 SWAP1 SUB PUSH1 0x1F AND DUP3 ADD SWAP2 JUMPDEST POP POP POP POP POP SWAP1 POP SWAP1 JUMP JUMPDEST CALLER PUSH20 0xFFFFFFFFFFFFFFFFFFFFFFFFFFFFFFFFFFFFFFFF AND PUSH3 0xD04 PUSH3 0x2343 JUMP JUMPDEST PUSH20 0xFFFFFFFFFFFFFFFFFFFFFFFFFFFFFFFFFFFFFFFF AND EQ PUSH3 0xD52 JUMPI PUSH1 0x40 MLOAD PUSH32 0xEBF9845900000000000000000000000000000000000000000000000000000000 DUP2 MSTORE PUSH1 0x4 ADD PUSH1 0x40 MLOAD DUP1 SWAP2 SUB SWAP1 REVERT JUMPDEST DUP1 PUSH1 0x40 ADD CALLDATALOAD PUSH1 0x0 EQ DUP1 PUSH3 0xD6D JUMPI POP DUP1 PUSH1 0x60 ADD CALLDATALOAD DUP2 PUSH1 0x40 ADD CALLDATALOAD GT JUMPDEST DUP1 PUSH3 0xD7E JUMPI POP PUSH2 0x1F4 DUP2 PUSH1 0x60 ADD CALLDATALOAD GT JUMPDEST ISZERO PUSH3 0xDB6 JUMPI PUSH1 0x40 MLOAD PUSH32 0xE8404B1A00000000000000000000000000000000000000000000000000000000 DUP2 MSTORE PUSH1 0x4 ADD PUSH1 0x40 MLOAD DUP1 SWAP2 SUB SWAP1 REVERT JUMPDEST DUP1 PUSH1 0xA0 ADD CALLDATALOAD DUP2 PUSH1 0x80 ADD CALLDATALOAD GT ISZERO PUSH3 0xDF9 JUMPI PUSH1 0x40 MLOAD PUSH32 0xEBC2E01600000000000000000000000000000000000000000000000000000000 DUP2 MSTORE PUSH1 0x4 ADD PUSH1 0x40 MLOAD DUP1 SWAP2 SUB SWAP1 REVERT JUMPDEST PUSH1 0x64 PUSH1 0x2 DUP3 PUSH1 0x20 ADD CALLDATALOAD PUSH3 0xE0E SWAP2 SWAP1 PUSH3 0x878D JUMP JUMPDEST LT PUSH3 0xE46 JUMPI PUSH1 0x40 MLOAD PUSH32 0x28AF878600000000000000000000000000000000000000000000000000000000 DUP2 MSTORE PUSH1 0x4 ADD PUSH1 0x40 MLOAD DUP1 SWAP2 SUB SWAP1 REVERT JUMPDEST DUP1 PUSH1 0x6 DUP2 DUP2 PUSH3 0xE57 SWAP2 SWAP1 PUSH3 0x8A71 JUMP JUMPDEST SWAP1 POP POP POP JUMP JUMPDEST PUSH1 0x60 PUSH1 0x12 DUP3 PUSH1 0x40 MLOAD PUSH1 0x20 ADD PUSH3 0xE75 SWAP3 SWAP2 SWAP1 PUSH3 0x8BA1 JUMP JUMPDEST PUSH1 0x40 MLOAD PUSH1 0x20 DUP2 DUP4 SUB SUB DUP2 MSTORE SWAP1 PUSH1 0x40 MSTORE SWAP1 POP SWAP2 SWAP1 POP JUMP JUMPDEST PUSH1 0x0 DUP1 PUSH1 0x0 JUMPDEST PUSH1 0x0 PUSH1 0xF PUSH1 0x0 DUP5 PUSH3 0xEA3 SWAP1 PUSH3 0x8BDA JUMP JUMPDEST SWAP5 POP DUP5 DUP2 MSTORE PUSH1 0x20 ADD SWAP1 DUP2 MSTORE PUSH1 0x20 ADD PUSH1 0x0 KECCAK256 SLOAD GT ISZERO PUSH3 0xEE5 JUMPI PUSH1 0xF PUSH1 0x0 DUP4 DUP2 MSTORE PUSH1 0x20 ADD SWAP1 DUP2 MSTORE PUSH1 0x20 ADD PUSH1 0x0 KECCAK256 SLOAD DUP2 PUSH3 0xEDD SWAP2 SWAP1 PUSH3 0x8C28 JUMP JUMPDEST SWAP1 POP PUSH3 0xE91 JUMP JUMPDEST DUP1 SWAP3 POP POP POP SWAP1 JUMP JUMPDEST PUSH1 0x0 PUSH3 0xEFB PUSH1 0x3 PUSH3 0xBAD JUMP JUMPDEST SWAP1 POP DUP1 PUSH20 0xFFFFFFFFFFFFFFFFFFFFFFFFFFFFFFFFFFFFFFFF AND PUSH4 0xEEF84BA1 PUSH1 0x40 MLOAD DUP2 PUSH4 0xFFFFFFFF AND PUSH1 0xE0 SHL DUP2 MSTORE PUSH1 0x4 ADD PUSH1 0x0 PUSH1 0x40 MLOAD DUP1 DUP4 SUB DUP2 PUSH1 0x0 DUP8 DUP1 EXTCODESIZE ISZERO DUP1 ISZERO PUSH3 0xF46 JUMPI PUSH1 0x0 DUP1 REVERT JUMPDEST POP GAS CALL ISZERO DUP1 ISZERO PUSH3 0xF5B JUMPI RETURNDATASIZE PUSH1 0x0 DUP1 RETURNDATACOPY RETURNDATASIZE PUSH1 0x0 REVERT JUMPDEST POP POP POP POP CALLER PUSH20 0xFFFFFFFFFFFFFFFFFFFFFFFFFFFFFFFFFFFFFFFF AND DUP10 PUSH20 0xFFFFFFFFFFFFFFFFFFFFFFFFFFFFFFFFFFFFFFFF AND EQ ISZERO DUP1 ISZERO PUSH3 0xFA5 JUMPI POP PUSH3 0xFA3 DUP10 CALLER PUSH3 0x373F JUMP JUMPDEST ISZERO JUMPDEST ISZERO PUSH3 0xFDD JUMPI PUSH1 0x40 MLOAD PUSH32 0x6F34AAA800000000000000000000000000000000000000000000000000000000 DUP2 MSTORE PUSH1 0x4 ADD PUSH1 0x40 MLOAD DUP1 SWAP2 SUB SWAP1 REVERT JUMPDEST PUSH3 0xFEF DUP10 DUP10 DUP10 DUP10 DUP10 DUP10 DUP10 DUP10 PUSH3 0x43F5 JUMP JUMPDEST POP POP POP POP POP POP POP POP POP JUMP JUMPDEST PUSH1 0x0 PUSH1 0x12 SWAP1 POP SWAP1 JUMP JUMPDEST PUSH1 0x60 PUSH1 0x0 DUP4 DUP4 SWAP1 POP PUSH8 0xFFFFFFFFFFFFFFFF DUP2 GT ISZERO PUSH3 0x1027 JUMPI PUSH3 0x1026 PUSH3 0x7E2A JUMP JUMPDEST JUMPDEST PUSH1 0x40 MLOAD SWAP1 DUP1 DUP3 MSTORE DUP1 PUSH1 0x20 MUL PUSH1 0x20 ADD DUP3 ADD PUSH1 0x40 MSTORE DUP1 ISZERO PUSH3 0x1064 JUMPI DUP2 PUSH1 0x20 ADD JUMPDEST PUSH3 0x1050 PUSH3 0x7308 JUMP JUMPDEST DUP2 MSTORE PUSH1 0x20 ADD SWAP1 PUSH1 0x1 SWAP1 SUB SWAP1 DUP2 PUSH3 0x1046 JUMPI SWAP1 POP JUMPDEST POP SWAP1 POP PUSH1 0x0 JUMPDEST DUP5 DUP5 SWAP1 POP DUP2 LT ISZERO PUSH3 0x12A5 JUMPI PUSH1 0x1 PUSH1 0x2 PUSH1 0x0 DUP8 DUP8 DUP6 DUP2 DUP2 LT PUSH3 0x1092 JUMPI PUSH3 0x1091 PUSH3 0x8C85 JUMP JUMPDEST JUMPDEST SWAP1 POP PUSH1 0x20 MUL ADD PUSH1 0x20 DUP2 ADD SWAP1 PUSH3 0x10A9 SWAP2 SWAP1 PUSH3 0x80C4 JUMP JUMPDEST PUSH20 0xFFFFFFFFFFFFFFFFFFFFFFFFFFFFFFFFFFFFFFFF AND PUSH20 0xFFFFFFFFFFFFFFFFFFFFFFFFFFFFFFFFFFFFFFFF AND DUP2 MSTORE PUSH1 0x20 ADD SWAP1 DUP2 MSTORE PUSH1 0x20 ADD PUSH1 0x0 KECCAK256 SLOAD DUP2 SLOAD DUP2 LT PUSH3 0x10F8 JUMPI PUSH3 0x10F7 PUSH3 0x8C85 JUMP JUMPDEST JUMPDEST SWAP1 PUSH1 0x0 MSTORE PUSH1 0x20 PUSH1 0x0 KECCAK256 SWAP1 PUSH1 0x3 MUL ADD PUSH1 0x40 MLOAD DUP1 PUSH1 0x80 ADD PUSH1 0x40 MSTORE SWAP1 DUP2 PUSH1 0x0 DUP3 ADD PUSH1 0x0 SWAP1 SLOAD SWAP1 PUSH2 0x100 EXP SWAP1 DIV PUSH20 0xFFFFFFFFFFFFFFFFFFFFFFFFFFFFFFFFFFFFFFFF AND PUSH20 0xFFFFFFFFFFFFFFFFFFFFFFFFFFFFFFFFFFFFFFFF AND PUSH20 0xFFFFFFFFFFFFFFFFFFFFFFFFFFFFFFFFFFFFFFFF AND DUP2 MSTORE PUSH1 0x20 ADD PUSH1 0x1 DUP3 ADD PUSH1 0x8 DUP1 PUSH1 0x20 MUL PUSH1 0x40 MLOAD SWAP1 DUP2 ADD PUSH1 0x40 MSTORE DUP1 SWAP3 SWAP2 SWAP1 DUP3 PUSH1 0x8 DUP1 ISZERO PUSH3 0x11D1 JUMPI PUSH1 0x20 MUL DUP3 ADD SWAP2 PUSH1 0x0 SWAP1 JUMPDEST DUP3 DUP3 SWAP1 SLOAD SWAP1 PUSH2 0x100 EXP SWAP1 DIV PUSH4 0xFFFFFFFF AND PUSH4 0xFFFFFFFF AND DUP2 MSTORE PUSH1 0x20 ADD SWAP1 PUSH1 0x4 ADD SWAP1 PUSH1 0x20 DUP3 PUSH1 0x3 ADD DIV SWAP3 DUP4 ADD SWAP3 PUSH1 0x1 SUB DUP3 MUL SWAP2 POP DUP1 DUP5 GT PUSH3 0x1193 JUMPI SWAP1 POP JUMPDEST POP POP POP POP POP DUP2 MSTORE PUSH1 0x20 ADD PUSH1 0x2 DUP3 ADD PUSH1 0x0 SWAP1 SLOAD SWAP1 PUSH2 0x100 EXP SWAP1 DIV PUSH16 0xFFFFFFFFFFFFFFFFFFFFFFFFFFFFFFFF AND PUSH16 0xFFFFFFFFFFFFFFFFFFFFFFFFFFFFFFFF AND PUSH16 0xFFFFFFFFFFFFFFFFFFFFFFFFFFFFFFFF AND DUP2 MSTORE PUSH1 0x20 ADD PUSH1 0x2 DUP3 ADD PUSH1 0x10 SWAP1 SLOAD SWAP1 PUSH2 0x100 EXP SWAP1 DIV PUSH16 0xFFFFFFFFFFFFFFFFFFFFFFFFFFFFFFFF AND PUSH16 0xFFFFFFFFFFFFFFFFFFFFFFFFFFFFFFFF AND PUSH16 0xFFFFFFFFFFFFFFFFFFFFFFFFFFFFFFFF AND DUP2 MSTORE POP POP DUP3 DUP3 DUP2 MLOAD DUP2 LT PUSH3 0x1284 JUMPI PUSH3 0x1283 PUSH3 0x8C85 JUMP JUMPDEST JUMPDEST PUSH1 0x20 MUL PUSH1 0x20 ADD ADD DUP2 SWAP1 MSTORE POP DUP1 DUP1 PUSH3 0x129C SWAP1 PUSH3 0x8BDA JUMP JUMPDEST SWAP2 POP POP PUSH3 0x106A JUMP JUMPDEST POP DUP1 SWAP2 POP POP SWAP3 SWAP2 POP POP JUMP JUMPDEST CALLER PUSH20 0xFFFFFFFFFFFFFFFFFFFFFFFFFFFFFFFFFFFFFFFF AND PUSH3 0x12D1 PUSH3 0x2343 JUMP JUMPDEST PUSH20 0xFFFFFFFFFFFFFFFFFFFFFFFFFFFFFFFFFFFFFFFF AND EQ PUSH3 0x131F JUMPI PUSH1 0x40 MLOAD PUSH32 0xEBF9845900000000000000000000000000000000000000000000000000000000 DUP2 MSTORE PUSH1 0x4 ADD PUSH1 0x40 MLOAD DUP1 SWAP2 SUB SWAP1 REVERT JUMPDEST DUP2 PUSH1 0x10 SWAP1 DUP1 MLOAD SWAP1 PUSH1 0x20 ADD SWAP1 PUSH3 0x1337 SWAP3 SWAP2 SWAP1 PUSH3 0x7372 JUMP JUMPDEST POP DUP1 PUSH1 0x11 SWAP1 DUP1 MLOAD SWAP1 PUSH1 0x20 ADD SWAP1 PUSH3 0x1350 SWAP3 SWAP2 SWAP1 PUSH3 0x7372 JUMP JUMPDEST POP POP POP JUMP JUMPDEST PUSH1 0x0 DUP5 PUSH1 0x0 PUSH1 0x2 PUSH1 0x0 DUP4 PUSH20 0xFFFFFFFFFFFFFFFFFFFFFFFFFFFFFFFFFFFFFFFF AND PUSH20 0xFFFFFFFFFFFFFFFFFFFFFFFFFFFFFFFFFFFFFFFF AND DUP2 MSTORE PUSH1 0x20 ADD SWAP1 DUP2 MSTORE PUSH1 0x20 ADD PUSH1 0x0 KECCAK256 SLOAD EQ DUP1 PUSH3 0x13F2 JUMPI POP PUSH1 0x0 DUP1 SLOAD SWAP1 PUSH2 0x100 EXP SWAP1 DIV PUSH20 0xFFFFFFFFFFFFFFFFFFFFFFFFFFFFFFFFFFFFFFFF AND PUSH20 0xFFFFFFFFFFFFFFFFFFFFFFFFFFFFFFFFFFFFFFFF AND DUP2 PUSH20 0xFFFFFFFFFFFFFFFFFFFFFFFFFFFFFFFFFFFFFFFF AND EQ JUMPDEST ISZERO PUSH3 0x1435 JUMPI PUSH1 0x40 MLOAD PUSH32 0x8C379A000000000000000000000000000000000000000000000000000000000 DUP2 MSTORE PUSH1 0x4 ADD PUSH3 0x142C SWAP1 PUSH3 0x8D04 JUMP JUMPDEST PUSH1 0x40 MLOAD DUP1 SWAP2 SUB SWAP1 REVERT JUMPDEST DUP4 DUP1 TIMESTAMP GT ISZERO PUSH3 0x147C JUMPI PUSH1 0x40 MLOAD PUSH32 0x8C379A000000000000000000000000000000000000000000000000000000000 DUP2 MSTORE PUSH1 0x4 ADD PUSH3 0x1473 SWAP1 PUSH3 0x8D76 JUMP JUMPDEST PUSH1 0x40 MLOAD DUP1 SWAP2 SUB SWAP1 REVERT JUMPDEST PUSH1 0x0 PUSH1 0x2 PUSH1 0x0 DUP10 PUSH20 0xFFFFFFFFFFFFFFFFFFFFFFFFFFFFFFFFFFFFFFFF AND PUSH20 0xFFFFFFFFFFFFFFFFFFFFFFFFFFFFFFFFFFFFFFFF AND DUP2 MSTORE PUSH1 0x20 ADD SWAP1 DUP2 MSTORE PUSH1 0x20 ADD PUSH1 0x0 KECCAK256 SLOAD SWAP1 POP PUSH1 0x0 PUSH1 0x1 DUP3 DUP2 SLOAD DUP2 LT PUSH3 0x14D9 JUMPI PUSH3 0x14D8 PUSH3 0x8C85 JUMP JUMPDEST JUMPDEST SWAP1 PUSH1 0x0 MSTORE PUSH1 0x20 PUSH1 0x0 KECCAK256 SWAP1 PUSH1 0x3 MUL ADD SWAP1 POP PUSH1 0x0 PUSH3 0x151B DUP11 DUP4 PUSH1 0x0 ADD PUSH1 0x0 SWAP1 SLOAD SWAP1 PUSH2 0x100 EXP SWAP1 DIV PUSH20 0xFFFFFFFFFFFFFFFFFFFFFFFFFFFFFFFFFFFFFFFF AND PUSH3 0x47B2 JUMP JUMPDEST SWAP1 POP PUSH3 0x154F DUP11 CALLER DUP5 PUSH1 0x0 ADD PUSH1 0x0 SWAP1 SLOAD SWAP1 PUSH2 0x100 EXP SWAP1 DIV PUSH20 0xFFFFFFFFFFFFFFFFFFFFFFFFFFFFFFFFFFFFFFFF AND DUP13 PUSH3 0x480F JUMP JUMPDEST PUSH1 0x0 PUSH3 0x1581 DUP12 DUP5 PUSH1 0x0 ADD PUSH1 0x0 SWAP1 SLOAD SWAP1 PUSH2 0x100 EXP SWAP1 DIV PUSH20 0xFFFFFFFFFFFFFFFFFFFFFFFFFFFFFFFFFFFFFFFF AND PUSH3 0x47B2 JUMP JUMPDEST SWAP1 POP DUP2 PUSH1 0x0 ADD MLOAD DUP2 PUSH1 0x0 ADD MLOAD PUSH3 0x1599 SWAP2 SWAP1 PUSH3 0x8D98 JUMP JUMPDEST SWAP10 POP PUSH1 0x1 DUP11 GT PUSH3 0x15E1 JUMPI PUSH1 0x40 MLOAD PUSH32 0x8C379A000000000000000000000000000000000000000000000000000000000 DUP2 MSTORE PUSH1 0x4 ADD PUSH3 0x15D8 SWAP1 PUSH3 0x8E23 JUMP JUMPDEST PUSH1 0x40 MLOAD DUP1 SWAP2 SUB SWAP1 REVERT JUMPDEST PUSH1 0x0 PUSH3 0x1603 DUP4 PUSH1 0x20 ADD MLOAD DUP5 PUSH1 0x0 ADD MLOAD PUSH3 0x15FD SWAP2 SWAP1 PUSH3 0x878D JUMP JUMPDEST PUSH3 0x4A33 JUMP JUMPDEST SWAP1 POP PUSH1 0x0 PUSH3 0x1659 DUP6 PUSH1 0x2 ADD PUSH1 0x0 SWAP1 SLOAD SWAP1 PUSH2 0x100 EXP SWAP1 DIV PUSH16 0xFFFFFFFFFFFFFFFFFFFFFFFFFFFFFFFF AND PUSH16 0xFFFFFFFFFFFFFFFFFFFFFFFFFFFFFFFF AND DUP4 PUSH1 0xF PUSH1 0x0 DUP11 DUP2 MSTORE PUSH1 0x20 ADD SWAP1 DUP2 MSTORE PUSH1 0x20 ADD PUSH1 0x0 KECCAK256 SLOAD PUSH3 0x4ABC JUMP JUMPDEST SWAP1 POP PUSH3 0x169D PUSH1 0x6 PUSH1 0x0 ADD PUSH1 0x0 SWAP1 SLOAD SWAP1 PUSH2 0x100 EXP SWAP1 DIV PUSH20 0xFFFFFFFFFFFFFFFFFFFFFFFFFFFFFFFFFFFFFFFF AND DUP8 DUP4 PUSH1 0x40 MLOAD DUP1 PUSH1 0x20 ADD PUSH1 0x40 MSTORE DUP1 PUSH1 0x0 DUP2 MSTORE POP PUSH3 0x4B65 JUMP JUMPDEST PUSH1 0x0 DUP5 PUSH1 0x0 ADD MLOAD PUSH1 0xF PUSH1 0x0 DUP10 DUP2 MSTORE PUSH1 0x20 ADD SWAP1 DUP2 MSTORE PUSH1 0x20 ADD PUSH1 0x0 KECCAK256 SLOAD DUP15 PUSH3 0x16C5 SWAP2 SWAP1 PUSH3 0x878D JUMP JUMPDEST PUSH3 0x16D1 SWAP2 SWAP1 PUSH3 0x8E74 JUMP JUMPDEST SWAP1 POP PUSH3 0x16F0 DUP12 DUP9 DUP4 PUSH1 0x40 MLOAD DUP1 PUSH1 0x20 ADD PUSH1 0x40 MSTORE DUP1 PUSH1 0x0 DUP2 MSTORE POP PUSH3 0x4B65 JUMP JUMPDEST PUSH1 0x0 DUP6 PUSH1 0x0 ADD MLOAD DUP7 PUSH1 0x20 ADD MLOAD DUP16 PUSH3 0x1709 SWAP2 SWAP1 PUSH3 0x878D JUMP JUMPDEST PUSH3 0x1715 SWAP2 SWAP1 PUSH3 0x8E74 JUMP JUMPDEST SWAP1 POP PUSH1 0x1 DUP2 GT PUSH3 0x1752 JUMPI PUSH1 0x40 MLOAD PUSH32 0x206F960000000000000000000000000000000000000000000000000000000000 DUP2 MSTORE PUSH1 0x4 ADD PUSH1 0x40 MLOAD DUP1 SWAP2 SUB SWAP1 REVERT JUMPDEST PUSH1 0x0 DUP1 SLOAD SWAP1 PUSH2 0x100 EXP SWAP1 DIV PUSH20 0xFFFFFFFFFFFFFFFFFFFFFFFFFFFFFFFFFFFFFFFF AND PUSH20 0xFFFFFFFFFFFFFFFFFFFFFFFFFFFFFFFFFFFFFFFF AND PUSH4 0xBB9FF5D DUP9 PUSH1 0x0 ADD PUSH1 0x0 SWAP1 SLOAD SWAP1 PUSH2 0x100 EXP SWAP1 DIV PUSH20 0xFFFFFFFFFFFFFFFFFFFFFFFFFFFFFFFFFFFFFFFF AND DUP4 PUSH1 0x40 MLOAD DUP4 PUSH4 0xFFFFFFFF AND PUSH1 0xE0 SHL DUP2 MSTORE PUSH1 0x4 ADD PUSH3 0x17D3 SWAP3 SWAP2 SWAP1 PUSH3 0x8EAC JUMP JUMPDEST PUSH1 0x0 PUSH1 0x40 MLOAD DUP1 DUP4 SUB DUP2 PUSH1 0x0 DUP8 DUP1 EXTCODESIZE ISZERO DUP1 ISZERO PUSH3 0x17EE JUMPI PUSH1 0x0 DUP1 REVERT JUMPDEST POP GAS CALL ISZERO DUP1 ISZERO PUSH3 0x1803 JUMPI RETURNDATASIZE PUSH1 0x0 DUP1 RETURNDATACOPY RETURNDATASIZE PUSH1 0x0 REVERT JUMPDEST POP POP POP POP PUSH3 0x1827 DUP6 PUSH1 0x20 ADD MLOAD DUP7 PUSH1 0x0 ADD MLOAD PUSH3 0x1821 SWAP2 SWAP1 PUSH3 0x878D JUMP JUMPDEST PUSH3 0x4A33 JUMP JUMPDEST DUP8 PUSH1 0x2 ADD PUSH1 0x0 PUSH2 0x100 EXP DUP2 SLOAD DUP2 PUSH16 0xFFFFFFFFFFFFFFFFFFFFFFFFFFFFFFFF MUL NOT AND SWAP1 DUP4 PUSH16 0xFFFFFFFFFFFFFFFFFFFFFFFFFFFFFFFF AND MUL OR SWAP1 SSTORE POP PUSH32 0x64B83944E79C3CE8D4C297411DE637C3E102D064677AAC0C163976EBDCD6F50E DUP16 DUP16 DUP4 DUP6 PUSH1 0x40 MLOAD PUSH3 0x1898 SWAP5 SWAP4 SWAP3 SWAP2 SWAP1 PUSH3 0x8ED9 JUMP JUMPDEST PUSH1 0x40 MLOAD DUP1 SWAP2 SUB SWAP1 LOG1 PUSH32 0x51AB1232A73B82B6B0ACB0FA91B834CF6E258A1858C4E23C72CE97241C71AA0D DUP16 DUP7 PUSH1 0x0 ADD MLOAD DUP8 PUSH1 0x20 ADD MLOAD DUP11 PUSH1 0x2 ADD PUSH1 0x10 SWAP1 SLOAD SWAP1 PUSH2 0x100 EXP SWAP1 DIV PUSH16 0xFFFFFFFFFFFFFFFFFFFFFFFFFFFFFFFF AND PUSH1 0x40 MLOAD PUSH3 0x18FF SWAP5 SWAP4 SWAP3 SWAP2 SWAP1 PUSH3 0x8F5F JUMP JUMPDEST PUSH1 0x40 MLOAD DUP1 SWAP2 SUB SWAP1 LOG1 DUP2 SWAP11 POP POP POP POP POP POP POP POP POP POP POP SWAP5 SWAP4 POP POP POP POP JUMP JUMPDEST PUSH1 0x0 DUP1 PUSH1 0x0 PUSH1 0x1 PUSH1 0x2 PUSH1 0x0 DUP9 PUSH20 0xFFFFFFFFFFFFFFFFFFFFFFFFFFFFFFFFFFFFFFFF AND PUSH20 0xFFFFFFFFFFFFFFFFFFFFFFFFFFFFFFFFFFFFFFFF AND DUP2 MSTORE PUSH1 0x20 ADD SWAP1 DUP2 MSTORE PUSH1 0x20 ADD PUSH1 0x0 KECCAK256 SLOAD DUP2 SLOAD DUP2 LT PUSH3 0x1977 JUMPI PUSH3 0x1976 PUSH3 0x8C85 JUMP JUMPDEST JUMPDEST SWAP1 PUSH1 0x0 MSTORE PUSH1 0x20 PUSH1 0x0 KECCAK256 SWAP1 PUSH1 0x3 MUL ADD PUSH1 0x0 ADD PUSH1 0x0 SWAP1 SLOAD SWAP1 PUSH2 0x100 EXP SWAP1 DIV PUSH20 0xFFFFFFFFFFFFFFFFFFFFFFFFFFFFFFFFFFFFFFFF AND SWAP1 POP PUSH1 0x0 PUSH1 0x1 PUSH1 0x2 PUSH1 0x0 DUP9 PUSH20 0xFFFFFFFFFFFFFFFFFFFFFFFFFFFFFFFFFFFFFFFF AND PUSH20 0xFFFFFFFFFFFFFFFFFFFFFFFFFFFFFFFFFFFFFFFF AND DUP2 MSTORE PUSH1 0x20 ADD SWAP1 DUP2 MSTORE PUSH1 0x20 ADD PUSH1 0x0 KECCAK256 SLOAD DUP2 SLOAD DUP2 LT PUSH3 0x1A03 JUMPI PUSH3 0x1A02 PUSH3 0x8C85 JUMP JUMPDEST JUMPDEST SWAP1 PUSH1 0x0 MSTORE PUSH1 0x20 PUSH1 0x0 KECCAK256 SWAP1 PUSH1 0x3 MUL ADD PUSH1 0x0 ADD PUSH1 0x0 SWAP1 SLOAD SWAP1 PUSH2 0x100 EXP SWAP1 DIV PUSH20 0xFFFFFFFFFFFFFFFFFFFFFFFFFFFFFFFFFFFFFFFF AND SWAP1 POP PUSH1 0x0 DUP1 SLOAD SWAP1 PUSH2 0x100 EXP SWAP1 DIV PUSH20 0xFFFFFFFFFFFFFFFFFFFFFFFFFFFFFFFFFFFFFFFF AND PUSH20 0xFFFFFFFFFFFFFFFFFFFFFFFFFFFFFFFFFFFFFFFF AND DUP8 PUSH20 0xFFFFFFFFFFFFFFFFFFFFFFFFFFFFFFFFFFFFFFFF AND EQ ISZERO DUP1 ISZERO PUSH3 0x1ADF JUMPI POP PUSH1 0x0 DUP1 SLOAD SWAP1 PUSH2 0x100 EXP SWAP1 DIV PUSH20 0xFFFFFFFFFFFFFFFFFFFFFFFFFFFFFFFFFFFFFFFF AND PUSH20 0xFFFFFFFFFFFFFFFFFFFFFFFFFFFFFFFFFFFFFFFF AND DUP7 PUSH20 0xFFFFFFFFFFFFFFFFFFFFFFFFFFFFFFFFFFFFFFFF AND EQ JUMPDEST ISZERO PUSH3 0x1B0B JUMPI PUSH3 0x1AFD PUSH3 0x1AF5 DUP9 DUP5 PUSH3 0x47B2 JUMP JUMPDEST DUP9 DUP8 PUSH3 0x4D06 JUMP JUMPDEST SWAP3 POP DUP3 SWAP4 POP POP POP POP PUSH3 0x1C1D JUMP JUMPDEST PUSH1 0x0 DUP1 SLOAD SWAP1 PUSH2 0x100 EXP SWAP1 DIV PUSH20 0xFFFFFFFFFFFFFFFFFFFFFFFFFFFFFFFFFFFFFFFF AND PUSH20 0xFFFFFFFFFFFFFFFFFFFFFFFFFFFFFFFFFFFFFFFF AND DUP8 PUSH20 0xFFFFFFFFFFFFFFFFFFFFFFFFFFFFFFFFFFFFFFFF AND EQ DUP1 ISZERO PUSH3 0x1BB3 JUMPI POP PUSH1 0x0 DUP1 SLOAD SWAP1 PUSH2 0x100 EXP SWAP1 DIV PUSH20 0xFFFFFFFFFFFFFFFFFFFFFFFFFFFFFFFFFFFFFFFF AND PUSH20 0xFFFFFFFFFFFFFFFFFFFFFFFFFFFFFFFFFFFFFFFF AND DUP7 PUSH20 0xFFFFFFFFFFFFFFFFFFFFFFFFFFFFFFFFFFFFFFFF AND EQ ISZERO JUMPDEST ISZERO PUSH3 0x1BDF JUMPI PUSH3 0x1BD1 PUSH3 0x1BC9 DUP8 DUP4 PUSH3 0x47B2 JUMP JUMPDEST DUP8 DUP8 PUSH3 0x4E7A JUMP JUMPDEST SWAP3 POP DUP3 SWAP4 POP POP POP POP PUSH3 0x1C1D JUMP JUMPDEST PUSH1 0x0 PUSH3 0x1BF9 PUSH3 0x1BF1 DUP10 DUP6 PUSH3 0x47B2 JUMP JUMPDEST DUP10 DUP9 PUSH3 0x4D06 JUMP JUMPDEST SWAP1 POP PUSH3 0x1C13 PUSH3 0x1C0B DUP9 DUP5 PUSH3 0x47B2 JUMP JUMPDEST DUP9 DUP4 PUSH3 0x4E7A JUMP JUMPDEST SWAP4 POP DUP4 SWAP5 POP POP POP POP POP JUMPDEST SWAP4 SWAP3 POP POP POP JUMP JUMPDEST PUSH1 0x0 DUP1 PUSH1 0x1 PUSH1 0x2 PUSH1 0x0 DUP6 PUSH20 0xFFFFFFFFFFFFFFFFFFFFFFFFFFFFFFFFFFFFFFFF AND PUSH20 0xFFFFFFFFFFFFFFFFFFFFFFFFFFFFFFFFFFFFFFFF AND DUP2 MSTORE PUSH1 0x20 ADD SWAP1 DUP2 MSTORE PUSH1 0x20 ADD PUSH1 0x0 KECCAK256 SLOAD DUP2 SLOAD DUP2 LT PUSH3 0x1C7D JUMPI PUSH3 0x1C7C PUSH3 0x8C85 JUMP JUMPDEST JUMPDEST SWAP1 PUSH1 0x0 MSTORE PUSH1 0x20 PUSH1 0x0 KECCAK256 SWAP1 PUSH1 0x3 MUL ADD SWAP1 POP PUSH1 0x0 PUSH3 0x1CBF DUP5 DUP4 PUSH1 0x0 ADD PUSH1 0x0 SWAP1 SLOAD SWAP1 PUSH2 0x100 EXP SWAP1 DIV PUSH20 0xFFFFFFFFFFFFFFFFFFFFFFFFFFFFFFFFFFFFFFFF AND PUSH3 0x47B2 JUMP JUMPDEST SWAP1 POP PUSH3 0x1CCD DUP3 DUP3 PUSH3 0x4F7C JUMP JUMPDEST SWAP3 POP POP POP SWAP2 SWAP1 POP JUMP JUMPDEST PUSH1 0x60 PUSH1 0x0 DUP4 DUP4 SWAP1 POP SWAP1 POP DUP1 DUP7 DUP7 SWAP1 POP EQ PUSH3 0x1D1D JUMPI PUSH1 0x40 MLOAD PUSH32 0x80DADC2700000000000000000000000000000000000000000000000000000000 DUP2 MSTORE PUSH1 0x4 ADD PUSH1 0x40 MLOAD DUP1 SWAP2 SUB SWAP1 REVERT JUMPDEST PUSH1 0x0 DUP7 DUP7 SWAP1 POP PUSH8 0xFFFFFFFFFFFFFFFF DUP2 GT ISZERO PUSH3 0x1D3F JUMPI PUSH3 0x1D3E PUSH3 0x7E2A JUMP JUMPDEST JUMPDEST PUSH1 0x40 MLOAD SWAP1 DUP1 DUP3 MSTORE DUP1 PUSH1 0x20 MUL PUSH1 0x20 ADD DUP3 ADD PUSH1 0x40 MSTORE DUP1 ISZERO PUSH3 0x1D6E JUMPI DUP2 PUSH1 0x20 ADD PUSH1 0x20 DUP3 MUL DUP1 CALLDATASIZE DUP4 CALLDATACOPY DUP1 DUP3 ADD SWAP2 POP POP SWAP1 POP JUMPDEST POP SWAP1 POP PUSH1 0x0 JUMPDEST DUP3 DUP2 LT ISZERO PUSH3 0x1E07 JUMPI PUSH3 0x1DD1 DUP9 DUP9 DUP4 DUP2 DUP2 LT PUSH3 0x1D97 JUMPI PUSH3 0x1D96 PUSH3 0x8C85 JUMP JUMPDEST JUMPDEST SWAP1 POP PUSH1 0x20 MUL ADD PUSH1 0x20 DUP2 ADD SWAP1 PUSH3 0x1DAE SWAP2 SWAP1 PUSH3 0x80C4 JUMP JUMPDEST DUP8 DUP8 DUP5 DUP2 DUP2 LT PUSH3 0x1DC4 JUMPI PUSH3 0x1DC3 PUSH3 0x8C85 JUMP JUMPDEST JUMPDEST SWAP1 POP PUSH1 0x20 MUL ADD CALLDATALOAD PUSH3 0xA81 JUMP JUMPDEST DUP3 DUP3 DUP2 MLOAD DUP2 LT PUSH3 0x1DE7 JUMPI PUSH3 0x1DE6 PUSH3 0x8C85 JUMP JUMPDEST JUMPDEST PUSH1 0x20 MUL PUSH1 0x20 ADD ADD DUP2 DUP2 MSTORE POP POP DUP1 PUSH3 0x1DFF SWAP1 PUSH3 0x8BDA JUMP JUMPDEST SWAP1 POP PUSH3 0x1D74 JUMP JUMPDEST POP DUP1 SWAP3 POP POP POP SWAP5 SWAP4 POP POP POP POP JUMP JUMPDEST PUSH1 0x0 DUP1 PUSH1 0xF PUSH1 0x0 DUP5 DUP2 MSTORE PUSH1 0x20 ADD SWAP1 DUP2 MSTORE PUSH1 0x20 ADD PUSH1 0x0 KECCAK256 SLOAD GT SWAP1 POP SWAP2 SWAP1 POP JUMP JUMPDEST PUSH1 0x0 PUSH1 0x2 PUSH1 0x0 DUP4 PUSH20 0xFFFFFFFFFFFFFFFFFFFFFFFFFFFFFFFFFFFFFFFF AND PUSH20 0xFFFFFFFFFFFFFFFFFFFFFFFFFFFFFFFFFFFFFFFF AND DUP2 MSTORE PUSH1 0x20 ADD SWAP1 DUP2 MSTORE PUSH1 0x20 ADD PUSH1 0x0 KECCAK256 SLOAD SWAP1 POP SWAP2 SWAP1 POP JUMP JUMPDEST CALLER PUSH20 0xFFFFFFFFFFFFFFFFFFFFFFFFFFFFFFFFFFFFFFFF AND PUSH3 0x1E9E PUSH3 0x2343 JUMP JUMPDEST PUSH20 0xFFFFFFFFFFFFFFFFFFFFFFFFFFFFFFFFFFFFFFFF AND EQ PUSH3 0x1EEC JUMPI PUSH1 0x40 MLOAD PUSH32 0xEBF9845900000000000000000000000000000000000000000000000000000000 DUP2 MSTORE PUSH1 0x4 ADD PUSH1 0x40 MLOAD DUP1 SWAP2 SUB SWAP1 REVERT JUMPDEST PUSH3 0x1EF8 PUSH1 0x0 PUSH3 0x5163 JUMP JUMPDEST JUMP JUMPDEST PUSH1 0x0 PUSH1 0x1 PUSH1 0x2 PUSH1 0x0 DUP6 PUSH20 0xFFFFFFFFFFFFFFFFFFFFFFFFFFFFFFFFFFFFFFFF AND PUSH20 0xFFFFFFFFFFFFFFFFFFFFFFFFFFFFFFFFFFFFFFFF AND DUP2 MSTORE PUSH1 0x20 ADD SWAP1 DUP2 MSTORE PUSH1 0x20 ADD PUSH1 0x0 KECCAK256 SLOAD DUP2 SLOAD DUP2 LT PUSH3 0x1F52 JUMPI PUSH3 0x1F51 PUSH3 0x8C85 JUMP JUMPDEST JUMPDEST SWAP1 PUSH1 0x0 MSTORE PUSH1 0x20 PUSH1 0x0 KECCAK256 SWAP1 PUSH1 0x3 MUL ADD SWAP1 POP PUSH1 0x0 PUSH3 0x1F94 DUP5 DUP4 PUSH1 0x0 ADD PUSH1 0x0 SWAP1 SLOAD SWAP1 PUSH2 0x100 EXP SWAP1 DIV PUSH20 0xFFFFFFFFFFFFFFFFFFFFFFFFFFFFFFFFFFFFFFFF AND PUSH3 0x47B2 JUMP JUMPDEST SWAP1 POP PUSH16 0xFFFFFFFFFFFFFFFFFFFFFFFFFFFFFFFF DUP1 AND DUP3 PUSH1 0x2 ADD PUSH1 0x10 SWAP1 SLOAD SWAP1 PUSH2 0x100 EXP SWAP1 DIV PUSH16 0xFFFFFFFFFFFFFFFFFFFFFFFFFFFFFFFF AND PUSH16 0xFFFFFFFFFFFFFFFFFFFFFFFFFFFFFFFF AND LT ISZERO PUSH3 0x20DC JUMPI DUP3 DUP3 PUSH1 0x2 ADD PUSH1 0x10 DUP3 DUP3 DUP3 SWAP1 SLOAD SWAP1 PUSH2 0x100 EXP SWAP1 DIV PUSH16 0xFFFFFFFFFFFFFFFFFFFFFFFFFFFFFFFF AND PUSH3 0x2014 SWAP2 SWAP1 PUSH3 0x8FAC JUMP JUMPDEST SWAP3 POP PUSH2 0x100 EXP DUP2 SLOAD DUP2 PUSH16 0xFFFFFFFFFFFFFFFFFFFFFFFFFFFFFFFF MUL NOT AND SWAP1 DUP4 PUSH16 0xFFFFFFFFFFFFFFFFFFFFFFFFFFFFFFFF AND MUL OR SWAP1 SSTORE POP PUSH1 0x0 DUP1 SLOAD SWAP1 PUSH2 0x100 EXP SWAP1 DIV PUSH20 0xFFFFFFFFFFFFFFFFFFFFFFFFFFFFFFFFFFFFFFFF AND PUSH20 0xFFFFFFFFFFFFFFFFFFFFFFFFFFFFFFFFFFFFFFFF AND PUSH4 0x18A8AD87 CALLER DUP6 PUSH1 0x40 MLOAD DUP4 PUSH4 0xFFFFFFFF AND PUSH1 0xE0 SHL DUP2 MSTORE PUSH1 0x4 ADD PUSH3 0x20A7 SWAP3 SWAP2 SWAP1 PUSH3 0x8EAC JUMP JUMPDEST PUSH1 0x0 PUSH1 0x40 MLOAD DUP1 DUP4 SUB DUP2 PUSH1 0x0 DUP8 DUP1 EXTCODESIZE ISZERO DUP1 ISZERO PUSH3 0x20C2 JUMPI PUSH1 0x0 DUP1 REVERT JUMPDEST POP GAS CALL ISZERO DUP1 ISZERO PUSH3 0x20D7 JUMPI RETURNDATASIZE PUSH1 0x0 DUP1 RETURNDATACOPY RETURNDATASIZE PUSH1 0x0 REVERT JUMPDEST POP POP POP POP JUMPDEST PUSH32 0x51AB1232A73B82B6B0ACB0FA91B834CF6E258A1858C4E23C72CE97241C71AA0D DUP5 DUP3 PUSH1 0x0 ADD MLOAD DUP4 PUSH1 0x20 ADD MLOAD DUP6 PUSH1 0x2 ADD PUSH1 0x10 SWAP1 SLOAD SWAP1 PUSH2 0x100 EXP SWAP1 DIV PUSH16 0xFFFFFFFFFFFFFFFFFFFFFFFFFFFFFFFF AND PUSH1 0x40 MLOAD PUSH3 0x213B SWAP5 SWAP4 SWAP3 SWAP2 SWAP1 PUSH3 0x8F5F JUMP JUMPDEST PUSH1 0x40 MLOAD DUP1 SWAP2 SUB SWAP1 LOG1 POP POP POP POP JUMP JUMPDEST PUSH1 0x0 DUP5 PUSH1 0x0 PUSH1 0x2 PUSH1 0x0 DUP4 PUSH20 0xFFFFFFFFFFFFFFFFFFFFFFFFFFFFFFFFFFFFFFFF AND PUSH20 0xFFFFFFFFFFFFFFFFFFFFFFFFFFFFFFFFFFFFFFFF AND DUP2 MSTORE PUSH1 0x20 ADD SWAP1 DUP2 MSTORE PUSH1 0x20 ADD PUSH1 0x0 KECCAK256 SLOAD EQ DUP1 PUSH3 0x21E6 JUMPI POP PUSH1 0x0 DUP1 SLOAD SWAP1 PUSH2 0x100 EXP SWAP1 DIV PUSH20 0xFFFFFFFFFFFFFFFFFFFFFFFFFFFFFFFFFFFFFFFF AND PUSH20 0xFFFFFFFFFFFFFFFFFFFFFFFFFFFFFFFFFFFFFFFF AND DUP2 PUSH20 0xFFFFFFFFFFFFFFFFFFFFFFFFFFFFFFFFFFFFFFFF AND EQ JUMPDEST ISZERO PUSH3 0x2229 JUMPI PUSH1 0x40 MLOAD PUSH32 0x8C379A000000000000000000000000000000000000000000000000000000000 DUP2 MSTORE PUSH1 0x4 ADD PUSH3 0x2220 SWAP1 PUSH3 0x8D04 JUMP JUMPDEST PUSH1 0x40 MLOAD DUP1 SWAP2 SUB SWAP1 REVERT JUMPDEST DUP4 DUP1 TIMESTAMP GT ISZERO PUSH3 0x2270 JUMPI PUSH1 0x40 MLOAD PUSH32 0x8C379A000000000000000000000000000000000000000000000000000000000 DUP2 MSTORE PUSH1 0x4 ADD PUSH3 0x2267 SWAP1 PUSH3 0x8D76 JUMP JUMPDEST PUSH1 0x40 MLOAD DUP1 SWAP2 SUB SWAP1 REVERT JUMPDEST PUSH3 0x227D DUP8 DUP8 DUP7 PUSH3 0x5229 JUMP JUMPDEST SWAP3 POP POP POP SWAP5 SWAP4 POP POP POP POP JUMP JUMPDEST PUSH3 0x2299 DUP5 DUP5 DUP5 PUSH1 0x0 DUP6 PUSH3 0x55F0 JUMP JUMPDEST POP POP POP POP JUMP JUMPDEST PUSH3 0x22A9 PUSH3 0x7403 JUMP JUMPDEST PUSH1 0x6 PUSH1 0x40 MLOAD DUP1 PUSH1 0xC0 ADD PUSH1 0x40 MSTORE SWAP1 DUP2 PUSH1 0x0 DUP3 ADD PUSH1 0x0 SWAP1 SLOAD SWAP1 PUSH2 0x100 EXP SWAP1 DIV PUSH20 0xFFFFFFFFFFFFFFFFFFFFFFFFFFFFFFFFFFFFFFFF AND PUSH20 0xFFFFFFFFFFFFFFFFFFFFFFFFFFFFFFFFFFFFFFFF AND PUSH20 0xFFFFFFFFFFFFFFFFFFFFFFFFFFFFFFFFFFFFFFFF AND DUP2 MSTORE PUSH1 0x20 ADD PUSH1 0x1 DUP3 ADD SLOAD DUP2 MSTORE PUSH1 0x20 ADD PUSH1 0x2 DUP3 ADD SLOAD DUP2 MSTORE PUSH1 0x20 ADD PUSH1 0x3 DUP3 ADD SLOAD DUP2 MSTORE PUSH1 0x20 ADD PUSH1 0x4 DUP3 ADD SLOAD DUP2 MSTORE PUSH1 0x20 ADD PUSH1 0x5 DUP3 ADD SLOAD DUP2 MSTORE POP POP SWAP1 POP SWAP1 JUMP JUMPDEST PUSH1 0x0 PUSH1 0x13 PUSH1 0x0 SWAP1 SLOAD SWAP1 PUSH2 0x100 EXP SWAP1 DIV PUSH20 0xFFFFFFFFFFFFFFFFFFFFFFFFFFFFFFFFFFFFFFFF AND SWAP1 POP SWAP1 JUMP JUMPDEST PUSH1 0x60 PUSH1 0x11 DUP1 SLOAD PUSH3 0x237E SWAP1 PUSH3 0x8728 JUMP JUMPDEST DUP1 PUSH1 0x1F ADD PUSH1 0x20 DUP1 SWAP2 DIV MUL PUSH1 0x20 ADD PUSH1 0x40 MLOAD SWAP1 DUP2 ADD PUSH1 0x40 MSTORE DUP1 SWAP3 SWAP2 SWAP1 DUP2 DUP2 MSTORE PUSH1 0x20 ADD DUP3 DUP1 SLOAD PUSH3 0x23AC SWAP1 PUSH3 0x8728 JUMP JUMPDEST DUP1 ISZERO PUSH3 0x23FD JUMPI DUP1 PUSH1 0x1F LT PUSH3 0x23D1 JUMPI PUSH2 0x100 DUP1 DUP4 SLOAD DIV MUL DUP4 MSTORE SWAP2 PUSH1 0x20 ADD SWAP2 PUSH3 0x23FD JUMP JUMPDEST DUP3 ADD SWAP2 SWAP1 PUSH1 0x0 MSTORE PUSH1 0x20 PUSH1 0x0 KECCAK256 SWAP1 JUMPDEST DUP2 SLOAD DUP2 MSTORE SWAP1 PUSH1 0x1 ADD SWAP1 PUSH1 0x20 ADD DUP1 DUP4 GT PUSH3 0x23DF JUMPI DUP3 SWAP1 SUB PUSH1 0x1F AND DUP3 ADD SWAP2 JUMPDEST POP POP POP POP POP SWAP1 POP SWAP1 JUMP JUMPDEST PUSH1 0x0 PUSH3 0x2415 PUSH1 0x3 PUSH3 0xBAD JUMP JUMPDEST SWAP1 POP DUP1 PUSH20 0xFFFFFFFFFFFFFFFFFFFFFFFFFFFFFFFFFFFFFFFF AND PUSH4 0xEEF84BA1 PUSH1 0x40 MLOAD DUP2 PUSH4 0xFFFFFFFF AND PUSH1 0xE0 SHL DUP2 MSTORE PUSH1 0x4 ADD PUSH1 0x0 PUSH1 0x40 MLOAD DUP1 DUP4 SUB DUP2 PUSH1 0x0 DUP8 DUP1 EXTCODESIZE ISZERO DUP1 ISZERO PUSH3 0x2460 JUMPI PUSH1 0x0 DUP1 REVERT JUMPDEST POP GAS CALL ISZERO DUP1 ISZERO PUSH3 0x2475 JUMPI RETURNDATASIZE PUSH1 0x0 DUP1 RETURNDATACOPY RETURNDATASIZE PUSH1 0x0 REVERT JUMPDEST POP POP POP POP PUSH3 0x2486 CALLER DUP5 DUP5 PUSH3 0x5B62 JUMP JUMPDEST POP POP POP JUMP JUMPDEST PUSH1 0x60 DUP3 DUP1 TIMESTAMP GT ISZERO PUSH3 0x24D4 JUMPI PUSH1 0x40 MLOAD PUSH32 0x8C379A000000000000000000000000000000000000000000000000000000000 DUP2 MSTORE PUSH1 0x4 ADD PUSH3 0x24CB SWAP1 PUSH3 0x8D76 JUMP JUMPDEST PUSH1 0x40 MLOAD DUP1 SWAP2 SUB SWAP1 REVERT JUMPDEST PUSH1 0x1 DUP7 GT PUSH3 0x251A JUMPI PUSH1 0x40 MLOAD PUSH32 0x8C379A000000000000000000000000000000000000000000000000000000000 DUP2 MSTORE PUSH1 0x4 ADD PUSH3 0x2511 SWAP1 PUSH3 0x8E23 JUMP JUMPDEST PUSH1 0x40 MLOAD DUP1 SWAP2 SUB SWAP1 REVERT JUMPDEST PUSH1 0x0 PUSH1 0x1 PUSH1 0x2 PUSH1 0x0 DUP12 PUSH20 0xFFFFFFFFFFFFFFFFFFFFFFFFFFFFFFFFFFFFFFFF AND PUSH20 0xFFFFFFFFFFFFFFFFFFFFFFFFFFFFFFFFFFFFFFFF AND DUP2 MSTORE PUSH1 0x20 ADD SWAP1 DUP2 MSTORE PUSH1 0x20 ADD PUSH1 0x0 KECCAK256 SLOAD DUP2 SLOAD DUP2 LT PUSH3 0x2572 JUMPI PUSH3 0x2571 PUSH3 0x8C85 JUMP JUMPDEST JUMPDEST SWAP1 PUSH1 0x0 MSTORE PUSH1 0x20 PUSH1 0x0 KECCAK256 SWAP1 PUSH1 0x3 MUL ADD PUSH1 0x0 ADD PUSH1 0x0 SWAP1 SLOAD SWAP1 PUSH2 0x100 EXP SWAP1 DIV PUSH20 0xFFFFFFFFFFFFFFFFFFFFFFFFFFFFFFFFFFFFFFFF AND SWAP1 POP PUSH1 0x0 PUSH1 0x1 PUSH1 0x2 PUSH1 0x0 DUP12 PUSH20 0xFFFFFFFFFFFFFFFFFFFFFFFFFFFFFFFFFFFFFFFF AND PUSH20 0xFFFFFFFFFFFFFFFFFFFFFFFFFFFFFFFFFFFFFFFF AND DUP2 MSTORE PUSH1 0x20 ADD SWAP1 DUP2 MSTORE PUSH1 0x20 ADD PUSH1 0x0 KECCAK256 SLOAD DUP2 SLOAD DUP2 LT PUSH3 0x25FE JUMPI PUSH3 0x25FD PUSH3 0x8C85 JUMP JUMPDEST JUMPDEST SWAP1 PUSH1 0x0 MSTORE PUSH1 0x20 PUSH1 0x0 KECCAK256 SWAP1 PUSH1 0x3 MUL ADD PUSH1 0x0 ADD PUSH1 0x0 SWAP1 SLOAD SWAP1 PUSH2 0x100 EXP SWAP1 DIV PUSH20 0xFFFFFFFFFFFFFFFFFFFFFFFFFFFFFFFFFFFFFFFF AND SWAP1 POP PUSH1 0x0 PUSH1 0x2 PUSH8 0xFFFFFFFFFFFFFFFF DUP2 GT ISZERO PUSH3 0x2652 JUMPI PUSH3 0x2651 PUSH3 0x7E2A JUMP JUMPDEST JUMPDEST PUSH1 0x40 MLOAD SWAP1 DUP1 DUP3 MSTORE DUP1 PUSH1 0x20 MUL PUSH1 0x20 ADD DUP3 ADD PUSH1 0x40 MSTORE DUP1 ISZERO PUSH3 0x2681 JUMPI DUP2 PUSH1 0x20 ADD PUSH1 0x20 DUP3 MUL DUP1 CALLDATASIZE DUP4 CALLDATACOPY DUP1 DUP3 ADD SWAP2 POP POP SWAP1 POP JUMPDEST POP SWAP1 POP DUP9 DUP2 PUSH1 0x0 DUP2 MLOAD DUP2 LT PUSH3 0x269C JUMPI PUSH3 0x269B PUSH3 0x8C85 JUMP JUMPDEST JUMPDEST PUSH1 0x20 MUL PUSH1 0x20 ADD ADD DUP2 DUP2 MSTORE POP POP PUSH1 0x0 DUP1 SLOAD SWAP1 PUSH2 0x100 EXP SWAP1 DIV PUSH20 0xFFFFFFFFFFFFFFFFFFFFFFFFFFFFFFFFFFFFFFFF AND PUSH20 0xFFFFFFFFFFFFFFFFFFFFFFFFFFFFFFFFFFFFFFFF AND DUP12 PUSH20 0xFFFFFFFFFFFFFFFFFFFFFFFFFFFFFFFFFFFFFFFF AND EQ ISZERO DUP1 ISZERO PUSH3 0x2750 JUMPI POP PUSH1 0x0 DUP1 SLOAD SWAP1 PUSH2 0x100 EXP SWAP1 DIV PUSH20 0xFFFFFFFFFFFFFFFFFFFFFFFFFFFFFFFFFFFFFFFF AND PUSH20 0xFFFFFFFFFFFFFFFFFFFFFFFFFFFFFFFFFFFFFFFF AND DUP11 PUSH20 0xFFFFFFFFFFFFFFFFFFFFFFFFFFFFFFFFFFFFFFFF AND EQ JUMPDEST ISZERO PUSH3 0x2843 JUMPI PUSH1 0x0 PUSH3 0x2764 DUP13 DUP6 PUSH3 0x47B2 JUMP JUMPDEST SWAP1 POP PUSH3 0x2773 DUP2 DUP14 DUP13 PUSH3 0x4D06 JUMP JUMPDEST DUP3 PUSH1 0x1 DUP2 MLOAD DUP2 LT PUSH3 0x278A JUMPI PUSH3 0x2789 PUSH3 0x8C85 JUMP JUMPDEST JUMPDEST PUSH1 0x20 MUL PUSH1 0x20 ADD ADD DUP2 DUP2 MSTORE POP POP DUP9 DUP3 PUSH1 0x1 DUP2 MLOAD DUP2 LT PUSH3 0x27AE JUMPI PUSH3 0x27AD PUSH3 0x8C85 JUMP JUMPDEST JUMPDEST PUSH1 0x20 MUL PUSH1 0x20 ADD ADD MLOAD LT ISZERO PUSH3 0x27FA JUMPI PUSH1 0x40 MLOAD PUSH32 0x8C379A000000000000000000000000000000000000000000000000000000000 DUP2 MSTORE PUSH1 0x4 ADD PUSH3 0x27F1 SWAP1 PUSH3 0x9049 JUMP JUMPDEST PUSH1 0x40 MLOAD DUP1 SWAP2 SUB SWAP1 REVERT JUMPDEST PUSH3 0x2808 DUP13 CALLER DUP7 DUP14 PUSH3 0x480F JUMP JUMPDEST PUSH3 0x2836 DUP13 DUP3 PUSH1 0x0 DUP6 PUSH1 0x1 DUP2 MLOAD DUP2 LT PUSH3 0x2827 JUMPI PUSH3 0x2826 PUSH3 0x8C85 JUMP JUMPDEST JUMPDEST PUSH1 0x20 MUL PUSH1 0x20 ADD ADD MLOAD DUP12 PUSH3 0x5CC9 JUMP JUMPDEST DUP2 SWAP6 POP POP POP POP POP PUSH3 0x2C51 JUMP JUMPDEST PUSH1 0x0 DUP1 SLOAD SWAP1 PUSH2 0x100 EXP SWAP1 DIV PUSH20 0xFFFFFFFFFFFFFFFFFFFFFFFFFFFFFFFFFFFFFFFF AND PUSH20 0xFFFFFFFFFFFFFFFFFFFFFFFFFFFFFFFFFFFFFFFF AND DUP12 PUSH20 0xFFFFFFFFFFFFFFFFFFFFFFFFFFFFFFFFFFFFFFFF AND EQ DUP1 ISZERO PUSH3 0x28EB JUMPI POP PUSH1 0x0 DUP1 SLOAD SWAP1 PUSH2 0x100 EXP SWAP1 DIV PUSH20 0xFFFFFFFFFFFFFFFFFFFFFFFFFFFFFFFFFFFFFFFF AND PUSH20 0xFFFFFFFFFFFFFFFFFFFFFFFFFFFFFFFFFFFFFFFF AND DUP11 PUSH20 0xFFFFFFFFFFFFFFFFFFFFFFFFFFFFFFFFFFFFFFFF AND EQ ISZERO JUMPDEST ISZERO PUSH3 0x29DE JUMPI PUSH1 0x0 PUSH3 0x28FF DUP12 DUP5 PUSH3 0x47B2 JUMP JUMPDEST SWAP1 POP PUSH3 0x290E DUP2 DUP13 DUP13 PUSH3 0x4E7A JUMP JUMPDEST DUP3 PUSH1 0x1 DUP2 MLOAD DUP2 LT PUSH3 0x2925 JUMPI PUSH3 0x2924 PUSH3 0x8C85 JUMP JUMPDEST JUMPDEST PUSH1 0x20 MUL PUSH1 0x20 ADD ADD DUP2 DUP2 MSTORE POP POP DUP9 DUP3 PUSH1 0x1 DUP2 MLOAD DUP2 LT PUSH3 0x2949 JUMPI PUSH3 0x2948 PUSH3 0x8C85 JUMP JUMPDEST JUMPDEST PUSH1 0x20 MUL PUSH1 0x20 ADD ADD MLOAD LT ISZERO PUSH3 0x2995 JUMPI PUSH1 0x40 MLOAD PUSH32 0x8C379A000000000000000000000000000000000000000000000000000000000 DUP2 MSTORE PUSH1 0x4 ADD PUSH3 0x298C SWAP1 PUSH3 0x90BB JUMP JUMPDEST PUSH1 0x40 MLOAD DUP1 SWAP2 SUB SWAP1 REVERT JUMPDEST PUSH3 0x29A3 DUP13 CALLER DUP6 DUP14 PUSH3 0x480F JUMP JUMPDEST PUSH3 0x29D1 DUP12 DUP3 DUP5 PUSH1 0x1 DUP2 MLOAD DUP2 LT PUSH3 0x29C0 JUMPI PUSH3 0x29BF PUSH3 0x8C85 JUMP JUMPDEST JUMPDEST PUSH1 0x20 MUL PUSH1 0x20 ADD ADD MLOAD PUSH1 0x0 DUP12 PUSH3 0x5CC9 JUMP JUMPDEST DUP2 SWAP6 POP POP POP POP POP PUSH3 0x2C51 JUMP JUMPDEST PUSH1 0x0 DUP1 SLOAD SWAP1 PUSH2 0x100 EXP SWAP1 DIV PUSH20 0xFFFFFFFFFFFFFFFFFFFFFFFFFFFFFFFFFFFFFFFF AND PUSH20 0xFFFFFFFFFFFFFFFFFFFFFFFFFFFFFFFFFFFFFFFF AND DUP12 PUSH20 0xFFFFFFFFFFFFFFFFFFFFFFFFFFFFFFFFFFFFFFFF AND EQ ISZERO DUP1 ISZERO PUSH3 0x2A87 JUMPI POP PUSH1 0x0 DUP1 SLOAD SWAP1 PUSH2 0x100 EXP SWAP1 DIV PUSH20 0xFFFFFFFFFFFFFFFFFFFFFFFFFFFFFFFFFFFFFFFF AND PUSH20 0xFFFFFFFFFFFFFFFFFFFFFFFFFFFFFFFFFFFFFFFF AND DUP11 PUSH20 0xFFFFFFFFFFFFFFFFFFFFFFFFFFFFFFFFFFFFFFFF AND EQ ISZERO JUMPDEST DUP1 ISZERO PUSH3 0x2AC0 JUMPI POP DUP10 PUSH20 0xFFFFFFFFFFFFFFFFFFFFFFFFFFFFFFFFFFFFFFFF AND DUP12 PUSH20 0xFFFFFFFFFFFFFFFFFFFFFFFFFFFFFFFFFFFFFFFF AND EQ ISZERO JUMPDEST ISZERO PUSH3 0x2C14 JUMPI PUSH1 0x0 PUSH3 0x2AD4 DUP13 DUP6 PUSH3 0x47B2 JUMP JUMPDEST SWAP1 POP PUSH1 0x0 PUSH3 0x2AE5 DUP3 DUP15 DUP14 PUSH3 0x4D06 JUMP JUMPDEST SWAP1 POP PUSH1 0x0 PUSH3 0x2AF5 DUP14 DUP7 PUSH3 0x47B2 JUMP JUMPDEST SWAP1 POP PUSH3 0x2B04 DUP2 DUP15 DUP5 PUSH3 0x4E7A JUMP JUMPDEST DUP5 PUSH1 0x1 DUP2 MLOAD DUP2 LT PUSH3 0x2B1B JUMPI PUSH3 0x2B1A PUSH3 0x8C85 JUMP JUMPDEST JUMPDEST PUSH1 0x20 MUL PUSH1 0x20 ADD ADD DUP2 DUP2 MSTORE POP POP DUP11 DUP5 PUSH1 0x1 DUP2 MLOAD DUP2 LT PUSH3 0x2B3F JUMPI PUSH3 0x2B3E PUSH3 0x8C85 JUMP JUMPDEST JUMPDEST PUSH1 0x20 MUL PUSH1 0x20 ADD ADD MLOAD LT ISZERO PUSH3 0x2B8B JUMPI PUSH1 0x40 MLOAD PUSH32 0x8C379A000000000000000000000000000000000000000000000000000000000 DUP2 MSTORE PUSH1 0x4 ADD PUSH3 0x2B82 SWAP1 PUSH3 0x90BB JUMP JUMPDEST PUSH1 0x40 MLOAD DUP1 SWAP2 SUB SWAP1 REVERT JUMPDEST PUSH3 0x2B99 DUP15 CALLER DUP9 DUP16 PUSH3 0x480F JUMP JUMPDEST PUSH3 0x2BA9 DUP15 DUP5 PUSH1 0x0 DUP6 ADDRESS PUSH3 0x5CC9 JUMP JUMPDEST PUSH3 0x2BD7 PUSH1 0x0 DUP1 SLOAD SWAP1 PUSH2 0x100 EXP SWAP1 DIV PUSH20 0xFFFFFFFFFFFFFFFFFFFFFFFFFFFFFFFFFFFFFFFF AND DUP8 DUP8 DUP6 PUSH3 0x480F JUMP JUMPDEST PUSH3 0x2C05 DUP14 DUP3 DUP7 PUSH1 0x1 DUP2 MLOAD DUP2 LT PUSH3 0x2BF4 JUMPI PUSH3 0x2BF3 PUSH3 0x8C85 JUMP JUMPDEST JUMPDEST PUSH1 0x20 MUL PUSH1 0x20 ADD ADD MLOAD PUSH1 0x0 DUP14 PUSH3 0x5CC9 JUMP JUMPDEST DUP4 SWAP8 POP POP POP POP POP POP POP PUSH3 0x2C51 JUMP JUMPDEST PUSH1 0x40 MLOAD PUSH32 0x8C379A000000000000000000000000000000000000000000000000000000000 DUP2 MSTORE PUSH1 0x4 ADD PUSH3 0x2C48 SWAP1 PUSH3 0x912D JUMP JUMPDEST PUSH1 0x40 MLOAD DUP1 SWAP2 SUB SWAP1 REVERT JUMPDEST POP SWAP7 SWAP6 POP POP POP POP POP POP JUMP JUMPDEST PUSH1 0x60 PUSH1 0x0 DUP4 DUP4 SWAP1 POP PUSH8 0xFFFFFFFFFFFFFFFF DUP2 GT ISZERO PUSH3 0x2C80 JUMPI PUSH3 0x2C7F PUSH3 0x7E2A JUMP JUMPDEST JUMPDEST PUSH1 0x40 MLOAD SWAP1 DUP1 DUP3 MSTORE DUP1 PUSH1 0x20 MUL PUSH1 0x20 ADD DUP3 ADD PUSH1 0x40 MSTORE DUP1 ISZERO PUSH3 0x2CBD JUMPI DUP2 PUSH1 0x20 ADD JUMPDEST PUSH3 0x2CA9 PUSH3 0x7308 JUMP JUMPDEST DUP2 MSTORE PUSH1 0x20 ADD SWAP1 PUSH1 0x1 SWAP1 SUB SWAP1 DUP2 PUSH3 0x2C9F JUMPI SWAP1 POP JUMPDEST POP SWAP1 POP PUSH1 0x0 JUMPDEST DUP5 DUP5 SWAP1 POP DUP2 LT ISZERO PUSH3 0x2EAF JUMPI PUSH1 0x1 DUP6 DUP6 DUP4 DUP2 DUP2 LT PUSH3 0x2CE7 JUMPI PUSH3 0x2CE6 PUSH3 0x8C85 JUMP JUMPDEST JUMPDEST SWAP1 POP PUSH1 0x20 MUL ADD CALLDATALOAD DUP2 SLOAD DUP2 LT PUSH3 0x2D02 JUMPI PUSH3 0x2D01 PUSH3 0x8C85 JUMP JUMPDEST JUMPDEST SWAP1 PUSH1 0x0 MSTORE PUSH1 0x20 PUSH1 0x0 KECCAK256 SWAP1 PUSH1 0x3 MUL ADD PUSH1 0x40 MLOAD DUP1 PUSH1 0x80 ADD PUSH1 0x40 MSTORE SWAP1 DUP2 PUSH1 0x0 DUP3 ADD PUSH1 0x0 SWAP1 SLOAD SWAP1 PUSH2 0x100 EXP SWAP1 DIV PUSH20 0xFFFFFFFFFFFFFFFFFFFFFFFFFFFFFFFFFFFFFFFF AND PUSH20 0xFFFFFFFFFFFFFFFFFFFFFFFFFFFFFFFFFFFFFFFF AND PUSH20 0xFFFFFFFFFFFFFFFFFFFFFFFFFFFFFFFFFFFFFFFF AND DUP2 MSTORE PUSH1 0x20 ADD PUSH1 0x1 DUP3 ADD PUSH1 0x8 DUP1 PUSH1 0x20 MUL PUSH1 0x40 MLOAD SWAP1 DUP2 ADD PUSH1 0x40 MSTORE DUP1 SWAP3 SWAP2 SWAP1 DUP3 PUSH1 0x8 DUP1 ISZERO PUSH3 0x2DDB JUMPI PUSH1 0x20 MUL DUP3 ADD SWAP2 PUSH1 0x0 SWAP1 JUMPDEST DUP3 DUP3 SWAP1 SLOAD SWAP1 PUSH2 0x100 EXP SWAP1 DIV PUSH4 0xFFFFFFFF AND PUSH4 0xFFFFFFFF AND DUP2 MSTORE PUSH1 0x20 ADD SWAP1 PUSH1 0x4 ADD SWAP1 PUSH1 0x20 DUP3 PUSH1 0x3 ADD DIV SWAP3 DUP4 ADD SWAP3 PUSH1 0x1 SUB DUP3 MUL SWAP2 POP DUP1 DUP5 GT PUSH3 0x2D9D JUMPI SWAP1 POP JUMPDEST POP POP POP POP POP DUP2 MSTORE PUSH1 0x20 ADD PUSH1 0x2 DUP3 ADD PUSH1 0x0 SWAP1 SLOAD SWAP1 PUSH2 0x100 EXP SWAP1 DIV PUSH16 0xFFFFFFFFFFFFFFFFFFFFFFFFFFFFFFFF AND PUSH16 0xFFFFFFFFFFFFFFFFFFFFFFFFFFFFFFFF AND PUSH16 0xFFFFFFFFFFFFFFFFFFFFFFFFFFFFFFFF AND DUP2 MSTORE PUSH1 0x20 ADD PUSH1 0x2 DUP3 ADD PUSH1 0x10 SWAP1 SLOAD SWAP1 PUSH2 0x100 EXP SWAP1 DIV PUSH16 0xFFFFFFFFFFFFFFFFFFFFFFFFFFFFFFFF AND PUSH16 0xFFFFFFFFFFFFFFFFFFFFFFFFFFFFFFFF AND PUSH16 0xFFFFFFFFFFFFFFFFFFFFFFFFFFFFFFFF AND DUP2 MSTORE POP POP DUP3 DUP3 DUP2 MLOAD DUP2 LT PUSH3 0x2E8E JUMPI PUSH3 0x2E8D PUSH3 0x8C85 JUMP JUMPDEST JUMPDEST PUSH1 0x20 MUL PUSH1 0x20 ADD ADD DUP2 SWAP1 MSTORE POP DUP1 DUP1 PUSH3 0x2EA6 SWAP1 PUSH3 0x8BDA JUMP JUMPDEST SWAP2 POP POP PUSH3 0x2CC3 JUMP JUMPDEST POP DUP1 SWAP2 POP POP SWAP3 SWAP2 POP POP JUMP JUMPDEST CALLER PUSH20 0xFFFFFFFFFFFFFFFFFFFFFFFFFFFFFFFFFFFFFFFF AND PUSH3 0x2EDB PUSH3 0x2343 JUMP JUMPDEST PUSH20 0xFFFFFFFFFFFFFFFFFFFFFFFFFFFFFFFFFFFFFFFF AND EQ PUSH3 0x2F29 JUMPI PUSH1 0x40 MLOAD PUSH32 0xEBF9845900000000000000000000000000000000000000000000000000000000 DUP2 MSTORE PUSH1 0x4 ADD PUSH1 0x40 MLOAD DUP1 SWAP2 SUB SWAP1 REVERT JUMPDEST PUSH3 0x2F57 DUP3 DUP3 PUSH1 0x40 MLOAD PUSH1 0x20 ADD PUSH3 0x2F42 SWAP3 SWAP2 SWAP1 PUSH3 0x91C8 JUMP JUMPDEST PUSH1 0x40 MLOAD PUSH1 0x20 DUP2 DUP4 SUB SUB DUP2 MSTORE SWAP1 PUSH1 0x40 MSTORE PUSH3 0x64D6 JUMP JUMPDEST DUP2 DUP2 PUSH1 0x12 SWAP2 SWAP1 PUSH3 0x2F6A SWAP3 SWAP2 SWAP1 PUSH3 0x744F JUMP JUMPDEST POP POP POP JUMP JUMPDEST PUSH3 0x2FD4 PUSH1 0x3 PUSH1 0x0 SWAP1 SLOAD SWAP1 PUSH2 0x100 EXP SWAP1 DIV PUSH20 0xFFFFFFFFFFFFFFFFFFFFFFFFFFFFFFFFFFFFFFFF AND PUSH10 0xD3C21BCECCEDA1000000 PUSH10 0x69E10DE76676D0800000 PUSH32 0xFFFFFFFFFFFFFFFFFFFFFFFFFFFFFFFFFFFFFFFFFFFFFFFFFFFFFFFFFFFFFFFF CALLER PUSH3 0x55F0 JUMP JUMPDEST PUSH3 0x302F PUSH1 0x4 PUSH1 0x0 SWAP1 SLOAD SWAP1 PUSH2 0x100 EXP SWAP1 DIV PUSH20 0xFFFFFFFFFFFFFFFFFFFFFFFFFFFFFFFFFFFFFFFF AND PUSH10 0x943B1377290CBD800000 DUP1 PUSH32 0xFFFFFFFFFFFFFFFFFFFFFFFFFFFFFFFFFFFFFFFFFFFFFFFFFFFFFFFFFFFFFFFF CALLER PUSH3 0x55F0 JUMP JUMPDEST JUMP JUMPDEST PUSH1 0x0 PUSH1 0xF PUSH1 0x0 DUP4 DUP2 MSTORE PUSH1 0x20 ADD SWAP1 DUP2 MSTORE PUSH1 0x20 ADD PUSH1 0x0 KECCAK256 SLOAD SWAP1 POP SWAP2 SWAP1 POP JUMP JUMPDEST CALLER PUSH20 0xFFFFFFFFFFFFFFFFFFFFFFFFFFFFFFFFFFFFFFFF AND PUSH3 0x306F PUSH3 0x2343 JUMP JUMPDEST PUSH20 0xFFFFFFFFFFFFFFFFFFFFFFFFFFFFFFFFFFFFFFFF AND EQ PUSH3 0x30BD JUMPI PUSH1 0x40 MLOAD PUSH32 0xEBF9845900000000000000000000000000000000000000000000000000000000 DUP2 MSTORE PUSH1 0x4 ADD PUSH1 0x40 MLOAD DUP1 SWAP2 SUB SWAP1 REVERT JUMPDEST PUSH3 0x311F PUSH1 0x5 PUSH1 0x0 SWAP1 SLOAD SWAP1 PUSH2 0x100 EXP SWAP1 DIV PUSH20 0xFFFFFFFFFFFFFFFFFFFFFFFFFFFFFFFFFFFFFFFF AND PUSH7 0x38D7EA4C68000 PUSH10 0xD3C21BCECCEDA1000000 PUSH32 0xFFFFFFFFFFFFFFFFFFFFFFFFFFFFFFFFFFFFFFFFFFFFFFFFFFFFFFFFFFFFFFFF CALLER PUSH3 0x55F0 JUMP JUMPDEST JUMP JUMPDEST PUSH1 0x0 DUP1 PUSH1 0x0 PUSH1 0x1 PUSH1 0x2 PUSH1 0x0 DUP9 PUSH20 0xFFFFFFFFFFFFFFFFFFFFFFFFFFFFFFFFFFFFFFFF AND PUSH20 0xFFFFFFFFFFFFFFFFFFFFFFFFFFFFFFFFFFFFFFFF AND DUP2 MSTORE PUSH1 0x20 ADD SWAP1 DUP2 MSTORE PUSH1 0x20 ADD PUSH1 0x0 KECCAK256 SLOAD DUP2 SLOAD DUP2 LT PUSH3 0x317C JUMPI PUSH3 0x317B PUSH3 0x8C85 JUMP JUMPDEST JUMPDEST SWAP1 PUSH1 0x0 MSTORE PUSH1 0x20 PUSH1 0x0 KECCAK256 SWAP1 PUSH1 0x3 MUL ADD PUSH1 0x0 ADD PUSH1 0x0 SWAP1 SLOAD SWAP1 PUSH2 0x100 EXP SWAP1 DIV PUSH20 0xFFFFFFFFFFFFFFFFFFFFFFFFFFFFFFFFFFFFFFFF AND SWAP1 POP PUSH1 0x0 PUSH1 0x1 PUSH1 0x2 PUSH1 0x0 DUP9 PUSH20 0xFFFFFFFFFFFFFFFFFFFFFFFFFFFFFFFFFFFFFFFF AND PUSH20 0xFFFFFFFFFFFFFFFFFFFFFFFFFFFFFFFFFFFFFFFF AND DUP2 MSTORE PUSH1 0x20 ADD SWAP1 DUP2 MSTORE PUSH1 0x20 ADD PUSH1 0x0 KECCAK256 SLOAD DUP2 SLOAD DUP2 LT PUSH3 0x3208 JUMPI PUSH3 0x3207 PUSH3 0x8C85 JUMP JUMPDEST JUMPDEST SWAP1 PUSH1 0x0 MSTORE PUSH1 0x20 PUSH1 0x0 KECCAK256 SWAP1 PUSH1 0x3 MUL ADD PUSH1 0x0 ADD PUSH1 0x0 SWAP1 SLOAD SWAP1 PUSH2 0x100 EXP SWAP1 DIV PUSH20 0xFFFFFFFFFFFFFFFFFFFFFFFFFFFFFFFFFFFFFFFF AND SWAP1 POP PUSH1 0x0 DUP1 SLOAD SWAP1 PUSH2 0x100 EXP SWAP1 DIV PUSH20 0xFFFFFFFFFFFFFFFFFFFFFFFFFFFFFFFFFFFFFFFF AND PUSH20 0xFFFFFFFFFFFFFFFFFFFFFFFFFFFFFFFFFFFFFFFF AND DUP8 PUSH20 0xFFFFFFFFFFFFFFFFFFFFFFFFFFFFFFFFFFFFFFFF AND EQ ISZERO DUP1 ISZERO PUSH3 0x32E4 JUMPI POP PUSH1 0x0 DUP1 SLOAD SWAP1 PUSH2 0x100 EXP SWAP1 DIV PUSH20 0xFFFFFFFFFFFFFFFFFFFFFFFFFFFFFFFFFFFFFFFF AND PUSH20 0xFFFFFFFFFFFFFFFFFFFFFFFFFFFFFFFFFFFFFFFF AND DUP7 PUSH20 0xFFFFFFFFFFFFFFFFFFFFFFFFFFFFFFFFFFFFFFFF AND EQ JUMPDEST ISZERO PUSH3 0x3310 JUMPI PUSH3 0x3302 PUSH3 0x32FA DUP9 DUP5 PUSH3 0x47B2 JUMP JUMPDEST DUP9 DUP8 PUSH3 0x64F2 JUMP JUMPDEST SWAP3 POP DUP3 SWAP4 POP POP POP POP PUSH3 0x3422 JUMP JUMPDEST PUSH1 0x0 DUP1 SLOAD SWAP1 PUSH2 0x100 EXP SWAP1 DIV PUSH20 0xFFFFFFFFFFFFFFFFFFFFFFFFFFFFFFFFFFFFFFFF AND PUSH20 0xFFFFFFFFFFFFFFFFFFFFFFFFFFFFFFFFFFFFFFFF AND DUP8 PUSH20 0xFFFFFFFFFFFFFFFFFFFFFFFFFFFFFFFFFFFFFFFF AND EQ DUP1 ISZERO PUSH3 0x33B8 JUMPI POP PUSH1 0x0 DUP1 SLOAD SWAP1 PUSH2 0x100 EXP SWAP1 DIV PUSH20 0xFFFFFFFFFFFFFFFFFFFFFFFFFFFFFFFFFFFFFFFF AND PUSH20 0xFFFFFFFFFFFFFFFFFFFFFFFFFFFFFFFFFFFFFFFF AND DUP7 PUSH20 0xFFFFFFFFFFFFFFFFFFFFFFFFFFFFFFFFFFFFFFFF AND EQ ISZERO JUMPDEST ISZERO PUSH3 0x33E4 JUMPI PUSH3 0x33D6 PUSH3 0x33CE DUP8 DUP4 PUSH3 0x47B2 JUMP JUMPDEST DUP8 DUP8 PUSH3 0x6666 JUMP JUMPDEST SWAP3 POP DUP3 SWAP4 POP POP POP POP PUSH3 0x3422 JUMP JUMPDEST PUSH1 0x0 PUSH3 0x33FE PUSH3 0x33F6 DUP10 DUP6 PUSH3 0x47B2 JUMP JUMPDEST DUP9 DUP9 PUSH3 0x6666 JUMP JUMPDEST SWAP1 POP PUSH3 0x3418 PUSH3 0x3410 DUP9 DUP5 PUSH3 0x47B2 JUMP JUMPDEST DUP10 DUP4 PUSH3 0x64F2 JUMP JUMPDEST SWAP4 POP DUP4 SWAP5 POP POP POP POP POP JUMPDEST SWAP4 SWAP3 POP POP POP JUMP JUMPDEST CALLER PUSH20 0xFFFFFFFFFFFFFFFFFFFFFFFFFFFFFFFFFFFFFFFF AND PUSH3 0x344A PUSH3 0x2343 JUMP JUMPDEST PUSH20 0xFFFFFFFFFFFFFFFFFFFFFFFFFFFFFFFFFFFFFFFF AND EQ PUSH3 0x3498 JUMPI PUSH1 0x40 MLOAD PUSH32 0xEBF9845900000000000000000000000000000000000000000000000000000000 DUP2 MSTORE PUSH1 0x4 ADD PUSH1 0x40 MLOAD DUP1 SWAP2 SUB SWAP1 REVERT JUMPDEST DUP2 PUSH1 0x0 PUSH1 0x2 PUSH1 0x0 DUP4 PUSH20 0xFFFFFFFFFFFFFFFFFFFFFFFFFFFFFFFFFFFFFFFF AND PUSH20 0xFFFFFFFFFFFFFFFFFFFFFFFFFFFFFFFFFFFFFFFF AND DUP2 MSTORE PUSH1 0x20 ADD SWAP1 DUP2 MSTORE PUSH1 0x20 ADD PUSH1 0x0 KECCAK256 SLOAD EQ DUP1 PUSH3 0x3533 JUMPI POP PUSH1 0x0 DUP1 SLOAD SWAP1 PUSH2 0x100 EXP SWAP1 DIV PUSH20 0xFFFFFFFFFFFFFFFFFFFFFFFFFFFFFFFFFFFFFFFF AND PUSH20 0xFFFFFFFFFFFFFFFFFFFFFFFFFFFFFFFFFFFFFFFF AND DUP2 PUSH20 0xFFFFFFFFFFFFFFFFFFFFFFFFFFFFFFFFFFFFFFFF AND EQ JUMPDEST ISZERO PUSH3 0x3576 JUMPI PUSH1 0x40 MLOAD PUSH32 0x8C379A000000000000000000000000000000000000000000000000000000000 DUP2 MSTORE PUSH1 0x4 ADD PUSH3 0x356D SWAP1 PUSH3 0x8D04 JUMP JUMPDEST PUSH1 0x40 MLOAD DUP1 SWAP2 SUB SWAP1 REVERT JUMPDEST PUSH1 0x0 PUSH1 0x1 PUSH1 0x2 PUSH1 0x0 DUP7 PUSH20 0xFFFFFFFFFFFFFFFFFFFFFFFFFFFFFFFFFFFFFFFF AND PUSH20 0xFFFFFFFFFFFFFFFFFFFFFFFFFFFFFFFFFFFFFFFF AND DUP2 MSTORE PUSH1 0x20 ADD SWAP1 DUP2 MSTORE PUSH1 0x20 ADD PUSH1 0x0 KECCAK256 SLOAD DUP2 SLOAD DUP2 LT PUSH3 0x35CE JUMPI PUSH3 0x35CD PUSH3 0x8C85 JUMP JUMPDEST JUMPDEST SWAP1 PUSH1 0x0 MSTORE PUSH1 0x20 PUSH1 0x0 KECCAK256 SWAP1 PUSH1 0x3 MUL ADD SWAP1 POP PUSH1 0x0 PUSH3 0x3610 DUP6 DUP4 PUSH1 0x0 ADD PUSH1 0x0 SWAP1 SLOAD SWAP1 PUSH2 0x100 EXP SWAP1 DIV PUSH20 0xFFFFFFFFFFFFFFFFFFFFFFFFFFFFFFFFFFFFFFFF AND PUSH3 0x47B2 JUMP JUMPDEST SWAP1 POP DUP4 DUP3 PUSH1 0x2 ADD PUSH1 0x10 PUSH2 0x100 EXP DUP2 SLOAD DUP2 PUSH16 0xFFFFFFFFFFFFFFFFFFFFFFFFFFFFFFFF MUL NOT AND SWAP1 DUP4 PUSH16 0xFFFFFFFFFFFFFFFFFFFFFFFFFFFFFFFF AND MUL OR SWAP1 SSTORE POP PUSH32 0x51AB1232A73B82B6B0ACB0FA91B834CF6E258A1858C4E23C72CE97241C71AA0D DUP6 DUP3 PUSH1 0x0 ADD MLOAD DUP4 PUSH1 0x20 ADD MLOAD DUP8 PUSH1 0x40 MLOAD PUSH3 0x368C SWAP5 SWAP4 SWAP3 SWAP2 SWAP1 PUSH3 0x8ED9 JUMP JUMPDEST PUSH1 0x40 MLOAD DUP1 SWAP2 SUB SWAP1 LOG1 POP POP POP POP POP JUMP JUMPDEST CALLER PUSH20 0xFFFFFFFFFFFFFFFFFFFFFFFFFFFFFFFFFFFFFFFF AND PUSH3 0x36BC PUSH3 0x2343 JUMP JUMPDEST PUSH20 0xFFFFFFFFFFFFFFFFFFFFFFFFFFFFFFFFFFFFFFFF AND EQ PUSH3 0x370A JUMPI PUSH1 0x40 MLOAD PUSH32 0xEBF9845900000000000000000000000000000000000000000000000000000000 DUP2 MSTORE PUSH1 0x4 ADD PUSH1 0x40 MLOAD DUP1 SWAP2 SUB SWAP1 REVERT JUMPDEST PUSH3 0x3739 DUP5 DUP5 DUP5 PUSH32 0xFFFFFFFFFFFFFFFFFFFFFFFFFFFFFFFFFFFFFFFFFFFFFFFFFFFFFFFFFFFFFFFF DUP6 PUSH3 0x55F0 JUMP JUMPDEST POP POP POP POP JUMP JUMPDEST PUSH1 0x0 PUSH1 0xD PUSH1 0x0 DUP5 PUSH20 0xFFFFFFFFFFFFFFFFFFFFFFFFFFFFFFFFFFFFFFFF AND PUSH20 0xFFFFFFFFFFFFFFFFFFFFFFFFFFFFFFFFFFFFFFFF AND DUP2 MSTORE PUSH1 0x20 ADD SWAP1 DUP2 MSTORE PUSH1 0x20 ADD PUSH1 0x0 KECCAK256 PUSH1 0x0 DUP4 PUSH20 0xFFFFFFFFFFFFFFFFFFFFFFFFFFFFFFFFFFFFFFFF AND PUSH20 0xFFFFFFFFFFFFFFFFFFFFFFFFFFFFFFFFFFFFFFFF AND DUP2 MSTORE PUSH1 0x20 ADD SWAP1 DUP2 MSTORE PUSH1 0x20 ADD PUSH1 0x0 KECCAK256 PUSH1 0x0 SWAP1 SLOAD SWAP1 PUSH2 0x100 EXP SWAP1 DIV PUSH1 0xFF AND SWAP1 POP SWAP3 SWAP2 POP POP JUMP JUMPDEST DUP4 PUSH1 0x3 PUSH1 0x0 PUSH2 0x100 EXP DUP2 SLOAD DUP2 PUSH20 0xFFFFFFFFFFFFFFFFFFFFFFFFFFFFFFFFFFFFFFFF MUL NOT AND SWAP1 DUP4 PUSH20 0xFFFFFFFFFFFFFFFFFFFFFFFFFFFFFFFFFFFFFFFF AND MUL OR SWAP1 SSTORE POP DUP3 PUSH1 0x0 DUP1 PUSH2 0x100 EXP DUP2 SLOAD DUP2 PUSH20 0xFFFFFFFFFFFFFFFFFFFFFFFFFFFFFFFFFFFFFFFF MUL NOT AND SWAP1 DUP4 PUSH20 0xFFFFFFFFFFFFFFFFFFFFFFFFFFFFFFFFFFFFFFFF AND MUL OR SWAP1 SSTORE POP DUP2 PUSH1 0x4 PUSH1 0x0 PUSH2 0x100 EXP DUP2 SLOAD DUP2 PUSH20 0xFFFFFFFFFFFFFFFFFFFFFFFFFFFFFFFFFFFFFFFF MUL NOT AND SWAP1 DUP4 PUSH20 0xFFFFFFFFFFFFFFFFFFFFFFFFFFFFFFFFFFFFFFFF AND MUL OR SWAP1 SSTORE POP PUSH3 0x389F PUSH3 0x2F6F JUMP JUMPDEST POP POP POP POP POP JUMP JUMPDEST PUSH1 0x0 PUSH3 0x38B4 PUSH1 0x3 PUSH3 0xBAD JUMP JUMPDEST SWAP1 POP DUP1 PUSH20 0xFFFFFFFFFFFFFFFFFFFFFFFFFFFFFFFFFFFFFFFF AND PUSH4 0xEEF84BA1 PUSH1 0x40 MLOAD DUP2 PUSH4 0xFFFFFFFF AND PUSH1 0xE0 SHL DUP2 MSTORE PUSH1 0x4 ADD PUSH1 0x0 PUSH1 0x40 MLOAD DUP1 DUP4 SUB DUP2 PUSH1 0x0 DUP8 DUP1 EXTCODESIZE ISZERO DUP1 ISZERO PUSH3 0x38FF JUMPI PUSH1 0x0 DUP1 REVERT JUMPDEST POP GAS CALL ISZERO DUP1 ISZERO PUSH3 0x3914 JUMPI RETURNDATASIZE PUSH1 0x0 DUP1 RETURNDATACOPY RETURNDATASIZE PUSH1 0x0 REVERT JUMPDEST POP POP POP POP CALLER PUSH20 0xFFFFFFFFFFFFFFFFFFFFFFFFFFFFFFFFFFFFFFFF AND DUP8 PUSH20 0xFFFFFFFFFFFFFFFFFFFFFFFFFFFFFFFFFFFFFFFF AND EQ ISZERO DUP1 ISZERO PUSH3 0x395E JUMPI POP PUSH3 0x395C DUP8 CALLER PUSH3 0x373F JUMP JUMPDEST ISZERO JUMPDEST ISZERO PUSH3 0x3996 JUMPI PUSH1 0x40 MLOAD PUSH32 0x6F34AAA800000000000000000000000000000000000000000000000000000000 DUP2 MSTORE PUSH1 0x4 ADD PUSH1 0x40 MLOAD DUP1 SWAP2 SUB SWAP1 REVERT JUMPDEST PUSH3 0x39A6 DUP8 DUP8 DUP8 DUP8 DUP8 DUP8 PUSH3 0x6768 JUMP JUMPDEST POP POP POP POP POP POP POP JUMP JUMPDEST CALLER PUSH20 0xFFFFFFFFFFFFFFFFFFFFFFFFFFFFFFFFFFFFFFFF AND PUSH3 0x39D0 PUSH3 0x2343 JUMP JUMPDEST PUSH20 0xFFFFFFFFFFFFFFFFFFFFFFFFFFFFFFFFFFFFFFFF AND EQ PUSH3 0x3A1E JUMPI PUSH1 0x40 MLOAD PUSH32 0xEBF9845900000000000000000000000000000000000000000000000000000000 DUP2 MSTORE PUSH1 0x4 ADD PUSH1 0x40 MLOAD DUP1 SWAP2 SUB SWAP1 REVERT JUMPDEST PUSH1 0x0 PUSH20 0xFFFFFFFFFFFFFFFFFFFFFFFFFFFFFFFFFFFFFFFF AND DUP2 PUSH20 0xFFFFFFFFFFFFFFFFFFFFFFFFFFFFFFFFFFFFFFFF AND EQ ISZERO PUSH3 0x3A86 JUMPI PUSH1 0x40 MLOAD PUSH32 0x5868B79D00000000000000000000000000000000000000000000000000000000 DUP2 MSTORE PUSH1 0x4 ADD PUSH1 0x40 MLOAD DUP1 SWAP2 SUB SWAP1 REVERT JUMPDEST PUSH3 0x3A91 DUP2 PUSH3 0x5163 JUMP JUMPDEST POP JUMP JUMPDEST PUSH1 0x60 DUP3 DUP1 TIMESTAMP GT ISZERO PUSH3 0x3ADD JUMPI PUSH1 0x40 MLOAD PUSH32 0x8C379A000000000000000000000000000000000000000000000000000000000 DUP2 MSTORE PUSH1 0x4 ADD PUSH3 0x3AD4 SWAP1 PUSH3 0x8D76 JUMP JUMPDEST PUSH1 0x40 MLOAD DUP1 SWAP2 SUB SWAP1 REVERT JUMPDEST PUSH1 0x0 PUSH1 0x1 PUSH1 0x2 PUSH1 0x0 DUP12 PUSH20 0xFFFFFFFFFFFFFFFFFFFFFFFFFFFFFFFFFFFFFFFF AND PUSH20 0xFFFFFFFFFFFFFFFFFFFFFFFFFFFFFFFFFFFFFFFF AND DUP2 MSTORE PUSH1 0x20 ADD SWAP1 DUP2 MSTORE PUSH1 0x20 ADD PUSH1 0x0 KECCAK256 SLOAD DUP2 SLOAD DUP2 LT PUSH3 0x3B35 JUMPI PUSH3 0x3B34 PUSH3 0x8C85 JUMP JUMPDEST JUMPDEST SWAP1 PUSH1 0x0 MSTORE PUSH1 0x20 PUSH1 0x0 KECCAK256 SWAP1 PUSH1 0x3 MUL ADD PUSH1 0x0 ADD PUSH1 0x0 SWAP1 SLOAD SWAP1 PUSH2 0x100 EXP SWAP1 DIV PUSH20 0xFFFFFFFFFFFFFFFFFFFFFFFFFFFFFFFFFFFFFFFF AND SWAP1 POP PUSH1 0x0 PUSH1 0x1 PUSH1 0x2 PUSH1 0x0 DUP12 PUSH20 0xFFFFFFFFFFFFFFFFFFFFFFFFFFFFFFFFFFFFFFFF AND PUSH20 0xFFFFFFFFFFFFFFFFFFFFFFFFFFFFFFFFFFFFFFFF AND DUP2 MSTORE PUSH1 0x20 ADD SWAP1 DUP2 MSTORE PUSH1 0x20 ADD PUSH1 0x0 KECCAK256 SLOAD DUP2 SLOAD DUP2 LT PUSH3 0x3BC1 JUMPI PUSH3 0x3BC0 PUSH3 0x8C85 JUMP JUMPDEST JUMPDEST SWAP1 PUSH1 0x0 MSTORE PUSH1 0x20 PUSH1 0x0 KECCAK256 SWAP1 PUSH1 0x3 MUL ADD PUSH1 0x0 ADD PUSH1 0x0 SWAP1 SLOAD SWAP1 PUSH2 0x100 EXP SWAP1 DIV PUSH20 0xFFFFFFFFFFFFFFFFFFFFFFFFFFFFFFFFFFFFFFFF AND SWAP1 POP PUSH1 0x0 PUSH1 0x2 PUSH8 0xFFFFFFFFFFFFFFFF DUP2 GT ISZERO PUSH3 0x3C15 JUMPI PUSH3 0x3C14 PUSH3 0x7E2A JUMP JUMPDEST JUMPDEST PUSH1 0x40 MLOAD SWAP1 DUP1 DUP3 MSTORE DUP1 PUSH1 0x20 MUL PUSH1 0x20 ADD DUP3 ADD PUSH1 0x40 MSTORE DUP1 ISZERO PUSH3 0x3C44 JUMPI DUP2 PUSH1 0x20 ADD PUSH1 0x20 DUP3 MUL DUP1 CALLDATASIZE DUP4 CALLDATACOPY DUP1 DUP3 ADD SWAP2 POP POP SWAP1 POP JUMPDEST POP SWAP1 POP DUP9 DUP2 PUSH1 0x1 DUP2 MLOAD DUP2 LT PUSH3 0x3C5F JUMPI PUSH3 0x3C5E PUSH3 0x8C85 JUMP JUMPDEST JUMPDEST PUSH1 0x20 MUL PUSH1 0x20 ADD ADD DUP2 DUP2 MSTORE POP POP PUSH1 0x0 DUP1 SLOAD SWAP1 PUSH2 0x100 EXP SWAP1 DIV PUSH20 0xFFFFFFFFFFFFFFFFFFFFFFFFFFFFFFFFFFFFFFFF AND PUSH20 0xFFFFFFFFFFFFFFFFFFFFFFFFFFFFFFFFFFFFFFFF AND DUP12 PUSH20 0xFFFFFFFFFFFFFFFFFFFFFFFFFFFFFFFFFFFFFFFF AND EQ ISZERO DUP1 ISZERO PUSH3 0x3D13 JUMPI POP PUSH1 0x0 DUP1 SLOAD SWAP1 PUSH2 0x100 EXP SWAP1 DIV PUSH20 0xFFFFFFFFFFFFFFFFFFFFFFFFFFFFFFFFFFFFFFFF AND PUSH20 0xFFFFFFFFFFFFFFFFFFFFFFFFFFFFFFFFFFFFFFFF AND DUP11 PUSH20 0xFFFFFFFFFFFFFFFFFFFFFFFFFFFFFFFFFFFFFFFF AND EQ JUMPDEST ISZERO PUSH3 0x3E6A JUMPI PUSH1 0x0 PUSH3 0x3D27 DUP13 DUP6 PUSH3 0x47B2 JUMP JUMPDEST SWAP1 POP PUSH3 0x3D36 DUP2 DUP14 DUP13 PUSH3 0x64F2 JUMP JUMPDEST DUP3 PUSH1 0x0 DUP2 MLOAD DUP2 LT PUSH3 0x3D4D JUMPI PUSH3 0x3D4C PUSH3 0x8C85 JUMP JUMPDEST JUMPDEST PUSH1 0x20 MUL PUSH1 0x20 ADD ADD DUP2 DUP2 MSTORE POP POP DUP9 DUP3 PUSH1 0x0 DUP2 MLOAD DUP2 LT PUSH3 0x3D71 JUMPI PUSH3 0x3D70 PUSH3 0x8C85 JUMP JUMPDEST JUMPDEST PUSH1 0x20 MUL PUSH1 0x20 ADD ADD MLOAD GT ISZERO PUSH3 0x3DBD JUMPI PUSH1 0x40 MLOAD PUSH32 0x8C379A000000000000000000000000000000000000000000000000000000000 DUP2 MSTORE PUSH1 0x4 ADD PUSH3 0x3DB4 SWAP1 PUSH3 0x9240 JUMP JUMPDEST PUSH1 0x40 MLOAD DUP1 SWAP2 SUB SWAP1 REVERT JUMPDEST PUSH1 0x1 DUP3 PUSH1 0x0 DUP2 MLOAD DUP2 LT PUSH3 0x3DD6 JUMPI PUSH3 0x3DD5 PUSH3 0x8C85 JUMP JUMPDEST JUMPDEST PUSH1 0x20 MUL PUSH1 0x20 ADD ADD MLOAD GT PUSH3 0x3E21 JUMPI PUSH1 0x40 MLOAD PUSH32 0x8C379A000000000000000000000000000000000000000000000000000000000 DUP2 MSTORE PUSH1 0x4 ADD PUSH3 0x3E18 SWAP1 PUSH3 0x8E23 JUMP JUMPDEST PUSH1 0x40 MLOAD DUP1 SWAP2 SUB SWAP1 REVERT JUMPDEST PUSH3 0x3E4D DUP13 CALLER DUP7 DUP6 PUSH1 0x0 DUP2 MLOAD DUP2 LT PUSH3 0x3E3F JUMPI PUSH3 0x3E3E PUSH3 0x8C85 JUMP JUMPDEST JUMPDEST PUSH1 0x20 MUL PUSH1 0x20 ADD ADD MLOAD PUSH3 0x480F JUMP JUMPDEST PUSH3 0x3E5D DUP13 DUP3 PUSH1 0x0 DUP14 DUP12 PUSH3 0x5CC9 JUMP JUMPDEST DUP2 SWAP6 POP POP POP POP POP PUSH3 0x43EA JUMP JUMPDEST PUSH1 0x0 DUP1 SLOAD SWAP1 PUSH2 0x100 EXP SWAP1 DIV PUSH20 0xFFFFFFFFFFFFFFFFFFFFFFFFFFFFFFFFFFFFFFFF AND PUSH20 0xFFFFFFFFFFFFFFFFFFFFFFFFFFFFFFFFFFFFFFFF AND DUP12 PUSH20 0xFFFFFFFFFFFFFFFFFFFFFFFFFFFFFFFFFFFFFFFF AND EQ DUP1 ISZERO PUSH3 0x3F12 JUMPI POP PUSH1 0x0 DUP1 SLOAD SWAP1 PUSH2 0x100 EXP SWAP1 DIV PUSH20 0xFFFFFFFFFFFFFFFFFFFFFFFFFFFFFFFFFFFFFFFF AND PUSH20 0xFFFFFFFFFFFFFFFFFFFFFFFFFFFFFFFFFFFFFFFF AND DUP11 PUSH20 0xFFFFFFFFFFFFFFFFFFFFFFFFFFFFFFFFFFFFFFFF AND EQ ISZERO JUMPDEST ISZERO PUSH3 0x4069 JUMPI PUSH1 0x0 PUSH3 0x3F26 DUP12 DUP5 PUSH3 0x47B2 JUMP JUMPDEST SWAP1 POP PUSH3 0x3F35 DUP2 DUP13 DUP13 PUSH3 0x6666 JUMP JUMPDEST DUP3 PUSH1 0x0 DUP2 MLOAD DUP2 LT PUSH3 0x3F4C JUMPI PUSH3 0x3F4B PUSH3 0x8C85 JUMP JUMPDEST JUMPDEST PUSH1 0x20 MUL PUSH1 0x20 ADD ADD DUP2 DUP2 MSTORE POP POP DUP9 DUP3 PUSH1 0x0 DUP2 MLOAD DUP2 LT PUSH3 0x3F70 JUMPI PUSH3 0x3F6F PUSH3 0x8C85 JUMP JUMPDEST JUMPDEST PUSH1 0x20 MUL PUSH1 0x20 ADD ADD MLOAD GT ISZERO PUSH3 0x3FBC JUMPI PUSH1 0x40 MLOAD PUSH32 0x8C379A000000000000000000000000000000000000000000000000000000000 DUP2 MSTORE PUSH1 0x4 ADD PUSH3 0x3FB3 SWAP1 PUSH3 0x92B2 JUMP JUMPDEST PUSH1 0x40 MLOAD DUP1 SWAP2 SUB SWAP1 REVERT JUMPDEST PUSH1 0x1 DUP3 PUSH1 0x0 DUP2 MLOAD DUP2 LT PUSH3 0x3FD5 JUMPI PUSH3 0x3FD4 PUSH3 0x8C85 JUMP JUMPDEST JUMPDEST PUSH1 0x20 MUL PUSH1 0x20 ADD ADD MLOAD GT PUSH3 0x4020 JUMPI PUSH1 0x40 MLOAD PUSH32 0x8C379A000000000000000000000000000000000000000000000000000000000 DUP2 MSTORE PUSH1 0x4 ADD PUSH3 0x4017 SWAP1 PUSH3 0x9324 JUMP JUMPDEST PUSH1 0x40 MLOAD DUP1 SWAP2 SUB SWAP1 REVERT JUMPDEST PUSH3 0x404C DUP13 CALLER DUP6 DUP6 PUSH1 0x0 DUP2 MLOAD DUP2 LT PUSH3 0x403E JUMPI PUSH3 0x403D PUSH3 0x8C85 JUMP JUMPDEST JUMPDEST PUSH1 0x20 MUL PUSH1 0x20 ADD ADD MLOAD PUSH3 0x480F JUMP JUMPDEST PUSH3 0x405C DUP12 DUP3 DUP13 PUSH1 0x0 DUP12 PUSH3 0x5CC9 JUMP JUMPDEST DUP2 SWAP6 POP POP POP POP POP PUSH3 0x43EA JUMP JUMPDEST PUSH1 0x0 DUP1 SLOAD SWAP1 PUSH2 0x100 EXP SWAP1 DIV PUSH20 0xFFFFFFFFFFFFFFFFFFFFFFFFFFFFFFFFFFFFFFFF AND PUSH20 0xFFFFFFFFFFFFFFFFFFFFFFFFFFFFFFFFFFFFFFFF AND DUP12 PUSH20 0xFFFFFFFFFFFFFFFFFFFFFFFFFFFFFFFFFFFFFFFF AND EQ ISZERO DUP1 ISZERO PUSH3 0x4112 JUMPI POP PUSH1 0x0 DUP1 SLOAD SWAP1 PUSH2 0x100 EXP SWAP1 DIV PUSH20 0xFFFFFFFFFFFFFFFFFFFFFFFFFFFFFFFFFFFFFFFF AND PUSH20 0xFFFFFFFFFFFFFFFFFFFFFFFFFFFFFFFFFFFFFFFF AND DUP11 PUSH20 0xFFFFFFFFFFFFFFFFFFFFFFFFFFFFFFFFFFFFFFFF AND EQ ISZERO JUMPDEST DUP1 ISZERO PUSH3 0x414B JUMPI POP DUP10 PUSH20 0xFFFFFFFFFFFFFFFFFFFFFFFFFFFFFFFFFFFFFFFF AND DUP12 PUSH20 0xFFFFFFFFFFFFFFFFFFFFFFFFFFFFFFFFFFFFFFFF AND EQ ISZERO JUMPDEST ISZERO PUSH3 0x43AD JUMPI PUSH1 0x0 PUSH3 0x415F DUP13 DUP6 PUSH3 0x47B2 JUMP JUMPDEST SWAP1 POP PUSH1 0x0 PUSH3 0x4170 DUP3 DUP15 DUP14 PUSH3 0x6666 JUMP JUMPDEST SWAP1 POP PUSH1 0x1 DUP2 GT PUSH3 0x41B8 JUMPI PUSH1 0x40 MLOAD PUSH32 0x8C379A000000000000000000000000000000000000000000000000000000000 DUP2 MSTORE PUSH1 0x4 ADD PUSH3 0x41AF SWAP1 PUSH3 0x9324 JUMP JUMPDEST PUSH1 0x40 MLOAD DUP1 SWAP2 SUB SWAP1 REVERT JUMPDEST PUSH1 0x0 PUSH3 0x41C6 DUP14 DUP7 PUSH3 0x47B2 JUMP JUMPDEST SWAP1 POP PUSH3 0x41D5 DUP2 DUP15 DUP5 PUSH3 0x64F2 JUMP JUMPDEST DUP5 PUSH1 0x0 DUP2 MLOAD DUP2 LT PUSH3 0x41EC JUMPI PUSH3 0x41EB PUSH3 0x8C85 JUMP JUMPDEST JUMPDEST PUSH1 0x20 MUL PUSH1 0x20 ADD ADD DUP2 DUP2 MSTORE POP POP PUSH1 0x1 DUP5 PUSH1 0x0 DUP2 MLOAD DUP2 LT PUSH3 0x4211 JUMPI PUSH3 0x4210 PUSH3 0x8C85 JUMP JUMPDEST JUMPDEST PUSH1 0x20 MUL PUSH1 0x20 ADD ADD MLOAD GT PUSH3 0x425C JUMPI PUSH1 0x40 MLOAD PUSH32 0x8C379A000000000000000000000000000000000000000000000000000000000 DUP2 MSTORE PUSH1 0x4 ADD PUSH3 0x4253 SWAP1 PUSH3 0x9324 JUMP JUMPDEST PUSH1 0x40 MLOAD DUP1 SWAP2 SUB SWAP1 REVERT JUMPDEST DUP11 DUP5 PUSH1 0x0 DUP2 MLOAD DUP2 LT PUSH3 0x4274 JUMPI PUSH3 0x4273 PUSH3 0x8C85 JUMP JUMPDEST JUMPDEST PUSH1 0x20 MUL PUSH1 0x20 ADD ADD MLOAD GT ISZERO PUSH3 0x42C0 JUMPI PUSH1 0x40 MLOAD PUSH32 0x8C379A000000000000000000000000000000000000000000000000000000000 DUP2 MSTORE PUSH1 0x4 ADD PUSH3 0x42B7 SWAP1 PUSH3 0x9240 JUMP JUMPDEST PUSH1 0x40 MLOAD DUP1 SWAP2 SUB SWAP1 REVERT JUMPDEST PUSH1 0x1 DUP5 PUSH1 0x0 DUP2 MLOAD DUP2 LT PUSH3 0x42D9 JUMPI PUSH3 0x42D8 PUSH3 0x8C85 JUMP JUMPDEST JUMPDEST PUSH1 0x20 MUL PUSH1 0x20 ADD ADD MLOAD GT PUSH3 0x4324 JUMPI PUSH1 0x40 MLOAD PUSH32 0x8C379A000000000000000000000000000000000000000000000000000000000 DUP2 MSTORE PUSH1 0x4 ADD PUSH3 0x431B SWAP1 PUSH3 0x8E23 JUMP JUMPDEST PUSH1 0x40 MLOAD DUP1 SWAP2 SUB SWAP1 REVERT JUMPDEST PUSH3 0x4350 DUP15 CALLER DUP9 DUP8 PUSH1 0x0 DUP2 MLOAD DUP2 LT PUSH3 0x4342 JUMPI PUSH3 0x4341 PUSH3 0x8C85 JUMP JUMPDEST JUMPDEST PUSH1 0x20 MUL PUSH1 0x20 ADD ADD MLOAD PUSH3 0x480F JUMP JUMPDEST PUSH3 0x4360 DUP15 DUP5 PUSH1 0x0 DUP6 ADDRESS PUSH3 0x5CC9 JUMP JUMPDEST PUSH3 0x438E PUSH1 0x0 DUP1 SLOAD SWAP1 PUSH2 0x100 EXP SWAP1 DIV PUSH20 0xFFFFFFFFFFFFFFFFFFFFFFFFFFFFFFFFFFFFFFFF AND DUP8 DUP8 DUP6 PUSH3 0x480F JUMP JUMPDEST PUSH3 0x439E DUP14 DUP3 DUP15 PUSH1 0x0 DUP14 PUSH3 0x5CC9 JUMP JUMPDEST DUP4 SWAP8 POP POP POP POP POP POP POP PUSH3 0x43EA JUMP JUMPDEST PUSH1 0x40 MLOAD PUSH32 0x8C379A000000000000000000000000000000000000000000000000000000000 DUP2 MSTORE PUSH1 0x4 ADD PUSH3 0x43E1 SWAP1 PUSH3 0x912D JUMP JUMPDEST PUSH1 0x40 MLOAD DUP1 SWAP2 SUB SWAP1 REVERT JUMPDEST POP SWAP7 SWAP6 POP POP POP POP POP POP JUMP JUMPDEST PUSH1 0x0 DUP7 DUP7 SWAP1 POP SWAP1 POP DUP5 DUP5 SWAP1 POP DUP2 EQ PUSH3 0x443A JUMPI PUSH1 0x40 MLOAD PUSH32 0xA98A885900000000000000000000000000000000000000000000000000000000 DUP2 MSTORE PUSH1 0x4 ADD PUSH1 0x40 MLOAD DUP1 SWAP2 SUB SWAP1 REVERT JUMPDEST PUSH1 0x0 PUSH20 0xFFFFFFFFFFFFFFFFFFFFFFFFFFFFFFFFFFFFFFFF AND DUP9 PUSH20 0xFFFFFFFFFFFFFFFFFFFFFFFFFFFFFFFFFFFFFFFF AND EQ ISZERO PUSH3 0x44A2 JUMPI PUSH1 0x40 MLOAD PUSH32 0x3E63C34800000000000000000000000000000000000000000000000000000000 DUP2 MSTORE PUSH1 0x4 ADD PUSH1 0x40 MLOAD DUP1 SWAP2 SUB SWAP1 REVERT JUMPDEST PUSH1 0x0 CALLER SWAP1 POP PUSH1 0x0 JUMPDEST DUP3 DUP2 LT ISZERO PUSH3 0x46CB JUMPI PUSH1 0x0 DUP8 DUP8 DUP4 DUP2 DUP2 LT PUSH3 0x44CB JUMPI PUSH3 0x44CA PUSH3 0x8C85 JUMP JUMPDEST JUMPDEST SWAP1 POP PUSH1 0x20 MUL ADD CALLDATALOAD SWAP1 POP PUSH1 0x0 PUSH1 0xC PUSH1 0x0 DUP13 DUP13 DUP7 DUP2 DUP2 LT PUSH3 0x44F0 JUMPI PUSH3 0x44EF PUSH3 0x8C85 JUMP JUMPDEST JUMPDEST SWAP1 POP PUSH1 0x20 MUL ADD CALLDATALOAD DUP2 MSTORE PUSH1 0x20 ADD SWAP1 DUP2 MSTORE PUSH1 0x20 ADD PUSH1 0x0 KECCAK256 PUSH1 0x0 DUP15 PUSH20 0xFFFFFFFFFFFFFFFFFFFFFFFFFFFFFFFFFFFFFFFF AND PUSH20 0xFFFFFFFFFFFFFFFFFFFFFFFFFFFFFFFFFFFFFFFF AND DUP2 MSTORE PUSH1 0x20 ADD SWAP1 DUP2 MSTORE PUSH1 0x20 ADD PUSH1 0x0 KECCAK256 SLOAD SWAP1 POP DUP2 DUP2 LT ISZERO PUSH3 0x4580 JUMPI PUSH1 0x40 MLOAD PUSH32 0x5AD11EC200000000000000000000000000000000000000000000000000000000 DUP2 MSTORE PUSH1 0x4 ADD PUSH1 0x40 MLOAD DUP1 SWAP2 SUB SWAP1 REVERT JUMPDEST DUP2 DUP2 SUB PUSH1 0xC PUSH1 0x0 DUP14 DUP14 DUP8 DUP2 DUP2 LT PUSH3 0x459D JUMPI PUSH3 0x459C PUSH3 0x8C85 JUMP JUMPDEST JUMPDEST SWAP1 POP PUSH1 0x20 MUL ADD CALLDATALOAD DUP2 MSTORE PUSH1 0x20 ADD SWAP1 DUP2 MSTORE PUSH1 0x20 ADD PUSH1 0x0 KECCAK256 PUSH1 0x0 DUP16 PUSH20 0xFFFFFFFFFFFFFFFFFFFFFFFFFFFFFFFFFFFFFFFF AND PUSH20 0xFFFFFFFFFFFFFFFFFFFFFFFFFFFFFFFFFFFFFFFF AND DUP2 MSTORE PUSH1 0x20 ADD SWAP1 DUP2 MSTORE PUSH1 0x20 ADD PUSH1 0x0 KECCAK256 DUP2 SWAP1 SSTORE POP DUP2 PUSH1 0xC PUSH1 0x0 DUP14 DUP14 DUP8 DUP2 DUP2 LT PUSH3 0x460E JUMPI PUSH3 0x460D PUSH3 0x8C85 JUMP JUMPDEST JUMPDEST SWAP1 POP PUSH1 0x20 MUL ADD CALLDATALOAD DUP2 MSTORE PUSH1 0x20 ADD SWAP1 DUP2 MSTORE PUSH1 0x20 ADD PUSH1 0x0 KECCAK256 PUSH1 0x0 DUP15 PUSH20 0xFFFFFFFFFFFFFFFFFFFFFFFFFFFFFFFFFFFFFFFF AND PUSH20 0xFFFFFFFFFFFFFFFFFFFFFFFFFFFFFFFFFFFFFFFF AND DUP2 MSTORE PUSH1 0x20 ADD SWAP1 DUP2 MSTORE PUSH1 0x20 ADD PUSH1 0x0 KECCAK256 PUSH1 0x0 DUP3 DUP3 SLOAD PUSH3 0x4671 SWAP2 SWAP1 PUSH3 0x8C28 JUMP JUMPDEST SWAP3 POP POP DUP2 SWAP1 SSTORE POP DUP2 PUSH1 0xF PUSH1 0x0 DUP14 DUP14 DUP8 DUP2 DUP2 LT PUSH3 0x4693 JUMPI PUSH3 0x4692 PUSH3 0x8C85 JUMP JUMPDEST JUMPDEST SWAP1 POP PUSH1 0x20 MUL ADD CALLDATALOAD DUP2 MSTORE PUSH1 0x20 ADD SWAP1 DUP2 MSTORE PUSH1 0x20 ADD PUSH1 0x0 KECCAK256 PUSH1 0x0 DUP3 DUP3 SLOAD ADD SWAP3 POP POP DUP2 SWAP1 SSTORE POP POP POP DUP1 PUSH3 0x46C3 SWAP1 PUSH3 0x8BDA JUMP JUMPDEST SWAP1 POP PUSH3 0x44AA JUMP JUMPDEST POP DUP9 PUSH20 0xFFFFFFFFFFFFFFFFFFFFFFFFFFFFFFFFFFFFFFFF AND DUP11 PUSH20 0xFFFFFFFFFFFFFFFFFFFFFFFFFFFFFFFFFFFFFFFF AND DUP3 PUSH20 0xFFFFFFFFFFFFFFFFFFFFFFFFFFFFFFFFFFFFFFFF AND PUSH32 0x4A39DC06D4C0DBC64B70AF90FD698A233A518AA5D07E595D983B8C0526C8F7FB DUP12 DUP12 DUP12 DUP12 PUSH1 0x40 MLOAD PUSH3 0x4748 SWAP5 SWAP4 SWAP3 SWAP2 SWAP1 PUSH3 0x93AE JUMP JUMPDEST PUSH1 0x40 MLOAD DUP1 SWAP2 SUB SWAP1 LOG4 PUSH3 0x47A6 DUP2 DUP12 DUP12 DUP12 DUP12 DUP12 DUP12 DUP12 DUP12 DUP1 DUP1 PUSH1 0x1F ADD PUSH1 0x20 DUP1 SWAP2 DIV MUL PUSH1 0x20 ADD PUSH1 0x40 MLOAD SWAP1 DUP2 ADD PUSH1 0x40 MSTORE DUP1 SWAP4 SWAP3 SWAP2 SWAP1 DUP2 DUP2 MSTORE PUSH1 0x20 ADD DUP4 DUP4 DUP1 DUP3 DUP5 CALLDATACOPY PUSH1 0x0 DUP2 DUP5 ADD MSTORE PUSH1 0x1F NOT PUSH1 0x1F DUP3 ADD AND SWAP1 POP DUP1 DUP4 ADD SWAP3 POP POP POP POP POP POP POP PUSH3 0x6A24 JUMP JUMPDEST POP POP POP POP POP POP POP POP POP POP JUMP JUMPDEST PUSH3 0x47BC PUSH3 0x74E0 JUMP JUMPDEST PUSH1 0x40 MLOAD DUP1 PUSH1 0x40 ADD PUSH1 0x40 MSTORE DUP1 PUSH3 0x47D3 DUP6 DUP6 PUSH3 0x6B7D JUMP JUMPDEST DUP2 MSTORE PUSH1 0x20 ADD PUSH3 0x4804 PUSH1 0x0 DUP1 SLOAD SWAP1 PUSH2 0x100 EXP SWAP1 DIV PUSH20 0xFFFFFFFFFFFFFFFFFFFFFFFFFFFFFFFFFFFFFFFF AND DUP6 PUSH3 0x6B7D JUMP JUMPDEST DUP2 MSTORE POP SWAP1 POP SWAP3 SWAP2 POP POP JUMP JUMPDEST PUSH1 0x5 PUSH1 0x0 SWAP1 SLOAD SWAP1 PUSH2 0x100 EXP SWAP1 DIV PUSH20 0xFFFFFFFFFFFFFFFFFFFFFFFFFFFFFFFFFFFFFFFF AND PUSH20 0xFFFFFFFFFFFFFFFFFFFFFFFFFFFFFFFFFFFFFFFF AND DUP5 PUSH20 0xFFFFFFFFFFFFFFFFFFFFFFFFFFFFFFFFFFFFFFFF AND EQ DUP1 ISZERO PUSH3 0x4898 JUMPI POP ADDRESS PUSH20 0xFFFFFFFFFFFFFFFFFFFFFFFFFFFFFFFFFFFFFFFF AND DUP3 PUSH20 0xFFFFFFFFFFFFFFFFFFFFFFFFFFFFFFFFFFFFFFFF AND EQ JUMPDEST ISZERO PUSH3 0x4902 JUMPI DUP1 CALLVALUE LT ISZERO PUSH3 0x48D9 JUMPI PUSH1 0x40 MLOAD PUSH32 0xB5DB338C00000000000000000000000000000000000000000000000000000000 DUP2 MSTORE PUSH1 0x4 ADD PUSH1 0x40 MLOAD DUP1 SWAP2 SUB SWAP1 REVERT JUMPDEST DUP1 CALLVALUE GT ISZERO PUSH3 0x48FC JUMPI PUSH3 0x48FB CALLER DUP3 CALLVALUE PUSH3 0x48F5 SWAP2 SWAP1 PUSH3 0x8D98 JUMP JUMPDEST PUSH3 0x6C87 JUMP JUMPDEST JUMPDEST PUSH3 0x4A2D JUMP JUMPDEST PUSH1 0x5 PUSH1 0x0 SWAP1 SLOAD SWAP1 PUSH2 0x100 EXP SWAP1 DIV PUSH20 0xFFFFFFFFFFFFFFFFFFFFFFFFFFFFFFFFFFFFFFFF AND PUSH20 0xFFFFFFFFFFFFFFFFFFFFFFFFFFFFFFFFFFFFFFFF AND DUP5 PUSH20 0xFFFFFFFFFFFFFFFFFFFFFFFFFFFFFFFFFFFFFFFF AND EQ DUP1 ISZERO PUSH3 0x498B JUMPI POP ADDRESS PUSH20 0xFFFFFFFFFFFFFFFFFFFFFFFFFFFFFFFFFFFFFFFF AND DUP4 PUSH20 0xFFFFFFFFFFFFFFFFFFFFFFFFFFFFFFFFFFFFFFFF AND EQ JUMPDEST DUP1 ISZERO PUSH3 0x49C4 JUMPI POP ADDRESS PUSH20 0xFFFFFFFFFFFFFFFFFFFFFFFFFFFFFFFFFFFFFFFF AND DUP3 PUSH20 0xFFFFFFFFFFFFFFFFFFFFFFFFFFFFFFFFFFFFFFFF AND EQ ISZERO JUMPDEST ISZERO PUSH3 0x49D7 JUMPI PUSH3 0x49D6 DUP3 DUP3 PUSH3 0x6C87 JUMP JUMPDEST JUMPDEST PUSH1 0x0 CALLVALUE GT ISZERO PUSH3 0x4A1E JUMPI PUSH1 0x40 MLOAD PUSH32 0x8C379A000000000000000000000000000000000000000000000000000000000 DUP2 MSTORE PUSH1 0x4 ADD PUSH3 0x4A15 SWAP1 PUSH3 0x943D JUMP JUMPDEST PUSH1 0x40 MLOAD DUP1 SWAP2 SUB SWAP1 REVERT JUMPDEST PUSH3 0x4A2C DUP5 DUP5 DUP5 DUP5 PUSH3 0x6D87 JUMP JUMPDEST JUMPDEST POP POP POP POP JUMP JUMPDEST PUSH1 0x0 PUSH1 0x3 DUP3 GT ISZERO PUSH3 0x4AA8 JUMPI DUP2 SWAP1 POP PUSH1 0x0 PUSH1 0x1 PUSH1 0x2 DUP5 PUSH3 0x4A55 SWAP2 SWAP1 PUSH3 0x8E74 JUMP JUMPDEST PUSH3 0x4A61 SWAP2 SWAP1 PUSH3 0x8C28 JUMP JUMPDEST SWAP1 POP JUMPDEST DUP2 DUP2 LT ISZERO PUSH3 0x4AA1 JUMPI DUP1 SWAP2 POP PUSH1 0x2 DUP2 DUP3 DUP6 PUSH3 0x4A81 SWAP2 SWAP1 PUSH3 0x8E74 JUMP JUMPDEST PUSH3 0x4A8D SWAP2 SWAP1 PUSH3 0x8C28 JUMP JUMPDEST PUSH3 0x4A99 SWAP2 SWAP1 PUSH3 0x8E74 JUMP JUMPDEST SWAP1 POP PUSH3 0x4A64 JUMP JUMPDEST POP PUSH3 0x4AB7 JUMP JUMPDEST PUSH1 0x0 DUP3 EQ PUSH3 0x4AB6 JUMPI PUSH1 0x1 SWAP1 POP JUMPDEST JUMPDEST SWAP2 SWAP1 POP JUMP JUMPDEST PUSH1 0x0 DUP1 PUSH1 0x0 PUSH1 0x6 PUSH1 0x1 ADD SLOAD SWAP1 POP DUP6 DUP6 GT DUP1 ISZERO PUSH3 0x4AD9 JUMPI POP PUSH1 0x0 DUP7 GT JUMPDEST DUP1 ISZERO PUSH3 0x4AE6 JUMPI POP PUSH1 0x0 DUP2 GT JUMPDEST ISZERO PUSH3 0x4B59 JUMPI DUP1 DUP7 PUSH3 0x4AFA SWAP2 SWAP1 PUSH3 0x878D JUMP JUMPDEST DUP2 PUSH1 0x64 PUSH3 0x4B09 SWAP2 SWAP1 PUSH3 0x8D98 JUMP JUMPDEST DUP7 PUSH3 0x4B16 SWAP2 SWAP1 PUSH3 0x878D JUMP JUMPDEST PUSH3 0x4B22 SWAP2 SWAP1 PUSH3 0x8C28 JUMP JUMPDEST DUP7 DUP7 PUSH3 0x4B30 SWAP2 SWAP1 PUSH3 0x8D98 JUMP JUMPDEST DUP3 DUP7 PUSH3 0x4B3E SWAP2 SWAP1 PUSH3 0x878D JUMP JUMPDEST PUSH3 0x4B4A SWAP2 SWAP1 PUSH3 0x878D JUMP JUMPDEST PUSH3 0x4B56 SWAP2 SWAP1 PUSH3 0x8E74 JUMP JUMPDEST SWAP2 POP JUMPDEST DUP2 SWAP3 POP POP POP SWAP4 SWAP3 POP POP POP JUMP JUMPDEST PUSH1 0x0 PUSH20 0xFFFFFFFFFFFFFFFFFFFFFFFFFFFFFFFFFFFFFFFF AND DUP5 PUSH20 0xFFFFFFFFFFFFFFFFFFFFFFFFFFFFFFFFFFFFFFFF AND EQ ISZERO PUSH3 0x4BCD JUMPI PUSH1 0x40 MLOAD PUSH32 0xF84619AC00000000000000000000000000000000000000000000000000000000 DUP2 MSTORE PUSH1 0x4 ADD PUSH1 0x40 MLOAD DUP1 SWAP2 SUB SWAP1 REVERT JUMPDEST PUSH1 0x0 DUP3 EQ ISZERO PUSH3 0x4BDD JUMPI PUSH3 0x4D00 JUMP JUMPDEST PUSH1 0x0 CALLER SWAP1 POP DUP3 PUSH1 0xF PUSH1 0x0 DUP7 DUP2 MSTORE PUSH1 0x20 ADD SWAP1 DUP2 MSTORE PUSH1 0x20 ADD PUSH1 0x0 KECCAK256 PUSH1 0x0 DUP3 DUP3 SLOAD PUSH3 0x4C07 SWAP2 SWAP1 PUSH3 0x8C28 JUMP JUMPDEST SWAP3 POP POP DUP2 SWAP1 SSTORE POP DUP3 PUSH1 0xC PUSH1 0x0 DUP7 DUP2 MSTORE PUSH1 0x20 ADD SWAP1 DUP2 MSTORE PUSH1 0x20 ADD PUSH1 0x0 KECCAK256 PUSH1 0x0 DUP8 PUSH20 0xFFFFFFFFFFFFFFFFFFFFFFFFFFFFFFFFFFFFFFFF AND PUSH20 0xFFFFFFFFFFFFFFFFFFFFFFFFFFFFFFFFFFFFFFFF AND DUP2 MSTORE PUSH1 0x20 ADD SWAP1 DUP2 MSTORE PUSH1 0x20 ADD PUSH1 0x0 KECCAK256 PUSH1 0x0 DUP3 DUP3 SLOAD ADD SWAP3 POP POP DUP2 SWAP1 SSTORE POP DUP5 PUSH20 0xFFFFFFFFFFFFFFFFFFFFFFFFFFFFFFFFFFFFFFFF AND PUSH1 0x0 PUSH20 0xFFFFFFFFFFFFFFFFFFFFFFFFFFFFFFFFFFFFFFFF AND DUP3 PUSH20 0xFFFFFFFFFFFFFFFFFFFFFFFFFFFFFFFFFFFFFFFF AND PUSH32 0xC3D58168C5AE7397731D063D5BBF3D657854427343F4C083240F7AACAA2D0F62 DUP8 DUP8 PUSH1 0x40 MLOAD PUSH3 0x4CE5 SWAP3 SWAP2 SWAP1 PUSH3 0x945F JUMP JUMPDEST PUSH1 0x40 MLOAD DUP1 SWAP2 SUB SWAP1 LOG4 PUSH3 0x4CFE DUP2 PUSH1 0x0 DUP8 DUP8 DUP8 DUP8 PUSH3 0x6EC2 JUMP JUMPDEST POP JUMPDEST POP POP POP POP JUMP JUMPDEST PUSH1 0x0 DUP3 PUSH1 0x0 PUSH1 0x2 PUSH1 0x0 DUP4 PUSH20 0xFFFFFFFFFFFFFFFFFFFFFFFFFFFFFFFFFFFFFFFF AND PUSH20 0xFFFFFFFFFFFFFFFFFFFFFFFFFFFFFFFFFFFFFFFF AND DUP2 MSTORE PUSH1 0x20 ADD SWAP1 DUP2 MSTORE PUSH1 0x20 ADD PUSH1 0x0 KECCAK256 SLOAD EQ DUP1 PUSH3 0x4DA3 JUMPI POP PUSH1 0x0 DUP1 SLOAD SWAP1 PUSH2 0x100 EXP SWAP1 DIV PUSH20 0xFFFFFFFFFFFFFFFFFFFFFFFFFFFFFFFFFFFFFFFF AND PUSH20 0xFFFFFFFFFFFFFFFFFFFFFFFFFFFFFFFFFFFFFFFF AND DUP2 PUSH20 0xFFFFFFFFFFFFFFFFFFFFFFFFFFFFFFFFFFFFFFFF AND EQ JUMPDEST ISZERO PUSH3 0x4DE6 JUMPI PUSH1 0x40 MLOAD PUSH32 0x8C379A000000000000000000000000000000000000000000000000000000000 DUP2 MSTORE PUSH1 0x4 ADD PUSH3 0x4DDD SWAP1 PUSH3 0x8D04 JUMP JUMPDEST PUSH1 0x40 MLOAD DUP1 SWAP2 SUB SWAP1 REVERT JUMPDEST PUSH1 0x0 PUSH1 0x1 PUSH1 0x2 PUSH1 0x0 DUP8 PUSH20 0xFFFFFFFFFFFFFFFFFFFFFFFFFFFFFFFFFFFFFFFF AND PUSH20 0xFFFFFFFFFFFFFFFFFFFFFFFFFFFFFFFFFFFFFFFF AND DUP2 MSTORE PUSH1 0x20 ADD SWAP1 DUP2 MSTORE PUSH1 0x20 ADD PUSH1 0x0 KECCAK256 SLOAD DUP2 SLOAD DUP2 LT PUSH3 0x4E3E JUMPI PUSH3 0x4E3D PUSH3 0x8C85 JUMP JUMPDEST JUMPDEST SWAP1 PUSH1 0x0 MSTORE PUSH1 0x20 PUSH1 0x0 KECCAK256 SWAP1 PUSH1 0x3 MUL ADD SWAP1 POP PUSH3 0x4E6F DUP5 DUP8 PUSH1 0x0 ADD MLOAD DUP9 PUSH1 0x20 ADD MLOAD PUSH3 0x4E69 DUP6 DUP12 PUSH3 0x4F7C JUMP JUMPDEST PUSH3 0x7015 JUMP JUMPDEST SWAP3 POP POP POP SWAP4 SWAP3 POP POP POP JUMP JUMPDEST PUSH1 0x0 DUP3 PUSH1 0x0 PUSH1 0x2 PUSH1 0x0 DUP4 PUSH20 0xFFFFFFFFFFFFFFFFFFFFFFFFFFFFFFFFFFFFFFFF AND PUSH20 0xFFFFFFFFFFFFFFFFFFFFFFFFFFFFFFFFFFFFFFFF AND DUP2 MSTORE PUSH1 0x20 ADD SWAP1 DUP2 MSTORE PUSH1 0x20 ADD PUSH1 0x0 KECCAK256 SLOAD EQ DUP1 PUSH3 0x4F17 JUMPI POP PUSH1 0x0 DUP1 SLOAD SWAP1 PUSH2 0x100 EXP SWAP1 DIV PUSH20 0xFFFFFFFFFFFFFFFFFFFFFFFFFFFFFFFFFFFFFFFF AND PUSH20 0xFFFFFFFFFFFFFFFFFFFFFFFFFFFFFFFFFFFFFFFF AND DUP2 PUSH20 0xFFFFFFFFFFFFFFFFFFFFFFFFFFFFFFFFFFFFFFFF AND EQ JUMPDEST ISZERO PUSH3 0x4F5A JUMPI PUSH1 0x40 MLOAD PUSH32 0x8C379A000000000000000000000000000000000000000000000000000000000 DUP2 MSTORE PUSH1 0x4 ADD PUSH3 0x4F51 SWAP1 PUSH3 0x8D04 JUMP JUMPDEST PUSH1 0x40 MLOAD DUP1 SWAP2 SUB SWAP1 REVERT JUMPDEST PUSH3 0x4F72 DUP4 DUP7 PUSH1 0x20 ADD MLOAD DUP8 PUSH1 0x0 ADD MLOAD PUSH2 0x2710 PUSH3 0x7015 JUMP JUMPDEST SWAP2 POP POP SWAP4 SWAP3 POP POP POP JUMP JUMPDEST PUSH1 0x0 DUP1 PUSH3 0x4F89 PUSH3 0x7070 JUMP JUMPDEST SWAP1 POP PUSH1 0x0 PUSH1 0x8 PUSH1 0x1 DUP4 PUSH3 0x4F9E SWAP2 SWAP1 PUSH3 0x8C28 JUMP JUMPDEST PUSH3 0x4FAA SWAP2 SWAP1 PUSH3 0x948C JUMP JUMPDEST SWAP1 POP PUSH1 0x0 DUP1 JUMPDEST PUSH1 0x8 DUP2 LT ISZERO PUSH3 0x5035 JUMPI DUP4 DUP2 EQ DUP1 PUSH3 0x4FC8 JUMPI POP DUP3 DUP2 EQ JUMPDEST ISZERO PUSH3 0x4FD4 JUMPI PUSH3 0x501F JUMP JUMPDEST DUP7 PUSH1 0x1 ADD DUP2 PUSH1 0x8 DUP2 LT PUSH3 0x4FED JUMPI PUSH3 0x4FEC PUSH3 0x8C85 JUMP JUMPDEST JUMPDEST PUSH1 0x8 SWAP2 DUP3 DUP3 DIV ADD SWAP2 SWAP1 MOD PUSH1 0x4 MUL SWAP1 SLOAD SWAP1 PUSH2 0x100 EXP SWAP1 DIV PUSH4 0xFFFFFFFF AND PUSH4 0xFFFFFFFF AND DUP3 PUSH3 0x501C SWAP2 SWAP1 PUSH3 0x8C28 JUMP JUMPDEST SWAP2 POP JUMPDEST DUP1 DUP1 PUSH3 0x502C SWAP1 PUSH3 0x8BDA JUMP JUMPDEST SWAP2 POP POP PUSH3 0x4FB0 JUMP JUMPDEST POP PUSH8 0x8AC7230489E80000 DUP2 PUSH3 0x504C SWAP2 SWAP1 PUSH3 0x878D JUMP JUMPDEST SWAP1 POP PUSH1 0x0 PUSH5 0x2540BE400 PUSH1 0x6 PUSH1 0x4 ADD SLOAD DUP8 PUSH1 0x20 ADD MLOAD PUSH3 0x506D SWAP2 SWAP1 PUSH3 0x878D JUMP JUMPDEST PUSH3 0x5079 SWAP2 SWAP1 PUSH3 0x8E74 JUMP JUMPDEST SWAP1 POP PUSH1 0x0 PUSH5 0x2540BE400 PUSH1 0x6 PUSH1 0x5 ADD SLOAD DUP9 PUSH1 0x20 ADD MLOAD PUSH3 0x509A SWAP2 SWAP1 PUSH3 0x878D JUMP JUMPDEST PUSH3 0x50A6 SWAP2 SWAP1 PUSH3 0x8E74 JUMP JUMPDEST SWAP1 POP PUSH1 0x0 DUP3 DUP5 GT PUSH3 0x50C0 JUMPI PUSH1 0x6 PUSH1 0x3 ADD SLOAD SWAP1 POP PUSH3 0x5145 JUMP JUMPDEST DUP4 DUP4 LT DUP1 ISZERO PUSH3 0x50CF JUMPI POP DUP2 DUP5 LT JUMPDEST ISZERO PUSH3 0x513B JUMPI DUP3 DUP3 PUSH3 0x50E3 SWAP2 SWAP1 PUSH3 0x8D98 JUMP JUMPDEST PUSH1 0x6 PUSH1 0x2 ADD SLOAD PUSH1 0x6 PUSH1 0x3 ADD SLOAD PUSH3 0x50FB SWAP2 SWAP1 PUSH3 0x8D98 JUMP JUMPDEST DUP5 DUP7 PUSH3 0x5109 SWAP2 SWAP1 PUSH3 0x8D98 JUMP JUMPDEST PUSH3 0x5115 SWAP2 SWAP1 PUSH3 0x878D JUMP JUMPDEST PUSH3 0x5121 SWAP2 SWAP1 PUSH3 0x8E74 JUMP JUMPDEST PUSH1 0x6 PUSH1 0x3 ADD SLOAD PUSH3 0x5133 SWAP2 SWAP1 PUSH3 0x8D98 JUMP JUMPDEST SWAP1 POP PUSH3 0x5144 JUMP JUMPDEST PUSH1 0x6 PUSH1 0x2 ADD SLOAD SWAP1 POP JUMPDEST JUMPDEST DUP1 PUSH2 0x2710 PUSH3 0x5155 SWAP2 SWAP1 PUSH3 0x8D98 JUMP JUMPDEST SWAP7 POP POP POP POP POP POP POP SWAP3 SWAP2 POP POP JUMP JUMPDEST PUSH1 0x0 PUSH1 0x13 PUSH1 0x0 SWAP1 SLOAD SWAP1 PUSH2 0x100 EXP SWAP1 DIV PUSH20 0xFFFFFFFFFFFFFFFFFFFFFFFFFFFFFFFFFFFFFFFF AND SWAP1 POP DUP2 PUSH1 0x13 PUSH1 0x0 PUSH2 0x100 EXP DUP2 SLOAD DUP2 PUSH20 0xFFFFFFFFFFFFFFFFFFFFFFFFFFFFFFFFFFFFFFFF MUL NOT AND SWAP1 DUP4 PUSH20 0xFFFFFFFFFFFFFFFFFFFFFFFFFFFFFFFFFFFFFFFF AND MUL OR SWAP1 SSTORE POP DUP2 PUSH20 0xFFFFFFFFFFFFFFFFFFFFFFFFFFFFFFFFFFFFFFFF AND DUP2 PUSH20 0xFFFFFFFFFFFFFFFFFFFFFFFFFFFFFFFFFFFFFFFF AND PUSH32 0x8BE0079C531659141344CD1FD0A4F28419497F9722A3DAAFE3B4186F6B6457E0 PUSH1 0x40 MLOAD PUSH1 0x40 MLOAD DUP1 SWAP2 SUB SWAP1 LOG3 POP POP JUMP JUMPDEST PUSH1 0x0 DUP1 PUSH1 0x2 PUSH1 0x0 DUP7 PUSH20 0xFFFFFFFFFFFFFFFFFFFFFFFFFFFFFFFFFFFFFFFF AND PUSH20 0xFFFFFFFFFFFFFFFFFFFFFFFFFFFFFFFFFFFFFFFF AND DUP2 MSTORE PUSH1 0x20 ADD SWAP1 DUP2 MSTORE PUSH1 0x20 ADD PUSH1 0x0 KECCAK256 SLOAD SWAP1 POP PUSH1 0x0 PUSH1 0x1 DUP3 DUP2 SLOAD DUP2 LT PUSH3 0x5287 JUMPI PUSH3 0x5286 PUSH3 0x8C85 JUMP JUMPDEST JUMPDEST SWAP1 PUSH1 0x0 MSTORE PUSH1 0x20 PUSH1 0x0 KECCAK256 SWAP1 PUSH1 0x3 MUL ADD SWAP1 POP PUSH1 0x0 PUSH3 0x52C9 DUP8 DUP4 PUSH1 0x0 ADD PUSH1 0x0 SWAP1 SLOAD SWAP1 PUSH2 0x100 EXP SWAP1 DIV PUSH20 0xFFFFFFFFFFFFFFFFFFFFFFFFFFFFFFFFFFFFFFFF AND PUSH3 0x47B2 JUMP JUMPDEST SWAP1 POP PUSH1 0x0 PUSH1 0xF PUSH1 0x0 DUP6 DUP2 MSTORE PUSH1 0x20 ADD SWAP1 DUP2 MSTORE PUSH1 0x20 ADD PUSH1 0x0 KECCAK256 SLOAD SWAP1 POP PUSH1 0x0 DUP2 DUP9 DUP5 PUSH1 0x0 ADD MLOAD PUSH3 0x52F8 SWAP2 SWAP1 PUSH3 0x878D JUMP JUMPDEST PUSH3 0x5304 SWAP2 SWAP1 PUSH3 0x8E74 JUMP JUMPDEST SWAP1 POP PUSH1 0x0 DUP3 DUP10 DUP6 PUSH1 0x20 ADD MLOAD PUSH3 0x531B SWAP2 SWAP1 PUSH3 0x878D JUMP JUMPDEST PUSH3 0x5327 SWAP2 SWAP1 PUSH3 0x8E74 JUMP JUMPDEST SWAP1 POP PUSH1 0x0 PUSH3 0x534B DUP6 PUSH1 0x20 ADD MLOAD DUP7 PUSH1 0x0 ADD MLOAD PUSH3 0x5345 SWAP2 SWAP1 PUSH3 0x878D JUMP JUMPDEST PUSH3 0x4A33 JUMP JUMPDEST SWAP1 POP PUSH1 0x0 PUSH3 0x538E DUP8 PUSH1 0x2 ADD PUSH1 0x0 SWAP1 SLOAD SWAP1 PUSH2 0x100 EXP SWAP1 DIV PUSH16 0xFFFFFFFFFFFFFFFFFFFFFFFFFFFFFFFF AND PUSH16 0xFFFFFFFFFFFFFFFFFFFFFFFFFFFFFFFF AND DUP4 DUP8 PUSH3 0x4ABC JUMP JUMPDEST SWAP1 POP PUSH3 0x53D2 PUSH1 0x6 PUSH1 0x0 ADD PUSH1 0x0 SWAP1 SLOAD SWAP1 PUSH2 0x100 EXP SWAP1 DIV PUSH20 0xFFFFFFFFFFFFFFFFFFFFFFFFFFFFFFFFFFFFFFFF AND DUP10 DUP4 PUSH1 0x40 MLOAD DUP1 PUSH1 0x20 ADD PUSH1 0x40 MSTORE DUP1 PUSH1 0x0 DUP2 MSTORE POP PUSH3 0x4B65 JUMP JUMPDEST PUSH1 0x0 PUSH1 0x40 MLOAD DUP1 PUSH1 0x40 ADD PUSH1 0x40 MSTORE DUP1 DUP7 DUP10 PUSH1 0x0 ADD MLOAD PUSH3 0x53F1 SWAP2 SWAP1 PUSH3 0x8D98 JUMP JUMPDEST DUP2 MSTORE PUSH1 0x20 ADD DUP6 DUP10 PUSH1 0x20 ADD MLOAD PUSH3 0x5408 SWAP2 SWAP1 PUSH3 0x8D98 JUMP JUMPDEST DUP2 MSTORE POP SWAP1 POP PUSH3 0x542D DUP2 PUSH1 0x20 ADD MLOAD DUP3 PUSH1 0x0 ADD MLOAD PUSH3 0x5427 SWAP2 SWAP1 PUSH3 0x878D JUMP JUMPDEST PUSH3 0x4A33 JUMP JUMPDEST DUP9 PUSH1 0x2 ADD PUSH1 0x0 PUSH2 0x100 EXP DUP2 SLOAD DUP2 PUSH16 0xFFFFFFFFFFFFFFFFFFFFFFFFFFFFFFFF MUL NOT AND SWAP1 DUP4 PUSH16 0xFFFFFFFFFFFFFFFFFFFFFFFFFFFFFFFF AND MUL OR SWAP1 SSTORE POP PUSH3 0x5474 CALLER DUP11 DUP15 PUSH3 0x7095 JUMP JUMPDEST PUSH1 0x0 DUP1 SLOAD SWAP1 PUSH2 0x100 EXP SWAP1 DIV PUSH20 0xFFFFFFFFFFFFFFFFFFFFFFFFFFFFFFFFFFFFFFFF AND PUSH20 0xFFFFFFFFFFFFFFFFFFFFFFFFFFFFFFFFFFFFFFFF AND PUSH4 0x18A8AD87 ADDRESS DUP7 PUSH1 0x40 MLOAD DUP4 PUSH4 0xFFFFFFFF AND PUSH1 0xE0 SHL DUP2 MSTORE PUSH1 0x4 ADD PUSH3 0x54D1 SWAP3 SWAP2 SWAP1 PUSH3 0x8EAC JUMP JUMPDEST PUSH1 0x0 PUSH1 0x40 MLOAD DUP1 DUP4 SUB DUP2 PUSH1 0x0 DUP8 DUP1 EXTCODESIZE ISZERO DUP1 ISZERO PUSH3 0x54EC JUMPI PUSH1 0x0 DUP1 REVERT JUMPDEST POP GAS CALL ISZERO DUP1 ISZERO PUSH3 0x5501 JUMPI RETURNDATASIZE PUSH1 0x0 DUP1 RETURNDATACOPY RETURNDATASIZE PUSH1 0x0 REVERT JUMPDEST POP POP POP POP PUSH3 0x5537 DUP14 DUP10 PUSH1 0x0 ADD PUSH1 0x0 SWAP1 SLOAD SWAP1 PUSH2 0x100 EXP SWAP1 DIV PUSH20 0xFFFFFFFFFFFFFFFFFFFFFFFFFFFFFFFFFFFFFFFF AND DUP14 DUP9 PUSH3 0x480F JUMP JUMPDEST PUSH32 0x1DC8BB69DF2B8E91FBDCBFCF93D951B3F0000F085A95FE3F7946D6161439245D DUP14 DUP7 DUP7 DUP16 PUSH1 0x40 MLOAD PUSH3 0x556E SWAP5 SWAP4 SWAP3 SWAP2 SWAP1 PUSH3 0x8ED9 JUMP JUMPDEST PUSH1 0x40 MLOAD DUP1 SWAP2 SUB SWAP1 LOG1 PUSH32 0x51AB1232A73B82B6B0ACB0FA91B834CF6E258A1858C4E23C72CE97241C71AA0D DUP14 DUP3 PUSH1 0x0 ADD MLOAD DUP4 PUSH1 0x20 ADD MLOAD DUP12 PUSH1 0x2 ADD PUSH1 0x10 SWAP1 SLOAD SWAP1 PUSH2 0x100 EXP SWAP1 DIV PUSH16 0xFFFFFFFFFFFFFFFFFFFFFFFFFFFFFFFF AND PUSH1 0x40 MLOAD PUSH3 0x55D5 SWAP5 SWAP4 SWAP3 SWAP2 SWAP1 PUSH3 0x8F5F JUMP JUMPDEST PUSH1 0x40 MLOAD DUP1 SWAP2 SUB SWAP1 LOG1 DUP5 SWAP10 POP POP POP POP POP POP POP POP POP POP SWAP4 SWAP3 POP POP POP JUMP JUMPDEST DUP5 PUSH1 0x0 PUSH1 0x2 PUSH1 0x0 DUP4 PUSH20 0xFFFFFFFFFFFFFFFFFFFFFFFFFFFFFFFFFFFFFFFF AND PUSH20 0xFFFFFFFFFFFFFFFFFFFFFFFFFFFFFFFFFFFFFFFF AND DUP2 MSTORE PUSH1 0x20 ADD SWAP1 DUP2 MSTORE PUSH1 0x20 ADD PUSH1 0x0 KECCAK256 SLOAD GT ISZERO PUSH3 0x566C JUMPI PUSH1 0x40 MLOAD PUSH32 0x402670DF00000000000000000000000000000000000000000000000000000000 DUP2 MSTORE PUSH1 0x4 ADD PUSH1 0x40 MLOAD DUP1 SWAP2 SUB SWAP1 REVERT JUMPDEST PUSH1 0x0 ADDRESS SWAP1 POP PUSH1 0x5 PUSH1 0x0 SWAP1 SLOAD SWAP1 PUSH2 0x100 EXP SWAP1 DIV PUSH20 0xFFFFFFFFFFFFFFFFFFFFFFFFFFFFFFFFFFFFFFFF AND PUSH20 0xFFFFFFFFFFFFFFFFFFFFFFFFFFFFFFFFFFFFFFFF AND DUP8 PUSH20 0xFFFFFFFFFFFFFFFFFFFFFFFFFFFFFFFFFFFFFFFF AND EQ PUSH3 0x5703 JUMPI DUP7 PUSH1 0x40 MLOAD PUSH3 0x56D6 SWAP1 PUSH3 0x74FA JUMP JUMPDEST PUSH3 0x56E2 SWAP2 SWAP1 PUSH3 0x7829 JUMP JUMPDEST PUSH1 0x40 MLOAD DUP1 SWAP2 SUB SWAP1 PUSH1 0x0 CREATE DUP1 ISZERO DUP1 ISZERO PUSH3 0x56FF JUMPI RETURNDATASIZE PUSH1 0x0 DUP1 RETURNDATACOPY RETURNDATASIZE PUSH1 0x0 REVERT JUMPDEST POP SWAP1 POP JUMPDEST PUSH3 0x5711 DUP8 CALLER DUP4 DUP10 PUSH3 0x480F JUMP JUMPDEST PUSH1 0x0 DUP1 SLOAD SWAP1 PUSH2 0x100 EXP SWAP1 DIV PUSH20 0xFFFFFFFFFFFFFFFFFFFFFFFFFFFFFFFFFFFFFFFF AND PUSH20 0xFFFFFFFFFFFFFFFFFFFFFFFFFFFFFFFFFFFFFFFF AND PUSH4 0xBB9FF5D DUP3 DUP8 PUSH1 0x40 MLOAD DUP4 PUSH4 0xFFFFFFFF AND PUSH1 0xE0 SHL DUP2 MSTORE PUSH1 0x4 ADD PUSH3 0x576E SWAP3 SWAP2 SWAP1 PUSH3 0x8EAC JUMP JUMPDEST PUSH1 0x0 PUSH1 0x40 MLOAD DUP1 DUP4 SUB DUP2 PUSH1 0x0 DUP8 DUP1 EXTCODESIZE ISZERO DUP1 ISZERO PUSH3 0x5789 JUMPI PUSH1 0x0 DUP1 REVERT JUMPDEST POP GAS CALL ISZERO DUP1 ISZERO PUSH3 0x579E JUMPI RETURNDATASIZE PUSH1 0x0 DUP1 RETURNDATACOPY RETURNDATASIZE PUSH1 0x0 REVERT JUMPDEST POP POP POP POP DUP7 PUSH20 0xFFFFFFFFFFFFFFFFFFFFFFFFFFFFFFFFFFFFFFFF AND PUSH4 0x70A08231 DUP3 PUSH1 0x40 MLOAD DUP3 PUSH4 0xFFFFFFFF AND PUSH1 0xE0 SHL DUP2 MSTORE PUSH1 0x4 ADD PUSH3 0x57DD SWAP2 SWAP1 PUSH3 0x7829 JUMP JUMPDEST PUSH1 0x20 PUSH1 0x40 MLOAD DUP1 DUP4 SUB DUP2 DUP7 GAS STATICCALL ISZERO DUP1 ISZERO PUSH3 0x57FB JUMPI RETURNDATASIZE PUSH1 0x0 DUP1 RETURNDATACOPY RETURNDATASIZE PUSH1 0x0 REVERT JUMPDEST POP POP POP POP PUSH1 0x40 MLOAD RETURNDATASIZE PUSH1 0x1F NOT PUSH1 0x1F DUP3 ADD AND DUP3 ADD DUP1 PUSH1 0x40 MSTORE POP DUP2 ADD SWAP1 PUSH3 0x5821 SWAP2 SWAP1 PUSH3 0x94DB JUMP JUMPDEST SWAP6 POP PUSH1 0x1 DUP7 GT PUSH3 0x5869 JUMPI PUSH1 0x40 MLOAD PUSH32 0x8C379A000000000000000000000000000000000000000000000000000000000 DUP2 MSTORE PUSH1 0x4 ADD PUSH3 0x5860 SWAP1 PUSH3 0x8E23 JUMP JUMPDEST PUSH1 0x40 MLOAD DUP1 SWAP2 SUB SWAP1 REVERT JUMPDEST PUSH1 0x0 PUSH3 0x5883 DUP7 DUP9 PUSH3 0x587D SWAP2 SWAP1 PUSH3 0x878D JUMP JUMPDEST PUSH3 0x4A33 JUMP JUMPDEST SWAP1 POP PUSH3 0x588F PUSH3 0x7508 JUMP JUMPDEST PUSH1 0x0 PUSH1 0x40 MLOAD DUP1 PUSH1 0x80 ADD PUSH1 0x40 MSTORE DUP1 DUP6 PUSH20 0xFFFFFFFFFFFFFFFFFFFFFFFFFFFFFFFFFFFFFFFF AND DUP2 MSTORE PUSH1 0x20 ADD DUP4 DUP2 MSTORE PUSH1 0x20 ADD DUP5 PUSH16 0xFFFFFFFFFFFFFFFFFFFFFFFFFFFFFFFF AND DUP2 MSTORE PUSH1 0x20 ADD DUP9 PUSH16 0xFFFFFFFFFFFFFFFFFFFFFFFFFFFFFFFF AND DUP2 MSTORE POP SWAP1 POP PUSH1 0x0 PUSH1 0x1 DUP1 SLOAD SWAP1 POP SWAP1 POP PUSH1 0x1 DUP3 SWAP1 DUP1 PUSH1 0x1 DUP2 SLOAD ADD DUP1 DUP3 SSTORE DUP1 SWAP2 POP POP PUSH1 0x1 SWAP1 SUB SWAP1 PUSH1 0x0 MSTORE PUSH1 0x20 PUSH1 0x0 KECCAK256 SWAP1 PUSH1 0x3 MUL ADD PUSH1 0x0 SWAP1 SWAP2 SWAP1 SWAP2 SWAP1 SWAP2 POP PUSH1 0x0 DUP3 ADD MLOAD DUP2 PUSH1 0x0 ADD PUSH1 0x0 PUSH2 0x100 EXP DUP2 SLOAD DUP2 PUSH20 0xFFFFFFFFFFFFFFFFFFFFFFFFFFFFFFFFFFFFFFFF MUL NOT AND SWAP1 DUP4 PUSH20 0xFFFFFFFFFFFFFFFFFFFFFFFFFFFFFFFFFFFFFFFF AND MUL OR SWAP1 SSTORE POP PUSH1 0x20 DUP3 ADD MLOAD DUP2 PUSH1 0x1 ADD SWAP1 PUSH1 0x8 PUSH3 0x5984 SWAP3 SWAP2 SWAP1 PUSH3 0x752B JUMP JUMPDEST POP PUSH1 0x40 DUP3 ADD MLOAD DUP2 PUSH1 0x2 ADD PUSH1 0x0 PUSH2 0x100 EXP DUP2 SLOAD DUP2 PUSH16 0xFFFFFFFFFFFFFFFFFFFFFFFFFFFFFFFF MUL NOT AND SWAP1 DUP4 PUSH16 0xFFFFFFFFFFFFFFFFFFFFFFFFFFFFFFFF AND MUL OR SWAP1 SSTORE POP PUSH1 0x60 DUP3 ADD MLOAD DUP2 PUSH1 0x2 ADD PUSH1 0x10 PUSH2 0x100 EXP DUP2 SLOAD DUP2 PUSH16 0xFFFFFFFFFFFFFFFFFFFFFFFFFFFFFFFF MUL NOT AND SWAP1 DUP4 PUSH16 0xFFFFFFFFFFFFFFFFFFFFFFFFFFFFFFFF AND MUL OR SWAP1 SSTORE POP POP POP DUP1 PUSH1 0x2 PUSH1 0x0 DUP14 PUSH20 0xFFFFFFFFFFFFFFFFFFFFFFFFFFFFFFFFFFFFFFFF AND PUSH20 0xFFFFFFFFFFFFFFFFFFFFFFFFFFFFFFFFFFFFFFFF AND DUP2 MSTORE PUSH1 0x20 ADD SWAP1 DUP2 MSTORE PUSH1 0x20 ADD PUSH1 0x0 KECCAK256 DUP2 SWAP1 SSTORE POP PUSH3 0x5A6A PUSH2 0xDEAD DUP3 PUSH2 0x3E8 PUSH1 0x40 MLOAD DUP1 PUSH1 0x20 ADD PUSH1 0x40 MSTORE DUP1 PUSH1 0x0 DUP2 MSTORE POP PUSH3 0x4B65 JUMP JUMPDEST PUSH1 0x0 PUSH2 0x3E8 DUP6 PUSH3 0x5A7C SWAP2 SWAP1 PUSH3 0x8D98 JUMP JUMPDEST SWAP1 POP PUSH3 0x5A9B DUP9 DUP4 DUP4 PUSH1 0x40 MLOAD DUP1 PUSH1 0x20 ADD PUSH1 0x40 MSTORE DUP1 PUSH1 0x0 DUP2 MSTORE POP PUSH3 0x4B65 JUMP JUMPDEST PUSH32 0x17AA8D0E85DB1D0531A8181B5BB84E1D4ED744DB1CADD8814ACD3D181FF30137 DUP13 DUP4 PUSH1 0x40 MLOAD PUSH3 0x5ACE SWAP3 SWAP2 SWAP1 PUSH3 0x8EAC JUMP JUMPDEST PUSH1 0x40 MLOAD DUP1 SWAP2 SUB SWAP1 LOG1 PUSH32 0x64B83944E79C3CE8D4C297411DE637C3E102D064677AAC0C163976EBDCD6F50E DUP13 DUP13 DUP13 DUP5 PUSH1 0x40 MLOAD PUSH3 0x5B0D SWAP5 SWAP4 SWAP3 SWAP2 SWAP1 PUSH3 0x8ED9 JUMP JUMPDEST PUSH1 0x40 MLOAD DUP1 SWAP2 SUB SWAP1 LOG1 PUSH32 0x51AB1232A73B82B6B0ACB0FA91B834CF6E258A1858C4E23C72CE97241C71AA0D DUP13 DUP13 DUP13 DUP13 PUSH1 0x40 MLOAD PUSH3 0x5B4C SWAP5 SWAP4 SWAP3 SWAP2 SWAP1 PUSH3 0x8ED9 JUMP JUMPDEST PUSH1 0x40 MLOAD DUP1 SWAP2 SUB SWAP1 LOG1 POP POP POP POP POP POP POP POP POP POP POP POP JUMP JUMPDEST DUP2 PUSH20 0xFFFFFFFFFFFFFFFFFFFFFFFFFFFFFFFFFFFFFFFF AND DUP4 PUSH20 0xFFFFFFFFFFFFFFFFFFFFFFFFFFFFFFFFFFFFFFFF AND EQ ISZERO PUSH3 0x5BC9 JUMPI PUSH1 0x40 MLOAD PUSH32 0xC0532DC800000000000000000000000000000000000000000000000000000000 DUP2 MSTORE PUSH1 0x4 ADD PUSH1 0x40 MLOAD DUP1 SWAP2 SUB SWAP1 REVERT JUMPDEST DUP1 PUSH1 0xD PUSH1 0x0 DUP6 PUSH20 0xFFFFFFFFFFFFFFFFFFFFFFFFFFFFFFFFFFFFFFFF AND PUSH20 0xFFFFFFFFFFFFFFFFFFFFFFFFFFFFFFFFFFFFFFFF AND DUP2 MSTORE PUSH1 0x20 ADD SWAP1 DUP2 MSTORE PUSH1 0x20 ADD PUSH1 0x0 KECCAK256 PUSH1 0x0 DUP5 PUSH20 0xFFFFFFFFFFFFFFFFFFFFFFFFFFFFFFFFFFFFFFFF AND PUSH20 0xFFFFFFFFFFFFFFFFFFFFFFFFFFFFFFFFFFFFFFFF AND DUP2 MSTORE PUSH1 0x20 ADD SWAP1 DUP2 MSTORE PUSH1 0x20 ADD PUSH1 0x0 KECCAK256 PUSH1 0x0 PUSH2 0x100 EXP DUP2 SLOAD DUP2 PUSH1 0xFF MUL NOT AND SWAP1 DUP4 ISZERO ISZERO MUL OR SWAP1 SSTORE POP DUP2 PUSH20 0xFFFFFFFFFFFFFFFFFFFFFFFFFFFFFFFFFFFFFFFF AND DUP4 PUSH20 0xFFFFFFFFFFFFFFFFFFFFFFFFFFFFFFFFFFFFFFFF AND PUSH32 0x17307EAB39AB6107E8899845AD3D59BD9653F200F220920489CA2B5937696C31 DUP4 PUSH1 0x40 MLOAD PUSH3 0x5CBC SWAP2 SWAP1 PUSH3 0x77C9 JUMP JUMPDEST PUSH1 0x40 MLOAD DUP1 SWAP2 SUB SWAP1 LOG3 POP POP POP JUMP JUMPDEST DUP5 PUSH1 0x0 PUSH1 0x2 PUSH1 0x0 DUP4 PUSH20 0xFFFFFFFFFFFFFFFFFFFFFFFFFFFFFFFFFFFFFFFF AND PUSH20 0xFFFFFFFFFFFFFFFFFFFFFFFFFFFFFFFFFFFFFFFF AND DUP2 MSTORE PUSH1 0x20 ADD SWAP1 DUP2 MSTORE PUSH1 0x20 ADD PUSH1 0x0 KECCAK256 SLOAD EQ DUP1 PUSH3 0x5D64 JUMPI POP PUSH1 0x0 DUP1 SLOAD SWAP1 PUSH2 0x100 EXP SWAP1 DIV PUSH20 0xFFFFFFFFFFFFFFFFFFFFFFFFFFFFFFFFFFFFFFFF AND PUSH20 0xFFFFFFFFFFFFFFFFFFFFFFFFFFFFFFFFFFFFFFFF AND DUP2 PUSH20 0xFFFFFFFFFFFFFFFFFFFFFFFFFFFFFFFFFFFFFFFF AND EQ JUMPDEST ISZERO PUSH3 0x5DA7 JUMPI PUSH1 0x40 MLOAD PUSH32 0x8C379A000000000000000000000000000000000000000000000000000000000 DUP2 MSTORE PUSH1 0x4 ADD PUSH3 0x5D9E SWAP1 PUSH3 0x8D04 JUMP JUMPDEST PUSH1 0x40 MLOAD DUP1 SWAP2 SUB SWAP1 REVERT JUMPDEST PUSH1 0x0 PUSH1 0x1 PUSH1 0x2 PUSH1 0x0 DUP10 PUSH20 0xFFFFFFFFFFFFFFFFFFFFFFFFFFFFFFFFFFFFFFFF AND PUSH20 0xFFFFFFFFFFFFFFFFFFFFFFFFFFFFFFFFFFFFFFFF AND DUP2 MSTORE PUSH1 0x20 ADD SWAP1 DUP2 MSTORE PUSH1 0x20 ADD PUSH1 0x0 KECCAK256 SLOAD DUP2 SLOAD DUP2 LT PUSH3 0x5DFF JUMPI PUSH3 0x5DFE PUSH3 0x8C85 JUMP JUMPDEST JUMPDEST SWAP1 PUSH1 0x0 MSTORE PUSH1 0x20 PUSH1 0x0 KECCAK256 SWAP1 PUSH1 0x3 MUL ADD SWAP1 POP PUSH1 0x0 PUSH3 0x5E41 DUP9 DUP4 PUSH1 0x0 ADD PUSH1 0x0 SWAP1 SLOAD SWAP1 PUSH2 0x100 EXP SWAP1 DIV PUSH20 0xFFFFFFFFFFFFFFFFFFFFFFFFFFFFFFFFFFFFFFFF AND PUSH3 0x47B2 JUMP JUMPDEST SWAP1 POP PUSH1 0x0 DUP8 PUSH1 0x20 ADD MLOAD DUP3 PUSH1 0x20 ADD MLOAD PUSH3 0x5E5B SWAP2 SWAP1 PUSH3 0x8D98 JUMP JUMPDEST SWAP1 POP PUSH1 0x0 DUP9 PUSH1 0x0 ADD MLOAD DUP4 PUSH1 0x0 ADD MLOAD PUSH3 0x5E75 SWAP2 SWAP1 PUSH3 0x8D98 JUMP JUMPDEST SWAP1 POP PUSH1 0x1 DUP3 DUP3 PUSH3 0x5E87 SWAP2 SWAP1 PUSH3 0x8C28 JUMP JUMPDEST GT PUSH3 0x5ECA JUMPI PUSH1 0x40 MLOAD PUSH32 0x8C379A000000000000000000000000000000000000000000000000000000000 DUP2 MSTORE PUSH1 0x4 ADD PUSH3 0x5EC1 SWAP1 PUSH3 0x955D JUMP JUMPDEST PUSH1 0x40 MLOAD DUP1 SWAP2 SUB SWAP1 REVERT JUMPDEST PUSH16 0xFFFFFFFFFFFFFFFFFFFFFFFFFFFFFFFF DUP1 AND DUP5 PUSH1 0x2 ADD PUSH1 0x10 SWAP1 SLOAD SWAP1 PUSH2 0x100 EXP SWAP1 DIV PUSH16 0xFFFFFFFFFFFFFFFFFFFFFFFFFFFFFFFF AND PUSH16 0xFFFFFFFFFFFFFFFFFFFFFFFFFFFFFFFF AND LT DUP1 ISZERO PUSH3 0x5F5C JUMPI POP DUP7 DUP3 DUP6 PUSH1 0x2 ADD PUSH1 0x10 SWAP1 SLOAD SWAP1 PUSH2 0x100 EXP SWAP1 DIV PUSH16 0xFFFFFFFFFFFFFFFFFFFFFFFFFFFFFFFF AND PUSH16 0xFFFFFFFFFFFFFFFFFFFFFFFFFFFFFFFF AND PUSH3 0x5F5A SWAP2 SWAP1 PUSH3 0x8C28 JUMP JUMPDEST LT JUMPDEST ISZERO PUSH3 0x5F9F JUMPI PUSH1 0x40 MLOAD PUSH32 0x8C379A000000000000000000000000000000000000000000000000000000000 DUP2 MSTORE PUSH1 0x4 ADD PUSH3 0x5F96 SWAP1 PUSH3 0x95CF JUMP JUMPDEST PUSH1 0x40 MLOAD DUP1 SWAP2 SUB SWAP1 REVERT JUMPDEST PUSH1 0x0 PUSH2 0x2710 DUP1 PUSH3 0x5FB1 SWAP2 SWAP1 PUSH3 0x878D JUMP JUMPDEST DUP11 PUSH1 0x20 ADD MLOAD DUP12 PUSH1 0x0 ADD MLOAD PUSH3 0x5FC7 SWAP2 SWAP1 PUSH3 0x878D JUMP JUMPDEST PUSH3 0x5FD3 SWAP2 SWAP1 PUSH3 0x878D JUMP JUMPDEST SWAP1 POP DUP9 DUP3 DUP6 PUSH1 0x0 ADD MLOAD PUSH3 0x5FE8 SWAP2 SWAP1 PUSH3 0x8C28 JUMP JUMPDEST PUSH3 0x5FF4 SWAP2 SWAP1 PUSH3 0x8D98 JUMP JUMPDEST DUP5 PUSH1 0x0 ADD DUP2 DUP2 MSTORE POP POP DUP8 DUP4 DUP6 PUSH1 0x20 ADD MLOAD PUSH3 0x6010 SWAP2 SWAP1 PUSH3 0x8C28 JUMP JUMPDEST PUSH3 0x601C SWAP2 SWAP1 PUSH3 0x8D98 JUMP JUMPDEST DUP5 PUSH1 0x20 ADD DUP2 DUP2 MSTORE POP POP PUSH1 0x0 PUSH1 0x1 DUP5 GT DUP1 ISZERO PUSH3 0x6039 JUMPI POP PUSH1 0x1 DUP4 GT ISZERO JUMPDEST PUSH3 0x6050 JUMPI PUSH3 0x604A DUP7 DUP13 PUSH3 0x4F7C JUMP JUMPDEST PUSH3 0x6054 JUMP JUMPDEST PUSH2 0x2710 JUMPDEST SWAP1 POP PUSH1 0x0 DUP2 PUSH2 0x2710 PUSH3 0x6068 SWAP2 SWAP1 PUSH3 0x8D98 JUMP JUMPDEST DUP5 PUSH3 0x6075 SWAP2 SWAP1 PUSH3 0x878D JUMP JUMPDEST PUSH2 0x2710 DUP8 PUSH1 0x0 ADD MLOAD PUSH3 0x6089 SWAP2 SWAP1 PUSH3 0x878D JUMP JUMPDEST PUSH3 0x6095 SWAP2 SWAP1 PUSH3 0x8D98 JUMP JUMPDEST DUP3 PUSH2 0x2710 PUSH3 0x60A5 SWAP2 SWAP1 PUSH3 0x8D98 JUMP JUMPDEST DUP7 PUSH3 0x60B2 SWAP2 SWAP1 PUSH3 0x878D JUMP JUMPDEST PUSH2 0x2710 DUP9 PUSH1 0x20 ADD MLOAD PUSH3 0x60C6 SWAP2 SWAP1 PUSH3 0x878D JUMP JUMPDEST PUSH3 0x60D2 SWAP2 SWAP1 PUSH3 0x8D98 JUMP JUMPDEST PUSH3 0x60DE SWAP2 SWAP1 PUSH3 0x878D JUMP JUMPDEST SWAP1 POP DUP3 DUP2 LT ISZERO PUSH3 0x6126 JUMPI PUSH1 0x40 MLOAD PUSH32 0x8C379A000000000000000000000000000000000000000000000000000000000 DUP2 MSTORE PUSH1 0x4 ADD PUSH3 0x611D SWAP1 PUSH3 0x9641 JUMP JUMPDEST PUSH1 0x40 MLOAD DUP1 SWAP2 SUB SWAP1 REVERT JUMPDEST PUSH16 0xFFFFFFFFFFFFFFFFFFFFFFFFFFFFFFFF DUP1 AND DUP8 PUSH1 0x2 ADD PUSH1 0x10 SWAP1 SLOAD SWAP1 PUSH2 0x100 EXP SWAP1 DIV PUSH16 0xFFFFFFFFFFFFFFFFFFFFFFFFFFFFFFFF AND PUSH16 0xFFFFFFFFFFFFFFFFFFFFFFFFFFFFFFFF AND LT ISZERO PUSH3 0x61FB JUMPI DUP10 DUP6 DUP9 PUSH1 0x2 ADD PUSH1 0x10 SWAP1 SLOAD SWAP1 PUSH2 0x100 EXP SWAP1 DIV PUSH16 0xFFFFFFFFFFFFFFFFFFFFFFFFFFFFFFFF AND PUSH16 0xFFFFFFFFFFFFFFFFFFFFFFFFFFFFFFFF AND PUSH3 0x61B4 SWAP2 SWAP1 PUSH3 0x8C28 JUMP JUMPDEST PUSH3 0x61C0 SWAP2 SWAP1 PUSH3 0x8D98 JUMP JUMPDEST DUP8 PUSH1 0x2 ADD PUSH1 0x10 PUSH2 0x100 EXP DUP2 SLOAD DUP2 PUSH16 0xFFFFFFFFFFFFFFFFFFFFFFFFFFFFFFFF MUL NOT AND SWAP1 DUP4 PUSH16 0xFFFFFFFFFFFFFFFFFFFFFFFFFFFFFFFF AND MUL OR SWAP1 SSTORE POP JUMPDEST PUSH1 0x0 PUSH3 0x6207 PUSH3 0x7070 JUMP JUMPDEST SWAP1 POP PUSH1 0x0 PUSH1 0x8 PUSH1 0x1 DUP4 PUSH3 0x621C SWAP2 SWAP1 PUSH3 0x8C28 JUMP JUMPDEST PUSH3 0x6228 SWAP2 SWAP1 PUSH3 0x948C JUMP JUMPDEST SWAP1 POP PUSH8 0x8AC7230489E80000 DUP13 GT ISZERO PUSH3 0x62FB JUMPI PUSH1 0x0 PUSH8 0x8AC7230489E80000 DUP14 PUSH3 0x6253 SWAP2 SWAP1 PUSH3 0x8E74 JUMP JUMPDEST DUP11 PUSH1 0x1 ADD DUP5 PUSH1 0x8 DUP2 LT PUSH3 0x626C JUMPI PUSH3 0x626B PUSH3 0x8C85 JUMP JUMPDEST JUMPDEST PUSH1 0x8 SWAP2 DUP3 DUP3 DIV ADD SWAP2 SWAP1 MOD PUSH1 0x4 MUL SWAP1 SLOAD SWAP1 PUSH2 0x100 EXP SWAP1 DIV PUSH4 0xFFFFFFFF AND PUSH4 0xFFFFFFFF AND PUSH3 0x629A SWAP2 SWAP1 PUSH3 0x8C28 JUMP JUMPDEST SWAP1 POP PUSH4 0xFFFFFFFF DUP1 AND DUP2 LT PUSH3 0x62B5 JUMPI PUSH4 0xFFFFFFFF PUSH3 0x62B7 JUMP JUMPDEST DUP1 JUMPDEST DUP11 PUSH1 0x1 ADD DUP5 PUSH1 0x8 DUP2 LT PUSH3 0x62D0 JUMPI PUSH3 0x62CF PUSH3 0x8C85 JUMP JUMPDEST JUMPDEST PUSH1 0x8 SWAP2 DUP3 DUP3 DIV ADD SWAP2 SWAP1 MOD PUSH1 0x4 MUL PUSH2 0x100 EXP DUP2 SLOAD DUP2 PUSH4 0xFFFFFFFF MUL NOT AND SWAP1 DUP4 PUSH4 0xFFFFFFFF AND MUL OR SWAP1 SSTORE POP POP JUMPDEST PUSH1 0x1 DUP10 PUSH1 0x1 ADD DUP3 PUSH1 0x8 DUP2 LT PUSH3 0x6316 JUMPI PUSH3 0x6315 PUSH3 0x8C85 JUMP JUMPDEST JUMPDEST PUSH1 0x8 SWAP2 DUP3 DUP3 DIV ADD SWAP2 SWAP1 MOD PUSH1 0x4 MUL SWAP1 SLOAD SWAP1 PUSH2 0x100 EXP SWAP1 DIV PUSH4 0xFFFFFFFF AND PUSH4 0xFFFFFFFF AND GT ISZERO PUSH3 0x6384 JUMPI PUSH1 0x1 DUP10 PUSH1 0x1 ADD DUP3 PUSH1 0x8 DUP2 LT PUSH3 0x635A JUMPI PUSH3 0x6359 PUSH3 0x8C85 JUMP JUMPDEST JUMPDEST PUSH1 0x8 SWAP2 DUP3 DUP3 DIV ADD SWAP2 SWAP1 MOD PUSH1 0x4 MUL PUSH2 0x100 EXP DUP2 SLOAD DUP2 PUSH4 0xFFFFFFFF MUL NOT AND SWAP1 DUP4 PUSH4 0xFFFFFFFF AND MUL OR SWAP1 SSTORE POP JUMPDEST POP POP POP PUSH3 0x63B9 DUP13 DUP8 PUSH1 0x0 ADD PUSH1 0x0 SWAP1 SLOAD SWAP1 PUSH2 0x100 EXP SWAP1 DIV PUSH20 0xFFFFFFFFFFFFFFFFFFFFFFFFFFFFFFFFFFFFFFFF AND DUP11 DUP14 PUSH3 0x480F JUMP JUMPDEST PUSH3 0x640B PUSH1 0x0 DUP1 SLOAD SWAP1 PUSH2 0x100 EXP SWAP1 DIV PUSH20 0xFFFFFFFFFFFFFFFFFFFFFFFFFFFFFFFFFFFFFFFF AND DUP8 PUSH1 0x0 ADD PUSH1 0x0 SWAP1 SLOAD SWAP1 PUSH2 0x100 EXP SWAP1 DIV PUSH20 0xFFFFFFFFFFFFFFFFFFFFFFFFFFFFFFFFFFFFFFFF AND DUP11 DUP13 PUSH3 0x480F JUMP JUMPDEST PUSH32 0x4AB7F3F4678BF8F6CBE4D85E4007B7C64DF8E1D5D97DE1628F4A6416F9D1DB03 DUP13 CALLER DUP6 DUP8 DUP15 DUP15 DUP8 PUSH2 0x2710 PUSH3 0x6442 SWAP2 SWAP1 PUSH3 0x8D98 JUMP JUMPDEST DUP16 PUSH1 0x40 MLOAD PUSH3 0x6459 SWAP9 SWAP8 SWAP7 SWAP6 SWAP5 SWAP4 SWAP3 SWAP2 SWAP1 PUSH3 0x9663 JUMP JUMPDEST PUSH1 0x40 MLOAD DUP1 SWAP2 SUB SWAP1 LOG1 PUSH32 0x51AB1232A73B82B6B0ACB0FA91B834CF6E258A1858C4E23C72CE97241C71AA0D DUP13 DUP7 PUSH1 0x0 ADD MLOAD DUP8 PUSH1 0x20 ADD MLOAD DUP10 PUSH1 0x2 ADD PUSH1 0x10 SWAP1 SLOAD SWAP1 PUSH2 0x100 EXP SWAP1 DIV PUSH16 0xFFFFFFFFFFFFFFFFFFFFFFFFFFFFFFFF AND PUSH1 0x40 MLOAD PUSH3 0x64C0 SWAP5 SWAP4 SWAP3 SWAP2 SWAP1 PUSH3 0x8F5F JUMP JUMPDEST PUSH1 0x40 MLOAD DUP1 SWAP2 SUB SWAP1 LOG1 POP POP POP POP POP POP POP POP POP POP POP POP JUMP JUMPDEST DUP1 PUSH1 0xE SWAP1 DUP1 MLOAD SWAP1 PUSH1 0x20 ADD SWAP1 PUSH3 0x64EE SWAP3 SWAP2 SWAP1 PUSH3 0x7372 JUMP JUMPDEST POP POP JUMP JUMPDEST PUSH1 0x0 DUP3 PUSH1 0x0 PUSH1 0x2 PUSH1 0x0 DUP4 PUSH20 0xFFFFFFFFFFFFFFFFFFFFFFFFFFFFFFFFFFFFFFFF AND PUSH20 0xFFFFFFFFFFFFFFFFFFFFFFFFFFFFFFFFFFFFFFFF AND DUP2 MSTORE PUSH1 0x20 ADD SWAP1 DUP2 MSTORE PUSH1 0x20 ADD PUSH1 0x0 KECCAK256 SLOAD EQ DUP1 PUSH3 0x658F JUMPI POP PUSH1 0x0 DUP1 SLOAD SWAP1 PUSH2 0x100 EXP SWAP1 DIV PUSH20 0xFFFFFFFFFFFFFFFFFFFFFFFFFFFFFFFFFFFFFFFF AND PUSH20 0xFFFFFFFFFFFFFFFFFFFFFFFFFFFFFFFFFFFFFFFF AND DUP2 PUSH20 0xFFFFFFFFFFFFFFFFFFFFFFFFFFFFFFFFFFFFFFFF AND EQ JUMPDEST ISZERO PUSH3 0x65D2 JUMPI PUSH1 0x40 MLOAD PUSH32 0x8C379A000000000000000000000000000000000000000000000000000000000 DUP2 MSTORE PUSH1 0x4 ADD PUSH3 0x65C9 SWAP1 PUSH3 0x8D04 JUMP JUMPDEST PUSH1 0x40 MLOAD DUP1 SWAP2 SUB SWAP1 REVERT JUMPDEST PUSH1 0x0 PUSH1 0x1 PUSH1 0x2 PUSH1 0x0 DUP8 PUSH20 0xFFFFFFFFFFFFFFFFFFFFFFFFFFFFFFFFFFFFFFFF AND PUSH20 0xFFFFFFFFFFFFFFFFFFFFFFFFFFFFFFFFFFFFFFFF AND DUP2 MSTORE PUSH1 0x20 ADD SWAP1 DUP2 MSTORE PUSH1 0x20 ADD PUSH1 0x0 KECCAK256 SLOAD DUP2 SLOAD DUP2 LT PUSH3 0x662A JUMPI PUSH3 0x6629 PUSH3 0x8C85 JUMP JUMPDEST JUMPDEST SWAP1 PUSH1 0x0 MSTORE PUSH1 0x20 PUSH1 0x0 KECCAK256 SWAP1 PUSH1 0x3 MUL ADD SWAP1 POP PUSH3 0x665B DUP5 DUP8 PUSH1 0x0 ADD MLOAD DUP9 PUSH1 0x20 ADD MLOAD PUSH3 0x6655 DUP6 DUP12 PUSH3 0x4F7C JUMP JUMPDEST PUSH3 0x7292 JUMP JUMPDEST SWAP3 POP POP POP SWAP4 SWAP3 POP POP POP JUMP JUMPDEST PUSH1 0x0 DUP3 PUSH1 0x0 PUSH1 0x2 PUSH1 0x0 DUP4 PUSH20 0xFFFFFFFFFFFFFFFFFFFFFFFFFFFFFFFFFFFFFFFF AND PUSH20 0xFFFFFFFFFFFFFFFFFFFFFFFFFFFFFFFFFFFFFFFF AND DUP2 MSTORE PUSH1 0x20 ADD SWAP1 DUP2 MSTORE PUSH1 0x20 ADD PUSH1 0x0 KECCAK256 SLOAD EQ DUP1 PUSH3 0x6703 JUMPI POP PUSH1 0x0 DUP1 SLOAD SWAP1 PUSH2 0x100 EXP SWAP1 DIV PUSH20 0xFFFFFFFFFFFFFFFFFFFFFFFFFFFFFFFFFFFFFFFF AND PUSH20 0xFFFFFFFFFFFFFFFFFFFFFFFFFFFFFFFFFFFFFFFF AND DUP2 PUSH20 0xFFFFFFFFFFFFFFFFFFFFFFFFFFFFFFFFFFFFFFFF AND EQ JUMPDEST ISZERO PUSH3 0x6746 JUMPI PUSH1 0x40 MLOAD PUSH32 0x8C379A000000000000000000000000000000000000000000000000000000000 DUP2 MSTORE PUSH1 0x4 ADD PUSH3 0x673D SWAP1 PUSH3 0x8D04 JUMP JUMPDEST PUSH1 0x40 MLOAD DUP1 SWAP2 SUB SWAP1 REVERT JUMPDEST PUSH3 0x675E DUP4 DUP7 PUSH1 0x20 ADD MLOAD DUP8 PUSH1 0x0 ADD MLOAD PUSH2 0x2710 PUSH3 0x7292 JUMP JUMPDEST SWAP2 POP POP SWAP4 SWAP3 POP POP POP JUMP JUMPDEST PUSH1 0x0 PUSH20 0xFFFFFFFFFFFFFFFFFFFFFFFFFFFFFFFFFFFFFFFF AND DUP6 PUSH20 0xFFFFFFFFFFFFFFFFFFFFFFFFFFFFFFFFFFFFFFFF AND EQ ISZERO PUSH3 0x67D0 JUMPI PUSH1 0x40 MLOAD PUSH32 0x3E63C34800000000000000000000000000000000000000000000000000000000 DUP2 MSTORE PUSH1 0x4 ADD PUSH1 0x40 MLOAD DUP1 SWAP2 SUB SWAP1 REVERT JUMPDEST PUSH1 0x0 CALLER SWAP1 POP PUSH1 0x0 PUSH1 0xC PUSH1 0x0 DUP8 DUP2 MSTORE PUSH1 0x20 ADD SWAP1 DUP2 MSTORE PUSH1 0x20 ADD PUSH1 0x0 KECCAK256 PUSH1 0x0 DUP10 PUSH20 0xFFFFFFFFFFFFFFFFFFFFFFFFFFFFFFFFFFFFFFFF AND PUSH20 0xFFFFFFFFFFFFFFFFFFFFFFFFFFFFFFFFFFFFFFFF AND DUP2 MSTORE PUSH1 0x20 ADD SWAP1 DUP2 MSTORE PUSH1 0x20 ADD PUSH1 0x0 KECCAK256 SLOAD SWAP1 POP DUP5 DUP2 LT ISZERO PUSH3 0x6865 JUMPI PUSH1 0x40 MLOAD PUSH32 0x5AD11EC200000000000000000000000000000000000000000000000000000000 DUP2 MSTORE PUSH1 0x4 ADD PUSH1 0x40 MLOAD DUP1 SWAP2 SUB SWAP1 REVERT JUMPDEST DUP5 DUP2 SUB PUSH1 0xC PUSH1 0x0 DUP9 DUP2 MSTORE PUSH1 0x20 ADD SWAP1 DUP2 MSTORE PUSH1 0x20 ADD PUSH1 0x0 KECCAK256 PUSH1 0x0 DUP11 PUSH20 0xFFFFFFFFFFFFFFFFFFFFFFFFFFFFFFFFFFFFFFFF AND PUSH20 0xFFFFFFFFFFFFFFFFFFFFFFFFFFFFFFFFFFFFFFFF AND DUP2 MSTORE PUSH1 0x20 ADD SWAP1 DUP2 MSTORE PUSH1 0x20 ADD PUSH1 0x0 KECCAK256 DUP2 SWAP1 SSTORE POP DUP5 PUSH1 0xC PUSH1 0x0 DUP9 DUP2 MSTORE PUSH1 0x20 ADD SWAP1 DUP2 MSTORE PUSH1 0x20 ADD PUSH1 0x0 KECCAK256 PUSH1 0x0 DUP10 PUSH20 0xFFFFFFFFFFFFFFFFFFFFFFFFFFFFFFFFFFFFFFFF AND PUSH20 0xFFFFFFFFFFFFFFFFFFFFFFFFFFFFFFFFFFFFFFFF AND DUP2 MSTORE PUSH1 0x20 ADD SWAP1 DUP2 MSTORE PUSH1 0x20 ADD PUSH1 0x0 KECCAK256 PUSH1 0x0 DUP3 DUP3 SLOAD PUSH3 0x691E SWAP2 SWAP1 PUSH3 0x8C28 JUMP JUMPDEST SWAP3 POP POP DUP2 SWAP1 SSTORE POP DUP5 PUSH1 0xF PUSH1 0x0 DUP9 DUP2 MSTORE PUSH1 0x20 ADD SWAP1 DUP2 MSTORE PUSH1 0x20 ADD PUSH1 0x0 KECCAK256 PUSH1 0x0 DUP3 DUP3 SLOAD ADD SWAP3 POP POP DUP2 SWAP1 SSTORE POP DUP7 PUSH20 0xFFFFFFFFFFFFFFFFFFFFFFFFFFFFFFFFFFFFFFFF AND DUP9 PUSH20 0xFFFFFFFFFFFFFFFFFFFFFFFFFFFFFFFFFFFFFFFF AND DUP4 PUSH20 0xFFFFFFFFFFFFFFFFFFFFFFFFFFFFFFFFFFFFFFFF AND PUSH32 0xC3D58168C5AE7397731D063D5BBF3D657854427343F4C083240F7AACAA2D0F62 DUP10 DUP10 PUSH1 0x40 MLOAD PUSH3 0x69BE SWAP3 SWAP2 SWAP1 PUSH3 0x945F JUMP JUMPDEST PUSH1 0x40 MLOAD DUP1 SWAP2 SUB SWAP1 LOG4 PUSH3 0x6A1A DUP3 DUP10 DUP10 DUP10 DUP10 DUP10 DUP10 DUP1 DUP1 PUSH1 0x1F ADD PUSH1 0x20 DUP1 SWAP2 DIV MUL PUSH1 0x20 ADD PUSH1 0x40 MLOAD SWAP1 DUP2 ADD PUSH1 0x40 MSTORE DUP1 SWAP4 SWAP3 SWAP2 SWAP1 DUP2 DUP2 MSTORE PUSH1 0x20 ADD DUP4 DUP4 DUP1 DUP3 DUP5 CALLDATACOPY PUSH1 0x0 DUP2 DUP5 ADD MSTORE PUSH1 0x1F NOT PUSH1 0x1F DUP3 ADD AND SWAP1 POP DUP1 DUP4 ADD SWAP3 POP POP POP POP POP POP POP PUSH3 0x6EC2 JUMP JUMPDEST POP POP POP POP POP POP POP POP JUMP JUMPDEST PUSH3 0x6A2F DUP7 PUSH3 0x72F5 JUMP JUMPDEST ISZERO PUSH3 0x6B73 JUMPI DUP6 PUSH20 0xFFFFFFFFFFFFFFFFFFFFFFFFFFFFFFFFFFFFFFFF AND PUSH4 0xBC197C81 DUP10 DUP10 DUP9 DUP9 DUP9 DUP9 DUP9 PUSH1 0x40 MLOAD DUP9 PUSH4 0xFFFFFFFF AND PUSH1 0xE0 SHL DUP2 MSTORE PUSH1 0x4 ADD PUSH3 0x6A7C SWAP8 SWAP7 SWAP6 SWAP5 SWAP4 SWAP3 SWAP2 SWAP1 PUSH3 0x974E JUMP JUMPDEST PUSH1 0x20 PUSH1 0x40 MLOAD DUP1 DUP4 SUB DUP2 PUSH1 0x0 DUP8 GAS CALL SWAP3 POP POP POP DUP1 ISZERO PUSH3 0x6ABB JUMPI POP PUSH1 0x40 MLOAD RETURNDATASIZE PUSH1 0x1F NOT PUSH1 0x1F DUP3 ADD AND DUP3 ADD DUP1 PUSH1 0x40 MSTORE POP DUP2 ADD SWAP1 PUSH3 0x6AB8 SWAP2 SWAP1 PUSH3 0x97DB JUMP JUMPDEST PUSH1 0x1 JUMPDEST PUSH3 0x6AF2 JUMPI PUSH1 0x40 MLOAD PUSH32 0x45D406B200000000000000000000000000000000000000000000000000000000 DUP2 MSTORE PUSH1 0x4 ADD PUSH1 0x40 MLOAD DUP1 SWAP2 SUB SWAP1 REVERT JUMPDEST PUSH4 0xBC197C81 PUSH1 0xE0 SHL PUSH28 0xFFFFFFFFFFFFFFFFFFFFFFFFFFFFFFFFFFFFFFFFFFFFFFFFFFFFFFFF NOT AND DUP2 PUSH28 0xFFFFFFFFFFFFFFFFFFFFFFFFFFFFFFFFFFFFFFFFFFFFFFFFFFFFFFFF NOT AND EQ PUSH3 0x6B71 JUMPI PUSH1 0x40 MLOAD PUSH32 0x2BAA526E00000000000000000000000000000000000000000000000000000000 DUP2 MSTORE PUSH1 0x4 ADD PUSH1 0x40 MLOAD DUP1 SWAP2 SUB SWAP1 REVERT JUMPDEST POP JUMPDEST POP POP POP POP POP POP POP POP JUMP JUMPDEST PUSH1 0x0 DUP1 PUSH1 0x5 PUSH1 0x0 SWAP1 SLOAD SWAP1 PUSH2 0x100 EXP SWAP1 DIV PUSH20 0xFFFFFFFFFFFFFFFFFFFFFFFFFFFFFFFFFFFFFFFF AND PUSH20 0xFFFFFFFFFFFFFFFFFFFFFFFFFFFFFFFFFFFFFFFF AND DUP5 PUSH20 0xFFFFFFFFFFFFFFFFFFFFFFFFFFFFFFFFFFFFFFFF AND EQ ISZERO PUSH3 0x6BFB JUMPI DUP3 PUSH20 0xFFFFFFFFFFFFFFFFFFFFFFFFFFFFFFFFFFFFFFFF AND BALANCE SWAP1 POP DUP1 SWAP2 POP POP PUSH3 0x6C81 JUMP JUMPDEST DUP4 PUSH20 0xFFFFFFFFFFFFFFFFFFFFFFFFFFFFFFFFFFFFFFFF AND PUSH4 0x70A08231 DUP5 PUSH1 0x40 MLOAD DUP3 PUSH4 0xFFFFFFFF AND PUSH1 0xE0 SHL DUP2 MSTORE PUSH1 0x4 ADD PUSH3 0x6C36 SWAP2 SWAP1 PUSH3 0x7829 JUMP JUMPDEST PUSH1 0x20 PUSH1 0x40 MLOAD DUP1 DUP4 SUB DUP2 DUP7 GAS STATICCALL ISZERO DUP1 ISZERO PUSH3 0x6C54 JUMPI RETURNDATASIZE PUSH1 0x0 DUP1 RETURNDATACOPY RETURNDATASIZE PUSH1 0x0 REVERT JUMPDEST POP POP POP POP PUSH1 0x40 MLOAD RETURNDATASIZE PUSH1 0x1F NOT PUSH1 0x1F DUP3 ADD AND DUP3 ADD DUP1 PUSH1 0x40 MSTORE POP DUP2 ADD SWAP1 PUSH3 0x6C7A SWAP2 SWAP1 PUSH3 0x94DB JUMP JUMPDEST SWAP1 POP DUP1 SWAP2 POP POP JUMPDEST SWAP3 SWAP2 POP POP JUMP JUMPDEST PUSH1 0x0 DUP3 PUSH20 0xFFFFFFFFFFFFFFFFFFFFFFFFFFFFFFFFFFFFFFFF AND DUP3 PUSH1 0x0 PUSH8 0xFFFFFFFFFFFFFFFF DUP2 GT ISZERO PUSH3 0x6CBF JUMPI PUSH3 0x6CBE PUSH3 0x7E2A JUMP JUMPDEST JUMPDEST PUSH1 0x40 MLOAD SWAP1 DUP1 DUP3 MSTORE DUP1 PUSH1 0x1F ADD PUSH1 0x1F NOT AND PUSH1 0x20 ADD DUP3 ADD PUSH1 0x40 MSTORE DUP1 ISZERO PUSH3 0x6CF2 JUMPI DUP2 PUSH1 0x20 ADD PUSH1 0x1 DUP3 MUL DUP1 CALLDATASIZE DUP4 CALLDATACOPY DUP1 DUP3 ADD SWAP2 POP POP SWAP1 POP JUMPDEST POP PUSH1 0x40 MLOAD PUSH3 0x6D02 SWAP2 SWAP1 PUSH3 0x984F JUMP JUMPDEST PUSH1 0x0 PUSH1 0x40 MLOAD DUP1 DUP4 SUB DUP2 DUP6 DUP8 GAS CALL SWAP3 POP POP POP RETURNDATASIZE DUP1 PUSH1 0x0 DUP2 EQ PUSH3 0x6D41 JUMPI PUSH1 0x40 MLOAD SWAP2 POP PUSH1 0x1F NOT PUSH1 0x3F RETURNDATASIZE ADD AND DUP3 ADD PUSH1 0x40 MSTORE RETURNDATASIZE DUP3 MSTORE RETURNDATASIZE PUSH1 0x0 PUSH1 0x20 DUP5 ADD RETURNDATACOPY PUSH3 0x6D46 JUMP JUMPDEST PUSH1 0x60 SWAP2 POP JUMPDEST POP POP SWAP1 POP DUP1 PUSH3 0x6D82 JUMPI PUSH1 0x40 MLOAD PUSH32 0x30667AAB00000000000000000000000000000000000000000000000000000000 DUP2 MSTORE PUSH1 0x4 ADD PUSH1 0x40 MLOAD DUP1 SWAP2 SUB SWAP1 REVERT JUMPDEST POP POP POP JUMP JUMPDEST PUSH1 0x0 DUP1 DUP6 PUSH20 0xFFFFFFFFFFFFFFFFFFFFFFFFFFFFFFFFFFFFFFFF AND PUSH4 0x23B872DD DUP7 DUP7 DUP7 PUSH1 0x40 MLOAD PUSH1 0x24 ADD PUSH3 0x6DBD SWAP4 SWAP3 SWAP2 SWAP1 PUSH3 0x9868 JUMP JUMPDEST PUSH1 0x40 MLOAD PUSH1 0x20 DUP2 DUP4 SUB SUB DUP2 MSTORE SWAP1 PUSH1 0x40 MSTORE SWAP1 PUSH1 0xE0 SHL PUSH1 0x20 DUP3 ADD DUP1 MLOAD PUSH28 0xFFFFFFFFFFFFFFFFFFFFFFFFFFFFFFFFFFFFFFFFFFFFFFFFFFFFFFFF DUP4 DUP2 DUP4 AND OR DUP4 MSTORE POP POP POP POP PUSH1 0x40 MLOAD PUSH3 0x6E0D SWAP2 SWAP1 PUSH3 0x984F JUMP JUMPDEST PUSH1 0x0 PUSH1 0x40 MLOAD DUP1 DUP4 SUB DUP2 PUSH1 0x0 DUP7 GAS CALL SWAP2 POP POP RETURNDATASIZE DUP1 PUSH1 0x0 DUP2 EQ PUSH3 0x6E4C JUMPI PUSH1 0x40 MLOAD SWAP2 POP PUSH1 0x1F NOT PUSH1 0x3F RETURNDATASIZE ADD AND DUP3 ADD PUSH1 0x40 MSTORE RETURNDATASIZE DUP3 MSTORE RETURNDATASIZE PUSH1 0x0 PUSH1 0x20 DUP5 ADD RETURNDATACOPY PUSH3 0x6E51 JUMP JUMPDEST PUSH1 0x60 SWAP2 POP JUMPDEST POP SWAP2 POP SWAP2 POP DUP2 DUP1 ISZERO PUSH3 0x6E83 JUMPI POP PUSH1 0x0 DUP2 MLOAD EQ DUP1 PUSH3 0x6E82 JUMPI POP DUP1 DUP1 PUSH1 0x20 ADD SWAP1 MLOAD DUP2 ADD SWAP1 PUSH3 0x6E81 SWAP2 SWAP1 PUSH3 0x98BC JUMP JUMPDEST JUMPDEST JUMPDEST PUSH3 0x6EBA JUMPI PUSH1 0x40 MLOAD PUSH32 0x6050FE2900000000000000000000000000000000000000000000000000000000 DUP2 MSTORE PUSH1 0x4 ADD PUSH1 0x40 MLOAD DUP1 SWAP2 SUB SWAP1 REVERT JUMPDEST POP POP POP POP POP POP JUMP JUMPDEST PUSH3 0x6ECD DUP5 PUSH3 0x72F5 JUMP JUMPDEST ISZERO PUSH3 0x700D JUMPI DUP4 PUSH20 0xFFFFFFFFFFFFFFFFFFFFFFFFFFFFFFFFFFFFFFFF AND PUSH4 0xF23A6E61 DUP8 DUP8 DUP7 DUP7 DUP7 PUSH1 0x40 MLOAD DUP7 PUSH4 0xFFFFFFFF AND PUSH1 0xE0 SHL DUP2 MSTORE PUSH1 0x4 ADD PUSH3 0x6F16 SWAP6 SWAP5 SWAP4 SWAP3 SWAP2 SWAP1 PUSH3 0x98EE JUMP JUMPDEST PUSH1 0x20 PUSH1 0x40 MLOAD DUP1 DUP4 SUB DUP2 PUSH1 0x0 DUP8 GAS CALL SWAP3 POP POP POP DUP1 ISZERO PUSH3 0x6F55 JUMPI POP PUSH1 0x40 MLOAD RETURNDATASIZE PUSH1 0x1F NOT PUSH1 0x1F DUP3 ADD AND DUP3 ADD DUP1 PUSH1 0x40 MSTORE POP DUP2 ADD SWAP1 PUSH3 0x6F52 SWAP2 SWAP1 PUSH3 0x97DB JUMP JUMPDEST PUSH1 0x1 JUMPDEST PUSH3 0x6F8C JUMPI PUSH1 0x40 MLOAD PUSH32 0x45D406B200000000000000000000000000000000000000000000000000000000 DUP2 MSTORE PUSH1 0x4 ADD PUSH1 0x40 MLOAD DUP1 SWAP2 SUB SWAP1 REVERT JUMPDEST PUSH4 0xF23A6E61 PUSH1 0xE0 SHL PUSH28 0xFFFFFFFFFFFFFFFFFFFFFFFFFFFFFFFFFFFFFFFFFFFFFFFFFFFFFFFF NOT AND DUP2 PUSH28 0xFFFFFFFFFFFFFFFFFFFFFFFFFFFFFFFFFFFFFFFFFFFFFFFFFFFFFFFF NOT AND EQ PUSH3 0x700B JUMPI PUSH1 0x40 MLOAD PUSH32 0x2BAA526E00000000000000000000000000000000000000000000000000000000 DUP2 MSTORE PUSH1 0x4 ADD PUSH1 0x40 MLOAD DUP1 SWAP2 SUB SWAP1 REVERT JUMPDEST POP JUMPDEST POP POP POP POP POP POP JUMP JUMPDEST PUSH1 0x0 DUP1 DUP3 DUP7 PUSH3 0x7026 SWAP2 SWAP1 PUSH3 0x878D JUMP JUMPDEST SWAP1 POP PUSH1 0x0 DUP2 PUSH2 0x2710 DUP8 PUSH3 0x703B SWAP2 SWAP1 PUSH3 0x878D JUMP JUMPDEST PUSH3 0x7047 SWAP2 SWAP1 PUSH3 0x8C28 JUMP JUMPDEST DUP3 DUP7 PUSH3 0x7055 SWAP2 SWAP1 PUSH3 0x878D JUMP JUMPDEST PUSH3 0x7061 SWAP2 SWAP1 PUSH3 0x8E74 JUMP JUMPDEST SWAP1 POP DUP1 SWAP3 POP POP POP SWAP5 SWAP4 POP POP POP POP JUMP JUMPDEST PUSH1 0x0 PUSH1 0x8 PUSH2 0x3840 TIMESTAMP PUSH3 0x7084 SWAP2 SWAP1 PUSH3 0x8E74 JUMP JUMPDEST PUSH3 0x7090 SWAP2 SWAP1 PUSH3 0x948C JUMP JUMPDEST SWAP1 POP SWAP1 JUMP JUMPDEST PUSH1 0x0 PUSH20 0xFFFFFFFFFFFFFFFFFFFFFFFFFFFFFFFFFFFFFFFF AND DUP4 PUSH20 0xFFFFFFFFFFFFFFFFFFFFFFFFFFFFFFFFFFFFFFFF AND EQ ISZERO PUSH3 0x70FD JUMPI PUSH1 0x40 MLOAD PUSH32 0xEDBA591D00000000000000000000000000000000000000000000000000000000 DUP2 MSTORE PUSH1 0x4 ADD PUSH1 0x40 MLOAD DUP1 SWAP2 SUB SWAP1 REVERT JUMPDEST PUSH1 0x0 CALLER SWAP1 POP PUSH1 0x0 PUSH1 0xC PUSH1 0x0 DUP6 DUP2 MSTORE PUSH1 0x20 ADD SWAP1 DUP2 MSTORE PUSH1 0x20 ADD PUSH1 0x0 KECCAK256 PUSH1 0x0 DUP7 PUSH20 0xFFFFFFFFFFFFFFFFFFFFFFFFFFFFFFFFFFFFFFFF AND PUSH20 0xFFFFFFFFFFFFFFFFFFFFFFFFFFFFFFFFFFFFFFFF AND DUP2 MSTORE PUSH1 0x20 ADD SWAP1 DUP2 MSTORE PUSH1 0x20 ADD PUSH1 0x0 KECCAK256 SLOAD SWAP1 POP DUP3 DUP2 LT ISZERO PUSH3 0x7192 JUMPI PUSH1 0x40 MLOAD PUSH32 0x73ECA78400000000000000000000000000000000000000000000000000000000 DUP2 MSTORE PUSH1 0x4 ADD PUSH1 0x40 MLOAD DUP1 SWAP2 SUB SWAP1 REVERT JUMPDEST DUP3 DUP2 SUB PUSH1 0xC PUSH1 0x0 DUP7 DUP2 MSTORE PUSH1 0x20 ADD SWAP1 DUP2 MSTORE PUSH1 0x20 ADD PUSH1 0x0 KECCAK256 PUSH1 0x0 DUP8 PUSH20 0xFFFFFFFFFFFFFFFFFFFFFFFFFFFFFFFFFFFFFFFF AND PUSH20 0xFFFFFFFFFFFFFFFFFFFFFFFFFFFFFFFFFFFFFFFF AND DUP2 MSTORE PUSH1 0x20 ADD SWAP1 DUP2 MSTORE PUSH1 0x20 ADD PUSH1 0x0 KECCAK256 DUP2 SWAP1 SSTORE POP DUP3 PUSH1 0xF PUSH1 0x0 DUP7 DUP2 MSTORE PUSH1 0x20 ADD SWAP1 DUP2 MSTORE PUSH1 0x20 ADD PUSH1 0x0 KECCAK256 PUSH1 0x0 DUP3 DUP3 SLOAD SUB SWAP3 POP POP DUP2 SWAP1 SSTORE POP PUSH1 0x0 PUSH20 0xFFFFFFFFFFFFFFFFFFFFFFFFFFFFFFFFFFFFFFFF AND DUP6 PUSH20 0xFFFFFFFFFFFFFFFFFFFFFFFFFFFFFFFFFFFFFFFF AND DUP4 PUSH20 0xFFFFFFFFFFFFFFFFFFFFFFFFFFFFFFFFFFFFFFFF AND PUSH32 0xC3D58168C5AE7397731D063D5BBF3D657854427343F4C083240F7AACAA2D0F62 DUP8 DUP8 PUSH1 0x40 MLOAD PUSH3 0x7283 SWAP3 SWAP2 SWAP1 PUSH3 0x945F JUMP JUMPDEST PUSH1 0x40 MLOAD DUP1 SWAP2 SUB SWAP1 LOG4 POP POP POP POP POP JUMP JUMPDEST PUSH1 0x0 DUP1 PUSH1 0x1 DUP7 DUP6 PUSH3 0x72A5 SWAP2 SWAP1 PUSH3 0x8D98 JUMP JUMPDEST DUP5 PUSH3 0x72B2 SWAP2 SWAP1 PUSH3 0x878D JUMP JUMPDEST PUSH2 0x2710 DUP9 DUP9 PUSH3 0x72C3 SWAP2 SWAP1 PUSH3 0x878D JUMP JUMPDEST PUSH3 0x72CF SWAP2 SWAP1 PUSH3 0x878D JUMP JUMPDEST PUSH3 0x72DB SWAP2 SWAP1 PUSH3 0x8E74 JUMP JUMPDEST PUSH3 0x72E7 SWAP2 SWAP1 PUSH3 0x8C28 JUMP JUMPDEST SWAP1 POP DUP1 SWAP2 POP POP SWAP5 SWAP4 POP POP POP POP JUMP JUMPDEST PUSH1 0x0 DUP1 DUP3 EXTCODESIZE SWAP1 POP PUSH1 0x0 DUP2 GT SWAP2 POP POP SWAP2 SWAP1 POP JUMP JUMPDEST PUSH1 0x40 MLOAD DUP1 PUSH1 0x80 ADD PUSH1 0x40 MSTORE DUP1 PUSH1 0x0 PUSH20 0xFFFFFFFFFFFFFFFFFFFFFFFFFFFFFFFFFFFFFFFF AND DUP2 MSTORE PUSH1 0x20 ADD PUSH3 0x733A PUSH3 0x7508 JUMP JUMPDEST DUP2 MSTORE PUSH1 0x20 ADD PUSH1 0x0 PUSH16 0xFFFFFFFFFFFFFFFFFFFFFFFFFFFFFFFF AND DUP2 MSTORE PUSH1 0x20 ADD PUSH1 0x0 PUSH16 0xFFFFFFFFFFFFFFFFFFFFFFFFFFFFFFFF AND DUP2 MSTORE POP SWAP1 JUMP JUMPDEST DUP3 DUP1 SLOAD PUSH3 0x7380 SWAP1 PUSH3 0x8728 JUMP JUMPDEST SWAP1 PUSH1 0x0 MSTORE PUSH1 0x20 PUSH1 0x0 KECCAK256 SWAP1 PUSH1 0x1F ADD PUSH1 0x20 SWAP1 DIV DUP2 ADD SWAP3 DUP3 PUSH3 0x73A4 JUMPI PUSH1 0x0 DUP6 SSTORE PUSH3 0x73F0 JUMP JUMPDEST DUP3 PUSH1 0x1F LT PUSH3 0x73BF JUMPI DUP1 MLOAD PUSH1 0xFF NOT AND DUP4 DUP1 ADD OR DUP6 SSTORE PUSH3 0x73F0 JUMP JUMPDEST DUP3 DUP1 ADD PUSH1 0x1 ADD DUP6 SSTORE DUP3 ISZERO PUSH3 0x73F0 JUMPI SWAP2 DUP3 ADD JUMPDEST DUP3 DUP2 GT ISZERO PUSH3 0x73EF JUMPI DUP3 MLOAD DUP3 SSTORE SWAP2 PUSH1 0x20 ADD SWAP2 SWAP1 PUSH1 0x1 ADD SWAP1 PUSH3 0x73D2 JUMP JUMPDEST JUMPDEST POP SWAP1 POP PUSH3 0x73FF SWAP2 SWAP1 PUSH3 0x75D5 JUMP JUMPDEST POP SWAP1 JUMP JUMPDEST PUSH1 0x40 MLOAD DUP1 PUSH1 0xC0 ADD PUSH1 0x40 MSTORE DUP1 PUSH1 0x0 PUSH20 0xFFFFFFFFFFFFFFFFFFFFFFFFFFFFFFFFFFFFFFFF AND DUP2 MSTORE PUSH1 0x20 ADD PUSH1 0x0 DUP2 MSTORE PUSH1 0x20 ADD PUSH1 0x0 DUP2 MSTORE PUSH1 0x20 ADD PUSH1 0x0 DUP2 MSTORE PUSH1 0x20 ADD PUSH1 0x0 DUP2 MSTORE PUSH1 0x20 ADD PUSH1 0x0 DUP2 MSTORE POP SWAP1 JUMP JUMPDEST DUP3 DUP1 SLOAD PUSH3 0x745D SWAP1 PUSH3 0x8728 JUMP JUMPDEST SWAP1 PUSH1 0x0 MSTORE PUSH1 0x20 PUSH1 0x0 KECCAK256 SWAP1 PUSH1 0x1F ADD PUSH1 0x20 SWAP1 DIV DUP2 ADD SWAP3 DUP3 PUSH3 0x7481 JUMPI PUSH1 0x0 DUP6 SSTORE PUSH3 0x74CD JUMP JUMPDEST DUP3 PUSH1 0x1F LT PUSH3 0x749C JUMPI DUP1 CALLDATALOAD PUSH1 0xFF NOT AND DUP4 DUP1 ADD OR DUP6 SSTORE PUSH3 0x74CD JUMP JUMPDEST DUP3 DUP1 ADD PUSH1 0x1 ADD DUP6 SSTORE DUP3 ISZERO PUSH3 0x74CD JUMPI SWAP2 DUP3 ADD JUMPDEST DUP3 DUP2 GT ISZERO PUSH3 0x74CC JUMPI DUP3 CALLDATALOAD DUP3 SSTORE SWAP2 PUSH1 0x20 ADD SWAP2 SWAP1 PUSH1 0x1 ADD SWAP1 PUSH3 0x74AF JUMP JUMPDEST JUMPDEST POP SWAP1 POP PUSH3 0x74DC SWAP2 SWAP1 PUSH3 0x75D5 JUMP JUMPDEST POP SWAP1 JUMP JUMPDEST PUSH1 0x40 MLOAD DUP1 PUSH1 0x40 ADD PUSH1 0x40 MSTORE DUP1 PUSH1 0x0 DUP2 MSTORE PUSH1 0x20 ADD PUSH1 0x0 DUP2 MSTORE POP SWAP1 JUMP JUMPDEST PUSH2 0x41D DUP1 PUSH3 0x9953 DUP4 CODECOPY ADD SWAP1 JUMP JUMPDEST PUSH1 0x40 MLOAD DUP1 PUSH2 0x100 ADD PUSH1 0x40 MSTORE DUP1 PUSH1 0x8 SWAP1 PUSH1 0x20 DUP3 MUL DUP1 CALLDATASIZE DUP4 CALLDATACOPY DUP1 DUP3 ADD SWAP2 POP POP SWAP1 POP POP SWAP1 JUMP JUMPDEST DUP3 PUSH1 0x8 PUSH1 0x7 ADD PUSH1 0x8 SWAP1 DIV DUP2 ADD SWAP3 DUP3 ISZERO PUSH3 0x75C2 JUMPI SWAP2 PUSH1 0x20 MUL DUP3 ADD PUSH1 0x0 JUMPDEST DUP4 DUP3 GT ISZERO PUSH3 0x758E JUMPI DUP4 MLOAD DUP4 DUP3 PUSH2 0x100 EXP DUP2 SLOAD DUP2 PUSH4 0xFFFFFFFF MUL NOT AND SWAP1 DUP4 PUSH4 0xFFFFFFFF AND MUL OR SWAP1 SSTORE POP SWAP3 PUSH1 0x20 ADD SWAP3 PUSH1 0x4 ADD PUSH1 0x20 DUP2 PUSH1 0x3 ADD DIV SWAP3 DUP4 ADD SWAP3 PUSH1 0x1 SUB MUL PUSH3 0x7548 JUMP JUMPDEST DUP1 ISZERO PUSH3 0x75C0 JUMPI DUP3 DUP2 PUSH2 0x100 EXP DUP2 SLOAD SWAP1 PUSH4 0xFFFFFFFF MUL NOT AND SWAP1 SSTORE PUSH1 0x4 ADD PUSH1 0x20 DUP2 PUSH1 0x3 ADD DIV SWAP3 DUP4 ADD SWAP3 PUSH1 0x1 SUB MUL PUSH3 0x758E JUMP JUMPDEST POP JUMPDEST POP SWAP1 POP PUSH3 0x75D1 SWAP2 SWAP1 PUSH3 0x75D5 JUMP JUMPDEST POP SWAP1 JUMP JUMPDEST JUMPDEST DUP1 DUP3 GT ISZERO PUSH3 0x75F0 JUMPI PUSH1 0x0 DUP2 PUSH1 0x0 SWAP1 SSTORE POP PUSH1 0x1 ADD PUSH3 0x75D6 JUMP JUMPDEST POP SWAP1 JUMP JUMPDEST PUSH1 0x0 PUSH1 0x40 MLOAD SWAP1 POP SWAP1 JUMP JUMPDEST PUSH1 0x0 DUP1 REVERT JUMPDEST PUSH1 0x0 DUP1 REVERT JUMPDEST PUSH1 0x0 PUSH20 0xFFFFFFFFFFFFFFFFFFFFFFFFFFFFFFFFFFFFFFFF DUP3 AND SWAP1 POP SWAP2 SWAP1 POP JUMP JUMPDEST PUSH1 0x0 PUSH3 0x7635 DUP3 PUSH3 0x7608 JUMP JUMPDEST SWAP1 POP SWAP2 SWAP1 POP JUMP JUMPDEST PUSH3 0x7647 DUP2 PUSH3 0x7628 JUMP JUMPDEST DUP2 EQ PUSH3 0x7653 JUMPI PUSH1 0x0 DUP1 REVERT JUMPDEST POP JUMP JUMPDEST PUSH1 0x0 DUP2 CALLDATALOAD SWAP1 POP PUSH3 0x7667 DUP2 PUSH3 0x763C JUMP JUMPDEST SWAP3 SWAP2 POP POP JUMP JUMPDEST PUSH1 0x0 DUP2 SWAP1 POP SWAP2 SWAP1 POP JUMP JUMPDEST PUSH3 0x7682 DUP2 PUSH3 0x766D JUMP JUMPDEST DUP2 EQ PUSH3 0x768E JUMPI PUSH1 0x0 DUP1 REVERT JUMPDEST POP JUMP JUMPDEST PUSH1 0x0 DUP2 CALLDATALOAD SWAP1 POP PUSH3 0x76A2 DUP2 PUSH3 0x7677 JUMP JUMPDEST SWAP3 SWAP2 POP POP JUMP JUMPDEST PUSH1 0x0 DUP1 PUSH1 0x40 DUP4 DUP6 SUB SLT ISZERO PUSH3 0x76C2 JUMPI PUSH3 0x76C1 PUSH3 0x75FE JUMP JUMPDEST JUMPDEST PUSH1 0x0 PUSH3 0x76D2 DUP6 DUP3 DUP7 ADD PUSH3 0x7656 JUMP JUMPDEST SWAP3 POP POP PUSH1 0x20 PUSH3 0x76E5 DUP6 DUP3 DUP7 ADD PUSH3 0x7691 JUMP JUMPDEST SWAP2 POP POP SWAP3 POP SWAP3 SWAP1 POP JUMP JUMPDEST PUSH3 0x76FA DUP2 PUSH3 0x766D JUMP JUMPDEST DUP3 MSTORE POP POP JUMP JUMPDEST PUSH1 0x0 PUSH1 0x20 DUP3 ADD SWAP1 POP PUSH3 0x7717 PUSH1 0x0 DUP4 ADD DUP5 PUSH3 0x76EF JUMP JUMPDEST SWAP3 SWAP2 POP POP JUMP JUMPDEST PUSH1 0x0 PUSH32 0xFFFFFFFF00000000000000000000000000000000000000000000000000000000 DUP3 AND SWAP1 POP SWAP2 SWAP1 POP JUMP JUMPDEST PUSH3 0x7754 DUP2 PUSH3 0x771D JUMP JUMPDEST DUP2 EQ PUSH3 0x7760 JUMPI PUSH1 0x0 DUP1 REVERT JUMPDEST POP JUMP JUMPDEST PUSH1 0x0 DUP2 CALLDATALOAD SWAP1 POP PUSH3 0x7774 DUP2 PUSH3 0x7749 JUMP JUMPDEST SWAP3 SWAP2 POP POP JUMP JUMPDEST PUSH1 0x0 PUSH1 0x20 DUP3 DUP5 SUB SLT ISZERO PUSH3 0x7793 JUMPI PUSH3 0x7792 PUSH3 0x75FE JUMP JUMPDEST JUMPDEST PUSH1 0x0 PUSH3 0x77A3 DUP5 DUP3 DUP6 ADD PUSH3 0x7763 JUMP JUMPDEST SWAP2 POP POP SWAP3 SWAP2 POP POP JUMP JUMPDEST PUSH1 0x0 DUP2 ISZERO ISZERO SWAP1 POP SWAP2 SWAP1 POP JUMP JUMPDEST PUSH3 0x77C3 DUP2 PUSH3 0x77AC JUMP JUMPDEST DUP3 MSTORE POP POP JUMP JUMPDEST PUSH1 0x0 PUSH1 0x20 DUP3 ADD SWAP1 POP PUSH3 0x77E0 PUSH1 0x0 DUP4 ADD DUP5 PUSH3 0x77B8 JUMP JUMPDEST SWAP3 SWAP2 POP POP JUMP JUMPDEST PUSH1 0x0 PUSH1 0x20 DUP3 DUP5 SUB SLT ISZERO PUSH3 0x77FF JUMPI PUSH3 0x77FE PUSH3 0x75FE JUMP JUMPDEST JUMPDEST PUSH1 0x0 PUSH3 0x780F DUP5 DUP3 DUP6 ADD PUSH3 0x7691 JUMP JUMPDEST SWAP2 POP POP SWAP3 SWAP2 POP POP JUMP JUMPDEST PUSH3 0x7823 DUP2 PUSH3 0x7628 JUMP JUMPDEST DUP3 MSTORE POP POP JUMP JUMPDEST PUSH1 0x0 PUSH1 0x20 DUP3 ADD SWAP1 POP PUSH3 0x7840 PUSH1 0x0 DUP4 ADD DUP5 PUSH3 0x7818 JUMP JUMPDEST SWAP3 SWAP2 POP POP JUMP JUMPDEST PUSH1 0x0 DUP2 MLOAD SWAP1 POP SWAP2 SWAP1 POP JUMP JUMPDEST PUSH1 0x0 DUP3 DUP3 MSTORE PUSH1 0x20 DUP3 ADD SWAP1 POP SWAP3 SWAP2 POP POP JUMP JUMPDEST PUSH1 0x0 JUMPDEST DUP4 DUP2 LT ISZERO PUSH3 0x7882 JUMPI DUP1 DUP3 ADD MLOAD DUP2 DUP5 ADD MSTORE PUSH1 0x20 DUP2 ADD SWAP1 POP PUSH3 0x7865 JUMP JUMPDEST DUP4 DUP2 GT ISZERO PUSH3 0x7892 JUMPI PUSH1 0x0 DUP5 DUP5 ADD MSTORE JUMPDEST POP POP POP POP JUMP JUMPDEST PUSH1 0x0 PUSH1 0x1F NOT PUSH1 0x1F DUP4 ADD AND SWAP1 POP SWAP2 SWAP1 POP JUMP JUMPDEST PUSH1 0x0 PUSH3 0x78B6 DUP3 PUSH3 0x7846 JUMP JUMPDEST PUSH3 0x78C2 DUP2 DUP6 PUSH3 0x7851 JUMP JUMPDEST SWAP4 POP PUSH3 0x78D4 DUP2 DUP6 PUSH1 0x20 DUP7 ADD PUSH3 0x7862 JUMP JUMPDEST PUSH3 0x78DF DUP2 PUSH3 0x7898 JUMP JUMPDEST DUP5 ADD SWAP2 POP POP SWAP3 SWAP2 POP POP JUMP JUMPDEST PUSH1 0x0 PUSH1 0x20 DUP3 ADD SWAP1 POP DUP2 DUP2 SUB PUSH1 0x0 DUP4 ADD MSTORE PUSH3 0x7906 DUP2 DUP5 PUSH3 0x78A9 JUMP JUMPDEST SWAP1 POP SWAP3 SWAP2 POP POP JUMP JUMPDEST PUSH1 0x0 DUP1 REVERT JUMPDEST PUSH1 0x0 PUSH1 0xC0 DUP3 DUP5 SUB SLT ISZERO PUSH3 0x792C JUMPI PUSH3 0x792B PUSH3 0x790E JUMP JUMPDEST JUMPDEST DUP2 SWAP1 POP SWAP3 SWAP2 POP POP JUMP JUMPDEST PUSH1 0x0 PUSH1 0xC0 DUP3 DUP5 SUB SLT ISZERO PUSH3 0x794E JUMPI PUSH3 0x794D PUSH3 0x75FE JUMP JUMPDEST JUMPDEST PUSH1 0x0 PUSH3 0x795E DUP5 DUP3 DUP6 ADD PUSH3 0x7913 JUMP JUMPDEST SWAP2 POP POP SWAP3 SWAP2 POP POP JUMP JUMPDEST PUSH1 0x0 DUP1 REVERT JUMPDEST PUSH1 0x0 DUP1 REVERT JUMPDEST PUSH1 0x0 DUP1 REVERT JUMPDEST PUSH1 0x0 DUP1 DUP4 PUSH1 0x1F DUP5 ADD SLT PUSH3 0x798F JUMPI PUSH3 0x798E PUSH3 0x7967 JUMP JUMPDEST JUMPDEST DUP3 CALLDATALOAD SWAP1 POP PUSH8 0xFFFFFFFFFFFFFFFF DUP2 GT ISZERO PUSH3 0x79AF JUMPI PUSH3 0x79AE PUSH3 0x796C JUMP JUMPDEST JUMPDEST PUSH1 0x20 DUP4 ADD SWAP2 POP DUP4 PUSH1 0x20 DUP3 MUL DUP4 ADD GT ISZERO PUSH3 0x79CE JUMPI PUSH3 0x79CD PUSH3 0x7971 JUMP JUMPDEST JUMPDEST SWAP3 POP SWAP3 SWAP1 POP JUMP JUMPDEST PUSH1 0x0 DUP1 DUP4 PUSH1 0x1F DUP5 ADD SLT PUSH3 0x79EE JUMPI PUSH3 0x79ED PUSH3 0x7967 JUMP JUMPDEST JUMPDEST DUP3 CALLDATALOAD SWAP1 POP PUSH8 0xFFFFFFFFFFFFFFFF DUP2 GT ISZERO PUSH3 0x7A0E JUMPI PUSH3 0x7A0D PUSH3 0x796C JUMP JUMPDEST JUMPDEST PUSH1 0x20 DUP4 ADD SWAP2 POP DUP4 PUSH1 0x1 DUP3 MUL DUP4 ADD GT ISZERO PUSH3 0x7A2D JUMPI PUSH3 0x7A2C PUSH3 0x7971 JUMP JUMPDEST JUMPDEST SWAP3 POP SWAP3 SWAP1 POP JUMP JUMPDEST PUSH1 0x0 DUP1 PUSH1 0x0 DUP1 PUSH1 0x0 DUP1 PUSH1 0x0 DUP1 PUSH1 0xA0 DUP10 DUP12 SUB SLT ISZERO PUSH3 0x7A57 JUMPI PUSH3 0x7A56 PUSH3 0x75FE JUMP JUMPDEST JUMPDEST PUSH1 0x0 PUSH3 0x7A67 DUP12 DUP3 DUP13 ADD PUSH3 0x7656 JUMP JUMPDEST SWAP9 POP POP PUSH1 0x20 PUSH3 0x7A7A DUP12 DUP3 DUP13 ADD PUSH3 0x7656 JUMP JUMPDEST SWAP8 POP POP PUSH1 0x40 DUP10 ADD CALLDATALOAD PUSH8 0xFFFFFFFFFFFFFFFF DUP2 GT ISZERO PUSH3 0x7A9E JUMPI PUSH3 0x7A9D PUSH3 0x7603 JUMP JUMPDEST JUMPDEST PUSH3 0x7AAC DUP12 DUP3 DUP13 ADD PUSH3 0x7976 JUMP JUMPDEST SWAP7 POP SWAP7 POP POP PUSH1 0x60 DUP10 ADD CALLDATALOAD PUSH8 0xFFFFFFFFFFFFFFFF DUP2 GT ISZERO PUSH3 0x7AD2 JUMPI PUSH3 0x7AD1 PUSH3 0x7603 JUMP JUMPDEST JUMPDEST PUSH3 0x7AE0 DUP12 DUP3 DUP13 ADD PUSH3 0x7976 JUMP JUMPDEST SWAP5 POP SWAP5 POP POP PUSH1 0x80 DUP10 ADD CALLDATALOAD PUSH8 0xFFFFFFFFFFFFFFFF DUP2 GT ISZERO PUSH3 0x7B06 JUMPI PUSH3 0x7B05 PUSH3 0x7603 JUMP JUMPDEST JUMPDEST PUSH3 0x7B14 DUP12 DUP3 DUP13 ADD PUSH3 0x79D5 JUMP JUMPDEST SWAP3 POP SWAP3 POP POP SWAP3 SWAP6 SWAP9 POP SWAP3 SWAP6 SWAP9 SWAP1 SWAP4 SWAP7 POP JUMP JUMPDEST PUSH1 0x0 DUP1 DUP4 PUSH1 0x1F DUP5 ADD SLT PUSH3 0x7B3F JUMPI PUSH3 0x7B3E PUSH3 0x7967 JUMP JUMPDEST JUMPDEST DUP3 CALLDATALOAD SWAP1 POP PUSH8 0xFFFFFFFFFFFFFFFF DUP2 GT ISZERO PUSH3 0x7B5F JUMPI PUSH3 0x7B5E PUSH3 0x796C JUMP JUMPDEST JUMPDEST PUSH1 0x20 DUP4 ADD SWAP2 POP DUP4 PUSH1 0x20 DUP3 MUL DUP4 ADD GT ISZERO PUSH3 0x7B7E JUMPI PUSH3 0x7B7D PUSH3 0x7971 JUMP JUMPDEST JUMPDEST SWAP3 POP SWAP3 SWAP1 POP JUMP JUMPDEST PUSH1 0x0 DUP1 PUSH1 0x20 DUP4 DUP6 SUB SLT ISZERO PUSH3 0x7B9F JUMPI PUSH3 0x7B9E PUSH3 0x75FE JUMP JUMPDEST JUMPDEST PUSH1 0x0 DUP4 ADD CALLDATALOAD PUSH8 0xFFFFFFFFFFFFFFFF DUP2 GT ISZERO PUSH3 0x7BC0 JUMPI PUSH3 0x7BBF PUSH3 0x7603 JUMP JUMPDEST JUMPDEST PUSH3 0x7BCE DUP6 DUP3 DUP7 ADD PUSH3 0x7B26 JUMP JUMPDEST SWAP3 POP SWAP3 POP POP SWAP3 POP SWAP3 SWAP1 POP JUMP JUMPDEST PUSH1 0x0 DUP2 MLOAD SWAP1 POP SWAP2 SWAP1 POP JUMP JUMPDEST PUSH1 0x0 DUP3 DUP3 MSTORE PUSH1 0x20 DUP3 ADD SWAP1 POP SWAP3 SWAP2 POP POP JUMP JUMPDEST PUSH1 0x0 DUP2 SWAP1 POP PUSH1 0x20 DUP3 ADD SWAP1 POP SWAP2 SWAP1 POP JUMP JUMPDEST PUSH3 0x7C11 DUP2 PUSH3 0x7628 JUMP JUMPDEST DUP3 MSTORE POP POP JUMP JUMPDEST PUSH1 0x0 PUSH1 0x8 SWAP1 POP SWAP2 SWAP1 POP JUMP JUMPDEST PUSH1 0x0 DUP2 SWAP1 POP SWAP3 SWAP2 POP POP JUMP JUMPDEST PUSH1 0x0 DUP2 SWAP1 POP SWAP2 SWAP1 POP JUMP JUMPDEST PUSH1 0x0 PUSH4 0xFFFFFFFF DUP3 AND SWAP1 POP SWAP2 SWAP1 POP JUMP JUMPDEST PUSH3 0x7C52 DUP2 PUSH3 0x7C37 JUMP JUMPDEST DUP3 MSTORE POP POP JUMP JUMPDEST PUSH1 0x0 PUSH3 0x7C66 DUP4 DUP4 PUSH3 0x7C47 JUMP JUMPDEST PUSH1 0x20 DUP4 ADD SWAP1 POP SWAP3 SWAP2 POP POP JUMP JUMPDEST PUSH1 0x0 PUSH1 0x20 DUP3 ADD SWAP1 POP SWAP2 SWAP1 POP JUMP JUMPDEST PUSH3 0x7C8A DUP2 PUSH3 0x7C17 JUMP JUMPDEST PUSH3 0x7C96 DUP2 DUP5 PUSH3 0x7C22 JUMP JUMPDEST SWAP3 POP PUSH3 0x7CA3 DUP3 PUSH3 0x7C2D JUMP JUMPDEST DUP1 PUSH1 0x0 JUMPDEST DUP4 DUP2 LT ISZERO PUSH3 0x7CDA JUMPI DUP2 MLOAD PUSH3 0x7CBE DUP8 DUP3 PUSH3 0x7C58 JUMP JUMPDEST SWAP7 POP PUSH3 0x7CCB DUP4 PUSH3 0x7C72 JUMP JUMPDEST SWAP3 POP POP PUSH1 0x1 DUP2 ADD SWAP1 POP PUSH3 0x7CA7 JUMP JUMPDEST POP POP POP POP POP POP JUMP JUMPDEST PUSH1 0x0 PUSH16 0xFFFFFFFFFFFFFFFFFFFFFFFFFFFFFFFF DUP3 AND SWAP1 POP SWAP2 SWAP1 POP JUMP JUMPDEST PUSH3 0x7D09 DUP2 PUSH3 0x7CE2 JUMP JUMPDEST DUP3 MSTORE POP POP JUMP JUMPDEST PUSH2 0x160 DUP3 ADD PUSH1 0x0 DUP3 ADD MLOAD PUSH3 0x7D28 PUSH1 0x0 DUP6 ADD DUP3 PUSH3 0x7C06 JUMP JUMPDEST POP PUSH1 0x20 DUP3 ADD MLOAD PUSH3 0x7D3D PUSH1 0x20 DUP6 ADD DUP3 PUSH3 0x7C7F JUMP JUMPDEST POP PUSH1 0x40 DUP3 ADD MLOAD PUSH3 0x7D53 PUSH2 0x120 DUP6 ADD DUP3 PUSH3 0x7CFE JUMP JUMPDEST POP PUSH1 0x60 DUP3 ADD MLOAD PUSH3 0x7D69 PUSH2 0x140 DUP6 ADD DUP3 PUSH3 0x7CFE JUMP JUMPDEST POP POP POP POP JUMP JUMPDEST PUSH1 0x0 PUSH3 0x7D7D DUP4 DUP4 PUSH3 0x7D0F JUMP JUMPDEST PUSH2 0x160 DUP4 ADD SWAP1 POP SWAP3 SWAP2 POP POP JUMP JUMPDEST PUSH1 0x0 PUSH1 0x20 DUP3 ADD SWAP1 POP SWAP2 SWAP1 POP JUMP JUMPDEST PUSH1 0x0 PUSH3 0x7DA4 DUP3 PUSH3 0x7BDA JUMP JUMPDEST PUSH3 0x7DB0 DUP2 DUP6 PUSH3 0x7BE5 JUMP JUMPDEST SWAP4 POP PUSH3 0x7DBD DUP4 PUSH3 0x7BF6 JUMP JUMPDEST DUP1 PUSH1 0x0 JUMPDEST DUP4 DUP2 LT ISZERO PUSH3 0x7DF4 JUMPI DUP2 MLOAD PUSH3 0x7DD8 DUP9 DUP3 PUSH3 0x7D6F JUMP JUMPDEST SWAP8 POP PUSH3 0x7DE5 DUP4 PUSH3 0x7D8A JUMP JUMPDEST SWAP3 POP POP PUSH1 0x1 DUP2 ADD SWAP1 POP PUSH3 0x7DC1 JUMP JUMPDEST POP DUP6 SWAP4 POP POP POP POP SWAP3 SWAP2 POP POP JUMP JUMPDEST PUSH1 0x0 PUSH1 0x20 DUP3 ADD SWAP1 POP DUP2 DUP2 SUB PUSH1 0x0 DUP4 ADD MSTORE PUSH3 0x7E1D DUP2 DUP5 PUSH3 0x7D97 JUMP JUMPDEST SWAP1 POP SWAP3 SWAP2 POP POP JUMP JUMPDEST PUSH1 0x0 DUP1 REVERT JUMPDEST PUSH32 0x4E487B7100000000000000000000000000000000000000000000000000000000 PUSH1 0x0 MSTORE PUSH1 0x41 PUSH1 0x4 MSTORE PUSH1 0x24 PUSH1 0x0 REVERT JUMPDEST PUSH3 0x7E64 DUP3 PUSH3 0x7898 JUMP JUMPDEST DUP2 ADD DUP2 DUP2 LT PUSH8 0xFFFFFFFFFFFFFFFF DUP3 GT OR ISZERO PUSH3 0x7E86 JUMPI PUSH3 0x7E85 PUSH3 0x7E2A JUMP JUMPDEST JUMPDEST DUP1 PUSH1 0x40 MSTORE POP POP POP JUMP JUMPDEST PUSH1 0x0 PUSH3 0x7E9B PUSH3 0x75F4 JUMP JUMPDEST SWAP1 POP PUSH3 0x7EA9 DUP3 DUP3 PUSH3 0x7E59 JUMP JUMPDEST SWAP2 SWAP1 POP JUMP JUMPDEST PUSH1 0x0 PUSH8 0xFFFFFFFFFFFFFFFF DUP3 GT ISZERO PUSH3 0x7ECC JUMPI PUSH3 0x7ECB PUSH3 0x7E2A JUMP JUMPDEST JUMPDEST PUSH3 0x7ED7 DUP3 PUSH3 0x7898 JUMP JUMPDEST SWAP1 POP PUSH1 0x20 DUP2 ADD SWAP1 POP SWAP2 SWAP1 POP JUMP JUMPDEST DUP3 DUP2 DUP4 CALLDATACOPY PUSH1 0x0 DUP4 DUP4 ADD MSTORE POP POP POP JUMP JUMPDEST PUSH1 0x0 PUSH3 0x7F0A PUSH3 0x7F04 DUP5 PUSH3 0x7EAE JUMP JUMPDEST PUSH3 0x7E8F JUMP JUMPDEST SWAP1 POP DUP3 DUP2 MSTORE PUSH1 0x20 DUP2 ADD DUP5 DUP5 DUP5 ADD GT ISZERO PUSH3 0x7F29 JUMPI PUSH3 0x7F28 PUSH3 0x7E25 JUMP JUMPDEST JUMPDEST PUSH3 0x7F36 DUP5 DUP3 DUP6 PUSH3 0x7EE4 JUMP JUMPDEST POP SWAP4 SWAP3 POP POP POP JUMP JUMPDEST PUSH1 0x0 DUP3 PUSH1 0x1F DUP4 ADD SLT PUSH3 0x7F56 JUMPI PUSH3 0x7F55 PUSH3 0x7967 JUMP JUMPDEST JUMPDEST DUP2 CALLDATALOAD PUSH3 0x7F68 DUP5 DUP3 PUSH1 0x20 DUP7 ADD PUSH3 0x7EF3 JUMP JUMPDEST SWAP2 POP POP SWAP3 SWAP2 POP POP JUMP JUMPDEST PUSH1 0x0 DUP1 PUSH1 0x40 DUP4 DUP6 SUB SLT ISZERO PUSH3 0x7F8B JUMPI PUSH3 0x7F8A PUSH3 0x75FE JUMP JUMPDEST JUMPDEST PUSH1 0x0 DUP4 ADD CALLDATALOAD PUSH8 0xFFFFFFFFFFFFFFFF DUP2 GT ISZERO PUSH3 0x7FAC JUMPI PUSH3 0x7FAB PUSH3 0x7603 JUMP JUMPDEST JUMPDEST PUSH3 0x7FBA DUP6 DUP3 DUP7 ADD PUSH3 0x7F3E JUMP JUMPDEST SWAP3 POP POP PUSH1 0x20 DUP4 ADD CALLDATALOAD PUSH8 0xFFFFFFFFFFFFFFFF DUP2 GT ISZERO PUSH3 0x7FDE JUMPI PUSH3 0x7FDD PUSH3 0x7603 JUMP JUMPDEST JUMPDEST PUSH3 0x7FEC DUP6 DUP3 DUP7 ADD PUSH3 0x7F3E JUMP JUMPDEST SWAP2 POP POP SWAP3 POP SWAP3 SWAP1 POP JUMP JUMPDEST PUSH1 0x0 DUP1 PUSH1 0x0 DUP1 PUSH1 0x80 DUP6 DUP8 SUB SLT ISZERO PUSH3 0x8013 JUMPI PUSH3 0x8012 PUSH3 0x75FE JUMP JUMPDEST JUMPDEST PUSH1 0x0 PUSH3 0x8023 DUP8 DUP3 DUP9 ADD PUSH3 0x7656 JUMP JUMPDEST SWAP5 POP POP PUSH1 0x20 PUSH3 0x8036 DUP8 DUP3 DUP9 ADD PUSH3 0x7691 JUMP JUMPDEST SWAP4 POP POP PUSH1 0x40 PUSH3 0x8049 DUP8 DUP3 DUP9 ADD PUSH3 0x7691 JUMP JUMPDEST SWAP3 POP POP PUSH1 0x60 PUSH3 0x805C DUP8 DUP3 DUP9 ADD PUSH3 0x7656 JUMP JUMPDEST SWAP2 POP POP SWAP3 SWAP6 SWAP2 SWAP5 POP SWAP3 POP JUMP JUMPDEST PUSH1 0x0 DUP1 PUSH1 0x0 PUSH1 0x60 DUP5 DUP7 SUB SLT ISZERO PUSH3 0x8084 JUMPI PUSH3 0x8083 PUSH3 0x75FE JUMP JUMPDEST JUMPDEST PUSH1 0x0 PUSH3 0x8094 DUP7 DUP3 DUP8 ADD PUSH3 0x7656 JUMP JUMPDEST SWAP4 POP POP PUSH1 0x20 PUSH3 0x80A7 DUP7 DUP3 DUP8 ADD PUSH3 0x7656 JUMP JUMPDEST SWAP3 POP POP PUSH1 0x40 PUSH3 0x80BA DUP7 DUP3 DUP8 ADD PUSH3 0x7691 JUMP JUMPDEST SWAP2 POP POP SWAP3 POP SWAP3 POP SWAP3 JUMP JUMPDEST PUSH1 0x0 PUSH1 0x20 DUP3 DUP5 SUB SLT ISZERO PUSH3 0x80DD JUMPI PUSH3 0x80DC PUSH3 0x75FE JUMP JUMPDEST JUMPDEST PUSH1 0x0 PUSH3 0x80ED DUP5 DUP3 DUP6 ADD PUSH3 0x7656 JUMP JUMPDEST SWAP2 POP POP SWAP3 SWAP2 POP POP JUMP JUMPDEST PUSH1 0x0 DUP1 PUSH1 0x0 DUP1 PUSH1 0x40 DUP6 DUP8 SUB SLT ISZERO PUSH3 0x8113 JUMPI PUSH3 0x8112 PUSH3 0x75FE JUMP JUMPDEST JUMPDEST PUSH1 0x0 DUP6 ADD CALLDATALOAD PUSH8 0xFFFFFFFFFFFFFFFF DUP2 GT ISZERO PUSH3 0x8134 JUMPI PUSH3 0x8133 PUSH3 0x7603 JUMP JUMPDEST JUMPDEST PUSH3 0x8142 DUP8 DUP3 DUP9 ADD PUSH3 0x7B26 JUMP JUMPDEST SWAP5 POP SWAP5 POP POP PUSH1 0x20 DUP6 ADD CALLDATALOAD PUSH8 0xFFFFFFFFFFFFFFFF DUP2 GT ISZERO PUSH3 0x8168 JUMPI PUSH3 0x8167 PUSH3 0x7603 JUMP JUMPDEST JUMPDEST PUSH3 0x8176 DUP8 DUP3 DUP9 ADD PUSH3 0x7976 JUMP JUMPDEST SWAP3 POP SWAP3 POP POP SWAP3 SWAP6 SWAP2 SWAP5 POP SWAP3 POP JUMP JUMPDEST PUSH1 0x0 DUP2 MLOAD SWAP1 POP SWAP2 SWAP1 POP JUMP JUMPDEST PUSH1 0x0 DUP3 DUP3 MSTORE PUSH1 0x20 DUP3 ADD SWAP1 POP SWAP3 SWAP2 POP POP JUMP JUMPDEST PUSH1 0x0 DUP2 SWAP1 POP PUSH1 0x20 DUP3 ADD SWAP1 POP SWAP2 SWAP1 POP JUMP JUMPDEST PUSH3 0x81BB DUP2 PUSH3 0x766D JUMP JUMPDEST DUP3 MSTORE POP POP JUMP JUMPDEST PUSH1 0x0 PUSH3 0x81CF DUP4 DUP4 PUSH3 0x81B0 JUMP JUMPDEST PUSH1 0x20 DUP4 ADD SWAP1 POP SWAP3 SWAP2 POP POP JUMP JUMPDEST PUSH1 0x0 PUSH1 0x20 DUP3 ADD SWAP1 POP SWAP2 SWAP1 POP JUMP JUMPDEST PUSH1 0x0 PUSH3 0x81F5 DUP3 PUSH3 0x8184 JUMP JUMPDEST PUSH3 0x8201 DUP2 DUP6 PUSH3 0x818F JUMP JUMPDEST SWAP4 POP PUSH3 0x820E DUP4 PUSH3 0x81A0 JUMP JUMPDEST DUP1 PUSH1 0x0 JUMPDEST DUP4 DUP2 LT ISZERO PUSH3 0x8245 JUMPI DUP2 MLOAD PUSH3 0x8229 DUP9 DUP3 PUSH3 0x81C1 JUMP JUMPDEST SWAP8 POP PUSH3 0x8236 DUP4 PUSH3 0x81DB JUMP JUMPDEST SWAP3 POP POP PUSH1 0x1 DUP2 ADD SWAP1 POP PUSH3 0x8212 JUMP JUMPDEST POP DUP6 SWAP4 POP POP POP POP SWAP3 SWAP2 POP POP JUMP JUMPDEST PUSH1 0x0 PUSH1 0x20 DUP3 ADD SWAP1 POP DUP2 DUP2 SUB PUSH1 0x0 DUP4 ADD MSTORE PUSH3 0x826E DUP2 DUP5 PUSH3 0x81E8 JUMP JUMPDEST SWAP1 POP SWAP3 SWAP2 POP POP JUMP JUMPDEST PUSH1 0xC0 DUP3 ADD PUSH1 0x0 DUP3 ADD MLOAD PUSH3 0x828E PUSH1 0x0 DUP6 ADD DUP3 PUSH3 0x7C06 JUMP JUMPDEST POP PUSH1 0x20 DUP3 ADD MLOAD PUSH3 0x82A3 PUSH1 0x20 DUP6 ADD DUP3 PUSH3 0x81B0 JUMP JUMPDEST POP PUSH1 0x40 DUP3 ADD MLOAD PUSH3 0x82B8 PUSH1 0x40 DUP6 ADD DUP3 PUSH3 0x81B0 JUMP JUMPDEST POP PUSH1 0x60 DUP3 ADD MLOAD PUSH3 0x82CD PUSH1 0x60 DUP6 ADD DUP3 PUSH3 0x81B0 JUMP JUMPDEST POP PUSH1 0x80 DUP3 ADD MLOAD PUSH3 0x82E2 PUSH1 0x80 DUP6 ADD DUP3 PUSH3 0x81B0 JUMP JUMPDEST POP PUSH1 0xA0 DUP3 ADD MLOAD PUSH3 0x82F7 PUSH1 0xA0 DUP6 ADD DUP3 PUSH3 0x81B0 JUMP JUMPDEST POP POP POP POP JUMP JUMPDEST PUSH1 0x0 PUSH1 0xC0 DUP3 ADD SWAP1 POP PUSH3 0x8314 PUSH1 0x0 DUP4 ADD DUP5 PUSH3 0x8276 JUMP JUMPDEST SWAP3 SWAP2 POP POP JUMP JUMPDEST PUSH3 0x8325 DUP2 PUSH3 0x77AC JUMP JUMPDEST DUP2 EQ PUSH3 0x8331 JUMPI PUSH1 0x0 DUP1 REVERT JUMPDEST POP JUMP JUMPDEST PUSH1 0x0 DUP2 CALLDATALOAD SWAP1 POP PUSH3 0x8345 DUP2 PUSH3 0x831A JUMP JUMPDEST SWAP3 SWAP2 POP POP JUMP JUMPDEST PUSH1 0x0 DUP1 PUSH1 0x40 DUP4 DUP6 SUB SLT ISZERO PUSH3 0x8365 JUMPI PUSH3 0x8364 PUSH3 0x75FE JUMP JUMPDEST JUMPDEST PUSH1 0x0 PUSH3 0x8375 DUP6 DUP3 DUP7 ADD PUSH3 0x7656 JUMP JUMPDEST SWAP3 POP POP PUSH1 0x20 PUSH3 0x8388 DUP6 DUP3 DUP7 ADD PUSH3 0x8334 JUMP JUMPDEST SWAP2 POP POP SWAP3 POP SWAP3 SWAP1 POP JUMP JUMPDEST PUSH1 0x0 DUP1 PUSH1 0x0 DUP1 PUSH1 0x0 DUP1 PUSH1 0xC0 DUP8 DUP10 SUB SLT ISZERO PUSH3 0x83B2 JUMPI PUSH3 0x83B1 PUSH3 0x75FE JUMP JUMPDEST JUMPDEST PUSH1 0x0 PUSH3 0x83C2 DUP10 DUP3 DUP11 ADD PUSH3 0x7656 JUMP JUMPDEST SWAP7 POP POP PUSH1 0x20 PUSH3 0x83D5 DUP10 DUP3 DUP11 ADD PUSH3 0x7656 JUMP JUMPDEST SWAP6 POP POP PUSH1 0x40 PUSH3 0x83E8 DUP10 DUP3 DUP11 ADD PUSH3 0x7691 JUMP JUMPDEST SWAP5 POP POP PUSH1 0x60 PUSH3 0x83FB DUP10 DUP3 DUP11 ADD PUSH3 0x7691 JUMP JUMPDEST SWAP4 POP POP PUSH1 0x80 PUSH3 0x840E DUP10 DUP3 DUP11 ADD PUSH3 0x7691 JUMP JUMPDEST SWAP3 POP POP PUSH1 0xA0 PUSH3 0x8421 DUP10 DUP3 DUP11 ADD PUSH3 0x7656 JUMP JUMPDEST SWAP2 POP POP SWAP3 SWAP6 POP SWAP3 SWAP6 POP SWAP3 SWAP6 JUMP JUMPDEST PUSH1 0x0 DUP1 PUSH1 0x20 DUP4 DUP6 SUB SLT ISZERO PUSH3 0x8448 JUMPI PUSH3 0x8447 PUSH3 0x75FE JUMP JUMPDEST JUMPDEST PUSH1 0x0 DUP4 ADD CALLDATALOAD PUSH8 0xFFFFFFFFFFFFFFFF DUP2 GT ISZERO PUSH3 0x8469 JUMPI PUSH3 0x8468 PUSH3 0x7603 JUMP JUMPDEST JUMPDEST PUSH3 0x8477 DUP6 DUP3 DUP7 ADD PUSH3 0x7976 JUMP JUMPDEST SWAP3 POP SWAP3 POP POP SWAP3 POP SWAP3 SWAP1 POP JUMP JUMPDEST PUSH1 0x0 DUP1 DUP4 PUSH1 0x1F DUP5 ADD SLT PUSH3 0x849C JUMPI PUSH3 0x849B PUSH3 0x7967 JUMP JUMPDEST JUMPDEST DUP3 CALLDATALOAD SWAP1 POP PUSH8 0xFFFFFFFFFFFFFFFF DUP2 GT ISZERO PUSH3 0x84BC JUMPI PUSH3 0x84BB PUSH3 0x796C JUMP JUMPDEST JUMPDEST PUSH1 0x20 DUP4 ADD SWAP2 POP DUP4 PUSH1 0x1 DUP3 MUL DUP4 ADD GT ISZERO PUSH3 0x84DB JUMPI PUSH3 0x84DA PUSH3 0x7971 JUMP JUMPDEST JUMPDEST SWAP3 POP SWAP3 SWAP1 POP JUMP JUMPDEST PUSH1 0x0 DUP1 PUSH1 0x20 DUP4 DUP6 SUB SLT ISZERO PUSH3 0x84FC JUMPI PUSH3 0x84FB PUSH3 0x75FE JUMP JUMPDEST JUMPDEST PUSH1 0x0 DUP4 ADD CALLDATALOAD PUSH8 0xFFFFFFFFFFFFFFFF DUP2 GT ISZERO PUSH3 0x851D JUMPI PUSH3 0x851C PUSH3 0x7603 JUMP JUMPDEST JUMPDEST PUSH3 0x852B DUP6 DUP3 DUP7 ADD PUSH3 0x8483 JUMP JUMPDEST SWAP3 POP SWAP3 POP POP SWAP3 POP SWAP3 SWAP1 POP JUMP JUMPDEST PUSH1 0x0 DUP1 PUSH1 0x40 DUP4 DUP6 SUB SLT ISZERO PUSH3 0x8551 JUMPI PUSH3 0x8550 PUSH3 0x75FE JUMP JUMPDEST JUMPDEST PUSH1 0x0 PUSH3 0x8561 DUP6 DUP3 DUP7 ADD PUSH3 0x7656 JUMP JUMPDEST SWAP3 POP POP PUSH1 0x20 PUSH3 0x8574 DUP6 DUP3 DUP7 ADD PUSH3 0x7656 JUMP JUMPDEST SWAP2 POP POP SWAP3 POP SWAP3 SWAP1 POP JUMP JUMPDEST PUSH1 0x0 DUP1 PUSH1 0x0 DUP1 PUSH1 0x0 PUSH1 0xA0 DUP7 DUP9 SUB SLT ISZERO PUSH3 0x859D JUMPI PUSH3 0x859C PUSH3 0x75FE JUMP JUMPDEST JUMPDEST PUSH1 0x0 PUSH3 0x85AD DUP9 DUP3 DUP10 ADD PUSH3 0x7656 JUMP JUMPDEST SWAP6 POP POP PUSH1 0x20 PUSH3 0x85C0 DUP9 DUP3 DUP10 ADD PUSH3 0x7656 JUMP JUMPDEST SWAP5 POP POP PUSH1 0x40 PUSH3 0x85D3 DUP9 DUP3 DUP10 ADD PUSH3 0x7656 JUMP JUMPDEST SWAP4 POP POP PUSH1 0x60 PUSH3 0x85E6 DUP9 DUP3 DUP10 ADD PUSH3 0x7656 JUMP JUMPDEST SWAP3 POP POP PUSH1 0x80 PUSH3 0x85F9 DUP9 DUP3 DUP10 ADD PUSH3 0x7656 JUMP JUMPDEST SWAP2 POP POP SWAP3 SWAP6 POP SWAP3 SWAP6 SWAP1 SWAP4 POP JUMP JUMPDEST PUSH1 0x0 DUP1 PUSH1 0x0 DUP1 PUSH1 0x0 DUP1 PUSH1 0xA0 DUP8 DUP10 SUB SLT ISZERO PUSH3 0x8626 JUMPI PUSH3 0x8625 PUSH3 0x75FE JUMP JUMPDEST JUMPDEST PUSH1 0x0 PUSH3 0x8636 DUP10 DUP3 DUP11 ADD PUSH3 0x7656 JUMP JUMPDEST SWAP7 POP POP PUSH1 0x20 PUSH3 0x8649 DUP10 DUP3 DUP11 ADD PUSH3 0x7656 JUMP JUMPDEST SWAP6 POP POP PUSH1 0x40 PUSH3 0x865C DUP10 DUP3 DUP11 ADD PUSH3 0x7691 JUMP JUMPDEST SWAP5 POP POP PUSH1 0x60 PUSH3 0x866F DUP10 DUP3 DUP11 ADD PUSH3 0x7691 JUMP JUMPDEST SWAP4 POP POP PUSH1 0x80 DUP8 ADD CALLDATALOAD PUSH8 0xFFFFFFFFFFFFFFFF DUP2 GT ISZERO PUSH3 0x8693 JUMPI PUSH3 0x8692 PUSH3 0x7603 JUMP JUMPDEST JUMPDEST PUSH3 0x86A1 DUP10 DUP3 DUP11 ADD PUSH3 0x79D5 JUMP JUMPDEST SWAP3 POP SWAP3 POP POP SWAP3 SWAP6 POP SWAP3 SWAP6 POP SWAP3 SWAP6 JUMP JUMPDEST PUSH1 0x0 DUP2 MLOAD SWAP1 POP PUSH3 0x86C1 DUP2 PUSH3 0x763C JUMP JUMPDEST SWAP3 SWAP2 POP POP JUMP JUMPDEST PUSH1 0x0 PUSH1 0x20 DUP3 DUP5 SUB SLT ISZERO PUSH3 0x86E0 JUMPI PUSH3 0x86DF PUSH3 0x75FE JUMP JUMPDEST JUMPDEST PUSH1 0x0 PUSH3 0x86F0 DUP5 DUP3 DUP6 ADD PUSH3 0x86B0 JUMP JUMPDEST SWAP2 POP POP SWAP3 SWAP2 POP POP JUMP JUMPDEST PUSH32 0x4E487B7100000000000000000000000000000000000000000000000000000000 PUSH1 0x0 MSTORE PUSH1 0x22 PUSH1 0x4 MSTORE PUSH1 0x24 PUSH1 0x0 REVERT JUMPDEST PUSH1 0x0 PUSH1 0x2 DUP3 DIV SWAP1 POP PUSH1 0x1 DUP3 AND DUP1 PUSH3 0x8741 JUMPI PUSH1 0x7F DUP3 AND SWAP2 POP JUMPDEST PUSH1 0x20 DUP3 LT DUP2 EQ ISZERO PUSH3 0x8758 JUMPI PUSH3 0x8757 PUSH3 0x86F9 JUMP JUMPDEST JUMPDEST POP SWAP2 SWAP1 POP JUMP JUMPDEST PUSH32 0x4E487B7100000000000000000000000000000000000000000000000000000000 PUSH1 0x0 MSTORE PUSH1 0x11 PUSH1 0x4 MSTORE PUSH1 0x24 PUSH1 0x0 REVERT JUMPDEST PUSH1 0x0 PUSH3 0x879A DUP3 PUSH3 0x766D JUMP JUMPDEST SWAP2 POP PUSH3 0x87A7 DUP4 PUSH3 0x766D JUMP JUMPDEST SWAP3 POP DUP2 PUSH32 0xFFFFFFFFFFFFFFFFFFFFFFFFFFFFFFFFFFFFFFFFFFFFFFFFFFFFFFFFFFFFFFFF DIV DUP4 GT DUP3 ISZERO ISZERO AND ISZERO PUSH3 0x87E3 JUMPI PUSH3 0x87E2 PUSH3 0x875E JUMP JUMPDEST JUMPDEST DUP3 DUP3 MUL SWAP1 POP SWAP3 SWAP2 POP POP JUMP JUMPDEST PUSH1 0x0 DUP2 CALLDATALOAD PUSH3 0x87FD DUP2 PUSH3 0x763C JUMP JUMPDEST DUP1 SWAP2 POP POP SWAP2 SWAP1 POP JUMP JUMPDEST PUSH1 0x0 DUP2 PUSH1 0x0 SHL SWAP1 POP SWAP2 SWAP1 POP JUMP JUMPDEST PUSH1 0x0 PUSH20 0xFFFFFFFFFFFFFFFFFFFFFFFFFFFFFFFFFFFFFFFF PUSH3 0x8835 DUP5 PUSH3 0x8806 JUMP JUMPDEST SWAP4 POP DUP1 NOT DUP4 AND SWAP3 POP DUP1 DUP5 AND DUP4 OR SWAP2 POP POP SWAP3 SWAP2 POP POP JUMP JUMPDEST PUSH1 0x0 DUP2 SWAP1 POP SWAP2 SWAP1 POP JUMP JUMPDEST PUSH1 0x0 PUSH3 0x8876 PUSH3 0x8870 PUSH3 0x886A DUP5 PUSH3 0x7608 JUMP JUMPDEST PUSH3 0x884B JUMP JUMPDEST PUSH3 0x7608 JUMP JUMPDEST SWAP1 POP SWAP2 SWAP1 POP JUMP JUMPDEST PUSH1 0x0 PUSH3 0x888A DUP3 PUSH3 0x8855 JUMP JUMPDEST SWAP1 POP SWAP2 SWAP1 POP JUMP JUMPDEST PUSH1 0x0 PUSH3 0x889E DUP3 PUSH3 0x887D JUMP JUMPDEST SWAP1 POP SWAP2 SWAP1 POP JUMP JUMPDEST PUSH1 0x0 DUP2 SWAP1 POP SWAP2 SWAP1 POP JUMP JUMPDEST PUSH3 0x88BA DUP3 PUSH3 0x8891 JUMP JUMPDEST PUSH3 0x88D1 PUSH3 0x88C9 DUP3 PUSH3 0x88A5 JUMP JUMPDEST DUP4 SLOAD PUSH3 0x8813 JUMP JUMPDEST DUP3 SSTORE POP POP POP JUMP JUMPDEST PUSH1 0x0 DUP2 CALLDATALOAD PUSH3 0x88E7 DUP2 PUSH3 0x7677 JUMP JUMPDEST DUP1 SWAP2 POP POP SWAP2 SWAP1 POP JUMP JUMPDEST PUSH1 0x0 PUSH32 0xFFFFFFFFFFFFFFFFFFFFFFFFFFFFFFFFFFFFFFFFFFFFFFFFFFFFFFFFFFFFFFFF PUSH3 0x891E DUP5 PUSH3 0x8806 JUMP JUMPDEST SWAP4 POP DUP1 NOT DUP4 AND SWAP3 POP DUP1 DUP5 AND DUP4 OR SWAP2 POP POP SWAP3 SWAP2 POP POP JUMP JUMPDEST PUSH1 0x0 PUSH3 0x8955 PUSH3 0x894F PUSH3 0x8949 DUP5 PUSH3 0x766D JUMP JUMPDEST PUSH3 0x884B JUMP JUMPDEST PUSH3 0x766D JUMP JUMPDEST SWAP1 POP SWAP2 SWAP1 POP JUMP JUMPDEST PUSH1 0x0 DUP2 SWAP1 POP SWAP2 SWAP1 POP JUMP JUMPDEST PUSH3 0x8971 DUP3 PUSH3 0x8934 JUMP JUMPDEST PUSH3 0x8988 PUSH3 0x8980 DUP3 PUSH3 0x895C JUMP JUMPDEST DUP4 SLOAD PUSH3 0x88F0 JUMP JUMPDEST DUP3 SSTORE POP POP POP JUMP JUMPDEST PUSH1 0x0 DUP2 ADD PUSH1 0x0 DUP4 ADD DUP1 PUSH3 0x89A3 DUP2 PUSH3 0x87EE JUMP JUMPDEST SWAP1 POP PUSH3 0x89B1 DUP2 DUP5 PUSH3 0x88AF JUMP JUMPDEST POP POP POP PUSH1 0x1 DUP2 ADD PUSH1 0x20 DUP4 ADD DUP1 PUSH3 0x89C8 DUP2 PUSH3 0x88D8 JUMP JUMPDEST SWAP1 POP PUSH3 0x89D6 DUP2 DUP5 PUSH3 0x8966 JUMP JUMPDEST POP POP POP PUSH1 0x2 DUP2 ADD PUSH1 0x40 DUP4 ADD DUP1 PUSH3 0x89ED DUP2 PUSH3 0x88D8 JUMP JUMPDEST SWAP1 POP PUSH3 0x89FB DUP2 DUP5 PUSH3 0x8966 JUMP JUMPDEST POP POP POP PUSH1 0x3 DUP2 ADD PUSH1 0x60 DUP4 ADD DUP1 PUSH3 0x8A12 DUP2 PUSH3 0x88D8 JUMP JUMPDEST SWAP1 POP PUSH3 0x8A20 DUP2 DUP5 PUSH3 0x8966 JUMP JUMPDEST POP POP POP PUSH1 0x4 DUP2 ADD PUSH1 0x80 DUP4 ADD DUP1 PUSH3 0x8A37 DUP2 PUSH3 0x88D8 JUMP JUMPDEST SWAP1 POP PUSH3 0x8A45 DUP2 DUP5 PUSH3 0x8966 JUMP JUMPDEST POP POP POP PUSH1 0x5 DUP2 ADD PUSH1 0xA0 DUP4 ADD DUP1 PUSH3 0x8A5C DUP2 PUSH3 0x88D8 JUMP JUMPDEST SWAP1 POP PUSH3 0x8A6A DUP2 DUP5 PUSH3 0x8966 JUMP JUMPDEST POP POP POP POP POP JUMP JUMPDEST PUSH3 0x8A7D DUP3 DUP3 PUSH3 0x898F JUMP JUMPDEST POP POP JUMP JUMPDEST PUSH1 0x0 DUP2 SWAP1 POP SWAP3 SWAP2 POP POP JUMP JUMPDEST PUSH1 0x0 DUP2 SWAP1 POP DUP2 PUSH1 0x0 MSTORE PUSH1 0x20 PUSH1 0x0 KECCAK256 SWAP1 POP SWAP2 SWAP1 POP JUMP JUMPDEST PUSH1 0x0 DUP2 SLOAD PUSH3 0x8AB0 DUP2 PUSH3 0x8728 JUMP JUMPDEST PUSH3 0x8ABC DUP2 DUP7 PUSH3 0x8A81 JUMP JUMPDEST SWAP5 POP PUSH1 0x1 DUP3 AND PUSH1 0x0 DUP2 EQ PUSH3 0x8ADA JUMPI PUSH1 0x1 DUP2 EQ PUSH3 0x8AEC JUMPI PUSH3 0x8B23 JUMP JUMPDEST PUSH1 0xFF NOT DUP4 AND DUP7 MSTORE DUP2 DUP7 ADD SWAP4 POP PUSH3 0x8B23 JUMP JUMPDEST PUSH3 0x8AF7 DUP6 PUSH3 0x8A8C JUMP JUMPDEST PUSH1 0x0 JUMPDEST DUP4 DUP2 LT ISZERO PUSH3 0x8B1B JUMPI DUP2 SLOAD DUP2 DUP10 ADD MSTORE PUSH1 0x1 DUP3 ADD SWAP2 POP PUSH1 0x20 DUP2 ADD SWAP1 POP PUSH3 0x8AFA JUMP JUMPDEST DUP4 DUP9 ADD SWAP6 POP POP POP JUMPDEST POP POP POP SWAP3 SWAP2 POP POP JUMP JUMPDEST PUSH1 0x0 DUP2 SWAP1 POP SWAP2 SWAP1 POP JUMP JUMPDEST PUSH3 0x8B4B PUSH3 0x8B45 DUP3 PUSH3 0x766D JUMP JUMPDEST PUSH3 0x8B2C JUMP JUMPDEST DUP3 MSTORE POP POP JUMP JUMPDEST PUSH32 0x2E6A736F6E000000000000000000000000000000000000000000000000000000 PUSH1 0x0 DUP3 ADD MSTORE POP JUMP JUMPDEST PUSH1 0x0 PUSH3 0x8B89 PUSH1 0x5 DUP4 PUSH3 0x8A81 JUMP JUMPDEST SWAP2 POP PUSH3 0x8B96 DUP3 PUSH3 0x8B51 JUMP JUMPDEST PUSH1 0x5 DUP3 ADD SWAP1 POP SWAP2 SWAP1 POP JUMP JUMPDEST PUSH1 0x0 PUSH3 0x8BAF DUP3 DUP6 PUSH3 0x8AA1 JUMP JUMPDEST SWAP2 POP PUSH3 0x8BBD DUP3 DUP5 PUSH3 0x8B36 JUMP JUMPDEST PUSH1 0x20 DUP3 ADD SWAP2 POP PUSH3 0x8BCE DUP3 PUSH3 0x8B7A JUMP JUMPDEST SWAP2 POP DUP2 SWAP1 POP SWAP4 SWAP3 POP POP POP JUMP JUMPDEST PUSH1 0x0 PUSH3 0x8BE7 DUP3 PUSH3 0x766D JUMP JUMPDEST SWAP2 POP PUSH32 0xFFFFFFFFFFFFFFFFFFFFFFFFFFFFFFFFFFFFFFFFFFFFFFFFFFFFFFFFFFFFFFFF DUP3 EQ ISZERO PUSH3 0x8C1D JUMPI PUSH3 0x8C1C PUSH3 0x875E JUMP JUMPDEST JUMPDEST PUSH1 0x1 DUP3 ADD SWAP1 POP SWAP2 SWAP1 POP JUMP JUMPDEST PUSH1 0x0 PUSH3 0x8C35 DUP3 PUSH3 0x766D JUMP JUMPDEST SWAP2 POP PUSH3 0x8C42 DUP4 PUSH3 0x766D JUMP JUMPDEST SWAP3 POP DUP3 PUSH32 0xFFFFFFFFFFFFFFFFFFFFFFFFFFFFFFFFFFFFFFFFFFFFFFFFFFFFFFFFFFFFFFFF SUB DUP3 GT ISZERO PUSH3 0x8C7A JUMPI PUSH3 0x8C79 PUSH3 0x875E JUMP JUMPDEST JUMPDEST DUP3 DUP3 ADD SWAP1 POP SWAP3 SWAP2 POP POP JUMP JUMPDEST PUSH32 0x4E487B7100000000000000000000000000000000000000000000000000000000 PUSH1 0x0 MSTORE PUSH1 0x32 PUSH1 0x4 MSTORE PUSH1 0x24 PUSH1 0x0 REVERT JUMPDEST PUSH32 0x4300000000000000000000000000000000000000000000000000000000000000 PUSH1 0x0 DUP3 ADD MSTORE POP JUMP JUMPDEST PUSH1 0x0 PUSH3 0x8CEC PUSH1 0x1 DUP4 PUSH3 0x7851 JUMP JUMPDEST SWAP2 POP PUSH3 0x8CF9 DUP3 PUSH3 0x8CB4 JUMP JUMPDEST PUSH1 0x20 DUP3 ADD SWAP1 POP SWAP2 SWAP1 POP JUMP JUMPDEST PUSH1 0x0 PUSH1 0x20 DUP3 ADD SWAP1 POP DUP2 DUP2 SUB PUSH1 0x0 DUP4 ADD MSTORE PUSH3 0x8D1F DUP2 PUSH3 0x8CDD JUMP JUMPDEST SWAP1 POP SWAP2 SWAP1 POP JUMP JUMPDEST PUSH32 0x4400000000000000000000000000000000000000000000000000000000000000 PUSH1 0x0 DUP3 ADD MSTORE POP JUMP JUMPDEST PUSH1 0x0 PUSH3 0x8D5E PUSH1 0x1 DUP4 PUSH3 0x7851 JUMP JUMPDEST SWAP2 POP PUSH3 0x8D6B DUP3 PUSH3 0x8D26 JUMP JUMPDEST PUSH1 0x20 DUP3 ADD SWAP1 POP SWAP2 SWAP1 POP JUMP JUMPDEST PUSH1 0x0 PUSH1 0x20 DUP3 ADD SWAP1 POP DUP2 DUP2 SUB PUSH1 0x0 DUP4 ADD MSTORE PUSH3 0x8D91 DUP2 PUSH3 0x8D4F JUMP JUMPDEST SWAP1 POP SWAP2 SWAP1 POP JUMP JUMPDEST PUSH1 0x0 PUSH3 0x8DA5 DUP3 PUSH3 0x766D JUMP JUMPDEST SWAP2 POP PUSH3 0x8DB2 DUP4 PUSH3 0x766D JUMP JUMPDEST SWAP3 POP DUP3 DUP3 LT ISZERO PUSH3 0x8DC8 JUMPI PUSH3 0x8DC7 PUSH3 0x875E JUMP JUMPDEST JUMPDEST DUP3 DUP3 SUB SWAP1 POP SWAP3 SWAP2 POP POP JUMP JUMPDEST PUSH32 0x4600000000000000000000000000000000000000000000000000000000000000 PUSH1 0x0 DUP3 ADD MSTORE POP JUMP JUMPDEST PUSH1 0x0 PUSH3 0x8E0B PUSH1 0x1 DUP4 PUSH3 0x7851 JUMP JUMPDEST SWAP2 POP PUSH3 0x8E18 DUP3 PUSH3 0x8DD3 JUMP JUMPDEST PUSH1 0x20 DUP3 ADD SWAP1 POP SWAP2 SWAP1 POP JUMP JUMPDEST PUSH1 0x0 PUSH1 0x20 DUP3 ADD SWAP1 POP DUP2 DUP2 SUB PUSH1 0x0 DUP4 ADD MSTORE PUSH3 0x8E3E DUP2 PUSH3 0x8DFC JUMP JUMPDEST SWAP1 POP SWAP2 SWAP1 POP JUMP JUMPDEST PUSH32 0x4E487B7100000000000000000000000000000000000000000000000000000000 PUSH1 0x0 MSTORE PUSH1 0x12 PUSH1 0x4 MSTORE PUSH1 0x24 PUSH1 0x0 REVERT JUMPDEST PUSH1 0x0 PUSH3 0x8E81 DUP3 PUSH3 0x766D JUMP JUMPDEST SWAP2 POP PUSH3 0x8E8E DUP4 PUSH3 0x766D JUMP JUMPDEST SWAP3 POP DUP3 PUSH3 0x8EA1 JUMPI PUSH3 0x8EA0 PUSH3 0x8E45 JUMP JUMPDEST JUMPDEST DUP3 DUP3 DIV SWAP1 POP SWAP3 SWAP2 POP POP JUMP JUMPDEST PUSH1 0x0 PUSH1 0x40 DUP3 ADD SWAP1 POP PUSH3 0x8EC3 PUSH1 0x0 DUP4 ADD DUP6 PUSH3 0x7818 JUMP JUMPDEST PUSH3 0x8ED2 PUSH1 0x20 DUP4 ADD DUP5 PUSH3 0x76EF JUMP JUMPDEST SWAP4 SWAP3 POP POP POP JUMP JUMPDEST PUSH1 0x0 PUSH1 0x80 DUP3 ADD SWAP1 POP PUSH3 0x8EF0 PUSH1 0x0 DUP4 ADD DUP8 PUSH3 0x7818 JUMP JUMPDEST PUSH3 0x8EFF PUSH1 0x20 DUP4 ADD DUP7 PUSH3 0x76EF JUMP JUMPDEST PUSH3 0x8F0E PUSH1 0x40 DUP4 ADD DUP6 PUSH3 0x76EF JUMP JUMPDEST PUSH3 0x8F1D PUSH1 0x60 DUP4 ADD DUP5 PUSH3 0x76EF JUMP JUMPDEST SWAP6 SWAP5 POP POP POP POP POP JUMP JUMPDEST PUSH1 0x0 PUSH3 0x8F47 PUSH3 0x8F41 PUSH3 0x8F3B DUP5 PUSH3 0x7CE2 JUMP JUMPDEST PUSH3 0x884B JUMP JUMPDEST PUSH3 0x766D JUMP JUMPDEST SWAP1 POP SWAP2 SWAP1 POP JUMP JUMPDEST PUSH3 0x8F59 DUP2 PUSH3 0x8F26 JUMP JUMPDEST DUP3 MSTORE POP POP JUMP JUMPDEST PUSH1 0x0 PUSH1 0x80 DUP3 ADD SWAP1 POP PUSH3 0x8F76 PUSH1 0x0 DUP4 ADD DUP8 PUSH3 0x7818 JUMP JUMPDEST PUSH3 0x8F85 PUSH1 0x20 DUP4 ADD DUP7 PUSH3 0x76EF JUMP JUMPDEST PUSH3 0x8F94 PUSH1 0x40 DUP4 ADD DUP6 PUSH3 0x76EF JUMP JUMPDEST PUSH3 0x8FA3 PUSH1 0x60 DUP4 ADD DUP5 PUSH3 0x8F4E JUMP JUMPDEST SWAP6 SWAP5 POP POP POP POP POP JUMP JUMPDEST PUSH1 0x0 PUSH3 0x8FB9 DUP3 PUSH3 0x7CE2 JUMP JUMPDEST SWAP2 POP PUSH3 0x8FC6 DUP4 PUSH3 0x7CE2 JUMP JUMPDEST SWAP3 POP DUP3 PUSH16 0xFFFFFFFFFFFFFFFFFFFFFFFFFFFFFFFF SUB DUP3 GT ISZERO PUSH3 0x8FEE JUMPI PUSH3 0x8FED PUSH3 0x875E JUMP JUMPDEST JUMPDEST DUP3 DUP3 ADD SWAP1 POP SWAP3 SWAP2 POP POP JUMP JUMPDEST PUSH32 0x4800000000000000000000000000000000000000000000000000000000000000 PUSH1 0x0 DUP3 ADD MSTORE POP JUMP JUMPDEST PUSH1 0x0 PUSH3 0x9031 PUSH1 0x1 DUP4 PUSH3 0x7851 JUMP JUMPDEST SWAP2 POP PUSH3 0x903E DUP3 PUSH3 0x8FF9 JUMP JUMPDEST PUSH1 0x20 DUP3 ADD SWAP1 POP SWAP2 SWAP1 POP JUMP JUMPDEST PUSH1 0x0 PUSH1 0x20 DUP3 ADD SWAP1 POP DUP2 DUP2 SUB PUSH1 0x0 DUP4 ADD MSTORE PUSH3 0x9064 DUP2 PUSH3 0x9022 JUMP JUMPDEST SWAP1 POP SWAP2 SWAP1 POP JUMP JUMPDEST PUSH32 0x6900000000000000000000000000000000000000000000000000000000000000 PUSH1 0x0 DUP3 ADD MSTORE POP JUMP JUMPDEST PUSH1 0x0 PUSH3 0x90A3 PUSH1 0x1 DUP4 PUSH3 0x7851 JUMP JUMPDEST SWAP2 POP PUSH3 0x90B0 DUP3 PUSH3 0x906B JUMP JUMPDEST PUSH1 0x20 DUP3 ADD SWAP1 POP SWAP2 SWAP1 POP JUMP JUMPDEST PUSH1 0x0 PUSH1 0x20 DUP3 ADD SWAP1 POP DUP2 DUP2 SUB PUSH1 0x0 DUP4 ADD MSTORE PUSH3 0x90D6 DUP2 PUSH3 0x9094 JUMP JUMPDEST SWAP1 POP SWAP2 SWAP1 POP JUMP JUMPDEST PUSH32 0x4C00000000000000000000000000000000000000000000000000000000000000 PUSH1 0x0 DUP3 ADD MSTORE POP JUMP JUMPDEST PUSH1 0x0 PUSH3 0x9115 PUSH1 0x1 DUP4 PUSH3 0x7851 JUMP JUMPDEST SWAP2 POP PUSH3 0x9122 DUP3 PUSH3 0x90DD JUMP JUMPDEST PUSH1 0x20 DUP3 ADD SWAP1 POP SWAP2 SWAP1 POP JUMP JUMPDEST PUSH1 0x0 PUSH1 0x20 DUP3 ADD SWAP1 POP DUP2 DUP2 SUB PUSH1 0x0 DUP4 ADD MSTORE PUSH3 0x9148 DUP2 PUSH3 0x9106 JUMP JUMPDEST SWAP1 POP SWAP2 SWAP1 POP JUMP JUMPDEST PUSH1 0x0 PUSH3 0x915D DUP4 DUP6 PUSH3 0x8A81 JUMP JUMPDEST SWAP4 POP PUSH3 0x916C DUP4 DUP6 DUP5 PUSH3 0x7EE4 JUMP JUMPDEST DUP3 DUP5 ADD SWAP1 POP SWAP4 SWAP3 POP POP POP JUMP JUMPDEST PUSH32 0x7B69647D2E6A736F6E0000000000000000000000000000000000000000000000 PUSH1 0x0 DUP3 ADD MSTORE POP JUMP JUMPDEST PUSH1 0x0 PUSH3 0x91B0 PUSH1 0x9 DUP4 PUSH3 0x8A81 JUMP JUMPDEST SWAP2 POP PUSH3 0x91BD DUP3 PUSH3 0x9178 JUMP JUMPDEST PUSH1 0x9 DUP3 ADD SWAP1 POP SWAP2 SWAP1 POP JUMP JUMPDEST PUSH1 0x0 PUSH3 0x91D7 DUP3 DUP5 DUP7 PUSH3 0x914F JUMP JUMPDEST SWAP2 POP PUSH3 0x91E4 DUP3 PUSH3 0x91A1 JUMP JUMPDEST SWAP2 POP DUP2 SWAP1 POP SWAP4 SWAP3 POP POP POP JUMP JUMPDEST PUSH32 0x4B00000000000000000000000000000000000000000000000000000000000000 PUSH1 0x0 DUP3 ADD MSTORE POP JUMP JUMPDEST PUSH1 0x0 PUSH3 0x9228 PUSH1 0x1 DUP4 PUSH3 0x7851 JUMP JUMPDEST SWAP2 POP PUSH3 0x9235 DUP3 PUSH3 0x91F0 JUMP JUMPDEST PUSH1 0x20 DUP3 ADD SWAP1 POP SWAP2 SWAP1 POP JUMP JUMPDEST PUSH1 0x0 PUSH1 0x20 DUP3 ADD SWAP1 POP DUP2 DUP2 SUB PUSH1 0x0 DUP4 ADD MSTORE PUSH3 0x925B DUP2 PUSH3 0x9219 JUMP JUMPDEST SWAP1 POP SWAP2 SWAP1 POP JUMP JUMPDEST PUSH32 0x4A00000000000000000000000000000000000000000000000000000000000000 PUSH1 0x0 DUP3 ADD MSTORE POP JUMP JUMPDEST PUSH1 0x0 PUSH3 0x929A PUSH1 0x1 DUP4 PUSH3 0x7851 JUMP JUMPDEST SWAP2 POP PUSH3 0x92A7 DUP3 PUSH3 0x9262 JUMP JUMPDEST PUSH1 0x20 DUP3 ADD SWAP1 POP SWAP2 SWAP1 POP JUMP JUMPDEST PUSH1 0x0 PUSH1 0x20 DUP3 ADD SWAP1 POP DUP2 DUP2 SUB PUSH1 0x0 DUP4 ADD MSTORE PUSH3 0x92CD DUP2 PUSH3 0x928B JUMP JUMPDEST SWAP1 POP SWAP2 SWAP1 POP JUMP JUMPDEST PUSH32 0x5500000000000000000000000000000000000000000000000000000000000000 PUSH1 0x0 DUP3 ADD MSTORE POP JUMP JUMPDEST PUSH1 0x0 PUSH3 0x930C PUSH1 0x1 DUP4 PUSH3 0x7851 JUMP JUMPDEST SWAP2 POP PUSH3 0x9319 DUP3 PUSH3 0x92D4 JUMP JUMPDEST PUSH1 0x20 DUP3 ADD SWAP1 POP SWAP2 SWAP1 POP JUMP JUMPDEST PUSH1 0x0 PUSH1 0x20 DUP3 ADD SWAP1 POP DUP2 DUP2 SUB PUSH1 0x0 DUP4 ADD MSTORE PUSH3 0x933F DUP2 PUSH3 0x92FD JUMP JUMPDEST SWAP1 POP SWAP2 SWAP1 POP JUMP JUMPDEST PUSH1 0x0 DUP1 REVERT JUMPDEST PUSH1 0x0 PUSH3 0x9359 DUP4 DUP6 PUSH3 0x818F JUMP JUMPDEST SWAP4 POP PUSH32 0x7FFFFFFFFFFFFFFFFFFFFFFFFFFFFFFFFFFFFFFFFFFFFFFFFFFFFFFFFFFFFFF DUP4 GT ISZERO PUSH3 0x938F JUMPI PUSH3 0x938E PUSH3 0x9346 JUMP JUMPDEST JUMPDEST PUSH1 0x20 DUP4 MUL SWAP3 POP PUSH3 0x93A2 DUP4 DUP6 DUP5 PUSH3 0x7EE4 JUMP JUMPDEST DUP3 DUP5 ADD SWAP1 POP SWAP4 SWAP3 POP POP POP JUMP JUMPDEST PUSH1 0x0 PUSH1 0x40 DUP3 ADD SWAP1 POP DUP2 DUP2 SUB PUSH1 0x0 DUP4 ADD MSTORE PUSH3 0x93CB DUP2 DUP7 DUP9 PUSH3 0x934B JUMP JUMPDEST SWAP1 POP DUP2 DUP2 SUB PUSH1 0x20 DUP4 ADD MSTORE PUSH3 0x93E2 DUP2 DUP5 DUP7 PUSH3 0x934B JUMP JUMPDEST SWAP1 POP SWAP6 SWAP5 POP POP POP POP POP JUMP JUMPDEST PUSH32 0x4700000000000000000000000000000000000000000000000000000000000000 PUSH1 0x0 DUP3 ADD MSTORE POP JUMP JUMPDEST PUSH1 0x0 PUSH3 0x9425 PUSH1 0x1 DUP4 PUSH3 0x7851 JUMP JUMPDEST SWAP2 POP PUSH3 0x9432 DUP3 PUSH3 0x93ED JUMP JUMPDEST PUSH1 0x20 DUP3 ADD SWAP1 POP SWAP2 SWAP1 POP JUMP JUMPDEST PUSH1 0x0 PUSH1 0x20 DUP3 ADD SWAP1 POP DUP2 DUP2 SUB PUSH1 0x0 DUP4 ADD MSTORE PUSH3 0x9458 DUP2 PUSH3 0x9416 JUMP JUMPDEST SWAP1 POP SWAP2 SWAP1 POP JUMP JUMPDEST PUSH1 0x0 PUSH1 0x40 DUP3 ADD SWAP1 POP PUSH3 0x9476 PUSH1 0x0 DUP4 ADD DUP6 PUSH3 0x76EF JUMP JUMPDEST PUSH3 0x9485 PUSH1 0x20 DUP4 ADD DUP5 PUSH3 0x76EF JUMP JUMPDEST SWAP4 SWAP3 POP POP POP JUMP JUMPDEST PUSH1 0x0 PUSH3 0x9499 DUP3 PUSH3 0x766D JUMP JUMPDEST SWAP2 POP PUSH3 0x94A6 DUP4 PUSH3 0x766D JUMP JUMPDEST SWAP3 POP DUP3 PUSH3 0x94B9 JUMPI PUSH3 0x94B8 PUSH3 0x8E45 JUMP JUMPDEST JUMPDEST DUP3 DUP3 MOD SWAP1 POP SWAP3 SWAP2 POP POP JUMP JUMPDEST PUSH1 0x0 DUP2 MLOAD SWAP1 POP PUSH3 0x94D5 DUP2 PUSH3 0x7677 JUMP JUMPDEST SWAP3 SWAP2 POP POP JUMP JUMPDEST PUSH1 0x0 PUSH1 0x20 DUP3 DUP5 SUB SLT ISZERO PUSH3 0x94F4 JUMPI PUSH3 0x94F3 PUSH3 0x75FE JUMP JUMPDEST JUMPDEST PUSH1 0x0 PUSH3 0x9504 DUP5 DUP3 DUP6 ADD PUSH3 0x94C4 JUMP JUMPDEST SWAP2 POP POP SWAP3 SWAP2 POP POP JUMP JUMPDEST PUSH32 0x3200000000000000000000000000000000000000000000000000000000000000 PUSH1 0x0 DUP3 ADD MSTORE POP JUMP JUMPDEST PUSH1 0x0 PUSH3 0x9545 PUSH1 0x1 DUP4 PUSH3 0x7851 JUMP JUMPDEST SWAP2 POP PUSH3 0x9552 DUP3 PUSH3 0x950D JUMP JUMPDEST PUSH1 0x20 DUP3 ADD SWAP1 POP SWAP2 SWAP1 POP JUMP JUMPDEST PUSH1 0x0 PUSH1 0x20 DUP3 ADD SWAP1 POP DUP2 DUP2 SUB PUSH1 0x0 DUP4 ADD MSTORE PUSH3 0x9578 DUP2 PUSH3 0x9536 JUMP JUMPDEST SWAP1 POP SWAP2 SWAP1 POP JUMP JUMPDEST PUSH32 0x5A00000000000000000000000000000000000000000000000000000000000000 PUSH1 0x0 DUP3 ADD MSTORE POP JUMP JUMPDEST PUSH1 0x0 PUSH3 0x95B7 PUSH1 0x1 DUP4 PUSH3 0x7851 JUMP JUMPDEST SWAP2 POP PUSH3 0x95C4 DUP3 PUSH3 0x957F JUMP JUMPDEST PUSH1 0x20 DUP3 ADD SWAP1 POP SWAP2 SWAP1 POP JUMP JUMPDEST PUSH1 0x0 PUSH1 0x20 DUP3 ADD SWAP1 POP DUP2 DUP2 SUB PUSH1 0x0 DUP4 ADD MSTORE PUSH3 0x95EA DUP2 PUSH3 0x95A8 JUMP JUMPDEST SWAP1 POP SWAP2 SWAP1 POP JUMP JUMPDEST PUSH32 0x3100000000000000000000000000000000000000000000000000000000000000 PUSH1 0x0 DUP3 ADD MSTORE POP JUMP JUMPDEST PUSH1 0x0 PUSH3 0x9629 PUSH1 0x1 DUP4 PUSH3 0x7851 JUMP JUMPDEST SWAP2 POP PUSH3 0x9636 DUP3 PUSH3 0x95F1 JUMP JUMPDEST PUSH1 0x20 DUP3 ADD SWAP1 POP SWAP2 SWAP1 POP JUMP JUMPDEST PUSH1 0x0 PUSH1 0x20 DUP3 ADD SWAP1 POP DUP2 DUP2 SUB PUSH1 0x0 DUP4 ADD MSTORE PUSH3 0x965C DUP2 PUSH3 0x961A JUMP JUMPDEST SWAP1 POP SWAP2 SWAP1 POP JUMP JUMPDEST PUSH1 0x0 PUSH2 0x100 DUP3 ADD SWAP1 POP PUSH3 0x967B PUSH1 0x0 DUP4 ADD DUP12 PUSH3 0x7818 JUMP JUMPDEST PUSH3 0x968A PUSH1 0x20 DUP4 ADD DUP11 PUSH3 0x7818 JUMP JUMPDEST PUSH3 0x9699 PUSH1 0x40 DUP4 ADD DUP10 PUSH3 0x76EF JUMP JUMPDEST PUSH3 0x96A8 PUSH1 0x60 DUP4 ADD DUP9 PUSH3 0x76EF JUMP JUMPDEST PUSH3 0x96B7 PUSH1 0x80 DUP4 ADD DUP8 PUSH3 0x76EF JUMP JUMPDEST PUSH3 0x96C6 PUSH1 0xA0 DUP4 ADD DUP7 PUSH3 0x76EF JUMP JUMPDEST PUSH3 0x96D5 PUSH1 0xC0 DUP4 ADD DUP6 PUSH3 0x76EF JUMP JUMPDEST PUSH3 0x96E4 PUSH1 0xE0 DUP4 ADD DUP5 PUSH3 0x7818 JUMP JUMPDEST SWAP10 SWAP9 POP POP POP POP POP POP POP POP POP JUMP JUMPDEST PUSH1 0x0 DUP2 MLOAD SWAP1 POP SWAP2 SWAP1 POP JUMP JUMPDEST PUSH1 0x0 DUP3 DUP3 MSTORE PUSH1 0x20 DUP3 ADD SWAP1 POP SWAP3 SWAP2 POP POP JUMP JUMPDEST PUSH1 0x0 PUSH3 0x971A DUP3 PUSH3 0x96F1 JUMP JUMPDEST PUSH3 0x9726 DUP2 DUP6 PUSH3 0x96FC JUMP JUMPDEST SWAP4 POP PUSH3 0x9738 DUP2 DUP6 PUSH1 0x20 DUP7 ADD PUSH3 0x7862 JUMP JUMPDEST PUSH3 0x9743 DUP2 PUSH3 0x7898 JUMP JUMPDEST DUP5 ADD SWAP2 POP POP SWAP3 SWAP2 POP POP JUMP JUMPDEST PUSH1 0x0 PUSH1 0xA0 DUP3 ADD SWAP1 POP PUSH3 0x9765 PUSH1 0x0 DUP4 ADD DUP11 PUSH3 0x7818 JUMP JUMPDEST PUSH3 0x9774 PUSH1 0x20 DUP4 ADD DUP10 PUSH3 0x7818 JUMP JUMPDEST DUP2 DUP2 SUB PUSH1 0x40 DUP4 ADD MSTORE PUSH3 0x9789 DUP2 DUP8 DUP10 PUSH3 0x934B JUMP JUMPDEST SWAP1 POP DUP2 DUP2 SUB PUSH1 0x60 DUP4 ADD MSTORE PUSH3 0x97A0 DUP2 DUP6 DUP8 PUSH3 0x934B JUMP JUMPDEST SWAP1 POP DUP2 DUP2 SUB PUSH1 0x80 DUP4 ADD MSTORE PUSH3 0x97B6 DUP2 DUP5 PUSH3 0x970D JUMP JUMPDEST SWAP1 POP SWAP9 SWAP8 POP POP POP POP POP POP POP POP JUMP JUMPDEST PUSH1 0x0 DUP2 MLOAD SWAP1 POP PUSH3 0x97D5 DUP2 PUSH3 0x7749 JUMP JUMPDEST SWAP3 SWAP2 POP POP JUMP JUMPDEST PUSH1 0x0 PUSH1 0x20 DUP3 DUP5 SUB SLT ISZERO PUSH3 0x97F4 JUMPI PUSH3 0x97F3 PUSH3 0x75FE JUMP JUMPDEST JUMPDEST PUSH1 0x0 PUSH3 0x9804 DUP5 DUP3 DUP6 ADD PUSH3 0x97C4 JUMP JUMPDEST SWAP2 POP POP SWAP3 SWAP2 POP POP JUMP JUMPDEST PUSH1 0x0 DUP2 SWAP1 POP SWAP3 SWAP2 POP POP JUMP JUMPDEST PUSH1 0x0 PUSH3 0x9825 DUP3 PUSH3 0x96F1 JUMP JUMPDEST PUSH3 0x9831 DUP2 DUP6 PUSH3 0x980D JUMP JUMPDEST SWAP4 POP PUSH3 0x9843 DUP2 DUP6 PUSH1 0x20 DUP7 ADD PUSH3 0x7862 JUMP JUMPDEST DUP1 DUP5 ADD SWAP2 POP POP SWAP3 SWAP2 POP POP JUMP JUMPDEST PUSH1 0x0 PUSH3 0x985D DUP3 DUP5 PUSH3 0x9818 JUMP JUMPDEST SWAP2 POP DUP2 SWAP1 POP SWAP3 SWAP2 POP POP JUMP JUMPDEST PUSH1 0x0 PUSH1 0x60 DUP3 ADD SWAP1 POP PUSH3 0x987F PUSH1 0x0 DUP4 ADD DUP7 PUSH3 0x7818 JUMP JUMPDEST PUSH3 0x988E PUSH1 0x20 DUP4 ADD DUP6 PUSH3 0x7818 JUMP JUMPDEST PUSH3 0x989D PUSH1 0x40 DUP4 ADD DUP5 PUSH3 0x76EF JUMP JUMPDEST SWAP5 SWAP4 POP POP POP POP JUMP JUMPDEST PUSH1 0x0 DUP2 MLOAD SWAP1 POP PUSH3 0x98B6 DUP2 PUSH3 0x831A JUMP JUMPDEST SWAP3 SWAP2 POP POP JUMP JUMPDEST PUSH1 0x0 PUSH1 0x20 DUP3 DUP5 SUB SLT ISZERO PUSH3 0x98D5 JUMPI PUSH3 0x98D4 PUSH3 0x75FE JUMP JUMPDEST JUMPDEST PUSH1 0x0 PUSH3 0x98E5 DUP5 DUP3 DUP6 ADD PUSH3 0x98A5 JUMP JUMPDEST SWAP2 POP POP SWAP3 SWAP2 POP POP JUMP JUMPDEST PUSH1 0x0 PUSH1 0xA0 DUP3 ADD SWAP1 POP PUSH3 0x9905 PUSH1 0x0 DUP4 ADD DUP9 PUSH3 0x7818 JUMP JUMPDEST PUSH3 0x9914 PUSH1 0x20 DUP4 ADD DUP8 PUSH3 0x7818 JUMP JUMPDEST PUSH3 0x9923 PUSH1 0x40 DUP4 ADD DUP7 PUSH3 0x76EF JUMP JUMPDEST PUSH3 0x9932 PUSH1 0x60 DUP4 ADD DUP6 PUSH3 0x76EF JUMP JUMPDEST DUP2 DUP2 SUB PUSH1 0x80 DUP4 ADD MSTORE PUSH3 0x9946 DUP2 DUP5 PUSH3 0x970D JUMP JUMPDEST SWAP1 POP SWAP7 SWAP6 POP POP POP POP POP POP JUMP INVALID PUSH1 0x80 PUSH1 0x40 MSTORE PUSH20 0xFC5025C764CE34DF352757E82F7B5C4DF39A836 PUSH1 0x0 DUP1 PUSH2 0x100 EXP DUP2 SLOAD DUP2 PUSH20 0xFFFFFFFFFFFFFFFFFFFFFFFFFFFFFFFFFFFFFFFF MUL NOT AND SWAP1 DUP4 PUSH20 0xFFFFFFFFFFFFFFFFFFFFFFFFFFFFFFFFFFFFFFFF AND MUL OR SWAP1 SSTORE POP CALLVALUE DUP1 ISZERO PUSH2 0x64 JUMPI PUSH1 0x0 DUP1 REVERT JUMPDEST POP PUSH1 0x40 MLOAD PUSH2 0x41D CODESIZE SUB DUP1 PUSH2 0x41D DUP4 CODECOPY DUP2 DUP2 ADD PUSH1 0x40 MSTORE DUP2 ADD SWAP1 PUSH2 0x86 SWAP2 SWAP1 PUSH2 0x1CF JUMP JUMPDEST DUP1 PUSH20 0xFFFFFFFFFFFFFFFFFFFFFFFFFFFFFFFFFFFFFFFF AND PUSH4 0x95EA7B3 CALLER PUSH32 0xFFFFFFFFFFFFFFFFFFFFFFFFFFFFFFFFFFFFFFFFFFFFFFFFFFFFFFFFFFFFFFFF PUSH1 0x40 MLOAD DUP4 PUSH4 0xFFFFFFFF AND PUSH1 0xE0 SHL DUP2 MSTORE PUSH1 0x4 ADD PUSH2 0xE1 SWAP3 SWAP2 SWAP1 PUSH2 0x224 JUMP JUMPDEST PUSH1 0x20 PUSH1 0x40 MLOAD DUP1 DUP4 SUB DUP2 PUSH1 0x0 DUP8 GAS CALL ISZERO DUP1 ISZERO PUSH2 0x100 JUMPI RETURNDATASIZE PUSH1 0x0 DUP1 RETURNDATACOPY RETURNDATASIZE PUSH1 0x0 REVERT JUMPDEST POP POP POP POP PUSH1 0x40 MLOAD RETURNDATASIZE PUSH1 0x1F NOT PUSH1 0x1F DUP3 ADD AND DUP3 ADD DUP1 PUSH1 0x40 MSTORE POP DUP2 ADD SWAP1 PUSH2 0x124 SWAP2 SWAP1 PUSH2 0x285 JUMP JUMPDEST POP DUP1 PUSH1 0x1 PUSH1 0x0 PUSH2 0x100 EXP DUP2 SLOAD DUP2 PUSH20 0xFFFFFFFFFFFFFFFFFFFFFFFFFFFFFFFFFFFFFFFF MUL NOT AND SWAP1 DUP4 PUSH20 0xFFFFFFFFFFFFFFFFFFFFFFFFFFFFFFFFFFFFFFFF AND MUL OR SWAP1 SSTORE POP POP PUSH2 0x2B2 JUMP JUMPDEST PUSH1 0x0 DUP1 REVERT JUMPDEST PUSH1 0x0 PUSH20 0xFFFFFFFFFFFFFFFFFFFFFFFFFFFFFFFFFFFFFFFF DUP3 AND SWAP1 POP SWAP2 SWAP1 POP JUMP JUMPDEST PUSH1 0x0 PUSH2 0x19C DUP3 PUSH2 0x171 JUMP JUMPDEST SWAP1 POP SWAP2 SWAP1 POP JUMP JUMPDEST PUSH2 0x1AC DUP2 PUSH2 0x191 JUMP JUMPDEST DUP2 EQ PUSH2 0x1B7 JUMPI PUSH1 0x0 DUP1 REVERT JUMPDEST POP JUMP JUMPDEST PUSH1 0x0 DUP2 MLOAD SWAP1 POP PUSH2 0x1C9 DUP2 PUSH2 0x1A3 JUMP JUMPDEST SWAP3 SWAP2 POP POP JUMP JUMPDEST PUSH1 0x0 PUSH1 0x20 DUP3 DUP5 SUB SLT ISZERO PUSH2 0x1E5 JUMPI PUSH2 0x1E4 PUSH2 0x16C JUMP JUMPDEST JUMPDEST PUSH1 0x0 PUSH2 0x1F3 DUP5 DUP3 DUP6 ADD PUSH2 0x1BA JUMP JUMPDEST SWAP2 POP POP SWAP3 SWAP2 POP POP JUMP JUMPDEST PUSH2 0x205 DUP2 PUSH2 0x191 JUMP JUMPDEST DUP3 MSTORE POP POP JUMP JUMPDEST PUSH1 0x0 DUP2 SWAP1 POP SWAP2 SWAP1 POP JUMP JUMPDEST PUSH2 0x21E DUP2 PUSH2 0x20B JUMP JUMPDEST DUP3 MSTORE POP POP JUMP JUMPDEST PUSH1 0x0 PUSH1 0x40 DUP3 ADD SWAP1 POP PUSH2 0x239 PUSH1 0x0 DUP4 ADD DUP6 PUSH2 0x1FC JUMP JUMPDEST PUSH2 0x246 PUSH1 0x20 DUP4 ADD DUP5 PUSH2 0x215 JUMP JUMPDEST SWAP4 SWAP3 POP POP POP JUMP JUMPDEST PUSH1 0x0 DUP2 ISZERO ISZERO SWAP1 POP SWAP2 SWAP1 POP JUMP JUMPDEST PUSH2 0x262 DUP2 PUSH2 0x24D JUMP JUMPDEST DUP2 EQ PUSH2 0x26D JUMPI PUSH1 0x0 DUP1 REVERT JUMPDEST POP JUMP JUMPDEST PUSH1 0x0 DUP2 MLOAD SWAP1 POP PUSH2 0x27F DUP2 PUSH2 0x259 JUMP JUMPDEST SWAP3 SWAP2 POP POP JUMP JUMPDEST PUSH1 0x0 PUSH1 0x20 DUP3 DUP5 SUB SLT ISZERO PUSH2 0x29B JUMPI PUSH2 0x29A PUSH2 0x16C JUMP JUMPDEST JUMPDEST PUSH1 0x0 PUSH2 0x2A9 DUP5 DUP3 DUP6 ADD PUSH2 0x270 JUMP JUMPDEST SWAP2 POP POP SWAP3 SWAP2 POP POP JUMP JUMPDEST PUSH2 0x15C DUP1 PUSH2 0x2C1 PUSH1 0x0 CODECOPY PUSH1 0x0 RETURN INVALID PUSH1 0x80 PUSH1 0x40 MSTORE CALLVALUE DUP1 ISZERO PUSH2 0x10 JUMPI PUSH1 0x0 DUP1 REVERT JUMPDEST POP PUSH1 0x4 CALLDATASIZE LT PUSH2 0x36 JUMPI PUSH1 0x0 CALLDATALOAD PUSH1 0xE0 SHR DUP1 PUSH4 0xDFE1681 EQ PUSH2 0x3B JUMPI DUP1 PUSH4 0xD21220A7 EQ PUSH2 0x59 JUMPI JUMPDEST PUSH1 0x0 DUP1 REVERT JUMPDEST PUSH2 0x43 PUSH2 0x77 JUMP JUMPDEST PUSH1 0x40 MLOAD PUSH2 0x50 SWAP2 SWAP1 PUSH2 0x10B JUMP JUMPDEST PUSH1 0x40 MLOAD DUP1 SWAP2 SUB SWAP1 RETURN JUMPDEST PUSH2 0x61 PUSH2 0xA1 JUMP JUMPDEST PUSH1 0x40 MLOAD PUSH2 0x6E SWAP2 SWAP1 PUSH2 0x10B JUMP JUMPDEST PUSH1 0x40 MLOAD DUP1 SWAP2 SUB SWAP1 RETURN JUMPDEST PUSH1 0x0 PUSH1 0x1 PUSH1 0x0 SWAP1 SLOAD SWAP1 PUSH2 0x100 EXP SWAP1 DIV PUSH20 0xFFFFFFFFFFFFFFFFFFFFFFFFFFFFFFFFFFFFFFFF AND SWAP1 POP SWAP1 JUMP JUMPDEST PUSH1 0x0 DUP1 PUSH1 0x0 SWAP1 SLOAD SWAP1 PUSH2 0x100 EXP SWAP1 DIV PUSH20 0xFFFFFFFFFFFFFFFFFFFFFFFFFFFFFFFFFFFFFFFF AND SWAP1 POP SWAP1 JUMP JUMPDEST PUSH1 0x0 PUSH20 0xFFFFFFFFFFFFFFFFFFFFFFFFFFFFFFFFFFFFFFFF DUP3 AND SWAP1 POP SWAP2 SWAP1 POP JUMP JUMPDEST PUSH1 0x0 PUSH2 0xF5 DUP3 PUSH2 0xCA JUMP JUMPDEST SWAP1 POP SWAP2 SWAP1 POP JUMP JUMPDEST PUSH2 0x105 DUP2 PUSH2 0xEA JUMP JUMPDEST DUP3 MSTORE POP POP JUMP JUMPDEST PUSH1 0x0 PUSH1 0x20 DUP3 ADD SWAP1 POP PUSH2 0x120 PUSH1 0x0 DUP4 ADD DUP5 PUSH2 0xFC JUMP JUMPDEST SWAP3 SWAP2 POP POP JUMP INVALID LOG2 PUSH5 0x6970667358 0x22 SLT KECCAK256 SWAP16 0xEF LOG0 PUSH10 0xCD2706C6502613929314 SLT CHAINID 0x4F 0x4A 0xDF 0xDC DUP16 0xB7 0xE ORIGIN PUSH15 0xC7CF6C189158E664736F6C63430008 SIGNEXTEND STOP CALLER LOG2 PUSH5 0x6970667358 0x22 SLT KECCAK256 0xDE 0xB7 GASLIMIT 0x5C PUSH12 0xC2D69D545179133D3F36F3A5 DUP14 DUP8 0xF8 CREATE2 0xE1 0x4B SWAP2 EXTCODESIZE 0xF7 DIV CALLDATACOPY PUSH21 0x98BA6264736F6C634300080B003368747470733A2F 0x2F PUSH5 0x6174612E63 PUSH6 0x7262792E6669 0x2F NUMBER PUSH6 0x726279537761 PUSH17 0x2F76312F00000000000000000000000000 "
		},
		"gasEstimates": {
			"creation": {
				"codeDepositCost": "8071400",
				"executionCost": "infinite",
				"totalCost": "infinite"
			},
			"external": {
				"addTokenLiquidity(address,uint256,uint256,address)": "infinite",
				"adminChangeCerUsdCreditInPool(address,uint256)": "infinite",
				"adminCreatePool(address,uint256,uint256,address)": "infinite",
				"adminInitialize()": "infinite",
				"adminSetURI(string)": "infinite",
				"adminUpdateFeesAndTvlMultipliers((address,uint256,uint256,uint256,uint256,uint256))": "infinite",
				"adminUpdateNameAndSymbol(string,string)": "infinite",
				"balanceOf(address,uint256)": "infinite",
				"balanceOfBatch(address[],uint256[])": "infinite",
				"createPool(address,uint256,uint256,address)": "infinite",
				"decimals()": "471",
				"exists(uint256)": "2859",
				"getCurrentOneMinusFeeBasedOnTrades(address)": "infinite",
				"getInputTokensForExactTokens(address,address,uint256)": "infinite",
				"getOutputExactTokensForTokens(address,address,uint256)": "infinite",
				"getPoolsByIds(uint256[])": "infinite",
				"getPoolsByTokens(address[])": "infinite",
				"getSettings()": "infinite",
				"getTokenToPoolId(address)": "2930",
				"getUtilsContractAtPos(uint256)": "infinite",
				"increaseCerUsdCreditInPool(address,uint256)": "infinite",
				"isApprovedForAll(address,address)": "infinite",
				"name()": "infinite",
				"owner()": "2634",
				"removeTokenLiquidity(address,uint256,uint256,address)": "infinite",
				"renounceOwnership()": "30450",
				"safeBatchTransferFrom(address,address,uint256[],uint256[],bytes)": "infinite",
				"safeTransferFrom(address,address,uint256,uint256,bytes)": "infinite",
				"setApprovalForAll(address,bool)": "infinite",
				"supportsInterface(bytes4)": "707",
				"swapExactTokensForTokens(address,address,uint256,uint256,uint256,address)": "infinite",
				"swapTokensForExactTokens(address,address,uint256,uint256,uint256,address)": "infinite",
				"symbol()": "infinite",
				"testInit()": "infinite",
				"testSetupTokens(address,address,address,address,address)": "infinite",
				"totalSupply()": "infinite",
				"totalSupply(uint256)": "infinite",
				"transferOwnership(address)": "30798",
				"uri(uint256)": "infinite"
			}
		},
		"methodIdentifiers": {
			"addTokenLiquidity(address,uint256,uint256,address)": "43fefad4",
			"adminChangeCerUsdCreditInPool(address,uint256)": "cab4ba82",
			"adminCreatePool(address,uint256,uint256,address)": "d5d60737",
			"adminInitialize()": "c09c923b",
			"adminSetURI(string)": "a7fd40bf",
			"adminUpdateFeesAndTvlMultipliers((address,uint256,uint256,uint256,uint256,uint256))": "0c2e075b",
			"adminUpdateNameAndSymbol(string,string)": "3935ac11",
			"balanceOf(address,uint256)": "00fdd58e",
			"balanceOfBatch(address[],uint256[])": "4e1273f4",
			"createPool(address,uint256,uint256,address)": "842980f4",
			"decimals()": "313ce567",
			"exists(uint256)": "4f558e79",
			"getCurrentOneMinusFeeBasedOnTrades(address)": "4c3c0eb2",
			"getInputTokensForExactTokens(address,address,uint256)": "c790985a",
			"getOutputExactTokensForTokens(address,address,uint256)": "48b08d62",
			"getPoolsByIds(uint256[])": "a6d8ad39",
			"getPoolsByTokens(address[])": "34e150ab",
			"getSettings()": "85b4bb53",
			"getTokenToPoolId(address)": "61417516",
			"getUtilsContractAtPos(uint256)": "06fb1a07",
			"increaseCerUsdCreditInPool(address,uint256)": "71858049",
			"isApprovedForAll(address,address)": "e985e9c5",
			"name()": "06fdde03",
			"owner()": "8da5cb5b",
			"removeTokenLiquidity(address,uint256,uint256,address)": "74fcf071",
			"renounceOwnership()": "715018a6",
			"safeBatchTransferFrom(address,address,uint256[],uint256[],bytes)": "2eb2c2d6",
			"safeTransferFrom(address,address,uint256,uint256,bytes)": "f242432a",
			"setApprovalForAll(address,bool)": "a22cb465",
			"supportsInterface(bytes4)": "01ffc9a7",
			"swapExactTokensForTokens(address,address,uint256,uint256,uint256,address)": "a60c6e55",
			"swapTokensForExactTokens(address,address,uint256,uint256,uint256,address)": "f6524724",
			"symbol()": "95d89b41",
			"testInit()": "b5d11e99",
			"testSetupTokens(address,address,address,address,address)": "eca01093",
			"totalSupply()": "18160ddd",
			"totalSupply(uint256)": "bd85b039",
			"transferOwnership(address)": "f2fde38b",
			"uri(uint256)": "0e89341c"
		}
	},
	"abi": [
		{
			"inputs": [],
			"stateMutability": "nonpayable",
			"type": "constructor"
		},
		{
			"inputs": [],
			"name": "CerbyCronJobsExecution_TransactionsAreTemporarilyDisabled",
			"type": "error"
		},
		{
			"inputs": [],
			"name": "CerbySwapLP1155V1_CallerIsNotOwnerNorApproved",
			"type": "error"
		},
		{
			"inputs": [],
			"name": "CerbySwapLP1155V1_TransactionsAreTemporarilyDisabled",
			"type": "error"
		},
		{
			"inputs": [],
			"name": "CerbySwapV1_AmountOfCerUsdMustBeLargerThanOne",
			"type": "error"
		},
		{
			"inputs": [],
			"name": "CerbySwapV1_AmountOfCerUsdOrTokensInMustBeLargerThanOne",
			"type": "error"
		},
		{
			"inputs": [],
			"name": "CerbySwapV1_AmountOfTokensMustBeLargerThanOne",
			"type": "error"
		},
		{
			"inputs": [],
			"name": "CerbySwapV1_CreditCerUsdIsOverflown",
			"type": "error"
		},
		{
			"inputs": [],
			"name": "CerbySwapV1_CreditCerUsdMustNotBeBelowZero",
			"type": "error"
		},
		{
			"inputs": [],
			"name": "CerbySwapV1_FeeIsWrong",
			"type": "error"
		},
		{
			"inputs": [],
			"name": "CerbySwapV1_FeeOnTransferTokensArentSupported",
			"type": "error"
		},
		{
			"inputs": [],
			"name": "CerbySwapV1_InputCerUsdAmountIsLargerThanMaximumSpecified",
			"type": "error"
		},
		{
			"inputs": [],
			"name": "CerbySwapV1_InputTokensAmountIsLargerThanMaximumSpecified",
			"type": "error"
		},
		{
			"inputs": [],
			"name": "CerbySwapV1_InvariantKValueMustBeSameOrIncreasedOnAnySwaps",
			"type": "error"
		},
		{
			"inputs": [],
			"name": "CerbySwapV1_MintFeeMultiplierMustNotBeLargerThan50Percent",
			"type": "error"
		},
		{
			"inputs": [],
			"name": "CerbySwapV1_MsgValueProvidedMustBeLargerThanAmountTokensIn",
			"type": "error"
		},
		{
			"inputs": [],
			"name": "CerbySwapV1_MsgValueProvidedMustBeZero",
			"type": "error"
		},
		{
			"inputs": [],
			"name": "CerbySwapV1_OutputCerUsdAmountIsLowerThanMinimumSpecified",
			"type": "error"
		},
		{
			"inputs": [],
			"name": "CerbySwapV1_OutputTokensAmountIsLowerThanMinimumSpecified",
			"type": "error"
		},
		{
			"inputs": [],
			"name": "CerbySwapV1_SafeTransferFromFailed",
			"type": "error"
		},
		{
			"inputs": [],
			"name": "CerbySwapV1_SafeTransferNativeFailed",
			"type": "error"
		},
		{
			"inputs": [],
			"name": "CerbySwapV1_SafeTransferTokensFailed",
			"type": "error"
		},
		{
			"inputs": [],
			"name": "CerbySwapV1_SwappingTokenToSameTokenIsForbidden",
			"type": "error"
		},
		{
			"inputs": [],
			"name": "CerbySwapV1_TokenAlreadyExists",
			"type": "error"
		},
		{
			"inputs": [],
			"name": "CerbySwapV1_TokenDoesNotExist",
			"type": "error"
		},
		{
			"inputs": [],
			"name": "CerbySwapV1_TransactionIsExpired",
			"type": "error"
		},
		{
			"inputs": [],
			"name": "CerbySwapV1_TvlMultiplierIsWrong",
			"type": "error"
		},
		{
			"inputs": [],
			"name": "ERC1155_AccountsAndIdsLengthMismatch",
			"type": "error"
		},
		{
			"inputs": [],
			"name": "ERC1155_BalanceQueryForTheZeroAddress",
			"type": "error"
		},
		{
			"inputs": [],
			"name": "ERC1155_BurnAmountExceedsBalance",
			"type": "error"
		},
		{
			"inputs": [],
			"name": "ERC1155_BurnFromZeroAddress",
			"type": "error"
		},
		{
			"inputs": [],
			"name": "ERC1155_ERC1155ReceiverRejectsTokens",
			"type": "error"
		},
		{
			"inputs": [],
			"name": "ERC1155_IdsAndAmountsLengthMismatch",
			"type": "error"
		},
		{
			"inputs": [],
			"name": "ERC1155_InsufficientBalanceForTransfer",
			"type": "error"
		},
		{
			"inputs": [],
			"name": "ERC1155_MintToZeroAddress",
			"type": "error"
		},
		{
			"inputs": [],
			"name": "ERC1155_SettingApprovalStatusForSelf",
			"type": "error"
		},
		{
			"inputs": [],
			"name": "ERC1155_TransferToNonERC1155ReceiverImplementer",
			"type": "error"
		},
		{
			"inputs": [],
			"name": "ERC1155_TransferToZeroAddress",
			"type": "error"
		},
		{
			"inputs": [],
			"name": "Ownable_CallerIsNotOwner",
			"type": "error"
		},
		{
			"inputs": [],
			"name": "Ownable_NewOwnerIsNotTheZeroAddress",
			"type": "error"
		},
		{
			"anonymous": false,
			"inputs": [
				{
					"indexed": true,
					"internalType": "address",
					"name": "account",
					"type": "address"
				},
				{
					"indexed": true,
					"internalType": "address",
					"name": "operator",
					"type": "address"
				},
				{
					"indexed": false,
					"internalType": "bool",
					"name": "approved",
					"type": "bool"
				}
			],
			"name": "ApprovalForAll",
			"type": "event"
		},
		{
			"anonymous": false,
			"inputs": [
				{
					"indexed": false,
					"internalType": "address",
					"name": "_token",
					"type": "address"
				},
				{
					"indexed": false,
					"internalType": "uint256",
					"name": "_amountTokensIn",
					"type": "uint256"
				},
				{
					"indexed": false,
					"internalType": "uint256",
					"name": "_amountCerUsdToMint",
					"type": "uint256"
				},
				{
					"indexed": false,
					"internalType": "uint256",
					"name": "_lpAmount",
					"type": "uint256"
				}
			],
			"name": "LiquidityAdded",
			"type": "event"
		},
		{
			"anonymous": false,
			"inputs": [
				{
					"indexed": false,
					"internalType": "address",
					"name": "_token",
					"type": "address"
				},
				{
					"indexed": false,
					"internalType": "uint256",
					"name": "_amountTokensOut",
					"type": "uint256"
				},
				{
					"indexed": false,
					"internalType": "uint256",
					"name": "_amountCerUsdToBurn",
					"type": "uint256"
				},
				{
					"indexed": false,
					"internalType": "uint256",
					"name": "_amountLpTokensBalanceToBurn",
					"type": "uint256"
				}
			],
			"name": "LiquidityRemoved",
			"type": "event"
		},
		{
			"anonymous": false,
			"inputs": [
				{
					"indexed": true,
					"internalType": "address",
					"name": "previousOwner",
					"type": "address"
				},
				{
					"indexed": true,
					"internalType": "address",
					"name": "newOwner",
					"type": "address"
				}
			],
			"name": "OwnershipTransferred",
			"type": "event"
		},
		{
			"anonymous": false,
			"inputs": [
				{
					"indexed": false,
					"internalType": "address",
					"name": "_token",
					"type": "address"
				},
				{
					"indexed": false,
					"internalType": "uint256",
					"name": "_poolId",
					"type": "uint256"
				}
			],
			"name": "PairCreated",
			"type": "event"
		},
		{
			"anonymous": false,
			"inputs": [
				{
					"indexed": false,
					"internalType": "address",
					"name": "_token",
					"type": "address"
				},
				{
					"indexed": false,
					"internalType": "address",
					"name": "_sender",
					"type": "address"
				},
				{
					"indexed": false,
					"internalType": "uint256",
					"name": "_amountTokensIn",
					"type": "uint256"
				},
				{
					"indexed": false,
					"internalType": "uint256",
					"name": "_amountCerUsdIn",
					"type": "uint256"
				},
				{
					"indexed": false,
					"internalType": "uint256",
					"name": "__amountTokensOut",
					"type": "uint256"
				},
				{
					"indexed": false,
					"internalType": "uint256",
					"name": "amountCerUsdOut",
					"type": "uint256"
				},
				{
					"indexed": false,
					"internalType": "uint256",
					"name": "_currentFee",
					"type": "uint256"
				},
				{
					"indexed": false,
					"internalType": "address",
					"name": "_transferTo",
					"type": "address"
				}
			],
			"name": "Swap",
			"type": "event"
		},
		{
			"anonymous": false,
			"inputs": [
				{
					"indexed": false,
					"internalType": "address",
					"name": "_token",
					"type": "address"
				},
				{
					"indexed": false,
					"internalType": "uint256",
					"name": "_newBalanceToken",
					"type": "uint256"
				},
				{
					"indexed": false,
					"internalType": "uint256",
					"name": "_newBalanceCerUsd",
					"type": "uint256"
				},
				{
					"indexed": false,
					"internalType": "uint256",
					"name": "_newCreditCerUsd",
					"type": "uint256"
				}
			],
			"name": "Sync",
			"type": "event"
		},
		{
			"anonymous": false,
			"inputs": [
				{
					"indexed": true,
					"internalType": "address",
					"name": "operator",
					"type": "address"
				},
				{
					"indexed": true,
					"internalType": "address",
					"name": "from",
					"type": "address"
				},
				{
					"indexed": true,
					"internalType": "address",
					"name": "to",
					"type": "address"
				},
				{
					"indexed": false,
					"internalType": "uint256[]",
					"name": "ids",
					"type": "uint256[]"
				},
				{
					"indexed": false,
					"internalType": "uint256[]",
					"name": "values",
					"type": "uint256[]"
				}
			],
			"name": "TransferBatch",
			"type": "event"
		},
		{
			"anonymous": false,
			"inputs": [
				{
					"indexed": true,
					"internalType": "address",
					"name": "operator",
					"type": "address"
				},
				{
					"indexed": true,
					"internalType": "address",
					"name": "from",
					"type": "address"
				},
				{
					"indexed": true,
					"internalType": "address",
					"name": "to",
					"type": "address"
				},
				{
					"indexed": false,
					"internalType": "uint256",
					"name": "id",
					"type": "uint256"
				},
				{
					"indexed": false,
					"internalType": "uint256",
					"name": "value",
					"type": "uint256"
				}
			],
			"name": "TransferSingle",
			"type": "event"
		},
		{
			"anonymous": false,
			"inputs": [
				{
					"indexed": false,
					"internalType": "string",
					"name": "value",
					"type": "string"
				},
				{
					"indexed": true,
					"internalType": "uint256",
					"name": "id",
					"type": "uint256"
				}
			],
			"name": "URI",
			"type": "event"
		},
		{
			"inputs": [
				{
					"internalType": "address",
					"name": "_token",
					"type": "address"
				},
				{
					"internalType": "uint256",
					"name": "_amountTokensIn",
					"type": "uint256"
				},
				{
					"internalType": "uint256",
					"name": "_expireTimestamp",
					"type": "uint256"
				},
				{
					"internalType": "address",
					"name": "_transferTo",
					"type": "address"
				}
			],
			"name": "addTokenLiquidity",
			"outputs": [
				{
					"internalType": "uint256",
					"name": "",
					"type": "uint256"
				}
			],
			"stateMutability": "payable",
			"type": "function"
		},
		{
			"inputs": [
				{
					"internalType": "address",
					"name": "_token",
					"type": "address"
				},
				{
					"internalType": "uint256",
					"name": "_amountCerUsdCredit",
					"type": "uint256"
				}
			],
			"name": "adminChangeCerUsdCreditInPool",
			"outputs": [],
			"stateMutability": "nonpayable",
			"type": "function"
		},
		{
			"inputs": [
				{
					"internalType": "address",
					"name": "_token",
					"type": "address"
				},
				{
					"internalType": "uint256",
					"name": "_amountTokensIn",
					"type": "uint256"
				},
				{
					"internalType": "uint256",
					"name": "_amountCerUsdToMint",
					"type": "uint256"
				},
				{
					"internalType": "address",
					"name": "_transferTo",
					"type": "address"
				}
			],
			"name": "adminCreatePool",
			"outputs": [],
			"stateMutability": "payable",
			"type": "function"
		},
		{
			"inputs": [],
			"name": "adminInitialize",
			"outputs": [],
			"stateMutability": "payable",
			"type": "function"
		},
		{
			"inputs": [
				{
					"internalType": "string",
					"name": "_newUrlPrefix",
					"type": "string"
				}
			],
			"name": "adminSetURI",
			"outputs": [],
			"stateMutability": "nonpayable",
			"type": "function"
		},
		{
			"inputs": [
				{
					"components": [
						{
							"internalType": "address",
							"name": "mintFeeBeneficiary",
							"type": "address"
						},
						{
							"internalType": "uint256",
							"name": "mintFeeMultiplier",
							"type": "uint256"
						},
						{
							"internalType": "uint256",
							"name": "feeMinimum",
							"type": "uint256"
						},
						{
							"internalType": "uint256",
							"name": "feeMaximum",
							"type": "uint256"
						},
						{
							"internalType": "uint256",
							"name": "tvlMultiplierMinimum",
							"type": "uint256"
						},
						{
							"internalType": "uint256",
							"name": "tvlMultiplierMaximum",
							"type": "uint256"
						}
					],
					"internalType": "struct CerbySwapV1_Declarations.Settings",
					"name": "_settings",
					"type": "tuple"
				}
			],
			"name": "adminUpdateFeesAndTvlMultipliers",
			"outputs": [],
			"stateMutability": "nonpayable",
			"type": "function"
		},
		{
			"inputs": [
				{
					"internalType": "string",
					"name": "_newContractName",
					"type": "string"
				},
				{
					"internalType": "string",
					"name": "_newContractSymbol",
					"type": "string"
				}
			],
			"name": "adminUpdateNameAndSymbol",
			"outputs": [],
			"stateMutability": "nonpayable",
			"type": "function"
		},
		{
			"inputs": [
				{
					"internalType": "address",
					"name": "_account",
					"type": "address"
				},
				{
					"internalType": "uint256",
					"name": "_id",
					"type": "uint256"
				}
			],
			"name": "balanceOf",
			"outputs": [
				{
					"internalType": "uint256",
					"name": "",
					"type": "uint256"
				}
			],
			"stateMutability": "view",
			"type": "function"
		},
		{
			"inputs": [
				{
					"internalType": "address[]",
					"name": "_accounts",
					"type": "address[]"
				},
				{
					"internalType": "uint256[]",
					"name": "_ids",
					"type": "uint256[]"
				}
			],
			"name": "balanceOfBatch",
			"outputs": [
				{
					"internalType": "uint256[]",
					"name": "",
					"type": "uint256[]"
				}
			],
			"stateMutability": "view",
			"type": "function"
		},
		{
			"inputs": [
				{
					"internalType": "address",
					"name": "_token",
					"type": "address"
				},
				{
					"internalType": "uint256",
					"name": "_amountTokensIn",
					"type": "uint256"
				},
				{
					"internalType": "uint256",
					"name": "_amountCerUsdToMint",
					"type": "uint256"
				},
				{
					"internalType": "address",
					"name": "_transferTo",
					"type": "address"
				}
			],
			"name": "createPool",
			"outputs": [],
			"stateMutability": "payable",
			"type": "function"
		},
		{
			"inputs": [],
			"name": "decimals",
			"outputs": [
				{
					"internalType": "uint256",
					"name": "",
					"type": "uint256"
				}
			],
			"stateMutability": "pure",
			"type": "function"
		},
		{
			"inputs": [
				{
					"internalType": "uint256",
					"name": "_id",
					"type": "uint256"
				}
			],
			"name": "exists",
			"outputs": [
				{
					"internalType": "bool",
					"name": "",
					"type": "bool"
				}
			],
			"stateMutability": "view",
			"type": "function"
		},
		{
			"inputs": [
				{
					"internalType": "address",
					"name": "_token",
					"type": "address"
				}
			],
			"name": "getCurrentOneMinusFeeBasedOnTrades",
			"outputs": [
				{
					"internalType": "uint256",
					"name": "fee",
					"type": "uint256"
				}
			],
			"stateMutability": "view",
			"type": "function"
		},
		{
			"inputs": [
				{
					"internalType": "address",
					"name": "_tokenIn",
					"type": "address"
				},
				{
					"internalType": "address",
					"name": "_tokenOut",
					"type": "address"
				},
				{
					"internalType": "uint256",
					"name": "_amountTokensOut",
					"type": "uint256"
				}
			],
			"name": "getInputTokensForExactTokens",
			"outputs": [
				{
					"internalType": "uint256",
					"name": "",
					"type": "uint256"
				}
			],
			"stateMutability": "view",
			"type": "function"
		},
		{
			"inputs": [
				{
					"internalType": "address",
					"name": "_tokenIn",
					"type": "address"
				},
				{
					"internalType": "address",
					"name": "_tokenOut",
					"type": "address"
				},
				{
					"internalType": "uint256",
					"name": "_amountTokensIn",
					"type": "uint256"
				}
			],
			"name": "getOutputExactTokensForTokens",
			"outputs": [
				{
					"internalType": "uint256",
					"name": "",
					"type": "uint256"
				}
			],
			"stateMutability": "view",
			"type": "function"
		},
		{
			"inputs": [
				{
					"internalType": "uint256[]",
					"name": "_ids",
					"type": "uint256[]"
				}
			],
			"name": "getPoolsByIds",
			"outputs": [
				{
					"components": [
						{
							"internalType": "address",
							"name": "vaultAddress",
							"type": "address"
						},
						{
							"internalType": "uint32[8]",
							"name": "tradeVolumePerPeriodInCerUsd",
							"type": "uint32[8]"
						},
						{
							"internalType": "uint128",
							"name": "lastSqrtKValue",
							"type": "uint128"
						},
						{
							"internalType": "uint128",
							"name": "creditCerUsd",
							"type": "uint128"
						}
					],
					"internalType": "struct CerbySwapV1_Declarations.Pool[]",
					"name": "",
					"type": "tuple[]"
				}
			],
			"stateMutability": "view",
			"type": "function"
		},
		{
			"inputs": [
				{
					"internalType": "address[]",
					"name": "_tokens",
					"type": "address[]"
				}
			],
			"name": "getPoolsByTokens",
			"outputs": [
				{
					"components": [
						{
							"internalType": "address",
							"name": "vaultAddress",
							"type": "address"
						},
						{
							"internalType": "uint32[8]",
							"name": "tradeVolumePerPeriodInCerUsd",
							"type": "uint32[8]"
						},
						{
							"internalType": "uint128",
							"name": "lastSqrtKValue",
							"type": "uint128"
						},
						{
							"internalType": "uint128",
							"name": "creditCerUsd",
							"type": "uint128"
						}
					],
					"internalType": "struct CerbySwapV1_Declarations.Pool[]",
					"name": "",
					"type": "tuple[]"
				}
			],
			"stateMutability": "view",
			"type": "function"
		},
		{
			"inputs": [],
			"name": "getSettings",
			"outputs": [
				{
					"components": [
						{
							"internalType": "address",
							"name": "mintFeeBeneficiary",
							"type": "address"
						},
						{
							"internalType": "uint256",
							"name": "mintFeeMultiplier",
							"type": "uint256"
						},
						{
							"internalType": "uint256",
							"name": "feeMinimum",
							"type": "uint256"
						},
						{
							"internalType": "uint256",
							"name": "feeMaximum",
							"type": "uint256"
						},
						{
							"internalType": "uint256",
							"name": "tvlMultiplierMinimum",
							"type": "uint256"
						},
						{
							"internalType": "uint256",
							"name": "tvlMultiplierMaximum",
							"type": "uint256"
						}
					],
					"internalType": "struct CerbySwapV1_Declarations.Settings",
					"name": "",
					"type": "tuple"
				}
			],
			"stateMutability": "view",
			"type": "function"
		},
		{
			"inputs": [
				{
					"internalType": "address",
					"name": "_token",
					"type": "address"
				}
			],
			"name": "getTokenToPoolId",
			"outputs": [
				{
					"internalType": "uint256",
					"name": "",
					"type": "uint256"
				}
			],
			"stateMutability": "view",
			"type": "function"
		},
		{
			"inputs": [
				{
					"internalType": "uint256",
					"name": "_pos",
					"type": "uint256"
				}
			],
			"name": "getUtilsContractAtPos",
			"outputs": [
				{
					"internalType": "address",
					"name": "",
					"type": "address"
				}
			],
			"stateMutability": "view",
			"type": "function"
		},
		{
			"inputs": [
				{
					"internalType": "address",
					"name": "_token",
					"type": "address"
				},
				{
					"internalType": "uint256",
					"name": "_amountCerUsdCredit",
					"type": "uint256"
				}
			],
			"name": "increaseCerUsdCreditInPool",
			"outputs": [],
			"stateMutability": "nonpayable",
			"type": "function"
		},
		{
			"inputs": [
				{
					"internalType": "address",
					"name": "_account",
					"type": "address"
				},
				{
					"internalType": "address",
					"name": "_operator",
					"type": "address"
				}
			],
			"name": "isApprovedForAll",
			"outputs": [
				{
					"internalType": "bool",
					"name": "",
					"type": "bool"
				}
			],
			"stateMutability": "view",
			"type": "function"
		},
		{
			"inputs": [],
			"name": "name",
			"outputs": [
				{
					"internalType": "string",
					"name": "",
					"type": "string"
				}
			],
			"stateMutability": "view",
			"type": "function"
		},
		{
			"inputs": [],
			"name": "owner",
			"outputs": [
				{
					"internalType": "address",
					"name": "",
					"type": "address"
				}
			],
			"stateMutability": "view",
			"type": "function"
		},
		{
			"inputs": [
				{
					"internalType": "address",
					"name": "_token",
					"type": "address"
				},
				{
					"internalType": "uint256",
					"name": "_amountLpTokensBalanceToBurn",
					"type": "uint256"
				},
				{
					"internalType": "uint256",
					"name": "_expireTimestamp",
					"type": "uint256"
				},
				{
					"internalType": "address",
					"name": "_transferTo",
					"type": "address"
				}
			],
			"name": "removeTokenLiquidity",
			"outputs": [
				{
					"internalType": "uint256",
					"name": "",
					"type": "uint256"
				}
			],
			"stateMutability": "nonpayable",
			"type": "function"
		},
		{
			"inputs": [],
			"name": "renounceOwnership",
			"outputs": [],
			"stateMutability": "nonpayable",
			"type": "function"
		},
		{
			"inputs": [
				{
					"internalType": "address",
					"name": "_from",
					"type": "address"
				},
				{
					"internalType": "address",
					"name": "_to",
					"type": "address"
				},
				{
					"internalType": "uint256[]",
					"name": "_ids",
					"type": "uint256[]"
				},
				{
					"internalType": "uint256[]",
					"name": "_amounts",
					"type": "uint256[]"
				},
				{
					"internalType": "bytes",
					"name": "_data",
					"type": "bytes"
				}
			],
			"name": "safeBatchTransferFrom",
			"outputs": [],
			"stateMutability": "nonpayable",
			"type": "function"
		},
		{
			"inputs": [
				{
					"internalType": "address",
					"name": "_from",
					"type": "address"
				},
				{
					"internalType": "address",
					"name": "_to",
					"type": "address"
				},
				{
					"internalType": "uint256",
					"name": "_id",
					"type": "uint256"
				},
				{
					"internalType": "uint256",
					"name": "_amount",
					"type": "uint256"
				},
				{
					"internalType": "bytes",
					"name": "_data",
					"type": "bytes"
				}
			],
			"name": "safeTransferFrom",
			"outputs": [],
			"stateMutability": "nonpayable",
			"type": "function"
		},
		{
			"inputs": [
				{
					"internalType": "address",
					"name": "_operator",
					"type": "address"
				},
				{
					"internalType": "bool",
					"name": "_approved",
					"type": "bool"
				}
			],
			"name": "setApprovalForAll",
			"outputs": [],
			"stateMutability": "nonpayable",
			"type": "function"
		},
		{
			"inputs": [
				{
					"internalType": "bytes4",
					"name": "interfaceId",
					"type": "bytes4"
				}
			],
			"name": "supportsInterface",
			"outputs": [
				{
					"internalType": "bool",
					"name": "",
					"type": "bool"
				}
			],
			"stateMutability": "view",
			"type": "function"
		},
		{
			"inputs": [
				{
					"internalType": "address",
					"name": "_tokenIn",
					"type": "address"
				},
				{
					"internalType": "address",
					"name": "_tokenOut",
					"type": "address"
				},
				{
					"internalType": "uint256",
					"name": "_amountTokensIn",
					"type": "uint256"
				},
				{
					"internalType": "uint256",
					"name": "_minAmountTokensOut",
					"type": "uint256"
				},
				{
					"internalType": "uint256",
					"name": "_expireTimestamp",
					"type": "uint256"
				},
				{
					"internalType": "address",
					"name": "_transferTo",
					"type": "address"
				}
			],
			"name": "swapExactTokensForTokens",
			"outputs": [
				{
					"internalType": "uint256[]",
					"name": "",
					"type": "uint256[]"
				}
			],
			"stateMutability": "payable",
			"type": "function"
		},
		{
			"inputs": [
				{
					"internalType": "address",
					"name": "_tokenIn",
					"type": "address"
				},
				{
					"internalType": "address",
					"name": "_tokenOut",
					"type": "address"
				},
				{
					"internalType": "uint256",
					"name": "_amountTokensOut",
					"type": "uint256"
				},
				{
					"internalType": "uint256",
					"name": "_maxAmountTokensIn",
					"type": "uint256"
				},
				{
					"internalType": "uint256",
					"name": "_expireTimestamp",
					"type": "uint256"
				},
				{
					"internalType": "address",
					"name": "_transferTo",
					"type": "address"
				}
			],
			"name": "swapTokensForExactTokens",
			"outputs": [
				{
					"internalType": "uint256[]",
					"name": "",
					"type": "uint256[]"
				}
			],
			"stateMutability": "payable",
			"type": "function"
		},
		{
			"inputs": [],
			"name": "symbol",
			"outputs": [
				{
					"internalType": "string",
					"name": "",
					"type": "string"
				}
			],
			"stateMutability": "view",
			"type": "function"
		},
		{
			"inputs": [],
			"name": "testInit",
			"outputs": [],
			"stateMutability": "nonpayable",
			"type": "function"
		},
		{
			"inputs": [
				{
					"internalType": "address",
					"name": "",
					"type": "address"
				},
				{
					"internalType": "address",
					"name": "_testCerbyToken",
					"type": "address"
				},
				{
					"internalType": "address",
					"name": "_cerUsdToken",
					"type": "address"
				},
				{
					"internalType": "address",
					"name": "_testUsdcToken",
					"type": "address"
				},
				{
					"internalType": "address",
					"name": "",
					"type": "address"
				}
			],
			"name": "testSetupTokens",
			"outputs": [],
			"stateMutability": "nonpayable",
			"type": "function"
		},
		{
			"inputs": [],
			"name": "totalSupply",
			"outputs": [
				{
					"internalType": "uint256",
					"name": "",
					"type": "uint256"
				}
			],
			"stateMutability": "view",
			"type": "function"
		},
		{
			"inputs": [
				{
					"internalType": "uint256",
					"name": "_id",
					"type": "uint256"
				}
			],
			"name": "totalSupply",
			"outputs": [
				{
					"internalType": "uint256",
					"name": "",
					"type": "uint256"
				}
			],
			"stateMutability": "view",
			"type": "function"
		},
		{
			"inputs": [
				{
					"internalType": "address",
					"name": "_newOwner",
					"type": "address"
				}
			],
			"name": "transferOwnership",
			"outputs": [],
			"stateMutability": "nonpayable",
			"type": "function"
		},
		{
			"inputs": [
				{
					"internalType": "uint256",
					"name": "_id",
					"type": "uint256"
				}
			],
			"name": "uri",
			"outputs": [
				{
					"internalType": "string",
					"name": "",
					"type": "string"
				}
			],
			"stateMutability": "view",
			"type": "function"
		},
		{
			"stateMutability": "payable",
			"type": "receive"
		}
	]
}