{
	"data": {
		"bytecode": {
			"linkReferences": {},
			"object": "608060405273e7126c0fb4b1f5f79e5bbec3948139dcf348b49c600360006101000a81548173ffffffffffffffffffffffffffffffffffffffff021916908373ffffffffffffffffffffffffffffffffffffffff160217905550730fc5025c764ce34df352757e82f7b5c4df39a836600460006101000a81548173ffffffffffffffffffffffffffffffffffffffff021916908373ffffffffffffffffffffffffffffffffffffffff160217905550737412f2cd820d1e63bd130b0ffebe44c4e5a47d71600560006101000a81548173ffffffffffffffffffffffffffffffffffffffff021916908373ffffffffffffffffffffffffffffffffffffffff1602179055507314769f96e57b80c66837701de0b43686fb4632de600660006101000a81548173ffffffffffffffffffffffffffffffffffffffff021916908373ffffffffffffffffffffffffffffffffffffffff1602179055506040518060400160405280600b81526020017f436572627953776170563100000000000000000000000000000000000000000081525060119080519060200190620001a592919062000866565b506040518060400160405280600381526020017f435331000000000000000000000000000000000000000000000000000000000081525060129080519060200190620001f392919062000866565b5060405180606001604052806023815260200162009ea760239139601390805190602001906200022592919062000866565b503480156200023357600080fd5b50601360405160200162000248919062000b43565b60405160208183030381529060405262000268816200078460201b60201c565b506200027a33620007a060201b60201c565b600073def78a28c78a461598d948bc0c689ce88f812ad890506000606460146064620002a7919062000ba2565b620002b3919062000c32565b905060006351a673669050600060019050600060c8905060008390506000838386620002e0919062000ba2565b620002ec919062000c32565b90506040518060c001604052808873ffffffffffffffffffffffffffffffffffffffff16815260200187815260200185815260200184815260200183815260200182815250600760008201518160000160006101000a81548173ffffffffffffffffffffffffffffffffffffffff021916908373ffffffffffffffffffffffffffffffffffffffff1602179055506020820151816001015560408201518160020155606082015181600301556080820151816004015560a08201518160050155905050620003b9620008f7565b60006040518060a0016040528083815260200160006fffffffffffffffffffffffffffffffff16815260200160006fffffffffffffffffffffffffffffffff16815260200160006fffffffffffffffffffffffffffffffff168152602001600081525090806001815401808255809150506001900390600052602060002090600402016000909190919091506000820151816000019060086200045e9291906200091a565b5060208201518160010160006101000a8154816fffffffffffffffffffffffffffffffff02191690836fffffffffffffffffffffffffffffffff16021790555060408201518160010160106101000a8154816fffffffffffffffffffffffffffffffff02191690836fffffffffffffffffffffffffffffffff16021790555060608201518160020160006101000a8154816fffffffffffffffffffffffffffffffff02191690836fffffffffffffffffffffffffffffffff16021790555060808201518160030155505060014614156200058d5773c02aaa39b223fe8d0a0e5c4f27ead9083c756cc2600660006101000a81548173ffffffffffffffffffffffffffffffffffffffff021916908373ffffffffffffffffffffffffffffffffffffffff16021790555062000721565b6038461415620005f25773bb4cdb9cbd36b01bd1cbaebf2de08d9173bc095c600660006101000a81548173ffffffffffffffffffffffffffffffffffffffff021916908373ffffffffffffffffffffffffffffffffffffffff16021790555062000720565b60894614156200065757730d500b1d8e8ef31e21c99d1db9a6444d3adf1270600660006101000a81548173ffffffffffffffffffffffffffffffffffffffff021916908373ffffffffffffffffffffffffffffffffffffffff1602179055506200071f565b61a86a461415620006bd5773b31f66aa3c1e785363f0875a1b74e27b85fd66c7600660006101000a81548173ffffffffffffffffffffffffffffffffffffffff021916908373ffffffffffffffffffffffffffffffffffffffff1602179055506200071e565b60fa4614156200071d577321be370d5312f44cb42ce377bc9b8a0cef1a4c83600660006101000a81548173ffffffffffffffffffffffffffffffffffffffff021916908373ffffffffffffffffffffffffffffffffffffffff1602179055505b5b5b5b5b7314769f96e57b80c66837701de0b43686fb4632de600660006101000a81548173ffffffffffffffffffffffffffffffffffffffff021916908373ffffffffffffffffffffffffffffffffffffffff160217905550505050505050505062000c6a565b80600f90805190602001906200079c92919062000866565b5050565b6000601460009054906101000a900473ffffffffffffffffffffffffffffffffffffffff16905081601460006101000a81548173ffffffffffffffffffffffffffffffffffffffff021916908373ffffffffffffffffffffffffffffffffffffffff1602179055508173ffffffffffffffffffffffffffffffffffffffff168173ffffffffffffffffffffffffffffffffffffffff167f8be0079c531659141344cd1fd0a4f28419497f9722a3daafe3b4186f6b6457e060405160405180910390a35050565b828054620008749062000a12565b90600052602060002090601f016020900481019282620008985760008555620008e4565b82601f10620008b357805160ff1916838001178555620008e4565b82800160010185558215620008e4579182015b82811115620008e3578251825591602001919060010190620008c6565b5b509050620008f39190620009c4565b5090565b604051806101000160405280600890602082028036833780820191505090505090565b826008600701600890048101928215620009b15791602002820160005b838211156200097d57835183826101000a81548163ffffffff021916908363ffffffff160217905550926020019260040160208160030104928301926001030262000937565b8015620009af5782816101000a81549063ffffffff02191690556004016020816003010492830192600103026200097d565b505b509050620009c09190620009c4565b5090565b5b80821115620009df576000816000905550600101620009c5565b5090565b7f4e487b7100000000000000000000000000000000000000000000000000000000600052602260045260246000fd5b6000600282049050600182168062000a2b57607f821691505b6020821081141562000a425762000a41620009e3565b5b50919050565b600081905092915050565b60008190508160005260206000209050919050565b6000815462000a778162000a12565b62000a83818662000a48565b9450600182166000811462000aa1576001811462000ab35762000aea565b60ff1983168652818601935062000aea565b62000abe8562000a53565b60005b8381101562000ae25781548189015260018201915060208101905062000ac1565b838801955050505b50505092915050565b7f7b69647d2e6a736f6e0000000000000000000000000000000000000000000000600082015250565b600062000b2b60098362000a48565b915062000b388262000af3565b600982019050919050565b600062000b51828462000a68565b915062000b5e8262000b1c565b915081905092915050565b6000819050919050565b7f4e487b7100000000000000000000000000000000000000000000000000000000600052601160045260246000fd5b600062000baf8262000b69565b915062000bbc8362000b69565b9250817fffffffffffffffffffffffffffffffffffffffffffffffffffffffffffffffff048311821515161562000bf85762000bf762000b73565b5b828202905092915050565b7f4e487b7100000000000000000000000000000000000000000000000000000000600052601260045260246000fd5b600062000c3f8262000b69565b915062000c4c8362000b69565b92508262000c5f5762000c5e62000c03565b5b828204905092915050565b61922d8062000c7a6000396000f3fe60806040526004361061023e5760003560e01c8063842980f41161012e578063bd85b039116100ab578063e985e9c51161006f578063e985e9c5146108bb578063eca01093146108f8578063f242432a14610921578063f2fde38b1461094a578063f65247241461097357610245565b8063bd85b039146107f2578063c09c923b1461082f578063c790985a14610839578063cab4ba8214610876578063d5d607371461089f57610245565b8063a22cb465116100f2578063a22cb4651461071b578063a60c6e5514610744578063a6d8ad3914610775578063a7fd40bf146107b2578063b5d11e99146107db57610245565b8063842980f41461065557806385b4bb53146106715780638da5cb5b1461069c5780638fb2e2c2146106c757806395d89b41146106f057610245565b80633935ac11116101bc5780634f558e79116101805780634f558e791461055e578063614175161461059b578063715018a6146105d857806371858049146105ef57806374fcf0711461061857610245565b80633935ac111461044e57806343fefad41461047757806348b08d62146104a75780634c3c0eb2146104e45780634e1273f41461052157610245565b80630e89341c116102035780630e89341c1461035557806318160ddd146103925780632eb2c2d6146103bd578063313ce567146103e657806334e150ab1461041157610245565b8062fdd58e1461024a57806301ffc9a71461028757806306fb1a07146102c457806306fdde03146103015780630c2e075b1461032c57610245565b3661024557005b600080fd5b34801561025657600080fd5b50610271600480360381019061026c919061724b565b6109a4565b60405161027e919061729a565b60405180910390f35b34801561029357600080fd5b506102ae60048036038101906102a9919061730d565b610a65565b6040516102bb9190617355565b60405180910390f35b3480156102d057600080fd5b506102eb60048036038101906102e69190617370565b610acf565b6040516102f891906173ac565b60405180910390f35b34801561030d57600080fd5b50610316610b66565b6040516103239190617460565b60405180910390f35b34801561033857600080fd5b50610353600480360381019061034e91906174a6565b610bf8565b005b34801561036157600080fd5b5061037c60048036038101906103779190617370565b610d66565b6040516103899190617460565b60405180910390f35b34801561039e57600080fd5b506103a7610d92565b6040516103b4919061729a565b60405180910390f35b3480156103c957600080fd5b506103e460048036038101906103df919061758e565b610dee565b005b3480156103f257600080fd5b506103fb610ef1565b604051610408919061729a565b60405180910390f35b34801561041d57600080fd5b50610438600480360381019061043391906176c0565b610efa565b604051610445919061791f565b60405180910390f35b34801561045a57600080fd5b5061047560048036038101906104709190617a71565b61118d565b005b610491600480360381019061048c9190617ae9565b61122b565b60405161049e919061729a565b60405180910390f35b3480156104b357600080fd5b506104ce60048036038101906104c99190617b50565b6119e1565b6040516104db919061729a565b60405180910390f35b3480156104f057600080fd5b5061050b60048036038101906105069190617ba3565b611b95565b604051610518919061729a565b60405180910390f35b34801561052d57600080fd5b5061054860048036038101906105439190617bd0565b611c0c565b6040516105559190617d00565b60405180910390f35b34801561056a57600080fd5b5061058560048036038101906105809190617370565b611d35565b6040516105929190617355565b60405180910390f35b3480156105a757600080fd5b506105c260048036038101906105bd9190617ba3565b611d54565b6040516105cf919061729a565b60405180910390f35b3480156105e457600080fd5b506105ed611d9d565b005b3480156105fb57600080fd5b506106166004803603810190610611919061724b565b611e15565b005b34801561062457600080fd5b5061063f600480360381019061063a9190617ae9565b611fd6565b60405161064c919061729a565b60405180910390f35b61066f600480360381019061066a9190617ae9565b61210f565b005b34801561067d57600080fd5b50610686612123565b6040516106939190617dac565b60405180910390f35b3480156106a857600080fd5b506106b16121c5565b6040516106be91906173ac565b60405180910390f35b3480156106d357600080fd5b506106ee60048036038101906106e99190617ba3565b6121ef565b005b3480156106fc57600080fd5b5061070561250c565b6040516107129190617460565b60405180910390f35b34801561072757600080fd5b50610742600480360381019061073d9190617df3565b61259e565b005b61075e60048036038101906107599190617e33565b61261c565b60405161076c929190617ec0565b60405180910390f35b34801561078157600080fd5b5061079c60048036038101906107979190617ee9565b612ae6565b6040516107a9919061791f565b60405180910390f35b3480156107be57600080fd5b506107d960048036038101906107d49190617f8c565b612d2c565b005b3480156107e757600080fd5b506107f0612dd8565b005b3480156107fe57600080fd5b5061081960048036038101906108149190617370565b612e96565b604051610826919061729a565b60405180910390f35b610837612eb3565b005b34801561084557600080fd5b50610860600480360381019061085b9190617b50565b612f81565b60405161086d919061729a565b60405180910390f35b34801561088257600080fd5b5061089d6004803603810190610898919061724b565b613135565b005b6108b960048036038101906108b49190617ae9565b61336d565b005b3480156108c757600080fd5b506108e260048036038101906108dd9190617fd9565b61340c565b6040516108ef9190617355565b60405180910390f35b34801561090457600080fd5b5061091f600480360381019061091a9190618019565b6134a0565b005b34801561092d57600080fd5b5061094860048036038101906109439190618094565b613572565b005b34801561095657600080fd5b50610971600480360381019061096c9190617ba3565b613671565b005b61098d60048036038101906109889190617e33565b613750565b60405161099b929190617ec0565b60405180910390f35b60008073ffffffffffffffffffffffffffffffffffffffff168373ffffffffffffffffffffffffffffffffffffffff161415610a0c576040517fdc768a8e00000000000000000000000000000000000000000000000000000000815260040160405180910390fd5b600d600083815260200190815260200160002060008473ffffffffffffffffffffffffffffffffffffffff1673ffffffffffffffffffffffffffffffffffffffff16815260200190815260200160002054905092915050565b60007f01ffc9a7000000000000000000000000000000000000000000000000000000007bffffffffffffffffffffffffffffffffffffffffffffffffffffffff1916827bffffffffffffffffffffffffffffffffffffffffffffffffffffffff1916149050919050565b600073def1fac7bf08f173d286bbbdcbeeade69512984073ffffffffffffffffffffffffffffffffffffffff166306fb1a07836040518263ffffffff1660e01b8152600401610b1e919061729a565b602060405180830381865afa158015610b3b573d6000803e3d6000fd5b505050506040513d601f19601f82011682018060405250810190610b5f9190618143565b9050919050565b606060118054610b759061819f565b80601f0160208091040260200160405190810160405280929190818152602001828054610ba19061819f565b8015610bee5780601f10610bc357610100808354040283529160200191610bee565b820191906000526020600020905b815481529060010190602001808311610bd157829003601f168201915b5050505050905090565b3373ffffffffffffffffffffffffffffffffffffffff16610c176121c5565b73ffffffffffffffffffffffffffffffffffffffff1614610c64576040517febf9845900000000000000000000000000000000000000000000000000000000815260040160405180910390fd5b806040013560001480610c7e575080606001358160400135115b80610c8e57506101f48160600135115b15610cc5576040517fe8404b1a00000000000000000000000000000000000000000000000000000000815260040160405180910390fd5b8060a0013581608001351115610d07576040517febc2e01600000000000000000000000000000000000000000000000000000000815260040160405180910390fd5b606460028260200135610d1a9190618200565b10610d51576040517f28af878600000000000000000000000000000000000000000000000000000000815260040160405180910390fd5b8060078181610d6091906184a1565b90505050565b6060601382604051602001610d7c9291906185bb565b6040516020818303038152906040529050919050565b60008060005b60006010600084610da8906185ee565b9450848152602001908152602001600020541115610de657601060008381526020019081526020016000205481610ddf9190618637565b9050610d98565b809250505090565b6000610dfa6003610acf565b90508073ffffffffffffffffffffffffffffffffffffffff1663eef84ba16040518163ffffffff1660e01b8152600401600060405180830381600087803b158015610e4457600080fd5b505af1158015610e58573d6000803e3d6000fd5b505050503373ffffffffffffffffffffffffffffffffffffffff168973ffffffffffffffffffffffffffffffffffffffff1614158015610e9f5750610e9d893361340c565b155b15610ed6576040517f6f34aaa800000000000000000000000000000000000000000000000000000000815260040160405180910390fd5b610ee68989898989898989613d26565b505050505050505050565b60006012905090565b606060008383905067ffffffffffffffff811115610f1b57610f1a617946565b5b604051908082528060200260200182016040528015610f5457816020015b610f41616efd565b815260200190600190039081610f395790505b50905060005b8484905081101561118257600060016000878785818110610f7e57610f7d61868d565b5b9050602002016020810190610f939190617ba3565b73ffffffffffffffffffffffffffffffffffffffff1673ffffffffffffffffffffffffffffffffffffffff1681526020019081526020016000205481548110610fdf57610fde61868d565b5b90600052602060002090600402016040518060a001604052908160008201600880602002604051908101604052809291908260088015611060576020028201916000905b82829054906101000a900463ffffffff1663ffffffff16815260200190600401906020826003010492830192600103820291508084116110235790505b505050505081526020016001820160009054906101000a90046fffffffffffffffffffffffffffffffff166fffffffffffffffffffffffffffffffff166fffffffffffffffffffffffffffffffff1681526020016001820160109054906101000a90046fffffffffffffffffffffffffffffffff166fffffffffffffffffffffffffffffffff166fffffffffffffffffffffffffffffffff1681526020016002820160009054906101000a90046fffffffffffffffffffffffffffffffff166fffffffffffffffffffffffffffffffff166fffffffffffffffffffffffffffffffff1681526020016003820154815250508282815181106111645761116361868d565b5b6020026020010181905250808061117a906185ee565b915050610f5a565b508091505092915050565b3373ffffffffffffffffffffffffffffffffffffffff166111ac6121c5565b73ffffffffffffffffffffffffffffffffffffffff16146111f9576040517febf9845900000000000000000000000000000000000000000000000000000000815260040160405180910390fd5b816011908051906020019061120f929190616f68565b508060129080519060200190611226929190616f68565b505050565b6000846000600160008373ffffffffffffffffffffffffffffffffffffffff1673ffffffffffffffffffffffffffffffffffffffff1681526020019081526020016000205414806112c95750600460009054906101000a900473ffffffffffffffffffffffffffffffffffffffff1673ffffffffffffffffffffffffffffffffffffffff168173ffffffffffffffffffffffffffffffffffffffff16145b15611309576040517f08c379a000000000000000000000000000000000000000000000000000000000815260040161130090618708565b60405180910390fd5b838042111561134d576040517f08c379a000000000000000000000000000000000000000000000000000000000815260040161134490618774565b60405180910390fd5b6000600160008973ffffffffffffffffffffffffffffffffffffffff1673ffffffffffffffffffffffffffffffffffffffff16815260200190815260200160002054905060008082815481106113a6576113a561868d565b5b906000526020600020906004020190506113c189338a6140c7565b60006113cc8a61422e565b90508160010160009054906101000a90046fffffffffffffffffffffffffffffffff166fffffffffffffffffffffffffffffffff168161140c9190618794565b985060018911611451576040517f08c379a000000000000000000000000000000000000000000000000000000000815260040161144890618814565b60405180910390fd5b600061147e600460009054906101000a900473ffffffffffffffffffffffffffffffffffffffff1661422e565b90506000600254826114909190618794565b9050600061150c8560010160109054906101000a90046fffffffffffffffffffffffffffffffff166fffffffffffffffffffffffffffffffff168660010160009054906101000a90046fffffffffffffffffffffffffffffffff166fffffffffffffffffffffffffffffffff166115079190618200565b614319565b905060006115608660020160009054906101000a90046fffffffffffffffffffffffffffffffff166fffffffffffffffffffffffffffffffff1683601060008b815260200190815260200160002054614393565b90506115a2600760000160009054906101000a900473ffffffffffffffffffffffffffffffffffffffff16888360405180602001604052806000815250614429565b505060008460010160009054906101000a90046fffffffffffffffffffffffffffffffff166fffffffffffffffffffffffffffffffff1660106000888152602001908152602001600020548d6115f89190618200565b6116029190618863565b905061161f8a878360405180602001604052806000815250614429565b60008560010160009054906101000a90046fffffffffffffffffffffffffffffffff166fffffffffffffffffffffffffffffffff168660010160109054906101000a90046fffffffffffffffffffffffffffffffff166fffffffffffffffffffffffffffffffff168e6116929190618200565b61169c9190618863565b9050600181116116d8576040517f206f960000000000000000000000000000000000000000000000000000000000815260040160405180910390fd5b600460009054906101000a900473ffffffffffffffffffffffffffffffffffffffff1673ffffffffffffffffffffffffffffffffffffffff16630bb9ff5d30836040518363ffffffff1660e01b8152600401611735929190618894565b600060405180830381600087803b15801561174f57600080fd5b505af1158015611763573d6000803e3d6000fd5b5050505080836002546117769190618637565b6117809190618637565b6002819055508c8660010160009054906101000a90046fffffffffffffffffffffffffffffffff166117b291906188bd565b8660010160006101000a8154816fffffffffffffffffffffffffffffffff02191690836fffffffffffffffffffffffffffffffff16021790555080836117f89190618637565b8660010160109054906101000a90046fffffffffffffffffffffffffffffffff1661182391906188bd565b8660010160106101000a8154816fffffffffffffffffffffffffffffffff02191690836fffffffffffffffffffffffffffffffff1602179055506118d58660010160109054906101000a90046fffffffffffffffffffffffffffffffff166fffffffffffffffffffffffffffffffff168760010160009054906101000a90046fffffffffffffffffffffffffffffffff166fffffffffffffffffffffffffffffffff166118d09190618200565b614319565b8660020160006101000a8154816fffffffffffffffffffffffffffffffff02191690836fffffffffffffffffffffffffffffffff1602179055507f64b83944e79c3ce8d4c297411de637c3e102d064677aac0c163976ebdcd6f50e8e8e83856040516119449493929190618903565b60405180910390a17f51ab1232a73b82b6b0acb0fa91b834cf6e258a1858c4e23c72ce97241c71aa0d8e8760010160009054906101000a90046fffffffffffffffffffffffffffffffff168860010160109054906101000a90046fffffffffffffffffffffffffffffffff1689600301546040516119c59493929190618979565b60405180910390a1508098505050505050505050949350505050565b600080600460009054906101000a900473ffffffffffffffffffffffffffffffffffffffff1673ffffffffffffffffffffffffffffffffffffffff168573ffffffffffffffffffffffffffffffffffffffff1614158015611a8f5750600460009054906101000a900473ffffffffffffffffffffffffffffffffffffffff1673ffffffffffffffffffffffffffffffffffffffff168473ffffffffffffffffffffffffffffffffffffffff16145b15611aa957611a9e85846145c1565b905080915050611b8e565b600460009054906101000a900473ffffffffffffffffffffffffffffffffffffffff1673ffffffffffffffffffffffffffffffffffffffff168573ffffffffffffffffffffffffffffffffffffffff16148015611b545750600460009054906101000a900473ffffffffffffffffffffffffffffffffffffffff1673ffffffffffffffffffffffffffffffffffffffff168473ffffffffffffffffffffffffffffffffffffffff1614155b15611b6e57611b638484614785565b905080915050611b8e565b6000611b7a86856145c1565b9050611b868582614785565b915081925050505b9392505050565b6000806000600160008573ffffffffffffffffffffffffffffffffffffffff1673ffffffffffffffffffffffffffffffffffffffff1681526020019081526020016000205481548110611beb57611bea61868d565b5b90600052602060002090600402019050611c0481614943565b915050919050565b60606000838390509050808686905014611c52576040517f80dadc2700000000000000000000000000000000000000000000000000000000815260040160405180910390fd5b60008686905067ffffffffffffffff811115611c7157611c70617946565b5b604051908082528060200260200182016040528015611c9f5781602001602082028036833780820191505090505b50905060005b82811015611d2757611cf7888883818110611cc357611cc261868d565b5b9050602002016020810190611cd89190617ba3565b878784818110611ceb57611cea61868d565b5b905060200201356109a4565b828281518110611d0a57611d0961868d565b5b60200260200101818152505080611d20906185ee565b9050611ca5565b508092505050949350505050565b6000806010600084815260200190815260200160002054119050919050565b6000600160008373ffffffffffffffffffffffffffffffffffffffff1673ffffffffffffffffffffffffffffffffffffffff168152602001908152602001600020549050919050565b3373ffffffffffffffffffffffffffffffffffffffff16611dbc6121c5565b73ffffffffffffffffffffffffffffffffffffffff1614611e09576040517febf9845900000000000000000000000000000000000000000000000000000000815260040160405180910390fd5b611e136000614b56565b565b600080600160008573ffffffffffffffffffffffffffffffffffffffff1673ffffffffffffffffffffffffffffffffffffffff1681526020019081526020016000205481548110611e6957611e6861868d565b5b906000526020600020906004020190507fffffffffffffffffffffffffffffffffffffffffffffffffffffffffffffffff81600301541015611f505781816003016000828254611eb99190618637565b92505081905550600460009054906101000a900473ffffffffffffffffffffffffffffffffffffffff1673ffffffffffffffffffffffffffffffffffffffff166318a8ad8733846040518363ffffffff1660e01b8152600401611f1d929190618894565b600060405180830381600087803b158015611f3757600080fd5b505af1158015611f4b573d6000803e3d6000fd5b505050505b7f51ab1232a73b82b6b0acb0fa91b834cf6e258a1858c4e23c72ce97241c71aa0d838260010160009054906101000a90046fffffffffffffffffffffffffffffffff168360010160109054906101000a90046fffffffffffffffffffffffffffffffff168460030154604051611fc99493929190618979565b60405180910390a1505050565b6000846000600160008373ffffffffffffffffffffffffffffffffffffffff1673ffffffffffffffffffffffffffffffffffffffff1681526020019081526020016000205414806120745750600460009054906101000a900473ffffffffffffffffffffffffffffffffffffffff1673ffffffffffffffffffffffffffffffffffffffff168173ffffffffffffffffffffffffffffffffffffffff16145b156120b4576040517f08c379a00000000000000000000000000000000000000000000000000000000081526004016120ab90618708565b60405180910390fd5b83804211156120f8576040517f08c379a00000000000000000000000000000000000000000000000000000000081526004016120ef90618774565b60405180910390fd5b612103878786614c1c565b92505050949350505050565b61211d8484846000856151ec565b50505050565b61212b616fee565b60076040518060c00160405290816000820160009054906101000a900473ffffffffffffffffffffffffffffffffffffffff1673ffffffffffffffffffffffffffffffffffffffff1673ffffffffffffffffffffffffffffffffffffffff16815260200160018201548152602001600282015481526020016003820154815260200160048201548152602001600582015481525050905090565b6000601460009054906101000a900473ffffffffffffffffffffffffffffffffffffffff16905090565b806000600160008373ffffffffffffffffffffffffffffffffffffffff1673ffffffffffffffffffffffffffffffffffffffff16815260200190815260200160002054148061228b5750600460009054906101000a900473ffffffffffffffffffffffffffffffffffffffff1673ffffffffffffffffffffffffffffffffffffffff168173ffffffffffffffffffffffffffffffffffffffff16145b156122cb576040517f08c379a00000000000000000000000000000000000000000000000000000000081526004016122c290618708565b60405180910390fd5b6000600160008473ffffffffffffffffffffffffffffffffffffffff1673ffffffffffffffffffffffffffffffffffffffff16815260200190815260200160002054905060008082815481106123245761232361868d565b5b9060005260206000209060040201905061233d8461422e565b8160010160006101000a8154816fffffffffffffffffffffffffffffffff02191690836fffffffffffffffffffffffffffffffff16021790555060006123a4600460009054906101000a900473ffffffffffffffffffffffffffffffffffffffff1661422e565b9050600254818360010160109054906101000a90046fffffffffffffffffffffffffffffffff166fffffffffffffffffffffffffffffffff166123e79190618637565b6123f19190618794565b8260010160106101000a8154816fffffffffffffffffffffffffffffffff02191690836fffffffffffffffffffffffffffffffff1602179055507fffffffffffffffffffffffffffffffffffffffffffffffffffffffffffffffff8260030154101561247d5760025481836003015461246a9190618637565b6124749190618794565b82600301819055505b806002819055507f51ab1232a73b82b6b0acb0fa91b834cf6e258a1858c4e23c72ce97241c71aa0d858360010160009054906101000a90046fffffffffffffffffffffffffffffffff168460010160109054906101000a90046fffffffffffffffffffffffffffffffff1685600301546040516124fd9493929190618979565b60405180910390a15050505050565b60606012805461251b9061819f565b80601f01602080910402602001604051908101604052809291908181526020018280546125479061819f565b80156125945780601f1061256957610100808354040283529160200191612594565b820191906000526020600020905b81548152906001019060200180831161257757829003601f168201915b5050505050905090565b60006125aa6003610acf565b90508073ffffffffffffffffffffffffffffffffffffffff1663eef84ba16040518163ffffffff1660e01b8152600401600060405180830381600087803b1580156125f457600080fd5b505af1158015612608573d6000803e3d6000fd5b5050505061261733848461569e565b505050565b6000808380421115612663576040517f08c379a000000000000000000000000000000000000000000000000000000000815260040161265a90618774565b60405180910390fd5b600187116126a6576040517f08c379a000000000000000000000000000000000000000000000000000000000815260040161269d90618814565b60405180910390fd5b6000600460009054906101000a900473ffffffffffffffffffffffffffffffffffffffff1673ffffffffffffffffffffffffffffffffffffffff168a73ffffffffffffffffffffffffffffffffffffffff16141580156127535750600460009054906101000a900473ffffffffffffffffffffffffffffffffffffffff1673ffffffffffffffffffffffffffffffffffffffff168973ffffffffffffffffffffffffffffffffffffffff16145b156127da576127628a896145c1565b9050868110156127a7576040517f08c379a000000000000000000000000000000000000000000000000000000000815260040161279e90618a0a565b60405180910390fd5b60006127b28b61422e565b90506127bf8b338b6140c7565b6127cd8b826000858a615802565b8882945094505050612ada565b600460009054906101000a900473ffffffffffffffffffffffffffffffffffffffff1673ffffffffffffffffffffffffffffffffffffffff168a73ffffffffffffffffffffffffffffffffffffffff161480156128855750600460009054906101000a900473ffffffffffffffffffffffffffffffffffffffff1673ffffffffffffffffffffffffffffffffffffffff168973ffffffffffffffffffffffffffffffffffffffff1614155b1561290c576128948989614785565b9050868110156128d9576040517f08c379a00000000000000000000000000000000000000000000000000000000081526004016128d090618a76565b60405180910390fd5b60006128e48b61422e565b90506128f18b338b6140c7565b6128ff8a828460008a615802565b8882945094505050612ada565b600460009054906101000a900473ffffffffffffffffffffffffffffffffffffffff1673ffffffffffffffffffffffffffffffffffffffff168a73ffffffffffffffffffffffffffffffffffffffff16141580156129b85750600460009054906101000a900473ffffffffffffffffffffffffffffffffffffffff1673ffffffffffffffffffffffffffffffffffffffff168a73ffffffffffffffffffffffffffffffffffffffff1614155b80156129f057508873ffffffffffffffffffffffffffffffffffffffff168a73ffffffffffffffffffffffffffffffffffffffff1614155b15612a9f576000612a018b8a6145c1565b9050612a0d8a82614785565b915087821015612a52576040517f08c379a0000000000000000000000000000000000000000000000000000000008152600401612a4990618a76565b60405180910390fd5b6000612a5d8c61422e565b9050612a6a8c338c6140c7565b612a788c8260008530615802565b612a818b61422e565b9050612a918b828560008b615802565b898395509550505050612ada565b6040517f08c379a0000000000000000000000000000000000000000000000000000000008152600401612ad190618ae2565b60405180910390fd5b50965096945050505050565b606060008383905067ffffffffffffffff811115612b0757612b06617946565b5b604051908082528060200260200182016040528015612b4057816020015b612b2d616efd565b815260200190600190039081612b255790505b50905060005b84849050811015612d21576000858583818110612b6657612b6561868d565b5b9050602002013581548110612b7e57612b7d61868d565b5b90600052602060002090600402016040518060a001604052908160008201600880602002604051908101604052809291908260088015612bff576020028201916000905b82829054906101000a900463ffffffff1663ffffffff1681526020019060040190602082600301049283019260010382029150808411612bc25790505b505050505081526020016001820160009054906101000a90046fffffffffffffffffffffffffffffffff166fffffffffffffffffffffffffffffffff166fffffffffffffffffffffffffffffffff1681526020016001820160109054906101000a90046fffffffffffffffffffffffffffffffff166fffffffffffffffffffffffffffffffff166fffffffffffffffffffffffffffffffff1681526020016002820160009054906101000a90046fffffffffffffffffffffffffffffffff166fffffffffffffffffffffffffffffffff166fffffffffffffffffffffffffffffffff168152602001600382015481525050828281518110612d0357612d0261868d565b5b60200260200101819052508080612d19906185ee565b915050612b46565b508091505092915050565b3373ffffffffffffffffffffffffffffffffffffffff16612d4b6121c5565b73ffffffffffffffffffffffffffffffffffffffff1614612d98576040517febf9845900000000000000000000000000000000000000000000000000000000815260040160405180910390fd5b612dc28282604051602001612dae929190618b73565b604051602081830303815290604052615e6a565b818160139190612dd392919061703a565b505050565b612e3b600360009054906101000a900473ffffffffffffffffffffffffffffffffffffffff1669d3c21bcecceda10000006969e10de76676d08000007fffffffffffffffffffffffffffffffffffffffffffffffffffffffffffffffff336151ec565b612e94600560009054906101000a900473ffffffffffffffffffffffffffffffffffffffff1669943b1377290cbd800000807fffffffffffffffffffffffffffffffffffffffffffffffffffffffffffffffff336151ec565b565b600060106000838152602001908152602001600020549050919050565b3373ffffffffffffffffffffffffffffffffffffffff16612ed26121c5565b73ffffffffffffffffffffffffffffffffffffffff1614612f1f576040517febf9845900000000000000000000000000000000000000000000000000000000815260040160405180910390fd5b612f7f600660009054906101000a900473ffffffffffffffffffffffffffffffffffffffff1666038d7ea4c6800069d3c21bcecceda10000007fffffffffffffffffffffffffffffffffffffffffffffffffffffffffffffffff336151ec565b565b600080600460009054906101000a900473ffffffffffffffffffffffffffffffffffffffff1673ffffffffffffffffffffffffffffffffffffffff168573ffffffffffffffffffffffffffffffffffffffff161415801561302f5750600460009054906101000a900473ffffffffffffffffffffffffffffffffffffffff1673ffffffffffffffffffffffffffffffffffffffff168473ffffffffffffffffffffffffffffffffffffffff16145b156130495761303e8584615e84565b90508091505061312e565b600460009054906101000a900473ffffffffffffffffffffffffffffffffffffffff1673ffffffffffffffffffffffffffffffffffffffff168573ffffffffffffffffffffffffffffffffffffffff161480156130f45750600460009054906101000a900473ffffffffffffffffffffffffffffffffffffffff1673ffffffffffffffffffffffffffffffffffffffff168473ffffffffffffffffffffffffffffffffffffffff1614155b1561310e576131038484616048565b90508091505061312e565b600061311a8585616048565b90506131268682615e84565b915081925050505b9392505050565b3373ffffffffffffffffffffffffffffffffffffffff166131546121c5565b73ffffffffffffffffffffffffffffffffffffffff16146131a1576040517febf9845900000000000000000000000000000000000000000000000000000000815260040160405180910390fd5b816000600160008373ffffffffffffffffffffffffffffffffffffffff1673ffffffffffffffffffffffffffffffffffffffff16815260200190815260200160002054148061323d5750600460009054906101000a900473ffffffffffffffffffffffffffffffffffffffff1673ffffffffffffffffffffffffffffffffffffffff168173ffffffffffffffffffffffffffffffffffffffff16145b1561327d576040517f08c379a000000000000000000000000000000000000000000000000000000000815260040161327490618708565b60405180910390fd5b600080600160008673ffffffffffffffffffffffffffffffffffffffff1673ffffffffffffffffffffffffffffffffffffffff16815260200190815260200160002054815481106132d1576132d061868d565b5b906000526020600020906004020190508281600301819055507f51ab1232a73b82b6b0acb0fa91b834cf6e258a1858c4e23c72ce97241c71aa0d848260010160009054906101000a90046fffffffffffffffffffffffffffffffff168360010160109054906101000a90046fffffffffffffffffffffffffffffffff168660405161335f9493929190618979565b60405180910390a150505050565b3373ffffffffffffffffffffffffffffffffffffffff1661338c6121c5565b73ffffffffffffffffffffffffffffffffffffffff16146133d9576040517febf9845900000000000000000000000000000000000000000000000000000000815260040160405180910390fd5b6134068484847fffffffffffffffffffffffffffffffffffffffffffffffffffffffffffffffff856151ec565b50505050565b6000600e60008473ffffffffffffffffffffffffffffffffffffffff1673ffffffffffffffffffffffffffffffffffffffff16815260200190815260200160002060008373ffffffffffffffffffffffffffffffffffffffff1673ffffffffffffffffffffffffffffffffffffffff16815260200190815260200160002060009054906101000a900460ff16905092915050565b83600360006101000a81548173ffffffffffffffffffffffffffffffffffffffff021916908373ffffffffffffffffffffffffffffffffffffffff16021790555082600460006101000a81548173ffffffffffffffffffffffffffffffffffffffff021916908373ffffffffffffffffffffffffffffffffffffffff16021790555081600560006101000a81548173ffffffffffffffffffffffffffffffffffffffff021916908373ffffffffffffffffffffffffffffffffffffffff16021790555061356b612dd8565b5050505050565b600061357e6003610acf565b90508073ffffffffffffffffffffffffffffffffffffffff1663eef84ba16040518163ffffffff1660e01b8152600401600060405180830381600087803b1580156135c857600080fd5b505af11580156135dc573d6000803e3d6000fd5b505050503373ffffffffffffffffffffffffffffffffffffffff168773ffffffffffffffffffffffffffffffffffffffff16141580156136235750613621873361340c565b155b1561365a576040517f6f34aaa800000000000000000000000000000000000000000000000000000000815260040160405180910390fd5b613668878787878787616206565b50505050505050565b3373ffffffffffffffffffffffffffffffffffffffff166136906121c5565b73ffffffffffffffffffffffffffffffffffffffff16146136dd576040517febf9845900000000000000000000000000000000000000000000000000000000815260040160405180910390fd5b600073ffffffffffffffffffffffffffffffffffffffff168173ffffffffffffffffffffffffffffffffffffffff161415613744576040517f5868b79d00000000000000000000000000000000000000000000000000000000815260040160405180910390fd5b61374d81614b56565b50565b6000808380421115613797576040517f08c379a000000000000000000000000000000000000000000000000000000000815260040161378e90618774565b60405180910390fd5b6000600460009054906101000a900473ffffffffffffffffffffffffffffffffffffffff1673ffffffffffffffffffffffffffffffffffffffff168a73ffffffffffffffffffffffffffffffffffffffff16141580156138445750600460009054906101000a900473ffffffffffffffffffffffffffffffffffffffff1673ffffffffffffffffffffffffffffffffffffffff168973ffffffffffffffffffffffffffffffffffffffff16145b1561390e576138538a89615e84565b905086811115613898576040517f08c379a000000000000000000000000000000000000000000000000000000000815260040161388f90618be3565b60405180910390fd5b600181116138db576040517f08c379a00000000000000000000000000000000000000000000000000000000081526004016138d290618814565b60405180910390fd5b60006138e68b61422e565b90506138f38b33846140c7565b6139018b8260008c8a615802565b8189945094505050613d1a565b600460009054906101000a900473ffffffffffffffffffffffffffffffffffffffff1673ffffffffffffffffffffffffffffffffffffffff168a73ffffffffffffffffffffffffffffffffffffffff161480156139b95750600460009054906101000a900473ffffffffffffffffffffffffffffffffffffffff1673ffffffffffffffffffffffffffffffffffffffff168973ffffffffffffffffffffffffffffffffffffffff1614155b15613a83576139c88989616048565b905086811115613a0d576040517f08c379a0000000000000000000000000000000000000000000000000000000008152600401613a0490618c4f565b60405180910390fd5b60018111613a50576040517f08c379a0000000000000000000000000000000000000000000000000000000008152600401613a4790618cbb565b60405180910390fd5b6000613a5b8a61422e565b9050613a688b33846140c7565b613a768a828b60008a615802565b8189945094505050613d1a565b600460009054906101000a900473ffffffffffffffffffffffffffffffffffffffff1673ffffffffffffffffffffffffffffffffffffffff168a73ffffffffffffffffffffffffffffffffffffffff1614158015613b2f5750600460009054906101000a900473ffffffffffffffffffffffffffffffffffffffff1673ffffffffffffffffffffffffffffffffffffffff168973ffffffffffffffffffffffffffffffffffffffff1614155b8015613b6757508873ffffffffffffffffffffffffffffffffffffffff168a73ffffffffffffffffffffffffffffffffffffffff1614155b15613cdf576000613b788a8a616048565b905060018111613bbd576040517f08c379a0000000000000000000000000000000000000000000000000000000008152600401613bb490618cbb565b60405180910390fd5b613bc78b82615e84565b915060018211613c0c576040517f08c379a0000000000000000000000000000000000000000000000000000000008152600401613c0390618cbb565b60405180910390fd5b87821115613c4f576040517f08c379a0000000000000000000000000000000000000000000000000000000008152600401613c4690618be3565b60405180910390fd5b60018211613c92576040517f08c379a0000000000000000000000000000000000000000000000000000000008152600401613c8990618814565b60405180910390fd5b6000613c9d8c61422e565b9050613caa8c33856140c7565b613cb88c8260008530615802565b613cc18b61422e565b9050613cd18b828c60008b615802565b828a95509550505050613d1a565b6040517f08c379a0000000000000000000000000000000000000000000000000000000008152600401613d1190618ae2565b60405180910390fd5b50965096945050505050565b6000868690509050848490508114613d6a576040517fa98a885900000000000000000000000000000000000000000000000000000000815260040160405180910390fd5b600073ffffffffffffffffffffffffffffffffffffffff168873ffffffffffffffffffffffffffffffffffffffff161415613dd1576040517f3e63c34800000000000000000000000000000000000000000000000000000000815260040160405180910390fd5b600033905060005b82811015613fe4576000878783818110613df657613df561868d565b5b9050602002013590506000600d60008c8c86818110613e1857613e1761868d565b5b90506020020135815260200190815260200160002060008e73ffffffffffffffffffffffffffffffffffffffff1673ffffffffffffffffffffffffffffffffffffffff16815260200190815260200160002054905081811015613ea7576040517f5ad11ec200000000000000000000000000000000000000000000000000000000815260040160405180910390fd5b818103600d60008d8d87818110613ec157613ec061868d565b5b90506020020135815260200190815260200160002060008f73ffffffffffffffffffffffffffffffffffffffff1673ffffffffffffffffffffffffffffffffffffffff1681526020019081526020016000208190555081600d60008d8d87818110613f2f57613f2e61868d565b5b90506020020135815260200190815260200160002060008e73ffffffffffffffffffffffffffffffffffffffff1673ffffffffffffffffffffffffffffffffffffffff1681526020019081526020016000206000828254613f909190618637565b9250508190555081601060008d8d87818110613faf57613fae61868d565b5b90506020020135815260200190815260200160002060008282540192505081905550505080613fdd906185ee565b9050613dd9565b508873ffffffffffffffffffffffffffffffffffffffff168a73ffffffffffffffffffffffffffffffffffffffff168273ffffffffffffffffffffffffffffffffffffffff167f4a39dc06d4c0dbc64b70af90fd698a233a518aa5d07e595d983b8c0526c8f7fb8b8b8b8b60405161405f9493929190618d3c565b60405180910390a46140bb818b8b8b8b8b8b8b8b8080601f016020809104026020016040519081016040528093929190818152602001838380828437600081840152601f19601f820116905080830192505050505050506164ba565b50505050505050505050565b600660009054906101000a900473ffffffffffffffffffffffffffffffffffffffff1673ffffffffffffffffffffffffffffffffffffffff168373ffffffffffffffffffffffffffffffffffffffff16141561419f5780341015614157576040517fb5db338c00000000000000000000000000000000000000000000000000000000815260040160405180910390fd5b8034111561419a57614199600660009054906101000a900473ffffffffffffffffffffffffffffffffffffffff163383346141929190618794565b6000616609565b5b614229565b60003411156141e3576040517f08c379a00000000000000000000000000000000000000000000000000000000081526004016141da90618dc3565b60405180910390fd5b3073ffffffffffffffffffffffffffffffffffffffff168273ffffffffffffffffffffffffffffffffffffffff16141561421c57614229565b6142288383308461678b565b5b505050565b600080600660009054906101000a900473ffffffffffffffffffffffffffffffffffffffff1673ffffffffffffffffffffffffffffffffffffffff168373ffffffffffffffffffffffffffffffffffffffff1614156142935747905080915050614314565b8273ffffffffffffffffffffffffffffffffffffffff166370a08231306040518263ffffffff1660e01b81526004016142cc91906173ac565b602060405180830381865afa1580156142e9573d6000803e3d6000fd5b505050506040513d601f19601f8201168201806040525081019061430d9190618df8565b9050809150505b919050565b6000600382111561438057819050600060016002846143389190618863565b6143429190618637565b90505b8181101561437a57809150600281828561435f9190618863565b6143699190618637565b6143739190618863565b9050614345565b5061438e565b6000821461438d57600190505b5b919050565b6000806000600760010154905085851180156143af5750600086115b80156143bb5750600081115b1561441d5780866143cc9190618200565b8160646143d99190618794565b866143e49190618200565b6143ee9190618637565b86866143fa9190618794565b82866144069190618200565b6144109190618200565b61441a9190618863565b91505b81925050509392505050565b600073ffffffffffffffffffffffffffffffffffffffff168473ffffffffffffffffffffffffffffffffffffffff161415614490576040517ff84619ac00000000000000000000000000000000000000000000000000000000815260040160405180910390fd5b600082141561449e576145bb565b6000339050826010600086815260200190815260200160002060008282546144c69190618637565b9250508190555082600d600086815260200190815260200160002060008773ffffffffffffffffffffffffffffffffffffffff1673ffffffffffffffffffffffffffffffffffffffff168152602001908152602001600020600082825401925050819055508473ffffffffffffffffffffffffffffffffffffffff16600073ffffffffffffffffffffffffffffffffffffffff168273ffffffffffffffffffffffffffffffffffffffff167fc3d58168c5ae7397731d063d5bbf3d657854427343f4c083240f7aacaa2d0f6287876040516145a2929190617ec0565b60405180910390a46145b9816000878787876168bb565b505b50505050565b6000826000600160008373ffffffffffffffffffffffffffffffffffffffff1673ffffffffffffffffffffffffffffffffffffffff16815260200190815260200160002054148061465f5750600460009054906101000a900473ffffffffffffffffffffffffffffffffffffffff1673ffffffffffffffffffffffffffffffffffffffff168173ffffffffffffffffffffffffffffffffffffffff16145b1561469f576040517f08c379a000000000000000000000000000000000000000000000000000000000815260040161469690618708565b60405180910390fd5b600080600160008773ffffffffffffffffffffffffffffffffffffffff1673ffffffffffffffffffffffffffffffffffffffff16815260200190815260200160002054815481106146f3576146f261868d565b5b9060005260206000209060040201905061477b848260010160009054906101000a90046fffffffffffffffffffffffffffffffff166fffffffffffffffffffffffffffffffff168360010160109054906101000a90046fffffffffffffffffffffffffffffffff166fffffffffffffffffffffffffffffffff1661477685614943565b616a04565b9250505092915050565b6000826000600160008373ffffffffffffffffffffffffffffffffffffffff1673ffffffffffffffffffffffffffffffffffffffff1681526020019081526020016000205414806148235750600460009054906101000a900473ffffffffffffffffffffffffffffffffffffffff1673ffffffffffffffffffffffffffffffffffffffff168173ffffffffffffffffffffffffffffffffffffffff16145b15614863576040517f08c379a000000000000000000000000000000000000000000000000000000000815260040161485a90618708565b60405180910390fd5b600080600160008773ffffffffffffffffffffffffffffffffffffffff1673ffffffffffffffffffffffffffffffffffffffff16815260200190815260200160002054815481106148b7576148b661868d565b5b90600052602060002090600402019050614939848260010160109054906101000a90046fffffffffffffffffffffffffffffffff166fffffffffffffffffffffffffffffffff168360010160009054906101000a90046fffffffffffffffffffffffffffffffff166fffffffffffffffffffffffffffffffff16612710616a04565b9250505092915050565b60008061494e616a55565b9050600060086001836149619190618637565b61496b9190618e25565b90506000805b60088110156149ea578381148061498757508281145b15614991576149d7565b8560000181600881106149a7576149a661868d565b5b600891828204019190066004029054906101000a900463ffffffff1663ffffffff16826149d49190618637565b91505b80806149e2906185ee565b915050614971565b50678ac7230489e80000816149ff9190618200565b905060006402540be4006007600401548760010160109054906101000a90046fffffffffffffffffffffffffffffffff166fffffffffffffffffffffffffffffffff16614a4c9190618200565b614a569190618863565b905060006402540be4006007600501548860010160109054906101000a90046fffffffffffffffffffffffffffffffff166fffffffffffffffffffffffffffffffff16614aa39190618200565b614aad9190618863565b90506000828411614ac5576007600301549050614b3b565b8383108015614ad357508184105b15614b31578282614ae49190618794565b600760020154600760030154614afa9190618794565b8486614b069190618794565b614b109190618200565b614b1a9190618863565b600760030154614b2a9190618794565b9050614b3a565b60076002015490505b5b80612710614b499190618794565b9650505050505050919050565b6000601460009054906101000a900473ffffffffffffffffffffffffffffffffffffffff16905081601460006101000a81548173ffffffffffffffffffffffffffffffffffffffff021916908373ffffffffffffffffffffffffffffffffffffffff1602179055508173ffffffffffffffffffffffffffffffffffffffff168173ffffffffffffffffffffffffffffffffffffffff167f8be0079c531659141344cd1fd0a4f28419497f9722a3daafe3b4186f6b6457e060405160405180910390a35050565b600080600160008673ffffffffffffffffffffffffffffffffffffffff1673ffffffffffffffffffffffffffffffffffffffff1681526020019081526020016000205490506000808281548110614c7657614c7561868d565b5b906000526020600020906004020190506000614c918761422e565b905060008260010160009054906101000a90046fffffffffffffffffffffffffffffffff166fffffffffffffffffffffffffffffffff1682614cd39190618794565b90506000600254614d05600460009054906101000a900473ffffffffffffffffffffffffffffffffffffffff1661422e565b614d0f9190618794565b90506000601060008781526020019081526020016000205490506000818a8760010160009054906101000a90046fffffffffffffffffffffffffffffffff166fffffffffffffffffffffffffffffffff16614d6a9190618200565b614d749190618863565b90506000828b8860010160109054906101000a90046fffffffffffffffffffffffffffffffff166fffffffffffffffffffffffffffffffff16614db79190618200565b614dc19190618863565b90506000614e3d8860010160109054906101000a90046fffffffffffffffffffffffffffffffff166fffffffffffffffffffffffffffffffff168960010160009054906101000a90046fffffffffffffffffffffffffffffffff166fffffffffffffffffffffffffffffffff16614e389190618200565b614319565b90506000614e7e8960020160009054906101000a90046fffffffffffffffffffffffffffffffff166fffffffffffffffffffffffffffffffff168387614393565b9050614ec0600760000160009054906101000a900473ffffffffffffffffffffffffffffffffffffffff168b8360405180602001604052806000815250614429565b8286600254614ecf9190618637565b614ed99190618794565b60028190555083878a60010160009054906101000a90046fffffffffffffffffffffffffffffffff16614f0c91906188bd565b614f169190618e56565b8960010160006101000a8154816fffffffffffffffffffffffffffffffff02191690836fffffffffffffffffffffffffffffffff16021790555082868a60010160109054906101000a90046fffffffffffffffffffffffffffffffff16614f7d91906188bd565b614f879190618e56565b8960010160106101000a8154816fffffffffffffffffffffffffffffffff02191690836fffffffffffffffffffffffffffffffff1602179055506150398960010160109054906101000a90046fffffffffffffffffffffffffffffffff166fffffffffffffffffffffffffffffffff168a60010160009054906101000a90046fffffffffffffffffffffffffffffffff166fffffffffffffffffffffffffffffffff166150349190618200565b614319565b8960020160006101000a8154816fffffffffffffffffffffffffffffffff02191690836fffffffffffffffffffffffffffffffff16021790555061507e338b8f616a76565b600460009054906101000a900473ffffffffffffffffffffffffffffffffffffffff1673ffffffffffffffffffffffffffffffffffffffff166318a8ad8730856040518363ffffffff1660e01b81526004016150db929190618894565b600060405180830381600087803b1580156150f557600080fd5b505af1158015615109573d6000803e3d6000fd5b50505050505061511c8c8b846001616609565b7f1dc8bb69df2b8e91fbdcbfcf93d951b3f0000f085a95fe3f7946d6161439245d8c83838e6040516151519493929190618903565b60405180910390a17f51ab1232a73b82b6b0acb0fa91b834cf6e258a1858c4e23c72ce97241c71aa0d8c8860010160009054906101000a90046fffffffffffffffffffffffffffffffff168960010160109054906101000a90046fffffffffffffffffffffffffffffffff168a600301546040516151d29493929190618979565b60405180910390a181985050505050505050509392505050565b846000600160008373ffffffffffffffffffffffffffffffffffffffff1673ffffffffffffffffffffffffffffffffffffffff168152602001908152602001600020541115615267576040517f402670df00000000000000000000000000000000000000000000000000000000815260040160405180910390fd5b6152728633876140c7565b600460009054906101000a900473ffffffffffffffffffffffffffffffffffffffff1673ffffffffffffffffffffffffffffffffffffffff16630bb9ff5d30866040518363ffffffff1660e01b81526004016152cf929190618894565b600060405180830381600087803b1580156152e957600080fd5b505af11580156152fd573d6000803e3d6000fd5b5050505061530a8661422e565b94506001851161534f576040517f08c379a000000000000000000000000000000000000000000000000000000000815260040161534690618814565b60405180910390fd5b600061536585876153609190618200565b614319565b905061536f6170c0565b60005b60088110156153ba5760018282600881106153905761538f61868d565b5b602002019063ffffffff16908163ffffffff168152505080806153b2906185ee565b915050615372565b5060006040518060a00160405280838152602001896fffffffffffffffffffffffffffffffff168152602001886fffffffffffffffffffffffffffffffff168152602001846fffffffffffffffffffffffffffffffff16815260200187815250905060008080549050905060008290806001815401808255809150506001900390600052602060002090600402016000909190919091506000820151816000019060086154689291906170e3565b5060208201518160010160006101000a8154816fffffffffffffffffffffffffffffffff02191690836fffffffffffffffffffffffffffffffff16021790555060408201518160010160106101000a8154816fffffffffffffffffffffffffffffffff02191690836fffffffffffffffffffffffffffffffff16021790555060608201518160020160006101000a8154816fffffffffffffffffffffffffffffffff02191690836fffffffffffffffffffffffffffffffff16021790555060808201518160030155505080600160008c73ffffffffffffffffffffffffffffffffffffffff1673ffffffffffffffffffffffffffffffffffffffff16815260200190815260200160002081905550876002600082825401925050819055506155a561dead826103e860405180602001604052806000815250614429565b60006103e8856155b59190618794565b90506155d287838360405180602001604052806000815250614429565b7f17aa8d0e85db1d0531a8181b5bb84e1d4ed744db1cadd8814acd3d181ff301378b83604051615603929190618894565b60405180910390a17f64b83944e79c3ce8d4c297411de637c3e102d064677aac0c163976ebdcd6f50e8b8b8b846040516156409493929190618903565b60405180910390a17f51ab1232a73b82b6b0acb0fa91b834cf6e258a1858c4e23c72ce97241c71aa0d8b8460200151856040015186608001516040516156899493929190618979565b60405180910390a15050505050505050505050565b8173ffffffffffffffffffffffffffffffffffffffff168373ffffffffffffffffffffffffffffffffffffffff161415615704576040517fc0532dc800000000000000000000000000000000000000000000000000000000815260040160405180910390fd5b80600e60008573ffffffffffffffffffffffffffffffffffffffff1673ffffffffffffffffffffffffffffffffffffffff16815260200190815260200160002060008473ffffffffffffffffffffffffffffffffffffffff1673ffffffffffffffffffffffffffffffffffffffff16815260200190815260200160002060006101000a81548160ff0219169083151502179055508173ffffffffffffffffffffffffffffffffffffffff168373ffffffffffffffffffffffffffffffffffffffff167f17307eab39ab6107e8899845ad3d59bd9653f200f220920489ca2b5937696c31836040516157f59190617355565b60405180910390a3505050565b846000600160008373ffffffffffffffffffffffffffffffffffffffff1673ffffffffffffffffffffffffffffffffffffffff16815260200190815260200160002054148061589e5750600460009054906101000a900473ffffffffffffffffffffffffffffffffffffffff1673ffffffffffffffffffffffffffffffffffffffff168173ffffffffffffffffffffffffffffffffffffffff16145b156158de576040517f08c379a00000000000000000000000000000000000000000000000000000000081526004016158d590618708565b60405180910390fd5b600080600160008973ffffffffffffffffffffffffffffffffffffffff1673ffffffffffffffffffffffffffffffffffffffff16815260200190815260200160002054815481106159325761593161868d565b5b906000526020600020906004020190506000600254615972600460009054906101000a900473ffffffffffffffffffffffffffffffffffffffff1661422e565b61597c9190618794565b905060006159898961422e565b9050600088826159999190618794565b9050600183826159a99190618637565b116159e9576040517f08c379a00000000000000000000000000000000000000000000000000000000081526004016159e090618ed6565b60405180910390fd5b60006001841180156159fc575060018211155b615a0e57615a0985614943565b615a12565b6127105b90507fffffffffffffffffffffffffffffffffffffffffffffffffffffffffffffffff8560030154108015615a55575087848660030154615a539190618637565b105b15615a95576040517f08c379a0000000000000000000000000000000000000000000000000000000008152600401615a8c90618f42565b60405180910390fd5b600061271080615aa59190618200565b848760010160109054906101000a90046fffffffffffffffffffffffffffffffff166fffffffffffffffffffffffffffffffff16615ae39190618200565b615aed9190618200565b905060008986600254615b009190618637565b615b0a9190618794565b905060008a878960010160109054906101000a90046fffffffffffffffffffffffffffffffff166fffffffffffffffffffffffffffffffff16615b4d9190618637565b615b579190618794565b90508b86615b659190618794565b9550600084612710615b779190618794565b86615b829190618200565b61271088615b909190618200565b615b9a9190618794565b85612710615ba89190618794565b89615bb39190618200565b61271084615bc19190618200565b615bcb9190618794565b615bd59190618200565b905083811015615c1a576040517f08c379a0000000000000000000000000000000000000000000000000000000008152600401615c1190618fae565b60405180910390fd5b82600281905550818960010160106101000a8154816fffffffffffffffffffffffffffffffff02191690836fffffffffffffffffffffffffffffffff1602179055507fffffffffffffffffffffffffffffffffffffffffffffffffffffffffffffffff89600301541015615cac578b888a60030154615c999190618637565b615ca39190618794565b89600301819055505b505050506000615cba616a55565b905060006008600183615ccd9190618637565b615cd79190618e25565b9050678ac7230489e800008a1115615d9d576000678ac7230489e800008b615cff9190618863565b886000018460088110615d1557615d1461868d565b5b600891828204019190066004029054906101000a900463ffffffff1663ffffffff16615d419190618637565b905063ffffffff80168110615d5a5763ffffffff615d5c565b805b886000018460088110615d7257615d7161868d565b5b600891828204019190066004026101000a81548163ffffffff021916908363ffffffff160217905550505b6001876000018260088110615db557615db461868d565b5b600891828204019190066004029054906101000a900463ffffffff1663ffffffff161115615e1f576001876000018260088110615df557615df461868d565b5b600891828204019190066004026101000a81548163ffffffff021916908363ffffffff1602179055505b615e2c8d8a8d6001616609565b615e5b600460009054906101000a900473ffffffffffffffffffffffffffffffffffffffff168a8c6001616609565b50505050505050505050505050565b80600f9080519060200190615e80929190616f68565b5050565b6000826000600160008373ffffffffffffffffffffffffffffffffffffffff1673ffffffffffffffffffffffffffffffffffffffff168152602001908152602001600020541480615f225750600460009054906101000a900473ffffffffffffffffffffffffffffffffffffffff1673ffffffffffffffffffffffffffffffffffffffff168173ffffffffffffffffffffffffffffffffffffffff16145b15615f62576040517f08c379a0000000000000000000000000000000000000000000000000000000008152600401615f5990618708565b60405180910390fd5b600080600160008773ffffffffffffffffffffffffffffffffffffffff1673ffffffffffffffffffffffffffffffffffffffff1681526020019081526020016000205481548110615fb657615fb561868d565b5b9060005260206000209060040201905061603e848260010160009054906101000a90046fffffffffffffffffffffffffffffffff166fffffffffffffffffffffffffffffffff168360010160109054906101000a90046fffffffffffffffffffffffffffffffff166fffffffffffffffffffffffffffffffff1661603985614943565b616c6f565b9250505092915050565b6000826000600160008373ffffffffffffffffffffffffffffffffffffffff1673ffffffffffffffffffffffffffffffffffffffff1681526020019081526020016000205414806160e65750600460009054906101000a900473ffffffffffffffffffffffffffffffffffffffff1673ffffffffffffffffffffffffffffffffffffffff168173ffffffffffffffffffffffffffffffffffffffff16145b15616126576040517f08c379a000000000000000000000000000000000000000000000000000000000815260040161611d90618708565b60405180910390fd5b600080600160008773ffffffffffffffffffffffffffffffffffffffff1673ffffffffffffffffffffffffffffffffffffffff168152602001908152602001600020548154811061617a5761617961868d565b5b906000526020600020906004020190506161fc848260010160109054906101000a90046fffffffffffffffffffffffffffffffff166fffffffffffffffffffffffffffffffff168360010160009054906101000a90046fffffffffffffffffffffffffffffffff166fffffffffffffffffffffffffffffffff16612710616c6f565b9250505092915050565b600073ffffffffffffffffffffffffffffffffffffffff168573ffffffffffffffffffffffffffffffffffffffff16141561626d576040517f3e63c34800000000000000000000000000000000000000000000000000000000815260040160405180910390fd5b60003390506000600d600087815260200190815260200160002060008973ffffffffffffffffffffffffffffffffffffffff1673ffffffffffffffffffffffffffffffffffffffff16815260200190815260200160002054905084811015616301576040517f5ad11ec200000000000000000000000000000000000000000000000000000000815260040160405180910390fd5b848103600d600088815260200190815260200160002060008a73ffffffffffffffffffffffffffffffffffffffff1673ffffffffffffffffffffffffffffffffffffffff1681526020019081526020016000208190555084600d600088815260200190815260200160002060008973ffffffffffffffffffffffffffffffffffffffff1673ffffffffffffffffffffffffffffffffffffffff16815260200190815260200160002060008282546163b89190618637565b925050819055508460106000888152602001908152602001600020600082825401925050819055508673ffffffffffffffffffffffffffffffffffffffff168873ffffffffffffffffffffffffffffffffffffffff168373ffffffffffffffffffffffffffffffffffffffff167fc3d58168c5ae7397731d063d5bbf3d657854427343f4c083240f7aacaa2d0f628989604051616456929190617ec0565b60405180910390a46164b0828989898989898080601f016020809104026020016040519081016040528093929190818152602001838380828437600081840152601f19601f820116905080830192505050505050506168bb565b5050505050505050565b6164c386616cc6565b156165ff578573ffffffffffffffffffffffffffffffffffffffff1663bc197c81898988888888886040518863ffffffff1660e01b815260040161650d9796959493929190619023565b6020604051808303816000875af192505050801561654957506040513d601f19601f8201168201806040525081019061654691906190a4565b60015b61657f576040517f45d406b200000000000000000000000000000000000000000000000000000000815260040160405180910390fd5b63bc197c8160e01b7bffffffffffffffffffffffffffffffffffffffffffffffffffffffff1916817bffffffffffffffffffffffffffffffffffffffffffffffffffffffff1916146165fd576040517f2baa526e00000000000000000000000000000000000000000000000000000000815260040160405180910390fd5b505b5050505050505050565b3073ffffffffffffffffffffffffffffffffffffffff168373ffffffffffffffffffffffffffffffffffffffff161480616644575060018211155b1561664e57616785565b600660009054906101000a900473ffffffffffffffffffffffffffffffffffffffff1673ffffffffffffffffffffffffffffffffffffffff168473ffffffffffffffffffffffffffffffffffffffff1614156166b3576166ae8383616cd9565b616785565b600460009054906101000a900473ffffffffffffffffffffffffffffffffffffffff1673ffffffffffffffffffffffffffffffffffffffff168473ffffffffffffffffffffffffffffffffffffffff16141561671957616714848484616dd0565b616785565b60006167248561422e565b9050616731858585616dd0565b600061673c8661422e565b905081848261674b9190618637565b14616782576040517fa8b538d300000000000000000000000000000000000000000000000000000000815260040160405180910390fd5b50505b50505050565b6000808573ffffffffffffffffffffffffffffffffffffffff166323b872dd8686866040516024016167bf939291906190d1565b6040516020818303038152906040529060e01b6020820180517bffffffffffffffffffffffffffffffffffffffffffffffffffffffff838183161783525050505060405161680d9190619144565b6000604051808303816000865af19150503d806000811461684a576040519150601f19603f3d011682016040523d82523d6000602084013e61684f565b606091505b509150915081801561687d575060008151148061687c57508080602001905181019061687b9190619170565b5b5b6168b3576040517f6050fe2900000000000000000000000000000000000000000000000000000000815260040160405180910390fd5b505050505050565b6168c484616cc6565b156169fc578373ffffffffffffffffffffffffffffffffffffffff1663f23a6e6187878686866040518663ffffffff1660e01b815260040161690a95949392919061919d565b6020604051808303816000875af192505050801561694657506040513d601f19601f8201168201806040525081019061694391906190a4565b60015b61697c576040517f45d406b200000000000000000000000000000000000000000000000000000000815260040160405180910390fd5b63f23a6e6160e01b7bffffffffffffffffffffffffffffffffffffffffffffffffffffffff1916817bffffffffffffffffffffffffffffffffffffffffffffffffffffffff1916146169fa576040517f2baa526e00000000000000000000000000000000000000000000000000000000815260040160405180910390fd5b505b505050505050565b6000808286616a139190618200565b905060008161271087616a269190618200565b616a309190618637565b8286616a3c9190618200565b616a469190618863565b90508092505050949350505050565b6000600861384042616a679190618863565b616a719190618e25565b905090565b600073ffffffffffffffffffffffffffffffffffffffff168373ffffffffffffffffffffffffffffffffffffffff161415616add576040517fedba591d00000000000000000000000000000000000000000000000000000000815260040160405180910390fd5b60003390506000600d600085815260200190815260200160002060008673ffffffffffffffffffffffffffffffffffffffff1673ffffffffffffffffffffffffffffffffffffffff16815260200190815260200160002054905082811015616b71576040517f73eca78400000000000000000000000000000000000000000000000000000000815260040160405180910390fd5b828103600d600086815260200190815260200160002060008773ffffffffffffffffffffffffffffffffffffffff1673ffffffffffffffffffffffffffffffffffffffff16815260200190815260200160002081905550826010600086815260200190815260200160002060008282540392505081905550600073ffffffffffffffffffffffffffffffffffffffff168573ffffffffffffffffffffffffffffffffffffffff168373ffffffffffffffffffffffffffffffffffffffff167fc3d58168c5ae7397731d063d5bbf3d657854427343f4c083240f7aacaa2d0f628787604051616c60929190617ec0565b60405180910390a45050505050565b60008060018685616c809190618794565b84616c8b9190618200565b6127108888616c9a9190618200565b616ca49190618200565b616cae9190618863565b616cb89190618637565b905080915050949350505050565b600080823b905060008111915050919050565b60008273ffffffffffffffffffffffffffffffffffffffff1682600067ffffffffffffffff811115616d0e57616d0d617946565b5b6040519080825280601f01601f191660200182016040528015616d405781602001600182028036833780820191505090505b50604051616d4e9190619144565b60006040518083038185875af1925050503d8060008114616d8b576040519150601f19603f3d011682016040523d82523d6000602084013e616d90565b606091505b5050905080616dcb576040517f30667aab00000000000000000000000000000000000000000000000000000000815260040160405180910390fd5b505050565b6000808473ffffffffffffffffffffffffffffffffffffffff1663a9059cbb8585604051602401616e02929190618894565b6040516020818303038152906040529060e01b6020820180517bffffffffffffffffffffffffffffffffffffffffffffffffffffffff8381831617835250505050604051616e509190619144565b6000604051808303816000865af19150503d8060008114616e8d576040519150601f19603f3d011682016040523d82523d6000602084013e616e92565b606091505b5091509150818015616ec05750600081511480616ebf575080806020019051810190616ebe9190619170565b5b5b616ef6576040517f7805da5300000000000000000000000000000000000000000000000000000000815260040160405180910390fd5b5050505050565b6040518060a00160405280616f106170c0565b815260200160006fffffffffffffffffffffffffffffffff16815260200160006fffffffffffffffffffffffffffffffff16815260200160006fffffffffffffffffffffffffffffffff168152602001600081525090565b828054616f749061819f565b90600052602060002090601f016020900481019282616f965760008555616fdd565b82601f10616faf57805160ff1916838001178555616fdd565b82800160010185558215616fdd579182015b82811115616fdc578251825591602001919060010190616fc1565b5b509050616fea9190617186565b5090565b6040518060c00160405280600073ffffffffffffffffffffffffffffffffffffffff16815260200160008152602001600081526020016000815260200160008152602001600081525090565b8280546170469061819f565b90600052602060002090601f01602090048101928261706857600085556170af565b82601f1061708157803560ff19168380011785556170af565b828001600101855582156170af579182015b828111156170ae578235825591602001919060010190617093565b5b5090506170bc9190617186565b5090565b604051806101000160405280600890602082028036833780820191505090505090565b8260086007016008900481019282156171755791602002820160005b8382111561714357835183826101000a81548163ffffffff021916908363ffffffff16021790555092602001926004016020816003010492830192600103026170ff565b80156171735782816101000a81549063ffffffff0219169055600401602081600301049283019260010302617143565b505b5090506171829190617186565b5090565b5b8082111561719f576000816000905550600101617187565b5090565b6000604051905090565b600080fd5b600080fd5b600073ffffffffffffffffffffffffffffffffffffffff82169050919050565b60006171e2826171b7565b9050919050565b6171f2816171d7565b81146171fd57600080fd5b50565b60008135905061720f816171e9565b92915050565b6000819050919050565b61722881617215565b811461723357600080fd5b50565b6000813590506172458161721f565b92915050565b60008060408385031215617262576172616171ad565b5b600061727085828601617200565b925050602061728185828601617236565b9150509250929050565b61729481617215565b82525050565b60006020820190506172af600083018461728b565b92915050565b60007fffffffff0000000000000000000000000000000000000000000000000000000082169050919050565b6172ea816172b5565b81146172f557600080fd5b50565b600081359050617307816172e1565b92915050565b600060208284031215617323576173226171ad565b5b6000617331848285016172f8565b91505092915050565b60008115159050919050565b61734f8161733a565b82525050565b600060208201905061736a6000830184617346565b92915050565b600060208284031215617386576173856171ad565b5b600061739484828501617236565b91505092915050565b6173a6816171d7565b82525050565b60006020820190506173c1600083018461739d565b92915050565b600081519050919050565b600082825260208201905092915050565b60005b838110156174015780820151818401526020810190506173e6565b83811115617410576000848401525b50505050565b6000601f19601f8301169050919050565b6000617432826173c7565b61743c81856173d2565b935061744c8185602086016173e3565b61745581617416565b840191505092915050565b6000602082019050818103600083015261747a8184617427565b905092915050565b600080fd5b600060c0828403121561749d5761749c617482565b5b81905092915050565b600060c082840312156174bc576174bb6171ad565b5b60006174ca84828501617487565b91505092915050565b600080fd5b600080fd5b600080fd5b60008083601f8401126174f8576174f76174d3565b5b8235905067ffffffffffffffff811115617515576175146174d8565b5b602083019150836020820283011115617531576175306174dd565b5b9250929050565b60008083601f84011261754e5761754d6174d3565b5b8235905067ffffffffffffffff81111561756b5761756a6174d8565b5b602083019150836001820283011115617587576175866174dd565b5b9250929050565b60008060008060008060008060a0898b0312156175ae576175ad6171ad565b5b60006175bc8b828c01617200565b98505060206175cd8b828c01617200565b975050604089013567ffffffffffffffff8111156175ee576175ed6171b2565b5b6175fa8b828c016174e2565b9650965050606089013567ffffffffffffffff81111561761d5761761c6171b2565b5b6176298b828c016174e2565b9450945050608089013567ffffffffffffffff81111561764c5761764b6171b2565b5b6176588b828c01617538565b92509250509295985092959890939650565b60008083601f8401126176805761767f6174d3565b5b8235905067ffffffffffffffff81111561769d5761769c6174d8565b5b6020830191508360208202830111156176b9576176b86174dd565b5b9250929050565b600080602083850312156176d7576176d66171ad565b5b600083013567ffffffffffffffff8111156176f5576176f46171b2565b5b6177018582860161766a565b92509250509250929050565b600081519050919050565b600082825260208201905092915050565b6000819050602082019050919050565b600060089050919050565b600081905092915050565b6000819050919050565b600063ffffffff82169050919050565b61777281617759565b82525050565b60006177848383617769565b60208301905092915050565b6000602082019050919050565b6177a681617739565b6177b08184617744565b92506177bb8261774f565b8060005b838110156177ec5781516177d38782617778565b96506177de83617790565b9250506001810190506177bf565b505050505050565b60006fffffffffffffffffffffffffffffffff82169050919050565b617819816177f4565b82525050565b61782881617215565b82525050565b61018082016000820151617845600085018261779d565b506020820151617859610100850182617810565b50604082015161786d610120850182617810565b506060820151617881610140850182617810565b50608082015161789561016085018261781f565b50505050565b60006178a7838361782e565b6101808301905092915050565b6000602082019050919050565b60006178cc8261770d565b6178d68185617718565b93506178e183617729565b8060005b838110156179125781516178f9888261789b565b9750617904836178b4565b9250506001810190506178e5565b5085935050505092915050565b6000602082019050818103600083015261793981846178c1565b905092915050565b600080fd5b7f4e487b7100000000000000000000000000000000000000000000000000000000600052604160045260246000fd5b61797e82617416565b810181811067ffffffffffffffff8211171561799d5761799c617946565b5b80604052505050565b60006179b06171a3565b90506179bc8282617975565b919050565b600067ffffffffffffffff8211156179dc576179db617946565b5b6179e582617416565b9050602081019050919050565b82818337600083830152505050565b6000617a14617a0f846179c1565b6179a6565b905082815260208101848484011115617a3057617a2f617941565b5b617a3b8482856179f2565b509392505050565b600082601f830112617a5857617a576174d3565b5b8135617a68848260208601617a01565b91505092915050565b60008060408385031215617a8857617a876171ad565b5b600083013567ffffffffffffffff811115617aa657617aa56171b2565b5b617ab285828601617a43565b925050602083013567ffffffffffffffff811115617ad357617ad26171b2565b5b617adf85828601617a43565b9150509250929050565b60008060008060808587031215617b0357617b026171ad565b5b6000617b1187828801617200565b9450506020617b2287828801617236565b9350506040617b3387828801617236565b9250506060617b4487828801617200565b91505092959194509250565b600080600060608486031215617b6957617b686171ad565b5b6000617b7786828701617200565b9350506020617b8886828701617200565b9250506040617b9986828701617236565b9150509250925092565b600060208284031215617bb957617bb86171ad565b5b6000617bc784828501617200565b91505092915050565b60008060008060408587031215617bea57617be96171ad565b5b600085013567ffffffffffffffff811115617c0857617c076171b2565b5b617c148782880161766a565b9450945050602085013567ffffffffffffffff811115617c3757617c366171b2565b5b617c43878288016174e2565b925092505092959194509250565b600081519050919050565b600082825260208201905092915050565b6000819050602082019050919050565b6000617c89838361781f565b60208301905092915050565b6000602082019050919050565b6000617cad82617c51565b617cb78185617c5c565b9350617cc283617c6d565b8060005b83811015617cf3578151617cda8882617c7d565b9750617ce583617c95565b925050600181019050617cc6565b5085935050505092915050565b60006020820190508181036000830152617d1a8184617ca2565b905092915050565b617d2b816171d7565b82525050565b60c082016000820151617d476000850182617d22565b506020820151617d5a602085018261781f565b506040820151617d6d604085018261781f565b506060820151617d80606085018261781f565b506080820151617d93608085018261781f565b5060a0820151617da660a085018261781f565b50505050565b600060c082019050617dc16000830184617d31565b92915050565b617dd08161733a565b8114617ddb57600080fd5b50565b600081359050617ded81617dc7565b92915050565b60008060408385031215617e0a57617e096171ad565b5b6000617e1885828601617200565b9250506020617e2985828601617dde565b9150509250929050565b60008060008060008060c08789031215617e5057617e4f6171ad565b5b6000617e5e89828a01617200565b9650506020617e6f89828a01617200565b9550506040617e8089828a01617236565b9450506060617e9189828a01617236565b9350506080617ea289828a01617236565b92505060a0617eb389828a01617200565b9150509295509295509295565b6000604082019050617ed5600083018561728b565b617ee2602083018461728b565b9392505050565b60008060208385031215617f0057617eff6171ad565b5b600083013567ffffffffffffffff811115617f1e57617f1d6171b2565b5b617f2a858286016174e2565b92509250509250929050565b60008083601f840112617f4c57617f4b6174d3565b5b8235905067ffffffffffffffff811115617f6957617f686174d8565b5b602083019150836001820283011115617f8557617f846174dd565b5b9250929050565b60008060208385031215617fa357617fa26171ad565b5b600083013567ffffffffffffffff811115617fc157617fc06171b2565b5b617fcd85828601617f36565b92509250509250929050565b60008060408385031215617ff057617fef6171ad565b5b6000617ffe85828601617200565b925050602061800f85828601617200565b9150509250929050565b600080600080600060a08688031215618035576180346171ad565b5b600061804388828901617200565b955050602061805488828901617200565b945050604061806588828901617200565b935050606061807688828901617200565b925050608061808788828901617200565b9150509295509295909350565b60008060008060008060a087890312156180b1576180b06171ad565b5b60006180bf89828a01617200565b96505060206180d089828a01617200565b95505060406180e189828a01617236565b94505060606180f289828a01617236565b935050608087013567ffffffffffffffff811115618113576181126171b2565b5b61811f89828a01617538565b92509250509295509295509295565b60008151905061813d816171e9565b92915050565b600060208284031215618159576181586171ad565b5b60006181678482850161812e565b91505092915050565b7f4e487b7100000000000000000000000000000000000000000000000000000000600052602260045260246000fd5b600060028204905060018216806181b757607f821691505b602082108114156181cb576181ca618170565b5b50919050565b7f4e487b7100000000000000000000000000000000000000000000000000000000600052601160045260246000fd5b600061820b82617215565b915061821683617215565b9250817fffffffffffffffffffffffffffffffffffffffffffffffffffffffffffffffff048311821515161561824f5761824e6181d1565b5b828202905092915050565b60008135618267816171e9565b80915050919050565b60008160001b9050919050565b600073ffffffffffffffffffffffffffffffffffffffff61829d84618270565b9350801983169250808416831791505092915050565b6000819050919050565b60006182d86182d36182ce846171b7565b6182b3565b6171b7565b9050919050565b60006182ea826182bd565b9050919050565b60006182fc826182df565b9050919050565b6000819050919050565b618316826182f1565b61832961832282618303565b835461827d565b8255505050565b6000813561833d8161721f565b80915050919050565b60007fffffffffffffffffffffffffffffffffffffffffffffffffffffffffffffffff61837284618270565b9350801983169250808416831791505092915050565b60006183a361839e61839984617215565b6182b3565b617215565b9050919050565b6000819050919050565b6183bd82618388565b6183d06183c9826183aa565b8354618346565b8255505050565b6000810160008301806183e98161825a565b90506183f5818461830d565b50505060018101602083018061840a81618330565b905061841681846183b4565b50505060028101604083018061842b81618330565b905061843781846183b4565b50505060038101606083018061844c81618330565b905061845881846183b4565b50505060048101608083018061846d81618330565b905061847981846183b4565b5050506005810160a083018061848e81618330565b905061849a81846183b4565b5050505050565b6184ab82826183d7565b5050565b600081905092915050565b60008190508160005260206000209050919050565b600081546184dc8161819f565b6184e681866184af565b94506001821660008114618501576001811461851257618545565b60ff19831686528186019350618545565b61851b856184ba565b60005b8381101561853d5781548189015260018201915060208101905061851e565b838801955050505b50505092915050565b6000819050919050565b61856961856482617215565b61854e565b82525050565b7f2e6a736f6e000000000000000000000000000000000000000000000000000000600082015250565b60006185a56005836184af565b91506185b08261856f565b600582019050919050565b60006185c782856184cf565b91506185d38284618558565b6020820191506185e282618598565b91508190509392505050565b60006185f982617215565b91507fffffffffffffffffffffffffffffffffffffffffffffffffffffffffffffffff82141561862c5761862b6181d1565b5b600182019050919050565b600061864282617215565b915061864d83617215565b9250827fffffffffffffffffffffffffffffffffffffffffffffffffffffffffffffffff03821115618682576186816181d1565b5b828201905092915050565b7f4e487b7100000000000000000000000000000000000000000000000000000000600052603260045260246000fd5b7f4300000000000000000000000000000000000000000000000000000000000000600082015250565b60006186f26001836173d2565b91506186fd826186bc565b602082019050919050565b60006020820190508181036000830152618721816186e5565b9050919050565b7f4400000000000000000000000000000000000000000000000000000000000000600082015250565b600061875e6001836173d2565b915061876982618728565b602082019050919050565b6000602082019050818103600083015261878d81618751565b9050919050565b600061879f82617215565b91506187aa83617215565b9250828210156187bd576187bc6181d1565b5b828203905092915050565b7f4600000000000000000000000000000000000000000000000000000000000000600082015250565b60006187fe6001836173d2565b9150618809826187c8565b602082019050919050565b6000602082019050818103600083015261882d816187f1565b9050919050565b7f4e487b7100000000000000000000000000000000000000000000000000000000600052601260045260246000fd5b600061886e82617215565b915061887983617215565b92508261888957618888618834565b5b828204905092915050565b60006040820190506188a9600083018561739d565b6188b6602083018461728b565b9392505050565b60006188c8826177f4565b91506188d3836177f4565b9250826fffffffffffffffffffffffffffffffff038211156188f8576188f76181d1565b5b828201905092915050565b6000608082019050618918600083018761739d565b618925602083018661728b565b618932604083018561728b565b61893f606083018461728b565b95945050505050565b600061896361895e618959846177f4565b6182b3565b617215565b9050919050565b61897381618948565b82525050565b600060808201905061898e600083018761739d565b61899b602083018661896a565b6189a8604083018561896a565b6189b5606083018461728b565b95945050505050565b7f4800000000000000000000000000000000000000000000000000000000000000600082015250565b60006189f46001836173d2565b91506189ff826189be565b602082019050919050565b60006020820190508181036000830152618a23816189e7565b9050919050565b7f6900000000000000000000000000000000000000000000000000000000000000600082015250565b6000618a606001836173d2565b9150618a6b82618a2a565b602082019050919050565b60006020820190508181036000830152618a8f81618a53565b9050919050565b7f4c00000000000000000000000000000000000000000000000000000000000000600082015250565b6000618acc6001836173d2565b9150618ad782618a96565b602082019050919050565b60006020820190508181036000830152618afb81618abf565b9050919050565b6000618b0e83856184af565b9350618b1b8385846179f2565b82840190509392505050565b7f7b69647d2e6a736f6e0000000000000000000000000000000000000000000000600082015250565b6000618b5d6009836184af565b9150618b6882618b27565b600982019050919050565b6000618b80828486618b02565b9150618b8b82618b50565b91508190509392505050565b7f4b00000000000000000000000000000000000000000000000000000000000000600082015250565b6000618bcd6001836173d2565b9150618bd882618b97565b602082019050919050565b60006020820190508181036000830152618bfc81618bc0565b9050919050565b7f4a00000000000000000000000000000000000000000000000000000000000000600082015250565b6000618c396001836173d2565b9150618c4482618c03565b602082019050919050565b60006020820190508181036000830152618c6881618c2c565b9050919050565b7f5500000000000000000000000000000000000000000000000000000000000000600082015250565b6000618ca56001836173d2565b9150618cb082618c6f565b602082019050919050565b60006020820190508181036000830152618cd481618c98565b9050919050565b600080fd5b6000618cec8385617c5c565b93507f07ffffffffffffffffffffffffffffffffffffffffffffffffffffffffffffff831115618d1f57618d1e618cdb565b5b602083029250618d308385846179f2565b82840190509392505050565b60006040820190508181036000830152618d57818688618ce0565b90508181036020830152618d6c818486618ce0565b905095945050505050565b7f4700000000000000000000000000000000000000000000000000000000000000600082015250565b6000618dad6001836173d2565b9150618db882618d77565b602082019050919050565b60006020820190508181036000830152618ddc81618da0565b9050919050565b600081519050618df28161721f565b92915050565b600060208284031215618e0e57618e0d6171ad565b5b6000618e1c84828501618de3565b91505092915050565b6000618e3082617215565b9150618e3b83617215565b925082618e4b57618e4a618834565b5b828206905092915050565b6000618e61826177f4565b9150618e6c836177f4565b925082821015618e7f57618e7e6181d1565b5b828203905092915050565b7f3200000000000000000000000000000000000000000000000000000000000000600082015250565b6000618ec06001836173d2565b9150618ecb82618e8a565b602082019050919050565b60006020820190508181036000830152618eef81618eb3565b9050919050565b7f5a00000000000000000000000000000000000000000000000000000000000000600082015250565b6000618f2c6001836173d2565b9150618f3782618ef6565b602082019050919050565b60006020820190508181036000830152618f5b81618f1f565b9050919050565b7f3100000000000000000000000000000000000000000000000000000000000000600082015250565b6000618f986001836173d2565b9150618fa382618f62565b602082019050919050565b60006020820190508181036000830152618fc781618f8b565b9050919050565b600081519050919050565b600082825260208201905092915050565b6000618ff582618fce565b618fff8185618fd9565b935061900f8185602086016173e3565b61901881617416565b840191505092915050565b600060a082019050619038600083018a61739d565b619045602083018961739d565b8181036040830152619058818789618ce0565b9050818103606083015261906d818587618ce0565b905081810360808301526190818184618fea565b905098975050505050505050565b60008151905061909e816172e1565b92915050565b6000602082840312156190ba576190b96171ad565b5b60006190c88482850161908f565b91505092915050565b60006060820190506190e6600083018661739d565b6190f3602083018561739d565b619100604083018461728b565b949350505050565b600081905092915050565b600061911e82618fce565b6191288185619108565b93506191388185602086016173e3565b80840191505092915050565b60006191508284619113565b915081905092915050565b60008151905061916a81617dc7565b92915050565b600060208284031215619186576191856171ad565b5b60006191948482850161915b565b91505092915050565b600060a0820190506191b2600083018861739d565b6191bf602083018761739d565b6191cc604083018661728b565b6191d9606083018561728b565b81810360808301526191eb8184618fea565b9050969550505050505056fea26469706673582212203ab89cd01086ba3af0142b2098748d25ccb8043d65ee86f6bc6ad31eb8f7079f64736f6c634300080b003368747470733a2f2f646174612e63657262792e66692f4365726279537761702f76312f",
			"opcodes": "PUSH1 0x80 PUSH1 0x40 MSTORE PUSH20 0xE7126C0FB4B1F5F79E5BBEC3948139DCF348B49C PUSH1 0x3 PUSH1 0x0 PUSH2 0x100 EXP DUP2 SLOAD DUP2 PUSH20 0xFFFFFFFFFFFFFFFFFFFFFFFFFFFFFFFFFFFFFFFF MUL NOT AND SWAP1 DUP4 PUSH20 0xFFFFFFFFFFFFFFFFFFFFFFFFFFFFFFFFFFFFFFFF AND MUL OR SWAP1 SSTORE POP PUSH20 0xFC5025C764CE34DF352757E82F7B5C4DF39A836 PUSH1 0x4 PUSH1 0x0 PUSH2 0x100 EXP DUP2 SLOAD DUP2 PUSH20 0xFFFFFFFFFFFFFFFFFFFFFFFFFFFFFFFFFFFFFFFF MUL NOT AND SWAP1 DUP4 PUSH20 0xFFFFFFFFFFFFFFFFFFFFFFFFFFFFFFFFFFFFFFFF AND MUL OR SWAP1 SSTORE POP PUSH20 0x7412F2CD820D1E63BD130B0FFEBE44C4E5A47D71 PUSH1 0x5 PUSH1 0x0 PUSH2 0x100 EXP DUP2 SLOAD DUP2 PUSH20 0xFFFFFFFFFFFFFFFFFFFFFFFFFFFFFFFFFFFFFFFF MUL NOT AND SWAP1 DUP4 PUSH20 0xFFFFFFFFFFFFFFFFFFFFFFFFFFFFFFFFFFFFFFFF AND MUL OR SWAP1 SSTORE POP PUSH20 0x14769F96E57B80C66837701DE0B43686FB4632DE PUSH1 0x6 PUSH1 0x0 PUSH2 0x100 EXP DUP2 SLOAD DUP2 PUSH20 0xFFFFFFFFFFFFFFFFFFFFFFFFFFFFFFFFFFFFFFFF MUL NOT AND SWAP1 DUP4 PUSH20 0xFFFFFFFFFFFFFFFFFFFFFFFFFFFFFFFFFFFFFFFF AND MUL OR SWAP1 SSTORE POP PUSH1 0x40 MLOAD DUP1 PUSH1 0x40 ADD PUSH1 0x40 MSTORE DUP1 PUSH1 0xB DUP2 MSTORE PUSH1 0x20 ADD PUSH32 0x4365726279537761705631000000000000000000000000000000000000000000 DUP2 MSTORE POP PUSH1 0x11 SWAP1 DUP1 MLOAD SWAP1 PUSH1 0x20 ADD SWAP1 PUSH3 0x1A5 SWAP3 SWAP2 SWAP1 PUSH3 0x866 JUMP JUMPDEST POP PUSH1 0x40 MLOAD DUP1 PUSH1 0x40 ADD PUSH1 0x40 MSTORE DUP1 PUSH1 0x3 DUP2 MSTORE PUSH1 0x20 ADD PUSH32 0x4353310000000000000000000000000000000000000000000000000000000000 DUP2 MSTORE POP PUSH1 0x12 SWAP1 DUP1 MLOAD SWAP1 PUSH1 0x20 ADD SWAP1 PUSH3 0x1F3 SWAP3 SWAP2 SWAP1 PUSH3 0x866 JUMP JUMPDEST POP PUSH1 0x40 MLOAD DUP1 PUSH1 0x60 ADD PUSH1 0x40 MSTORE DUP1 PUSH1 0x23 DUP2 MSTORE PUSH1 0x20 ADD PUSH3 0x9EA7 PUSH1 0x23 SWAP2 CODECOPY PUSH1 0x13 SWAP1 DUP1 MLOAD SWAP1 PUSH1 0x20 ADD SWAP1 PUSH3 0x225 SWAP3 SWAP2 SWAP1 PUSH3 0x866 JUMP JUMPDEST POP CALLVALUE DUP1 ISZERO PUSH3 0x233 JUMPI PUSH1 0x0 DUP1 REVERT JUMPDEST POP PUSH1 0x13 PUSH1 0x40 MLOAD PUSH1 0x20 ADD PUSH3 0x248 SWAP2 SWAP1 PUSH3 0xB43 JUMP JUMPDEST PUSH1 0x40 MLOAD PUSH1 0x20 DUP2 DUP4 SUB SUB DUP2 MSTORE SWAP1 PUSH1 0x40 MSTORE PUSH3 0x268 DUP2 PUSH3 0x784 PUSH1 0x20 SHL PUSH1 0x20 SHR JUMP JUMPDEST POP PUSH3 0x27A CALLER PUSH3 0x7A0 PUSH1 0x20 SHL PUSH1 0x20 SHR JUMP JUMPDEST PUSH1 0x0 PUSH20 0xDEF78A28C78A461598D948BC0C689CE88F812AD8 SWAP1 POP PUSH1 0x0 PUSH1 0x64 PUSH1 0x14 PUSH1 0x64 PUSH3 0x2A7 SWAP2 SWAP1 PUSH3 0xBA2 JUMP JUMPDEST PUSH3 0x2B3 SWAP2 SWAP1 PUSH3 0xC32 JUMP JUMPDEST SWAP1 POP PUSH1 0x0 PUSH4 0x51A67366 SWAP1 POP PUSH1 0x0 PUSH1 0x1 SWAP1 POP PUSH1 0x0 PUSH1 0xC8 SWAP1 POP PUSH1 0x0 DUP4 SWAP1 POP PUSH1 0x0 DUP4 DUP4 DUP7 PUSH3 0x2E0 SWAP2 SWAP1 PUSH3 0xBA2 JUMP JUMPDEST PUSH3 0x2EC SWAP2 SWAP1 PUSH3 0xC32 JUMP JUMPDEST SWAP1 POP PUSH1 0x40 MLOAD DUP1 PUSH1 0xC0 ADD PUSH1 0x40 MSTORE DUP1 DUP9 PUSH20 0xFFFFFFFFFFFFFFFFFFFFFFFFFFFFFFFFFFFFFFFF AND DUP2 MSTORE PUSH1 0x20 ADD DUP8 DUP2 MSTORE PUSH1 0x20 ADD DUP6 DUP2 MSTORE PUSH1 0x20 ADD DUP5 DUP2 MSTORE PUSH1 0x20 ADD DUP4 DUP2 MSTORE PUSH1 0x20 ADD DUP3 DUP2 MSTORE POP PUSH1 0x7 PUSH1 0x0 DUP3 ADD MLOAD DUP2 PUSH1 0x0 ADD PUSH1 0x0 PUSH2 0x100 EXP DUP2 SLOAD DUP2 PUSH20 0xFFFFFFFFFFFFFFFFFFFFFFFFFFFFFFFFFFFFFFFF MUL NOT AND SWAP1 DUP4 PUSH20 0xFFFFFFFFFFFFFFFFFFFFFFFFFFFFFFFFFFFFFFFF AND MUL OR SWAP1 SSTORE POP PUSH1 0x20 DUP3 ADD MLOAD DUP2 PUSH1 0x1 ADD SSTORE PUSH1 0x40 DUP3 ADD MLOAD DUP2 PUSH1 0x2 ADD SSTORE PUSH1 0x60 DUP3 ADD MLOAD DUP2 PUSH1 0x3 ADD SSTORE PUSH1 0x80 DUP3 ADD MLOAD DUP2 PUSH1 0x4 ADD SSTORE PUSH1 0xA0 DUP3 ADD MLOAD DUP2 PUSH1 0x5 ADD SSTORE SWAP1 POP POP PUSH3 0x3B9 PUSH3 0x8F7 JUMP JUMPDEST PUSH1 0x0 PUSH1 0x40 MLOAD DUP1 PUSH1 0xA0 ADD PUSH1 0x40 MSTORE DUP1 DUP4 DUP2 MSTORE PUSH1 0x20 ADD PUSH1 0x0 PUSH16 0xFFFFFFFFFFFFFFFFFFFFFFFFFFFFFFFF AND DUP2 MSTORE PUSH1 0x20 ADD PUSH1 0x0 PUSH16 0xFFFFFFFFFFFFFFFFFFFFFFFFFFFFFFFF AND DUP2 MSTORE PUSH1 0x20 ADD PUSH1 0x0 PUSH16 0xFFFFFFFFFFFFFFFFFFFFFFFFFFFFFFFF AND DUP2 MSTORE PUSH1 0x20 ADD PUSH1 0x0 DUP2 MSTORE POP SWAP1 DUP1 PUSH1 0x1 DUP2 SLOAD ADD DUP1 DUP3 SSTORE DUP1 SWAP2 POP POP PUSH1 0x1 SWAP1 SUB SWAP1 PUSH1 0x0 MSTORE PUSH1 0x20 PUSH1 0x0 KECCAK256 SWAP1 PUSH1 0x4 MUL ADD PUSH1 0x0 SWAP1 SWAP2 SWAP1 SWAP2 SWAP1 SWAP2 POP PUSH1 0x0 DUP3 ADD MLOAD DUP2 PUSH1 0x0 ADD SWAP1 PUSH1 0x8 PUSH3 0x45E SWAP3 SWAP2 SWAP1 PUSH3 0x91A JUMP JUMPDEST POP PUSH1 0x20 DUP3 ADD MLOAD DUP2 PUSH1 0x1 ADD PUSH1 0x0 PUSH2 0x100 EXP DUP2 SLOAD DUP2 PUSH16 0xFFFFFFFFFFFFFFFFFFFFFFFFFFFFFFFF MUL NOT AND SWAP1 DUP4 PUSH16 0xFFFFFFFFFFFFFFFFFFFFFFFFFFFFFFFF AND MUL OR SWAP1 SSTORE POP PUSH1 0x40 DUP3 ADD MLOAD DUP2 PUSH1 0x1 ADD PUSH1 0x10 PUSH2 0x100 EXP DUP2 SLOAD DUP2 PUSH16 0xFFFFFFFFFFFFFFFFFFFFFFFFFFFFFFFF MUL NOT AND SWAP1 DUP4 PUSH16 0xFFFFFFFFFFFFFFFFFFFFFFFFFFFFFFFF AND MUL OR SWAP1 SSTORE POP PUSH1 0x60 DUP3 ADD MLOAD DUP2 PUSH1 0x2 ADD PUSH1 0x0 PUSH2 0x100 EXP DUP2 SLOAD DUP2 PUSH16 0xFFFFFFFFFFFFFFFFFFFFFFFFFFFFFFFF MUL NOT AND SWAP1 DUP4 PUSH16 0xFFFFFFFFFFFFFFFFFFFFFFFFFFFFFFFF AND MUL OR SWAP1 SSTORE POP PUSH1 0x80 DUP3 ADD MLOAD DUP2 PUSH1 0x3 ADD SSTORE POP POP PUSH1 0x1 CHAINID EQ ISZERO PUSH3 0x58D JUMPI PUSH20 0xC02AAA39B223FE8D0A0E5C4F27EAD9083C756CC2 PUSH1 0x6 PUSH1 0x0 PUSH2 0x100 EXP DUP2 SLOAD DUP2 PUSH20 0xFFFFFFFFFFFFFFFFFFFFFFFFFFFFFFFFFFFFFFFF MUL NOT AND SWAP1 DUP4 PUSH20 0xFFFFFFFFFFFFFFFFFFFFFFFFFFFFFFFFFFFFFFFF AND MUL OR SWAP1 SSTORE POP PUSH3 0x721 JUMP JUMPDEST PUSH1 0x38 CHAINID EQ ISZERO PUSH3 0x5F2 JUMPI PUSH20 0xBB4CDB9CBD36B01BD1CBAEBF2DE08D9173BC095C PUSH1 0x6 PUSH1 0x0 PUSH2 0x100 EXP DUP2 SLOAD DUP2 PUSH20 0xFFFFFFFFFFFFFFFFFFFFFFFFFFFFFFFFFFFFFFFF MUL NOT AND SWAP1 DUP4 PUSH20 0xFFFFFFFFFFFFFFFFFFFFFFFFFFFFFFFFFFFFFFFF AND MUL OR SWAP1 SSTORE POP PUSH3 0x720 JUMP JUMPDEST PUSH1 0x89 CHAINID EQ ISZERO PUSH3 0x657 JUMPI PUSH20 0xD500B1D8E8EF31E21C99D1DB9A6444D3ADF1270 PUSH1 0x6 PUSH1 0x0 PUSH2 0x100 EXP DUP2 SLOAD DUP2 PUSH20 0xFFFFFFFFFFFFFFFFFFFFFFFFFFFFFFFFFFFFFFFF MUL NOT AND SWAP1 DUP4 PUSH20 0xFFFFFFFFFFFFFFFFFFFFFFFFFFFFFFFFFFFFFFFF AND MUL OR SWAP1 SSTORE POP PUSH3 0x71F JUMP JUMPDEST PUSH2 0xA86A CHAINID EQ ISZERO PUSH3 0x6BD JUMPI PUSH20 0xB31F66AA3C1E785363F0875A1B74E27B85FD66C7 PUSH1 0x6 PUSH1 0x0 PUSH2 0x100 EXP DUP2 SLOAD DUP2 PUSH20 0xFFFFFFFFFFFFFFFFFFFFFFFFFFFFFFFFFFFFFFFF MUL NOT AND SWAP1 DUP4 PUSH20 0xFFFFFFFFFFFFFFFFFFFFFFFFFFFFFFFFFFFFFFFF AND MUL OR SWAP1 SSTORE POP PUSH3 0x71E JUMP JUMPDEST PUSH1 0xFA CHAINID EQ ISZERO PUSH3 0x71D JUMPI PUSH20 0x21BE370D5312F44CB42CE377BC9B8A0CEF1A4C83 PUSH1 0x6 PUSH1 0x0 PUSH2 0x100 EXP DUP2 SLOAD DUP2 PUSH20 0xFFFFFFFFFFFFFFFFFFFFFFFFFFFFFFFFFFFFFFFF MUL NOT AND SWAP1 DUP4 PUSH20 0xFFFFFFFFFFFFFFFFFFFFFFFFFFFFFFFFFFFFFFFF AND MUL OR SWAP1 SSTORE POP JUMPDEST JUMPDEST JUMPDEST JUMPDEST JUMPDEST PUSH20 0x14769F96E57B80C66837701DE0B43686FB4632DE PUSH1 0x6 PUSH1 0x0 PUSH2 0x100 EXP DUP2 SLOAD DUP2 PUSH20 0xFFFFFFFFFFFFFFFFFFFFFFFFFFFFFFFFFFFFFFFF MUL NOT AND SWAP1 DUP4 PUSH20 0xFFFFFFFFFFFFFFFFFFFFFFFFFFFFFFFFFFFFFFFF AND MUL OR SWAP1 SSTORE POP POP POP POP POP POP POP POP POP PUSH3 0xC6A JUMP JUMPDEST DUP1 PUSH1 0xF SWAP1 DUP1 MLOAD SWAP1 PUSH1 0x20 ADD SWAP1 PUSH3 0x79C SWAP3 SWAP2 SWAP1 PUSH3 0x866 JUMP JUMPDEST POP POP JUMP JUMPDEST PUSH1 0x0 PUSH1 0x14 PUSH1 0x0 SWAP1 SLOAD SWAP1 PUSH2 0x100 EXP SWAP1 DIV PUSH20 0xFFFFFFFFFFFFFFFFFFFFFFFFFFFFFFFFFFFFFFFF AND SWAP1 POP DUP2 PUSH1 0x14 PUSH1 0x0 PUSH2 0x100 EXP DUP2 SLOAD DUP2 PUSH20 0xFFFFFFFFFFFFFFFFFFFFFFFFFFFFFFFFFFFFFFFF MUL NOT AND SWAP1 DUP4 PUSH20 0xFFFFFFFFFFFFFFFFFFFFFFFFFFFFFFFFFFFFFFFF AND MUL OR SWAP1 SSTORE POP DUP2 PUSH20 0xFFFFFFFFFFFFFFFFFFFFFFFFFFFFFFFFFFFFFFFF AND DUP2 PUSH20 0xFFFFFFFFFFFFFFFFFFFFFFFFFFFFFFFFFFFFFFFF AND PUSH32 0x8BE0079C531659141344CD1FD0A4F28419497F9722A3DAAFE3B4186F6B6457E0 PUSH1 0x40 MLOAD PUSH1 0x40 MLOAD DUP1 SWAP2 SUB SWAP1 LOG3 POP POP JUMP JUMPDEST DUP3 DUP1 SLOAD PUSH3 0x874 SWAP1 PUSH3 0xA12 JUMP JUMPDEST SWAP1 PUSH1 0x0 MSTORE PUSH1 0x20 PUSH1 0x0 KECCAK256 SWAP1 PUSH1 0x1F ADD PUSH1 0x20 SWAP1 DIV DUP2 ADD SWAP3 DUP3 PUSH3 0x898 JUMPI PUSH1 0x0 DUP6 SSTORE PUSH3 0x8E4 JUMP JUMPDEST DUP3 PUSH1 0x1F LT PUSH3 0x8B3 JUMPI DUP1 MLOAD PUSH1 0xFF NOT AND DUP4 DUP1 ADD OR DUP6 SSTORE PUSH3 0x8E4 JUMP JUMPDEST DUP3 DUP1 ADD PUSH1 0x1 ADD DUP6 SSTORE DUP3 ISZERO PUSH3 0x8E4 JUMPI SWAP2 DUP3 ADD JUMPDEST DUP3 DUP2 GT ISZERO PUSH3 0x8E3 JUMPI DUP3 MLOAD DUP3 SSTORE SWAP2 PUSH1 0x20 ADD SWAP2 SWAP1 PUSH1 0x1 ADD SWAP1 PUSH3 0x8C6 JUMP JUMPDEST JUMPDEST POP SWAP1 POP PUSH3 0x8F3 SWAP2 SWAP1 PUSH3 0x9C4 JUMP JUMPDEST POP SWAP1 JUMP JUMPDEST PUSH1 0x40 MLOAD DUP1 PUSH2 0x100 ADD PUSH1 0x40 MSTORE DUP1 PUSH1 0x8 SWAP1 PUSH1 0x20 DUP3 MUL DUP1 CALLDATASIZE DUP4 CALLDATACOPY DUP1 DUP3 ADD SWAP2 POP POP SWAP1 POP POP SWAP1 JUMP JUMPDEST DUP3 PUSH1 0x8 PUSH1 0x7 ADD PUSH1 0x8 SWAP1 DIV DUP2 ADD SWAP3 DUP3 ISZERO PUSH3 0x9B1 JUMPI SWAP2 PUSH1 0x20 MUL DUP3 ADD PUSH1 0x0 JUMPDEST DUP4 DUP3 GT ISZERO PUSH3 0x97D JUMPI DUP4 MLOAD DUP4 DUP3 PUSH2 0x100 EXP DUP2 SLOAD DUP2 PUSH4 0xFFFFFFFF MUL NOT AND SWAP1 DUP4 PUSH4 0xFFFFFFFF AND MUL OR SWAP1 SSTORE POP SWAP3 PUSH1 0x20 ADD SWAP3 PUSH1 0x4 ADD PUSH1 0x20 DUP2 PUSH1 0x3 ADD DIV SWAP3 DUP4 ADD SWAP3 PUSH1 0x1 SUB MUL PUSH3 0x937 JUMP JUMPDEST DUP1 ISZERO PUSH3 0x9AF JUMPI DUP3 DUP2 PUSH2 0x100 EXP DUP2 SLOAD SWAP1 PUSH4 0xFFFFFFFF MUL NOT AND SWAP1 SSTORE PUSH1 0x4 ADD PUSH1 0x20 DUP2 PUSH1 0x3 ADD DIV SWAP3 DUP4 ADD SWAP3 PUSH1 0x1 SUB MUL PUSH3 0x97D JUMP JUMPDEST POP JUMPDEST POP SWAP1 POP PUSH3 0x9C0 SWAP2 SWAP1 PUSH3 0x9C4 JUMP JUMPDEST POP SWAP1 JUMP JUMPDEST JUMPDEST DUP1 DUP3 GT ISZERO PUSH3 0x9DF JUMPI PUSH1 0x0 DUP2 PUSH1 0x0 SWAP1 SSTORE POP PUSH1 0x1 ADD PUSH3 0x9C5 JUMP JUMPDEST POP SWAP1 JUMP JUMPDEST PUSH32 0x4E487B7100000000000000000000000000000000000000000000000000000000 PUSH1 0x0 MSTORE PUSH1 0x22 PUSH1 0x4 MSTORE PUSH1 0x24 PUSH1 0x0 REVERT JUMPDEST PUSH1 0x0 PUSH1 0x2 DUP3 DIV SWAP1 POP PUSH1 0x1 DUP3 AND DUP1 PUSH3 0xA2B JUMPI PUSH1 0x7F DUP3 AND SWAP2 POP JUMPDEST PUSH1 0x20 DUP3 LT DUP2 EQ ISZERO PUSH3 0xA42 JUMPI PUSH3 0xA41 PUSH3 0x9E3 JUMP JUMPDEST JUMPDEST POP SWAP2 SWAP1 POP JUMP JUMPDEST PUSH1 0x0 DUP2 SWAP1 POP SWAP3 SWAP2 POP POP JUMP JUMPDEST PUSH1 0x0 DUP2 SWAP1 POP DUP2 PUSH1 0x0 MSTORE PUSH1 0x20 PUSH1 0x0 KECCAK256 SWAP1 POP SWAP2 SWAP1 POP JUMP JUMPDEST PUSH1 0x0 DUP2 SLOAD PUSH3 0xA77 DUP2 PUSH3 0xA12 JUMP JUMPDEST PUSH3 0xA83 DUP2 DUP7 PUSH3 0xA48 JUMP JUMPDEST SWAP5 POP PUSH1 0x1 DUP3 AND PUSH1 0x0 DUP2 EQ PUSH3 0xAA1 JUMPI PUSH1 0x1 DUP2 EQ PUSH3 0xAB3 JUMPI PUSH3 0xAEA JUMP JUMPDEST PUSH1 0xFF NOT DUP4 AND DUP7 MSTORE DUP2 DUP7 ADD SWAP4 POP PUSH3 0xAEA JUMP JUMPDEST PUSH3 0xABE DUP6 PUSH3 0xA53 JUMP JUMPDEST PUSH1 0x0 JUMPDEST DUP4 DUP2 LT ISZERO PUSH3 0xAE2 JUMPI DUP2 SLOAD DUP2 DUP10 ADD MSTORE PUSH1 0x1 DUP3 ADD SWAP2 POP PUSH1 0x20 DUP2 ADD SWAP1 POP PUSH3 0xAC1 JUMP JUMPDEST DUP4 DUP9 ADD SWAP6 POP POP POP JUMPDEST POP POP POP SWAP3 SWAP2 POP POP JUMP JUMPDEST PUSH32 0x7B69647D2E6A736F6E0000000000000000000000000000000000000000000000 PUSH1 0x0 DUP3 ADD MSTORE POP JUMP JUMPDEST PUSH1 0x0 PUSH3 0xB2B PUSH1 0x9 DUP4 PUSH3 0xA48 JUMP JUMPDEST SWAP2 POP PUSH3 0xB38 DUP3 PUSH3 0xAF3 JUMP JUMPDEST PUSH1 0x9 DUP3 ADD SWAP1 POP SWAP2 SWAP1 POP JUMP JUMPDEST PUSH1 0x0 PUSH3 0xB51 DUP3 DUP5 PUSH3 0xA68 JUMP JUMPDEST SWAP2 POP PUSH3 0xB5E DUP3 PUSH3 0xB1C JUMP JUMPDEST SWAP2 POP DUP2 SWAP1 POP SWAP3 SWAP2 POP POP JUMP JUMPDEST PUSH1 0x0 DUP2 SWAP1 POP SWAP2 SWAP1 POP JUMP JUMPDEST PUSH32 0x4E487B7100000000000000000000000000000000000000000000000000000000 PUSH1 0x0 MSTORE PUSH1 0x11 PUSH1 0x4 MSTORE PUSH1 0x24 PUSH1 0x0 REVERT JUMPDEST PUSH1 0x0 PUSH3 0xBAF DUP3 PUSH3 0xB69 JUMP JUMPDEST SWAP2 POP PUSH3 0xBBC DUP4 PUSH3 0xB69 JUMP JUMPDEST SWAP3 POP DUP2 PUSH32 0xFFFFFFFFFFFFFFFFFFFFFFFFFFFFFFFFFFFFFFFFFFFFFFFFFFFFFFFFFFFFFFFF DIV DUP4 GT DUP3 ISZERO ISZERO AND ISZERO PUSH3 0xBF8 JUMPI PUSH3 0xBF7 PUSH3 0xB73 JUMP JUMPDEST JUMPDEST DUP3 DUP3 MUL SWAP1 POP SWAP3 SWAP2 POP POP JUMP JUMPDEST PUSH32 0x4E487B7100000000000000000000000000000000000000000000000000000000 PUSH1 0x0 MSTORE PUSH1 0x12 PUSH1 0x4 MSTORE PUSH1 0x24 PUSH1 0x0 REVERT JUMPDEST PUSH1 0x0 PUSH3 0xC3F DUP3 PUSH3 0xB69 JUMP JUMPDEST SWAP2 POP PUSH3 0xC4C DUP4 PUSH3 0xB69 JUMP JUMPDEST SWAP3 POP DUP3 PUSH3 0xC5F JUMPI PUSH3 0xC5E PUSH3 0xC03 JUMP JUMPDEST JUMPDEST DUP3 DUP3 DIV SWAP1 POP SWAP3 SWAP2 POP POP JUMP JUMPDEST PUSH2 0x922D DUP1 PUSH3 0xC7A PUSH1 0x0 CODECOPY PUSH1 0x0 RETURN INVALID PUSH1 0x80 PUSH1 0x40 MSTORE PUSH1 0x4 CALLDATASIZE LT PUSH2 0x23E JUMPI PUSH1 0x0 CALLDATALOAD PUSH1 0xE0 SHR DUP1 PUSH4 0x842980F4 GT PUSH2 0x12E JUMPI DUP1 PUSH4 0xBD85B039 GT PUSH2 0xAB JUMPI DUP1 PUSH4 0xE985E9C5 GT PUSH2 0x6F JUMPI DUP1 PUSH4 0xE985E9C5 EQ PUSH2 0x8BB JUMPI DUP1 PUSH4 0xECA01093 EQ PUSH2 0x8F8 JUMPI DUP1 PUSH4 0xF242432A EQ PUSH2 0x921 JUMPI DUP1 PUSH4 0xF2FDE38B EQ PUSH2 0x94A JUMPI DUP1 PUSH4 0xF6524724 EQ PUSH2 0x973 JUMPI PUSH2 0x245 JUMP JUMPDEST DUP1 PUSH4 0xBD85B039 EQ PUSH2 0x7F2 JUMPI DUP1 PUSH4 0xC09C923B EQ PUSH2 0x82F JUMPI DUP1 PUSH4 0xC790985A EQ PUSH2 0x839 JUMPI DUP1 PUSH4 0xCAB4BA82 EQ PUSH2 0x876 JUMPI DUP1 PUSH4 0xD5D60737 EQ PUSH2 0x89F JUMPI PUSH2 0x245 JUMP JUMPDEST DUP1 PUSH4 0xA22CB465 GT PUSH2 0xF2 JUMPI DUP1 PUSH4 0xA22CB465 EQ PUSH2 0x71B JUMPI DUP1 PUSH4 0xA60C6E55 EQ PUSH2 0x744 JUMPI DUP1 PUSH4 0xA6D8AD39 EQ PUSH2 0x775 JUMPI DUP1 PUSH4 0xA7FD40BF EQ PUSH2 0x7B2 JUMPI DUP1 PUSH4 0xB5D11E99 EQ PUSH2 0x7DB JUMPI PUSH2 0x245 JUMP JUMPDEST DUP1 PUSH4 0x842980F4 EQ PUSH2 0x655 JUMPI DUP1 PUSH4 0x85B4BB53 EQ PUSH2 0x671 JUMPI DUP1 PUSH4 0x8DA5CB5B EQ PUSH2 0x69C JUMPI DUP1 PUSH4 0x8FB2E2C2 EQ PUSH2 0x6C7 JUMPI DUP1 PUSH4 0x95D89B41 EQ PUSH2 0x6F0 JUMPI PUSH2 0x245 JUMP JUMPDEST DUP1 PUSH4 0x3935AC11 GT PUSH2 0x1BC JUMPI DUP1 PUSH4 0x4F558E79 GT PUSH2 0x180 JUMPI DUP1 PUSH4 0x4F558E79 EQ PUSH2 0x55E JUMPI DUP1 PUSH4 0x61417516 EQ PUSH2 0x59B JUMPI DUP1 PUSH4 0x715018A6 EQ PUSH2 0x5D8 JUMPI DUP1 PUSH4 0x71858049 EQ PUSH2 0x5EF JUMPI DUP1 PUSH4 0x74FCF071 EQ PUSH2 0x618 JUMPI PUSH2 0x245 JUMP JUMPDEST DUP1 PUSH4 0x3935AC11 EQ PUSH2 0x44E JUMPI DUP1 PUSH4 0x43FEFAD4 EQ PUSH2 0x477 JUMPI DUP1 PUSH4 0x48B08D62 EQ PUSH2 0x4A7 JUMPI DUP1 PUSH4 0x4C3C0EB2 EQ PUSH2 0x4E4 JUMPI DUP1 PUSH4 0x4E1273F4 EQ PUSH2 0x521 JUMPI PUSH2 0x245 JUMP JUMPDEST DUP1 PUSH4 0xE89341C GT PUSH2 0x203 JUMPI DUP1 PUSH4 0xE89341C EQ PUSH2 0x355 JUMPI DUP1 PUSH4 0x18160DDD EQ PUSH2 0x392 JUMPI DUP1 PUSH4 0x2EB2C2D6 EQ PUSH2 0x3BD JUMPI DUP1 PUSH4 0x313CE567 EQ PUSH2 0x3E6 JUMPI DUP1 PUSH4 0x34E150AB EQ PUSH2 0x411 JUMPI PUSH2 0x245 JUMP JUMPDEST DUP1 PUSH3 0xFDD58E EQ PUSH2 0x24A JUMPI DUP1 PUSH4 0x1FFC9A7 EQ PUSH2 0x287 JUMPI DUP1 PUSH4 0x6FB1A07 EQ PUSH2 0x2C4 JUMPI DUP1 PUSH4 0x6FDDE03 EQ PUSH2 0x301 JUMPI DUP1 PUSH4 0xC2E075B EQ PUSH2 0x32C JUMPI PUSH2 0x245 JUMP JUMPDEST CALLDATASIZE PUSH2 0x245 JUMPI STOP JUMPDEST PUSH1 0x0 DUP1 REVERT JUMPDEST CALLVALUE DUP1 ISZERO PUSH2 0x256 JUMPI PUSH1 0x0 DUP1 REVERT JUMPDEST POP PUSH2 0x271 PUSH1 0x4 DUP1 CALLDATASIZE SUB DUP2 ADD SWAP1 PUSH2 0x26C SWAP2 SWAP1 PUSH2 0x724B JUMP JUMPDEST PUSH2 0x9A4 JUMP JUMPDEST PUSH1 0x40 MLOAD PUSH2 0x27E SWAP2 SWAP1 PUSH2 0x729A JUMP JUMPDEST PUSH1 0x40 MLOAD DUP1 SWAP2 SUB SWAP1 RETURN JUMPDEST CALLVALUE DUP1 ISZERO PUSH2 0x293 JUMPI PUSH1 0x0 DUP1 REVERT JUMPDEST POP PUSH2 0x2AE PUSH1 0x4 DUP1 CALLDATASIZE SUB DUP2 ADD SWAP1 PUSH2 0x2A9 SWAP2 SWAP1 PUSH2 0x730D JUMP JUMPDEST PUSH2 0xA65 JUMP JUMPDEST PUSH1 0x40 MLOAD PUSH2 0x2BB SWAP2 SWAP1 PUSH2 0x7355 JUMP JUMPDEST PUSH1 0x40 MLOAD DUP1 SWAP2 SUB SWAP1 RETURN JUMPDEST CALLVALUE DUP1 ISZERO PUSH2 0x2D0 JUMPI PUSH1 0x0 DUP1 REVERT JUMPDEST POP PUSH2 0x2EB PUSH1 0x4 DUP1 CALLDATASIZE SUB DUP2 ADD SWAP1 PUSH2 0x2E6 SWAP2 SWAP1 PUSH2 0x7370 JUMP JUMPDEST PUSH2 0xACF JUMP JUMPDEST PUSH1 0x40 MLOAD PUSH2 0x2F8 SWAP2 SWAP1 PUSH2 0x73AC JUMP JUMPDEST PUSH1 0x40 MLOAD DUP1 SWAP2 SUB SWAP1 RETURN JUMPDEST CALLVALUE DUP1 ISZERO PUSH2 0x30D JUMPI PUSH1 0x0 DUP1 REVERT JUMPDEST POP PUSH2 0x316 PUSH2 0xB66 JUMP JUMPDEST PUSH1 0x40 MLOAD PUSH2 0x323 SWAP2 SWAP1 PUSH2 0x7460 JUMP JUMPDEST PUSH1 0x40 MLOAD DUP1 SWAP2 SUB SWAP1 RETURN JUMPDEST CALLVALUE DUP1 ISZERO PUSH2 0x338 JUMPI PUSH1 0x0 DUP1 REVERT JUMPDEST POP PUSH2 0x353 PUSH1 0x4 DUP1 CALLDATASIZE SUB DUP2 ADD SWAP1 PUSH2 0x34E SWAP2 SWAP1 PUSH2 0x74A6 JUMP JUMPDEST PUSH2 0xBF8 JUMP JUMPDEST STOP JUMPDEST CALLVALUE DUP1 ISZERO PUSH2 0x361 JUMPI PUSH1 0x0 DUP1 REVERT JUMPDEST POP PUSH2 0x37C PUSH1 0x4 DUP1 CALLDATASIZE SUB DUP2 ADD SWAP1 PUSH2 0x377 SWAP2 SWAP1 PUSH2 0x7370 JUMP JUMPDEST PUSH2 0xD66 JUMP JUMPDEST PUSH1 0x40 MLOAD PUSH2 0x389 SWAP2 SWAP1 PUSH2 0x7460 JUMP JUMPDEST PUSH1 0x40 MLOAD DUP1 SWAP2 SUB SWAP1 RETURN JUMPDEST CALLVALUE DUP1 ISZERO PUSH2 0x39E JUMPI PUSH1 0x0 DUP1 REVERT JUMPDEST POP PUSH2 0x3A7 PUSH2 0xD92 JUMP JUMPDEST PUSH1 0x40 MLOAD PUSH2 0x3B4 SWAP2 SWAP1 PUSH2 0x729A JUMP JUMPDEST PUSH1 0x40 MLOAD DUP1 SWAP2 SUB SWAP1 RETURN JUMPDEST CALLVALUE DUP1 ISZERO PUSH2 0x3C9 JUMPI PUSH1 0x0 DUP1 REVERT JUMPDEST POP PUSH2 0x3E4 PUSH1 0x4 DUP1 CALLDATASIZE SUB DUP2 ADD SWAP1 PUSH2 0x3DF SWAP2 SWAP1 PUSH2 0x758E JUMP JUMPDEST PUSH2 0xDEE JUMP JUMPDEST STOP JUMPDEST CALLVALUE DUP1 ISZERO PUSH2 0x3F2 JUMPI PUSH1 0x0 DUP1 REVERT JUMPDEST POP PUSH2 0x3FB PUSH2 0xEF1 JUMP JUMPDEST PUSH1 0x40 MLOAD PUSH2 0x408 SWAP2 SWAP1 PUSH2 0x729A JUMP JUMPDEST PUSH1 0x40 MLOAD DUP1 SWAP2 SUB SWAP1 RETURN JUMPDEST CALLVALUE DUP1 ISZERO PUSH2 0x41D JUMPI PUSH1 0x0 DUP1 REVERT JUMPDEST POP PUSH2 0x438 PUSH1 0x4 DUP1 CALLDATASIZE SUB DUP2 ADD SWAP1 PUSH2 0x433 SWAP2 SWAP1 PUSH2 0x76C0 JUMP JUMPDEST PUSH2 0xEFA JUMP JUMPDEST PUSH1 0x40 MLOAD PUSH2 0x445 SWAP2 SWAP1 PUSH2 0x791F JUMP JUMPDEST PUSH1 0x40 MLOAD DUP1 SWAP2 SUB SWAP1 RETURN JUMPDEST CALLVALUE DUP1 ISZERO PUSH2 0x45A JUMPI PUSH1 0x0 DUP1 REVERT JUMPDEST POP PUSH2 0x475 PUSH1 0x4 DUP1 CALLDATASIZE SUB DUP2 ADD SWAP1 PUSH2 0x470 SWAP2 SWAP1 PUSH2 0x7A71 JUMP JUMPDEST PUSH2 0x118D JUMP JUMPDEST STOP JUMPDEST PUSH2 0x491 PUSH1 0x4 DUP1 CALLDATASIZE SUB DUP2 ADD SWAP1 PUSH2 0x48C SWAP2 SWAP1 PUSH2 0x7AE9 JUMP JUMPDEST PUSH2 0x122B JUMP JUMPDEST PUSH1 0x40 MLOAD PUSH2 0x49E SWAP2 SWAP1 PUSH2 0x729A JUMP JUMPDEST PUSH1 0x40 MLOAD DUP1 SWAP2 SUB SWAP1 RETURN JUMPDEST CALLVALUE DUP1 ISZERO PUSH2 0x4B3 JUMPI PUSH1 0x0 DUP1 REVERT JUMPDEST POP PUSH2 0x4CE PUSH1 0x4 DUP1 CALLDATASIZE SUB DUP2 ADD SWAP1 PUSH2 0x4C9 SWAP2 SWAP1 PUSH2 0x7B50 JUMP JUMPDEST PUSH2 0x19E1 JUMP JUMPDEST PUSH1 0x40 MLOAD PUSH2 0x4DB SWAP2 SWAP1 PUSH2 0x729A JUMP JUMPDEST PUSH1 0x40 MLOAD DUP1 SWAP2 SUB SWAP1 RETURN JUMPDEST CALLVALUE DUP1 ISZERO PUSH2 0x4F0 JUMPI PUSH1 0x0 DUP1 REVERT JUMPDEST POP PUSH2 0x50B PUSH1 0x4 DUP1 CALLDATASIZE SUB DUP2 ADD SWAP1 PUSH2 0x506 SWAP2 SWAP1 PUSH2 0x7BA3 JUMP JUMPDEST PUSH2 0x1B95 JUMP JUMPDEST PUSH1 0x40 MLOAD PUSH2 0x518 SWAP2 SWAP1 PUSH2 0x729A JUMP JUMPDEST PUSH1 0x40 MLOAD DUP1 SWAP2 SUB SWAP1 RETURN JUMPDEST CALLVALUE DUP1 ISZERO PUSH2 0x52D JUMPI PUSH1 0x0 DUP1 REVERT JUMPDEST POP PUSH2 0x548 PUSH1 0x4 DUP1 CALLDATASIZE SUB DUP2 ADD SWAP1 PUSH2 0x543 SWAP2 SWAP1 PUSH2 0x7BD0 JUMP JUMPDEST PUSH2 0x1C0C JUMP JUMPDEST PUSH1 0x40 MLOAD PUSH2 0x555 SWAP2 SWAP1 PUSH2 0x7D00 JUMP JUMPDEST PUSH1 0x40 MLOAD DUP1 SWAP2 SUB SWAP1 RETURN JUMPDEST CALLVALUE DUP1 ISZERO PUSH2 0x56A JUMPI PUSH1 0x0 DUP1 REVERT JUMPDEST POP PUSH2 0x585 PUSH1 0x4 DUP1 CALLDATASIZE SUB DUP2 ADD SWAP1 PUSH2 0x580 SWAP2 SWAP1 PUSH2 0x7370 JUMP JUMPDEST PUSH2 0x1D35 JUMP JUMPDEST PUSH1 0x40 MLOAD PUSH2 0x592 SWAP2 SWAP1 PUSH2 0x7355 JUMP JUMPDEST PUSH1 0x40 MLOAD DUP1 SWAP2 SUB SWAP1 RETURN JUMPDEST CALLVALUE DUP1 ISZERO PUSH2 0x5A7 JUMPI PUSH1 0x0 DUP1 REVERT JUMPDEST POP PUSH2 0x5C2 PUSH1 0x4 DUP1 CALLDATASIZE SUB DUP2 ADD SWAP1 PUSH2 0x5BD SWAP2 SWAP1 PUSH2 0x7BA3 JUMP JUMPDEST PUSH2 0x1D54 JUMP JUMPDEST PUSH1 0x40 MLOAD PUSH2 0x5CF SWAP2 SWAP1 PUSH2 0x729A JUMP JUMPDEST PUSH1 0x40 MLOAD DUP1 SWAP2 SUB SWAP1 RETURN JUMPDEST CALLVALUE DUP1 ISZERO PUSH2 0x5E4 JUMPI PUSH1 0x0 DUP1 REVERT JUMPDEST POP PUSH2 0x5ED PUSH2 0x1D9D JUMP JUMPDEST STOP JUMPDEST CALLVALUE DUP1 ISZERO PUSH2 0x5FB JUMPI PUSH1 0x0 DUP1 REVERT JUMPDEST POP PUSH2 0x616 PUSH1 0x4 DUP1 CALLDATASIZE SUB DUP2 ADD SWAP1 PUSH2 0x611 SWAP2 SWAP1 PUSH2 0x724B JUMP JUMPDEST PUSH2 0x1E15 JUMP JUMPDEST STOP JUMPDEST CALLVALUE DUP1 ISZERO PUSH2 0x624 JUMPI PUSH1 0x0 DUP1 REVERT JUMPDEST POP PUSH2 0x63F PUSH1 0x4 DUP1 CALLDATASIZE SUB DUP2 ADD SWAP1 PUSH2 0x63A SWAP2 SWAP1 PUSH2 0x7AE9 JUMP JUMPDEST PUSH2 0x1FD6 JUMP JUMPDEST PUSH1 0x40 MLOAD PUSH2 0x64C SWAP2 SWAP1 PUSH2 0x729A JUMP JUMPDEST PUSH1 0x40 MLOAD DUP1 SWAP2 SUB SWAP1 RETURN JUMPDEST PUSH2 0x66F PUSH1 0x4 DUP1 CALLDATASIZE SUB DUP2 ADD SWAP1 PUSH2 0x66A SWAP2 SWAP1 PUSH2 0x7AE9 JUMP JUMPDEST PUSH2 0x210F JUMP JUMPDEST STOP JUMPDEST CALLVALUE DUP1 ISZERO PUSH2 0x67D JUMPI PUSH1 0x0 DUP1 REVERT JUMPDEST POP PUSH2 0x686 PUSH2 0x2123 JUMP JUMPDEST PUSH1 0x40 MLOAD PUSH2 0x693 SWAP2 SWAP1 PUSH2 0x7DAC JUMP JUMPDEST PUSH1 0x40 MLOAD DUP1 SWAP2 SUB SWAP1 RETURN JUMPDEST CALLVALUE DUP1 ISZERO PUSH2 0x6A8 JUMPI PUSH1 0x0 DUP1 REVERT JUMPDEST POP PUSH2 0x6B1 PUSH2 0x21C5 JUMP JUMPDEST PUSH1 0x40 MLOAD PUSH2 0x6BE SWAP2 SWAP1 PUSH2 0x73AC JUMP JUMPDEST PUSH1 0x40 MLOAD DUP1 SWAP2 SUB SWAP1 RETURN JUMPDEST CALLVALUE DUP1 ISZERO PUSH2 0x6D3 JUMPI PUSH1 0x0 DUP1 REVERT JUMPDEST POP PUSH2 0x6EE PUSH1 0x4 DUP1 CALLDATASIZE SUB DUP2 ADD SWAP1 PUSH2 0x6E9 SWAP2 SWAP1 PUSH2 0x7BA3 JUMP JUMPDEST PUSH2 0x21EF JUMP JUMPDEST STOP JUMPDEST CALLVALUE DUP1 ISZERO PUSH2 0x6FC JUMPI PUSH1 0x0 DUP1 REVERT JUMPDEST POP PUSH2 0x705 PUSH2 0x250C JUMP JUMPDEST PUSH1 0x40 MLOAD PUSH2 0x712 SWAP2 SWAP1 PUSH2 0x7460 JUMP JUMPDEST PUSH1 0x40 MLOAD DUP1 SWAP2 SUB SWAP1 RETURN JUMPDEST CALLVALUE DUP1 ISZERO PUSH2 0x727 JUMPI PUSH1 0x0 DUP1 REVERT JUMPDEST POP PUSH2 0x742 PUSH1 0x4 DUP1 CALLDATASIZE SUB DUP2 ADD SWAP1 PUSH2 0x73D SWAP2 SWAP1 PUSH2 0x7DF3 JUMP JUMPDEST PUSH2 0x259E JUMP JUMPDEST STOP JUMPDEST PUSH2 0x75E PUSH1 0x4 DUP1 CALLDATASIZE SUB DUP2 ADD SWAP1 PUSH2 0x759 SWAP2 SWAP1 PUSH2 0x7E33 JUMP JUMPDEST PUSH2 0x261C JUMP JUMPDEST PUSH1 0x40 MLOAD PUSH2 0x76C SWAP3 SWAP2 SWAP1 PUSH2 0x7EC0 JUMP JUMPDEST PUSH1 0x40 MLOAD DUP1 SWAP2 SUB SWAP1 RETURN JUMPDEST CALLVALUE DUP1 ISZERO PUSH2 0x781 JUMPI PUSH1 0x0 DUP1 REVERT JUMPDEST POP PUSH2 0x79C PUSH1 0x4 DUP1 CALLDATASIZE SUB DUP2 ADD SWAP1 PUSH2 0x797 SWAP2 SWAP1 PUSH2 0x7EE9 JUMP JUMPDEST PUSH2 0x2AE6 JUMP JUMPDEST PUSH1 0x40 MLOAD PUSH2 0x7A9 SWAP2 SWAP1 PUSH2 0x791F JUMP JUMPDEST PUSH1 0x40 MLOAD DUP1 SWAP2 SUB SWAP1 RETURN JUMPDEST CALLVALUE DUP1 ISZERO PUSH2 0x7BE JUMPI PUSH1 0x0 DUP1 REVERT JUMPDEST POP PUSH2 0x7D9 PUSH1 0x4 DUP1 CALLDATASIZE SUB DUP2 ADD SWAP1 PUSH2 0x7D4 SWAP2 SWAP1 PUSH2 0x7F8C JUMP JUMPDEST PUSH2 0x2D2C JUMP JUMPDEST STOP JUMPDEST CALLVALUE DUP1 ISZERO PUSH2 0x7E7 JUMPI PUSH1 0x0 DUP1 REVERT JUMPDEST POP PUSH2 0x7F0 PUSH2 0x2DD8 JUMP JUMPDEST STOP JUMPDEST CALLVALUE DUP1 ISZERO PUSH2 0x7FE JUMPI PUSH1 0x0 DUP1 REVERT JUMPDEST POP PUSH2 0x819 PUSH1 0x4 DUP1 CALLDATASIZE SUB DUP2 ADD SWAP1 PUSH2 0x814 SWAP2 SWAP1 PUSH2 0x7370 JUMP JUMPDEST PUSH2 0x2E96 JUMP JUMPDEST PUSH1 0x40 MLOAD PUSH2 0x826 SWAP2 SWAP1 PUSH2 0x729A JUMP JUMPDEST PUSH1 0x40 MLOAD DUP1 SWAP2 SUB SWAP1 RETURN JUMPDEST PUSH2 0x837 PUSH2 0x2EB3 JUMP JUMPDEST STOP JUMPDEST CALLVALUE DUP1 ISZERO PUSH2 0x845 JUMPI PUSH1 0x0 DUP1 REVERT JUMPDEST POP PUSH2 0x860 PUSH1 0x4 DUP1 CALLDATASIZE SUB DUP2 ADD SWAP1 PUSH2 0x85B SWAP2 SWAP1 PUSH2 0x7B50 JUMP JUMPDEST PUSH2 0x2F81 JUMP JUMPDEST PUSH1 0x40 MLOAD PUSH2 0x86D SWAP2 SWAP1 PUSH2 0x729A JUMP JUMPDEST PUSH1 0x40 MLOAD DUP1 SWAP2 SUB SWAP1 RETURN JUMPDEST CALLVALUE DUP1 ISZERO PUSH2 0x882 JUMPI PUSH1 0x0 DUP1 REVERT JUMPDEST POP PUSH2 0x89D PUSH1 0x4 DUP1 CALLDATASIZE SUB DUP2 ADD SWAP1 PUSH2 0x898 SWAP2 SWAP1 PUSH2 0x724B JUMP JUMPDEST PUSH2 0x3135 JUMP JUMPDEST STOP JUMPDEST PUSH2 0x8B9 PUSH1 0x4 DUP1 CALLDATASIZE SUB DUP2 ADD SWAP1 PUSH2 0x8B4 SWAP2 SWAP1 PUSH2 0x7AE9 JUMP JUMPDEST PUSH2 0x336D JUMP JUMPDEST STOP JUMPDEST CALLVALUE DUP1 ISZERO PUSH2 0x8C7 JUMPI PUSH1 0x0 DUP1 REVERT JUMPDEST POP PUSH2 0x8E2 PUSH1 0x4 DUP1 CALLDATASIZE SUB DUP2 ADD SWAP1 PUSH2 0x8DD SWAP2 SWAP1 PUSH2 0x7FD9 JUMP JUMPDEST PUSH2 0x340C JUMP JUMPDEST PUSH1 0x40 MLOAD PUSH2 0x8EF SWAP2 SWAP1 PUSH2 0x7355 JUMP JUMPDEST PUSH1 0x40 MLOAD DUP1 SWAP2 SUB SWAP1 RETURN JUMPDEST CALLVALUE DUP1 ISZERO PUSH2 0x904 JUMPI PUSH1 0x0 DUP1 REVERT JUMPDEST POP PUSH2 0x91F PUSH1 0x4 DUP1 CALLDATASIZE SUB DUP2 ADD SWAP1 PUSH2 0x91A SWAP2 SWAP1 PUSH2 0x8019 JUMP JUMPDEST PUSH2 0x34A0 JUMP JUMPDEST STOP JUMPDEST CALLVALUE DUP1 ISZERO PUSH2 0x92D JUMPI PUSH1 0x0 DUP1 REVERT JUMPDEST POP PUSH2 0x948 PUSH1 0x4 DUP1 CALLDATASIZE SUB DUP2 ADD SWAP1 PUSH2 0x943 SWAP2 SWAP1 PUSH2 0x8094 JUMP JUMPDEST PUSH2 0x3572 JUMP JUMPDEST STOP JUMPDEST CALLVALUE DUP1 ISZERO PUSH2 0x956 JUMPI PUSH1 0x0 DUP1 REVERT JUMPDEST POP PUSH2 0x971 PUSH1 0x4 DUP1 CALLDATASIZE SUB DUP2 ADD SWAP1 PUSH2 0x96C SWAP2 SWAP1 PUSH2 0x7BA3 JUMP JUMPDEST PUSH2 0x3671 JUMP JUMPDEST STOP JUMPDEST PUSH2 0x98D PUSH1 0x4 DUP1 CALLDATASIZE SUB DUP2 ADD SWAP1 PUSH2 0x988 SWAP2 SWAP1 PUSH2 0x7E33 JUMP JUMPDEST PUSH2 0x3750 JUMP JUMPDEST PUSH1 0x40 MLOAD PUSH2 0x99B SWAP3 SWAP2 SWAP1 PUSH2 0x7EC0 JUMP JUMPDEST PUSH1 0x40 MLOAD DUP1 SWAP2 SUB SWAP1 RETURN JUMPDEST PUSH1 0x0 DUP1 PUSH20 0xFFFFFFFFFFFFFFFFFFFFFFFFFFFFFFFFFFFFFFFF AND DUP4 PUSH20 0xFFFFFFFFFFFFFFFFFFFFFFFFFFFFFFFFFFFFFFFF AND EQ ISZERO PUSH2 0xA0C JUMPI PUSH1 0x40 MLOAD PUSH32 0xDC768A8E00000000000000000000000000000000000000000000000000000000 DUP2 MSTORE PUSH1 0x4 ADD PUSH1 0x40 MLOAD DUP1 SWAP2 SUB SWAP1 REVERT JUMPDEST PUSH1 0xD PUSH1 0x0 DUP4 DUP2 MSTORE PUSH1 0x20 ADD SWAP1 DUP2 MSTORE PUSH1 0x20 ADD PUSH1 0x0 KECCAK256 PUSH1 0x0 DUP5 PUSH20 0xFFFFFFFFFFFFFFFFFFFFFFFFFFFFFFFFFFFFFFFF AND PUSH20 0xFFFFFFFFFFFFFFFFFFFFFFFFFFFFFFFFFFFFFFFF AND DUP2 MSTORE PUSH1 0x20 ADD SWAP1 DUP2 MSTORE PUSH1 0x20 ADD PUSH1 0x0 KECCAK256 SLOAD SWAP1 POP SWAP3 SWAP2 POP POP JUMP JUMPDEST PUSH1 0x0 PUSH32 0x1FFC9A700000000000000000000000000000000000000000000000000000000 PUSH28 0xFFFFFFFFFFFFFFFFFFFFFFFFFFFFFFFFFFFFFFFFFFFFFFFFFFFFFFFF NOT AND DUP3 PUSH28 0xFFFFFFFFFFFFFFFFFFFFFFFFFFFFFFFFFFFFFFFFFFFFFFFFFFFFFFFF NOT AND EQ SWAP1 POP SWAP2 SWAP1 POP JUMP JUMPDEST PUSH1 0x0 PUSH20 0xDEF1FAC7BF08F173D286BBBDCBEEADE695129840 PUSH20 0xFFFFFFFFFFFFFFFFFFFFFFFFFFFFFFFFFFFFFFFF AND PUSH4 0x6FB1A07 DUP4 PUSH1 0x40 MLOAD DUP3 PUSH4 0xFFFFFFFF AND PUSH1 0xE0 SHL DUP2 MSTORE PUSH1 0x4 ADD PUSH2 0xB1E SWAP2 SWAP1 PUSH2 0x729A JUMP JUMPDEST PUSH1 0x20 PUSH1 0x40 MLOAD DUP1 DUP4 SUB DUP2 DUP7 GAS STATICCALL ISZERO DUP1 ISZERO PUSH2 0xB3B JUMPI RETURNDATASIZE PUSH1 0x0 DUP1 RETURNDATACOPY RETURNDATASIZE PUSH1 0x0 REVERT JUMPDEST POP POP POP POP PUSH1 0x40 MLOAD RETURNDATASIZE PUSH1 0x1F NOT PUSH1 0x1F DUP3 ADD AND DUP3 ADD DUP1 PUSH1 0x40 MSTORE POP DUP2 ADD SWAP1 PUSH2 0xB5F SWAP2 SWAP1 PUSH2 0x8143 JUMP JUMPDEST SWAP1 POP SWAP2 SWAP1 POP JUMP JUMPDEST PUSH1 0x60 PUSH1 0x11 DUP1 SLOAD PUSH2 0xB75 SWAP1 PUSH2 0x819F JUMP JUMPDEST DUP1 PUSH1 0x1F ADD PUSH1 0x20 DUP1 SWAP2 DIV MUL PUSH1 0x20 ADD PUSH1 0x40 MLOAD SWAP1 DUP2 ADD PUSH1 0x40 MSTORE DUP1 SWAP3 SWAP2 SWAP1 DUP2 DUP2 MSTORE PUSH1 0x20 ADD DUP3 DUP1 SLOAD PUSH2 0xBA1 SWAP1 PUSH2 0x819F JUMP JUMPDEST DUP1 ISZERO PUSH2 0xBEE JUMPI DUP1 PUSH1 0x1F LT PUSH2 0xBC3 JUMPI PUSH2 0x100 DUP1 DUP4 SLOAD DIV MUL DUP4 MSTORE SWAP2 PUSH1 0x20 ADD SWAP2 PUSH2 0xBEE JUMP JUMPDEST DUP3 ADD SWAP2 SWAP1 PUSH1 0x0 MSTORE PUSH1 0x20 PUSH1 0x0 KECCAK256 SWAP1 JUMPDEST DUP2 SLOAD DUP2 MSTORE SWAP1 PUSH1 0x1 ADD SWAP1 PUSH1 0x20 ADD DUP1 DUP4 GT PUSH2 0xBD1 JUMPI DUP3 SWAP1 SUB PUSH1 0x1F AND DUP3 ADD SWAP2 JUMPDEST POP POP POP POP POP SWAP1 POP SWAP1 JUMP JUMPDEST CALLER PUSH20 0xFFFFFFFFFFFFFFFFFFFFFFFFFFFFFFFFFFFFFFFF AND PUSH2 0xC17 PUSH2 0x21C5 JUMP JUMPDEST PUSH20 0xFFFFFFFFFFFFFFFFFFFFFFFFFFFFFFFFFFFFFFFF AND EQ PUSH2 0xC64 JUMPI PUSH1 0x40 MLOAD PUSH32 0xEBF9845900000000000000000000000000000000000000000000000000000000 DUP2 MSTORE PUSH1 0x4 ADD PUSH1 0x40 MLOAD DUP1 SWAP2 SUB SWAP1 REVERT JUMPDEST DUP1 PUSH1 0x40 ADD CALLDATALOAD PUSH1 0x0 EQ DUP1 PUSH2 0xC7E JUMPI POP DUP1 PUSH1 0x60 ADD CALLDATALOAD DUP2 PUSH1 0x40 ADD CALLDATALOAD GT JUMPDEST DUP1 PUSH2 0xC8E JUMPI POP PUSH2 0x1F4 DUP2 PUSH1 0x60 ADD CALLDATALOAD GT JUMPDEST ISZERO PUSH2 0xCC5 JUMPI PUSH1 0x40 MLOAD PUSH32 0xE8404B1A00000000000000000000000000000000000000000000000000000000 DUP2 MSTORE PUSH1 0x4 ADD PUSH1 0x40 MLOAD DUP1 SWAP2 SUB SWAP1 REVERT JUMPDEST DUP1 PUSH1 0xA0 ADD CALLDATALOAD DUP2 PUSH1 0x80 ADD CALLDATALOAD GT ISZERO PUSH2 0xD07 JUMPI PUSH1 0x40 MLOAD PUSH32 0xEBC2E01600000000000000000000000000000000000000000000000000000000 DUP2 MSTORE PUSH1 0x4 ADD PUSH1 0x40 MLOAD DUP1 SWAP2 SUB SWAP1 REVERT JUMPDEST PUSH1 0x64 PUSH1 0x2 DUP3 PUSH1 0x20 ADD CALLDATALOAD PUSH2 0xD1A SWAP2 SWAP1 PUSH2 0x8200 JUMP JUMPDEST LT PUSH2 0xD51 JUMPI PUSH1 0x40 MLOAD PUSH32 0x28AF878600000000000000000000000000000000000000000000000000000000 DUP2 MSTORE PUSH1 0x4 ADD PUSH1 0x40 MLOAD DUP1 SWAP2 SUB SWAP1 REVERT JUMPDEST DUP1 PUSH1 0x7 DUP2 DUP2 PUSH2 0xD60 SWAP2 SWAP1 PUSH2 0x84A1 JUMP JUMPDEST SWAP1 POP POP POP JUMP JUMPDEST PUSH1 0x60 PUSH1 0x13 DUP3 PUSH1 0x40 MLOAD PUSH1 0x20 ADD PUSH2 0xD7C SWAP3 SWAP2 SWAP1 PUSH2 0x85BB JUMP JUMPDEST PUSH1 0x40 MLOAD PUSH1 0x20 DUP2 DUP4 SUB SUB DUP2 MSTORE SWAP1 PUSH1 0x40 MSTORE SWAP1 POP SWAP2 SWAP1 POP JUMP JUMPDEST PUSH1 0x0 DUP1 PUSH1 0x0 JUMPDEST PUSH1 0x0 PUSH1 0x10 PUSH1 0x0 DUP5 PUSH2 0xDA8 SWAP1 PUSH2 0x85EE JUMP JUMPDEST SWAP5 POP DUP5 DUP2 MSTORE PUSH1 0x20 ADD SWAP1 DUP2 MSTORE PUSH1 0x20 ADD PUSH1 0x0 KECCAK256 SLOAD GT ISZERO PUSH2 0xDE6 JUMPI PUSH1 0x10 PUSH1 0x0 DUP4 DUP2 MSTORE PUSH1 0x20 ADD SWAP1 DUP2 MSTORE PUSH1 0x20 ADD PUSH1 0x0 KECCAK256 SLOAD DUP2 PUSH2 0xDDF SWAP2 SWAP1 PUSH2 0x8637 JUMP JUMPDEST SWAP1 POP PUSH2 0xD98 JUMP JUMPDEST DUP1 SWAP3 POP POP POP SWAP1 JUMP JUMPDEST PUSH1 0x0 PUSH2 0xDFA PUSH1 0x3 PUSH2 0xACF JUMP JUMPDEST SWAP1 POP DUP1 PUSH20 0xFFFFFFFFFFFFFFFFFFFFFFFFFFFFFFFFFFFFFFFF AND PUSH4 0xEEF84BA1 PUSH1 0x40 MLOAD DUP2 PUSH4 0xFFFFFFFF AND PUSH1 0xE0 SHL DUP2 MSTORE PUSH1 0x4 ADD PUSH1 0x0 PUSH1 0x40 MLOAD DUP1 DUP4 SUB DUP2 PUSH1 0x0 DUP8 DUP1 EXTCODESIZE ISZERO DUP1 ISZERO PUSH2 0xE44 JUMPI PUSH1 0x0 DUP1 REVERT JUMPDEST POP GAS CALL ISZERO DUP1 ISZERO PUSH2 0xE58 JUMPI RETURNDATASIZE PUSH1 0x0 DUP1 RETURNDATACOPY RETURNDATASIZE PUSH1 0x0 REVERT JUMPDEST POP POP POP POP CALLER PUSH20 0xFFFFFFFFFFFFFFFFFFFFFFFFFFFFFFFFFFFFFFFF AND DUP10 PUSH20 0xFFFFFFFFFFFFFFFFFFFFFFFFFFFFFFFFFFFFFFFF AND EQ ISZERO DUP1 ISZERO PUSH2 0xE9F JUMPI POP PUSH2 0xE9D DUP10 CALLER PUSH2 0x340C JUMP JUMPDEST ISZERO JUMPDEST ISZERO PUSH2 0xED6 JUMPI PUSH1 0x40 MLOAD PUSH32 0x6F34AAA800000000000000000000000000000000000000000000000000000000 DUP2 MSTORE PUSH1 0x4 ADD PUSH1 0x40 MLOAD DUP1 SWAP2 SUB SWAP1 REVERT JUMPDEST PUSH2 0xEE6 DUP10 DUP10 DUP10 DUP10 DUP10 DUP10 DUP10 DUP10 PUSH2 0x3D26 JUMP JUMPDEST POP POP POP POP POP POP POP POP POP JUMP JUMPDEST PUSH1 0x0 PUSH1 0x12 SWAP1 POP SWAP1 JUMP JUMPDEST PUSH1 0x60 PUSH1 0x0 DUP4 DUP4 SWAP1 POP PUSH8 0xFFFFFFFFFFFFFFFF DUP2 GT ISZERO PUSH2 0xF1B JUMPI PUSH2 0xF1A PUSH2 0x7946 JUMP JUMPDEST JUMPDEST PUSH1 0x40 MLOAD SWAP1 DUP1 DUP3 MSTORE DUP1 PUSH1 0x20 MUL PUSH1 0x20 ADD DUP3 ADD PUSH1 0x40 MSTORE DUP1 ISZERO PUSH2 0xF54 JUMPI DUP2 PUSH1 0x20 ADD JUMPDEST PUSH2 0xF41 PUSH2 0x6EFD JUMP JUMPDEST DUP2 MSTORE PUSH1 0x20 ADD SWAP1 PUSH1 0x1 SWAP1 SUB SWAP1 DUP2 PUSH2 0xF39 JUMPI SWAP1 POP JUMPDEST POP SWAP1 POP PUSH1 0x0 JUMPDEST DUP5 DUP5 SWAP1 POP DUP2 LT ISZERO PUSH2 0x1182 JUMPI PUSH1 0x0 PUSH1 0x1 PUSH1 0x0 DUP8 DUP8 DUP6 DUP2 DUP2 LT PUSH2 0xF7E JUMPI PUSH2 0xF7D PUSH2 0x868D JUMP JUMPDEST JUMPDEST SWAP1 POP PUSH1 0x20 MUL ADD PUSH1 0x20 DUP2 ADD SWAP1 PUSH2 0xF93 SWAP2 SWAP1 PUSH2 0x7BA3 JUMP JUMPDEST PUSH20 0xFFFFFFFFFFFFFFFFFFFFFFFFFFFFFFFFFFFFFFFF AND PUSH20 0xFFFFFFFFFFFFFFFFFFFFFFFFFFFFFFFFFFFFFFFF AND DUP2 MSTORE PUSH1 0x20 ADD SWAP1 DUP2 MSTORE PUSH1 0x20 ADD PUSH1 0x0 KECCAK256 SLOAD DUP2 SLOAD DUP2 LT PUSH2 0xFDF JUMPI PUSH2 0xFDE PUSH2 0x868D JUMP JUMPDEST JUMPDEST SWAP1 PUSH1 0x0 MSTORE PUSH1 0x20 PUSH1 0x0 KECCAK256 SWAP1 PUSH1 0x4 MUL ADD PUSH1 0x40 MLOAD DUP1 PUSH1 0xA0 ADD PUSH1 0x40 MSTORE SWAP1 DUP2 PUSH1 0x0 DUP3 ADD PUSH1 0x8 DUP1 PUSH1 0x20 MUL PUSH1 0x40 MLOAD SWAP1 DUP2 ADD PUSH1 0x40 MSTORE DUP1 SWAP3 SWAP2 SWAP1 DUP3 PUSH1 0x8 DUP1 ISZERO PUSH2 0x1060 JUMPI PUSH1 0x20 MUL DUP3 ADD SWAP2 PUSH1 0x0 SWAP1 JUMPDEST DUP3 DUP3 SWAP1 SLOAD SWAP1 PUSH2 0x100 EXP SWAP1 DIV PUSH4 0xFFFFFFFF AND PUSH4 0xFFFFFFFF AND DUP2 MSTORE PUSH1 0x20 ADD SWAP1 PUSH1 0x4 ADD SWAP1 PUSH1 0x20 DUP3 PUSH1 0x3 ADD DIV SWAP3 DUP4 ADD SWAP3 PUSH1 0x1 SUB DUP3 MUL SWAP2 POP DUP1 DUP5 GT PUSH2 0x1023 JUMPI SWAP1 POP JUMPDEST POP POP POP POP POP DUP2 MSTORE PUSH1 0x20 ADD PUSH1 0x1 DUP3 ADD PUSH1 0x0 SWAP1 SLOAD SWAP1 PUSH2 0x100 EXP SWAP1 DIV PUSH16 0xFFFFFFFFFFFFFFFFFFFFFFFFFFFFFFFF AND PUSH16 0xFFFFFFFFFFFFFFFFFFFFFFFFFFFFFFFF AND PUSH16 0xFFFFFFFFFFFFFFFFFFFFFFFFFFFFFFFF AND DUP2 MSTORE PUSH1 0x20 ADD PUSH1 0x1 DUP3 ADD PUSH1 0x10 SWAP1 SLOAD SWAP1 PUSH2 0x100 EXP SWAP1 DIV PUSH16 0xFFFFFFFFFFFFFFFFFFFFFFFFFFFFFFFF AND PUSH16 0xFFFFFFFFFFFFFFFFFFFFFFFFFFFFFFFF AND PUSH16 0xFFFFFFFFFFFFFFFFFFFFFFFFFFFFFFFF AND DUP2 MSTORE PUSH1 0x20 ADD PUSH1 0x2 DUP3 ADD PUSH1 0x0 SWAP1 SLOAD SWAP1 PUSH2 0x100 EXP SWAP1 DIV PUSH16 0xFFFFFFFFFFFFFFFFFFFFFFFFFFFFFFFF AND PUSH16 0xFFFFFFFFFFFFFFFFFFFFFFFFFFFFFFFF AND PUSH16 0xFFFFFFFFFFFFFFFFFFFFFFFFFFFFFFFF AND DUP2 MSTORE PUSH1 0x20 ADD PUSH1 0x3 DUP3 ADD SLOAD DUP2 MSTORE POP POP DUP3 DUP3 DUP2 MLOAD DUP2 LT PUSH2 0x1164 JUMPI PUSH2 0x1163 PUSH2 0x868D JUMP JUMPDEST JUMPDEST PUSH1 0x20 MUL PUSH1 0x20 ADD ADD DUP2 SWAP1 MSTORE POP DUP1 DUP1 PUSH2 0x117A SWAP1 PUSH2 0x85EE JUMP JUMPDEST SWAP2 POP POP PUSH2 0xF5A JUMP JUMPDEST POP DUP1 SWAP2 POP POP SWAP3 SWAP2 POP POP JUMP JUMPDEST CALLER PUSH20 0xFFFFFFFFFFFFFFFFFFFFFFFFFFFFFFFFFFFFFFFF AND PUSH2 0x11AC PUSH2 0x21C5 JUMP JUMPDEST PUSH20 0xFFFFFFFFFFFFFFFFFFFFFFFFFFFFFFFFFFFFFFFF AND EQ PUSH2 0x11F9 JUMPI PUSH1 0x40 MLOAD PUSH32 0xEBF9845900000000000000000000000000000000000000000000000000000000 DUP2 MSTORE PUSH1 0x4 ADD PUSH1 0x40 MLOAD DUP1 SWAP2 SUB SWAP1 REVERT JUMPDEST DUP2 PUSH1 0x11 SWAP1 DUP1 MLOAD SWAP1 PUSH1 0x20 ADD SWAP1 PUSH2 0x120F SWAP3 SWAP2 SWAP1 PUSH2 0x6F68 JUMP JUMPDEST POP DUP1 PUSH1 0x12 SWAP1 DUP1 MLOAD SWAP1 PUSH1 0x20 ADD SWAP1 PUSH2 0x1226 SWAP3 SWAP2 SWAP1 PUSH2 0x6F68 JUMP JUMPDEST POP POP POP JUMP JUMPDEST PUSH1 0x0 DUP5 PUSH1 0x0 PUSH1 0x1 PUSH1 0x0 DUP4 PUSH20 0xFFFFFFFFFFFFFFFFFFFFFFFFFFFFFFFFFFFFFFFF AND PUSH20 0xFFFFFFFFFFFFFFFFFFFFFFFFFFFFFFFFFFFFFFFF AND DUP2 MSTORE PUSH1 0x20 ADD SWAP1 DUP2 MSTORE PUSH1 0x20 ADD PUSH1 0x0 KECCAK256 SLOAD EQ DUP1 PUSH2 0x12C9 JUMPI POP PUSH1 0x4 PUSH1 0x0 SWAP1 SLOAD SWAP1 PUSH2 0x100 EXP SWAP1 DIV PUSH20 0xFFFFFFFFFFFFFFFFFFFFFFFFFFFFFFFFFFFFFFFF AND PUSH20 0xFFFFFFFFFFFFFFFFFFFFFFFFFFFFFFFFFFFFFFFF AND DUP2 PUSH20 0xFFFFFFFFFFFFFFFFFFFFFFFFFFFFFFFFFFFFFFFF AND EQ JUMPDEST ISZERO PUSH2 0x1309 JUMPI PUSH1 0x40 MLOAD PUSH32 0x8C379A000000000000000000000000000000000000000000000000000000000 DUP2 MSTORE PUSH1 0x4 ADD PUSH2 0x1300 SWAP1 PUSH2 0x8708 JUMP JUMPDEST PUSH1 0x40 MLOAD DUP1 SWAP2 SUB SWAP1 REVERT JUMPDEST DUP4 DUP1 TIMESTAMP GT ISZERO PUSH2 0x134D JUMPI PUSH1 0x40 MLOAD PUSH32 0x8C379A000000000000000000000000000000000000000000000000000000000 DUP2 MSTORE PUSH1 0x4 ADD PUSH2 0x1344 SWAP1 PUSH2 0x8774 JUMP JUMPDEST PUSH1 0x40 MLOAD DUP1 SWAP2 SUB SWAP1 REVERT JUMPDEST PUSH1 0x0 PUSH1 0x1 PUSH1 0x0 DUP10 PUSH20 0xFFFFFFFFFFFFFFFFFFFFFFFFFFFFFFFFFFFFFFFF AND PUSH20 0xFFFFFFFFFFFFFFFFFFFFFFFFFFFFFFFFFFFFFFFF AND DUP2 MSTORE PUSH1 0x20 ADD SWAP1 DUP2 MSTORE PUSH1 0x20 ADD PUSH1 0x0 KECCAK256 SLOAD SWAP1 POP PUSH1 0x0 DUP1 DUP3 DUP2 SLOAD DUP2 LT PUSH2 0x13A6 JUMPI PUSH2 0x13A5 PUSH2 0x868D JUMP JUMPDEST JUMPDEST SWAP1 PUSH1 0x0 MSTORE PUSH1 0x20 PUSH1 0x0 KECCAK256 SWAP1 PUSH1 0x4 MUL ADD SWAP1 POP PUSH2 0x13C1 DUP10 CALLER DUP11 PUSH2 0x40C7 JUMP JUMPDEST PUSH1 0x0 PUSH2 0x13CC DUP11 PUSH2 0x422E JUMP JUMPDEST SWAP1 POP DUP2 PUSH1 0x1 ADD PUSH1 0x0 SWAP1 SLOAD SWAP1 PUSH2 0x100 EXP SWAP1 DIV PUSH16 0xFFFFFFFFFFFFFFFFFFFFFFFFFFFFFFFF AND PUSH16 0xFFFFFFFFFFFFFFFFFFFFFFFFFFFFFFFF AND DUP2 PUSH2 0x140C SWAP2 SWAP1 PUSH2 0x8794 JUMP JUMPDEST SWAP9 POP PUSH1 0x1 DUP10 GT PUSH2 0x1451 JUMPI PUSH1 0x40 MLOAD PUSH32 0x8C379A000000000000000000000000000000000000000000000000000000000 DUP2 MSTORE PUSH1 0x4 ADD PUSH2 0x1448 SWAP1 PUSH2 0x8814 JUMP JUMPDEST PUSH1 0x40 MLOAD DUP1 SWAP2 SUB SWAP1 REVERT JUMPDEST PUSH1 0x0 PUSH2 0x147E PUSH1 0x4 PUSH1 0x0 SWAP1 SLOAD SWAP1 PUSH2 0x100 EXP SWAP1 DIV PUSH20 0xFFFFFFFFFFFFFFFFFFFFFFFFFFFFFFFFFFFFFFFF AND PUSH2 0x422E JUMP JUMPDEST SWAP1 POP PUSH1 0x0 PUSH1 0x2 SLOAD DUP3 PUSH2 0x1490 SWAP2 SWAP1 PUSH2 0x8794 JUMP JUMPDEST SWAP1 POP PUSH1 0x0 PUSH2 0x150C DUP6 PUSH1 0x1 ADD PUSH1 0x10 SWAP1 SLOAD SWAP1 PUSH2 0x100 EXP SWAP1 DIV PUSH16 0xFFFFFFFFFFFFFFFFFFFFFFFFFFFFFFFF AND PUSH16 0xFFFFFFFFFFFFFFFFFFFFFFFFFFFFFFFF AND DUP7 PUSH1 0x1 ADD PUSH1 0x0 SWAP1 SLOAD SWAP1 PUSH2 0x100 EXP SWAP1 DIV PUSH16 0xFFFFFFFFFFFFFFFFFFFFFFFFFFFFFFFF AND PUSH16 0xFFFFFFFFFFFFFFFFFFFFFFFFFFFFFFFF AND PUSH2 0x1507 SWAP2 SWAP1 PUSH2 0x8200 JUMP JUMPDEST PUSH2 0x4319 JUMP JUMPDEST SWAP1 POP PUSH1 0x0 PUSH2 0x1560 DUP7 PUSH1 0x2 ADD PUSH1 0x0 SWAP1 SLOAD SWAP1 PUSH2 0x100 EXP SWAP1 DIV PUSH16 0xFFFFFFFFFFFFFFFFFFFFFFFFFFFFFFFF AND PUSH16 0xFFFFFFFFFFFFFFFFFFFFFFFFFFFFFFFF AND DUP4 PUSH1 0x10 PUSH1 0x0 DUP12 DUP2 MSTORE PUSH1 0x20 ADD SWAP1 DUP2 MSTORE PUSH1 0x20 ADD PUSH1 0x0 KECCAK256 SLOAD PUSH2 0x4393 JUMP JUMPDEST SWAP1 POP PUSH2 0x15A2 PUSH1 0x7 PUSH1 0x0 ADD PUSH1 0x0 SWAP1 SLOAD SWAP1 PUSH2 0x100 EXP SWAP1 DIV PUSH20 0xFFFFFFFFFFFFFFFFFFFFFFFFFFFFFFFFFFFFFFFF AND DUP9 DUP4 PUSH1 0x40 MLOAD DUP1 PUSH1 0x20 ADD PUSH1 0x40 MSTORE DUP1 PUSH1 0x0 DUP2 MSTORE POP PUSH2 0x4429 JUMP JUMPDEST POP POP PUSH1 0x0 DUP5 PUSH1 0x1 ADD PUSH1 0x0 SWAP1 SLOAD SWAP1 PUSH2 0x100 EXP SWAP1 DIV PUSH16 0xFFFFFFFFFFFFFFFFFFFFFFFFFFFFFFFF AND PUSH16 0xFFFFFFFFFFFFFFFFFFFFFFFFFFFFFFFF AND PUSH1 0x10 PUSH1 0x0 DUP9 DUP2 MSTORE PUSH1 0x20 ADD SWAP1 DUP2 MSTORE PUSH1 0x20 ADD PUSH1 0x0 KECCAK256 SLOAD DUP14 PUSH2 0x15F8 SWAP2 SWAP1 PUSH2 0x8200 JUMP JUMPDEST PUSH2 0x1602 SWAP2 SWAP1 PUSH2 0x8863 JUMP JUMPDEST SWAP1 POP PUSH2 0x161F DUP11 DUP8 DUP4 PUSH1 0x40 MLOAD DUP1 PUSH1 0x20 ADD PUSH1 0x40 MSTORE DUP1 PUSH1 0x0 DUP2 MSTORE POP PUSH2 0x4429 JUMP JUMPDEST PUSH1 0x0 DUP6 PUSH1 0x1 ADD PUSH1 0x0 SWAP1 SLOAD SWAP1 PUSH2 0x100 EXP SWAP1 DIV PUSH16 0xFFFFFFFFFFFFFFFFFFFFFFFFFFFFFFFF AND PUSH16 0xFFFFFFFFFFFFFFFFFFFFFFFFFFFFFFFF AND DUP7 PUSH1 0x1 ADD PUSH1 0x10 SWAP1 SLOAD SWAP1 PUSH2 0x100 EXP SWAP1 DIV PUSH16 0xFFFFFFFFFFFFFFFFFFFFFFFFFFFFFFFF AND PUSH16 0xFFFFFFFFFFFFFFFFFFFFFFFFFFFFFFFF AND DUP15 PUSH2 0x1692 SWAP2 SWAP1 PUSH2 0x8200 JUMP JUMPDEST PUSH2 0x169C SWAP2 SWAP1 PUSH2 0x8863 JUMP JUMPDEST SWAP1 POP PUSH1 0x1 DUP2 GT PUSH2 0x16D8 JUMPI PUSH1 0x40 MLOAD PUSH32 0x206F960000000000000000000000000000000000000000000000000000000000 DUP2 MSTORE PUSH1 0x4 ADD PUSH1 0x40 MLOAD DUP1 SWAP2 SUB SWAP1 REVERT JUMPDEST PUSH1 0x4 PUSH1 0x0 SWAP1 SLOAD SWAP1 PUSH2 0x100 EXP SWAP1 DIV PUSH20 0xFFFFFFFFFFFFFFFFFFFFFFFFFFFFFFFFFFFFFFFF AND PUSH20 0xFFFFFFFFFFFFFFFFFFFFFFFFFFFFFFFFFFFFFFFF AND PUSH4 0xBB9FF5D ADDRESS DUP4 PUSH1 0x40 MLOAD DUP4 PUSH4 0xFFFFFFFF AND PUSH1 0xE0 SHL DUP2 MSTORE PUSH1 0x4 ADD PUSH2 0x1735 SWAP3 SWAP2 SWAP1 PUSH2 0x8894 JUMP JUMPDEST PUSH1 0x0 PUSH1 0x40 MLOAD DUP1 DUP4 SUB DUP2 PUSH1 0x0 DUP8 DUP1 EXTCODESIZE ISZERO DUP1 ISZERO PUSH2 0x174F JUMPI PUSH1 0x0 DUP1 REVERT JUMPDEST POP GAS CALL ISZERO DUP1 ISZERO PUSH2 0x1763 JUMPI RETURNDATASIZE PUSH1 0x0 DUP1 RETURNDATACOPY RETURNDATASIZE PUSH1 0x0 REVERT JUMPDEST POP POP POP POP DUP1 DUP4 PUSH1 0x2 SLOAD PUSH2 0x1776 SWAP2 SWAP1 PUSH2 0x8637 JUMP JUMPDEST PUSH2 0x1780 SWAP2 SWAP1 PUSH2 0x8637 JUMP JUMPDEST PUSH1 0x2 DUP2 SWAP1 SSTORE POP DUP13 DUP7 PUSH1 0x1 ADD PUSH1 0x0 SWAP1 SLOAD SWAP1 PUSH2 0x100 EXP SWAP1 DIV PUSH16 0xFFFFFFFFFFFFFFFFFFFFFFFFFFFFFFFF AND PUSH2 0x17B2 SWAP2 SWAP1 PUSH2 0x88BD JUMP JUMPDEST DUP7 PUSH1 0x1 ADD PUSH1 0x0 PUSH2 0x100 EXP DUP2 SLOAD DUP2 PUSH16 0xFFFFFFFFFFFFFFFFFFFFFFFFFFFFFFFF MUL NOT AND SWAP1 DUP4 PUSH16 0xFFFFFFFFFFFFFFFFFFFFFFFFFFFFFFFF AND MUL OR SWAP1 SSTORE POP DUP1 DUP4 PUSH2 0x17F8 SWAP2 SWAP1 PUSH2 0x8637 JUMP JUMPDEST DUP7 PUSH1 0x1 ADD PUSH1 0x10 SWAP1 SLOAD SWAP1 PUSH2 0x100 EXP SWAP1 DIV PUSH16 0xFFFFFFFFFFFFFFFFFFFFFFFFFFFFFFFF AND PUSH2 0x1823 SWAP2 SWAP1 PUSH2 0x88BD JUMP JUMPDEST DUP7 PUSH1 0x1 ADD PUSH1 0x10 PUSH2 0x100 EXP DUP2 SLOAD DUP2 PUSH16 0xFFFFFFFFFFFFFFFFFFFFFFFFFFFFFFFF MUL NOT AND SWAP1 DUP4 PUSH16 0xFFFFFFFFFFFFFFFFFFFFFFFFFFFFFFFF AND MUL OR SWAP1 SSTORE POP PUSH2 0x18D5 DUP7 PUSH1 0x1 ADD PUSH1 0x10 SWAP1 SLOAD SWAP1 PUSH2 0x100 EXP SWAP1 DIV PUSH16 0xFFFFFFFFFFFFFFFFFFFFFFFFFFFFFFFF AND PUSH16 0xFFFFFFFFFFFFFFFFFFFFFFFFFFFFFFFF AND DUP8 PUSH1 0x1 ADD PUSH1 0x0 SWAP1 SLOAD SWAP1 PUSH2 0x100 EXP SWAP1 DIV PUSH16 0xFFFFFFFFFFFFFFFFFFFFFFFFFFFFFFFF AND PUSH16 0xFFFFFFFFFFFFFFFFFFFFFFFFFFFFFFFF AND PUSH2 0x18D0 SWAP2 SWAP1 PUSH2 0x8200 JUMP JUMPDEST PUSH2 0x4319 JUMP JUMPDEST DUP7 PUSH1 0x2 ADD PUSH1 0x0 PUSH2 0x100 EXP DUP2 SLOAD DUP2 PUSH16 0xFFFFFFFFFFFFFFFFFFFFFFFFFFFFFFFF MUL NOT AND SWAP1 DUP4 PUSH16 0xFFFFFFFFFFFFFFFFFFFFFFFFFFFFFFFF AND MUL OR SWAP1 SSTORE POP PUSH32 0x64B83944E79C3CE8D4C297411DE637C3E102D064677AAC0C163976EBDCD6F50E DUP15 DUP15 DUP4 DUP6 PUSH1 0x40 MLOAD PUSH2 0x1944 SWAP5 SWAP4 SWAP3 SWAP2 SWAP1 PUSH2 0x8903 JUMP JUMPDEST PUSH1 0x40 MLOAD DUP1 SWAP2 SUB SWAP1 LOG1 PUSH32 0x51AB1232A73B82B6B0ACB0FA91B834CF6E258A1858C4E23C72CE97241C71AA0D DUP15 DUP8 PUSH1 0x1 ADD PUSH1 0x0 SWAP1 SLOAD SWAP1 PUSH2 0x100 EXP SWAP1 DIV PUSH16 0xFFFFFFFFFFFFFFFFFFFFFFFFFFFFFFFF AND DUP9 PUSH1 0x1 ADD PUSH1 0x10 SWAP1 SLOAD SWAP1 PUSH2 0x100 EXP SWAP1 DIV PUSH16 0xFFFFFFFFFFFFFFFFFFFFFFFFFFFFFFFF AND DUP10 PUSH1 0x3 ADD SLOAD PUSH1 0x40 MLOAD PUSH2 0x19C5 SWAP5 SWAP4 SWAP3 SWAP2 SWAP1 PUSH2 0x8979 JUMP JUMPDEST PUSH1 0x40 MLOAD DUP1 SWAP2 SUB SWAP1 LOG1 POP DUP1 SWAP9 POP POP POP POP POP POP POP POP POP SWAP5 SWAP4 POP POP POP POP JUMP JUMPDEST PUSH1 0x0 DUP1 PUSH1 0x4 PUSH1 0x0 SWAP1 SLOAD SWAP1 PUSH2 0x100 EXP SWAP1 DIV PUSH20 0xFFFFFFFFFFFFFFFFFFFFFFFFFFFFFFFFFFFFFFFF AND PUSH20 0xFFFFFFFFFFFFFFFFFFFFFFFFFFFFFFFFFFFFFFFF AND DUP6 PUSH20 0xFFFFFFFFFFFFFFFFFFFFFFFFFFFFFFFFFFFFFFFF AND EQ ISZERO DUP1 ISZERO PUSH2 0x1A8F JUMPI POP PUSH1 0x4 PUSH1 0x0 SWAP1 SLOAD SWAP1 PUSH2 0x100 EXP SWAP1 DIV PUSH20 0xFFFFFFFFFFFFFFFFFFFFFFFFFFFFFFFFFFFFFFFF AND PUSH20 0xFFFFFFFFFFFFFFFFFFFFFFFFFFFFFFFFFFFFFFFF AND DUP5 PUSH20 0xFFFFFFFFFFFFFFFFFFFFFFFFFFFFFFFFFFFFFFFF AND EQ JUMPDEST ISZERO PUSH2 0x1AA9 JUMPI PUSH2 0x1A9E DUP6 DUP5 PUSH2 0x45C1 JUMP JUMPDEST SWAP1 POP DUP1 SWAP2 POP POP PUSH2 0x1B8E JUMP JUMPDEST PUSH1 0x4 PUSH1 0x0 SWAP1 SLOAD SWAP1 PUSH2 0x100 EXP SWAP1 DIV PUSH20 0xFFFFFFFFFFFFFFFFFFFFFFFFFFFFFFFFFFFFFFFF AND PUSH20 0xFFFFFFFFFFFFFFFFFFFFFFFFFFFFFFFFFFFFFFFF AND DUP6 PUSH20 0xFFFFFFFFFFFFFFFFFFFFFFFFFFFFFFFFFFFFFFFF AND EQ DUP1 ISZERO PUSH2 0x1B54 JUMPI POP PUSH1 0x4 PUSH1 0x0 SWAP1 SLOAD SWAP1 PUSH2 0x100 EXP SWAP1 DIV PUSH20 0xFFFFFFFFFFFFFFFFFFFFFFFFFFFFFFFFFFFFFFFF AND PUSH20 0xFFFFFFFFFFFFFFFFFFFFFFFFFFFFFFFFFFFFFFFF AND DUP5 PUSH20 0xFFFFFFFFFFFFFFFFFFFFFFFFFFFFFFFFFFFFFFFF AND EQ ISZERO JUMPDEST ISZERO PUSH2 0x1B6E JUMPI PUSH2 0x1B63 DUP5 DUP5 PUSH2 0x4785 JUMP JUMPDEST SWAP1 POP DUP1 SWAP2 POP POP PUSH2 0x1B8E JUMP JUMPDEST PUSH1 0x0 PUSH2 0x1B7A DUP7 DUP6 PUSH2 0x45C1 JUMP JUMPDEST SWAP1 POP PUSH2 0x1B86 DUP6 DUP3 PUSH2 0x4785 JUMP JUMPDEST SWAP2 POP DUP2 SWAP3 POP POP POP JUMPDEST SWAP4 SWAP3 POP POP POP JUMP JUMPDEST PUSH1 0x0 DUP1 PUSH1 0x0 PUSH1 0x1 PUSH1 0x0 DUP6 PUSH20 0xFFFFFFFFFFFFFFFFFFFFFFFFFFFFFFFFFFFFFFFF AND PUSH20 0xFFFFFFFFFFFFFFFFFFFFFFFFFFFFFFFFFFFFFFFF AND DUP2 MSTORE PUSH1 0x20 ADD SWAP1 DUP2 MSTORE PUSH1 0x20 ADD PUSH1 0x0 KECCAK256 SLOAD DUP2 SLOAD DUP2 LT PUSH2 0x1BEB JUMPI PUSH2 0x1BEA PUSH2 0x868D JUMP JUMPDEST JUMPDEST SWAP1 PUSH1 0x0 MSTORE PUSH1 0x20 PUSH1 0x0 KECCAK256 SWAP1 PUSH1 0x4 MUL ADD SWAP1 POP PUSH2 0x1C04 DUP2 PUSH2 0x4943 JUMP JUMPDEST SWAP2 POP POP SWAP2 SWAP1 POP JUMP JUMPDEST PUSH1 0x60 PUSH1 0x0 DUP4 DUP4 SWAP1 POP SWAP1 POP DUP1 DUP7 DUP7 SWAP1 POP EQ PUSH2 0x1C52 JUMPI PUSH1 0x40 MLOAD PUSH32 0x80DADC2700000000000000000000000000000000000000000000000000000000 DUP2 MSTORE PUSH1 0x4 ADD PUSH1 0x40 MLOAD DUP1 SWAP2 SUB SWAP1 REVERT JUMPDEST PUSH1 0x0 DUP7 DUP7 SWAP1 POP PUSH8 0xFFFFFFFFFFFFFFFF DUP2 GT ISZERO PUSH2 0x1C71 JUMPI PUSH2 0x1C70 PUSH2 0x7946 JUMP JUMPDEST JUMPDEST PUSH1 0x40 MLOAD SWAP1 DUP1 DUP3 MSTORE DUP1 PUSH1 0x20 MUL PUSH1 0x20 ADD DUP3 ADD PUSH1 0x40 MSTORE DUP1 ISZERO PUSH2 0x1C9F JUMPI DUP2 PUSH1 0x20 ADD PUSH1 0x20 DUP3 MUL DUP1 CALLDATASIZE DUP4 CALLDATACOPY DUP1 DUP3 ADD SWAP2 POP POP SWAP1 POP JUMPDEST POP SWAP1 POP PUSH1 0x0 JUMPDEST DUP3 DUP2 LT ISZERO PUSH2 0x1D27 JUMPI PUSH2 0x1CF7 DUP9 DUP9 DUP4 DUP2 DUP2 LT PUSH2 0x1CC3 JUMPI PUSH2 0x1CC2 PUSH2 0x868D JUMP JUMPDEST JUMPDEST SWAP1 POP PUSH1 0x20 MUL ADD PUSH1 0x20 DUP2 ADD SWAP1 PUSH2 0x1CD8 SWAP2 SWAP1 PUSH2 0x7BA3 JUMP JUMPDEST DUP8 DUP8 DUP5 DUP2 DUP2 LT PUSH2 0x1CEB JUMPI PUSH2 0x1CEA PUSH2 0x868D JUMP JUMPDEST JUMPDEST SWAP1 POP PUSH1 0x20 MUL ADD CALLDATALOAD PUSH2 0x9A4 JUMP JUMPDEST DUP3 DUP3 DUP2 MLOAD DUP2 LT PUSH2 0x1D0A JUMPI PUSH2 0x1D09 PUSH2 0x868D JUMP JUMPDEST JUMPDEST PUSH1 0x20 MUL PUSH1 0x20 ADD ADD DUP2 DUP2 MSTORE POP POP DUP1 PUSH2 0x1D20 SWAP1 PUSH2 0x85EE JUMP JUMPDEST SWAP1 POP PUSH2 0x1CA5 JUMP JUMPDEST POP DUP1 SWAP3 POP POP POP SWAP5 SWAP4 POP POP POP POP JUMP JUMPDEST PUSH1 0x0 DUP1 PUSH1 0x10 PUSH1 0x0 DUP5 DUP2 MSTORE PUSH1 0x20 ADD SWAP1 DUP2 MSTORE PUSH1 0x20 ADD PUSH1 0x0 KECCAK256 SLOAD GT SWAP1 POP SWAP2 SWAP1 POP JUMP JUMPDEST PUSH1 0x0 PUSH1 0x1 PUSH1 0x0 DUP4 PUSH20 0xFFFFFFFFFFFFFFFFFFFFFFFFFFFFFFFFFFFFFFFF AND PUSH20 0xFFFFFFFFFFFFFFFFFFFFFFFFFFFFFFFFFFFFFFFF AND DUP2 MSTORE PUSH1 0x20 ADD SWAP1 DUP2 MSTORE PUSH1 0x20 ADD PUSH1 0x0 KECCAK256 SLOAD SWAP1 POP SWAP2 SWAP1 POP JUMP JUMPDEST CALLER PUSH20 0xFFFFFFFFFFFFFFFFFFFFFFFFFFFFFFFFFFFFFFFF AND PUSH2 0x1DBC PUSH2 0x21C5 JUMP JUMPDEST PUSH20 0xFFFFFFFFFFFFFFFFFFFFFFFFFFFFFFFFFFFFFFFF AND EQ PUSH2 0x1E09 JUMPI PUSH1 0x40 MLOAD PUSH32 0xEBF9845900000000000000000000000000000000000000000000000000000000 DUP2 MSTORE PUSH1 0x4 ADD PUSH1 0x40 MLOAD DUP1 SWAP2 SUB SWAP1 REVERT JUMPDEST PUSH2 0x1E13 PUSH1 0x0 PUSH2 0x4B56 JUMP JUMPDEST JUMP JUMPDEST PUSH1 0x0 DUP1 PUSH1 0x1 PUSH1 0x0 DUP6 PUSH20 0xFFFFFFFFFFFFFFFFFFFFFFFFFFFFFFFFFFFFFFFF AND PUSH20 0xFFFFFFFFFFFFFFFFFFFFFFFFFFFFFFFFFFFFFFFF AND DUP2 MSTORE PUSH1 0x20 ADD SWAP1 DUP2 MSTORE PUSH1 0x20 ADD PUSH1 0x0 KECCAK256 SLOAD DUP2 SLOAD DUP2 LT PUSH2 0x1E69 JUMPI PUSH2 0x1E68 PUSH2 0x868D JUMP JUMPDEST JUMPDEST SWAP1 PUSH1 0x0 MSTORE PUSH1 0x20 PUSH1 0x0 KECCAK256 SWAP1 PUSH1 0x4 MUL ADD SWAP1 POP PUSH32 0xFFFFFFFFFFFFFFFFFFFFFFFFFFFFFFFFFFFFFFFFFFFFFFFFFFFFFFFFFFFFFFFF DUP2 PUSH1 0x3 ADD SLOAD LT ISZERO PUSH2 0x1F50 JUMPI DUP2 DUP2 PUSH1 0x3 ADD PUSH1 0x0 DUP3 DUP3 SLOAD PUSH2 0x1EB9 SWAP2 SWAP1 PUSH2 0x8637 JUMP JUMPDEST SWAP3 POP POP DUP2 SWAP1 SSTORE POP PUSH1 0x4 PUSH1 0x0 SWAP1 SLOAD SWAP1 PUSH2 0x100 EXP SWAP1 DIV PUSH20 0xFFFFFFFFFFFFFFFFFFFFFFFFFFFFFFFFFFFFFFFF AND PUSH20 0xFFFFFFFFFFFFFFFFFFFFFFFFFFFFFFFFFFFFFFFF AND PUSH4 0x18A8AD87 CALLER DUP5 PUSH1 0x40 MLOAD DUP4 PUSH4 0xFFFFFFFF AND PUSH1 0xE0 SHL DUP2 MSTORE PUSH1 0x4 ADD PUSH2 0x1F1D SWAP3 SWAP2 SWAP1 PUSH2 0x8894 JUMP JUMPDEST PUSH1 0x0 PUSH1 0x40 MLOAD DUP1 DUP4 SUB DUP2 PUSH1 0x0 DUP8 DUP1 EXTCODESIZE ISZERO DUP1 ISZERO PUSH2 0x1F37 JUMPI PUSH1 0x0 DUP1 REVERT JUMPDEST POP GAS CALL ISZERO DUP1 ISZERO PUSH2 0x1F4B JUMPI RETURNDATASIZE PUSH1 0x0 DUP1 RETURNDATACOPY RETURNDATASIZE PUSH1 0x0 REVERT JUMPDEST POP POP POP POP JUMPDEST PUSH32 0x51AB1232A73B82B6B0ACB0FA91B834CF6E258A1858C4E23C72CE97241C71AA0D DUP4 DUP3 PUSH1 0x1 ADD PUSH1 0x0 SWAP1 SLOAD SWAP1 PUSH2 0x100 EXP SWAP1 DIV PUSH16 0xFFFFFFFFFFFFFFFFFFFFFFFFFFFFFFFF AND DUP4 PUSH1 0x1 ADD PUSH1 0x10 SWAP1 SLOAD SWAP1 PUSH2 0x100 EXP SWAP1 DIV PUSH16 0xFFFFFFFFFFFFFFFFFFFFFFFFFFFFFFFF AND DUP5 PUSH1 0x3 ADD SLOAD PUSH1 0x40 MLOAD PUSH2 0x1FC9 SWAP5 SWAP4 SWAP3 SWAP2 SWAP1 PUSH2 0x8979 JUMP JUMPDEST PUSH1 0x40 MLOAD DUP1 SWAP2 SUB SWAP1 LOG1 POP POP POP JUMP JUMPDEST PUSH1 0x0 DUP5 PUSH1 0x0 PUSH1 0x1 PUSH1 0x0 DUP4 PUSH20 0xFFFFFFFFFFFFFFFFFFFFFFFFFFFFFFFFFFFFFFFF AND PUSH20 0xFFFFFFFFFFFFFFFFFFFFFFFFFFFFFFFFFFFFFFFF AND DUP2 MSTORE PUSH1 0x20 ADD SWAP1 DUP2 MSTORE PUSH1 0x20 ADD PUSH1 0x0 KECCAK256 SLOAD EQ DUP1 PUSH2 0x2074 JUMPI POP PUSH1 0x4 PUSH1 0x0 SWAP1 SLOAD SWAP1 PUSH2 0x100 EXP SWAP1 DIV PUSH20 0xFFFFFFFFFFFFFFFFFFFFFFFFFFFFFFFFFFFFFFFF AND PUSH20 0xFFFFFFFFFFFFFFFFFFFFFFFFFFFFFFFFFFFFFFFF AND DUP2 PUSH20 0xFFFFFFFFFFFFFFFFFFFFFFFFFFFFFFFFFFFFFFFF AND EQ JUMPDEST ISZERO PUSH2 0x20B4 JUMPI PUSH1 0x40 MLOAD PUSH32 0x8C379A000000000000000000000000000000000000000000000000000000000 DUP2 MSTORE PUSH1 0x4 ADD PUSH2 0x20AB SWAP1 PUSH2 0x8708 JUMP JUMPDEST PUSH1 0x40 MLOAD DUP1 SWAP2 SUB SWAP1 REVERT JUMPDEST DUP4 DUP1 TIMESTAMP GT ISZERO PUSH2 0x20F8 JUMPI PUSH1 0x40 MLOAD PUSH32 0x8C379A000000000000000000000000000000000000000000000000000000000 DUP2 MSTORE PUSH1 0x4 ADD PUSH2 0x20EF SWAP1 PUSH2 0x8774 JUMP JUMPDEST PUSH1 0x40 MLOAD DUP1 SWAP2 SUB SWAP1 REVERT JUMPDEST PUSH2 0x2103 DUP8 DUP8 DUP7 PUSH2 0x4C1C JUMP JUMPDEST SWAP3 POP POP POP SWAP5 SWAP4 POP POP POP POP JUMP JUMPDEST PUSH2 0x211D DUP5 DUP5 DUP5 PUSH1 0x0 DUP6 PUSH2 0x51EC JUMP JUMPDEST POP POP POP POP JUMP JUMPDEST PUSH2 0x212B PUSH2 0x6FEE JUMP JUMPDEST PUSH1 0x7 PUSH1 0x40 MLOAD DUP1 PUSH1 0xC0 ADD PUSH1 0x40 MSTORE SWAP1 DUP2 PUSH1 0x0 DUP3 ADD PUSH1 0x0 SWAP1 SLOAD SWAP1 PUSH2 0x100 EXP SWAP1 DIV PUSH20 0xFFFFFFFFFFFFFFFFFFFFFFFFFFFFFFFFFFFFFFFF AND PUSH20 0xFFFFFFFFFFFFFFFFFFFFFFFFFFFFFFFFFFFFFFFF AND PUSH20 0xFFFFFFFFFFFFFFFFFFFFFFFFFFFFFFFFFFFFFFFF AND DUP2 MSTORE PUSH1 0x20 ADD PUSH1 0x1 DUP3 ADD SLOAD DUP2 MSTORE PUSH1 0x20 ADD PUSH1 0x2 DUP3 ADD SLOAD DUP2 MSTORE PUSH1 0x20 ADD PUSH1 0x3 DUP3 ADD SLOAD DUP2 MSTORE PUSH1 0x20 ADD PUSH1 0x4 DUP3 ADD SLOAD DUP2 MSTORE PUSH1 0x20 ADD PUSH1 0x5 DUP3 ADD SLOAD DUP2 MSTORE POP POP SWAP1 POP SWAP1 JUMP JUMPDEST PUSH1 0x0 PUSH1 0x14 PUSH1 0x0 SWAP1 SLOAD SWAP1 PUSH2 0x100 EXP SWAP1 DIV PUSH20 0xFFFFFFFFFFFFFFFFFFFFFFFFFFFFFFFFFFFFFFFF AND SWAP1 POP SWAP1 JUMP JUMPDEST DUP1 PUSH1 0x0 PUSH1 0x1 PUSH1 0x0 DUP4 PUSH20 0xFFFFFFFFFFFFFFFFFFFFFFFFFFFFFFFFFFFFFFFF AND PUSH20 0xFFFFFFFFFFFFFFFFFFFFFFFFFFFFFFFFFFFFFFFF AND DUP2 MSTORE PUSH1 0x20 ADD SWAP1 DUP2 MSTORE PUSH1 0x20 ADD PUSH1 0x0 KECCAK256 SLOAD EQ DUP1 PUSH2 0x228B JUMPI POP PUSH1 0x4 PUSH1 0x0 SWAP1 SLOAD SWAP1 PUSH2 0x100 EXP SWAP1 DIV PUSH20 0xFFFFFFFFFFFFFFFFFFFFFFFFFFFFFFFFFFFFFFFF AND PUSH20 0xFFFFFFFFFFFFFFFFFFFFFFFFFFFFFFFFFFFFFFFF AND DUP2 PUSH20 0xFFFFFFFFFFFFFFFFFFFFFFFFFFFFFFFFFFFFFFFF AND EQ JUMPDEST ISZERO PUSH2 0x22CB JUMPI PUSH1 0x40 MLOAD PUSH32 0x8C379A000000000000000000000000000000000000000000000000000000000 DUP2 MSTORE PUSH1 0x4 ADD PUSH2 0x22C2 SWAP1 PUSH2 0x8708 JUMP JUMPDEST PUSH1 0x40 MLOAD DUP1 SWAP2 SUB SWAP1 REVERT JUMPDEST PUSH1 0x0 PUSH1 0x1 PUSH1 0x0 DUP5 PUSH20 0xFFFFFFFFFFFFFFFFFFFFFFFFFFFFFFFFFFFFFFFF AND PUSH20 0xFFFFFFFFFFFFFFFFFFFFFFFFFFFFFFFFFFFFFFFF AND DUP2 MSTORE PUSH1 0x20 ADD SWAP1 DUP2 MSTORE PUSH1 0x20 ADD PUSH1 0x0 KECCAK256 SLOAD SWAP1 POP PUSH1 0x0 DUP1 DUP3 DUP2 SLOAD DUP2 LT PUSH2 0x2324 JUMPI PUSH2 0x2323 PUSH2 0x868D JUMP JUMPDEST JUMPDEST SWAP1 PUSH1 0x0 MSTORE PUSH1 0x20 PUSH1 0x0 KECCAK256 SWAP1 PUSH1 0x4 MUL ADD SWAP1 POP PUSH2 0x233D DUP5 PUSH2 0x422E JUMP JUMPDEST DUP2 PUSH1 0x1 ADD PUSH1 0x0 PUSH2 0x100 EXP DUP2 SLOAD DUP2 PUSH16 0xFFFFFFFFFFFFFFFFFFFFFFFFFFFFFFFF MUL NOT AND SWAP1 DUP4 PUSH16 0xFFFFFFFFFFFFFFFFFFFFFFFFFFFFFFFF AND MUL OR SWAP1 SSTORE POP PUSH1 0x0 PUSH2 0x23A4 PUSH1 0x4 PUSH1 0x0 SWAP1 SLOAD SWAP1 PUSH2 0x100 EXP SWAP1 DIV PUSH20 0xFFFFFFFFFFFFFFFFFFFFFFFFFFFFFFFFFFFFFFFF AND PUSH2 0x422E JUMP JUMPDEST SWAP1 POP PUSH1 0x2 SLOAD DUP2 DUP4 PUSH1 0x1 ADD PUSH1 0x10 SWAP1 SLOAD SWAP1 PUSH2 0x100 EXP SWAP1 DIV PUSH16 0xFFFFFFFFFFFFFFFFFFFFFFFFFFFFFFFF AND PUSH16 0xFFFFFFFFFFFFFFFFFFFFFFFFFFFFFFFF AND PUSH2 0x23E7 SWAP2 SWAP1 PUSH2 0x8637 JUMP JUMPDEST PUSH2 0x23F1 SWAP2 SWAP1 PUSH2 0x8794 JUMP JUMPDEST DUP3 PUSH1 0x1 ADD PUSH1 0x10 PUSH2 0x100 EXP DUP2 SLOAD DUP2 PUSH16 0xFFFFFFFFFFFFFFFFFFFFFFFFFFFFFFFF MUL NOT AND SWAP1 DUP4 PUSH16 0xFFFFFFFFFFFFFFFFFFFFFFFFFFFFFFFF AND MUL OR SWAP1 SSTORE POP PUSH32 0xFFFFFFFFFFFFFFFFFFFFFFFFFFFFFFFFFFFFFFFFFFFFFFFFFFFFFFFFFFFFFFFF DUP3 PUSH1 0x3 ADD SLOAD LT ISZERO PUSH2 0x247D JUMPI PUSH1 0x2 SLOAD DUP2 DUP4 PUSH1 0x3 ADD SLOAD PUSH2 0x246A SWAP2 SWAP1 PUSH2 0x8637 JUMP JUMPDEST PUSH2 0x2474 SWAP2 SWAP1 PUSH2 0x8794 JUMP JUMPDEST DUP3 PUSH1 0x3 ADD DUP2 SWAP1 SSTORE POP JUMPDEST DUP1 PUSH1 0x2 DUP2 SWAP1 SSTORE POP PUSH32 0x51AB1232A73B82B6B0ACB0FA91B834CF6E258A1858C4E23C72CE97241C71AA0D DUP6 DUP4 PUSH1 0x1 ADD PUSH1 0x0 SWAP1 SLOAD SWAP1 PUSH2 0x100 EXP SWAP1 DIV PUSH16 0xFFFFFFFFFFFFFFFFFFFFFFFFFFFFFFFF AND DUP5 PUSH1 0x1 ADD PUSH1 0x10 SWAP1 SLOAD SWAP1 PUSH2 0x100 EXP SWAP1 DIV PUSH16 0xFFFFFFFFFFFFFFFFFFFFFFFFFFFFFFFF AND DUP6 PUSH1 0x3 ADD SLOAD PUSH1 0x40 MLOAD PUSH2 0x24FD SWAP5 SWAP4 SWAP3 SWAP2 SWAP1 PUSH2 0x8979 JUMP JUMPDEST PUSH1 0x40 MLOAD DUP1 SWAP2 SUB SWAP1 LOG1 POP POP POP POP POP JUMP JUMPDEST PUSH1 0x60 PUSH1 0x12 DUP1 SLOAD PUSH2 0x251B SWAP1 PUSH2 0x819F JUMP JUMPDEST DUP1 PUSH1 0x1F ADD PUSH1 0x20 DUP1 SWAP2 DIV MUL PUSH1 0x20 ADD PUSH1 0x40 MLOAD SWAP1 DUP2 ADD PUSH1 0x40 MSTORE DUP1 SWAP3 SWAP2 SWAP1 DUP2 DUP2 MSTORE PUSH1 0x20 ADD DUP3 DUP1 SLOAD PUSH2 0x2547 SWAP1 PUSH2 0x819F JUMP JUMPDEST DUP1 ISZERO PUSH2 0x2594 JUMPI DUP1 PUSH1 0x1F LT PUSH2 0x2569 JUMPI PUSH2 0x100 DUP1 DUP4 SLOAD DIV MUL DUP4 MSTORE SWAP2 PUSH1 0x20 ADD SWAP2 PUSH2 0x2594 JUMP JUMPDEST DUP3 ADD SWAP2 SWAP1 PUSH1 0x0 MSTORE PUSH1 0x20 PUSH1 0x0 KECCAK256 SWAP1 JUMPDEST DUP2 SLOAD DUP2 MSTORE SWAP1 PUSH1 0x1 ADD SWAP1 PUSH1 0x20 ADD DUP1 DUP4 GT PUSH2 0x2577 JUMPI DUP3 SWAP1 SUB PUSH1 0x1F AND DUP3 ADD SWAP2 JUMPDEST POP POP POP POP POP SWAP1 POP SWAP1 JUMP JUMPDEST PUSH1 0x0 PUSH2 0x25AA PUSH1 0x3 PUSH2 0xACF JUMP JUMPDEST SWAP1 POP DUP1 PUSH20 0xFFFFFFFFFFFFFFFFFFFFFFFFFFFFFFFFFFFFFFFF AND PUSH4 0xEEF84BA1 PUSH1 0x40 MLOAD DUP2 PUSH4 0xFFFFFFFF AND PUSH1 0xE0 SHL DUP2 MSTORE PUSH1 0x4 ADD PUSH1 0x0 PUSH1 0x40 MLOAD DUP1 DUP4 SUB DUP2 PUSH1 0x0 DUP8 DUP1 EXTCODESIZE ISZERO DUP1 ISZERO PUSH2 0x25F4 JUMPI PUSH1 0x0 DUP1 REVERT JUMPDEST POP GAS CALL ISZERO DUP1 ISZERO PUSH2 0x2608 JUMPI RETURNDATASIZE PUSH1 0x0 DUP1 RETURNDATACOPY RETURNDATASIZE PUSH1 0x0 REVERT JUMPDEST POP POP POP POP PUSH2 0x2617 CALLER DUP5 DUP5 PUSH2 0x569E JUMP JUMPDEST POP POP POP JUMP JUMPDEST PUSH1 0x0 DUP1 DUP4 DUP1 TIMESTAMP GT ISZERO PUSH2 0x2663 JUMPI PUSH1 0x40 MLOAD PUSH32 0x8C379A000000000000000000000000000000000000000000000000000000000 DUP2 MSTORE PUSH1 0x4 ADD PUSH2 0x265A SWAP1 PUSH2 0x8774 JUMP JUMPDEST PUSH1 0x40 MLOAD DUP1 SWAP2 SUB SWAP1 REVERT JUMPDEST PUSH1 0x1 DUP8 GT PUSH2 0x26A6 JUMPI PUSH1 0x40 MLOAD PUSH32 0x8C379A000000000000000000000000000000000000000000000000000000000 DUP2 MSTORE PUSH1 0x4 ADD PUSH2 0x269D SWAP1 PUSH2 0x8814 JUMP JUMPDEST PUSH1 0x40 MLOAD DUP1 SWAP2 SUB SWAP1 REVERT JUMPDEST PUSH1 0x0 PUSH1 0x4 PUSH1 0x0 SWAP1 SLOAD SWAP1 PUSH2 0x100 EXP SWAP1 DIV PUSH20 0xFFFFFFFFFFFFFFFFFFFFFFFFFFFFFFFFFFFFFFFF AND PUSH20 0xFFFFFFFFFFFFFFFFFFFFFFFFFFFFFFFFFFFFFFFF AND DUP11 PUSH20 0xFFFFFFFFFFFFFFFFFFFFFFFFFFFFFFFFFFFFFFFF AND EQ ISZERO DUP1 ISZERO PUSH2 0x2753 JUMPI POP PUSH1 0x4 PUSH1 0x0 SWAP1 SLOAD SWAP1 PUSH2 0x100 EXP SWAP1 DIV PUSH20 0xFFFFFFFFFFFFFFFFFFFFFFFFFFFFFFFFFFFFFFFF AND PUSH20 0xFFFFFFFFFFFFFFFFFFFFFFFFFFFFFFFFFFFFFFFF AND DUP10 PUSH20 0xFFFFFFFFFFFFFFFFFFFFFFFFFFFFFFFFFFFFFFFF AND EQ JUMPDEST ISZERO PUSH2 0x27DA JUMPI PUSH2 0x2762 DUP11 DUP10 PUSH2 0x45C1 JUMP JUMPDEST SWAP1 POP DUP7 DUP2 LT ISZERO PUSH2 0x27A7 JUMPI PUSH1 0x40 MLOAD PUSH32 0x8C379A000000000000000000000000000000000000000000000000000000000 DUP2 MSTORE PUSH1 0x4 ADD PUSH2 0x279E SWAP1 PUSH2 0x8A0A JUMP JUMPDEST PUSH1 0x40 MLOAD DUP1 SWAP2 SUB SWAP1 REVERT JUMPDEST PUSH1 0x0 PUSH2 0x27B2 DUP12 PUSH2 0x422E JUMP JUMPDEST SWAP1 POP PUSH2 0x27BF DUP12 CALLER DUP12 PUSH2 0x40C7 JUMP JUMPDEST PUSH2 0x27CD DUP12 DUP3 PUSH1 0x0 DUP6 DUP11 PUSH2 0x5802 JUMP JUMPDEST DUP9 DUP3 SWAP5 POP SWAP5 POP POP POP PUSH2 0x2ADA JUMP JUMPDEST PUSH1 0x4 PUSH1 0x0 SWAP1 SLOAD SWAP1 PUSH2 0x100 EXP SWAP1 DIV PUSH20 0xFFFFFFFFFFFFFFFFFFFFFFFFFFFFFFFFFFFFFFFF AND PUSH20 0xFFFFFFFFFFFFFFFFFFFFFFFFFFFFFFFFFFFFFFFF AND DUP11 PUSH20 0xFFFFFFFFFFFFFFFFFFFFFFFFFFFFFFFFFFFFFFFF AND EQ DUP1 ISZERO PUSH2 0x2885 JUMPI POP PUSH1 0x4 PUSH1 0x0 SWAP1 SLOAD SWAP1 PUSH2 0x100 EXP SWAP1 DIV PUSH20 0xFFFFFFFFFFFFFFFFFFFFFFFFFFFFFFFFFFFFFFFF AND PUSH20 0xFFFFFFFFFFFFFFFFFFFFFFFFFFFFFFFFFFFFFFFF AND DUP10 PUSH20 0xFFFFFFFFFFFFFFFFFFFFFFFFFFFFFFFFFFFFFFFF AND EQ ISZERO JUMPDEST ISZERO PUSH2 0x290C JUMPI PUSH2 0x2894 DUP10 DUP10 PUSH2 0x4785 JUMP JUMPDEST SWAP1 POP DUP7 DUP2 LT ISZERO PUSH2 0x28D9 JUMPI PUSH1 0x40 MLOAD PUSH32 0x8C379A000000000000000000000000000000000000000000000000000000000 DUP2 MSTORE PUSH1 0x4 ADD PUSH2 0x28D0 SWAP1 PUSH2 0x8A76 JUMP JUMPDEST PUSH1 0x40 MLOAD DUP1 SWAP2 SUB SWAP1 REVERT JUMPDEST PUSH1 0x0 PUSH2 0x28E4 DUP12 PUSH2 0x422E JUMP JUMPDEST SWAP1 POP PUSH2 0x28F1 DUP12 CALLER DUP12 PUSH2 0x40C7 JUMP JUMPDEST PUSH2 0x28FF DUP11 DUP3 DUP5 PUSH1 0x0 DUP11 PUSH2 0x5802 JUMP JUMPDEST DUP9 DUP3 SWAP5 POP SWAP5 POP POP POP PUSH2 0x2ADA JUMP JUMPDEST PUSH1 0x4 PUSH1 0x0 SWAP1 SLOAD SWAP1 PUSH2 0x100 EXP SWAP1 DIV PUSH20 0xFFFFFFFFFFFFFFFFFFFFFFFFFFFFFFFFFFFFFFFF AND PUSH20 0xFFFFFFFFFFFFFFFFFFFFFFFFFFFFFFFFFFFFFFFF AND DUP11 PUSH20 0xFFFFFFFFFFFFFFFFFFFFFFFFFFFFFFFFFFFFFFFF AND EQ ISZERO DUP1 ISZERO PUSH2 0x29B8 JUMPI POP PUSH1 0x4 PUSH1 0x0 SWAP1 SLOAD SWAP1 PUSH2 0x100 EXP SWAP1 DIV PUSH20 0xFFFFFFFFFFFFFFFFFFFFFFFFFFFFFFFFFFFFFFFF AND PUSH20 0xFFFFFFFFFFFFFFFFFFFFFFFFFFFFFFFFFFFFFFFF AND DUP11 PUSH20 0xFFFFFFFFFFFFFFFFFFFFFFFFFFFFFFFFFFFFFFFF AND EQ ISZERO JUMPDEST DUP1 ISZERO PUSH2 0x29F0 JUMPI POP DUP9 PUSH20 0xFFFFFFFFFFFFFFFFFFFFFFFFFFFFFFFFFFFFFFFF AND DUP11 PUSH20 0xFFFFFFFFFFFFFFFFFFFFFFFFFFFFFFFFFFFFFFFF AND EQ ISZERO JUMPDEST ISZERO PUSH2 0x2A9F JUMPI PUSH1 0x0 PUSH2 0x2A01 DUP12 DUP11 PUSH2 0x45C1 JUMP JUMPDEST SWAP1 POP PUSH2 0x2A0D DUP11 DUP3 PUSH2 0x4785 JUMP JUMPDEST SWAP2 POP DUP8 DUP3 LT ISZERO PUSH2 0x2A52 JUMPI PUSH1 0x40 MLOAD PUSH32 0x8C379A000000000000000000000000000000000000000000000000000000000 DUP2 MSTORE PUSH1 0x4 ADD PUSH2 0x2A49 SWAP1 PUSH2 0x8A76 JUMP JUMPDEST PUSH1 0x40 MLOAD DUP1 SWAP2 SUB SWAP1 REVERT JUMPDEST PUSH1 0x0 PUSH2 0x2A5D DUP13 PUSH2 0x422E JUMP JUMPDEST SWAP1 POP PUSH2 0x2A6A DUP13 CALLER DUP13 PUSH2 0x40C7 JUMP JUMPDEST PUSH2 0x2A78 DUP13 DUP3 PUSH1 0x0 DUP6 ADDRESS PUSH2 0x5802 JUMP JUMPDEST PUSH2 0x2A81 DUP12 PUSH2 0x422E JUMP JUMPDEST SWAP1 POP PUSH2 0x2A91 DUP12 DUP3 DUP6 PUSH1 0x0 DUP12 PUSH2 0x5802 JUMP JUMPDEST DUP10 DUP4 SWAP6 POP SWAP6 POP POP POP POP PUSH2 0x2ADA JUMP JUMPDEST PUSH1 0x40 MLOAD PUSH32 0x8C379A000000000000000000000000000000000000000000000000000000000 DUP2 MSTORE PUSH1 0x4 ADD PUSH2 0x2AD1 SWAP1 PUSH2 0x8AE2 JUMP JUMPDEST PUSH1 0x40 MLOAD DUP1 SWAP2 SUB SWAP1 REVERT JUMPDEST POP SWAP7 POP SWAP7 SWAP5 POP POP POP POP POP JUMP JUMPDEST PUSH1 0x60 PUSH1 0x0 DUP4 DUP4 SWAP1 POP PUSH8 0xFFFFFFFFFFFFFFFF DUP2 GT ISZERO PUSH2 0x2B07 JUMPI PUSH2 0x2B06 PUSH2 0x7946 JUMP JUMPDEST JUMPDEST PUSH1 0x40 MLOAD SWAP1 DUP1 DUP3 MSTORE DUP1 PUSH1 0x20 MUL PUSH1 0x20 ADD DUP3 ADD PUSH1 0x40 MSTORE DUP1 ISZERO PUSH2 0x2B40 JUMPI DUP2 PUSH1 0x20 ADD JUMPDEST PUSH2 0x2B2D PUSH2 0x6EFD JUMP JUMPDEST DUP2 MSTORE PUSH1 0x20 ADD SWAP1 PUSH1 0x1 SWAP1 SUB SWAP1 DUP2 PUSH2 0x2B25 JUMPI SWAP1 POP JUMPDEST POP SWAP1 POP PUSH1 0x0 JUMPDEST DUP5 DUP5 SWAP1 POP DUP2 LT ISZERO PUSH2 0x2D21 JUMPI PUSH1 0x0 DUP6 DUP6 DUP4 DUP2 DUP2 LT PUSH2 0x2B66 JUMPI PUSH2 0x2B65 PUSH2 0x868D JUMP JUMPDEST JUMPDEST SWAP1 POP PUSH1 0x20 MUL ADD CALLDATALOAD DUP2 SLOAD DUP2 LT PUSH2 0x2B7E JUMPI PUSH2 0x2B7D PUSH2 0x868D JUMP JUMPDEST JUMPDEST SWAP1 PUSH1 0x0 MSTORE PUSH1 0x20 PUSH1 0x0 KECCAK256 SWAP1 PUSH1 0x4 MUL ADD PUSH1 0x40 MLOAD DUP1 PUSH1 0xA0 ADD PUSH1 0x40 MSTORE SWAP1 DUP2 PUSH1 0x0 DUP3 ADD PUSH1 0x8 DUP1 PUSH1 0x20 MUL PUSH1 0x40 MLOAD SWAP1 DUP2 ADD PUSH1 0x40 MSTORE DUP1 SWAP3 SWAP2 SWAP1 DUP3 PUSH1 0x8 DUP1 ISZERO PUSH2 0x2BFF JUMPI PUSH1 0x20 MUL DUP3 ADD SWAP2 PUSH1 0x0 SWAP1 JUMPDEST DUP3 DUP3 SWAP1 SLOAD SWAP1 PUSH2 0x100 EXP SWAP1 DIV PUSH4 0xFFFFFFFF AND PUSH4 0xFFFFFFFF AND DUP2 MSTORE PUSH1 0x20 ADD SWAP1 PUSH1 0x4 ADD SWAP1 PUSH1 0x20 DUP3 PUSH1 0x3 ADD DIV SWAP3 DUP4 ADD SWAP3 PUSH1 0x1 SUB DUP3 MUL SWAP2 POP DUP1 DUP5 GT PUSH2 0x2BC2 JUMPI SWAP1 POP JUMPDEST POP POP POP POP POP DUP2 MSTORE PUSH1 0x20 ADD PUSH1 0x1 DUP3 ADD PUSH1 0x0 SWAP1 SLOAD SWAP1 PUSH2 0x100 EXP SWAP1 DIV PUSH16 0xFFFFFFFFFFFFFFFFFFFFFFFFFFFFFFFF AND PUSH16 0xFFFFFFFFFFFFFFFFFFFFFFFFFFFFFFFF AND PUSH16 0xFFFFFFFFFFFFFFFFFFFFFFFFFFFFFFFF AND DUP2 MSTORE PUSH1 0x20 ADD PUSH1 0x1 DUP3 ADD PUSH1 0x10 SWAP1 SLOAD SWAP1 PUSH2 0x100 EXP SWAP1 DIV PUSH16 0xFFFFFFFFFFFFFFFFFFFFFFFFFFFFFFFF AND PUSH16 0xFFFFFFFFFFFFFFFFFFFFFFFFFFFFFFFF AND PUSH16 0xFFFFFFFFFFFFFFFFFFFFFFFFFFFFFFFF AND DUP2 MSTORE PUSH1 0x20 ADD PUSH1 0x2 DUP3 ADD PUSH1 0x0 SWAP1 SLOAD SWAP1 PUSH2 0x100 EXP SWAP1 DIV PUSH16 0xFFFFFFFFFFFFFFFFFFFFFFFFFFFFFFFF AND PUSH16 0xFFFFFFFFFFFFFFFFFFFFFFFFFFFFFFFF AND PUSH16 0xFFFFFFFFFFFFFFFFFFFFFFFFFFFFFFFF AND DUP2 MSTORE PUSH1 0x20 ADD PUSH1 0x3 DUP3 ADD SLOAD DUP2 MSTORE POP POP DUP3 DUP3 DUP2 MLOAD DUP2 LT PUSH2 0x2D03 JUMPI PUSH2 0x2D02 PUSH2 0x868D JUMP JUMPDEST JUMPDEST PUSH1 0x20 MUL PUSH1 0x20 ADD ADD DUP2 SWAP1 MSTORE POP DUP1 DUP1 PUSH2 0x2D19 SWAP1 PUSH2 0x85EE JUMP JUMPDEST SWAP2 POP POP PUSH2 0x2B46 JUMP JUMPDEST POP DUP1 SWAP2 POP POP SWAP3 SWAP2 POP POP JUMP JUMPDEST CALLER PUSH20 0xFFFFFFFFFFFFFFFFFFFFFFFFFFFFFFFFFFFFFFFF AND PUSH2 0x2D4B PUSH2 0x21C5 JUMP JUMPDEST PUSH20 0xFFFFFFFFFFFFFFFFFFFFFFFFFFFFFFFFFFFFFFFF AND EQ PUSH2 0x2D98 JUMPI PUSH1 0x40 MLOAD PUSH32 0xEBF9845900000000000000000000000000000000000000000000000000000000 DUP2 MSTORE PUSH1 0x4 ADD PUSH1 0x40 MLOAD DUP1 SWAP2 SUB SWAP1 REVERT JUMPDEST PUSH2 0x2DC2 DUP3 DUP3 PUSH1 0x40 MLOAD PUSH1 0x20 ADD PUSH2 0x2DAE SWAP3 SWAP2 SWAP1 PUSH2 0x8B73 JUMP JUMPDEST PUSH1 0x40 MLOAD PUSH1 0x20 DUP2 DUP4 SUB SUB DUP2 MSTORE SWAP1 PUSH1 0x40 MSTORE PUSH2 0x5E6A JUMP JUMPDEST DUP2 DUP2 PUSH1 0x13 SWAP2 SWAP1 PUSH2 0x2DD3 SWAP3 SWAP2 SWAP1 PUSH2 0x703A JUMP JUMPDEST POP POP POP JUMP JUMPDEST PUSH2 0x2E3B PUSH1 0x3 PUSH1 0x0 SWAP1 SLOAD SWAP1 PUSH2 0x100 EXP SWAP1 DIV PUSH20 0xFFFFFFFFFFFFFFFFFFFFFFFFFFFFFFFFFFFFFFFF AND PUSH10 0xD3C21BCECCEDA1000000 PUSH10 0x69E10DE76676D0800000 PUSH32 0xFFFFFFFFFFFFFFFFFFFFFFFFFFFFFFFFFFFFFFFFFFFFFFFFFFFFFFFFFFFFFFFF CALLER PUSH2 0x51EC JUMP JUMPDEST PUSH2 0x2E94 PUSH1 0x5 PUSH1 0x0 SWAP1 SLOAD SWAP1 PUSH2 0x100 EXP SWAP1 DIV PUSH20 0xFFFFFFFFFFFFFFFFFFFFFFFFFFFFFFFFFFFFFFFF AND PUSH10 0x943B1377290CBD800000 DUP1 PUSH32 0xFFFFFFFFFFFFFFFFFFFFFFFFFFFFFFFFFFFFFFFFFFFFFFFFFFFFFFFFFFFFFFFF CALLER PUSH2 0x51EC JUMP JUMPDEST JUMP JUMPDEST PUSH1 0x0 PUSH1 0x10 PUSH1 0x0 DUP4 DUP2 MSTORE PUSH1 0x20 ADD SWAP1 DUP2 MSTORE PUSH1 0x20 ADD PUSH1 0x0 KECCAK256 SLOAD SWAP1 POP SWAP2 SWAP1 POP JUMP JUMPDEST CALLER PUSH20 0xFFFFFFFFFFFFFFFFFFFFFFFFFFFFFFFFFFFFFFFF AND PUSH2 0x2ED2 PUSH2 0x21C5 JUMP JUMPDEST PUSH20 0xFFFFFFFFFFFFFFFFFFFFFFFFFFFFFFFFFFFFFFFF AND EQ PUSH2 0x2F1F JUMPI PUSH1 0x40 MLOAD PUSH32 0xEBF9845900000000000000000000000000000000000000000000000000000000 DUP2 MSTORE PUSH1 0x4 ADD PUSH1 0x40 MLOAD DUP1 SWAP2 SUB SWAP1 REVERT JUMPDEST PUSH2 0x2F7F PUSH1 0x6 PUSH1 0x0 SWAP1 SLOAD SWAP1 PUSH2 0x100 EXP SWAP1 DIV PUSH20 0xFFFFFFFFFFFFFFFFFFFFFFFFFFFFFFFFFFFFFFFF AND PUSH7 0x38D7EA4C68000 PUSH10 0xD3C21BCECCEDA1000000 PUSH32 0xFFFFFFFFFFFFFFFFFFFFFFFFFFFFFFFFFFFFFFFFFFFFFFFFFFFFFFFFFFFFFFFF CALLER PUSH2 0x51EC JUMP JUMPDEST JUMP JUMPDEST PUSH1 0x0 DUP1 PUSH1 0x4 PUSH1 0x0 SWAP1 SLOAD SWAP1 PUSH2 0x100 EXP SWAP1 DIV PUSH20 0xFFFFFFFFFFFFFFFFFFFFFFFFFFFFFFFFFFFFFFFF AND PUSH20 0xFFFFFFFFFFFFFFFFFFFFFFFFFFFFFFFFFFFFFFFF AND DUP6 PUSH20 0xFFFFFFFFFFFFFFFFFFFFFFFFFFFFFFFFFFFFFFFF AND EQ ISZERO DUP1 ISZERO PUSH2 0x302F JUMPI POP PUSH1 0x4 PUSH1 0x0 SWAP1 SLOAD SWAP1 PUSH2 0x100 EXP SWAP1 DIV PUSH20 0xFFFFFFFFFFFFFFFFFFFFFFFFFFFFFFFFFFFFFFFF AND PUSH20 0xFFFFFFFFFFFFFFFFFFFFFFFFFFFFFFFFFFFFFFFF AND DUP5 PUSH20 0xFFFFFFFFFFFFFFFFFFFFFFFFFFFFFFFFFFFFFFFF AND EQ JUMPDEST ISZERO PUSH2 0x3049 JUMPI PUSH2 0x303E DUP6 DUP5 PUSH2 0x5E84 JUMP JUMPDEST SWAP1 POP DUP1 SWAP2 POP POP PUSH2 0x312E JUMP JUMPDEST PUSH1 0x4 PUSH1 0x0 SWAP1 SLOAD SWAP1 PUSH2 0x100 EXP SWAP1 DIV PUSH20 0xFFFFFFFFFFFFFFFFFFFFFFFFFFFFFFFFFFFFFFFF AND PUSH20 0xFFFFFFFFFFFFFFFFFFFFFFFFFFFFFFFFFFFFFFFF AND DUP6 PUSH20 0xFFFFFFFFFFFFFFFFFFFFFFFFFFFFFFFFFFFFFFFF AND EQ DUP1 ISZERO PUSH2 0x30F4 JUMPI POP PUSH1 0x4 PUSH1 0x0 SWAP1 SLOAD SWAP1 PUSH2 0x100 EXP SWAP1 DIV PUSH20 0xFFFFFFFFFFFFFFFFFFFFFFFFFFFFFFFFFFFFFFFF AND PUSH20 0xFFFFFFFFFFFFFFFFFFFFFFFFFFFFFFFFFFFFFFFF AND DUP5 PUSH20 0xFFFFFFFFFFFFFFFFFFFFFFFFFFFFFFFFFFFFFFFF AND EQ ISZERO JUMPDEST ISZERO PUSH2 0x310E JUMPI PUSH2 0x3103 DUP5 DUP5 PUSH2 0x6048 JUMP JUMPDEST SWAP1 POP DUP1 SWAP2 POP POP PUSH2 0x312E JUMP JUMPDEST PUSH1 0x0 PUSH2 0x311A DUP6 DUP6 PUSH2 0x6048 JUMP JUMPDEST SWAP1 POP PUSH2 0x3126 DUP7 DUP3 PUSH2 0x5E84 JUMP JUMPDEST SWAP2 POP DUP2 SWAP3 POP POP POP JUMPDEST SWAP4 SWAP3 POP POP POP JUMP JUMPDEST CALLER PUSH20 0xFFFFFFFFFFFFFFFFFFFFFFFFFFFFFFFFFFFFFFFF AND PUSH2 0x3154 PUSH2 0x21C5 JUMP JUMPDEST PUSH20 0xFFFFFFFFFFFFFFFFFFFFFFFFFFFFFFFFFFFFFFFF AND EQ PUSH2 0x31A1 JUMPI PUSH1 0x40 MLOAD PUSH32 0xEBF9845900000000000000000000000000000000000000000000000000000000 DUP2 MSTORE PUSH1 0x4 ADD PUSH1 0x40 MLOAD DUP1 SWAP2 SUB SWAP1 REVERT JUMPDEST DUP2 PUSH1 0x0 PUSH1 0x1 PUSH1 0x0 DUP4 PUSH20 0xFFFFFFFFFFFFFFFFFFFFFFFFFFFFFFFFFFFFFFFF AND PUSH20 0xFFFFFFFFFFFFFFFFFFFFFFFFFFFFFFFFFFFFFFFF AND DUP2 MSTORE PUSH1 0x20 ADD SWAP1 DUP2 MSTORE PUSH1 0x20 ADD PUSH1 0x0 KECCAK256 SLOAD EQ DUP1 PUSH2 0x323D JUMPI POP PUSH1 0x4 PUSH1 0x0 SWAP1 SLOAD SWAP1 PUSH2 0x100 EXP SWAP1 DIV PUSH20 0xFFFFFFFFFFFFFFFFFFFFFFFFFFFFFFFFFFFFFFFF AND PUSH20 0xFFFFFFFFFFFFFFFFFFFFFFFFFFFFFFFFFFFFFFFF AND DUP2 PUSH20 0xFFFFFFFFFFFFFFFFFFFFFFFFFFFFFFFFFFFFFFFF AND EQ JUMPDEST ISZERO PUSH2 0x327D JUMPI PUSH1 0x40 MLOAD PUSH32 0x8C379A000000000000000000000000000000000000000000000000000000000 DUP2 MSTORE PUSH1 0x4 ADD PUSH2 0x3274 SWAP1 PUSH2 0x8708 JUMP JUMPDEST PUSH1 0x40 MLOAD DUP1 SWAP2 SUB SWAP1 REVERT JUMPDEST PUSH1 0x0 DUP1 PUSH1 0x1 PUSH1 0x0 DUP7 PUSH20 0xFFFFFFFFFFFFFFFFFFFFFFFFFFFFFFFFFFFFFFFF AND PUSH20 0xFFFFFFFFFFFFFFFFFFFFFFFFFFFFFFFFFFFFFFFF AND DUP2 MSTORE PUSH1 0x20 ADD SWAP1 DUP2 MSTORE PUSH1 0x20 ADD PUSH1 0x0 KECCAK256 SLOAD DUP2 SLOAD DUP2 LT PUSH2 0x32D1 JUMPI PUSH2 0x32D0 PUSH2 0x868D JUMP JUMPDEST JUMPDEST SWAP1 PUSH1 0x0 MSTORE PUSH1 0x20 PUSH1 0x0 KECCAK256 SWAP1 PUSH1 0x4 MUL ADD SWAP1 POP DUP3 DUP2 PUSH1 0x3 ADD DUP2 SWAP1 SSTORE POP PUSH32 0x51AB1232A73B82B6B0ACB0FA91B834CF6E258A1858C4E23C72CE97241C71AA0D DUP5 DUP3 PUSH1 0x1 ADD PUSH1 0x0 SWAP1 SLOAD SWAP1 PUSH2 0x100 EXP SWAP1 DIV PUSH16 0xFFFFFFFFFFFFFFFFFFFFFFFFFFFFFFFF AND DUP4 PUSH1 0x1 ADD PUSH1 0x10 SWAP1 SLOAD SWAP1 PUSH2 0x100 EXP SWAP1 DIV PUSH16 0xFFFFFFFFFFFFFFFFFFFFFFFFFFFFFFFF AND DUP7 PUSH1 0x40 MLOAD PUSH2 0x335F SWAP5 SWAP4 SWAP3 SWAP2 SWAP1 PUSH2 0x8979 JUMP JUMPDEST PUSH1 0x40 MLOAD DUP1 SWAP2 SUB SWAP1 LOG1 POP POP POP POP JUMP JUMPDEST CALLER PUSH20 0xFFFFFFFFFFFFFFFFFFFFFFFFFFFFFFFFFFFFFFFF AND PUSH2 0x338C PUSH2 0x21C5 JUMP JUMPDEST PUSH20 0xFFFFFFFFFFFFFFFFFFFFFFFFFFFFFFFFFFFFFFFF AND EQ PUSH2 0x33D9 JUMPI PUSH1 0x40 MLOAD PUSH32 0xEBF9845900000000000000000000000000000000000000000000000000000000 DUP2 MSTORE PUSH1 0x4 ADD PUSH1 0x40 MLOAD DUP1 SWAP2 SUB SWAP1 REVERT JUMPDEST PUSH2 0x3406 DUP5 DUP5 DUP5 PUSH32 0xFFFFFFFFFFFFFFFFFFFFFFFFFFFFFFFFFFFFFFFFFFFFFFFFFFFFFFFFFFFFFFFF DUP6 PUSH2 0x51EC JUMP JUMPDEST POP POP POP POP JUMP JUMPDEST PUSH1 0x0 PUSH1 0xE PUSH1 0x0 DUP5 PUSH20 0xFFFFFFFFFFFFFFFFFFFFFFFFFFFFFFFFFFFFFFFF AND PUSH20 0xFFFFFFFFFFFFFFFFFFFFFFFFFFFFFFFFFFFFFFFF AND DUP2 MSTORE PUSH1 0x20 ADD SWAP1 DUP2 MSTORE PUSH1 0x20 ADD PUSH1 0x0 KECCAK256 PUSH1 0x0 DUP4 PUSH20 0xFFFFFFFFFFFFFFFFFFFFFFFFFFFFFFFFFFFFFFFF AND PUSH20 0xFFFFFFFFFFFFFFFFFFFFFFFFFFFFFFFFFFFFFFFF AND DUP2 MSTORE PUSH1 0x20 ADD SWAP1 DUP2 MSTORE PUSH1 0x20 ADD PUSH1 0x0 KECCAK256 PUSH1 0x0 SWAP1 SLOAD SWAP1 PUSH2 0x100 EXP SWAP1 DIV PUSH1 0xFF AND SWAP1 POP SWAP3 SWAP2 POP POP JUMP JUMPDEST DUP4 PUSH1 0x3 PUSH1 0x0 PUSH2 0x100 EXP DUP2 SLOAD DUP2 PUSH20 0xFFFFFFFFFFFFFFFFFFFFFFFFFFFFFFFFFFFFFFFF MUL NOT AND SWAP1 DUP4 PUSH20 0xFFFFFFFFFFFFFFFFFFFFFFFFFFFFFFFFFFFFFFFF AND MUL OR SWAP1 SSTORE POP DUP3 PUSH1 0x4 PUSH1 0x0 PUSH2 0x100 EXP DUP2 SLOAD DUP2 PUSH20 0xFFFFFFFFFFFFFFFFFFFFFFFFFFFFFFFFFFFFFFFF MUL NOT AND SWAP1 DUP4 PUSH20 0xFFFFFFFFFFFFFFFFFFFFFFFFFFFFFFFFFFFFFFFF AND MUL OR SWAP1 SSTORE POP DUP2 PUSH1 0x5 PUSH1 0x0 PUSH2 0x100 EXP DUP2 SLOAD DUP2 PUSH20 0xFFFFFFFFFFFFFFFFFFFFFFFFFFFFFFFFFFFFFFFF MUL NOT AND SWAP1 DUP4 PUSH20 0xFFFFFFFFFFFFFFFFFFFFFFFFFFFFFFFFFFFFFFFF AND MUL OR SWAP1 SSTORE POP PUSH2 0x356B PUSH2 0x2DD8 JUMP JUMPDEST POP POP POP POP POP JUMP JUMPDEST PUSH1 0x0 PUSH2 0x357E PUSH1 0x3 PUSH2 0xACF JUMP JUMPDEST SWAP1 POP DUP1 PUSH20 0xFFFFFFFFFFFFFFFFFFFFFFFFFFFFFFFFFFFFFFFF AND PUSH4 0xEEF84BA1 PUSH1 0x40 MLOAD DUP2 PUSH4 0xFFFFFFFF AND PUSH1 0xE0 SHL DUP2 MSTORE PUSH1 0x4 ADD PUSH1 0x0 PUSH1 0x40 MLOAD DUP1 DUP4 SUB DUP2 PUSH1 0x0 DUP8 DUP1 EXTCODESIZE ISZERO DUP1 ISZERO PUSH2 0x35C8 JUMPI PUSH1 0x0 DUP1 REVERT JUMPDEST POP GAS CALL ISZERO DUP1 ISZERO PUSH2 0x35DC JUMPI RETURNDATASIZE PUSH1 0x0 DUP1 RETURNDATACOPY RETURNDATASIZE PUSH1 0x0 REVERT JUMPDEST POP POP POP POP CALLER PUSH20 0xFFFFFFFFFFFFFFFFFFFFFFFFFFFFFFFFFFFFFFFF AND DUP8 PUSH20 0xFFFFFFFFFFFFFFFFFFFFFFFFFFFFFFFFFFFFFFFF AND EQ ISZERO DUP1 ISZERO PUSH2 0x3623 JUMPI POP PUSH2 0x3621 DUP8 CALLER PUSH2 0x340C JUMP JUMPDEST ISZERO JUMPDEST ISZERO PUSH2 0x365A JUMPI PUSH1 0x40 MLOAD PUSH32 0x6F34AAA800000000000000000000000000000000000000000000000000000000 DUP2 MSTORE PUSH1 0x4 ADD PUSH1 0x40 MLOAD DUP1 SWAP2 SUB SWAP1 REVERT JUMPDEST PUSH2 0x3668 DUP8 DUP8 DUP8 DUP8 DUP8 DUP8 PUSH2 0x6206 JUMP JUMPDEST POP POP POP POP POP POP POP JUMP JUMPDEST CALLER PUSH20 0xFFFFFFFFFFFFFFFFFFFFFFFFFFFFFFFFFFFFFFFF AND PUSH2 0x3690 PUSH2 0x21C5 JUMP JUMPDEST PUSH20 0xFFFFFFFFFFFFFFFFFFFFFFFFFFFFFFFFFFFFFFFF AND EQ PUSH2 0x36DD JUMPI PUSH1 0x40 MLOAD PUSH32 0xEBF9845900000000000000000000000000000000000000000000000000000000 DUP2 MSTORE PUSH1 0x4 ADD PUSH1 0x40 MLOAD DUP1 SWAP2 SUB SWAP1 REVERT JUMPDEST PUSH1 0x0 PUSH20 0xFFFFFFFFFFFFFFFFFFFFFFFFFFFFFFFFFFFFFFFF AND DUP2 PUSH20 0xFFFFFFFFFFFFFFFFFFFFFFFFFFFFFFFFFFFFFFFF AND EQ ISZERO PUSH2 0x3744 JUMPI PUSH1 0x40 MLOAD PUSH32 0x5868B79D00000000000000000000000000000000000000000000000000000000 DUP2 MSTORE PUSH1 0x4 ADD PUSH1 0x40 MLOAD DUP1 SWAP2 SUB SWAP1 REVERT JUMPDEST PUSH2 0x374D DUP2 PUSH2 0x4B56 JUMP JUMPDEST POP JUMP JUMPDEST PUSH1 0x0 DUP1 DUP4 DUP1 TIMESTAMP GT ISZERO PUSH2 0x3797 JUMPI PUSH1 0x40 MLOAD PUSH32 0x8C379A000000000000000000000000000000000000000000000000000000000 DUP2 MSTORE PUSH1 0x4 ADD PUSH2 0x378E SWAP1 PUSH2 0x8774 JUMP JUMPDEST PUSH1 0x40 MLOAD DUP1 SWAP2 SUB SWAP1 REVERT JUMPDEST PUSH1 0x0 PUSH1 0x4 PUSH1 0x0 SWAP1 SLOAD SWAP1 PUSH2 0x100 EXP SWAP1 DIV PUSH20 0xFFFFFFFFFFFFFFFFFFFFFFFFFFFFFFFFFFFFFFFF AND PUSH20 0xFFFFFFFFFFFFFFFFFFFFFFFFFFFFFFFFFFFFFFFF AND DUP11 PUSH20 0xFFFFFFFFFFFFFFFFFFFFFFFFFFFFFFFFFFFFFFFF AND EQ ISZERO DUP1 ISZERO PUSH2 0x3844 JUMPI POP PUSH1 0x4 PUSH1 0x0 SWAP1 SLOAD SWAP1 PUSH2 0x100 EXP SWAP1 DIV PUSH20 0xFFFFFFFFFFFFFFFFFFFFFFFFFFFFFFFFFFFFFFFF AND PUSH20 0xFFFFFFFFFFFFFFFFFFFFFFFFFFFFFFFFFFFFFFFF AND DUP10 PUSH20 0xFFFFFFFFFFFFFFFFFFFFFFFFFFFFFFFFFFFFFFFF AND EQ JUMPDEST ISZERO PUSH2 0x390E JUMPI PUSH2 0x3853 DUP11 DUP10 PUSH2 0x5E84 JUMP JUMPDEST SWAP1 POP DUP7 DUP2 GT ISZERO PUSH2 0x3898 JUMPI PUSH1 0x40 MLOAD PUSH32 0x8C379A000000000000000000000000000000000000000000000000000000000 DUP2 MSTORE PUSH1 0x4 ADD PUSH2 0x388F SWAP1 PUSH2 0x8BE3 JUMP JUMPDEST PUSH1 0x40 MLOAD DUP1 SWAP2 SUB SWAP1 REVERT JUMPDEST PUSH1 0x1 DUP2 GT PUSH2 0x38DB JUMPI PUSH1 0x40 MLOAD PUSH32 0x8C379A000000000000000000000000000000000000000000000000000000000 DUP2 MSTORE PUSH1 0x4 ADD PUSH2 0x38D2 SWAP1 PUSH2 0x8814 JUMP JUMPDEST PUSH1 0x40 MLOAD DUP1 SWAP2 SUB SWAP1 REVERT JUMPDEST PUSH1 0x0 PUSH2 0x38E6 DUP12 PUSH2 0x422E JUMP JUMPDEST SWAP1 POP PUSH2 0x38F3 DUP12 CALLER DUP5 PUSH2 0x40C7 JUMP JUMPDEST PUSH2 0x3901 DUP12 DUP3 PUSH1 0x0 DUP13 DUP11 PUSH2 0x5802 JUMP JUMPDEST DUP2 DUP10 SWAP5 POP SWAP5 POP POP POP PUSH2 0x3D1A JUMP JUMPDEST PUSH1 0x4 PUSH1 0x0 SWAP1 SLOAD SWAP1 PUSH2 0x100 EXP SWAP1 DIV PUSH20 0xFFFFFFFFFFFFFFFFFFFFFFFFFFFFFFFFFFFFFFFF AND PUSH20 0xFFFFFFFFFFFFFFFFFFFFFFFFFFFFFFFFFFFFFFFF AND DUP11 PUSH20 0xFFFFFFFFFFFFFFFFFFFFFFFFFFFFFFFFFFFFFFFF AND EQ DUP1 ISZERO PUSH2 0x39B9 JUMPI POP PUSH1 0x4 PUSH1 0x0 SWAP1 SLOAD SWAP1 PUSH2 0x100 EXP SWAP1 DIV PUSH20 0xFFFFFFFFFFFFFFFFFFFFFFFFFFFFFFFFFFFFFFFF AND PUSH20 0xFFFFFFFFFFFFFFFFFFFFFFFFFFFFFFFFFFFFFFFF AND DUP10 PUSH20 0xFFFFFFFFFFFFFFFFFFFFFFFFFFFFFFFFFFFFFFFF AND EQ ISZERO JUMPDEST ISZERO PUSH2 0x3A83 JUMPI PUSH2 0x39C8 DUP10 DUP10 PUSH2 0x6048 JUMP JUMPDEST SWAP1 POP DUP7 DUP2 GT ISZERO PUSH2 0x3A0D JUMPI PUSH1 0x40 MLOAD PUSH32 0x8C379A000000000000000000000000000000000000000000000000000000000 DUP2 MSTORE PUSH1 0x4 ADD PUSH2 0x3A04 SWAP1 PUSH2 0x8C4F JUMP JUMPDEST PUSH1 0x40 MLOAD DUP1 SWAP2 SUB SWAP1 REVERT JUMPDEST PUSH1 0x1 DUP2 GT PUSH2 0x3A50 JUMPI PUSH1 0x40 MLOAD PUSH32 0x8C379A000000000000000000000000000000000000000000000000000000000 DUP2 MSTORE PUSH1 0x4 ADD PUSH2 0x3A47 SWAP1 PUSH2 0x8CBB JUMP JUMPDEST PUSH1 0x40 MLOAD DUP1 SWAP2 SUB SWAP1 REVERT JUMPDEST PUSH1 0x0 PUSH2 0x3A5B DUP11 PUSH2 0x422E JUMP JUMPDEST SWAP1 POP PUSH2 0x3A68 DUP12 CALLER DUP5 PUSH2 0x40C7 JUMP JUMPDEST PUSH2 0x3A76 DUP11 DUP3 DUP12 PUSH1 0x0 DUP11 PUSH2 0x5802 JUMP JUMPDEST DUP2 DUP10 SWAP5 POP SWAP5 POP POP POP PUSH2 0x3D1A JUMP JUMPDEST PUSH1 0x4 PUSH1 0x0 SWAP1 SLOAD SWAP1 PUSH2 0x100 EXP SWAP1 DIV PUSH20 0xFFFFFFFFFFFFFFFFFFFFFFFFFFFFFFFFFFFFFFFF AND PUSH20 0xFFFFFFFFFFFFFFFFFFFFFFFFFFFFFFFFFFFFFFFF AND DUP11 PUSH20 0xFFFFFFFFFFFFFFFFFFFFFFFFFFFFFFFFFFFFFFFF AND EQ ISZERO DUP1 ISZERO PUSH2 0x3B2F JUMPI POP PUSH1 0x4 PUSH1 0x0 SWAP1 SLOAD SWAP1 PUSH2 0x100 EXP SWAP1 DIV PUSH20 0xFFFFFFFFFFFFFFFFFFFFFFFFFFFFFFFFFFFFFFFF AND PUSH20 0xFFFFFFFFFFFFFFFFFFFFFFFFFFFFFFFFFFFFFFFF AND DUP10 PUSH20 0xFFFFFFFFFFFFFFFFFFFFFFFFFFFFFFFFFFFFFFFF AND EQ ISZERO JUMPDEST DUP1 ISZERO PUSH2 0x3B67 JUMPI POP DUP9 PUSH20 0xFFFFFFFFFFFFFFFFFFFFFFFFFFFFFFFFFFFFFFFF AND DUP11 PUSH20 0xFFFFFFFFFFFFFFFFFFFFFFFFFFFFFFFFFFFFFFFF AND EQ ISZERO JUMPDEST ISZERO PUSH2 0x3CDF JUMPI PUSH1 0x0 PUSH2 0x3B78 DUP11 DUP11 PUSH2 0x6048 JUMP JUMPDEST SWAP1 POP PUSH1 0x1 DUP2 GT PUSH2 0x3BBD JUMPI PUSH1 0x40 MLOAD PUSH32 0x8C379A000000000000000000000000000000000000000000000000000000000 DUP2 MSTORE PUSH1 0x4 ADD PUSH2 0x3BB4 SWAP1 PUSH2 0x8CBB JUMP JUMPDEST PUSH1 0x40 MLOAD DUP1 SWAP2 SUB SWAP1 REVERT JUMPDEST PUSH2 0x3BC7 DUP12 DUP3 PUSH2 0x5E84 JUMP JUMPDEST SWAP2 POP PUSH1 0x1 DUP3 GT PUSH2 0x3C0C JUMPI PUSH1 0x40 MLOAD PUSH32 0x8C379A000000000000000000000000000000000000000000000000000000000 DUP2 MSTORE PUSH1 0x4 ADD PUSH2 0x3C03 SWAP1 PUSH2 0x8CBB JUMP JUMPDEST PUSH1 0x40 MLOAD DUP1 SWAP2 SUB SWAP1 REVERT JUMPDEST DUP8 DUP3 GT ISZERO PUSH2 0x3C4F JUMPI PUSH1 0x40 MLOAD PUSH32 0x8C379A000000000000000000000000000000000000000000000000000000000 DUP2 MSTORE PUSH1 0x4 ADD PUSH2 0x3C46 SWAP1 PUSH2 0x8BE3 JUMP JUMPDEST PUSH1 0x40 MLOAD DUP1 SWAP2 SUB SWAP1 REVERT JUMPDEST PUSH1 0x1 DUP3 GT PUSH2 0x3C92 JUMPI PUSH1 0x40 MLOAD PUSH32 0x8C379A000000000000000000000000000000000000000000000000000000000 DUP2 MSTORE PUSH1 0x4 ADD PUSH2 0x3C89 SWAP1 PUSH2 0x8814 JUMP JUMPDEST PUSH1 0x40 MLOAD DUP1 SWAP2 SUB SWAP1 REVERT JUMPDEST PUSH1 0x0 PUSH2 0x3C9D DUP13 PUSH2 0x422E JUMP JUMPDEST SWAP1 POP PUSH2 0x3CAA DUP13 CALLER DUP6 PUSH2 0x40C7 JUMP JUMPDEST PUSH2 0x3CB8 DUP13 DUP3 PUSH1 0x0 DUP6 ADDRESS PUSH2 0x5802 JUMP JUMPDEST PUSH2 0x3CC1 DUP12 PUSH2 0x422E JUMP JUMPDEST SWAP1 POP PUSH2 0x3CD1 DUP12 DUP3 DUP13 PUSH1 0x0 DUP12 PUSH2 0x5802 JUMP JUMPDEST DUP3 DUP11 SWAP6 POP SWAP6 POP POP POP POP PUSH2 0x3D1A JUMP JUMPDEST PUSH1 0x40 MLOAD PUSH32 0x8C379A000000000000000000000000000000000000000000000000000000000 DUP2 MSTORE PUSH1 0x4 ADD PUSH2 0x3D11 SWAP1 PUSH2 0x8AE2 JUMP JUMPDEST PUSH1 0x40 MLOAD DUP1 SWAP2 SUB SWAP1 REVERT JUMPDEST POP SWAP7 POP SWAP7 SWAP5 POP POP POP POP POP JUMP JUMPDEST PUSH1 0x0 DUP7 DUP7 SWAP1 POP SWAP1 POP DUP5 DUP5 SWAP1 POP DUP2 EQ PUSH2 0x3D6A JUMPI PUSH1 0x40 MLOAD PUSH32 0xA98A885900000000000000000000000000000000000000000000000000000000 DUP2 MSTORE PUSH1 0x4 ADD PUSH1 0x40 MLOAD DUP1 SWAP2 SUB SWAP1 REVERT JUMPDEST PUSH1 0x0 PUSH20 0xFFFFFFFFFFFFFFFFFFFFFFFFFFFFFFFFFFFFFFFF AND DUP9 PUSH20 0xFFFFFFFFFFFFFFFFFFFFFFFFFFFFFFFFFFFFFFFF AND EQ ISZERO PUSH2 0x3DD1 JUMPI PUSH1 0x40 MLOAD PUSH32 0x3E63C34800000000000000000000000000000000000000000000000000000000 DUP2 MSTORE PUSH1 0x4 ADD PUSH1 0x40 MLOAD DUP1 SWAP2 SUB SWAP1 REVERT JUMPDEST PUSH1 0x0 CALLER SWAP1 POP PUSH1 0x0 JUMPDEST DUP3 DUP2 LT ISZERO PUSH2 0x3FE4 JUMPI PUSH1 0x0 DUP8 DUP8 DUP4 DUP2 DUP2 LT PUSH2 0x3DF6 JUMPI PUSH2 0x3DF5 PUSH2 0x868D JUMP JUMPDEST JUMPDEST SWAP1 POP PUSH1 0x20 MUL ADD CALLDATALOAD SWAP1 POP PUSH1 0x0 PUSH1 0xD PUSH1 0x0 DUP13 DUP13 DUP7 DUP2 DUP2 LT PUSH2 0x3E18 JUMPI PUSH2 0x3E17 PUSH2 0x868D JUMP JUMPDEST JUMPDEST SWAP1 POP PUSH1 0x20 MUL ADD CALLDATALOAD DUP2 MSTORE PUSH1 0x20 ADD SWAP1 DUP2 MSTORE PUSH1 0x20 ADD PUSH1 0x0 KECCAK256 PUSH1 0x0 DUP15 PUSH20 0xFFFFFFFFFFFFFFFFFFFFFFFFFFFFFFFFFFFFFFFF AND PUSH20 0xFFFFFFFFFFFFFFFFFFFFFFFFFFFFFFFFFFFFFFFF AND DUP2 MSTORE PUSH1 0x20 ADD SWAP1 DUP2 MSTORE PUSH1 0x20 ADD PUSH1 0x0 KECCAK256 SLOAD SWAP1 POP DUP2 DUP2 LT ISZERO PUSH2 0x3EA7 JUMPI PUSH1 0x40 MLOAD PUSH32 0x5AD11EC200000000000000000000000000000000000000000000000000000000 DUP2 MSTORE PUSH1 0x4 ADD PUSH1 0x40 MLOAD DUP1 SWAP2 SUB SWAP1 REVERT JUMPDEST DUP2 DUP2 SUB PUSH1 0xD PUSH1 0x0 DUP14 DUP14 DUP8 DUP2 DUP2 LT PUSH2 0x3EC1 JUMPI PUSH2 0x3EC0 PUSH2 0x868D JUMP JUMPDEST JUMPDEST SWAP1 POP PUSH1 0x20 MUL ADD CALLDATALOAD DUP2 MSTORE PUSH1 0x20 ADD SWAP1 DUP2 MSTORE PUSH1 0x20 ADD PUSH1 0x0 KECCAK256 PUSH1 0x0 DUP16 PUSH20 0xFFFFFFFFFFFFFFFFFFFFFFFFFFFFFFFFFFFFFFFF AND PUSH20 0xFFFFFFFFFFFFFFFFFFFFFFFFFFFFFFFFFFFFFFFF AND DUP2 MSTORE PUSH1 0x20 ADD SWAP1 DUP2 MSTORE PUSH1 0x20 ADD PUSH1 0x0 KECCAK256 DUP2 SWAP1 SSTORE POP DUP2 PUSH1 0xD PUSH1 0x0 DUP14 DUP14 DUP8 DUP2 DUP2 LT PUSH2 0x3F2F JUMPI PUSH2 0x3F2E PUSH2 0x868D JUMP JUMPDEST JUMPDEST SWAP1 POP PUSH1 0x20 MUL ADD CALLDATALOAD DUP2 MSTORE PUSH1 0x20 ADD SWAP1 DUP2 MSTORE PUSH1 0x20 ADD PUSH1 0x0 KECCAK256 PUSH1 0x0 DUP15 PUSH20 0xFFFFFFFFFFFFFFFFFFFFFFFFFFFFFFFFFFFFFFFF AND PUSH20 0xFFFFFFFFFFFFFFFFFFFFFFFFFFFFFFFFFFFFFFFF AND DUP2 MSTORE PUSH1 0x20 ADD SWAP1 DUP2 MSTORE PUSH1 0x20 ADD PUSH1 0x0 KECCAK256 PUSH1 0x0 DUP3 DUP3 SLOAD PUSH2 0x3F90 SWAP2 SWAP1 PUSH2 0x8637 JUMP JUMPDEST SWAP3 POP POP DUP2 SWAP1 SSTORE POP DUP2 PUSH1 0x10 PUSH1 0x0 DUP14 DUP14 DUP8 DUP2 DUP2 LT PUSH2 0x3FAF JUMPI PUSH2 0x3FAE PUSH2 0x868D JUMP JUMPDEST JUMPDEST SWAP1 POP PUSH1 0x20 MUL ADD CALLDATALOAD DUP2 MSTORE PUSH1 0x20 ADD SWAP1 DUP2 MSTORE PUSH1 0x20 ADD PUSH1 0x0 KECCAK256 PUSH1 0x0 DUP3 DUP3 SLOAD ADD SWAP3 POP POP DUP2 SWAP1 SSTORE POP POP POP DUP1 PUSH2 0x3FDD SWAP1 PUSH2 0x85EE JUMP JUMPDEST SWAP1 POP PUSH2 0x3DD9 JUMP JUMPDEST POP DUP9 PUSH20 0xFFFFFFFFFFFFFFFFFFFFFFFFFFFFFFFFFFFFFFFF AND DUP11 PUSH20 0xFFFFFFFFFFFFFFFFFFFFFFFFFFFFFFFFFFFFFFFF AND DUP3 PUSH20 0xFFFFFFFFFFFFFFFFFFFFFFFFFFFFFFFFFFFFFFFF AND PUSH32 0x4A39DC06D4C0DBC64B70AF90FD698A233A518AA5D07E595D983B8C0526C8F7FB DUP12 DUP12 DUP12 DUP12 PUSH1 0x40 MLOAD PUSH2 0x405F SWAP5 SWAP4 SWAP3 SWAP2 SWAP1 PUSH2 0x8D3C JUMP JUMPDEST PUSH1 0x40 MLOAD DUP1 SWAP2 SUB SWAP1 LOG4 PUSH2 0x40BB DUP2 DUP12 DUP12 DUP12 DUP12 DUP12 DUP12 DUP12 DUP12 DUP1 DUP1 PUSH1 0x1F ADD PUSH1 0x20 DUP1 SWAP2 DIV MUL PUSH1 0x20 ADD PUSH1 0x40 MLOAD SWAP1 DUP2 ADD PUSH1 0x40 MSTORE DUP1 SWAP4 SWAP3 SWAP2 SWAP1 DUP2 DUP2 MSTORE PUSH1 0x20 ADD DUP4 DUP4 DUP1 DUP3 DUP5 CALLDATACOPY PUSH1 0x0 DUP2 DUP5 ADD MSTORE PUSH1 0x1F NOT PUSH1 0x1F DUP3 ADD AND SWAP1 POP DUP1 DUP4 ADD SWAP3 POP POP POP POP POP POP POP PUSH2 0x64BA JUMP JUMPDEST POP POP POP POP POP POP POP POP POP POP JUMP JUMPDEST PUSH1 0x6 PUSH1 0x0 SWAP1 SLOAD SWAP1 PUSH2 0x100 EXP SWAP1 DIV PUSH20 0xFFFFFFFFFFFFFFFFFFFFFFFFFFFFFFFFFFFFFFFF AND PUSH20 0xFFFFFFFFFFFFFFFFFFFFFFFFFFFFFFFFFFFFFFFF AND DUP4 PUSH20 0xFFFFFFFFFFFFFFFFFFFFFFFFFFFFFFFFFFFFFFFF AND EQ ISZERO PUSH2 0x419F JUMPI DUP1 CALLVALUE LT ISZERO PUSH2 0x4157 JUMPI PUSH1 0x40 MLOAD PUSH32 0xB5DB338C00000000000000000000000000000000000000000000000000000000 DUP2 MSTORE PUSH1 0x4 ADD PUSH1 0x40 MLOAD DUP1 SWAP2 SUB SWAP1 REVERT JUMPDEST DUP1 CALLVALUE GT ISZERO PUSH2 0x419A JUMPI PUSH2 0x4199 PUSH1 0x6 PUSH1 0x0 SWAP1 SLOAD SWAP1 PUSH2 0x100 EXP SWAP1 DIV PUSH20 0xFFFFFFFFFFFFFFFFFFFFFFFFFFFFFFFFFFFFFFFF AND CALLER DUP4 CALLVALUE PUSH2 0x4192 SWAP2 SWAP1 PUSH2 0x8794 JUMP JUMPDEST PUSH1 0x0 PUSH2 0x6609 JUMP JUMPDEST JUMPDEST PUSH2 0x4229 JUMP JUMPDEST PUSH1 0x0 CALLVALUE GT ISZERO PUSH2 0x41E3 JUMPI PUSH1 0x40 MLOAD PUSH32 0x8C379A000000000000000000000000000000000000000000000000000000000 DUP2 MSTORE PUSH1 0x4 ADD PUSH2 0x41DA SWAP1 PUSH2 0x8DC3 JUMP JUMPDEST PUSH1 0x40 MLOAD DUP1 SWAP2 SUB SWAP1 REVERT JUMPDEST ADDRESS PUSH20 0xFFFFFFFFFFFFFFFFFFFFFFFFFFFFFFFFFFFFFFFF AND DUP3 PUSH20 0xFFFFFFFFFFFFFFFFFFFFFFFFFFFFFFFFFFFFFFFF AND EQ ISZERO PUSH2 0x421C JUMPI PUSH2 0x4229 JUMP JUMPDEST PUSH2 0x4228 DUP4 DUP4 ADDRESS DUP5 PUSH2 0x678B JUMP JUMPDEST JUMPDEST POP POP POP JUMP JUMPDEST PUSH1 0x0 DUP1 PUSH1 0x6 PUSH1 0x0 SWAP1 SLOAD SWAP1 PUSH2 0x100 EXP SWAP1 DIV PUSH20 0xFFFFFFFFFFFFFFFFFFFFFFFFFFFFFFFFFFFFFFFF AND PUSH20 0xFFFFFFFFFFFFFFFFFFFFFFFFFFFFFFFFFFFFFFFF AND DUP4 PUSH20 0xFFFFFFFFFFFFFFFFFFFFFFFFFFFFFFFFFFFFFFFF AND EQ ISZERO PUSH2 0x4293 JUMPI SELFBALANCE SWAP1 POP DUP1 SWAP2 POP POP PUSH2 0x4314 JUMP JUMPDEST DUP3 PUSH20 0xFFFFFFFFFFFFFFFFFFFFFFFFFFFFFFFFFFFFFFFF AND PUSH4 0x70A08231 ADDRESS PUSH1 0x40 MLOAD DUP3 PUSH4 0xFFFFFFFF AND PUSH1 0xE0 SHL DUP2 MSTORE PUSH1 0x4 ADD PUSH2 0x42CC SWAP2 SWAP1 PUSH2 0x73AC JUMP JUMPDEST PUSH1 0x20 PUSH1 0x40 MLOAD DUP1 DUP4 SUB DUP2 DUP7 GAS STATICCALL ISZERO DUP1 ISZERO PUSH2 0x42E9 JUMPI RETURNDATASIZE PUSH1 0x0 DUP1 RETURNDATACOPY RETURNDATASIZE PUSH1 0x0 REVERT JUMPDEST POP POP POP POP PUSH1 0x40 MLOAD RETURNDATASIZE PUSH1 0x1F NOT PUSH1 0x1F DUP3 ADD AND DUP3 ADD DUP1 PUSH1 0x40 MSTORE POP DUP2 ADD SWAP1 PUSH2 0x430D SWAP2 SWAP1 PUSH2 0x8DF8 JUMP JUMPDEST SWAP1 POP DUP1 SWAP2 POP POP JUMPDEST SWAP2 SWAP1 POP JUMP JUMPDEST PUSH1 0x0 PUSH1 0x3 DUP3 GT ISZERO PUSH2 0x4380 JUMPI DUP2 SWAP1 POP PUSH1 0x0 PUSH1 0x1 PUSH1 0x2 DUP5 PUSH2 0x4338 SWAP2 SWAP1 PUSH2 0x8863 JUMP JUMPDEST PUSH2 0x4342 SWAP2 SWAP1 PUSH2 0x8637 JUMP JUMPDEST SWAP1 POP JUMPDEST DUP2 DUP2 LT ISZERO PUSH2 0x437A JUMPI DUP1 SWAP2 POP PUSH1 0x2 DUP2 DUP3 DUP6 PUSH2 0x435F SWAP2 SWAP1 PUSH2 0x8863 JUMP JUMPDEST PUSH2 0x4369 SWAP2 SWAP1 PUSH2 0x8637 JUMP JUMPDEST PUSH2 0x4373 SWAP2 SWAP1 PUSH2 0x8863 JUMP JUMPDEST SWAP1 POP PUSH2 0x4345 JUMP JUMPDEST POP PUSH2 0x438E JUMP JUMPDEST PUSH1 0x0 DUP3 EQ PUSH2 0x438D JUMPI PUSH1 0x1 SWAP1 POP JUMPDEST JUMPDEST SWAP2 SWAP1 POP JUMP JUMPDEST PUSH1 0x0 DUP1 PUSH1 0x0 PUSH1 0x7 PUSH1 0x1 ADD SLOAD SWAP1 POP DUP6 DUP6 GT DUP1 ISZERO PUSH2 0x43AF JUMPI POP PUSH1 0x0 DUP7 GT JUMPDEST DUP1 ISZERO PUSH2 0x43BB JUMPI POP PUSH1 0x0 DUP2 GT JUMPDEST ISZERO PUSH2 0x441D JUMPI DUP1 DUP7 PUSH2 0x43CC SWAP2 SWAP1 PUSH2 0x8200 JUMP JUMPDEST DUP2 PUSH1 0x64 PUSH2 0x43D9 SWAP2 SWAP1 PUSH2 0x8794 JUMP JUMPDEST DUP7 PUSH2 0x43E4 SWAP2 SWAP1 PUSH2 0x8200 JUMP JUMPDEST PUSH2 0x43EE SWAP2 SWAP1 PUSH2 0x8637 JUMP JUMPDEST DUP7 DUP7 PUSH2 0x43FA SWAP2 SWAP1 PUSH2 0x8794 JUMP JUMPDEST DUP3 DUP7 PUSH2 0x4406 SWAP2 SWAP1 PUSH2 0x8200 JUMP JUMPDEST PUSH2 0x4410 SWAP2 SWAP1 PUSH2 0x8200 JUMP JUMPDEST PUSH2 0x441A SWAP2 SWAP1 PUSH2 0x8863 JUMP JUMPDEST SWAP2 POP JUMPDEST DUP2 SWAP3 POP POP POP SWAP4 SWAP3 POP POP POP JUMP JUMPDEST PUSH1 0x0 PUSH20 0xFFFFFFFFFFFFFFFFFFFFFFFFFFFFFFFFFFFFFFFF AND DUP5 PUSH20 0xFFFFFFFFFFFFFFFFFFFFFFFFFFFFFFFFFFFFFFFF AND EQ ISZERO PUSH2 0x4490 JUMPI PUSH1 0x40 MLOAD PUSH32 0xF84619AC00000000000000000000000000000000000000000000000000000000 DUP2 MSTORE PUSH1 0x4 ADD PUSH1 0x40 MLOAD DUP1 SWAP2 SUB SWAP1 REVERT JUMPDEST PUSH1 0x0 DUP3 EQ ISZERO PUSH2 0x449E JUMPI PUSH2 0x45BB JUMP JUMPDEST PUSH1 0x0 CALLER SWAP1 POP DUP3 PUSH1 0x10 PUSH1 0x0 DUP7 DUP2 MSTORE PUSH1 0x20 ADD SWAP1 DUP2 MSTORE PUSH1 0x20 ADD PUSH1 0x0 KECCAK256 PUSH1 0x0 DUP3 DUP3 SLOAD PUSH2 0x44C6 SWAP2 SWAP1 PUSH2 0x8637 JUMP JUMPDEST SWAP3 POP POP DUP2 SWAP1 SSTORE POP DUP3 PUSH1 0xD PUSH1 0x0 DUP7 DUP2 MSTORE PUSH1 0x20 ADD SWAP1 DUP2 MSTORE PUSH1 0x20 ADD PUSH1 0x0 KECCAK256 PUSH1 0x0 DUP8 PUSH20 0xFFFFFFFFFFFFFFFFFFFFFFFFFFFFFFFFFFFFFFFF AND PUSH20 0xFFFFFFFFFFFFFFFFFFFFFFFFFFFFFFFFFFFFFFFF AND DUP2 MSTORE PUSH1 0x20 ADD SWAP1 DUP2 MSTORE PUSH1 0x20 ADD PUSH1 0x0 KECCAK256 PUSH1 0x0 DUP3 DUP3 SLOAD ADD SWAP3 POP POP DUP2 SWAP1 SSTORE POP DUP5 PUSH20 0xFFFFFFFFFFFFFFFFFFFFFFFFFFFFFFFFFFFFFFFF AND PUSH1 0x0 PUSH20 0xFFFFFFFFFFFFFFFFFFFFFFFFFFFFFFFFFFFFFFFF AND DUP3 PUSH20 0xFFFFFFFFFFFFFFFFFFFFFFFFFFFFFFFFFFFFFFFF AND PUSH32 0xC3D58168C5AE7397731D063D5BBF3D657854427343F4C083240F7AACAA2D0F62 DUP8 DUP8 PUSH1 0x40 MLOAD PUSH2 0x45A2 SWAP3 SWAP2 SWAP1 PUSH2 0x7EC0 JUMP JUMPDEST PUSH1 0x40 MLOAD DUP1 SWAP2 SUB SWAP1 LOG4 PUSH2 0x45B9 DUP2 PUSH1 0x0 DUP8 DUP8 DUP8 DUP8 PUSH2 0x68BB JUMP JUMPDEST POP JUMPDEST POP POP POP POP JUMP JUMPDEST PUSH1 0x0 DUP3 PUSH1 0x0 PUSH1 0x1 PUSH1 0x0 DUP4 PUSH20 0xFFFFFFFFFFFFFFFFFFFFFFFFFFFFFFFFFFFFFFFF AND PUSH20 0xFFFFFFFFFFFFFFFFFFFFFFFFFFFFFFFFFFFFFFFF AND DUP2 MSTORE PUSH1 0x20 ADD SWAP1 DUP2 MSTORE PUSH1 0x20 ADD PUSH1 0x0 KECCAK256 SLOAD EQ DUP1 PUSH2 0x465F JUMPI POP PUSH1 0x4 PUSH1 0x0 SWAP1 SLOAD SWAP1 PUSH2 0x100 EXP SWAP1 DIV PUSH20 0xFFFFFFFFFFFFFFFFFFFFFFFFFFFFFFFFFFFFFFFF AND PUSH20 0xFFFFFFFFFFFFFFFFFFFFFFFFFFFFFFFFFFFFFFFF AND DUP2 PUSH20 0xFFFFFFFFFFFFFFFFFFFFFFFFFFFFFFFFFFFFFFFF AND EQ JUMPDEST ISZERO PUSH2 0x469F JUMPI PUSH1 0x40 MLOAD PUSH32 0x8C379A000000000000000000000000000000000000000000000000000000000 DUP2 MSTORE PUSH1 0x4 ADD PUSH2 0x4696 SWAP1 PUSH2 0x8708 JUMP JUMPDEST PUSH1 0x40 MLOAD DUP1 SWAP2 SUB SWAP1 REVERT JUMPDEST PUSH1 0x0 DUP1 PUSH1 0x1 PUSH1 0x0 DUP8 PUSH20 0xFFFFFFFFFFFFFFFFFFFFFFFFFFFFFFFFFFFFFFFF AND PUSH20 0xFFFFFFFFFFFFFFFFFFFFFFFFFFFFFFFFFFFFFFFF AND DUP2 MSTORE PUSH1 0x20 ADD SWAP1 DUP2 MSTORE PUSH1 0x20 ADD PUSH1 0x0 KECCAK256 SLOAD DUP2 SLOAD DUP2 LT PUSH2 0x46F3 JUMPI PUSH2 0x46F2 PUSH2 0x868D JUMP JUMPDEST JUMPDEST SWAP1 PUSH1 0x0 MSTORE PUSH1 0x20 PUSH1 0x0 KECCAK256 SWAP1 PUSH1 0x4 MUL ADD SWAP1 POP PUSH2 0x477B DUP5 DUP3 PUSH1 0x1 ADD PUSH1 0x0 SWAP1 SLOAD SWAP1 PUSH2 0x100 EXP SWAP1 DIV PUSH16 0xFFFFFFFFFFFFFFFFFFFFFFFFFFFFFFFF AND PUSH16 0xFFFFFFFFFFFFFFFFFFFFFFFFFFFFFFFF AND DUP4 PUSH1 0x1 ADD PUSH1 0x10 SWAP1 SLOAD SWAP1 PUSH2 0x100 EXP SWAP1 DIV PUSH16 0xFFFFFFFFFFFFFFFFFFFFFFFFFFFFFFFF AND PUSH16 0xFFFFFFFFFFFFFFFFFFFFFFFFFFFFFFFF AND PUSH2 0x4776 DUP6 PUSH2 0x4943 JUMP JUMPDEST PUSH2 0x6A04 JUMP JUMPDEST SWAP3 POP POP POP SWAP3 SWAP2 POP POP JUMP JUMPDEST PUSH1 0x0 DUP3 PUSH1 0x0 PUSH1 0x1 PUSH1 0x0 DUP4 PUSH20 0xFFFFFFFFFFFFFFFFFFFFFFFFFFFFFFFFFFFFFFFF AND PUSH20 0xFFFFFFFFFFFFFFFFFFFFFFFFFFFFFFFFFFFFFFFF AND DUP2 MSTORE PUSH1 0x20 ADD SWAP1 DUP2 MSTORE PUSH1 0x20 ADD PUSH1 0x0 KECCAK256 SLOAD EQ DUP1 PUSH2 0x4823 JUMPI POP PUSH1 0x4 PUSH1 0x0 SWAP1 SLOAD SWAP1 PUSH2 0x100 EXP SWAP1 DIV PUSH20 0xFFFFFFFFFFFFFFFFFFFFFFFFFFFFFFFFFFFFFFFF AND PUSH20 0xFFFFFFFFFFFFFFFFFFFFFFFFFFFFFFFFFFFFFFFF AND DUP2 PUSH20 0xFFFFFFFFFFFFFFFFFFFFFFFFFFFFFFFFFFFFFFFF AND EQ JUMPDEST ISZERO PUSH2 0x4863 JUMPI PUSH1 0x40 MLOAD PUSH32 0x8C379A000000000000000000000000000000000000000000000000000000000 DUP2 MSTORE PUSH1 0x4 ADD PUSH2 0x485A SWAP1 PUSH2 0x8708 JUMP JUMPDEST PUSH1 0x40 MLOAD DUP1 SWAP2 SUB SWAP1 REVERT JUMPDEST PUSH1 0x0 DUP1 PUSH1 0x1 PUSH1 0x0 DUP8 PUSH20 0xFFFFFFFFFFFFFFFFFFFFFFFFFFFFFFFFFFFFFFFF AND PUSH20 0xFFFFFFFFFFFFFFFFFFFFFFFFFFFFFFFFFFFFFFFF AND DUP2 MSTORE PUSH1 0x20 ADD SWAP1 DUP2 MSTORE PUSH1 0x20 ADD PUSH1 0x0 KECCAK256 SLOAD DUP2 SLOAD DUP2 LT PUSH2 0x48B7 JUMPI PUSH2 0x48B6 PUSH2 0x868D JUMP JUMPDEST JUMPDEST SWAP1 PUSH1 0x0 MSTORE PUSH1 0x20 PUSH1 0x0 KECCAK256 SWAP1 PUSH1 0x4 MUL ADD SWAP1 POP PUSH2 0x4939 DUP5 DUP3 PUSH1 0x1 ADD PUSH1 0x10 SWAP1 SLOAD SWAP1 PUSH2 0x100 EXP SWAP1 DIV PUSH16 0xFFFFFFFFFFFFFFFFFFFFFFFFFFFFFFFF AND PUSH16 0xFFFFFFFFFFFFFFFFFFFFFFFFFFFFFFFF AND DUP4 PUSH1 0x1 ADD PUSH1 0x0 SWAP1 SLOAD SWAP1 PUSH2 0x100 EXP SWAP1 DIV PUSH16 0xFFFFFFFFFFFFFFFFFFFFFFFFFFFFFFFF AND PUSH16 0xFFFFFFFFFFFFFFFFFFFFFFFFFFFFFFFF AND PUSH2 0x2710 PUSH2 0x6A04 JUMP JUMPDEST SWAP3 POP POP POP SWAP3 SWAP2 POP POP JUMP JUMPDEST PUSH1 0x0 DUP1 PUSH2 0x494E PUSH2 0x6A55 JUMP JUMPDEST SWAP1 POP PUSH1 0x0 PUSH1 0x8 PUSH1 0x1 DUP4 PUSH2 0x4961 SWAP2 SWAP1 PUSH2 0x8637 JUMP JUMPDEST PUSH2 0x496B SWAP2 SWAP1 PUSH2 0x8E25 JUMP JUMPDEST SWAP1 POP PUSH1 0x0 DUP1 JUMPDEST PUSH1 0x8 DUP2 LT ISZERO PUSH2 0x49EA JUMPI DUP4 DUP2 EQ DUP1 PUSH2 0x4987 JUMPI POP DUP3 DUP2 EQ JUMPDEST ISZERO PUSH2 0x4991 JUMPI PUSH2 0x49D7 JUMP JUMPDEST DUP6 PUSH1 0x0 ADD DUP2 PUSH1 0x8 DUP2 LT PUSH2 0x49A7 JUMPI PUSH2 0x49A6 PUSH2 0x868D JUMP JUMPDEST JUMPDEST PUSH1 0x8 SWAP2 DUP3 DUP3 DIV ADD SWAP2 SWAP1 MOD PUSH1 0x4 MUL SWAP1 SLOAD SWAP1 PUSH2 0x100 EXP SWAP1 DIV PUSH4 0xFFFFFFFF AND PUSH4 0xFFFFFFFF AND DUP3 PUSH2 0x49D4 SWAP2 SWAP1 PUSH2 0x8637 JUMP JUMPDEST SWAP2 POP JUMPDEST DUP1 DUP1 PUSH2 0x49E2 SWAP1 PUSH2 0x85EE JUMP JUMPDEST SWAP2 POP POP PUSH2 0x4971 JUMP JUMPDEST POP PUSH8 0x8AC7230489E80000 DUP2 PUSH2 0x49FF SWAP2 SWAP1 PUSH2 0x8200 JUMP JUMPDEST SWAP1 POP PUSH1 0x0 PUSH5 0x2540BE400 PUSH1 0x7 PUSH1 0x4 ADD SLOAD DUP8 PUSH1 0x1 ADD PUSH1 0x10 SWAP1 SLOAD SWAP1 PUSH2 0x100 EXP SWAP1 DIV PUSH16 0xFFFFFFFFFFFFFFFFFFFFFFFFFFFFFFFF AND PUSH16 0xFFFFFFFFFFFFFFFFFFFFFFFFFFFFFFFF AND PUSH2 0x4A4C SWAP2 SWAP1 PUSH2 0x8200 JUMP JUMPDEST PUSH2 0x4A56 SWAP2 SWAP1 PUSH2 0x8863 JUMP JUMPDEST SWAP1 POP PUSH1 0x0 PUSH5 0x2540BE400 PUSH1 0x7 PUSH1 0x5 ADD SLOAD DUP9 PUSH1 0x1 ADD PUSH1 0x10 SWAP1 SLOAD SWAP1 PUSH2 0x100 EXP SWAP1 DIV PUSH16 0xFFFFFFFFFFFFFFFFFFFFFFFFFFFFFFFF AND PUSH16 0xFFFFFFFFFFFFFFFFFFFFFFFFFFFFFFFF AND PUSH2 0x4AA3 SWAP2 SWAP1 PUSH2 0x8200 JUMP JUMPDEST PUSH2 0x4AAD SWAP2 SWAP1 PUSH2 0x8863 JUMP JUMPDEST SWAP1 POP PUSH1 0x0 DUP3 DUP5 GT PUSH2 0x4AC5 JUMPI PUSH1 0x7 PUSH1 0x3 ADD SLOAD SWAP1 POP PUSH2 0x4B3B JUMP JUMPDEST DUP4 DUP4 LT DUP1 ISZERO PUSH2 0x4AD3 JUMPI POP DUP2 DUP5 LT JUMPDEST ISZERO PUSH2 0x4B31 JUMPI DUP3 DUP3 PUSH2 0x4AE4 SWAP2 SWAP1 PUSH2 0x8794 JUMP JUMPDEST PUSH1 0x7 PUSH1 0x2 ADD SLOAD PUSH1 0x7 PUSH1 0x3 ADD SLOAD PUSH2 0x4AFA SWAP2 SWAP1 PUSH2 0x8794 JUMP JUMPDEST DUP5 DUP7 PUSH2 0x4B06 SWAP2 SWAP1 PUSH2 0x8794 JUMP JUMPDEST PUSH2 0x4B10 SWAP2 SWAP1 PUSH2 0x8200 JUMP JUMPDEST PUSH2 0x4B1A SWAP2 SWAP1 PUSH2 0x8863 JUMP JUMPDEST PUSH1 0x7 PUSH1 0x3 ADD SLOAD PUSH2 0x4B2A SWAP2 SWAP1 PUSH2 0x8794 JUMP JUMPDEST SWAP1 POP PUSH2 0x4B3A JUMP JUMPDEST PUSH1 0x7 PUSH1 0x2 ADD SLOAD SWAP1 POP JUMPDEST JUMPDEST DUP1 PUSH2 0x2710 PUSH2 0x4B49 SWAP2 SWAP1 PUSH2 0x8794 JUMP JUMPDEST SWAP7 POP POP POP POP POP POP POP SWAP2 SWAP1 POP JUMP JUMPDEST PUSH1 0x0 PUSH1 0x14 PUSH1 0x0 SWAP1 SLOAD SWAP1 PUSH2 0x100 EXP SWAP1 DIV PUSH20 0xFFFFFFFFFFFFFFFFFFFFFFFFFFFFFFFFFFFFFFFF AND SWAP1 POP DUP2 PUSH1 0x14 PUSH1 0x0 PUSH2 0x100 EXP DUP2 SLOAD DUP2 PUSH20 0xFFFFFFFFFFFFFFFFFFFFFFFFFFFFFFFFFFFFFFFF MUL NOT AND SWAP1 DUP4 PUSH20 0xFFFFFFFFFFFFFFFFFFFFFFFFFFFFFFFFFFFFFFFF AND MUL OR SWAP1 SSTORE POP DUP2 PUSH20 0xFFFFFFFFFFFFFFFFFFFFFFFFFFFFFFFFFFFFFFFF AND DUP2 PUSH20 0xFFFFFFFFFFFFFFFFFFFFFFFFFFFFFFFFFFFFFFFF AND PUSH32 0x8BE0079C531659141344CD1FD0A4F28419497F9722A3DAAFE3B4186F6B6457E0 PUSH1 0x40 MLOAD PUSH1 0x40 MLOAD DUP1 SWAP2 SUB SWAP1 LOG3 POP POP JUMP JUMPDEST PUSH1 0x0 DUP1 PUSH1 0x1 PUSH1 0x0 DUP7 PUSH20 0xFFFFFFFFFFFFFFFFFFFFFFFFFFFFFFFFFFFFFFFF AND PUSH20 0xFFFFFFFFFFFFFFFFFFFFFFFFFFFFFFFFFFFFFFFF AND DUP2 MSTORE PUSH1 0x20 ADD SWAP1 DUP2 MSTORE PUSH1 0x20 ADD PUSH1 0x0 KECCAK256 SLOAD SWAP1 POP PUSH1 0x0 DUP1 DUP3 DUP2 SLOAD DUP2 LT PUSH2 0x4C76 JUMPI PUSH2 0x4C75 PUSH2 0x868D JUMP JUMPDEST JUMPDEST SWAP1 PUSH1 0x0 MSTORE PUSH1 0x20 PUSH1 0x0 KECCAK256 SWAP1 PUSH1 0x4 MUL ADD SWAP1 POP PUSH1 0x0 PUSH2 0x4C91 DUP8 PUSH2 0x422E JUMP JUMPDEST SWAP1 POP PUSH1 0x0 DUP3 PUSH1 0x1 ADD PUSH1 0x0 SWAP1 SLOAD SWAP1 PUSH2 0x100 EXP SWAP1 DIV PUSH16 0xFFFFFFFFFFFFFFFFFFFFFFFFFFFFFFFF AND PUSH16 0xFFFFFFFFFFFFFFFFFFFFFFFFFFFFFFFF AND DUP3 PUSH2 0x4CD3 SWAP2 SWAP1 PUSH2 0x8794 JUMP JUMPDEST SWAP1 POP PUSH1 0x0 PUSH1 0x2 SLOAD PUSH2 0x4D05 PUSH1 0x4 PUSH1 0x0 SWAP1 SLOAD SWAP1 PUSH2 0x100 EXP SWAP1 DIV PUSH20 0xFFFFFFFFFFFFFFFFFFFFFFFFFFFFFFFFFFFFFFFF AND PUSH2 0x422E JUMP JUMPDEST PUSH2 0x4D0F SWAP2 SWAP1 PUSH2 0x8794 JUMP JUMPDEST SWAP1 POP PUSH1 0x0 PUSH1 0x10 PUSH1 0x0 DUP8 DUP2 MSTORE PUSH1 0x20 ADD SWAP1 DUP2 MSTORE PUSH1 0x20 ADD PUSH1 0x0 KECCAK256 SLOAD SWAP1 POP PUSH1 0x0 DUP2 DUP11 DUP8 PUSH1 0x1 ADD PUSH1 0x0 SWAP1 SLOAD SWAP1 PUSH2 0x100 EXP SWAP1 DIV PUSH16 0xFFFFFFFFFFFFFFFFFFFFFFFFFFFFFFFF AND PUSH16 0xFFFFFFFFFFFFFFFFFFFFFFFFFFFFFFFF AND PUSH2 0x4D6A SWAP2 SWAP1 PUSH2 0x8200 JUMP JUMPDEST PUSH2 0x4D74 SWAP2 SWAP1 PUSH2 0x8863 JUMP JUMPDEST SWAP1 POP PUSH1 0x0 DUP3 DUP12 DUP9 PUSH1 0x1 ADD PUSH1 0x10 SWAP1 SLOAD SWAP1 PUSH2 0x100 EXP SWAP1 DIV PUSH16 0xFFFFFFFFFFFFFFFFFFFFFFFFFFFFFFFF AND PUSH16 0xFFFFFFFFFFFFFFFFFFFFFFFFFFFFFFFF AND PUSH2 0x4DB7 SWAP2 SWAP1 PUSH2 0x8200 JUMP JUMPDEST PUSH2 0x4DC1 SWAP2 SWAP1 PUSH2 0x8863 JUMP JUMPDEST SWAP1 POP PUSH1 0x0 PUSH2 0x4E3D DUP9 PUSH1 0x1 ADD PUSH1 0x10 SWAP1 SLOAD SWAP1 PUSH2 0x100 EXP SWAP1 DIV PUSH16 0xFFFFFFFFFFFFFFFFFFFFFFFFFFFFFFFF AND PUSH16 0xFFFFFFFFFFFFFFFFFFFFFFFFFFFFFFFF AND DUP10 PUSH1 0x1 ADD PUSH1 0x0 SWAP1 SLOAD SWAP1 PUSH2 0x100 EXP SWAP1 DIV PUSH16 0xFFFFFFFFFFFFFFFFFFFFFFFFFFFFFFFF AND PUSH16 0xFFFFFFFFFFFFFFFFFFFFFFFFFFFFFFFF AND PUSH2 0x4E38 SWAP2 SWAP1 PUSH2 0x8200 JUMP JUMPDEST PUSH2 0x4319 JUMP JUMPDEST SWAP1 POP PUSH1 0x0 PUSH2 0x4E7E DUP10 PUSH1 0x2 ADD PUSH1 0x0 SWAP1 SLOAD SWAP1 PUSH2 0x100 EXP SWAP1 DIV PUSH16 0xFFFFFFFFFFFFFFFFFFFFFFFFFFFFFFFF AND PUSH16 0xFFFFFFFFFFFFFFFFFFFFFFFFFFFFFFFF AND DUP4 DUP8 PUSH2 0x4393 JUMP JUMPDEST SWAP1 POP PUSH2 0x4EC0 PUSH1 0x7 PUSH1 0x0 ADD PUSH1 0x0 SWAP1 SLOAD SWAP1 PUSH2 0x100 EXP SWAP1 DIV PUSH20 0xFFFFFFFFFFFFFFFFFFFFFFFFFFFFFFFFFFFFFFFF AND DUP12 DUP4 PUSH1 0x40 MLOAD DUP1 PUSH1 0x20 ADD PUSH1 0x40 MSTORE DUP1 PUSH1 0x0 DUP2 MSTORE POP PUSH2 0x4429 JUMP JUMPDEST DUP3 DUP7 PUSH1 0x2 SLOAD PUSH2 0x4ECF SWAP2 SWAP1 PUSH2 0x8637 JUMP JUMPDEST PUSH2 0x4ED9 SWAP2 SWAP1 PUSH2 0x8794 JUMP JUMPDEST PUSH1 0x2 DUP2 SWAP1 SSTORE POP DUP4 DUP8 DUP11 PUSH1 0x1 ADD PUSH1 0x0 SWAP1 SLOAD SWAP1 PUSH2 0x100 EXP SWAP1 DIV PUSH16 0xFFFFFFFFFFFFFFFFFFFFFFFFFFFFFFFF AND PUSH2 0x4F0C SWAP2 SWAP1 PUSH2 0x88BD JUMP JUMPDEST PUSH2 0x4F16 SWAP2 SWAP1 PUSH2 0x8E56 JUMP JUMPDEST DUP10 PUSH1 0x1 ADD PUSH1 0x0 PUSH2 0x100 EXP DUP2 SLOAD DUP2 PUSH16 0xFFFFFFFFFFFFFFFFFFFFFFFFFFFFFFFF MUL NOT AND SWAP1 DUP4 PUSH16 0xFFFFFFFFFFFFFFFFFFFFFFFFFFFFFFFF AND MUL OR SWAP1 SSTORE POP DUP3 DUP7 DUP11 PUSH1 0x1 ADD PUSH1 0x10 SWAP1 SLOAD SWAP1 PUSH2 0x100 EXP SWAP1 DIV PUSH16 0xFFFFFFFFFFFFFFFFFFFFFFFFFFFFFFFF AND PUSH2 0x4F7D SWAP2 SWAP1 PUSH2 0x88BD JUMP JUMPDEST PUSH2 0x4F87 SWAP2 SWAP1 PUSH2 0x8E56 JUMP JUMPDEST DUP10 PUSH1 0x1 ADD PUSH1 0x10 PUSH2 0x100 EXP DUP2 SLOAD DUP2 PUSH16 0xFFFFFFFFFFFFFFFFFFFFFFFFFFFFFFFF MUL NOT AND SWAP1 DUP4 PUSH16 0xFFFFFFFFFFFFFFFFFFFFFFFFFFFFFFFF AND MUL OR SWAP1 SSTORE POP PUSH2 0x5039 DUP10 PUSH1 0x1 ADD PUSH1 0x10 SWAP1 SLOAD SWAP1 PUSH2 0x100 EXP SWAP1 DIV PUSH16 0xFFFFFFFFFFFFFFFFFFFFFFFFFFFFFFFF AND PUSH16 0xFFFFFFFFFFFFFFFFFFFFFFFFFFFFFFFF AND DUP11 PUSH1 0x1 ADD PUSH1 0x0 SWAP1 SLOAD SWAP1 PUSH2 0x100 EXP SWAP1 DIV PUSH16 0xFFFFFFFFFFFFFFFFFFFFFFFFFFFFFFFF AND PUSH16 0xFFFFFFFFFFFFFFFFFFFFFFFFFFFFFFFF AND PUSH2 0x5034 SWAP2 SWAP1 PUSH2 0x8200 JUMP JUMPDEST PUSH2 0x4319 JUMP JUMPDEST DUP10 PUSH1 0x2 ADD PUSH1 0x0 PUSH2 0x100 EXP DUP2 SLOAD DUP2 PUSH16 0xFFFFFFFFFFFFFFFFFFFFFFFFFFFFFFFF MUL NOT AND SWAP1 DUP4 PUSH16 0xFFFFFFFFFFFFFFFFFFFFFFFFFFFFFFFF AND MUL OR SWAP1 SSTORE POP PUSH2 0x507E CALLER DUP12 DUP16 PUSH2 0x6A76 JUMP JUMPDEST PUSH1 0x4 PUSH1 0x0 SWAP1 SLOAD SWAP1 PUSH2 0x100 EXP SWAP1 DIV PUSH20 0xFFFFFFFFFFFFFFFFFFFFFFFFFFFFFFFFFFFFFFFF AND PUSH20 0xFFFFFFFFFFFFFFFFFFFFFFFFFFFFFFFFFFFFFFFF AND PUSH4 0x18A8AD87 ADDRESS DUP6 PUSH1 0x40 MLOAD DUP4 PUSH4 0xFFFFFFFF AND PUSH1 0xE0 SHL DUP2 MSTORE PUSH1 0x4 ADD PUSH2 0x50DB SWAP3 SWAP2 SWAP1 PUSH2 0x8894 JUMP JUMPDEST PUSH1 0x0 PUSH1 0x40 MLOAD DUP1 DUP4 SUB DUP2 PUSH1 0x0 DUP8 DUP1 EXTCODESIZE ISZERO DUP1 ISZERO PUSH2 0x50F5 JUMPI PUSH1 0x0 DUP1 REVERT JUMPDEST POP GAS CALL ISZERO DUP1 ISZERO PUSH2 0x5109 JUMPI RETURNDATASIZE PUSH1 0x0 DUP1 RETURNDATACOPY RETURNDATASIZE PUSH1 0x0 REVERT JUMPDEST POP POP POP POP POP POP PUSH2 0x511C DUP13 DUP12 DUP5 PUSH1 0x1 PUSH2 0x6609 JUMP JUMPDEST PUSH32 0x1DC8BB69DF2B8E91FBDCBFCF93D951B3F0000F085A95FE3F7946D6161439245D DUP13 DUP4 DUP4 DUP15 PUSH1 0x40 MLOAD PUSH2 0x5151 SWAP5 SWAP4 SWAP3 SWAP2 SWAP1 PUSH2 0x8903 JUMP JUMPDEST PUSH1 0x40 MLOAD DUP1 SWAP2 SUB SWAP1 LOG1 PUSH32 0x51AB1232A73B82B6B0ACB0FA91B834CF6E258A1858C4E23C72CE97241C71AA0D DUP13 DUP9 PUSH1 0x1 ADD PUSH1 0x0 SWAP1 SLOAD SWAP1 PUSH2 0x100 EXP SWAP1 DIV PUSH16 0xFFFFFFFFFFFFFFFFFFFFFFFFFFFFFFFF AND DUP10 PUSH1 0x1 ADD PUSH1 0x10 SWAP1 SLOAD SWAP1 PUSH2 0x100 EXP SWAP1 DIV PUSH16 0xFFFFFFFFFFFFFFFFFFFFFFFFFFFFFFFF AND DUP11 PUSH1 0x3 ADD SLOAD PUSH1 0x40 MLOAD PUSH2 0x51D2 SWAP5 SWAP4 SWAP3 SWAP2 SWAP1 PUSH2 0x8979 JUMP JUMPDEST PUSH1 0x40 MLOAD DUP1 SWAP2 SUB SWAP1 LOG1 DUP2 SWAP9 POP POP POP POP POP POP POP POP POP SWAP4 SWAP3 POP POP POP JUMP JUMPDEST DUP5 PUSH1 0x0 PUSH1 0x1 PUSH1 0x0 DUP4 PUSH20 0xFFFFFFFFFFFFFFFFFFFFFFFFFFFFFFFFFFFFFFFF AND PUSH20 0xFFFFFFFFFFFFFFFFFFFFFFFFFFFFFFFFFFFFFFFF AND DUP2 MSTORE PUSH1 0x20 ADD SWAP1 DUP2 MSTORE PUSH1 0x20 ADD PUSH1 0x0 KECCAK256 SLOAD GT ISZERO PUSH2 0x5267 JUMPI PUSH1 0x40 MLOAD PUSH32 0x402670DF00000000000000000000000000000000000000000000000000000000 DUP2 MSTORE PUSH1 0x4 ADD PUSH1 0x40 MLOAD DUP1 SWAP2 SUB SWAP1 REVERT JUMPDEST PUSH2 0x5272 DUP7 CALLER DUP8 PUSH2 0x40C7 JUMP JUMPDEST PUSH1 0x4 PUSH1 0x0 SWAP1 SLOAD SWAP1 PUSH2 0x100 EXP SWAP1 DIV PUSH20 0xFFFFFFFFFFFFFFFFFFFFFFFFFFFFFFFFFFFFFFFF AND PUSH20 0xFFFFFFFFFFFFFFFFFFFFFFFFFFFFFFFFFFFFFFFF AND PUSH4 0xBB9FF5D ADDRESS DUP7 PUSH1 0x40 MLOAD DUP4 PUSH4 0xFFFFFFFF AND PUSH1 0xE0 SHL DUP2 MSTORE PUSH1 0x4 ADD PUSH2 0x52CF SWAP3 SWAP2 SWAP1 PUSH2 0x8894 JUMP JUMPDEST PUSH1 0x0 PUSH1 0x40 MLOAD DUP1 DUP4 SUB DUP2 PUSH1 0x0 DUP8 DUP1 EXTCODESIZE ISZERO DUP1 ISZERO PUSH2 0x52E9 JUMPI PUSH1 0x0 DUP1 REVERT JUMPDEST POP GAS CALL ISZERO DUP1 ISZERO PUSH2 0x52FD JUMPI RETURNDATASIZE PUSH1 0x0 DUP1 RETURNDATACOPY RETURNDATASIZE PUSH1 0x0 REVERT JUMPDEST POP POP POP POP PUSH2 0x530A DUP7 PUSH2 0x422E JUMP JUMPDEST SWAP5 POP PUSH1 0x1 DUP6 GT PUSH2 0x534F JUMPI PUSH1 0x40 MLOAD PUSH32 0x8C379A000000000000000000000000000000000000000000000000000000000 DUP2 MSTORE PUSH1 0x4 ADD PUSH2 0x5346 SWAP1 PUSH2 0x8814 JUMP JUMPDEST PUSH1 0x40 MLOAD DUP1 SWAP2 SUB SWAP1 REVERT JUMPDEST PUSH1 0x0 PUSH2 0x5365 DUP6 DUP8 PUSH2 0x5360 SWAP2 SWAP1 PUSH2 0x8200 JUMP JUMPDEST PUSH2 0x4319 JUMP JUMPDEST SWAP1 POP PUSH2 0x536F PUSH2 0x70C0 JUMP JUMPDEST PUSH1 0x0 JUMPDEST PUSH1 0x8 DUP2 LT ISZERO PUSH2 0x53BA JUMPI PUSH1 0x1 DUP3 DUP3 PUSH1 0x8 DUP2 LT PUSH2 0x5390 JUMPI PUSH2 0x538F PUSH2 0x868D JUMP JUMPDEST JUMPDEST PUSH1 0x20 MUL ADD SWAP1 PUSH4 0xFFFFFFFF AND SWAP1 DUP2 PUSH4 0xFFFFFFFF AND DUP2 MSTORE POP POP DUP1 DUP1 PUSH2 0x53B2 SWAP1 PUSH2 0x85EE JUMP JUMPDEST SWAP2 POP POP PUSH2 0x5372 JUMP JUMPDEST POP PUSH1 0x0 PUSH1 0x40 MLOAD DUP1 PUSH1 0xA0 ADD PUSH1 0x40 MSTORE DUP1 DUP4 DUP2 MSTORE PUSH1 0x20 ADD DUP10 PUSH16 0xFFFFFFFFFFFFFFFFFFFFFFFFFFFFFFFF AND DUP2 MSTORE PUSH1 0x20 ADD DUP9 PUSH16 0xFFFFFFFFFFFFFFFFFFFFFFFFFFFFFFFF AND DUP2 MSTORE PUSH1 0x20 ADD DUP5 PUSH16 0xFFFFFFFFFFFFFFFFFFFFFFFFFFFFFFFF AND DUP2 MSTORE PUSH1 0x20 ADD DUP8 DUP2 MSTORE POP SWAP1 POP PUSH1 0x0 DUP1 DUP1 SLOAD SWAP1 POP SWAP1 POP PUSH1 0x0 DUP3 SWAP1 DUP1 PUSH1 0x1 DUP2 SLOAD ADD DUP1 DUP3 SSTORE DUP1 SWAP2 POP POP PUSH1 0x1 SWAP1 SUB SWAP1 PUSH1 0x0 MSTORE PUSH1 0x20 PUSH1 0x0 KECCAK256 SWAP1 PUSH1 0x4 MUL ADD PUSH1 0x0 SWAP1 SWAP2 SWAP1 SWAP2 SWAP1 SWAP2 POP PUSH1 0x0 DUP3 ADD MLOAD DUP2 PUSH1 0x0 ADD SWAP1 PUSH1 0x8 PUSH2 0x5468 SWAP3 SWAP2 SWAP1 PUSH2 0x70E3 JUMP JUMPDEST POP PUSH1 0x20 DUP3 ADD MLOAD DUP2 PUSH1 0x1 ADD PUSH1 0x0 PUSH2 0x100 EXP DUP2 SLOAD DUP2 PUSH16 0xFFFFFFFFFFFFFFFFFFFFFFFFFFFFFFFF MUL NOT AND SWAP1 DUP4 PUSH16 0xFFFFFFFFFFFFFFFFFFFFFFFFFFFFFFFF AND MUL OR SWAP1 SSTORE POP PUSH1 0x40 DUP3 ADD MLOAD DUP2 PUSH1 0x1 ADD PUSH1 0x10 PUSH2 0x100 EXP DUP2 SLOAD DUP2 PUSH16 0xFFFFFFFFFFFFFFFFFFFFFFFFFFFFFFFF MUL NOT AND SWAP1 DUP4 PUSH16 0xFFFFFFFFFFFFFFFFFFFFFFFFFFFFFFFF AND MUL OR SWAP1 SSTORE POP PUSH1 0x60 DUP3 ADD MLOAD DUP2 PUSH1 0x2 ADD PUSH1 0x0 PUSH2 0x100 EXP DUP2 SLOAD DUP2 PUSH16 0xFFFFFFFFFFFFFFFFFFFFFFFFFFFFFFFF MUL NOT AND SWAP1 DUP4 PUSH16 0xFFFFFFFFFFFFFFFFFFFFFFFFFFFFFFFF AND MUL OR SWAP1 SSTORE POP PUSH1 0x80 DUP3 ADD MLOAD DUP2 PUSH1 0x3 ADD SSTORE POP POP DUP1 PUSH1 0x1 PUSH1 0x0 DUP13 PUSH20 0xFFFFFFFFFFFFFFFFFFFFFFFFFFFFFFFFFFFFFFFF AND PUSH20 0xFFFFFFFFFFFFFFFFFFFFFFFFFFFFFFFFFFFFFFFF AND DUP2 MSTORE PUSH1 0x20 ADD SWAP1 DUP2 MSTORE PUSH1 0x20 ADD PUSH1 0x0 KECCAK256 DUP2 SWAP1 SSTORE POP DUP8 PUSH1 0x2 PUSH1 0x0 DUP3 DUP3 SLOAD ADD SWAP3 POP POP DUP2 SWAP1 SSTORE POP PUSH2 0x55A5 PUSH2 0xDEAD DUP3 PUSH2 0x3E8 PUSH1 0x40 MLOAD DUP1 PUSH1 0x20 ADD PUSH1 0x40 MSTORE DUP1 PUSH1 0x0 DUP2 MSTORE POP PUSH2 0x4429 JUMP JUMPDEST PUSH1 0x0 PUSH2 0x3E8 DUP6 PUSH2 0x55B5 SWAP2 SWAP1 PUSH2 0x8794 JUMP JUMPDEST SWAP1 POP PUSH2 0x55D2 DUP8 DUP4 DUP4 PUSH1 0x40 MLOAD DUP1 PUSH1 0x20 ADD PUSH1 0x40 MSTORE DUP1 PUSH1 0x0 DUP2 MSTORE POP PUSH2 0x4429 JUMP JUMPDEST PUSH32 0x17AA8D0E85DB1D0531A8181B5BB84E1D4ED744DB1CADD8814ACD3D181FF30137 DUP12 DUP4 PUSH1 0x40 MLOAD PUSH2 0x5603 SWAP3 SWAP2 SWAP1 PUSH2 0x8894 JUMP JUMPDEST PUSH1 0x40 MLOAD DUP1 SWAP2 SUB SWAP1 LOG1 PUSH32 0x64B83944E79C3CE8D4C297411DE637C3E102D064677AAC0C163976EBDCD6F50E DUP12 DUP12 DUP12 DUP5 PUSH1 0x40 MLOAD PUSH2 0x5640 SWAP5 SWAP4 SWAP3 SWAP2 SWAP1 PUSH2 0x8903 JUMP JUMPDEST PUSH1 0x40 MLOAD DUP1 SWAP2 SUB SWAP1 LOG1 PUSH32 0x51AB1232A73B82B6B0ACB0FA91B834CF6E258A1858C4E23C72CE97241C71AA0D DUP12 DUP5 PUSH1 0x20 ADD MLOAD DUP6 PUSH1 0x40 ADD MLOAD DUP7 PUSH1 0x80 ADD MLOAD PUSH1 0x40 MLOAD PUSH2 0x5689 SWAP5 SWAP4 SWAP3 SWAP2 SWAP1 PUSH2 0x8979 JUMP JUMPDEST PUSH1 0x40 MLOAD DUP1 SWAP2 SUB SWAP1 LOG1 POP POP POP POP POP POP POP POP POP POP POP JUMP JUMPDEST DUP2 PUSH20 0xFFFFFFFFFFFFFFFFFFFFFFFFFFFFFFFFFFFFFFFF AND DUP4 PUSH20 0xFFFFFFFFFFFFFFFFFFFFFFFFFFFFFFFFFFFFFFFF AND EQ ISZERO PUSH2 0x5704 JUMPI PUSH1 0x40 MLOAD PUSH32 0xC0532DC800000000000000000000000000000000000000000000000000000000 DUP2 MSTORE PUSH1 0x4 ADD PUSH1 0x40 MLOAD DUP1 SWAP2 SUB SWAP1 REVERT JUMPDEST DUP1 PUSH1 0xE PUSH1 0x0 DUP6 PUSH20 0xFFFFFFFFFFFFFFFFFFFFFFFFFFFFFFFFFFFFFFFF AND PUSH20 0xFFFFFFFFFFFFFFFFFFFFFFFFFFFFFFFFFFFFFFFF AND DUP2 MSTORE PUSH1 0x20 ADD SWAP1 DUP2 MSTORE PUSH1 0x20 ADD PUSH1 0x0 KECCAK256 PUSH1 0x0 DUP5 PUSH20 0xFFFFFFFFFFFFFFFFFFFFFFFFFFFFFFFFFFFFFFFF AND PUSH20 0xFFFFFFFFFFFFFFFFFFFFFFFFFFFFFFFFFFFFFFFF AND DUP2 MSTORE PUSH1 0x20 ADD SWAP1 DUP2 MSTORE PUSH1 0x20 ADD PUSH1 0x0 KECCAK256 PUSH1 0x0 PUSH2 0x100 EXP DUP2 SLOAD DUP2 PUSH1 0xFF MUL NOT AND SWAP1 DUP4 ISZERO ISZERO MUL OR SWAP1 SSTORE POP DUP2 PUSH20 0xFFFFFFFFFFFFFFFFFFFFFFFFFFFFFFFFFFFFFFFF AND DUP4 PUSH20 0xFFFFFFFFFFFFFFFFFFFFFFFFFFFFFFFFFFFFFFFF AND PUSH32 0x17307EAB39AB6107E8899845AD3D59BD9653F200F220920489CA2B5937696C31 DUP4 PUSH1 0x40 MLOAD PUSH2 0x57F5 SWAP2 SWAP1 PUSH2 0x7355 JUMP JUMPDEST PUSH1 0x40 MLOAD DUP1 SWAP2 SUB SWAP1 LOG3 POP POP POP JUMP JUMPDEST DUP5 PUSH1 0x0 PUSH1 0x1 PUSH1 0x0 DUP4 PUSH20 0xFFFFFFFFFFFFFFFFFFFFFFFFFFFFFFFFFFFFFFFF AND PUSH20 0xFFFFFFFFFFFFFFFFFFFFFFFFFFFFFFFFFFFFFFFF AND DUP2 MSTORE PUSH1 0x20 ADD SWAP1 DUP2 MSTORE PUSH1 0x20 ADD PUSH1 0x0 KECCAK256 SLOAD EQ DUP1 PUSH2 0x589E JUMPI POP PUSH1 0x4 PUSH1 0x0 SWAP1 SLOAD SWAP1 PUSH2 0x100 EXP SWAP1 DIV PUSH20 0xFFFFFFFFFFFFFFFFFFFFFFFFFFFFFFFFFFFFFFFF AND PUSH20 0xFFFFFFFFFFFFFFFFFFFFFFFFFFFFFFFFFFFFFFFF AND DUP2 PUSH20 0xFFFFFFFFFFFFFFFFFFFFFFFFFFFFFFFFFFFFFFFF AND EQ JUMPDEST ISZERO PUSH2 0x58DE JUMPI PUSH1 0x40 MLOAD PUSH32 0x8C379A000000000000000000000000000000000000000000000000000000000 DUP2 MSTORE PUSH1 0x4 ADD PUSH2 0x58D5 SWAP1 PUSH2 0x8708 JUMP JUMPDEST PUSH1 0x40 MLOAD DUP1 SWAP2 SUB SWAP1 REVERT JUMPDEST PUSH1 0x0 DUP1 PUSH1 0x1 PUSH1 0x0 DUP10 PUSH20 0xFFFFFFFFFFFFFFFFFFFFFFFFFFFFFFFFFFFFFFFF AND PUSH20 0xFFFFFFFFFFFFFFFFFFFFFFFFFFFFFFFFFFFFFFFF AND DUP2 MSTORE PUSH1 0x20 ADD SWAP1 DUP2 MSTORE PUSH1 0x20 ADD PUSH1 0x0 KECCAK256 SLOAD DUP2 SLOAD DUP2 LT PUSH2 0x5932 JUMPI PUSH2 0x5931 PUSH2 0x868D JUMP JUMPDEST JUMPDEST SWAP1 PUSH1 0x0 MSTORE PUSH1 0x20 PUSH1 0x0 KECCAK256 SWAP1 PUSH1 0x4 MUL ADD SWAP1 POP PUSH1 0x0 PUSH1 0x2 SLOAD PUSH2 0x5972 PUSH1 0x4 PUSH1 0x0 SWAP1 SLOAD SWAP1 PUSH2 0x100 EXP SWAP1 DIV PUSH20 0xFFFFFFFFFFFFFFFFFFFFFFFFFFFFFFFFFFFFFFFF AND PUSH2 0x422E JUMP JUMPDEST PUSH2 0x597C SWAP2 SWAP1 PUSH2 0x8794 JUMP JUMPDEST SWAP1 POP PUSH1 0x0 PUSH2 0x5989 DUP10 PUSH2 0x422E JUMP JUMPDEST SWAP1 POP PUSH1 0x0 DUP9 DUP3 PUSH2 0x5999 SWAP2 SWAP1 PUSH2 0x8794 JUMP JUMPDEST SWAP1 POP PUSH1 0x1 DUP4 DUP3 PUSH2 0x59A9 SWAP2 SWAP1 PUSH2 0x8637 JUMP JUMPDEST GT PUSH2 0x59E9 JUMPI PUSH1 0x40 MLOAD PUSH32 0x8C379A000000000000000000000000000000000000000000000000000000000 DUP2 MSTORE PUSH1 0x4 ADD PUSH2 0x59E0 SWAP1 PUSH2 0x8ED6 JUMP JUMPDEST PUSH1 0x40 MLOAD DUP1 SWAP2 SUB SWAP1 REVERT JUMPDEST PUSH1 0x0 PUSH1 0x1 DUP5 GT DUP1 ISZERO PUSH2 0x59FC JUMPI POP PUSH1 0x1 DUP3 GT ISZERO JUMPDEST PUSH2 0x5A0E JUMPI PUSH2 0x5A09 DUP6 PUSH2 0x4943 JUMP JUMPDEST PUSH2 0x5A12 JUMP JUMPDEST PUSH2 0x2710 JUMPDEST SWAP1 POP PUSH32 0xFFFFFFFFFFFFFFFFFFFFFFFFFFFFFFFFFFFFFFFFFFFFFFFFFFFFFFFFFFFFFFFF DUP6 PUSH1 0x3 ADD SLOAD LT DUP1 ISZERO PUSH2 0x5A55 JUMPI POP DUP8 DUP5 DUP7 PUSH1 0x3 ADD SLOAD PUSH2 0x5A53 SWAP2 SWAP1 PUSH2 0x8637 JUMP JUMPDEST LT JUMPDEST ISZERO PUSH2 0x5A95 JUMPI PUSH1 0x40 MLOAD PUSH32 0x8C379A000000000000000000000000000000000000000000000000000000000 DUP2 MSTORE PUSH1 0x4 ADD PUSH2 0x5A8C SWAP1 PUSH2 0x8F42 JUMP JUMPDEST PUSH1 0x40 MLOAD DUP1 SWAP2 SUB SWAP1 REVERT JUMPDEST PUSH1 0x0 PUSH2 0x2710 DUP1 PUSH2 0x5AA5 SWAP2 SWAP1 PUSH2 0x8200 JUMP JUMPDEST DUP5 DUP8 PUSH1 0x1 ADD PUSH1 0x10 SWAP1 SLOAD SWAP1 PUSH2 0x100 EXP SWAP1 DIV PUSH16 0xFFFFFFFFFFFFFFFFFFFFFFFFFFFFFFFF AND PUSH16 0xFFFFFFFFFFFFFFFFFFFFFFFFFFFFFFFF AND PUSH2 0x5AE3 SWAP2 SWAP1 PUSH2 0x8200 JUMP JUMPDEST PUSH2 0x5AED SWAP2 SWAP1 PUSH2 0x8200 JUMP JUMPDEST SWAP1 POP PUSH1 0x0 DUP10 DUP7 PUSH1 0x2 SLOAD PUSH2 0x5B00 SWAP2 SWAP1 PUSH2 0x8637 JUMP JUMPDEST PUSH2 0x5B0A SWAP2 SWAP1 PUSH2 0x8794 JUMP JUMPDEST SWAP1 POP PUSH1 0x0 DUP11 DUP8 DUP10 PUSH1 0x1 ADD PUSH1 0x10 SWAP1 SLOAD SWAP1 PUSH2 0x100 EXP SWAP1 DIV PUSH16 0xFFFFFFFFFFFFFFFFFFFFFFFFFFFFFFFF AND PUSH16 0xFFFFFFFFFFFFFFFFFFFFFFFFFFFFFFFF AND PUSH2 0x5B4D SWAP2 SWAP1 PUSH2 0x8637 JUMP JUMPDEST PUSH2 0x5B57 SWAP2 SWAP1 PUSH2 0x8794 JUMP JUMPDEST SWAP1 POP DUP12 DUP7 PUSH2 0x5B65 SWAP2 SWAP1 PUSH2 0x8794 JUMP JUMPDEST SWAP6 POP PUSH1 0x0 DUP5 PUSH2 0x2710 PUSH2 0x5B77 SWAP2 SWAP1 PUSH2 0x8794 JUMP JUMPDEST DUP7 PUSH2 0x5B82 SWAP2 SWAP1 PUSH2 0x8200 JUMP JUMPDEST PUSH2 0x2710 DUP9 PUSH2 0x5B90 SWAP2 SWAP1 PUSH2 0x8200 JUMP JUMPDEST PUSH2 0x5B9A SWAP2 SWAP1 PUSH2 0x8794 JUMP JUMPDEST DUP6 PUSH2 0x2710 PUSH2 0x5BA8 SWAP2 SWAP1 PUSH2 0x8794 JUMP JUMPDEST DUP10 PUSH2 0x5BB3 SWAP2 SWAP1 PUSH2 0x8200 JUMP JUMPDEST PUSH2 0x2710 DUP5 PUSH2 0x5BC1 SWAP2 SWAP1 PUSH2 0x8200 JUMP JUMPDEST PUSH2 0x5BCB SWAP2 SWAP1 PUSH2 0x8794 JUMP JUMPDEST PUSH2 0x5BD5 SWAP2 SWAP1 PUSH2 0x8200 JUMP JUMPDEST SWAP1 POP DUP4 DUP2 LT ISZERO PUSH2 0x5C1A JUMPI PUSH1 0x40 MLOAD PUSH32 0x8C379A000000000000000000000000000000000000000000000000000000000 DUP2 MSTORE PUSH1 0x4 ADD PUSH2 0x5C11 SWAP1 PUSH2 0x8FAE JUMP JUMPDEST PUSH1 0x40 MLOAD DUP1 SWAP2 SUB SWAP1 REVERT JUMPDEST DUP3 PUSH1 0x2 DUP2 SWAP1 SSTORE POP DUP2 DUP10 PUSH1 0x1 ADD PUSH1 0x10 PUSH2 0x100 EXP DUP2 SLOAD DUP2 PUSH16 0xFFFFFFFFFFFFFFFFFFFFFFFFFFFFFFFF MUL NOT AND SWAP1 DUP4 PUSH16 0xFFFFFFFFFFFFFFFFFFFFFFFFFFFFFFFF AND MUL OR SWAP1 SSTORE POP PUSH32 0xFFFFFFFFFFFFFFFFFFFFFFFFFFFFFFFFFFFFFFFFFFFFFFFFFFFFFFFFFFFFFFFF DUP10 PUSH1 0x3 ADD SLOAD LT ISZERO PUSH2 0x5CAC JUMPI DUP12 DUP9 DUP11 PUSH1 0x3 ADD SLOAD PUSH2 0x5C99 SWAP2 SWAP1 PUSH2 0x8637 JUMP JUMPDEST PUSH2 0x5CA3 SWAP2 SWAP1 PUSH2 0x8794 JUMP JUMPDEST DUP10 PUSH1 0x3 ADD DUP2 SWAP1 SSTORE POP JUMPDEST POP POP POP POP PUSH1 0x0 PUSH2 0x5CBA PUSH2 0x6A55 JUMP JUMPDEST SWAP1 POP PUSH1 0x0 PUSH1 0x8 PUSH1 0x1 DUP4 PUSH2 0x5CCD SWAP2 SWAP1 PUSH2 0x8637 JUMP JUMPDEST PUSH2 0x5CD7 SWAP2 SWAP1 PUSH2 0x8E25 JUMP JUMPDEST SWAP1 POP PUSH8 0x8AC7230489E80000 DUP11 GT ISZERO PUSH2 0x5D9D JUMPI PUSH1 0x0 PUSH8 0x8AC7230489E80000 DUP12 PUSH2 0x5CFF SWAP2 SWAP1 PUSH2 0x8863 JUMP JUMPDEST DUP9 PUSH1 0x0 ADD DUP5 PUSH1 0x8 DUP2 LT PUSH2 0x5D15 JUMPI PUSH2 0x5D14 PUSH2 0x868D JUMP JUMPDEST JUMPDEST PUSH1 0x8 SWAP2 DUP3 DUP3 DIV ADD SWAP2 SWAP1 MOD PUSH1 0x4 MUL SWAP1 SLOAD SWAP1 PUSH2 0x100 EXP SWAP1 DIV PUSH4 0xFFFFFFFF AND PUSH4 0xFFFFFFFF AND PUSH2 0x5D41 SWAP2 SWAP1 PUSH2 0x8637 JUMP JUMPDEST SWAP1 POP PUSH4 0xFFFFFFFF DUP1 AND DUP2 LT PUSH2 0x5D5A JUMPI PUSH4 0xFFFFFFFF PUSH2 0x5D5C JUMP JUMPDEST DUP1 JUMPDEST DUP9 PUSH1 0x0 ADD DUP5 PUSH1 0x8 DUP2 LT PUSH2 0x5D72 JUMPI PUSH2 0x5D71 PUSH2 0x868D JUMP JUMPDEST JUMPDEST PUSH1 0x8 SWAP2 DUP3 DUP3 DIV ADD SWAP2 SWAP1 MOD PUSH1 0x4 MUL PUSH2 0x100 EXP DUP2 SLOAD DUP2 PUSH4 0xFFFFFFFF MUL NOT AND SWAP1 DUP4 PUSH4 0xFFFFFFFF AND MUL OR SWAP1 SSTORE POP POP JUMPDEST PUSH1 0x1 DUP8 PUSH1 0x0 ADD DUP3 PUSH1 0x8 DUP2 LT PUSH2 0x5DB5 JUMPI PUSH2 0x5DB4 PUSH2 0x868D JUMP JUMPDEST JUMPDEST PUSH1 0x8 SWAP2 DUP3 DUP3 DIV ADD SWAP2 SWAP1 MOD PUSH1 0x4 MUL SWAP1 SLOAD SWAP1 PUSH2 0x100 EXP SWAP1 DIV PUSH4 0xFFFFFFFF AND PUSH4 0xFFFFFFFF AND GT ISZERO PUSH2 0x5E1F JUMPI PUSH1 0x1 DUP8 PUSH1 0x0 ADD DUP3 PUSH1 0x8 DUP2 LT PUSH2 0x5DF5 JUMPI PUSH2 0x5DF4 PUSH2 0x868D JUMP JUMPDEST JUMPDEST PUSH1 0x8 SWAP2 DUP3 DUP3 DIV ADD SWAP2 SWAP1 MOD PUSH1 0x4 MUL PUSH2 0x100 EXP DUP2 SLOAD DUP2 PUSH4 0xFFFFFFFF MUL NOT AND SWAP1 DUP4 PUSH4 0xFFFFFFFF AND MUL OR SWAP1 SSTORE POP JUMPDEST PUSH2 0x5E2C DUP14 DUP11 DUP14 PUSH1 0x1 PUSH2 0x6609 JUMP JUMPDEST PUSH2 0x5E5B PUSH1 0x4 PUSH1 0x0 SWAP1 SLOAD SWAP1 PUSH2 0x100 EXP SWAP1 DIV PUSH20 0xFFFFFFFFFFFFFFFFFFFFFFFFFFFFFFFFFFFFFFFF AND DUP11 DUP13 PUSH1 0x1 PUSH2 0x6609 JUMP JUMPDEST POP POP POP POP POP POP POP POP POP POP POP POP POP JUMP JUMPDEST DUP1 PUSH1 0xF SWAP1 DUP1 MLOAD SWAP1 PUSH1 0x20 ADD SWAP1 PUSH2 0x5E80 SWAP3 SWAP2 SWAP1 PUSH2 0x6F68 JUMP JUMPDEST POP POP JUMP JUMPDEST PUSH1 0x0 DUP3 PUSH1 0x0 PUSH1 0x1 PUSH1 0x0 DUP4 PUSH20 0xFFFFFFFFFFFFFFFFFFFFFFFFFFFFFFFFFFFFFFFF AND PUSH20 0xFFFFFFFFFFFFFFFFFFFFFFFFFFFFFFFFFFFFFFFF AND DUP2 MSTORE PUSH1 0x20 ADD SWAP1 DUP2 MSTORE PUSH1 0x20 ADD PUSH1 0x0 KECCAK256 SLOAD EQ DUP1 PUSH2 0x5F22 JUMPI POP PUSH1 0x4 PUSH1 0x0 SWAP1 SLOAD SWAP1 PUSH2 0x100 EXP SWAP1 DIV PUSH20 0xFFFFFFFFFFFFFFFFFFFFFFFFFFFFFFFFFFFFFFFF AND PUSH20 0xFFFFFFFFFFFFFFFFFFFFFFFFFFFFFFFFFFFFFFFF AND DUP2 PUSH20 0xFFFFFFFFFFFFFFFFFFFFFFFFFFFFFFFFFFFFFFFF AND EQ JUMPDEST ISZERO PUSH2 0x5F62 JUMPI PUSH1 0x40 MLOAD PUSH32 0x8C379A000000000000000000000000000000000000000000000000000000000 DUP2 MSTORE PUSH1 0x4 ADD PUSH2 0x5F59 SWAP1 PUSH2 0x8708 JUMP JUMPDEST PUSH1 0x40 MLOAD DUP1 SWAP2 SUB SWAP1 REVERT JUMPDEST PUSH1 0x0 DUP1 PUSH1 0x1 PUSH1 0x0 DUP8 PUSH20 0xFFFFFFFFFFFFFFFFFFFFFFFFFFFFFFFFFFFFFFFF AND PUSH20 0xFFFFFFFFFFFFFFFFFFFFFFFFFFFFFFFFFFFFFFFF AND DUP2 MSTORE PUSH1 0x20 ADD SWAP1 DUP2 MSTORE PUSH1 0x20 ADD PUSH1 0x0 KECCAK256 SLOAD DUP2 SLOAD DUP2 LT PUSH2 0x5FB6 JUMPI PUSH2 0x5FB5 PUSH2 0x868D JUMP JUMPDEST JUMPDEST SWAP1 PUSH1 0x0 MSTORE PUSH1 0x20 PUSH1 0x0 KECCAK256 SWAP1 PUSH1 0x4 MUL ADD SWAP1 POP PUSH2 0x603E DUP5 DUP3 PUSH1 0x1 ADD PUSH1 0x0 SWAP1 SLOAD SWAP1 PUSH2 0x100 EXP SWAP1 DIV PUSH16 0xFFFFFFFFFFFFFFFFFFFFFFFFFFFFFFFF AND PUSH16 0xFFFFFFFFFFFFFFFFFFFFFFFFFFFFFFFF AND DUP4 PUSH1 0x1 ADD PUSH1 0x10 SWAP1 SLOAD SWAP1 PUSH2 0x100 EXP SWAP1 DIV PUSH16 0xFFFFFFFFFFFFFFFFFFFFFFFFFFFFFFFF AND PUSH16 0xFFFFFFFFFFFFFFFFFFFFFFFFFFFFFFFF AND PUSH2 0x6039 DUP6 PUSH2 0x4943 JUMP JUMPDEST PUSH2 0x6C6F JUMP JUMPDEST SWAP3 POP POP POP SWAP3 SWAP2 POP POP JUMP JUMPDEST PUSH1 0x0 DUP3 PUSH1 0x0 PUSH1 0x1 PUSH1 0x0 DUP4 PUSH20 0xFFFFFFFFFFFFFFFFFFFFFFFFFFFFFFFFFFFFFFFF AND PUSH20 0xFFFFFFFFFFFFFFFFFFFFFFFFFFFFFFFFFFFFFFFF AND DUP2 MSTORE PUSH1 0x20 ADD SWAP1 DUP2 MSTORE PUSH1 0x20 ADD PUSH1 0x0 KECCAK256 SLOAD EQ DUP1 PUSH2 0x60E6 JUMPI POP PUSH1 0x4 PUSH1 0x0 SWAP1 SLOAD SWAP1 PUSH2 0x100 EXP SWAP1 DIV PUSH20 0xFFFFFFFFFFFFFFFFFFFFFFFFFFFFFFFFFFFFFFFF AND PUSH20 0xFFFFFFFFFFFFFFFFFFFFFFFFFFFFFFFFFFFFFFFF AND DUP2 PUSH20 0xFFFFFFFFFFFFFFFFFFFFFFFFFFFFFFFFFFFFFFFF AND EQ JUMPDEST ISZERO PUSH2 0x6126 JUMPI PUSH1 0x40 MLOAD PUSH32 0x8C379A000000000000000000000000000000000000000000000000000000000 DUP2 MSTORE PUSH1 0x4 ADD PUSH2 0x611D SWAP1 PUSH2 0x8708 JUMP JUMPDEST PUSH1 0x40 MLOAD DUP1 SWAP2 SUB SWAP1 REVERT JUMPDEST PUSH1 0x0 DUP1 PUSH1 0x1 PUSH1 0x0 DUP8 PUSH20 0xFFFFFFFFFFFFFFFFFFFFFFFFFFFFFFFFFFFFFFFF AND PUSH20 0xFFFFFFFFFFFFFFFFFFFFFFFFFFFFFFFFFFFFFFFF AND DUP2 MSTORE PUSH1 0x20 ADD SWAP1 DUP2 MSTORE PUSH1 0x20 ADD PUSH1 0x0 KECCAK256 SLOAD DUP2 SLOAD DUP2 LT PUSH2 0x617A JUMPI PUSH2 0x6179 PUSH2 0x868D JUMP JUMPDEST JUMPDEST SWAP1 PUSH1 0x0 MSTORE PUSH1 0x20 PUSH1 0x0 KECCAK256 SWAP1 PUSH1 0x4 MUL ADD SWAP1 POP PUSH2 0x61FC DUP5 DUP3 PUSH1 0x1 ADD PUSH1 0x10 SWAP1 SLOAD SWAP1 PUSH2 0x100 EXP SWAP1 DIV PUSH16 0xFFFFFFFFFFFFFFFFFFFFFFFFFFFFFFFF AND PUSH16 0xFFFFFFFFFFFFFFFFFFFFFFFFFFFFFFFF AND DUP4 PUSH1 0x1 ADD PUSH1 0x0 SWAP1 SLOAD SWAP1 PUSH2 0x100 EXP SWAP1 DIV PUSH16 0xFFFFFFFFFFFFFFFFFFFFFFFFFFFFFFFF AND PUSH16 0xFFFFFFFFFFFFFFFFFFFFFFFFFFFFFFFF AND PUSH2 0x2710 PUSH2 0x6C6F JUMP JUMPDEST SWAP3 POP POP POP SWAP3 SWAP2 POP POP JUMP JUMPDEST PUSH1 0x0 PUSH20 0xFFFFFFFFFFFFFFFFFFFFFFFFFFFFFFFFFFFFFFFF AND DUP6 PUSH20 0xFFFFFFFFFFFFFFFFFFFFFFFFFFFFFFFFFFFFFFFF AND EQ ISZERO PUSH2 0x626D JUMPI PUSH1 0x40 MLOAD PUSH32 0x3E63C34800000000000000000000000000000000000000000000000000000000 DUP2 MSTORE PUSH1 0x4 ADD PUSH1 0x40 MLOAD DUP1 SWAP2 SUB SWAP1 REVERT JUMPDEST PUSH1 0x0 CALLER SWAP1 POP PUSH1 0x0 PUSH1 0xD PUSH1 0x0 DUP8 DUP2 MSTORE PUSH1 0x20 ADD SWAP1 DUP2 MSTORE PUSH1 0x20 ADD PUSH1 0x0 KECCAK256 PUSH1 0x0 DUP10 PUSH20 0xFFFFFFFFFFFFFFFFFFFFFFFFFFFFFFFFFFFFFFFF AND PUSH20 0xFFFFFFFFFFFFFFFFFFFFFFFFFFFFFFFFFFFFFFFF AND DUP2 MSTORE PUSH1 0x20 ADD SWAP1 DUP2 MSTORE PUSH1 0x20 ADD PUSH1 0x0 KECCAK256 SLOAD SWAP1 POP DUP5 DUP2 LT ISZERO PUSH2 0x6301 JUMPI PUSH1 0x40 MLOAD PUSH32 0x5AD11EC200000000000000000000000000000000000000000000000000000000 DUP2 MSTORE PUSH1 0x4 ADD PUSH1 0x40 MLOAD DUP1 SWAP2 SUB SWAP1 REVERT JUMPDEST DUP5 DUP2 SUB PUSH1 0xD PUSH1 0x0 DUP9 DUP2 MSTORE PUSH1 0x20 ADD SWAP1 DUP2 MSTORE PUSH1 0x20 ADD PUSH1 0x0 KECCAK256 PUSH1 0x0 DUP11 PUSH20 0xFFFFFFFFFFFFFFFFFFFFFFFFFFFFFFFFFFFFFFFF AND PUSH20 0xFFFFFFFFFFFFFFFFFFFFFFFFFFFFFFFFFFFFFFFF AND DUP2 MSTORE PUSH1 0x20 ADD SWAP1 DUP2 MSTORE PUSH1 0x20 ADD PUSH1 0x0 KECCAK256 DUP2 SWAP1 SSTORE POP DUP5 PUSH1 0xD PUSH1 0x0 DUP9 DUP2 MSTORE PUSH1 0x20 ADD SWAP1 DUP2 MSTORE PUSH1 0x20 ADD PUSH1 0x0 KECCAK256 PUSH1 0x0 DUP10 PUSH20 0xFFFFFFFFFFFFFFFFFFFFFFFFFFFFFFFFFFFFFFFF AND PUSH20 0xFFFFFFFFFFFFFFFFFFFFFFFFFFFFFFFFFFFFFFFF AND DUP2 MSTORE PUSH1 0x20 ADD SWAP1 DUP2 MSTORE PUSH1 0x20 ADD PUSH1 0x0 KECCAK256 PUSH1 0x0 DUP3 DUP3 SLOAD PUSH2 0x63B8 SWAP2 SWAP1 PUSH2 0x8637 JUMP JUMPDEST SWAP3 POP POP DUP2 SWAP1 SSTORE POP DUP5 PUSH1 0x10 PUSH1 0x0 DUP9 DUP2 MSTORE PUSH1 0x20 ADD SWAP1 DUP2 MSTORE PUSH1 0x20 ADD PUSH1 0x0 KECCAK256 PUSH1 0x0 DUP3 DUP3 SLOAD ADD SWAP3 POP POP DUP2 SWAP1 SSTORE POP DUP7 PUSH20 0xFFFFFFFFFFFFFFFFFFFFFFFFFFFFFFFFFFFFFFFF AND DUP9 PUSH20 0xFFFFFFFFFFFFFFFFFFFFFFFFFFFFFFFFFFFFFFFF AND DUP4 PUSH20 0xFFFFFFFFFFFFFFFFFFFFFFFFFFFFFFFFFFFFFFFF AND PUSH32 0xC3D58168C5AE7397731D063D5BBF3D657854427343F4C083240F7AACAA2D0F62 DUP10 DUP10 PUSH1 0x40 MLOAD PUSH2 0x6456 SWAP3 SWAP2 SWAP1 PUSH2 0x7EC0 JUMP JUMPDEST PUSH1 0x40 MLOAD DUP1 SWAP2 SUB SWAP1 LOG4 PUSH2 0x64B0 DUP3 DUP10 DUP10 DUP10 DUP10 DUP10 DUP10 DUP1 DUP1 PUSH1 0x1F ADD PUSH1 0x20 DUP1 SWAP2 DIV MUL PUSH1 0x20 ADD PUSH1 0x40 MLOAD SWAP1 DUP2 ADD PUSH1 0x40 MSTORE DUP1 SWAP4 SWAP3 SWAP2 SWAP1 DUP2 DUP2 MSTORE PUSH1 0x20 ADD DUP4 DUP4 DUP1 DUP3 DUP5 CALLDATACOPY PUSH1 0x0 DUP2 DUP5 ADD MSTORE PUSH1 0x1F NOT PUSH1 0x1F DUP3 ADD AND SWAP1 POP DUP1 DUP4 ADD SWAP3 POP POP POP POP POP POP POP PUSH2 0x68BB JUMP JUMPDEST POP POP POP POP POP POP POP POP JUMP JUMPDEST PUSH2 0x64C3 DUP7 PUSH2 0x6CC6 JUMP JUMPDEST ISZERO PUSH2 0x65FF JUMPI DUP6 PUSH20 0xFFFFFFFFFFFFFFFFFFFFFFFFFFFFFFFFFFFFFFFF AND PUSH4 0xBC197C81 DUP10 DUP10 DUP9 DUP9 DUP9 DUP9 DUP9 PUSH1 0x40 MLOAD DUP9 PUSH4 0xFFFFFFFF AND PUSH1 0xE0 SHL DUP2 MSTORE PUSH1 0x4 ADD PUSH2 0x650D SWAP8 SWAP7 SWAP6 SWAP5 SWAP4 SWAP3 SWAP2 SWAP1 PUSH2 0x9023 JUMP JUMPDEST PUSH1 0x20 PUSH1 0x40 MLOAD DUP1 DUP4 SUB DUP2 PUSH1 0x0 DUP8 GAS CALL SWAP3 POP POP POP DUP1 ISZERO PUSH2 0x6549 JUMPI POP PUSH1 0x40 MLOAD RETURNDATASIZE PUSH1 0x1F NOT PUSH1 0x1F DUP3 ADD AND DUP3 ADD DUP1 PUSH1 0x40 MSTORE POP DUP2 ADD SWAP1 PUSH2 0x6546 SWAP2 SWAP1 PUSH2 0x90A4 JUMP JUMPDEST PUSH1 0x1 JUMPDEST PUSH2 0x657F JUMPI PUSH1 0x40 MLOAD PUSH32 0x45D406B200000000000000000000000000000000000000000000000000000000 DUP2 MSTORE PUSH1 0x4 ADD PUSH1 0x40 MLOAD DUP1 SWAP2 SUB SWAP1 REVERT JUMPDEST PUSH4 0xBC197C81 PUSH1 0xE0 SHL PUSH28 0xFFFFFFFFFFFFFFFFFFFFFFFFFFFFFFFFFFFFFFFFFFFFFFFFFFFFFFFF NOT AND DUP2 PUSH28 0xFFFFFFFFFFFFFFFFFFFFFFFFFFFFFFFFFFFFFFFFFFFFFFFFFFFFFFFF NOT AND EQ PUSH2 0x65FD JUMPI PUSH1 0x40 MLOAD PUSH32 0x2BAA526E00000000000000000000000000000000000000000000000000000000 DUP2 MSTORE PUSH1 0x4 ADD PUSH1 0x40 MLOAD DUP1 SWAP2 SUB SWAP1 REVERT JUMPDEST POP JUMPDEST POP POP POP POP POP POP POP POP JUMP JUMPDEST ADDRESS PUSH20 0xFFFFFFFFFFFFFFFFFFFFFFFFFFFFFFFFFFFFFFFF AND DUP4 PUSH20 0xFFFFFFFFFFFFFFFFFFFFFFFFFFFFFFFFFFFFFFFF AND EQ DUP1 PUSH2 0x6644 JUMPI POP PUSH1 0x1 DUP3 GT ISZERO JUMPDEST ISZERO PUSH2 0x664E JUMPI PUSH2 0x6785 JUMP JUMPDEST PUSH1 0x6 PUSH1 0x0 SWAP1 SLOAD SWAP1 PUSH2 0x100 EXP SWAP1 DIV PUSH20 0xFFFFFFFFFFFFFFFFFFFFFFFFFFFFFFFFFFFFFFFF AND PUSH20 0xFFFFFFFFFFFFFFFFFFFFFFFFFFFFFFFFFFFFFFFF AND DUP5 PUSH20 0xFFFFFFFFFFFFFFFFFFFFFFFFFFFFFFFFFFFFFFFF AND EQ ISZERO PUSH2 0x66B3 JUMPI PUSH2 0x66AE DUP4 DUP4 PUSH2 0x6CD9 JUMP JUMPDEST PUSH2 0x6785 JUMP JUMPDEST PUSH1 0x4 PUSH1 0x0 SWAP1 SLOAD SWAP1 PUSH2 0x100 EXP SWAP1 DIV PUSH20 0xFFFFFFFFFFFFFFFFFFFFFFFFFFFFFFFFFFFFFFFF AND PUSH20 0xFFFFFFFFFFFFFFFFFFFFFFFFFFFFFFFFFFFFFFFF AND DUP5 PUSH20 0xFFFFFFFFFFFFFFFFFFFFFFFFFFFFFFFFFFFFFFFF AND EQ ISZERO PUSH2 0x6719 JUMPI PUSH2 0x6714 DUP5 DUP5 DUP5 PUSH2 0x6DD0 JUMP JUMPDEST PUSH2 0x6785 JUMP JUMPDEST PUSH1 0x0 PUSH2 0x6724 DUP6 PUSH2 0x422E JUMP JUMPDEST SWAP1 POP PUSH2 0x6731 DUP6 DUP6 DUP6 PUSH2 0x6DD0 JUMP JUMPDEST PUSH1 0x0 PUSH2 0x673C DUP7 PUSH2 0x422E JUMP JUMPDEST SWAP1 POP DUP2 DUP5 DUP3 PUSH2 0x674B SWAP2 SWAP1 PUSH2 0x8637 JUMP JUMPDEST EQ PUSH2 0x6782 JUMPI PUSH1 0x40 MLOAD PUSH32 0xA8B538D300000000000000000000000000000000000000000000000000000000 DUP2 MSTORE PUSH1 0x4 ADD PUSH1 0x40 MLOAD DUP1 SWAP2 SUB SWAP1 REVERT JUMPDEST POP POP JUMPDEST POP POP POP POP JUMP JUMPDEST PUSH1 0x0 DUP1 DUP6 PUSH20 0xFFFFFFFFFFFFFFFFFFFFFFFFFFFFFFFFFFFFFFFF AND PUSH4 0x23B872DD DUP7 DUP7 DUP7 PUSH1 0x40 MLOAD PUSH1 0x24 ADD PUSH2 0x67BF SWAP4 SWAP3 SWAP2 SWAP1 PUSH2 0x90D1 JUMP JUMPDEST PUSH1 0x40 MLOAD PUSH1 0x20 DUP2 DUP4 SUB SUB DUP2 MSTORE SWAP1 PUSH1 0x40 MSTORE SWAP1 PUSH1 0xE0 SHL PUSH1 0x20 DUP3 ADD DUP1 MLOAD PUSH28 0xFFFFFFFFFFFFFFFFFFFFFFFFFFFFFFFFFFFFFFFFFFFFFFFFFFFFFFFF DUP4 DUP2 DUP4 AND OR DUP4 MSTORE POP POP POP POP PUSH1 0x40 MLOAD PUSH2 0x680D SWAP2 SWAP1 PUSH2 0x9144 JUMP JUMPDEST PUSH1 0x0 PUSH1 0x40 MLOAD DUP1 DUP4 SUB DUP2 PUSH1 0x0 DUP7 GAS CALL SWAP2 POP POP RETURNDATASIZE DUP1 PUSH1 0x0 DUP2 EQ PUSH2 0x684A JUMPI PUSH1 0x40 MLOAD SWAP2 POP PUSH1 0x1F NOT PUSH1 0x3F RETURNDATASIZE ADD AND DUP3 ADD PUSH1 0x40 MSTORE RETURNDATASIZE DUP3 MSTORE RETURNDATASIZE PUSH1 0x0 PUSH1 0x20 DUP5 ADD RETURNDATACOPY PUSH2 0x684F JUMP JUMPDEST PUSH1 0x60 SWAP2 POP JUMPDEST POP SWAP2 POP SWAP2 POP DUP2 DUP1 ISZERO PUSH2 0x687D JUMPI POP PUSH1 0x0 DUP2 MLOAD EQ DUP1 PUSH2 0x687C JUMPI POP DUP1 DUP1 PUSH1 0x20 ADD SWAP1 MLOAD DUP2 ADD SWAP1 PUSH2 0x687B SWAP2 SWAP1 PUSH2 0x9170 JUMP JUMPDEST JUMPDEST JUMPDEST PUSH2 0x68B3 JUMPI PUSH1 0x40 MLOAD PUSH32 0x6050FE2900000000000000000000000000000000000000000000000000000000 DUP2 MSTORE PUSH1 0x4 ADD PUSH1 0x40 MLOAD DUP1 SWAP2 SUB SWAP1 REVERT JUMPDEST POP POP POP POP POP POP JUMP JUMPDEST PUSH2 0x68C4 DUP5 PUSH2 0x6CC6 JUMP JUMPDEST ISZERO PUSH2 0x69FC JUMPI DUP4 PUSH20 0xFFFFFFFFFFFFFFFFFFFFFFFFFFFFFFFFFFFFFFFF AND PUSH4 0xF23A6E61 DUP8 DUP8 DUP7 DUP7 DUP7 PUSH1 0x40 MLOAD DUP7 PUSH4 0xFFFFFFFF AND PUSH1 0xE0 SHL DUP2 MSTORE PUSH1 0x4 ADD PUSH2 0x690A SWAP6 SWAP5 SWAP4 SWAP3 SWAP2 SWAP1 PUSH2 0x919D JUMP JUMPDEST PUSH1 0x20 PUSH1 0x40 MLOAD DUP1 DUP4 SUB DUP2 PUSH1 0x0 DUP8 GAS CALL SWAP3 POP POP POP DUP1 ISZERO PUSH2 0x6946 JUMPI POP PUSH1 0x40 MLOAD RETURNDATASIZE PUSH1 0x1F NOT PUSH1 0x1F DUP3 ADD AND DUP3 ADD DUP1 PUSH1 0x40 MSTORE POP DUP2 ADD SWAP1 PUSH2 0x6943 SWAP2 SWAP1 PUSH2 0x90A4 JUMP JUMPDEST PUSH1 0x1 JUMPDEST PUSH2 0x697C JUMPI PUSH1 0x40 MLOAD PUSH32 0x45D406B200000000000000000000000000000000000000000000000000000000 DUP2 MSTORE PUSH1 0x4 ADD PUSH1 0x40 MLOAD DUP1 SWAP2 SUB SWAP1 REVERT JUMPDEST PUSH4 0xF23A6E61 PUSH1 0xE0 SHL PUSH28 0xFFFFFFFFFFFFFFFFFFFFFFFFFFFFFFFFFFFFFFFFFFFFFFFFFFFFFFFF NOT AND DUP2 PUSH28 0xFFFFFFFFFFFFFFFFFFFFFFFFFFFFFFFFFFFFFFFFFFFFFFFFFFFFFFFF NOT AND EQ PUSH2 0x69FA JUMPI PUSH1 0x40 MLOAD PUSH32 0x2BAA526E00000000000000000000000000000000000000000000000000000000 DUP2 MSTORE PUSH1 0x4 ADD PUSH1 0x40 MLOAD DUP1 SWAP2 SUB SWAP1 REVERT JUMPDEST POP JUMPDEST POP POP POP POP POP POP JUMP JUMPDEST PUSH1 0x0 DUP1 DUP3 DUP7 PUSH2 0x6A13 SWAP2 SWAP1 PUSH2 0x8200 JUMP JUMPDEST SWAP1 POP PUSH1 0x0 DUP2 PUSH2 0x2710 DUP8 PUSH2 0x6A26 SWAP2 SWAP1 PUSH2 0x8200 JUMP JUMPDEST PUSH2 0x6A30 SWAP2 SWAP1 PUSH2 0x8637 JUMP JUMPDEST DUP3 DUP7 PUSH2 0x6A3C SWAP2 SWAP1 PUSH2 0x8200 JUMP JUMPDEST PUSH2 0x6A46 SWAP2 SWAP1 PUSH2 0x8863 JUMP JUMPDEST SWAP1 POP DUP1 SWAP3 POP POP POP SWAP5 SWAP4 POP POP POP POP JUMP JUMPDEST PUSH1 0x0 PUSH1 0x8 PUSH2 0x3840 TIMESTAMP PUSH2 0x6A67 SWAP2 SWAP1 PUSH2 0x8863 JUMP JUMPDEST PUSH2 0x6A71 SWAP2 SWAP1 PUSH2 0x8E25 JUMP JUMPDEST SWAP1 POP SWAP1 JUMP JUMPDEST PUSH1 0x0 PUSH20 0xFFFFFFFFFFFFFFFFFFFFFFFFFFFFFFFFFFFFFFFF AND DUP4 PUSH20 0xFFFFFFFFFFFFFFFFFFFFFFFFFFFFFFFFFFFFFFFF AND EQ ISZERO PUSH2 0x6ADD JUMPI PUSH1 0x40 MLOAD PUSH32 0xEDBA591D00000000000000000000000000000000000000000000000000000000 DUP2 MSTORE PUSH1 0x4 ADD PUSH1 0x40 MLOAD DUP1 SWAP2 SUB SWAP1 REVERT JUMPDEST PUSH1 0x0 CALLER SWAP1 POP PUSH1 0x0 PUSH1 0xD PUSH1 0x0 DUP6 DUP2 MSTORE PUSH1 0x20 ADD SWAP1 DUP2 MSTORE PUSH1 0x20 ADD PUSH1 0x0 KECCAK256 PUSH1 0x0 DUP7 PUSH20 0xFFFFFFFFFFFFFFFFFFFFFFFFFFFFFFFFFFFFFFFF AND PUSH20 0xFFFFFFFFFFFFFFFFFFFFFFFFFFFFFFFFFFFFFFFF AND DUP2 MSTORE PUSH1 0x20 ADD SWAP1 DUP2 MSTORE PUSH1 0x20 ADD PUSH1 0x0 KECCAK256 SLOAD SWAP1 POP DUP3 DUP2 LT ISZERO PUSH2 0x6B71 JUMPI PUSH1 0x40 MLOAD PUSH32 0x73ECA78400000000000000000000000000000000000000000000000000000000 DUP2 MSTORE PUSH1 0x4 ADD PUSH1 0x40 MLOAD DUP1 SWAP2 SUB SWAP1 REVERT JUMPDEST DUP3 DUP2 SUB PUSH1 0xD PUSH1 0x0 DUP7 DUP2 MSTORE PUSH1 0x20 ADD SWAP1 DUP2 MSTORE PUSH1 0x20 ADD PUSH1 0x0 KECCAK256 PUSH1 0x0 DUP8 PUSH20 0xFFFFFFFFFFFFFFFFFFFFFFFFFFFFFFFFFFFFFFFF AND PUSH20 0xFFFFFFFFFFFFFFFFFFFFFFFFFFFFFFFFFFFFFFFF AND DUP2 MSTORE PUSH1 0x20 ADD SWAP1 DUP2 MSTORE PUSH1 0x20 ADD PUSH1 0x0 KECCAK256 DUP2 SWAP1 SSTORE POP DUP3 PUSH1 0x10 PUSH1 0x0 DUP7 DUP2 MSTORE PUSH1 0x20 ADD SWAP1 DUP2 MSTORE PUSH1 0x20 ADD PUSH1 0x0 KECCAK256 PUSH1 0x0 DUP3 DUP3 SLOAD SUB SWAP3 POP POP DUP2 SWAP1 SSTORE POP PUSH1 0x0 PUSH20 0xFFFFFFFFFFFFFFFFFFFFFFFFFFFFFFFFFFFFFFFF AND DUP6 PUSH20 0xFFFFFFFFFFFFFFFFFFFFFFFFFFFFFFFFFFFFFFFF AND DUP4 PUSH20 0xFFFFFFFFFFFFFFFFFFFFFFFFFFFFFFFFFFFFFFFF AND PUSH32 0xC3D58168C5AE7397731D063D5BBF3D657854427343F4C083240F7AACAA2D0F62 DUP8 DUP8 PUSH1 0x40 MLOAD PUSH2 0x6C60 SWAP3 SWAP2 SWAP1 PUSH2 0x7EC0 JUMP JUMPDEST PUSH1 0x40 MLOAD DUP1 SWAP2 SUB SWAP1 LOG4 POP POP POP POP POP JUMP JUMPDEST PUSH1 0x0 DUP1 PUSH1 0x1 DUP7 DUP6 PUSH2 0x6C80 SWAP2 SWAP1 PUSH2 0x8794 JUMP JUMPDEST DUP5 PUSH2 0x6C8B SWAP2 SWAP1 PUSH2 0x8200 JUMP JUMPDEST PUSH2 0x2710 DUP9 DUP9 PUSH2 0x6C9A SWAP2 SWAP1 PUSH2 0x8200 JUMP JUMPDEST PUSH2 0x6CA4 SWAP2 SWAP1 PUSH2 0x8200 JUMP JUMPDEST PUSH2 0x6CAE SWAP2 SWAP1 PUSH2 0x8863 JUMP JUMPDEST PUSH2 0x6CB8 SWAP2 SWAP1 PUSH2 0x8637 JUMP JUMPDEST SWAP1 POP DUP1 SWAP2 POP POP SWAP5 SWAP4 POP POP POP POP JUMP JUMPDEST PUSH1 0x0 DUP1 DUP3 EXTCODESIZE SWAP1 POP PUSH1 0x0 DUP2 GT SWAP2 POP POP SWAP2 SWAP1 POP JUMP JUMPDEST PUSH1 0x0 DUP3 PUSH20 0xFFFFFFFFFFFFFFFFFFFFFFFFFFFFFFFFFFFFFFFF AND DUP3 PUSH1 0x0 PUSH8 0xFFFFFFFFFFFFFFFF DUP2 GT ISZERO PUSH2 0x6D0E JUMPI PUSH2 0x6D0D PUSH2 0x7946 JUMP JUMPDEST JUMPDEST PUSH1 0x40 MLOAD SWAP1 DUP1 DUP3 MSTORE DUP1 PUSH1 0x1F ADD PUSH1 0x1F NOT AND PUSH1 0x20 ADD DUP3 ADD PUSH1 0x40 MSTORE DUP1 ISZERO PUSH2 0x6D40 JUMPI DUP2 PUSH1 0x20 ADD PUSH1 0x1 DUP3 MUL DUP1 CALLDATASIZE DUP4 CALLDATACOPY DUP1 DUP3 ADD SWAP2 POP POP SWAP1 POP JUMPDEST POP PUSH1 0x40 MLOAD PUSH2 0x6D4E SWAP2 SWAP1 PUSH2 0x9144 JUMP JUMPDEST PUSH1 0x0 PUSH1 0x40 MLOAD DUP1 DUP4 SUB DUP2 DUP6 DUP8 GAS CALL SWAP3 POP POP POP RETURNDATASIZE DUP1 PUSH1 0x0 DUP2 EQ PUSH2 0x6D8B JUMPI PUSH1 0x40 MLOAD SWAP2 POP PUSH1 0x1F NOT PUSH1 0x3F RETURNDATASIZE ADD AND DUP3 ADD PUSH1 0x40 MSTORE RETURNDATASIZE DUP3 MSTORE RETURNDATASIZE PUSH1 0x0 PUSH1 0x20 DUP5 ADD RETURNDATACOPY PUSH2 0x6D90 JUMP JUMPDEST PUSH1 0x60 SWAP2 POP JUMPDEST POP POP SWAP1 POP DUP1 PUSH2 0x6DCB JUMPI PUSH1 0x40 MLOAD PUSH32 0x30667AAB00000000000000000000000000000000000000000000000000000000 DUP2 MSTORE PUSH1 0x4 ADD PUSH1 0x40 MLOAD DUP1 SWAP2 SUB SWAP1 REVERT JUMPDEST POP POP POP JUMP JUMPDEST PUSH1 0x0 DUP1 DUP5 PUSH20 0xFFFFFFFFFFFFFFFFFFFFFFFFFFFFFFFFFFFFFFFF AND PUSH4 0xA9059CBB DUP6 DUP6 PUSH1 0x40 MLOAD PUSH1 0x24 ADD PUSH2 0x6E02 SWAP3 SWAP2 SWAP1 PUSH2 0x8894 JUMP JUMPDEST PUSH1 0x40 MLOAD PUSH1 0x20 DUP2 DUP4 SUB SUB DUP2 MSTORE SWAP1 PUSH1 0x40 MSTORE SWAP1 PUSH1 0xE0 SHL PUSH1 0x20 DUP3 ADD DUP1 MLOAD PUSH28 0xFFFFFFFFFFFFFFFFFFFFFFFFFFFFFFFFFFFFFFFFFFFFFFFFFFFFFFFF DUP4 DUP2 DUP4 AND OR DUP4 MSTORE POP POP POP POP PUSH1 0x40 MLOAD PUSH2 0x6E50 SWAP2 SWAP1 PUSH2 0x9144 JUMP JUMPDEST PUSH1 0x0 PUSH1 0x40 MLOAD DUP1 DUP4 SUB DUP2 PUSH1 0x0 DUP7 GAS CALL SWAP2 POP POP RETURNDATASIZE DUP1 PUSH1 0x0 DUP2 EQ PUSH2 0x6E8D JUMPI PUSH1 0x40 MLOAD SWAP2 POP PUSH1 0x1F NOT PUSH1 0x3F RETURNDATASIZE ADD AND DUP3 ADD PUSH1 0x40 MSTORE RETURNDATASIZE DUP3 MSTORE RETURNDATASIZE PUSH1 0x0 PUSH1 0x20 DUP5 ADD RETURNDATACOPY PUSH2 0x6E92 JUMP JUMPDEST PUSH1 0x60 SWAP2 POP JUMPDEST POP SWAP2 POP SWAP2 POP DUP2 DUP1 ISZERO PUSH2 0x6EC0 JUMPI POP PUSH1 0x0 DUP2 MLOAD EQ DUP1 PUSH2 0x6EBF JUMPI POP DUP1 DUP1 PUSH1 0x20 ADD SWAP1 MLOAD DUP2 ADD SWAP1 PUSH2 0x6EBE SWAP2 SWAP1 PUSH2 0x9170 JUMP JUMPDEST JUMPDEST JUMPDEST PUSH2 0x6EF6 JUMPI PUSH1 0x40 MLOAD PUSH32 0x7805DA5300000000000000000000000000000000000000000000000000000000 DUP2 MSTORE PUSH1 0x4 ADD PUSH1 0x40 MLOAD DUP1 SWAP2 SUB SWAP1 REVERT JUMPDEST POP POP POP POP POP JUMP JUMPDEST PUSH1 0x40 MLOAD DUP1 PUSH1 0xA0 ADD PUSH1 0x40 MSTORE DUP1 PUSH2 0x6F10 PUSH2 0x70C0 JUMP JUMPDEST DUP2 MSTORE PUSH1 0x20 ADD PUSH1 0x0 PUSH16 0xFFFFFFFFFFFFFFFFFFFFFFFFFFFFFFFF AND DUP2 MSTORE PUSH1 0x20 ADD PUSH1 0x0 PUSH16 0xFFFFFFFFFFFFFFFFFFFFFFFFFFFFFFFF AND DUP2 MSTORE PUSH1 0x20 ADD PUSH1 0x0 PUSH16 0xFFFFFFFFFFFFFFFFFFFFFFFFFFFFFFFF AND DUP2 MSTORE PUSH1 0x20 ADD PUSH1 0x0 DUP2 MSTORE POP SWAP1 JUMP JUMPDEST DUP3 DUP1 SLOAD PUSH2 0x6F74 SWAP1 PUSH2 0x819F JUMP JUMPDEST SWAP1 PUSH1 0x0 MSTORE PUSH1 0x20 PUSH1 0x0 KECCAK256 SWAP1 PUSH1 0x1F ADD PUSH1 0x20 SWAP1 DIV DUP2 ADD SWAP3 DUP3 PUSH2 0x6F96 JUMPI PUSH1 0x0 DUP6 SSTORE PUSH2 0x6FDD JUMP JUMPDEST DUP3 PUSH1 0x1F LT PUSH2 0x6FAF JUMPI DUP1 MLOAD PUSH1 0xFF NOT AND DUP4 DUP1 ADD OR DUP6 SSTORE PUSH2 0x6FDD JUMP JUMPDEST DUP3 DUP1 ADD PUSH1 0x1 ADD DUP6 SSTORE DUP3 ISZERO PUSH2 0x6FDD JUMPI SWAP2 DUP3 ADD JUMPDEST DUP3 DUP2 GT ISZERO PUSH2 0x6FDC JUMPI DUP3 MLOAD DUP3 SSTORE SWAP2 PUSH1 0x20 ADD SWAP2 SWAP1 PUSH1 0x1 ADD SWAP1 PUSH2 0x6FC1 JUMP JUMPDEST JUMPDEST POP SWAP1 POP PUSH2 0x6FEA SWAP2 SWAP1 PUSH2 0x7186 JUMP JUMPDEST POP SWAP1 JUMP JUMPDEST PUSH1 0x40 MLOAD DUP1 PUSH1 0xC0 ADD PUSH1 0x40 MSTORE DUP1 PUSH1 0x0 PUSH20 0xFFFFFFFFFFFFFFFFFFFFFFFFFFFFFFFFFFFFFFFF AND DUP2 MSTORE PUSH1 0x20 ADD PUSH1 0x0 DUP2 MSTORE PUSH1 0x20 ADD PUSH1 0x0 DUP2 MSTORE PUSH1 0x20 ADD PUSH1 0x0 DUP2 MSTORE PUSH1 0x20 ADD PUSH1 0x0 DUP2 MSTORE PUSH1 0x20 ADD PUSH1 0x0 DUP2 MSTORE POP SWAP1 JUMP JUMPDEST DUP3 DUP1 SLOAD PUSH2 0x7046 SWAP1 PUSH2 0x819F JUMP JUMPDEST SWAP1 PUSH1 0x0 MSTORE PUSH1 0x20 PUSH1 0x0 KECCAK256 SWAP1 PUSH1 0x1F ADD PUSH1 0x20 SWAP1 DIV DUP2 ADD SWAP3 DUP3 PUSH2 0x7068 JUMPI PUSH1 0x0 DUP6 SSTORE PUSH2 0x70AF JUMP JUMPDEST DUP3 PUSH1 0x1F LT PUSH2 0x7081 JUMPI DUP1 CALLDATALOAD PUSH1 0xFF NOT AND DUP4 DUP1 ADD OR DUP6 SSTORE PUSH2 0x70AF JUMP JUMPDEST DUP3 DUP1 ADD PUSH1 0x1 ADD DUP6 SSTORE DUP3 ISZERO PUSH2 0x70AF JUMPI SWAP2 DUP3 ADD JUMPDEST DUP3 DUP2 GT ISZERO PUSH2 0x70AE JUMPI DUP3 CALLDATALOAD DUP3 SSTORE SWAP2 PUSH1 0x20 ADD SWAP2 SWAP1 PUSH1 0x1 ADD SWAP1 PUSH2 0x7093 JUMP JUMPDEST JUMPDEST POP SWAP1 POP PUSH2 0x70BC SWAP2 SWAP1 PUSH2 0x7186 JUMP JUMPDEST POP SWAP1 JUMP JUMPDEST PUSH1 0x40 MLOAD DUP1 PUSH2 0x100 ADD PUSH1 0x40 MSTORE DUP1 PUSH1 0x8 SWAP1 PUSH1 0x20 DUP3 MUL DUP1 CALLDATASIZE DUP4 CALLDATACOPY DUP1 DUP3 ADD SWAP2 POP POP SWAP1 POP POP SWAP1 JUMP JUMPDEST DUP3 PUSH1 0x8 PUSH1 0x7 ADD PUSH1 0x8 SWAP1 DIV DUP2 ADD SWAP3 DUP3 ISZERO PUSH2 0x7175 JUMPI SWAP2 PUSH1 0x20 MUL DUP3 ADD PUSH1 0x0 JUMPDEST DUP4 DUP3 GT ISZERO PUSH2 0x7143 JUMPI DUP4 MLOAD DUP4 DUP3 PUSH2 0x100 EXP DUP2 SLOAD DUP2 PUSH4 0xFFFFFFFF MUL NOT AND SWAP1 DUP4 PUSH4 0xFFFFFFFF AND MUL OR SWAP1 SSTORE POP SWAP3 PUSH1 0x20 ADD SWAP3 PUSH1 0x4 ADD PUSH1 0x20 DUP2 PUSH1 0x3 ADD DIV SWAP3 DUP4 ADD SWAP3 PUSH1 0x1 SUB MUL PUSH2 0x70FF JUMP JUMPDEST DUP1 ISZERO PUSH2 0x7173 JUMPI DUP3 DUP2 PUSH2 0x100 EXP DUP2 SLOAD SWAP1 PUSH4 0xFFFFFFFF MUL NOT AND SWAP1 SSTORE PUSH1 0x4 ADD PUSH1 0x20 DUP2 PUSH1 0x3 ADD DIV SWAP3 DUP4 ADD SWAP3 PUSH1 0x1 SUB MUL PUSH2 0x7143 JUMP JUMPDEST POP JUMPDEST POP SWAP1 POP PUSH2 0x7182 SWAP2 SWAP1 PUSH2 0x7186 JUMP JUMPDEST POP SWAP1 JUMP JUMPDEST JUMPDEST DUP1 DUP3 GT ISZERO PUSH2 0x719F JUMPI PUSH1 0x0 DUP2 PUSH1 0x0 SWAP1 SSTORE POP PUSH1 0x1 ADD PUSH2 0x7187 JUMP JUMPDEST POP SWAP1 JUMP JUMPDEST PUSH1 0x0 PUSH1 0x40 MLOAD SWAP1 POP SWAP1 JUMP JUMPDEST PUSH1 0x0 DUP1 REVERT JUMPDEST PUSH1 0x0 DUP1 REVERT JUMPDEST PUSH1 0x0 PUSH20 0xFFFFFFFFFFFFFFFFFFFFFFFFFFFFFFFFFFFFFFFF DUP3 AND SWAP1 POP SWAP2 SWAP1 POP JUMP JUMPDEST PUSH1 0x0 PUSH2 0x71E2 DUP3 PUSH2 0x71B7 JUMP JUMPDEST SWAP1 POP SWAP2 SWAP1 POP JUMP JUMPDEST PUSH2 0x71F2 DUP2 PUSH2 0x71D7 JUMP JUMPDEST DUP2 EQ PUSH2 0x71FD JUMPI PUSH1 0x0 DUP1 REVERT JUMPDEST POP JUMP JUMPDEST PUSH1 0x0 DUP2 CALLDATALOAD SWAP1 POP PUSH2 0x720F DUP2 PUSH2 0x71E9 JUMP JUMPDEST SWAP3 SWAP2 POP POP JUMP JUMPDEST PUSH1 0x0 DUP2 SWAP1 POP SWAP2 SWAP1 POP JUMP JUMPDEST PUSH2 0x7228 DUP2 PUSH2 0x7215 JUMP JUMPDEST DUP2 EQ PUSH2 0x7233 JUMPI PUSH1 0x0 DUP1 REVERT JUMPDEST POP JUMP JUMPDEST PUSH1 0x0 DUP2 CALLDATALOAD SWAP1 POP PUSH2 0x7245 DUP2 PUSH2 0x721F JUMP JUMPDEST SWAP3 SWAP2 POP POP JUMP JUMPDEST PUSH1 0x0 DUP1 PUSH1 0x40 DUP4 DUP6 SUB SLT ISZERO PUSH2 0x7262 JUMPI PUSH2 0x7261 PUSH2 0x71AD JUMP JUMPDEST JUMPDEST PUSH1 0x0 PUSH2 0x7270 DUP6 DUP3 DUP7 ADD PUSH2 0x7200 JUMP JUMPDEST SWAP3 POP POP PUSH1 0x20 PUSH2 0x7281 DUP6 DUP3 DUP7 ADD PUSH2 0x7236 JUMP JUMPDEST SWAP2 POP POP SWAP3 POP SWAP3 SWAP1 POP JUMP JUMPDEST PUSH2 0x7294 DUP2 PUSH2 0x7215 JUMP JUMPDEST DUP3 MSTORE POP POP JUMP JUMPDEST PUSH1 0x0 PUSH1 0x20 DUP3 ADD SWAP1 POP PUSH2 0x72AF PUSH1 0x0 DUP4 ADD DUP5 PUSH2 0x728B JUMP JUMPDEST SWAP3 SWAP2 POP POP JUMP JUMPDEST PUSH1 0x0 PUSH32 0xFFFFFFFF00000000000000000000000000000000000000000000000000000000 DUP3 AND SWAP1 POP SWAP2 SWAP1 POP JUMP JUMPDEST PUSH2 0x72EA DUP2 PUSH2 0x72B5 JUMP JUMPDEST DUP2 EQ PUSH2 0x72F5 JUMPI PUSH1 0x0 DUP1 REVERT JUMPDEST POP JUMP JUMPDEST PUSH1 0x0 DUP2 CALLDATALOAD SWAP1 POP PUSH2 0x7307 DUP2 PUSH2 0x72E1 JUMP JUMPDEST SWAP3 SWAP2 POP POP JUMP JUMPDEST PUSH1 0x0 PUSH1 0x20 DUP3 DUP5 SUB SLT ISZERO PUSH2 0x7323 JUMPI PUSH2 0x7322 PUSH2 0x71AD JUMP JUMPDEST JUMPDEST PUSH1 0x0 PUSH2 0x7331 DUP5 DUP3 DUP6 ADD PUSH2 0x72F8 JUMP JUMPDEST SWAP2 POP POP SWAP3 SWAP2 POP POP JUMP JUMPDEST PUSH1 0x0 DUP2 ISZERO ISZERO SWAP1 POP SWAP2 SWAP1 POP JUMP JUMPDEST PUSH2 0x734F DUP2 PUSH2 0x733A JUMP JUMPDEST DUP3 MSTORE POP POP JUMP JUMPDEST PUSH1 0x0 PUSH1 0x20 DUP3 ADD SWAP1 POP PUSH2 0x736A PUSH1 0x0 DUP4 ADD DUP5 PUSH2 0x7346 JUMP JUMPDEST SWAP3 SWAP2 POP POP JUMP JUMPDEST PUSH1 0x0 PUSH1 0x20 DUP3 DUP5 SUB SLT ISZERO PUSH2 0x7386 JUMPI PUSH2 0x7385 PUSH2 0x71AD JUMP JUMPDEST JUMPDEST PUSH1 0x0 PUSH2 0x7394 DUP5 DUP3 DUP6 ADD PUSH2 0x7236 JUMP JUMPDEST SWAP2 POP POP SWAP3 SWAP2 POP POP JUMP JUMPDEST PUSH2 0x73A6 DUP2 PUSH2 0x71D7 JUMP JUMPDEST DUP3 MSTORE POP POP JUMP JUMPDEST PUSH1 0x0 PUSH1 0x20 DUP3 ADD SWAP1 POP PUSH2 0x73C1 PUSH1 0x0 DUP4 ADD DUP5 PUSH2 0x739D JUMP JUMPDEST SWAP3 SWAP2 POP POP JUMP JUMPDEST PUSH1 0x0 DUP2 MLOAD SWAP1 POP SWAP2 SWAP1 POP JUMP JUMPDEST PUSH1 0x0 DUP3 DUP3 MSTORE PUSH1 0x20 DUP3 ADD SWAP1 POP SWAP3 SWAP2 POP POP JUMP JUMPDEST PUSH1 0x0 JUMPDEST DUP4 DUP2 LT ISZERO PUSH2 0x7401 JUMPI DUP1 DUP3 ADD MLOAD DUP2 DUP5 ADD MSTORE PUSH1 0x20 DUP2 ADD SWAP1 POP PUSH2 0x73E6 JUMP JUMPDEST DUP4 DUP2 GT ISZERO PUSH2 0x7410 JUMPI PUSH1 0x0 DUP5 DUP5 ADD MSTORE JUMPDEST POP POP POP POP JUMP JUMPDEST PUSH1 0x0 PUSH1 0x1F NOT PUSH1 0x1F DUP4 ADD AND SWAP1 POP SWAP2 SWAP1 POP JUMP JUMPDEST PUSH1 0x0 PUSH2 0x7432 DUP3 PUSH2 0x73C7 JUMP JUMPDEST PUSH2 0x743C DUP2 DUP6 PUSH2 0x73D2 JUMP JUMPDEST SWAP4 POP PUSH2 0x744C DUP2 DUP6 PUSH1 0x20 DUP7 ADD PUSH2 0x73E3 JUMP JUMPDEST PUSH2 0x7455 DUP2 PUSH2 0x7416 JUMP JUMPDEST DUP5 ADD SWAP2 POP POP SWAP3 SWAP2 POP POP JUMP JUMPDEST PUSH1 0x0 PUSH1 0x20 DUP3 ADD SWAP1 POP DUP2 DUP2 SUB PUSH1 0x0 DUP4 ADD MSTORE PUSH2 0x747A DUP2 DUP5 PUSH2 0x7427 JUMP JUMPDEST SWAP1 POP SWAP3 SWAP2 POP POP JUMP JUMPDEST PUSH1 0x0 DUP1 REVERT JUMPDEST PUSH1 0x0 PUSH1 0xC0 DUP3 DUP5 SUB SLT ISZERO PUSH2 0x749D JUMPI PUSH2 0x749C PUSH2 0x7482 JUMP JUMPDEST JUMPDEST DUP2 SWAP1 POP SWAP3 SWAP2 POP POP JUMP JUMPDEST PUSH1 0x0 PUSH1 0xC0 DUP3 DUP5 SUB SLT ISZERO PUSH2 0x74BC JUMPI PUSH2 0x74BB PUSH2 0x71AD JUMP JUMPDEST JUMPDEST PUSH1 0x0 PUSH2 0x74CA DUP5 DUP3 DUP6 ADD PUSH2 0x7487 JUMP JUMPDEST SWAP2 POP POP SWAP3 SWAP2 POP POP JUMP JUMPDEST PUSH1 0x0 DUP1 REVERT JUMPDEST PUSH1 0x0 DUP1 REVERT JUMPDEST PUSH1 0x0 DUP1 REVERT JUMPDEST PUSH1 0x0 DUP1 DUP4 PUSH1 0x1F DUP5 ADD SLT PUSH2 0x74F8 JUMPI PUSH2 0x74F7 PUSH2 0x74D3 JUMP JUMPDEST JUMPDEST DUP3 CALLDATALOAD SWAP1 POP PUSH8 0xFFFFFFFFFFFFFFFF DUP2 GT ISZERO PUSH2 0x7515 JUMPI PUSH2 0x7514 PUSH2 0x74D8 JUMP JUMPDEST JUMPDEST PUSH1 0x20 DUP4 ADD SWAP2 POP DUP4 PUSH1 0x20 DUP3 MUL DUP4 ADD GT ISZERO PUSH2 0x7531 JUMPI PUSH2 0x7530 PUSH2 0x74DD JUMP JUMPDEST JUMPDEST SWAP3 POP SWAP3 SWAP1 POP JUMP JUMPDEST PUSH1 0x0 DUP1 DUP4 PUSH1 0x1F DUP5 ADD SLT PUSH2 0x754E JUMPI PUSH2 0x754D PUSH2 0x74D3 JUMP JUMPDEST JUMPDEST DUP3 CALLDATALOAD SWAP1 POP PUSH8 0xFFFFFFFFFFFFFFFF DUP2 GT ISZERO PUSH2 0x756B JUMPI PUSH2 0x756A PUSH2 0x74D8 JUMP JUMPDEST JUMPDEST PUSH1 0x20 DUP4 ADD SWAP2 POP DUP4 PUSH1 0x1 DUP3 MUL DUP4 ADD GT ISZERO PUSH2 0x7587 JUMPI PUSH2 0x7586 PUSH2 0x74DD JUMP JUMPDEST JUMPDEST SWAP3 POP SWAP3 SWAP1 POP JUMP JUMPDEST PUSH1 0x0 DUP1 PUSH1 0x0 DUP1 PUSH1 0x0 DUP1 PUSH1 0x0 DUP1 PUSH1 0xA0 DUP10 DUP12 SUB SLT ISZERO PUSH2 0x75AE JUMPI PUSH2 0x75AD PUSH2 0x71AD JUMP JUMPDEST JUMPDEST PUSH1 0x0 PUSH2 0x75BC DUP12 DUP3 DUP13 ADD PUSH2 0x7200 JUMP JUMPDEST SWAP9 POP POP PUSH1 0x20 PUSH2 0x75CD DUP12 DUP3 DUP13 ADD PUSH2 0x7200 JUMP JUMPDEST SWAP8 POP POP PUSH1 0x40 DUP10 ADD CALLDATALOAD PUSH8 0xFFFFFFFFFFFFFFFF DUP2 GT ISZERO PUSH2 0x75EE JUMPI PUSH2 0x75ED PUSH2 0x71B2 JUMP JUMPDEST JUMPDEST PUSH2 0x75FA DUP12 DUP3 DUP13 ADD PUSH2 0x74E2 JUMP JUMPDEST SWAP7 POP SWAP7 POP POP PUSH1 0x60 DUP10 ADD CALLDATALOAD PUSH8 0xFFFFFFFFFFFFFFFF DUP2 GT ISZERO PUSH2 0x761D JUMPI PUSH2 0x761C PUSH2 0x71B2 JUMP JUMPDEST JUMPDEST PUSH2 0x7629 DUP12 DUP3 DUP13 ADD PUSH2 0x74E2 JUMP JUMPDEST SWAP5 POP SWAP5 POP POP PUSH1 0x80 DUP10 ADD CALLDATALOAD PUSH8 0xFFFFFFFFFFFFFFFF DUP2 GT ISZERO PUSH2 0x764C JUMPI PUSH2 0x764B PUSH2 0x71B2 JUMP JUMPDEST JUMPDEST PUSH2 0x7658 DUP12 DUP3 DUP13 ADD PUSH2 0x7538 JUMP JUMPDEST SWAP3 POP SWAP3 POP POP SWAP3 SWAP6 SWAP9 POP SWAP3 SWAP6 SWAP9 SWAP1 SWAP4 SWAP7 POP JUMP JUMPDEST PUSH1 0x0 DUP1 DUP4 PUSH1 0x1F DUP5 ADD SLT PUSH2 0x7680 JUMPI PUSH2 0x767F PUSH2 0x74D3 JUMP JUMPDEST JUMPDEST DUP3 CALLDATALOAD SWAP1 POP PUSH8 0xFFFFFFFFFFFFFFFF DUP2 GT ISZERO PUSH2 0x769D JUMPI PUSH2 0x769C PUSH2 0x74D8 JUMP JUMPDEST JUMPDEST PUSH1 0x20 DUP4 ADD SWAP2 POP DUP4 PUSH1 0x20 DUP3 MUL DUP4 ADD GT ISZERO PUSH2 0x76B9 JUMPI PUSH2 0x76B8 PUSH2 0x74DD JUMP JUMPDEST JUMPDEST SWAP3 POP SWAP3 SWAP1 POP JUMP JUMPDEST PUSH1 0x0 DUP1 PUSH1 0x20 DUP4 DUP6 SUB SLT ISZERO PUSH2 0x76D7 JUMPI PUSH2 0x76D6 PUSH2 0x71AD JUMP JUMPDEST JUMPDEST PUSH1 0x0 DUP4 ADD CALLDATALOAD PUSH8 0xFFFFFFFFFFFFFFFF DUP2 GT ISZERO PUSH2 0x76F5 JUMPI PUSH2 0x76F4 PUSH2 0x71B2 JUMP JUMPDEST JUMPDEST PUSH2 0x7701 DUP6 DUP3 DUP7 ADD PUSH2 0x766A JUMP JUMPDEST SWAP3 POP SWAP3 POP POP SWAP3 POP SWAP3 SWAP1 POP JUMP JUMPDEST PUSH1 0x0 DUP2 MLOAD SWAP1 POP SWAP2 SWAP1 POP JUMP JUMPDEST PUSH1 0x0 DUP3 DUP3 MSTORE PUSH1 0x20 DUP3 ADD SWAP1 POP SWAP3 SWAP2 POP POP JUMP JUMPDEST PUSH1 0x0 DUP2 SWAP1 POP PUSH1 0x20 DUP3 ADD SWAP1 POP SWAP2 SWAP1 POP JUMP JUMPDEST PUSH1 0x0 PUSH1 0x8 SWAP1 POP SWAP2 SWAP1 POP JUMP JUMPDEST PUSH1 0x0 DUP2 SWAP1 POP SWAP3 SWAP2 POP POP JUMP JUMPDEST PUSH1 0x0 DUP2 SWAP1 POP SWAP2 SWAP1 POP JUMP JUMPDEST PUSH1 0x0 PUSH4 0xFFFFFFFF DUP3 AND SWAP1 POP SWAP2 SWAP1 POP JUMP JUMPDEST PUSH2 0x7772 DUP2 PUSH2 0x7759 JUMP JUMPDEST DUP3 MSTORE POP POP JUMP JUMPDEST PUSH1 0x0 PUSH2 0x7784 DUP4 DUP4 PUSH2 0x7769 JUMP JUMPDEST PUSH1 0x20 DUP4 ADD SWAP1 POP SWAP3 SWAP2 POP POP JUMP JUMPDEST PUSH1 0x0 PUSH1 0x20 DUP3 ADD SWAP1 POP SWAP2 SWAP1 POP JUMP JUMPDEST PUSH2 0x77A6 DUP2 PUSH2 0x7739 JUMP JUMPDEST PUSH2 0x77B0 DUP2 DUP5 PUSH2 0x7744 JUMP JUMPDEST SWAP3 POP PUSH2 0x77BB DUP3 PUSH2 0x774F JUMP JUMPDEST DUP1 PUSH1 0x0 JUMPDEST DUP4 DUP2 LT ISZERO PUSH2 0x77EC JUMPI DUP2 MLOAD PUSH2 0x77D3 DUP8 DUP3 PUSH2 0x7778 JUMP JUMPDEST SWAP7 POP PUSH2 0x77DE DUP4 PUSH2 0x7790 JUMP JUMPDEST SWAP3 POP POP PUSH1 0x1 DUP2 ADD SWAP1 POP PUSH2 0x77BF JUMP JUMPDEST POP POP POP POP POP POP JUMP JUMPDEST PUSH1 0x0 PUSH16 0xFFFFFFFFFFFFFFFFFFFFFFFFFFFFFFFF DUP3 AND SWAP1 POP SWAP2 SWAP1 POP JUMP JUMPDEST PUSH2 0x7819 DUP2 PUSH2 0x77F4 JUMP JUMPDEST DUP3 MSTORE POP POP JUMP JUMPDEST PUSH2 0x7828 DUP2 PUSH2 0x7215 JUMP JUMPDEST DUP3 MSTORE POP POP JUMP JUMPDEST PUSH2 0x180 DUP3 ADD PUSH1 0x0 DUP3 ADD MLOAD PUSH2 0x7845 PUSH1 0x0 DUP6 ADD DUP3 PUSH2 0x779D JUMP JUMPDEST POP PUSH1 0x20 DUP3 ADD MLOAD PUSH2 0x7859 PUSH2 0x100 DUP6 ADD DUP3 PUSH2 0x7810 JUMP JUMPDEST POP PUSH1 0x40 DUP3 ADD MLOAD PUSH2 0x786D PUSH2 0x120 DUP6 ADD DUP3 PUSH2 0x7810 JUMP JUMPDEST POP PUSH1 0x60 DUP3 ADD MLOAD PUSH2 0x7881 PUSH2 0x140 DUP6 ADD DUP3 PUSH2 0x7810 JUMP JUMPDEST POP PUSH1 0x80 DUP3 ADD MLOAD PUSH2 0x7895 PUSH2 0x160 DUP6 ADD DUP3 PUSH2 0x781F JUMP JUMPDEST POP POP POP POP JUMP JUMPDEST PUSH1 0x0 PUSH2 0x78A7 DUP4 DUP4 PUSH2 0x782E JUMP JUMPDEST PUSH2 0x180 DUP4 ADD SWAP1 POP SWAP3 SWAP2 POP POP JUMP JUMPDEST PUSH1 0x0 PUSH1 0x20 DUP3 ADD SWAP1 POP SWAP2 SWAP1 POP JUMP JUMPDEST PUSH1 0x0 PUSH2 0x78CC DUP3 PUSH2 0x770D JUMP JUMPDEST PUSH2 0x78D6 DUP2 DUP6 PUSH2 0x7718 JUMP JUMPDEST SWAP4 POP PUSH2 0x78E1 DUP4 PUSH2 0x7729 JUMP JUMPDEST DUP1 PUSH1 0x0 JUMPDEST DUP4 DUP2 LT ISZERO PUSH2 0x7912 JUMPI DUP2 MLOAD PUSH2 0x78F9 DUP9 DUP3 PUSH2 0x789B JUMP JUMPDEST SWAP8 POP PUSH2 0x7904 DUP4 PUSH2 0x78B4 JUMP JUMPDEST SWAP3 POP POP PUSH1 0x1 DUP2 ADD SWAP1 POP PUSH2 0x78E5 JUMP JUMPDEST POP DUP6 SWAP4 POP POP POP POP SWAP3 SWAP2 POP POP JUMP JUMPDEST PUSH1 0x0 PUSH1 0x20 DUP3 ADD SWAP1 POP DUP2 DUP2 SUB PUSH1 0x0 DUP4 ADD MSTORE PUSH2 0x7939 DUP2 DUP5 PUSH2 0x78C1 JUMP JUMPDEST SWAP1 POP SWAP3 SWAP2 POP POP JUMP JUMPDEST PUSH1 0x0 DUP1 REVERT JUMPDEST PUSH32 0x4E487B7100000000000000000000000000000000000000000000000000000000 PUSH1 0x0 MSTORE PUSH1 0x41 PUSH1 0x4 MSTORE PUSH1 0x24 PUSH1 0x0 REVERT JUMPDEST PUSH2 0x797E DUP3 PUSH2 0x7416 JUMP JUMPDEST DUP2 ADD DUP2 DUP2 LT PUSH8 0xFFFFFFFFFFFFFFFF DUP3 GT OR ISZERO PUSH2 0x799D JUMPI PUSH2 0x799C PUSH2 0x7946 JUMP JUMPDEST JUMPDEST DUP1 PUSH1 0x40 MSTORE POP POP POP JUMP JUMPDEST PUSH1 0x0 PUSH2 0x79B0 PUSH2 0x71A3 JUMP JUMPDEST SWAP1 POP PUSH2 0x79BC DUP3 DUP3 PUSH2 0x7975 JUMP JUMPDEST SWAP2 SWAP1 POP JUMP JUMPDEST PUSH1 0x0 PUSH8 0xFFFFFFFFFFFFFFFF DUP3 GT ISZERO PUSH2 0x79DC JUMPI PUSH2 0x79DB PUSH2 0x7946 JUMP JUMPDEST JUMPDEST PUSH2 0x79E5 DUP3 PUSH2 0x7416 JUMP JUMPDEST SWAP1 POP PUSH1 0x20 DUP2 ADD SWAP1 POP SWAP2 SWAP1 POP JUMP JUMPDEST DUP3 DUP2 DUP4 CALLDATACOPY PUSH1 0x0 DUP4 DUP4 ADD MSTORE POP POP POP JUMP JUMPDEST PUSH1 0x0 PUSH2 0x7A14 PUSH2 0x7A0F DUP5 PUSH2 0x79C1 JUMP JUMPDEST PUSH2 0x79A6 JUMP JUMPDEST SWAP1 POP DUP3 DUP2 MSTORE PUSH1 0x20 DUP2 ADD DUP5 DUP5 DUP5 ADD GT ISZERO PUSH2 0x7A30 JUMPI PUSH2 0x7A2F PUSH2 0x7941 JUMP JUMPDEST JUMPDEST PUSH2 0x7A3B DUP5 DUP3 DUP6 PUSH2 0x79F2 JUMP JUMPDEST POP SWAP4 SWAP3 POP POP POP JUMP JUMPDEST PUSH1 0x0 DUP3 PUSH1 0x1F DUP4 ADD SLT PUSH2 0x7A58 JUMPI PUSH2 0x7A57 PUSH2 0x74D3 JUMP JUMPDEST JUMPDEST DUP2 CALLDATALOAD PUSH2 0x7A68 DUP5 DUP3 PUSH1 0x20 DUP7 ADD PUSH2 0x7A01 JUMP JUMPDEST SWAP2 POP POP SWAP3 SWAP2 POP POP JUMP JUMPDEST PUSH1 0x0 DUP1 PUSH1 0x40 DUP4 DUP6 SUB SLT ISZERO PUSH2 0x7A88 JUMPI PUSH2 0x7A87 PUSH2 0x71AD JUMP JUMPDEST JUMPDEST PUSH1 0x0 DUP4 ADD CALLDATALOAD PUSH8 0xFFFFFFFFFFFFFFFF DUP2 GT ISZERO PUSH2 0x7AA6 JUMPI PUSH2 0x7AA5 PUSH2 0x71B2 JUMP JUMPDEST JUMPDEST PUSH2 0x7AB2 DUP6 DUP3 DUP7 ADD PUSH2 0x7A43 JUMP JUMPDEST SWAP3 POP POP PUSH1 0x20 DUP4 ADD CALLDATALOAD PUSH8 0xFFFFFFFFFFFFFFFF DUP2 GT ISZERO PUSH2 0x7AD3 JUMPI PUSH2 0x7AD2 PUSH2 0x71B2 JUMP JUMPDEST JUMPDEST PUSH2 0x7ADF DUP6 DUP3 DUP7 ADD PUSH2 0x7A43 JUMP JUMPDEST SWAP2 POP POP SWAP3 POP SWAP3 SWAP1 POP JUMP JUMPDEST PUSH1 0x0 DUP1 PUSH1 0x0 DUP1 PUSH1 0x80 DUP6 DUP8 SUB SLT ISZERO PUSH2 0x7B03 JUMPI PUSH2 0x7B02 PUSH2 0x71AD JUMP JUMPDEST JUMPDEST PUSH1 0x0 PUSH2 0x7B11 DUP8 DUP3 DUP9 ADD PUSH2 0x7200 JUMP JUMPDEST SWAP5 POP POP PUSH1 0x20 PUSH2 0x7B22 DUP8 DUP3 DUP9 ADD PUSH2 0x7236 JUMP JUMPDEST SWAP4 POP POP PUSH1 0x40 PUSH2 0x7B33 DUP8 DUP3 DUP9 ADD PUSH2 0x7236 JUMP JUMPDEST SWAP3 POP POP PUSH1 0x60 PUSH2 0x7B44 DUP8 DUP3 DUP9 ADD PUSH2 0x7200 JUMP JUMPDEST SWAP2 POP POP SWAP3 SWAP6 SWAP2 SWAP5 POP SWAP3 POP JUMP JUMPDEST PUSH1 0x0 DUP1 PUSH1 0x0 PUSH1 0x60 DUP5 DUP7 SUB SLT ISZERO PUSH2 0x7B69 JUMPI PUSH2 0x7B68 PUSH2 0x71AD JUMP JUMPDEST JUMPDEST PUSH1 0x0 PUSH2 0x7B77 DUP7 DUP3 DUP8 ADD PUSH2 0x7200 JUMP JUMPDEST SWAP4 POP POP PUSH1 0x20 PUSH2 0x7B88 DUP7 DUP3 DUP8 ADD PUSH2 0x7200 JUMP JUMPDEST SWAP3 POP POP PUSH1 0x40 PUSH2 0x7B99 DUP7 DUP3 DUP8 ADD PUSH2 0x7236 JUMP JUMPDEST SWAP2 POP POP SWAP3 POP SWAP3 POP SWAP3 JUMP JUMPDEST PUSH1 0x0 PUSH1 0x20 DUP3 DUP5 SUB SLT ISZERO PUSH2 0x7BB9 JUMPI PUSH2 0x7BB8 PUSH2 0x71AD JUMP JUMPDEST JUMPDEST PUSH1 0x0 PUSH2 0x7BC7 DUP5 DUP3 DUP6 ADD PUSH2 0x7200 JUMP JUMPDEST SWAP2 POP POP SWAP3 SWAP2 POP POP JUMP JUMPDEST PUSH1 0x0 DUP1 PUSH1 0x0 DUP1 PUSH1 0x40 DUP6 DUP8 SUB SLT ISZERO PUSH2 0x7BEA JUMPI PUSH2 0x7BE9 PUSH2 0x71AD JUMP JUMPDEST JUMPDEST PUSH1 0x0 DUP6 ADD CALLDATALOAD PUSH8 0xFFFFFFFFFFFFFFFF DUP2 GT ISZERO PUSH2 0x7C08 JUMPI PUSH2 0x7C07 PUSH2 0x71B2 JUMP JUMPDEST JUMPDEST PUSH2 0x7C14 DUP8 DUP3 DUP9 ADD PUSH2 0x766A JUMP JUMPDEST SWAP5 POP SWAP5 POP POP PUSH1 0x20 DUP6 ADD CALLDATALOAD PUSH8 0xFFFFFFFFFFFFFFFF DUP2 GT ISZERO PUSH2 0x7C37 JUMPI PUSH2 0x7C36 PUSH2 0x71B2 JUMP JUMPDEST JUMPDEST PUSH2 0x7C43 DUP8 DUP3 DUP9 ADD PUSH2 0x74E2 JUMP JUMPDEST SWAP3 POP SWAP3 POP POP SWAP3 SWAP6 SWAP2 SWAP5 POP SWAP3 POP JUMP JUMPDEST PUSH1 0x0 DUP2 MLOAD SWAP1 POP SWAP2 SWAP1 POP JUMP JUMPDEST PUSH1 0x0 DUP3 DUP3 MSTORE PUSH1 0x20 DUP3 ADD SWAP1 POP SWAP3 SWAP2 POP POP JUMP JUMPDEST PUSH1 0x0 DUP2 SWAP1 POP PUSH1 0x20 DUP3 ADD SWAP1 POP SWAP2 SWAP1 POP JUMP JUMPDEST PUSH1 0x0 PUSH2 0x7C89 DUP4 DUP4 PUSH2 0x781F JUMP JUMPDEST PUSH1 0x20 DUP4 ADD SWAP1 POP SWAP3 SWAP2 POP POP JUMP JUMPDEST PUSH1 0x0 PUSH1 0x20 DUP3 ADD SWAP1 POP SWAP2 SWAP1 POP JUMP JUMPDEST PUSH1 0x0 PUSH2 0x7CAD DUP3 PUSH2 0x7C51 JUMP JUMPDEST PUSH2 0x7CB7 DUP2 DUP6 PUSH2 0x7C5C JUMP JUMPDEST SWAP4 POP PUSH2 0x7CC2 DUP4 PUSH2 0x7C6D JUMP JUMPDEST DUP1 PUSH1 0x0 JUMPDEST DUP4 DUP2 LT ISZERO PUSH2 0x7CF3 JUMPI DUP2 MLOAD PUSH2 0x7CDA DUP9 DUP3 PUSH2 0x7C7D JUMP JUMPDEST SWAP8 POP PUSH2 0x7CE5 DUP4 PUSH2 0x7C95 JUMP JUMPDEST SWAP3 POP POP PUSH1 0x1 DUP2 ADD SWAP1 POP PUSH2 0x7CC6 JUMP JUMPDEST POP DUP6 SWAP4 POP POP POP POP SWAP3 SWAP2 POP POP JUMP JUMPDEST PUSH1 0x0 PUSH1 0x20 DUP3 ADD SWAP1 POP DUP2 DUP2 SUB PUSH1 0x0 DUP4 ADD MSTORE PUSH2 0x7D1A DUP2 DUP5 PUSH2 0x7CA2 JUMP JUMPDEST SWAP1 POP SWAP3 SWAP2 POP POP JUMP JUMPDEST PUSH2 0x7D2B DUP2 PUSH2 0x71D7 JUMP JUMPDEST DUP3 MSTORE POP POP JUMP JUMPDEST PUSH1 0xC0 DUP3 ADD PUSH1 0x0 DUP3 ADD MLOAD PUSH2 0x7D47 PUSH1 0x0 DUP6 ADD DUP3 PUSH2 0x7D22 JUMP JUMPDEST POP PUSH1 0x20 DUP3 ADD MLOAD PUSH2 0x7D5A PUSH1 0x20 DUP6 ADD DUP3 PUSH2 0x781F JUMP JUMPDEST POP PUSH1 0x40 DUP3 ADD MLOAD PUSH2 0x7D6D PUSH1 0x40 DUP6 ADD DUP3 PUSH2 0x781F JUMP JUMPDEST POP PUSH1 0x60 DUP3 ADD MLOAD PUSH2 0x7D80 PUSH1 0x60 DUP6 ADD DUP3 PUSH2 0x781F JUMP JUMPDEST POP PUSH1 0x80 DUP3 ADD MLOAD PUSH2 0x7D93 PUSH1 0x80 DUP6 ADD DUP3 PUSH2 0x781F JUMP JUMPDEST POP PUSH1 0xA0 DUP3 ADD MLOAD PUSH2 0x7DA6 PUSH1 0xA0 DUP6 ADD DUP3 PUSH2 0x781F JUMP JUMPDEST POP POP POP POP JUMP JUMPDEST PUSH1 0x0 PUSH1 0xC0 DUP3 ADD SWAP1 POP PUSH2 0x7DC1 PUSH1 0x0 DUP4 ADD DUP5 PUSH2 0x7D31 JUMP JUMPDEST SWAP3 SWAP2 POP POP JUMP JUMPDEST PUSH2 0x7DD0 DUP2 PUSH2 0x733A JUMP JUMPDEST DUP2 EQ PUSH2 0x7DDB JUMPI PUSH1 0x0 DUP1 REVERT JUMPDEST POP JUMP JUMPDEST PUSH1 0x0 DUP2 CALLDATALOAD SWAP1 POP PUSH2 0x7DED DUP2 PUSH2 0x7DC7 JUMP JUMPDEST SWAP3 SWAP2 POP POP JUMP JUMPDEST PUSH1 0x0 DUP1 PUSH1 0x40 DUP4 DUP6 SUB SLT ISZERO PUSH2 0x7E0A JUMPI PUSH2 0x7E09 PUSH2 0x71AD JUMP JUMPDEST JUMPDEST PUSH1 0x0 PUSH2 0x7E18 DUP6 DUP3 DUP7 ADD PUSH2 0x7200 JUMP JUMPDEST SWAP3 POP POP PUSH1 0x20 PUSH2 0x7E29 DUP6 DUP3 DUP7 ADD PUSH2 0x7DDE JUMP JUMPDEST SWAP2 POP POP SWAP3 POP SWAP3 SWAP1 POP JUMP JUMPDEST PUSH1 0x0 DUP1 PUSH1 0x0 DUP1 PUSH1 0x0 DUP1 PUSH1 0xC0 DUP8 DUP10 SUB SLT ISZERO PUSH2 0x7E50 JUMPI PUSH2 0x7E4F PUSH2 0x71AD JUMP JUMPDEST JUMPDEST PUSH1 0x0 PUSH2 0x7E5E DUP10 DUP3 DUP11 ADD PUSH2 0x7200 JUMP JUMPDEST SWAP7 POP POP PUSH1 0x20 PUSH2 0x7E6F DUP10 DUP3 DUP11 ADD PUSH2 0x7200 JUMP JUMPDEST SWAP6 POP POP PUSH1 0x40 PUSH2 0x7E80 DUP10 DUP3 DUP11 ADD PUSH2 0x7236 JUMP JUMPDEST SWAP5 POP POP PUSH1 0x60 PUSH2 0x7E91 DUP10 DUP3 DUP11 ADD PUSH2 0x7236 JUMP JUMPDEST SWAP4 POP POP PUSH1 0x80 PUSH2 0x7EA2 DUP10 DUP3 DUP11 ADD PUSH2 0x7236 JUMP JUMPDEST SWAP3 POP POP PUSH1 0xA0 PUSH2 0x7EB3 DUP10 DUP3 DUP11 ADD PUSH2 0x7200 JUMP JUMPDEST SWAP2 POP POP SWAP3 SWAP6 POP SWAP3 SWAP6 POP SWAP3 SWAP6 JUMP JUMPDEST PUSH1 0x0 PUSH1 0x40 DUP3 ADD SWAP1 POP PUSH2 0x7ED5 PUSH1 0x0 DUP4 ADD DUP6 PUSH2 0x728B JUMP JUMPDEST PUSH2 0x7EE2 PUSH1 0x20 DUP4 ADD DUP5 PUSH2 0x728B JUMP JUMPDEST SWAP4 SWAP3 POP POP POP JUMP JUMPDEST PUSH1 0x0 DUP1 PUSH1 0x20 DUP4 DUP6 SUB SLT ISZERO PUSH2 0x7F00 JUMPI PUSH2 0x7EFF PUSH2 0x71AD JUMP JUMPDEST JUMPDEST PUSH1 0x0 DUP4 ADD CALLDATALOAD PUSH8 0xFFFFFFFFFFFFFFFF DUP2 GT ISZERO PUSH2 0x7F1E JUMPI PUSH2 0x7F1D PUSH2 0x71B2 JUMP JUMPDEST JUMPDEST PUSH2 0x7F2A DUP6 DUP3 DUP7 ADD PUSH2 0x74E2 JUMP JUMPDEST SWAP3 POP SWAP3 POP POP SWAP3 POP SWAP3 SWAP1 POP JUMP JUMPDEST PUSH1 0x0 DUP1 DUP4 PUSH1 0x1F DUP5 ADD SLT PUSH2 0x7F4C JUMPI PUSH2 0x7F4B PUSH2 0x74D3 JUMP JUMPDEST JUMPDEST DUP3 CALLDATALOAD SWAP1 POP PUSH8 0xFFFFFFFFFFFFFFFF DUP2 GT ISZERO PUSH2 0x7F69 JUMPI PUSH2 0x7F68 PUSH2 0x74D8 JUMP JUMPDEST JUMPDEST PUSH1 0x20 DUP4 ADD SWAP2 POP DUP4 PUSH1 0x1 DUP3 MUL DUP4 ADD GT ISZERO PUSH2 0x7F85 JUMPI PUSH2 0x7F84 PUSH2 0x74DD JUMP JUMPDEST JUMPDEST SWAP3 POP SWAP3 SWAP1 POP JUMP JUMPDEST PUSH1 0x0 DUP1 PUSH1 0x20 DUP4 DUP6 SUB SLT ISZERO PUSH2 0x7FA3 JUMPI PUSH2 0x7FA2 PUSH2 0x71AD JUMP JUMPDEST JUMPDEST PUSH1 0x0 DUP4 ADD CALLDATALOAD PUSH8 0xFFFFFFFFFFFFFFFF DUP2 GT ISZERO PUSH2 0x7FC1 JUMPI PUSH2 0x7FC0 PUSH2 0x71B2 JUMP JUMPDEST JUMPDEST PUSH2 0x7FCD DUP6 DUP3 DUP7 ADD PUSH2 0x7F36 JUMP JUMPDEST SWAP3 POP SWAP3 POP POP SWAP3 POP SWAP3 SWAP1 POP JUMP JUMPDEST PUSH1 0x0 DUP1 PUSH1 0x40 DUP4 DUP6 SUB SLT ISZERO PUSH2 0x7FF0 JUMPI PUSH2 0x7FEF PUSH2 0x71AD JUMP JUMPDEST JUMPDEST PUSH1 0x0 PUSH2 0x7FFE DUP6 DUP3 DUP7 ADD PUSH2 0x7200 JUMP JUMPDEST SWAP3 POP POP PUSH1 0x20 PUSH2 0x800F DUP6 DUP3 DUP7 ADD PUSH2 0x7200 JUMP JUMPDEST SWAP2 POP POP SWAP3 POP SWAP3 SWAP1 POP JUMP JUMPDEST PUSH1 0x0 DUP1 PUSH1 0x0 DUP1 PUSH1 0x0 PUSH1 0xA0 DUP7 DUP9 SUB SLT ISZERO PUSH2 0x8035 JUMPI PUSH2 0x8034 PUSH2 0x71AD JUMP JUMPDEST JUMPDEST PUSH1 0x0 PUSH2 0x8043 DUP9 DUP3 DUP10 ADD PUSH2 0x7200 JUMP JUMPDEST SWAP6 POP POP PUSH1 0x20 PUSH2 0x8054 DUP9 DUP3 DUP10 ADD PUSH2 0x7200 JUMP JUMPDEST SWAP5 POP POP PUSH1 0x40 PUSH2 0x8065 DUP9 DUP3 DUP10 ADD PUSH2 0x7200 JUMP JUMPDEST SWAP4 POP POP PUSH1 0x60 PUSH2 0x8076 DUP9 DUP3 DUP10 ADD PUSH2 0x7200 JUMP JUMPDEST SWAP3 POP POP PUSH1 0x80 PUSH2 0x8087 DUP9 DUP3 DUP10 ADD PUSH2 0x7200 JUMP JUMPDEST SWAP2 POP POP SWAP3 SWAP6 POP SWAP3 SWAP6 SWAP1 SWAP4 POP JUMP JUMPDEST PUSH1 0x0 DUP1 PUSH1 0x0 DUP1 PUSH1 0x0 DUP1 PUSH1 0xA0 DUP8 DUP10 SUB SLT ISZERO PUSH2 0x80B1 JUMPI PUSH2 0x80B0 PUSH2 0x71AD JUMP JUMPDEST JUMPDEST PUSH1 0x0 PUSH2 0x80BF DUP10 DUP3 DUP11 ADD PUSH2 0x7200 JUMP JUMPDEST SWAP7 POP POP PUSH1 0x20 PUSH2 0x80D0 DUP10 DUP3 DUP11 ADD PUSH2 0x7200 JUMP JUMPDEST SWAP6 POP POP PUSH1 0x40 PUSH2 0x80E1 DUP10 DUP3 DUP11 ADD PUSH2 0x7236 JUMP JUMPDEST SWAP5 POP POP PUSH1 0x60 PUSH2 0x80F2 DUP10 DUP3 DUP11 ADD PUSH2 0x7236 JUMP JUMPDEST SWAP4 POP POP PUSH1 0x80 DUP8 ADD CALLDATALOAD PUSH8 0xFFFFFFFFFFFFFFFF DUP2 GT ISZERO PUSH2 0x8113 JUMPI PUSH2 0x8112 PUSH2 0x71B2 JUMP JUMPDEST JUMPDEST PUSH2 0x811F DUP10 DUP3 DUP11 ADD PUSH2 0x7538 JUMP JUMPDEST SWAP3 POP SWAP3 POP POP SWAP3 SWAP6 POP SWAP3 SWAP6 POP SWAP3 SWAP6 JUMP JUMPDEST PUSH1 0x0 DUP2 MLOAD SWAP1 POP PUSH2 0x813D DUP2 PUSH2 0x71E9 JUMP JUMPDEST SWAP3 SWAP2 POP POP JUMP JUMPDEST PUSH1 0x0 PUSH1 0x20 DUP3 DUP5 SUB SLT ISZERO PUSH2 0x8159 JUMPI PUSH2 0x8158 PUSH2 0x71AD JUMP JUMPDEST JUMPDEST PUSH1 0x0 PUSH2 0x8167 DUP5 DUP3 DUP6 ADD PUSH2 0x812E JUMP JUMPDEST SWAP2 POP POP SWAP3 SWAP2 POP POP JUMP JUMPDEST PUSH32 0x4E487B7100000000000000000000000000000000000000000000000000000000 PUSH1 0x0 MSTORE PUSH1 0x22 PUSH1 0x4 MSTORE PUSH1 0x24 PUSH1 0x0 REVERT JUMPDEST PUSH1 0x0 PUSH1 0x2 DUP3 DIV SWAP1 POP PUSH1 0x1 DUP3 AND DUP1 PUSH2 0x81B7 JUMPI PUSH1 0x7F DUP3 AND SWAP2 POP JUMPDEST PUSH1 0x20 DUP3 LT DUP2 EQ ISZERO PUSH2 0x81CB JUMPI PUSH2 0x81CA PUSH2 0x8170 JUMP JUMPDEST JUMPDEST POP SWAP2 SWAP1 POP JUMP JUMPDEST PUSH32 0x4E487B7100000000000000000000000000000000000000000000000000000000 PUSH1 0x0 MSTORE PUSH1 0x11 PUSH1 0x4 MSTORE PUSH1 0x24 PUSH1 0x0 REVERT JUMPDEST PUSH1 0x0 PUSH2 0x820B DUP3 PUSH2 0x7215 JUMP JUMPDEST SWAP2 POP PUSH2 0x8216 DUP4 PUSH2 0x7215 JUMP JUMPDEST SWAP3 POP DUP2 PUSH32 0xFFFFFFFFFFFFFFFFFFFFFFFFFFFFFFFFFFFFFFFFFFFFFFFFFFFFFFFFFFFFFFFF DIV DUP4 GT DUP3 ISZERO ISZERO AND ISZERO PUSH2 0x824F JUMPI PUSH2 0x824E PUSH2 0x81D1 JUMP JUMPDEST JUMPDEST DUP3 DUP3 MUL SWAP1 POP SWAP3 SWAP2 POP POP JUMP JUMPDEST PUSH1 0x0 DUP2 CALLDATALOAD PUSH2 0x8267 DUP2 PUSH2 0x71E9 JUMP JUMPDEST DUP1 SWAP2 POP POP SWAP2 SWAP1 POP JUMP JUMPDEST PUSH1 0x0 DUP2 PUSH1 0x0 SHL SWAP1 POP SWAP2 SWAP1 POP JUMP JUMPDEST PUSH1 0x0 PUSH20 0xFFFFFFFFFFFFFFFFFFFFFFFFFFFFFFFFFFFFFFFF PUSH2 0x829D DUP5 PUSH2 0x8270 JUMP JUMPDEST SWAP4 POP DUP1 NOT DUP4 AND SWAP3 POP DUP1 DUP5 AND DUP4 OR SWAP2 POP POP SWAP3 SWAP2 POP POP JUMP JUMPDEST PUSH1 0x0 DUP2 SWAP1 POP SWAP2 SWAP1 POP JUMP JUMPDEST PUSH1 0x0 PUSH2 0x82D8 PUSH2 0x82D3 PUSH2 0x82CE DUP5 PUSH2 0x71B7 JUMP JUMPDEST PUSH2 0x82B3 JUMP JUMPDEST PUSH2 0x71B7 JUMP JUMPDEST SWAP1 POP SWAP2 SWAP1 POP JUMP JUMPDEST PUSH1 0x0 PUSH2 0x82EA DUP3 PUSH2 0x82BD JUMP JUMPDEST SWAP1 POP SWAP2 SWAP1 POP JUMP JUMPDEST PUSH1 0x0 PUSH2 0x82FC DUP3 PUSH2 0x82DF JUMP JUMPDEST SWAP1 POP SWAP2 SWAP1 POP JUMP JUMPDEST PUSH1 0x0 DUP2 SWAP1 POP SWAP2 SWAP1 POP JUMP JUMPDEST PUSH2 0x8316 DUP3 PUSH2 0x82F1 JUMP JUMPDEST PUSH2 0x8329 PUSH2 0x8322 DUP3 PUSH2 0x8303 JUMP JUMPDEST DUP4 SLOAD PUSH2 0x827D JUMP JUMPDEST DUP3 SSTORE POP POP POP JUMP JUMPDEST PUSH1 0x0 DUP2 CALLDATALOAD PUSH2 0x833D DUP2 PUSH2 0x721F JUMP JUMPDEST DUP1 SWAP2 POP POP SWAP2 SWAP1 POP JUMP JUMPDEST PUSH1 0x0 PUSH32 0xFFFFFFFFFFFFFFFFFFFFFFFFFFFFFFFFFFFFFFFFFFFFFFFFFFFFFFFFFFFFFFFF PUSH2 0x8372 DUP5 PUSH2 0x8270 JUMP JUMPDEST SWAP4 POP DUP1 NOT DUP4 AND SWAP3 POP DUP1 DUP5 AND DUP4 OR SWAP2 POP POP SWAP3 SWAP2 POP POP JUMP JUMPDEST PUSH1 0x0 PUSH2 0x83A3 PUSH2 0x839E PUSH2 0x8399 DUP5 PUSH2 0x7215 JUMP JUMPDEST PUSH2 0x82B3 JUMP JUMPDEST PUSH2 0x7215 JUMP JUMPDEST SWAP1 POP SWAP2 SWAP1 POP JUMP JUMPDEST PUSH1 0x0 DUP2 SWAP1 POP SWAP2 SWAP1 POP JUMP JUMPDEST PUSH2 0x83BD DUP3 PUSH2 0x8388 JUMP JUMPDEST PUSH2 0x83D0 PUSH2 0x83C9 DUP3 PUSH2 0x83AA JUMP JUMPDEST DUP4 SLOAD PUSH2 0x8346 JUMP JUMPDEST DUP3 SSTORE POP POP POP JUMP JUMPDEST PUSH1 0x0 DUP2 ADD PUSH1 0x0 DUP4 ADD DUP1 PUSH2 0x83E9 DUP2 PUSH2 0x825A JUMP JUMPDEST SWAP1 POP PUSH2 0x83F5 DUP2 DUP5 PUSH2 0x830D JUMP JUMPDEST POP POP POP PUSH1 0x1 DUP2 ADD PUSH1 0x20 DUP4 ADD DUP1 PUSH2 0x840A DUP2 PUSH2 0x8330 JUMP JUMPDEST SWAP1 POP PUSH2 0x8416 DUP2 DUP5 PUSH2 0x83B4 JUMP JUMPDEST POP POP POP PUSH1 0x2 DUP2 ADD PUSH1 0x40 DUP4 ADD DUP1 PUSH2 0x842B DUP2 PUSH2 0x8330 JUMP JUMPDEST SWAP1 POP PUSH2 0x8437 DUP2 DUP5 PUSH2 0x83B4 JUMP JUMPDEST POP POP POP PUSH1 0x3 DUP2 ADD PUSH1 0x60 DUP4 ADD DUP1 PUSH2 0x844C DUP2 PUSH2 0x8330 JUMP JUMPDEST SWAP1 POP PUSH2 0x8458 DUP2 DUP5 PUSH2 0x83B4 JUMP JUMPDEST POP POP POP PUSH1 0x4 DUP2 ADD PUSH1 0x80 DUP4 ADD DUP1 PUSH2 0x846D DUP2 PUSH2 0x8330 JUMP JUMPDEST SWAP1 POP PUSH2 0x8479 DUP2 DUP5 PUSH2 0x83B4 JUMP JUMPDEST POP POP POP PUSH1 0x5 DUP2 ADD PUSH1 0xA0 DUP4 ADD DUP1 PUSH2 0x848E DUP2 PUSH2 0x8330 JUMP JUMPDEST SWAP1 POP PUSH2 0x849A DUP2 DUP5 PUSH2 0x83B4 JUMP JUMPDEST POP POP POP POP POP JUMP JUMPDEST PUSH2 0x84AB DUP3 DUP3 PUSH2 0x83D7 JUMP JUMPDEST POP POP JUMP JUMPDEST PUSH1 0x0 DUP2 SWAP1 POP SWAP3 SWAP2 POP POP JUMP JUMPDEST PUSH1 0x0 DUP2 SWAP1 POP DUP2 PUSH1 0x0 MSTORE PUSH1 0x20 PUSH1 0x0 KECCAK256 SWAP1 POP SWAP2 SWAP1 POP JUMP JUMPDEST PUSH1 0x0 DUP2 SLOAD PUSH2 0x84DC DUP2 PUSH2 0x819F JUMP JUMPDEST PUSH2 0x84E6 DUP2 DUP7 PUSH2 0x84AF JUMP JUMPDEST SWAP5 POP PUSH1 0x1 DUP3 AND PUSH1 0x0 DUP2 EQ PUSH2 0x8501 JUMPI PUSH1 0x1 DUP2 EQ PUSH2 0x8512 JUMPI PUSH2 0x8545 JUMP JUMPDEST PUSH1 0xFF NOT DUP4 AND DUP7 MSTORE DUP2 DUP7 ADD SWAP4 POP PUSH2 0x8545 JUMP JUMPDEST PUSH2 0x851B DUP6 PUSH2 0x84BA JUMP JUMPDEST PUSH1 0x0 JUMPDEST DUP4 DUP2 LT ISZERO PUSH2 0x853D JUMPI DUP2 SLOAD DUP2 DUP10 ADD MSTORE PUSH1 0x1 DUP3 ADD SWAP2 POP PUSH1 0x20 DUP2 ADD SWAP1 POP PUSH2 0x851E JUMP JUMPDEST DUP4 DUP9 ADD SWAP6 POP POP POP JUMPDEST POP POP POP SWAP3 SWAP2 POP POP JUMP JUMPDEST PUSH1 0x0 DUP2 SWAP1 POP SWAP2 SWAP1 POP JUMP JUMPDEST PUSH2 0x8569 PUSH2 0x8564 DUP3 PUSH2 0x7215 JUMP JUMPDEST PUSH2 0x854E JUMP JUMPDEST DUP3 MSTORE POP POP JUMP JUMPDEST PUSH32 0x2E6A736F6E000000000000000000000000000000000000000000000000000000 PUSH1 0x0 DUP3 ADD MSTORE POP JUMP JUMPDEST PUSH1 0x0 PUSH2 0x85A5 PUSH1 0x5 DUP4 PUSH2 0x84AF JUMP JUMPDEST SWAP2 POP PUSH2 0x85B0 DUP3 PUSH2 0x856F JUMP JUMPDEST PUSH1 0x5 DUP3 ADD SWAP1 POP SWAP2 SWAP1 POP JUMP JUMPDEST PUSH1 0x0 PUSH2 0x85C7 DUP3 DUP6 PUSH2 0x84CF JUMP JUMPDEST SWAP2 POP PUSH2 0x85D3 DUP3 DUP5 PUSH2 0x8558 JUMP JUMPDEST PUSH1 0x20 DUP3 ADD SWAP2 POP PUSH2 0x85E2 DUP3 PUSH2 0x8598 JUMP JUMPDEST SWAP2 POP DUP2 SWAP1 POP SWAP4 SWAP3 POP POP POP JUMP JUMPDEST PUSH1 0x0 PUSH2 0x85F9 DUP3 PUSH2 0x7215 JUMP JUMPDEST SWAP2 POP PUSH32 0xFFFFFFFFFFFFFFFFFFFFFFFFFFFFFFFFFFFFFFFFFFFFFFFFFFFFFFFFFFFFFFFF DUP3 EQ ISZERO PUSH2 0x862C JUMPI PUSH2 0x862B PUSH2 0x81D1 JUMP JUMPDEST JUMPDEST PUSH1 0x1 DUP3 ADD SWAP1 POP SWAP2 SWAP1 POP JUMP JUMPDEST PUSH1 0x0 PUSH2 0x8642 DUP3 PUSH2 0x7215 JUMP JUMPDEST SWAP2 POP PUSH2 0x864D DUP4 PUSH2 0x7215 JUMP JUMPDEST SWAP3 POP DUP3 PUSH32 0xFFFFFFFFFFFFFFFFFFFFFFFFFFFFFFFFFFFFFFFFFFFFFFFFFFFFFFFFFFFFFFFF SUB DUP3 GT ISZERO PUSH2 0x8682 JUMPI PUSH2 0x8681 PUSH2 0x81D1 JUMP JUMPDEST JUMPDEST DUP3 DUP3 ADD SWAP1 POP SWAP3 SWAP2 POP POP JUMP JUMPDEST PUSH32 0x4E487B7100000000000000000000000000000000000000000000000000000000 PUSH1 0x0 MSTORE PUSH1 0x32 PUSH1 0x4 MSTORE PUSH1 0x24 PUSH1 0x0 REVERT JUMPDEST PUSH32 0x4300000000000000000000000000000000000000000000000000000000000000 PUSH1 0x0 DUP3 ADD MSTORE POP JUMP JUMPDEST PUSH1 0x0 PUSH2 0x86F2 PUSH1 0x1 DUP4 PUSH2 0x73D2 JUMP JUMPDEST SWAP2 POP PUSH2 0x86FD DUP3 PUSH2 0x86BC JUMP JUMPDEST PUSH1 0x20 DUP3 ADD SWAP1 POP SWAP2 SWAP1 POP JUMP JUMPDEST PUSH1 0x0 PUSH1 0x20 DUP3 ADD SWAP1 POP DUP2 DUP2 SUB PUSH1 0x0 DUP4 ADD MSTORE PUSH2 0x8721 DUP2 PUSH2 0x86E5 JUMP JUMPDEST SWAP1 POP SWAP2 SWAP1 POP JUMP JUMPDEST PUSH32 0x4400000000000000000000000000000000000000000000000000000000000000 PUSH1 0x0 DUP3 ADD MSTORE POP JUMP JUMPDEST PUSH1 0x0 PUSH2 0x875E PUSH1 0x1 DUP4 PUSH2 0x73D2 JUMP JUMPDEST SWAP2 POP PUSH2 0x8769 DUP3 PUSH2 0x8728 JUMP JUMPDEST PUSH1 0x20 DUP3 ADD SWAP1 POP SWAP2 SWAP1 POP JUMP JUMPDEST PUSH1 0x0 PUSH1 0x20 DUP3 ADD SWAP1 POP DUP2 DUP2 SUB PUSH1 0x0 DUP4 ADD MSTORE PUSH2 0x878D DUP2 PUSH2 0x8751 JUMP JUMPDEST SWAP1 POP SWAP2 SWAP1 POP JUMP JUMPDEST PUSH1 0x0 PUSH2 0x879F DUP3 PUSH2 0x7215 JUMP JUMPDEST SWAP2 POP PUSH2 0x87AA DUP4 PUSH2 0x7215 JUMP JUMPDEST SWAP3 POP DUP3 DUP3 LT ISZERO PUSH2 0x87BD JUMPI PUSH2 0x87BC PUSH2 0x81D1 JUMP JUMPDEST JUMPDEST DUP3 DUP3 SUB SWAP1 POP SWAP3 SWAP2 POP POP JUMP JUMPDEST PUSH32 0x4600000000000000000000000000000000000000000000000000000000000000 PUSH1 0x0 DUP3 ADD MSTORE POP JUMP JUMPDEST PUSH1 0x0 PUSH2 0x87FE PUSH1 0x1 DUP4 PUSH2 0x73D2 JUMP JUMPDEST SWAP2 POP PUSH2 0x8809 DUP3 PUSH2 0x87C8 JUMP JUMPDEST PUSH1 0x20 DUP3 ADD SWAP1 POP SWAP2 SWAP1 POP JUMP JUMPDEST PUSH1 0x0 PUSH1 0x20 DUP3 ADD SWAP1 POP DUP2 DUP2 SUB PUSH1 0x0 DUP4 ADD MSTORE PUSH2 0x882D DUP2 PUSH2 0x87F1 JUMP JUMPDEST SWAP1 POP SWAP2 SWAP1 POP JUMP JUMPDEST PUSH32 0x4E487B7100000000000000000000000000000000000000000000000000000000 PUSH1 0x0 MSTORE PUSH1 0x12 PUSH1 0x4 MSTORE PUSH1 0x24 PUSH1 0x0 REVERT JUMPDEST PUSH1 0x0 PUSH2 0x886E DUP3 PUSH2 0x7215 JUMP JUMPDEST SWAP2 POP PUSH2 0x8879 DUP4 PUSH2 0x7215 JUMP JUMPDEST SWAP3 POP DUP3 PUSH2 0x8889 JUMPI PUSH2 0x8888 PUSH2 0x8834 JUMP JUMPDEST JUMPDEST DUP3 DUP3 DIV SWAP1 POP SWAP3 SWAP2 POP POP JUMP JUMPDEST PUSH1 0x0 PUSH1 0x40 DUP3 ADD SWAP1 POP PUSH2 0x88A9 PUSH1 0x0 DUP4 ADD DUP6 PUSH2 0x739D JUMP JUMPDEST PUSH2 0x88B6 PUSH1 0x20 DUP4 ADD DUP5 PUSH2 0x728B JUMP JUMPDEST SWAP4 SWAP3 POP POP POP JUMP JUMPDEST PUSH1 0x0 PUSH2 0x88C8 DUP3 PUSH2 0x77F4 JUMP JUMPDEST SWAP2 POP PUSH2 0x88D3 DUP4 PUSH2 0x77F4 JUMP JUMPDEST SWAP3 POP DUP3 PUSH16 0xFFFFFFFFFFFFFFFFFFFFFFFFFFFFFFFF SUB DUP3 GT ISZERO PUSH2 0x88F8 JUMPI PUSH2 0x88F7 PUSH2 0x81D1 JUMP JUMPDEST JUMPDEST DUP3 DUP3 ADD SWAP1 POP SWAP3 SWAP2 POP POP JUMP JUMPDEST PUSH1 0x0 PUSH1 0x80 DUP3 ADD SWAP1 POP PUSH2 0x8918 PUSH1 0x0 DUP4 ADD DUP8 PUSH2 0x739D JUMP JUMPDEST PUSH2 0x8925 PUSH1 0x20 DUP4 ADD DUP7 PUSH2 0x728B JUMP JUMPDEST PUSH2 0x8932 PUSH1 0x40 DUP4 ADD DUP6 PUSH2 0x728B JUMP JUMPDEST PUSH2 0x893F PUSH1 0x60 DUP4 ADD DUP5 PUSH2 0x728B JUMP JUMPDEST SWAP6 SWAP5 POP POP POP POP POP JUMP JUMPDEST PUSH1 0x0 PUSH2 0x8963 PUSH2 0x895E PUSH2 0x8959 DUP5 PUSH2 0x77F4 JUMP JUMPDEST PUSH2 0x82B3 JUMP JUMPDEST PUSH2 0x7215 JUMP JUMPDEST SWAP1 POP SWAP2 SWAP1 POP JUMP JUMPDEST PUSH2 0x8973 DUP2 PUSH2 0x8948 JUMP JUMPDEST DUP3 MSTORE POP POP JUMP JUMPDEST PUSH1 0x0 PUSH1 0x80 DUP3 ADD SWAP1 POP PUSH2 0x898E PUSH1 0x0 DUP4 ADD DUP8 PUSH2 0x739D JUMP JUMPDEST PUSH2 0x899B PUSH1 0x20 DUP4 ADD DUP7 PUSH2 0x896A JUMP JUMPDEST PUSH2 0x89A8 PUSH1 0x40 DUP4 ADD DUP6 PUSH2 0x896A JUMP JUMPDEST PUSH2 0x89B5 PUSH1 0x60 DUP4 ADD DUP5 PUSH2 0x728B JUMP JUMPDEST SWAP6 SWAP5 POP POP POP POP POP JUMP JUMPDEST PUSH32 0x4800000000000000000000000000000000000000000000000000000000000000 PUSH1 0x0 DUP3 ADD MSTORE POP JUMP JUMPDEST PUSH1 0x0 PUSH2 0x89F4 PUSH1 0x1 DUP4 PUSH2 0x73D2 JUMP JUMPDEST SWAP2 POP PUSH2 0x89FF DUP3 PUSH2 0x89BE JUMP JUMPDEST PUSH1 0x20 DUP3 ADD SWAP1 POP SWAP2 SWAP1 POP JUMP JUMPDEST PUSH1 0x0 PUSH1 0x20 DUP3 ADD SWAP1 POP DUP2 DUP2 SUB PUSH1 0x0 DUP4 ADD MSTORE PUSH2 0x8A23 DUP2 PUSH2 0x89E7 JUMP JUMPDEST SWAP1 POP SWAP2 SWAP1 POP JUMP JUMPDEST PUSH32 0x6900000000000000000000000000000000000000000000000000000000000000 PUSH1 0x0 DUP3 ADD MSTORE POP JUMP JUMPDEST PUSH1 0x0 PUSH2 0x8A60 PUSH1 0x1 DUP4 PUSH2 0x73D2 JUMP JUMPDEST SWAP2 POP PUSH2 0x8A6B DUP3 PUSH2 0x8A2A JUMP JUMPDEST PUSH1 0x20 DUP3 ADD SWAP1 POP SWAP2 SWAP1 POP JUMP JUMPDEST PUSH1 0x0 PUSH1 0x20 DUP3 ADD SWAP1 POP DUP2 DUP2 SUB PUSH1 0x0 DUP4 ADD MSTORE PUSH2 0x8A8F DUP2 PUSH2 0x8A53 JUMP JUMPDEST SWAP1 POP SWAP2 SWAP1 POP JUMP JUMPDEST PUSH32 0x4C00000000000000000000000000000000000000000000000000000000000000 PUSH1 0x0 DUP3 ADD MSTORE POP JUMP JUMPDEST PUSH1 0x0 PUSH2 0x8ACC PUSH1 0x1 DUP4 PUSH2 0x73D2 JUMP JUMPDEST SWAP2 POP PUSH2 0x8AD7 DUP3 PUSH2 0x8A96 JUMP JUMPDEST PUSH1 0x20 DUP3 ADD SWAP1 POP SWAP2 SWAP1 POP JUMP JUMPDEST PUSH1 0x0 PUSH1 0x20 DUP3 ADD SWAP1 POP DUP2 DUP2 SUB PUSH1 0x0 DUP4 ADD MSTORE PUSH2 0x8AFB DUP2 PUSH2 0x8ABF JUMP JUMPDEST SWAP1 POP SWAP2 SWAP1 POP JUMP JUMPDEST PUSH1 0x0 PUSH2 0x8B0E DUP4 DUP6 PUSH2 0x84AF JUMP JUMPDEST SWAP4 POP PUSH2 0x8B1B DUP4 DUP6 DUP5 PUSH2 0x79F2 JUMP JUMPDEST DUP3 DUP5 ADD SWAP1 POP SWAP4 SWAP3 POP POP POP JUMP JUMPDEST PUSH32 0x7B69647D2E6A736F6E0000000000000000000000000000000000000000000000 PUSH1 0x0 DUP3 ADD MSTORE POP JUMP JUMPDEST PUSH1 0x0 PUSH2 0x8B5D PUSH1 0x9 DUP4 PUSH2 0x84AF JUMP JUMPDEST SWAP2 POP PUSH2 0x8B68 DUP3 PUSH2 0x8B27 JUMP JUMPDEST PUSH1 0x9 DUP3 ADD SWAP1 POP SWAP2 SWAP1 POP JUMP JUMPDEST PUSH1 0x0 PUSH2 0x8B80 DUP3 DUP5 DUP7 PUSH2 0x8B02 JUMP JUMPDEST SWAP2 POP PUSH2 0x8B8B DUP3 PUSH2 0x8B50 JUMP JUMPDEST SWAP2 POP DUP2 SWAP1 POP SWAP4 SWAP3 POP POP POP JUMP JUMPDEST PUSH32 0x4B00000000000000000000000000000000000000000000000000000000000000 PUSH1 0x0 DUP3 ADD MSTORE POP JUMP JUMPDEST PUSH1 0x0 PUSH2 0x8BCD PUSH1 0x1 DUP4 PUSH2 0x73D2 JUMP JUMPDEST SWAP2 POP PUSH2 0x8BD8 DUP3 PUSH2 0x8B97 JUMP JUMPDEST PUSH1 0x20 DUP3 ADD SWAP1 POP SWAP2 SWAP1 POP JUMP JUMPDEST PUSH1 0x0 PUSH1 0x20 DUP3 ADD SWAP1 POP DUP2 DUP2 SUB PUSH1 0x0 DUP4 ADD MSTORE PUSH2 0x8BFC DUP2 PUSH2 0x8BC0 JUMP JUMPDEST SWAP1 POP SWAP2 SWAP1 POP JUMP JUMPDEST PUSH32 0x4A00000000000000000000000000000000000000000000000000000000000000 PUSH1 0x0 DUP3 ADD MSTORE POP JUMP JUMPDEST PUSH1 0x0 PUSH2 0x8C39 PUSH1 0x1 DUP4 PUSH2 0x73D2 JUMP JUMPDEST SWAP2 POP PUSH2 0x8C44 DUP3 PUSH2 0x8C03 JUMP JUMPDEST PUSH1 0x20 DUP3 ADD SWAP1 POP SWAP2 SWAP1 POP JUMP JUMPDEST PUSH1 0x0 PUSH1 0x20 DUP3 ADD SWAP1 POP DUP2 DUP2 SUB PUSH1 0x0 DUP4 ADD MSTORE PUSH2 0x8C68 DUP2 PUSH2 0x8C2C JUMP JUMPDEST SWAP1 POP SWAP2 SWAP1 POP JUMP JUMPDEST PUSH32 0x5500000000000000000000000000000000000000000000000000000000000000 PUSH1 0x0 DUP3 ADD MSTORE POP JUMP JUMPDEST PUSH1 0x0 PUSH2 0x8CA5 PUSH1 0x1 DUP4 PUSH2 0x73D2 JUMP JUMPDEST SWAP2 POP PUSH2 0x8CB0 DUP3 PUSH2 0x8C6F JUMP JUMPDEST PUSH1 0x20 DUP3 ADD SWAP1 POP SWAP2 SWAP1 POP JUMP JUMPDEST PUSH1 0x0 PUSH1 0x20 DUP3 ADD SWAP1 POP DUP2 DUP2 SUB PUSH1 0x0 DUP4 ADD MSTORE PUSH2 0x8CD4 DUP2 PUSH2 0x8C98 JUMP JUMPDEST SWAP1 POP SWAP2 SWAP1 POP JUMP JUMPDEST PUSH1 0x0 DUP1 REVERT JUMPDEST PUSH1 0x0 PUSH2 0x8CEC DUP4 DUP6 PUSH2 0x7C5C JUMP JUMPDEST SWAP4 POP PUSH32 0x7FFFFFFFFFFFFFFFFFFFFFFFFFFFFFFFFFFFFFFFFFFFFFFFFFFFFFFFFFFFFFF DUP4 GT ISZERO PUSH2 0x8D1F JUMPI PUSH2 0x8D1E PUSH2 0x8CDB JUMP JUMPDEST JUMPDEST PUSH1 0x20 DUP4 MUL SWAP3 POP PUSH2 0x8D30 DUP4 DUP6 DUP5 PUSH2 0x79F2 JUMP JUMPDEST DUP3 DUP5 ADD SWAP1 POP SWAP4 SWAP3 POP POP POP JUMP JUMPDEST PUSH1 0x0 PUSH1 0x40 DUP3 ADD SWAP1 POP DUP2 DUP2 SUB PUSH1 0x0 DUP4 ADD MSTORE PUSH2 0x8D57 DUP2 DUP7 DUP9 PUSH2 0x8CE0 JUMP JUMPDEST SWAP1 POP DUP2 DUP2 SUB PUSH1 0x20 DUP4 ADD MSTORE PUSH2 0x8D6C DUP2 DUP5 DUP7 PUSH2 0x8CE0 JUMP JUMPDEST SWAP1 POP SWAP6 SWAP5 POP POP POP POP POP JUMP JUMPDEST PUSH32 0x4700000000000000000000000000000000000000000000000000000000000000 PUSH1 0x0 DUP3 ADD MSTORE POP JUMP JUMPDEST PUSH1 0x0 PUSH2 0x8DAD PUSH1 0x1 DUP4 PUSH2 0x73D2 JUMP JUMPDEST SWAP2 POP PUSH2 0x8DB8 DUP3 PUSH2 0x8D77 JUMP JUMPDEST PUSH1 0x20 DUP3 ADD SWAP1 POP SWAP2 SWAP1 POP JUMP JUMPDEST PUSH1 0x0 PUSH1 0x20 DUP3 ADD SWAP1 POP DUP2 DUP2 SUB PUSH1 0x0 DUP4 ADD MSTORE PUSH2 0x8DDC DUP2 PUSH2 0x8DA0 JUMP JUMPDEST SWAP1 POP SWAP2 SWAP1 POP JUMP JUMPDEST PUSH1 0x0 DUP2 MLOAD SWAP1 POP PUSH2 0x8DF2 DUP2 PUSH2 0x721F JUMP JUMPDEST SWAP3 SWAP2 POP POP JUMP JUMPDEST PUSH1 0x0 PUSH1 0x20 DUP3 DUP5 SUB SLT ISZERO PUSH2 0x8E0E JUMPI PUSH2 0x8E0D PUSH2 0x71AD JUMP JUMPDEST JUMPDEST PUSH1 0x0 PUSH2 0x8E1C DUP5 DUP3 DUP6 ADD PUSH2 0x8DE3 JUMP JUMPDEST SWAP2 POP POP SWAP3 SWAP2 POP POP JUMP JUMPDEST PUSH1 0x0 PUSH2 0x8E30 DUP3 PUSH2 0x7215 JUMP JUMPDEST SWAP2 POP PUSH2 0x8E3B DUP4 PUSH2 0x7215 JUMP JUMPDEST SWAP3 POP DUP3 PUSH2 0x8E4B JUMPI PUSH2 0x8E4A PUSH2 0x8834 JUMP JUMPDEST JUMPDEST DUP3 DUP3 MOD SWAP1 POP SWAP3 SWAP2 POP POP JUMP JUMPDEST PUSH1 0x0 PUSH2 0x8E61 DUP3 PUSH2 0x77F4 JUMP JUMPDEST SWAP2 POP PUSH2 0x8E6C DUP4 PUSH2 0x77F4 JUMP JUMPDEST SWAP3 POP DUP3 DUP3 LT ISZERO PUSH2 0x8E7F JUMPI PUSH2 0x8E7E PUSH2 0x81D1 JUMP JUMPDEST JUMPDEST DUP3 DUP3 SUB SWAP1 POP SWAP3 SWAP2 POP POP JUMP JUMPDEST PUSH32 0x3200000000000000000000000000000000000000000000000000000000000000 PUSH1 0x0 DUP3 ADD MSTORE POP JUMP JUMPDEST PUSH1 0x0 PUSH2 0x8EC0 PUSH1 0x1 DUP4 PUSH2 0x73D2 JUMP JUMPDEST SWAP2 POP PUSH2 0x8ECB DUP3 PUSH2 0x8E8A JUMP JUMPDEST PUSH1 0x20 DUP3 ADD SWAP1 POP SWAP2 SWAP1 POP JUMP JUMPDEST PUSH1 0x0 PUSH1 0x20 DUP3 ADD SWAP1 POP DUP2 DUP2 SUB PUSH1 0x0 DUP4 ADD MSTORE PUSH2 0x8EEF DUP2 PUSH2 0x8EB3 JUMP JUMPDEST SWAP1 POP SWAP2 SWAP1 POP JUMP JUMPDEST PUSH32 0x5A00000000000000000000000000000000000000000000000000000000000000 PUSH1 0x0 DUP3 ADD MSTORE POP JUMP JUMPDEST PUSH1 0x0 PUSH2 0x8F2C PUSH1 0x1 DUP4 PUSH2 0x73D2 JUMP JUMPDEST SWAP2 POP PUSH2 0x8F37 DUP3 PUSH2 0x8EF6 JUMP JUMPDEST PUSH1 0x20 DUP3 ADD SWAP1 POP SWAP2 SWAP1 POP JUMP JUMPDEST PUSH1 0x0 PUSH1 0x20 DUP3 ADD SWAP1 POP DUP2 DUP2 SUB PUSH1 0x0 DUP4 ADD MSTORE PUSH2 0x8F5B DUP2 PUSH2 0x8F1F JUMP JUMPDEST SWAP1 POP SWAP2 SWAP1 POP JUMP JUMPDEST PUSH32 0x3100000000000000000000000000000000000000000000000000000000000000 PUSH1 0x0 DUP3 ADD MSTORE POP JUMP JUMPDEST PUSH1 0x0 PUSH2 0x8F98 PUSH1 0x1 DUP4 PUSH2 0x73D2 JUMP JUMPDEST SWAP2 POP PUSH2 0x8FA3 DUP3 PUSH2 0x8F62 JUMP JUMPDEST PUSH1 0x20 DUP3 ADD SWAP1 POP SWAP2 SWAP1 POP JUMP JUMPDEST PUSH1 0x0 PUSH1 0x20 DUP3 ADD SWAP1 POP DUP2 DUP2 SUB PUSH1 0x0 DUP4 ADD MSTORE PUSH2 0x8FC7 DUP2 PUSH2 0x8F8B JUMP JUMPDEST SWAP1 POP SWAP2 SWAP1 POP JUMP JUMPDEST PUSH1 0x0 DUP2 MLOAD SWAP1 POP SWAP2 SWAP1 POP JUMP JUMPDEST PUSH1 0x0 DUP3 DUP3 MSTORE PUSH1 0x20 DUP3 ADD SWAP1 POP SWAP3 SWAP2 POP POP JUMP JUMPDEST PUSH1 0x0 PUSH2 0x8FF5 DUP3 PUSH2 0x8FCE JUMP JUMPDEST PUSH2 0x8FFF DUP2 DUP6 PUSH2 0x8FD9 JUMP JUMPDEST SWAP4 POP PUSH2 0x900F DUP2 DUP6 PUSH1 0x20 DUP7 ADD PUSH2 0x73E3 JUMP JUMPDEST PUSH2 0x9018 DUP2 PUSH2 0x7416 JUMP JUMPDEST DUP5 ADD SWAP2 POP POP SWAP3 SWAP2 POP POP JUMP JUMPDEST PUSH1 0x0 PUSH1 0xA0 DUP3 ADD SWAP1 POP PUSH2 0x9038 PUSH1 0x0 DUP4 ADD DUP11 PUSH2 0x739D JUMP JUMPDEST PUSH2 0x9045 PUSH1 0x20 DUP4 ADD DUP10 PUSH2 0x739D JUMP JUMPDEST DUP2 DUP2 SUB PUSH1 0x40 DUP4 ADD MSTORE PUSH2 0x9058 DUP2 DUP8 DUP10 PUSH2 0x8CE0 JUMP JUMPDEST SWAP1 POP DUP2 DUP2 SUB PUSH1 0x60 DUP4 ADD MSTORE PUSH2 0x906D DUP2 DUP6 DUP8 PUSH2 0x8CE0 JUMP JUMPDEST SWAP1 POP DUP2 DUP2 SUB PUSH1 0x80 DUP4 ADD MSTORE PUSH2 0x9081 DUP2 DUP5 PUSH2 0x8FEA JUMP JUMPDEST SWAP1 POP SWAP9 SWAP8 POP POP POP POP POP POP POP POP JUMP JUMPDEST PUSH1 0x0 DUP2 MLOAD SWAP1 POP PUSH2 0x909E DUP2 PUSH2 0x72E1 JUMP JUMPDEST SWAP3 SWAP2 POP POP JUMP JUMPDEST PUSH1 0x0 PUSH1 0x20 DUP3 DUP5 SUB SLT ISZERO PUSH2 0x90BA JUMPI PUSH2 0x90B9 PUSH2 0x71AD JUMP JUMPDEST JUMPDEST PUSH1 0x0 PUSH2 0x90C8 DUP5 DUP3 DUP6 ADD PUSH2 0x908F JUMP JUMPDEST SWAP2 POP POP SWAP3 SWAP2 POP POP JUMP JUMPDEST PUSH1 0x0 PUSH1 0x60 DUP3 ADD SWAP1 POP PUSH2 0x90E6 PUSH1 0x0 DUP4 ADD DUP7 PUSH2 0x739D JUMP JUMPDEST PUSH2 0x90F3 PUSH1 0x20 DUP4 ADD DUP6 PUSH2 0x739D JUMP JUMPDEST PUSH2 0x9100 PUSH1 0x40 DUP4 ADD DUP5 PUSH2 0x728B JUMP JUMPDEST SWAP5 SWAP4 POP POP POP POP JUMP JUMPDEST PUSH1 0x0 DUP2 SWAP1 POP SWAP3 SWAP2 POP POP JUMP JUMPDEST PUSH1 0x0 PUSH2 0x911E DUP3 PUSH2 0x8FCE JUMP JUMPDEST PUSH2 0x9128 DUP2 DUP6 PUSH2 0x9108 JUMP JUMPDEST SWAP4 POP PUSH2 0x9138 DUP2 DUP6 PUSH1 0x20 DUP7 ADD PUSH2 0x73E3 JUMP JUMPDEST DUP1 DUP5 ADD SWAP2 POP POP SWAP3 SWAP2 POP POP JUMP JUMPDEST PUSH1 0x0 PUSH2 0x9150 DUP3 DUP5 PUSH2 0x9113 JUMP JUMPDEST SWAP2 POP DUP2 SWAP1 POP SWAP3 SWAP2 POP POP JUMP JUMPDEST PUSH1 0x0 DUP2 MLOAD SWAP1 POP PUSH2 0x916A DUP2 PUSH2 0x7DC7 JUMP JUMPDEST SWAP3 SWAP2 POP POP JUMP JUMPDEST PUSH1 0x0 PUSH1 0x20 DUP3 DUP5 SUB SLT ISZERO PUSH2 0x9186 JUMPI PUSH2 0x9185 PUSH2 0x71AD JUMP JUMPDEST JUMPDEST PUSH1 0x0 PUSH2 0x9194 DUP5 DUP3 DUP6 ADD PUSH2 0x915B JUMP JUMPDEST SWAP2 POP POP SWAP3 SWAP2 POP POP JUMP JUMPDEST PUSH1 0x0 PUSH1 0xA0 DUP3 ADD SWAP1 POP PUSH2 0x91B2 PUSH1 0x0 DUP4 ADD DUP9 PUSH2 0x739D JUMP JUMPDEST PUSH2 0x91BF PUSH1 0x20 DUP4 ADD DUP8 PUSH2 0x739D JUMP JUMPDEST PUSH2 0x91CC PUSH1 0x40 DUP4 ADD DUP7 PUSH2 0x728B JUMP JUMPDEST PUSH2 0x91D9 PUSH1 0x60 DUP4 ADD DUP6 PUSH2 0x728B JUMP JUMPDEST DUP2 DUP2 SUB PUSH1 0x80 DUP4 ADD MSTORE PUSH2 0x91EB DUP2 DUP5 PUSH2 0x8FEA JUMP JUMPDEST SWAP1 POP SWAP7 SWAP6 POP POP POP POP POP POP JUMP INVALID LOG2 PUSH5 0x6970667358 0x22 SLT KECCAK256 GASPRICE 0xB8 SWAP13 0xD0 LT DUP7 0xBA GASPRICE CREATE EQ 0x2B KECCAK256 SWAP9 PUSH21 0x8D25CCB8043D65EE86F6BC6AD31EB8F7079F64736F PUSH13 0x634300080B003368747470733A 0x2F 0x2F PUSH5 0x6174612E63 PUSH6 0x7262792E6669 0x2F NUMBER PUSH6 0x726279537761 PUSH17 0x2F76312F00000000000000000000000000 "
		},
		"gasEstimates": {
			"creation": {
				"codeDepositCost": "7484200",
				"executionCost": "infinite",
				"totalCost": "infinite"
			},
			"external": {
				"addTokenLiquidity(address,uint256,uint256,address)": "infinite",
				"adminChangeCerUsdCreditInPool(address,uint256)": "infinite",
				"adminCreatePool(address,uint256,uint256,address)": "infinite",
				"adminInitialize()": "infinite",
				"adminSetURI(string)": "infinite",
				"adminUpdateFeesAndTvlMultipliers((address,uint256,uint256,uint256,uint256,uint256))": "infinite",
				"adminUpdateNameAndSymbol(string,string)": "infinite",
				"balanceOf(address,uint256)": "infinite",
				"balanceOfBatch(address[],uint256[])": "infinite",
				"createPool(address,uint256,uint256,address)": "infinite",
				"decimals()": "449",
				"exists(uint256)": "2837",
				"getCurrentOneMinusFeeBasedOnTrades(address)": "infinite",
				"getInputTokensForExactTokens(address,address,uint256)": "infinite",
				"getOutputExactTokensForTokens(address,address,uint256)": "infinite",
				"getPoolsByIds(uint256[])": "infinite",
				"getPoolsByTokens(address[])": "infinite",
				"getSettings()": "infinite",
				"getTokenToPoolId(address)": "2908",
				"getUtilsContractAtPos(uint256)": "infinite",
				"increaseCerUsdCreditInPool(address,uint256)": "infinite",
				"isApprovedForAll(address,address)": "infinite",
				"name()": "infinite",
				"owner()": "2612",
				"removeTokenLiquidity(address,uint256,uint256,address)": "infinite",
				"renounceOwnership()": "30428",
				"safeBatchTransferFrom(address,address,uint256[],uint256[],bytes)": "infinite",
				"safeTransferFrom(address,address,uint256,uint256,bytes)": "infinite",
				"setApprovalForAll(address,bool)": "infinite",
				"supportsInterface(bytes4)": "707",
				"swapExactTokensForTokens(address,address,uint256,uint256,uint256,address)": "infinite",
				"swapTokensForExactTokens(address,address,uint256,uint256,uint256,address)": "infinite",
				"symbol()": "infinite",
				"syncPool(address)": "infinite",
				"testInit()": "infinite",
				"testSetupTokens(address,address,address,address,address)": "infinite",
				"totalSupply()": "infinite",
				"totalSupply(uint256)": "infinite",
				"transferOwnership(address)": "30798",
				"uri(uint256)": "infinite"
			}
		},
		"methodIdentifiers": {
			"addTokenLiquidity(address,uint256,uint256,address)": "43fefad4",
			"adminChangeCerUsdCreditInPool(address,uint256)": "cab4ba82",
			"adminCreatePool(address,uint256,uint256,address)": "d5d60737",
			"adminInitialize()": "c09c923b",
			"adminSetURI(string)": "a7fd40bf",
			"adminUpdateFeesAndTvlMultipliers((address,uint256,uint256,uint256,uint256,uint256))": "0c2e075b",
			"adminUpdateNameAndSymbol(string,string)": "3935ac11",
			"balanceOf(address,uint256)": "00fdd58e",
			"balanceOfBatch(address[],uint256[])": "4e1273f4",
			"createPool(address,uint256,uint256,address)": "842980f4",
			"decimals()": "313ce567",
			"exists(uint256)": "4f558e79",
			"getCurrentOneMinusFeeBasedOnTrades(address)": "4c3c0eb2",
			"getInputTokensForExactTokens(address,address,uint256)": "c790985a",
			"getOutputExactTokensForTokens(address,address,uint256)": "48b08d62",
			"getPoolsByIds(uint256[])": "a6d8ad39",
			"getPoolsByTokens(address[])": "34e150ab",
			"getSettings()": "85b4bb53",
			"getTokenToPoolId(address)": "61417516",
			"getUtilsContractAtPos(uint256)": "06fb1a07",
			"increaseCerUsdCreditInPool(address,uint256)": "71858049",
			"isApprovedForAll(address,address)": "e985e9c5",
			"name()": "06fdde03",
			"owner()": "8da5cb5b",
			"removeTokenLiquidity(address,uint256,uint256,address)": "74fcf071",
			"renounceOwnership()": "715018a6",
			"safeBatchTransferFrom(address,address,uint256[],uint256[],bytes)": "2eb2c2d6",
			"safeTransferFrom(address,address,uint256,uint256,bytes)": "f242432a",
			"setApprovalForAll(address,bool)": "a22cb465",
			"supportsInterface(bytes4)": "01ffc9a7",
			"swapExactTokensForTokens(address,address,uint256,uint256,uint256,address)": "a60c6e55",
			"swapTokensForExactTokens(address,address,uint256,uint256,uint256,address)": "f6524724",
			"symbol()": "95d89b41",
			"syncPool(address)": "8fb2e2c2",
			"testInit()": "b5d11e99",
			"testSetupTokens(address,address,address,address,address)": "eca01093",
			"totalSupply()": "18160ddd",
			"totalSupply(uint256)": "bd85b039",
			"transferOwnership(address)": "f2fde38b",
			"uri(uint256)": "0e89341c"
		}
	},
	"abi": [
		{
			"inputs": [],
			"stateMutability": "nonpayable",
			"type": "constructor"
		},
		{
			"inputs": [],
			"name": "CerbyCronJobsExecution_TransactionsAreTemporarilyDisabled",
			"type": "error"
		},
		{
			"inputs": [],
			"name": "CerbySwapLP1155V1_CallerIsNotOwnerNorApproved",
			"type": "error"
		},
		{
			"inputs": [],
			"name": "CerbySwapLP1155V1_TransactionsAreTemporarilyDisabled",
			"type": "error"
		},
		{
			"inputs": [],
			"name": "CerbySwapV1_AmountOfCerUsdMustBeLargerThanOne",
			"type": "error"
		},
		{
			"inputs": [],
			"name": "CerbySwapV1_AmountOfCerUsdOrTokensInMustBeLargerThanOne",
			"type": "error"
		},
		{
			"inputs": [],
			"name": "CerbySwapV1_AmountOfTokensMustBeLargerThanOne",
			"type": "error"
		},
		{
			"inputs": [],
			"name": "CerbySwapV1_CreditCerUsdIsOverflown",
			"type": "error"
		},
		{
			"inputs": [],
			"name": "CerbySwapV1_CreditCerUsdMustNotBeBelowZero",
			"type": "error"
		},
		{
			"inputs": [],
			"name": "CerbySwapV1_FeeIsWrong",
			"type": "error"
		},
		{
			"inputs": [],
			"name": "CerbySwapV1_FeeOnTransferTokensArentSupported",
			"type": "error"
		},
		{
			"inputs": [],
			"name": "CerbySwapV1_InputCerUsdAmountIsLargerThanMaximumSpecified",
			"type": "error"
		},
		{
			"inputs": [],
			"name": "CerbySwapV1_InputTokensAmountIsLargerThanMaximumSpecified",
			"type": "error"
		},
		{
			"inputs": [],
			"name": "CerbySwapV1_InvariantKValueMustBeSameOrIncreasedOnAnySwaps",
			"type": "error"
		},
		{
			"inputs": [],
			"name": "CerbySwapV1_MintFeeMultiplierMustNotBeLargerThan50Percent",
			"type": "error"
		},
		{
			"inputs": [],
			"name": "CerbySwapV1_MsgValueProvidedMustBeLargerThanAmountTokensIn",
			"type": "error"
		},
		{
			"inputs": [],
			"name": "CerbySwapV1_MsgValueProvidedMustBeZero",
			"type": "error"
		},
		{
			"inputs": [],
			"name": "CerbySwapV1_OutputCerUsdAmountIsLowerThanMinimumSpecified",
			"type": "error"
		},
		{
			"inputs": [],
			"name": "CerbySwapV1_OutputTokensAmountIsLowerThanMinimumSpecified",
			"type": "error"
		},
		{
			"inputs": [],
			"name": "CerbySwapV1_SafeTransferFromFailed",
			"type": "error"
		},
		{
			"inputs": [],
			"name": "CerbySwapV1_SafeTransferNativeFailed",
			"type": "error"
		},
		{
			"inputs": [],
			"name": "CerbySwapV1_SafeTransferTokensFailed",
			"type": "error"
		},
		{
			"inputs": [],
			"name": "CerbySwapV1_SwappingTokenToSameTokenIsForbidden",
			"type": "error"
		},
		{
			"inputs": [],
			"name": "CerbySwapV1_TokenAlreadyExists",
			"type": "error"
		},
		{
			"inputs": [],
			"name": "CerbySwapV1_TokenDoesNotExist",
			"type": "error"
		},
		{
			"inputs": [],
			"name": "CerbySwapV1_TransactionIsExpired",
			"type": "error"
		},
		{
			"inputs": [],
			"name": "CerbySwapV1_TvlMultiplierIsWrong",
			"type": "error"
		},
		{
			"inputs": [],
			"name": "ERC1155_AccountsAndIdsLengthMismatch",
			"type": "error"
		},
		{
			"inputs": [],
			"name": "ERC1155_BalanceQueryForTheZeroAddress",
			"type": "error"
		},
		{
			"inputs": [],
			"name": "ERC1155_BurnAmountExceedsBalance",
			"type": "error"
		},
		{
			"inputs": [],
			"name": "ERC1155_BurnFromZeroAddress",
			"type": "error"
		},
		{
			"inputs": [],
			"name": "ERC1155_ERC1155ReceiverRejectsTokens",
			"type": "error"
		},
		{
			"inputs": [],
			"name": "ERC1155_IdsAndAmountsLengthMismatch",
			"type": "error"
		},
		{
			"inputs": [],
			"name": "ERC1155_InsufficientBalanceForTransfer",
			"type": "error"
		},
		{
			"inputs": [],
			"name": "ERC1155_MintToZeroAddress",
			"type": "error"
		},
		{
			"inputs": [],
			"name": "ERC1155_SettingApprovalStatusForSelf",
			"type": "error"
		},
		{
			"inputs": [],
			"name": "ERC1155_TransferToNonERC1155ReceiverImplementer",
			"type": "error"
		},
		{
			"inputs": [],
			"name": "ERC1155_TransferToZeroAddress",
			"type": "error"
		},
		{
			"inputs": [],
			"name": "Ownable_CallerIsNotOwner",
			"type": "error"
		},
		{
			"inputs": [],
			"name": "Ownable_NewOwnerIsNotTheZeroAddress",
			"type": "error"
		},
		{
			"anonymous": false,
			"inputs": [
				{
					"indexed": true,
					"internalType": "address",
					"name": "account",
					"type": "address"
				},
				{
					"indexed": true,
					"internalType": "address",
					"name": "operator",
					"type": "address"
				},
				{
					"indexed": false,
					"internalType": "bool",
					"name": "approved",
					"type": "bool"
				}
			],
			"name": "ApprovalForAll",
			"type": "event"
		},
		{
			"anonymous": false,
			"inputs": [
				{
					"indexed": false,
					"internalType": "address",
					"name": "_token",
					"type": "address"
				},
				{
					"indexed": false,
					"internalType": "uint256",
					"name": "_amountTokensIn",
					"type": "uint256"
				},
				{
					"indexed": false,
					"internalType": "uint256",
					"name": "_amountCerUsdToMint",
					"type": "uint256"
				},
				{
					"indexed": false,
					"internalType": "uint256",
					"name": "_lpAmount",
					"type": "uint256"
				}
			],
			"name": "LiquidityAdded",
			"type": "event"
		},
		{
			"anonymous": false,
			"inputs": [
				{
					"indexed": false,
					"internalType": "address",
					"name": "_token",
					"type": "address"
				},
				{
					"indexed": false,
					"internalType": "uint256",
					"name": "_amountTokensOut",
					"type": "uint256"
				},
				{
					"indexed": false,
					"internalType": "uint256",
					"name": "_amountCerUsdToBurn",
					"type": "uint256"
				},
				{
					"indexed": false,
					"internalType": "uint256",
					"name": "_amountLpTokensBalanceToBurn",
					"type": "uint256"
				}
			],
			"name": "LiquidityRemoved",
			"type": "event"
		},
		{
			"anonymous": false,
			"inputs": [
				{
					"indexed": true,
					"internalType": "address",
					"name": "previousOwner",
					"type": "address"
				},
				{
					"indexed": true,
					"internalType": "address",
					"name": "newOwner",
					"type": "address"
				}
			],
			"name": "OwnershipTransferred",
			"type": "event"
		},
		{
			"anonymous": false,
			"inputs": [
				{
					"indexed": false,
					"internalType": "address",
					"name": "_token",
					"type": "address"
				},
				{
					"indexed": false,
					"internalType": "uint256",
					"name": "_poolId",
					"type": "uint256"
				}
			],
			"name": "PairCreated",
			"type": "event"
		},
		{
			"anonymous": false,
			"inputs": [
				{
					"indexed": false,
					"internalType": "address",
					"name": "_token",
					"type": "address"
				},
				{
					"indexed": false,
					"internalType": "address",
					"name": "_sender",
					"type": "address"
				},
				{
					"indexed": false,
					"internalType": "uint256",
					"name": "_amountTokensIn",
					"type": "uint256"
				},
				{
					"indexed": false,
					"internalType": "uint256",
					"name": "_amountCerUsdIn",
					"type": "uint256"
				},
				{
					"indexed": false,
					"internalType": "uint256",
					"name": "__amountTokensOut",
					"type": "uint256"
				},
				{
					"indexed": false,
					"internalType": "uint256",
					"name": "amountCerUsdOut",
					"type": "uint256"
				},
				{
					"indexed": false,
					"internalType": "uint256",
					"name": "_currentFee",
					"type": "uint256"
				},
				{
					"indexed": false,
					"internalType": "address",
					"name": "_transferTo",
					"type": "address"
				}
			],
			"name": "Swap",
			"type": "event"
		},
		{
			"anonymous": false,
			"inputs": [
				{
					"indexed": false,
					"internalType": "address",
					"name": "_token",
					"type": "address"
				},
				{
					"indexed": false,
					"internalType": "uint256",
					"name": "_newBalanceToken",
					"type": "uint256"
				},
				{
					"indexed": false,
					"internalType": "uint256",
					"name": "_newBalanceCerUsd",
					"type": "uint256"
				},
				{
					"indexed": false,
					"internalType": "uint256",
					"name": "_newCreditCerUsd",
					"type": "uint256"
				}
			],
			"name": "Sync",
			"type": "event"
		},
		{
			"anonymous": false,
			"inputs": [
				{
					"indexed": true,
					"internalType": "address",
					"name": "operator",
					"type": "address"
				},
				{
					"indexed": true,
					"internalType": "address",
					"name": "from",
					"type": "address"
				},
				{
					"indexed": true,
					"internalType": "address",
					"name": "to",
					"type": "address"
				},
				{
					"indexed": false,
					"internalType": "uint256[]",
					"name": "ids",
					"type": "uint256[]"
				},
				{
					"indexed": false,
					"internalType": "uint256[]",
					"name": "values",
					"type": "uint256[]"
				}
			],
			"name": "TransferBatch",
			"type": "event"
		},
		{
			"anonymous": false,
			"inputs": [
				{
					"indexed": true,
					"internalType": "address",
					"name": "operator",
					"type": "address"
				},
				{
					"indexed": true,
					"internalType": "address",
					"name": "from",
					"type": "address"
				},
				{
					"indexed": true,
					"internalType": "address",
					"name": "to",
					"type": "address"
				},
				{
					"indexed": false,
					"internalType": "uint256",
					"name": "id",
					"type": "uint256"
				},
				{
					"indexed": false,
					"internalType": "uint256",
					"name": "value",
					"type": "uint256"
				}
			],
			"name": "TransferSingle",
			"type": "event"
		},
		{
			"anonymous": false,
			"inputs": [
				{
					"indexed": false,
					"internalType": "string",
					"name": "value",
					"type": "string"
				},
				{
					"indexed": true,
					"internalType": "uint256",
					"name": "id",
					"type": "uint256"
				}
			],
			"name": "URI",
			"type": "event"
		},
		{
			"inputs": [
				{
					"internalType": "address",
					"name": "token",
					"type": "address"
				},
				{
					"internalType": "uint256",
					"name": "amountTokensIn",
					"type": "uint256"
				},
				{
					"internalType": "uint256",
					"name": "expireTimestamp",
					"type": "uint256"
				},
				{
					"internalType": "address",
					"name": "transferTo",
					"type": "address"
				}
			],
			"name": "addTokenLiquidity",
			"outputs": [
				{
					"internalType": "uint256",
					"name": "",
					"type": "uint256"
				}
			],
			"stateMutability": "payable",
			"type": "function"
		},
		{
			"inputs": [
				{
					"internalType": "address",
					"name": "_token",
					"type": "address"
				},
				{
					"internalType": "uint256",
					"name": "_amountCerUsdCredit",
					"type": "uint256"
				}
			],
			"name": "adminChangeCerUsdCreditInPool",
			"outputs": [],
			"stateMutability": "nonpayable",
			"type": "function"
		},
		{
			"inputs": [
				{
					"internalType": "address",
					"name": "_token",
					"type": "address"
				},
				{
					"internalType": "uint256",
					"name": "_amountTokensIn",
					"type": "uint256"
				},
				{
					"internalType": "uint256",
					"name": "_amountCerUsdToMint",
					"type": "uint256"
				},
				{
					"internalType": "address",
					"name": "_transferTo",
					"type": "address"
				}
			],
			"name": "adminCreatePool",
			"outputs": [],
			"stateMutability": "payable",
			"type": "function"
		},
		{
			"inputs": [],
			"name": "adminInitialize",
			"outputs": [],
			"stateMutability": "payable",
			"type": "function"
		},
		{
			"inputs": [
				{
					"internalType": "string",
					"name": "_newUrlPrefix",
					"type": "string"
				}
			],
			"name": "adminSetURI",
			"outputs": [],
			"stateMutability": "nonpayable",
			"type": "function"
		},
		{
			"inputs": [
				{
					"components": [
						{
							"internalType": "address",
							"name": "mintFeeBeneficiary",
							"type": "address"
						},
						{
							"internalType": "uint256",
							"name": "mintFeeMultiplier",
							"type": "uint256"
						},
						{
							"internalType": "uint256",
							"name": "feeMinimum",
							"type": "uint256"
						},
						{
							"internalType": "uint256",
							"name": "feeMaximum",
							"type": "uint256"
						},
						{
							"internalType": "uint256",
							"name": "tvlMultiplierMinimum",
							"type": "uint256"
						},
						{
							"internalType": "uint256",
							"name": "tvlMultiplierMaximum",
							"type": "uint256"
						}
					],
					"internalType": "struct CerbySwapV1_Declarations.Settings",
					"name": "_settings",
					"type": "tuple"
				}
			],
			"name": "adminUpdateFeesAndTvlMultipliers",
			"outputs": [],
			"stateMutability": "nonpayable",
			"type": "function"
		},
		{
			"inputs": [
				{
					"internalType": "string",
					"name": "_newContractName",
					"type": "string"
				},
				{
					"internalType": "string",
					"name": "_newContractSymbol",
					"type": "string"
				}
			],
			"name": "adminUpdateNameAndSymbol",
			"outputs": [],
			"stateMutability": "nonpayable",
			"type": "function"
		},
		{
			"inputs": [
				{
					"internalType": "address",
					"name": "_account",
					"type": "address"
				},
				{
					"internalType": "uint256",
					"name": "_id",
					"type": "uint256"
				}
			],
			"name": "balanceOf",
			"outputs": [
				{
					"internalType": "uint256",
					"name": "",
					"type": "uint256"
				}
			],
			"stateMutability": "view",
			"type": "function"
		},
		{
			"inputs": [
				{
					"internalType": "address[]",
					"name": "_accounts",
					"type": "address[]"
				},
				{
					"internalType": "uint256[]",
					"name": "_ids",
					"type": "uint256[]"
				}
			],
			"name": "balanceOfBatch",
			"outputs": [
				{
					"internalType": "uint256[]",
					"name": "",
					"type": "uint256[]"
				}
			],
			"stateMutability": "view",
			"type": "function"
		},
		{
			"inputs": [
				{
					"internalType": "address",
					"name": "token",
					"type": "address"
				},
				{
					"internalType": "uint256",
					"name": "amountTokensIn",
					"type": "uint256"
				},
				{
					"internalType": "uint256",
					"name": "amountCerUsdToMint",
					"type": "uint256"
				},
				{
					"internalType": "address",
					"name": "transferTo",
					"type": "address"
				}
			],
			"name": "createPool",
			"outputs": [],
			"stateMutability": "payable",
			"type": "function"
		},
		{
			"inputs": [],
			"name": "decimals",
			"outputs": [
				{
					"internalType": "uint256",
					"name": "",
					"type": "uint256"
				}
			],
			"stateMutability": "pure",
			"type": "function"
		},
		{
			"inputs": [
				{
					"internalType": "uint256",
					"name": "_id",
					"type": "uint256"
				}
			],
			"name": "exists",
			"outputs": [
				{
					"internalType": "bool",
					"name": "",
					"type": "bool"
				}
			],
			"stateMutability": "view",
			"type": "function"
		},
		{
			"inputs": [
				{
					"internalType": "address",
					"name": "_token",
					"type": "address"
				}
			],
			"name": "getCurrentOneMinusFeeBasedOnTrades",
			"outputs": [
				{
					"internalType": "uint256",
					"name": "fee",
					"type": "uint256"
				}
			],
			"stateMutability": "view",
			"type": "function"
		},
		{
			"inputs": [
				{
					"internalType": "address",
					"name": "_tokenIn",
					"type": "address"
				},
				{
					"internalType": "address",
					"name": "_tokenOut",
					"type": "address"
				},
				{
					"internalType": "uint256",
					"name": "_amountTokensOut",
					"type": "uint256"
				}
			],
			"name": "getInputTokensForExactTokens",
			"outputs": [
				{
					"internalType": "uint256",
					"name": "",
					"type": "uint256"
				}
			],
			"stateMutability": "view",
			"type": "function"
		},
		{
			"inputs": [
				{
					"internalType": "address",
					"name": "_tokenIn",
					"type": "address"
				},
				{
					"internalType": "address",
					"name": "_tokenOut",
					"type": "address"
				},
				{
					"internalType": "uint256",
					"name": "_amountTokensIn",
					"type": "uint256"
				}
			],
			"name": "getOutputExactTokensForTokens",
			"outputs": [
				{
					"internalType": "uint256",
					"name": "",
					"type": "uint256"
				}
			],
			"stateMutability": "view",
			"type": "function"
		},
		{
			"inputs": [
				{
					"internalType": "uint256[]",
					"name": "_ids",
					"type": "uint256[]"
				}
			],
			"name": "getPoolsByIds",
			"outputs": [
				{
					"components": [
						{
							"internalType": "uint32[8]",
							"name": "tradeVolumePerPeriodInCerUsd",
							"type": "uint32[8]"
						},
						{
							"internalType": "uint128",
							"name": "balanceToken",
							"type": "uint128"
						},
						{
							"internalType": "uint128",
							"name": "balanceCerUsd",
							"type": "uint128"
						},
						{
							"internalType": "uint128",
							"name": "lastSqrtKValue",
							"type": "uint128"
						},
						{
							"internalType": "uint256",
							"name": "creditCerUsd",
							"type": "uint256"
						}
					],
					"internalType": "struct CerbySwapV1_Declarations.Pool[]",
					"name": "",
					"type": "tuple[]"
				}
			],
			"stateMutability": "view",
			"type": "function"
		},
		{
			"inputs": [
				{
					"internalType": "address[]",
					"name": "_tokens",
					"type": "address[]"
				}
			],
			"name": "getPoolsByTokens",
			"outputs": [
				{
					"components": [
						{
							"internalType": "uint32[8]",
							"name": "tradeVolumePerPeriodInCerUsd",
							"type": "uint32[8]"
						},
						{
							"internalType": "uint128",
							"name": "balanceToken",
							"type": "uint128"
						},
						{
							"internalType": "uint128",
							"name": "balanceCerUsd",
							"type": "uint128"
						},
						{
							"internalType": "uint128",
							"name": "lastSqrtKValue",
							"type": "uint128"
						},
						{
							"internalType": "uint256",
							"name": "creditCerUsd",
							"type": "uint256"
						}
					],
					"internalType": "struct CerbySwapV1_Declarations.Pool[]",
					"name": "",
					"type": "tuple[]"
				}
			],
			"stateMutability": "view",
			"type": "function"
		},
		{
			"inputs": [],
			"name": "getSettings",
			"outputs": [
				{
					"components": [
						{
							"internalType": "address",
							"name": "mintFeeBeneficiary",
							"type": "address"
						},
						{
							"internalType": "uint256",
							"name": "mintFeeMultiplier",
							"type": "uint256"
						},
						{
							"internalType": "uint256",
							"name": "feeMinimum",
							"type": "uint256"
						},
						{
							"internalType": "uint256",
							"name": "feeMaximum",
							"type": "uint256"
						},
						{
							"internalType": "uint256",
							"name": "tvlMultiplierMinimum",
							"type": "uint256"
						},
						{
							"internalType": "uint256",
							"name": "tvlMultiplierMaximum",
							"type": "uint256"
						}
					],
					"internalType": "struct CerbySwapV1_Declarations.Settings",
					"name": "",
					"type": "tuple"
				}
			],
			"stateMutability": "view",
			"type": "function"
		},
		{
			"inputs": [
				{
					"internalType": "address",
					"name": "_token",
					"type": "address"
				}
			],
			"name": "getTokenToPoolId",
			"outputs": [
				{
					"internalType": "uint256",
					"name": "",
					"type": "uint256"
				}
			],
			"stateMutability": "view",
			"type": "function"
		},
		{
			"inputs": [
				{
					"internalType": "uint256",
					"name": "_pos",
					"type": "uint256"
				}
			],
			"name": "getUtilsContractAtPos",
			"outputs": [
				{
					"internalType": "address",
					"name": "",
					"type": "address"
				}
			],
			"stateMutability": "view",
			"type": "function"
		},
		{
			"inputs": [
				{
					"internalType": "address",
					"name": "_token",
					"type": "address"
				},
				{
					"internalType": "uint256",
					"name": "_amountCerUsdCredit",
					"type": "uint256"
				}
			],
			"name": "increaseCerUsdCreditInPool",
			"outputs": [],
			"stateMutability": "nonpayable",
			"type": "function"
		},
		{
			"inputs": [
				{
					"internalType": "address",
					"name": "_account",
					"type": "address"
				},
				{
					"internalType": "address",
					"name": "_operator",
					"type": "address"
				}
			],
			"name": "isApprovedForAll",
			"outputs": [
				{
					"internalType": "bool",
					"name": "",
					"type": "bool"
				}
			],
			"stateMutability": "view",
			"type": "function"
		},
		{
			"inputs": [],
			"name": "name",
			"outputs": [
				{
					"internalType": "string",
					"name": "",
					"type": "string"
				}
			],
			"stateMutability": "view",
			"type": "function"
		},
		{
			"inputs": [],
			"name": "owner",
			"outputs": [
				{
					"internalType": "address",
					"name": "",
					"type": "address"
				}
			],
			"stateMutability": "view",
			"type": "function"
		},
		{
			"inputs": [
				{
					"internalType": "address",
					"name": "token",
					"type": "address"
				},
				{
					"internalType": "uint256",
					"name": "amountLpTokensBalanceToBurn",
					"type": "uint256"
				},
				{
					"internalType": "uint256",
					"name": "expireTimestamp",
					"type": "uint256"
				},
				{
					"internalType": "address",
					"name": "transferTo",
					"type": "address"
				}
			],
			"name": "removeTokenLiquidity",
			"outputs": [
				{
					"internalType": "uint256",
					"name": "",
					"type": "uint256"
				}
			],
			"stateMutability": "nonpayable",
			"type": "function"
		},
		{
			"inputs": [],
			"name": "renounceOwnership",
			"outputs": [],
			"stateMutability": "nonpayable",
			"type": "function"
		},
		{
			"inputs": [
				{
					"internalType": "address",
					"name": "_from",
					"type": "address"
				},
				{
					"internalType": "address",
					"name": "_to",
					"type": "address"
				},
				{
					"internalType": "uint256[]",
					"name": "_ids",
					"type": "uint256[]"
				},
				{
					"internalType": "uint256[]",
					"name": "_amounts",
					"type": "uint256[]"
				},
				{
					"internalType": "bytes",
					"name": "_data",
					"type": "bytes"
				}
			],
			"name": "safeBatchTransferFrom",
			"outputs": [],
			"stateMutability": "nonpayable",
			"type": "function"
		},
		{
			"inputs": [
				{
					"internalType": "address",
					"name": "_from",
					"type": "address"
				},
				{
					"internalType": "address",
					"name": "_to",
					"type": "address"
				},
				{
					"internalType": "uint256",
					"name": "_id",
					"type": "uint256"
				},
				{
					"internalType": "uint256",
					"name": "_amount",
					"type": "uint256"
				},
				{
					"internalType": "bytes",
					"name": "_data",
					"type": "bytes"
				}
			],
			"name": "safeTransferFrom",
			"outputs": [],
			"stateMutability": "nonpayable",
			"type": "function"
		},
		{
			"inputs": [
				{
					"internalType": "address",
					"name": "_operator",
					"type": "address"
				},
				{
					"internalType": "bool",
					"name": "_approved",
					"type": "bool"
				}
			],
			"name": "setApprovalForAll",
			"outputs": [],
			"stateMutability": "nonpayable",
			"type": "function"
		},
		{
			"inputs": [
				{
					"internalType": "bytes4",
					"name": "interfaceId",
					"type": "bytes4"
				}
			],
			"name": "supportsInterface",
			"outputs": [
				{
					"internalType": "bool",
					"name": "",
					"type": "bool"
				}
			],
			"stateMutability": "view",
			"type": "function"
		},
		{
			"inputs": [
				{
					"internalType": "address",
					"name": "_tokenIn",
					"type": "address"
				},
				{
					"internalType": "address",
					"name": "_tokenOut",
					"type": "address"
				},
				{
					"internalType": "uint256",
					"name": "_amountTokensIn",
					"type": "uint256"
				},
				{
					"internalType": "uint256",
					"name": "_minAmountTokensOut",
					"type": "uint256"
				},
				{
					"internalType": "uint256",
					"name": "_expireTimestamp",
					"type": "uint256"
				},
				{
					"internalType": "address",
					"name": "_transferTo",
					"type": "address"
				}
			],
			"name": "swapExactTokensForTokens",
			"outputs": [
				{
					"internalType": "uint256",
					"name": "",
					"type": "uint256"
				},
				{
					"internalType": "uint256",
					"name": "",
					"type": "uint256"
				}
			],
			"stateMutability": "payable",
			"type": "function"
		},
		{
			"inputs": [
				{
					"internalType": "address",
					"name": "_tokenIn",
					"type": "address"
				},
				{
					"internalType": "address",
					"name": "_tokenOut",
					"type": "address"
				},
				{
					"internalType": "uint256",
					"name": "_amountTokensOut",
					"type": "uint256"
				},
				{
					"internalType": "uint256",
					"name": "_maxAmountTokensIn",
					"type": "uint256"
				},
				{
					"internalType": "uint256",
					"name": "_expireTimestamp",
					"type": "uint256"
				},
				{
					"internalType": "address",
					"name": "_transferTo",
					"type": "address"
				}
			],
			"name": "swapTokensForExactTokens",
			"outputs": [
				{
					"internalType": "uint256",
					"name": "",
					"type": "uint256"
				},
				{
					"internalType": "uint256",
					"name": "",
					"type": "uint256"
				}
			],
			"stateMutability": "payable",
			"type": "function"
		},
		{
			"inputs": [],
			"name": "symbol",
			"outputs": [
				{
					"internalType": "string",
					"name": "",
					"type": "string"
				}
			],
			"stateMutability": "view",
			"type": "function"
		},
		{
			"inputs": [
				{
					"internalType": "address",
					"name": "token",
					"type": "address"
				}
			],
			"name": "syncPool",
			"outputs": [],
			"stateMutability": "nonpayable",
			"type": "function"
		},
		{
			"inputs": [],
			"name": "testInit",
			"outputs": [],
			"stateMutability": "nonpayable",
			"type": "function"
		},
		{
			"inputs": [
				{
					"internalType": "address",
					"name": "",
					"type": "address"
				},
				{
					"internalType": "address",
					"name": "_testCerbyToken",
					"type": "address"
				},
				{
					"internalType": "address",
					"name": "_cerUsdToken",
					"type": "address"
				},
				{
					"internalType": "address",
					"name": "_testUsdcToken",
					"type": "address"
				},
				{
					"internalType": "address",
					"name": "",
					"type": "address"
				}
			],
			"name": "testSetupTokens",
			"outputs": [],
			"stateMutability": "nonpayable",
			"type": "function"
		},
		{
			"inputs": [],
			"name": "totalSupply",
			"outputs": [
				{
					"internalType": "uint256",
					"name": "",
					"type": "uint256"
				}
			],
			"stateMutability": "view",
			"type": "function"
		},
		{
			"inputs": [
				{
					"internalType": "uint256",
					"name": "_id",
					"type": "uint256"
				}
			],
			"name": "totalSupply",
			"outputs": [
				{
					"internalType": "uint256",
					"name": "",
					"type": "uint256"
				}
			],
			"stateMutability": "view",
			"type": "function"
		},
		{
			"inputs": [
				{
					"internalType": "address",
					"name": "_newOwner",
					"type": "address"
				}
			],
			"name": "transferOwnership",
			"outputs": [],
			"stateMutability": "nonpayable",
			"type": "function"
		},
		{
			"inputs": [
				{
					"internalType": "uint256",
					"name": "_id",
					"type": "uint256"
				}
			],
			"name": "uri",
			"outputs": [
				{
					"internalType": "string",
					"name": "",
					"type": "string"
				}
			],
			"stateMutability": "view",
			"type": "function"
		},
		{
			"stateMutability": "payable",
			"type": "receive"
		}
	]
}